{
	"第3题/Demo.sol": {
		"Bank": {
			"abi": [
				{
					"constant": false,
					"inputs": [
						{
							"name": "accountId",
							"type": "uint256"
						},
						{
							"name": "token",
							"type": "address"
						},
						{
							"name": "amount",
							"type": "uint256"
						}
					],
					"name": "depositToken",
					"outputs": [],
					"payable": false,
					"stateMutability": "nonpayable",
					"type": "function"
				},
				{
					"constant": true,
					"inputs": [
						{
							"name": "accountId",
							"type": "uint256"
						}
					],
					"name": "getAccountInfo",
					"outputs": [
						{
							"name": "",
							"type": "string"
						},
						{
							"name": "",
							"type": "uint256"
						}
					],
					"payable": false,
					"stateMutability": "view",
					"type": "function"
				},
				{
					"constant": false,
					"inputs": [
						{
							"name": "accountId",
							"type": "uint256"
						},
						{
							"name": "name",
							"type": "string"
						}
					],
					"name": "setAccountName",
					"outputs": [],
					"payable": false,
					"stateMutability": "nonpayable",
					"type": "function"
				},
				{
					"constant": true,
					"inputs": [
						{
							"name": "accountId",
							"type": "uint256"
						},
						{
							"name": "token",
							"type": "address"
						}
					],
					"name": "getAccountBalance",
					"outputs": [
						{
							"name": "",
							"type": "uint256"
						}
					],
					"payable": false,
					"stateMutability": "view",
					"type": "function"
				},
				{
					"constant": false,
					"inputs": [
						{
							"name": "accountId",
							"type": "uint256"
						},
						{
							"name": "token",
							"type": "address"
						},
						{
							"name": "amount",
							"type": "uint256"
						}
					],
					"name": "withdrawToken",
					"outputs": [],
					"payable": false,
					"stateMutability": "nonpayable",
					"type": "function"
				},
				{
					"constant": false,
					"inputs": [],
					"name": "closeLastAccount",
					"outputs": [],
					"payable": false,
					"stateMutability": "nonpayable",
					"type": "function"
				},
				{
					"constant": false,
					"inputs": [],
					"name": "acceptOwnership",
					"outputs": [],
					"payable": false,
					"stateMutability": "nonpayable",
					"type": "function"
				},
				{
					"constant": true,
					"inputs": [
						{
							"name": "",
							"type": "address"
						},
						{
							"name": "",
							"type": "uint256"
						}
					],
					"name": "accounts",
					"outputs": [
						{
							"name": "accountName",
							"type": "string"
						},
						{
							"name": "uniqueTokens",
							"type": "uint256"
						}
					],
					"payable": false,
					"stateMutability": "view",
					"type": "function"
				},
				{
					"constant": true,
					"inputs": [],
					"name": "owner",
					"outputs": [
						{
							"name": "",
							"type": "address"
						}
					],
					"payable": false,
					"stateMutability": "view",
					"type": "function"
				},
				{
					"constant": true,
					"inputs": [],
					"name": "pendingOwner",
					"outputs": [
						{
							"name": "",
							"type": "address"
						}
					],
					"payable": false,
					"stateMutability": "view",
					"type": "function"
				},
				{
					"constant": false,
					"inputs": [
						{
							"name": "newOwner",
							"type": "address"
						}
					],
					"name": "transferOwnership",
					"outputs": [],
					"payable": false,
					"stateMutability": "nonpayable",
					"type": "function"
				},
				{
					"inputs": [],
					"payable": false,
					"stateMutability": "nonpayable",
					"type": "constructor"
				}
			],
			"devdoc": {
				"methods": {}
			},
			"evm": {
				"assembly": "    /* \"第3题/Demo.sol\":451:4941  contract Bank {\r... */\n  mstore(0x40, 0x80)\n    /* \"第3题/Demo.sol\":735:793  constructor() public {\r... */\n  callvalue\n    /* \"--CODEGEN--\":8:17   */\n  dup1\n    /* \"--CODEGEN--\":5:7   */\n  iszero\n  tag_1\n  jumpi\n    /* \"--CODEGEN--\":30:31   */\n  0x0\n    /* \"--CODEGEN--\":27:28   */\n  dup1\n    /* \"--CODEGEN--\":20:32   */\n  revert\n    /* \"--CODEGEN--\":5:7   */\ntag_1:\n    /* \"第3题/Demo.sol\":735:793  constructor() public {\r... */\n  pop\n    /* \"第3题/Demo.sol\":775:785  msg.sender */\n  caller\n    /* \"第3题/Demo.sol\":767:772  owner */\n  0x0\n  dup1\n    /* \"第3题/Demo.sol\":767:785  owner = msg.sender */\n  0x100\n  exp\n  dup2\n  sload\n  dup2\n  0xffffffffffffffffffffffffffffffffffffffff\n  mul\n  not\n  and\n  swap1\n  dup4\n  0xffffffffffffffffffffffffffffffffffffffff\n  and\n  mul\n  or\n  swap1\n  sstore\n  pop\n    /* \"第3题/Demo.sol\":451:4941  contract Bank {\r... */\n  dataSize(sub_0)\n  dup1\n  dataOffset(sub_0)\n  0x0\n  codecopy\n  0x0\n  return\nstop\n\nsub_0: assembly {\n        /* \"第3题/Demo.sol\":451:4941  contract Bank {\r... */\n      mstore(0x40, 0x80)\n      jumpi(tag_1, lt(calldatasize, 0x4))\n      calldataload(0x0)\n      0x100000000000000000000000000000000000000000000000000000000\n      swap1\n      div\n      0xffffffff\n      and\n      dup1\n      0xa9306d7\n      eq\n      tag_2\n      jumpi\n      dup1\n      0x3b561afc\n      eq\n      tag_3\n      jumpi\n      dup1\n      0x5e46bf8d\n      eq\n      tag_4\n      jumpi\n      dup1\n      0x5e81300a\n      eq\n      tag_5\n      jumpi\n      dup1\n      0x68a6773b\n      eq\n      tag_6\n      jumpi\n      dup1\n      0x6973d7fa\n      eq\n      tag_7\n      jumpi\n      dup1\n      0x79ba5097\n      eq\n      tag_8\n      jumpi\n      dup1\n      0x87524581\n      eq\n      tag_9\n      jumpi\n      dup1\n      0x8da5cb5b\n      eq\n      tag_10\n      jumpi\n      dup1\n      0xe30c3978\n      eq\n      tag_11\n      jumpi\n      dup1\n      0xf2fde38b\n      eq\n      tag_12\n      jumpi\n    tag_1:\n      0x0\n      dup1\n      revert\n        /* \"第3题/Demo.sol\":801:2004  function depositToken(\r... */\n    tag_2:\n      callvalue\n        /* \"--CODEGEN--\":8:17   */\n      dup1\n        /* \"--CODEGEN--\":5:7   */\n      iszero\n      tag_13\n      jumpi\n        /* \"--CODEGEN--\":30:31   */\n      0x0\n        /* \"--CODEGEN--\":27:28   */\n      dup1\n        /* \"--CODEGEN--\":20:32   */\n      revert\n        /* \"--CODEGEN--\":5:7   */\n    tag_13:\n        /* \"第3题/Demo.sol\":801:2004  function depositToken(\r... */\n      pop\n      tag_14\n      0x4\n      dup1\n      calldatasize\n      sub\n      dup2\n      add\n      swap1\n      dup1\n      dup1\n      calldataload\n      swap1\n      0x20\n      add\n      swap1\n      swap3\n      swap2\n      swap1\n      dup1\n      calldataload\n      0xffffffffffffffffffffffffffffffffffffffff\n      and\n      swap1\n      0x20\n      add\n      swap1\n      swap3\n      swap2\n      swap1\n      dup1\n      calldataload\n      swap1\n      0x20\n      add\n      swap1\n      swap3\n      swap2\n      swap1\n      pop\n      pop\n      pop\n      jump(tag_15)\n    tag_14:\n      stop\n        /* \"第3题/Demo.sol\":3928:4309  function getAccountInfo(uint256 accountId)\r... */\n    tag_3:\n      callvalue\n        /* \"--CODEGEN--\":8:17   */\n      dup1\n        /* \"--CODEGEN--\":5:7   */\n      iszero\n      tag_16\n      jumpi\n        /* \"--CODEGEN--\":30:31   */\n      0x0\n        /* \"--CODEGEN--\":27:28   */\n      dup1\n        /* \"--CODEGEN--\":20:32   */\n      revert\n        /* \"--CODEGEN--\":5:7   */\n    tag_16:\n        /* \"第3题/Demo.sol\":3928:4309  function getAccountInfo(uint256 accountId)\r... */\n      pop\n      tag_17\n      0x4\n      dup1\n      calldatasize\n      sub\n      dup2\n      add\n      swap1\n      dup1\n      dup1\n      calldataload\n      swap1\n      0x20\n      add\n      swap1\n      swap3\n      swap2\n      swap1\n      pop\n      pop\n      pop\n      jump(tag_18)\n    tag_17:\n      mload(0x40)\n      dup1\n      dup1\n      0x20\n      add\n      dup4\n      dup2\n      mstore\n      0x20\n      add\n      dup3\n      dup2\n      sub\n      dup3\n      mstore\n      dup5\n      dup2\n      dup2\n      mload\n      dup2\n      mstore\n      0x20\n      add\n      swap2\n      pop\n      dup1\n      mload\n      swap1\n      0x20\n      add\n      swap1\n      dup1\n      dup4\n      dup4\n        /* \"--CODEGEN--\":23:24   */\n      0x0\n        /* \"--CODEGEN--\":8:108   */\n    tag_19:\n        /* \"--CODEGEN--\":33:36   */\n      dup4\n        /* \"--CODEGEN--\":30:31   */\n      dup2\n        /* \"--CODEGEN--\":27:37   */\n      lt\n        /* \"--CODEGEN--\":8:108   */\n      iszero\n      tag_20\n      jumpi\n        /* \"--CODEGEN--\":99:100   */\n      dup1\n        /* \"--CODEGEN--\":94:97   */\n      dup3\n        /* \"--CODEGEN--\":90:101   */\n      add\n        /* \"--CODEGEN--\":84:102   */\n      mload\n        /* \"--CODEGEN--\":80:81   */\n      dup2\n        /* \"--CODEGEN--\":75:78   */\n      dup5\n        /* \"--CODEGEN--\":71:82   */\n      add\n        /* \"--CODEGEN--\":64:103   */\n      mstore\n        /* \"--CODEGEN--\":52:54   */\n      0x20\n        /* \"--CODEGEN--\":49:50   */\n      dup2\n        /* \"--CODEGEN--\":45:55   */\n      add\n        /* \"--CODEGEN--\":40:55   */\n      swap1\n      pop\n        /* \"--CODEGEN--\":8:108   */\n      jump(tag_19)\n    tag_20:\n        /* \"--CODEGEN--\":12:26   */\n      pop\n        /* \"第3题/Demo.sol\":3928:4309  function getAccountInfo(uint256 accountId)\r... */\n      pop\n      pop\n      pop\n      swap1\n      pop\n      swap1\n      dup2\n      add\n      swap1\n      0x1f\n      and\n      dup1\n      iszero\n      tag_22\n      jumpi\n      dup1\n      dup3\n      sub\n      dup1\n      mload\n      0x1\n      dup4\n      0x20\n      sub\n      0x100\n      exp\n      sub\n      not\n      and\n      dup2\n      mstore\n      0x20\n      add\n      swap2\n      pop\n    tag_22:\n      pop\n      swap4\n      pop\n      pop\n      pop\n      pop\n      mload(0x40)\n      dup1\n      swap2\n      sub\n      swap1\n      return\n        /* \"第3题/Demo.sol\":3286:3534  function setAccountName(uint256 accountId, string name) external {\r... */\n    tag_4:\n      callvalue\n        /* \"--CODEGEN--\":8:17   */\n      dup1\n        /* \"--CODEGEN--\":5:7   */\n      iszero\n      tag_23\n      jumpi\n        /* \"--CODEGEN--\":30:31   */\n      0x0\n        /* \"--CODEGEN--\":27:28   */\n      dup1\n        /* \"--CODEGEN--\":20:32   */\n      revert\n        /* \"--CODEGEN--\":5:7   */\n    tag_23:\n        /* \"第3题/Demo.sol\":3286:3534  function setAccountName(uint256 accountId, string name) external {\r... */\n      pop\n      tag_24\n      0x4\n      dup1\n      calldatasize\n      sub\n      dup2\n      add\n      swap1\n      dup1\n      dup1\n      calldataload\n      swap1\n      0x20\n      add\n      swap1\n      swap3\n      swap2\n      swap1\n      dup1\n      calldataload\n      swap1\n      0x20\n      add\n      swap1\n      dup3\n      add\n      dup1\n      calldataload\n      swap1\n      0x20\n      add\n      swap2\n      swap1\n      swap2\n      swap3\n      swap4\n      swap2\n      swap3\n      swap4\n      swap1\n      pop\n      pop\n      pop\n      jump(tag_25)\n    tag_24:\n      stop\n        /* \"第3题/Demo.sol\":4317:4627  function getAccountBalance(uint256 accountId, address token)\r... */\n    tag_5:\n      callvalue\n        /* \"--CODEGEN--\":8:17   */\n      dup1\n        /* \"--CODEGEN--\":5:7   */\n      iszero\n      tag_26\n      jumpi\n        /* \"--CODEGEN--\":30:31   */\n      0x0\n        /* \"--CODEGEN--\":27:28   */\n      dup1\n        /* \"--CODEGEN--\":20:32   */\n      revert\n        /* \"--CODEGEN--\":5:7   */\n    tag_26:\n        /* \"第3题/Demo.sol\":4317:4627  function getAccountBalance(uint256 accountId, address token)\r... */\n      pop\n      tag_27\n      0x4\n      dup1\n      calldatasize\n      sub\n      dup2\n      add\n      swap1\n      dup1\n      dup1\n      calldataload\n      swap1\n      0x20\n      add\n      swap1\n      swap3\n      swap2\n      swap1\n      dup1\n      calldataload\n      0xffffffffffffffffffffffffffffffffffffffff\n      and\n      swap1\n      0x20\n      add\n      swap1\n      swap3\n      swap2\n      swap1\n      pop\n      pop\n      pop\n      jump(tag_28)\n    tag_27:\n      mload(0x40)\n      dup1\n      dup3\n      dup2\n      mstore\n      0x20\n      add\n      swap2\n      pop\n      pop\n      mload(0x40)\n      dup1\n      swap2\n      sub\n      swap1\n      return\n        /* \"第3题/Demo.sol\":2012:3278  function withdrawToken(\r... */\n    tag_6:\n      callvalue\n        /* \"--CODEGEN--\":8:17   */\n      dup1\n        /* \"--CODEGEN--\":5:7   */\n      iszero\n      tag_29\n      jumpi\n        /* \"--CODEGEN--\":30:31   */\n      0x0\n        /* \"--CODEGEN--\":27:28   */\n      dup1\n        /* \"--CODEGEN--\":20:32   */\n      revert\n        /* \"--CODEGEN--\":5:7   */\n    tag_29:\n        /* \"第3题/Demo.sol\":2012:3278  function withdrawToken(\r... */\n      pop\n      tag_30\n      0x4\n      dup1\n      calldatasize\n      sub\n      dup2\n      add\n      swap1\n      dup1\n      dup1\n      calldataload\n      swap1\n      0x20\n      add\n      swap1\n      swap3\n      swap2\n      swap1\n      dup1\n      calldataload\n      0xffffffffffffffffffffffffffffffffffffffff\n      and\n      swap1\n      0x20\n      add\n      swap1\n      swap3\n      swap2\n      swap1\n      dup1\n      calldataload\n      swap1\n      0x20\n      add\n      swap1\n      swap3\n      swap2\n      swap1\n      pop\n      pop\n      pop\n      jump(tag_31)\n    tag_30:\n      stop\n        /* \"第3题/Demo.sol\":3542:3920  function closeLastAccount() external {\r... */\n    tag_7:\n      callvalue\n        /* \"--CODEGEN--\":8:17   */\n      dup1\n        /* \"--CODEGEN--\":5:7   */\n      iszero\n      tag_32\n      jumpi\n        /* \"--CODEGEN--\":30:31   */\n      0x0\n        /* \"--CODEGEN--\":27:28   */\n      dup1\n        /* \"--CODEGEN--\":20:32   */\n      revert\n        /* \"--CODEGEN--\":5:7   */\n    tag_32:\n        /* \"第3题/Demo.sol\":3542:3920  function closeLastAccount() external {\r... */\n      pop\n      tag_33\n      jump(tag_34)\n    tag_33:\n      stop\n        /* \"第3题/Demo.sol\":4778:4938  function acceptOwnership() public {\r... */\n    tag_8:\n      callvalue\n        /* \"--CODEGEN--\":8:17   */\n      dup1\n        /* \"--CODEGEN--\":5:7   */\n      iszero\n      tag_35\n      jumpi\n        /* \"--CODEGEN--\":30:31   */\n      0x0\n        /* \"--CODEGEN--\":27:28   */\n      dup1\n        /* \"--CODEGEN--\":20:32   */\n      revert\n        /* \"--CODEGEN--\":5:7   */\n    tag_35:\n        /* \"第3题/Demo.sol\":4778:4938  function acceptOwnership() public {\r... */\n      pop\n      tag_36\n      jump(tag_37)\n    tag_36:\n      stop\n        /* \"第3题/Demo.sol\":677:726  mapping(address => AccountBook[]) public accounts */\n    tag_9:\n      callvalue\n        /* \"--CODEGEN--\":8:17   */\n      dup1\n        /* \"--CODEGEN--\":5:7   */\n      iszero\n      tag_38\n      jumpi\n        /* \"--CODEGEN--\":30:31   */\n      0x0\n        /* \"--CODEGEN--\":27:28   */\n      dup1\n        /* \"--CODEGEN--\":20:32   */\n      revert\n        /* \"--CODEGEN--\":5:7   */\n    tag_38:\n        /* \"第3题/Demo.sol\":677:726  mapping(address => AccountBook[]) public accounts */\n      pop\n      tag_39\n      0x4\n      dup1\n      calldatasize\n      sub\n      dup2\n      add\n      swap1\n      dup1\n      dup1\n      calldataload\n      0xffffffffffffffffffffffffffffffffffffffff\n      and\n      swap1\n      0x20\n      add\n      swap1\n      swap3\n      swap2\n      swap1\n      dup1\n      calldataload\n      swap1\n      0x20\n      add\n      swap1\n      swap3\n      swap2\n      swap1\n      pop\n      pop\n      pop\n      jump(tag_40)\n    tag_39:\n      mload(0x40)\n      dup1\n      dup1\n      0x20\n      add\n      dup4\n      dup2\n      mstore\n      0x20\n      add\n      dup3\n      dup2\n      sub\n      dup3\n      mstore\n      dup5\n      dup2\n      dup2\n      mload\n      dup2\n      mstore\n      0x20\n      add\n      swap2\n      pop\n      dup1\n      mload\n      swap1\n      0x20\n      add\n      swap1\n      dup1\n      dup4\n      dup4\n        /* \"--CODEGEN--\":23:24   */\n      0x0\n        /* \"--CODEGEN--\":8:108   */\n    tag_41:\n        /* \"--CODEGEN--\":33:36   */\n      dup4\n        /* \"--CODEGEN--\":30:31   */\n      dup2\n        /* \"--CODEGEN--\":27:37   */\n      lt\n        /* \"--CODEGEN--\":8:108   */\n      iszero\n      tag_42\n      jumpi\n        /* \"--CODEGEN--\":99:100   */\n      dup1\n        /* \"--CODEGEN--\":94:97   */\n      dup3\n        /* \"--CODEGEN--\":90:101   */\n      add\n        /* \"--CODEGEN--\":84:102   */\n      mload\n        /* \"--CODEGEN--\":80:81   */\n      dup2\n        /* \"--CODEGEN--\":75:78   */\n      dup5\n        /* \"--CODEGEN--\":71:82   */\n      add\n        /* \"--CODEGEN--\":64:103   */\n      mstore\n        /* \"--CODEGEN--\":52:54   */\n      0x20\n        /* \"--CODEGEN--\":49:50   */\n      dup2\n        /* \"--CODEGEN--\":45:55   */\n      add\n        /* \"--CODEGEN--\":40:55   */\n      swap1\n      pop\n        /* \"--CODEGEN--\":8:108   */\n      jump(tag_41)\n    tag_42:\n        /* \"--CODEGEN--\":12:26   */\n      pop\n        /* \"第3题/Demo.sol\":677:726  mapping(address => AccountBook[]) public accounts */\n      pop\n      pop\n      pop\n      swap1\n      pop\n      swap1\n      dup2\n      add\n      swap1\n      0x1f\n      and\n      dup1\n      iszero\n      tag_44\n      jumpi\n      dup1\n      dup3\n      sub\n      dup1\n      mload\n      0x1\n      dup4\n      0x20\n      sub\n      0x100\n      exp\n      sub\n      not\n      and\n      dup2\n      mstore\n      0x20\n      add\n      swap2\n      pop\n    tag_44:\n      pop\n      swap4\n      pop\n      pop\n      pop\n      pop\n      mload(0x40)\n      dup1\n      swap2\n      sub\n      swap1\n      return\n        /* \"第3题/Demo.sol\":472:492  address public owner */\n    tag_10:\n      callvalue\n        /* \"--CODEGEN--\":8:17   */\n      dup1\n        /* \"--CODEGEN--\":5:7   */\n      iszero\n      tag_45\n      jumpi\n        /* \"--CODEGEN--\":30:31   */\n      0x0\n        /* \"--CODEGEN--\":27:28   */\n      dup1\n        /* \"--CODEGEN--\":20:32   */\n      revert\n        /* \"--CODEGEN--\":5:7   */\n    tag_45:\n        /* \"第3题/Demo.sol\":472:492  address public owner */\n      pop\n      tag_46\n      jump(tag_47)\n    tag_46:\n      mload(0x40)\n      dup1\n      dup3\n      0xffffffffffffffffffffffffffffffffffffffff\n      and\n      0xffffffffffffffffffffffffffffffffffffffff\n      and\n      dup2\n      mstore\n      0x20\n      add\n      swap2\n      pop\n      pop\n      mload(0x40)\n      dup1\n      swap2\n      sub\n      swap1\n      return\n        /* \"第3题/Demo.sol\":499:526  address public pendingOwner */\n    tag_11:\n      callvalue\n        /* \"--CODEGEN--\":8:17   */\n      dup1\n        /* \"--CODEGEN--\":5:7   */\n      iszero\n      tag_48\n      jumpi\n        /* \"--CODEGEN--\":30:31   */\n      0x0\n        /* \"--CODEGEN--\":27:28   */\n      dup1\n        /* \"--CODEGEN--\":20:32   */\n      revert\n        /* \"--CODEGEN--\":5:7   */\n    tag_48:\n        /* \"第3题/Demo.sol\":499:526  address public pendingOwner */\n      pop\n      tag_49\n      jump(tag_50)\n    tag_49:\n      mload(0x40)\n      dup1\n      dup3\n      0xffffffffffffffffffffffffffffffffffffffff\n      and\n      0xffffffffffffffffffffffffffffffffffffffff\n      and\n      dup2\n      mstore\n      0x20\n      add\n      swap2\n      pop\n      pop\n      mload(0x40)\n      dup1\n      swap2\n      sub\n      swap1\n      return\n        /* \"第3题/Demo.sol\":4635:4770  function transferOwnership(address newOwner) public {\r... */\n    tag_12:\n      callvalue\n        /* \"--CODEGEN--\":8:17   */\n      dup1\n        /* \"--CODEGEN--\":5:7   */\n      iszero\n      tag_51\n      jumpi\n        /* \"--CODEGEN--\":30:31   */\n      0x0\n        /* \"--CODEGEN--\":27:28   */\n      dup1\n        /* \"--CODEGEN--\":20:32   */\n      revert\n        /* \"--CODEGEN--\":5:7   */\n    tag_51:\n        /* \"第3题/Demo.sol\":4635:4770  function transferOwnership(address newOwner) public {\r... */\n      pop\n      tag_52\n      0x4\n      dup1\n      calldatasize\n      sub\n      dup2\n      add\n      swap1\n      dup1\n      dup1\n      calldataload\n      0xffffffffffffffffffffffffffffffffffffffff\n      and\n      swap1\n      0x20\n      add\n      swap1\n      swap3\n      swap2\n      swap1\n      pop\n      pop\n      pop\n      jump(tag_53)\n    tag_52:\n      stop\n        /* \"第3题/Demo.sol\":801:2004  function depositToken(\r... */\n    tag_15:\n        /* \"第3题/Demo.sol\":1155:1182  AccountBook storage account */\n      0x0\n        /* \"第3题/Demo.sol\":1227:1245  uint256 oldBalance */\n      dup1\n        /* \"第3题/Demo.sol\":1608:1629  uint256 beforeBalance */\n      0x0\n        /* \"第3题/Demo.sol\":1826:1846  uint256 afterBalance */\n      dup1\n        /* \"第3题/Demo.sol\":962:970  accounts */\n      0x2\n        /* \"第3题/Demo.sol\":962:982  accounts[msg.sender] */\n      0x0\n        /* \"第3题/Demo.sol\":971:981  msg.sender */\n      caller\n        /* \"第3题/Demo.sol\":962:982  accounts[msg.sender] */\n      0xffffffffffffffffffffffffffffffffffffffff\n      and\n      0xffffffffffffffffffffffffffffffffffffffff\n      and\n      dup2\n      mstore\n      0x20\n      add\n      swap1\n      dup2\n      mstore\n      0x20\n      add\n      0x0\n      keccak256\n        /* \"第3题/Demo.sol\":962:989  accounts[msg.sender].length */\n      dup1\n      sload\n      swap1\n      pop\n        /* \"第3题/Demo.sol\":949:958  accountId */\n      dup8\n        /* \"第3题/Demo.sol\":949:989  accountId <= accounts[msg.sender].length */\n      gt\n      iszero\n        /* \"第3题/Demo.sol\":927:1028  require(\r... */\n      iszero\n      iszero\n      tag_55\n      jumpi\n      mload(0x40)\n      0x8c379a000000000000000000000000000000000000000000000000000000000\n      dup2\n      mstore\n      0x4\n      add\n      dup1\n      dup1\n      0x20\n      add\n      dup3\n      dup2\n      sub\n      dup3\n      mstore\n      0xb\n      dup2\n      mstore\n      0x20\n      add\n      dup1\n      0x626164206163636f756e74000000000000000000000000000000000000000000\n      dup2\n      mstore\n      pop\n      0x20\n      add\n      swap2\n      pop\n      pop\n      mload(0x40)\n      dup1\n      swap2\n      sub\n      swap1\n      revert\n    tag_55:\n        /* \"第3题/Demo.sol\":1058:1066  accounts */\n      0x2\n        /* \"第3题/Demo.sol\":1058:1078  accounts[msg.sender] */\n      0x0\n        /* \"第3题/Demo.sol\":1067:1077  msg.sender */\n      caller\n        /* \"第3题/Demo.sol\":1058:1078  accounts[msg.sender] */\n      0xffffffffffffffffffffffffffffffffffffffff\n      and\n      0xffffffffffffffffffffffffffffffffffffffff\n      and\n      dup2\n      mstore\n      0x20\n      add\n      swap1\n      dup2\n      mstore\n      0x20\n      add\n      0x0\n      keccak256\n        /* \"第3题/Demo.sol\":1058:1085  accounts[msg.sender].length */\n      dup1\n      sload\n      swap1\n      pop\n        /* \"第3题/Demo.sol\":1045:1054  accountId */\n      dup8\n        /* \"第3题/Demo.sol\":1045:1085  accountId == accounts[msg.sender].length */\n      eq\n        /* \"第3题/Demo.sol\":1041:1143  if (accountId == accounts[msg.sender].length) {\r... */\n      iszero\n      tag_56\n      jumpi\n        /* \"第3题/Demo.sol\":1102:1110  accounts */\n      0x2\n        /* \"第3题/Demo.sol\":1102:1122  accounts[msg.sender] */\n      0x0\n        /* \"第3题/Demo.sol\":1111:1121  msg.sender */\n      caller\n        /* \"第3题/Demo.sol\":1102:1122  accounts[msg.sender] */\n      0xffffffffffffffffffffffffffffffffffffffff\n      and\n      0xffffffffffffffffffffffffffffffffffffffff\n      and\n      dup2\n      mstore\n      0x20\n      add\n      swap1\n      dup2\n      mstore\n      0x20\n      add\n      0x0\n      keccak256\n        /* \"第3题/Demo.sol\":1102:1131  accounts[msg.sender].length++ */\n      dup1\n      sload\n      dup1\n      swap2\n      swap1\n      0x1\n      add\n      tag_57\n      swap2\n      swap1\n      jump\t// in(tag_58)\n    tag_57:\n      pop\n        /* \"第3题/Demo.sol\":1041:1143  if (accountId == accounts[msg.sender].length) {\r... */\n    tag_56:\n        /* \"第3题/Demo.sol\":1185:1193  accounts */\n      0x2\n        /* \"第3题/Demo.sol\":1185:1205  accounts[msg.sender] */\n      0x0\n        /* \"第3题/Demo.sol\":1194:1204  msg.sender */\n      caller\n        /* \"第3题/Demo.sol\":1185:1205  accounts[msg.sender] */\n      0xffffffffffffffffffffffffffffffffffffffff\n      and\n      0xffffffffffffffffffffffffffffffffffffffff\n      and\n      dup2\n      mstore\n      0x20\n      add\n      swap1\n      dup2\n      mstore\n      0x20\n      add\n      0x0\n      keccak256\n        /* \"第3题/Demo.sol\":1206:1215  accountId */\n      dup8\n        /* \"第3题/Demo.sol\":1185:1216  accounts[msg.sender][accountId] */\n      dup2\n      sload\n      dup2\n      lt\n      iszero\n      iszero\n      tag_59\n      jumpi\n      invalid\n    tag_59:\n      swap1\n      0x0\n      mstore\n      keccak256(0x0, 0x20)\n      swap1\n      0x3\n      mul\n      add\n        /* \"第3题/Demo.sol\":1155:1216  AccountBook storage account = accounts[msg.sender][accountId] */\n      swap4\n      pop\n        /* \"第3题/Demo.sol\":1248:1255  account */\n      dup4\n        /* \"第3题/Demo.sol\":1248:1264  account.balances */\n      0x2\n      add\n        /* \"第3题/Demo.sol\":1248:1271  account.balances[token] */\n      0x0\n        /* \"第3题/Demo.sol\":1265:1270  token */\n      dup8\n        /* \"第3题/Demo.sol\":1248:1271  account.balances[token] */\n      0xffffffffffffffffffffffffffffffffffffffff\n      and\n      0xffffffffffffffffffffffffffffffffffffffff\n      and\n      dup2\n      mstore\n      0x20\n      add\n      swap1\n      dup2\n      mstore\n      0x20\n      add\n      0x0\n      keccak256\n      sload\n        /* \"第3题/Demo.sol\":1227:1271  uint256 oldBalance = account.balances[token] */\n      swap3\n      pop\n        /* \"第3题/Demo.sol\":1315:1325  oldBalance */\n      dup3\n        /* \"第3题/Demo.sol\":1305:1311  amount */\n      dup6\n        /* \"第3题/Demo.sol\":1292:1302  oldBalance */\n      dup5\n        /* \"第3题/Demo.sol\":1292:1311  oldBalance + amount */\n      add\n        /* \"第3题/Demo.sol\":1292:1325  oldBalance + amount >= oldBalance */\n      lt\n      iszero\n        /* \"第3题/Demo.sol\":1284:1338  require(oldBalance + amount >= oldBalance, \"overflow\") */\n      iszero\n      iszero\n      tag_61\n      jumpi\n      mload(0x40)\n      0x8c379a000000000000000000000000000000000000000000000000000000000\n      dup2\n      mstore\n      0x4\n      add\n      dup1\n      dup1\n      0x20\n      add\n      dup3\n      dup2\n      sub\n      dup3\n      mstore\n      0x8\n      dup2\n      mstore\n      0x20\n      add\n      dup1\n      0x6f766572666c6f77000000000000000000000000000000000000000000000000\n      dup2\n      mstore\n      pop\n      0x20\n      add\n      swap2\n      pop\n      pop\n      mload(0x40)\n      dup1\n      swap2\n      sub\n      swap1\n      revert\n    tag_61:\n        /* \"第3题/Demo.sol\":1415:1421  amount */\n      dup5\n        /* \"第3题/Demo.sol\":1383:1388  token */\n      dup7\n        /* \"第3题/Demo.sol\":1373:1399  FakeERC20(token).balanceOf */\n      0xffffffffffffffffffffffffffffffffffffffff\n      and\n      0x70a08231\n        /* \"第3题/Demo.sol\":1400:1410  msg.sender */\n      caller\n        /* \"第3题/Demo.sol\":1373:1411  FakeERC20(token).balanceOf(msg.sender) */\n      mload(0x40)\n      dup3\n      0xffffffff\n      and\n      0x100000000000000000000000000000000000000000000000000000000\n      mul\n      dup2\n      mstore\n      0x4\n      add\n      dup1\n      dup3\n      0xffffffffffffffffffffffffffffffffffffffff\n      and\n      0xffffffffffffffffffffffffffffffffffffffff\n      and\n      dup2\n      mstore\n      0x20\n      add\n      swap2\n      pop\n      pop\n      0x20\n      mload(0x40)\n      dup1\n      dup4\n      sub\n      dup2\n      0x0\n      dup8\n      dup1\n      extcodesize\n      iszero\n        /* \"--CODEGEN--\":8:17   */\n      dup1\n        /* \"--CODEGEN--\":5:7   */\n      iszero\n      tag_62\n      jumpi\n        /* \"--CODEGEN--\":30:31   */\n      0x0\n        /* \"--CODEGEN--\":27:28   */\n      dup1\n        /* \"--CODEGEN--\":20:32   */\n      revert\n        /* \"--CODEGEN--\":5:7   */\n    tag_62:\n        /* \"第3题/Demo.sol\":1373:1411  FakeERC20(token).balanceOf(msg.sender) */\n      pop\n      gas\n      call\n      iszero\n        /* \"--CODEGEN--\":8:17   */\n      dup1\n        /* \"--CODEGEN--\":5:7   */\n      iszero\n      tag_63\n      jumpi\n        /* \"--CODEGEN--\":45:61   */\n      returndatasize\n        /* \"--CODEGEN--\":42:43   */\n      0x0\n        /* \"--CODEGEN--\":39:40   */\n      dup1\n        /* \"--CODEGEN--\":24:62   */\n      returndatacopy\n        /* \"--CODEGEN--\":77:93   */\n      returndatasize\n        /* \"--CODEGEN--\":74:75   */\n      0x0\n        /* \"--CODEGEN--\":67:94   */\n      revert\n        /* \"--CODEGEN--\":5:7   */\n    tag_63:\n        /* \"第3题/Demo.sol\":1373:1411  FakeERC20(token).balanceOf(msg.sender) */\n      pop\n      pop\n      pop\n      pop\n      mload(0x40)\n      returndatasize\n        /* \"--CODEGEN--\":13:15   */\n      0x20\n        /* \"--CODEGEN--\":8:11   */\n      dup2\n        /* \"--CODEGEN--\":5:16   */\n      lt\n        /* \"--CODEGEN--\":2:4   */\n      iszero\n      tag_64\n      jumpi\n        /* \"--CODEGEN--\":29:30   */\n      0x0\n        /* \"--CODEGEN--\":26:27   */\n      dup1\n        /* \"--CODEGEN--\":19:31   */\n      revert\n        /* \"--CODEGEN--\":2:4   */\n    tag_64:\n        /* \"第3题/Demo.sol\":1373:1411  FakeERC20(token).balanceOf(msg.sender) */\n      dup2\n      add\n      swap1\n      dup1\n      dup1\n      mload\n      swap1\n      0x20\n      add\n      swap1\n      swap3\n      swap2\n      swap1\n      pop\n      pop\n      pop\n        /* \"第3题/Demo.sol\":1373:1421  FakeERC20(token).balanceOf(msg.sender) >= amount */\n      lt\n      iszero\n        /* \"第3题/Demo.sol\":1351:1467  require(\r... */\n      iszero\n      iszero\n      tag_65\n      jumpi\n      mload(0x40)\n      0x8c379a000000000000000000000000000000000000000000000000000000000\n      dup2\n      mstore\n      0x4\n      add\n      dup1\n      dup1\n      0x20\n      add\n      dup3\n      dup2\n      sub\n      dup3\n      mstore\n      0x12\n      dup2\n      mstore\n      0x20\n      add\n      dup1\n      0x4e6f7420656e6f7567682062616c616e63650000000000000000000000000000\n      dup2\n      mstore\n      pop\n      0x20\n      add\n      swap2\n      pop\n      pop\n      mload(0x40)\n      dup1\n      swap2\n      sub\n      swap1\n      revert\n    tag_65:\n        /* \"第3题/Demo.sol\":1498:1499  0 */\n      0x0\n        /* \"第3题/Demo.sol\":1484:1494  oldBalance */\n      dup4\n        /* \"第3题/Demo.sol\":1484:1499  oldBalance == 0 */\n      eq\n        /* \"第3题/Demo.sol\":1480:1550  if (oldBalance == 0) {\r... */\n      iszero\n      tag_66\n      jumpi\n        /* \"第3题/Demo.sol\":1516:1523  account */\n      dup4\n        /* \"第3题/Demo.sol\":1516:1536  account.uniqueTokens */\n      0x1\n      add\n      0x0\n        /* \"第3题/Demo.sol\":1516:1538  account.uniqueTokens++ */\n      dup2\n      sload\n      dup1\n      swap3\n      swap2\n      swap1\n      0x1\n      add\n      swap2\n      swap1\n      pop\n      sstore\n      pop\n        /* \"第3题/Demo.sol\":1480:1550  if (oldBalance == 0) {\r... */\n    tag_66:\n        /* \"第3题/Demo.sol\":1589:1595  amount */\n      dup5\n        /* \"第3题/Demo.sol\":1562:1569  account */\n      dup5\n        /* \"第3题/Demo.sol\":1562:1578  account.balances */\n      0x2\n      add\n        /* \"第3题/Demo.sol\":1562:1585  account.balances[token] */\n      0x0\n        /* \"第3题/Demo.sol\":1579:1584  token */\n      dup9\n        /* \"第3题/Demo.sol\":1562:1585  account.balances[token] */\n      0xffffffffffffffffffffffffffffffffffffffff\n      and\n      0xffffffffffffffffffffffffffffffffffffffff\n      and\n      dup2\n      mstore\n      0x20\n      add\n      swap1\n      dup2\n      mstore\n      0x20\n      add\n      0x0\n      keccak256\n      0x0\n        /* \"第3题/Demo.sol\":1562:1595  account.balances[token] += amount */\n      dup3\n      dup3\n      sload\n      add\n      swap3\n      pop\n      pop\n      dup2\n      swap1\n      sstore\n      pop\n        /* \"第3题/Demo.sol\":1642:1647  token */\n      dup6\n        /* \"第3题/Demo.sol\":1632:1658  FakeERC20(token).balanceOf */\n      0xffffffffffffffffffffffffffffffffffffffff\n      and\n      0x70a08231\n        /* \"第3题/Demo.sol\":1667:1671  this */\n      address\n        /* \"第3题/Demo.sol\":1632:1673  FakeERC20(token).balanceOf(address(this)) */\n      mload(0x40)\n      dup3\n      0xffffffff\n      and\n      0x100000000000000000000000000000000000000000000000000000000\n      mul\n      dup2\n      mstore\n      0x4\n      add\n      dup1\n      dup3\n      0xffffffffffffffffffffffffffffffffffffffff\n      and\n      0xffffffffffffffffffffffffffffffffffffffff\n      and\n      dup2\n      mstore\n      0x20\n      add\n      swap2\n      pop\n      pop\n      0x20\n      mload(0x40)\n      dup1\n      dup4\n      sub\n      dup2\n      0x0\n      dup8\n      dup1\n      extcodesize\n      iszero\n        /* \"--CODEGEN--\":8:17   */\n      dup1\n        /* \"--CODEGEN--\":5:7   */\n      iszero\n      tag_67\n      jumpi\n        /* \"--CODEGEN--\":30:31   */\n      0x0\n        /* \"--CODEGEN--\":27:28   */\n      dup1\n        /* \"--CODEGEN--\":20:32   */\n      revert\n        /* \"--CODEGEN--\":5:7   */\n    tag_67:\n        /* \"第3题/Demo.sol\":1632:1673  FakeERC20(token).balanceOf(address(this)) */\n      pop\n      gas\n      call\n      iszero\n        /* \"--CODEGEN--\":8:17   */\n      dup1\n        /* \"--CODEGEN--\":5:7   */\n      iszero\n      tag_68\n      jumpi\n        /* \"--CODEGEN--\":45:61   */\n      returndatasize\n        /* \"--CODEGEN--\":42:43   */\n      0x0\n        /* \"--CODEGEN--\":39:40   */\n      dup1\n        /* \"--CODEGEN--\":24:62   */\n      returndatacopy\n        /* \"--CODEGEN--\":77:93   */\n      returndatasize\n        /* \"--CODEGEN--\":74:75   */\n      0x0\n        /* \"--CODEGEN--\":67:94   */\n      revert\n        /* \"--CODEGEN--\":5:7   */\n    tag_68:\n        /* \"第3题/Demo.sol\":1632:1673  FakeERC20(token).balanceOf(address(this)) */\n      pop\n      pop\n      pop\n      pop\n      mload(0x40)\n      returndatasize\n        /* \"--CODEGEN--\":13:15   */\n      0x20\n        /* \"--CODEGEN--\":8:11   */\n      dup2\n        /* \"--CODEGEN--\":5:16   */\n      lt\n        /* \"--CODEGEN--\":2:4   */\n      iszero\n      tag_69\n      jumpi\n        /* \"--CODEGEN--\":29:30   */\n      0x0\n        /* \"--CODEGEN--\":26:27   */\n      dup1\n        /* \"--CODEGEN--\":19:31   */\n      revert\n        /* \"--CODEGEN--\":2:4   */\n    tag_69:\n        /* \"第3题/Demo.sol\":1632:1673  FakeERC20(token).balanceOf(address(this)) */\n      dup2\n      add\n      swap1\n      dup1\n      dup1\n      mload\n      swap1\n      0x20\n      add\n      swap1\n      swap3\n      swap2\n      swap1\n      pop\n      pop\n      pop\n        /* \"第3题/Demo.sol\":1608:1673  uint256 beforeBalance = FakeERC20(token).balanceOf(address(this)) */\n      swap2\n      pop\n        /* \"第3题/Demo.sol\":1716:1721  token */\n      dup6\n        /* \"第3题/Demo.sol\":1706:1735  FakeERC20(token).transferFrom */\n      0xffffffffffffffffffffffffffffffffffffffff\n      and\n      0x23b872dd\n        /* \"第3题/Demo.sol\":1736:1746  msg.sender */\n      caller\n        /* \"第3题/Demo.sol\":1756:1760  this */\n      address\n        /* \"第3题/Demo.sol\":1763:1769  amount */\n      dup9\n        /* \"第3题/Demo.sol\":1706:1770  FakeERC20(token).transferFrom(msg.sender, address(this), amount) */\n      mload(0x40)\n      dup5\n      0xffffffff\n      and\n      0x100000000000000000000000000000000000000000000000000000000\n      mul\n      dup2\n      mstore\n      0x4\n      add\n      dup1\n      dup5\n      0xffffffffffffffffffffffffffffffffffffffff\n      and\n      0xffffffffffffffffffffffffffffffffffffffff\n      and\n      dup2\n      mstore\n      0x20\n      add\n      dup4\n      0xffffffffffffffffffffffffffffffffffffffff\n      and\n      0xffffffffffffffffffffffffffffffffffffffff\n      and\n      dup2\n      mstore\n      0x20\n      add\n      dup3\n      dup2\n      mstore\n      0x20\n      add\n      swap4\n      pop\n      pop\n      pop\n      pop\n      0x20\n      mload(0x40)\n      dup1\n      dup4\n      sub\n      dup2\n      0x0\n      dup8\n      dup1\n      extcodesize\n      iszero\n        /* \"--CODEGEN--\":8:17   */\n      dup1\n        /* \"--CODEGEN--\":5:7   */\n      iszero\n      tag_70\n      jumpi\n        /* \"--CODEGEN--\":30:31   */\n      0x0\n        /* \"--CODEGEN--\":27:28   */\n      dup1\n        /* \"--CODEGEN--\":20:32   */\n      revert\n        /* \"--CODEGEN--\":5:7   */\n    tag_70:\n        /* \"第3题/Demo.sol\":1706:1770  FakeERC20(token).transferFrom(msg.sender, address(this), amount) */\n      pop\n      gas\n      call\n      iszero\n        /* \"--CODEGEN--\":8:17   */\n      dup1\n        /* \"--CODEGEN--\":5:7   */\n      iszero\n      tag_71\n      jumpi\n        /* \"--CODEGEN--\":45:61   */\n      returndatasize\n        /* \"--CODEGEN--\":42:43   */\n      0x0\n        /* \"--CODEGEN--\":39:40   */\n      dup1\n        /* \"--CODEGEN--\":24:62   */\n      returndatacopy\n        /* \"--CODEGEN--\":77:93   */\n      returndatasize\n        /* \"--CODEGEN--\":74:75   */\n      0x0\n        /* \"--CODEGEN--\":67:94   */\n      revert\n        /* \"--CODEGEN--\":5:7   */\n    tag_71:\n        /* \"第3题/Demo.sol\":1706:1770  FakeERC20(token).transferFrom(msg.sender, address(this), amount) */\n      pop\n      pop\n      pop\n      pop\n      mload(0x40)\n      returndatasize\n        /* \"--CODEGEN--\":13:15   */\n      0x20\n        /* \"--CODEGEN--\":8:11   */\n      dup2\n        /* \"--CODEGEN--\":5:16   */\n      lt\n        /* \"--CODEGEN--\":2:4   */\n      iszero\n      tag_72\n      jumpi\n        /* \"--CODEGEN--\":29:30   */\n      0x0\n        /* \"--CODEGEN--\":26:27   */\n      dup1\n        /* \"--CODEGEN--\":19:31   */\n      revert\n        /* \"--CODEGEN--\":2:4   */\n    tag_72:\n        /* \"第3题/Demo.sol\":1706:1770  FakeERC20(token).transferFrom(msg.sender, address(this), amount) */\n      dup2\n      add\n      swap1\n      dup1\n      dup1\n      mload\n      swap1\n      0x20\n      add\n      swap1\n      swap3\n      swap2\n      swap1\n      pop\n      pop\n      pop\n        /* \"第3题/Demo.sol\":1684:1813  require(\r... */\n      iszero\n      iszero\n      tag_73\n      jumpi\n      mload(0x40)\n      0x8c379a000000000000000000000000000000000000000000000000000000000\n      dup2\n      mstore\n      0x4\n      add\n      dup1\n      dup1\n      0x20\n      add\n      dup3\n      dup2\n      sub\n      dup3\n      mstore\n      0xf\n      dup2\n      mstore\n      0x20\n      add\n      dup1\n      0x7472616e73666572206661696c65640000000000000000000000000000000000\n      dup2\n      mstore\n      pop\n      0x20\n      add\n      swap2\n      pop\n      pop\n      mload(0x40)\n      dup1\n      swap2\n      sub\n      swap1\n      revert\n    tag_73:\n        /* \"第3题/Demo.sol\":1859:1864  token */\n      dup6\n        /* \"第3题/Demo.sol\":1849:1875  FakeERC20(token).balanceOf */\n      0xffffffffffffffffffffffffffffffffffffffff\n      and\n      0x70a08231\n        /* \"第3题/Demo.sol\":1884:1888  this */\n      address\n        /* \"第3题/Demo.sol\":1849:1890  FakeERC20(token).balanceOf(address(this)) */\n      mload(0x40)\n      dup3\n      0xffffffff\n      and\n      0x100000000000000000000000000000000000000000000000000000000\n      mul\n      dup2\n      mstore\n      0x4\n      add\n      dup1\n      dup3\n      0xffffffffffffffffffffffffffffffffffffffff\n      and\n      0xffffffffffffffffffffffffffffffffffffffff\n      and\n      dup2\n      mstore\n      0x20\n      add\n      swap2\n      pop\n      pop\n      0x20\n      mload(0x40)\n      dup1\n      dup4\n      sub\n      dup2\n      0x0\n      dup8\n      dup1\n      extcodesize\n      iszero\n        /* \"--CODEGEN--\":8:17   */\n      dup1\n        /* \"--CODEGEN--\":5:7   */\n      iszero\n      tag_74\n      jumpi\n        /* \"--CODEGEN--\":30:31   */\n      0x0\n        /* \"--CODEGEN--\":27:28   */\n      dup1\n        /* \"--CODEGEN--\":20:32   */\n      revert\n        /* \"--CODEGEN--\":5:7   */\n    tag_74:\n        /* \"第3题/Demo.sol\":1849:1890  FakeERC20(token).balanceOf(address(this)) */\n      pop\n      gas\n      call\n      iszero\n        /* \"--CODEGEN--\":8:17   */\n      dup1\n        /* \"--CODEGEN--\":5:7   */\n      iszero\n      tag_75\n      jumpi\n        /* \"--CODEGEN--\":45:61   */\n      returndatasize\n        /* \"--CODEGEN--\":42:43   */\n      0x0\n        /* \"--CODEGEN--\":39:40   */\n      dup1\n        /* \"--CODEGEN--\":24:62   */\n      returndatacopy\n        /* \"--CODEGEN--\":77:93   */\n      returndatasize\n        /* \"--CODEGEN--\":74:75   */\n      0x0\n        /* \"--CODEGEN--\":67:94   */\n      revert\n        /* \"--CODEGEN--\":5:7   */\n    tag_75:\n        /* \"第3题/Demo.sol\":1849:1890  FakeERC20(token).balanceOf(address(this)) */\n      pop\n      pop\n      pop\n      pop\n      mload(0x40)\n      returndatasize\n        /* \"--CODEGEN--\":13:15   */\n      0x20\n        /* \"--CODEGEN--\":8:11   */\n      dup2\n        /* \"--CODEGEN--\":5:16   */\n      lt\n        /* \"--CODEGEN--\":2:4   */\n      iszero\n      tag_76\n      jumpi\n        /* \"--CODEGEN--\":29:30   */\n      0x0\n        /* \"--CODEGEN--\":26:27   */\n      dup1\n        /* \"--CODEGEN--\":19:31   */\n      revert\n        /* \"--CODEGEN--\":2:4   */\n    tag_76:\n        /* \"第3题/Demo.sol\":1849:1890  FakeERC20(token).balanceOf(address(this)) */\n      dup2\n      add\n      swap1\n      dup1\n      dup1\n      mload\n      swap1\n      0x20\n      add\n      swap1\n      swap3\n      swap2\n      swap1\n      pop\n      pop\n      pop\n        /* \"第3题/Demo.sol\":1826:1890  uint256 afterBalance = FakeERC20(token).balanceOf(address(this)) */\n      swap1\n      pop\n        /* \"第3题/Demo.sol\":1957:1963  amount */\n      dup5\n        /* \"第3题/Demo.sol\":1940:1953  beforeBalance */\n      dup3\n        /* \"第3题/Demo.sol\":1925:1937  afterBalance */\n      dup3\n        /* \"第3题/Demo.sol\":1925:1953  afterBalance - beforeBalance */\n      sub\n        /* \"第3题/Demo.sol\":1925:1963  afterBalance - beforeBalance == amount */\n      eq\n        /* \"第3题/Demo.sol\":1903:1996  require(\r... */\n      iszero\n      iszero\n      tag_77\n      jumpi\n      mload(0x40)\n      0x8c379a000000000000000000000000000000000000000000000000000000000\n      dup2\n      mstore\n      0x4\n      add\n      dup1\n      dup1\n      0x20\n      add\n      dup3\n      dup2\n      sub\n      dup3\n      mstore\n      0x5\n      dup2\n      mstore\n      0x20\n      add\n      dup1\n      0x6572726f72000000000000000000000000000000000000000000000000000000\n      dup2\n      mstore\n      pop\n      0x20\n      add\n      swap2\n      pop\n      pop\n      mload(0x40)\n      dup1\n      swap2\n      sub\n      swap1\n      revert\n    tag_77:\n        /* \"第3题/Demo.sol\":801:2004  function depositToken(\r... */\n      pop\n      pop\n      pop\n      pop\n      pop\n      pop\n      pop\n      jump\t// out\n        /* \"第3题/Demo.sol\":3928:4309  function getAccountInfo(uint256 accountId)\r... */\n    tag_18:\n        /* \"第3题/Demo.sol\":4019:4025  string */\n      0x60\n        /* \"第3题/Demo.sol\":4027:4034  uint256 */\n      0x0\n        /* \"第3题/Demo.sol\":4086:4094  accounts */\n      0x2\n        /* \"第3题/Demo.sol\":4086:4106  accounts[msg.sender] */\n      0x0\n        /* \"第3题/Demo.sol\":4095:4105  msg.sender */\n      caller\n        /* \"第3题/Demo.sol\":4086:4106  accounts[msg.sender] */\n      0xffffffffffffffffffffffffffffffffffffffff\n      and\n      0xffffffffffffffffffffffffffffffffffffffff\n      and\n      dup2\n      mstore\n      0x20\n      add\n      swap1\n      dup2\n      mstore\n      0x20\n      add\n      0x0\n      keccak256\n        /* \"第3题/Demo.sol\":4086:4113  accounts[msg.sender].length */\n      dup1\n      sload\n      swap1\n      pop\n        /* \"第3题/Demo.sol\":4074:4083  accountId */\n      dup4\n        /* \"第3题/Demo.sol\":4074:4113  accountId < accounts[msg.sender].length */\n      lt\n        /* \"第3题/Demo.sol\":4052:4153  require(\r... */\n      iszero\n      iszero\n      tag_79\n      jumpi\n      mload(0x40)\n      0x8c379a000000000000000000000000000000000000000000000000000000000\n      dup2\n      mstore\n      0x4\n      add\n      dup1\n      dup1\n      0x20\n      add\n      dup3\n      dup2\n      sub\n      dup3\n      mstore\n      0xc\n      dup2\n      mstore\n      0x20\n      add\n      dup1\n      0x626164206163636f756e74730000000000000000000000000000000000000000\n      dup2\n      mstore\n      pop\n      0x20\n      add\n      swap2\n      pop\n      pop\n      mload(0x40)\n      dup1\n      swap2\n      sub\n      swap1\n      revert\n    tag_79:\n        /* \"第3题/Demo.sol\":4188:4196  accounts */\n      0x2\n        /* \"第3题/Demo.sol\":4188:4208  accounts[msg.sender] */\n      0x0\n        /* \"第3题/Demo.sol\":4197:4207  msg.sender */\n      caller\n        /* \"第3题/Demo.sol\":4188:4208  accounts[msg.sender] */\n      0xffffffffffffffffffffffffffffffffffffffff\n      and\n      0xffffffffffffffffffffffffffffffffffffffff\n      and\n      dup2\n      mstore\n      0x20\n      add\n      swap1\n      dup2\n      mstore\n      0x20\n      add\n      0x0\n      keccak256\n        /* \"第3题/Demo.sol\":4209:4218  accountId */\n      dup4\n        /* \"第3题/Demo.sol\":4188:4219  accounts[msg.sender][accountId] */\n      dup2\n      sload\n      dup2\n      lt\n      iszero\n      iszero\n      tag_80\n      jumpi\n      invalid\n    tag_80:\n      swap1\n      0x0\n      mstore\n      keccak256(0x0, 0x20)\n      swap1\n      0x3\n      mul\n      add\n        /* \"第3题/Demo.sol\":4188:4231  accounts[msg.sender][accountId].accountName */\n      0x0\n      add\n        /* \"第3题/Demo.sol\":4246:4254  accounts */\n      0x2\n        /* \"第3题/Demo.sol\":4246:4266  accounts[msg.sender] */\n      0x0\n        /* \"第3题/Demo.sol\":4255:4265  msg.sender */\n      caller\n        /* \"第3题/Demo.sol\":4246:4266  accounts[msg.sender] */\n      0xffffffffffffffffffffffffffffffffffffffff\n      and\n      0xffffffffffffffffffffffffffffffffffffffff\n      and\n      dup2\n      mstore\n      0x20\n      add\n      swap1\n      dup2\n      mstore\n      0x20\n      add\n      0x0\n      keccak256\n        /* \"第3题/Demo.sol\":4267:4276  accountId */\n      dup5\n        /* \"第3题/Demo.sol\":4246:4277  accounts[msg.sender][accountId] */\n      dup2\n      sload\n      dup2\n      lt\n      iszero\n      iszero\n      tag_82\n      jumpi\n      invalid\n    tag_82:\n      swap1\n      0x0\n      mstore\n      keccak256(0x0, 0x20)\n      swap1\n      0x3\n      mul\n      add\n        /* \"第3题/Demo.sol\":4246:4290  accounts[msg.sender][accountId].uniqueTokens */\n      0x1\n      add\n      sload\n        /* \"第3题/Demo.sol\":4166:4301  return (\r... */\n      dup2\n      dup1\n      sload\n      0x1\n      dup2\n      0x1\n      and\n      iszero\n      0x100\n      mul\n      sub\n      and\n      0x2\n      swap1\n      div\n      dup1\n      0x1f\n      add\n      0x20\n      dup1\n      swap2\n      div\n      mul\n      0x20\n      add\n      mload(0x40)\n      swap1\n      dup2\n      add\n      0x40\n      mstore\n      dup1\n      swap3\n      swap2\n      swap1\n      dup2\n      dup2\n      mstore\n      0x20\n      add\n      dup3\n      dup1\n      sload\n      0x1\n      dup2\n      0x1\n      and\n      iszero\n      0x100\n      mul\n      sub\n      and\n      0x2\n      swap1\n      div\n      dup1\n      iszero\n      tag_84\n      jumpi\n      dup1\n      0x1f\n      lt\n      tag_85\n      jumpi\n      0x100\n      dup1\n      dup4\n      sload\n      div\n      mul\n      dup4\n      mstore\n      swap2\n      0x20\n      add\n      swap2\n      jump(tag_84)\n    tag_85:\n      dup3\n      add\n      swap2\n      swap1\n      0x0\n      mstore\n      keccak256(0x0, 0x20)\n      swap1\n    tag_86:\n      dup2\n      sload\n      dup2\n      mstore\n      swap1\n      0x1\n      add\n      swap1\n      0x20\n      add\n      dup1\n      dup4\n      gt\n      tag_86\n      jumpi\n      dup3\n      swap1\n      sub\n      0x1f\n      and\n      dup3\n      add\n      swap2\n    tag_84:\n      pop\n      pop\n      pop\n      pop\n      pop\n      swap2\n      pop\n      swap2\n      pop\n      swap2\n      pop\n        /* \"第3题/Demo.sol\":3928:4309  function getAccountInfo(uint256 accountId)\r... */\n      swap2\n      pop\n      swap2\n      jump\t// out\n        /* \"第3题/Demo.sol\":3286:3534  function setAccountName(uint256 accountId, string name) external {\r... */\n    tag_25:\n        /* \"第3题/Demo.sol\":3396:3404  accounts */\n      0x2\n        /* \"第3题/Demo.sol\":3396:3416  accounts[msg.sender] */\n      0x0\n        /* \"第3题/Demo.sol\":3405:3415  msg.sender */\n      caller\n        /* \"第3题/Demo.sol\":3396:3416  accounts[msg.sender] */\n      0xffffffffffffffffffffffffffffffffffffffff\n      and\n      0xffffffffffffffffffffffffffffffffffffffff\n      and\n      dup2\n      mstore\n      0x20\n      add\n      swap1\n      dup2\n      mstore\n      0x20\n      add\n      0x0\n      keccak256\n        /* \"第3题/Demo.sol\":3396:3423  accounts[msg.sender].length */\n      dup1\n      sload\n      swap1\n      pop\n        /* \"第3题/Demo.sol\":3384:3393  accountId */\n      dup4\n        /* \"第3题/Demo.sol\":3384:3423  accountId < accounts[msg.sender].length */\n      lt\n        /* \"第3题/Demo.sol\":3362:3463  require(\r... */\n      iszero\n      iszero\n      tag_88\n      jumpi\n      mload(0x40)\n      0x8c379a000000000000000000000000000000000000000000000000000000000\n      dup2\n      mstore\n      0x4\n      add\n      dup1\n      dup1\n      0x20\n      add\n      dup3\n      dup2\n      sub\n      dup3\n      mstore\n      0xc\n      dup2\n      mstore\n      0x20\n      add\n      dup1\n      0x626164206163636f756e74730000000000000000000000000000000000000000\n      dup2\n      mstore\n      pop\n      0x20\n      add\n      swap2\n      pop\n      pop\n      mload(0x40)\n      dup1\n      swap2\n      sub\n      swap1\n      revert\n    tag_88:\n        /* \"第3题/Demo.sol\":3522:3526  name */\n      dup2\n      dup2\n        /* \"第3题/Demo.sol\":3476:3484  accounts */\n      0x2\n        /* \"第3题/Demo.sol\":3476:3496  accounts[msg.sender] */\n      0x0\n        /* \"第3题/Demo.sol\":3485:3495  msg.sender */\n      caller\n        /* \"第3题/Demo.sol\":3476:3496  accounts[msg.sender] */\n      0xffffffffffffffffffffffffffffffffffffffff\n      and\n      0xffffffffffffffffffffffffffffffffffffffff\n      and\n      dup2\n      mstore\n      0x20\n      add\n      swap1\n      dup2\n      mstore\n      0x20\n      add\n      0x0\n      keccak256\n        /* \"第3题/Demo.sol\":3497:3506  accountId */\n      dup6\n        /* \"第3题/Demo.sol\":3476:3507  accounts[msg.sender][accountId] */\n      dup2\n      sload\n      dup2\n      lt\n      iszero\n      iszero\n      tag_89\n      jumpi\n      invalid\n    tag_89:\n      swap1\n      0x0\n      mstore\n      keccak256(0x0, 0x20)\n      swap1\n      0x3\n      mul\n      add\n        /* \"第3题/Demo.sol\":3476:3519  accounts[msg.sender][accountId].accountName */\n      0x0\n      add\n        /* \"第3题/Demo.sol\":3476:3526  accounts[msg.sender][accountId].accountName = name */\n      swap2\n      swap1\n      tag_91\n      swap3\n      swap2\n      swap1\n      jump\t// in(tag_92)\n    tag_91:\n      pop\n        /* \"第3题/Demo.sol\":3286:3534  function setAccountName(uint256 accountId, string name) external {\r... */\n      pop\n      pop\n      pop\n      jump\t// out\n        /* \"第3题/Demo.sol\":4317:4627  function getAccountBalance(uint256 accountId, address token)\r... */\n    tag_28:\n        /* \"第3题/Demo.sol\":4426:4433  uint256 */\n      0x0\n        /* \"第3题/Demo.sol\":4485:4493  accounts */\n      0x2\n        /* \"第3题/Demo.sol\":4485:4505  accounts[msg.sender] */\n      0x0\n        /* \"第3题/Demo.sol\":4494:4504  msg.sender */\n      caller\n        /* \"第3题/Demo.sol\":4485:4505  accounts[msg.sender] */\n      0xffffffffffffffffffffffffffffffffffffffff\n      and\n      0xffffffffffffffffffffffffffffffffffffffff\n      and\n      dup2\n      mstore\n      0x20\n      add\n      swap1\n      dup2\n      mstore\n      0x20\n      add\n      0x0\n      keccak256\n        /* \"第3题/Demo.sol\":4485:4512  accounts[msg.sender].length */\n      dup1\n      sload\n      swap1\n      pop\n        /* \"第3题/Demo.sol\":4473:4482  accountId */\n      dup4\n        /* \"第3题/Demo.sol\":4473:4512  accountId < accounts[msg.sender].length */\n      lt\n        /* \"第3题/Demo.sol\":4451:4552  require(\r... */\n      iszero\n      iszero\n      tag_94\n      jumpi\n      mload(0x40)\n      0x8c379a000000000000000000000000000000000000000000000000000000000\n      dup2\n      mstore\n      0x4\n      add\n      dup1\n      dup1\n      0x20\n      add\n      dup3\n      dup2\n      sub\n      dup3\n      mstore\n      0xc\n      dup2\n      mstore\n      0x20\n      add\n      dup1\n      0x626164206163636f756e74730000000000000000000000000000000000000000\n      dup2\n      mstore\n      pop\n      0x20\n      add\n      swap2\n      pop\n      pop\n      mload(0x40)\n      dup1\n      swap2\n      sub\n      swap1\n      revert\n    tag_94:\n        /* \"第3题/Demo.sol\":4572:4580  accounts */\n      0x2\n        /* \"第3题/Demo.sol\":4572:4592  accounts[msg.sender] */\n      0x0\n        /* \"第3题/Demo.sol\":4581:4591  msg.sender */\n      caller\n        /* \"第3题/Demo.sol\":4572:4592  accounts[msg.sender] */\n      0xffffffffffffffffffffffffffffffffffffffff\n      and\n      0xffffffffffffffffffffffffffffffffffffffff\n      and\n      dup2\n      mstore\n      0x20\n      add\n      swap1\n      dup2\n      mstore\n      0x20\n      add\n      0x0\n      keccak256\n        /* \"第3题/Demo.sol\":4593:4602  accountId */\n      dup4\n        /* \"第3题/Demo.sol\":4572:4603  accounts[msg.sender][accountId] */\n      dup2\n      sload\n      dup2\n      lt\n      iszero\n      iszero\n      tag_95\n      jumpi\n      invalid\n    tag_95:\n      swap1\n      0x0\n      mstore\n      keccak256(0x0, 0x20)\n      swap1\n      0x3\n      mul\n      add\n        /* \"第3题/Demo.sol\":4572:4612  accounts[msg.sender][accountId].balances */\n      0x2\n      add\n        /* \"第3题/Demo.sol\":4572:4619  accounts[msg.sender][accountId].balances[token] */\n      0x0\n        /* \"第3题/Demo.sol\":4613:4618  token */\n      dup4\n        /* \"第3题/Demo.sol\":4572:4619  accounts[msg.sender][accountId].balances[token] */\n      0xffffffffffffffffffffffffffffffffffffffff\n      and\n      0xffffffffffffffffffffffffffffffffffffffff\n      and\n      dup2\n      mstore\n      0x20\n      add\n      swap1\n      dup2\n      mstore\n      0x20\n      add\n      0x0\n      keccak256\n      sload\n        /* \"第3题/Demo.sol\":4565:4619  return accounts[msg.sender][accountId].balances[token] */\n      swap1\n      pop\n        /* \"第3题/Demo.sol\":4317:4627  function getAccountBalance(uint256 accountId, address token)\r... */\n      swap3\n      swap2\n      pop\n      pop\n      jump\t// out\n        /* \"第3题/Demo.sol\":2012:3278  function withdrawToken(\r... */\n    tag_31:\n        /* \"第3题/Demo.sol\":2253:2280  AccountBook storage account */\n      0x0\n        /* \"第3题/Demo.sol\":2325:2344  uint256 lastAccount */\n      dup1\n        /* \"第3题/Demo.sol\":2389:2407  uint256 oldBalance */\n      0x0\n        /* \"第3题/Demo.sol\":2911:2932  uint256 beforeBalance */\n      dup1\n        /* \"第3题/Demo.sol\":3105:3125  uint256 afterBalance */\n      0x0\n        /* \"第3题/Demo.sol\":2173:2181  accounts */\n      0x2\n        /* \"第3题/Demo.sol\":2173:2193  accounts[msg.sender] */\n      0x0\n        /* \"第3题/Demo.sol\":2182:2192  msg.sender */\n      caller\n        /* \"第3题/Demo.sol\":2173:2193  accounts[msg.sender] */\n      0xffffffffffffffffffffffffffffffffffffffff\n      and\n      0xffffffffffffffffffffffffffffffffffffffff\n      and\n      dup2\n      mstore\n      0x20\n      add\n      swap1\n      dup2\n      mstore\n      0x20\n      add\n      0x0\n      keccak256\n        /* \"第3题/Demo.sol\":2173:2200  accounts[msg.sender].length */\n      dup1\n      sload\n      swap1\n      pop\n        /* \"第3题/Demo.sol\":2161:2170  accountId */\n      dup9\n        /* \"第3题/Demo.sol\":2161:2200  accountId < accounts[msg.sender].length */\n      lt\n        /* \"第3题/Demo.sol\":2139:2240  require(\r... */\n      iszero\n      iszero\n      tag_98\n      jumpi\n      mload(0x40)\n      0x8c379a000000000000000000000000000000000000000000000000000000000\n      dup2\n      mstore\n      0x4\n      add\n      dup1\n      dup1\n      0x20\n      add\n      dup3\n      dup2\n      sub\n      dup3\n      mstore\n      0xc\n      dup2\n      mstore\n      0x20\n      add\n      dup1\n      0x626164206163636f756e74730000000000000000000000000000000000000000\n      dup2\n      mstore\n      pop\n      0x20\n      add\n      swap2\n      pop\n      pop\n      mload(0x40)\n      dup1\n      swap2\n      sub\n      swap1\n      revert\n    tag_98:\n        /* \"第3题/Demo.sol\":2283:2291  accounts */\n      0x2\n        /* \"第3题/Demo.sol\":2283:2303  accounts[msg.sender] */\n      0x0\n        /* \"第3题/Demo.sol\":2292:2302  msg.sender */\n      caller\n        /* \"第3题/Demo.sol\":2283:2303  accounts[msg.sender] */\n      0xffffffffffffffffffffffffffffffffffffffff\n      and\n      0xffffffffffffffffffffffffffffffffffffffff\n      and\n      dup2\n      mstore\n      0x20\n      add\n      swap1\n      dup2\n      mstore\n      0x20\n      add\n      0x0\n      keccak256\n        /* \"第3题/Demo.sol\":2304:2313  accountId */\n      dup9\n        /* \"第3题/Demo.sol\":2283:2314  accounts[msg.sender][accountId] */\n      dup2\n      sload\n      dup2\n      lt\n      iszero\n      iszero\n      tag_99\n      jumpi\n      invalid\n    tag_99:\n      swap1\n      0x0\n      mstore\n      keccak256(0x0, 0x20)\n      swap1\n      0x3\n      mul\n      add\n        /* \"第3题/Demo.sol\":2253:2314  AccountBook storage account = accounts[msg.sender][accountId] */\n      swap5\n      pop\n        /* \"第3题/Demo.sol\":2377:2378  1 */\n      0x1\n        /* \"第3题/Demo.sol\":2347:2355  accounts */\n      0x2\n        /* \"第3题/Demo.sol\":2347:2367  accounts[msg.sender] */\n      0x0\n        /* \"第3题/Demo.sol\":2356:2366  msg.sender */\n      caller\n        /* \"第3题/Demo.sol\":2347:2367  accounts[msg.sender] */\n      0xffffffffffffffffffffffffffffffffffffffff\n      and\n      0xffffffffffffffffffffffffffffffffffffffff\n      and\n      dup2\n      mstore\n      0x20\n      add\n      swap1\n      dup2\n      mstore\n      0x20\n      add\n      0x0\n      keccak256\n        /* \"第3题/Demo.sol\":2347:2374  accounts[msg.sender].length */\n      dup1\n      sload\n      swap1\n      pop\n        /* \"第3题/Demo.sol\":2347:2378  accounts[msg.sender].length - 1 */\n      sub\n        /* \"第3题/Demo.sol\":2325:2378  uint256 lastAccount = accounts[msg.sender].length - 1 */\n      swap4\n      pop\n        /* \"第3题/Demo.sol\":2410:2417  account */\n      dup5\n        /* \"第3题/Demo.sol\":2410:2426  account.balances */\n      0x2\n      add\n        /* \"第3题/Demo.sol\":2410:2433  account.balances[token] */\n      0x0\n        /* \"第3题/Demo.sol\":2427:2432  token */\n      dup9\n        /* \"第3题/Demo.sol\":2410:2433  account.balances[token] */\n      0xffffffffffffffffffffffffffffffffffffffff\n      and\n      0xffffffffffffffffffffffffffffffffffffffff\n      and\n      dup2\n      mstore\n      0x20\n      add\n      swap1\n      dup2\n      mstore\n      0x20\n      add\n      0x0\n      keccak256\n      sload\n        /* \"第3题/Demo.sol\":2389:2433  uint256 oldBalance = account.balances[token] */\n      swap3\n      pop\n        /* \"第3题/Demo.sol\":2468:2474  amount */\n      dup6\n        /* \"第3题/Demo.sol\":2454:2464  oldBalance */\n      dup4\n        /* \"第3题/Demo.sol\":2454:2474  oldBalance >= amount */\n      lt\n      iszero\n        /* \"第3题/Demo.sol\":2446:2488  require(oldBalance >= amount, \"underflow\") */\n      iszero\n      iszero\n      tag_101\n      jumpi\n      mload(0x40)\n      0x8c379a000000000000000000000000000000000000000000000000000000000\n      dup2\n      mstore\n      0x4\n      add\n      dup1\n      dup1\n      0x20\n      add\n      dup3\n      dup2\n      sub\n      dup3\n      mstore\n      0x9\n      dup2\n      mstore\n      0x20\n      add\n      dup1\n      0x756e646572666c6f770000000000000000000000000000000000000000000000\n      dup2\n      mstore\n      pop\n      0x20\n      add\n      swap2\n      pop\n      pop\n      mload(0x40)\n      dup1\n      swap2\n      sub\n      swap1\n      revert\n    tag_101:\n        /* \"第3题/Demo.sol\":2566:2572  amount */\n      dup6\n        /* \"第3题/Demo.sol\":2531:2536  token */\n      dup8\n        /* \"第3题/Demo.sol\":2521:2547  FakeERC20(token).balanceOf */\n      0xffffffffffffffffffffffffffffffffffffffff\n      and\n      0x70a08231\n        /* \"第3题/Demo.sol\":2556:2560  this */\n      address\n        /* \"第3题/Demo.sol\":2521:2562  FakeERC20(token).balanceOf(address(this)) */\n      mload(0x40)\n      dup3\n      0xffffffff\n      and\n      0x100000000000000000000000000000000000000000000000000000000\n      mul\n      dup2\n      mstore\n      0x4\n      add\n      dup1\n      dup3\n      0xffffffffffffffffffffffffffffffffffffffff\n      and\n      0xffffffffffffffffffffffffffffffffffffffff\n      and\n      dup2\n      mstore\n      0x20\n      add\n      swap2\n      pop\n      pop\n      0x20\n      mload(0x40)\n      dup1\n      dup4\n      sub\n      dup2\n      0x0\n      dup8\n      dup1\n      extcodesize\n      iszero\n        /* \"--CODEGEN--\":8:17   */\n      dup1\n        /* \"--CODEGEN--\":5:7   */\n      iszero\n      tag_102\n      jumpi\n        /* \"--CODEGEN--\":30:31   */\n      0x0\n        /* \"--CODEGEN--\":27:28   */\n      dup1\n        /* \"--CODEGEN--\":20:32   */\n      revert\n        /* \"--CODEGEN--\":5:7   */\n    tag_102:\n        /* \"第3题/Demo.sol\":2521:2562  FakeERC20(token).balanceOf(address(this)) */\n      pop\n      gas\n      call\n      iszero\n        /* \"--CODEGEN--\":8:17   */\n      dup1\n        /* \"--CODEGEN--\":5:7   */\n      iszero\n      tag_103\n      jumpi\n        /* \"--CODEGEN--\":45:61   */\n      returndatasize\n        /* \"--CODEGEN--\":42:43   */\n      0x0\n        /* \"--CODEGEN--\":39:40   */\n      dup1\n        /* \"--CODEGEN--\":24:62   */\n      returndatacopy\n        /* \"--CODEGEN--\":77:93   */\n      returndatasize\n        /* \"--CODEGEN--\":74:75   */\n      0x0\n        /* \"--CODEGEN--\":67:94   */\n      revert\n        /* \"--CODEGEN--\":5:7   */\n    tag_103:\n        /* \"第3题/Demo.sol\":2521:2562  FakeERC20(token).balanceOf(address(this)) */\n      pop\n      pop\n      pop\n      pop\n      mload(0x40)\n      returndatasize\n        /* \"--CODEGEN--\":13:15   */\n      0x20\n        /* \"--CODEGEN--\":8:11   */\n      dup2\n        /* \"--CODEGEN--\":5:16   */\n      lt\n        /* \"--CODEGEN--\":2:4   */\n      iszero\n      tag_104\n      jumpi\n        /* \"--CODEGEN--\":29:30   */\n      0x0\n        /* \"--CODEGEN--\":26:27   */\n      dup1\n        /* \"--CODEGEN--\":19:31   */\n      revert\n        /* \"--CODEGEN--\":2:4   */\n    tag_104:\n        /* \"第3题/Demo.sol\":2521:2562  FakeERC20(token).balanceOf(address(this)) */\n      dup2\n      add\n      swap1\n      dup1\n      dup1\n      mload\n      swap1\n      0x20\n      add\n      swap1\n      swap3\n      swap2\n      swap1\n      pop\n      pop\n      pop\n        /* \"第3题/Demo.sol\":2521:2572  FakeERC20(token).balanceOf(address(this)) >= amount */\n      lt\n      iszero\n        /* \"第3题/Demo.sol\":2499:2618  require(\r... */\n      iszero\n      iszero\n      tag_105\n      jumpi\n      mload(0x40)\n      0x8c379a000000000000000000000000000000000000000000000000000000000\n      dup2\n      mstore\n      0x4\n      add\n      dup1\n      dup1\n      0x20\n      add\n      dup3\n      dup2\n      sub\n      dup3\n      mstore\n      0x12\n      dup2\n      mstore\n      0x20\n      add\n      dup1\n      0x4e6f7420656e6f7567682062616c616e63650000000000000000000000000000\n      dup2\n      mstore\n      pop\n      0x20\n      add\n      swap2\n      pop\n      pop\n      mload(0x40)\n      dup1\n      swap2\n      sub\n      swap1\n      revert\n    tag_105:\n        /* \"第3题/Demo.sol\":2658:2664  amount */\n      dup6\n        /* \"第3题/Demo.sol\":2631:2638  account */\n      dup6\n        /* \"第3题/Demo.sol\":2631:2647  account.balances */\n      0x2\n      add\n        /* \"第3题/Demo.sol\":2631:2654  account.balances[token] */\n      0x0\n        /* \"第3题/Demo.sol\":2648:2653  token */\n      dup10\n        /* \"第3题/Demo.sol\":2631:2654  account.balances[token] */\n      0xffffffffffffffffffffffffffffffffffffffff\n      and\n      0xffffffffffffffffffffffffffffffffffffffff\n      and\n      dup2\n      mstore\n      0x20\n      add\n      swap1\n      dup2\n      mstore\n      0x20\n      add\n      0x0\n      keccak256\n      0x0\n        /* \"第3题/Demo.sol\":2631:2664  account.balances[token] -= amount */\n      dup3\n      dup3\n      sload\n      sub\n      swap3\n      pop\n      pop\n      dup2\n      swap1\n      sstore\n      pop\n        /* \"第3题/Demo.sol\":2708:2709  0 */\n      0x0\n        /* \"第3题/Demo.sol\":2681:2688  account */\n      dup6\n        /* \"第3题/Demo.sol\":2681:2697  account.balances */\n      0x2\n      add\n        /* \"第3题/Demo.sol\":2681:2704  account.balances[token] */\n      0x0\n        /* \"第3题/Demo.sol\":2698:2703  token */\n      dup10\n        /* \"第3题/Demo.sol\":2681:2704  account.balances[token] */\n      0xffffffffffffffffffffffffffffffffffffffff\n      and\n      0xffffffffffffffffffffffffffffffffffffffff\n      and\n      dup2\n      mstore\n      0x20\n      add\n      swap1\n      dup2\n      mstore\n      0x20\n      add\n      0x0\n      keccak256\n      sload\n        /* \"第3题/Demo.sol\":2681:2709  account.balances[token] == 0 */\n      eq\n        /* \"第3题/Demo.sol\":2677:2899  if (account.balances[token] == 0) {\r... */\n      iszero\n      tag_106\n      jumpi\n        /* \"第3题/Demo.sol\":2726:2733  account */\n      dup5\n        /* \"第3题/Demo.sol\":2726:2746  account.uniqueTokens */\n      0x1\n      add\n      0x0\n        /* \"第3题/Demo.sol\":2726:2748  account.uniqueTokens-- */\n      dup2\n      sload\n      dup1\n      swap3\n      swap2\n      swap1\n      0x1\n      swap1\n      sub\n      swap2\n      swap1\n      pop\n      sstore\n      pop\n        /* \"第3题/Demo.sol\":2793:2794  0 */\n      0x0\n        /* \"第3题/Demo.sol\":2769:2776  account */\n      dup6\n        /* \"第3题/Demo.sol\":2769:2789  account.uniqueTokens */\n      0x1\n      add\n      sload\n        /* \"第3题/Demo.sol\":2769:2794  account.uniqueTokens == 0 */\n      eq\n        /* \"第3题/Demo.sol\":2769:2822  account.uniqueTokens == 0 && accountId == lastAccount */\n      dup1\n      iszero\n      tag_107\n      jumpi\n      pop\n        /* \"第3题/Demo.sol\":2811:2822  lastAccount */\n      dup4\n        /* \"第3题/Demo.sol\":2798:2807  accountId */\n      dup9\n        /* \"第3题/Demo.sol\":2798:2822  accountId == lastAccount */\n      eq\n        /* \"第3题/Demo.sol\":2769:2822  account.uniqueTokens == 0 && accountId == lastAccount */\n    tag_107:\n        /* \"第3题/Demo.sol\":2765:2888  if (account.uniqueTokens == 0 && accountId == lastAccount) {\r... */\n      iszero\n      tag_108\n      jumpi\n        /* \"第3题/Demo.sol\":2843:2851  accounts */\n      0x2\n        /* \"第3题/Demo.sol\":2843:2863  accounts[msg.sender] */\n      0x0\n        /* \"第3题/Demo.sol\":2852:2862  msg.sender */\n      caller\n        /* \"第3题/Demo.sol\":2843:2863  accounts[msg.sender] */\n      0xffffffffffffffffffffffffffffffffffffffff\n      and\n      0xffffffffffffffffffffffffffffffffffffffff\n      and\n      dup2\n      mstore\n      0x20\n      add\n      swap1\n      dup2\n      mstore\n      0x20\n      add\n      0x0\n      keccak256\n        /* \"第3题/Demo.sol\":2843:2872  accounts[msg.sender].length-- */\n      dup1\n      sload\n      dup1\n      swap2\n      swap1\n      0x1\n      swap1\n      sub\n      tag_109\n      swap2\n      swap1\n      jump\t// in(tag_58)\n    tag_109:\n      pop\n        /* \"第3题/Demo.sol\":2765:2888  if (account.uniqueTokens == 0 && accountId == lastAccount) {\r... */\n    tag_108:\n        /* \"第3题/Demo.sol\":2677:2899  if (account.balances[token] == 0) {\r... */\n    tag_106:\n        /* \"第3题/Demo.sol\":2945:2950  token */\n      dup7\n        /* \"第3题/Demo.sol\":2935:2961  FakeERC20(token).balanceOf */\n      0xffffffffffffffffffffffffffffffffffffffff\n      and\n      0x70a08231\n        /* \"第3题/Demo.sol\":2962:2972  msg.sender */\n      caller\n        /* \"第3题/Demo.sol\":2935:2973  FakeERC20(token).balanceOf(msg.sender) */\n      mload(0x40)\n      dup3\n      0xffffffff\n      and\n      0x100000000000000000000000000000000000000000000000000000000\n      mul\n      dup2\n      mstore\n      0x4\n      add\n      dup1\n      dup3\n      0xffffffffffffffffffffffffffffffffffffffff\n      and\n      0xffffffffffffffffffffffffffffffffffffffff\n      and\n      dup2\n      mstore\n      0x20\n      add\n      swap2\n      pop\n      pop\n      0x20\n      mload(0x40)\n      dup1\n      dup4\n      sub\n      dup2\n      0x0\n      dup8\n      dup1\n      extcodesize\n      iszero\n        /* \"--CODEGEN--\":8:17   */\n      dup1\n        /* \"--CODEGEN--\":5:7   */\n      iszero\n      tag_110\n      jumpi\n        /* \"--CODEGEN--\":30:31   */\n      0x0\n        /* \"--CODEGEN--\":27:28   */\n      dup1\n        /* \"--CODEGEN--\":20:32   */\n      revert\n        /* \"--CODEGEN--\":5:7   */\n    tag_110:\n        /* \"第3题/Demo.sol\":2935:2973  FakeERC20(token).balanceOf(msg.sender) */\n      pop\n      gas\n      call\n      iszero\n        /* \"--CODEGEN--\":8:17   */\n      dup1\n        /* \"--CODEGEN--\":5:7   */\n      iszero\n      tag_111\n      jumpi\n        /* \"--CODEGEN--\":45:61   */\n      returndatasize\n        /* \"--CODEGEN--\":42:43   */\n      0x0\n        /* \"--CODEGEN--\":39:40   */\n      dup1\n        /* \"--CODEGEN--\":24:62   */\n      returndatacopy\n        /* \"--CODEGEN--\":77:93   */\n      returndatasize\n        /* \"--CODEGEN--\":74:75   */\n      0x0\n        /* \"--CODEGEN--\":67:94   */\n      revert\n        /* \"--CODEGEN--\":5:7   */\n    tag_111:\n        /* \"第3题/Demo.sol\":2935:2973  FakeERC20(token).balanceOf(msg.sender) */\n      pop\n      pop\n      pop\n      pop\n      mload(0x40)\n      returndatasize\n        /* \"--CODEGEN--\":13:15   */\n      0x20\n        /* \"--CODEGEN--\":8:11   */\n      dup2\n        /* \"--CODEGEN--\":5:16   */\n      lt\n        /* \"--CODEGEN--\":2:4   */\n      iszero\n      tag_112\n      jumpi\n        /* \"--CODEGEN--\":29:30   */\n      0x0\n        /* \"--CODEGEN--\":26:27   */\n      dup1\n        /* \"--CODEGEN--\":19:31   */\n      revert\n        /* \"--CODEGEN--\":2:4   */\n    tag_112:\n        /* \"第3题/Demo.sol\":2935:2973  FakeERC20(token).balanceOf(msg.sender) */\n      dup2\n      add\n      swap1\n      dup1\n      dup1\n      mload\n      swap1\n      0x20\n      add\n      swap1\n      swap3\n      swap2\n      swap1\n      pop\n      pop\n      pop\n        /* \"第3题/Demo.sol\":2911:2973  uint256 beforeBalance = FakeERC20(token).balanceOf(msg.sender) */\n      swap2\n      pop\n        /* \"第3题/Demo.sol\":3016:3021  token */\n      dup7\n        /* \"第3题/Demo.sol\":3006:3031  FakeERC20(token).transfer */\n      0xffffffffffffffffffffffffffffffffffffffff\n      and\n      0xa9059cbb\n        /* \"第3题/Demo.sol\":3032:3042  msg.sender */\n      caller\n        /* \"第3题/Demo.sol\":3044:3050  amount */\n      dup9\n        /* \"第3题/Demo.sol\":3006:3051  FakeERC20(token).transfer(msg.sender, amount) */\n      mload(0x40)\n      dup4\n      0xffffffff\n      and\n      0x100000000000000000000000000000000000000000000000000000000\n      mul\n      dup2\n      mstore\n      0x4\n      add\n      dup1\n      dup4\n      0xffffffffffffffffffffffffffffffffffffffff\n      and\n      0xffffffffffffffffffffffffffffffffffffffff\n      and\n      dup2\n      mstore\n      0x20\n      add\n      dup3\n      dup2\n      mstore\n      0x20\n      add\n      swap3\n      pop\n      pop\n      pop\n      0x20\n      mload(0x40)\n      dup1\n      dup4\n      sub\n      dup2\n      0x0\n      dup8\n      dup1\n      extcodesize\n      iszero\n        /* \"--CODEGEN--\":8:17   */\n      dup1\n        /* \"--CODEGEN--\":5:7   */\n      iszero\n      tag_113\n      jumpi\n        /* \"--CODEGEN--\":30:31   */\n      0x0\n        /* \"--CODEGEN--\":27:28   */\n      dup1\n        /* \"--CODEGEN--\":20:32   */\n      revert\n        /* \"--CODEGEN--\":5:7   */\n    tag_113:\n        /* \"第3题/Demo.sol\":3006:3051  FakeERC20(token).transfer(msg.sender, amount) */\n      pop\n      gas\n      call\n      iszero\n        /* \"--CODEGEN--\":8:17   */\n      dup1\n        /* \"--CODEGEN--\":5:7   */\n      iszero\n      tag_114\n      jumpi\n        /* \"--CODEGEN--\":45:61   */\n      returndatasize\n        /* \"--CODEGEN--\":42:43   */\n      0x0\n        /* \"--CODEGEN--\":39:40   */\n      dup1\n        /* \"--CODEGEN--\":24:62   */\n      returndatacopy\n        /* \"--CODEGEN--\":77:93   */\n      returndatasize\n        /* \"--CODEGEN--\":74:75   */\n      0x0\n        /* \"--CODEGEN--\":67:94   */\n      revert\n        /* \"--CODEGEN--\":5:7   */\n    tag_114:\n        /* \"第3题/Demo.sol\":3006:3051  FakeERC20(token).transfer(msg.sender, amount) */\n      pop\n      pop\n      pop\n      pop\n      mload(0x40)\n      returndatasize\n        /* \"--CODEGEN--\":13:15   */\n      0x20\n        /* \"--CODEGEN--\":8:11   */\n      dup2\n        /* \"--CODEGEN--\":5:16   */\n      lt\n        /* \"--CODEGEN--\":2:4   */\n      iszero\n      tag_115\n      jumpi\n        /* \"--CODEGEN--\":29:30   */\n      0x0\n        /* \"--CODEGEN--\":26:27   */\n      dup1\n        /* \"--CODEGEN--\":19:31   */\n      revert\n        /* \"--CODEGEN--\":2:4   */\n    tag_115:\n        /* \"第3题/Demo.sol\":3006:3051  FakeERC20(token).transfer(msg.sender, amount) */\n      dup2\n      add\n      swap1\n      dup1\n      dup1\n      mload\n      swap1\n      0x20\n      add\n      swap1\n      swap3\n      swap2\n      swap1\n      pop\n      pop\n      pop\n        /* \"第3题/Demo.sol\":2984:3094  require(\r... */\n      iszero\n      iszero\n      tag_116\n      jumpi\n      mload(0x40)\n      0x8c379a000000000000000000000000000000000000000000000000000000000\n      dup2\n      mstore\n      0x4\n      add\n      dup1\n      dup1\n      0x20\n      add\n      dup3\n      dup2\n      sub\n      dup3\n      mstore\n      0xf\n      dup2\n      mstore\n      0x20\n      add\n      dup1\n      0x7472616e73666572206661696c65640000000000000000000000000000000000\n      dup2\n      mstore\n      pop\n      0x20\n      add\n      swap2\n      pop\n      pop\n      mload(0x40)\n      dup1\n      swap2\n      sub\n      swap1\n      revert\n    tag_116:\n        /* \"第3题/Demo.sol\":3138:3143  token */\n      dup7\n        /* \"第3题/Demo.sol\":3128:3154  FakeERC20(token).balanceOf */\n      0xffffffffffffffffffffffffffffffffffffffff\n      and\n      0x70a08231\n        /* \"第3题/Demo.sol\":3155:3165  msg.sender */\n      caller\n        /* \"第3题/Demo.sol\":3128:3166  FakeERC20(token).balanceOf(msg.sender) */\n      mload(0x40)\n      dup3\n      0xffffffff\n      and\n      0x100000000000000000000000000000000000000000000000000000000\n      mul\n      dup2\n      mstore\n      0x4\n      add\n      dup1\n      dup3\n      0xffffffffffffffffffffffffffffffffffffffff\n      and\n      0xffffffffffffffffffffffffffffffffffffffff\n      and\n      dup2\n      mstore\n      0x20\n      add\n      swap2\n      pop\n      pop\n      0x20\n      mload(0x40)\n      dup1\n      dup4\n      sub\n      dup2\n      0x0\n      dup8\n      dup1\n      extcodesize\n      iszero\n        /* \"--CODEGEN--\":8:17   */\n      dup1\n        /* \"--CODEGEN--\":5:7   */\n      iszero\n      tag_117\n      jumpi\n        /* \"--CODEGEN--\":30:31   */\n      0x0\n        /* \"--CODEGEN--\":27:28   */\n      dup1\n        /* \"--CODEGEN--\":20:32   */\n      revert\n        /* \"--CODEGEN--\":5:7   */\n    tag_117:\n        /* \"第3题/Demo.sol\":3128:3166  FakeERC20(token).balanceOf(msg.sender) */\n      pop\n      gas\n      call\n      iszero\n        /* \"--CODEGEN--\":8:17   */\n      dup1\n        /* \"--CODEGEN--\":5:7   */\n      iszero\n      tag_118\n      jumpi\n        /* \"--CODEGEN--\":45:61   */\n      returndatasize\n        /* \"--CODEGEN--\":42:43   */\n      0x0\n        /* \"--CODEGEN--\":39:40   */\n      dup1\n        /* \"--CODEGEN--\":24:62   */\n      returndatacopy\n        /* \"--CODEGEN--\":77:93   */\n      returndatasize\n        /* \"--CODEGEN--\":74:75   */\n      0x0\n        /* \"--CODEGEN--\":67:94   */\n      revert\n        /* \"--CODEGEN--\":5:7   */\n    tag_118:\n        /* \"第3题/Demo.sol\":3128:3166  FakeERC20(token).balanceOf(msg.sender) */\n      pop\n      pop\n      pop\n      pop\n      mload(0x40)\n      returndatasize\n        /* \"--CODEGEN--\":13:15   */\n      0x20\n        /* \"--CODEGEN--\":8:11   */\n      dup2\n        /* \"--CODEGEN--\":5:16   */\n      lt\n        /* \"--CODEGEN--\":2:4   */\n      iszero\n      tag_119\n      jumpi\n        /* \"--CODEGEN--\":29:30   */\n      0x0\n        /* \"--CODEGEN--\":26:27   */\n      dup1\n        /* \"--CODEGEN--\":19:31   */\n      revert\n        /* \"--CODEGEN--\":2:4   */\n    tag_119:\n        /* \"第3题/Demo.sol\":3128:3166  FakeERC20(token).balanceOf(msg.sender) */\n      dup2\n      add\n      swap1\n      dup1\n      dup1\n      mload\n      swap1\n      0x20\n      add\n      swap1\n      swap3\n      swap2\n      swap1\n      pop\n      pop\n      pop\n        /* \"第3题/Demo.sol\":3105:3166  uint256 afterBalance = FakeERC20(token).balanceOf(msg.sender) */\n      swap1\n      pop\n        /* \"第3题/Demo.sol\":3231:3237  amount */\n      dup6\n        /* \"第3题/Demo.sol\":3214:3227  beforeBalance */\n      dup3\n        /* \"第3题/Demo.sol\":3199:3211  afterBalance */\n      dup3\n        /* \"第3题/Demo.sol\":3199:3227  afterBalance - beforeBalance */\n      sub\n        /* \"第3题/Demo.sol\":3199:3237  afterBalance - beforeBalance == amount */\n      eq\n        /* \"第3题/Demo.sol\":3177:3270  require(\r... */\n      iszero\n      iszero\n      tag_120\n      jumpi\n      mload(0x40)\n      0x8c379a000000000000000000000000000000000000000000000000000000000\n      dup2\n      mstore\n      0x4\n      add\n      dup1\n      dup1\n      0x20\n      add\n      dup3\n      dup2\n      sub\n      dup3\n      mstore\n      0x5\n      dup2\n      mstore\n      0x20\n      add\n      dup1\n      0x6572726f72000000000000000000000000000000000000000000000000000000\n      dup2\n      mstore\n      pop\n      0x20\n      add\n      swap2\n      pop\n      pop\n      mload(0x40)\n      dup1\n      swap2\n      sub\n      swap1\n      revert\n    tag_120:\n        /* \"第3题/Demo.sol\":2012:3278  function withdrawToken(\r... */\n      pop\n      pop\n      pop\n      pop\n      pop\n      pop\n      pop\n      pop\n      jump\t// out\n        /* \"第3题/Demo.sol\":3542:3920  function closeLastAccount() external {\r... */\n    tag_34:\n        /* \"第3题/Demo.sol\":3696:3715  uint256 lastAccount */\n      0x0\n        /* \"第3题/Demo.sol\":3642:3643  0 */\n      dup1\n        /* \"第3题/Demo.sol\":3612:3620  accounts */\n      0x2\n        /* \"第3题/Demo.sol\":3612:3632  accounts[msg.sender] */\n      0x0\n        /* \"第3题/Demo.sol\":3621:3631  msg.sender */\n      caller\n        /* \"第3题/Demo.sol\":3612:3632  accounts[msg.sender] */\n      0xffffffffffffffffffffffffffffffffffffffff\n      and\n      0xffffffffffffffffffffffffffffffffffffffff\n      and\n      dup2\n      mstore\n      0x20\n      add\n      swap1\n      dup2\n      mstore\n      0x20\n      add\n      0x0\n      keccak256\n        /* \"第3题/Demo.sol\":3612:3639  accounts[msg.sender].length */\n      dup1\n      sload\n      swap1\n      pop\n        /* \"第3题/Demo.sol\":3612:3643  accounts[msg.sender].length > 0 */\n      gt\n        /* \"第3题/Demo.sol\":3590:3683  require(\r... */\n      iszero\n      iszero\n      tag_122\n      jumpi\n      mload(0x40)\n      0x8c379a000000000000000000000000000000000000000000000000000000000\n      dup2\n      mstore\n      0x4\n      add\n      dup1\n      dup1\n      0x20\n      add\n      dup3\n      dup2\n      sub\n      dup3\n      mstore\n      0xc\n      dup2\n      mstore\n      0x20\n      add\n      dup1\n      0x626164206163636f756e74730000000000000000000000000000000000000000\n      dup2\n      mstore\n      pop\n      0x20\n      add\n      swap2\n      pop\n      pop\n      mload(0x40)\n      dup1\n      swap2\n      sub\n      swap1\n      revert\n    tag_122:\n        /* \"第3题/Demo.sol\":3748:3749  1 */\n      0x1\n        /* \"第3题/Demo.sol\":3718:3726  accounts */\n      0x2\n        /* \"第3题/Demo.sol\":3718:3738  accounts[msg.sender] */\n      0x0\n        /* \"第3题/Demo.sol\":3727:3737  msg.sender */\n      caller\n        /* \"第3题/Demo.sol\":3718:3738  accounts[msg.sender] */\n      0xffffffffffffffffffffffffffffffffffffffff\n      and\n      0xffffffffffffffffffffffffffffffffffffffff\n      and\n      dup2\n      mstore\n      0x20\n      add\n      swap1\n      dup2\n      mstore\n      0x20\n      add\n      0x0\n      keccak256\n        /* \"第3题/Demo.sol\":3718:3745  accounts[msg.sender].length */\n      dup1\n      sload\n      swap1\n      pop\n        /* \"第3题/Demo.sol\":3718:3749  accounts[msg.sender].length - 1 */\n      sub\n        /* \"第3题/Demo.sol\":3696:3749  uint256 lastAccount = accounts[msg.sender].length - 1 */\n      swap1\n      pop\n        /* \"第3题/Demo.sol\":3832:3833  0 */\n      0x0\n        /* \"第3题/Demo.sol\":3782:3790  accounts */\n      0x2\n        /* \"第3题/Demo.sol\":3782:3802  accounts[msg.sender] */\n      0x0\n        /* \"第3题/Demo.sol\":3791:3801  msg.sender */\n      caller\n        /* \"第3题/Demo.sol\":3782:3802  accounts[msg.sender] */\n      0xffffffffffffffffffffffffffffffffffffffff\n      and\n      0xffffffffffffffffffffffffffffffffffffffff\n      and\n      dup2\n      mstore\n      0x20\n      add\n      swap1\n      dup2\n      mstore\n      0x20\n      add\n      0x0\n      keccak256\n        /* \"第3题/Demo.sol\":3803:3814  lastAccount */\n      dup3\n        /* \"第3题/Demo.sol\":3782:3815  accounts[msg.sender][lastAccount] */\n      dup2\n      sload\n      dup2\n      lt\n      iszero\n      iszero\n      tag_123\n      jumpi\n      invalid\n    tag_123:\n      swap1\n      0x0\n      mstore\n      keccak256(0x0, 0x20)\n      swap1\n      0x3\n      mul\n      add\n        /* \"第3题/Demo.sol\":3782:3828  accounts[msg.sender][lastAccount].uniqueTokens */\n      0x1\n      add\n      sload\n        /* \"第3题/Demo.sol\":3782:3833  accounts[msg.sender][lastAccount].uniqueTokens == 0 */\n      eq\n        /* \"第3题/Demo.sol\":3760:3870  require(\r... */\n      iszero\n      iszero\n      tag_125\n      jumpi\n      mload(0x40)\n      0x8c379a000000000000000000000000000000000000000000000000000000000\n      dup2\n      mstore\n      0x4\n      add\n      dup1\n      dup1\n      0x20\n      add\n      dup3\n      dup2\n      sub\n      dup3\n      mstore\n      0x9\n      dup2\n      mstore\n      0x20\n      add\n      dup1\n      0x6e6f6e2d656d7074790000000000000000000000000000000000000000000000\n      dup2\n      mstore\n      pop\n      0x20\n      add\n      swap2\n      pop\n      pop\n      mload(0x40)\n      dup1\n      swap2\n      sub\n      swap1\n      revert\n    tag_125:\n        /* \"第3题/Demo.sol\":3883:3891  accounts */\n      0x2\n        /* \"第3题/Demo.sol\":3883:3903  accounts[msg.sender] */\n      0x0\n        /* \"第3题/Demo.sol\":3892:3902  msg.sender */\n      caller\n        /* \"第3题/Demo.sol\":3883:3903  accounts[msg.sender] */\n      0xffffffffffffffffffffffffffffffffffffffff\n      and\n      0xffffffffffffffffffffffffffffffffffffffff\n      and\n      dup2\n      mstore\n      0x20\n      add\n      swap1\n      dup2\n      mstore\n      0x20\n      add\n      0x0\n      keccak256\n        /* \"第3题/Demo.sol\":3883:3912  accounts[msg.sender].length-- */\n      dup1\n      sload\n      dup1\n      swap2\n      swap1\n      0x1\n      swap1\n      sub\n      tag_126\n      swap2\n      swap1\n      jump\t// in(tag_58)\n    tag_126:\n      pop\n        /* \"第3题/Demo.sol\":3542:3920  function closeLastAccount() external {\r... */\n      pop\n      jump\t// out\n        /* \"第3题/Demo.sol\":4778:4938  function acceptOwnership() public {\r... */\n    tag_37:\n        /* \"第3题/Demo.sol\":4845:4857  pendingOwner */\n      0x1\n      0x0\n      swap1\n      sload\n      swap1\n      0x100\n      exp\n      swap1\n      div\n      0xffffffffffffffffffffffffffffffffffffffff\n      and\n        /* \"第3题/Demo.sol\":4831:4857  msg.sender == pendingOwner */\n      0xffffffffffffffffffffffffffffffffffffffff\n      and\n        /* \"第3题/Demo.sol\":4831:4841  msg.sender */\n      caller\n        /* \"第3题/Demo.sol\":4831:4857  msg.sender == pendingOwner */\n      0xffffffffffffffffffffffffffffffffffffffff\n      and\n      eq\n        /* \"第3题/Demo.sol\":4823:4858  require(msg.sender == pendingOwner) */\n      iszero\n      iszero\n      tag_128\n      jumpi\n      0x0\n      dup1\n      revert\n    tag_128:\n        /* \"第3题/Demo.sol\":4879:4891  pendingOwner */\n      0x1\n      0x0\n      swap1\n      sload\n      swap1\n      0x100\n      exp\n      swap1\n      div\n      0xffffffffffffffffffffffffffffffffffffffff\n      and\n        /* \"第3题/Demo.sol\":4871:4876  owner */\n      0x0\n      dup1\n        /* \"第3题/Demo.sol\":4871:4891  owner = pendingOwner */\n      0x100\n      exp\n      dup2\n      sload\n      dup2\n      0xffffffffffffffffffffffffffffffffffffffff\n      mul\n      not\n      and\n      swap1\n      dup4\n      0xffffffffffffffffffffffffffffffffffffffff\n      and\n      mul\n      or\n      swap1\n      sstore\n      pop\n        /* \"第3题/Demo.sol\":4925:4929  0x00 */\n      0x0\n        /* \"第3题/Demo.sol\":4902:4914  pendingOwner */\n      0x1\n      0x0\n        /* \"第3题/Demo.sol\":4902:4930  pendingOwner = address(0x00) */\n      0x100\n      exp\n      dup2\n      sload\n      dup2\n      0xffffffffffffffffffffffffffffffffffffffff\n      mul\n      not\n      and\n      swap1\n      dup4\n      0xffffffffffffffffffffffffffffffffffffffff\n      and\n      mul\n      or\n      swap1\n      sstore\n      pop\n        /* \"第3题/Demo.sol\":4778:4938  function acceptOwnership() public {\r... */\n      jump\t// out\n        /* \"第3题/Demo.sol\":677:726  mapping(address => AccountBook[]) public accounts */\n    tag_40:\n      mstore(0x20, 0x2)\n      dup2\n      0x0\n      mstore\n      keccak256(0x0, 0x40)\n      dup2\n      dup2\n      sload\n      dup2\n      lt\n      iszero\n      iszero\n      tag_129\n      jumpi\n      invalid\n    tag_129:\n      swap1\n      0x0\n      mstore\n      keccak256(0x0, 0x20)\n      swap1\n      0x3\n      mul\n      add\n      0x0\n      swap2\n      pop\n      swap2\n      pop\n      pop\n      dup1\n      0x0\n      add\n      dup1\n      sload\n      0x1\n      dup2\n      0x1\n      and\n      iszero\n      0x100\n      mul\n      sub\n      and\n      0x2\n      swap1\n      div\n      dup1\n      0x1f\n      add\n      0x20\n      dup1\n      swap2\n      div\n      mul\n      0x20\n      add\n      mload(0x40)\n      swap1\n      dup2\n      add\n      0x40\n      mstore\n      dup1\n      swap3\n      swap2\n      swap1\n      dup2\n      dup2\n      mstore\n      0x20\n      add\n      dup3\n      dup1\n      sload\n      0x1\n      dup2\n      0x1\n      and\n      iszero\n      0x100\n      mul\n      sub\n      and\n      0x2\n      swap1\n      div\n      dup1\n      iszero\n      tag_131\n      jumpi\n      dup1\n      0x1f\n      lt\n      tag_132\n      jumpi\n      0x100\n      dup1\n      dup4\n      sload\n      div\n      mul\n      dup4\n      mstore\n      swap2\n      0x20\n      add\n      swap2\n      jump(tag_131)\n    tag_132:\n      dup3\n      add\n      swap2\n      swap1\n      0x0\n      mstore\n      keccak256(0x0, 0x20)\n      swap1\n    tag_133:\n      dup2\n      sload\n      dup2\n      mstore\n      swap1\n      0x1\n      add\n      swap1\n      0x20\n      add\n      dup1\n      dup4\n      gt\n      tag_133\n      jumpi\n      dup3\n      swap1\n      sub\n      0x1f\n      and\n      dup3\n      add\n      swap2\n    tag_131:\n      pop\n      pop\n      pop\n      pop\n      pop\n      swap1\n      dup1\n      0x1\n      add\n      sload\n      swap1\n      pop\n      dup3\n      jump\t// out\n        /* \"第3题/Demo.sol\":472:492  address public owner */\n    tag_47:\n      0x0\n      dup1\n      swap1\n      sload\n      swap1\n      0x100\n      exp\n      swap1\n      div\n      0xffffffffffffffffffffffffffffffffffffffff\n      and\n      dup2\n      jump\t// out\n        /* \"第3题/Demo.sol\":499:526  address public pendingOwner */\n    tag_50:\n      0x1\n      0x0\n      swap1\n      sload\n      swap1\n      0x100\n      exp\n      swap1\n      div\n      0xffffffffffffffffffffffffffffffffffffffff\n      and\n      dup2\n      jump\t// out\n        /* \"第3题/Demo.sol\":4635:4770  function transferOwnership(address newOwner) public {\r... */\n    tag_53:\n        /* \"第3题/Demo.sol\":4720:4725  owner */\n      0x0\n      dup1\n      swap1\n      sload\n      swap1\n      0x100\n      exp\n      swap1\n      div\n      0xffffffffffffffffffffffffffffffffffffffff\n      and\n        /* \"第3题/Demo.sol\":4706:4725  msg.sender == owner */\n      0xffffffffffffffffffffffffffffffffffffffff\n      and\n        /* \"第3题/Demo.sol\":4706:4716  msg.sender */\n      caller\n        /* \"第3题/Demo.sol\":4706:4725  msg.sender == owner */\n      0xffffffffffffffffffffffffffffffffffffffff\n      and\n      eq\n        /* \"第3题/Demo.sol\":4698:4726  require(msg.sender == owner) */\n      iszero\n      iszero\n      tag_135\n      jumpi\n      0x0\n      dup1\n      revert\n    tag_135:\n        /* \"第3题/Demo.sol\":4754:4762  newOwner */\n      dup1\n        /* \"第3题/Demo.sol\":4739:4751  pendingOwner */\n      0x1\n      0x0\n        /* \"第3题/Demo.sol\":4739:4762  pendingOwner = newOwner */\n      0x100\n      exp\n      dup2\n      sload\n      dup2\n      0xffffffffffffffffffffffffffffffffffffffff\n      mul\n      not\n      and\n      swap1\n      dup4\n      0xffffffffffffffffffffffffffffffffffffffff\n      and\n      mul\n      or\n      swap1\n      sstore\n      pop\n        /* \"第3题/Demo.sol\":4635:4770  function transferOwnership(address newOwner) public {\r... */\n      pop\n      jump\t// out\n        /* \"第3题/Demo.sol\":451:4941  contract Bank {\r... */\n    tag_58:\n      dup2\n      sload\n      dup2\n      dup4\n      sstore\n      dup2\n      dup2\n      gt\n      iszero\n      tag_136\n      jumpi\n      0x3\n      mul\n      dup2\n      0x3\n      mul\n      dup4\n      0x0\n      mstore\n      keccak256(0x0, 0x20)\n      swap2\n      dup3\n      add\n      swap2\n      add\n      tag_137\n      swap2\n      swap1\n      jump\t// in(tag_138)\n    tag_137:\n    tag_136:\n      pop\n      pop\n      pop\n      jump\t// out\n    tag_92:\n      dup3\n      dup1\n      sload\n      0x1\n      dup2\n      0x1\n      and\n      iszero\n      0x100\n      mul\n      sub\n      and\n      0x2\n      swap1\n      div\n      swap1\n      0x0\n      mstore\n      keccak256(0x0, 0x20)\n      swap1\n      0x1f\n      add\n      0x20\n      swap1\n      div\n      dup2\n      add\n      swap3\n      dup3\n      0x1f\n      lt\n      tag_140\n      jumpi\n      dup1\n      calldataload\n      not(0xff)\n      and\n      dup4\n      dup1\n      add\n      or\n      dup6\n      sstore\n      jump(tag_139)\n    tag_140:\n      dup3\n      dup1\n      add\n      0x1\n      add\n      dup6\n      sstore\n      dup3\n      iszero\n      tag_139\n      jumpi\n      swap2\n      dup3\n      add\n    tag_141:\n      dup3\n      dup2\n      gt\n      iszero\n      tag_142\n      jumpi\n      dup3\n      calldataload\n      dup3\n      sstore\n      swap2\n      0x20\n      add\n      swap2\n      swap1\n      0x1\n      add\n      swap1\n      jump(tag_141)\n    tag_142:\n    tag_139:\n      pop\n      swap1\n      pop\n      tag_143\n      swap2\n      swap1\n      jump\t// in(tag_144)\n    tag_143:\n      pop\n      swap1\n      jump\t// out\n    tag_138:\n      tag_145\n      swap2\n      swap1\n    tag_146:\n      dup1\n      dup3\n      gt\n      iszero\n      tag_147\n      jumpi\n      0x0\n      dup1\n      dup3\n      add\n      0x0\n      tag_148\n      swap2\n      swap1\n      jump\t// in(tag_149)\n    tag_148:\n      0x1\n      dup3\n      add\n      0x0\n      swap1\n      sstore\n      pop\n      0x3\n      add\n      jump(tag_146)\n    tag_147:\n      pop\n      swap1\n      jump\n    tag_145:\n      swap1\n      jump\t// out\n    tag_144:\n      tag_150\n      swap2\n      swap1\n    tag_151:\n      dup1\n      dup3\n      gt\n      iszero\n      tag_152\n      jumpi\n      0x0\n      dup2\n      0x0\n      swap1\n      sstore\n      pop\n      0x1\n      add\n      jump(tag_151)\n    tag_152:\n      pop\n      swap1\n      jump\n    tag_150:\n      swap1\n      jump\t// out\n    tag_149:\n      pop\n      dup1\n      sload\n      0x1\n      dup2\n      0x1\n      and\n      iszero\n      0x100\n      mul\n      sub\n      and\n      0x2\n      swap1\n      div\n      0x0\n      dup3\n      sstore\n      dup1\n      0x1f\n      lt\n      tag_154\n      jumpi\n      pop\n      jump(tag_153)\n    tag_154:\n      0x1f\n      add\n      0x20\n      swap1\n      div\n      swap1\n      0x0\n      mstore\n      keccak256(0x0, 0x20)\n      swap1\n      dup2\n      add\n      swap1\n      tag_155\n      swap2\n      swap1\n      jump\t// in(tag_144)\n    tag_155:\n    tag_153:\n      pop\n      jump\t// out\n\n    auxdata: 0xa165627a7a72305820f23318f57f74459b3353a8a7cb2a0a5c044d70626d484580aafeb8bf86f5764b0029\n}\n",
				"bytecode": {
					"linkReferences": {},
					"object": "608060405234801561001057600080fd5b50336000806101000a81548173ffffffffffffffffffffffffffffffffffffffff021916908373ffffffffffffffffffffffffffffffffffffffff160217905550611fb2806100606000396000f3006080604052600436106100af576000357c0100000000000000000000000000000000000000000000000000000000900463ffffffff1680630a9306d7146100b45780633b561afc1461010b5780635e46bf8d146101b85780635e81300a146101fd57806368a6773b1461025e5780636973d7fa146102b557806379ba5097146102cc57806387524581146102e35780638da5cb5b146103b0578063e30c397814610407578063f2fde38b1461045e575b600080fd5b3480156100c057600080fd5b5061010960048036038101908080359060200190929190803573ffffffffffffffffffffffffffffffffffffffff169060200190929190803590602001909291905050506104a1565b005b34801561011757600080fd5b5061013660048036038101908080359060200190929190505050610c8a565b6040518080602001838152602001828103825284818151815260200191508051906020019080838360005b8381101561017c578082015181840152602081019050610161565b50505050905090810190601f1680156101a95780820380516001836020036101000a031916815260200191505b50935050505060405180910390f35b3480156101c457600080fd5b506101fb60048036038101908080359060200190929190803590602001908201803590602001919091929391929390505050610ea7565b005b34801561020957600080fd5b5061024860048036038101908080359060200190929190803573ffffffffffffffffffffffffffffffffffffffff169060200190929190505050610fd2565b6040518082815260200191505060405180910390f35b34801561026a57600080fd5b506102b360048036038101908080359060200190929190803573ffffffffffffffffffffffffffffffffffffffff16906020019092919080359060200190929190505050611130565b005b3480156102c157600080fd5b506102ca61193e565b005b3480156102d857600080fd5b506102e1611b6c565b005b3480156102ef57600080fd5b5061032e600480360381019080803573ffffffffffffffffffffffffffffffffffffffff16906020019092919080359060200190929190505050611c6e565b6040518080602001838152602001828103825284818151815260200191508051906020019080838360005b83811015610374578082015181840152602081019050610359565b50505050905090810190601f1680156103a15780820380516001836020036101000a031916815260200191505b50935050505060405180910390f35b3480156103bc57600080fd5b506103c5611d46565b604051808273ffffffffffffffffffffffffffffffffffffffff1673ffffffffffffffffffffffffffffffffffffffff16815260200191505060405180910390f35b34801561041357600080fd5b5061041c611d6b565b604051808273ffffffffffffffffffffffffffffffffffffffff1673ffffffffffffffffffffffffffffffffffffffff16815260200191505060405180910390f35b34801561046a57600080fd5b5061049f600480360381019080803573ffffffffffffffffffffffffffffffffffffffff169060200190929190505050611d91565b005b600080600080600260003373ffffffffffffffffffffffffffffffffffffffff1673ffffffffffffffffffffffffffffffffffffffff168152602001908152602001600020805490508711151515610561576040517f08c379a000000000000000000000000000000000000000000000000000000000815260040180806020018281038252600b8152602001807f626164206163636f756e7400000000000000000000000000000000000000000081525060200191505060405180910390fd5b600260003373ffffffffffffffffffffffffffffffffffffffff1673ffffffffffffffffffffffffffffffffffffffff168152602001908152602001600020805490508714156105fe57600260003373ffffffffffffffffffffffffffffffffffffffff1673ffffffffffffffffffffffffffffffffffffffff16815260200190815260200160002080548091906001016105fc9190611e30565b505b600260003373ffffffffffffffffffffffffffffffffffffffff1673ffffffffffffffffffffffffffffffffffffffff1681526020019081526020016000208781548110151561064a57fe5b906000526020600020906003020193508360020160008773ffffffffffffffffffffffffffffffffffffffff1673ffffffffffffffffffffffffffffffffffffffff1681526020019081526020016000205492508285840110151515610718576040517f08c379a00000000000000000000000000000000000000000000000000000000081526004018080602001828103825260088152602001807f6f766572666c6f7700000000000000000000000000000000000000000000000081525060200191505060405180910390fd5b848673ffffffffffffffffffffffffffffffffffffffff166370a08231336040518263ffffffff167c0100000000000000000000000000000000000000000000000000000000028152600401808273ffffffffffffffffffffffffffffffffffffffff1673ffffffffffffffffffffffffffffffffffffffff168152602001915050602060405180830381600087803b1580156107b457600080fd5b505af11580156107c8573d6000803e3d6000fd5b505050506040513d60208110156107de57600080fd5b810190808051906020019092919050505010151515610865576040517f08c379a00000000000000000000000000000000000000000000000000000000081526004018080602001828103825260128152602001807f4e6f7420656e6f7567682062616c616e6365000000000000000000000000000081525060200191505060405180910390fd5b60008314156108835783600101600081548092919060010191905055505b848460020160008873ffffffffffffffffffffffffffffffffffffffff1673ffffffffffffffffffffffffffffffffffffffff168152602001908152602001600020600082825401925050819055508573ffffffffffffffffffffffffffffffffffffffff166370a08231306040518263ffffffff167c0100000000000000000000000000000000000000000000000000000000028152600401808273ffffffffffffffffffffffffffffffffffffffff1673ffffffffffffffffffffffffffffffffffffffff168152602001915050602060405180830381600087803b15801561096d57600080fd5b505af1158015610981573d6000803e3d6000fd5b505050506040513d602081101561099757600080fd5b810190808051906020019092919050505091508573ffffffffffffffffffffffffffffffffffffffff166323b872dd3330886040518463ffffffff167c0100000000000000000000000000000000000000000000000000000000028152600401808473ffffffffffffffffffffffffffffffffffffffff1673ffffffffffffffffffffffffffffffffffffffff1681526020018373ffffffffffffffffffffffffffffffffffffffff1673ffffffffffffffffffffffffffffffffffffffff1681526020018281526020019350505050602060405180830381600087803b158015610a8157600080fd5b505af1158015610a95573d6000803e3d6000fd5b505050506040513d6020811015610aab57600080fd5b81019080805190602001909291905050501515610b30576040517f08c379a000000000000000000000000000000000000000000000000000000000815260040180806020018281038252600f8152602001807f7472616e73666572206661696c6564000000000000000000000000000000000081525060200191505060405180910390fd5b8573ffffffffffffffffffffffffffffffffffffffff166370a08231306040518263ffffffff167c0100000000000000000000000000000000000000000000000000000000028152600401808273ffffffffffffffffffffffffffffffffffffffff1673ffffffffffffffffffffffffffffffffffffffff168152602001915050602060405180830381600087803b158015610bcb57600080fd5b505af1158015610bdf573d6000803e3d6000fd5b505050506040513d6020811015610bf557600080fd5b8101908080519060200190929190505050905084828203141515610c81576040517f08c379a00000000000000000000000000000000000000000000000000000000081526004018080602001828103825260058152602001807f6572726f7200000000000000000000000000000000000000000000000000000081525060200191505060405180910390fd5b50505050505050565b60606000600260003373ffffffffffffffffffffffffffffffffffffffff1673ffffffffffffffffffffffffffffffffffffffff1681526020019081526020016000208054905083101515610d47576040517f08c379a000000000000000000000000000000000000000000000000000000000815260040180806020018281038252600c8152602001807f626164206163636f756e7473000000000000000000000000000000000000000081525060200191505060405180910390fd5b600260003373ffffffffffffffffffffffffffffffffffffffff1673ffffffffffffffffffffffffffffffffffffffff16815260200190815260200160002083815481101515610d9357fe5b9060005260206000209060030201600001600260003373ffffffffffffffffffffffffffffffffffffffff1673ffffffffffffffffffffffffffffffffffffffff16815260200190815260200160002084815481101515610df057fe5b906000526020600020906003020160010154818054600181600116156101000203166002900480601f016020809104026020016040519081016040528092919081815260200182805460018160011615610100020316600290048015610e975780601f10610e6c57610100808354040283529160200191610e97565b820191906000526020600020905b815481529060010190602001808311610e7a57829003601f168201915b5050505050915091509150915091565b600260003373ffffffffffffffffffffffffffffffffffffffff1673ffffffffffffffffffffffffffffffffffffffff1681526020019081526020016000208054905083101515610f60576040517f08c379a000000000000000000000000000000000000000000000000000000000815260040180806020018281038252600c8152602001807f626164206163636f756e7473000000000000000000000000000000000000000081525060200191505060405180910390fd5b8181600260003373ffffffffffffffffffffffffffffffffffffffff1673ffffffffffffffffffffffffffffffffffffffff16815260200190815260200160002085815481101515610fae57fe5b90600052602060002090600302016000019190610fcc929190611e62565b50505050565b6000600260003373ffffffffffffffffffffffffffffffffffffffff1673ffffffffffffffffffffffffffffffffffffffff168152602001908152602001600020805490508310151561108d576040517f08c379a000000000000000000000000000000000000000000000000000000000815260040180806020018281038252600c8152602001807f626164206163636f756e7473000000000000000000000000000000000000000081525060200191505060405180910390fd5b600260003373ffffffffffffffffffffffffffffffffffffffff1673ffffffffffffffffffffffffffffffffffffffff168152602001908152602001600020838154811015156110d957fe5b906000526020600020906003020160020160008373ffffffffffffffffffffffffffffffffffffffff1673ffffffffffffffffffffffffffffffffffffffff16815260200190815260200160002054905092915050565b6000806000806000600260003373ffffffffffffffffffffffffffffffffffffffff1673ffffffffffffffffffffffffffffffffffffffff16815260200190815260200160002080549050881015156111f1576040517f08c379a000000000000000000000000000000000000000000000000000000000815260040180806020018281038252600c8152602001807f626164206163636f756e7473000000000000000000000000000000000000000081525060200191505060405180910390fd5b600260003373ffffffffffffffffffffffffffffffffffffffff1673ffffffffffffffffffffffffffffffffffffffff1681526020019081526020016000208881548110151561123d57fe5b906000526020600020906003020194506001600260003373ffffffffffffffffffffffffffffffffffffffff1673ffffffffffffffffffffffffffffffffffffffff168152602001908152602001600020805490500393508460020160008873ffffffffffffffffffffffffffffffffffffffff1673ffffffffffffffffffffffffffffffffffffffff168152602001908152602001600020549250858310151515611351576040517f08c379a00000000000000000000000000000000000000000000000000000000081526004018080602001828103825260098152602001807f756e646572666c6f77000000000000000000000000000000000000000000000081525060200191505060405180910390fd5b858773ffffffffffffffffffffffffffffffffffffffff166370a08231306040518263ffffffff167c0100000000000000000000000000000000000000000000000000000000028152600401808273ffffffffffffffffffffffffffffffffffffffff1673ffffffffffffffffffffffffffffffffffffffff168152602001915050602060405180830381600087803b1580156113ed57600080fd5b505af1158015611401573d6000803e3d6000fd5b505050506040513d602081101561141757600080fd5b81019080805190602001909291905050501015151561149e576040517f08c379a00000000000000000000000000000000000000000000000000000000081526004018080602001828103825260128152602001807f4e6f7420656e6f7567682062616c616e6365000000000000000000000000000081525060200191505060405180910390fd5b858560020160008973ffffffffffffffffffffffffffffffffffffffff1673ffffffffffffffffffffffffffffffffffffffff1681526020019081526020016000206000828254039250508190555060008560020160008973ffffffffffffffffffffffffffffffffffffffff1673ffffffffffffffffffffffffffffffffffffffff1681526020019081526020016000205414156115b9578460010160008154809291906001900391905055506000856001015414801561155f57508388145b156115b857600260003373ffffffffffffffffffffffffffffffffffffffff1673ffffffffffffffffffffffffffffffffffffffff1681526020019081526020016000208054809190600190036115b69190611e30565b505b5b8673ffffffffffffffffffffffffffffffffffffffff166370a08231336040518263ffffffff167c0100000000000000000000000000000000000000000000000000000000028152600401808273ffffffffffffffffffffffffffffffffffffffff1673ffffffffffffffffffffffffffffffffffffffff168152602001915050602060405180830381600087803b15801561165457600080fd5b505af1158015611668573d6000803e3d6000fd5b505050506040513d602081101561167e57600080fd5b810190808051906020019092919050505091508673ffffffffffffffffffffffffffffffffffffffff1663a9059cbb33886040518363ffffffff167c0100000000000000000000000000000000000000000000000000000000028152600401808373ffffffffffffffffffffffffffffffffffffffff1673ffffffffffffffffffffffffffffffffffffffff16815260200182815260200192505050602060405180830381600087803b15801561173457600080fd5b505af1158015611748573d6000803e3d6000fd5b505050506040513d602081101561175e57600080fd5b810190808051906020019092919050505015156117e3576040517f08c379a000000000000000000000000000000000000000000000000000000000815260040180806020018281038252600f8152602001807f7472616e73666572206661696c6564000000000000000000000000000000000081525060200191505060405180910390fd5b8673ffffffffffffffffffffffffffffffffffffffff166370a08231336040518263ffffffff167c0100000000000000000000000000000000000000000000000000000000028152600401808273ffffffffffffffffffffffffffffffffffffffff1673ffffffffffffffffffffffffffffffffffffffff168152602001915050602060405180830381600087803b15801561187e57600080fd5b505af1158015611892573d6000803e3d6000fd5b505050506040513d60208110156118a857600080fd5b8101908080519060200190929190505050905085828203141515611934576040517f08c379a00000000000000000000000000000000000000000000000000000000081526004018080602001828103825260058152602001807f6572726f7200000000000000000000000000000000000000000000000000000081525060200191505060405180910390fd5b5050505050505050565b600080600260003373ffffffffffffffffffffffffffffffffffffffff1673ffffffffffffffffffffffffffffffffffffffff168152602001908152602001600020805490501115156119f9576040517f08c379a000000000000000000000000000000000000000000000000000000000815260040180806020018281038252600c8152602001807f626164206163636f756e7473000000000000000000000000000000000000000081525060200191505060405180910390fd5b6001600260003373ffffffffffffffffffffffffffffffffffffffff1673ffffffffffffffffffffffffffffffffffffffff168152602001908152602001600020805490500390506000600260003373ffffffffffffffffffffffffffffffffffffffff1673ffffffffffffffffffffffffffffffffffffffff16815260200190815260200160002082815481101515611a8f57fe5b906000526020600020906003020160010154141515611b16576040517f08c379a00000000000000000000000000000000000000000000000000000000081526004018080602001828103825260098152602001807f6e6f6e2d656d707479000000000000000000000000000000000000000000000081525060200191505060405180910390fd5b600260003373ffffffffffffffffffffffffffffffffffffffff1673ffffffffffffffffffffffffffffffffffffffff168152602001908152602001600020805480919060019003611b689190611e30565b5050565b600160009054906101000a900473ffffffffffffffffffffffffffffffffffffffff1673ffffffffffffffffffffffffffffffffffffffff163373ffffffffffffffffffffffffffffffffffffffff16141515611bc857600080fd5b600160009054906101000a900473ffffffffffffffffffffffffffffffffffffffff166000806101000a81548173ffffffffffffffffffffffffffffffffffffffff021916908373ffffffffffffffffffffffffffffffffffffffff1602179055506000600160006101000a81548173ffffffffffffffffffffffffffffffffffffffff021916908373ffffffffffffffffffffffffffffffffffffffff160217905550565b600260205281600052604060002081815481101515611c8957fe5b906000526020600020906003020160009150915050806000018054600181600116156101000203166002900480601f016020809104026020016040519081016040528092919081815260200182805460018160011615610100020316600290048015611d365780601f10611d0b57610100808354040283529160200191611d36565b820191906000526020600020905b815481529060010190602001808311611d1957829003601f168201915b5050505050908060010154905082565b6000809054906101000a900473ffffffffffffffffffffffffffffffffffffffff1681565b600160009054906101000a900473ffffffffffffffffffffffffffffffffffffffff1681565b6000809054906101000a900473ffffffffffffffffffffffffffffffffffffffff1673ffffffffffffffffffffffffffffffffffffffff163373ffffffffffffffffffffffffffffffffffffffff16141515611dec57600080fd5b80600160006101000a81548173ffffffffffffffffffffffffffffffffffffffff021916908373ffffffffffffffffffffffffffffffffffffffff16021790555050565b815481835581811115611e5d57600302816003028360005260206000209182019101611e5c9190611ee2565b5b505050565b828054600181600116156101000203166002900490600052602060002090601f016020900481019282601f10611ea357803560ff1916838001178555611ed1565b82800160010185558215611ed1579182015b82811115611ed0578235825591602001919060010190611eb5565b5b509050611ede9190611f19565b5090565b611f1691905b80821115611f125760008082016000611f019190611f3e565b600182016000905550600301611ee8565b5090565b90565b611f3b91905b80821115611f37576000816000905550600101611f1f565b5090565b90565b50805460018160011615610100020316600290046000825580601f10611f645750611f83565b601f016020900490600052602060002090810190611f829190611f19565b5b505600a165627a7a72305820f23318f57f74459b3353a8a7cb2a0a5c044d70626d484580aafeb8bf86f5764b0029",
					"opcodes": "PUSH1 0x80 PUSH1 0x40 MSTORE CALLVALUE DUP1 ISZERO PUSH2 0x10 JUMPI PUSH1 0x0 DUP1 REVERT JUMPDEST POP CALLER PUSH1 0x0 DUP1 PUSH2 0x100 EXP DUP2 SLOAD DUP2 PUSH20 0xFFFFFFFFFFFFFFFFFFFFFFFFFFFFFFFFFFFFFFFF MUL NOT AND SWAP1 DUP4 PUSH20 0xFFFFFFFFFFFFFFFFFFFFFFFFFFFFFFFFFFFFFFFF AND MUL OR SWAP1 SSTORE POP PUSH2 0x1FB2 DUP1 PUSH2 0x60 PUSH1 0x0 CODECOPY PUSH1 0x0 RETURN STOP PUSH1 0x80 PUSH1 0x40 MSTORE PUSH1 0x4 CALLDATASIZE LT PUSH2 0xAF JUMPI PUSH1 0x0 CALLDATALOAD PUSH29 0x100000000000000000000000000000000000000000000000000000000 SWAP1 DIV PUSH4 0xFFFFFFFF AND DUP1 PUSH4 0xA9306D7 EQ PUSH2 0xB4 JUMPI DUP1 PUSH4 0x3B561AFC EQ PUSH2 0x10B JUMPI DUP1 PUSH4 0x5E46BF8D EQ PUSH2 0x1B8 JUMPI DUP1 PUSH4 0x5E81300A EQ PUSH2 0x1FD JUMPI DUP1 PUSH4 0x68A6773B EQ PUSH2 0x25E JUMPI DUP1 PUSH4 0x6973D7FA EQ PUSH2 0x2B5 JUMPI DUP1 PUSH4 0x79BA5097 EQ PUSH2 0x2CC JUMPI DUP1 PUSH4 0x87524581 EQ PUSH2 0x2E3 JUMPI DUP1 PUSH4 0x8DA5CB5B EQ PUSH2 0x3B0 JUMPI DUP1 PUSH4 0xE30C3978 EQ PUSH2 0x407 JUMPI DUP1 PUSH4 0xF2FDE38B EQ PUSH2 0x45E JUMPI JUMPDEST PUSH1 0x0 DUP1 REVERT JUMPDEST CALLVALUE DUP1 ISZERO PUSH2 0xC0 JUMPI PUSH1 0x0 DUP1 REVERT JUMPDEST POP PUSH2 0x109 PUSH1 0x4 DUP1 CALLDATASIZE SUB DUP2 ADD SWAP1 DUP1 DUP1 CALLDATALOAD SWAP1 PUSH1 0x20 ADD SWAP1 SWAP3 SWAP2 SWAP1 DUP1 CALLDATALOAD PUSH20 0xFFFFFFFFFFFFFFFFFFFFFFFFFFFFFFFFFFFFFFFF AND SWAP1 PUSH1 0x20 ADD SWAP1 SWAP3 SWAP2 SWAP1 DUP1 CALLDATALOAD SWAP1 PUSH1 0x20 ADD SWAP1 SWAP3 SWAP2 SWAP1 POP POP POP PUSH2 0x4A1 JUMP JUMPDEST STOP JUMPDEST CALLVALUE DUP1 ISZERO PUSH2 0x117 JUMPI PUSH1 0x0 DUP1 REVERT JUMPDEST POP PUSH2 0x136 PUSH1 0x4 DUP1 CALLDATASIZE SUB DUP2 ADD SWAP1 DUP1 DUP1 CALLDATALOAD SWAP1 PUSH1 0x20 ADD SWAP1 SWAP3 SWAP2 SWAP1 POP POP POP PUSH2 0xC8A JUMP JUMPDEST PUSH1 0x40 MLOAD DUP1 DUP1 PUSH1 0x20 ADD DUP4 DUP2 MSTORE PUSH1 0x20 ADD DUP3 DUP2 SUB DUP3 MSTORE DUP5 DUP2 DUP2 MLOAD DUP2 MSTORE PUSH1 0x20 ADD SWAP2 POP DUP1 MLOAD SWAP1 PUSH1 0x20 ADD SWAP1 DUP1 DUP4 DUP4 PUSH1 0x0 JUMPDEST DUP4 DUP2 LT ISZERO PUSH2 0x17C JUMPI DUP1 DUP3 ADD MLOAD DUP2 DUP5 ADD MSTORE PUSH1 0x20 DUP2 ADD SWAP1 POP PUSH2 0x161 JUMP JUMPDEST POP POP POP POP SWAP1 POP SWAP1 DUP2 ADD SWAP1 PUSH1 0x1F AND DUP1 ISZERO PUSH2 0x1A9 JUMPI DUP1 DUP3 SUB DUP1 MLOAD PUSH1 0x1 DUP4 PUSH1 0x20 SUB PUSH2 0x100 EXP SUB NOT AND DUP2 MSTORE PUSH1 0x20 ADD SWAP2 POP JUMPDEST POP SWAP4 POP POP POP POP PUSH1 0x40 MLOAD DUP1 SWAP2 SUB SWAP1 RETURN JUMPDEST CALLVALUE DUP1 ISZERO PUSH2 0x1C4 JUMPI PUSH1 0x0 DUP1 REVERT JUMPDEST POP PUSH2 0x1FB PUSH1 0x4 DUP1 CALLDATASIZE SUB DUP2 ADD SWAP1 DUP1 DUP1 CALLDATALOAD SWAP1 PUSH1 0x20 ADD SWAP1 SWAP3 SWAP2 SWAP1 DUP1 CALLDATALOAD SWAP1 PUSH1 0x20 ADD SWAP1 DUP3 ADD DUP1 CALLDATALOAD SWAP1 PUSH1 0x20 ADD SWAP2 SWAP1 SWAP2 SWAP3 SWAP4 SWAP2 SWAP3 SWAP4 SWAP1 POP POP POP PUSH2 0xEA7 JUMP JUMPDEST STOP JUMPDEST CALLVALUE DUP1 ISZERO PUSH2 0x209 JUMPI PUSH1 0x0 DUP1 REVERT JUMPDEST POP PUSH2 0x248 PUSH1 0x4 DUP1 CALLDATASIZE SUB DUP2 ADD SWAP1 DUP1 DUP1 CALLDATALOAD SWAP1 PUSH1 0x20 ADD SWAP1 SWAP3 SWAP2 SWAP1 DUP1 CALLDATALOAD PUSH20 0xFFFFFFFFFFFFFFFFFFFFFFFFFFFFFFFFFFFFFFFF AND SWAP1 PUSH1 0x20 ADD SWAP1 SWAP3 SWAP2 SWAP1 POP POP POP PUSH2 0xFD2 JUMP JUMPDEST PUSH1 0x40 MLOAD DUP1 DUP3 DUP2 MSTORE PUSH1 0x20 ADD SWAP2 POP POP PUSH1 0x40 MLOAD DUP1 SWAP2 SUB SWAP1 RETURN JUMPDEST CALLVALUE DUP1 ISZERO PUSH2 0x26A JUMPI PUSH1 0x0 DUP1 REVERT JUMPDEST POP PUSH2 0x2B3 PUSH1 0x4 DUP1 CALLDATASIZE SUB DUP2 ADD SWAP1 DUP1 DUP1 CALLDATALOAD SWAP1 PUSH1 0x20 ADD SWAP1 SWAP3 SWAP2 SWAP1 DUP1 CALLDATALOAD PUSH20 0xFFFFFFFFFFFFFFFFFFFFFFFFFFFFFFFFFFFFFFFF AND SWAP1 PUSH1 0x20 ADD SWAP1 SWAP3 SWAP2 SWAP1 DUP1 CALLDATALOAD SWAP1 PUSH1 0x20 ADD SWAP1 SWAP3 SWAP2 SWAP1 POP POP POP PUSH2 0x1130 JUMP JUMPDEST STOP JUMPDEST CALLVALUE DUP1 ISZERO PUSH2 0x2C1 JUMPI PUSH1 0x0 DUP1 REVERT JUMPDEST POP PUSH2 0x2CA PUSH2 0x193E JUMP JUMPDEST STOP JUMPDEST CALLVALUE DUP1 ISZERO PUSH2 0x2D8 JUMPI PUSH1 0x0 DUP1 REVERT JUMPDEST POP PUSH2 0x2E1 PUSH2 0x1B6C JUMP JUMPDEST STOP JUMPDEST CALLVALUE DUP1 ISZERO PUSH2 0x2EF JUMPI PUSH1 0x0 DUP1 REVERT JUMPDEST POP PUSH2 0x32E PUSH1 0x4 DUP1 CALLDATASIZE SUB DUP2 ADD SWAP1 DUP1 DUP1 CALLDATALOAD PUSH20 0xFFFFFFFFFFFFFFFFFFFFFFFFFFFFFFFFFFFFFFFF AND SWAP1 PUSH1 0x20 ADD SWAP1 SWAP3 SWAP2 SWAP1 DUP1 CALLDATALOAD SWAP1 PUSH1 0x20 ADD SWAP1 SWAP3 SWAP2 SWAP1 POP POP POP PUSH2 0x1C6E JUMP JUMPDEST PUSH1 0x40 MLOAD DUP1 DUP1 PUSH1 0x20 ADD DUP4 DUP2 MSTORE PUSH1 0x20 ADD DUP3 DUP2 SUB DUP3 MSTORE DUP5 DUP2 DUP2 MLOAD DUP2 MSTORE PUSH1 0x20 ADD SWAP2 POP DUP1 MLOAD SWAP1 PUSH1 0x20 ADD SWAP1 DUP1 DUP4 DUP4 PUSH1 0x0 JUMPDEST DUP4 DUP2 LT ISZERO PUSH2 0x374 JUMPI DUP1 DUP3 ADD MLOAD DUP2 DUP5 ADD MSTORE PUSH1 0x20 DUP2 ADD SWAP1 POP PUSH2 0x359 JUMP JUMPDEST POP POP POP POP SWAP1 POP SWAP1 DUP2 ADD SWAP1 PUSH1 0x1F AND DUP1 ISZERO PUSH2 0x3A1 JUMPI DUP1 DUP3 SUB DUP1 MLOAD PUSH1 0x1 DUP4 PUSH1 0x20 SUB PUSH2 0x100 EXP SUB NOT AND DUP2 MSTORE PUSH1 0x20 ADD SWAP2 POP JUMPDEST POP SWAP4 POP POP POP POP PUSH1 0x40 MLOAD DUP1 SWAP2 SUB SWAP1 RETURN JUMPDEST CALLVALUE DUP1 ISZERO PUSH2 0x3BC JUMPI PUSH1 0x0 DUP1 REVERT JUMPDEST POP PUSH2 0x3C5 PUSH2 0x1D46 JUMP JUMPDEST PUSH1 0x40 MLOAD DUP1 DUP3 PUSH20 0xFFFFFFFFFFFFFFFFFFFFFFFFFFFFFFFFFFFFFFFF AND PUSH20 0xFFFFFFFFFFFFFFFFFFFFFFFFFFFFFFFFFFFFFFFF AND DUP2 MSTORE PUSH1 0x20 ADD SWAP2 POP POP PUSH1 0x40 MLOAD DUP1 SWAP2 SUB SWAP1 RETURN JUMPDEST CALLVALUE DUP1 ISZERO PUSH2 0x413 JUMPI PUSH1 0x0 DUP1 REVERT JUMPDEST POP PUSH2 0x41C PUSH2 0x1D6B JUMP JUMPDEST PUSH1 0x40 MLOAD DUP1 DUP3 PUSH20 0xFFFFFFFFFFFFFFFFFFFFFFFFFFFFFFFFFFFFFFFF AND PUSH20 0xFFFFFFFFFFFFFFFFFFFFFFFFFFFFFFFFFFFFFFFF AND DUP2 MSTORE PUSH1 0x20 ADD SWAP2 POP POP PUSH1 0x40 MLOAD DUP1 SWAP2 SUB SWAP1 RETURN JUMPDEST CALLVALUE DUP1 ISZERO PUSH2 0x46A JUMPI PUSH1 0x0 DUP1 REVERT JUMPDEST POP PUSH2 0x49F PUSH1 0x4 DUP1 CALLDATASIZE SUB DUP2 ADD SWAP1 DUP1 DUP1 CALLDATALOAD PUSH20 0xFFFFFFFFFFFFFFFFFFFFFFFFFFFFFFFFFFFFFFFF AND SWAP1 PUSH1 0x20 ADD SWAP1 SWAP3 SWAP2 SWAP1 POP POP POP PUSH2 0x1D91 JUMP JUMPDEST STOP JUMPDEST PUSH1 0x0 DUP1 PUSH1 0x0 DUP1 PUSH1 0x2 PUSH1 0x0 CALLER PUSH20 0xFFFFFFFFFFFFFFFFFFFFFFFFFFFFFFFFFFFFFFFF AND PUSH20 0xFFFFFFFFFFFFFFFFFFFFFFFFFFFFFFFFFFFFFFFF AND DUP2 MSTORE PUSH1 0x20 ADD SWAP1 DUP2 MSTORE PUSH1 0x20 ADD PUSH1 0x0 KECCAK256 DUP1 SLOAD SWAP1 POP DUP8 GT ISZERO ISZERO ISZERO PUSH2 0x561 JUMPI PUSH1 0x40 MLOAD PUSH32 0x8C379A000000000000000000000000000000000000000000000000000000000 DUP2 MSTORE PUSH1 0x4 ADD DUP1 DUP1 PUSH1 0x20 ADD DUP3 DUP2 SUB DUP3 MSTORE PUSH1 0xB DUP2 MSTORE PUSH1 0x20 ADD DUP1 PUSH32 0x626164206163636F756E74000000000000000000000000000000000000000000 DUP2 MSTORE POP PUSH1 0x20 ADD SWAP2 POP POP PUSH1 0x40 MLOAD DUP1 SWAP2 SUB SWAP1 REVERT JUMPDEST PUSH1 0x2 PUSH1 0x0 CALLER PUSH20 0xFFFFFFFFFFFFFFFFFFFFFFFFFFFFFFFFFFFFFFFF AND PUSH20 0xFFFFFFFFFFFFFFFFFFFFFFFFFFFFFFFFFFFFFFFF AND DUP2 MSTORE PUSH1 0x20 ADD SWAP1 DUP2 MSTORE PUSH1 0x20 ADD PUSH1 0x0 KECCAK256 DUP1 SLOAD SWAP1 POP DUP8 EQ ISZERO PUSH2 0x5FE JUMPI PUSH1 0x2 PUSH1 0x0 CALLER PUSH20 0xFFFFFFFFFFFFFFFFFFFFFFFFFFFFFFFFFFFFFFFF AND PUSH20 0xFFFFFFFFFFFFFFFFFFFFFFFFFFFFFFFFFFFFFFFF AND DUP2 MSTORE PUSH1 0x20 ADD SWAP1 DUP2 MSTORE PUSH1 0x20 ADD PUSH1 0x0 KECCAK256 DUP1 SLOAD DUP1 SWAP2 SWAP1 PUSH1 0x1 ADD PUSH2 0x5FC SWAP2 SWAP1 PUSH2 0x1E30 JUMP JUMPDEST POP JUMPDEST PUSH1 0x2 PUSH1 0x0 CALLER PUSH20 0xFFFFFFFFFFFFFFFFFFFFFFFFFFFFFFFFFFFFFFFF AND PUSH20 0xFFFFFFFFFFFFFFFFFFFFFFFFFFFFFFFFFFFFFFFF AND DUP2 MSTORE PUSH1 0x20 ADD SWAP1 DUP2 MSTORE PUSH1 0x20 ADD PUSH1 0x0 KECCAK256 DUP8 DUP2 SLOAD DUP2 LT ISZERO ISZERO PUSH2 0x64A JUMPI INVALID JUMPDEST SWAP1 PUSH1 0x0 MSTORE PUSH1 0x20 PUSH1 0x0 KECCAK256 SWAP1 PUSH1 0x3 MUL ADD SWAP4 POP DUP4 PUSH1 0x2 ADD PUSH1 0x0 DUP8 PUSH20 0xFFFFFFFFFFFFFFFFFFFFFFFFFFFFFFFFFFFFFFFF AND PUSH20 0xFFFFFFFFFFFFFFFFFFFFFFFFFFFFFFFFFFFFFFFF AND DUP2 MSTORE PUSH1 0x20 ADD SWAP1 DUP2 MSTORE PUSH1 0x20 ADD PUSH1 0x0 KECCAK256 SLOAD SWAP3 POP DUP3 DUP6 DUP5 ADD LT ISZERO ISZERO ISZERO PUSH2 0x718 JUMPI PUSH1 0x40 MLOAD PUSH32 0x8C379A000000000000000000000000000000000000000000000000000000000 DUP2 MSTORE PUSH1 0x4 ADD DUP1 DUP1 PUSH1 0x20 ADD DUP3 DUP2 SUB DUP3 MSTORE PUSH1 0x8 DUP2 MSTORE PUSH1 0x20 ADD DUP1 PUSH32 0x6F766572666C6F77000000000000000000000000000000000000000000000000 DUP2 MSTORE POP PUSH1 0x20 ADD SWAP2 POP POP PUSH1 0x40 MLOAD DUP1 SWAP2 SUB SWAP1 REVERT JUMPDEST DUP5 DUP7 PUSH20 0xFFFFFFFFFFFFFFFFFFFFFFFFFFFFFFFFFFFFFFFF AND PUSH4 0x70A08231 CALLER PUSH1 0x40 MLOAD DUP3 PUSH4 0xFFFFFFFF AND PUSH29 0x100000000000000000000000000000000000000000000000000000000 MUL DUP2 MSTORE PUSH1 0x4 ADD DUP1 DUP3 PUSH20 0xFFFFFFFFFFFFFFFFFFFFFFFFFFFFFFFFFFFFFFFF AND PUSH20 0xFFFFFFFFFFFFFFFFFFFFFFFFFFFFFFFFFFFFFFFF AND DUP2 MSTORE PUSH1 0x20 ADD SWAP2 POP POP PUSH1 0x20 PUSH1 0x40 MLOAD DUP1 DUP4 SUB DUP2 PUSH1 0x0 DUP8 DUP1 EXTCODESIZE ISZERO DUP1 ISZERO PUSH2 0x7B4 JUMPI PUSH1 0x0 DUP1 REVERT JUMPDEST POP GAS CALL ISZERO DUP1 ISZERO PUSH2 0x7C8 JUMPI RETURNDATASIZE PUSH1 0x0 DUP1 RETURNDATACOPY RETURNDATASIZE PUSH1 0x0 REVERT JUMPDEST POP POP POP POP PUSH1 0x40 MLOAD RETURNDATASIZE PUSH1 0x20 DUP2 LT ISZERO PUSH2 0x7DE JUMPI PUSH1 0x0 DUP1 REVERT JUMPDEST DUP2 ADD SWAP1 DUP1 DUP1 MLOAD SWAP1 PUSH1 0x20 ADD SWAP1 SWAP3 SWAP2 SWAP1 POP POP POP LT ISZERO ISZERO ISZERO PUSH2 0x865 JUMPI PUSH1 0x40 MLOAD PUSH32 0x8C379A000000000000000000000000000000000000000000000000000000000 DUP2 MSTORE PUSH1 0x4 ADD DUP1 DUP1 PUSH1 0x20 ADD DUP3 DUP2 SUB DUP3 MSTORE PUSH1 0x12 DUP2 MSTORE PUSH1 0x20 ADD DUP1 PUSH32 0x4E6F7420656E6F7567682062616C616E63650000000000000000000000000000 DUP2 MSTORE POP PUSH1 0x20 ADD SWAP2 POP POP PUSH1 0x40 MLOAD DUP1 SWAP2 SUB SWAP1 REVERT JUMPDEST PUSH1 0x0 DUP4 EQ ISZERO PUSH2 0x883 JUMPI DUP4 PUSH1 0x1 ADD PUSH1 0x0 DUP2 SLOAD DUP1 SWAP3 SWAP2 SWAP1 PUSH1 0x1 ADD SWAP2 SWAP1 POP SSTORE POP JUMPDEST DUP5 DUP5 PUSH1 0x2 ADD PUSH1 0x0 DUP9 PUSH20 0xFFFFFFFFFFFFFFFFFFFFFFFFFFFFFFFFFFFFFFFF AND PUSH20 0xFFFFFFFFFFFFFFFFFFFFFFFFFFFFFFFFFFFFFFFF AND DUP2 MSTORE PUSH1 0x20 ADD SWAP1 DUP2 MSTORE PUSH1 0x20 ADD PUSH1 0x0 KECCAK256 PUSH1 0x0 DUP3 DUP3 SLOAD ADD SWAP3 POP POP DUP2 SWAP1 SSTORE POP DUP6 PUSH20 0xFFFFFFFFFFFFFFFFFFFFFFFFFFFFFFFFFFFFFFFF AND PUSH4 0x70A08231 ADDRESS PUSH1 0x40 MLOAD DUP3 PUSH4 0xFFFFFFFF AND PUSH29 0x100000000000000000000000000000000000000000000000000000000 MUL DUP2 MSTORE PUSH1 0x4 ADD DUP1 DUP3 PUSH20 0xFFFFFFFFFFFFFFFFFFFFFFFFFFFFFFFFFFFFFFFF AND PUSH20 0xFFFFFFFFFFFFFFFFFFFFFFFFFFFFFFFFFFFFFFFF AND DUP2 MSTORE PUSH1 0x20 ADD SWAP2 POP POP PUSH1 0x20 PUSH1 0x40 MLOAD DUP1 DUP4 SUB DUP2 PUSH1 0x0 DUP8 DUP1 EXTCODESIZE ISZERO DUP1 ISZERO PUSH2 0x96D JUMPI PUSH1 0x0 DUP1 REVERT JUMPDEST POP GAS CALL ISZERO DUP1 ISZERO PUSH2 0x981 JUMPI RETURNDATASIZE PUSH1 0x0 DUP1 RETURNDATACOPY RETURNDATASIZE PUSH1 0x0 REVERT JUMPDEST POP POP POP POP PUSH1 0x40 MLOAD RETURNDATASIZE PUSH1 0x20 DUP2 LT ISZERO PUSH2 0x997 JUMPI PUSH1 0x0 DUP1 REVERT JUMPDEST DUP2 ADD SWAP1 DUP1 DUP1 MLOAD SWAP1 PUSH1 0x20 ADD SWAP1 SWAP3 SWAP2 SWAP1 POP POP POP SWAP2 POP DUP6 PUSH20 0xFFFFFFFFFFFFFFFFFFFFFFFFFFFFFFFFFFFFFFFF AND PUSH4 0x23B872DD CALLER ADDRESS DUP9 PUSH1 0x40 MLOAD DUP5 PUSH4 0xFFFFFFFF AND PUSH29 0x100000000000000000000000000000000000000000000000000000000 MUL DUP2 MSTORE PUSH1 0x4 ADD DUP1 DUP5 PUSH20 0xFFFFFFFFFFFFFFFFFFFFFFFFFFFFFFFFFFFFFFFF AND PUSH20 0xFFFFFFFFFFFFFFFFFFFFFFFFFFFFFFFFFFFFFFFF AND DUP2 MSTORE PUSH1 0x20 ADD DUP4 PUSH20 0xFFFFFFFFFFFFFFFFFFFFFFFFFFFFFFFFFFFFFFFF AND PUSH20 0xFFFFFFFFFFFFFFFFFFFFFFFFFFFFFFFFFFFFFFFF AND DUP2 MSTORE PUSH1 0x20 ADD DUP3 DUP2 MSTORE PUSH1 0x20 ADD SWAP4 POP POP POP POP PUSH1 0x20 PUSH1 0x40 MLOAD DUP1 DUP4 SUB DUP2 PUSH1 0x0 DUP8 DUP1 EXTCODESIZE ISZERO DUP1 ISZERO PUSH2 0xA81 JUMPI PUSH1 0x0 DUP1 REVERT JUMPDEST POP GAS CALL ISZERO DUP1 ISZERO PUSH2 0xA95 JUMPI RETURNDATASIZE PUSH1 0x0 DUP1 RETURNDATACOPY RETURNDATASIZE PUSH1 0x0 REVERT JUMPDEST POP POP POP POP PUSH1 0x40 MLOAD RETURNDATASIZE PUSH1 0x20 DUP2 LT ISZERO PUSH2 0xAAB JUMPI PUSH1 0x0 DUP1 REVERT JUMPDEST DUP2 ADD SWAP1 DUP1 DUP1 MLOAD SWAP1 PUSH1 0x20 ADD SWAP1 SWAP3 SWAP2 SWAP1 POP POP POP ISZERO ISZERO PUSH2 0xB30 JUMPI PUSH1 0x40 MLOAD PUSH32 0x8C379A000000000000000000000000000000000000000000000000000000000 DUP2 MSTORE PUSH1 0x4 ADD DUP1 DUP1 PUSH1 0x20 ADD DUP3 DUP2 SUB DUP3 MSTORE PUSH1 0xF DUP2 MSTORE PUSH1 0x20 ADD DUP1 PUSH32 0x7472616E73666572206661696C65640000000000000000000000000000000000 DUP2 MSTORE POP PUSH1 0x20 ADD SWAP2 POP POP PUSH1 0x40 MLOAD DUP1 SWAP2 SUB SWAP1 REVERT JUMPDEST DUP6 PUSH20 0xFFFFFFFFFFFFFFFFFFFFFFFFFFFFFFFFFFFFFFFF AND PUSH4 0x70A08231 ADDRESS PUSH1 0x40 MLOAD DUP3 PUSH4 0xFFFFFFFF AND PUSH29 0x100000000000000000000000000000000000000000000000000000000 MUL DUP2 MSTORE PUSH1 0x4 ADD DUP1 DUP3 PUSH20 0xFFFFFFFFFFFFFFFFFFFFFFFFFFFFFFFFFFFFFFFF AND PUSH20 0xFFFFFFFFFFFFFFFFFFFFFFFFFFFFFFFFFFFFFFFF AND DUP2 MSTORE PUSH1 0x20 ADD SWAP2 POP POP PUSH1 0x20 PUSH1 0x40 MLOAD DUP1 DUP4 SUB DUP2 PUSH1 0x0 DUP8 DUP1 EXTCODESIZE ISZERO DUP1 ISZERO PUSH2 0xBCB JUMPI PUSH1 0x0 DUP1 REVERT JUMPDEST POP GAS CALL ISZERO DUP1 ISZERO PUSH2 0xBDF JUMPI RETURNDATASIZE PUSH1 0x0 DUP1 RETURNDATACOPY RETURNDATASIZE PUSH1 0x0 REVERT JUMPDEST POP POP POP POP PUSH1 0x40 MLOAD RETURNDATASIZE PUSH1 0x20 DUP2 LT ISZERO PUSH2 0xBF5 JUMPI PUSH1 0x0 DUP1 REVERT JUMPDEST DUP2 ADD SWAP1 DUP1 DUP1 MLOAD SWAP1 PUSH1 0x20 ADD SWAP1 SWAP3 SWAP2 SWAP1 POP POP POP SWAP1 POP DUP5 DUP3 DUP3 SUB EQ ISZERO ISZERO PUSH2 0xC81 JUMPI PUSH1 0x40 MLOAD PUSH32 0x8C379A000000000000000000000000000000000000000000000000000000000 DUP2 MSTORE PUSH1 0x4 ADD DUP1 DUP1 PUSH1 0x20 ADD DUP3 DUP2 SUB DUP3 MSTORE PUSH1 0x5 DUP2 MSTORE PUSH1 0x20 ADD DUP1 PUSH32 0x6572726F72000000000000000000000000000000000000000000000000000000 DUP2 MSTORE POP PUSH1 0x20 ADD SWAP2 POP POP PUSH1 0x40 MLOAD DUP1 SWAP2 SUB SWAP1 REVERT JUMPDEST POP POP POP POP POP POP POP JUMP JUMPDEST PUSH1 0x60 PUSH1 0x0 PUSH1 0x2 PUSH1 0x0 CALLER PUSH20 0xFFFFFFFFFFFFFFFFFFFFFFFFFFFFFFFFFFFFFFFF AND PUSH20 0xFFFFFFFFFFFFFFFFFFFFFFFFFFFFFFFFFFFFFFFF AND DUP2 MSTORE PUSH1 0x20 ADD SWAP1 DUP2 MSTORE PUSH1 0x20 ADD PUSH1 0x0 KECCAK256 DUP1 SLOAD SWAP1 POP DUP4 LT ISZERO ISZERO PUSH2 0xD47 JUMPI PUSH1 0x40 MLOAD PUSH32 0x8C379A000000000000000000000000000000000000000000000000000000000 DUP2 MSTORE PUSH1 0x4 ADD DUP1 DUP1 PUSH1 0x20 ADD DUP3 DUP2 SUB DUP3 MSTORE PUSH1 0xC DUP2 MSTORE PUSH1 0x20 ADD DUP1 PUSH32 0x626164206163636F756E74730000000000000000000000000000000000000000 DUP2 MSTORE POP PUSH1 0x20 ADD SWAP2 POP POP PUSH1 0x40 MLOAD DUP1 SWAP2 SUB SWAP1 REVERT JUMPDEST PUSH1 0x2 PUSH1 0x0 CALLER PUSH20 0xFFFFFFFFFFFFFFFFFFFFFFFFFFFFFFFFFFFFFFFF AND PUSH20 0xFFFFFFFFFFFFFFFFFFFFFFFFFFFFFFFFFFFFFFFF AND DUP2 MSTORE PUSH1 0x20 ADD SWAP1 DUP2 MSTORE PUSH1 0x20 ADD PUSH1 0x0 KECCAK256 DUP4 DUP2 SLOAD DUP2 LT ISZERO ISZERO PUSH2 0xD93 JUMPI INVALID JUMPDEST SWAP1 PUSH1 0x0 MSTORE PUSH1 0x20 PUSH1 0x0 KECCAK256 SWAP1 PUSH1 0x3 MUL ADD PUSH1 0x0 ADD PUSH1 0x2 PUSH1 0x0 CALLER PUSH20 0xFFFFFFFFFFFFFFFFFFFFFFFFFFFFFFFFFFFFFFFF AND PUSH20 0xFFFFFFFFFFFFFFFFFFFFFFFFFFFFFFFFFFFFFFFF AND DUP2 MSTORE PUSH1 0x20 ADD SWAP1 DUP2 MSTORE PUSH1 0x20 ADD PUSH1 0x0 KECCAK256 DUP5 DUP2 SLOAD DUP2 LT ISZERO ISZERO PUSH2 0xDF0 JUMPI INVALID JUMPDEST SWAP1 PUSH1 0x0 MSTORE PUSH1 0x20 PUSH1 0x0 KECCAK256 SWAP1 PUSH1 0x3 MUL ADD PUSH1 0x1 ADD SLOAD DUP2 DUP1 SLOAD PUSH1 0x1 DUP2 PUSH1 0x1 AND ISZERO PUSH2 0x100 MUL SUB AND PUSH1 0x2 SWAP1 DIV DUP1 PUSH1 0x1F ADD PUSH1 0x20 DUP1 SWAP2 DIV MUL PUSH1 0x20 ADD PUSH1 0x40 MLOAD SWAP1 DUP2 ADD PUSH1 0x40 MSTORE DUP1 SWAP3 SWAP2 SWAP1 DUP2 DUP2 MSTORE PUSH1 0x20 ADD DUP3 DUP1 SLOAD PUSH1 0x1 DUP2 PUSH1 0x1 AND ISZERO PUSH2 0x100 MUL SUB AND PUSH1 0x2 SWAP1 DIV DUP1 ISZERO PUSH2 0xE97 JUMPI DUP1 PUSH1 0x1F LT PUSH2 0xE6C JUMPI PUSH2 0x100 DUP1 DUP4 SLOAD DIV MUL DUP4 MSTORE SWAP2 PUSH1 0x20 ADD SWAP2 PUSH2 0xE97 JUMP JUMPDEST DUP3 ADD SWAP2 SWAP1 PUSH1 0x0 MSTORE PUSH1 0x20 PUSH1 0x0 KECCAK256 SWAP1 JUMPDEST DUP2 SLOAD DUP2 MSTORE SWAP1 PUSH1 0x1 ADD SWAP1 PUSH1 0x20 ADD DUP1 DUP4 GT PUSH2 0xE7A JUMPI DUP3 SWAP1 SUB PUSH1 0x1F AND DUP3 ADD SWAP2 JUMPDEST POP POP POP POP POP SWAP2 POP SWAP2 POP SWAP2 POP SWAP2 POP SWAP2 JUMP JUMPDEST PUSH1 0x2 PUSH1 0x0 CALLER PUSH20 0xFFFFFFFFFFFFFFFFFFFFFFFFFFFFFFFFFFFFFFFF AND PUSH20 0xFFFFFFFFFFFFFFFFFFFFFFFFFFFFFFFFFFFFFFFF AND DUP2 MSTORE PUSH1 0x20 ADD SWAP1 DUP2 MSTORE PUSH1 0x20 ADD PUSH1 0x0 KECCAK256 DUP1 SLOAD SWAP1 POP DUP4 LT ISZERO ISZERO PUSH2 0xF60 JUMPI PUSH1 0x40 MLOAD PUSH32 0x8C379A000000000000000000000000000000000000000000000000000000000 DUP2 MSTORE PUSH1 0x4 ADD DUP1 DUP1 PUSH1 0x20 ADD DUP3 DUP2 SUB DUP3 MSTORE PUSH1 0xC DUP2 MSTORE PUSH1 0x20 ADD DUP1 PUSH32 0x626164206163636F756E74730000000000000000000000000000000000000000 DUP2 MSTORE POP PUSH1 0x20 ADD SWAP2 POP POP PUSH1 0x40 MLOAD DUP1 SWAP2 SUB SWAP1 REVERT JUMPDEST DUP2 DUP2 PUSH1 0x2 PUSH1 0x0 CALLER PUSH20 0xFFFFFFFFFFFFFFFFFFFFFFFFFFFFFFFFFFFFFFFF AND PUSH20 0xFFFFFFFFFFFFFFFFFFFFFFFFFFFFFFFFFFFFFFFF AND DUP2 MSTORE PUSH1 0x20 ADD SWAP1 DUP2 MSTORE PUSH1 0x20 ADD PUSH1 0x0 KECCAK256 DUP6 DUP2 SLOAD DUP2 LT ISZERO ISZERO PUSH2 0xFAE JUMPI INVALID JUMPDEST SWAP1 PUSH1 0x0 MSTORE PUSH1 0x20 PUSH1 0x0 KECCAK256 SWAP1 PUSH1 0x3 MUL ADD PUSH1 0x0 ADD SWAP2 SWAP1 PUSH2 0xFCC SWAP3 SWAP2 SWAP1 PUSH2 0x1E62 JUMP JUMPDEST POP POP POP POP JUMP JUMPDEST PUSH1 0x0 PUSH1 0x2 PUSH1 0x0 CALLER PUSH20 0xFFFFFFFFFFFFFFFFFFFFFFFFFFFFFFFFFFFFFFFF AND PUSH20 0xFFFFFFFFFFFFFFFFFFFFFFFFFFFFFFFFFFFFFFFF AND DUP2 MSTORE PUSH1 0x20 ADD SWAP1 DUP2 MSTORE PUSH1 0x20 ADD PUSH1 0x0 KECCAK256 DUP1 SLOAD SWAP1 POP DUP4 LT ISZERO ISZERO PUSH2 0x108D JUMPI PUSH1 0x40 MLOAD PUSH32 0x8C379A000000000000000000000000000000000000000000000000000000000 DUP2 MSTORE PUSH1 0x4 ADD DUP1 DUP1 PUSH1 0x20 ADD DUP3 DUP2 SUB DUP3 MSTORE PUSH1 0xC DUP2 MSTORE PUSH1 0x20 ADD DUP1 PUSH32 0x626164206163636F756E74730000000000000000000000000000000000000000 DUP2 MSTORE POP PUSH1 0x20 ADD SWAP2 POP POP PUSH1 0x40 MLOAD DUP1 SWAP2 SUB SWAP1 REVERT JUMPDEST PUSH1 0x2 PUSH1 0x0 CALLER PUSH20 0xFFFFFFFFFFFFFFFFFFFFFFFFFFFFFFFFFFFFFFFF AND PUSH20 0xFFFFFFFFFFFFFFFFFFFFFFFFFFFFFFFFFFFFFFFF AND DUP2 MSTORE PUSH1 0x20 ADD SWAP1 DUP2 MSTORE PUSH1 0x20 ADD PUSH1 0x0 KECCAK256 DUP4 DUP2 SLOAD DUP2 LT ISZERO ISZERO PUSH2 0x10D9 JUMPI INVALID JUMPDEST SWAP1 PUSH1 0x0 MSTORE PUSH1 0x20 PUSH1 0x0 KECCAK256 SWAP1 PUSH1 0x3 MUL ADD PUSH1 0x2 ADD PUSH1 0x0 DUP4 PUSH20 0xFFFFFFFFFFFFFFFFFFFFFFFFFFFFFFFFFFFFFFFF AND PUSH20 0xFFFFFFFFFFFFFFFFFFFFFFFFFFFFFFFFFFFFFFFF AND DUP2 MSTORE PUSH1 0x20 ADD SWAP1 DUP2 MSTORE PUSH1 0x20 ADD PUSH1 0x0 KECCAK256 SLOAD SWAP1 POP SWAP3 SWAP2 POP POP JUMP JUMPDEST PUSH1 0x0 DUP1 PUSH1 0x0 DUP1 PUSH1 0x0 PUSH1 0x2 PUSH1 0x0 CALLER PUSH20 0xFFFFFFFFFFFFFFFFFFFFFFFFFFFFFFFFFFFFFFFF AND PUSH20 0xFFFFFFFFFFFFFFFFFFFFFFFFFFFFFFFFFFFFFFFF AND DUP2 MSTORE PUSH1 0x20 ADD SWAP1 DUP2 MSTORE PUSH1 0x20 ADD PUSH1 0x0 KECCAK256 DUP1 SLOAD SWAP1 POP DUP9 LT ISZERO ISZERO PUSH2 0x11F1 JUMPI PUSH1 0x40 MLOAD PUSH32 0x8C379A000000000000000000000000000000000000000000000000000000000 DUP2 MSTORE PUSH1 0x4 ADD DUP1 DUP1 PUSH1 0x20 ADD DUP3 DUP2 SUB DUP3 MSTORE PUSH1 0xC DUP2 MSTORE PUSH1 0x20 ADD DUP1 PUSH32 0x626164206163636F756E74730000000000000000000000000000000000000000 DUP2 MSTORE POP PUSH1 0x20 ADD SWAP2 POP POP PUSH1 0x40 MLOAD DUP1 SWAP2 SUB SWAP1 REVERT JUMPDEST PUSH1 0x2 PUSH1 0x0 CALLER PUSH20 0xFFFFFFFFFFFFFFFFFFFFFFFFFFFFFFFFFFFFFFFF AND PUSH20 0xFFFFFFFFFFFFFFFFFFFFFFFFFFFFFFFFFFFFFFFF AND DUP2 MSTORE PUSH1 0x20 ADD SWAP1 DUP2 MSTORE PUSH1 0x20 ADD PUSH1 0x0 KECCAK256 DUP9 DUP2 SLOAD DUP2 LT ISZERO ISZERO PUSH2 0x123D JUMPI INVALID JUMPDEST SWAP1 PUSH1 0x0 MSTORE PUSH1 0x20 PUSH1 0x0 KECCAK256 SWAP1 PUSH1 0x3 MUL ADD SWAP5 POP PUSH1 0x1 PUSH1 0x2 PUSH1 0x0 CALLER PUSH20 0xFFFFFFFFFFFFFFFFFFFFFFFFFFFFFFFFFFFFFFFF AND PUSH20 0xFFFFFFFFFFFFFFFFFFFFFFFFFFFFFFFFFFFFFFFF AND DUP2 MSTORE PUSH1 0x20 ADD SWAP1 DUP2 MSTORE PUSH1 0x20 ADD PUSH1 0x0 KECCAK256 DUP1 SLOAD SWAP1 POP SUB SWAP4 POP DUP5 PUSH1 0x2 ADD PUSH1 0x0 DUP9 PUSH20 0xFFFFFFFFFFFFFFFFFFFFFFFFFFFFFFFFFFFFFFFF AND PUSH20 0xFFFFFFFFFFFFFFFFFFFFFFFFFFFFFFFFFFFFFFFF AND DUP2 MSTORE PUSH1 0x20 ADD SWAP1 DUP2 MSTORE PUSH1 0x20 ADD PUSH1 0x0 KECCAK256 SLOAD SWAP3 POP DUP6 DUP4 LT ISZERO ISZERO ISZERO PUSH2 0x1351 JUMPI PUSH1 0x40 MLOAD PUSH32 0x8C379A000000000000000000000000000000000000000000000000000000000 DUP2 MSTORE PUSH1 0x4 ADD DUP1 DUP1 PUSH1 0x20 ADD DUP3 DUP2 SUB DUP3 MSTORE PUSH1 0x9 DUP2 MSTORE PUSH1 0x20 ADD DUP1 PUSH32 0x756E646572666C6F770000000000000000000000000000000000000000000000 DUP2 MSTORE POP PUSH1 0x20 ADD SWAP2 POP POP PUSH1 0x40 MLOAD DUP1 SWAP2 SUB SWAP1 REVERT JUMPDEST DUP6 DUP8 PUSH20 0xFFFFFFFFFFFFFFFFFFFFFFFFFFFFFFFFFFFFFFFF AND PUSH4 0x70A08231 ADDRESS PUSH1 0x40 MLOAD DUP3 PUSH4 0xFFFFFFFF AND PUSH29 0x100000000000000000000000000000000000000000000000000000000 MUL DUP2 MSTORE PUSH1 0x4 ADD DUP1 DUP3 PUSH20 0xFFFFFFFFFFFFFFFFFFFFFFFFFFFFFFFFFFFFFFFF AND PUSH20 0xFFFFFFFFFFFFFFFFFFFFFFFFFFFFFFFFFFFFFFFF AND DUP2 MSTORE PUSH1 0x20 ADD SWAP2 POP POP PUSH1 0x20 PUSH1 0x40 MLOAD DUP1 DUP4 SUB DUP2 PUSH1 0x0 DUP8 DUP1 EXTCODESIZE ISZERO DUP1 ISZERO PUSH2 0x13ED JUMPI PUSH1 0x0 DUP1 REVERT JUMPDEST POP GAS CALL ISZERO DUP1 ISZERO PUSH2 0x1401 JUMPI RETURNDATASIZE PUSH1 0x0 DUP1 RETURNDATACOPY RETURNDATASIZE PUSH1 0x0 REVERT JUMPDEST POP POP POP POP PUSH1 0x40 MLOAD RETURNDATASIZE PUSH1 0x20 DUP2 LT ISZERO PUSH2 0x1417 JUMPI PUSH1 0x0 DUP1 REVERT JUMPDEST DUP2 ADD SWAP1 DUP1 DUP1 MLOAD SWAP1 PUSH1 0x20 ADD SWAP1 SWAP3 SWAP2 SWAP1 POP POP POP LT ISZERO ISZERO ISZERO PUSH2 0x149E JUMPI PUSH1 0x40 MLOAD PUSH32 0x8C379A000000000000000000000000000000000000000000000000000000000 DUP2 MSTORE PUSH1 0x4 ADD DUP1 DUP1 PUSH1 0x20 ADD DUP3 DUP2 SUB DUP3 MSTORE PUSH1 0x12 DUP2 MSTORE PUSH1 0x20 ADD DUP1 PUSH32 0x4E6F7420656E6F7567682062616C616E63650000000000000000000000000000 DUP2 MSTORE POP PUSH1 0x20 ADD SWAP2 POP POP PUSH1 0x40 MLOAD DUP1 SWAP2 SUB SWAP1 REVERT JUMPDEST DUP6 DUP6 PUSH1 0x2 ADD PUSH1 0x0 DUP10 PUSH20 0xFFFFFFFFFFFFFFFFFFFFFFFFFFFFFFFFFFFFFFFF AND PUSH20 0xFFFFFFFFFFFFFFFFFFFFFFFFFFFFFFFFFFFFFFFF AND DUP2 MSTORE PUSH1 0x20 ADD SWAP1 DUP2 MSTORE PUSH1 0x20 ADD PUSH1 0x0 KECCAK256 PUSH1 0x0 DUP3 DUP3 SLOAD SUB SWAP3 POP POP DUP2 SWAP1 SSTORE POP PUSH1 0x0 DUP6 PUSH1 0x2 ADD PUSH1 0x0 DUP10 PUSH20 0xFFFFFFFFFFFFFFFFFFFFFFFFFFFFFFFFFFFFFFFF AND PUSH20 0xFFFFFFFFFFFFFFFFFFFFFFFFFFFFFFFFFFFFFFFF AND DUP2 MSTORE PUSH1 0x20 ADD SWAP1 DUP2 MSTORE PUSH1 0x20 ADD PUSH1 0x0 KECCAK256 SLOAD EQ ISZERO PUSH2 0x15B9 JUMPI DUP5 PUSH1 0x1 ADD PUSH1 0x0 DUP2 SLOAD DUP1 SWAP3 SWAP2 SWAP1 PUSH1 0x1 SWAP1 SUB SWAP2 SWAP1 POP SSTORE POP PUSH1 0x0 DUP6 PUSH1 0x1 ADD SLOAD EQ DUP1 ISZERO PUSH2 0x155F JUMPI POP DUP4 DUP9 EQ JUMPDEST ISZERO PUSH2 0x15B8 JUMPI PUSH1 0x2 PUSH1 0x0 CALLER PUSH20 0xFFFFFFFFFFFFFFFFFFFFFFFFFFFFFFFFFFFFFFFF AND PUSH20 0xFFFFFFFFFFFFFFFFFFFFFFFFFFFFFFFFFFFFFFFF AND DUP2 MSTORE PUSH1 0x20 ADD SWAP1 DUP2 MSTORE PUSH1 0x20 ADD PUSH1 0x0 KECCAK256 DUP1 SLOAD DUP1 SWAP2 SWAP1 PUSH1 0x1 SWAP1 SUB PUSH2 0x15B6 SWAP2 SWAP1 PUSH2 0x1E30 JUMP JUMPDEST POP JUMPDEST JUMPDEST DUP7 PUSH20 0xFFFFFFFFFFFFFFFFFFFFFFFFFFFFFFFFFFFFFFFF AND PUSH4 0x70A08231 CALLER PUSH1 0x40 MLOAD DUP3 PUSH4 0xFFFFFFFF AND PUSH29 0x100000000000000000000000000000000000000000000000000000000 MUL DUP2 MSTORE PUSH1 0x4 ADD DUP1 DUP3 PUSH20 0xFFFFFFFFFFFFFFFFFFFFFFFFFFFFFFFFFFFFFFFF AND PUSH20 0xFFFFFFFFFFFFFFFFFFFFFFFFFFFFFFFFFFFFFFFF AND DUP2 MSTORE PUSH1 0x20 ADD SWAP2 POP POP PUSH1 0x20 PUSH1 0x40 MLOAD DUP1 DUP4 SUB DUP2 PUSH1 0x0 DUP8 DUP1 EXTCODESIZE ISZERO DUP1 ISZERO PUSH2 0x1654 JUMPI PUSH1 0x0 DUP1 REVERT JUMPDEST POP GAS CALL ISZERO DUP1 ISZERO PUSH2 0x1668 JUMPI RETURNDATASIZE PUSH1 0x0 DUP1 RETURNDATACOPY RETURNDATASIZE PUSH1 0x0 REVERT JUMPDEST POP POP POP POP PUSH1 0x40 MLOAD RETURNDATASIZE PUSH1 0x20 DUP2 LT ISZERO PUSH2 0x167E JUMPI PUSH1 0x0 DUP1 REVERT JUMPDEST DUP2 ADD SWAP1 DUP1 DUP1 MLOAD SWAP1 PUSH1 0x20 ADD SWAP1 SWAP3 SWAP2 SWAP1 POP POP POP SWAP2 POP DUP7 PUSH20 0xFFFFFFFFFFFFFFFFFFFFFFFFFFFFFFFFFFFFFFFF AND PUSH4 0xA9059CBB CALLER DUP9 PUSH1 0x40 MLOAD DUP4 PUSH4 0xFFFFFFFF AND PUSH29 0x100000000000000000000000000000000000000000000000000000000 MUL DUP2 MSTORE PUSH1 0x4 ADD DUP1 DUP4 PUSH20 0xFFFFFFFFFFFFFFFFFFFFFFFFFFFFFFFFFFFFFFFF AND PUSH20 0xFFFFFFFFFFFFFFFFFFFFFFFFFFFFFFFFFFFFFFFF AND DUP2 MSTORE PUSH1 0x20 ADD DUP3 DUP2 MSTORE PUSH1 0x20 ADD SWAP3 POP POP POP PUSH1 0x20 PUSH1 0x40 MLOAD DUP1 DUP4 SUB DUP2 PUSH1 0x0 DUP8 DUP1 EXTCODESIZE ISZERO DUP1 ISZERO PUSH2 0x1734 JUMPI PUSH1 0x0 DUP1 REVERT JUMPDEST POP GAS CALL ISZERO DUP1 ISZERO PUSH2 0x1748 JUMPI RETURNDATASIZE PUSH1 0x0 DUP1 RETURNDATACOPY RETURNDATASIZE PUSH1 0x0 REVERT JUMPDEST POP POP POP POP PUSH1 0x40 MLOAD RETURNDATASIZE PUSH1 0x20 DUP2 LT ISZERO PUSH2 0x175E JUMPI PUSH1 0x0 DUP1 REVERT JUMPDEST DUP2 ADD SWAP1 DUP1 DUP1 MLOAD SWAP1 PUSH1 0x20 ADD SWAP1 SWAP3 SWAP2 SWAP1 POP POP POP ISZERO ISZERO PUSH2 0x17E3 JUMPI PUSH1 0x40 MLOAD PUSH32 0x8C379A000000000000000000000000000000000000000000000000000000000 DUP2 MSTORE PUSH1 0x4 ADD DUP1 DUP1 PUSH1 0x20 ADD DUP3 DUP2 SUB DUP3 MSTORE PUSH1 0xF DUP2 MSTORE PUSH1 0x20 ADD DUP1 PUSH32 0x7472616E73666572206661696C65640000000000000000000000000000000000 DUP2 MSTORE POP PUSH1 0x20 ADD SWAP2 POP POP PUSH1 0x40 MLOAD DUP1 SWAP2 SUB SWAP1 REVERT JUMPDEST DUP7 PUSH20 0xFFFFFFFFFFFFFFFFFFFFFFFFFFFFFFFFFFFFFFFF AND PUSH4 0x70A08231 CALLER PUSH1 0x40 MLOAD DUP3 PUSH4 0xFFFFFFFF AND PUSH29 0x100000000000000000000000000000000000000000000000000000000 MUL DUP2 MSTORE PUSH1 0x4 ADD DUP1 DUP3 PUSH20 0xFFFFFFFFFFFFFFFFFFFFFFFFFFFFFFFFFFFFFFFF AND PUSH20 0xFFFFFFFFFFFFFFFFFFFFFFFFFFFFFFFFFFFFFFFF AND DUP2 MSTORE PUSH1 0x20 ADD SWAP2 POP POP PUSH1 0x20 PUSH1 0x40 MLOAD DUP1 DUP4 SUB DUP2 PUSH1 0x0 DUP8 DUP1 EXTCODESIZE ISZERO DUP1 ISZERO PUSH2 0x187E JUMPI PUSH1 0x0 DUP1 REVERT JUMPDEST POP GAS CALL ISZERO DUP1 ISZERO PUSH2 0x1892 JUMPI RETURNDATASIZE PUSH1 0x0 DUP1 RETURNDATACOPY RETURNDATASIZE PUSH1 0x0 REVERT JUMPDEST POP POP POP POP PUSH1 0x40 MLOAD RETURNDATASIZE PUSH1 0x20 DUP2 LT ISZERO PUSH2 0x18A8 JUMPI PUSH1 0x0 DUP1 REVERT JUMPDEST DUP2 ADD SWAP1 DUP1 DUP1 MLOAD SWAP1 PUSH1 0x20 ADD SWAP1 SWAP3 SWAP2 SWAP1 POP POP POP SWAP1 POP DUP6 DUP3 DUP3 SUB EQ ISZERO ISZERO PUSH2 0x1934 JUMPI PUSH1 0x40 MLOAD PUSH32 0x8C379A000000000000000000000000000000000000000000000000000000000 DUP2 MSTORE PUSH1 0x4 ADD DUP1 DUP1 PUSH1 0x20 ADD DUP3 DUP2 SUB DUP3 MSTORE PUSH1 0x5 DUP2 MSTORE PUSH1 0x20 ADD DUP1 PUSH32 0x6572726F72000000000000000000000000000000000000000000000000000000 DUP2 MSTORE POP PUSH1 0x20 ADD SWAP2 POP POP PUSH1 0x40 MLOAD DUP1 SWAP2 SUB SWAP1 REVERT JUMPDEST POP POP POP POP POP POP POP POP JUMP JUMPDEST PUSH1 0x0 DUP1 PUSH1 0x2 PUSH1 0x0 CALLER PUSH20 0xFFFFFFFFFFFFFFFFFFFFFFFFFFFFFFFFFFFFFFFF AND PUSH20 0xFFFFFFFFFFFFFFFFFFFFFFFFFFFFFFFFFFFFFFFF AND DUP2 MSTORE PUSH1 0x20 ADD SWAP1 DUP2 MSTORE PUSH1 0x20 ADD PUSH1 0x0 KECCAK256 DUP1 SLOAD SWAP1 POP GT ISZERO ISZERO PUSH2 0x19F9 JUMPI PUSH1 0x40 MLOAD PUSH32 0x8C379A000000000000000000000000000000000000000000000000000000000 DUP2 MSTORE PUSH1 0x4 ADD DUP1 DUP1 PUSH1 0x20 ADD DUP3 DUP2 SUB DUP3 MSTORE PUSH1 0xC DUP2 MSTORE PUSH1 0x20 ADD DUP1 PUSH32 0x626164206163636F756E74730000000000000000000000000000000000000000 DUP2 MSTORE POP PUSH1 0x20 ADD SWAP2 POP POP PUSH1 0x40 MLOAD DUP1 SWAP2 SUB SWAP1 REVERT JUMPDEST PUSH1 0x1 PUSH1 0x2 PUSH1 0x0 CALLER PUSH20 0xFFFFFFFFFFFFFFFFFFFFFFFFFFFFFFFFFFFFFFFF AND PUSH20 0xFFFFFFFFFFFFFFFFFFFFFFFFFFFFFFFFFFFFFFFF AND DUP2 MSTORE PUSH1 0x20 ADD SWAP1 DUP2 MSTORE PUSH1 0x20 ADD PUSH1 0x0 KECCAK256 DUP1 SLOAD SWAP1 POP SUB SWAP1 POP PUSH1 0x0 PUSH1 0x2 PUSH1 0x0 CALLER PUSH20 0xFFFFFFFFFFFFFFFFFFFFFFFFFFFFFFFFFFFFFFFF AND PUSH20 0xFFFFFFFFFFFFFFFFFFFFFFFFFFFFFFFFFFFFFFFF AND DUP2 MSTORE PUSH1 0x20 ADD SWAP1 DUP2 MSTORE PUSH1 0x20 ADD PUSH1 0x0 KECCAK256 DUP3 DUP2 SLOAD DUP2 LT ISZERO ISZERO PUSH2 0x1A8F JUMPI INVALID JUMPDEST SWAP1 PUSH1 0x0 MSTORE PUSH1 0x20 PUSH1 0x0 KECCAK256 SWAP1 PUSH1 0x3 MUL ADD PUSH1 0x1 ADD SLOAD EQ ISZERO ISZERO PUSH2 0x1B16 JUMPI PUSH1 0x40 MLOAD PUSH32 0x8C379A000000000000000000000000000000000000000000000000000000000 DUP2 MSTORE PUSH1 0x4 ADD DUP1 DUP1 PUSH1 0x20 ADD DUP3 DUP2 SUB DUP3 MSTORE PUSH1 0x9 DUP2 MSTORE PUSH1 0x20 ADD DUP1 PUSH32 0x6E6F6E2D656D7074790000000000000000000000000000000000000000000000 DUP2 MSTORE POP PUSH1 0x20 ADD SWAP2 POP POP PUSH1 0x40 MLOAD DUP1 SWAP2 SUB SWAP1 REVERT JUMPDEST PUSH1 0x2 PUSH1 0x0 CALLER PUSH20 0xFFFFFFFFFFFFFFFFFFFFFFFFFFFFFFFFFFFFFFFF AND PUSH20 0xFFFFFFFFFFFFFFFFFFFFFFFFFFFFFFFFFFFFFFFF AND DUP2 MSTORE PUSH1 0x20 ADD SWAP1 DUP2 MSTORE PUSH1 0x20 ADD PUSH1 0x0 KECCAK256 DUP1 SLOAD DUP1 SWAP2 SWAP1 PUSH1 0x1 SWAP1 SUB PUSH2 0x1B68 SWAP2 SWAP1 PUSH2 0x1E30 JUMP JUMPDEST POP POP JUMP JUMPDEST PUSH1 0x1 PUSH1 0x0 SWAP1 SLOAD SWAP1 PUSH2 0x100 EXP SWAP1 DIV PUSH20 0xFFFFFFFFFFFFFFFFFFFFFFFFFFFFFFFFFFFFFFFF AND PUSH20 0xFFFFFFFFFFFFFFFFFFFFFFFFFFFFFFFFFFFFFFFF AND CALLER PUSH20 0xFFFFFFFFFFFFFFFFFFFFFFFFFFFFFFFFFFFFFFFF AND EQ ISZERO ISZERO PUSH2 0x1BC8 JUMPI PUSH1 0x0 DUP1 REVERT JUMPDEST PUSH1 0x1 PUSH1 0x0 SWAP1 SLOAD SWAP1 PUSH2 0x100 EXP SWAP1 DIV PUSH20 0xFFFFFFFFFFFFFFFFFFFFFFFFFFFFFFFFFFFFFFFF AND PUSH1 0x0 DUP1 PUSH2 0x100 EXP DUP2 SLOAD DUP2 PUSH20 0xFFFFFFFFFFFFFFFFFFFFFFFFFFFFFFFFFFFFFFFF MUL NOT AND SWAP1 DUP4 PUSH20 0xFFFFFFFFFFFFFFFFFFFFFFFFFFFFFFFFFFFFFFFF AND MUL OR SWAP1 SSTORE POP PUSH1 0x0 PUSH1 0x1 PUSH1 0x0 PUSH2 0x100 EXP DUP2 SLOAD DUP2 PUSH20 0xFFFFFFFFFFFFFFFFFFFFFFFFFFFFFFFFFFFFFFFF MUL NOT AND SWAP1 DUP4 PUSH20 0xFFFFFFFFFFFFFFFFFFFFFFFFFFFFFFFFFFFFFFFF AND MUL OR SWAP1 SSTORE POP JUMP JUMPDEST PUSH1 0x2 PUSH1 0x20 MSTORE DUP2 PUSH1 0x0 MSTORE PUSH1 0x40 PUSH1 0x0 KECCAK256 DUP2 DUP2 SLOAD DUP2 LT ISZERO ISZERO PUSH2 0x1C89 JUMPI INVALID JUMPDEST SWAP1 PUSH1 0x0 MSTORE PUSH1 0x20 PUSH1 0x0 KECCAK256 SWAP1 PUSH1 0x3 MUL ADD PUSH1 0x0 SWAP2 POP SWAP2 POP POP DUP1 PUSH1 0x0 ADD DUP1 SLOAD PUSH1 0x1 DUP2 PUSH1 0x1 AND ISZERO PUSH2 0x100 MUL SUB AND PUSH1 0x2 SWAP1 DIV DUP1 PUSH1 0x1F ADD PUSH1 0x20 DUP1 SWAP2 DIV MUL PUSH1 0x20 ADD PUSH1 0x40 MLOAD SWAP1 DUP2 ADD PUSH1 0x40 MSTORE DUP1 SWAP3 SWAP2 SWAP1 DUP2 DUP2 MSTORE PUSH1 0x20 ADD DUP3 DUP1 SLOAD PUSH1 0x1 DUP2 PUSH1 0x1 AND ISZERO PUSH2 0x100 MUL SUB AND PUSH1 0x2 SWAP1 DIV DUP1 ISZERO PUSH2 0x1D36 JUMPI DUP1 PUSH1 0x1F LT PUSH2 0x1D0B JUMPI PUSH2 0x100 DUP1 DUP4 SLOAD DIV MUL DUP4 MSTORE SWAP2 PUSH1 0x20 ADD SWAP2 PUSH2 0x1D36 JUMP JUMPDEST DUP3 ADD SWAP2 SWAP1 PUSH1 0x0 MSTORE PUSH1 0x20 PUSH1 0x0 KECCAK256 SWAP1 JUMPDEST DUP2 SLOAD DUP2 MSTORE SWAP1 PUSH1 0x1 ADD SWAP1 PUSH1 0x20 ADD DUP1 DUP4 GT PUSH2 0x1D19 JUMPI DUP3 SWAP1 SUB PUSH1 0x1F AND DUP3 ADD SWAP2 JUMPDEST POP POP POP POP POP SWAP1 DUP1 PUSH1 0x1 ADD SLOAD SWAP1 POP DUP3 JUMP JUMPDEST PUSH1 0x0 DUP1 SWAP1 SLOAD SWAP1 PUSH2 0x100 EXP SWAP1 DIV PUSH20 0xFFFFFFFFFFFFFFFFFFFFFFFFFFFFFFFFFFFFFFFF AND DUP2 JUMP JUMPDEST PUSH1 0x1 PUSH1 0x0 SWAP1 SLOAD SWAP1 PUSH2 0x100 EXP SWAP1 DIV PUSH20 0xFFFFFFFFFFFFFFFFFFFFFFFFFFFFFFFFFFFFFFFF AND DUP2 JUMP JUMPDEST PUSH1 0x0 DUP1 SWAP1 SLOAD SWAP1 PUSH2 0x100 EXP SWAP1 DIV PUSH20 0xFFFFFFFFFFFFFFFFFFFFFFFFFFFFFFFFFFFFFFFF AND PUSH20 0xFFFFFFFFFFFFFFFFFFFFFFFFFFFFFFFFFFFFFFFF AND CALLER PUSH20 0xFFFFFFFFFFFFFFFFFFFFFFFFFFFFFFFFFFFFFFFF AND EQ ISZERO ISZERO PUSH2 0x1DEC JUMPI PUSH1 0x0 DUP1 REVERT JUMPDEST DUP1 PUSH1 0x1 PUSH1 0x0 PUSH2 0x100 EXP DUP2 SLOAD DUP2 PUSH20 0xFFFFFFFFFFFFFFFFFFFFFFFFFFFFFFFFFFFFFFFF MUL NOT AND SWAP1 DUP4 PUSH20 0xFFFFFFFFFFFFFFFFFFFFFFFFFFFFFFFFFFFFFFFF AND MUL OR SWAP1 SSTORE POP POP JUMP JUMPDEST DUP2 SLOAD DUP2 DUP4 SSTORE DUP2 DUP2 GT ISZERO PUSH2 0x1E5D JUMPI PUSH1 0x3 MUL DUP2 PUSH1 0x3 MUL DUP4 PUSH1 0x0 MSTORE PUSH1 0x20 PUSH1 0x0 KECCAK256 SWAP2 DUP3 ADD SWAP2 ADD PUSH2 0x1E5C SWAP2 SWAP1 PUSH2 0x1EE2 JUMP JUMPDEST JUMPDEST POP POP POP JUMP JUMPDEST DUP3 DUP1 SLOAD PUSH1 0x1 DUP2 PUSH1 0x1 AND ISZERO PUSH2 0x100 MUL SUB AND PUSH1 0x2 SWAP1 DIV SWAP1 PUSH1 0x0 MSTORE PUSH1 0x20 PUSH1 0x0 KECCAK256 SWAP1 PUSH1 0x1F ADD PUSH1 0x20 SWAP1 DIV DUP2 ADD SWAP3 DUP3 PUSH1 0x1F LT PUSH2 0x1EA3 JUMPI DUP1 CALLDATALOAD PUSH1 0xFF NOT AND DUP4 DUP1 ADD OR DUP6 SSTORE PUSH2 0x1ED1 JUMP JUMPDEST DUP3 DUP1 ADD PUSH1 0x1 ADD DUP6 SSTORE DUP3 ISZERO PUSH2 0x1ED1 JUMPI SWAP2 DUP3 ADD JUMPDEST DUP3 DUP2 GT ISZERO PUSH2 0x1ED0 JUMPI DUP3 CALLDATALOAD DUP3 SSTORE SWAP2 PUSH1 0x20 ADD SWAP2 SWAP1 PUSH1 0x1 ADD SWAP1 PUSH2 0x1EB5 JUMP JUMPDEST JUMPDEST POP SWAP1 POP PUSH2 0x1EDE SWAP2 SWAP1 PUSH2 0x1F19 JUMP JUMPDEST POP SWAP1 JUMP JUMPDEST PUSH2 0x1F16 SWAP2 SWAP1 JUMPDEST DUP1 DUP3 GT ISZERO PUSH2 0x1F12 JUMPI PUSH1 0x0 DUP1 DUP3 ADD PUSH1 0x0 PUSH2 0x1F01 SWAP2 SWAP1 PUSH2 0x1F3E JUMP JUMPDEST PUSH1 0x1 DUP3 ADD PUSH1 0x0 SWAP1 SSTORE POP PUSH1 0x3 ADD PUSH2 0x1EE8 JUMP JUMPDEST POP SWAP1 JUMP JUMPDEST SWAP1 JUMP JUMPDEST PUSH2 0x1F3B SWAP2 SWAP1 JUMPDEST DUP1 DUP3 GT ISZERO PUSH2 0x1F37 JUMPI PUSH1 0x0 DUP2 PUSH1 0x0 SWAP1 SSTORE POP PUSH1 0x1 ADD PUSH2 0x1F1F JUMP JUMPDEST POP SWAP1 JUMP JUMPDEST SWAP1 JUMP JUMPDEST POP DUP1 SLOAD PUSH1 0x1 DUP2 PUSH1 0x1 AND ISZERO PUSH2 0x100 MUL SUB AND PUSH1 0x2 SWAP1 DIV PUSH1 0x0 DUP3 SSTORE DUP1 PUSH1 0x1F LT PUSH2 0x1F64 JUMPI POP PUSH2 0x1F83 JUMP JUMPDEST PUSH1 0x1F ADD PUSH1 0x20 SWAP1 DIV SWAP1 PUSH1 0x0 MSTORE PUSH1 0x20 PUSH1 0x0 KECCAK256 SWAP1 DUP2 ADD SWAP1 PUSH2 0x1F82 SWAP2 SWAP1 PUSH2 0x1F19 JUMP JUMPDEST JUMPDEST POP JUMP STOP LOG1 PUSH6 0x627A7A723058 KECCAK256 CALLCODE CALLER XOR 0xf5 PUSH32 0x74459B3353A8A7CB2A0A5C044D70626D484580AAFEB8BF86F5764B0029000000 "
				},
				"gasEstimates": {
					"creation": {
						"codeDepositCost": "1622800",
						"executionCost": "21967",
						"totalCost": "1644767"
					},
					"external": {
						"acceptOwnership()": "41311",
						"accounts(address,uint256)": "infinite",
						"closeLastAccount()": "infinite",
						"depositToken(uint256,address,uint256)": "infinite",
						"getAccountBalance(uint256,address)": "1372",
						"getAccountInfo(uint256)": "infinite",
						"owner()": "618",
						"pendingOwner()": "640",
						"setAccountName(uint256,string)": "infinite",
						"transferOwnership(address)": "20960",
						"withdrawToken(uint256,address,uint256)": "infinite"
					}
				},
				"methodIdentifiers": {
					"acceptOwnership()": "79ba5097",
					"accounts(address,uint256)": "87524581",
					"closeLastAccount()": "6973d7fa",
					"depositToken(uint256,address,uint256)": "0a9306d7",
					"getAccountBalance(uint256,address)": "5e81300a",
					"getAccountInfo(uint256)": "3b561afc",
					"owner()": "8da5cb5b",
					"pendingOwner()": "e30c3978",
					"setAccountName(uint256,string)": "5e46bf8d",
					"transferOwnership(address)": "f2fde38b",
					"withdrawToken(uint256,address,uint256)": "68a6773b"
				}
			},
			"userdoc": {
				"methods": {}
			}
		}
	}
}