{
	"第3题/FakeWETH.sol": {
		"attack": {
			"abi": [
				{
					"constant": false,
					"inputs": [],
					"name": "att",
					"outputs": [
						{
							"name": "",
							"type": "uint256"
						}
					],
					"payable": false,
					"stateMutability": "nonpayable",
					"type": "function"
				}
			],
			"devdoc": {
				"methods": {}
			},
			"evm": {
				"assembly": "    /* \"第3题/FakeWETH.sol\":1891:2019  contract attack{\r... */\n  mstore(0x40, 0x80)\n  callvalue\n    /* \"--CODEGEN--\":8:17   */\n  dup1\n    /* \"--CODEGEN--\":5:7   */\n  iszero\n  tag_1\n  jumpi\n    /* \"--CODEGEN--\":30:31   */\n  0x0\n    /* \"--CODEGEN--\":27:28   */\n  dup1\n    /* \"--CODEGEN--\":20:32   */\n  revert\n    /* \"--CODEGEN--\":5:7   */\ntag_1:\n    /* \"第3题/FakeWETH.sol\":1891:2019  contract attack{\r... */\n  pop\n  dataSize(sub_0)\n  dup1\n  dataOffset(sub_0)\n  0x0\n  codecopy\n  0x0\n  return\nstop\n\nsub_0: assembly {\n        /* \"第3题/FakeWETH.sol\":1891:2019  contract attack{\r... */\n      mstore(0x40, 0x80)\n      jumpi(tag_1, lt(calldatasize, 0x4))\n      calldataload(0x0)\n      0x100000000000000000000000000000000000000000000000000000000\n      swap1\n      div\n      0xffffffff\n      and\n      dup1\n      0xba36f423\n      eq\n      tag_2\n      jumpi\n    tag_1:\n      0x0\n      dup1\n      revert\n        /* \"第3题/FakeWETH.sol\":1913:2016  function att()public returns(uint256){\r... */\n    tag_2:\n      callvalue\n        /* \"--CODEGEN--\":8:17   */\n      dup1\n        /* \"--CODEGEN--\":5:7   */\n      iszero\n      tag_3\n      jumpi\n        /* \"--CODEGEN--\":30:31   */\n      0x0\n        /* \"--CODEGEN--\":27:28   */\n      dup1\n        /* \"--CODEGEN--\":20:32   */\n      revert\n        /* \"--CODEGEN--\":5:7   */\n    tag_3:\n        /* \"第3题/FakeWETH.sol\":1913:2016  function att()public returns(uint256){\r... */\n      pop\n      tag_4\n      jump(tag_5)\n    tag_4:\n      mload(0x40)\n      dup1\n      dup3\n      dup2\n      mstore\n      0x20\n      add\n      swap2\n      pop\n      pop\n      mload(0x40)\n      dup1\n      swap2\n      sub\n      swap1\n      return\n    tag_5:\n        /* \"第3题/FakeWETH.sol\":1942:1949  uint256 */\n      0x0\n        /* \"第3题/FakeWETH.sol\":2004:2005  3 */\n      0x3\n        /* \"第3题/FakeWETH.sol\":1996:2006  bytes32(3) */\n      0x1\n      mul\n        /* \"第3题/FakeWETH.sol\":1986:2007  keccak256(bytes32(3)) */\n      mload(0x40)\n      dup1\n      dup3\n      not(0x0)\n      and\n      not(0x0)\n      and\n      dup2\n      mstore\n      0x20\n      add\n      swap2\n      pop\n      pop\n      mload(0x40)\n      dup1\n      swap2\n      sub\n      swap1\n      keccak256\n        /* \"第3题/FakeWETH.sol\":1978:2008  uint256(keccak256(bytes32(3))) */\n      0x1\n      swap1\n      div\n        /* \"第3题/FakeWETH.sol\":1968:1977  2**256 -1 */\n      0xffffffffffffffffffffffffffffffffffffffffffffffffffffffffffffffff\n        /* \"第3题/FakeWETH.sol\":1968:2008  2**256 -1-uint256(keccak256(bytes32(3))) */\n      sub\n        /* \"第3题/FakeWETH.sol\":1961:2008  return 2**256 -1-uint256(keccak256(bytes32(3))) */\n      swap1\n      pop\n        /* \"第3题/FakeWETH.sol\":1913:2016  function att()public returns(uint256){\r... */\n      swap1\n      jump\t// out\n\n    auxdata: 0xa165627a7a723058208c2b465e68804aea731e0d37efbd3af5588aa81ddc954b361dd53de1d11ebf620029\n}\n",
				"bytecode": {
					"linkReferences": {},
					"object": "6080604052348015600f57600080fd5b5060e78061001e6000396000f300608060405260043610603f576000357c0100000000000000000000000000000000000000000000000000000000900463ffffffff168063ba36f423146044575b600080fd5b348015604f57600080fd5b506056606c565b6040518082815260200191505060405180910390f35b600060036001026040518082600019166000191681526020019150506040518091039020600190047fffffffffffffffffffffffffffffffffffffffffffffffffffffffffffffffff039050905600a165627a7a723058208c2b465e68804aea731e0d37efbd3af5588aa81ddc954b361dd53de1d11ebf620029",
					"opcodes": "PUSH1 0x80 PUSH1 0x40 MSTORE CALLVALUE DUP1 ISZERO PUSH1 0xF JUMPI PUSH1 0x0 DUP1 REVERT JUMPDEST POP PUSH1 0xE7 DUP1 PUSH2 0x1E PUSH1 0x0 CODECOPY PUSH1 0x0 RETURN STOP PUSH1 0x80 PUSH1 0x40 MSTORE PUSH1 0x4 CALLDATASIZE LT PUSH1 0x3F JUMPI PUSH1 0x0 CALLDATALOAD PUSH29 0x100000000000000000000000000000000000000000000000000000000 SWAP1 DIV PUSH4 0xFFFFFFFF AND DUP1 PUSH4 0xBA36F423 EQ PUSH1 0x44 JUMPI JUMPDEST PUSH1 0x0 DUP1 REVERT JUMPDEST CALLVALUE DUP1 ISZERO PUSH1 0x4F JUMPI PUSH1 0x0 DUP1 REVERT JUMPDEST POP PUSH1 0x56 PUSH1 0x6C JUMP JUMPDEST PUSH1 0x40 MLOAD DUP1 DUP3 DUP2 MSTORE PUSH1 0x20 ADD SWAP2 POP POP PUSH1 0x40 MLOAD DUP1 SWAP2 SUB SWAP1 RETURN JUMPDEST PUSH1 0x0 PUSH1 0x3 PUSH1 0x1 MUL PUSH1 0x40 MLOAD DUP1 DUP3 PUSH1 0x0 NOT AND PUSH1 0x0 NOT AND DUP2 MSTORE PUSH1 0x20 ADD SWAP2 POP POP PUSH1 0x40 MLOAD DUP1 SWAP2 SUB SWAP1 KECCAK256 PUSH1 0x1 SWAP1 DIV PUSH32 0xFFFFFFFFFFFFFFFFFFFFFFFFFFFFFFFFFFFFFFFFFFFFFFFFFFFFFFFFFFFFFFFF SUB SWAP1 POP SWAP1 JUMP STOP LOG1 PUSH6 0x627A7A723058 KECCAK256 DUP13 0x2b 0x46 0x5e PUSH9 0x804AEA731E0D37EFBD GASPRICE 0xf5 PC DUP11 0xa8 SAR 0xdc SWAP6 0x4b CALLDATASIZE SAR 0xd5 RETURNDATASIZE 0xe1 0xd1 0x1e 0xbf PUSH3 0x2900 "
				},
				"gasEstimates": {
					"creation": {
						"codeDepositCost": "46200",
						"executionCost": "99",
						"totalCost": "46299"
					},
					"external": {
						"att()": "330"
					}
				},
				"methodIdentifiers": {
					"att()": "ba36f423"
				}
			},
			"userdoc": {
				"methods": {}
			}
		}
	}
}