{
	"data": {
		"bytecode": {
			"linkReferences": {},
			"object": "60806040526001600760006101000a81548160ff0219169083151502179055506001600760016101000a81548160ff0219169083151502179055503480156200004757600080fd5b506040518060400160405280600881526020017f416c6c20417274730000000000000000000000000000000000000000000000008152506040518060400160405280600281526020017f41410000000000000000000000000000000000000000000000000000000000008152508160009080519060200190620000cc929190620000ee565b508060019080519060200190620000e5929190620000ee565b50505062000203565b828054620000fc906200019e565b90600052602060002090601f0160209004810192826200012057600085556200016c565b82601f106200013b57805160ff19168380011785556200016c565b828001600101855582156200016c579182015b828111156200016b5782518255916020019190600101906200014e565b5b5090506200017b91906200017f565b5090565b5b808211156200019a57600081600090555060010162000180565b5090565b60006002820490506001821680620001b757607f821691505b60208210811415620001ce57620001cd620001d4565b5b50919050565b7f4e487b7100000000000000000000000000000000000000000000000000000000600052602260045260246000fd5b612f8680620002136000396000f3fe608060405234801561001057600080fd5b506004361061012c5760003560e01c806370a08231116100ad578063b88d4fde11610071578063b88d4fde14610345578063c87b56dd14610361578063dac072a914610391578063e985e9c5146103af578063fa391c64146103df5761012c565b806370a082311461029f57806395d89b41146102cf578063a22cb465146102ed578063a2309ff814610309578063b5e37041146103275761012c565b806323b872dd116100f457806323b872dd146101fb57806342842e0e1461021757806342a9155c146102335780634e521de2146102515780636352211e1461026f5761012c565b806301ffc9a71461013157806306fdde0314610161578063081812fc1461017f578063095ea7b3146101af5780631ac4610d146101cb575b600080fd5b61014b60048036038101906101469190612035565b6103fd565b604051610158919061248d565b60405180910390f35b6101696104df565b60405161017691906124a8565b60405180910390f35b6101996004803603810190610194919061208f565b610571565b6040516101a69190612426565b60405180910390f35b6101c960048036038101906101c49190611ff5565b6105b7565b005b6101e560048036038101906101e0919061208f565b6106cf565b6040516101f2919061248d565b60405180910390f35b61021560048036038101906102109190611edf565b61077f565b005b610231600480360381019061022c9190611edf565b6107df565b005b61023b6107ff565b604051610248919061248d565b60405180910390f35b61025961097b565b604051610266919061248d565b60405180910390f35b6102896004803603810190610284919061208f565b61098e565b6040516102969190612426565b60405180910390f35b6102b960048036038101906102b49190611e72565b610a15565b6040516102c6919061270a565b60405180910390f35b6102d7610acd565b6040516102e491906124a8565b60405180910390f35b61030760048036038101906103029190611fb5565b610b5f565b005b610311610b75565b60405161031e919061270a565b60405180910390f35b61032f610b7b565b60405161033c919061248d565b60405180910390f35b61035f600480360381019061035a9190611f32565b610b8e565b005b61037b6004803603810190610376919061208f565b610bf0565b60405161038891906124a8565b60405180910390f35b610399610c58565b6040516103a6919061248d565b60405180910390f35b6103c960048036038101906103c49190611e9f565b610d79565b6040516103d6919061248d565b60405180910390f35b6103e7610e0d565b6040516103f4919061248d565b60405180910390f35b60007f80ac58cd000000000000000000000000000000000000000000000000000000007bffffffffffffffffffffffffffffffffffffffffffffffffffffffff1916827bffffffffffffffffffffffffffffffffffffffffffffffffffffffff191614806104c857507f5b5e139f000000000000000000000000000000000000000000000000000000007bffffffffffffffffffffffffffffffffffffffffffffffffffffffff1916827bffffffffffffffffffffffffffffffffffffffffffffffffffffffff1916145b806104d857506104d782610e62565b5b9050919050565b6060600080546104ee906128fe565b80601f016020809104026020016040519081016040528092919081815260200182805461051a906128fe565b80156105675780601f1061053c57610100808354040283529160200191610567565b820191906000526020600020905b81548152906001019060200180831161054a57829003601f168201915b5050505050905090565b600061057c82610ecc565b6004600083815260200190815260200160002060009054906101000a900473ffffffffffffffffffffffffffffffffffffffff169050919050565b60006105c28261098e565b90508073ffffffffffffffffffffffffffffffffffffffff168373ffffffffffffffffffffffffffffffffffffffff161415610633576040517f08c379a000000000000000000000000000000000000000000000000000000000815260040161062a9061264a565b60405180910390fd5b8073ffffffffffffffffffffffffffffffffffffffff16610652610f17565b73ffffffffffffffffffffffffffffffffffffffff16148061068157506106808161067b610f17565b610d79565b5b6106c0576040517f08c379a00000000000000000000000000000000000000000000000000000000081526004016106b79061266a565b60405180910390fd5b6106ca8383610f1f565b505050565b6000610120821015610716576040517f08c379a000000000000000000000000000000000000000000000000000000000815260040161070d9061256a565b60405180910390fd5b60005b828110156107755760006107396001600654610fd890919063ffffffff16565b90506107453382610fee565b61075b6001600654610fd890919063ffffffff16565b60068190555050808061076d90612961565b915050610719565b5060019050919050565b61079061078a610f17565b8261100c565b6107cf576040517f08c379a00000000000000000000000000000000000000000000000000000000081526004016107c6906124ea565b60405180910390fd5b6107da8383836110a1565b505050565b6107fa83838360405180602001604052806000815250610b8e565b505050565b6000801515600760009054906101000a900460ff16151514610856576040517f08c379a000000000000000000000000000000000000000000000000000000000815260040161084d906124ca565b60405180910390fd5b60011515600760019054906101000a900460ff161515146108ac576040517f08c379a00000000000000000000000000000000000000000000000000000000081526004016108a39061262a565b60405180910390fd5b60006108d860583373ffffffffffffffffffffffffffffffffffffffff1661139b90919063ffffffff16565b14610918576040517f08c379a000000000000000000000000000000000000000000000000000000000815260040161090f906126ea565b60405180910390fd5b60006109306001600654610fd890919063ffffffff16565b90506109486001600654610fd890919063ffffffff16565b6006819055506109583382610fee565b6000600760016101000a81548160ff021916908315150217905550600191505090565b600760019054906101000a900460ff1681565b60008061099a836113b1565b9050600073ffffffffffffffffffffffffffffffffffffffff168173ffffffffffffffffffffffffffffffffffffffff161415610a0c576040517f08c379a0000000000000000000000000000000000000000000000000000000008152600401610a039061260a565b60405180910390fd5b80915050919050565b60008073ffffffffffffffffffffffffffffffffffffffff168273ffffffffffffffffffffffffffffffffffffffff161415610a86576040517f08c379a0000000000000000000000000000000000000000000000000000000008152600401610a7d906125ca565b60405180910390fd5b600360008373ffffffffffffffffffffffffffffffffffffffff1673ffffffffffffffffffffffffffffffffffffffff168152602001908152602001600020549050919050565b606060018054610adc906128fe565b80601f0160208091040260200160405190810160405280929190818152602001828054610b08906128fe565b8015610b555780601f10610b2a57610100808354040283529160200191610b55565b820191906000526020600020905b815481529060010190602001808311610b3857829003601f168201915b5050505050905090565b610b71610b6a610f17565b83836113ee565b5050565b60065481565b600760009054906101000a900460ff1681565b610b9f610b99610f17565b8361100c565b610bde576040517f08c379a0000000000000000000000000000000000000000000000000000000008152600401610bd5906124ea565b60405180910390fd5b610bea8484848461155b565b50505050565b6060610bfb82610ecc565b6000610c056115b7565b90506000815111610c255760405180602001604052806000815250610c50565b80610c2f846115ce565b604051602001610c40929190612402565b6040516020818303038152906040525b915050919050565b6000600760009054906101000a900460ff16610ca9576040517f08c379a0000000000000000000000000000000000000000000000000000000008152600401610ca09061268a565b60405180910390fd5b6000610cd560583373ffffffffffffffffffffffffffffffffffffffff1661139b90919063ffffffff16565b1415610d16576040517f08c379a0000000000000000000000000000000000000000000000000000000008152600401610d0d906126ca565b60405180910390fd5b6000610d2e6001600654610fd890919063ffffffff16565b9050610d466001600654610fd890919063ffffffff16565b600681905550610d563382610fee565b6000600760006101000a81548160ff021916908315150217905550600191505090565b6000600560008473ffffffffffffffffffffffffffffffffffffffff1673ffffffffffffffffffffffffffffffffffffffff16815260200190815260200160002060008373ffffffffffffffffffffffffffffffffffffffff1673ffffffffffffffffffffffffffffffffffffffff16815260200190815260200160002060009054906101000a900460ff16905092915050565b6000610120610e1b33610a15565b14610e5b576040517f08c379a0000000000000000000000000000000000000000000000000000000008152600401610e52906126aa565b60405180910390fd5b6001905090565b60007f01ffc9a7000000000000000000000000000000000000000000000000000000007bffffffffffffffffffffffffffffffffffffffffffffffffffffffff1916827bffffffffffffffffffffffffffffffffffffffffffffffffffffffff1916149050919050565b610ed5816116a6565b610f14576040517f08c379a0000000000000000000000000000000000000000000000000000000008152600401610f0b9061260a565b60405180910390fd5b50565b600033905090565b816004600083815260200190815260200160002060006101000a81548173ffffffffffffffffffffffffffffffffffffffff021916908373ffffffffffffffffffffffffffffffffffffffff160217905550808273ffffffffffffffffffffffffffffffffffffffff16610f928361098e565b73ffffffffffffffffffffffffffffffffffffffff167f8c5be1e5ebec7d5bd14f71427d1e84f3dd0314c0f7b2291e5b200ac8c7c3b92560405160405180910390a45050565b60008183610fe691906127be565b905092915050565b6110088282604051806020016040528060008152506116e7565b5050565b6000806110188361098e565b90508073ffffffffffffffffffffffffffffffffffffffff168473ffffffffffffffffffffffffffffffffffffffff16148061105a57506110598185610d79565b5b8061109857508373ffffffffffffffffffffffffffffffffffffffff1661108084610571565b73ffffffffffffffffffffffffffffffffffffffff16145b91505092915050565b8273ffffffffffffffffffffffffffffffffffffffff166110c18261098e565b73ffffffffffffffffffffffffffffffffffffffff1614611117576040517f08c379a000000000000000000000000000000000000000000000000000000000815260040161110e9061252a565b60405180910390fd5b600073ffffffffffffffffffffffffffffffffffffffff168273ffffffffffffffffffffffffffffffffffffffff161415611187576040517f08c379a000000000000000000000000000000000000000000000000000000000815260040161117e9061258a565b60405180910390fd5b6111948383836001611742565b8273ffffffffffffffffffffffffffffffffffffffff166111b48261098e565b73ffffffffffffffffffffffffffffffffffffffff161461120a576040517f08c379a00000000000000000000000000000000000000000000000000000000081526004016112019061252a565b60405180910390fd5b6004600082815260200190815260200160002060006101000a81549073ffffffffffffffffffffffffffffffffffffffff02191690556001600360008573ffffffffffffffffffffffffffffffffffffffff1673ffffffffffffffffffffffffffffffffffffffff168152602001908152602001600020600082825403925050819055506001600360008473ffffffffffffffffffffffffffffffffffffffff1673ffffffffffffffffffffffffffffffffffffffff16815260200190815260200160002060008282540192505081905550816002600083815260200190815260200160002060006101000a81548173ffffffffffffffffffffffffffffffffffffffff021916908373ffffffffffffffffffffffffffffffffffffffff160217905550808273ffffffffffffffffffffffffffffffffffffffff168473ffffffffffffffffffffffffffffffffffffffff167fddf252ad1be2c89b69c2b068fc378daa952ba7f163c4a11628f55a4df523b3ef60405160405180910390a46113968383836001611868565b505050565b600081836113a991906129aa565b905092915050565b60006002600083815260200190815260200160002060009054906101000a900473ffffffffffffffffffffffffffffffffffffffff169050919050565b8173ffffffffffffffffffffffffffffffffffffffff168373ffffffffffffffffffffffffffffffffffffffff16141561145d576040517f08c379a0000000000000000000000000000000000000000000000000000000008152600401611454906125aa565b60405180910390fd5b80600560008573ffffffffffffffffffffffffffffffffffffffff1673ffffffffffffffffffffffffffffffffffffffff16815260200190815260200160002060008473ffffffffffffffffffffffffffffffffffffffff1673ffffffffffffffffffffffffffffffffffffffff16815260200190815260200160002060006101000a81548160ff0219169083151502179055508173ffffffffffffffffffffffffffffffffffffffff168373ffffffffffffffffffffffffffffffffffffffff167f17307eab39ab6107e8899845ad3d59bd9653f200f220920489ca2b5937696c318360405161154e919061248d565b60405180910390a3505050565b6115668484846110a1565b6115728484848461186e565b6115b1576040517f08c379a00000000000000000000000000000000000000000000000000000000081526004016115a89061250a565b60405180910390fd5b50505050565b606060405180602001604052806000815250905090565b6060600060016115dd84611a05565b01905060008167ffffffffffffffff8111156115fc576115fb612a68565b5b6040519080825280601f01601f19166020018201604052801561162e5781602001600182028036833780820191505090505b509050600082602001820190505b60011561169b578080600190039150507f3031323334353637383961626364656600000000000000000000000000000000600a86061a8153600a858161168557611684612a0a565b5b04945060008514156116965761169b565b61163c565b819350505050919050565b60008073ffffffffffffffffffffffffffffffffffffffff166116c8836113b1565b73ffffffffffffffffffffffffffffffffffffffff1614159050919050565b6116f18383611b58565b6116fe600084848461186e565b61173d576040517f08c379a00000000000000000000000000000000000000000000000000000000081526004016117349061250a565b60405180910390fd5b505050565b600181111561186257600073ffffffffffffffffffffffffffffffffffffffff168473ffffffffffffffffffffffffffffffffffffffff16146117d65780600360008673ffffffffffffffffffffffffffffffffffffffff1673ffffffffffffffffffffffffffffffffffffffff16815260200190815260200160002060008282546117ce9190612814565b925050819055505b600073ffffffffffffffffffffffffffffffffffffffff168373ffffffffffffffffffffffffffffffffffffffff16146118615780600360008573ffffffffffffffffffffffffffffffffffffffff1673ffffffffffffffffffffffffffffffffffffffff168152602001908152602001600020600082825461185991906127be565b925050819055505b5b50505050565b50505050565b600061188f8473ffffffffffffffffffffffffffffffffffffffff16611d76565b156119f8578373ffffffffffffffffffffffffffffffffffffffff1663150b7a026118b8610f17565b8786866040518563ffffffff1660e01b81526004016118da9493929190612441565b602060405180830381600087803b1580156118f457600080fd5b505af192505050801561192557506040513d601f19601f820116820180604052508101906119229190612062565b60015b6119a8573d8060008114611955576040519150601f19603f3d011682016040523d82523d6000602084013e61195a565b606091505b506000815114156119a0576040517f08c379a00000000000000000000000000000000000000000000000000000000081526004016119979061250a565b60405180910390fd5b805181602001fd5b63150b7a0260e01b7bffffffffffffffffffffffffffffffffffffffffffffffffffffffff1916817bffffffffffffffffffffffffffffffffffffffffffffffffffffffff1916149150506119fd565b600190505b949350505050565b600080600090507a184f03e93ff9f4daa797ed6e38ed64bf6a1f0100000000000000008310611a63577a184f03e93ff9f4daa797ed6e38ed64bf6a1f0100000000000000008381611a5957611a58612a0a565b5b0492506040810190505b6d04ee2d6d415b85acef81000000008310611aa0576d04ee2d6d415b85acef81000000008381611a9657611a95612a0a565b5b0492506020810190505b662386f26fc100008310611acf57662386f26fc100008381611ac557611ac4612a0a565b5b0492506010810190505b6305f5e1008310611af8576305f5e1008381611aee57611aed612a0a565b5b0492506008810190505b6127108310611b1d576127108381611b1357611b12612a0a565b5b0492506004810190505b60648310611b405760648381611b3657611b35612a0a565b5b0492506002810190505b600a8310611b4f576001810190505b80915050919050565b600073ffffffffffffffffffffffffffffffffffffffff168273ffffffffffffffffffffffffffffffffffffffff161415611bc8576040517f08c379a0000000000000000000000000000000000000000000000000000000008152600401611bbf906125ea565b60405180910390fd5b611bd1816116a6565b15611c11576040517f08c379a0000000000000000000000000000000000000000000000000000000008152600401611c089061254a565b60405180910390fd5b611c1f600083836001611742565b611c28816116a6565b15611c68576040517f08c379a0000000000000000000000000000000000000000000000000000000008152600401611c5f9061254a565b60405180910390fd5b6001600360008473ffffffffffffffffffffffffffffffffffffffff1673ffffffffffffffffffffffffffffffffffffffff16815260200190815260200160002060008282540192505081905550816002600083815260200190815260200160002060006101000a81548173ffffffffffffffffffffffffffffffffffffffff021916908373ffffffffffffffffffffffffffffffffffffffff160217905550808273ffffffffffffffffffffffffffffffffffffffff16600073ffffffffffffffffffffffffffffffffffffffff167fddf252ad1be2c89b69c2b068fc378daa952ba7f163c4a11628f55a4df523b3ef60405160405180910390a4611d72600083836001611868565b5050565b6000808273ffffffffffffffffffffffffffffffffffffffff163b119050919050565b6000611dac611da78461274a565b612725565b905082815260208101848484011115611dc857611dc7612a9c565b5b611dd38482856128bc565b509392505050565b600081359050611dea81612ef4565b92915050565b600081359050611dff81612f0b565b92915050565b600081359050611e1481612f22565b92915050565b600081519050611e2981612f22565b92915050565b600082601f830112611e4457611e43612a97565b5b8135611e54848260208601611d99565b91505092915050565b600081359050611e6c81612f39565b92915050565b600060208284031215611e8857611e87612aa6565b5b6000611e9684828501611ddb565b91505092915050565b60008060408385031215611eb657611eb5612aa6565b5b6000611ec485828601611ddb565b9250506020611ed585828601611ddb565b9150509250929050565b600080600060608486031215611ef857611ef7612aa6565b5b6000611f0686828701611ddb565b9350506020611f1786828701611ddb565b9250506040611f2886828701611e5d565b9150509250925092565b60008060008060808587031215611f4c57611f4b612aa6565b5b6000611f5a87828801611ddb565b9450506020611f6b87828801611ddb565b9350506040611f7c87828801611e5d565b925050606085013567ffffffffffffffff811115611f9d57611f9c612aa1565b5b611fa987828801611e2f565b91505092959194509250565b60008060408385031215611fcc57611fcb612aa6565b5b6000611fda85828601611ddb565b9250506020611feb85828601611df0565b9150509250929050565b6000806040838503121561200c5761200b612aa6565b5b600061201a85828601611ddb565b925050602061202b85828601611e5d565b9150509250929050565b60006020828403121561204b5761204a612aa6565b5b600061205984828501611e05565b91505092915050565b60006020828403121561207857612077612aa6565b5b600061208684828501611e1a565b91505092915050565b6000602082840312156120a5576120a4612aa6565b5b60006120b384828501611e5d565b91505092915050565b6120c581612848565b82525050565b6120d48161285a565b82525050565b60006120e58261277b565b6120ef8185612791565b93506120ff8185602086016128cb565b61210881612aab565b840191505092915050565b600061211e82612786565b61212881856127a2565b93506121388185602086016128cb565b61214181612aab565b840191505092915050565b600061215782612786565b61216181856127b3565b93506121718185602086016128cb565b80840191505092915050565b600061218a600b836127a2565b915061219582612abc565b602082019050919050565b60006121ad602d836127a2565b91506121b882612ae5565b604082019050919050565b60006121d06032836127a2565b91506121db82612b34565b604082019050919050565b60006121f36025836127a2565b91506121fe82612b83565b604082019050919050565b6000612216601c836127a2565b915061222182612bd2565b602082019050919050565b60006122396023836127a2565b915061224482612bfb565b604082019050919050565b600061225c6024836127a2565b915061226782612c4a565b604082019050919050565b600061227f6019836127a2565b915061228a82612c99565b602082019050919050565b60006122a26029836127a2565b91506122ad82612cc2565b604082019050919050565b60006122c56020836127a2565b91506122d082612d11565b602082019050919050565b60006122e86018836127a2565b91506122f382612d3a565b602082019050919050565b600061230b600c836127a2565b915061231682612d63565b602082019050919050565b600061232e6021836127a2565b915061233982612d8c565b604082019050919050565b6000612351603d836127a2565b915061235c82612ddb565b604082019050919050565b6000612374600b836127a2565b915061237f82612e2a565b602082019050919050565b60006123976036836127a2565b91506123a282612e53565b604082019050919050565b60006123ba600a836127a2565b91506123c582612ea2565b602082019050919050565b60006123dd600b836127a2565b91506123e882612ecb565b602082019050919050565b6123fc816128b2565b82525050565b600061240e828561214c565b915061241a828461214c565b91508190509392505050565b600060208201905061243b60008301846120bc565b92915050565b600060808201905061245660008301876120bc565b61246360208301866120bc565b61247060408301856123f3565b818103606083015261248281846120da565b905095945050505050565b60006020820190506124a260008301846120cb565b92915050565b600060208201905081810360008301526124c28184612113565b905092915050565b600060208201905081810360008301526124e38161217d565b9050919050565b60006020820190508181036000830152612503816121a0565b9050919050565b60006020820190508181036000830152612523816121c3565b9050919050565b60006020820190508181036000830152612543816121e6565b9050919050565b6000602082019050818103600083015261256381612209565b9050919050565b600060208201905081810360008301526125838161222c565b9050919050565b600060208201905081810360008301526125a38161224f565b9050919050565b600060208201905081810360008301526125c381612272565b9050919050565b600060208201905081810360008301526125e381612295565b9050919050565b60006020820190508181036000830152612603816122b8565b9050919050565b60006020820190508181036000830152612623816122db565b9050919050565b60006020820190508181036000830152612643816122fe565b9050919050565b6000602082019050818103600083015261266381612321565b9050919050565b6000602082019050818103600083015261268381612344565b9050919050565b600060208201905081810360008301526126a381612367565b9050919050565b600060208201905081810360008301526126c38161238a565b9050919050565b600060208201905081810360008301526126e3816123ad565b9050919050565b60006020820190508181036000830152612703816123d0565b9050919050565b600060208201905061271f60008301846123f3565b92915050565b600061272f612740565b905061273b8282612930565b919050565b6000604051905090565b600067ffffffffffffffff82111561276557612764612a68565b5b61276e82612aab565b9050602081019050919050565b600081519050919050565b600081519050919050565b600082825260208201905092915050565b600082825260208201905092915050565b600081905092915050565b60006127c9826128b2565b91506127d4836128b2565b9250827fffffffffffffffffffffffffffffffffffffffffffffffffffffffffffffffff03821115612809576128086129db565b5b828201905092915050565b600061281f826128b2565b915061282a836128b2565b92508282101561283d5761283c6129db565b5b828203905092915050565b600061285382612892565b9050919050565b60008115159050919050565b60007fffffffff0000000000000000000000000000000000000000000000000000000082169050919050565b600073ffffffffffffffffffffffffffffffffffffffff82169050919050565b6000819050919050565b82818337600083830152505050565b60005b838110156128e95780820151818401526020810190506128ce565b838111156128f8576000848401525b50505050565b6000600282049050600182168061291657607f821691505b6020821081141561292a57612929612a39565b5b50919050565b61293982612aab565b810181811067ffffffffffffffff8211171561295857612957612a68565b5b80604052505050565b600061296c826128b2565b91507fffffffffffffffffffffffffffffffffffffffffffffffffffffffffffffffff82141561299f5761299e6129db565b5b600182019050919050565b60006129b5826128b2565b91506129c0836128b2565b9250826129d0576129cf612a0a565b5b828206905092915050565b7f4e487b7100000000000000000000000000000000000000000000000000000000600052601160045260246000fd5b7f4e487b7100000000000000000000000000000000000000000000000000000000600052601260045260246000fd5b7f4e487b7100000000000000000000000000000000000000000000000000000000600052602260045260246000fd5b7f4e487b7100000000000000000000000000000000000000000000000000000000600052604160045260246000fd5b600080fd5b600080fd5b600080fd5b600080fd5b6000601f19601f8301169050919050565b7f54727920616761696e3121000000000000000000000000000000000000000000600082015250565b7f4552433732313a2063616c6c6572206973206e6f7420746f6b656e206f776e6560008201527f72206f7220617070726f76656400000000000000000000000000000000000000602082015250565b7f4552433732313a207472616e7366657220746f206e6f6e20455243373231526560008201527f63656976657220696d706c656d656e7465720000000000000000000000000000602082015250565b7f4552433732313a207472616e736665722066726f6d20696e636f72726563742060008201527f6f776e6572000000000000000000000000000000000000000000000000000000602082015250565b7f4552433732313a20746f6b656e20616c7265616479206d696e74656400000000600082015250565b7f57687920646f6e277420796f752077616e7420746f20626520616e206172746960008201527f73743f0000000000000000000000000000000000000000000000000000000000602082015250565b7f4552433732313a207472616e7366657220746f20746865207a65726f2061646460008201527f7265737300000000000000000000000000000000000000000000000000000000602082015250565b7f4552433732313a20617070726f766520746f2063616c6c657200000000000000600082015250565b7f4552433732313a2061646472657373207a65726f206973206e6f74206120766160008201527f6c6964206f776e65720000000000000000000000000000000000000000000000602082015250565b7f4552433732313a206d696e7420746f20746865207a65726f2061646472657373600082015250565b7f4552433732313a20696e76616c696420746f6b656e2049440000000000000000600082015250565b7f486f70652062726f6b656e210000000000000000000000000000000000000000600082015250565b7f4552433732313a20617070726f76616c20746f2063757272656e74206f776e6560008201527f7200000000000000000000000000000000000000000000000000000000000000602082015250565b7f4552433732313a20617070726f76652063616c6c6572206973206e6f7420746f60008201527f6b656e206f776e6572206f7220617070726f76656420666f7220616c6c000000602082015250565b7f486f70652062726f6b656e000000000000000000000000000000000000000000600082015250565b7f596f7520617265206e6f7420796574206120676f6f64206172746973742c207960008201527f6f752073686f756c64206b65657020747279696e672e00000000000000000000602082015250565b7f54727920616761696e2100000000000000000000000000000000000000000000600082015250565b7f54727920616761696e3221000000000000000000000000000000000000000000600082015250565b612efd81612848565b8114612f0857600080fd5b50565b612f148161285a565b8114612f1f57600080fd5b50565b612f2b81612866565b8114612f3657600080fd5b50565b612f42816128b2565b8114612f4d57600080fd5b5056fea264697066735822122097f5c996e378f2aa0ad3e9ead6970c63bc1d2fe52f945111e62ba64c0605d0df64736f6c63430008070033",
			"opcodes": "PUSH1 0x80 PUSH1 0x40 MSTORE PUSH1 0x1 PUSH1 0x7 PUSH1 0x0 PUSH2 0x100 EXP DUP2 SLOAD DUP2 PUSH1 0xFF MUL NOT AND SWAP1 DUP4 ISZERO ISZERO MUL OR SWAP1 SSTORE POP PUSH1 0x1 PUSH1 0x7 PUSH1 0x1 PUSH2 0x100 EXP DUP2 SLOAD DUP2 PUSH1 0xFF MUL NOT AND SWAP1 DUP4 ISZERO ISZERO MUL OR SWAP1 SSTORE POP CALLVALUE DUP1 ISZERO PUSH3 0x47 JUMPI PUSH1 0x0 DUP1 REVERT JUMPDEST POP PUSH1 0x40 MLOAD DUP1 PUSH1 0x40 ADD PUSH1 0x40 MSTORE DUP1 PUSH1 0x8 DUP2 MSTORE PUSH1 0x20 ADD PUSH32 0x416C6C2041727473000000000000000000000000000000000000000000000000 DUP2 MSTORE POP PUSH1 0x40 MLOAD DUP1 PUSH1 0x40 ADD PUSH1 0x40 MSTORE DUP1 PUSH1 0x2 DUP2 MSTORE PUSH1 0x20 ADD PUSH32 0x4141000000000000000000000000000000000000000000000000000000000000 DUP2 MSTORE POP DUP2 PUSH1 0x0 SWAP1 DUP1 MLOAD SWAP1 PUSH1 0x20 ADD SWAP1 PUSH3 0xCC SWAP3 SWAP2 SWAP1 PUSH3 0xEE JUMP JUMPDEST POP DUP1 PUSH1 0x1 SWAP1 DUP1 MLOAD SWAP1 PUSH1 0x20 ADD SWAP1 PUSH3 0xE5 SWAP3 SWAP2 SWAP1 PUSH3 0xEE JUMP JUMPDEST POP POP POP PUSH3 0x203 JUMP JUMPDEST DUP3 DUP1 SLOAD PUSH3 0xFC SWAP1 PUSH3 0x19E JUMP JUMPDEST SWAP1 PUSH1 0x0 MSTORE PUSH1 0x20 PUSH1 0x0 KECCAK256 SWAP1 PUSH1 0x1F ADD PUSH1 0x20 SWAP1 DIV DUP2 ADD SWAP3 DUP3 PUSH3 0x120 JUMPI PUSH1 0x0 DUP6 SSTORE PUSH3 0x16C JUMP JUMPDEST DUP3 PUSH1 0x1F LT PUSH3 0x13B JUMPI DUP1 MLOAD PUSH1 0xFF NOT AND DUP4 DUP1 ADD OR DUP6 SSTORE PUSH3 0x16C JUMP JUMPDEST DUP3 DUP1 ADD PUSH1 0x1 ADD DUP6 SSTORE DUP3 ISZERO PUSH3 0x16C JUMPI SWAP2 DUP3 ADD JUMPDEST DUP3 DUP2 GT ISZERO PUSH3 0x16B JUMPI DUP3 MLOAD DUP3 SSTORE SWAP2 PUSH1 0x20 ADD SWAP2 SWAP1 PUSH1 0x1 ADD SWAP1 PUSH3 0x14E JUMP JUMPDEST JUMPDEST POP SWAP1 POP PUSH3 0x17B SWAP2 SWAP1 PUSH3 0x17F JUMP JUMPDEST POP SWAP1 JUMP JUMPDEST JUMPDEST DUP1 DUP3 GT ISZERO PUSH3 0x19A JUMPI PUSH1 0x0 DUP2 PUSH1 0x0 SWAP1 SSTORE POP PUSH1 0x1 ADD PUSH3 0x180 JUMP JUMPDEST POP SWAP1 JUMP JUMPDEST PUSH1 0x0 PUSH1 0x2 DUP3 DIV SWAP1 POP PUSH1 0x1 DUP3 AND DUP1 PUSH3 0x1B7 JUMPI PUSH1 0x7F DUP3 AND SWAP2 POP JUMPDEST PUSH1 0x20 DUP3 LT DUP2 EQ ISZERO PUSH3 0x1CE JUMPI PUSH3 0x1CD PUSH3 0x1D4 JUMP JUMPDEST JUMPDEST POP SWAP2 SWAP1 POP JUMP JUMPDEST PUSH32 0x4E487B7100000000000000000000000000000000000000000000000000000000 PUSH1 0x0 MSTORE PUSH1 0x22 PUSH1 0x4 MSTORE PUSH1 0x24 PUSH1 0x0 REVERT JUMPDEST PUSH2 0x2F86 DUP1 PUSH3 0x213 PUSH1 0x0 CODECOPY PUSH1 0x0 RETURN INVALID PUSH1 0x80 PUSH1 0x40 MSTORE CALLVALUE DUP1 ISZERO PUSH2 0x10 JUMPI PUSH1 0x0 DUP1 REVERT JUMPDEST POP PUSH1 0x4 CALLDATASIZE LT PUSH2 0x12C JUMPI PUSH1 0x0 CALLDATALOAD PUSH1 0xE0 SHR DUP1 PUSH4 0x70A08231 GT PUSH2 0xAD JUMPI DUP1 PUSH4 0xB88D4FDE GT PUSH2 0x71 JUMPI DUP1 PUSH4 0xB88D4FDE EQ PUSH2 0x345 JUMPI DUP1 PUSH4 0xC87B56DD EQ PUSH2 0x361 JUMPI DUP1 PUSH4 0xDAC072A9 EQ PUSH2 0x391 JUMPI DUP1 PUSH4 0xE985E9C5 EQ PUSH2 0x3AF JUMPI DUP1 PUSH4 0xFA391C64 EQ PUSH2 0x3DF JUMPI PUSH2 0x12C JUMP JUMPDEST DUP1 PUSH4 0x70A08231 EQ PUSH2 0x29F JUMPI DUP1 PUSH4 0x95D89B41 EQ PUSH2 0x2CF JUMPI DUP1 PUSH4 0xA22CB465 EQ PUSH2 0x2ED JUMPI DUP1 PUSH4 0xA2309FF8 EQ PUSH2 0x309 JUMPI DUP1 PUSH4 0xB5E37041 EQ PUSH2 0x327 JUMPI PUSH2 0x12C JUMP JUMPDEST DUP1 PUSH4 0x23B872DD GT PUSH2 0xF4 JUMPI DUP1 PUSH4 0x23B872DD EQ PUSH2 0x1FB JUMPI DUP1 PUSH4 0x42842E0E EQ PUSH2 0x217 JUMPI DUP1 PUSH4 0x42A9155C EQ PUSH2 0x233 JUMPI DUP1 PUSH4 0x4E521DE2 EQ PUSH2 0x251 JUMPI DUP1 PUSH4 0x6352211E EQ PUSH2 0x26F JUMPI PUSH2 0x12C JUMP JUMPDEST DUP1 PUSH4 0x1FFC9A7 EQ PUSH2 0x131 JUMPI DUP1 PUSH4 0x6FDDE03 EQ PUSH2 0x161 JUMPI DUP1 PUSH4 0x81812FC EQ PUSH2 0x17F JUMPI DUP1 PUSH4 0x95EA7B3 EQ PUSH2 0x1AF JUMPI DUP1 PUSH4 0x1AC4610D EQ PUSH2 0x1CB JUMPI JUMPDEST PUSH1 0x0 DUP1 REVERT JUMPDEST PUSH2 0x14B PUSH1 0x4 DUP1 CALLDATASIZE SUB DUP2 ADD SWAP1 PUSH2 0x146 SWAP2 SWAP1 PUSH2 0x2035 JUMP JUMPDEST PUSH2 0x3FD JUMP JUMPDEST PUSH1 0x40 MLOAD PUSH2 0x158 SWAP2 SWAP1 PUSH2 0x248D JUMP JUMPDEST PUSH1 0x40 MLOAD DUP1 SWAP2 SUB SWAP1 RETURN JUMPDEST PUSH2 0x169 PUSH2 0x4DF JUMP JUMPDEST PUSH1 0x40 MLOAD PUSH2 0x176 SWAP2 SWAP1 PUSH2 0x24A8 JUMP JUMPDEST PUSH1 0x40 MLOAD DUP1 SWAP2 SUB SWAP1 RETURN JUMPDEST PUSH2 0x199 PUSH1 0x4 DUP1 CALLDATASIZE SUB DUP2 ADD SWAP1 PUSH2 0x194 SWAP2 SWAP1 PUSH2 0x208F JUMP JUMPDEST PUSH2 0x571 JUMP JUMPDEST PUSH1 0x40 MLOAD PUSH2 0x1A6 SWAP2 SWAP1 PUSH2 0x2426 JUMP JUMPDEST PUSH1 0x40 MLOAD DUP1 SWAP2 SUB SWAP1 RETURN JUMPDEST PUSH2 0x1C9 PUSH1 0x4 DUP1 CALLDATASIZE SUB DUP2 ADD SWAP1 PUSH2 0x1C4 SWAP2 SWAP1 PUSH2 0x1FF5 JUMP JUMPDEST PUSH2 0x5B7 JUMP JUMPDEST STOP JUMPDEST PUSH2 0x1E5 PUSH1 0x4 DUP1 CALLDATASIZE SUB DUP2 ADD SWAP1 PUSH2 0x1E0 SWAP2 SWAP1 PUSH2 0x208F JUMP JUMPDEST PUSH2 0x6CF JUMP JUMPDEST PUSH1 0x40 MLOAD PUSH2 0x1F2 SWAP2 SWAP1 PUSH2 0x248D JUMP JUMPDEST PUSH1 0x40 MLOAD DUP1 SWAP2 SUB SWAP1 RETURN JUMPDEST PUSH2 0x215 PUSH1 0x4 DUP1 CALLDATASIZE SUB DUP2 ADD SWAP1 PUSH2 0x210 SWAP2 SWAP1 PUSH2 0x1EDF JUMP JUMPDEST PUSH2 0x77F JUMP JUMPDEST STOP JUMPDEST PUSH2 0x231 PUSH1 0x4 DUP1 CALLDATASIZE SUB DUP2 ADD SWAP1 PUSH2 0x22C SWAP2 SWAP1 PUSH2 0x1EDF JUMP JUMPDEST PUSH2 0x7DF JUMP JUMPDEST STOP JUMPDEST PUSH2 0x23B PUSH2 0x7FF JUMP JUMPDEST PUSH1 0x40 MLOAD PUSH2 0x248 SWAP2 SWAP1 PUSH2 0x248D JUMP JUMPDEST PUSH1 0x40 MLOAD DUP1 SWAP2 SUB SWAP1 RETURN JUMPDEST PUSH2 0x259 PUSH2 0x97B JUMP JUMPDEST PUSH1 0x40 MLOAD PUSH2 0x266 SWAP2 SWAP1 PUSH2 0x248D JUMP JUMPDEST PUSH1 0x40 MLOAD DUP1 SWAP2 SUB SWAP1 RETURN JUMPDEST PUSH2 0x289 PUSH1 0x4 DUP1 CALLDATASIZE SUB DUP2 ADD SWAP1 PUSH2 0x284 SWAP2 SWAP1 PUSH2 0x208F JUMP JUMPDEST PUSH2 0x98E JUMP JUMPDEST PUSH1 0x40 MLOAD PUSH2 0x296 SWAP2 SWAP1 PUSH2 0x2426 JUMP JUMPDEST PUSH1 0x40 MLOAD DUP1 SWAP2 SUB SWAP1 RETURN JUMPDEST PUSH2 0x2B9 PUSH1 0x4 DUP1 CALLDATASIZE SUB DUP2 ADD SWAP1 PUSH2 0x2B4 SWAP2 SWAP1 PUSH2 0x1E72 JUMP JUMPDEST PUSH2 0xA15 JUMP JUMPDEST PUSH1 0x40 MLOAD PUSH2 0x2C6 SWAP2 SWAP1 PUSH2 0x270A JUMP JUMPDEST PUSH1 0x40 MLOAD DUP1 SWAP2 SUB SWAP1 RETURN JUMPDEST PUSH2 0x2D7 PUSH2 0xACD JUMP JUMPDEST PUSH1 0x40 MLOAD PUSH2 0x2E4 SWAP2 SWAP1 PUSH2 0x24A8 JUMP JUMPDEST PUSH1 0x40 MLOAD DUP1 SWAP2 SUB SWAP1 RETURN JUMPDEST PUSH2 0x307 PUSH1 0x4 DUP1 CALLDATASIZE SUB DUP2 ADD SWAP1 PUSH2 0x302 SWAP2 SWAP1 PUSH2 0x1FB5 JUMP JUMPDEST PUSH2 0xB5F JUMP JUMPDEST STOP JUMPDEST PUSH2 0x311 PUSH2 0xB75 JUMP JUMPDEST PUSH1 0x40 MLOAD PUSH2 0x31E SWAP2 SWAP1 PUSH2 0x270A JUMP JUMPDEST PUSH1 0x40 MLOAD DUP1 SWAP2 SUB SWAP1 RETURN JUMPDEST PUSH2 0x32F PUSH2 0xB7B JUMP JUMPDEST PUSH1 0x40 MLOAD PUSH2 0x33C SWAP2 SWAP1 PUSH2 0x248D JUMP JUMPDEST PUSH1 0x40 MLOAD DUP1 SWAP2 SUB SWAP1 RETURN JUMPDEST PUSH2 0x35F PUSH1 0x4 DUP1 CALLDATASIZE SUB DUP2 ADD SWAP1 PUSH2 0x35A SWAP2 SWAP1 PUSH2 0x1F32 JUMP JUMPDEST PUSH2 0xB8E JUMP JUMPDEST STOP JUMPDEST PUSH2 0x37B PUSH1 0x4 DUP1 CALLDATASIZE SUB DUP2 ADD SWAP1 PUSH2 0x376 SWAP2 SWAP1 PUSH2 0x208F JUMP JUMPDEST PUSH2 0xBF0 JUMP JUMPDEST PUSH1 0x40 MLOAD PUSH2 0x388 SWAP2 SWAP1 PUSH2 0x24A8 JUMP JUMPDEST PUSH1 0x40 MLOAD DUP1 SWAP2 SUB SWAP1 RETURN JUMPDEST PUSH2 0x399 PUSH2 0xC58 JUMP JUMPDEST PUSH1 0x40 MLOAD PUSH2 0x3A6 SWAP2 SWAP1 PUSH2 0x248D JUMP JUMPDEST PUSH1 0x40 MLOAD DUP1 SWAP2 SUB SWAP1 RETURN JUMPDEST PUSH2 0x3C9 PUSH1 0x4 DUP1 CALLDATASIZE SUB DUP2 ADD SWAP1 PUSH2 0x3C4 SWAP2 SWAP1 PUSH2 0x1E9F JUMP JUMPDEST PUSH2 0xD79 JUMP JUMPDEST PUSH1 0x40 MLOAD PUSH2 0x3D6 SWAP2 SWAP1 PUSH2 0x248D JUMP JUMPDEST PUSH1 0x40 MLOAD DUP1 SWAP2 SUB SWAP1 RETURN JUMPDEST PUSH2 0x3E7 PUSH2 0xE0D JUMP JUMPDEST PUSH1 0x40 MLOAD PUSH2 0x3F4 SWAP2 SWAP1 PUSH2 0x248D JUMP JUMPDEST PUSH1 0x40 MLOAD DUP1 SWAP2 SUB SWAP1 RETURN JUMPDEST PUSH1 0x0 PUSH32 0x80AC58CD00000000000000000000000000000000000000000000000000000000 PUSH28 0xFFFFFFFFFFFFFFFFFFFFFFFFFFFFFFFFFFFFFFFFFFFFFFFFFFFFFFFF NOT AND DUP3 PUSH28 0xFFFFFFFFFFFFFFFFFFFFFFFFFFFFFFFFFFFFFFFFFFFFFFFFFFFFFFFF NOT AND EQ DUP1 PUSH2 0x4C8 JUMPI POP PUSH32 0x5B5E139F00000000000000000000000000000000000000000000000000000000 PUSH28 0xFFFFFFFFFFFFFFFFFFFFFFFFFFFFFFFFFFFFFFFFFFFFFFFFFFFFFFFF NOT AND DUP3 PUSH28 0xFFFFFFFFFFFFFFFFFFFFFFFFFFFFFFFFFFFFFFFFFFFFFFFFFFFFFFFF NOT AND EQ JUMPDEST DUP1 PUSH2 0x4D8 JUMPI POP PUSH2 0x4D7 DUP3 PUSH2 0xE62 JUMP JUMPDEST JUMPDEST SWAP1 POP SWAP2 SWAP1 POP JUMP JUMPDEST PUSH1 0x60 PUSH1 0x0 DUP1 SLOAD PUSH2 0x4EE SWAP1 PUSH2 0x28FE JUMP JUMPDEST DUP1 PUSH1 0x1F ADD PUSH1 0x20 DUP1 SWAP2 DIV MUL PUSH1 0x20 ADD PUSH1 0x40 MLOAD SWAP1 DUP2 ADD PUSH1 0x40 MSTORE DUP1 SWAP3 SWAP2 SWAP1 DUP2 DUP2 MSTORE PUSH1 0x20 ADD DUP3 DUP1 SLOAD PUSH2 0x51A SWAP1 PUSH2 0x28FE JUMP JUMPDEST DUP1 ISZERO PUSH2 0x567 JUMPI DUP1 PUSH1 0x1F LT PUSH2 0x53C JUMPI PUSH2 0x100 DUP1 DUP4 SLOAD DIV MUL DUP4 MSTORE SWAP2 PUSH1 0x20 ADD SWAP2 PUSH2 0x567 JUMP JUMPDEST DUP3 ADD SWAP2 SWAP1 PUSH1 0x0 MSTORE PUSH1 0x20 PUSH1 0x0 KECCAK256 SWAP1 JUMPDEST DUP2 SLOAD DUP2 MSTORE SWAP1 PUSH1 0x1 ADD SWAP1 PUSH1 0x20 ADD DUP1 DUP4 GT PUSH2 0x54A JUMPI DUP3 SWAP1 SUB PUSH1 0x1F AND DUP3 ADD SWAP2 JUMPDEST POP POP POP POP POP SWAP1 POP SWAP1 JUMP JUMPDEST PUSH1 0x0 PUSH2 0x57C DUP3 PUSH2 0xECC JUMP JUMPDEST PUSH1 0x4 PUSH1 0x0 DUP4 DUP2 MSTORE PUSH1 0x20 ADD SWAP1 DUP2 MSTORE PUSH1 0x20 ADD PUSH1 0x0 KECCAK256 PUSH1 0x0 SWAP1 SLOAD SWAP1 PUSH2 0x100 EXP SWAP1 DIV PUSH20 0xFFFFFFFFFFFFFFFFFFFFFFFFFFFFFFFFFFFFFFFF AND SWAP1 POP SWAP2 SWAP1 POP JUMP JUMPDEST PUSH1 0x0 PUSH2 0x5C2 DUP3 PUSH2 0x98E JUMP JUMPDEST SWAP1 POP DUP1 PUSH20 0xFFFFFFFFFFFFFFFFFFFFFFFFFFFFFFFFFFFFFFFF AND DUP4 PUSH20 0xFFFFFFFFFFFFFFFFFFFFFFFFFFFFFFFFFFFFFFFF AND EQ ISZERO PUSH2 0x633 JUMPI PUSH1 0x40 MLOAD PUSH32 0x8C379A000000000000000000000000000000000000000000000000000000000 DUP2 MSTORE PUSH1 0x4 ADD PUSH2 0x62A SWAP1 PUSH2 0x264A JUMP JUMPDEST PUSH1 0x40 MLOAD DUP1 SWAP2 SUB SWAP1 REVERT JUMPDEST DUP1 PUSH20 0xFFFFFFFFFFFFFFFFFFFFFFFFFFFFFFFFFFFFFFFF AND PUSH2 0x652 PUSH2 0xF17 JUMP JUMPDEST PUSH20 0xFFFFFFFFFFFFFFFFFFFFFFFFFFFFFFFFFFFFFFFF AND EQ DUP1 PUSH2 0x681 JUMPI POP PUSH2 0x680 DUP2 PUSH2 0x67B PUSH2 0xF17 JUMP JUMPDEST PUSH2 0xD79 JUMP JUMPDEST JUMPDEST PUSH2 0x6C0 JUMPI PUSH1 0x40 MLOAD PUSH32 0x8C379A000000000000000000000000000000000000000000000000000000000 DUP2 MSTORE PUSH1 0x4 ADD PUSH2 0x6B7 SWAP1 PUSH2 0x266A JUMP JUMPDEST PUSH1 0x40 MLOAD DUP1 SWAP2 SUB SWAP1 REVERT JUMPDEST PUSH2 0x6CA DUP4 DUP4 PUSH2 0xF1F JUMP JUMPDEST POP POP POP JUMP JUMPDEST PUSH1 0x0 PUSH2 0x120 DUP3 LT ISZERO PUSH2 0x716 JUMPI PUSH1 0x40 MLOAD PUSH32 0x8C379A000000000000000000000000000000000000000000000000000000000 DUP2 MSTORE PUSH1 0x4 ADD PUSH2 0x70D SWAP1 PUSH2 0x256A JUMP JUMPDEST PUSH1 0x40 MLOAD DUP1 SWAP2 SUB SWAP1 REVERT JUMPDEST PUSH1 0x0 JUMPDEST DUP3 DUP2 LT ISZERO PUSH2 0x775 JUMPI PUSH1 0x0 PUSH2 0x739 PUSH1 0x1 PUSH1 0x6 SLOAD PUSH2 0xFD8 SWAP1 SWAP2 SWAP1 PUSH4 0xFFFFFFFF AND JUMP JUMPDEST SWAP1 POP PUSH2 0x745 CALLER DUP3 PUSH2 0xFEE JUMP JUMPDEST PUSH2 0x75B PUSH1 0x1 PUSH1 0x6 SLOAD PUSH2 0xFD8 SWAP1 SWAP2 SWAP1 PUSH4 0xFFFFFFFF AND JUMP JUMPDEST PUSH1 0x6 DUP2 SWAP1 SSTORE POP POP DUP1 DUP1 PUSH2 0x76D SWAP1 PUSH2 0x2961 JUMP JUMPDEST SWAP2 POP POP PUSH2 0x719 JUMP JUMPDEST POP PUSH1 0x1 SWAP1 POP SWAP2 SWAP1 POP JUMP JUMPDEST PUSH2 0x790 PUSH2 0x78A PUSH2 0xF17 JUMP JUMPDEST DUP3 PUSH2 0x100C JUMP JUMPDEST PUSH2 0x7CF JUMPI PUSH1 0x40 MLOAD PUSH32 0x8C379A000000000000000000000000000000000000000000000000000000000 DUP2 MSTORE PUSH1 0x4 ADD PUSH2 0x7C6 SWAP1 PUSH2 0x24EA JUMP JUMPDEST PUSH1 0x40 MLOAD DUP1 SWAP2 SUB SWAP1 REVERT JUMPDEST PUSH2 0x7DA DUP4 DUP4 DUP4 PUSH2 0x10A1 JUMP JUMPDEST POP POP POP JUMP JUMPDEST PUSH2 0x7FA DUP4 DUP4 DUP4 PUSH1 0x40 MLOAD DUP1 PUSH1 0x20 ADD PUSH1 0x40 MSTORE DUP1 PUSH1 0x0 DUP2 MSTORE POP PUSH2 0xB8E JUMP JUMPDEST POP POP POP JUMP JUMPDEST PUSH1 0x0 DUP1 ISZERO ISZERO PUSH1 0x7 PUSH1 0x0 SWAP1 SLOAD SWAP1 PUSH2 0x100 EXP SWAP1 DIV PUSH1 0xFF AND ISZERO ISZERO EQ PUSH2 0x856 JUMPI PUSH1 0x40 MLOAD PUSH32 0x8C379A000000000000000000000000000000000000000000000000000000000 DUP2 MSTORE PUSH1 0x4 ADD PUSH2 0x84D SWAP1 PUSH2 0x24CA JUMP JUMPDEST PUSH1 0x40 MLOAD DUP1 SWAP2 SUB SWAP1 REVERT JUMPDEST PUSH1 0x1 ISZERO ISZERO PUSH1 0x7 PUSH1 0x1 SWAP1 SLOAD SWAP1 PUSH2 0x100 EXP SWAP1 DIV PUSH1 0xFF AND ISZERO ISZERO EQ PUSH2 0x8AC JUMPI PUSH1 0x40 MLOAD PUSH32 0x8C379A000000000000000000000000000000000000000000000000000000000 DUP2 MSTORE PUSH1 0x4 ADD PUSH2 0x8A3 SWAP1 PUSH2 0x262A JUMP JUMPDEST PUSH1 0x40 MLOAD DUP1 SWAP2 SUB SWAP1 REVERT JUMPDEST PUSH1 0x0 PUSH2 0x8D8 PUSH1 0x58 CALLER PUSH20 0xFFFFFFFFFFFFFFFFFFFFFFFFFFFFFFFFFFFFFFFF AND PUSH2 0x139B SWAP1 SWAP2 SWAP1 PUSH4 0xFFFFFFFF AND JUMP JUMPDEST EQ PUSH2 0x918 JUMPI PUSH1 0x40 MLOAD PUSH32 0x8C379A000000000000000000000000000000000000000000000000000000000 DUP2 MSTORE PUSH1 0x4 ADD PUSH2 0x90F SWAP1 PUSH2 0x26EA JUMP JUMPDEST PUSH1 0x40 MLOAD DUP1 SWAP2 SUB SWAP1 REVERT JUMPDEST PUSH1 0x0 PUSH2 0x930 PUSH1 0x1 PUSH1 0x6 SLOAD PUSH2 0xFD8 SWAP1 SWAP2 SWAP1 PUSH4 0xFFFFFFFF AND JUMP JUMPDEST SWAP1 POP PUSH2 0x948 PUSH1 0x1 PUSH1 0x6 SLOAD PUSH2 0xFD8 SWAP1 SWAP2 SWAP1 PUSH4 0xFFFFFFFF AND JUMP JUMPDEST PUSH1 0x6 DUP2 SWAP1 SSTORE POP PUSH2 0x958 CALLER DUP3 PUSH2 0xFEE JUMP JUMPDEST PUSH1 0x0 PUSH1 0x7 PUSH1 0x1 PUSH2 0x100 EXP DUP2 SLOAD DUP2 PUSH1 0xFF MUL NOT AND SWAP1 DUP4 ISZERO ISZERO MUL OR SWAP1 SSTORE POP PUSH1 0x1 SWAP2 POP POP SWAP1 JUMP JUMPDEST PUSH1 0x7 PUSH1 0x1 SWAP1 SLOAD SWAP1 PUSH2 0x100 EXP SWAP1 DIV PUSH1 0xFF AND DUP2 JUMP JUMPDEST PUSH1 0x0 DUP1 PUSH2 0x99A DUP4 PUSH2 0x13B1 JUMP JUMPDEST SWAP1 POP PUSH1 0x0 PUSH20 0xFFFFFFFFFFFFFFFFFFFFFFFFFFFFFFFFFFFFFFFF AND DUP2 PUSH20 0xFFFFFFFFFFFFFFFFFFFFFFFFFFFFFFFFFFFFFFFF AND EQ ISZERO PUSH2 0xA0C JUMPI PUSH1 0x40 MLOAD PUSH32 0x8C379A000000000000000000000000000000000000000000000000000000000 DUP2 MSTORE PUSH1 0x4 ADD PUSH2 0xA03 SWAP1 PUSH2 0x260A JUMP JUMPDEST PUSH1 0x40 MLOAD DUP1 SWAP2 SUB SWAP1 REVERT JUMPDEST DUP1 SWAP2 POP POP SWAP2 SWAP1 POP JUMP JUMPDEST PUSH1 0x0 DUP1 PUSH20 0xFFFFFFFFFFFFFFFFFFFFFFFFFFFFFFFFFFFFFFFF AND DUP3 PUSH20 0xFFFFFFFFFFFFFFFFFFFFFFFFFFFFFFFFFFFFFFFF AND EQ ISZERO PUSH2 0xA86 JUMPI PUSH1 0x40 MLOAD PUSH32 0x8C379A000000000000000000000000000000000000000000000000000000000 DUP2 MSTORE PUSH1 0x4 ADD PUSH2 0xA7D SWAP1 PUSH2 0x25CA JUMP JUMPDEST PUSH1 0x40 MLOAD DUP1 SWAP2 SUB SWAP1 REVERT JUMPDEST PUSH1 0x3 PUSH1 0x0 DUP4 PUSH20 0xFFFFFFFFFFFFFFFFFFFFFFFFFFFFFFFFFFFFFFFF AND PUSH20 0xFFFFFFFFFFFFFFFFFFFFFFFFFFFFFFFFFFFFFFFF AND DUP2 MSTORE PUSH1 0x20 ADD SWAP1 DUP2 MSTORE PUSH1 0x20 ADD PUSH1 0x0 KECCAK256 SLOAD SWAP1 POP SWAP2 SWAP1 POP JUMP JUMPDEST PUSH1 0x60 PUSH1 0x1 DUP1 SLOAD PUSH2 0xADC SWAP1 PUSH2 0x28FE JUMP JUMPDEST DUP1 PUSH1 0x1F ADD PUSH1 0x20 DUP1 SWAP2 DIV MUL PUSH1 0x20 ADD PUSH1 0x40 MLOAD SWAP1 DUP2 ADD PUSH1 0x40 MSTORE DUP1 SWAP3 SWAP2 SWAP1 DUP2 DUP2 MSTORE PUSH1 0x20 ADD DUP3 DUP1 SLOAD PUSH2 0xB08 SWAP1 PUSH2 0x28FE JUMP JUMPDEST DUP1 ISZERO PUSH2 0xB55 JUMPI DUP1 PUSH1 0x1F LT PUSH2 0xB2A JUMPI PUSH2 0x100 DUP1 DUP4 SLOAD DIV MUL DUP4 MSTORE SWAP2 PUSH1 0x20 ADD SWAP2 PUSH2 0xB55 JUMP JUMPDEST DUP3 ADD SWAP2 SWAP1 PUSH1 0x0 MSTORE PUSH1 0x20 PUSH1 0x0 KECCAK256 SWAP1 JUMPDEST DUP2 SLOAD DUP2 MSTORE SWAP1 PUSH1 0x1 ADD SWAP1 PUSH1 0x20 ADD DUP1 DUP4 GT PUSH2 0xB38 JUMPI DUP3 SWAP1 SUB PUSH1 0x1F AND DUP3 ADD SWAP2 JUMPDEST POP POP POP POP POP SWAP1 POP SWAP1 JUMP JUMPDEST PUSH2 0xB71 PUSH2 0xB6A PUSH2 0xF17 JUMP JUMPDEST DUP4 DUP4 PUSH2 0x13EE JUMP JUMPDEST POP POP JUMP JUMPDEST PUSH1 0x6 SLOAD DUP2 JUMP JUMPDEST PUSH1 0x7 PUSH1 0x0 SWAP1 SLOAD SWAP1 PUSH2 0x100 EXP SWAP1 DIV PUSH1 0xFF AND DUP2 JUMP JUMPDEST PUSH2 0xB9F PUSH2 0xB99 PUSH2 0xF17 JUMP JUMPDEST DUP4 PUSH2 0x100C JUMP JUMPDEST PUSH2 0xBDE JUMPI PUSH1 0x40 MLOAD PUSH32 0x8C379A000000000000000000000000000000000000000000000000000000000 DUP2 MSTORE PUSH1 0x4 ADD PUSH2 0xBD5 SWAP1 PUSH2 0x24EA JUMP JUMPDEST PUSH1 0x40 MLOAD DUP1 SWAP2 SUB SWAP1 REVERT JUMPDEST PUSH2 0xBEA DUP5 DUP5 DUP5 DUP5 PUSH2 0x155B JUMP JUMPDEST POP POP POP POP JUMP JUMPDEST PUSH1 0x60 PUSH2 0xBFB DUP3 PUSH2 0xECC JUMP JUMPDEST PUSH1 0x0 PUSH2 0xC05 PUSH2 0x15B7 JUMP JUMPDEST SWAP1 POP PUSH1 0x0 DUP2 MLOAD GT PUSH2 0xC25 JUMPI PUSH1 0x40 MLOAD DUP1 PUSH1 0x20 ADD PUSH1 0x40 MSTORE DUP1 PUSH1 0x0 DUP2 MSTORE POP PUSH2 0xC50 JUMP JUMPDEST DUP1 PUSH2 0xC2F DUP5 PUSH2 0x15CE JUMP JUMPDEST PUSH1 0x40 MLOAD PUSH1 0x20 ADD PUSH2 0xC40 SWAP3 SWAP2 SWAP1 PUSH2 0x2402 JUMP JUMPDEST PUSH1 0x40 MLOAD PUSH1 0x20 DUP2 DUP4 SUB SUB DUP2 MSTORE SWAP1 PUSH1 0x40 MSTORE JUMPDEST SWAP2 POP POP SWAP2 SWAP1 POP JUMP JUMPDEST PUSH1 0x0 PUSH1 0x7 PUSH1 0x0 SWAP1 SLOAD SWAP1 PUSH2 0x100 EXP SWAP1 DIV PUSH1 0xFF AND PUSH2 0xCA9 JUMPI PUSH1 0x40 MLOAD PUSH32 0x8C379A000000000000000000000000000000000000000000000000000000000 DUP2 MSTORE PUSH1 0x4 ADD PUSH2 0xCA0 SWAP1 PUSH2 0x268A JUMP JUMPDEST PUSH1 0x40 MLOAD DUP1 SWAP2 SUB SWAP1 REVERT JUMPDEST PUSH1 0x0 PUSH2 0xCD5 PUSH1 0x58 CALLER PUSH20 0xFFFFFFFFFFFFFFFFFFFFFFFFFFFFFFFFFFFFFFFF AND PUSH2 0x139B SWAP1 SWAP2 SWAP1 PUSH4 0xFFFFFFFF AND JUMP JUMPDEST EQ ISZERO PUSH2 0xD16 JUMPI PUSH1 0x40 MLOAD PUSH32 0x8C379A000000000000000000000000000000000000000000000000000000000 DUP2 MSTORE PUSH1 0x4 ADD PUSH2 0xD0D SWAP1 PUSH2 0x26CA JUMP JUMPDEST PUSH1 0x40 MLOAD DUP1 SWAP2 SUB SWAP1 REVERT JUMPDEST PUSH1 0x0 PUSH2 0xD2E PUSH1 0x1 PUSH1 0x6 SLOAD PUSH2 0xFD8 SWAP1 SWAP2 SWAP1 PUSH4 0xFFFFFFFF AND JUMP JUMPDEST SWAP1 POP PUSH2 0xD46 PUSH1 0x1 PUSH1 0x6 SLOAD PUSH2 0xFD8 SWAP1 SWAP2 SWAP1 PUSH4 0xFFFFFFFF AND JUMP JUMPDEST PUSH1 0x6 DUP2 SWAP1 SSTORE POP PUSH2 0xD56 CALLER DUP3 PUSH2 0xFEE JUMP JUMPDEST PUSH1 0x0 PUSH1 0x7 PUSH1 0x0 PUSH2 0x100 EXP DUP2 SLOAD DUP2 PUSH1 0xFF MUL NOT AND SWAP1 DUP4 ISZERO ISZERO MUL OR SWAP1 SSTORE POP PUSH1 0x1 SWAP2 POP POP SWAP1 JUMP JUMPDEST PUSH1 0x0 PUSH1 0x5 PUSH1 0x0 DUP5 PUSH20 0xFFFFFFFFFFFFFFFFFFFFFFFFFFFFFFFFFFFFFFFF AND PUSH20 0xFFFFFFFFFFFFFFFFFFFFFFFFFFFFFFFFFFFFFFFF AND DUP2 MSTORE PUSH1 0x20 ADD SWAP1 DUP2 MSTORE PUSH1 0x20 ADD PUSH1 0x0 KECCAK256 PUSH1 0x0 DUP4 PUSH20 0xFFFFFFFFFFFFFFFFFFFFFFFFFFFFFFFFFFFFFFFF AND PUSH20 0xFFFFFFFFFFFFFFFFFFFFFFFFFFFFFFFFFFFFFFFF AND DUP2 MSTORE PUSH1 0x20 ADD SWAP1 DUP2 MSTORE PUSH1 0x20 ADD PUSH1 0x0 KECCAK256 PUSH1 0x0 SWAP1 SLOAD SWAP1 PUSH2 0x100 EXP SWAP1 DIV PUSH1 0xFF AND SWAP1 POP SWAP3 SWAP2 POP POP JUMP JUMPDEST PUSH1 0x0 PUSH2 0x120 PUSH2 0xE1B CALLER PUSH2 0xA15 JUMP JUMPDEST EQ PUSH2 0xE5B JUMPI PUSH1 0x40 MLOAD PUSH32 0x8C379A000000000000000000000000000000000000000000000000000000000 DUP2 MSTORE PUSH1 0x4 ADD PUSH2 0xE52 SWAP1 PUSH2 0x26AA JUMP JUMPDEST PUSH1 0x40 MLOAD DUP1 SWAP2 SUB SWAP1 REVERT JUMPDEST PUSH1 0x1 SWAP1 POP SWAP1 JUMP JUMPDEST PUSH1 0x0 PUSH32 0x1FFC9A700000000000000000000000000000000000000000000000000000000 PUSH28 0xFFFFFFFFFFFFFFFFFFFFFFFFFFFFFFFFFFFFFFFFFFFFFFFFFFFFFFFF NOT AND DUP3 PUSH28 0xFFFFFFFFFFFFFFFFFFFFFFFFFFFFFFFFFFFFFFFFFFFFFFFFFFFFFFFF NOT AND EQ SWAP1 POP SWAP2 SWAP1 POP JUMP JUMPDEST PUSH2 0xED5 DUP2 PUSH2 0x16A6 JUMP JUMPDEST PUSH2 0xF14 JUMPI PUSH1 0x40 MLOAD PUSH32 0x8C379A000000000000000000000000000000000000000000000000000000000 DUP2 MSTORE PUSH1 0x4 ADD PUSH2 0xF0B SWAP1 PUSH2 0x260A JUMP JUMPDEST PUSH1 0x40 MLOAD DUP1 SWAP2 SUB SWAP1 REVERT JUMPDEST POP JUMP JUMPDEST PUSH1 0x0 CALLER SWAP1 POP SWAP1 JUMP JUMPDEST DUP2 PUSH1 0x4 PUSH1 0x0 DUP4 DUP2 MSTORE PUSH1 0x20 ADD SWAP1 DUP2 MSTORE PUSH1 0x20 ADD PUSH1 0x0 KECCAK256 PUSH1 0x0 PUSH2 0x100 EXP DUP2 SLOAD DUP2 PUSH20 0xFFFFFFFFFFFFFFFFFFFFFFFFFFFFFFFFFFFFFFFF MUL NOT AND SWAP1 DUP4 PUSH20 0xFFFFFFFFFFFFFFFFFFFFFFFFFFFFFFFFFFFFFFFF AND MUL OR SWAP1 SSTORE POP DUP1 DUP3 PUSH20 0xFFFFFFFFFFFFFFFFFFFFFFFFFFFFFFFFFFFFFFFF AND PUSH2 0xF92 DUP4 PUSH2 0x98E JUMP JUMPDEST PUSH20 0xFFFFFFFFFFFFFFFFFFFFFFFFFFFFFFFFFFFFFFFF AND PUSH32 0x8C5BE1E5EBEC7D5BD14F71427D1E84F3DD0314C0F7B2291E5B200AC8C7C3B925 PUSH1 0x40 MLOAD PUSH1 0x40 MLOAD DUP1 SWAP2 SUB SWAP1 LOG4 POP POP JUMP JUMPDEST PUSH1 0x0 DUP2 DUP4 PUSH2 0xFE6 SWAP2 SWAP1 PUSH2 0x27BE JUMP JUMPDEST SWAP1 POP SWAP3 SWAP2 POP POP JUMP JUMPDEST PUSH2 0x1008 DUP3 DUP3 PUSH1 0x40 MLOAD DUP1 PUSH1 0x20 ADD PUSH1 0x40 MSTORE DUP1 PUSH1 0x0 DUP2 MSTORE POP PUSH2 0x16E7 JUMP JUMPDEST POP POP JUMP JUMPDEST PUSH1 0x0 DUP1 PUSH2 0x1018 DUP4 PUSH2 0x98E JUMP JUMPDEST SWAP1 POP DUP1 PUSH20 0xFFFFFFFFFFFFFFFFFFFFFFFFFFFFFFFFFFFFFFFF AND DUP5 PUSH20 0xFFFFFFFFFFFFFFFFFFFFFFFFFFFFFFFFFFFFFFFF AND EQ DUP1 PUSH2 0x105A JUMPI POP PUSH2 0x1059 DUP2 DUP6 PUSH2 0xD79 JUMP JUMPDEST JUMPDEST DUP1 PUSH2 0x1098 JUMPI POP DUP4 PUSH20 0xFFFFFFFFFFFFFFFFFFFFFFFFFFFFFFFFFFFFFFFF AND PUSH2 0x1080 DUP5 PUSH2 0x571 JUMP JUMPDEST PUSH20 0xFFFFFFFFFFFFFFFFFFFFFFFFFFFFFFFFFFFFFFFF AND EQ JUMPDEST SWAP2 POP POP SWAP3 SWAP2 POP POP JUMP JUMPDEST DUP3 PUSH20 0xFFFFFFFFFFFFFFFFFFFFFFFFFFFFFFFFFFFFFFFF AND PUSH2 0x10C1 DUP3 PUSH2 0x98E JUMP JUMPDEST PUSH20 0xFFFFFFFFFFFFFFFFFFFFFFFFFFFFFFFFFFFFFFFF AND EQ PUSH2 0x1117 JUMPI PUSH1 0x40 MLOAD PUSH32 0x8C379A000000000000000000000000000000000000000000000000000000000 DUP2 MSTORE PUSH1 0x4 ADD PUSH2 0x110E SWAP1 PUSH2 0x252A JUMP JUMPDEST PUSH1 0x40 MLOAD DUP1 SWAP2 SUB SWAP1 REVERT JUMPDEST PUSH1 0x0 PUSH20 0xFFFFFFFFFFFFFFFFFFFFFFFFFFFFFFFFFFFFFFFF AND DUP3 PUSH20 0xFFFFFFFFFFFFFFFFFFFFFFFFFFFFFFFFFFFFFFFF AND EQ ISZERO PUSH2 0x1187 JUMPI PUSH1 0x40 MLOAD PUSH32 0x8C379A000000000000000000000000000000000000000000000000000000000 DUP2 MSTORE PUSH1 0x4 ADD PUSH2 0x117E SWAP1 PUSH2 0x258A JUMP JUMPDEST PUSH1 0x40 MLOAD DUP1 SWAP2 SUB SWAP1 REVERT JUMPDEST PUSH2 0x1194 DUP4 DUP4 DUP4 PUSH1 0x1 PUSH2 0x1742 JUMP JUMPDEST DUP3 PUSH20 0xFFFFFFFFFFFFFFFFFFFFFFFFFFFFFFFFFFFFFFFF AND PUSH2 0x11B4 DUP3 PUSH2 0x98E JUMP JUMPDEST PUSH20 0xFFFFFFFFFFFFFFFFFFFFFFFFFFFFFFFFFFFFFFFF AND EQ PUSH2 0x120A JUMPI PUSH1 0x40 MLOAD PUSH32 0x8C379A000000000000000000000000000000000000000000000000000000000 DUP2 MSTORE PUSH1 0x4 ADD PUSH2 0x1201 SWAP1 PUSH2 0x252A JUMP JUMPDEST PUSH1 0x40 MLOAD DUP1 SWAP2 SUB SWAP1 REVERT JUMPDEST PUSH1 0x4 PUSH1 0x0 DUP3 DUP2 MSTORE PUSH1 0x20 ADD SWAP1 DUP2 MSTORE PUSH1 0x20 ADD PUSH1 0x0 KECCAK256 PUSH1 0x0 PUSH2 0x100 EXP DUP2 SLOAD SWAP1 PUSH20 0xFFFFFFFFFFFFFFFFFFFFFFFFFFFFFFFFFFFFFFFF MUL NOT AND SWAP1 SSTORE PUSH1 0x1 PUSH1 0x3 PUSH1 0x0 DUP6 PUSH20 0xFFFFFFFFFFFFFFFFFFFFFFFFFFFFFFFFFFFFFFFF AND PUSH20 0xFFFFFFFFFFFFFFFFFFFFFFFFFFFFFFFFFFFFFFFF AND DUP2 MSTORE PUSH1 0x20 ADD SWAP1 DUP2 MSTORE PUSH1 0x20 ADD PUSH1 0x0 KECCAK256 PUSH1 0x0 DUP3 DUP3 SLOAD SUB SWAP3 POP POP DUP2 SWAP1 SSTORE POP PUSH1 0x1 PUSH1 0x3 PUSH1 0x0 DUP5 PUSH20 0xFFFFFFFFFFFFFFFFFFFFFFFFFFFFFFFFFFFFFFFF AND PUSH20 0xFFFFFFFFFFFFFFFFFFFFFFFFFFFFFFFFFFFFFFFF AND DUP2 MSTORE PUSH1 0x20 ADD SWAP1 DUP2 MSTORE PUSH1 0x20 ADD PUSH1 0x0 KECCAK256 PUSH1 0x0 DUP3 DUP3 SLOAD ADD SWAP3 POP POP DUP2 SWAP1 SSTORE POP DUP2 PUSH1 0x2 PUSH1 0x0 DUP4 DUP2 MSTORE PUSH1 0x20 ADD SWAP1 DUP2 MSTORE PUSH1 0x20 ADD PUSH1 0x0 KECCAK256 PUSH1 0x0 PUSH2 0x100 EXP DUP2 SLOAD DUP2 PUSH20 0xFFFFFFFFFFFFFFFFFFFFFFFFFFFFFFFFFFFFFFFF MUL NOT AND SWAP1 DUP4 PUSH20 0xFFFFFFFFFFFFFFFFFFFFFFFFFFFFFFFFFFFFFFFF AND MUL OR SWAP1 SSTORE POP DUP1 DUP3 PUSH20 0xFFFFFFFFFFFFFFFFFFFFFFFFFFFFFFFFFFFFFFFF AND DUP5 PUSH20 0xFFFFFFFFFFFFFFFFFFFFFFFFFFFFFFFFFFFFFFFF AND PUSH32 0xDDF252AD1BE2C89B69C2B068FC378DAA952BA7F163C4A11628F55A4DF523B3EF PUSH1 0x40 MLOAD PUSH1 0x40 MLOAD DUP1 SWAP2 SUB SWAP1 LOG4 PUSH2 0x1396 DUP4 DUP4 DUP4 PUSH1 0x1 PUSH2 0x1868 JUMP JUMPDEST POP POP POP JUMP JUMPDEST PUSH1 0x0 DUP2 DUP4 PUSH2 0x13A9 SWAP2 SWAP1 PUSH2 0x29AA JUMP JUMPDEST SWAP1 POP SWAP3 SWAP2 POP POP JUMP JUMPDEST PUSH1 0x0 PUSH1 0x2 PUSH1 0x0 DUP4 DUP2 MSTORE PUSH1 0x20 ADD SWAP1 DUP2 MSTORE PUSH1 0x20 ADD PUSH1 0x0 KECCAK256 PUSH1 0x0 SWAP1 SLOAD SWAP1 PUSH2 0x100 EXP SWAP1 DIV PUSH20 0xFFFFFFFFFFFFFFFFFFFFFFFFFFFFFFFFFFFFFFFF AND SWAP1 POP SWAP2 SWAP1 POP JUMP JUMPDEST DUP2 PUSH20 0xFFFFFFFFFFFFFFFFFFFFFFFFFFFFFFFFFFFFFFFF AND DUP4 PUSH20 0xFFFFFFFFFFFFFFFFFFFFFFFFFFFFFFFFFFFFFFFF AND EQ ISZERO PUSH2 0x145D JUMPI PUSH1 0x40 MLOAD PUSH32 0x8C379A000000000000000000000000000000000000000000000000000000000 DUP2 MSTORE PUSH1 0x4 ADD PUSH2 0x1454 SWAP1 PUSH2 0x25AA JUMP JUMPDEST PUSH1 0x40 MLOAD DUP1 SWAP2 SUB SWAP1 REVERT JUMPDEST DUP1 PUSH1 0x5 PUSH1 0x0 DUP6 PUSH20 0xFFFFFFFFFFFFFFFFFFFFFFFFFFFFFFFFFFFFFFFF AND PUSH20 0xFFFFFFFFFFFFFFFFFFFFFFFFFFFFFFFFFFFFFFFF AND DUP2 MSTORE PUSH1 0x20 ADD SWAP1 DUP2 MSTORE PUSH1 0x20 ADD PUSH1 0x0 KECCAK256 PUSH1 0x0 DUP5 PUSH20 0xFFFFFFFFFFFFFFFFFFFFFFFFFFFFFFFFFFFFFFFF AND PUSH20 0xFFFFFFFFFFFFFFFFFFFFFFFFFFFFFFFFFFFFFFFF AND DUP2 MSTORE PUSH1 0x20 ADD SWAP1 DUP2 MSTORE PUSH1 0x20 ADD PUSH1 0x0 KECCAK256 PUSH1 0x0 PUSH2 0x100 EXP DUP2 SLOAD DUP2 PUSH1 0xFF MUL NOT AND SWAP1 DUP4 ISZERO ISZERO MUL OR SWAP1 SSTORE POP DUP2 PUSH20 0xFFFFFFFFFFFFFFFFFFFFFFFFFFFFFFFFFFFFFFFF AND DUP4 PUSH20 0xFFFFFFFFFFFFFFFFFFFFFFFFFFFFFFFFFFFFFFFF AND PUSH32 0x17307EAB39AB6107E8899845AD3D59BD9653F200F220920489CA2B5937696C31 DUP4 PUSH1 0x40 MLOAD PUSH2 0x154E SWAP2 SWAP1 PUSH2 0x248D JUMP JUMPDEST PUSH1 0x40 MLOAD DUP1 SWAP2 SUB SWAP1 LOG3 POP POP POP JUMP JUMPDEST PUSH2 0x1566 DUP5 DUP5 DUP5 PUSH2 0x10A1 JUMP JUMPDEST PUSH2 0x1572 DUP5 DUP5 DUP5 DUP5 PUSH2 0x186E JUMP JUMPDEST PUSH2 0x15B1 JUMPI PUSH1 0x40 MLOAD PUSH32 0x8C379A000000000000000000000000000000000000000000000000000000000 DUP2 MSTORE PUSH1 0x4 ADD PUSH2 0x15A8 SWAP1 PUSH2 0x250A JUMP JUMPDEST PUSH1 0x40 MLOAD DUP1 SWAP2 SUB SWAP1 REVERT JUMPDEST POP POP POP POP JUMP JUMPDEST PUSH1 0x60 PUSH1 0x40 MLOAD DUP1 PUSH1 0x20 ADD PUSH1 0x40 MSTORE DUP1 PUSH1 0x0 DUP2 MSTORE POP SWAP1 POP SWAP1 JUMP JUMPDEST PUSH1 0x60 PUSH1 0x0 PUSH1 0x1 PUSH2 0x15DD DUP5 PUSH2 0x1A05 JUMP JUMPDEST ADD SWAP1 POP PUSH1 0x0 DUP2 PUSH8 0xFFFFFFFFFFFFFFFF DUP2 GT ISZERO PUSH2 0x15FC JUMPI PUSH2 0x15FB PUSH2 0x2A68 JUMP JUMPDEST JUMPDEST PUSH1 0x40 MLOAD SWAP1 DUP1 DUP3 MSTORE DUP1 PUSH1 0x1F ADD PUSH1 0x1F NOT AND PUSH1 0x20 ADD DUP3 ADD PUSH1 0x40 MSTORE DUP1 ISZERO PUSH2 0x162E JUMPI DUP2 PUSH1 0x20 ADD PUSH1 0x1 DUP3 MUL DUP1 CALLDATASIZE DUP4 CALLDATACOPY DUP1 DUP3 ADD SWAP2 POP POP SWAP1 POP JUMPDEST POP SWAP1 POP PUSH1 0x0 DUP3 PUSH1 0x20 ADD DUP3 ADD SWAP1 POP JUMPDEST PUSH1 0x1 ISZERO PUSH2 0x169B JUMPI DUP1 DUP1 PUSH1 0x1 SWAP1 SUB SWAP2 POP POP PUSH32 0x3031323334353637383961626364656600000000000000000000000000000000 PUSH1 0xA DUP7 MOD BYTE DUP2 MSTORE8 PUSH1 0xA DUP6 DUP2 PUSH2 0x1685 JUMPI PUSH2 0x1684 PUSH2 0x2A0A JUMP JUMPDEST JUMPDEST DIV SWAP5 POP PUSH1 0x0 DUP6 EQ ISZERO PUSH2 0x1696 JUMPI PUSH2 0x169B JUMP JUMPDEST PUSH2 0x163C JUMP JUMPDEST DUP2 SWAP4 POP POP POP POP SWAP2 SWAP1 POP JUMP JUMPDEST PUSH1 0x0 DUP1 PUSH20 0xFFFFFFFFFFFFFFFFFFFFFFFFFFFFFFFFFFFFFFFF AND PUSH2 0x16C8 DUP4 PUSH2 0x13B1 JUMP JUMPDEST PUSH20 0xFFFFFFFFFFFFFFFFFFFFFFFFFFFFFFFFFFFFFFFF AND EQ ISZERO SWAP1 POP SWAP2 SWAP1 POP JUMP JUMPDEST PUSH2 0x16F1 DUP4 DUP4 PUSH2 0x1B58 JUMP JUMPDEST PUSH2 0x16FE PUSH1 0x0 DUP5 DUP5 DUP5 PUSH2 0x186E JUMP JUMPDEST PUSH2 0x173D JUMPI PUSH1 0x40 MLOAD PUSH32 0x8C379A000000000000000000000000000000000000000000000000000000000 DUP2 MSTORE PUSH1 0x4 ADD PUSH2 0x1734 SWAP1 PUSH2 0x250A JUMP JUMPDEST PUSH1 0x40 MLOAD DUP1 SWAP2 SUB SWAP1 REVERT JUMPDEST POP POP POP JUMP JUMPDEST PUSH1 0x1 DUP2 GT ISZERO PUSH2 0x1862 JUMPI PUSH1 0x0 PUSH20 0xFFFFFFFFFFFFFFFFFFFFFFFFFFFFFFFFFFFFFFFF AND DUP5 PUSH20 0xFFFFFFFFFFFFFFFFFFFFFFFFFFFFFFFFFFFFFFFF AND EQ PUSH2 0x17D6 JUMPI DUP1 PUSH1 0x3 PUSH1 0x0 DUP7 PUSH20 0xFFFFFFFFFFFFFFFFFFFFFFFFFFFFFFFFFFFFFFFF AND PUSH20 0xFFFFFFFFFFFFFFFFFFFFFFFFFFFFFFFFFFFFFFFF AND DUP2 MSTORE PUSH1 0x20 ADD SWAP1 DUP2 MSTORE PUSH1 0x20 ADD PUSH1 0x0 KECCAK256 PUSH1 0x0 DUP3 DUP3 SLOAD PUSH2 0x17CE SWAP2 SWAP1 PUSH2 0x2814 JUMP JUMPDEST SWAP3 POP POP DUP2 SWAP1 SSTORE POP JUMPDEST PUSH1 0x0 PUSH20 0xFFFFFFFFFFFFFFFFFFFFFFFFFFFFFFFFFFFFFFFF AND DUP4 PUSH20 0xFFFFFFFFFFFFFFFFFFFFFFFFFFFFFFFFFFFFFFFF AND EQ PUSH2 0x1861 JUMPI DUP1 PUSH1 0x3 PUSH1 0x0 DUP6 PUSH20 0xFFFFFFFFFFFFFFFFFFFFFFFFFFFFFFFFFFFFFFFF AND PUSH20 0xFFFFFFFFFFFFFFFFFFFFFFFFFFFFFFFFFFFFFFFF AND DUP2 MSTORE PUSH1 0x20 ADD SWAP1 DUP2 MSTORE PUSH1 0x20 ADD PUSH1 0x0 KECCAK256 PUSH1 0x0 DUP3 DUP3 SLOAD PUSH2 0x1859 SWAP2 SWAP1 PUSH2 0x27BE JUMP JUMPDEST SWAP3 POP POP DUP2 SWAP1 SSTORE POP JUMPDEST JUMPDEST POP POP POP POP JUMP JUMPDEST POP POP POP POP JUMP JUMPDEST PUSH1 0x0 PUSH2 0x188F DUP5 PUSH20 0xFFFFFFFFFFFFFFFFFFFFFFFFFFFFFFFFFFFFFFFF AND PUSH2 0x1D76 JUMP JUMPDEST ISZERO PUSH2 0x19F8 JUMPI DUP4 PUSH20 0xFFFFFFFFFFFFFFFFFFFFFFFFFFFFFFFFFFFFFFFF AND PUSH4 0x150B7A02 PUSH2 0x18B8 PUSH2 0xF17 JUMP JUMPDEST DUP8 DUP7 DUP7 PUSH1 0x40 MLOAD DUP6 PUSH4 0xFFFFFFFF AND PUSH1 0xE0 SHL DUP2 MSTORE PUSH1 0x4 ADD PUSH2 0x18DA SWAP5 SWAP4 SWAP3 SWAP2 SWAP1 PUSH2 0x2441 JUMP JUMPDEST PUSH1 0x20 PUSH1 0x40 MLOAD DUP1 DUP4 SUB DUP2 PUSH1 0x0 DUP8 DUP1 EXTCODESIZE ISZERO DUP1 ISZERO PUSH2 0x18F4 JUMPI PUSH1 0x0 DUP1 REVERT JUMPDEST POP GAS CALL SWAP3 POP POP POP DUP1 ISZERO PUSH2 0x1925 JUMPI POP PUSH1 0x40 MLOAD RETURNDATASIZE PUSH1 0x1F NOT PUSH1 0x1F DUP3 ADD AND DUP3 ADD DUP1 PUSH1 0x40 MSTORE POP DUP2 ADD SWAP1 PUSH2 0x1922 SWAP2 SWAP1 PUSH2 0x2062 JUMP JUMPDEST PUSH1 0x1 JUMPDEST PUSH2 0x19A8 JUMPI RETURNDATASIZE DUP1 PUSH1 0x0 DUP2 EQ PUSH2 0x1955 JUMPI PUSH1 0x40 MLOAD SWAP2 POP PUSH1 0x1F NOT PUSH1 0x3F RETURNDATASIZE ADD AND DUP3 ADD PUSH1 0x40 MSTORE RETURNDATASIZE DUP3 MSTORE RETURNDATASIZE PUSH1 0x0 PUSH1 0x20 DUP5 ADD RETURNDATACOPY PUSH2 0x195A JUMP JUMPDEST PUSH1 0x60 SWAP2 POP JUMPDEST POP PUSH1 0x0 DUP2 MLOAD EQ ISZERO PUSH2 0x19A0 JUMPI PUSH1 0x40 MLOAD PUSH32 0x8C379A000000000000000000000000000000000000000000000000000000000 DUP2 MSTORE PUSH1 0x4 ADD PUSH2 0x1997 SWAP1 PUSH2 0x250A JUMP JUMPDEST PUSH1 0x40 MLOAD DUP1 SWAP2 SUB SWAP1 REVERT JUMPDEST DUP1 MLOAD DUP2 PUSH1 0x20 ADD REVERT JUMPDEST PUSH4 0x150B7A02 PUSH1 0xE0 SHL PUSH28 0xFFFFFFFFFFFFFFFFFFFFFFFFFFFFFFFFFFFFFFFFFFFFFFFFFFFFFFFF NOT AND DUP2 PUSH28 0xFFFFFFFFFFFFFFFFFFFFFFFFFFFFFFFFFFFFFFFFFFFFFFFFFFFFFFFF NOT AND EQ SWAP2 POP POP PUSH2 0x19FD JUMP JUMPDEST PUSH1 0x1 SWAP1 POP JUMPDEST SWAP5 SWAP4 POP POP POP POP JUMP JUMPDEST PUSH1 0x0 DUP1 PUSH1 0x0 SWAP1 POP PUSH27 0x184F03E93FF9F4DAA797ED6E38ED64BF6A1F010000000000000000 DUP4 LT PUSH2 0x1A63 JUMPI PUSH27 0x184F03E93FF9F4DAA797ED6E38ED64BF6A1F010000000000000000 DUP4 DUP2 PUSH2 0x1A59 JUMPI PUSH2 0x1A58 PUSH2 0x2A0A JUMP JUMPDEST JUMPDEST DIV SWAP3 POP PUSH1 0x40 DUP2 ADD SWAP1 POP JUMPDEST PUSH14 0x4EE2D6D415B85ACEF8100000000 DUP4 LT PUSH2 0x1AA0 JUMPI PUSH14 0x4EE2D6D415B85ACEF8100000000 DUP4 DUP2 PUSH2 0x1A96 JUMPI PUSH2 0x1A95 PUSH2 0x2A0A JUMP JUMPDEST JUMPDEST DIV SWAP3 POP PUSH1 0x20 DUP2 ADD SWAP1 POP JUMPDEST PUSH7 0x2386F26FC10000 DUP4 LT PUSH2 0x1ACF JUMPI PUSH7 0x2386F26FC10000 DUP4 DUP2 PUSH2 0x1AC5 JUMPI PUSH2 0x1AC4 PUSH2 0x2A0A JUMP JUMPDEST JUMPDEST DIV SWAP3 POP PUSH1 0x10 DUP2 ADD SWAP1 POP JUMPDEST PUSH4 0x5F5E100 DUP4 LT PUSH2 0x1AF8 JUMPI PUSH4 0x5F5E100 DUP4 DUP2 PUSH2 0x1AEE JUMPI PUSH2 0x1AED PUSH2 0x2A0A JUMP JUMPDEST JUMPDEST DIV SWAP3 POP PUSH1 0x8 DUP2 ADD SWAP1 POP JUMPDEST PUSH2 0x2710 DUP4 LT PUSH2 0x1B1D JUMPI PUSH2 0x2710 DUP4 DUP2 PUSH2 0x1B13 JUMPI PUSH2 0x1B12 PUSH2 0x2A0A JUMP JUMPDEST JUMPDEST DIV SWAP3 POP PUSH1 0x4 DUP2 ADD SWAP1 POP JUMPDEST PUSH1 0x64 DUP4 LT PUSH2 0x1B40 JUMPI PUSH1 0x64 DUP4 DUP2 PUSH2 0x1B36 JUMPI PUSH2 0x1B35 PUSH2 0x2A0A JUMP JUMPDEST JUMPDEST DIV SWAP3 POP PUSH1 0x2 DUP2 ADD SWAP1 POP JUMPDEST PUSH1 0xA DUP4 LT PUSH2 0x1B4F JUMPI PUSH1 0x1 DUP2 ADD SWAP1 POP JUMPDEST DUP1 SWAP2 POP POP SWAP2 SWAP1 POP JUMP JUMPDEST PUSH1 0x0 PUSH20 0xFFFFFFFFFFFFFFFFFFFFFFFFFFFFFFFFFFFFFFFF AND DUP3 PUSH20 0xFFFFFFFFFFFFFFFFFFFFFFFFFFFFFFFFFFFFFFFF AND EQ ISZERO PUSH2 0x1BC8 JUMPI PUSH1 0x40 MLOAD PUSH32 0x8C379A000000000000000000000000000000000000000000000000000000000 DUP2 MSTORE PUSH1 0x4 ADD PUSH2 0x1BBF SWAP1 PUSH2 0x25EA JUMP JUMPDEST PUSH1 0x40 MLOAD DUP1 SWAP2 SUB SWAP1 REVERT JUMPDEST PUSH2 0x1BD1 DUP2 PUSH2 0x16A6 JUMP JUMPDEST ISZERO PUSH2 0x1C11 JUMPI PUSH1 0x40 MLOAD PUSH32 0x8C379A000000000000000000000000000000000000000000000000000000000 DUP2 MSTORE PUSH1 0x4 ADD PUSH2 0x1C08 SWAP1 PUSH2 0x254A JUMP JUMPDEST PUSH1 0x40 MLOAD DUP1 SWAP2 SUB SWAP1 REVERT JUMPDEST PUSH2 0x1C1F PUSH1 0x0 DUP4 DUP4 PUSH1 0x1 PUSH2 0x1742 JUMP JUMPDEST PUSH2 0x1C28 DUP2 PUSH2 0x16A6 JUMP JUMPDEST ISZERO PUSH2 0x1C68 JUMPI PUSH1 0x40 MLOAD PUSH32 0x8C379A000000000000000000000000000000000000000000000000000000000 DUP2 MSTORE PUSH1 0x4 ADD PUSH2 0x1C5F SWAP1 PUSH2 0x254A JUMP JUMPDEST PUSH1 0x40 MLOAD DUP1 SWAP2 SUB SWAP1 REVERT JUMPDEST PUSH1 0x1 PUSH1 0x3 PUSH1 0x0 DUP5 PUSH20 0xFFFFFFFFFFFFFFFFFFFFFFFFFFFFFFFFFFFFFFFF AND PUSH20 0xFFFFFFFFFFFFFFFFFFFFFFFFFFFFFFFFFFFFFFFF AND DUP2 MSTORE PUSH1 0x20 ADD SWAP1 DUP2 MSTORE PUSH1 0x20 ADD PUSH1 0x0 KECCAK256 PUSH1 0x0 DUP3 DUP3 SLOAD ADD SWAP3 POP POP DUP2 SWAP1 SSTORE POP DUP2 PUSH1 0x2 PUSH1 0x0 DUP4 DUP2 MSTORE PUSH1 0x20 ADD SWAP1 DUP2 MSTORE PUSH1 0x20 ADD PUSH1 0x0 KECCAK256 PUSH1 0x0 PUSH2 0x100 EXP DUP2 SLOAD DUP2 PUSH20 0xFFFFFFFFFFFFFFFFFFFFFFFFFFFFFFFFFFFFFFFF MUL NOT AND SWAP1 DUP4 PUSH20 0xFFFFFFFFFFFFFFFFFFFFFFFFFFFFFFFFFFFFFFFF AND MUL OR SWAP1 SSTORE POP DUP1 DUP3 PUSH20 0xFFFFFFFFFFFFFFFFFFFFFFFFFFFFFFFFFFFFFFFF AND PUSH1 0x0 PUSH20 0xFFFFFFFFFFFFFFFFFFFFFFFFFFFFFFFFFFFFFFFF AND PUSH32 0xDDF252AD1BE2C89B69C2B068FC378DAA952BA7F163C4A11628F55A4DF523B3EF PUSH1 0x40 MLOAD PUSH1 0x40 MLOAD DUP1 SWAP2 SUB SWAP1 LOG4 PUSH2 0x1D72 PUSH1 0x0 DUP4 DUP4 PUSH1 0x1 PUSH2 0x1868 JUMP JUMPDEST POP POP JUMP JUMPDEST PUSH1 0x0 DUP1 DUP3 PUSH20 0xFFFFFFFFFFFFFFFFFFFFFFFFFFFFFFFFFFFFFFFF AND EXTCODESIZE GT SWAP1 POP SWAP2 SWAP1 POP JUMP JUMPDEST PUSH1 0x0 PUSH2 0x1DAC PUSH2 0x1DA7 DUP5 PUSH2 0x274A JUMP JUMPDEST PUSH2 0x2725 JUMP JUMPDEST SWAP1 POP DUP3 DUP2 MSTORE PUSH1 0x20 DUP2 ADD DUP5 DUP5 DUP5 ADD GT ISZERO PUSH2 0x1DC8 JUMPI PUSH2 0x1DC7 PUSH2 0x2A9C JUMP JUMPDEST JUMPDEST PUSH2 0x1DD3 DUP5 DUP3 DUP6 PUSH2 0x28BC JUMP JUMPDEST POP SWAP4 SWAP3 POP POP POP JUMP JUMPDEST PUSH1 0x0 DUP2 CALLDATALOAD SWAP1 POP PUSH2 0x1DEA DUP2 PUSH2 0x2EF4 JUMP JUMPDEST SWAP3 SWAP2 POP POP JUMP JUMPDEST PUSH1 0x0 DUP2 CALLDATALOAD SWAP1 POP PUSH2 0x1DFF DUP2 PUSH2 0x2F0B JUMP JUMPDEST SWAP3 SWAP2 POP POP JUMP JUMPDEST PUSH1 0x0 DUP2 CALLDATALOAD SWAP1 POP PUSH2 0x1E14 DUP2 PUSH2 0x2F22 JUMP JUMPDEST SWAP3 SWAP2 POP POP JUMP JUMPDEST PUSH1 0x0 DUP2 MLOAD SWAP1 POP PUSH2 0x1E29 DUP2 PUSH2 0x2F22 JUMP JUMPDEST SWAP3 SWAP2 POP POP JUMP JUMPDEST PUSH1 0x0 DUP3 PUSH1 0x1F DUP4 ADD SLT PUSH2 0x1E44 JUMPI PUSH2 0x1E43 PUSH2 0x2A97 JUMP JUMPDEST JUMPDEST DUP2 CALLDATALOAD PUSH2 0x1E54 DUP5 DUP3 PUSH1 0x20 DUP7 ADD PUSH2 0x1D99 JUMP JUMPDEST SWAP2 POP POP SWAP3 SWAP2 POP POP JUMP JUMPDEST PUSH1 0x0 DUP2 CALLDATALOAD SWAP1 POP PUSH2 0x1E6C DUP2 PUSH2 0x2F39 JUMP JUMPDEST SWAP3 SWAP2 POP POP JUMP JUMPDEST PUSH1 0x0 PUSH1 0x20 DUP3 DUP5 SUB SLT ISZERO PUSH2 0x1E88 JUMPI PUSH2 0x1E87 PUSH2 0x2AA6 JUMP JUMPDEST JUMPDEST PUSH1 0x0 PUSH2 0x1E96 DUP5 DUP3 DUP6 ADD PUSH2 0x1DDB JUMP JUMPDEST SWAP2 POP POP SWAP3 SWAP2 POP POP JUMP JUMPDEST PUSH1 0x0 DUP1 PUSH1 0x40 DUP4 DUP6 SUB SLT ISZERO PUSH2 0x1EB6 JUMPI PUSH2 0x1EB5 PUSH2 0x2AA6 JUMP JUMPDEST JUMPDEST PUSH1 0x0 PUSH2 0x1EC4 DUP6 DUP3 DUP7 ADD PUSH2 0x1DDB JUMP JUMPDEST SWAP3 POP POP PUSH1 0x20 PUSH2 0x1ED5 DUP6 DUP3 DUP7 ADD PUSH2 0x1DDB JUMP JUMPDEST SWAP2 POP POP SWAP3 POP SWAP3 SWAP1 POP JUMP JUMPDEST PUSH1 0x0 DUP1 PUSH1 0x0 PUSH1 0x60 DUP5 DUP7 SUB SLT ISZERO PUSH2 0x1EF8 JUMPI PUSH2 0x1EF7 PUSH2 0x2AA6 JUMP JUMPDEST JUMPDEST PUSH1 0x0 PUSH2 0x1F06 DUP7 DUP3 DUP8 ADD PUSH2 0x1DDB JUMP JUMPDEST SWAP4 POP POP PUSH1 0x20 PUSH2 0x1F17 DUP7 DUP3 DUP8 ADD PUSH2 0x1DDB JUMP JUMPDEST SWAP3 POP POP PUSH1 0x40 PUSH2 0x1F28 DUP7 DUP3 DUP8 ADD PUSH2 0x1E5D JUMP JUMPDEST SWAP2 POP POP SWAP3 POP SWAP3 POP SWAP3 JUMP JUMPDEST PUSH1 0x0 DUP1 PUSH1 0x0 DUP1 PUSH1 0x80 DUP6 DUP8 SUB SLT ISZERO PUSH2 0x1F4C JUMPI PUSH2 0x1F4B PUSH2 0x2AA6 JUMP JUMPDEST JUMPDEST PUSH1 0x0 PUSH2 0x1F5A DUP8 DUP3 DUP9 ADD PUSH2 0x1DDB JUMP JUMPDEST SWAP5 POP POP PUSH1 0x20 PUSH2 0x1F6B DUP8 DUP3 DUP9 ADD PUSH2 0x1DDB JUMP JUMPDEST SWAP4 POP POP PUSH1 0x40 PUSH2 0x1F7C DUP8 DUP3 DUP9 ADD PUSH2 0x1E5D JUMP JUMPDEST SWAP3 POP POP PUSH1 0x60 DUP6 ADD CALLDATALOAD PUSH8 0xFFFFFFFFFFFFFFFF DUP2 GT ISZERO PUSH2 0x1F9D JUMPI PUSH2 0x1F9C PUSH2 0x2AA1 JUMP JUMPDEST JUMPDEST PUSH2 0x1FA9 DUP8 DUP3 DUP9 ADD PUSH2 0x1E2F JUMP JUMPDEST SWAP2 POP POP SWAP3 SWAP6 SWAP2 SWAP5 POP SWAP3 POP JUMP JUMPDEST PUSH1 0x0 DUP1 PUSH1 0x40 DUP4 DUP6 SUB SLT ISZERO PUSH2 0x1FCC JUMPI PUSH2 0x1FCB PUSH2 0x2AA6 JUMP JUMPDEST JUMPDEST PUSH1 0x0 PUSH2 0x1FDA DUP6 DUP3 DUP7 ADD PUSH2 0x1DDB JUMP JUMPDEST SWAP3 POP POP PUSH1 0x20 PUSH2 0x1FEB DUP6 DUP3 DUP7 ADD PUSH2 0x1DF0 JUMP JUMPDEST SWAP2 POP POP SWAP3 POP SWAP3 SWAP1 POP JUMP JUMPDEST PUSH1 0x0 DUP1 PUSH1 0x40 DUP4 DUP6 SUB SLT ISZERO PUSH2 0x200C JUMPI PUSH2 0x200B PUSH2 0x2AA6 JUMP JUMPDEST JUMPDEST PUSH1 0x0 PUSH2 0x201A DUP6 DUP3 DUP7 ADD PUSH2 0x1DDB JUMP JUMPDEST SWAP3 POP POP PUSH1 0x20 PUSH2 0x202B DUP6 DUP3 DUP7 ADD PUSH2 0x1E5D JUMP JUMPDEST SWAP2 POP POP SWAP3 POP SWAP3 SWAP1 POP JUMP JUMPDEST PUSH1 0x0 PUSH1 0x20 DUP3 DUP5 SUB SLT ISZERO PUSH2 0x204B JUMPI PUSH2 0x204A PUSH2 0x2AA6 JUMP JUMPDEST JUMPDEST PUSH1 0x0 PUSH2 0x2059 DUP5 DUP3 DUP6 ADD PUSH2 0x1E05 JUMP JUMPDEST SWAP2 POP POP SWAP3 SWAP2 POP POP JUMP JUMPDEST PUSH1 0x0 PUSH1 0x20 DUP3 DUP5 SUB SLT ISZERO PUSH2 0x2078 JUMPI PUSH2 0x2077 PUSH2 0x2AA6 JUMP JUMPDEST JUMPDEST PUSH1 0x0 PUSH2 0x2086 DUP5 DUP3 DUP6 ADD PUSH2 0x1E1A JUMP JUMPDEST SWAP2 POP POP SWAP3 SWAP2 POP POP JUMP JUMPDEST PUSH1 0x0 PUSH1 0x20 DUP3 DUP5 SUB SLT ISZERO PUSH2 0x20A5 JUMPI PUSH2 0x20A4 PUSH2 0x2AA6 JUMP JUMPDEST JUMPDEST PUSH1 0x0 PUSH2 0x20B3 DUP5 DUP3 DUP6 ADD PUSH2 0x1E5D JUMP JUMPDEST SWAP2 POP POP SWAP3 SWAP2 POP POP JUMP JUMPDEST PUSH2 0x20C5 DUP2 PUSH2 0x2848 JUMP JUMPDEST DUP3 MSTORE POP POP JUMP JUMPDEST PUSH2 0x20D4 DUP2 PUSH2 0x285A JUMP JUMPDEST DUP3 MSTORE POP POP JUMP JUMPDEST PUSH1 0x0 PUSH2 0x20E5 DUP3 PUSH2 0x277B JUMP JUMPDEST PUSH2 0x20EF DUP2 DUP6 PUSH2 0x2791 JUMP JUMPDEST SWAP4 POP PUSH2 0x20FF DUP2 DUP6 PUSH1 0x20 DUP7 ADD PUSH2 0x28CB JUMP JUMPDEST PUSH2 0x2108 DUP2 PUSH2 0x2AAB JUMP JUMPDEST DUP5 ADD SWAP2 POP POP SWAP3 SWAP2 POP POP JUMP JUMPDEST PUSH1 0x0 PUSH2 0x211E DUP3 PUSH2 0x2786 JUMP JUMPDEST PUSH2 0x2128 DUP2 DUP6 PUSH2 0x27A2 JUMP JUMPDEST SWAP4 POP PUSH2 0x2138 DUP2 DUP6 PUSH1 0x20 DUP7 ADD PUSH2 0x28CB JUMP JUMPDEST PUSH2 0x2141 DUP2 PUSH2 0x2AAB JUMP JUMPDEST DUP5 ADD SWAP2 POP POP SWAP3 SWAP2 POP POP JUMP JUMPDEST PUSH1 0x0 PUSH2 0x2157 DUP3 PUSH2 0x2786 JUMP JUMPDEST PUSH2 0x2161 DUP2 DUP6 PUSH2 0x27B3 JUMP JUMPDEST SWAP4 POP PUSH2 0x2171 DUP2 DUP6 PUSH1 0x20 DUP7 ADD PUSH2 0x28CB JUMP JUMPDEST DUP1 DUP5 ADD SWAP2 POP POP SWAP3 SWAP2 POP POP JUMP JUMPDEST PUSH1 0x0 PUSH2 0x218A PUSH1 0xB DUP4 PUSH2 0x27A2 JUMP JUMPDEST SWAP2 POP PUSH2 0x2195 DUP3 PUSH2 0x2ABC JUMP JUMPDEST PUSH1 0x20 DUP3 ADD SWAP1 POP SWAP2 SWAP1 POP JUMP JUMPDEST PUSH1 0x0 PUSH2 0x21AD PUSH1 0x2D DUP4 PUSH2 0x27A2 JUMP JUMPDEST SWAP2 POP PUSH2 0x21B8 DUP3 PUSH2 0x2AE5 JUMP JUMPDEST PUSH1 0x40 DUP3 ADD SWAP1 POP SWAP2 SWAP1 POP JUMP JUMPDEST PUSH1 0x0 PUSH2 0x21D0 PUSH1 0x32 DUP4 PUSH2 0x27A2 JUMP JUMPDEST SWAP2 POP PUSH2 0x21DB DUP3 PUSH2 0x2B34 JUMP JUMPDEST PUSH1 0x40 DUP3 ADD SWAP1 POP SWAP2 SWAP1 POP JUMP JUMPDEST PUSH1 0x0 PUSH2 0x21F3 PUSH1 0x25 DUP4 PUSH2 0x27A2 JUMP JUMPDEST SWAP2 POP PUSH2 0x21FE DUP3 PUSH2 0x2B83 JUMP JUMPDEST PUSH1 0x40 DUP3 ADD SWAP1 POP SWAP2 SWAP1 POP JUMP JUMPDEST PUSH1 0x0 PUSH2 0x2216 PUSH1 0x1C DUP4 PUSH2 0x27A2 JUMP JUMPDEST SWAP2 POP PUSH2 0x2221 DUP3 PUSH2 0x2BD2 JUMP JUMPDEST PUSH1 0x20 DUP3 ADD SWAP1 POP SWAP2 SWAP1 POP JUMP JUMPDEST PUSH1 0x0 PUSH2 0x2239 PUSH1 0x23 DUP4 PUSH2 0x27A2 JUMP JUMPDEST SWAP2 POP PUSH2 0x2244 DUP3 PUSH2 0x2BFB JUMP JUMPDEST PUSH1 0x40 DUP3 ADD SWAP1 POP SWAP2 SWAP1 POP JUMP JUMPDEST PUSH1 0x0 PUSH2 0x225C PUSH1 0x24 DUP4 PUSH2 0x27A2 JUMP JUMPDEST SWAP2 POP PUSH2 0x2267 DUP3 PUSH2 0x2C4A JUMP JUMPDEST PUSH1 0x40 DUP3 ADD SWAP1 POP SWAP2 SWAP1 POP JUMP JUMPDEST PUSH1 0x0 PUSH2 0x227F PUSH1 0x19 DUP4 PUSH2 0x27A2 JUMP JUMPDEST SWAP2 POP PUSH2 0x228A DUP3 PUSH2 0x2C99 JUMP JUMPDEST PUSH1 0x20 DUP3 ADD SWAP1 POP SWAP2 SWAP1 POP JUMP JUMPDEST PUSH1 0x0 PUSH2 0x22A2 PUSH1 0x29 DUP4 PUSH2 0x27A2 JUMP JUMPDEST SWAP2 POP PUSH2 0x22AD DUP3 PUSH2 0x2CC2 JUMP JUMPDEST PUSH1 0x40 DUP3 ADD SWAP1 POP SWAP2 SWAP1 POP JUMP JUMPDEST PUSH1 0x0 PUSH2 0x22C5 PUSH1 0x20 DUP4 PUSH2 0x27A2 JUMP JUMPDEST SWAP2 POP PUSH2 0x22D0 DUP3 PUSH2 0x2D11 JUMP JUMPDEST PUSH1 0x20 DUP3 ADD SWAP1 POP SWAP2 SWAP1 POP JUMP JUMPDEST PUSH1 0x0 PUSH2 0x22E8 PUSH1 0x18 DUP4 PUSH2 0x27A2 JUMP JUMPDEST SWAP2 POP PUSH2 0x22F3 DUP3 PUSH2 0x2D3A JUMP JUMPDEST PUSH1 0x20 DUP3 ADD SWAP1 POP SWAP2 SWAP1 POP JUMP JUMPDEST PUSH1 0x0 PUSH2 0x230B PUSH1 0xC DUP4 PUSH2 0x27A2 JUMP JUMPDEST SWAP2 POP PUSH2 0x2316 DUP3 PUSH2 0x2D63 JUMP JUMPDEST PUSH1 0x20 DUP3 ADD SWAP1 POP SWAP2 SWAP1 POP JUMP JUMPDEST PUSH1 0x0 PUSH2 0x232E PUSH1 0x21 DUP4 PUSH2 0x27A2 JUMP JUMPDEST SWAP2 POP PUSH2 0x2339 DUP3 PUSH2 0x2D8C JUMP JUMPDEST PUSH1 0x40 DUP3 ADD SWAP1 POP SWAP2 SWAP1 POP JUMP JUMPDEST PUSH1 0x0 PUSH2 0x2351 PUSH1 0x3D DUP4 PUSH2 0x27A2 JUMP JUMPDEST SWAP2 POP PUSH2 0x235C DUP3 PUSH2 0x2DDB JUMP JUMPDEST PUSH1 0x40 DUP3 ADD SWAP1 POP SWAP2 SWAP1 POP JUMP JUMPDEST PUSH1 0x0 PUSH2 0x2374 PUSH1 0xB DUP4 PUSH2 0x27A2 JUMP JUMPDEST SWAP2 POP PUSH2 0x237F DUP3 PUSH2 0x2E2A JUMP JUMPDEST PUSH1 0x20 DUP3 ADD SWAP1 POP SWAP2 SWAP1 POP JUMP JUMPDEST PUSH1 0x0 PUSH2 0x2397 PUSH1 0x36 DUP4 PUSH2 0x27A2 JUMP JUMPDEST SWAP2 POP PUSH2 0x23A2 DUP3 PUSH2 0x2E53 JUMP JUMPDEST PUSH1 0x40 DUP3 ADD SWAP1 POP SWAP2 SWAP1 POP JUMP JUMPDEST PUSH1 0x0 PUSH2 0x23BA PUSH1 0xA DUP4 PUSH2 0x27A2 JUMP JUMPDEST SWAP2 POP PUSH2 0x23C5 DUP3 PUSH2 0x2EA2 JUMP JUMPDEST PUSH1 0x20 DUP3 ADD SWAP1 POP SWAP2 SWAP1 POP JUMP JUMPDEST PUSH1 0x0 PUSH2 0x23DD PUSH1 0xB DUP4 PUSH2 0x27A2 JUMP JUMPDEST SWAP2 POP PUSH2 0x23E8 DUP3 PUSH2 0x2ECB JUMP JUMPDEST PUSH1 0x20 DUP3 ADD SWAP1 POP SWAP2 SWAP1 POP JUMP JUMPDEST PUSH2 0x23FC DUP2 PUSH2 0x28B2 JUMP JUMPDEST DUP3 MSTORE POP POP JUMP JUMPDEST PUSH1 0x0 PUSH2 0x240E DUP3 DUP6 PUSH2 0x214C JUMP JUMPDEST SWAP2 POP PUSH2 0x241A DUP3 DUP5 PUSH2 0x214C JUMP JUMPDEST SWAP2 POP DUP2 SWAP1 POP SWAP4 SWAP3 POP POP POP JUMP JUMPDEST PUSH1 0x0 PUSH1 0x20 DUP3 ADD SWAP1 POP PUSH2 0x243B PUSH1 0x0 DUP4 ADD DUP5 PUSH2 0x20BC JUMP JUMPDEST SWAP3 SWAP2 POP POP JUMP JUMPDEST PUSH1 0x0 PUSH1 0x80 DUP3 ADD SWAP1 POP PUSH2 0x2456 PUSH1 0x0 DUP4 ADD DUP8 PUSH2 0x20BC JUMP JUMPDEST PUSH2 0x2463 PUSH1 0x20 DUP4 ADD DUP7 PUSH2 0x20BC JUMP JUMPDEST PUSH2 0x2470 PUSH1 0x40 DUP4 ADD DUP6 PUSH2 0x23F3 JUMP JUMPDEST DUP2 DUP2 SUB PUSH1 0x60 DUP4 ADD MSTORE PUSH2 0x2482 DUP2 DUP5 PUSH2 0x20DA JUMP JUMPDEST SWAP1 POP SWAP6 SWAP5 POP POP POP POP POP JUMP JUMPDEST PUSH1 0x0 PUSH1 0x20 DUP3 ADD SWAP1 POP PUSH2 0x24A2 PUSH1 0x0 DUP4 ADD DUP5 PUSH2 0x20CB JUMP JUMPDEST SWAP3 SWAP2 POP POP JUMP JUMPDEST PUSH1 0x0 PUSH1 0x20 DUP3 ADD SWAP1 POP DUP2 DUP2 SUB PUSH1 0x0 DUP4 ADD MSTORE PUSH2 0x24C2 DUP2 DUP5 PUSH2 0x2113 JUMP JUMPDEST SWAP1 POP SWAP3 SWAP2 POP POP JUMP JUMPDEST PUSH1 0x0 PUSH1 0x20 DUP3 ADD SWAP1 POP DUP2 DUP2 SUB PUSH1 0x0 DUP4 ADD MSTORE PUSH2 0x24E3 DUP2 PUSH2 0x217D JUMP JUMPDEST SWAP1 POP SWAP2 SWAP1 POP JUMP JUMPDEST PUSH1 0x0 PUSH1 0x20 DUP3 ADD SWAP1 POP DUP2 DUP2 SUB PUSH1 0x0 DUP4 ADD MSTORE PUSH2 0x2503 DUP2 PUSH2 0x21A0 JUMP JUMPDEST SWAP1 POP SWAP2 SWAP1 POP JUMP JUMPDEST PUSH1 0x0 PUSH1 0x20 DUP3 ADD SWAP1 POP DUP2 DUP2 SUB PUSH1 0x0 DUP4 ADD MSTORE PUSH2 0x2523 DUP2 PUSH2 0x21C3 JUMP JUMPDEST SWAP1 POP SWAP2 SWAP1 POP JUMP JUMPDEST PUSH1 0x0 PUSH1 0x20 DUP3 ADD SWAP1 POP DUP2 DUP2 SUB PUSH1 0x0 DUP4 ADD MSTORE PUSH2 0x2543 DUP2 PUSH2 0x21E6 JUMP JUMPDEST SWAP1 POP SWAP2 SWAP1 POP JUMP JUMPDEST PUSH1 0x0 PUSH1 0x20 DUP3 ADD SWAP1 POP DUP2 DUP2 SUB PUSH1 0x0 DUP4 ADD MSTORE PUSH2 0x2563 DUP2 PUSH2 0x2209 JUMP JUMPDEST SWAP1 POP SWAP2 SWAP1 POP JUMP JUMPDEST PUSH1 0x0 PUSH1 0x20 DUP3 ADD SWAP1 POP DUP2 DUP2 SUB PUSH1 0x0 DUP4 ADD MSTORE PUSH2 0x2583 DUP2 PUSH2 0x222C JUMP JUMPDEST SWAP1 POP SWAP2 SWAP1 POP JUMP JUMPDEST PUSH1 0x0 PUSH1 0x20 DUP3 ADD SWAP1 POP DUP2 DUP2 SUB PUSH1 0x0 DUP4 ADD MSTORE PUSH2 0x25A3 DUP2 PUSH2 0x224F JUMP JUMPDEST SWAP1 POP SWAP2 SWAP1 POP JUMP JUMPDEST PUSH1 0x0 PUSH1 0x20 DUP3 ADD SWAP1 POP DUP2 DUP2 SUB PUSH1 0x0 DUP4 ADD MSTORE PUSH2 0x25C3 DUP2 PUSH2 0x2272 JUMP JUMPDEST SWAP1 POP SWAP2 SWAP1 POP JUMP JUMPDEST PUSH1 0x0 PUSH1 0x20 DUP3 ADD SWAP1 POP DUP2 DUP2 SUB PUSH1 0x0 DUP4 ADD MSTORE PUSH2 0x25E3 DUP2 PUSH2 0x2295 JUMP JUMPDEST SWAP1 POP SWAP2 SWAP1 POP JUMP JUMPDEST PUSH1 0x0 PUSH1 0x20 DUP3 ADD SWAP1 POP DUP2 DUP2 SUB PUSH1 0x0 DUP4 ADD MSTORE PUSH2 0x2603 DUP2 PUSH2 0x22B8 JUMP JUMPDEST SWAP1 POP SWAP2 SWAP1 POP JUMP JUMPDEST PUSH1 0x0 PUSH1 0x20 DUP3 ADD SWAP1 POP DUP2 DUP2 SUB PUSH1 0x0 DUP4 ADD MSTORE PUSH2 0x2623 DUP2 PUSH2 0x22DB JUMP JUMPDEST SWAP1 POP SWAP2 SWAP1 POP JUMP JUMPDEST PUSH1 0x0 PUSH1 0x20 DUP3 ADD SWAP1 POP DUP2 DUP2 SUB PUSH1 0x0 DUP4 ADD MSTORE PUSH2 0x2643 DUP2 PUSH2 0x22FE JUMP JUMPDEST SWAP1 POP SWAP2 SWAP1 POP JUMP JUMPDEST PUSH1 0x0 PUSH1 0x20 DUP3 ADD SWAP1 POP DUP2 DUP2 SUB PUSH1 0x0 DUP4 ADD MSTORE PUSH2 0x2663 DUP2 PUSH2 0x2321 JUMP JUMPDEST SWAP1 POP SWAP2 SWAP1 POP JUMP JUMPDEST PUSH1 0x0 PUSH1 0x20 DUP3 ADD SWAP1 POP DUP2 DUP2 SUB PUSH1 0x0 DUP4 ADD MSTORE PUSH2 0x2683 DUP2 PUSH2 0x2344 JUMP JUMPDEST SWAP1 POP SWAP2 SWAP1 POP JUMP JUMPDEST PUSH1 0x0 PUSH1 0x20 DUP3 ADD SWAP1 POP DUP2 DUP2 SUB PUSH1 0x0 DUP4 ADD MSTORE PUSH2 0x26A3 DUP2 PUSH2 0x2367 JUMP JUMPDEST SWAP1 POP SWAP2 SWAP1 POP JUMP JUMPDEST PUSH1 0x0 PUSH1 0x20 DUP3 ADD SWAP1 POP DUP2 DUP2 SUB PUSH1 0x0 DUP4 ADD MSTORE PUSH2 0x26C3 DUP2 PUSH2 0x238A JUMP JUMPDEST SWAP1 POP SWAP2 SWAP1 POP JUMP JUMPDEST PUSH1 0x0 PUSH1 0x20 DUP3 ADD SWAP1 POP DUP2 DUP2 SUB PUSH1 0x0 DUP4 ADD MSTORE PUSH2 0x26E3 DUP2 PUSH2 0x23AD JUMP JUMPDEST SWAP1 POP SWAP2 SWAP1 POP JUMP JUMPDEST PUSH1 0x0 PUSH1 0x20 DUP3 ADD SWAP1 POP DUP2 DUP2 SUB PUSH1 0x0 DUP4 ADD MSTORE PUSH2 0x2703 DUP2 PUSH2 0x23D0 JUMP JUMPDEST SWAP1 POP SWAP2 SWAP1 POP JUMP JUMPDEST PUSH1 0x0 PUSH1 0x20 DUP3 ADD SWAP1 POP PUSH2 0x271F PUSH1 0x0 DUP4 ADD DUP5 PUSH2 0x23F3 JUMP JUMPDEST SWAP3 SWAP2 POP POP JUMP JUMPDEST PUSH1 0x0 PUSH2 0x272F PUSH2 0x2740 JUMP JUMPDEST SWAP1 POP PUSH2 0x273B DUP3 DUP3 PUSH2 0x2930 JUMP JUMPDEST SWAP2 SWAP1 POP JUMP JUMPDEST PUSH1 0x0 PUSH1 0x40 MLOAD SWAP1 POP SWAP1 JUMP JUMPDEST PUSH1 0x0 PUSH8 0xFFFFFFFFFFFFFFFF DUP3 GT ISZERO PUSH2 0x2765 JUMPI PUSH2 0x2764 PUSH2 0x2A68 JUMP JUMPDEST JUMPDEST PUSH2 0x276E DUP3 PUSH2 0x2AAB JUMP JUMPDEST SWAP1 POP PUSH1 0x20 DUP2 ADD SWAP1 POP SWAP2 SWAP1 POP JUMP JUMPDEST PUSH1 0x0 DUP2 MLOAD SWAP1 POP SWAP2 SWAP1 POP JUMP JUMPDEST PUSH1 0x0 DUP2 MLOAD SWAP1 POP SWAP2 SWAP1 POP JUMP JUMPDEST PUSH1 0x0 DUP3 DUP3 MSTORE PUSH1 0x20 DUP3 ADD SWAP1 POP SWAP3 SWAP2 POP POP JUMP JUMPDEST PUSH1 0x0 DUP3 DUP3 MSTORE PUSH1 0x20 DUP3 ADD SWAP1 POP SWAP3 SWAP2 POP POP JUMP JUMPDEST PUSH1 0x0 DUP2 SWAP1 POP SWAP3 SWAP2 POP POP JUMP JUMPDEST PUSH1 0x0 PUSH2 0x27C9 DUP3 PUSH2 0x28B2 JUMP JUMPDEST SWAP2 POP PUSH2 0x27D4 DUP4 PUSH2 0x28B2 JUMP JUMPDEST SWAP3 POP DUP3 PUSH32 0xFFFFFFFFFFFFFFFFFFFFFFFFFFFFFFFFFFFFFFFFFFFFFFFFFFFFFFFFFFFFFFFF SUB DUP3 GT ISZERO PUSH2 0x2809 JUMPI PUSH2 0x2808 PUSH2 0x29DB JUMP JUMPDEST JUMPDEST DUP3 DUP3 ADD SWAP1 POP SWAP3 SWAP2 POP POP JUMP JUMPDEST PUSH1 0x0 PUSH2 0x281F DUP3 PUSH2 0x28B2 JUMP JUMPDEST SWAP2 POP PUSH2 0x282A DUP4 PUSH2 0x28B2 JUMP JUMPDEST SWAP3 POP DUP3 DUP3 LT ISZERO PUSH2 0x283D JUMPI PUSH2 0x283C PUSH2 0x29DB JUMP JUMPDEST JUMPDEST DUP3 DUP3 SUB SWAP1 POP SWAP3 SWAP2 POP POP JUMP JUMPDEST PUSH1 0x0 PUSH2 0x2853 DUP3 PUSH2 0x2892 JUMP JUMPDEST SWAP1 POP SWAP2 SWAP1 POP JUMP JUMPDEST PUSH1 0x0 DUP2 ISZERO ISZERO SWAP1 POP SWAP2 SWAP1 POP JUMP JUMPDEST PUSH1 0x0 PUSH32 0xFFFFFFFF00000000000000000000000000000000000000000000000000000000 DUP3 AND SWAP1 POP SWAP2 SWAP1 POP JUMP JUMPDEST PUSH1 0x0 PUSH20 0xFFFFFFFFFFFFFFFFFFFFFFFFFFFFFFFFFFFFFFFF DUP3 AND SWAP1 POP SWAP2 SWAP1 POP JUMP JUMPDEST PUSH1 0x0 DUP2 SWAP1 POP SWAP2 SWAP1 POP JUMP JUMPDEST DUP3 DUP2 DUP4 CALLDATACOPY PUSH1 0x0 DUP4 DUP4 ADD MSTORE POP POP POP JUMP JUMPDEST PUSH1 0x0 JUMPDEST DUP4 DUP2 LT ISZERO PUSH2 0x28E9 JUMPI DUP1 DUP3 ADD MLOAD DUP2 DUP5 ADD MSTORE PUSH1 0x20 DUP2 ADD SWAP1 POP PUSH2 0x28CE JUMP JUMPDEST DUP4 DUP2 GT ISZERO PUSH2 0x28F8 JUMPI PUSH1 0x0 DUP5 DUP5 ADD MSTORE JUMPDEST POP POP POP POP JUMP JUMPDEST PUSH1 0x0 PUSH1 0x2 DUP3 DIV SWAP1 POP PUSH1 0x1 DUP3 AND DUP1 PUSH2 0x2916 JUMPI PUSH1 0x7F DUP3 AND SWAP2 POP JUMPDEST PUSH1 0x20 DUP3 LT DUP2 EQ ISZERO PUSH2 0x292A JUMPI PUSH2 0x2929 PUSH2 0x2A39 JUMP JUMPDEST JUMPDEST POP SWAP2 SWAP1 POP JUMP JUMPDEST PUSH2 0x2939 DUP3 PUSH2 0x2AAB JUMP JUMPDEST DUP2 ADD DUP2 DUP2 LT PUSH8 0xFFFFFFFFFFFFFFFF DUP3 GT OR ISZERO PUSH2 0x2958 JUMPI PUSH2 0x2957 PUSH2 0x2A68 JUMP JUMPDEST JUMPDEST DUP1 PUSH1 0x40 MSTORE POP POP POP JUMP JUMPDEST PUSH1 0x0 PUSH2 0x296C DUP3 PUSH2 0x28B2 JUMP JUMPDEST SWAP2 POP PUSH32 0xFFFFFFFFFFFFFFFFFFFFFFFFFFFFFFFFFFFFFFFFFFFFFFFFFFFFFFFFFFFFFFFF DUP3 EQ ISZERO PUSH2 0x299F JUMPI PUSH2 0x299E PUSH2 0x29DB JUMP JUMPDEST JUMPDEST PUSH1 0x1 DUP3 ADD SWAP1 POP SWAP2 SWAP1 POP JUMP JUMPDEST PUSH1 0x0 PUSH2 0x29B5 DUP3 PUSH2 0x28B2 JUMP JUMPDEST SWAP2 POP PUSH2 0x29C0 DUP4 PUSH2 0x28B2 JUMP JUMPDEST SWAP3 POP DUP3 PUSH2 0x29D0 JUMPI PUSH2 0x29CF PUSH2 0x2A0A JUMP JUMPDEST JUMPDEST DUP3 DUP3 MOD SWAP1 POP SWAP3 SWAP2 POP POP JUMP JUMPDEST PUSH32 0x4E487B7100000000000000000000000000000000000000000000000000000000 PUSH1 0x0 MSTORE PUSH1 0x11 PUSH1 0x4 MSTORE PUSH1 0x24 PUSH1 0x0 REVERT JUMPDEST PUSH32 0x4E487B7100000000000000000000000000000000000000000000000000000000 PUSH1 0x0 MSTORE PUSH1 0x12 PUSH1 0x4 MSTORE PUSH1 0x24 PUSH1 0x0 REVERT JUMPDEST PUSH32 0x4E487B7100000000000000000000000000000000000000000000000000000000 PUSH1 0x0 MSTORE PUSH1 0x22 PUSH1 0x4 MSTORE PUSH1 0x24 PUSH1 0x0 REVERT JUMPDEST PUSH32 0x4E487B7100000000000000000000000000000000000000000000000000000000 PUSH1 0x0 MSTORE PUSH1 0x41 PUSH1 0x4 MSTORE PUSH1 0x24 PUSH1 0x0 REVERT JUMPDEST PUSH1 0x0 DUP1 REVERT JUMPDEST PUSH1 0x0 DUP1 REVERT JUMPDEST PUSH1 0x0 DUP1 REVERT JUMPDEST PUSH1 0x0 DUP1 REVERT JUMPDEST PUSH1 0x0 PUSH1 0x1F NOT PUSH1 0x1F DUP4 ADD AND SWAP1 POP SWAP2 SWAP1 POP JUMP JUMPDEST PUSH32 0x54727920616761696E3121000000000000000000000000000000000000000000 PUSH1 0x0 DUP3 ADD MSTORE POP JUMP JUMPDEST PUSH32 0x4552433732313A2063616C6C6572206973206E6F7420746F6B656E206F776E65 PUSH1 0x0 DUP3 ADD MSTORE PUSH32 0x72206F7220617070726F76656400000000000000000000000000000000000000 PUSH1 0x20 DUP3 ADD MSTORE POP JUMP JUMPDEST PUSH32 0x4552433732313A207472616E7366657220746F206E6F6E204552433732315265 PUSH1 0x0 DUP3 ADD MSTORE PUSH32 0x63656976657220696D706C656D656E7465720000000000000000000000000000 PUSH1 0x20 DUP3 ADD MSTORE POP JUMP JUMPDEST PUSH32 0x4552433732313A207472616E736665722066726F6D20696E636F727265637420 PUSH1 0x0 DUP3 ADD MSTORE PUSH32 0x6F776E6572000000000000000000000000000000000000000000000000000000 PUSH1 0x20 DUP3 ADD MSTORE POP JUMP JUMPDEST PUSH32 0x4552433732313A20746F6B656E20616C7265616479206D696E74656400000000 PUSH1 0x0 DUP3 ADD MSTORE POP JUMP JUMPDEST PUSH32 0x57687920646F6E277420796F752077616E7420746F20626520616E2061727469 PUSH1 0x0 DUP3 ADD MSTORE PUSH32 0x73743F0000000000000000000000000000000000000000000000000000000000 PUSH1 0x20 DUP3 ADD MSTORE POP JUMP JUMPDEST PUSH32 0x4552433732313A207472616E7366657220746F20746865207A65726F20616464 PUSH1 0x0 DUP3 ADD MSTORE PUSH32 0x7265737300000000000000000000000000000000000000000000000000000000 PUSH1 0x20 DUP3 ADD MSTORE POP JUMP JUMPDEST PUSH32 0x4552433732313A20617070726F766520746F2063616C6C657200000000000000 PUSH1 0x0 DUP3 ADD MSTORE POP JUMP JUMPDEST PUSH32 0x4552433732313A2061646472657373207A65726F206973206E6F742061207661 PUSH1 0x0 DUP3 ADD MSTORE PUSH32 0x6C6964206F776E65720000000000000000000000000000000000000000000000 PUSH1 0x20 DUP3 ADD MSTORE POP JUMP JUMPDEST PUSH32 0x4552433732313A206D696E7420746F20746865207A65726F2061646472657373 PUSH1 0x0 DUP3 ADD MSTORE POP JUMP JUMPDEST PUSH32 0x4552433732313A20696E76616C696420746F6B656E2049440000000000000000 PUSH1 0x0 DUP3 ADD MSTORE POP JUMP JUMPDEST PUSH32 0x486F70652062726F6B656E210000000000000000000000000000000000000000 PUSH1 0x0 DUP3 ADD MSTORE POP JUMP JUMPDEST PUSH32 0x4552433732313A20617070726F76616C20746F2063757272656E74206F776E65 PUSH1 0x0 DUP3 ADD MSTORE PUSH32 0x7200000000000000000000000000000000000000000000000000000000000000 PUSH1 0x20 DUP3 ADD MSTORE POP JUMP JUMPDEST PUSH32 0x4552433732313A20617070726F76652063616C6C6572206973206E6F7420746F PUSH1 0x0 DUP3 ADD MSTORE PUSH32 0x6B656E206F776E6572206F7220617070726F76656420666F7220616C6C000000 PUSH1 0x20 DUP3 ADD MSTORE POP JUMP JUMPDEST PUSH32 0x486F70652062726F6B656E000000000000000000000000000000000000000000 PUSH1 0x0 DUP3 ADD MSTORE POP JUMP JUMPDEST PUSH32 0x596F7520617265206E6F7420796574206120676F6F64206172746973742C2079 PUSH1 0x0 DUP3 ADD MSTORE PUSH32 0x6F752073686F756C64206B65657020747279696E672E00000000000000000000 PUSH1 0x20 DUP3 ADD MSTORE POP JUMP JUMPDEST PUSH32 0x54727920616761696E2100000000000000000000000000000000000000000000 PUSH1 0x0 DUP3 ADD MSTORE POP JUMP JUMPDEST PUSH32 0x54727920616761696E3221000000000000000000000000000000000000000000 PUSH1 0x0 DUP3 ADD MSTORE POP JUMP JUMPDEST PUSH2 0x2EFD DUP2 PUSH2 0x2848 JUMP JUMPDEST DUP2 EQ PUSH2 0x2F08 JUMPI PUSH1 0x0 DUP1 REVERT JUMPDEST POP JUMP JUMPDEST PUSH2 0x2F14 DUP2 PUSH2 0x285A JUMP JUMPDEST DUP2 EQ PUSH2 0x2F1F JUMPI PUSH1 0x0 DUP1 REVERT JUMPDEST POP JUMP JUMPDEST PUSH2 0x2F2B DUP2 PUSH2 0x2866 JUMP JUMPDEST DUP2 EQ PUSH2 0x2F36 JUMPI PUSH1 0x0 DUP1 REVERT JUMPDEST POP JUMP JUMPDEST PUSH2 0x2F42 DUP2 PUSH2 0x28B2 JUMP JUMPDEST DUP2 EQ PUSH2 0x2F4D JUMPI PUSH1 0x0 DUP1 REVERT JUMPDEST POP JUMP INVALID LOG2 PUSH5 0x6970667358 0x22 SLT KECCAK256 SWAP8 CREATE2 0xC9 SWAP7 0xE3 PUSH25 0xF2AA0AD3E9EAD6970C63BC1D2FE52F945111E62BA64C0605D0 0xDF PUSH5 0x736F6C6343 STOP ADDMOD SMOD STOP CALLER "
		},
		"gasEstimates": {
			"creation": {
				"codeDepositCost": "2433200",
				"executionCost": "infinite",
				"totalCost": "infinite"
			},
			"external": {
				"approve(address,uint256)": "infinite",
				"balanceOf(address)": "2902",
				"becomeAnArtist(uint256)": "infinite",
				"getApproved(uint256)": "5300",
				"hope()": "2582",
				"hope2()": "2610",
				"hopeIsInSight()": "infinite",
				"isApprovedForAll(address,address)": "infinite",
				"isCompleted()": "2857",
				"name()": "infinite",
				"ownerOf(uint256)": "3113",
				"safeTransferFrom(address,address,uint256)": "infinite",
				"safeTransferFrom(address,address,uint256,bytes)": "infinite",
				"setApprovalForAll(address,bool)": "infinite",
				"supportsInterface(bytes4)": "797",
				"symbol()": "infinite",
				"theHope()": "infinite",
				"tokenURI(uint256)": "3445",
				"totalMinted()": "2518",
				"transferFrom(address,address,uint256)": "infinite"
			}
		},
		"methodIdentifiers": {
			"approve(address,uint256)": "095ea7b3",
			"balanceOf(address)": "70a08231",
			"becomeAnArtist(uint256)": "1ac4610d",
			"getApproved(uint256)": "081812fc",
			"hope()": "b5e37041",
			"hope2()": "4e521de2",
			"hopeIsInSight()": "42a9155c",
			"isApprovedForAll(address,address)": "e985e9c5",
			"isCompleted()": "fa391c64",
			"name()": "06fdde03",
			"ownerOf(uint256)": "6352211e",
			"safeTransferFrom(address,address,uint256)": "42842e0e",
			"safeTransferFrom(address,address,uint256,bytes)": "b88d4fde",
			"setApprovalForAll(address,bool)": "a22cb465",
			"supportsInterface(bytes4)": "01ffc9a7",
			"symbol()": "95d89b41",
			"theHope()": "dac072a9",
			"tokenURI(uint256)": "c87b56dd",
			"totalMinted()": "a2309ff8",
			"transferFrom(address,address,uint256)": "23b872dd"
		}
	},
	"abi": [
		{
			"inputs": [],
			"stateMutability": "nonpayable",
			"type": "constructor"
		},
		{
			"anonymous": false,
			"inputs": [
				{
					"indexed": true,
					"internalType": "address",
					"name": "owner",
					"type": "address"
				},
				{
					"indexed": true,
					"internalType": "address",
					"name": "approved",
					"type": "address"
				},
				{
					"indexed": true,
					"internalType": "uint256",
					"name": "tokenId",
					"type": "uint256"
				}
			],
			"name": "Approval",
			"type": "event"
		},
		{
			"anonymous": false,
			"inputs": [
				{
					"indexed": true,
					"internalType": "address",
					"name": "owner",
					"type": "address"
				},
				{
					"indexed": true,
					"internalType": "address",
					"name": "operator",
					"type": "address"
				},
				{
					"indexed": false,
					"internalType": "bool",
					"name": "approved",
					"type": "bool"
				}
			],
			"name": "ApprovalForAll",
			"type": "event"
		},
		{
			"anonymous": false,
			"inputs": [
				{
					"indexed": true,
					"internalType": "address",
					"name": "from",
					"type": "address"
				},
				{
					"indexed": true,
					"internalType": "address",
					"name": "to",
					"type": "address"
				},
				{
					"indexed": true,
					"internalType": "uint256",
					"name": "tokenId",
					"type": "uint256"
				}
			],
			"name": "Transfer",
			"type": "event"
		},
		{
			"inputs": [
				{
					"internalType": "address",
					"name": "to",
					"type": "address"
				},
				{
					"internalType": "uint256",
					"name": "tokenId",
					"type": "uint256"
				}
			],
			"name": "approve",
			"outputs": [],
			"stateMutability": "nonpayable",
			"type": "function"
		},
		{
			"inputs": [
				{
					"internalType": "address",
					"name": "owner",
					"type": "address"
				}
			],
			"name": "balanceOf",
			"outputs": [
				{
					"internalType": "uint256",
					"name": "",
					"type": "uint256"
				}
			],
			"stateMutability": "view",
			"type": "function"
		},
		{
			"inputs": [
				{
					"internalType": "uint256",
					"name": "_count",
					"type": "uint256"
				}
			],
			"name": "becomeAnArtist",
			"outputs": [
				{
					"internalType": "bool",
					"name": "",
					"type": "bool"
				}
			],
			"stateMutability": "nonpayable",
			"type": "function"
		},
		{
			"inputs": [
				{
					"internalType": "uint256",
					"name": "tokenId",
					"type": "uint256"
				}
			],
			"name": "getApproved",
			"outputs": [
				{
					"internalType": "address",
					"name": "",
					"type": "address"
				}
			],
			"stateMutability": "view",
			"type": "function"
		},
		{
			"inputs": [],
			"name": "hope",
			"outputs": [
				{
					"internalType": "bool",
					"name": "",
					"type": "bool"
				}
			],
			"stateMutability": "view",
			"type": "function"
		},
		{
			"inputs": [],
			"name": "hope2",
			"outputs": [
				{
					"internalType": "bool",
					"name": "",
					"type": "bool"
				}
			],
			"stateMutability": "view",
			"type": "function"
		},
		{
			"inputs": [],
			"name": "hopeIsInSight",
			"outputs": [
				{
					"internalType": "bool",
					"name": "",
					"type": "bool"
				}
			],
			"stateMutability": "nonpayable",
			"type": "function"
		},
		{
			"inputs": [
				{
					"internalType": "address",
					"name": "owner",
					"type": "address"
				},
				{
					"internalType": "address",
					"name": "operator",
					"type": "address"
				}
			],
			"name": "isApprovedForAll",
			"outputs": [
				{
					"internalType": "bool",
					"name": "",
					"type": "bool"
				}
			],
			"stateMutability": "view",
			"type": "function"
		},
		{
			"inputs": [],
			"name": "isCompleted",
			"outputs": [
				{
					"internalType": "bool",
					"name": "",
					"type": "bool"
				}
			],
			"stateMutability": "view",
			"type": "function"
		},
		{
			"inputs": [],
			"name": "name",
			"outputs": [
				{
					"internalType": "string",
					"name": "",
					"type": "string"
				}
			],
			"stateMutability": "view",
			"type": "function"
		},
		{
			"inputs": [
				{
					"internalType": "uint256",
					"name": "tokenId",
					"type": "uint256"
				}
			],
			"name": "ownerOf",
			"outputs": [
				{
					"internalType": "address",
					"name": "",
					"type": "address"
				}
			],
			"stateMutability": "view",
			"type": "function"
		},
		{
			"inputs": [
				{
					"internalType": "address",
					"name": "from",
					"type": "address"
				},
				{
					"internalType": "address",
					"name": "to",
					"type": "address"
				},
				{
					"internalType": "uint256",
					"name": "tokenId",
					"type": "uint256"
				}
			],
			"name": "safeTransferFrom",
			"outputs": [],
			"stateMutability": "nonpayable",
			"type": "function"
		},
		{
			"inputs": [
				{
					"internalType": "address",
					"name": "from",
					"type": "address"
				},
				{
					"internalType": "address",
					"name": "to",
					"type": "address"
				},
				{
					"internalType": "uint256",
					"name": "tokenId",
					"type": "uint256"
				},
				{
					"internalType": "bytes",
					"name": "data",
					"type": "bytes"
				}
			],
			"name": "safeTransferFrom",
			"outputs": [],
			"stateMutability": "nonpayable",
			"type": "function"
		},
		{
			"inputs": [
				{
					"internalType": "address",
					"name": "operator",
					"type": "address"
				},
				{
					"internalType": "bool",
					"name": "approved",
					"type": "bool"
				}
			],
			"name": "setApprovalForAll",
			"outputs": [],
			"stateMutability": "nonpayable",
			"type": "function"
		},
		{
			"inputs": [
				{
					"internalType": "bytes4",
					"name": "interfaceId",
					"type": "bytes4"
				}
			],
			"name": "supportsInterface",
			"outputs": [
				{
					"internalType": "bool",
					"name": "",
					"type": "bool"
				}
			],
			"stateMutability": "view",
			"type": "function"
		},
		{
			"inputs": [],
			"name": "symbol",
			"outputs": [
				{
					"internalType": "string",
					"name": "",
					"type": "string"
				}
			],
			"stateMutability": "view",
			"type": "function"
		},
		{
			"inputs": [],
			"name": "theHope",
			"outputs": [
				{
					"internalType": "bool",
					"name": "",
					"type": "bool"
				}
			],
			"stateMutability": "nonpayable",
			"type": "function"
		},
		{
			"inputs": [
				{
					"internalType": "uint256",
					"name": "tokenId",
					"type": "uint256"
				}
			],
			"name": "tokenURI",
			"outputs": [
				{
					"internalType": "string",
					"name": "",
					"type": "string"
				}
			],
			"stateMutability": "view",
			"type": "function"
		},
		{
			"inputs": [],
			"name": "totalMinted",
			"outputs": [
				{
					"internalType": "uint256",
					"name": "",
					"type": "uint256"
				}
			],
			"stateMutability": "view",
			"type": "function"
		},
		{
			"inputs": [
				{
					"internalType": "address",
					"name": "from",
					"type": "address"
				},
				{
					"internalType": "address",
					"name": "to",
					"type": "address"
				},
				{
					"internalType": "uint256",
					"name": "tokenId",
					"type": "uint256"
				}
			],
			"name": "transferFrom",
			"outputs": [],
			"stateMutability": "nonpayable",
			"type": "function"
		}
	]
}