{
	"data": {
		"bytecode": {
			"linkReferences": {},
			"object": "6080604052348015600f57600080fd5b5060b08061001e6000396000f3fe608060405260043610601c5760003560e01c80638e154565146021575b600080fd5b606060048036036020811015603557600080fd5b81019080803573ffffffffffffffffffffffffffffffffffffffff1690602001909291905050506062565b005b8073ffffffffffffffffffffffffffffffffffffffff16fffea265627a7a72315820b30918d0d9cb17467dad6a8ce35919060a97d5ce382a5c6136d1f4ab6b9b02ab64736f6c63430005110032",
			"opcodes": "PUSH1 0x80 PUSH1 0x40 MSTORE CALLVALUE DUP1 ISZERO PUSH1 0xF JUMPI PUSH1 0x0 DUP1 REVERT JUMPDEST POP PUSH1 0xB0 DUP1 PUSH2 0x1E PUSH1 0x0 CODECOPY PUSH1 0x0 RETURN INVALID PUSH1 0x80 PUSH1 0x40 MSTORE PUSH1 0x4 CALLDATASIZE LT PUSH1 0x1C JUMPI PUSH1 0x0 CALLDATALOAD PUSH1 0xE0 SHR DUP1 PUSH4 0x8E154565 EQ PUSH1 0x21 JUMPI JUMPDEST PUSH1 0x0 DUP1 REVERT JUMPDEST PUSH1 0x60 PUSH1 0x4 DUP1 CALLDATASIZE SUB PUSH1 0x20 DUP2 LT ISZERO PUSH1 0x35 JUMPI PUSH1 0x0 DUP1 REVERT JUMPDEST DUP2 ADD SWAP1 DUP1 DUP1 CALLDATALOAD PUSH20 0xFFFFFFFFFFFFFFFFFFFFFFFFFFFFFFFFFFFFFFFF AND SWAP1 PUSH1 0x20 ADD SWAP1 SWAP3 SWAP2 SWAP1 POP POP POP PUSH1 0x62 JUMP JUMPDEST STOP JUMPDEST DUP1 PUSH20 0xFFFFFFFFFFFFFFFFFFFFFFFFFFFFFFFFFFFFFFFF AND SELFDESTRUCT INVALID LOG2 PUSH6 0x627A7A723158 KECCAK256 0xB3 MULMOD XOR 0xD0 0xD9 0xCB OR CHAINID PUSH30 0xAD6A8CE35919060A97D5CE382A5C6136D1F4AB6B9B02AB64736F6C634300 SDIV GT STOP ORIGIN "
		},
		"gasEstimates": {
			"creation": {
				"codeDepositCost": "35200",
				"executionCost": "87",
				"totalCost": "35287"
			},
			"external": {
				"selfd(address)": "30186"
			}
		},
		"methodIdentifiers": {
			"selfd(address)": "8e154565"
		}
	},
	"abi": [
		{
			"constant": false,
			"inputs": [
				{
					"internalType": "address payable",
					"name": "_addr",
					"type": "address"
				}
			],
			"name": "selfd",
			"outputs": [],
			"payable": true,
			"stateMutability": "payable",
			"type": "function"
		}
	]
}