{
	"data": {
		"bytecode": {
			"linkReferences": {},
			"object": "60806040523480156200001157600080fd5b5060405162000020906200032f565b604051809103906000f0801580156200003d573d6000803e3d6000fd5b50600160006101000a81548173ffffffffffffffffffffffffffffffffffffffff021916908373ffffffffffffffffffffffffffffffffffffffff160217905550600160009054906101000a900473ffffffffffffffffffffffffffffffffffffffff16683635c9adc5dea00000604051620000b9906200033d565b620000c6929190620003f5565b604051809103906000f080158015620000e3573d6000803e3d6000fd5b506000806101000a81548173ffffffffffffffffffffffffffffffffffffffff021916908373ffffffffffffffffffffffffffffffffffffffff160217905550600160009054906101000a900473ffffffffffffffffffffffffffffffffffffffff1673ffffffffffffffffffffffffffffffffffffffff166340c10f1960008054906101000a900473ffffffffffffffffffffffffffffffffffffffff16683635c9adc5dea000006040518363ffffffff1660e01b8152600401620001ab929190620003f5565b600060405180830381600087803b158015620001c657600080fd5b505af1158015620001db573d6000803e3d6000fd5b5050505060008054906101000a900473ffffffffffffffffffffffffffffffffffffffff166040516200020e906200034b565b6200021a919062000422565b604051809103906000f08015801562000237573d6000803e3d6000fd5b50600260006101000a81548173ffffffffffffffffffffffffffffffffffffffff021916908373ffffffffffffffffffffffffffffffffffffffff16021790555060008054906101000a900473ffffffffffffffffffffffffffffffffffffffff1673ffffffffffffffffffffffffffffffffffffffff1663788d6454600260009054906101000a900473ffffffffffffffffffffffffffffffffffffffff166040518263ffffffff1660e01b8152600401620002f5919062000422565b600060405180830381600087803b1580156200031057600080fd5b505af115801562000325573d6000803e3d6000fd5b505050506200043f565b6110218062000b4383390190565b6114bb8062001b6483390190565b611a11806200301f83390190565b600073ffffffffffffffffffffffffffffffffffffffff82169050919050565b6000620003868262000359565b9050919050565b620003988162000379565b82525050565b6000819050919050565b6000819050919050565b6000819050919050565b6000620003dd620003d7620003d1846200039e565b620003b2565b620003a8565b9050919050565b620003ef81620003bc565b82525050565b60006040820190506200040c60008301856200038d565b6200041b6020830184620003e4565b9392505050565b60006020820190506200043960008301846200038d565b92915050565b6106f4806200044f6000396000f3fe608060405234801561001057600080fd5b506004361061007d5760003560e01c8063b2fa1c9e1161005b578063b2fa1c9e146100c8578063e5ed3d4e146100e6578063f562300714610104578063fbfa77cf146101225761007d565b806301b7dcb4146100825780633884d635146100a0578063b28a91d0146100aa575b600080fd5b61008a610140565b604051610097919061040c565b60405180910390f35b6100a8610256565b005b6100b261035b565b6040516100bf91906104a6565b60405180910390f35b6100d0610381565b6040516100dd919061040c565b60405180910390f35b6100ee610394565b6040516100fb919061040c565b60405180910390f35b61010c6103a7565b60405161011991906104e2565b60405180910390f35b61012a6103cd565b604051610137919061051e565b60405180910390f35b600068056bc75e2d63100000600160009054906101000a900473ffffffffffffffffffffffffffffffffffffffff1673ffffffffffffffffffffffffffffffffffffffff166370a08231336040518263ffffffff1660e01b81526004016101a7919061055a565b602060405180830381865afa1580156101c4573d6000803e3d6000fd5b505050506040513d601f19601f820116820180604052508101906101e891906105b0565b1115610241576001600260156101000a81548160ff0219169083151502179055507feea1e792d24b1c6f5e22c3dbc65e11b7efd44b6d2024a15605fa8924eda6360233604051610238919061055a565b60405180910390a15b600260159054906101000a900460ff16905090565b600260149054906101000a900460ff16156102a6576040517f08c379a000000000000000000000000000000000000000000000000000000000815260040161029d9061063a565b60405180910390fd5b600160009054906101000a900473ffffffffffffffffffffffffffffffffffffffff1673ffffffffffffffffffffffffffffffffffffffff166340c10f193368056bc75e2d631000006040518363ffffffff1660e01b815260040161030c929190610695565b600060405180830381600087803b15801561032657600080fd5b505af115801561033a573d6000803e3d6000fd5b505050506001600260146101000a81548160ff021916908315150217905550565b600160009054906101000a900473ffffffffffffffffffffffffffffffffffffffff1681565b600260159054906101000a900460ff1681565b600260149054906101000a900460ff1681565b600260009054906101000a900473ffffffffffffffffffffffffffffffffffffffff1681565b60008054906101000a900473ffffffffffffffffffffffffffffffffffffffff1681565b60008115159050919050565b610406816103f1565b82525050565b600060208201905061042160008301846103fd565b92915050565b600073ffffffffffffffffffffffffffffffffffffffff82169050919050565b6000819050919050565b600061046c61046761046284610427565b610447565b610427565b9050919050565b600061047e82610451565b9050919050565b600061049082610473565b9050919050565b6104a081610485565b82525050565b60006020820190506104bb6000830184610497565b92915050565b60006104cc82610473565b9050919050565b6104dc816104c1565b82525050565b60006020820190506104f760008301846104d3565b92915050565b600061050882610473565b9050919050565b610518816104fd565b82525050565b6000602082019050610533600083018461050f565b92915050565b600061054482610427565b9050919050565b61055481610539565b82525050565b600060208201905061056f600083018461054b565b92915050565b600080fd5b6000819050919050565b61058d8161057a565b811461059857600080fd5b50565b6000815190506105aa81610584565b92915050565b6000602082840312156105c6576105c5610575565b5b60006105d48482850161059b565b91505092915050565b600082825260208201905092915050565b7f416c7265616479206765742061697264726f7021000000000000000000000000600082015250565b60006106246014836105dd565b915061062f826105ee565b602082019050919050565b6000602082019050818103600083015261065381610617565b9050919050565b6000819050919050565b600061067f61067a6106758461065a565b610447565b61057a565b9050919050565b61068f81610664565b82525050565b60006040820190506106aa600083018561054b565b6106b76020830184610686565b939250505056fea2646970667358221220af78ba0eec607c9c34d4bc976f13084cfedf74208abba8ca8a3a026c50560c4964736f6c63430008110033608060405234801561001057600080fd5b5033600260006101000a81548173ffffffffffffffffffffffffffffffffffffffff021916908373ffffffffffffffffffffffffffffffffffffffff160217905550610fc0806100616000396000f3fe608060405234801561001057600080fd5b50600436106100885760003560e01c806370a082311161005b57806370a0823114610127578063a9059cbb14610157578063c339210f14610187578063dd62ed3e146101a557610088565b8063095ea7b31461008d57806318160ddd146100bd57806323b872dd146100db57806340c10f191461010b575b600080fd5b6100a760048036038101906100a2919061093a565b6101d5565b6040516100b49190610995565b60405180910390f35b6100c56101ec565b6040516100d291906109bf565b60405180910390f35b6100f560048036038101906100f091906109da565b6101f6565b6040516101029190610995565b60405180910390f35b6101256004803603810190610120919061093a565b610219565b005b610141600480360381019061013c9190610a2d565b6102b7565b60405161014e91906109bf565b60405180910390f35b610171600480360381019061016c919061093a565b6102ff565b60405161017e9190610995565b60405180910390f35b61018f610316565b60405161019c9190610a69565b60405180910390f35b6101bf60048036038101906101ba9190610a84565b61033c565b6040516101cc91906109bf565b60405180910390f35b60006101e23384846103c3565b6001905092915050565b6000600354905090565b6000610203843384610527565b61020e8484846105b3565b600190509392505050565b600260009054906101000a900473ffffffffffffffffffffffffffffffffffffffff1673ffffffffffffffffffffffffffffffffffffffff163373ffffffffffffffffffffffffffffffffffffffff16146102a9576040517f08c379a00000000000000000000000000000000000000000000000000000000081526004016102a090610b21565b60405180910390fd5b6102b382826107c0565b5050565b60008060008373ffffffffffffffffffffffffffffffffffffffff1673ffffffffffffffffffffffffffffffffffffffff168152602001908152602001600020549050919050565b600061030c3384846105b3565b6001905092915050565b600260009054906101000a900473ffffffffffffffffffffffffffffffffffffffff1681565b6000600160008473ffffffffffffffffffffffffffffffffffffffff1673ffffffffffffffffffffffffffffffffffffffff16815260200190815260200160002060008373ffffffffffffffffffffffffffffffffffffffff1673ffffffffffffffffffffffffffffffffffffffff16815260200190815260200160002054905092915050565b600073ffffffffffffffffffffffffffffffffffffffff168373ffffffffffffffffffffffffffffffffffffffff1603610432576040517f08c379a000000000000000000000000000000000000000000000000000000000815260040161042990610bb3565b60405180910390fd5b600073ffffffffffffffffffffffffffffffffffffffff168273ffffffffffffffffffffffffffffffffffffffff16036104a1576040517f08c379a000000000000000000000000000000000000000000000000000000000815260040161049890610c45565b60405180910390fd5b80600160008573ffffffffffffffffffffffffffffffffffffffff1673ffffffffffffffffffffffffffffffffffffffff16815260200190815260200160002060008473ffffffffffffffffffffffffffffffffffffffff1673ffffffffffffffffffffffffffffffffffffffff16815260200190815260200160002081905550505050565b6000610533848461033c565b90507fffffffffffffffffffffffffffffffffffffffffffffffffffffffffffffffff81146105ad578181101561059f576040517f08c379a000000000000000000000000000000000000000000000000000000000815260040161059690610cb1565b60405180910390fd5b6105ac84848484036103c3565b5b50505050565b600073ffffffffffffffffffffffffffffffffffffffff168373ffffffffffffffffffffffffffffffffffffffff1603610622576040517f08c379a000000000000000000000000000000000000000000000000000000000815260040161061990610d43565b60405180910390fd5b600073ffffffffffffffffffffffffffffffffffffffff168273ffffffffffffffffffffffffffffffffffffffff1603610691576040517f08c379a000000000000000000000000000000000000000000000000000000000815260040161068890610dd5565b60405180910390fd5b60008060008573ffffffffffffffffffffffffffffffffffffffff1673ffffffffffffffffffffffffffffffffffffffff16815260200190815260200160002054905081811015610717576040517f08c379a000000000000000000000000000000000000000000000000000000000815260040161070e90610e67565b60405180910390fd5b81816107239190610eb6565b6000808673ffffffffffffffffffffffffffffffffffffffff1673ffffffffffffffffffffffffffffffffffffffff16815260200190815260200160002081905550816000808573ffffffffffffffffffffffffffffffffffffffff1673ffffffffffffffffffffffffffffffffffffffff16815260200190815260200160002060008282546107b39190610eea565b9250508190555050505050565b600073ffffffffffffffffffffffffffffffffffffffff168273ffffffffffffffffffffffffffffffffffffffff160361082f576040517f08c379a000000000000000000000000000000000000000000000000000000000815260040161082690610f6a565b60405180910390fd5b80600360008282546108419190610eea565b92505081905550806000808473ffffffffffffffffffffffffffffffffffffffff1673ffffffffffffffffffffffffffffffffffffffff16815260200190815260200160002060008282546108969190610eea565b925050819055505050565b600080fd5b600073ffffffffffffffffffffffffffffffffffffffff82169050919050565b60006108d1826108a6565b9050919050565b6108e1816108c6565b81146108ec57600080fd5b50565b6000813590506108fe816108d8565b92915050565b6000819050919050565b61091781610904565b811461092257600080fd5b50565b6000813590506109348161090e565b92915050565b60008060408385031215610951576109506108a1565b5b600061095f858286016108ef565b925050602061097085828601610925565b9150509250929050565b60008115159050919050565b61098f8161097a565b82525050565b60006020820190506109aa6000830184610986565b92915050565b6109b981610904565b82525050565b60006020820190506109d460008301846109b0565b92915050565b6000806000606084860312156109f3576109f26108a1565b5b6000610a01868287016108ef565b9350506020610a12868287016108ef565b9250506040610a2386828701610925565b9150509250925092565b600060208284031215610a4357610a426108a1565b5b6000610a51848285016108ef565b91505092915050565b610a63816108c6565b82525050565b6000602082019050610a7e6000830184610a5a565b92915050565b60008060408385031215610a9b57610a9a6108a1565b5b6000610aa9858286016108ef565b9250506020610aba858286016108ef565b9150509250929050565b600082825260208201905092915050565b7f466f7262696464656e2100000000000000000000000000000000000000000000600082015250565b6000610b0b600a83610ac4565b9150610b1682610ad5565b602082019050919050565b60006020820190508181036000830152610b3a81610afe565b9050919050565b7f45524332303a20617070726f76652066726f6d20746865207a65726f2061646460008201527f7265737300000000000000000000000000000000000000000000000000000000602082015250565b6000610b9d602483610ac4565b9150610ba882610b41565b604082019050919050565b60006020820190508181036000830152610bcc81610b90565b9050919050565b7f45524332303a20617070726f766520746f20746865207a65726f20616464726560008201527f7373000000000000000000000000000000000000000000000000000000000000602082015250565b6000610c2f602283610ac4565b9150610c3a82610bd3565b604082019050919050565b60006020820190508181036000830152610c5e81610c22565b9050919050565b7f45524332303a20696e73756666696369656e7420616c6c6f77616e6365000000600082015250565b6000610c9b601d83610ac4565b9150610ca682610c65565b602082019050919050565b60006020820190508181036000830152610cca81610c8e565b9050919050565b7f45524332303a207472616e736665722066726f6d20746865207a65726f20616460008201527f6472657373000000000000000000000000000000000000000000000000000000602082015250565b6000610d2d602583610ac4565b9150610d3882610cd1565b604082019050919050565b60006020820190508181036000830152610d5c81610d20565b9050919050565b7f45524332303a207472616e7366657220746f20746865207a65726f206164647260008201527f6573730000000000000000000000000000000000000000000000000000000000602082015250565b6000610dbf602383610ac4565b9150610dca82610d63565b604082019050919050565b60006020820190508181036000830152610dee81610db2565b9050919050565b7f45524332303a207472616e7366657220616d6f756e742065786365656473206260008201527f616c616e63650000000000000000000000000000000000000000000000000000602082015250565b6000610e51602683610ac4565b9150610e5c82610df5565b604082019050919050565b60006020820190508181036000830152610e8081610e44565b9050919050565b7f4e487b7100000000000000000000000000000000000000000000000000000000600052601160045260246000fd5b6000610ec182610904565b9150610ecc83610904565b9250828203905081811115610ee457610ee3610e87565b5b92915050565b6000610ef582610904565b9150610f0083610904565b9250828201905080821115610f1857610f17610e87565b5b92915050565b7f45524332303a206d696e7420746f20746865207a65726f206164647265737300600082015250565b6000610f54601f83610ac4565b9150610f5f82610f1e565b602082019050919050565b60006020820190508181036000830152610f8381610f47565b905091905056fea264697066735822122000fc8cd4e1f3f944facf6d329b2c739c6246358d4d8ac4fcee47a4bc52b5040764736f6c6343000811003360806040523480156200001157600080fd5b50604051620014bb380380620014bb833981810160405281019062000037919062000380565b33600460006101000a81548173ffffffffffffffffffffffffffffffffffffffff021916908373ffffffffffffffffffffffffffffffffffffffff16021790555081600160006101000a81548173ffffffffffffffffffffffffffffffffffffffff021916908373ffffffffffffffffffffffffffffffffffffffff1602179055508060036000828254620000cd9190620003f6565b925050819055506000620000e66200015160201b60201c565b620f424083620000f7919062000431565b620001039190620004ab565b9050806000803373ffffffffffffffffffffffffffffffffffffffff1673ffffffffffffffffffffffffffffffffffffffff1681526020019081526020016000208190555050505062000543565b6000806003541180156200020557506000600160009054906101000a900473ffffffffffffffffffffffffffffffffffffffff1673ffffffffffffffffffffffffffffffffffffffff166370a08231306040518263ffffffff1660e01b8152600401620001bf9190620004f4565b602060405180830381865afa158015620001dd573d6000803e3d6000fd5b505050506040513d601f19601f8201168201806040525081019062000203919062000511565b115b15620002d357600354620f4240600160009054906101000a900473ffffffffffffffffffffffffffffffffffffffff1673ffffffffffffffffffffffffffffffffffffffff166370a08231306040518263ffffffff1660e01b81526004016200026f9190620004f4565b602060405180830381865afa1580156200028d573d6000803e3d6000fd5b505050506040513d601f19601f82011682018060405250810190620002b3919062000511565b620002bf919062000431565b620002cb9190620004ab565b9050620002d8565b600190505b90565b600080fd5b600073ffffffffffffffffffffffffffffffffffffffff82169050919050565b60006200030d82620002e0565b9050919050565b6200031f8162000300565b81146200032b57600080fd5b50565b6000815190506200033f8162000314565b92915050565b6000819050919050565b6200035a8162000345565b81146200036657600080fd5b50565b6000815190506200037a816200034f565b92915050565b600080604083850312156200039a5762000399620002db565b5b6000620003aa858286016200032e565b9250506020620003bd8582860162000369565b9150509250929050565b7f4e487b7100000000000000000000000000000000000000000000000000000000600052601160045260246000fd5b6000620004038262000345565b9150620004108362000345565b92508282019050808211156200042b576200042a620003c7565b5b92915050565b60006200043e8262000345565b91506200044b8362000345565b92508282026200045b8162000345565b91508282048414831517620004755762000474620003c7565b5b5092915050565b7f4e487b7100000000000000000000000000000000000000000000000000000000600052601260045260246000fd5b6000620004b88262000345565b9150620004c58362000345565b925082620004d857620004d76200047c565b5b828204905092915050565b620004ee8162000300565b82525050565b60006020820190506200050b6000830184620004e3565b92915050565b6000602082840312156200052a5762000529620002db565b5b60006200053a8482850162000369565b91505092915050565b610f6880620005536000396000f3fe608060405234801561001057600080fd5b50600436106100935760003560e01c8063b28a91d011610066578063b28a91d01461011e578063bb500f481461013c578063c339210f1461016c578063e9fad8ee1461018a578063ec1ebd7a1461019457610093565b8063049878f31461009857806318160ddd146100b457806370a08231146100d2578063788d645414610102575b600080fd5b6100b260048036038101906100ad9190610941565b6101b2565b005b6100bc61036d565b6040516100c9919061097d565b60405180910390f35b6100ec60048036038101906100e791906109f6565b610373565b6040516100f9919061097d565b60405180910390f35b61011c600480360381019061011791906109f6565b61038b565b005b61012661045f565b6040516101339190610a82565b60405180910390f35b61015660048036038101906101519190610a9d565b610485565b6040516101639190610af8565b60405180910390f35b6101746105bf565b6040516101819190610b22565b60405180910390f35b6101926105e5565b005b61019c61078d565b6040516101a9919061097d565b60405180910390f35b600081116101f5576040517f08c379a00000000000000000000000000000000000000000000000000000000081526004016101ec90610b9a565b60405180910390fd5b60006101ff61078d565b620f42408361020e9190610be9565b6102189190610c5a565b9050806003600082825461022c9190610c8b565b92505081905550806000803373ffffffffffffffffffffffffffffffffffffffff1673ffffffffffffffffffffffffffffffffffffffff16815260200190815260200160002060008282546102819190610c8b565b92505081905550600160009054906101000a900473ffffffffffffffffffffffffffffffffffffffff1673ffffffffffffffffffffffffffffffffffffffff166323b872dd3330856040518463ffffffff1660e01b81526004016102e793929190610cbf565b6020604051808303816000875af1158015610306573d6000803e3d6000fd5b505050506040513d601f19601f8201168201806040525081019061032a9190610d22565b610369576040517f08c379a000000000000000000000000000000000000000000000000000000000815260040161036090610d9b565b60405180910390fd5b5050565b60035481565b60006020528060005260406000206000915090505481565b600460009054906101000a900473ffffffffffffffffffffffffffffffffffffffff1673ffffffffffffffffffffffffffffffffffffffff163373ffffffffffffffffffffffffffffffffffffffff161461041b576040517f08c379a000000000000000000000000000000000000000000000000000000000815260040161041290610e07565b60405180910390fd5b80600260006101000a81548173ffffffffffffffffffffffffffffffffffffffff021916908373ffffffffffffffffffffffffffffffffffffffff16021790555050565b600160009054906101000a900473ffffffffffffffffffffffffffffffffffffffff1681565b6000600260009054906101000a900473ffffffffffffffffffffffffffffffffffffffff1673ffffffffffffffffffffffffffffffffffffffff163373ffffffffffffffffffffffffffffffffffffffff1614610517576040517f08c379a000000000000000000000000000000000000000000000000000000000815260040161050e90610e73565b60405180910390fd5b600160009054906101000a900473ffffffffffffffffffffffffffffffffffffffff1673ffffffffffffffffffffffffffffffffffffffff1663a9059cbb84846040518363ffffffff1660e01b8152600401610574929190610e93565b6020604051808303816000875af1158015610593573d6000803e3d6000fd5b505050506040513d601f19601f820116820180604052508101906105b79190610d22565b905092915050565b600460009054906101000a900473ffffffffffffffffffffffffffffffffffffffff1681565b60008060003373ffffffffffffffffffffffffffffffffffffffff1673ffffffffffffffffffffffffffffffffffffffff1681526020019081526020016000205490506000620f424061063661078d565b836106419190610be9565b61064b9190610c5a565b9050816003600082825461065f9190610ebc565b9250508190555060008060003373ffffffffffffffffffffffffffffffffffffffff1673ffffffffffffffffffffffffffffffffffffffff16815260200190815260200160002081905550600160009054906101000a900473ffffffffffffffffffffffffffffffffffffffff1673ffffffffffffffffffffffffffffffffffffffff1663a9059cbb33836040518363ffffffff1660e01b8152600401610707929190610e93565b6020604051808303816000875af1158015610726573d6000803e3d6000fd5b505050506040513d601f19601f8201168201806040525081019061074a9190610d22565b610789576040517f08c379a000000000000000000000000000000000000000000000000000000000815260040161078090610d9b565b60405180910390fd5b5050565b60008060035411801561083b57506000600160009054906101000a900473ffffffffffffffffffffffffffffffffffffffff1673ffffffffffffffffffffffffffffffffffffffff166370a08231306040518263ffffffff1660e01b81526004016107f89190610b22565b602060405180830381865afa158015610815573d6000803e3d6000fd5b505050506040513d601f19601f820116820180604052508101906108399190610f05565b115b156108fe57600354620f4240600160009054906101000a900473ffffffffffffffffffffffffffffffffffffffff1673ffffffffffffffffffffffffffffffffffffffff166370a08231306040518263ffffffff1660e01b81526004016108a29190610b22565b602060405180830381865afa1580156108bf573d6000803e3d6000fd5b505050506040513d601f19601f820116820180604052508101906108e39190610f05565b6108ed9190610be9565b6108f79190610c5a565b9050610903565b600190505b90565b600080fd5b6000819050919050565b61091e8161090b565b811461092957600080fd5b50565b60008135905061093b81610915565b92915050565b60006020828403121561095757610956610906565b5b60006109658482850161092c565b91505092915050565b6109778161090b565b82525050565b6000602082019050610992600083018461096e565b92915050565b600073ffffffffffffffffffffffffffffffffffffffff82169050919050565b60006109c382610998565b9050919050565b6109d3816109b8565b81146109de57600080fd5b50565b6000813590506109f0816109ca565b92915050565b600060208284031215610a0c57610a0b610906565b5b6000610a1a848285016109e1565b91505092915050565b6000819050919050565b6000610a48610a43610a3e84610998565b610a23565b610998565b9050919050565b6000610a5a82610a2d565b9050919050565b6000610a6c82610a4f565b9050919050565b610a7c81610a61565b82525050565b6000602082019050610a976000830184610a73565b92915050565b60008060408385031215610ab457610ab3610906565b5b6000610ac2858286016109e1565b9250506020610ad38582860161092c565b9150509250929050565b60008115159050919050565b610af281610add565b82525050565b6000602082019050610b0d6000830184610ae9565b92915050565b610b1c816109b8565b82525050565b6000602082019050610b376000830184610b13565b92915050565b600082825260208201905092915050565b7f43414e4e4f545f5354414b455f5a45524f5f544f4b454e530000000000000000600082015250565b6000610b84601883610b3d565b9150610b8f82610b4e565b602082019050919050565b60006020820190508181036000830152610bb381610b77565b9050919050565b7f4e487b7100000000000000000000000000000000000000000000000000000000600052601160045260246000fd5b6000610bf48261090b565b9150610bff8361090b565b9250828202610c0d8161090b565b91508282048414831517610c2457610c23610bba565b5b5092915050565b7f4e487b7100000000000000000000000000000000000000000000000000000000600052601260045260246000fd5b6000610c658261090b565b9150610c708361090b565b925082610c8057610c7f610c2b565b5b828204905092915050565b6000610c968261090b565b9150610ca18361090b565b9250828201905080821115610cb957610cb8610bba565b5b92915050565b6000606082019050610cd46000830186610b13565b610ce16020830185610b13565b610cee604083018461096e565b949350505050565b610cff81610add565b8114610d0a57600080fd5b50565b600081519050610d1c81610cf6565b92915050565b600060208284031215610d3857610d37610906565b5b6000610d4684828501610d0d565b91505092915050565b7f5452414e534645525f5354414b45445f4641494c000000000000000000000000600082015250565b6000610d85601483610b3d565b9150610d9082610d4f565b602082019050919050565b60006020820190508181036000830152610db481610d78565b9050919050565b7f736574507269766564657220466f7262696464656e2100000000000000000000600082015250565b6000610df1601683610b3d565b9150610dfc82610dbb565b602082019050919050565b60006020820190508181036000830152610e2081610de4565b9050919050565b7f7472616e73666572546f4163636f756e7420466f7262696464656e2100000000600082015250565b6000610e5d601c83610b3d565b9150610e6882610e27565b602082019050919050565b60006020820190508181036000830152610e8c81610e50565b9050919050565b6000604082019050610ea86000830185610b13565b610eb5602083018461096e565b9392505050565b6000610ec78261090b565b9150610ed28361090b565b9250828203905081811115610eea57610ee9610bba565b5b92915050565b600081519050610eff81610915565b92915050565b600060208284031215610f1b57610f1a610906565b5b6000610f2984828501610ef0565b9150509291505056fea2646970667358221220ae08ea04d2505a6d8edd3021cfa99ef0a2a1fbe6aea6089997343b0e0cc81ca464736f6c6343000811003360806040527f1a6092262d7dc33c2f4b9913ad9318a8c41a138bb42dfacd4c7b6b46b865652260001b6001557fb158f1759111cd99128505f450f608c97178e2b6b9b6f7c3b0d2949e3a21cd0260001b6002557f3ade8887fce9b513d41eb36180d6f7d9e072c756991034de2c9a5da541fb818460001b600355601b600460006101000a81548160ff021916908360ff160217905550348015620000a257600080fd5b5060405162001a1138038062001a118339818101604052810190620000c89190620001ba565b33600460016101000a81548173ffffffffffffffffffffffffffffffffffffffff021916908373ffffffffffffffffffffffffffffffffffffffff160217905550806000806101000a81548173ffffffffffffffffffffffffffffffffffffffff021916908373ffffffffffffffffffffffffffffffffffffffff16021790555050620001ec565b600080fd5b600073ffffffffffffffffffffffffffffffffffffffff82169050919050565b6000620001828262000155565b9050919050565b620001948162000175565b8114620001a057600080fd5b50565b600081519050620001b48162000189565b92915050565b600060208284031215620001d357620001d262000150565b5b6000620001e384828501620001a3565b91505092915050565b61181580620001fc6000396000f3fe608060405234801561001057600080fd5b506004361061007d5760003560e01c8063c339210f1161005b578063c339210f146100dc578063cdb12af8146100fa578063e4e6cf4f1461012a578063e8aeee45146101485761007d565b80636c8ae38c146100825780637c2efcba146100a057806386b714e2146100be575b600080fd5b61008a610178565b6040516100979190610b79565b60405180910390f35b6100a861017e565b6040516100b59190610bb0565b60405180910390f35b6100c6610191565b6040516100d39190610b79565b60405180910390f35b6100e4610197565b6040516100f19190610c0c565b60405180910390f35b610114600480360381019061010f9190610e81565b6101bd565b6040516101219190610f52565b60405180910390f35b610132610713565b60405161013f9190610b79565b60405180910390f35b610162600480360381019061015d9190610f6d565b610719565b60405161016f9190610b79565b60405180910390f35b60025481565b600460009054906101000a900460ff1681565b60035481565b600460019054906101000a900473ffffffffffffffffffffffffffffffffffffffff1681565b600080308689896040516020016101d79493929190611090565b6040516020818303038152906040528051906020012090506101f98186610756565b73ffffffffffffffffffffffffffffffffffffffff16610230600154600460009054906101000a900460ff1660025460035461077d565b73ffffffffffffffffffffffffffffffffffffffff1614610286576040517f08c379a000000000000000000000000000000000000000000000000000000000815260040161027d9061113b565b60405180910390fd5b60008054906101000a900473ffffffffffffffffffffffffffffffffffffffff1673ffffffffffffffffffffffffffffffffffffffff1663b28a91d06040518163ffffffff1660e01b8152600401602060405180830381865afa1580156102f1573d6000803e3d6000fd5b505050506040513d601f19601f820116820180604052508101906103159190611199565b73ffffffffffffffffffffffffffffffffffffffff166370a0823160008054906101000a900473ffffffffffffffffffffffffffffffffffffffff166040518263ffffffff1660e01b815260040161036d9190610c0c565b602060405180830381865afa15801561038a573d6000803e3d6000fd5b505050506040513d601f19601f820116820180604052508101906103ae91906111db565b8611156103f0576040517f08c379a00000000000000000000000000000000000000000000000000000000081526004016103e790611254565b60405180910390fd5b60008054906101000a900473ffffffffffffffffffffffffffffffffffffffff1673ffffffffffffffffffffffffffffffffffffffff1663bb500f4889886040518363ffffffff1660e01b815260040161044b929190611283565b6020604051808303816000875af115801561046a573d6000803e3d6000fd5b505050506040513d601f19601f8201168201806040525081019061048e91906112d8565b6104cd576040517f08c379a00000000000000000000000000000000000000000000000000000000081526004016104c490611351565b60405180910390fd5b600115158873ffffffffffffffffffffffffffffffffffffffff1663c00c8b6c338a8a89896040518663ffffffff1660e01b81526004016105129594939291906113af565b6020604051808303816000875af1158015610531573d6000803e3d6000fd5b505050506040513d601f19601f8201168201806040525081019061055591906112d8565b151514610597576040517f08c379a000000000000000000000000000000000000000000000000000000000815260040161058e90611449565b60405180910390fd5b60008054906101000a900473ffffffffffffffffffffffffffffffffffffffff1673ffffffffffffffffffffffffffffffffffffffff1663b28a91d06040518163ffffffff1660e01b8152600401602060405180830381865afa158015610602573d6000803e3d6000fd5b505050506040513d601f19601f820116820180604052508101906106269190611199565b73ffffffffffffffffffffffffffffffffffffffff166323b872dd8960008054906101000a900473ffffffffffffffffffffffffffffffffffffffff16896040518463ffffffff1660e01b815260040161068293929190611469565b6020604051808303816000875af11580156106a1573d6000803e3d6000fd5b505050506040513d601f19601f820116820180604052508101906106c591906112d8565b610704576040517f08c379a00000000000000000000000000000000000000000000000000000000081526004016106fb906114ec565b60405180910390fd5b60019150509695505050505050565b60015481565b600080308386866040516020016107339493929190611090565b604051602081830303815290604052805190602001209050809150509392505050565b600080600061076585856107a8565b9150915061077281610829565b819250505092915050565b600080600061078e878787876109f5565b9150915061079b81610829565b8192505050949350505050565b60008060418351036107e95760008060006020860151925060408601519150606086015160001a90506107dd878285856109f5565b94509450505050610822565b604083510361081957600080602085015191506040850151905061080e868383610b01565b935093505050610822565b60006002915091505b9250929050565b6000600481111561083d5761083c61150c565b5b8160048111156108505761084f61150c565b5b03156109f2576001600481111561086a5761086961150c565b5b81600481111561087d5761087c61150c565b5b036108bd576040517f08c379a00000000000000000000000000000000000000000000000000000000081526004016108b490611587565b60405180910390fd5b600260048111156108d1576108d061150c565b5b8160048111156108e4576108e361150c565b5b03610924576040517f08c379a000000000000000000000000000000000000000000000000000000000815260040161091b906115f3565b60405180910390fd5b600360048111156109385761093761150c565b5b81600481111561094b5761094a61150c565b5b0361098b576040517f08c379a000000000000000000000000000000000000000000000000000000000815260040161098290611685565b60405180910390fd5b60048081111561099e5761099d61150c565b5b8160048111156109b1576109b061150c565b5b036109f1576040517f08c379a00000000000000000000000000000000000000000000000000000000081526004016109e890611717565b60405180910390fd5b5b50565b6000807f7fffffffffffffffffffffffffffffff5d576e7357a4501ddfe92f46681b20a08360001c1115610a30576000600391509150610af8565b601b8560ff1614158015610a485750601c8560ff1614155b15610a5a576000600491509150610af8565b600060018787878760405160008152602001604052604051610a7f9493929190611737565b6020604051602081039080840390855afa158015610aa1573d6000803e3d6000fd5b505050602060405103519050600073ffffffffffffffffffffffffffffffffffffffff168173ffffffffffffffffffffffffffffffffffffffff1603610aef57600060019250925050610af8565b80600092509250505b94509492505050565b60008060007f7fffffffffffffffffffffffffffffffffffffffffffffffffffffffffffffff60001b841690506000601b60ff8660001c901c610b4491906117ab565b9050610b52878288856109f5565b935093505050935093915050565b6000819050919050565b610b7381610b60565b82525050565b6000602082019050610b8e6000830184610b6a565b92915050565b600060ff82169050919050565b610baa81610b94565b82525050565b6000602082019050610bc56000830184610ba1565b92915050565b600073ffffffffffffffffffffffffffffffffffffffff82169050919050565b6000610bf682610bcb565b9050919050565b610c0681610beb565b82525050565b6000602082019050610c216000830184610bfd565b92915050565b6000604051905090565b600080fd5b600080fd5b6000610c4682610beb565b9050919050565b610c5681610c3b565b8114610c6157600080fd5b50565b600081359050610c7381610c4d565b92915050565b610c8281610beb565b8114610c8d57600080fd5b50565b600081359050610c9f81610c79565b92915050565b6000819050919050565b610cb881610ca5565b8114610cc357600080fd5b50565b600081359050610cd581610caf565b92915050565b600080fd5b600080fd5b6000601f19601f8301169050919050565b7f4e487b7100000000000000000000000000000000000000000000000000000000600052604160045260246000fd5b610d2e82610ce5565b810181811067ffffffffffffffff82111715610d4d57610d4c610cf6565b5b80604052505050565b6000610d60610c27565b9050610d6c8282610d25565b919050565b600067ffffffffffffffff821115610d8c57610d8b610cf6565b5b610d9582610ce5565b9050602081019050919050565b82818337600083830152505050565b6000610dc4610dbf84610d71565b610d56565b905082815260208101848484011115610de057610ddf610ce0565b5b610deb848285610da2565b509392505050565b600082601f830112610e0857610e07610cdb565b5b8135610e18848260208601610db1565b91505092915050565b600080fd5b600080fd5b60008083601f840112610e4157610e40610cdb565b5b8235905067ffffffffffffffff811115610e5e57610e5d610e21565b5b602083019150836001820283011115610e7a57610e79610e26565b5b9250929050565b60008060008060008060a08789031215610e9e57610e9d610c31565b5b6000610eac89828a01610c64565b9650506020610ebd89828a01610c90565b9550506040610ece89828a01610cc6565b945050606087013567ffffffffffffffff811115610eef57610eee610c36565b5b610efb89828a01610df3565b935050608087013567ffffffffffffffff811115610f1c57610f1b610c36565b5b610f2889828a01610e2b565b92509250509295509295509295565b60008115159050919050565b610f4c81610f37565b82525050565b6000602082019050610f676000830184610f43565b92915050565b600080600060608486031215610f8657610f85610c31565b5b6000610f9486828701610c64565b9350506020610fa586828701610c90565b9250506040610fb686828701610cc6565b9150509250925092565b60008160601b9050919050565b6000610fd882610fc0565b9050919050565b6000610fea82610fcd565b9050919050565b611002610ffd82610beb565b610fdf565b82525050565b6000819050919050565b61102361101e82610ca5565b611008565b82525050565b6000819050919050565b600061104e61104961104484610bcb565b611029565b610bcb565b9050919050565b600061106082611033565b9050919050565b600061107282611055565b9050919050565b61108a61108582611067565b610fdf565b82525050565b600061109c8287610ff1565b6014820191506110ac8286611012565b6020820191506110bc8285611079565b6014820191506110cc8284610ff1565b60148201915081905095945050505050565b600082825260208201905092915050565b7f4572726f72207369676e65722100000000000000000000000000000000000000600082015250565b6000611125600d836110de565b9150611130826110ef565b602082019050919050565b6000602082019050818103600083015261115481611118565b9050919050565b600061116682610beb565b9050919050565b6111768161115b565b811461118157600080fd5b50565b6000815190506111938161116d565b92915050565b6000602082840312156111af576111ae610c31565b5b60006111bd84828501611184565b91505092915050565b6000815190506111d581610caf565b92915050565b6000602082840312156111f1576111f0610c31565b5b60006111ff848285016111c6565b91505092915050565b7f414d4f554e545f4249474745525f5448414e5f42414c414e4345000000000000600082015250565b600061123e601a836110de565b915061124982611208565b602082019050919050565b6000602082019050818103600083015261126d81611231565b9050919050565b61127d81610ca5565b82525050565b60006040820190506112986000830185610bfd565b6112a56020830184611274565b9392505050565b6112b581610f37565b81146112c057600080fd5b50565b6000815190506112d2816112ac565b92915050565b6000602082840312156112ee576112ed610c31565b5b60006112fc848285016112c3565b91505092915050565b7f464c4153485f4c454e4445525f5452414e534645525f4641494c454400000000600082015250565b600061133b601c836110de565b915061134682611305565b602082019050919050565b6000602082019050818103600083015261136a8161132e565b9050919050565b600082825260208201905092915050565b600061138e8385611371565b935061139b838584610da2565b6113a483610ce5565b840190509392505050565b60006080820190506113c46000830188610bfd565b6113d16020830187610bfd565b6113de6040830186611274565b81810360608301526113f1818486611382565b90509695505050505050565b7f464c4153485f4c454e4445525f43414c4c4241434b5f4641494c454400000000600082015250565b6000611433601c836110de565b915061143e826113fd565b602082019050919050565b6000602082019050818103600083015261146281611426565b9050919050565b600060608201905061147e6000830186610bfd565b61148b6020830185610bfd565b6114986040830184611274565b949350505050565b7f464c4153485f4c454e4445525f52455041595f4641494c454400000000000000600082015250565b60006114d66019836110de565b91506114e1826114a0565b602082019050919050565b60006020820190508181036000830152611505816114c9565b9050919050565b7f4e487b7100000000000000000000000000000000000000000000000000000000600052602160045260246000fd5b7f45434453413a20696e76616c6964207369676e61747572650000000000000000600082015250565b60006115716018836110de565b915061157c8261153b565b602082019050919050565b600060208201905081810360008301526115a081611564565b9050919050565b7f45434453413a20696e76616c6964207369676e6174757265206c656e67746800600082015250565b60006115dd601f836110de565b91506115e8826115a7565b602082019050919050565b6000602082019050818103600083015261160c816115d0565b9050919050565b7f45434453413a20696e76616c6964207369676e6174757265202773272076616c60008201527f7565000000000000000000000000000000000000000000000000000000000000602082015250565b600061166f6022836110de565b915061167a82611613565b604082019050919050565b6000602082019050818103600083015261169e81611662565b9050919050565b7f45434453413a20696e76616c6964207369676e6174757265202776272076616c60008201527f7565000000000000000000000000000000000000000000000000000000000000602082015250565b60006117016022836110de565b915061170c826116a5565b604082019050919050565b60006020820190508181036000830152611730816116f4565b9050919050565b600060808201905061174c6000830187610b6a565b6117596020830186610ba1565b6117666040830185610b6a565b6117736060830184610b6a565b95945050505050565b7f4e487b7100000000000000000000000000000000000000000000000000000000600052601160045260246000fd5b60006117b682610ca5565b91506117c183610ca5565b92508282019050808211156117d9576117d861177c565b5b9291505056fea2646970667358221220af1218769aff768cf53313145b455978206aa83a137d11f8a6c1928773196a1064736f6c63430008110033",
			"opcodes": "PUSH1 0x80 PUSH1 0x40 MSTORE CALLVALUE DUP1 ISZERO PUSH3 0x11 JUMPI PUSH1 0x0 DUP1 REVERT JUMPDEST POP PUSH1 0x40 MLOAD PUSH3 0x20 SWAP1 PUSH3 0x32F JUMP JUMPDEST PUSH1 0x40 MLOAD DUP1 SWAP2 SUB SWAP1 PUSH1 0x0 CREATE DUP1 ISZERO DUP1 ISZERO PUSH3 0x3D JUMPI RETURNDATASIZE PUSH1 0x0 DUP1 RETURNDATACOPY RETURNDATASIZE PUSH1 0x0 REVERT JUMPDEST POP PUSH1 0x1 PUSH1 0x0 PUSH2 0x100 EXP DUP2 SLOAD DUP2 PUSH20 0xFFFFFFFFFFFFFFFFFFFFFFFFFFFFFFFFFFFFFFFF MUL NOT AND SWAP1 DUP4 PUSH20 0xFFFFFFFFFFFFFFFFFFFFFFFFFFFFFFFFFFFFFFFF AND MUL OR SWAP1 SSTORE POP PUSH1 0x1 PUSH1 0x0 SWAP1 SLOAD SWAP1 PUSH2 0x100 EXP SWAP1 DIV PUSH20 0xFFFFFFFFFFFFFFFFFFFFFFFFFFFFFFFFFFFFFFFF AND PUSH9 0x3635C9ADC5DEA00000 PUSH1 0x40 MLOAD PUSH3 0xB9 SWAP1 PUSH3 0x33D JUMP JUMPDEST PUSH3 0xC6 SWAP3 SWAP2 SWAP1 PUSH3 0x3F5 JUMP JUMPDEST PUSH1 0x40 MLOAD DUP1 SWAP2 SUB SWAP1 PUSH1 0x0 CREATE DUP1 ISZERO DUP1 ISZERO PUSH3 0xE3 JUMPI RETURNDATASIZE PUSH1 0x0 DUP1 RETURNDATACOPY RETURNDATASIZE PUSH1 0x0 REVERT JUMPDEST POP PUSH1 0x0 DUP1 PUSH2 0x100 EXP DUP2 SLOAD DUP2 PUSH20 0xFFFFFFFFFFFFFFFFFFFFFFFFFFFFFFFFFFFFFFFF MUL NOT AND SWAP1 DUP4 PUSH20 0xFFFFFFFFFFFFFFFFFFFFFFFFFFFFFFFFFFFFFFFF AND MUL OR SWAP1 SSTORE POP PUSH1 0x1 PUSH1 0x0 SWAP1 SLOAD SWAP1 PUSH2 0x100 EXP SWAP1 DIV PUSH20 0xFFFFFFFFFFFFFFFFFFFFFFFFFFFFFFFFFFFFFFFF AND PUSH20 0xFFFFFFFFFFFFFFFFFFFFFFFFFFFFFFFFFFFFFFFF AND PUSH4 0x40C10F19 PUSH1 0x0 DUP1 SLOAD SWAP1 PUSH2 0x100 EXP SWAP1 DIV PUSH20 0xFFFFFFFFFFFFFFFFFFFFFFFFFFFFFFFFFFFFFFFF AND PUSH9 0x3635C9ADC5DEA00000 PUSH1 0x40 MLOAD DUP4 PUSH4 0xFFFFFFFF AND PUSH1 0xE0 SHL DUP2 MSTORE PUSH1 0x4 ADD PUSH3 0x1AB SWAP3 SWAP2 SWAP1 PUSH3 0x3F5 JUMP JUMPDEST PUSH1 0x0 PUSH1 0x40 MLOAD DUP1 DUP4 SUB DUP2 PUSH1 0x0 DUP8 DUP1 EXTCODESIZE ISZERO DUP1 ISZERO PUSH3 0x1C6 JUMPI PUSH1 0x0 DUP1 REVERT JUMPDEST POP GAS CALL ISZERO DUP1 ISZERO PUSH3 0x1DB JUMPI RETURNDATASIZE PUSH1 0x0 DUP1 RETURNDATACOPY RETURNDATASIZE PUSH1 0x0 REVERT JUMPDEST POP POP POP POP PUSH1 0x0 DUP1 SLOAD SWAP1 PUSH2 0x100 EXP SWAP1 DIV PUSH20 0xFFFFFFFFFFFFFFFFFFFFFFFFFFFFFFFFFFFFFFFF AND PUSH1 0x40 MLOAD PUSH3 0x20E SWAP1 PUSH3 0x34B JUMP JUMPDEST PUSH3 0x21A SWAP2 SWAP1 PUSH3 0x422 JUMP JUMPDEST PUSH1 0x40 MLOAD DUP1 SWAP2 SUB SWAP1 PUSH1 0x0 CREATE DUP1 ISZERO DUP1 ISZERO PUSH3 0x237 JUMPI RETURNDATASIZE PUSH1 0x0 DUP1 RETURNDATACOPY RETURNDATASIZE PUSH1 0x0 REVERT JUMPDEST POP PUSH1 0x2 PUSH1 0x0 PUSH2 0x100 EXP DUP2 SLOAD DUP2 PUSH20 0xFFFFFFFFFFFFFFFFFFFFFFFFFFFFFFFFFFFFFFFF MUL NOT AND SWAP1 DUP4 PUSH20 0xFFFFFFFFFFFFFFFFFFFFFFFFFFFFFFFFFFFFFFFF AND MUL OR SWAP1 SSTORE POP PUSH1 0x0 DUP1 SLOAD SWAP1 PUSH2 0x100 EXP SWAP1 DIV PUSH20 0xFFFFFFFFFFFFFFFFFFFFFFFFFFFFFFFFFFFFFFFF AND PUSH20 0xFFFFFFFFFFFFFFFFFFFFFFFFFFFFFFFFFFFFFFFF AND PUSH4 0x788D6454 PUSH1 0x2 PUSH1 0x0 SWAP1 SLOAD SWAP1 PUSH2 0x100 EXP SWAP1 DIV PUSH20 0xFFFFFFFFFFFFFFFFFFFFFFFFFFFFFFFFFFFFFFFF AND PUSH1 0x40 MLOAD DUP3 PUSH4 0xFFFFFFFF AND PUSH1 0xE0 SHL DUP2 MSTORE PUSH1 0x4 ADD PUSH3 0x2F5 SWAP2 SWAP1 PUSH3 0x422 JUMP JUMPDEST PUSH1 0x0 PUSH1 0x40 MLOAD DUP1 DUP4 SUB DUP2 PUSH1 0x0 DUP8 DUP1 EXTCODESIZE ISZERO DUP1 ISZERO PUSH3 0x310 JUMPI PUSH1 0x0 DUP1 REVERT JUMPDEST POP GAS CALL ISZERO DUP1 ISZERO PUSH3 0x325 JUMPI RETURNDATASIZE PUSH1 0x0 DUP1 RETURNDATACOPY RETURNDATASIZE PUSH1 0x0 REVERT JUMPDEST POP POP POP POP PUSH3 0x43F JUMP JUMPDEST PUSH2 0x1021 DUP1 PUSH3 0xB43 DUP4 CODECOPY ADD SWAP1 JUMP JUMPDEST PUSH2 0x14BB DUP1 PUSH3 0x1B64 DUP4 CODECOPY ADD SWAP1 JUMP JUMPDEST PUSH2 0x1A11 DUP1 PUSH3 0x301F DUP4 CODECOPY ADD SWAP1 JUMP JUMPDEST PUSH1 0x0 PUSH20 0xFFFFFFFFFFFFFFFFFFFFFFFFFFFFFFFFFFFFFFFF DUP3 AND SWAP1 POP SWAP2 SWAP1 POP JUMP JUMPDEST PUSH1 0x0 PUSH3 0x386 DUP3 PUSH3 0x359 JUMP JUMPDEST SWAP1 POP SWAP2 SWAP1 POP JUMP JUMPDEST PUSH3 0x398 DUP2 PUSH3 0x379 JUMP JUMPDEST DUP3 MSTORE POP POP JUMP JUMPDEST PUSH1 0x0 DUP2 SWAP1 POP SWAP2 SWAP1 POP JUMP JUMPDEST PUSH1 0x0 DUP2 SWAP1 POP SWAP2 SWAP1 POP JUMP JUMPDEST PUSH1 0x0 DUP2 SWAP1 POP SWAP2 SWAP1 POP JUMP JUMPDEST PUSH1 0x0 PUSH3 0x3DD PUSH3 0x3D7 PUSH3 0x3D1 DUP5 PUSH3 0x39E JUMP JUMPDEST PUSH3 0x3B2 JUMP JUMPDEST PUSH3 0x3A8 JUMP JUMPDEST SWAP1 POP SWAP2 SWAP1 POP JUMP JUMPDEST PUSH3 0x3EF DUP2 PUSH3 0x3BC JUMP JUMPDEST DUP3 MSTORE POP POP JUMP JUMPDEST PUSH1 0x0 PUSH1 0x40 DUP3 ADD SWAP1 POP PUSH3 0x40C PUSH1 0x0 DUP4 ADD DUP6 PUSH3 0x38D JUMP JUMPDEST PUSH3 0x41B PUSH1 0x20 DUP4 ADD DUP5 PUSH3 0x3E4 JUMP JUMPDEST SWAP4 SWAP3 POP POP POP JUMP JUMPDEST PUSH1 0x0 PUSH1 0x20 DUP3 ADD SWAP1 POP PUSH3 0x439 PUSH1 0x0 DUP4 ADD DUP5 PUSH3 0x38D JUMP JUMPDEST SWAP3 SWAP2 POP POP JUMP JUMPDEST PUSH2 0x6F4 DUP1 PUSH3 0x44F PUSH1 0x0 CODECOPY PUSH1 0x0 RETURN INVALID PUSH1 0x80 PUSH1 0x40 MSTORE CALLVALUE DUP1 ISZERO PUSH2 0x10 JUMPI PUSH1 0x0 DUP1 REVERT JUMPDEST POP PUSH1 0x4 CALLDATASIZE LT PUSH2 0x7D JUMPI PUSH1 0x0 CALLDATALOAD PUSH1 0xE0 SHR DUP1 PUSH4 0xB2FA1C9E GT PUSH2 0x5B JUMPI DUP1 PUSH4 0xB2FA1C9E EQ PUSH2 0xC8 JUMPI DUP1 PUSH4 0xE5ED3D4E EQ PUSH2 0xE6 JUMPI DUP1 PUSH4 0xF5623007 EQ PUSH2 0x104 JUMPI DUP1 PUSH4 0xFBFA77CF EQ PUSH2 0x122 JUMPI PUSH2 0x7D JUMP JUMPDEST DUP1 PUSH4 0x1B7DCB4 EQ PUSH2 0x82 JUMPI DUP1 PUSH4 0x3884D635 EQ PUSH2 0xA0 JUMPI DUP1 PUSH4 0xB28A91D0 EQ PUSH2 0xAA JUMPI JUMPDEST PUSH1 0x0 DUP1 REVERT JUMPDEST PUSH2 0x8A PUSH2 0x140 JUMP JUMPDEST PUSH1 0x40 MLOAD PUSH2 0x97 SWAP2 SWAP1 PUSH2 0x40C JUMP JUMPDEST PUSH1 0x40 MLOAD DUP1 SWAP2 SUB SWAP1 RETURN JUMPDEST PUSH2 0xA8 PUSH2 0x256 JUMP JUMPDEST STOP JUMPDEST PUSH2 0xB2 PUSH2 0x35B JUMP JUMPDEST PUSH1 0x40 MLOAD PUSH2 0xBF SWAP2 SWAP1 PUSH2 0x4A6 JUMP JUMPDEST PUSH1 0x40 MLOAD DUP1 SWAP2 SUB SWAP1 RETURN JUMPDEST PUSH2 0xD0 PUSH2 0x381 JUMP JUMPDEST PUSH1 0x40 MLOAD PUSH2 0xDD SWAP2 SWAP1 PUSH2 0x40C JUMP JUMPDEST PUSH1 0x40 MLOAD DUP1 SWAP2 SUB SWAP1 RETURN JUMPDEST PUSH2 0xEE PUSH2 0x394 JUMP JUMPDEST PUSH1 0x40 MLOAD PUSH2 0xFB SWAP2 SWAP1 PUSH2 0x40C JUMP JUMPDEST PUSH1 0x40 MLOAD DUP1 SWAP2 SUB SWAP1 RETURN JUMPDEST PUSH2 0x10C PUSH2 0x3A7 JUMP JUMPDEST PUSH1 0x40 MLOAD PUSH2 0x119 SWAP2 SWAP1 PUSH2 0x4E2 JUMP JUMPDEST PUSH1 0x40 MLOAD DUP1 SWAP2 SUB SWAP1 RETURN JUMPDEST PUSH2 0x12A PUSH2 0x3CD JUMP JUMPDEST PUSH1 0x40 MLOAD PUSH2 0x137 SWAP2 SWAP1 PUSH2 0x51E JUMP JUMPDEST PUSH1 0x40 MLOAD DUP1 SWAP2 SUB SWAP1 RETURN JUMPDEST PUSH1 0x0 PUSH9 0x56BC75E2D63100000 PUSH1 0x1 PUSH1 0x0 SWAP1 SLOAD SWAP1 PUSH2 0x100 EXP SWAP1 DIV PUSH20 0xFFFFFFFFFFFFFFFFFFFFFFFFFFFFFFFFFFFFFFFF AND PUSH20 0xFFFFFFFFFFFFFFFFFFFFFFFFFFFFFFFFFFFFFFFF AND PUSH4 0x70A08231 CALLER PUSH1 0x40 MLOAD DUP3 PUSH4 0xFFFFFFFF AND PUSH1 0xE0 SHL DUP2 MSTORE PUSH1 0x4 ADD PUSH2 0x1A7 SWAP2 SWAP1 PUSH2 0x55A JUMP JUMPDEST PUSH1 0x20 PUSH1 0x40 MLOAD DUP1 DUP4 SUB DUP2 DUP7 GAS STATICCALL ISZERO DUP1 ISZERO PUSH2 0x1C4 JUMPI RETURNDATASIZE PUSH1 0x0 DUP1 RETURNDATACOPY RETURNDATASIZE PUSH1 0x0 REVERT JUMPDEST POP POP POP POP PUSH1 0x40 MLOAD RETURNDATASIZE PUSH1 0x1F NOT PUSH1 0x1F DUP3 ADD AND DUP3 ADD DUP1 PUSH1 0x40 MSTORE POP DUP2 ADD SWAP1 PUSH2 0x1E8 SWAP2 SWAP1 PUSH2 0x5B0 JUMP JUMPDEST GT ISZERO PUSH2 0x241 JUMPI PUSH1 0x1 PUSH1 0x2 PUSH1 0x15 PUSH2 0x100 EXP DUP2 SLOAD DUP2 PUSH1 0xFF MUL NOT AND SWAP1 DUP4 ISZERO ISZERO MUL OR SWAP1 SSTORE POP PUSH32 0xEEA1E792D24B1C6F5E22C3DBC65E11B7EFD44B6D2024A15605FA8924EDA63602 CALLER PUSH1 0x40 MLOAD PUSH2 0x238 SWAP2 SWAP1 PUSH2 0x55A JUMP JUMPDEST PUSH1 0x40 MLOAD DUP1 SWAP2 SUB SWAP1 LOG1 JUMPDEST PUSH1 0x2 PUSH1 0x15 SWAP1 SLOAD SWAP1 PUSH2 0x100 EXP SWAP1 DIV PUSH1 0xFF AND SWAP1 POP SWAP1 JUMP JUMPDEST PUSH1 0x2 PUSH1 0x14 SWAP1 SLOAD SWAP1 PUSH2 0x100 EXP SWAP1 DIV PUSH1 0xFF AND ISZERO PUSH2 0x2A6 JUMPI PUSH1 0x40 MLOAD PUSH32 0x8C379A000000000000000000000000000000000000000000000000000000000 DUP2 MSTORE PUSH1 0x4 ADD PUSH2 0x29D SWAP1 PUSH2 0x63A JUMP JUMPDEST PUSH1 0x40 MLOAD DUP1 SWAP2 SUB SWAP1 REVERT JUMPDEST PUSH1 0x1 PUSH1 0x0 SWAP1 SLOAD SWAP1 PUSH2 0x100 EXP SWAP1 DIV PUSH20 0xFFFFFFFFFFFFFFFFFFFFFFFFFFFFFFFFFFFFFFFF AND PUSH20 0xFFFFFFFFFFFFFFFFFFFFFFFFFFFFFFFFFFFFFFFF AND PUSH4 0x40C10F19 CALLER PUSH9 0x56BC75E2D63100000 PUSH1 0x40 MLOAD DUP4 PUSH4 0xFFFFFFFF AND PUSH1 0xE0 SHL DUP2 MSTORE PUSH1 0x4 ADD PUSH2 0x30C SWAP3 SWAP2 SWAP1 PUSH2 0x695 JUMP JUMPDEST PUSH1 0x0 PUSH1 0x40 MLOAD DUP1 DUP4 SUB DUP2 PUSH1 0x0 DUP8 DUP1 EXTCODESIZE ISZERO DUP1 ISZERO PUSH2 0x326 JUMPI PUSH1 0x0 DUP1 REVERT JUMPDEST POP GAS CALL ISZERO DUP1 ISZERO PUSH2 0x33A JUMPI RETURNDATASIZE PUSH1 0x0 DUP1 RETURNDATACOPY RETURNDATASIZE PUSH1 0x0 REVERT JUMPDEST POP POP POP POP PUSH1 0x1 PUSH1 0x2 PUSH1 0x14 PUSH2 0x100 EXP DUP2 SLOAD DUP2 PUSH1 0xFF MUL NOT AND SWAP1 DUP4 ISZERO ISZERO MUL OR SWAP1 SSTORE POP JUMP JUMPDEST PUSH1 0x1 PUSH1 0x0 SWAP1 SLOAD SWAP1 PUSH2 0x100 EXP SWAP1 DIV PUSH20 0xFFFFFFFFFFFFFFFFFFFFFFFFFFFFFFFFFFFFFFFF AND DUP2 JUMP JUMPDEST PUSH1 0x2 PUSH1 0x15 SWAP1 SLOAD SWAP1 PUSH2 0x100 EXP SWAP1 DIV PUSH1 0xFF AND DUP2 JUMP JUMPDEST PUSH1 0x2 PUSH1 0x14 SWAP1 SLOAD SWAP1 PUSH2 0x100 EXP SWAP1 DIV PUSH1 0xFF AND DUP2 JUMP JUMPDEST PUSH1 0x2 PUSH1 0x0 SWAP1 SLOAD SWAP1 PUSH2 0x100 EXP SWAP1 DIV PUSH20 0xFFFFFFFFFFFFFFFFFFFFFFFFFFFFFFFFFFFFFFFF AND DUP2 JUMP JUMPDEST PUSH1 0x0 DUP1 SLOAD SWAP1 PUSH2 0x100 EXP SWAP1 DIV PUSH20 0xFFFFFFFFFFFFFFFFFFFFFFFFFFFFFFFFFFFFFFFF AND DUP2 JUMP JUMPDEST PUSH1 0x0 DUP2 ISZERO ISZERO SWAP1 POP SWAP2 SWAP1 POP JUMP JUMPDEST PUSH2 0x406 DUP2 PUSH2 0x3F1 JUMP JUMPDEST DUP3 MSTORE POP POP JUMP JUMPDEST PUSH1 0x0 PUSH1 0x20 DUP3 ADD SWAP1 POP PUSH2 0x421 PUSH1 0x0 DUP4 ADD DUP5 PUSH2 0x3FD JUMP JUMPDEST SWAP3 SWAP2 POP POP JUMP JUMPDEST PUSH1 0x0 PUSH20 0xFFFFFFFFFFFFFFFFFFFFFFFFFFFFFFFFFFFFFFFF DUP3 AND SWAP1 POP SWAP2 SWAP1 POP JUMP JUMPDEST PUSH1 0x0 DUP2 SWAP1 POP SWAP2 SWAP1 POP JUMP JUMPDEST PUSH1 0x0 PUSH2 0x46C PUSH2 0x467 PUSH2 0x462 DUP5 PUSH2 0x427 JUMP JUMPDEST PUSH2 0x447 JUMP JUMPDEST PUSH2 0x427 JUMP JUMPDEST SWAP1 POP SWAP2 SWAP1 POP JUMP JUMPDEST PUSH1 0x0 PUSH2 0x47E DUP3 PUSH2 0x451 JUMP JUMPDEST SWAP1 POP SWAP2 SWAP1 POP JUMP JUMPDEST PUSH1 0x0 PUSH2 0x490 DUP3 PUSH2 0x473 JUMP JUMPDEST SWAP1 POP SWAP2 SWAP1 POP JUMP JUMPDEST PUSH2 0x4A0 DUP2 PUSH2 0x485 JUMP JUMPDEST DUP3 MSTORE POP POP JUMP JUMPDEST PUSH1 0x0 PUSH1 0x20 DUP3 ADD SWAP1 POP PUSH2 0x4BB PUSH1 0x0 DUP4 ADD DUP5 PUSH2 0x497 JUMP JUMPDEST SWAP3 SWAP2 POP POP JUMP JUMPDEST PUSH1 0x0 PUSH2 0x4CC DUP3 PUSH2 0x473 JUMP JUMPDEST SWAP1 POP SWAP2 SWAP1 POP JUMP JUMPDEST PUSH2 0x4DC DUP2 PUSH2 0x4C1 JUMP JUMPDEST DUP3 MSTORE POP POP JUMP JUMPDEST PUSH1 0x0 PUSH1 0x20 DUP3 ADD SWAP1 POP PUSH2 0x4F7 PUSH1 0x0 DUP4 ADD DUP5 PUSH2 0x4D3 JUMP JUMPDEST SWAP3 SWAP2 POP POP JUMP JUMPDEST PUSH1 0x0 PUSH2 0x508 DUP3 PUSH2 0x473 JUMP JUMPDEST SWAP1 POP SWAP2 SWAP1 POP JUMP JUMPDEST PUSH2 0x518 DUP2 PUSH2 0x4FD JUMP JUMPDEST DUP3 MSTORE POP POP JUMP JUMPDEST PUSH1 0x0 PUSH1 0x20 DUP3 ADD SWAP1 POP PUSH2 0x533 PUSH1 0x0 DUP4 ADD DUP5 PUSH2 0x50F JUMP JUMPDEST SWAP3 SWAP2 POP POP JUMP JUMPDEST PUSH1 0x0 PUSH2 0x544 DUP3 PUSH2 0x427 JUMP JUMPDEST SWAP1 POP SWAP2 SWAP1 POP JUMP JUMPDEST PUSH2 0x554 DUP2 PUSH2 0x539 JUMP JUMPDEST DUP3 MSTORE POP POP JUMP JUMPDEST PUSH1 0x0 PUSH1 0x20 DUP3 ADD SWAP1 POP PUSH2 0x56F PUSH1 0x0 DUP4 ADD DUP5 PUSH2 0x54B JUMP JUMPDEST SWAP3 SWAP2 POP POP JUMP JUMPDEST PUSH1 0x0 DUP1 REVERT JUMPDEST PUSH1 0x0 DUP2 SWAP1 POP SWAP2 SWAP1 POP JUMP JUMPDEST PUSH2 0x58D DUP2 PUSH2 0x57A JUMP JUMPDEST DUP2 EQ PUSH2 0x598 JUMPI PUSH1 0x0 DUP1 REVERT JUMPDEST POP JUMP JUMPDEST PUSH1 0x0 DUP2 MLOAD SWAP1 POP PUSH2 0x5AA DUP2 PUSH2 0x584 JUMP JUMPDEST SWAP3 SWAP2 POP POP JUMP JUMPDEST PUSH1 0x0 PUSH1 0x20 DUP3 DUP5 SUB SLT ISZERO PUSH2 0x5C6 JUMPI PUSH2 0x5C5 PUSH2 0x575 JUMP JUMPDEST JUMPDEST PUSH1 0x0 PUSH2 0x5D4 DUP5 DUP3 DUP6 ADD PUSH2 0x59B JUMP JUMPDEST SWAP2 POP POP SWAP3 SWAP2 POP POP JUMP JUMPDEST PUSH1 0x0 DUP3 DUP3 MSTORE PUSH1 0x20 DUP3 ADD SWAP1 POP SWAP3 SWAP2 POP POP JUMP JUMPDEST PUSH32 0x416C7265616479206765742061697264726F7021000000000000000000000000 PUSH1 0x0 DUP3 ADD MSTORE POP JUMP JUMPDEST PUSH1 0x0 PUSH2 0x624 PUSH1 0x14 DUP4 PUSH2 0x5DD JUMP JUMPDEST SWAP2 POP PUSH2 0x62F DUP3 PUSH2 0x5EE JUMP JUMPDEST PUSH1 0x20 DUP3 ADD SWAP1 POP SWAP2 SWAP1 POP JUMP JUMPDEST PUSH1 0x0 PUSH1 0x20 DUP3 ADD SWAP1 POP DUP2 DUP2 SUB PUSH1 0x0 DUP4 ADD MSTORE PUSH2 0x653 DUP2 PUSH2 0x617 JUMP JUMPDEST SWAP1 POP SWAP2 SWAP1 POP JUMP JUMPDEST PUSH1 0x0 DUP2 SWAP1 POP SWAP2 SWAP1 POP JUMP JUMPDEST PUSH1 0x0 PUSH2 0x67F PUSH2 0x67A PUSH2 0x675 DUP5 PUSH2 0x65A JUMP JUMPDEST PUSH2 0x447 JUMP JUMPDEST PUSH2 0x57A JUMP JUMPDEST SWAP1 POP SWAP2 SWAP1 POP JUMP JUMPDEST PUSH2 0x68F DUP2 PUSH2 0x664 JUMP JUMPDEST DUP3 MSTORE POP POP JUMP JUMPDEST PUSH1 0x0 PUSH1 0x40 DUP3 ADD SWAP1 POP PUSH2 0x6AA PUSH1 0x0 DUP4 ADD DUP6 PUSH2 0x54B JUMP JUMPDEST PUSH2 0x6B7 PUSH1 0x20 DUP4 ADD DUP5 PUSH2 0x686 JUMP JUMPDEST SWAP4 SWAP3 POP POP POP JUMP INVALID LOG2 PUSH5 0x6970667358 0x22 SLT KECCAK256 0xAF PUSH25 0xBA0EEC607C9C34D4BC976F13084CFEDF74208ABBA8CA8A3A02 PUSH13 0x50560C4964736F6C6343000811 STOP CALLER PUSH1 0x80 PUSH1 0x40 MSTORE CALLVALUE DUP1 ISZERO PUSH2 0x10 JUMPI PUSH1 0x0 DUP1 REVERT JUMPDEST POP CALLER PUSH1 0x2 PUSH1 0x0 PUSH2 0x100 EXP DUP2 SLOAD DUP2 PUSH20 0xFFFFFFFFFFFFFFFFFFFFFFFFFFFFFFFFFFFFFFFF MUL NOT AND SWAP1 DUP4 PUSH20 0xFFFFFFFFFFFFFFFFFFFFFFFFFFFFFFFFFFFFFFFF AND MUL OR SWAP1 SSTORE POP PUSH2 0xFC0 DUP1 PUSH2 0x61 PUSH1 0x0 CODECOPY PUSH1 0x0 RETURN INVALID PUSH1 0x80 PUSH1 0x40 MSTORE CALLVALUE DUP1 ISZERO PUSH2 0x10 JUMPI PUSH1 0x0 DUP1 REVERT JUMPDEST POP PUSH1 0x4 CALLDATASIZE LT PUSH2 0x88 JUMPI PUSH1 0x0 CALLDATALOAD PUSH1 0xE0 SHR DUP1 PUSH4 0x70A08231 GT PUSH2 0x5B JUMPI DUP1 PUSH4 0x70A08231 EQ PUSH2 0x127 JUMPI DUP1 PUSH4 0xA9059CBB EQ PUSH2 0x157 JUMPI DUP1 PUSH4 0xC339210F EQ PUSH2 0x187 JUMPI DUP1 PUSH4 0xDD62ED3E EQ PUSH2 0x1A5 JUMPI PUSH2 0x88 JUMP JUMPDEST DUP1 PUSH4 0x95EA7B3 EQ PUSH2 0x8D JUMPI DUP1 PUSH4 0x18160DDD EQ PUSH2 0xBD JUMPI DUP1 PUSH4 0x23B872DD EQ PUSH2 0xDB JUMPI DUP1 PUSH4 0x40C10F19 EQ PUSH2 0x10B JUMPI JUMPDEST PUSH1 0x0 DUP1 REVERT JUMPDEST PUSH2 0xA7 PUSH1 0x4 DUP1 CALLDATASIZE SUB DUP2 ADD SWAP1 PUSH2 0xA2 SWAP2 SWAP1 PUSH2 0x93A JUMP JUMPDEST PUSH2 0x1D5 JUMP JUMPDEST PUSH1 0x40 MLOAD PUSH2 0xB4 SWAP2 SWAP1 PUSH2 0x995 JUMP JUMPDEST PUSH1 0x40 MLOAD DUP1 SWAP2 SUB SWAP1 RETURN JUMPDEST PUSH2 0xC5 PUSH2 0x1EC JUMP JUMPDEST PUSH1 0x40 MLOAD PUSH2 0xD2 SWAP2 SWAP1 PUSH2 0x9BF JUMP JUMPDEST PUSH1 0x40 MLOAD DUP1 SWAP2 SUB SWAP1 RETURN JUMPDEST PUSH2 0xF5 PUSH1 0x4 DUP1 CALLDATASIZE SUB DUP2 ADD SWAP1 PUSH2 0xF0 SWAP2 SWAP1 PUSH2 0x9DA JUMP JUMPDEST PUSH2 0x1F6 JUMP JUMPDEST PUSH1 0x40 MLOAD PUSH2 0x102 SWAP2 SWAP1 PUSH2 0x995 JUMP JUMPDEST PUSH1 0x40 MLOAD DUP1 SWAP2 SUB SWAP1 RETURN JUMPDEST PUSH2 0x125 PUSH1 0x4 DUP1 CALLDATASIZE SUB DUP2 ADD SWAP1 PUSH2 0x120 SWAP2 SWAP1 PUSH2 0x93A JUMP JUMPDEST PUSH2 0x219 JUMP JUMPDEST STOP JUMPDEST PUSH2 0x141 PUSH1 0x4 DUP1 CALLDATASIZE SUB DUP2 ADD SWAP1 PUSH2 0x13C SWAP2 SWAP1 PUSH2 0xA2D JUMP JUMPDEST PUSH2 0x2B7 JUMP JUMPDEST PUSH1 0x40 MLOAD PUSH2 0x14E SWAP2 SWAP1 PUSH2 0x9BF JUMP JUMPDEST PUSH1 0x40 MLOAD DUP1 SWAP2 SUB SWAP1 RETURN JUMPDEST PUSH2 0x171 PUSH1 0x4 DUP1 CALLDATASIZE SUB DUP2 ADD SWAP1 PUSH2 0x16C SWAP2 SWAP1 PUSH2 0x93A JUMP JUMPDEST PUSH2 0x2FF JUMP JUMPDEST PUSH1 0x40 MLOAD PUSH2 0x17E SWAP2 SWAP1 PUSH2 0x995 JUMP JUMPDEST PUSH1 0x40 MLOAD DUP1 SWAP2 SUB SWAP1 RETURN JUMPDEST PUSH2 0x18F PUSH2 0x316 JUMP JUMPDEST PUSH1 0x40 MLOAD PUSH2 0x19C SWAP2 SWAP1 PUSH2 0xA69 JUMP JUMPDEST PUSH1 0x40 MLOAD DUP1 SWAP2 SUB SWAP1 RETURN JUMPDEST PUSH2 0x1BF PUSH1 0x4 DUP1 CALLDATASIZE SUB DUP2 ADD SWAP1 PUSH2 0x1BA SWAP2 SWAP1 PUSH2 0xA84 JUMP JUMPDEST PUSH2 0x33C JUMP JUMPDEST PUSH1 0x40 MLOAD PUSH2 0x1CC SWAP2 SWAP1 PUSH2 0x9BF JUMP JUMPDEST PUSH1 0x40 MLOAD DUP1 SWAP2 SUB SWAP1 RETURN JUMPDEST PUSH1 0x0 PUSH2 0x1E2 CALLER DUP5 DUP5 PUSH2 0x3C3 JUMP JUMPDEST PUSH1 0x1 SWAP1 POP SWAP3 SWAP2 POP POP JUMP JUMPDEST PUSH1 0x0 PUSH1 0x3 SLOAD SWAP1 POP SWAP1 JUMP JUMPDEST PUSH1 0x0 PUSH2 0x203 DUP5 CALLER DUP5 PUSH2 0x527 JUMP JUMPDEST PUSH2 0x20E DUP5 DUP5 DUP5 PUSH2 0x5B3 JUMP JUMPDEST PUSH1 0x1 SWAP1 POP SWAP4 SWAP3 POP POP POP JUMP JUMPDEST PUSH1 0x2 PUSH1 0x0 SWAP1 SLOAD SWAP1 PUSH2 0x100 EXP SWAP1 DIV PUSH20 0xFFFFFFFFFFFFFFFFFFFFFFFFFFFFFFFFFFFFFFFF AND PUSH20 0xFFFFFFFFFFFFFFFFFFFFFFFFFFFFFFFFFFFFFFFF AND CALLER PUSH20 0xFFFFFFFFFFFFFFFFFFFFFFFFFFFFFFFFFFFFFFFF AND EQ PUSH2 0x2A9 JUMPI PUSH1 0x40 MLOAD PUSH32 0x8C379A000000000000000000000000000000000000000000000000000000000 DUP2 MSTORE PUSH1 0x4 ADD PUSH2 0x2A0 SWAP1 PUSH2 0xB21 JUMP JUMPDEST PUSH1 0x40 MLOAD DUP1 SWAP2 SUB SWAP1 REVERT JUMPDEST PUSH2 0x2B3 DUP3 DUP3 PUSH2 0x7C0 JUMP JUMPDEST POP POP JUMP JUMPDEST PUSH1 0x0 DUP1 PUSH1 0x0 DUP4 PUSH20 0xFFFFFFFFFFFFFFFFFFFFFFFFFFFFFFFFFFFFFFFF AND PUSH20 0xFFFFFFFFFFFFFFFFFFFFFFFFFFFFFFFFFFFFFFFF AND DUP2 MSTORE PUSH1 0x20 ADD SWAP1 DUP2 MSTORE PUSH1 0x20 ADD PUSH1 0x0 KECCAK256 SLOAD SWAP1 POP SWAP2 SWAP1 POP JUMP JUMPDEST PUSH1 0x0 PUSH2 0x30C CALLER DUP5 DUP5 PUSH2 0x5B3 JUMP JUMPDEST PUSH1 0x1 SWAP1 POP SWAP3 SWAP2 POP POP JUMP JUMPDEST PUSH1 0x2 PUSH1 0x0 SWAP1 SLOAD SWAP1 PUSH2 0x100 EXP SWAP1 DIV PUSH20 0xFFFFFFFFFFFFFFFFFFFFFFFFFFFFFFFFFFFFFFFF AND DUP2 JUMP JUMPDEST PUSH1 0x0 PUSH1 0x1 PUSH1 0x0 DUP5 PUSH20 0xFFFFFFFFFFFFFFFFFFFFFFFFFFFFFFFFFFFFFFFF AND PUSH20 0xFFFFFFFFFFFFFFFFFFFFFFFFFFFFFFFFFFFFFFFF AND DUP2 MSTORE PUSH1 0x20 ADD SWAP1 DUP2 MSTORE PUSH1 0x20 ADD PUSH1 0x0 KECCAK256 PUSH1 0x0 DUP4 PUSH20 0xFFFFFFFFFFFFFFFFFFFFFFFFFFFFFFFFFFFFFFFF AND PUSH20 0xFFFFFFFFFFFFFFFFFFFFFFFFFFFFFFFFFFFFFFFF AND DUP2 MSTORE PUSH1 0x20 ADD SWAP1 DUP2 MSTORE PUSH1 0x20 ADD PUSH1 0x0 KECCAK256 SLOAD SWAP1 POP SWAP3 SWAP2 POP POP JUMP JUMPDEST PUSH1 0x0 PUSH20 0xFFFFFFFFFFFFFFFFFFFFFFFFFFFFFFFFFFFFFFFF AND DUP4 PUSH20 0xFFFFFFFFFFFFFFFFFFFFFFFFFFFFFFFFFFFFFFFF AND SUB PUSH2 0x432 JUMPI PUSH1 0x40 MLOAD PUSH32 0x8C379A000000000000000000000000000000000000000000000000000000000 DUP2 MSTORE PUSH1 0x4 ADD PUSH2 0x429 SWAP1 PUSH2 0xBB3 JUMP JUMPDEST PUSH1 0x40 MLOAD DUP1 SWAP2 SUB SWAP1 REVERT JUMPDEST PUSH1 0x0 PUSH20 0xFFFFFFFFFFFFFFFFFFFFFFFFFFFFFFFFFFFFFFFF AND DUP3 PUSH20 0xFFFFFFFFFFFFFFFFFFFFFFFFFFFFFFFFFFFFFFFF AND SUB PUSH2 0x4A1 JUMPI PUSH1 0x40 MLOAD PUSH32 0x8C379A000000000000000000000000000000000000000000000000000000000 DUP2 MSTORE PUSH1 0x4 ADD PUSH2 0x498 SWAP1 PUSH2 0xC45 JUMP JUMPDEST PUSH1 0x40 MLOAD DUP1 SWAP2 SUB SWAP1 REVERT JUMPDEST DUP1 PUSH1 0x1 PUSH1 0x0 DUP6 PUSH20 0xFFFFFFFFFFFFFFFFFFFFFFFFFFFFFFFFFFFFFFFF AND PUSH20 0xFFFFFFFFFFFFFFFFFFFFFFFFFFFFFFFFFFFFFFFF AND DUP2 MSTORE PUSH1 0x20 ADD SWAP1 DUP2 MSTORE PUSH1 0x20 ADD PUSH1 0x0 KECCAK256 PUSH1 0x0 DUP5 PUSH20 0xFFFFFFFFFFFFFFFFFFFFFFFFFFFFFFFFFFFFFFFF AND PUSH20 0xFFFFFFFFFFFFFFFFFFFFFFFFFFFFFFFFFFFFFFFF AND DUP2 MSTORE PUSH1 0x20 ADD SWAP1 DUP2 MSTORE PUSH1 0x20 ADD PUSH1 0x0 KECCAK256 DUP2 SWAP1 SSTORE POP POP POP POP JUMP JUMPDEST PUSH1 0x0 PUSH2 0x533 DUP5 DUP5 PUSH2 0x33C JUMP JUMPDEST SWAP1 POP PUSH32 0xFFFFFFFFFFFFFFFFFFFFFFFFFFFFFFFFFFFFFFFFFFFFFFFFFFFFFFFFFFFFFFFF DUP2 EQ PUSH2 0x5AD JUMPI DUP2 DUP2 LT ISZERO PUSH2 0x59F JUMPI PUSH1 0x40 MLOAD PUSH32 0x8C379A000000000000000000000000000000000000000000000000000000000 DUP2 MSTORE PUSH1 0x4 ADD PUSH2 0x596 SWAP1 PUSH2 0xCB1 JUMP JUMPDEST PUSH1 0x40 MLOAD DUP1 SWAP2 SUB SWAP1 REVERT JUMPDEST PUSH2 0x5AC DUP5 DUP5 DUP5 DUP5 SUB PUSH2 0x3C3 JUMP JUMPDEST JUMPDEST POP POP POP POP JUMP JUMPDEST PUSH1 0x0 PUSH20 0xFFFFFFFFFFFFFFFFFFFFFFFFFFFFFFFFFFFFFFFF AND DUP4 PUSH20 0xFFFFFFFFFFFFFFFFFFFFFFFFFFFFFFFFFFFFFFFF AND SUB PUSH2 0x622 JUMPI PUSH1 0x40 MLOAD PUSH32 0x8C379A000000000000000000000000000000000000000000000000000000000 DUP2 MSTORE PUSH1 0x4 ADD PUSH2 0x619 SWAP1 PUSH2 0xD43 JUMP JUMPDEST PUSH1 0x40 MLOAD DUP1 SWAP2 SUB SWAP1 REVERT JUMPDEST PUSH1 0x0 PUSH20 0xFFFFFFFFFFFFFFFFFFFFFFFFFFFFFFFFFFFFFFFF AND DUP3 PUSH20 0xFFFFFFFFFFFFFFFFFFFFFFFFFFFFFFFFFFFFFFFF AND SUB PUSH2 0x691 JUMPI PUSH1 0x40 MLOAD PUSH32 0x8C379A000000000000000000000000000000000000000000000000000000000 DUP2 MSTORE PUSH1 0x4 ADD PUSH2 0x688 SWAP1 PUSH2 0xDD5 JUMP JUMPDEST PUSH1 0x40 MLOAD DUP1 SWAP2 SUB SWAP1 REVERT JUMPDEST PUSH1 0x0 DUP1 PUSH1 0x0 DUP6 PUSH20 0xFFFFFFFFFFFFFFFFFFFFFFFFFFFFFFFFFFFFFFFF AND PUSH20 0xFFFFFFFFFFFFFFFFFFFFFFFFFFFFFFFFFFFFFFFF AND DUP2 MSTORE PUSH1 0x20 ADD SWAP1 DUP2 MSTORE PUSH1 0x20 ADD PUSH1 0x0 KECCAK256 SLOAD SWAP1 POP DUP2 DUP2 LT ISZERO PUSH2 0x717 JUMPI PUSH1 0x40 MLOAD PUSH32 0x8C379A000000000000000000000000000000000000000000000000000000000 DUP2 MSTORE PUSH1 0x4 ADD PUSH2 0x70E SWAP1 PUSH2 0xE67 JUMP JUMPDEST PUSH1 0x40 MLOAD DUP1 SWAP2 SUB SWAP1 REVERT JUMPDEST DUP2 DUP2 PUSH2 0x723 SWAP2 SWAP1 PUSH2 0xEB6 JUMP JUMPDEST PUSH1 0x0 DUP1 DUP7 PUSH20 0xFFFFFFFFFFFFFFFFFFFFFFFFFFFFFFFFFFFFFFFF AND PUSH20 0xFFFFFFFFFFFFFFFFFFFFFFFFFFFFFFFFFFFFFFFF AND DUP2 MSTORE PUSH1 0x20 ADD SWAP1 DUP2 MSTORE PUSH1 0x20 ADD PUSH1 0x0 KECCAK256 DUP2 SWAP1 SSTORE POP DUP2 PUSH1 0x0 DUP1 DUP6 PUSH20 0xFFFFFFFFFFFFFFFFFFFFFFFFFFFFFFFFFFFFFFFF AND PUSH20 0xFFFFFFFFFFFFFFFFFFFFFFFFFFFFFFFFFFFFFFFF AND DUP2 MSTORE PUSH1 0x20 ADD SWAP1 DUP2 MSTORE PUSH1 0x20 ADD PUSH1 0x0 KECCAK256 PUSH1 0x0 DUP3 DUP3 SLOAD PUSH2 0x7B3 SWAP2 SWAP1 PUSH2 0xEEA JUMP JUMPDEST SWAP3 POP POP DUP2 SWAP1 SSTORE POP POP POP POP POP JUMP JUMPDEST PUSH1 0x0 PUSH20 0xFFFFFFFFFFFFFFFFFFFFFFFFFFFFFFFFFFFFFFFF AND DUP3 PUSH20 0xFFFFFFFFFFFFFFFFFFFFFFFFFFFFFFFFFFFFFFFF AND SUB PUSH2 0x82F JUMPI PUSH1 0x40 MLOAD PUSH32 0x8C379A000000000000000000000000000000000000000000000000000000000 DUP2 MSTORE PUSH1 0x4 ADD PUSH2 0x826 SWAP1 PUSH2 0xF6A JUMP JUMPDEST PUSH1 0x40 MLOAD DUP1 SWAP2 SUB SWAP1 REVERT JUMPDEST DUP1 PUSH1 0x3 PUSH1 0x0 DUP3 DUP3 SLOAD PUSH2 0x841 SWAP2 SWAP1 PUSH2 0xEEA JUMP JUMPDEST SWAP3 POP POP DUP2 SWAP1 SSTORE POP DUP1 PUSH1 0x0 DUP1 DUP5 PUSH20 0xFFFFFFFFFFFFFFFFFFFFFFFFFFFFFFFFFFFFFFFF AND PUSH20 0xFFFFFFFFFFFFFFFFFFFFFFFFFFFFFFFFFFFFFFFF AND DUP2 MSTORE PUSH1 0x20 ADD SWAP1 DUP2 MSTORE PUSH1 0x20 ADD PUSH1 0x0 KECCAK256 PUSH1 0x0 DUP3 DUP3 SLOAD PUSH2 0x896 SWAP2 SWAP1 PUSH2 0xEEA JUMP JUMPDEST SWAP3 POP POP DUP2 SWAP1 SSTORE POP POP POP JUMP JUMPDEST PUSH1 0x0 DUP1 REVERT JUMPDEST PUSH1 0x0 PUSH20 0xFFFFFFFFFFFFFFFFFFFFFFFFFFFFFFFFFFFFFFFF DUP3 AND SWAP1 POP SWAP2 SWAP1 POP JUMP JUMPDEST PUSH1 0x0 PUSH2 0x8D1 DUP3 PUSH2 0x8A6 JUMP JUMPDEST SWAP1 POP SWAP2 SWAP1 POP JUMP JUMPDEST PUSH2 0x8E1 DUP2 PUSH2 0x8C6 JUMP JUMPDEST DUP2 EQ PUSH2 0x8EC JUMPI PUSH1 0x0 DUP1 REVERT JUMPDEST POP JUMP JUMPDEST PUSH1 0x0 DUP2 CALLDATALOAD SWAP1 POP PUSH2 0x8FE DUP2 PUSH2 0x8D8 JUMP JUMPDEST SWAP3 SWAP2 POP POP JUMP JUMPDEST PUSH1 0x0 DUP2 SWAP1 POP SWAP2 SWAP1 POP JUMP JUMPDEST PUSH2 0x917 DUP2 PUSH2 0x904 JUMP JUMPDEST DUP2 EQ PUSH2 0x922 JUMPI PUSH1 0x0 DUP1 REVERT JUMPDEST POP JUMP JUMPDEST PUSH1 0x0 DUP2 CALLDATALOAD SWAP1 POP PUSH2 0x934 DUP2 PUSH2 0x90E JUMP JUMPDEST SWAP3 SWAP2 POP POP JUMP JUMPDEST PUSH1 0x0 DUP1 PUSH1 0x40 DUP4 DUP6 SUB SLT ISZERO PUSH2 0x951 JUMPI PUSH2 0x950 PUSH2 0x8A1 JUMP JUMPDEST JUMPDEST PUSH1 0x0 PUSH2 0x95F DUP6 DUP3 DUP7 ADD PUSH2 0x8EF JUMP JUMPDEST SWAP3 POP POP PUSH1 0x20 PUSH2 0x970 DUP6 DUP3 DUP7 ADD PUSH2 0x925 JUMP JUMPDEST SWAP2 POP POP SWAP3 POP SWAP3 SWAP1 POP JUMP JUMPDEST PUSH1 0x0 DUP2 ISZERO ISZERO SWAP1 POP SWAP2 SWAP1 POP JUMP JUMPDEST PUSH2 0x98F DUP2 PUSH2 0x97A JUMP JUMPDEST DUP3 MSTORE POP POP JUMP JUMPDEST PUSH1 0x0 PUSH1 0x20 DUP3 ADD SWAP1 POP PUSH2 0x9AA PUSH1 0x0 DUP4 ADD DUP5 PUSH2 0x986 JUMP JUMPDEST SWAP3 SWAP2 POP POP JUMP JUMPDEST PUSH2 0x9B9 DUP2 PUSH2 0x904 JUMP JUMPDEST DUP3 MSTORE POP POP JUMP JUMPDEST PUSH1 0x0 PUSH1 0x20 DUP3 ADD SWAP1 POP PUSH2 0x9D4 PUSH1 0x0 DUP4 ADD DUP5 PUSH2 0x9B0 JUMP JUMPDEST SWAP3 SWAP2 POP POP JUMP JUMPDEST PUSH1 0x0 DUP1 PUSH1 0x0 PUSH1 0x60 DUP5 DUP7 SUB SLT ISZERO PUSH2 0x9F3 JUMPI PUSH2 0x9F2 PUSH2 0x8A1 JUMP JUMPDEST JUMPDEST PUSH1 0x0 PUSH2 0xA01 DUP7 DUP3 DUP8 ADD PUSH2 0x8EF JUMP JUMPDEST SWAP4 POP POP PUSH1 0x20 PUSH2 0xA12 DUP7 DUP3 DUP8 ADD PUSH2 0x8EF JUMP JUMPDEST SWAP3 POP POP PUSH1 0x40 PUSH2 0xA23 DUP7 DUP3 DUP8 ADD PUSH2 0x925 JUMP JUMPDEST SWAP2 POP POP SWAP3 POP SWAP3 POP SWAP3 JUMP JUMPDEST PUSH1 0x0 PUSH1 0x20 DUP3 DUP5 SUB SLT ISZERO PUSH2 0xA43 JUMPI PUSH2 0xA42 PUSH2 0x8A1 JUMP JUMPDEST JUMPDEST PUSH1 0x0 PUSH2 0xA51 DUP5 DUP3 DUP6 ADD PUSH2 0x8EF JUMP JUMPDEST SWAP2 POP POP SWAP3 SWAP2 POP POP JUMP JUMPDEST PUSH2 0xA63 DUP2 PUSH2 0x8C6 JUMP JUMPDEST DUP3 MSTORE POP POP JUMP JUMPDEST PUSH1 0x0 PUSH1 0x20 DUP3 ADD SWAP1 POP PUSH2 0xA7E PUSH1 0x0 DUP4 ADD DUP5 PUSH2 0xA5A JUMP JUMPDEST SWAP3 SWAP2 POP POP JUMP JUMPDEST PUSH1 0x0 DUP1 PUSH1 0x40 DUP4 DUP6 SUB SLT ISZERO PUSH2 0xA9B JUMPI PUSH2 0xA9A PUSH2 0x8A1 JUMP JUMPDEST JUMPDEST PUSH1 0x0 PUSH2 0xAA9 DUP6 DUP3 DUP7 ADD PUSH2 0x8EF JUMP JUMPDEST SWAP3 POP POP PUSH1 0x20 PUSH2 0xABA DUP6 DUP3 DUP7 ADD PUSH2 0x8EF JUMP JUMPDEST SWAP2 POP POP SWAP3 POP SWAP3 SWAP1 POP JUMP JUMPDEST PUSH1 0x0 DUP3 DUP3 MSTORE PUSH1 0x20 DUP3 ADD SWAP1 POP SWAP3 SWAP2 POP POP JUMP JUMPDEST PUSH32 0x466F7262696464656E2100000000000000000000000000000000000000000000 PUSH1 0x0 DUP3 ADD MSTORE POP JUMP JUMPDEST PUSH1 0x0 PUSH2 0xB0B PUSH1 0xA DUP4 PUSH2 0xAC4 JUMP JUMPDEST SWAP2 POP PUSH2 0xB16 DUP3 PUSH2 0xAD5 JUMP JUMPDEST PUSH1 0x20 DUP3 ADD SWAP1 POP SWAP2 SWAP1 POP JUMP JUMPDEST PUSH1 0x0 PUSH1 0x20 DUP3 ADD SWAP1 POP DUP2 DUP2 SUB PUSH1 0x0 DUP4 ADD MSTORE PUSH2 0xB3A DUP2 PUSH2 0xAFE JUMP JUMPDEST SWAP1 POP SWAP2 SWAP1 POP JUMP JUMPDEST PUSH32 0x45524332303A20617070726F76652066726F6D20746865207A65726F20616464 PUSH1 0x0 DUP3 ADD MSTORE PUSH32 0x7265737300000000000000000000000000000000000000000000000000000000 PUSH1 0x20 DUP3 ADD MSTORE POP JUMP JUMPDEST PUSH1 0x0 PUSH2 0xB9D PUSH1 0x24 DUP4 PUSH2 0xAC4 JUMP JUMPDEST SWAP2 POP PUSH2 0xBA8 DUP3 PUSH2 0xB41 JUMP JUMPDEST PUSH1 0x40 DUP3 ADD SWAP1 POP SWAP2 SWAP1 POP JUMP JUMPDEST PUSH1 0x0 PUSH1 0x20 DUP3 ADD SWAP1 POP DUP2 DUP2 SUB PUSH1 0x0 DUP4 ADD MSTORE PUSH2 0xBCC DUP2 PUSH2 0xB90 JUMP JUMPDEST SWAP1 POP SWAP2 SWAP1 POP JUMP JUMPDEST PUSH32 0x45524332303A20617070726F766520746F20746865207A65726F206164647265 PUSH1 0x0 DUP3 ADD MSTORE PUSH32 0x7373000000000000000000000000000000000000000000000000000000000000 PUSH1 0x20 DUP3 ADD MSTORE POP JUMP JUMPDEST PUSH1 0x0 PUSH2 0xC2F PUSH1 0x22 DUP4 PUSH2 0xAC4 JUMP JUMPDEST SWAP2 POP PUSH2 0xC3A DUP3 PUSH2 0xBD3 JUMP JUMPDEST PUSH1 0x40 DUP3 ADD SWAP1 POP SWAP2 SWAP1 POP JUMP JUMPDEST PUSH1 0x0 PUSH1 0x20 DUP3 ADD SWAP1 POP DUP2 DUP2 SUB PUSH1 0x0 DUP4 ADD MSTORE PUSH2 0xC5E DUP2 PUSH2 0xC22 JUMP JUMPDEST SWAP1 POP SWAP2 SWAP1 POP JUMP JUMPDEST PUSH32 0x45524332303A20696E73756666696369656E7420616C6C6F77616E6365000000 PUSH1 0x0 DUP3 ADD MSTORE POP JUMP JUMPDEST PUSH1 0x0 PUSH2 0xC9B PUSH1 0x1D DUP4 PUSH2 0xAC4 JUMP JUMPDEST SWAP2 POP PUSH2 0xCA6 DUP3 PUSH2 0xC65 JUMP JUMPDEST PUSH1 0x20 DUP3 ADD SWAP1 POP SWAP2 SWAP1 POP JUMP JUMPDEST PUSH1 0x0 PUSH1 0x20 DUP3 ADD SWAP1 POP DUP2 DUP2 SUB PUSH1 0x0 DUP4 ADD MSTORE PUSH2 0xCCA DUP2 PUSH2 0xC8E JUMP JUMPDEST SWAP1 POP SWAP2 SWAP1 POP JUMP JUMPDEST PUSH32 0x45524332303A207472616E736665722066726F6D20746865207A65726F206164 PUSH1 0x0 DUP3 ADD MSTORE PUSH32 0x6472657373000000000000000000000000000000000000000000000000000000 PUSH1 0x20 DUP3 ADD MSTORE POP JUMP JUMPDEST PUSH1 0x0 PUSH2 0xD2D PUSH1 0x25 DUP4 PUSH2 0xAC4 JUMP JUMPDEST SWAP2 POP PUSH2 0xD38 DUP3 PUSH2 0xCD1 JUMP JUMPDEST PUSH1 0x40 DUP3 ADD SWAP1 POP SWAP2 SWAP1 POP JUMP JUMPDEST PUSH1 0x0 PUSH1 0x20 DUP3 ADD SWAP1 POP DUP2 DUP2 SUB PUSH1 0x0 DUP4 ADD MSTORE PUSH2 0xD5C DUP2 PUSH2 0xD20 JUMP JUMPDEST SWAP1 POP SWAP2 SWAP1 POP JUMP JUMPDEST PUSH32 0x45524332303A207472616E7366657220746F20746865207A65726F2061646472 PUSH1 0x0 DUP3 ADD MSTORE PUSH32 0x6573730000000000000000000000000000000000000000000000000000000000 PUSH1 0x20 DUP3 ADD MSTORE POP JUMP JUMPDEST PUSH1 0x0 PUSH2 0xDBF PUSH1 0x23 DUP4 PUSH2 0xAC4 JUMP JUMPDEST SWAP2 POP PUSH2 0xDCA DUP3 PUSH2 0xD63 JUMP JUMPDEST PUSH1 0x40 DUP3 ADD SWAP1 POP SWAP2 SWAP1 POP JUMP JUMPDEST PUSH1 0x0 PUSH1 0x20 DUP3 ADD SWAP1 POP DUP2 DUP2 SUB PUSH1 0x0 DUP4 ADD MSTORE PUSH2 0xDEE DUP2 PUSH2 0xDB2 JUMP JUMPDEST SWAP1 POP SWAP2 SWAP1 POP JUMP JUMPDEST PUSH32 0x45524332303A207472616E7366657220616D6F756E7420657863656564732062 PUSH1 0x0 DUP3 ADD MSTORE PUSH32 0x616C616E63650000000000000000000000000000000000000000000000000000 PUSH1 0x20 DUP3 ADD MSTORE POP JUMP JUMPDEST PUSH1 0x0 PUSH2 0xE51 PUSH1 0x26 DUP4 PUSH2 0xAC4 JUMP JUMPDEST SWAP2 POP PUSH2 0xE5C DUP3 PUSH2 0xDF5 JUMP JUMPDEST PUSH1 0x40 DUP3 ADD SWAP1 POP SWAP2 SWAP1 POP JUMP JUMPDEST PUSH1 0x0 PUSH1 0x20 DUP3 ADD SWAP1 POP DUP2 DUP2 SUB PUSH1 0x0 DUP4 ADD MSTORE PUSH2 0xE80 DUP2 PUSH2 0xE44 JUMP JUMPDEST SWAP1 POP SWAP2 SWAP1 POP JUMP JUMPDEST PUSH32 0x4E487B7100000000000000000000000000000000000000000000000000000000 PUSH1 0x0 MSTORE PUSH1 0x11 PUSH1 0x4 MSTORE PUSH1 0x24 PUSH1 0x0 REVERT JUMPDEST PUSH1 0x0 PUSH2 0xEC1 DUP3 PUSH2 0x904 JUMP JUMPDEST SWAP2 POP PUSH2 0xECC DUP4 PUSH2 0x904 JUMP JUMPDEST SWAP3 POP DUP3 DUP3 SUB SWAP1 POP DUP2 DUP2 GT ISZERO PUSH2 0xEE4 JUMPI PUSH2 0xEE3 PUSH2 0xE87 JUMP JUMPDEST JUMPDEST SWAP3 SWAP2 POP POP JUMP JUMPDEST PUSH1 0x0 PUSH2 0xEF5 DUP3 PUSH2 0x904 JUMP JUMPDEST SWAP2 POP PUSH2 0xF00 DUP4 PUSH2 0x904 JUMP JUMPDEST SWAP3 POP DUP3 DUP3 ADD SWAP1 POP DUP1 DUP3 GT ISZERO PUSH2 0xF18 JUMPI PUSH2 0xF17 PUSH2 0xE87 JUMP JUMPDEST JUMPDEST SWAP3 SWAP2 POP POP JUMP JUMPDEST PUSH32 0x45524332303A206D696E7420746F20746865207A65726F206164647265737300 PUSH1 0x0 DUP3 ADD MSTORE POP JUMP JUMPDEST PUSH1 0x0 PUSH2 0xF54 PUSH1 0x1F DUP4 PUSH2 0xAC4 JUMP JUMPDEST SWAP2 POP PUSH2 0xF5F DUP3 PUSH2 0xF1E JUMP JUMPDEST PUSH1 0x20 DUP3 ADD SWAP1 POP SWAP2 SWAP1 POP JUMP JUMPDEST PUSH1 0x0 PUSH1 0x20 DUP3 ADD SWAP1 POP DUP2 DUP2 SUB PUSH1 0x0 DUP4 ADD MSTORE PUSH2 0xF83 DUP2 PUSH2 0xF47 JUMP JUMPDEST SWAP1 POP SWAP2 SWAP1 POP JUMP INVALID LOG2 PUSH5 0x6970667358 0x22 SLT KECCAK256 STOP 0xFC DUP13 0xD4 0xE1 RETURN 0xF9 DIFFICULTY STATICCALL 0xCF PUSH14 0x329B2C739C6246358D4D8AC4FCEE SELFBALANCE LOG4 0xBC MSTORE 0xB5 DIV SMOD PUSH5 0x736F6C6343 STOP ADDMOD GT STOP CALLER PUSH1 0x80 PUSH1 0x40 MSTORE CALLVALUE DUP1 ISZERO PUSH3 0x11 JUMPI PUSH1 0x0 DUP1 REVERT JUMPDEST POP PUSH1 0x40 MLOAD PUSH3 0x14BB CODESIZE SUB DUP1 PUSH3 0x14BB DUP4 CODECOPY DUP2 DUP2 ADD PUSH1 0x40 MSTORE DUP2 ADD SWAP1 PUSH3 0x37 SWAP2 SWAP1 PUSH3 0x380 JUMP JUMPDEST CALLER PUSH1 0x4 PUSH1 0x0 PUSH2 0x100 EXP DUP2 SLOAD DUP2 PUSH20 0xFFFFFFFFFFFFFFFFFFFFFFFFFFFFFFFFFFFFFFFF MUL NOT AND SWAP1 DUP4 PUSH20 0xFFFFFFFFFFFFFFFFFFFFFFFFFFFFFFFFFFFFFFFF AND MUL OR SWAP1 SSTORE POP DUP2 PUSH1 0x1 PUSH1 0x0 PUSH2 0x100 EXP DUP2 SLOAD DUP2 PUSH20 0xFFFFFFFFFFFFFFFFFFFFFFFFFFFFFFFFFFFFFFFF MUL NOT AND SWAP1 DUP4 PUSH20 0xFFFFFFFFFFFFFFFFFFFFFFFFFFFFFFFFFFFFFFFF AND MUL OR SWAP1 SSTORE POP DUP1 PUSH1 0x3 PUSH1 0x0 DUP3 DUP3 SLOAD PUSH3 0xCD SWAP2 SWAP1 PUSH3 0x3F6 JUMP JUMPDEST SWAP3 POP POP DUP2 SWAP1 SSTORE POP PUSH1 0x0 PUSH3 0xE6 PUSH3 0x151 PUSH1 0x20 SHL PUSH1 0x20 SHR JUMP JUMPDEST PUSH3 0xF4240 DUP4 PUSH3 0xF7 SWAP2 SWAP1 PUSH3 0x431 JUMP JUMPDEST PUSH3 0x103 SWAP2 SWAP1 PUSH3 0x4AB JUMP JUMPDEST SWAP1 POP DUP1 PUSH1 0x0 DUP1 CALLER PUSH20 0xFFFFFFFFFFFFFFFFFFFFFFFFFFFFFFFFFFFFFFFF AND PUSH20 0xFFFFFFFFFFFFFFFFFFFFFFFFFFFFFFFFFFFFFFFF AND DUP2 MSTORE PUSH1 0x20 ADD SWAP1 DUP2 MSTORE PUSH1 0x20 ADD PUSH1 0x0 KECCAK256 DUP2 SWAP1 SSTORE POP POP POP POP PUSH3 0x543 JUMP JUMPDEST PUSH1 0x0 DUP1 PUSH1 0x3 SLOAD GT DUP1 ISZERO PUSH3 0x205 JUMPI POP PUSH1 0x0 PUSH1 0x1 PUSH1 0x0 SWAP1 SLOAD SWAP1 PUSH2 0x100 EXP SWAP1 DIV PUSH20 0xFFFFFFFFFFFFFFFFFFFFFFFFFFFFFFFFFFFFFFFF AND PUSH20 0xFFFFFFFFFFFFFFFFFFFFFFFFFFFFFFFFFFFFFFFF AND PUSH4 0x70A08231 ADDRESS PUSH1 0x40 MLOAD DUP3 PUSH4 0xFFFFFFFF AND PUSH1 0xE0 SHL DUP2 MSTORE PUSH1 0x4 ADD PUSH3 0x1BF SWAP2 SWAP1 PUSH3 0x4F4 JUMP JUMPDEST PUSH1 0x20 PUSH1 0x40 MLOAD DUP1 DUP4 SUB DUP2 DUP7 GAS STATICCALL ISZERO DUP1 ISZERO PUSH3 0x1DD JUMPI RETURNDATASIZE PUSH1 0x0 DUP1 RETURNDATACOPY RETURNDATASIZE PUSH1 0x0 REVERT JUMPDEST POP POP POP POP PUSH1 0x40 MLOAD RETURNDATASIZE PUSH1 0x1F NOT PUSH1 0x1F DUP3 ADD AND DUP3 ADD DUP1 PUSH1 0x40 MSTORE POP DUP2 ADD SWAP1 PUSH3 0x203 SWAP2 SWAP1 PUSH3 0x511 JUMP JUMPDEST GT JUMPDEST ISZERO PUSH3 0x2D3 JUMPI PUSH1 0x3 SLOAD PUSH3 0xF4240 PUSH1 0x1 PUSH1 0x0 SWAP1 SLOAD SWAP1 PUSH2 0x100 EXP SWAP1 DIV PUSH20 0xFFFFFFFFFFFFFFFFFFFFFFFFFFFFFFFFFFFFFFFF AND PUSH20 0xFFFFFFFFFFFFFFFFFFFFFFFFFFFFFFFFFFFFFFFF AND PUSH4 0x70A08231 ADDRESS PUSH1 0x40 MLOAD DUP3 PUSH4 0xFFFFFFFF AND PUSH1 0xE0 SHL DUP2 MSTORE PUSH1 0x4 ADD PUSH3 0x26F SWAP2 SWAP1 PUSH3 0x4F4 JUMP JUMPDEST PUSH1 0x20 PUSH1 0x40 MLOAD DUP1 DUP4 SUB DUP2 DUP7 GAS STATICCALL ISZERO DUP1 ISZERO PUSH3 0x28D JUMPI RETURNDATASIZE PUSH1 0x0 DUP1 RETURNDATACOPY RETURNDATASIZE PUSH1 0x0 REVERT JUMPDEST POP POP POP POP PUSH1 0x40 MLOAD RETURNDATASIZE PUSH1 0x1F NOT PUSH1 0x1F DUP3 ADD AND DUP3 ADD DUP1 PUSH1 0x40 MSTORE POP DUP2 ADD SWAP1 PUSH3 0x2B3 SWAP2 SWAP1 PUSH3 0x511 JUMP JUMPDEST PUSH3 0x2BF SWAP2 SWAP1 PUSH3 0x431 JUMP JUMPDEST PUSH3 0x2CB SWAP2 SWAP1 PUSH3 0x4AB JUMP JUMPDEST SWAP1 POP PUSH3 0x2D8 JUMP JUMPDEST PUSH1 0x1 SWAP1 POP JUMPDEST SWAP1 JUMP JUMPDEST PUSH1 0x0 DUP1 REVERT JUMPDEST PUSH1 0x0 PUSH20 0xFFFFFFFFFFFFFFFFFFFFFFFFFFFFFFFFFFFFFFFF DUP3 AND SWAP1 POP SWAP2 SWAP1 POP JUMP JUMPDEST PUSH1 0x0 PUSH3 0x30D DUP3 PUSH3 0x2E0 JUMP JUMPDEST SWAP1 POP SWAP2 SWAP1 POP JUMP JUMPDEST PUSH3 0x31F DUP2 PUSH3 0x300 JUMP JUMPDEST DUP2 EQ PUSH3 0x32B JUMPI PUSH1 0x0 DUP1 REVERT JUMPDEST POP JUMP JUMPDEST PUSH1 0x0 DUP2 MLOAD SWAP1 POP PUSH3 0x33F DUP2 PUSH3 0x314 JUMP JUMPDEST SWAP3 SWAP2 POP POP JUMP JUMPDEST PUSH1 0x0 DUP2 SWAP1 POP SWAP2 SWAP1 POP JUMP JUMPDEST PUSH3 0x35A DUP2 PUSH3 0x345 JUMP JUMPDEST DUP2 EQ PUSH3 0x366 JUMPI PUSH1 0x0 DUP1 REVERT JUMPDEST POP JUMP JUMPDEST PUSH1 0x0 DUP2 MLOAD SWAP1 POP PUSH3 0x37A DUP2 PUSH3 0x34F JUMP JUMPDEST SWAP3 SWAP2 POP POP JUMP JUMPDEST PUSH1 0x0 DUP1 PUSH1 0x40 DUP4 DUP6 SUB SLT ISZERO PUSH3 0x39A JUMPI PUSH3 0x399 PUSH3 0x2DB JUMP JUMPDEST JUMPDEST PUSH1 0x0 PUSH3 0x3AA DUP6 DUP3 DUP7 ADD PUSH3 0x32E JUMP JUMPDEST SWAP3 POP POP PUSH1 0x20 PUSH3 0x3BD DUP6 DUP3 DUP7 ADD PUSH3 0x369 JUMP JUMPDEST SWAP2 POP POP SWAP3 POP SWAP3 SWAP1 POP JUMP JUMPDEST PUSH32 0x4E487B7100000000000000000000000000000000000000000000000000000000 PUSH1 0x0 MSTORE PUSH1 0x11 PUSH1 0x4 MSTORE PUSH1 0x24 PUSH1 0x0 REVERT JUMPDEST PUSH1 0x0 PUSH3 0x403 DUP3 PUSH3 0x345 JUMP JUMPDEST SWAP2 POP PUSH3 0x410 DUP4 PUSH3 0x345 JUMP JUMPDEST SWAP3 POP DUP3 DUP3 ADD SWAP1 POP DUP1 DUP3 GT ISZERO PUSH3 0x42B JUMPI PUSH3 0x42A PUSH3 0x3C7 JUMP JUMPDEST JUMPDEST SWAP3 SWAP2 POP POP JUMP JUMPDEST PUSH1 0x0 PUSH3 0x43E DUP3 PUSH3 0x345 JUMP JUMPDEST SWAP2 POP PUSH3 0x44B DUP4 PUSH3 0x345 JUMP JUMPDEST SWAP3 POP DUP3 DUP3 MUL PUSH3 0x45B DUP2 PUSH3 0x345 JUMP JUMPDEST SWAP2 POP DUP3 DUP3 DIV DUP5 EQ DUP4 ISZERO OR PUSH3 0x475 JUMPI PUSH3 0x474 PUSH3 0x3C7 JUMP JUMPDEST JUMPDEST POP SWAP3 SWAP2 POP POP JUMP JUMPDEST PUSH32 0x4E487B7100000000000000000000000000000000000000000000000000000000 PUSH1 0x0 MSTORE PUSH1 0x12 PUSH1 0x4 MSTORE PUSH1 0x24 PUSH1 0x0 REVERT JUMPDEST PUSH1 0x0 PUSH3 0x4B8 DUP3 PUSH3 0x345 JUMP JUMPDEST SWAP2 POP PUSH3 0x4C5 DUP4 PUSH3 0x345 JUMP JUMPDEST SWAP3 POP DUP3 PUSH3 0x4D8 JUMPI PUSH3 0x4D7 PUSH3 0x47C JUMP JUMPDEST JUMPDEST DUP3 DUP3 DIV SWAP1 POP SWAP3 SWAP2 POP POP JUMP JUMPDEST PUSH3 0x4EE DUP2 PUSH3 0x300 JUMP JUMPDEST DUP3 MSTORE POP POP JUMP JUMPDEST PUSH1 0x0 PUSH1 0x20 DUP3 ADD SWAP1 POP PUSH3 0x50B PUSH1 0x0 DUP4 ADD DUP5 PUSH3 0x4E3 JUMP JUMPDEST SWAP3 SWAP2 POP POP JUMP JUMPDEST PUSH1 0x0 PUSH1 0x20 DUP3 DUP5 SUB SLT ISZERO PUSH3 0x52A JUMPI PUSH3 0x529 PUSH3 0x2DB JUMP JUMPDEST JUMPDEST PUSH1 0x0 PUSH3 0x53A DUP5 DUP3 DUP6 ADD PUSH3 0x369 JUMP JUMPDEST SWAP2 POP POP SWAP3 SWAP2 POP POP JUMP JUMPDEST PUSH2 0xF68 DUP1 PUSH3 0x553 PUSH1 0x0 CODECOPY PUSH1 0x0 RETURN INVALID PUSH1 0x80 PUSH1 0x40 MSTORE CALLVALUE DUP1 ISZERO PUSH2 0x10 JUMPI PUSH1 0x0 DUP1 REVERT JUMPDEST POP PUSH1 0x4 CALLDATASIZE LT PUSH2 0x93 JUMPI PUSH1 0x0 CALLDATALOAD PUSH1 0xE0 SHR DUP1 PUSH4 0xB28A91D0 GT PUSH2 0x66 JUMPI DUP1 PUSH4 0xB28A91D0 EQ PUSH2 0x11E JUMPI DUP1 PUSH4 0xBB500F48 EQ PUSH2 0x13C JUMPI DUP1 PUSH4 0xC339210F EQ PUSH2 0x16C JUMPI DUP1 PUSH4 0xE9FAD8EE EQ PUSH2 0x18A JUMPI DUP1 PUSH4 0xEC1EBD7A EQ PUSH2 0x194 JUMPI PUSH2 0x93 JUMP JUMPDEST DUP1 PUSH4 0x49878F3 EQ PUSH2 0x98 JUMPI DUP1 PUSH4 0x18160DDD EQ PUSH2 0xB4 JUMPI DUP1 PUSH4 0x70A08231 EQ PUSH2 0xD2 JUMPI DUP1 PUSH4 0x788D6454 EQ PUSH2 0x102 JUMPI JUMPDEST PUSH1 0x0 DUP1 REVERT JUMPDEST PUSH2 0xB2 PUSH1 0x4 DUP1 CALLDATASIZE SUB DUP2 ADD SWAP1 PUSH2 0xAD SWAP2 SWAP1 PUSH2 0x941 JUMP JUMPDEST PUSH2 0x1B2 JUMP JUMPDEST STOP JUMPDEST PUSH2 0xBC PUSH2 0x36D JUMP JUMPDEST PUSH1 0x40 MLOAD PUSH2 0xC9 SWAP2 SWAP1 PUSH2 0x97D JUMP JUMPDEST PUSH1 0x40 MLOAD DUP1 SWAP2 SUB SWAP1 RETURN JUMPDEST PUSH2 0xEC PUSH1 0x4 DUP1 CALLDATASIZE SUB DUP2 ADD SWAP1 PUSH2 0xE7 SWAP2 SWAP1 PUSH2 0x9F6 JUMP JUMPDEST PUSH2 0x373 JUMP JUMPDEST PUSH1 0x40 MLOAD PUSH2 0xF9 SWAP2 SWAP1 PUSH2 0x97D JUMP JUMPDEST PUSH1 0x40 MLOAD DUP1 SWAP2 SUB SWAP1 RETURN JUMPDEST PUSH2 0x11C PUSH1 0x4 DUP1 CALLDATASIZE SUB DUP2 ADD SWAP1 PUSH2 0x117 SWAP2 SWAP1 PUSH2 0x9F6 JUMP JUMPDEST PUSH2 0x38B JUMP JUMPDEST STOP JUMPDEST PUSH2 0x126 PUSH2 0x45F JUMP JUMPDEST PUSH1 0x40 MLOAD PUSH2 0x133 SWAP2 SWAP1 PUSH2 0xA82 JUMP JUMPDEST PUSH1 0x40 MLOAD DUP1 SWAP2 SUB SWAP1 RETURN JUMPDEST PUSH2 0x156 PUSH1 0x4 DUP1 CALLDATASIZE SUB DUP2 ADD SWAP1 PUSH2 0x151 SWAP2 SWAP1 PUSH2 0xA9D JUMP JUMPDEST PUSH2 0x485 JUMP JUMPDEST PUSH1 0x40 MLOAD PUSH2 0x163 SWAP2 SWAP1 PUSH2 0xAF8 JUMP JUMPDEST PUSH1 0x40 MLOAD DUP1 SWAP2 SUB SWAP1 RETURN JUMPDEST PUSH2 0x174 PUSH2 0x5BF JUMP JUMPDEST PUSH1 0x40 MLOAD PUSH2 0x181 SWAP2 SWAP1 PUSH2 0xB22 JUMP JUMPDEST PUSH1 0x40 MLOAD DUP1 SWAP2 SUB SWAP1 RETURN JUMPDEST PUSH2 0x192 PUSH2 0x5E5 JUMP JUMPDEST STOP JUMPDEST PUSH2 0x19C PUSH2 0x78D JUMP JUMPDEST PUSH1 0x40 MLOAD PUSH2 0x1A9 SWAP2 SWAP1 PUSH2 0x97D JUMP JUMPDEST PUSH1 0x40 MLOAD DUP1 SWAP2 SUB SWAP1 RETURN JUMPDEST PUSH1 0x0 DUP2 GT PUSH2 0x1F5 JUMPI PUSH1 0x40 MLOAD PUSH32 0x8C379A000000000000000000000000000000000000000000000000000000000 DUP2 MSTORE PUSH1 0x4 ADD PUSH2 0x1EC SWAP1 PUSH2 0xB9A JUMP JUMPDEST PUSH1 0x40 MLOAD DUP1 SWAP2 SUB SWAP1 REVERT JUMPDEST PUSH1 0x0 PUSH2 0x1FF PUSH2 0x78D JUMP JUMPDEST PUSH3 0xF4240 DUP4 PUSH2 0x20E SWAP2 SWAP1 PUSH2 0xBE9 JUMP JUMPDEST PUSH2 0x218 SWAP2 SWAP1 PUSH2 0xC5A JUMP JUMPDEST SWAP1 POP DUP1 PUSH1 0x3 PUSH1 0x0 DUP3 DUP3 SLOAD PUSH2 0x22C SWAP2 SWAP1 PUSH2 0xC8B JUMP JUMPDEST SWAP3 POP POP DUP2 SWAP1 SSTORE POP DUP1 PUSH1 0x0 DUP1 CALLER PUSH20 0xFFFFFFFFFFFFFFFFFFFFFFFFFFFFFFFFFFFFFFFF AND PUSH20 0xFFFFFFFFFFFFFFFFFFFFFFFFFFFFFFFFFFFFFFFF AND DUP2 MSTORE PUSH1 0x20 ADD SWAP1 DUP2 MSTORE PUSH1 0x20 ADD PUSH1 0x0 KECCAK256 PUSH1 0x0 DUP3 DUP3 SLOAD PUSH2 0x281 SWAP2 SWAP1 PUSH2 0xC8B JUMP JUMPDEST SWAP3 POP POP DUP2 SWAP1 SSTORE POP PUSH1 0x1 PUSH1 0x0 SWAP1 SLOAD SWAP1 PUSH2 0x100 EXP SWAP1 DIV PUSH20 0xFFFFFFFFFFFFFFFFFFFFFFFFFFFFFFFFFFFFFFFF AND PUSH20 0xFFFFFFFFFFFFFFFFFFFFFFFFFFFFFFFFFFFFFFFF AND PUSH4 0x23B872DD CALLER ADDRESS DUP6 PUSH1 0x40 MLOAD DUP5 PUSH4 0xFFFFFFFF AND PUSH1 0xE0 SHL DUP2 MSTORE PUSH1 0x4 ADD PUSH2 0x2E7 SWAP4 SWAP3 SWAP2 SWAP1 PUSH2 0xCBF JUMP JUMPDEST PUSH1 0x20 PUSH1 0x40 MLOAD DUP1 DUP4 SUB DUP2 PUSH1 0x0 DUP8 GAS CALL ISZERO DUP1 ISZERO PUSH2 0x306 JUMPI RETURNDATASIZE PUSH1 0x0 DUP1 RETURNDATACOPY RETURNDATASIZE PUSH1 0x0 REVERT JUMPDEST POP POP POP POP PUSH1 0x40 MLOAD RETURNDATASIZE PUSH1 0x1F NOT PUSH1 0x1F DUP3 ADD AND DUP3 ADD DUP1 PUSH1 0x40 MSTORE POP DUP2 ADD SWAP1 PUSH2 0x32A SWAP2 SWAP1 PUSH2 0xD22 JUMP JUMPDEST PUSH2 0x369 JUMPI PUSH1 0x40 MLOAD PUSH32 0x8C379A000000000000000000000000000000000000000000000000000000000 DUP2 MSTORE PUSH1 0x4 ADD PUSH2 0x360 SWAP1 PUSH2 0xD9B JUMP JUMPDEST PUSH1 0x40 MLOAD DUP1 SWAP2 SUB SWAP1 REVERT JUMPDEST POP POP JUMP JUMPDEST PUSH1 0x3 SLOAD DUP2 JUMP JUMPDEST PUSH1 0x0 PUSH1 0x20 MSTORE DUP1 PUSH1 0x0 MSTORE PUSH1 0x40 PUSH1 0x0 KECCAK256 PUSH1 0x0 SWAP2 POP SWAP1 POP SLOAD DUP2 JUMP JUMPDEST PUSH1 0x4 PUSH1 0x0 SWAP1 SLOAD SWAP1 PUSH2 0x100 EXP SWAP1 DIV PUSH20 0xFFFFFFFFFFFFFFFFFFFFFFFFFFFFFFFFFFFFFFFF AND PUSH20 0xFFFFFFFFFFFFFFFFFFFFFFFFFFFFFFFFFFFFFFFF AND CALLER PUSH20 0xFFFFFFFFFFFFFFFFFFFFFFFFFFFFFFFFFFFFFFFF AND EQ PUSH2 0x41B JUMPI PUSH1 0x40 MLOAD PUSH32 0x8C379A000000000000000000000000000000000000000000000000000000000 DUP2 MSTORE PUSH1 0x4 ADD PUSH2 0x412 SWAP1 PUSH2 0xE07 JUMP JUMPDEST PUSH1 0x40 MLOAD DUP1 SWAP2 SUB SWAP1 REVERT JUMPDEST DUP1 PUSH1 0x2 PUSH1 0x0 PUSH2 0x100 EXP DUP2 SLOAD DUP2 PUSH20 0xFFFFFFFFFFFFFFFFFFFFFFFFFFFFFFFFFFFFFFFF MUL NOT AND SWAP1 DUP4 PUSH20 0xFFFFFFFFFFFFFFFFFFFFFFFFFFFFFFFFFFFFFFFF AND MUL OR SWAP1 SSTORE POP POP JUMP JUMPDEST PUSH1 0x1 PUSH1 0x0 SWAP1 SLOAD SWAP1 PUSH2 0x100 EXP SWAP1 DIV PUSH20 0xFFFFFFFFFFFFFFFFFFFFFFFFFFFFFFFFFFFFFFFF AND DUP2 JUMP JUMPDEST PUSH1 0x0 PUSH1 0x2 PUSH1 0x0 SWAP1 SLOAD SWAP1 PUSH2 0x100 EXP SWAP1 DIV PUSH20 0xFFFFFFFFFFFFFFFFFFFFFFFFFFFFFFFFFFFFFFFF AND PUSH20 0xFFFFFFFFFFFFFFFFFFFFFFFFFFFFFFFFFFFFFFFF AND CALLER PUSH20 0xFFFFFFFFFFFFFFFFFFFFFFFFFFFFFFFFFFFFFFFF AND EQ PUSH2 0x517 JUMPI PUSH1 0x40 MLOAD PUSH32 0x8C379A000000000000000000000000000000000000000000000000000000000 DUP2 MSTORE PUSH1 0x4 ADD PUSH2 0x50E SWAP1 PUSH2 0xE73 JUMP JUMPDEST PUSH1 0x40 MLOAD DUP1 SWAP2 SUB SWAP1 REVERT JUMPDEST PUSH1 0x1 PUSH1 0x0 SWAP1 SLOAD SWAP1 PUSH2 0x100 EXP SWAP1 DIV PUSH20 0xFFFFFFFFFFFFFFFFFFFFFFFFFFFFFFFFFFFFFFFF AND PUSH20 0xFFFFFFFFFFFFFFFFFFFFFFFFFFFFFFFFFFFFFFFF AND PUSH4 0xA9059CBB DUP5 DUP5 PUSH1 0x40 MLOAD DUP4 PUSH4 0xFFFFFFFF AND PUSH1 0xE0 SHL DUP2 MSTORE PUSH1 0x4 ADD PUSH2 0x574 SWAP3 SWAP2 SWAP1 PUSH2 0xE93 JUMP JUMPDEST PUSH1 0x20 PUSH1 0x40 MLOAD DUP1 DUP4 SUB DUP2 PUSH1 0x0 DUP8 GAS CALL ISZERO DUP1 ISZERO PUSH2 0x593 JUMPI RETURNDATASIZE PUSH1 0x0 DUP1 RETURNDATACOPY RETURNDATASIZE PUSH1 0x0 REVERT JUMPDEST POP POP POP POP PUSH1 0x40 MLOAD RETURNDATASIZE PUSH1 0x1F NOT PUSH1 0x1F DUP3 ADD AND DUP3 ADD DUP1 PUSH1 0x40 MSTORE POP DUP2 ADD SWAP1 PUSH2 0x5B7 SWAP2 SWAP1 PUSH2 0xD22 JUMP JUMPDEST SWAP1 POP SWAP3 SWAP2 POP POP JUMP JUMPDEST PUSH1 0x4 PUSH1 0x0 SWAP1 SLOAD SWAP1 PUSH2 0x100 EXP SWAP1 DIV PUSH20 0xFFFFFFFFFFFFFFFFFFFFFFFFFFFFFFFFFFFFFFFF AND DUP2 JUMP JUMPDEST PUSH1 0x0 DUP1 PUSH1 0x0 CALLER PUSH20 0xFFFFFFFFFFFFFFFFFFFFFFFFFFFFFFFFFFFFFFFF AND PUSH20 0xFFFFFFFFFFFFFFFFFFFFFFFFFFFFFFFFFFFFFFFF AND DUP2 MSTORE PUSH1 0x20 ADD SWAP1 DUP2 MSTORE PUSH1 0x20 ADD PUSH1 0x0 KECCAK256 SLOAD SWAP1 POP PUSH1 0x0 PUSH3 0xF4240 PUSH2 0x636 PUSH2 0x78D JUMP JUMPDEST DUP4 PUSH2 0x641 SWAP2 SWAP1 PUSH2 0xBE9 JUMP JUMPDEST PUSH2 0x64B SWAP2 SWAP1 PUSH2 0xC5A JUMP JUMPDEST SWAP1 POP DUP2 PUSH1 0x3 PUSH1 0x0 DUP3 DUP3 SLOAD PUSH2 0x65F SWAP2 SWAP1 PUSH2 0xEBC JUMP JUMPDEST SWAP3 POP POP DUP2 SWAP1 SSTORE POP PUSH1 0x0 DUP1 PUSH1 0x0 CALLER PUSH20 0xFFFFFFFFFFFFFFFFFFFFFFFFFFFFFFFFFFFFFFFF AND PUSH20 0xFFFFFFFFFFFFFFFFFFFFFFFFFFFFFFFFFFFFFFFF AND DUP2 MSTORE PUSH1 0x20 ADD SWAP1 DUP2 MSTORE PUSH1 0x20 ADD PUSH1 0x0 KECCAK256 DUP2 SWAP1 SSTORE POP PUSH1 0x1 PUSH1 0x0 SWAP1 SLOAD SWAP1 PUSH2 0x100 EXP SWAP1 DIV PUSH20 0xFFFFFFFFFFFFFFFFFFFFFFFFFFFFFFFFFFFFFFFF AND PUSH20 0xFFFFFFFFFFFFFFFFFFFFFFFFFFFFFFFFFFFFFFFF AND PUSH4 0xA9059CBB CALLER DUP4 PUSH1 0x40 MLOAD DUP4 PUSH4 0xFFFFFFFF AND PUSH1 0xE0 SHL DUP2 MSTORE PUSH1 0x4 ADD PUSH2 0x707 SWAP3 SWAP2 SWAP1 PUSH2 0xE93 JUMP JUMPDEST PUSH1 0x20 PUSH1 0x40 MLOAD DUP1 DUP4 SUB DUP2 PUSH1 0x0 DUP8 GAS CALL ISZERO DUP1 ISZERO PUSH2 0x726 JUMPI RETURNDATASIZE PUSH1 0x0 DUP1 RETURNDATACOPY RETURNDATASIZE PUSH1 0x0 REVERT JUMPDEST POP POP POP POP PUSH1 0x40 MLOAD RETURNDATASIZE PUSH1 0x1F NOT PUSH1 0x1F DUP3 ADD AND DUP3 ADD DUP1 PUSH1 0x40 MSTORE POP DUP2 ADD SWAP1 PUSH2 0x74A SWAP2 SWAP1 PUSH2 0xD22 JUMP JUMPDEST PUSH2 0x789 JUMPI PUSH1 0x40 MLOAD PUSH32 0x8C379A000000000000000000000000000000000000000000000000000000000 DUP2 MSTORE PUSH1 0x4 ADD PUSH2 0x780 SWAP1 PUSH2 0xD9B JUMP JUMPDEST PUSH1 0x40 MLOAD DUP1 SWAP2 SUB SWAP1 REVERT JUMPDEST POP POP JUMP JUMPDEST PUSH1 0x0 DUP1 PUSH1 0x3 SLOAD GT DUP1 ISZERO PUSH2 0x83B JUMPI POP PUSH1 0x0 PUSH1 0x1 PUSH1 0x0 SWAP1 SLOAD SWAP1 PUSH2 0x100 EXP SWAP1 DIV PUSH20 0xFFFFFFFFFFFFFFFFFFFFFFFFFFFFFFFFFFFFFFFF AND PUSH20 0xFFFFFFFFFFFFFFFFFFFFFFFFFFFFFFFFFFFFFFFF AND PUSH4 0x70A08231 ADDRESS PUSH1 0x40 MLOAD DUP3 PUSH4 0xFFFFFFFF AND PUSH1 0xE0 SHL DUP2 MSTORE PUSH1 0x4 ADD PUSH2 0x7F8 SWAP2 SWAP1 PUSH2 0xB22 JUMP JUMPDEST PUSH1 0x20 PUSH1 0x40 MLOAD DUP1 DUP4 SUB DUP2 DUP7 GAS STATICCALL ISZERO DUP1 ISZERO PUSH2 0x815 JUMPI RETURNDATASIZE PUSH1 0x0 DUP1 RETURNDATACOPY RETURNDATASIZE PUSH1 0x0 REVERT JUMPDEST POP POP POP POP PUSH1 0x40 MLOAD RETURNDATASIZE PUSH1 0x1F NOT PUSH1 0x1F DUP3 ADD AND DUP3 ADD DUP1 PUSH1 0x40 MSTORE POP DUP2 ADD SWAP1 PUSH2 0x839 SWAP2 SWAP1 PUSH2 0xF05 JUMP JUMPDEST GT JUMPDEST ISZERO PUSH2 0x8FE JUMPI PUSH1 0x3 SLOAD PUSH3 0xF4240 PUSH1 0x1 PUSH1 0x0 SWAP1 SLOAD SWAP1 PUSH2 0x100 EXP SWAP1 DIV PUSH20 0xFFFFFFFFFFFFFFFFFFFFFFFFFFFFFFFFFFFFFFFF AND PUSH20 0xFFFFFFFFFFFFFFFFFFFFFFFFFFFFFFFFFFFFFFFF AND PUSH4 0x70A08231 ADDRESS PUSH1 0x40 MLOAD DUP3 PUSH4 0xFFFFFFFF AND PUSH1 0xE0 SHL DUP2 MSTORE PUSH1 0x4 ADD PUSH2 0x8A2 SWAP2 SWAP1 PUSH2 0xB22 JUMP JUMPDEST PUSH1 0x20 PUSH1 0x40 MLOAD DUP1 DUP4 SUB DUP2 DUP7 GAS STATICCALL ISZERO DUP1 ISZERO PUSH2 0x8BF JUMPI RETURNDATASIZE PUSH1 0x0 DUP1 RETURNDATACOPY RETURNDATASIZE PUSH1 0x0 REVERT JUMPDEST POP POP POP POP PUSH1 0x40 MLOAD RETURNDATASIZE PUSH1 0x1F NOT PUSH1 0x1F DUP3 ADD AND DUP3 ADD DUP1 PUSH1 0x40 MSTORE POP DUP2 ADD SWAP1 PUSH2 0x8E3 SWAP2 SWAP1 PUSH2 0xF05 JUMP JUMPDEST PUSH2 0x8ED SWAP2 SWAP1 PUSH2 0xBE9 JUMP JUMPDEST PUSH2 0x8F7 SWAP2 SWAP1 PUSH2 0xC5A JUMP JUMPDEST SWAP1 POP PUSH2 0x903 JUMP JUMPDEST PUSH1 0x1 SWAP1 POP JUMPDEST SWAP1 JUMP JUMPDEST PUSH1 0x0 DUP1 REVERT JUMPDEST PUSH1 0x0 DUP2 SWAP1 POP SWAP2 SWAP1 POP JUMP JUMPDEST PUSH2 0x91E DUP2 PUSH2 0x90B JUMP JUMPDEST DUP2 EQ PUSH2 0x929 JUMPI PUSH1 0x0 DUP1 REVERT JUMPDEST POP JUMP JUMPDEST PUSH1 0x0 DUP2 CALLDATALOAD SWAP1 POP PUSH2 0x93B DUP2 PUSH2 0x915 JUMP JUMPDEST SWAP3 SWAP2 POP POP JUMP JUMPDEST PUSH1 0x0 PUSH1 0x20 DUP3 DUP5 SUB SLT ISZERO PUSH2 0x957 JUMPI PUSH2 0x956 PUSH2 0x906 JUMP JUMPDEST JUMPDEST PUSH1 0x0 PUSH2 0x965 DUP5 DUP3 DUP6 ADD PUSH2 0x92C JUMP JUMPDEST SWAP2 POP POP SWAP3 SWAP2 POP POP JUMP JUMPDEST PUSH2 0x977 DUP2 PUSH2 0x90B JUMP JUMPDEST DUP3 MSTORE POP POP JUMP JUMPDEST PUSH1 0x0 PUSH1 0x20 DUP3 ADD SWAP1 POP PUSH2 0x992 PUSH1 0x0 DUP4 ADD DUP5 PUSH2 0x96E JUMP JUMPDEST SWAP3 SWAP2 POP POP JUMP JUMPDEST PUSH1 0x0 PUSH20 0xFFFFFFFFFFFFFFFFFFFFFFFFFFFFFFFFFFFFFFFF DUP3 AND SWAP1 POP SWAP2 SWAP1 POP JUMP JUMPDEST PUSH1 0x0 PUSH2 0x9C3 DUP3 PUSH2 0x998 JUMP JUMPDEST SWAP1 POP SWAP2 SWAP1 POP JUMP JUMPDEST PUSH2 0x9D3 DUP2 PUSH2 0x9B8 JUMP JUMPDEST DUP2 EQ PUSH2 0x9DE JUMPI PUSH1 0x0 DUP1 REVERT JUMPDEST POP JUMP JUMPDEST PUSH1 0x0 DUP2 CALLDATALOAD SWAP1 POP PUSH2 0x9F0 DUP2 PUSH2 0x9CA JUMP JUMPDEST SWAP3 SWAP2 POP POP JUMP JUMPDEST PUSH1 0x0 PUSH1 0x20 DUP3 DUP5 SUB SLT ISZERO PUSH2 0xA0C JUMPI PUSH2 0xA0B PUSH2 0x906 JUMP JUMPDEST JUMPDEST PUSH1 0x0 PUSH2 0xA1A DUP5 DUP3 DUP6 ADD PUSH2 0x9E1 JUMP JUMPDEST SWAP2 POP POP SWAP3 SWAP2 POP POP JUMP JUMPDEST PUSH1 0x0 DUP2 SWAP1 POP SWAP2 SWAP1 POP JUMP JUMPDEST PUSH1 0x0 PUSH2 0xA48 PUSH2 0xA43 PUSH2 0xA3E DUP5 PUSH2 0x998 JUMP JUMPDEST PUSH2 0xA23 JUMP JUMPDEST PUSH2 0x998 JUMP JUMPDEST SWAP1 POP SWAP2 SWAP1 POP JUMP JUMPDEST PUSH1 0x0 PUSH2 0xA5A DUP3 PUSH2 0xA2D JUMP JUMPDEST SWAP1 POP SWAP2 SWAP1 POP JUMP JUMPDEST PUSH1 0x0 PUSH2 0xA6C DUP3 PUSH2 0xA4F JUMP JUMPDEST SWAP1 POP SWAP2 SWAP1 POP JUMP JUMPDEST PUSH2 0xA7C DUP2 PUSH2 0xA61 JUMP JUMPDEST DUP3 MSTORE POP POP JUMP JUMPDEST PUSH1 0x0 PUSH1 0x20 DUP3 ADD SWAP1 POP PUSH2 0xA97 PUSH1 0x0 DUP4 ADD DUP5 PUSH2 0xA73 JUMP JUMPDEST SWAP3 SWAP2 POP POP JUMP JUMPDEST PUSH1 0x0 DUP1 PUSH1 0x40 DUP4 DUP6 SUB SLT ISZERO PUSH2 0xAB4 JUMPI PUSH2 0xAB3 PUSH2 0x906 JUMP JUMPDEST JUMPDEST PUSH1 0x0 PUSH2 0xAC2 DUP6 DUP3 DUP7 ADD PUSH2 0x9E1 JUMP JUMPDEST SWAP3 POP POP PUSH1 0x20 PUSH2 0xAD3 DUP6 DUP3 DUP7 ADD PUSH2 0x92C JUMP JUMPDEST SWAP2 POP POP SWAP3 POP SWAP3 SWAP1 POP JUMP JUMPDEST PUSH1 0x0 DUP2 ISZERO ISZERO SWAP1 POP SWAP2 SWAP1 POP JUMP JUMPDEST PUSH2 0xAF2 DUP2 PUSH2 0xADD JUMP JUMPDEST DUP3 MSTORE POP POP JUMP JUMPDEST PUSH1 0x0 PUSH1 0x20 DUP3 ADD SWAP1 POP PUSH2 0xB0D PUSH1 0x0 DUP4 ADD DUP5 PUSH2 0xAE9 JUMP JUMPDEST SWAP3 SWAP2 POP POP JUMP JUMPDEST PUSH2 0xB1C DUP2 PUSH2 0x9B8 JUMP JUMPDEST DUP3 MSTORE POP POP JUMP JUMPDEST PUSH1 0x0 PUSH1 0x20 DUP3 ADD SWAP1 POP PUSH2 0xB37 PUSH1 0x0 DUP4 ADD DUP5 PUSH2 0xB13 JUMP JUMPDEST SWAP3 SWAP2 POP POP JUMP JUMPDEST PUSH1 0x0 DUP3 DUP3 MSTORE PUSH1 0x20 DUP3 ADD SWAP1 POP SWAP3 SWAP2 POP POP JUMP JUMPDEST PUSH32 0x43414E4E4F545F5354414B455F5A45524F5F544F4B454E530000000000000000 PUSH1 0x0 DUP3 ADD MSTORE POP JUMP JUMPDEST PUSH1 0x0 PUSH2 0xB84 PUSH1 0x18 DUP4 PUSH2 0xB3D JUMP JUMPDEST SWAP2 POP PUSH2 0xB8F DUP3 PUSH2 0xB4E JUMP JUMPDEST PUSH1 0x20 DUP3 ADD SWAP1 POP SWAP2 SWAP1 POP JUMP JUMPDEST PUSH1 0x0 PUSH1 0x20 DUP3 ADD SWAP1 POP DUP2 DUP2 SUB PUSH1 0x0 DUP4 ADD MSTORE PUSH2 0xBB3 DUP2 PUSH2 0xB77 JUMP JUMPDEST SWAP1 POP SWAP2 SWAP1 POP JUMP JUMPDEST PUSH32 0x4E487B7100000000000000000000000000000000000000000000000000000000 PUSH1 0x0 MSTORE PUSH1 0x11 PUSH1 0x4 MSTORE PUSH1 0x24 PUSH1 0x0 REVERT JUMPDEST PUSH1 0x0 PUSH2 0xBF4 DUP3 PUSH2 0x90B JUMP JUMPDEST SWAP2 POP PUSH2 0xBFF DUP4 PUSH2 0x90B JUMP JUMPDEST SWAP3 POP DUP3 DUP3 MUL PUSH2 0xC0D DUP2 PUSH2 0x90B JUMP JUMPDEST SWAP2 POP DUP3 DUP3 DIV DUP5 EQ DUP4 ISZERO OR PUSH2 0xC24 JUMPI PUSH2 0xC23 PUSH2 0xBBA JUMP JUMPDEST JUMPDEST POP SWAP3 SWAP2 POP POP JUMP JUMPDEST PUSH32 0x4E487B7100000000000000000000000000000000000000000000000000000000 PUSH1 0x0 MSTORE PUSH1 0x12 PUSH1 0x4 MSTORE PUSH1 0x24 PUSH1 0x0 REVERT JUMPDEST PUSH1 0x0 PUSH2 0xC65 DUP3 PUSH2 0x90B JUMP JUMPDEST SWAP2 POP PUSH2 0xC70 DUP4 PUSH2 0x90B JUMP JUMPDEST SWAP3 POP DUP3 PUSH2 0xC80 JUMPI PUSH2 0xC7F PUSH2 0xC2B JUMP JUMPDEST JUMPDEST DUP3 DUP3 DIV SWAP1 POP SWAP3 SWAP2 POP POP JUMP JUMPDEST PUSH1 0x0 PUSH2 0xC96 DUP3 PUSH2 0x90B JUMP JUMPDEST SWAP2 POP PUSH2 0xCA1 DUP4 PUSH2 0x90B JUMP JUMPDEST SWAP3 POP DUP3 DUP3 ADD SWAP1 POP DUP1 DUP3 GT ISZERO PUSH2 0xCB9 JUMPI PUSH2 0xCB8 PUSH2 0xBBA JUMP JUMPDEST JUMPDEST SWAP3 SWAP2 POP POP JUMP JUMPDEST PUSH1 0x0 PUSH1 0x60 DUP3 ADD SWAP1 POP PUSH2 0xCD4 PUSH1 0x0 DUP4 ADD DUP7 PUSH2 0xB13 JUMP JUMPDEST PUSH2 0xCE1 PUSH1 0x20 DUP4 ADD DUP6 PUSH2 0xB13 JUMP JUMPDEST PUSH2 0xCEE PUSH1 0x40 DUP4 ADD DUP5 PUSH2 0x96E JUMP JUMPDEST SWAP5 SWAP4 POP POP POP POP JUMP JUMPDEST PUSH2 0xCFF DUP2 PUSH2 0xADD JUMP JUMPDEST DUP2 EQ PUSH2 0xD0A JUMPI PUSH1 0x0 DUP1 REVERT JUMPDEST POP JUMP JUMPDEST PUSH1 0x0 DUP2 MLOAD SWAP1 POP PUSH2 0xD1C DUP2 PUSH2 0xCF6 JUMP JUMPDEST SWAP3 SWAP2 POP POP JUMP JUMPDEST PUSH1 0x0 PUSH1 0x20 DUP3 DUP5 SUB SLT ISZERO PUSH2 0xD38 JUMPI PUSH2 0xD37 PUSH2 0x906 JUMP JUMPDEST JUMPDEST PUSH1 0x0 PUSH2 0xD46 DUP5 DUP3 DUP6 ADD PUSH2 0xD0D JUMP JUMPDEST SWAP2 POP POP SWAP3 SWAP2 POP POP JUMP JUMPDEST PUSH32 0x5452414E534645525F5354414B45445F4641494C000000000000000000000000 PUSH1 0x0 DUP3 ADD MSTORE POP JUMP JUMPDEST PUSH1 0x0 PUSH2 0xD85 PUSH1 0x14 DUP4 PUSH2 0xB3D JUMP JUMPDEST SWAP2 POP PUSH2 0xD90 DUP3 PUSH2 0xD4F JUMP JUMPDEST PUSH1 0x20 DUP3 ADD SWAP1 POP SWAP2 SWAP1 POP JUMP JUMPDEST PUSH1 0x0 PUSH1 0x20 DUP3 ADD SWAP1 POP DUP2 DUP2 SUB PUSH1 0x0 DUP4 ADD MSTORE PUSH2 0xDB4 DUP2 PUSH2 0xD78 JUMP JUMPDEST SWAP1 POP SWAP2 SWAP1 POP JUMP JUMPDEST PUSH32 0x736574507269766564657220466F7262696464656E2100000000000000000000 PUSH1 0x0 DUP3 ADD MSTORE POP JUMP JUMPDEST PUSH1 0x0 PUSH2 0xDF1 PUSH1 0x16 DUP4 PUSH2 0xB3D JUMP JUMPDEST SWAP2 POP PUSH2 0xDFC DUP3 PUSH2 0xDBB JUMP JUMPDEST PUSH1 0x20 DUP3 ADD SWAP1 POP SWAP2 SWAP1 POP JUMP JUMPDEST PUSH1 0x0 PUSH1 0x20 DUP3 ADD SWAP1 POP DUP2 DUP2 SUB PUSH1 0x0 DUP4 ADD MSTORE PUSH2 0xE20 DUP2 PUSH2 0xDE4 JUMP JUMPDEST SWAP1 POP SWAP2 SWAP1 POP JUMP JUMPDEST PUSH32 0x7472616E73666572546F4163636F756E7420466F7262696464656E2100000000 PUSH1 0x0 DUP3 ADD MSTORE POP JUMP JUMPDEST PUSH1 0x0 PUSH2 0xE5D PUSH1 0x1C DUP4 PUSH2 0xB3D JUMP JUMPDEST SWAP2 POP PUSH2 0xE68 DUP3 PUSH2 0xE27 JUMP JUMPDEST PUSH1 0x20 DUP3 ADD SWAP1 POP SWAP2 SWAP1 POP JUMP JUMPDEST PUSH1 0x0 PUSH1 0x20 DUP3 ADD SWAP1 POP DUP2 DUP2 SUB PUSH1 0x0 DUP4 ADD MSTORE PUSH2 0xE8C DUP2 PUSH2 0xE50 JUMP JUMPDEST SWAP1 POP SWAP2 SWAP1 POP JUMP JUMPDEST PUSH1 0x0 PUSH1 0x40 DUP3 ADD SWAP1 POP PUSH2 0xEA8 PUSH1 0x0 DUP4 ADD DUP6 PUSH2 0xB13 JUMP JUMPDEST PUSH2 0xEB5 PUSH1 0x20 DUP4 ADD DUP5 PUSH2 0x96E JUMP JUMPDEST SWAP4 SWAP3 POP POP POP JUMP JUMPDEST PUSH1 0x0 PUSH2 0xEC7 DUP3 PUSH2 0x90B JUMP JUMPDEST SWAP2 POP PUSH2 0xED2 DUP4 PUSH2 0x90B JUMP JUMPDEST SWAP3 POP DUP3 DUP3 SUB SWAP1 POP DUP2 DUP2 GT ISZERO PUSH2 0xEEA JUMPI PUSH2 0xEE9 PUSH2 0xBBA JUMP JUMPDEST JUMPDEST SWAP3 SWAP2 POP POP JUMP JUMPDEST PUSH1 0x0 DUP2 MLOAD SWAP1 POP PUSH2 0xEFF DUP2 PUSH2 0x915 JUMP JUMPDEST SWAP3 SWAP2 POP POP JUMP JUMPDEST PUSH1 0x0 PUSH1 0x20 DUP3 DUP5 SUB SLT ISZERO PUSH2 0xF1B JUMPI PUSH2 0xF1A PUSH2 0x906 JUMP JUMPDEST JUMPDEST PUSH1 0x0 PUSH2 0xF29 DUP5 DUP3 DUP6 ADD PUSH2 0xEF0 JUMP JUMPDEST SWAP2 POP POP SWAP3 SWAP2 POP POP JUMP INVALID LOG2 PUSH5 0x6970667358 0x22 SLT KECCAK256 0xAE ADDMOD 0xEA DIV 0xD2 POP GAS PUSH14 0x8EDD3021CFA99EF0A2A1FBE6AEA6 ADDMOD SWAP10 SWAP8 CALLVALUE EXTCODESIZE 0xE 0xC 0xC8 SHR LOG4 PUSH5 0x736F6C6343 STOP ADDMOD GT STOP CALLER PUSH1 0x80 PUSH1 0x40 MSTORE PUSH32 0x1A6092262D7DC33C2F4B9913AD9318A8C41A138BB42DFACD4C7B6B46B8656522 PUSH1 0x0 SHL PUSH1 0x1 SSTORE PUSH32 0xB158F1759111CD99128505F450F608C97178E2B6B9B6F7C3B0D2949E3A21CD02 PUSH1 0x0 SHL PUSH1 0x2 SSTORE PUSH32 0x3ADE8887FCE9B513D41EB36180D6F7D9E072C756991034DE2C9A5DA541FB8184 PUSH1 0x0 SHL PUSH1 0x3 SSTORE PUSH1 0x1B PUSH1 0x4 PUSH1 0x0 PUSH2 0x100 EXP DUP2 SLOAD DUP2 PUSH1 0xFF MUL NOT AND SWAP1 DUP4 PUSH1 0xFF AND MUL OR SWAP1 SSTORE POP CALLVALUE DUP1 ISZERO PUSH3 0xA2 JUMPI PUSH1 0x0 DUP1 REVERT JUMPDEST POP PUSH1 0x40 MLOAD PUSH3 0x1A11 CODESIZE SUB DUP1 PUSH3 0x1A11 DUP4 CODECOPY DUP2 DUP2 ADD PUSH1 0x40 MSTORE DUP2 ADD SWAP1 PUSH3 0xC8 SWAP2 SWAP1 PUSH3 0x1BA JUMP JUMPDEST CALLER PUSH1 0x4 PUSH1 0x1 PUSH2 0x100 EXP DUP2 SLOAD DUP2 PUSH20 0xFFFFFFFFFFFFFFFFFFFFFFFFFFFFFFFFFFFFFFFF MUL NOT AND SWAP1 DUP4 PUSH20 0xFFFFFFFFFFFFFFFFFFFFFFFFFFFFFFFFFFFFFFFF AND MUL OR SWAP1 SSTORE POP DUP1 PUSH1 0x0 DUP1 PUSH2 0x100 EXP DUP2 SLOAD DUP2 PUSH20 0xFFFFFFFFFFFFFFFFFFFFFFFFFFFFFFFFFFFFFFFF MUL NOT AND SWAP1 DUP4 PUSH20 0xFFFFFFFFFFFFFFFFFFFFFFFFFFFFFFFFFFFFFFFF AND MUL OR SWAP1 SSTORE POP POP PUSH3 0x1EC JUMP JUMPDEST PUSH1 0x0 DUP1 REVERT JUMPDEST PUSH1 0x0 PUSH20 0xFFFFFFFFFFFFFFFFFFFFFFFFFFFFFFFFFFFFFFFF DUP3 AND SWAP1 POP SWAP2 SWAP1 POP JUMP JUMPDEST PUSH1 0x0 PUSH3 0x182 DUP3 PUSH3 0x155 JUMP JUMPDEST SWAP1 POP SWAP2 SWAP1 POP JUMP JUMPDEST PUSH3 0x194 DUP2 PUSH3 0x175 JUMP JUMPDEST DUP2 EQ PUSH3 0x1A0 JUMPI PUSH1 0x0 DUP1 REVERT JUMPDEST POP JUMP JUMPDEST PUSH1 0x0 DUP2 MLOAD SWAP1 POP PUSH3 0x1B4 DUP2 PUSH3 0x189 JUMP JUMPDEST SWAP3 SWAP2 POP POP JUMP JUMPDEST PUSH1 0x0 PUSH1 0x20 DUP3 DUP5 SUB SLT ISZERO PUSH3 0x1D3 JUMPI PUSH3 0x1D2 PUSH3 0x150 JUMP JUMPDEST JUMPDEST PUSH1 0x0 PUSH3 0x1E3 DUP5 DUP3 DUP6 ADD PUSH3 0x1A3 JUMP JUMPDEST SWAP2 POP POP SWAP3 SWAP2 POP POP JUMP JUMPDEST PUSH2 0x1815 DUP1 PUSH3 0x1FC PUSH1 0x0 CODECOPY PUSH1 0x0 RETURN INVALID PUSH1 0x80 PUSH1 0x40 MSTORE CALLVALUE DUP1 ISZERO PUSH2 0x10 JUMPI PUSH1 0x0 DUP1 REVERT JUMPDEST POP PUSH1 0x4 CALLDATASIZE LT PUSH2 0x7D JUMPI PUSH1 0x0 CALLDATALOAD PUSH1 0xE0 SHR DUP1 PUSH4 0xC339210F GT PUSH2 0x5B JUMPI DUP1 PUSH4 0xC339210F EQ PUSH2 0xDC JUMPI DUP1 PUSH4 0xCDB12AF8 EQ PUSH2 0xFA JUMPI DUP1 PUSH4 0xE4E6CF4F EQ PUSH2 0x12A JUMPI DUP1 PUSH4 0xE8AEEE45 EQ PUSH2 0x148 JUMPI PUSH2 0x7D JUMP JUMPDEST DUP1 PUSH4 0x6C8AE38C EQ PUSH2 0x82 JUMPI DUP1 PUSH4 0x7C2EFCBA EQ PUSH2 0xA0 JUMPI DUP1 PUSH4 0x86B714E2 EQ PUSH2 0xBE JUMPI JUMPDEST PUSH1 0x0 DUP1 REVERT JUMPDEST PUSH2 0x8A PUSH2 0x178 JUMP JUMPDEST PUSH1 0x40 MLOAD PUSH2 0x97 SWAP2 SWAP1 PUSH2 0xB79 JUMP JUMPDEST PUSH1 0x40 MLOAD DUP1 SWAP2 SUB SWAP1 RETURN JUMPDEST PUSH2 0xA8 PUSH2 0x17E JUMP JUMPDEST PUSH1 0x40 MLOAD PUSH2 0xB5 SWAP2 SWAP1 PUSH2 0xBB0 JUMP JUMPDEST PUSH1 0x40 MLOAD DUP1 SWAP2 SUB SWAP1 RETURN JUMPDEST PUSH2 0xC6 PUSH2 0x191 JUMP JUMPDEST PUSH1 0x40 MLOAD PUSH2 0xD3 SWAP2 SWAP1 PUSH2 0xB79 JUMP JUMPDEST PUSH1 0x40 MLOAD DUP1 SWAP2 SUB SWAP1 RETURN JUMPDEST PUSH2 0xE4 PUSH2 0x197 JUMP JUMPDEST PUSH1 0x40 MLOAD PUSH2 0xF1 SWAP2 SWAP1 PUSH2 0xC0C JUMP JUMPDEST PUSH1 0x40 MLOAD DUP1 SWAP2 SUB SWAP1 RETURN JUMPDEST PUSH2 0x114 PUSH1 0x4 DUP1 CALLDATASIZE SUB DUP2 ADD SWAP1 PUSH2 0x10F SWAP2 SWAP1 PUSH2 0xE81 JUMP JUMPDEST PUSH2 0x1BD JUMP JUMPDEST PUSH1 0x40 MLOAD PUSH2 0x121 SWAP2 SWAP1 PUSH2 0xF52 JUMP JUMPDEST PUSH1 0x40 MLOAD DUP1 SWAP2 SUB SWAP1 RETURN JUMPDEST PUSH2 0x132 PUSH2 0x713 JUMP JUMPDEST PUSH1 0x40 MLOAD PUSH2 0x13F SWAP2 SWAP1 PUSH2 0xB79 JUMP JUMPDEST PUSH1 0x40 MLOAD DUP1 SWAP2 SUB SWAP1 RETURN JUMPDEST PUSH2 0x162 PUSH1 0x4 DUP1 CALLDATASIZE SUB DUP2 ADD SWAP1 PUSH2 0x15D SWAP2 SWAP1 PUSH2 0xF6D JUMP JUMPDEST PUSH2 0x719 JUMP JUMPDEST PUSH1 0x40 MLOAD PUSH2 0x16F SWAP2 SWAP1 PUSH2 0xB79 JUMP JUMPDEST PUSH1 0x40 MLOAD DUP1 SWAP2 SUB SWAP1 RETURN JUMPDEST PUSH1 0x2 SLOAD DUP2 JUMP JUMPDEST PUSH1 0x4 PUSH1 0x0 SWAP1 SLOAD SWAP1 PUSH2 0x100 EXP SWAP1 DIV PUSH1 0xFF AND DUP2 JUMP JUMPDEST PUSH1 0x3 SLOAD DUP2 JUMP JUMPDEST PUSH1 0x4 PUSH1 0x1 SWAP1 SLOAD SWAP1 PUSH2 0x100 EXP SWAP1 DIV PUSH20 0xFFFFFFFFFFFFFFFFFFFFFFFFFFFFFFFFFFFFFFFF AND DUP2 JUMP JUMPDEST PUSH1 0x0 DUP1 ADDRESS DUP7 DUP10 DUP10 PUSH1 0x40 MLOAD PUSH1 0x20 ADD PUSH2 0x1D7 SWAP5 SWAP4 SWAP3 SWAP2 SWAP1 PUSH2 0x1090 JUMP JUMPDEST PUSH1 0x40 MLOAD PUSH1 0x20 DUP2 DUP4 SUB SUB DUP2 MSTORE SWAP1 PUSH1 0x40 MSTORE DUP1 MLOAD SWAP1 PUSH1 0x20 ADD KECCAK256 SWAP1 POP PUSH2 0x1F9 DUP2 DUP7 PUSH2 0x756 JUMP JUMPDEST PUSH20 0xFFFFFFFFFFFFFFFFFFFFFFFFFFFFFFFFFFFFFFFF AND PUSH2 0x230 PUSH1 0x1 SLOAD PUSH1 0x4 PUSH1 0x0 SWAP1 SLOAD SWAP1 PUSH2 0x100 EXP SWAP1 DIV PUSH1 0xFF AND PUSH1 0x2 SLOAD PUSH1 0x3 SLOAD PUSH2 0x77D JUMP JUMPDEST PUSH20 0xFFFFFFFFFFFFFFFFFFFFFFFFFFFFFFFFFFFFFFFF AND EQ PUSH2 0x286 JUMPI PUSH1 0x40 MLOAD PUSH32 0x8C379A000000000000000000000000000000000000000000000000000000000 DUP2 MSTORE PUSH1 0x4 ADD PUSH2 0x27D SWAP1 PUSH2 0x113B JUMP JUMPDEST PUSH1 0x40 MLOAD DUP1 SWAP2 SUB SWAP1 REVERT JUMPDEST PUSH1 0x0 DUP1 SLOAD SWAP1 PUSH2 0x100 EXP SWAP1 DIV PUSH20 0xFFFFFFFFFFFFFFFFFFFFFFFFFFFFFFFFFFFFFFFF AND PUSH20 0xFFFFFFFFFFFFFFFFFFFFFFFFFFFFFFFFFFFFFFFF AND PUSH4 0xB28A91D0 PUSH1 0x40 MLOAD DUP2 PUSH4 0xFFFFFFFF AND PUSH1 0xE0 SHL DUP2 MSTORE PUSH1 0x4 ADD PUSH1 0x20 PUSH1 0x40 MLOAD DUP1 DUP4 SUB DUP2 DUP7 GAS STATICCALL ISZERO DUP1 ISZERO PUSH2 0x2F1 JUMPI RETURNDATASIZE PUSH1 0x0 DUP1 RETURNDATACOPY RETURNDATASIZE PUSH1 0x0 REVERT JUMPDEST POP POP POP POP PUSH1 0x40 MLOAD RETURNDATASIZE PUSH1 0x1F NOT PUSH1 0x1F DUP3 ADD AND DUP3 ADD DUP1 PUSH1 0x40 MSTORE POP DUP2 ADD SWAP1 PUSH2 0x315 SWAP2 SWAP1 PUSH2 0x1199 JUMP JUMPDEST PUSH20 0xFFFFFFFFFFFFFFFFFFFFFFFFFFFFFFFFFFFFFFFF AND PUSH4 0x70A08231 PUSH1 0x0 DUP1 SLOAD SWAP1 PUSH2 0x100 EXP SWAP1 DIV PUSH20 0xFFFFFFFFFFFFFFFFFFFFFFFFFFFFFFFFFFFFFFFF AND PUSH1 0x40 MLOAD DUP3 PUSH4 0xFFFFFFFF AND PUSH1 0xE0 SHL DUP2 MSTORE PUSH1 0x4 ADD PUSH2 0x36D SWAP2 SWAP1 PUSH2 0xC0C JUMP JUMPDEST PUSH1 0x20 PUSH1 0x40 MLOAD DUP1 DUP4 SUB DUP2 DUP7 GAS STATICCALL ISZERO DUP1 ISZERO PUSH2 0x38A JUMPI RETURNDATASIZE PUSH1 0x0 DUP1 RETURNDATACOPY RETURNDATASIZE PUSH1 0x0 REVERT JUMPDEST POP POP POP POP PUSH1 0x40 MLOAD RETURNDATASIZE PUSH1 0x1F NOT PUSH1 0x1F DUP3 ADD AND DUP3 ADD DUP1 PUSH1 0x40 MSTORE POP DUP2 ADD SWAP1 PUSH2 0x3AE SWAP2 SWAP1 PUSH2 0x11DB JUMP JUMPDEST DUP7 GT ISZERO PUSH2 0x3F0 JUMPI PUSH1 0x40 MLOAD PUSH32 0x8C379A000000000000000000000000000000000000000000000000000000000 DUP2 MSTORE PUSH1 0x4 ADD PUSH2 0x3E7 SWAP1 PUSH2 0x1254 JUMP JUMPDEST PUSH1 0x40 MLOAD DUP1 SWAP2 SUB SWAP1 REVERT JUMPDEST PUSH1 0x0 DUP1 SLOAD SWAP1 PUSH2 0x100 EXP SWAP1 DIV PUSH20 0xFFFFFFFFFFFFFFFFFFFFFFFFFFFFFFFFFFFFFFFF AND PUSH20 0xFFFFFFFFFFFFFFFFFFFFFFFFFFFFFFFFFFFFFFFF AND PUSH4 0xBB500F48 DUP10 DUP9 PUSH1 0x40 MLOAD DUP4 PUSH4 0xFFFFFFFF AND PUSH1 0xE0 SHL DUP2 MSTORE PUSH1 0x4 ADD PUSH2 0x44B SWAP3 SWAP2 SWAP1 PUSH2 0x1283 JUMP JUMPDEST PUSH1 0x20 PUSH1 0x40 MLOAD DUP1 DUP4 SUB DUP2 PUSH1 0x0 DUP8 GAS CALL ISZERO DUP1 ISZERO PUSH2 0x46A JUMPI RETURNDATASIZE PUSH1 0x0 DUP1 RETURNDATACOPY RETURNDATASIZE PUSH1 0x0 REVERT JUMPDEST POP POP POP POP PUSH1 0x40 MLOAD RETURNDATASIZE PUSH1 0x1F NOT PUSH1 0x1F DUP3 ADD AND DUP3 ADD DUP1 PUSH1 0x40 MSTORE POP DUP2 ADD SWAP1 PUSH2 0x48E SWAP2 SWAP1 PUSH2 0x12D8 JUMP JUMPDEST PUSH2 0x4CD JUMPI PUSH1 0x40 MLOAD PUSH32 0x8C379A000000000000000000000000000000000000000000000000000000000 DUP2 MSTORE PUSH1 0x4 ADD PUSH2 0x4C4 SWAP1 PUSH2 0x1351 JUMP JUMPDEST PUSH1 0x40 MLOAD DUP1 SWAP2 SUB SWAP1 REVERT JUMPDEST PUSH1 0x1 ISZERO ISZERO DUP9 PUSH20 0xFFFFFFFFFFFFFFFFFFFFFFFFFFFFFFFFFFFFFFFF AND PUSH4 0xC00C8B6C CALLER DUP11 DUP11 DUP10 DUP10 PUSH1 0x40 MLOAD DUP7 PUSH4 0xFFFFFFFF AND PUSH1 0xE0 SHL DUP2 MSTORE PUSH1 0x4 ADD PUSH2 0x512 SWAP6 SWAP5 SWAP4 SWAP3 SWAP2 SWAP1 PUSH2 0x13AF JUMP JUMPDEST PUSH1 0x20 PUSH1 0x40 MLOAD DUP1 DUP4 SUB DUP2 PUSH1 0x0 DUP8 GAS CALL ISZERO DUP1 ISZERO PUSH2 0x531 JUMPI RETURNDATASIZE PUSH1 0x0 DUP1 RETURNDATACOPY RETURNDATASIZE PUSH1 0x0 REVERT JUMPDEST POP POP POP POP PUSH1 0x40 MLOAD RETURNDATASIZE PUSH1 0x1F NOT PUSH1 0x1F DUP3 ADD AND DUP3 ADD DUP1 PUSH1 0x40 MSTORE POP DUP2 ADD SWAP1 PUSH2 0x555 SWAP2 SWAP1 PUSH2 0x12D8 JUMP JUMPDEST ISZERO ISZERO EQ PUSH2 0x597 JUMPI PUSH1 0x40 MLOAD PUSH32 0x8C379A000000000000000000000000000000000000000000000000000000000 DUP2 MSTORE PUSH1 0x4 ADD PUSH2 0x58E SWAP1 PUSH2 0x1449 JUMP JUMPDEST PUSH1 0x40 MLOAD DUP1 SWAP2 SUB SWAP1 REVERT JUMPDEST PUSH1 0x0 DUP1 SLOAD SWAP1 PUSH2 0x100 EXP SWAP1 DIV PUSH20 0xFFFFFFFFFFFFFFFFFFFFFFFFFFFFFFFFFFFFFFFF AND PUSH20 0xFFFFFFFFFFFFFFFFFFFFFFFFFFFFFFFFFFFFFFFF AND PUSH4 0xB28A91D0 PUSH1 0x40 MLOAD DUP2 PUSH4 0xFFFFFFFF AND PUSH1 0xE0 SHL DUP2 MSTORE PUSH1 0x4 ADD PUSH1 0x20 PUSH1 0x40 MLOAD DUP1 DUP4 SUB DUP2 DUP7 GAS STATICCALL ISZERO DUP1 ISZERO PUSH2 0x602 JUMPI RETURNDATASIZE PUSH1 0x0 DUP1 RETURNDATACOPY RETURNDATASIZE PUSH1 0x0 REVERT JUMPDEST POP POP POP POP PUSH1 0x40 MLOAD RETURNDATASIZE PUSH1 0x1F NOT PUSH1 0x1F DUP3 ADD AND DUP3 ADD DUP1 PUSH1 0x40 MSTORE POP DUP2 ADD SWAP1 PUSH2 0x626 SWAP2 SWAP1 PUSH2 0x1199 JUMP JUMPDEST PUSH20 0xFFFFFFFFFFFFFFFFFFFFFFFFFFFFFFFFFFFFFFFF AND PUSH4 0x23B872DD DUP10 PUSH1 0x0 DUP1 SLOAD SWAP1 PUSH2 0x100 EXP SWAP1 DIV PUSH20 0xFFFFFFFFFFFFFFFFFFFFFFFFFFFFFFFFFFFFFFFF AND DUP10 PUSH1 0x40 MLOAD DUP5 PUSH4 0xFFFFFFFF AND PUSH1 0xE0 SHL DUP2 MSTORE PUSH1 0x4 ADD PUSH2 0x682 SWAP4 SWAP3 SWAP2 SWAP1 PUSH2 0x1469 JUMP JUMPDEST PUSH1 0x20 PUSH1 0x40 MLOAD DUP1 DUP4 SUB DUP2 PUSH1 0x0 DUP8 GAS CALL ISZERO DUP1 ISZERO PUSH2 0x6A1 JUMPI RETURNDATASIZE PUSH1 0x0 DUP1 RETURNDATACOPY RETURNDATASIZE PUSH1 0x0 REVERT JUMPDEST POP POP POP POP PUSH1 0x40 MLOAD RETURNDATASIZE PUSH1 0x1F NOT PUSH1 0x1F DUP3 ADD AND DUP3 ADD DUP1 PUSH1 0x40 MSTORE POP DUP2 ADD SWAP1 PUSH2 0x6C5 SWAP2 SWAP1 PUSH2 0x12D8 JUMP JUMPDEST PUSH2 0x704 JUMPI PUSH1 0x40 MLOAD PUSH32 0x8C379A000000000000000000000000000000000000000000000000000000000 DUP2 MSTORE PUSH1 0x4 ADD PUSH2 0x6FB SWAP1 PUSH2 0x14EC JUMP JUMPDEST PUSH1 0x40 MLOAD DUP1 SWAP2 SUB SWAP1 REVERT JUMPDEST PUSH1 0x1 SWAP2 POP POP SWAP7 SWAP6 POP POP POP POP POP POP JUMP JUMPDEST PUSH1 0x1 SLOAD DUP2 JUMP JUMPDEST PUSH1 0x0 DUP1 ADDRESS DUP4 DUP7 DUP7 PUSH1 0x40 MLOAD PUSH1 0x20 ADD PUSH2 0x733 SWAP5 SWAP4 SWAP3 SWAP2 SWAP1 PUSH2 0x1090 JUMP JUMPDEST PUSH1 0x40 MLOAD PUSH1 0x20 DUP2 DUP4 SUB SUB DUP2 MSTORE SWAP1 PUSH1 0x40 MSTORE DUP1 MLOAD SWAP1 PUSH1 0x20 ADD KECCAK256 SWAP1 POP DUP1 SWAP2 POP POP SWAP4 SWAP3 POP POP POP JUMP JUMPDEST PUSH1 0x0 DUP1 PUSH1 0x0 PUSH2 0x765 DUP6 DUP6 PUSH2 0x7A8 JUMP JUMPDEST SWAP2 POP SWAP2 POP PUSH2 0x772 DUP2 PUSH2 0x829 JUMP JUMPDEST DUP2 SWAP3 POP POP POP SWAP3 SWAP2 POP POP JUMP JUMPDEST PUSH1 0x0 DUP1 PUSH1 0x0 PUSH2 0x78E DUP8 DUP8 DUP8 DUP8 PUSH2 0x9F5 JUMP JUMPDEST SWAP2 POP SWAP2 POP PUSH2 0x79B DUP2 PUSH2 0x829 JUMP JUMPDEST DUP2 SWAP3 POP POP POP SWAP5 SWAP4 POP POP POP POP JUMP JUMPDEST PUSH1 0x0 DUP1 PUSH1 0x41 DUP4 MLOAD SUB PUSH2 0x7E9 JUMPI PUSH1 0x0 DUP1 PUSH1 0x0 PUSH1 0x20 DUP7 ADD MLOAD SWAP3 POP PUSH1 0x40 DUP7 ADD MLOAD SWAP2 POP PUSH1 0x60 DUP7 ADD MLOAD PUSH1 0x0 BYTE SWAP1 POP PUSH2 0x7DD DUP8 DUP3 DUP6 DUP6 PUSH2 0x9F5 JUMP JUMPDEST SWAP5 POP SWAP5 POP POP POP POP PUSH2 0x822 JUMP JUMPDEST PUSH1 0x40 DUP4 MLOAD SUB PUSH2 0x819 JUMPI PUSH1 0x0 DUP1 PUSH1 0x20 DUP6 ADD MLOAD SWAP2 POP PUSH1 0x40 DUP6 ADD MLOAD SWAP1 POP PUSH2 0x80E DUP7 DUP4 DUP4 PUSH2 0xB01 JUMP JUMPDEST SWAP4 POP SWAP4 POP POP POP PUSH2 0x822 JUMP JUMPDEST PUSH1 0x0 PUSH1 0x2 SWAP2 POP SWAP2 POP JUMPDEST SWAP3 POP SWAP3 SWAP1 POP JUMP JUMPDEST PUSH1 0x0 PUSH1 0x4 DUP2 GT ISZERO PUSH2 0x83D JUMPI PUSH2 0x83C PUSH2 0x150C JUMP JUMPDEST JUMPDEST DUP2 PUSH1 0x4 DUP2 GT ISZERO PUSH2 0x850 JUMPI PUSH2 0x84F PUSH2 0x150C JUMP JUMPDEST JUMPDEST SUB ISZERO PUSH2 0x9F2 JUMPI PUSH1 0x1 PUSH1 0x4 DUP2 GT ISZERO PUSH2 0x86A JUMPI PUSH2 0x869 PUSH2 0x150C JUMP JUMPDEST JUMPDEST DUP2 PUSH1 0x4 DUP2 GT ISZERO PUSH2 0x87D JUMPI PUSH2 0x87C PUSH2 0x150C JUMP JUMPDEST JUMPDEST SUB PUSH2 0x8BD JUMPI PUSH1 0x40 MLOAD PUSH32 0x8C379A000000000000000000000000000000000000000000000000000000000 DUP2 MSTORE PUSH1 0x4 ADD PUSH2 0x8B4 SWAP1 PUSH2 0x1587 JUMP JUMPDEST PUSH1 0x40 MLOAD DUP1 SWAP2 SUB SWAP1 REVERT JUMPDEST PUSH1 0x2 PUSH1 0x4 DUP2 GT ISZERO PUSH2 0x8D1 JUMPI PUSH2 0x8D0 PUSH2 0x150C JUMP JUMPDEST JUMPDEST DUP2 PUSH1 0x4 DUP2 GT ISZERO PUSH2 0x8E4 JUMPI PUSH2 0x8E3 PUSH2 0x150C JUMP JUMPDEST JUMPDEST SUB PUSH2 0x924 JUMPI PUSH1 0x40 MLOAD PUSH32 0x8C379A000000000000000000000000000000000000000000000000000000000 DUP2 MSTORE PUSH1 0x4 ADD PUSH2 0x91B SWAP1 PUSH2 0x15F3 JUMP JUMPDEST PUSH1 0x40 MLOAD DUP1 SWAP2 SUB SWAP1 REVERT JUMPDEST PUSH1 0x3 PUSH1 0x4 DUP2 GT ISZERO PUSH2 0x938 JUMPI PUSH2 0x937 PUSH2 0x150C JUMP JUMPDEST JUMPDEST DUP2 PUSH1 0x4 DUP2 GT ISZERO PUSH2 0x94B JUMPI PUSH2 0x94A PUSH2 0x150C JUMP JUMPDEST JUMPDEST SUB PUSH2 0x98B JUMPI PUSH1 0x40 MLOAD PUSH32 0x8C379A000000000000000000000000000000000000000000000000000000000 DUP2 MSTORE PUSH1 0x4 ADD PUSH2 0x982 SWAP1 PUSH2 0x1685 JUMP JUMPDEST PUSH1 0x40 MLOAD DUP1 SWAP2 SUB SWAP1 REVERT JUMPDEST PUSH1 0x4 DUP1 DUP2 GT ISZERO PUSH2 0x99E JUMPI PUSH2 0x99D PUSH2 0x150C JUMP JUMPDEST JUMPDEST DUP2 PUSH1 0x4 DUP2 GT ISZERO PUSH2 0x9B1 JUMPI PUSH2 0x9B0 PUSH2 0x150C JUMP JUMPDEST JUMPDEST SUB PUSH2 0x9F1 JUMPI PUSH1 0x40 MLOAD PUSH32 0x8C379A000000000000000000000000000000000000000000000000000000000 DUP2 MSTORE PUSH1 0x4 ADD PUSH2 0x9E8 SWAP1 PUSH2 0x1717 JUMP JUMPDEST PUSH1 0x40 MLOAD DUP1 SWAP2 SUB SWAP1 REVERT JUMPDEST JUMPDEST POP JUMP JUMPDEST PUSH1 0x0 DUP1 PUSH32 0x7FFFFFFFFFFFFFFFFFFFFFFFFFFFFFFF5D576E7357A4501DDFE92F46681B20A0 DUP4 PUSH1 0x0 SHR GT ISZERO PUSH2 0xA30 JUMPI PUSH1 0x0 PUSH1 0x3 SWAP2 POP SWAP2 POP PUSH2 0xAF8 JUMP JUMPDEST PUSH1 0x1B DUP6 PUSH1 0xFF AND EQ ISZERO DUP1 ISZERO PUSH2 0xA48 JUMPI POP PUSH1 0x1C DUP6 PUSH1 0xFF AND EQ ISZERO JUMPDEST ISZERO PUSH2 0xA5A JUMPI PUSH1 0x0 PUSH1 0x4 SWAP2 POP SWAP2 POP PUSH2 0xAF8 JUMP JUMPDEST PUSH1 0x0 PUSH1 0x1 DUP8 DUP8 DUP8 DUP8 PUSH1 0x40 MLOAD PUSH1 0x0 DUP2 MSTORE PUSH1 0x20 ADD PUSH1 0x40 MSTORE PUSH1 0x40 MLOAD PUSH2 0xA7F SWAP5 SWAP4 SWAP3 SWAP2 SWAP1 PUSH2 0x1737 JUMP JUMPDEST PUSH1 0x20 PUSH1 0x40 MLOAD PUSH1 0x20 DUP2 SUB SWAP1 DUP1 DUP5 SUB SWAP1 DUP6 GAS STATICCALL ISZERO DUP1 ISZERO PUSH2 0xAA1 JUMPI RETURNDATASIZE PUSH1 0x0 DUP1 RETURNDATACOPY RETURNDATASIZE PUSH1 0x0 REVERT JUMPDEST POP POP POP PUSH1 0x20 PUSH1 0x40 MLOAD SUB MLOAD SWAP1 POP PUSH1 0x0 PUSH20 0xFFFFFFFFFFFFFFFFFFFFFFFFFFFFFFFFFFFFFFFF AND DUP2 PUSH20 0xFFFFFFFFFFFFFFFFFFFFFFFFFFFFFFFFFFFFFFFF AND SUB PUSH2 0xAEF JUMPI PUSH1 0x0 PUSH1 0x1 SWAP3 POP SWAP3 POP POP PUSH2 0xAF8 JUMP JUMPDEST DUP1 PUSH1 0x0 SWAP3 POP SWAP3 POP POP JUMPDEST SWAP5 POP SWAP5 SWAP3 POP POP POP JUMP JUMPDEST PUSH1 0x0 DUP1 PUSH1 0x0 PUSH32 0x7FFFFFFFFFFFFFFFFFFFFFFFFFFFFFFFFFFFFFFFFFFFFFFFFFFFFFFFFFFFFFFF PUSH1 0x0 SHL DUP5 AND SWAP1 POP PUSH1 0x0 PUSH1 0x1B PUSH1 0xFF DUP7 PUSH1 0x0 SHR SWAP1 SHR PUSH2 0xB44 SWAP2 SWAP1 PUSH2 0x17AB JUMP JUMPDEST SWAP1 POP PUSH2 0xB52 DUP8 DUP3 DUP9 DUP6 PUSH2 0x9F5 JUMP JUMPDEST SWAP4 POP SWAP4 POP POP POP SWAP4 POP SWAP4 SWAP2 POP POP JUMP JUMPDEST PUSH1 0x0 DUP2 SWAP1 POP SWAP2 SWAP1 POP JUMP JUMPDEST PUSH2 0xB73 DUP2 PUSH2 0xB60 JUMP JUMPDEST DUP3 MSTORE POP POP JUMP JUMPDEST PUSH1 0x0 PUSH1 0x20 DUP3 ADD SWAP1 POP PUSH2 0xB8E PUSH1 0x0 DUP4 ADD DUP5 PUSH2 0xB6A JUMP JUMPDEST SWAP3 SWAP2 POP POP JUMP JUMPDEST PUSH1 0x0 PUSH1 0xFF DUP3 AND SWAP1 POP SWAP2 SWAP1 POP JUMP JUMPDEST PUSH2 0xBAA DUP2 PUSH2 0xB94 JUMP JUMPDEST DUP3 MSTORE POP POP JUMP JUMPDEST PUSH1 0x0 PUSH1 0x20 DUP3 ADD SWAP1 POP PUSH2 0xBC5 PUSH1 0x0 DUP4 ADD DUP5 PUSH2 0xBA1 JUMP JUMPDEST SWAP3 SWAP2 POP POP JUMP JUMPDEST PUSH1 0x0 PUSH20 0xFFFFFFFFFFFFFFFFFFFFFFFFFFFFFFFFFFFFFFFF DUP3 AND SWAP1 POP SWAP2 SWAP1 POP JUMP JUMPDEST PUSH1 0x0 PUSH2 0xBF6 DUP3 PUSH2 0xBCB JUMP JUMPDEST SWAP1 POP SWAP2 SWAP1 POP JUMP JUMPDEST PUSH2 0xC06 DUP2 PUSH2 0xBEB JUMP JUMPDEST DUP3 MSTORE POP POP JUMP JUMPDEST PUSH1 0x0 PUSH1 0x20 DUP3 ADD SWAP1 POP PUSH2 0xC21 PUSH1 0x0 DUP4 ADD DUP5 PUSH2 0xBFD JUMP JUMPDEST SWAP3 SWAP2 POP POP JUMP JUMPDEST PUSH1 0x0 PUSH1 0x40 MLOAD SWAP1 POP SWAP1 JUMP JUMPDEST PUSH1 0x0 DUP1 REVERT JUMPDEST PUSH1 0x0 DUP1 REVERT JUMPDEST PUSH1 0x0 PUSH2 0xC46 DUP3 PUSH2 0xBEB JUMP JUMPDEST SWAP1 POP SWAP2 SWAP1 POP JUMP JUMPDEST PUSH2 0xC56 DUP2 PUSH2 0xC3B JUMP JUMPDEST DUP2 EQ PUSH2 0xC61 JUMPI PUSH1 0x0 DUP1 REVERT JUMPDEST POP JUMP JUMPDEST PUSH1 0x0 DUP2 CALLDATALOAD SWAP1 POP PUSH2 0xC73 DUP2 PUSH2 0xC4D JUMP JUMPDEST SWAP3 SWAP2 POP POP JUMP JUMPDEST PUSH2 0xC82 DUP2 PUSH2 0xBEB JUMP JUMPDEST DUP2 EQ PUSH2 0xC8D JUMPI PUSH1 0x0 DUP1 REVERT JUMPDEST POP JUMP JUMPDEST PUSH1 0x0 DUP2 CALLDATALOAD SWAP1 POP PUSH2 0xC9F DUP2 PUSH2 0xC79 JUMP JUMPDEST SWAP3 SWAP2 POP POP JUMP JUMPDEST PUSH1 0x0 DUP2 SWAP1 POP SWAP2 SWAP1 POP JUMP JUMPDEST PUSH2 0xCB8 DUP2 PUSH2 0xCA5 JUMP JUMPDEST DUP2 EQ PUSH2 0xCC3 JUMPI PUSH1 0x0 DUP1 REVERT JUMPDEST POP JUMP JUMPDEST PUSH1 0x0 DUP2 CALLDATALOAD SWAP1 POP PUSH2 0xCD5 DUP2 PUSH2 0xCAF JUMP JUMPDEST SWAP3 SWAP2 POP POP JUMP JUMPDEST PUSH1 0x0 DUP1 REVERT JUMPDEST PUSH1 0x0 DUP1 REVERT JUMPDEST PUSH1 0x0 PUSH1 0x1F NOT PUSH1 0x1F DUP4 ADD AND SWAP1 POP SWAP2 SWAP1 POP JUMP JUMPDEST PUSH32 0x4E487B7100000000000000000000000000000000000000000000000000000000 PUSH1 0x0 MSTORE PUSH1 0x41 PUSH1 0x4 MSTORE PUSH1 0x24 PUSH1 0x0 REVERT JUMPDEST PUSH2 0xD2E DUP3 PUSH2 0xCE5 JUMP JUMPDEST DUP2 ADD DUP2 DUP2 LT PUSH8 0xFFFFFFFFFFFFFFFF DUP3 GT OR ISZERO PUSH2 0xD4D JUMPI PUSH2 0xD4C PUSH2 0xCF6 JUMP JUMPDEST JUMPDEST DUP1 PUSH1 0x40 MSTORE POP POP POP JUMP JUMPDEST PUSH1 0x0 PUSH2 0xD60 PUSH2 0xC27 JUMP JUMPDEST SWAP1 POP PUSH2 0xD6C DUP3 DUP3 PUSH2 0xD25 JUMP JUMPDEST SWAP2 SWAP1 POP JUMP JUMPDEST PUSH1 0x0 PUSH8 0xFFFFFFFFFFFFFFFF DUP3 GT ISZERO PUSH2 0xD8C JUMPI PUSH2 0xD8B PUSH2 0xCF6 JUMP JUMPDEST JUMPDEST PUSH2 0xD95 DUP3 PUSH2 0xCE5 JUMP JUMPDEST SWAP1 POP PUSH1 0x20 DUP2 ADD SWAP1 POP SWAP2 SWAP1 POP JUMP JUMPDEST DUP3 DUP2 DUP4 CALLDATACOPY PUSH1 0x0 DUP4 DUP4 ADD MSTORE POP POP POP JUMP JUMPDEST PUSH1 0x0 PUSH2 0xDC4 PUSH2 0xDBF DUP5 PUSH2 0xD71 JUMP JUMPDEST PUSH2 0xD56 JUMP JUMPDEST SWAP1 POP DUP3 DUP2 MSTORE PUSH1 0x20 DUP2 ADD DUP5 DUP5 DUP5 ADD GT ISZERO PUSH2 0xDE0 JUMPI PUSH2 0xDDF PUSH2 0xCE0 JUMP JUMPDEST JUMPDEST PUSH2 0xDEB DUP5 DUP3 DUP6 PUSH2 0xDA2 JUMP JUMPDEST POP SWAP4 SWAP3 POP POP POP JUMP JUMPDEST PUSH1 0x0 DUP3 PUSH1 0x1F DUP4 ADD SLT PUSH2 0xE08 JUMPI PUSH2 0xE07 PUSH2 0xCDB JUMP JUMPDEST JUMPDEST DUP2 CALLDATALOAD PUSH2 0xE18 DUP5 DUP3 PUSH1 0x20 DUP7 ADD PUSH2 0xDB1 JUMP JUMPDEST SWAP2 POP POP SWAP3 SWAP2 POP POP JUMP JUMPDEST PUSH1 0x0 DUP1 REVERT JUMPDEST PUSH1 0x0 DUP1 REVERT JUMPDEST PUSH1 0x0 DUP1 DUP4 PUSH1 0x1F DUP5 ADD SLT PUSH2 0xE41 JUMPI PUSH2 0xE40 PUSH2 0xCDB JUMP JUMPDEST JUMPDEST DUP3 CALLDATALOAD SWAP1 POP PUSH8 0xFFFFFFFFFFFFFFFF DUP2 GT ISZERO PUSH2 0xE5E JUMPI PUSH2 0xE5D PUSH2 0xE21 JUMP JUMPDEST JUMPDEST PUSH1 0x20 DUP4 ADD SWAP2 POP DUP4 PUSH1 0x1 DUP3 MUL DUP4 ADD GT ISZERO PUSH2 0xE7A JUMPI PUSH2 0xE79 PUSH2 0xE26 JUMP JUMPDEST JUMPDEST SWAP3 POP SWAP3 SWAP1 POP JUMP JUMPDEST PUSH1 0x0 DUP1 PUSH1 0x0 DUP1 PUSH1 0x0 DUP1 PUSH1 0xA0 DUP8 DUP10 SUB SLT ISZERO PUSH2 0xE9E JUMPI PUSH2 0xE9D PUSH2 0xC31 JUMP JUMPDEST JUMPDEST PUSH1 0x0 PUSH2 0xEAC DUP10 DUP3 DUP11 ADD PUSH2 0xC64 JUMP JUMPDEST SWAP7 POP POP PUSH1 0x20 PUSH2 0xEBD DUP10 DUP3 DUP11 ADD PUSH2 0xC90 JUMP JUMPDEST SWAP6 POP POP PUSH1 0x40 PUSH2 0xECE DUP10 DUP3 DUP11 ADD PUSH2 0xCC6 JUMP JUMPDEST SWAP5 POP POP PUSH1 0x60 DUP8 ADD CALLDATALOAD PUSH8 0xFFFFFFFFFFFFFFFF DUP2 GT ISZERO PUSH2 0xEEF JUMPI PUSH2 0xEEE PUSH2 0xC36 JUMP JUMPDEST JUMPDEST PUSH2 0xEFB DUP10 DUP3 DUP11 ADD PUSH2 0xDF3 JUMP JUMPDEST SWAP4 POP POP PUSH1 0x80 DUP8 ADD CALLDATALOAD PUSH8 0xFFFFFFFFFFFFFFFF DUP2 GT ISZERO PUSH2 0xF1C JUMPI PUSH2 0xF1B PUSH2 0xC36 JUMP JUMPDEST JUMPDEST PUSH2 0xF28 DUP10 DUP3 DUP11 ADD PUSH2 0xE2B JUMP JUMPDEST SWAP3 POP SWAP3 POP POP SWAP3 SWAP6 POP SWAP3 SWAP6 POP SWAP3 SWAP6 JUMP JUMPDEST PUSH1 0x0 DUP2 ISZERO ISZERO SWAP1 POP SWAP2 SWAP1 POP JUMP JUMPDEST PUSH2 0xF4C DUP2 PUSH2 0xF37 JUMP JUMPDEST DUP3 MSTORE POP POP JUMP JUMPDEST PUSH1 0x0 PUSH1 0x20 DUP3 ADD SWAP1 POP PUSH2 0xF67 PUSH1 0x0 DUP4 ADD DUP5 PUSH2 0xF43 JUMP JUMPDEST SWAP3 SWAP2 POP POP JUMP JUMPDEST PUSH1 0x0 DUP1 PUSH1 0x0 PUSH1 0x60 DUP5 DUP7 SUB SLT ISZERO PUSH2 0xF86 JUMPI PUSH2 0xF85 PUSH2 0xC31 JUMP JUMPDEST JUMPDEST PUSH1 0x0 PUSH2 0xF94 DUP7 DUP3 DUP8 ADD PUSH2 0xC64 JUMP JUMPDEST SWAP4 POP POP PUSH1 0x20 PUSH2 0xFA5 DUP7 DUP3 DUP8 ADD PUSH2 0xC90 JUMP JUMPDEST SWAP3 POP POP PUSH1 0x40 PUSH2 0xFB6 DUP7 DUP3 DUP8 ADD PUSH2 0xCC6 JUMP JUMPDEST SWAP2 POP POP SWAP3 POP SWAP3 POP SWAP3 JUMP JUMPDEST PUSH1 0x0 DUP2 PUSH1 0x60 SHL SWAP1 POP SWAP2 SWAP1 POP JUMP JUMPDEST PUSH1 0x0 PUSH2 0xFD8 DUP3 PUSH2 0xFC0 JUMP JUMPDEST SWAP1 POP SWAP2 SWAP1 POP JUMP JUMPDEST PUSH1 0x0 PUSH2 0xFEA DUP3 PUSH2 0xFCD JUMP JUMPDEST SWAP1 POP SWAP2 SWAP1 POP JUMP JUMPDEST PUSH2 0x1002 PUSH2 0xFFD DUP3 PUSH2 0xBEB JUMP JUMPDEST PUSH2 0xFDF JUMP JUMPDEST DUP3 MSTORE POP POP JUMP JUMPDEST PUSH1 0x0 DUP2 SWAP1 POP SWAP2 SWAP1 POP JUMP JUMPDEST PUSH2 0x1023 PUSH2 0x101E DUP3 PUSH2 0xCA5 JUMP JUMPDEST PUSH2 0x1008 JUMP JUMPDEST DUP3 MSTORE POP POP JUMP JUMPDEST PUSH1 0x0 DUP2 SWAP1 POP SWAP2 SWAP1 POP JUMP JUMPDEST PUSH1 0x0 PUSH2 0x104E PUSH2 0x1049 PUSH2 0x1044 DUP5 PUSH2 0xBCB JUMP JUMPDEST PUSH2 0x1029 JUMP JUMPDEST PUSH2 0xBCB JUMP JUMPDEST SWAP1 POP SWAP2 SWAP1 POP JUMP JUMPDEST PUSH1 0x0 PUSH2 0x1060 DUP3 PUSH2 0x1033 JUMP JUMPDEST SWAP1 POP SWAP2 SWAP1 POP JUMP JUMPDEST PUSH1 0x0 PUSH2 0x1072 DUP3 PUSH2 0x1055 JUMP JUMPDEST SWAP1 POP SWAP2 SWAP1 POP JUMP JUMPDEST PUSH2 0x108A PUSH2 0x1085 DUP3 PUSH2 0x1067 JUMP JUMPDEST PUSH2 0xFDF JUMP JUMPDEST DUP3 MSTORE POP POP JUMP JUMPDEST PUSH1 0x0 PUSH2 0x109C DUP3 DUP8 PUSH2 0xFF1 JUMP JUMPDEST PUSH1 0x14 DUP3 ADD SWAP2 POP PUSH2 0x10AC DUP3 DUP7 PUSH2 0x1012 JUMP JUMPDEST PUSH1 0x20 DUP3 ADD SWAP2 POP PUSH2 0x10BC DUP3 DUP6 PUSH2 0x1079 JUMP JUMPDEST PUSH1 0x14 DUP3 ADD SWAP2 POP PUSH2 0x10CC DUP3 DUP5 PUSH2 0xFF1 JUMP JUMPDEST PUSH1 0x14 DUP3 ADD SWAP2 POP DUP2 SWAP1 POP SWAP6 SWAP5 POP POP POP POP POP JUMP JUMPDEST PUSH1 0x0 DUP3 DUP3 MSTORE PUSH1 0x20 DUP3 ADD SWAP1 POP SWAP3 SWAP2 POP POP JUMP JUMPDEST PUSH32 0x4572726F72207369676E65722100000000000000000000000000000000000000 PUSH1 0x0 DUP3 ADD MSTORE POP JUMP JUMPDEST PUSH1 0x0 PUSH2 0x1125 PUSH1 0xD DUP4 PUSH2 0x10DE JUMP JUMPDEST SWAP2 POP PUSH2 0x1130 DUP3 PUSH2 0x10EF JUMP JUMPDEST PUSH1 0x20 DUP3 ADD SWAP1 POP SWAP2 SWAP1 POP JUMP JUMPDEST PUSH1 0x0 PUSH1 0x20 DUP3 ADD SWAP1 POP DUP2 DUP2 SUB PUSH1 0x0 DUP4 ADD MSTORE PUSH2 0x1154 DUP2 PUSH2 0x1118 JUMP JUMPDEST SWAP1 POP SWAP2 SWAP1 POP JUMP JUMPDEST PUSH1 0x0 PUSH2 0x1166 DUP3 PUSH2 0xBEB JUMP JUMPDEST SWAP1 POP SWAP2 SWAP1 POP JUMP JUMPDEST PUSH2 0x1176 DUP2 PUSH2 0x115B JUMP JUMPDEST DUP2 EQ PUSH2 0x1181 JUMPI PUSH1 0x0 DUP1 REVERT JUMPDEST POP JUMP JUMPDEST PUSH1 0x0 DUP2 MLOAD SWAP1 POP PUSH2 0x1193 DUP2 PUSH2 0x116D JUMP JUMPDEST SWAP3 SWAP2 POP POP JUMP JUMPDEST PUSH1 0x0 PUSH1 0x20 DUP3 DUP5 SUB SLT ISZERO PUSH2 0x11AF JUMPI PUSH2 0x11AE PUSH2 0xC31 JUMP JUMPDEST JUMPDEST PUSH1 0x0 PUSH2 0x11BD DUP5 DUP3 DUP6 ADD PUSH2 0x1184 JUMP JUMPDEST SWAP2 POP POP SWAP3 SWAP2 POP POP JUMP JUMPDEST PUSH1 0x0 DUP2 MLOAD SWAP1 POP PUSH2 0x11D5 DUP2 PUSH2 0xCAF JUMP JUMPDEST SWAP3 SWAP2 POP POP JUMP JUMPDEST PUSH1 0x0 PUSH1 0x20 DUP3 DUP5 SUB SLT ISZERO PUSH2 0x11F1 JUMPI PUSH2 0x11F0 PUSH2 0xC31 JUMP JUMPDEST JUMPDEST PUSH1 0x0 PUSH2 0x11FF DUP5 DUP3 DUP6 ADD PUSH2 0x11C6 JUMP JUMPDEST SWAP2 POP POP SWAP3 SWAP2 POP POP JUMP JUMPDEST PUSH32 0x414D4F554E545F4249474745525F5448414E5F42414C414E4345000000000000 PUSH1 0x0 DUP3 ADD MSTORE POP JUMP JUMPDEST PUSH1 0x0 PUSH2 0x123E PUSH1 0x1A DUP4 PUSH2 0x10DE JUMP JUMPDEST SWAP2 POP PUSH2 0x1249 DUP3 PUSH2 0x1208 JUMP JUMPDEST PUSH1 0x20 DUP3 ADD SWAP1 POP SWAP2 SWAP1 POP JUMP JUMPDEST PUSH1 0x0 PUSH1 0x20 DUP3 ADD SWAP1 POP DUP2 DUP2 SUB PUSH1 0x0 DUP4 ADD MSTORE PUSH2 0x126D DUP2 PUSH2 0x1231 JUMP JUMPDEST SWAP1 POP SWAP2 SWAP1 POP JUMP JUMPDEST PUSH2 0x127D DUP2 PUSH2 0xCA5 JUMP JUMPDEST DUP3 MSTORE POP POP JUMP JUMPDEST PUSH1 0x0 PUSH1 0x40 DUP3 ADD SWAP1 POP PUSH2 0x1298 PUSH1 0x0 DUP4 ADD DUP6 PUSH2 0xBFD JUMP JUMPDEST PUSH2 0x12A5 PUSH1 0x20 DUP4 ADD DUP5 PUSH2 0x1274 JUMP JUMPDEST SWAP4 SWAP3 POP POP POP JUMP JUMPDEST PUSH2 0x12B5 DUP2 PUSH2 0xF37 JUMP JUMPDEST DUP2 EQ PUSH2 0x12C0 JUMPI PUSH1 0x0 DUP1 REVERT JUMPDEST POP JUMP JUMPDEST PUSH1 0x0 DUP2 MLOAD SWAP1 POP PUSH2 0x12D2 DUP2 PUSH2 0x12AC JUMP JUMPDEST SWAP3 SWAP2 POP POP JUMP JUMPDEST PUSH1 0x0 PUSH1 0x20 DUP3 DUP5 SUB SLT ISZERO PUSH2 0x12EE JUMPI PUSH2 0x12ED PUSH2 0xC31 JUMP JUMPDEST JUMPDEST PUSH1 0x0 PUSH2 0x12FC DUP5 DUP3 DUP6 ADD PUSH2 0x12C3 JUMP JUMPDEST SWAP2 POP POP SWAP3 SWAP2 POP POP JUMP JUMPDEST PUSH32 0x464C4153485F4C454E4445525F5452414E534645525F4641494C454400000000 PUSH1 0x0 DUP3 ADD MSTORE POP JUMP JUMPDEST PUSH1 0x0 PUSH2 0x133B PUSH1 0x1C DUP4 PUSH2 0x10DE JUMP JUMPDEST SWAP2 POP PUSH2 0x1346 DUP3 PUSH2 0x1305 JUMP JUMPDEST PUSH1 0x20 DUP3 ADD SWAP1 POP SWAP2 SWAP1 POP JUMP JUMPDEST PUSH1 0x0 PUSH1 0x20 DUP3 ADD SWAP1 POP DUP2 DUP2 SUB PUSH1 0x0 DUP4 ADD MSTORE PUSH2 0x136A DUP2 PUSH2 0x132E JUMP JUMPDEST SWAP1 POP SWAP2 SWAP1 POP JUMP JUMPDEST PUSH1 0x0 DUP3 DUP3 MSTORE PUSH1 0x20 DUP3 ADD SWAP1 POP SWAP3 SWAP2 POP POP JUMP JUMPDEST PUSH1 0x0 PUSH2 0x138E DUP4 DUP6 PUSH2 0x1371 JUMP JUMPDEST SWAP4 POP PUSH2 0x139B DUP4 DUP6 DUP5 PUSH2 0xDA2 JUMP JUMPDEST PUSH2 0x13A4 DUP4 PUSH2 0xCE5 JUMP JUMPDEST DUP5 ADD SWAP1 POP SWAP4 SWAP3 POP POP POP JUMP JUMPDEST PUSH1 0x0 PUSH1 0x80 DUP3 ADD SWAP1 POP PUSH2 0x13C4 PUSH1 0x0 DUP4 ADD DUP9 PUSH2 0xBFD JUMP JUMPDEST PUSH2 0x13D1 PUSH1 0x20 DUP4 ADD DUP8 PUSH2 0xBFD JUMP JUMPDEST PUSH2 0x13DE PUSH1 0x40 DUP4 ADD DUP7 PUSH2 0x1274 JUMP JUMPDEST DUP2 DUP2 SUB PUSH1 0x60 DUP4 ADD MSTORE PUSH2 0x13F1 DUP2 DUP5 DUP7 PUSH2 0x1382 JUMP JUMPDEST SWAP1 POP SWAP7 SWAP6 POP POP POP POP POP POP JUMP JUMPDEST PUSH32 0x464C4153485F4C454E4445525F43414C4C4241434B5F4641494C454400000000 PUSH1 0x0 DUP3 ADD MSTORE POP JUMP JUMPDEST PUSH1 0x0 PUSH2 0x1433 PUSH1 0x1C DUP4 PUSH2 0x10DE JUMP JUMPDEST SWAP2 POP PUSH2 0x143E DUP3 PUSH2 0x13FD JUMP JUMPDEST PUSH1 0x20 DUP3 ADD SWAP1 POP SWAP2 SWAP1 POP JUMP JUMPDEST PUSH1 0x0 PUSH1 0x20 DUP3 ADD SWAP1 POP DUP2 DUP2 SUB PUSH1 0x0 DUP4 ADD MSTORE PUSH2 0x1462 DUP2 PUSH2 0x1426 JUMP JUMPDEST SWAP1 POP SWAP2 SWAP1 POP JUMP JUMPDEST PUSH1 0x0 PUSH1 0x60 DUP3 ADD SWAP1 POP PUSH2 0x147E PUSH1 0x0 DUP4 ADD DUP7 PUSH2 0xBFD JUMP JUMPDEST PUSH2 0x148B PUSH1 0x20 DUP4 ADD DUP6 PUSH2 0xBFD JUMP JUMPDEST PUSH2 0x1498 PUSH1 0x40 DUP4 ADD DUP5 PUSH2 0x1274 JUMP JUMPDEST SWAP5 SWAP4 POP POP POP POP JUMP JUMPDEST PUSH32 0x464C4153485F4C454E4445525F52455041595F4641494C454400000000000000 PUSH1 0x0 DUP3 ADD MSTORE POP JUMP JUMPDEST PUSH1 0x0 PUSH2 0x14D6 PUSH1 0x19 DUP4 PUSH2 0x10DE JUMP JUMPDEST SWAP2 POP PUSH2 0x14E1 DUP3 PUSH2 0x14A0 JUMP JUMPDEST PUSH1 0x20 DUP3 ADD SWAP1 POP SWAP2 SWAP1 POP JUMP JUMPDEST PUSH1 0x0 PUSH1 0x20 DUP3 ADD SWAP1 POP DUP2 DUP2 SUB PUSH1 0x0 DUP4 ADD MSTORE PUSH2 0x1505 DUP2 PUSH2 0x14C9 JUMP JUMPDEST SWAP1 POP SWAP2 SWAP1 POP JUMP JUMPDEST PUSH32 0x4E487B7100000000000000000000000000000000000000000000000000000000 PUSH1 0x0 MSTORE PUSH1 0x21 PUSH1 0x4 MSTORE PUSH1 0x24 PUSH1 0x0 REVERT JUMPDEST PUSH32 0x45434453413A20696E76616C6964207369676E61747572650000000000000000 PUSH1 0x0 DUP3 ADD MSTORE POP JUMP JUMPDEST PUSH1 0x0 PUSH2 0x1571 PUSH1 0x18 DUP4 PUSH2 0x10DE JUMP JUMPDEST SWAP2 POP PUSH2 0x157C DUP3 PUSH2 0x153B JUMP JUMPDEST PUSH1 0x20 DUP3 ADD SWAP1 POP SWAP2 SWAP1 POP JUMP JUMPDEST PUSH1 0x0 PUSH1 0x20 DUP3 ADD SWAP1 POP DUP2 DUP2 SUB PUSH1 0x0 DUP4 ADD MSTORE PUSH2 0x15A0 DUP2 PUSH2 0x1564 JUMP JUMPDEST SWAP1 POP SWAP2 SWAP1 POP JUMP JUMPDEST PUSH32 0x45434453413A20696E76616C6964207369676E6174757265206C656E67746800 PUSH1 0x0 DUP3 ADD MSTORE POP JUMP JUMPDEST PUSH1 0x0 PUSH2 0x15DD PUSH1 0x1F DUP4 PUSH2 0x10DE JUMP JUMPDEST SWAP2 POP PUSH2 0x15E8 DUP3 PUSH2 0x15A7 JUMP JUMPDEST PUSH1 0x20 DUP3 ADD SWAP1 POP SWAP2 SWAP1 POP JUMP JUMPDEST PUSH1 0x0 PUSH1 0x20 DUP3 ADD SWAP1 POP DUP2 DUP2 SUB PUSH1 0x0 DUP4 ADD MSTORE PUSH2 0x160C DUP2 PUSH2 0x15D0 JUMP JUMPDEST SWAP1 POP SWAP2 SWAP1 POP JUMP JUMPDEST PUSH32 0x45434453413A20696E76616C6964207369676E6174757265202773272076616C PUSH1 0x0 DUP3 ADD MSTORE PUSH32 0x7565000000000000000000000000000000000000000000000000000000000000 PUSH1 0x20 DUP3 ADD MSTORE POP JUMP JUMPDEST PUSH1 0x0 PUSH2 0x166F PUSH1 0x22 DUP4 PUSH2 0x10DE JUMP JUMPDEST SWAP2 POP PUSH2 0x167A DUP3 PUSH2 0x1613 JUMP JUMPDEST PUSH1 0x40 DUP3 ADD SWAP1 POP SWAP2 SWAP1 POP JUMP JUMPDEST PUSH1 0x0 PUSH1 0x20 DUP3 ADD SWAP1 POP DUP2 DUP2 SUB PUSH1 0x0 DUP4 ADD MSTORE PUSH2 0x169E DUP2 PUSH2 0x1662 JUMP JUMPDEST SWAP1 POP SWAP2 SWAP1 POP JUMP JUMPDEST PUSH32 0x45434453413A20696E76616C6964207369676E6174757265202776272076616C PUSH1 0x0 DUP3 ADD MSTORE PUSH32 0x7565000000000000000000000000000000000000000000000000000000000000 PUSH1 0x20 DUP3 ADD MSTORE POP JUMP JUMPDEST PUSH1 0x0 PUSH2 0x1701 PUSH1 0x22 DUP4 PUSH2 0x10DE JUMP JUMPDEST SWAP2 POP PUSH2 0x170C DUP3 PUSH2 0x16A5 JUMP JUMPDEST PUSH1 0x40 DUP3 ADD SWAP1 POP SWAP2 SWAP1 POP JUMP JUMPDEST PUSH1 0x0 PUSH1 0x20 DUP3 ADD SWAP1 POP DUP2 DUP2 SUB PUSH1 0x0 DUP4 ADD MSTORE PUSH2 0x1730 DUP2 PUSH2 0x16F4 JUMP JUMPDEST SWAP1 POP SWAP2 SWAP1 POP JUMP JUMPDEST PUSH1 0x0 PUSH1 0x80 DUP3 ADD SWAP1 POP PUSH2 0x174C PUSH1 0x0 DUP4 ADD DUP8 PUSH2 0xB6A JUMP JUMPDEST PUSH2 0x1759 PUSH1 0x20 DUP4 ADD DUP7 PUSH2 0xBA1 JUMP JUMPDEST PUSH2 0x1766 PUSH1 0x40 DUP4 ADD DUP6 PUSH2 0xB6A JUMP JUMPDEST PUSH2 0x1773 PUSH1 0x60 DUP4 ADD DUP5 PUSH2 0xB6A JUMP JUMPDEST SWAP6 SWAP5 POP POP POP POP POP JUMP JUMPDEST PUSH32 0x4E487B7100000000000000000000000000000000000000000000000000000000 PUSH1 0x0 MSTORE PUSH1 0x11 PUSH1 0x4 MSTORE PUSH1 0x24 PUSH1 0x0 REVERT JUMPDEST PUSH1 0x0 PUSH2 0x17B6 DUP3 PUSH2 0xCA5 JUMP JUMPDEST SWAP2 POP PUSH2 0x17C1 DUP4 PUSH2 0xCA5 JUMP JUMPDEST SWAP3 POP DUP3 DUP3 ADD SWAP1 POP DUP1 DUP3 GT ISZERO PUSH2 0x17D9 JUMPI PUSH2 0x17D8 PUSH2 0x177C JUMP JUMPDEST JUMPDEST SWAP3 SWAP2 POP POP JUMP INVALID LOG2 PUSH5 0x6970667358 0x22 SLT KECCAK256 0xAF SLT XOR PUSH23 0x9AFF768CF53313145B455978206AA83A137D11F8A6C192 DUP8 PUSH20 0x196A1064736F6C63430008110033000000000000 "
		},
		"gasEstimates": {
			"creation": {
				"codeDepositCost": "356000",
				"executionCost": "infinite",
				"totalCost": "infinite"
			},
			"external": {
				"Complete()": "infinite",
				"airdrop()": "infinite",
				"cert()": "infinite",
				"flashLoanPriveder()": "infinite",
				"isAirdrop()": "2543",
				"isComplete()": "2521",
				"vault()": "infinite"
			}
		},
		"methodIdentifiers": {
			"Complete()": "01b7dcb4",
			"airdrop()": "3884d635",
			"cert()": "b28a91d0",
			"flashLoanPriveder()": "f5623007",
			"isAirdrop()": "e5ed3d4e",
			"isComplete()": "b2fa1c9e",
			"vault()": "fbfa77cf"
		}
	},
	"abi": [
		{
			"inputs": [],
			"stateMutability": "nonpayable",
			"type": "constructor"
		},
		{
			"anonymous": false,
			"inputs": [
				{
					"indexed": false,
					"internalType": "address",
					"name": "user",
					"type": "address"
				}
			],
			"name": "sendflag",
			"type": "event"
		},
		{
			"inputs": [],
			"name": "Complete",
			"outputs": [
				{
					"internalType": "bool",
					"name": "",
					"type": "bool"
				}
			],
			"stateMutability": "nonpayable",
			"type": "function"
		},
		{
			"inputs": [],
			"name": "airdrop",
			"outputs": [],
			"stateMutability": "nonpayable",
			"type": "function"
		},
		{
			"inputs": [],
			"name": "cert",
			"outputs": [
				{
					"internalType": "contract Cert",
					"name": "",
					"type": "address"
				}
			],
			"stateMutability": "view",
			"type": "function"
		},
		{
			"inputs": [],
			"name": "flashLoanPriveder",
			"outputs": [
				{
					"internalType": "contract FlashLoanPriveder",
					"name": "",
					"type": "address"
				}
			],
			"stateMutability": "view",
			"type": "function"
		},
		{
			"inputs": [],
			"name": "isAirdrop",
			"outputs": [
				{
					"internalType": "bool",
					"name": "",
					"type": "bool"
				}
			],
			"stateMutability": "view",
			"type": "function"
		},
		{
			"inputs": [],
			"name": "isComplete",
			"outputs": [
				{
					"internalType": "bool",
					"name": "",
					"type": "bool"
				}
			],
			"stateMutability": "view",
			"type": "function"
		},
		{
			"inputs": [],
			"name": "vault",
			"outputs": [
				{
					"internalType": "contract Vault",
					"name": "",
					"type": "address"
				}
			],
			"stateMutability": "view",
			"type": "function"
		}
	]
}