{
	"data": {
		"bytecode": {
			"linkReferences": {},
			"object": "60806040523480156200001157600080fd5b50604051620014bb380380620014bb833981810160405281019062000037919062000380565b33600460006101000a81548173ffffffffffffffffffffffffffffffffffffffff021916908373ffffffffffffffffffffffffffffffffffffffff16021790555081600160006101000a81548173ffffffffffffffffffffffffffffffffffffffff021916908373ffffffffffffffffffffffffffffffffffffffff1602179055508060036000828254620000cd9190620003f6565b925050819055506000620000e66200015160201b60201c565b620f424083620000f7919062000431565b620001039190620004ab565b9050806000803373ffffffffffffffffffffffffffffffffffffffff1673ffffffffffffffffffffffffffffffffffffffff1681526020019081526020016000208190555050505062000543565b6000806003541180156200020557506000600160009054906101000a900473ffffffffffffffffffffffffffffffffffffffff1673ffffffffffffffffffffffffffffffffffffffff166370a08231306040518263ffffffff1660e01b8152600401620001bf9190620004f4565b602060405180830381865afa158015620001dd573d6000803e3d6000fd5b505050506040513d601f19601f8201168201806040525081019062000203919062000511565b115b15620002d357600354620f4240600160009054906101000a900473ffffffffffffffffffffffffffffffffffffffff1673ffffffffffffffffffffffffffffffffffffffff166370a08231306040518263ffffffff1660e01b81526004016200026f9190620004f4565b602060405180830381865afa1580156200028d573d6000803e3d6000fd5b505050506040513d601f19601f82011682018060405250810190620002b3919062000511565b620002bf919062000431565b620002cb9190620004ab565b9050620002d8565b600190505b90565b600080fd5b600073ffffffffffffffffffffffffffffffffffffffff82169050919050565b60006200030d82620002e0565b9050919050565b6200031f8162000300565b81146200032b57600080fd5b50565b6000815190506200033f8162000314565b92915050565b6000819050919050565b6200035a8162000345565b81146200036657600080fd5b50565b6000815190506200037a816200034f565b92915050565b600080604083850312156200039a5762000399620002db565b5b6000620003aa858286016200032e565b9250506020620003bd8582860162000369565b9150509250929050565b7f4e487b7100000000000000000000000000000000000000000000000000000000600052601160045260246000fd5b6000620004038262000345565b9150620004108362000345565b92508282019050808211156200042b576200042a620003c7565b5b92915050565b60006200043e8262000345565b91506200044b8362000345565b92508282026200045b8162000345565b91508282048414831517620004755762000474620003c7565b5b5092915050565b7f4e487b7100000000000000000000000000000000000000000000000000000000600052601260045260246000fd5b6000620004b88262000345565b9150620004c58362000345565b925082620004d857620004d76200047c565b5b828204905092915050565b620004ee8162000300565b82525050565b60006020820190506200050b6000830184620004e3565b92915050565b6000602082840312156200052a5762000529620002db565b5b60006200053a8482850162000369565b91505092915050565b610f6880620005536000396000f3fe608060405234801561001057600080fd5b50600436106100935760003560e01c8063b28a91d011610066578063b28a91d01461011e578063bb500f481461013c578063c339210f1461016c578063e9fad8ee1461018a578063ec1ebd7a1461019457610093565b8063049878f31461009857806318160ddd146100b457806370a08231146100d2578063788d645414610102575b600080fd5b6100b260048036038101906100ad9190610941565b6101b2565b005b6100bc61036d565b6040516100c9919061097d565b60405180910390f35b6100ec60048036038101906100e791906109f6565b610373565b6040516100f9919061097d565b60405180910390f35b61011c600480360381019061011791906109f6565b61038b565b005b61012661045f565b6040516101339190610a82565b60405180910390f35b61015660048036038101906101519190610a9d565b610485565b6040516101639190610af8565b60405180910390f35b6101746105bf565b6040516101819190610b22565b60405180910390f35b6101926105e5565b005b61019c61078d565b6040516101a9919061097d565b60405180910390f35b600081116101f5576040517f08c379a00000000000000000000000000000000000000000000000000000000081526004016101ec90610b9a565b60405180910390fd5b60006101ff61078d565b620f42408361020e9190610be9565b6102189190610c5a565b9050806003600082825461022c9190610c8b565b92505081905550806000803373ffffffffffffffffffffffffffffffffffffffff1673ffffffffffffffffffffffffffffffffffffffff16815260200190815260200160002060008282546102819190610c8b565b92505081905550600160009054906101000a900473ffffffffffffffffffffffffffffffffffffffff1673ffffffffffffffffffffffffffffffffffffffff166323b872dd3330856040518463ffffffff1660e01b81526004016102e793929190610cbf565b6020604051808303816000875af1158015610306573d6000803e3d6000fd5b505050506040513d601f19601f8201168201806040525081019061032a9190610d22565b610369576040517f08c379a000000000000000000000000000000000000000000000000000000000815260040161036090610d9b565b60405180910390fd5b5050565b60035481565b60006020528060005260406000206000915090505481565b600460009054906101000a900473ffffffffffffffffffffffffffffffffffffffff1673ffffffffffffffffffffffffffffffffffffffff163373ffffffffffffffffffffffffffffffffffffffff161461041b576040517f08c379a000000000000000000000000000000000000000000000000000000000815260040161041290610e07565b60405180910390fd5b80600260006101000a81548173ffffffffffffffffffffffffffffffffffffffff021916908373ffffffffffffffffffffffffffffffffffffffff16021790555050565b600160009054906101000a900473ffffffffffffffffffffffffffffffffffffffff1681565b6000600260009054906101000a900473ffffffffffffffffffffffffffffffffffffffff1673ffffffffffffffffffffffffffffffffffffffff163373ffffffffffffffffffffffffffffffffffffffff1614610517576040517f08c379a000000000000000000000000000000000000000000000000000000000815260040161050e90610e73565b60405180910390fd5b600160009054906101000a900473ffffffffffffffffffffffffffffffffffffffff1673ffffffffffffffffffffffffffffffffffffffff1663a9059cbb84846040518363ffffffff1660e01b8152600401610574929190610e93565b6020604051808303816000875af1158015610593573d6000803e3d6000fd5b505050506040513d601f19601f820116820180604052508101906105b79190610d22565b905092915050565b600460009054906101000a900473ffffffffffffffffffffffffffffffffffffffff1681565b60008060003373ffffffffffffffffffffffffffffffffffffffff1673ffffffffffffffffffffffffffffffffffffffff1681526020019081526020016000205490506000620f424061063661078d565b836106419190610be9565b61064b9190610c5a565b9050816003600082825461065f9190610ebc565b9250508190555060008060003373ffffffffffffffffffffffffffffffffffffffff1673ffffffffffffffffffffffffffffffffffffffff16815260200190815260200160002081905550600160009054906101000a900473ffffffffffffffffffffffffffffffffffffffff1673ffffffffffffffffffffffffffffffffffffffff1663a9059cbb33836040518363ffffffff1660e01b8152600401610707929190610e93565b6020604051808303816000875af1158015610726573d6000803e3d6000fd5b505050506040513d601f19601f8201168201806040525081019061074a9190610d22565b610789576040517f08c379a000000000000000000000000000000000000000000000000000000000815260040161078090610d9b565b60405180910390fd5b5050565b60008060035411801561083b57506000600160009054906101000a900473ffffffffffffffffffffffffffffffffffffffff1673ffffffffffffffffffffffffffffffffffffffff166370a08231306040518263ffffffff1660e01b81526004016107f89190610b22565b602060405180830381865afa158015610815573d6000803e3d6000fd5b505050506040513d601f19601f820116820180604052508101906108399190610f05565b115b156108fe57600354620f4240600160009054906101000a900473ffffffffffffffffffffffffffffffffffffffff1673ffffffffffffffffffffffffffffffffffffffff166370a08231306040518263ffffffff1660e01b81526004016108a29190610b22565b602060405180830381865afa1580156108bf573d6000803e3d6000fd5b505050506040513d601f19601f820116820180604052508101906108e39190610f05565b6108ed9190610be9565b6108f79190610c5a565b9050610903565b600190505b90565b600080fd5b6000819050919050565b61091e8161090b565b811461092957600080fd5b50565b60008135905061093b81610915565b92915050565b60006020828403121561095757610956610906565b5b60006109658482850161092c565b91505092915050565b6109778161090b565b82525050565b6000602082019050610992600083018461096e565b92915050565b600073ffffffffffffffffffffffffffffffffffffffff82169050919050565b60006109c382610998565b9050919050565b6109d3816109b8565b81146109de57600080fd5b50565b6000813590506109f0816109ca565b92915050565b600060208284031215610a0c57610a0b610906565b5b6000610a1a848285016109e1565b91505092915050565b6000819050919050565b6000610a48610a43610a3e84610998565b610a23565b610998565b9050919050565b6000610a5a82610a2d565b9050919050565b6000610a6c82610a4f565b9050919050565b610a7c81610a61565b82525050565b6000602082019050610a976000830184610a73565b92915050565b60008060408385031215610ab457610ab3610906565b5b6000610ac2858286016109e1565b9250506020610ad38582860161092c565b9150509250929050565b60008115159050919050565b610af281610add565b82525050565b6000602082019050610b0d6000830184610ae9565b92915050565b610b1c816109b8565b82525050565b6000602082019050610b376000830184610b13565b92915050565b600082825260208201905092915050565b7f43414e4e4f545f5354414b455f5a45524f5f544f4b454e530000000000000000600082015250565b6000610b84601883610b3d565b9150610b8f82610b4e565b602082019050919050565b60006020820190508181036000830152610bb381610b77565b9050919050565b7f4e487b7100000000000000000000000000000000000000000000000000000000600052601160045260246000fd5b6000610bf48261090b565b9150610bff8361090b565b9250828202610c0d8161090b565b91508282048414831517610c2457610c23610bba565b5b5092915050565b7f4e487b7100000000000000000000000000000000000000000000000000000000600052601260045260246000fd5b6000610c658261090b565b9150610c708361090b565b925082610c8057610c7f610c2b565b5b828204905092915050565b6000610c968261090b565b9150610ca18361090b565b9250828201905080821115610cb957610cb8610bba565b5b92915050565b6000606082019050610cd46000830186610b13565b610ce16020830185610b13565b610cee604083018461096e565b949350505050565b610cff81610add565b8114610d0a57600080fd5b50565b600081519050610d1c81610cf6565b92915050565b600060208284031215610d3857610d37610906565b5b6000610d4684828501610d0d565b91505092915050565b7f5452414e534645525f5354414b45445f4641494c000000000000000000000000600082015250565b6000610d85601483610b3d565b9150610d9082610d4f565b602082019050919050565b60006020820190508181036000830152610db481610d78565b9050919050565b7f736574507269766564657220466f7262696464656e2100000000000000000000600082015250565b6000610df1601683610b3d565b9150610dfc82610dbb565b602082019050919050565b60006020820190508181036000830152610e2081610de4565b9050919050565b7f7472616e73666572546f4163636f756e7420466f7262696464656e2100000000600082015250565b6000610e5d601c83610b3d565b9150610e6882610e27565b602082019050919050565b60006020820190508181036000830152610e8c81610e50565b9050919050565b6000604082019050610ea86000830185610b13565b610eb5602083018461096e565b9392505050565b6000610ec78261090b565b9150610ed28361090b565b9250828203905081811115610eea57610ee9610bba565b5b92915050565b600081519050610eff81610915565b92915050565b600060208284031215610f1b57610f1a610906565b5b6000610f2984828501610ef0565b9150509291505056fea2646970667358221220ae08ea04d2505a6d8edd3021cfa99ef0a2a1fbe6aea6089997343b0e0cc81ca464736f6c63430008110033",
			"opcodes": "PUSH1 0x80 PUSH1 0x40 MSTORE CALLVALUE DUP1 ISZERO PUSH3 0x11 JUMPI PUSH1 0x0 DUP1 REVERT JUMPDEST POP PUSH1 0x40 MLOAD PUSH3 0x14BB CODESIZE SUB DUP1 PUSH3 0x14BB DUP4 CODECOPY DUP2 DUP2 ADD PUSH1 0x40 MSTORE DUP2 ADD SWAP1 PUSH3 0x37 SWAP2 SWAP1 PUSH3 0x380 JUMP JUMPDEST CALLER PUSH1 0x4 PUSH1 0x0 PUSH2 0x100 EXP DUP2 SLOAD DUP2 PUSH20 0xFFFFFFFFFFFFFFFFFFFFFFFFFFFFFFFFFFFFFFFF MUL NOT AND SWAP1 DUP4 PUSH20 0xFFFFFFFFFFFFFFFFFFFFFFFFFFFFFFFFFFFFFFFF AND MUL OR SWAP1 SSTORE POP DUP2 PUSH1 0x1 PUSH1 0x0 PUSH2 0x100 EXP DUP2 SLOAD DUP2 PUSH20 0xFFFFFFFFFFFFFFFFFFFFFFFFFFFFFFFFFFFFFFFF MUL NOT AND SWAP1 DUP4 PUSH20 0xFFFFFFFFFFFFFFFFFFFFFFFFFFFFFFFFFFFFFFFF AND MUL OR SWAP1 SSTORE POP DUP1 PUSH1 0x3 PUSH1 0x0 DUP3 DUP3 SLOAD PUSH3 0xCD SWAP2 SWAP1 PUSH3 0x3F6 JUMP JUMPDEST SWAP3 POP POP DUP2 SWAP1 SSTORE POP PUSH1 0x0 PUSH3 0xE6 PUSH3 0x151 PUSH1 0x20 SHL PUSH1 0x20 SHR JUMP JUMPDEST PUSH3 0xF4240 DUP4 PUSH3 0xF7 SWAP2 SWAP1 PUSH3 0x431 JUMP JUMPDEST PUSH3 0x103 SWAP2 SWAP1 PUSH3 0x4AB JUMP JUMPDEST SWAP1 POP DUP1 PUSH1 0x0 DUP1 CALLER PUSH20 0xFFFFFFFFFFFFFFFFFFFFFFFFFFFFFFFFFFFFFFFF AND PUSH20 0xFFFFFFFFFFFFFFFFFFFFFFFFFFFFFFFFFFFFFFFF AND DUP2 MSTORE PUSH1 0x20 ADD SWAP1 DUP2 MSTORE PUSH1 0x20 ADD PUSH1 0x0 KECCAK256 DUP2 SWAP1 SSTORE POP POP POP POP PUSH3 0x543 JUMP JUMPDEST PUSH1 0x0 DUP1 PUSH1 0x3 SLOAD GT DUP1 ISZERO PUSH3 0x205 JUMPI POP PUSH1 0x0 PUSH1 0x1 PUSH1 0x0 SWAP1 SLOAD SWAP1 PUSH2 0x100 EXP SWAP1 DIV PUSH20 0xFFFFFFFFFFFFFFFFFFFFFFFFFFFFFFFFFFFFFFFF AND PUSH20 0xFFFFFFFFFFFFFFFFFFFFFFFFFFFFFFFFFFFFFFFF AND PUSH4 0x70A08231 ADDRESS PUSH1 0x40 MLOAD DUP3 PUSH4 0xFFFFFFFF AND PUSH1 0xE0 SHL DUP2 MSTORE PUSH1 0x4 ADD PUSH3 0x1BF SWAP2 SWAP1 PUSH3 0x4F4 JUMP JUMPDEST PUSH1 0x20 PUSH1 0x40 MLOAD DUP1 DUP4 SUB DUP2 DUP7 GAS STATICCALL ISZERO DUP1 ISZERO PUSH3 0x1DD JUMPI RETURNDATASIZE PUSH1 0x0 DUP1 RETURNDATACOPY RETURNDATASIZE PUSH1 0x0 REVERT JUMPDEST POP POP POP POP PUSH1 0x40 MLOAD RETURNDATASIZE PUSH1 0x1F NOT PUSH1 0x1F DUP3 ADD AND DUP3 ADD DUP1 PUSH1 0x40 MSTORE POP DUP2 ADD SWAP1 PUSH3 0x203 SWAP2 SWAP1 PUSH3 0x511 JUMP JUMPDEST GT JUMPDEST ISZERO PUSH3 0x2D3 JUMPI PUSH1 0x3 SLOAD PUSH3 0xF4240 PUSH1 0x1 PUSH1 0x0 SWAP1 SLOAD SWAP1 PUSH2 0x100 EXP SWAP1 DIV PUSH20 0xFFFFFFFFFFFFFFFFFFFFFFFFFFFFFFFFFFFFFFFF AND PUSH20 0xFFFFFFFFFFFFFFFFFFFFFFFFFFFFFFFFFFFFFFFF AND PUSH4 0x70A08231 ADDRESS PUSH1 0x40 MLOAD DUP3 PUSH4 0xFFFFFFFF AND PUSH1 0xE0 SHL DUP2 MSTORE PUSH1 0x4 ADD PUSH3 0x26F SWAP2 SWAP1 PUSH3 0x4F4 JUMP JUMPDEST PUSH1 0x20 PUSH1 0x40 MLOAD DUP1 DUP4 SUB DUP2 DUP7 GAS STATICCALL ISZERO DUP1 ISZERO PUSH3 0x28D JUMPI RETURNDATASIZE PUSH1 0x0 DUP1 RETURNDATACOPY RETURNDATASIZE PUSH1 0x0 REVERT JUMPDEST POP POP POP POP PUSH1 0x40 MLOAD RETURNDATASIZE PUSH1 0x1F NOT PUSH1 0x1F DUP3 ADD AND DUP3 ADD DUP1 PUSH1 0x40 MSTORE POP DUP2 ADD SWAP1 PUSH3 0x2B3 SWAP2 SWAP1 PUSH3 0x511 JUMP JUMPDEST PUSH3 0x2BF SWAP2 SWAP1 PUSH3 0x431 JUMP JUMPDEST PUSH3 0x2CB SWAP2 SWAP1 PUSH3 0x4AB JUMP JUMPDEST SWAP1 POP PUSH3 0x2D8 JUMP JUMPDEST PUSH1 0x1 SWAP1 POP JUMPDEST SWAP1 JUMP JUMPDEST PUSH1 0x0 DUP1 REVERT JUMPDEST PUSH1 0x0 PUSH20 0xFFFFFFFFFFFFFFFFFFFFFFFFFFFFFFFFFFFFFFFF DUP3 AND SWAP1 POP SWAP2 SWAP1 POP JUMP JUMPDEST PUSH1 0x0 PUSH3 0x30D DUP3 PUSH3 0x2E0 JUMP JUMPDEST SWAP1 POP SWAP2 SWAP1 POP JUMP JUMPDEST PUSH3 0x31F DUP2 PUSH3 0x300 JUMP JUMPDEST DUP2 EQ PUSH3 0x32B JUMPI PUSH1 0x0 DUP1 REVERT JUMPDEST POP JUMP JUMPDEST PUSH1 0x0 DUP2 MLOAD SWAP1 POP PUSH3 0x33F DUP2 PUSH3 0x314 JUMP JUMPDEST SWAP3 SWAP2 POP POP JUMP JUMPDEST PUSH1 0x0 DUP2 SWAP1 POP SWAP2 SWAP1 POP JUMP JUMPDEST PUSH3 0x35A DUP2 PUSH3 0x345 JUMP JUMPDEST DUP2 EQ PUSH3 0x366 JUMPI PUSH1 0x0 DUP1 REVERT JUMPDEST POP JUMP JUMPDEST PUSH1 0x0 DUP2 MLOAD SWAP1 POP PUSH3 0x37A DUP2 PUSH3 0x34F JUMP JUMPDEST SWAP3 SWAP2 POP POP JUMP JUMPDEST PUSH1 0x0 DUP1 PUSH1 0x40 DUP4 DUP6 SUB SLT ISZERO PUSH3 0x39A JUMPI PUSH3 0x399 PUSH3 0x2DB JUMP JUMPDEST JUMPDEST PUSH1 0x0 PUSH3 0x3AA DUP6 DUP3 DUP7 ADD PUSH3 0x32E JUMP JUMPDEST SWAP3 POP POP PUSH1 0x20 PUSH3 0x3BD DUP6 DUP3 DUP7 ADD PUSH3 0x369 JUMP JUMPDEST SWAP2 POP POP SWAP3 POP SWAP3 SWAP1 POP JUMP JUMPDEST PUSH32 0x4E487B7100000000000000000000000000000000000000000000000000000000 PUSH1 0x0 MSTORE PUSH1 0x11 PUSH1 0x4 MSTORE PUSH1 0x24 PUSH1 0x0 REVERT JUMPDEST PUSH1 0x0 PUSH3 0x403 DUP3 PUSH3 0x345 JUMP JUMPDEST SWAP2 POP PUSH3 0x410 DUP4 PUSH3 0x345 JUMP JUMPDEST SWAP3 POP DUP3 DUP3 ADD SWAP1 POP DUP1 DUP3 GT ISZERO PUSH3 0x42B JUMPI PUSH3 0x42A PUSH3 0x3C7 JUMP JUMPDEST JUMPDEST SWAP3 SWAP2 POP POP JUMP JUMPDEST PUSH1 0x0 PUSH3 0x43E DUP3 PUSH3 0x345 JUMP JUMPDEST SWAP2 POP PUSH3 0x44B DUP4 PUSH3 0x345 JUMP JUMPDEST SWAP3 POP DUP3 DUP3 MUL PUSH3 0x45B DUP2 PUSH3 0x345 JUMP JUMPDEST SWAP2 POP DUP3 DUP3 DIV DUP5 EQ DUP4 ISZERO OR PUSH3 0x475 JUMPI PUSH3 0x474 PUSH3 0x3C7 JUMP JUMPDEST JUMPDEST POP SWAP3 SWAP2 POP POP JUMP JUMPDEST PUSH32 0x4E487B7100000000000000000000000000000000000000000000000000000000 PUSH1 0x0 MSTORE PUSH1 0x12 PUSH1 0x4 MSTORE PUSH1 0x24 PUSH1 0x0 REVERT JUMPDEST PUSH1 0x0 PUSH3 0x4B8 DUP3 PUSH3 0x345 JUMP JUMPDEST SWAP2 POP PUSH3 0x4C5 DUP4 PUSH3 0x345 JUMP JUMPDEST SWAP3 POP DUP3 PUSH3 0x4D8 JUMPI PUSH3 0x4D7 PUSH3 0x47C JUMP JUMPDEST JUMPDEST DUP3 DUP3 DIV SWAP1 POP SWAP3 SWAP2 POP POP JUMP JUMPDEST PUSH3 0x4EE DUP2 PUSH3 0x300 JUMP JUMPDEST DUP3 MSTORE POP POP JUMP JUMPDEST PUSH1 0x0 PUSH1 0x20 DUP3 ADD SWAP1 POP PUSH3 0x50B PUSH1 0x0 DUP4 ADD DUP5 PUSH3 0x4E3 JUMP JUMPDEST SWAP3 SWAP2 POP POP JUMP JUMPDEST PUSH1 0x0 PUSH1 0x20 DUP3 DUP5 SUB SLT ISZERO PUSH3 0x52A JUMPI PUSH3 0x529 PUSH3 0x2DB JUMP JUMPDEST JUMPDEST PUSH1 0x0 PUSH3 0x53A DUP5 DUP3 DUP6 ADD PUSH3 0x369 JUMP JUMPDEST SWAP2 POP POP SWAP3 SWAP2 POP POP JUMP JUMPDEST PUSH2 0xF68 DUP1 PUSH3 0x553 PUSH1 0x0 CODECOPY PUSH1 0x0 RETURN INVALID PUSH1 0x80 PUSH1 0x40 MSTORE CALLVALUE DUP1 ISZERO PUSH2 0x10 JUMPI PUSH1 0x0 DUP1 REVERT JUMPDEST POP PUSH1 0x4 CALLDATASIZE LT PUSH2 0x93 JUMPI PUSH1 0x0 CALLDATALOAD PUSH1 0xE0 SHR DUP1 PUSH4 0xB28A91D0 GT PUSH2 0x66 JUMPI DUP1 PUSH4 0xB28A91D0 EQ PUSH2 0x11E JUMPI DUP1 PUSH4 0xBB500F48 EQ PUSH2 0x13C JUMPI DUP1 PUSH4 0xC339210F EQ PUSH2 0x16C JUMPI DUP1 PUSH4 0xE9FAD8EE EQ PUSH2 0x18A JUMPI DUP1 PUSH4 0xEC1EBD7A EQ PUSH2 0x194 JUMPI PUSH2 0x93 JUMP JUMPDEST DUP1 PUSH4 0x49878F3 EQ PUSH2 0x98 JUMPI DUP1 PUSH4 0x18160DDD EQ PUSH2 0xB4 JUMPI DUP1 PUSH4 0x70A08231 EQ PUSH2 0xD2 JUMPI DUP1 PUSH4 0x788D6454 EQ PUSH2 0x102 JUMPI JUMPDEST PUSH1 0x0 DUP1 REVERT JUMPDEST PUSH2 0xB2 PUSH1 0x4 DUP1 CALLDATASIZE SUB DUP2 ADD SWAP1 PUSH2 0xAD SWAP2 SWAP1 PUSH2 0x941 JUMP JUMPDEST PUSH2 0x1B2 JUMP JUMPDEST STOP JUMPDEST PUSH2 0xBC PUSH2 0x36D JUMP JUMPDEST PUSH1 0x40 MLOAD PUSH2 0xC9 SWAP2 SWAP1 PUSH2 0x97D JUMP JUMPDEST PUSH1 0x40 MLOAD DUP1 SWAP2 SUB SWAP1 RETURN JUMPDEST PUSH2 0xEC PUSH1 0x4 DUP1 CALLDATASIZE SUB DUP2 ADD SWAP1 PUSH2 0xE7 SWAP2 SWAP1 PUSH2 0x9F6 JUMP JUMPDEST PUSH2 0x373 JUMP JUMPDEST PUSH1 0x40 MLOAD PUSH2 0xF9 SWAP2 SWAP1 PUSH2 0x97D JUMP JUMPDEST PUSH1 0x40 MLOAD DUP1 SWAP2 SUB SWAP1 RETURN JUMPDEST PUSH2 0x11C PUSH1 0x4 DUP1 CALLDATASIZE SUB DUP2 ADD SWAP1 PUSH2 0x117 SWAP2 SWAP1 PUSH2 0x9F6 JUMP JUMPDEST PUSH2 0x38B JUMP JUMPDEST STOP JUMPDEST PUSH2 0x126 PUSH2 0x45F JUMP JUMPDEST PUSH1 0x40 MLOAD PUSH2 0x133 SWAP2 SWAP1 PUSH2 0xA82 JUMP JUMPDEST PUSH1 0x40 MLOAD DUP1 SWAP2 SUB SWAP1 RETURN JUMPDEST PUSH2 0x156 PUSH1 0x4 DUP1 CALLDATASIZE SUB DUP2 ADD SWAP1 PUSH2 0x151 SWAP2 SWAP1 PUSH2 0xA9D JUMP JUMPDEST PUSH2 0x485 JUMP JUMPDEST PUSH1 0x40 MLOAD PUSH2 0x163 SWAP2 SWAP1 PUSH2 0xAF8 JUMP JUMPDEST PUSH1 0x40 MLOAD DUP1 SWAP2 SUB SWAP1 RETURN JUMPDEST PUSH2 0x174 PUSH2 0x5BF JUMP JUMPDEST PUSH1 0x40 MLOAD PUSH2 0x181 SWAP2 SWAP1 PUSH2 0xB22 JUMP JUMPDEST PUSH1 0x40 MLOAD DUP1 SWAP2 SUB SWAP1 RETURN JUMPDEST PUSH2 0x192 PUSH2 0x5E5 JUMP JUMPDEST STOP JUMPDEST PUSH2 0x19C PUSH2 0x78D JUMP JUMPDEST PUSH1 0x40 MLOAD PUSH2 0x1A9 SWAP2 SWAP1 PUSH2 0x97D JUMP JUMPDEST PUSH1 0x40 MLOAD DUP1 SWAP2 SUB SWAP1 RETURN JUMPDEST PUSH1 0x0 DUP2 GT PUSH2 0x1F5 JUMPI PUSH1 0x40 MLOAD PUSH32 0x8C379A000000000000000000000000000000000000000000000000000000000 DUP2 MSTORE PUSH1 0x4 ADD PUSH2 0x1EC SWAP1 PUSH2 0xB9A JUMP JUMPDEST PUSH1 0x40 MLOAD DUP1 SWAP2 SUB SWAP1 REVERT JUMPDEST PUSH1 0x0 PUSH2 0x1FF PUSH2 0x78D JUMP JUMPDEST PUSH3 0xF4240 DUP4 PUSH2 0x20E SWAP2 SWAP1 PUSH2 0xBE9 JUMP JUMPDEST PUSH2 0x218 SWAP2 SWAP1 PUSH2 0xC5A JUMP JUMPDEST SWAP1 POP DUP1 PUSH1 0x3 PUSH1 0x0 DUP3 DUP3 SLOAD PUSH2 0x22C SWAP2 SWAP1 PUSH2 0xC8B JUMP JUMPDEST SWAP3 POP POP DUP2 SWAP1 SSTORE POP DUP1 PUSH1 0x0 DUP1 CALLER PUSH20 0xFFFFFFFFFFFFFFFFFFFFFFFFFFFFFFFFFFFFFFFF AND PUSH20 0xFFFFFFFFFFFFFFFFFFFFFFFFFFFFFFFFFFFFFFFF AND DUP2 MSTORE PUSH1 0x20 ADD SWAP1 DUP2 MSTORE PUSH1 0x20 ADD PUSH1 0x0 KECCAK256 PUSH1 0x0 DUP3 DUP3 SLOAD PUSH2 0x281 SWAP2 SWAP1 PUSH2 0xC8B JUMP JUMPDEST SWAP3 POP POP DUP2 SWAP1 SSTORE POP PUSH1 0x1 PUSH1 0x0 SWAP1 SLOAD SWAP1 PUSH2 0x100 EXP SWAP1 DIV PUSH20 0xFFFFFFFFFFFFFFFFFFFFFFFFFFFFFFFFFFFFFFFF AND PUSH20 0xFFFFFFFFFFFFFFFFFFFFFFFFFFFFFFFFFFFFFFFF AND PUSH4 0x23B872DD CALLER ADDRESS DUP6 PUSH1 0x40 MLOAD DUP5 PUSH4 0xFFFFFFFF AND PUSH1 0xE0 SHL DUP2 MSTORE PUSH1 0x4 ADD PUSH2 0x2E7 SWAP4 SWAP3 SWAP2 SWAP1 PUSH2 0xCBF JUMP JUMPDEST PUSH1 0x20 PUSH1 0x40 MLOAD DUP1 DUP4 SUB DUP2 PUSH1 0x0 DUP8 GAS CALL ISZERO DUP1 ISZERO PUSH2 0x306 JUMPI RETURNDATASIZE PUSH1 0x0 DUP1 RETURNDATACOPY RETURNDATASIZE PUSH1 0x0 REVERT JUMPDEST POP POP POP POP PUSH1 0x40 MLOAD RETURNDATASIZE PUSH1 0x1F NOT PUSH1 0x1F DUP3 ADD AND DUP3 ADD DUP1 PUSH1 0x40 MSTORE POP DUP2 ADD SWAP1 PUSH2 0x32A SWAP2 SWAP1 PUSH2 0xD22 JUMP JUMPDEST PUSH2 0x369 JUMPI PUSH1 0x40 MLOAD PUSH32 0x8C379A000000000000000000000000000000000000000000000000000000000 DUP2 MSTORE PUSH1 0x4 ADD PUSH2 0x360 SWAP1 PUSH2 0xD9B JUMP JUMPDEST PUSH1 0x40 MLOAD DUP1 SWAP2 SUB SWAP1 REVERT JUMPDEST POP POP JUMP JUMPDEST PUSH1 0x3 SLOAD DUP2 JUMP JUMPDEST PUSH1 0x0 PUSH1 0x20 MSTORE DUP1 PUSH1 0x0 MSTORE PUSH1 0x40 PUSH1 0x0 KECCAK256 PUSH1 0x0 SWAP2 POP SWAP1 POP SLOAD DUP2 JUMP JUMPDEST PUSH1 0x4 PUSH1 0x0 SWAP1 SLOAD SWAP1 PUSH2 0x100 EXP SWAP1 DIV PUSH20 0xFFFFFFFFFFFFFFFFFFFFFFFFFFFFFFFFFFFFFFFF AND PUSH20 0xFFFFFFFFFFFFFFFFFFFFFFFFFFFFFFFFFFFFFFFF AND CALLER PUSH20 0xFFFFFFFFFFFFFFFFFFFFFFFFFFFFFFFFFFFFFFFF AND EQ PUSH2 0x41B JUMPI PUSH1 0x40 MLOAD PUSH32 0x8C379A000000000000000000000000000000000000000000000000000000000 DUP2 MSTORE PUSH1 0x4 ADD PUSH2 0x412 SWAP1 PUSH2 0xE07 JUMP JUMPDEST PUSH1 0x40 MLOAD DUP1 SWAP2 SUB SWAP1 REVERT JUMPDEST DUP1 PUSH1 0x2 PUSH1 0x0 PUSH2 0x100 EXP DUP2 SLOAD DUP2 PUSH20 0xFFFFFFFFFFFFFFFFFFFFFFFFFFFFFFFFFFFFFFFF MUL NOT AND SWAP1 DUP4 PUSH20 0xFFFFFFFFFFFFFFFFFFFFFFFFFFFFFFFFFFFFFFFF AND MUL OR SWAP1 SSTORE POP POP JUMP JUMPDEST PUSH1 0x1 PUSH1 0x0 SWAP1 SLOAD SWAP1 PUSH2 0x100 EXP SWAP1 DIV PUSH20 0xFFFFFFFFFFFFFFFFFFFFFFFFFFFFFFFFFFFFFFFF AND DUP2 JUMP JUMPDEST PUSH1 0x0 PUSH1 0x2 PUSH1 0x0 SWAP1 SLOAD SWAP1 PUSH2 0x100 EXP SWAP1 DIV PUSH20 0xFFFFFFFFFFFFFFFFFFFFFFFFFFFFFFFFFFFFFFFF AND PUSH20 0xFFFFFFFFFFFFFFFFFFFFFFFFFFFFFFFFFFFFFFFF AND CALLER PUSH20 0xFFFFFFFFFFFFFFFFFFFFFFFFFFFFFFFFFFFFFFFF AND EQ PUSH2 0x517 JUMPI PUSH1 0x40 MLOAD PUSH32 0x8C379A000000000000000000000000000000000000000000000000000000000 DUP2 MSTORE PUSH1 0x4 ADD PUSH2 0x50E SWAP1 PUSH2 0xE73 JUMP JUMPDEST PUSH1 0x40 MLOAD DUP1 SWAP2 SUB SWAP1 REVERT JUMPDEST PUSH1 0x1 PUSH1 0x0 SWAP1 SLOAD SWAP1 PUSH2 0x100 EXP SWAP1 DIV PUSH20 0xFFFFFFFFFFFFFFFFFFFFFFFFFFFFFFFFFFFFFFFF AND PUSH20 0xFFFFFFFFFFFFFFFFFFFFFFFFFFFFFFFFFFFFFFFF AND PUSH4 0xA9059CBB DUP5 DUP5 PUSH1 0x40 MLOAD DUP4 PUSH4 0xFFFFFFFF AND PUSH1 0xE0 SHL DUP2 MSTORE PUSH1 0x4 ADD PUSH2 0x574 SWAP3 SWAP2 SWAP1 PUSH2 0xE93 JUMP JUMPDEST PUSH1 0x20 PUSH1 0x40 MLOAD DUP1 DUP4 SUB DUP2 PUSH1 0x0 DUP8 GAS CALL ISZERO DUP1 ISZERO PUSH2 0x593 JUMPI RETURNDATASIZE PUSH1 0x0 DUP1 RETURNDATACOPY RETURNDATASIZE PUSH1 0x0 REVERT JUMPDEST POP POP POP POP PUSH1 0x40 MLOAD RETURNDATASIZE PUSH1 0x1F NOT PUSH1 0x1F DUP3 ADD AND DUP3 ADD DUP1 PUSH1 0x40 MSTORE POP DUP2 ADD SWAP1 PUSH2 0x5B7 SWAP2 SWAP1 PUSH2 0xD22 JUMP JUMPDEST SWAP1 POP SWAP3 SWAP2 POP POP JUMP JUMPDEST PUSH1 0x4 PUSH1 0x0 SWAP1 SLOAD SWAP1 PUSH2 0x100 EXP SWAP1 DIV PUSH20 0xFFFFFFFFFFFFFFFFFFFFFFFFFFFFFFFFFFFFFFFF AND DUP2 JUMP JUMPDEST PUSH1 0x0 DUP1 PUSH1 0x0 CALLER PUSH20 0xFFFFFFFFFFFFFFFFFFFFFFFFFFFFFFFFFFFFFFFF AND PUSH20 0xFFFFFFFFFFFFFFFFFFFFFFFFFFFFFFFFFFFFFFFF AND DUP2 MSTORE PUSH1 0x20 ADD SWAP1 DUP2 MSTORE PUSH1 0x20 ADD PUSH1 0x0 KECCAK256 SLOAD SWAP1 POP PUSH1 0x0 PUSH3 0xF4240 PUSH2 0x636 PUSH2 0x78D JUMP JUMPDEST DUP4 PUSH2 0x641 SWAP2 SWAP1 PUSH2 0xBE9 JUMP JUMPDEST PUSH2 0x64B SWAP2 SWAP1 PUSH2 0xC5A JUMP JUMPDEST SWAP1 POP DUP2 PUSH1 0x3 PUSH1 0x0 DUP3 DUP3 SLOAD PUSH2 0x65F SWAP2 SWAP1 PUSH2 0xEBC JUMP JUMPDEST SWAP3 POP POP DUP2 SWAP1 SSTORE POP PUSH1 0x0 DUP1 PUSH1 0x0 CALLER PUSH20 0xFFFFFFFFFFFFFFFFFFFFFFFFFFFFFFFFFFFFFFFF AND PUSH20 0xFFFFFFFFFFFFFFFFFFFFFFFFFFFFFFFFFFFFFFFF AND DUP2 MSTORE PUSH1 0x20 ADD SWAP1 DUP2 MSTORE PUSH1 0x20 ADD PUSH1 0x0 KECCAK256 DUP2 SWAP1 SSTORE POP PUSH1 0x1 PUSH1 0x0 SWAP1 SLOAD SWAP1 PUSH2 0x100 EXP SWAP1 DIV PUSH20 0xFFFFFFFFFFFFFFFFFFFFFFFFFFFFFFFFFFFFFFFF AND PUSH20 0xFFFFFFFFFFFFFFFFFFFFFFFFFFFFFFFFFFFFFFFF AND PUSH4 0xA9059CBB CALLER DUP4 PUSH1 0x40 MLOAD DUP4 PUSH4 0xFFFFFFFF AND PUSH1 0xE0 SHL DUP2 MSTORE PUSH1 0x4 ADD PUSH2 0x707 SWAP3 SWAP2 SWAP1 PUSH2 0xE93 JUMP JUMPDEST PUSH1 0x20 PUSH1 0x40 MLOAD DUP1 DUP4 SUB DUP2 PUSH1 0x0 DUP8 GAS CALL ISZERO DUP1 ISZERO PUSH2 0x726 JUMPI RETURNDATASIZE PUSH1 0x0 DUP1 RETURNDATACOPY RETURNDATASIZE PUSH1 0x0 REVERT JUMPDEST POP POP POP POP PUSH1 0x40 MLOAD RETURNDATASIZE PUSH1 0x1F NOT PUSH1 0x1F DUP3 ADD AND DUP3 ADD DUP1 PUSH1 0x40 MSTORE POP DUP2 ADD SWAP1 PUSH2 0x74A SWAP2 SWAP1 PUSH2 0xD22 JUMP JUMPDEST PUSH2 0x789 JUMPI PUSH1 0x40 MLOAD PUSH32 0x8C379A000000000000000000000000000000000000000000000000000000000 DUP2 MSTORE PUSH1 0x4 ADD PUSH2 0x780 SWAP1 PUSH2 0xD9B JUMP JUMPDEST PUSH1 0x40 MLOAD DUP1 SWAP2 SUB SWAP1 REVERT JUMPDEST POP POP JUMP JUMPDEST PUSH1 0x0 DUP1 PUSH1 0x3 SLOAD GT DUP1 ISZERO PUSH2 0x83B JUMPI POP PUSH1 0x0 PUSH1 0x1 PUSH1 0x0 SWAP1 SLOAD SWAP1 PUSH2 0x100 EXP SWAP1 DIV PUSH20 0xFFFFFFFFFFFFFFFFFFFFFFFFFFFFFFFFFFFFFFFF AND PUSH20 0xFFFFFFFFFFFFFFFFFFFFFFFFFFFFFFFFFFFFFFFF AND PUSH4 0x70A08231 ADDRESS PUSH1 0x40 MLOAD DUP3 PUSH4 0xFFFFFFFF AND PUSH1 0xE0 SHL DUP2 MSTORE PUSH1 0x4 ADD PUSH2 0x7F8 SWAP2 SWAP1 PUSH2 0xB22 JUMP JUMPDEST PUSH1 0x20 PUSH1 0x40 MLOAD DUP1 DUP4 SUB DUP2 DUP7 GAS STATICCALL ISZERO DUP1 ISZERO PUSH2 0x815 JUMPI RETURNDATASIZE PUSH1 0x0 DUP1 RETURNDATACOPY RETURNDATASIZE PUSH1 0x0 REVERT JUMPDEST POP POP POP POP PUSH1 0x40 MLOAD RETURNDATASIZE PUSH1 0x1F NOT PUSH1 0x1F DUP3 ADD AND DUP3 ADD DUP1 PUSH1 0x40 MSTORE POP DUP2 ADD SWAP1 PUSH2 0x839 SWAP2 SWAP1 PUSH2 0xF05 JUMP JUMPDEST GT JUMPDEST ISZERO PUSH2 0x8FE JUMPI PUSH1 0x3 SLOAD PUSH3 0xF4240 PUSH1 0x1 PUSH1 0x0 SWAP1 SLOAD SWAP1 PUSH2 0x100 EXP SWAP1 DIV PUSH20 0xFFFFFFFFFFFFFFFFFFFFFFFFFFFFFFFFFFFFFFFF AND PUSH20 0xFFFFFFFFFFFFFFFFFFFFFFFFFFFFFFFFFFFFFFFF AND PUSH4 0x70A08231 ADDRESS PUSH1 0x40 MLOAD DUP3 PUSH4 0xFFFFFFFF AND PUSH1 0xE0 SHL DUP2 MSTORE PUSH1 0x4 ADD PUSH2 0x8A2 SWAP2 SWAP1 PUSH2 0xB22 JUMP JUMPDEST PUSH1 0x20 PUSH1 0x40 MLOAD DUP1 DUP4 SUB DUP2 DUP7 GAS STATICCALL ISZERO DUP1 ISZERO PUSH2 0x8BF JUMPI RETURNDATASIZE PUSH1 0x0 DUP1 RETURNDATACOPY RETURNDATASIZE PUSH1 0x0 REVERT JUMPDEST POP POP POP POP PUSH1 0x40 MLOAD RETURNDATASIZE PUSH1 0x1F NOT PUSH1 0x1F DUP3 ADD AND DUP3 ADD DUP1 PUSH1 0x40 MSTORE POP DUP2 ADD SWAP1 PUSH2 0x8E3 SWAP2 SWAP1 PUSH2 0xF05 JUMP JUMPDEST PUSH2 0x8ED SWAP2 SWAP1 PUSH2 0xBE9 JUMP JUMPDEST PUSH2 0x8F7 SWAP2 SWAP1 PUSH2 0xC5A JUMP JUMPDEST SWAP1 POP PUSH2 0x903 JUMP JUMPDEST PUSH1 0x1 SWAP1 POP JUMPDEST SWAP1 JUMP JUMPDEST PUSH1 0x0 DUP1 REVERT JUMPDEST PUSH1 0x0 DUP2 SWAP1 POP SWAP2 SWAP1 POP JUMP JUMPDEST PUSH2 0x91E DUP2 PUSH2 0x90B JUMP JUMPDEST DUP2 EQ PUSH2 0x929 JUMPI PUSH1 0x0 DUP1 REVERT JUMPDEST POP JUMP JUMPDEST PUSH1 0x0 DUP2 CALLDATALOAD SWAP1 POP PUSH2 0x93B DUP2 PUSH2 0x915 JUMP JUMPDEST SWAP3 SWAP2 POP POP JUMP JUMPDEST PUSH1 0x0 PUSH1 0x20 DUP3 DUP5 SUB SLT ISZERO PUSH2 0x957 JUMPI PUSH2 0x956 PUSH2 0x906 JUMP JUMPDEST JUMPDEST PUSH1 0x0 PUSH2 0x965 DUP5 DUP3 DUP6 ADD PUSH2 0x92C JUMP JUMPDEST SWAP2 POP POP SWAP3 SWAP2 POP POP JUMP JUMPDEST PUSH2 0x977 DUP2 PUSH2 0x90B JUMP JUMPDEST DUP3 MSTORE POP POP JUMP JUMPDEST PUSH1 0x0 PUSH1 0x20 DUP3 ADD SWAP1 POP PUSH2 0x992 PUSH1 0x0 DUP4 ADD DUP5 PUSH2 0x96E JUMP JUMPDEST SWAP3 SWAP2 POP POP JUMP JUMPDEST PUSH1 0x0 PUSH20 0xFFFFFFFFFFFFFFFFFFFFFFFFFFFFFFFFFFFFFFFF DUP3 AND SWAP1 POP SWAP2 SWAP1 POP JUMP JUMPDEST PUSH1 0x0 PUSH2 0x9C3 DUP3 PUSH2 0x998 JUMP JUMPDEST SWAP1 POP SWAP2 SWAP1 POP JUMP JUMPDEST PUSH2 0x9D3 DUP2 PUSH2 0x9B8 JUMP JUMPDEST DUP2 EQ PUSH2 0x9DE JUMPI PUSH1 0x0 DUP1 REVERT JUMPDEST POP JUMP JUMPDEST PUSH1 0x0 DUP2 CALLDATALOAD SWAP1 POP PUSH2 0x9F0 DUP2 PUSH2 0x9CA JUMP JUMPDEST SWAP3 SWAP2 POP POP JUMP JUMPDEST PUSH1 0x0 PUSH1 0x20 DUP3 DUP5 SUB SLT ISZERO PUSH2 0xA0C JUMPI PUSH2 0xA0B PUSH2 0x906 JUMP JUMPDEST JUMPDEST PUSH1 0x0 PUSH2 0xA1A DUP5 DUP3 DUP6 ADD PUSH2 0x9E1 JUMP JUMPDEST SWAP2 POP POP SWAP3 SWAP2 POP POP JUMP JUMPDEST PUSH1 0x0 DUP2 SWAP1 POP SWAP2 SWAP1 POP JUMP JUMPDEST PUSH1 0x0 PUSH2 0xA48 PUSH2 0xA43 PUSH2 0xA3E DUP5 PUSH2 0x998 JUMP JUMPDEST PUSH2 0xA23 JUMP JUMPDEST PUSH2 0x998 JUMP JUMPDEST SWAP1 POP SWAP2 SWAP1 POP JUMP JUMPDEST PUSH1 0x0 PUSH2 0xA5A DUP3 PUSH2 0xA2D JUMP JUMPDEST SWAP1 POP SWAP2 SWAP1 POP JUMP JUMPDEST PUSH1 0x0 PUSH2 0xA6C DUP3 PUSH2 0xA4F JUMP JUMPDEST SWAP1 POP SWAP2 SWAP1 POP JUMP JUMPDEST PUSH2 0xA7C DUP2 PUSH2 0xA61 JUMP JUMPDEST DUP3 MSTORE POP POP JUMP JUMPDEST PUSH1 0x0 PUSH1 0x20 DUP3 ADD SWAP1 POP PUSH2 0xA97 PUSH1 0x0 DUP4 ADD DUP5 PUSH2 0xA73 JUMP JUMPDEST SWAP3 SWAP2 POP POP JUMP JUMPDEST PUSH1 0x0 DUP1 PUSH1 0x40 DUP4 DUP6 SUB SLT ISZERO PUSH2 0xAB4 JUMPI PUSH2 0xAB3 PUSH2 0x906 JUMP JUMPDEST JUMPDEST PUSH1 0x0 PUSH2 0xAC2 DUP6 DUP3 DUP7 ADD PUSH2 0x9E1 JUMP JUMPDEST SWAP3 POP POP PUSH1 0x20 PUSH2 0xAD3 DUP6 DUP3 DUP7 ADD PUSH2 0x92C JUMP JUMPDEST SWAP2 POP POP SWAP3 POP SWAP3 SWAP1 POP JUMP JUMPDEST PUSH1 0x0 DUP2 ISZERO ISZERO SWAP1 POP SWAP2 SWAP1 POP JUMP JUMPDEST PUSH2 0xAF2 DUP2 PUSH2 0xADD JUMP JUMPDEST DUP3 MSTORE POP POP JUMP JUMPDEST PUSH1 0x0 PUSH1 0x20 DUP3 ADD SWAP1 POP PUSH2 0xB0D PUSH1 0x0 DUP4 ADD DUP5 PUSH2 0xAE9 JUMP JUMPDEST SWAP3 SWAP2 POP POP JUMP JUMPDEST PUSH2 0xB1C DUP2 PUSH2 0x9B8 JUMP JUMPDEST DUP3 MSTORE POP POP JUMP JUMPDEST PUSH1 0x0 PUSH1 0x20 DUP3 ADD SWAP1 POP PUSH2 0xB37 PUSH1 0x0 DUP4 ADD DUP5 PUSH2 0xB13 JUMP JUMPDEST SWAP3 SWAP2 POP POP JUMP JUMPDEST PUSH1 0x0 DUP3 DUP3 MSTORE PUSH1 0x20 DUP3 ADD SWAP1 POP SWAP3 SWAP2 POP POP JUMP JUMPDEST PUSH32 0x43414E4E4F545F5354414B455F5A45524F5F544F4B454E530000000000000000 PUSH1 0x0 DUP3 ADD MSTORE POP JUMP JUMPDEST PUSH1 0x0 PUSH2 0xB84 PUSH1 0x18 DUP4 PUSH2 0xB3D JUMP JUMPDEST SWAP2 POP PUSH2 0xB8F DUP3 PUSH2 0xB4E JUMP JUMPDEST PUSH1 0x20 DUP3 ADD SWAP1 POP SWAP2 SWAP1 POP JUMP JUMPDEST PUSH1 0x0 PUSH1 0x20 DUP3 ADD SWAP1 POP DUP2 DUP2 SUB PUSH1 0x0 DUP4 ADD MSTORE PUSH2 0xBB3 DUP2 PUSH2 0xB77 JUMP JUMPDEST SWAP1 POP SWAP2 SWAP1 POP JUMP JUMPDEST PUSH32 0x4E487B7100000000000000000000000000000000000000000000000000000000 PUSH1 0x0 MSTORE PUSH1 0x11 PUSH1 0x4 MSTORE PUSH1 0x24 PUSH1 0x0 REVERT JUMPDEST PUSH1 0x0 PUSH2 0xBF4 DUP3 PUSH2 0x90B JUMP JUMPDEST SWAP2 POP PUSH2 0xBFF DUP4 PUSH2 0x90B JUMP JUMPDEST SWAP3 POP DUP3 DUP3 MUL PUSH2 0xC0D DUP2 PUSH2 0x90B JUMP JUMPDEST SWAP2 POP DUP3 DUP3 DIV DUP5 EQ DUP4 ISZERO OR PUSH2 0xC24 JUMPI PUSH2 0xC23 PUSH2 0xBBA JUMP JUMPDEST JUMPDEST POP SWAP3 SWAP2 POP POP JUMP JUMPDEST PUSH32 0x4E487B7100000000000000000000000000000000000000000000000000000000 PUSH1 0x0 MSTORE PUSH1 0x12 PUSH1 0x4 MSTORE PUSH1 0x24 PUSH1 0x0 REVERT JUMPDEST PUSH1 0x0 PUSH2 0xC65 DUP3 PUSH2 0x90B JUMP JUMPDEST SWAP2 POP PUSH2 0xC70 DUP4 PUSH2 0x90B JUMP JUMPDEST SWAP3 POP DUP3 PUSH2 0xC80 JUMPI PUSH2 0xC7F PUSH2 0xC2B JUMP JUMPDEST JUMPDEST DUP3 DUP3 DIV SWAP1 POP SWAP3 SWAP2 POP POP JUMP JUMPDEST PUSH1 0x0 PUSH2 0xC96 DUP3 PUSH2 0x90B JUMP JUMPDEST SWAP2 POP PUSH2 0xCA1 DUP4 PUSH2 0x90B JUMP JUMPDEST SWAP3 POP DUP3 DUP3 ADD SWAP1 POP DUP1 DUP3 GT ISZERO PUSH2 0xCB9 JUMPI PUSH2 0xCB8 PUSH2 0xBBA JUMP JUMPDEST JUMPDEST SWAP3 SWAP2 POP POP JUMP JUMPDEST PUSH1 0x0 PUSH1 0x60 DUP3 ADD SWAP1 POP PUSH2 0xCD4 PUSH1 0x0 DUP4 ADD DUP7 PUSH2 0xB13 JUMP JUMPDEST PUSH2 0xCE1 PUSH1 0x20 DUP4 ADD DUP6 PUSH2 0xB13 JUMP JUMPDEST PUSH2 0xCEE PUSH1 0x40 DUP4 ADD DUP5 PUSH2 0x96E JUMP JUMPDEST SWAP5 SWAP4 POP POP POP POP JUMP JUMPDEST PUSH2 0xCFF DUP2 PUSH2 0xADD JUMP JUMPDEST DUP2 EQ PUSH2 0xD0A JUMPI PUSH1 0x0 DUP1 REVERT JUMPDEST POP JUMP JUMPDEST PUSH1 0x0 DUP2 MLOAD SWAP1 POP PUSH2 0xD1C DUP2 PUSH2 0xCF6 JUMP JUMPDEST SWAP3 SWAP2 POP POP JUMP JUMPDEST PUSH1 0x0 PUSH1 0x20 DUP3 DUP5 SUB SLT ISZERO PUSH2 0xD38 JUMPI PUSH2 0xD37 PUSH2 0x906 JUMP JUMPDEST JUMPDEST PUSH1 0x0 PUSH2 0xD46 DUP5 DUP3 DUP6 ADD PUSH2 0xD0D JUMP JUMPDEST SWAP2 POP POP SWAP3 SWAP2 POP POP JUMP JUMPDEST PUSH32 0x5452414E534645525F5354414B45445F4641494C000000000000000000000000 PUSH1 0x0 DUP3 ADD MSTORE POP JUMP JUMPDEST PUSH1 0x0 PUSH2 0xD85 PUSH1 0x14 DUP4 PUSH2 0xB3D JUMP JUMPDEST SWAP2 POP PUSH2 0xD90 DUP3 PUSH2 0xD4F JUMP JUMPDEST PUSH1 0x20 DUP3 ADD SWAP1 POP SWAP2 SWAP1 POP JUMP JUMPDEST PUSH1 0x0 PUSH1 0x20 DUP3 ADD SWAP1 POP DUP2 DUP2 SUB PUSH1 0x0 DUP4 ADD MSTORE PUSH2 0xDB4 DUP2 PUSH2 0xD78 JUMP JUMPDEST SWAP1 POP SWAP2 SWAP1 POP JUMP JUMPDEST PUSH32 0x736574507269766564657220466F7262696464656E2100000000000000000000 PUSH1 0x0 DUP3 ADD MSTORE POP JUMP JUMPDEST PUSH1 0x0 PUSH2 0xDF1 PUSH1 0x16 DUP4 PUSH2 0xB3D JUMP JUMPDEST SWAP2 POP PUSH2 0xDFC DUP3 PUSH2 0xDBB JUMP JUMPDEST PUSH1 0x20 DUP3 ADD SWAP1 POP SWAP2 SWAP1 POP JUMP JUMPDEST PUSH1 0x0 PUSH1 0x20 DUP3 ADD SWAP1 POP DUP2 DUP2 SUB PUSH1 0x0 DUP4 ADD MSTORE PUSH2 0xE20 DUP2 PUSH2 0xDE4 JUMP JUMPDEST SWAP1 POP SWAP2 SWAP1 POP JUMP JUMPDEST PUSH32 0x7472616E73666572546F4163636F756E7420466F7262696464656E2100000000 PUSH1 0x0 DUP3 ADD MSTORE POP JUMP JUMPDEST PUSH1 0x0 PUSH2 0xE5D PUSH1 0x1C DUP4 PUSH2 0xB3D JUMP JUMPDEST SWAP2 POP PUSH2 0xE68 DUP3 PUSH2 0xE27 JUMP JUMPDEST PUSH1 0x20 DUP3 ADD SWAP1 POP SWAP2 SWAP1 POP JUMP JUMPDEST PUSH1 0x0 PUSH1 0x20 DUP3 ADD SWAP1 POP DUP2 DUP2 SUB PUSH1 0x0 DUP4 ADD MSTORE PUSH2 0xE8C DUP2 PUSH2 0xE50 JUMP JUMPDEST SWAP1 POP SWAP2 SWAP1 POP JUMP JUMPDEST PUSH1 0x0 PUSH1 0x40 DUP3 ADD SWAP1 POP PUSH2 0xEA8 PUSH1 0x0 DUP4 ADD DUP6 PUSH2 0xB13 JUMP JUMPDEST PUSH2 0xEB5 PUSH1 0x20 DUP4 ADD DUP5 PUSH2 0x96E JUMP JUMPDEST SWAP4 SWAP3 POP POP POP JUMP JUMPDEST PUSH1 0x0 PUSH2 0xEC7 DUP3 PUSH2 0x90B JUMP JUMPDEST SWAP2 POP PUSH2 0xED2 DUP4 PUSH2 0x90B JUMP JUMPDEST SWAP3 POP DUP3 DUP3 SUB SWAP1 POP DUP2 DUP2 GT ISZERO PUSH2 0xEEA JUMPI PUSH2 0xEE9 PUSH2 0xBBA JUMP JUMPDEST JUMPDEST SWAP3 SWAP2 POP POP JUMP JUMPDEST PUSH1 0x0 DUP2 MLOAD SWAP1 POP PUSH2 0xEFF DUP2 PUSH2 0x915 JUMP JUMPDEST SWAP3 SWAP2 POP POP JUMP JUMPDEST PUSH1 0x0 PUSH1 0x20 DUP3 DUP5 SUB SLT ISZERO PUSH2 0xF1B JUMPI PUSH2 0xF1A PUSH2 0x906 JUMP JUMPDEST JUMPDEST PUSH1 0x0 PUSH2 0xF29 DUP5 DUP3 DUP6 ADD PUSH2 0xEF0 JUMP JUMPDEST SWAP2 POP POP SWAP3 SWAP2 POP POP JUMP INVALID LOG2 PUSH5 0x6970667358 0x22 SLT KECCAK256 0xAE ADDMOD 0xEA DIV 0xD2 POP GAS PUSH14 0x8EDD3021CFA99EF0A2A1FBE6AEA6 ADDMOD SWAP10 SWAP8 CALLVALUE EXTCODESIZE 0xE 0xC 0xC8 SHR LOG4 PUSH5 0x736F6C6343 STOP ADDMOD GT STOP CALLER "
		},
		"gasEstimates": {
			"creation": {
				"codeDepositCost": "788800",
				"executionCost": "infinite",
				"totalCost": "infinite"
			},
			"external": {
				"balanceOf(address)": "2859",
				"cert()": "infinite",
				"exit()": "infinite",
				"flashLoanMain()": "2558",
				"getRatio()": "infinite",
				"join(uint256)": "infinite",
				"setPriveder(address)": "26959",
				"totalSupply()": "2452",
				"transferToAccount(address,uint256)": "infinite"
			}
		},
		"methodIdentifiers": {
			"balanceOf(address)": "70a08231",
			"cert()": "b28a91d0",
			"exit()": "e9fad8ee",
			"flashLoanMain()": "c339210f",
			"getRatio()": "ec1ebd7a",
			"join(uint256)": "049878f3",
			"setPriveder(address)": "788d6454",
			"totalSupply()": "18160ddd",
			"transferToAccount(address,uint256)": "bb500f48"
		}
	},
	"abi": [
		{
			"inputs": [
				{
					"internalType": "address",
					"name": "cert_",
					"type": "address"
				},
				{
					"internalType": "uint256",
					"name": "amount",
					"type": "uint256"
				}
			],
			"stateMutability": "nonpayable",
			"type": "constructor"
		},
		{
			"inputs": [
				{
					"internalType": "address",
					"name": "",
					"type": "address"
				}
			],
			"name": "balanceOf",
			"outputs": [
				{
					"internalType": "uint256",
					"name": "",
					"type": "uint256"
				}
			],
			"stateMutability": "view",
			"type": "function"
		},
		{
			"inputs": [],
			"name": "cert",
			"outputs": [
				{
					"internalType": "contract ICert",
					"name": "",
					"type": "address"
				}
			],
			"stateMutability": "view",
			"type": "function"
		},
		{
			"inputs": [],
			"name": "exit",
			"outputs": [],
			"stateMutability": "nonpayable",
			"type": "function"
		},
		{
			"inputs": [],
			"name": "flashLoanMain",
			"outputs": [
				{
					"internalType": "address",
					"name": "",
					"type": "address"
				}
			],
			"stateMutability": "view",
			"type": "function"
		},
		{
			"inputs": [],
			"name": "getRatio",
			"outputs": [
				{
					"internalType": "uint256",
					"name": "",
					"type": "uint256"
				}
			],
			"stateMutability": "view",
			"type": "function"
		},
		{
			"inputs": [
				{
					"internalType": "uint256",
					"name": "amount",
					"type": "uint256"
				}
			],
			"name": "join",
			"outputs": [],
			"stateMutability": "nonpayable",
			"type": "function"
		},
		{
			"inputs": [
				{
					"internalType": "address",
					"name": "flashLoanPriveder_",
					"type": "address"
				}
			],
			"name": "setPriveder",
			"outputs": [],
			"stateMutability": "nonpayable",
			"type": "function"
		},
		{
			"inputs": [],
			"name": "totalSupply",
			"outputs": [
				{
					"internalType": "uint256",
					"name": "",
					"type": "uint256"
				}
			],
			"stateMutability": "view",
			"type": "function"
		},
		{
			"inputs": [
				{
					"internalType": "address",
					"name": "account",
					"type": "address"
				},
				{
					"internalType": "uint256",
					"name": "amount",
					"type": "uint256"
				}
			],
			"name": "transferToAccount",
			"outputs": [
				{
					"internalType": "bool",
					"name": "",
					"type": "bool"
				}
			],
			"stateMutability": "nonpayable",
			"type": "function"
		}
	]
}