{
	"赛题-预赛/第四题/OwnerBuy.sol": {
		"OwnerBuy": {
			"abi": [
				{
					"inputs": [],
					"payable": false,
					"stateMutability": "nonpayable",
					"type": "constructor"
				},
				{
					"anonymous": false,
					"inputs": [
						{
							"indexed": true,
							"internalType": "address",
							"name": "owner",
							"type": "address"
						},
						{
							"indexed": true,
							"internalType": "address",
							"name": "spender",
							"type": "address"
						},
						{
							"indexed": false,
							"internalType": "uint256",
							"name": "value",
							"type": "uint256"
						}
					],
					"name": "Approval",
					"type": "event"
				},
				{
					"anonymous": false,
					"inputs": [
						{
							"indexed": true,
							"internalType": "address",
							"name": "previousOwner",
							"type": "address"
						},
						{
							"indexed": true,
							"internalType": "address",
							"name": "newOwner",
							"type": "address"
						}
					],
					"name": "OwnershipTransferred",
					"type": "event"
				},
				{
					"anonymous": false,
					"inputs": [
						{
							"indexed": true,
							"internalType": "address",
							"name": "from",
							"type": "address"
						},
						{
							"indexed": true,
							"internalType": "address",
							"name": "to",
							"type": "address"
						},
						{
							"indexed": false,
							"internalType": "uint256",
							"name": "value",
							"type": "uint256"
						}
					],
					"name": "Transfer",
					"type": "event"
				},
				{
					"anonymous": false,
					"inputs": [
						{
							"indexed": false,
							"internalType": "bool",
							"name": "",
							"type": "bool"
						}
					],
					"name": "finished",
					"type": "event"
				},
				{
					"constant": true,
					"inputs": [
						{
							"internalType": "address",
							"name": "",
							"type": "address"
						}
					],
					"name": "Times",
					"outputs": [
						{
							"internalType": "uint256",
							"name": "",
							"type": "uint256"
						}
					],
					"payable": false,
					"stateMutability": "view",
					"type": "function"
				},
				{
					"constant": true,
					"inputs": [],
					"name": "_owner",
					"outputs": [
						{
							"internalType": "address",
							"name": "",
							"type": "address"
						}
					],
					"payable": false,
					"stateMutability": "view",
					"type": "function"
				},
				{
					"constant": true,
					"inputs": [],
					"name": "_previousOwner",
					"outputs": [
						{
							"internalType": "address",
							"name": "",
							"type": "address"
						}
					],
					"payable": false,
					"stateMutability": "view",
					"type": "function"
				},
				{
					"constant": true,
					"inputs": [
						{
							"internalType": "address",
							"name": "owner",
							"type": "address"
						},
						{
							"internalType": "address",
							"name": "spender",
							"type": "address"
						}
					],
					"name": "allowance",
					"outputs": [
						{
							"internalType": "uint256",
							"name": "",
							"type": "uint256"
						}
					],
					"payable": false,
					"stateMutability": "view",
					"type": "function"
				},
				{
					"constant": false,
					"inputs": [
						{
							"internalType": "address",
							"name": "spender",
							"type": "address"
						},
						{
							"internalType": "uint256",
							"name": "value",
							"type": "uint256"
						}
					],
					"name": "approve",
					"outputs": [
						{
							"internalType": "bool",
							"name": "",
							"type": "bool"
						}
					],
					"payable": false,
					"stateMutability": "nonpayable",
					"type": "function"
				},
				{
					"constant": true,
					"inputs": [
						{
							"internalType": "address",
							"name": "account",
							"type": "address"
						}
					],
					"name": "balanceOf",
					"outputs": [
						{
							"internalType": "uint256",
							"name": "",
							"type": "uint256"
						}
					],
					"payable": false,
					"stateMutability": "view",
					"type": "function"
				},
				{
					"constant": false,
					"inputs": [],
					"name": "buy",
					"outputs": [
						{
							"internalType": "bool",
							"name": "success",
							"type": "bool"
						}
					],
					"payable": true,
					"stateMutability": "payable",
					"type": "function"
				},
				{
					"constant": false,
					"inputs": [],
					"name": "changeOwner",
					"outputs": [],
					"payable": false,
					"stateMutability": "nonpayable",
					"type": "function"
				},
				{
					"constant": false,
					"inputs": [
						{
							"internalType": "address",
							"name": "_owner",
							"type": "address"
						}
					],
					"name": "changestatus",
					"outputs": [],
					"payable": false,
					"stateMutability": "nonpayable",
					"type": "function"
				},
				{
					"constant": true,
					"inputs": [],
					"name": "decimals",
					"outputs": [
						{
							"internalType": "uint8",
							"name": "",
							"type": "uint8"
						}
					],
					"payable": false,
					"stateMutability": "view",
					"type": "function"
				},
				{
					"constant": false,
					"inputs": [
						{
							"internalType": "address",
							"name": "spender",
							"type": "address"
						},
						{
							"internalType": "uint256",
							"name": "subtractedValue",
							"type": "uint256"
						}
					],
					"name": "decreaseAllowance",
					"outputs": [
						{
							"internalType": "bool",
							"name": "",
							"type": "bool"
						}
					],
					"payable": false,
					"stateMutability": "nonpayable",
					"type": "function"
				},
				{
					"constant": false,
					"inputs": [],
					"name": "finish",
					"outputs": [
						{
							"internalType": "bool",
							"name": "",
							"type": "bool"
						}
					],
					"payable": false,
					"stateMutability": "nonpayable",
					"type": "function"
				},
				{
					"constant": false,
					"inputs": [
						{
							"internalType": "address",
							"name": "spender",
							"type": "address"
						},
						{
							"internalType": "uint256",
							"name": "addedValue",
							"type": "uint256"
						}
					],
					"name": "increaseAllowance",
					"outputs": [
						{
							"internalType": "bool",
							"name": "",
							"type": "bool"
						}
					],
					"payable": false,
					"stateMutability": "nonpayable",
					"type": "function"
				},
				{
					"constant": true,
					"inputs": [
						{
							"internalType": "address",
							"name": "addr",
							"type": "address"
						}
					],
					"name": "isWhite",
					"outputs": [
						{
							"internalType": "bool",
							"name": "",
							"type": "bool"
						}
					],
					"payable": false,
					"stateMutability": "view",
					"type": "function"
				},
				{
					"constant": false,
					"inputs": [],
					"name": "lock",
					"outputs": [],
					"payable": false,
					"stateMutability": "nonpayable",
					"type": "function"
				},
				{
					"constant": true,
					"inputs": [],
					"name": "name",
					"outputs": [
						{
							"internalType": "string",
							"name": "",
							"type": "string"
						}
					],
					"payable": false,
					"stateMutability": "view",
					"type": "function"
				},
				{
					"constant": true,
					"inputs": [],
					"name": "owner",
					"outputs": [
						{
							"internalType": "address",
							"name": "",
							"type": "address"
						}
					],
					"payable": false,
					"stateMutability": "view",
					"type": "function"
				},
				{
					"constant": false,
					"inputs": [],
					"name": "renounceOwnership",
					"outputs": [],
					"payable": false,
					"stateMutability": "nonpayable",
					"type": "function"
				},
				{
					"constant": false,
					"inputs": [
						{
							"internalType": "uint256",
							"name": "_amount",
							"type": "uint256"
						}
					],
					"name": "sell",
					"outputs": [
						{
							"internalType": "bool",
							"name": "success",
							"type": "bool"
						}
					],
					"payable": false,
					"stateMutability": "nonpayable",
					"type": "function"
				},
				{
					"constant": false,
					"inputs": [
						{
							"internalType": "address",
							"name": "addr",
							"type": "address"
						}
					],
					"name": "setWhite",
					"outputs": [
						{
							"internalType": "bool",
							"name": "",
							"type": "bool"
						}
					],
					"payable": false,
					"stateMutability": "nonpayable",
					"type": "function"
				},
				{
					"constant": true,
					"inputs": [
						{
							"internalType": "address",
							"name": "",
							"type": "address"
						}
					],
					"name": "status",
					"outputs": [
						{
							"internalType": "bool",
							"name": "",
							"type": "bool"
						}
					],
					"payable": false,
					"stateMutability": "view",
					"type": "function"
				},
				{
					"constant": true,
					"inputs": [],
					"name": "symbol",
					"outputs": [
						{
							"internalType": "string",
							"name": "",
							"type": "string"
						}
					],
					"payable": false,
					"stateMutability": "view",
					"type": "function"
				},
				{
					"constant": true,
					"inputs": [],
					"name": "totalSupply",
					"outputs": [
						{
							"internalType": "uint256",
							"name": "",
							"type": "uint256"
						}
					],
					"payable": false,
					"stateMutability": "view",
					"type": "function"
				},
				{
					"constant": false,
					"inputs": [
						{
							"internalType": "address",
							"name": "recipient",
							"type": "address"
						},
						{
							"internalType": "uint256",
							"name": "amount",
							"type": "uint256"
						}
					],
					"name": "transfer",
					"outputs": [
						{
							"internalType": "bool",
							"name": "",
							"type": "bool"
						}
					],
					"payable": false,
					"stateMutability": "nonpayable",
					"type": "function"
				},
				{
					"constant": false,
					"inputs": [
						{
							"internalType": "address",
							"name": "sender",
							"type": "address"
						},
						{
							"internalType": "address",
							"name": "recipient",
							"type": "address"
						},
						{
							"internalType": "uint256",
							"name": "amount",
							"type": "uint256"
						}
					],
					"name": "transferFrom",
					"outputs": [
						{
							"internalType": "bool",
							"name": "",
							"type": "bool"
						}
					],
					"payable": false,
					"stateMutability": "nonpayable",
					"type": "function"
				},
				{
					"constant": false,
					"inputs": [
						{
							"internalType": "address",
							"name": "newOwner",
							"type": "address"
						}
					],
					"name": "transferOwnership",
					"outputs": [],
					"payable": false,
					"stateMutability": "nonpayable",
					"type": "function"
				},
				{
					"constant": false,
					"inputs": [],
					"name": "unlock",
					"outputs": [],
					"payable": true,
					"stateMutability": "payable",
					"type": "function"
				},
				{
					"constant": false,
					"inputs": [
						{
							"internalType": "address",
							"name": "addr",
							"type": "address"
						}
					],
					"name": "unsetWhite",
					"outputs": [
						{
							"internalType": "bool",
							"name": "",
							"type": "bool"
						}
					],
					"payable": false,
					"stateMutability": "nonpayable",
					"type": "function"
				}
			],
			"devdoc": {
				"methods": {
					"allowance(address,address)": {
						"details": "See {IERC20-allowance}."
					},
					"approve(address,uint256)": {
						"details": "See {IERC20-approve}.      * Requirements:      * - `spender` cannot be the zero address."
					},
					"balanceOf(address)": {
						"details": "See {IERC20-balanceOf}."
					},
					"decimals()": {
						"details": "Returns the number of decimals used to get its user representation. For example, if `decimals` equals `2`, a balance of `505` tokens should be displayed to a user as `5,05` (`505 / 10 ** 2`).      * Tokens usually opt for a value of 18, imitating the relationship between Ether and Wei.      * NOTE: This information is only used for _display_ purposes: it in no way affects any of the arithmetic of the contract, including {IERC20-balanceOf} and {IERC20-transfer}."
					},
					"decreaseAllowance(address,uint256)": {
						"details": "Atomically decreases the allowance granted to `spender` by the caller.      * This is an alternative to {approve} that can be used as a mitigation for problems described in {IERC20-approve}.      * Emits an {Approval} event indicating the updated allowance.      * Requirements:      * - `spender` cannot be the zero address. - `spender` must have allowance for the caller of at least `subtractedValue`."
					},
					"increaseAllowance(address,uint256)": {
						"details": "Atomically increases the allowance granted to `spender` by the caller.      * This is an alternative to {approve} that can be used as a mitigation for problems described in {IERC20-approve}.      * Emits an {Approval} event indicating the updated allowance.      * Requirements:      * - `spender` cannot be the zero address."
					},
					"name()": {
						"details": "Returns the name of the token."
					},
					"owner()": {
						"details": "Returns the address of the current owner."
					},
					"renounceOwnership()": {
						"details": "Leaves the contract without owner. It will not be possible to call `onlyOwner` functions anymore. Can only be called by the current owner.      * NOTE: Renouncing ownership will leave the contract without an owner, thereby removing any functionality that is only available to the owner."
					},
					"symbol()": {
						"details": "Returns the symbol of the token, usually a shorter version of the name."
					},
					"totalSupply()": {
						"details": "See {IERC20-totalSupply}."
					},
					"transfer(address,uint256)": {
						"details": "See {IERC20-transfer}.      * Requirements:      * - `recipient` cannot be the zero address. - the caller must have a balance of at least `amount`."
					},
					"transferFrom(address,address,uint256)": {
						"details": "See {IERC20-transferFrom}.      * Emits an {Approval} event indicating the updated allowance. This is not required by the EIP. See the note at the beginning of {ERC20};      * Requirements: - `sender` and `recipient` cannot be the zero address. - `sender` must have a balance of at least `value`. - the caller must have allowance for `sender`'s tokens of at least `amount`."
					},
					"transferOwnership(address)": {
						"details": "Transfers ownership of the contract to a new account (`newOwner`). Can only be called by the current owner."
					}
				}
			},
			"evm": {
				"assembly": "    /* \"赛题-预赛/第四题/OwnerBuy.sol\":2509:5232  contract OwnerBuy is Ownable, ERC20, ERC20Detailed {\r... */\n  mstore(0x40, 0x80)\n    /* \"赛题-预赛/第四题/OwnerBuy.sol\":2727:2730  100 */\n  0x64\n    /* \"赛题-预赛/第四题/OwnerBuy.sol\":2709:2730  uint256 MAXHOLD = 100 */\n  0x0b\n  sstore\n    /* \"赛题-预赛/第四题/OwnerBuy.sol\":2766:2823  constructor() public ERC20Detailed(\"DEMO\", \"DEMO\", 18) {} */\n  callvalue\n    /* \"--CODEGEN--\":8:17   */\n  dup1\n    /* \"--CODEGEN--\":5:7   */\n  iszero\n  tag_1\n  jumpi\n    /* \"--CODEGEN--\":30:31   */\n  0x00\n    /* \"--CODEGEN--\":27:28   */\n  dup1\n    /* \"--CODEGEN--\":20:32   */\n  revert\n    /* \"--CODEGEN--\":5:7   */\ntag_1:\n    /* \"赛题-预赛/第四题/OwnerBuy.sol\":2766:2823  constructor() public ERC20Detailed(\"DEMO\", \"DEMO\", 18) {} */\n  pop\n    /* \"赛题-预赛/第四题/contracts/ERC20Detailed.sol\":433:600  constructor (string memory name, string memory symbol, uint8 decimals) public {\r... */\n  mload(0x40)\n  dup1\n  0x40\n  add\n  0x40\n  mstore\n  dup1\n  0x04\n  dup2\n  mstore\n  0x20\n  add\n  0x44454d4f00000000000000000000000000000000000000000000000000000000\n  dup2\n  mstore\n  pop\n  mload(0x40)\n  dup1\n  0x40\n  add\n  0x40\n  mstore\n  dup1\n  0x04\n  dup2\n  mstore\n  0x20\n  add\n  0x44454d4f00000000000000000000000000000000000000000000000000000000\n  dup2\n  mstore\n  pop\n    /* \"赛题-预赛/第四题/OwnerBuy.sol\":2817:2819  18 */\n  0x12\n    /* \"赛题-预赛/第四题/OwnerBuy.sol\":599:616  address msgSender */\n  0x00\n    /* \"赛题-预赛/第四题/OwnerBuy.sol\":619:629  msg.sender */\n  caller\n    /* \"赛题-预赛/第四题/OwnerBuy.sol\":599:629  address msgSender = msg.sender */\n  swap1\n  pop\n    /* \"赛题-预赛/第四题/OwnerBuy.sol\":649:658  msgSender */\n  dup1\n    /* \"赛题-预赛/第四题/OwnerBuy.sol\":640:646  _owner */\n  0x00\n  dup1\n    /* \"赛题-预赛/第四题/OwnerBuy.sol\":640:658  _owner = msgSender */\n  0x0100\n  exp\n  dup2\n  sload\n  dup2\n  0xffffffffffffffffffffffffffffffffffffffff\n  mul\n  not\n  and\n  swap1\n  dup4\n  0xffffffffffffffffffffffffffffffffffffffff\n  and\n  mul\n  or\n  swap1\n  sstore\n  pop\n    /* \"赛题-预赛/第四题/OwnerBuy.sol\":707:716  msgSender */\n  dup1\n    /* \"赛题-预赛/第四题/OwnerBuy.sol\":674:717  OwnershipTransferred(address(0), msgSender) */\n  0xffffffffffffffffffffffffffffffffffffffff\n  and\n    /* \"赛题-预赛/第四题/OwnerBuy.sol\":703:704  0 */\n  0x00\n    /* \"赛题-预赛/第四题/OwnerBuy.sol\":674:717  OwnershipTransferred(address(0), msgSender) */\n  0xffffffffffffffffffffffffffffffffffffffff\n  and\n  0x8be0079c531659141344cd1fd0a4f28419497f9722a3daafe3b4186f6b6457e0\n  mload(0x40)\n  mload(0x40)\n  dup1\n  swap2\n  sub\n  swap1\n  log3\n    /* \"赛题-预赛/第四题/OwnerBuy.sol\":565:725  constructor() internal {\r... */\n  pop\n    /* \"赛题-预赛/第四题/contracts/ERC20Detailed.sol\":530:534  name */\n  dup3\n    /* \"赛题-预赛/第四题/contracts/ERC20Detailed.sol\":522:527  _name */\n  0x05\n    /* \"赛题-预赛/第四题/contracts/ERC20Detailed.sol\":522:534  _name = name */\n  swap1\n  dup1\n  mload\n  swap1\n  0x20\n  add\n  swap1\n  tag_7\n  swap3\n  swap2\n  swap1\n  tag_8\n  jump\t// in\ntag_7:\n  pop\n    /* \"赛题-预赛/第四题/contracts/ERC20Detailed.sol\":555:561  symbol */\n  dup2\n    /* \"赛题-预赛/第四题/contracts/ERC20Detailed.sol\":545:552  _symbol */\n  0x06\n    /* \"赛题-预赛/第四题/contracts/ERC20Detailed.sol\":545:561  _symbol = symbol */\n  swap1\n  dup1\n  mload\n  swap1\n  0x20\n  add\n  swap1\n  tag_9\n  swap3\n  swap2\n  swap1\n  tag_8\n  jump\t// in\ntag_9:\n  pop\n    /* \"赛题-预赛/第四题/contracts/ERC20Detailed.sol\":584:592  decimals */\n  dup1\n    /* \"赛题-预赛/第四题/contracts/ERC20Detailed.sol\":572:581  _decimals */\n  0x07\n  0x00\n    /* \"赛题-预赛/第四题/contracts/ERC20Detailed.sol\":572:592  _decimals = decimals */\n  0x0100\n  exp\n  dup2\n  sload\n  dup2\n  0xff\n  mul\n  not\n  and\n  swap1\n  dup4\n  0xff\n  and\n  mul\n  or\n  swap1\n  sstore\n  pop\n    /* \"赛题-预赛/第四题/contracts/ERC20Detailed.sol\":433:600  constructor (string memory name, string memory symbol, uint8 decimals) public {\r... */\n  pop\n  pop\n  pop\n    /* \"赛题-预赛/第四题/OwnerBuy.sol\":2509:5232  contract OwnerBuy is Ownable, ERC20, ERC20Detailed {\r... */\n  jump(tag_11)\ntag_8:\n  dup3\n  dup1\n  sload\n  0x01\n  dup2\n  0x01\n  and\n  iszero\n  0x0100\n  mul\n  sub\n  and\n  0x02\n  swap1\n  div\n  swap1\n  0x00\n  mstore\n  keccak256(0x00, 0x20)\n  swap1\n  0x1f\n  add\n  0x20\n  swap1\n  div\n  dup2\n  add\n  swap3\n  dup3\n  0x1f\n  lt\n  tag_13\n  jumpi\n  dup1\n  mload\n  not(0xff)\n  and\n  dup4\n  dup1\n  add\n  or\n  dup6\n  sstore\n  jump(tag_12)\ntag_13:\n  dup3\n  dup1\n  add\n  0x01\n  add\n  dup6\n  sstore\n  dup3\n  iszero\n  tag_12\n  jumpi\n  swap2\n  dup3\n  add\ntag_14:\n  dup3\n  dup2\n  gt\n  iszero\n  tag_15\n  jumpi\n  dup3\n  mload\n  dup3\n  sstore\n  swap2\n  0x20\n  add\n  swap2\n  swap1\n  0x01\n  add\n  swap1\n  jump(tag_14)\ntag_15:\ntag_12:\n  pop\n  swap1\n  pop\n  tag_16\n  swap2\n  swap1\n  tag_17\n  jump\t// in\ntag_16:\n  pop\n  swap1\n  jump\t// out\ntag_17:\n  tag_18\n  swap2\n  swap1\ntag_19:\n  dup1\n  dup3\n  gt\n  iszero\n  tag_20\n  jumpi\n  0x00\n  dup2\n  0x00\n  swap1\n  sstore\n  pop\n  0x01\n  add\n  jump(tag_19)\ntag_20:\n  pop\n  swap1\n  jump\ntag_18:\n  swap1\n  jump\t// out\ntag_11:\n  dataSize(sub_0)\n  dup1\n  dataOffset(sub_0)\n  0x00\n  codecopy\n  0x00\n  return\nstop\n\nsub_0: assembly {\n        /* \"赛题-预赛/第四题/OwnerBuy.sol\":2509:5232  contract OwnerBuy is Ownable, ERC20, ERC20Detailed {\r... */\n      mstore(0x40, 0x80)\n      jumpi(tag_1, lt(calldatasize, 0x04))\n      shr(0xe0, calldataload(0x00))\n      dup1\n      0x8da5cb5b\n      gt\n      tag_30\n      jumpi\n      dup1\n      0xb2bdfa7b\n      gt\n      tag_31\n      jumpi\n      dup1\n      0xdd62ed3e\n      gt\n      tag_32\n      jumpi\n      dup1\n      0xdd62ed3e\n      eq\n      tag_26\n      jumpi\n      dup1\n      0xe4849b32\n      eq\n      tag_27\n      jumpi\n      dup1\n      0xf2fde38b\n      eq\n      tag_28\n      jumpi\n      dup1\n      0xf83d08ba\n      eq\n      tag_29\n      jumpi\n      jump(tag_1)\n    tag_32:\n      dup1\n      0xb2bdfa7b\n      eq\n      tag_23\n      jumpi\n      dup1\n      0xc03646ba\n      eq\n      tag_24\n      jumpi\n      dup1\n      0xd56b2889\n      eq\n      tag_25\n      jumpi\n      jump(tag_1)\n    tag_31:\n      dup1\n      0xa457c2d7\n      gt\n      tag_33\n      jumpi\n      dup1\n      0xa457c2d7\n      eq\n      tag_19\n      jumpi\n      dup1\n      0xa69df4b5\n      eq\n      tag_20\n      jumpi\n      dup1\n      0xa6f2ae3a\n      eq\n      tag_21\n      jumpi\n      dup1\n      0xa9059cbb\n      eq\n      tag_22\n      jumpi\n      jump(tag_1)\n    tag_33:\n      dup1\n      0x8da5cb5b\n      eq\n      tag_16\n      jumpi\n      dup1\n      0x95d89b41\n      eq\n      tag_17\n      jumpi\n      dup1\n      0xa348c289\n      eq\n      tag_18\n      jumpi\n      jump(tag_1)\n    tag_30:\n      dup1\n      0x41702014\n      gt\n      tag_34\n      jumpi\n      dup1\n      0x645b8b1b\n      gt\n      tag_35\n      jumpi\n      dup1\n      0x645b8b1b\n      eq\n      tag_12\n      jumpi\n      dup1\n      0x6e63cd96\n      eq\n      tag_13\n      jumpi\n      dup1\n      0x70a08231\n      eq\n      tag_14\n      jumpi\n      dup1\n      0x715018a6\n      eq\n      tag_15\n      jumpi\n      jump(tag_1)\n    tag_35:\n      dup1\n      0x41702014\n      eq\n      tag_9\n      jumpi\n      dup1\n      0x51ec819f\n      eq\n      tag_10\n      jumpi\n      dup1\n      0x62a09477\n      eq\n      tag_11\n      jumpi\n      jump(tag_1)\n    tag_34:\n      dup1\n      0x1c87e971\n      gt\n      tag_36\n      jumpi\n      dup1\n      0x1c87e971\n      eq\n      tag_5\n      jumpi\n      dup1\n      0x23b872dd\n      eq\n      tag_6\n      jumpi\n      dup1\n      0x313ce567\n      eq\n      tag_7\n      jumpi\n      dup1\n      0x39509351\n      eq\n      tag_8\n      jumpi\n      jump(tag_1)\n    tag_36:\n      dup1\n      0x06fdde03\n      eq\n      tag_2\n      jumpi\n      dup1\n      0x095ea7b3\n      eq\n      tag_3\n      jumpi\n      dup1\n      0x18160ddd\n      eq\n      tag_4\n      jumpi\n    tag_1:\n      0x00\n      dup1\n      revert\n        /* \"赛题-预赛/第四题/contracts/ERC20Detailed.sol\":670:753  function name() public view returns (string memory) {\r... */\n    tag_2:\n      callvalue\n        /* \"--CODEGEN--\":8:17   */\n      dup1\n        /* \"--CODEGEN--\":5:7   */\n      iszero\n      tag_37\n      jumpi\n        /* \"--CODEGEN--\":30:31   */\n      0x00\n        /* \"--CODEGEN--\":27:28   */\n      dup1\n        /* \"--CODEGEN--\":20:32   */\n      revert\n        /* \"--CODEGEN--\":5:7   */\n    tag_37:\n        /* \"赛题-预赛/第四题/contracts/ERC20Detailed.sol\":670:753  function name() public view returns (string memory) {\r... */\n      pop\n      tag_38\n      tag_39\n      jump\t// in\n    tag_38:\n      mload(0x40)\n      dup1\n      dup1\n      0x20\n      add\n      dup3\n      dup2\n      sub\n      dup3\n      mstore\n      dup4\n      dup2\n      dup2\n      mload\n      dup2\n      mstore\n      0x20\n      add\n      swap2\n      pop\n      dup1\n      mload\n      swap1\n      0x20\n      add\n      swap1\n      dup1\n      dup4\n      dup4\n        /* \"--CODEGEN--\":23:24   */\n      0x00\n        /* \"--CODEGEN--\":8:108   */\n    tag_40:\n        /* \"--CODEGEN--\":33:36   */\n      dup4\n        /* \"--CODEGEN--\":30:31   */\n      dup2\n        /* \"--CODEGEN--\":27:37   */\n      lt\n        /* \"--CODEGEN--\":8:108   */\n      iszero\n      tag_42\n      jumpi\n        /* \"--CODEGEN--\":99:100   */\n      dup1\n        /* \"--CODEGEN--\":94:97   */\n      dup3\n        /* \"--CODEGEN--\":90:101   */\n      add\n        /* \"--CODEGEN--\":84:102   */\n      mload\n        /* \"--CODEGEN--\":80:81   */\n      dup2\n        /* \"--CODEGEN--\":75:78   */\n      dup5\n        /* \"--CODEGEN--\":71:82   */\n      add\n        /* \"--CODEGEN--\":64:103   */\n      mstore\n        /* \"--CODEGEN--\":52:54   */\n      0x20\n        /* \"--CODEGEN--\":49:50   */\n      dup2\n        /* \"--CODEGEN--\":45:55   */\n      add\n        /* \"--CODEGEN--\":40:55   */\n      swap1\n      pop\n        /* \"--CODEGEN--\":8:108   */\n      jump(tag_40)\n    tag_42:\n        /* \"--CODEGEN--\":12:26   */\n      pop\n        /* \"赛题-预赛/第四题/contracts/ERC20Detailed.sol\":670:753  function name() public view returns (string memory) {\r... */\n      pop\n      pop\n      pop\n      swap1\n      pop\n      swap1\n      dup2\n      add\n      swap1\n      0x1f\n      and\n      dup1\n      iszero\n      tag_43\n      jumpi\n      dup1\n      dup3\n      sub\n      dup1\n      mload\n      0x01\n      dup4\n      0x20\n      sub\n      0x0100\n      exp\n      sub\n      not\n      and\n      dup2\n      mstore\n      0x20\n      add\n      swap2\n      pop\n    tag_43:\n      pop\n      swap3\n      pop\n      pop\n      pop\n      mload(0x40)\n      dup1\n      swap2\n      sub\n      swap1\n      return\n        /* \"赛题-预赛/第四题/contracts/ERC20.sol\":2536:2684  function approve(address spender, uint256 value) public returns (bool) {\r... */\n    tag_3:\n      callvalue\n        /* \"--CODEGEN--\":8:17   */\n      dup1\n        /* \"--CODEGEN--\":5:7   */\n      iszero\n      tag_44\n      jumpi\n        /* \"--CODEGEN--\":30:31   */\n      0x00\n        /* \"--CODEGEN--\":27:28   */\n      dup1\n        /* \"--CODEGEN--\":20:32   */\n      revert\n        /* \"--CODEGEN--\":5:7   */\n    tag_44:\n        /* \"赛题-预赛/第四题/contracts/ERC20.sol\":2536:2684  function approve(address spender, uint256 value) public returns (bool) {\r... */\n      pop\n      tag_45\n      0x04\n      dup1\n      calldatasize\n      sub\n        /* \"--CODEGEN--\":13:15   */\n      0x40\n        /* \"--CODEGEN--\":8:11   */\n      dup2\n        /* \"--CODEGEN--\":5:16   */\n      lt\n        /* \"--CODEGEN--\":2:4   */\n      iszero\n      tag_46\n      jumpi\n        /* \"--CODEGEN--\":29:30   */\n      0x00\n        /* \"--CODEGEN--\":26:27   */\n      dup1\n        /* \"--CODEGEN--\":19:31   */\n      revert\n        /* \"--CODEGEN--\":2:4   */\n    tag_46:\n        /* \"赛题-预赛/第四题/contracts/ERC20.sol\":2536:2684  function approve(address spender, uint256 value) public returns (bool) {\r... */\n      dup2\n      add\n      swap1\n      dup1\n      dup1\n      calldataload\n      0xffffffffffffffffffffffffffffffffffffffff\n      and\n      swap1\n      0x20\n      add\n      swap1\n      swap3\n      swap2\n      swap1\n      dup1\n      calldataload\n      swap1\n      0x20\n      add\n      swap1\n      swap3\n      swap2\n      swap1\n      pop\n      pop\n      pop\n      tag_47\n      jump\t// in\n    tag_45:\n      mload(0x40)\n      dup1\n      dup3\n      iszero\n      iszero\n      iszero\n      iszero\n      dup2\n      mstore\n      0x20\n      add\n      swap2\n      pop\n      pop\n      mload(0x40)\n      dup1\n      swap2\n      sub\n      swap1\n      return\n        /* \"赛题-预赛/第四题/contracts/ERC20.sol\":1559:1650  function totalSupply() public view returns (uint256) {\r... */\n    tag_4:\n      callvalue\n        /* \"--CODEGEN--\":8:17   */\n      dup1\n        /* \"--CODEGEN--\":5:7   */\n      iszero\n      tag_48\n      jumpi\n        /* \"--CODEGEN--\":30:31   */\n      0x00\n        /* \"--CODEGEN--\":27:28   */\n      dup1\n        /* \"--CODEGEN--\":20:32   */\n      revert\n        /* \"--CODEGEN--\":5:7   */\n    tag_48:\n        /* \"赛题-预赛/第四题/contracts/ERC20.sol\":1559:1650  function totalSupply() public view returns (uint256) {\r... */\n      pop\n      tag_49\n      tag_50\n      jump\t// in\n    tag_49:\n      mload(0x40)\n      dup1\n      dup3\n      dup2\n      mstore\n      0x20\n      add\n      swap2\n      pop\n      pop\n      mload(0x40)\n      dup1\n      swap2\n      sub\n      swap1\n      return\n        /* \"赛题-预赛/第四题/OwnerBuy.sol\":2612:2652  mapping(address => uint256) public Times */\n    tag_5:\n      callvalue\n        /* \"--CODEGEN--\":8:17   */\n      dup1\n        /* \"--CODEGEN--\":5:7   */\n      iszero\n      tag_51\n      jumpi\n        /* \"--CODEGEN--\":30:31   */\n      0x00\n        /* \"--CODEGEN--\":27:28   */\n      dup1\n        /* \"--CODEGEN--\":20:32   */\n      revert\n        /* \"--CODEGEN--\":5:7   */\n    tag_51:\n        /* \"赛题-预赛/第四题/OwnerBuy.sol\":2612:2652  mapping(address => uint256) public Times */\n      pop\n      tag_52\n      0x04\n      dup1\n      calldatasize\n      sub\n        /* \"--CODEGEN--\":13:15   */\n      0x20\n        /* \"--CODEGEN--\":8:11   */\n      dup2\n        /* \"--CODEGEN--\":5:16   */\n      lt\n        /* \"--CODEGEN--\":2:4   */\n      iszero\n      tag_53\n      jumpi\n        /* \"--CODEGEN--\":29:30   */\n      0x00\n        /* \"--CODEGEN--\":26:27   */\n      dup1\n        /* \"--CODEGEN--\":19:31   */\n      revert\n        /* \"--CODEGEN--\":2:4   */\n    tag_53:\n        /* \"赛题-预赛/第四题/OwnerBuy.sol\":2612:2652  mapping(address => uint256) public Times */\n      dup2\n      add\n      swap1\n      dup1\n      dup1\n      calldataload\n      0xffffffffffffffffffffffffffffffffffffffff\n      and\n      swap1\n      0x20\n      add\n      swap1\n      swap3\n      swap2\n      swap1\n      pop\n      pop\n      pop\n      tag_54\n      jump\t// in\n    tag_52:\n      mload(0x40)\n      dup1\n      dup3\n      dup2\n      mstore\n      0x20\n      add\n      swap2\n      pop\n      pop\n      mload(0x40)\n      dup1\n      swap2\n      sub\n      swap1\n      return\n        /* \"赛题-预赛/第四题/contracts/ERC20.sol\":3155:3411  function transferFrom(address sender, address recipient, uint256 amount) public returns (bool) {\r... */\n    tag_6:\n      callvalue\n        /* \"--CODEGEN--\":8:17   */\n      dup1\n        /* \"--CODEGEN--\":5:7   */\n      iszero\n      tag_55\n      jumpi\n        /* \"--CODEGEN--\":30:31   */\n      0x00\n        /* \"--CODEGEN--\":27:28   */\n      dup1\n        /* \"--CODEGEN--\":20:32   */\n      revert\n        /* \"--CODEGEN--\":5:7   */\n    tag_55:\n        /* \"赛题-预赛/第四题/contracts/ERC20.sol\":3155:3411  function transferFrom(address sender, address recipient, uint256 amount) public returns (bool) {\r... */\n      pop\n      tag_56\n      0x04\n      dup1\n      calldatasize\n      sub\n        /* \"--CODEGEN--\":13:15   */\n      0x60\n        /* \"--CODEGEN--\":8:11   */\n      dup2\n        /* \"--CODEGEN--\":5:16   */\n      lt\n        /* \"--CODEGEN--\":2:4   */\n      iszero\n      tag_57\n      jumpi\n        /* \"--CODEGEN--\":29:30   */\n      0x00\n        /* \"--CODEGEN--\":26:27   */\n      dup1\n        /* \"--CODEGEN--\":19:31   */\n      revert\n        /* \"--CODEGEN--\":2:4   */\n    tag_57:\n        /* \"赛题-预赛/第四题/contracts/ERC20.sol\":3155:3411  function transferFrom(address sender, address recipient, uint256 amount) public returns (bool) {\r... */\n      dup2\n      add\n      swap1\n      dup1\n      dup1\n      calldataload\n      0xffffffffffffffffffffffffffffffffffffffff\n      and\n      swap1\n      0x20\n      add\n      swap1\n      swap3\n      swap2\n      swap1\n      dup1\n      calldataload\n      0xffffffffffffffffffffffffffffffffffffffff\n      and\n      swap1\n      0x20\n      add\n      swap1\n      swap3\n      swap2\n      swap1\n      dup1\n      calldataload\n      swap1\n      0x20\n      add\n      swap1\n      swap3\n      swap2\n      swap1\n      pop\n      pop\n      pop\n      tag_58\n      jump\t// in\n    tag_56:\n      mload(0x40)\n      dup1\n      dup3\n      iszero\n      iszero\n      iszero\n      iszero\n      dup2\n      mstore\n      0x20\n      add\n      swap2\n      pop\n      pop\n      mload(0x40)\n      dup1\n      swap2\n      sub\n      swap1\n      return\n        /* \"赛题-预赛/第四题/contracts/ERC20Detailed.sol\":1522:1605  function decimals() public view returns (uint8) {\r... */\n    tag_7:\n      callvalue\n        /* \"--CODEGEN--\":8:17   */\n      dup1\n        /* \"--CODEGEN--\":5:7   */\n      iszero\n      tag_59\n      jumpi\n        /* \"--CODEGEN--\":30:31   */\n      0x00\n        /* \"--CODEGEN--\":27:28   */\n      dup1\n        /* \"--CODEGEN--\":20:32   */\n      revert\n        /* \"--CODEGEN--\":5:7   */\n    tag_59:\n        /* \"赛题-预赛/第四题/contracts/ERC20Detailed.sol\":1522:1605  function decimals() public view returns (uint8) {\r... */\n      pop\n      tag_60\n      tag_61\n      jump\t// in\n    tag_60:\n      mload(0x40)\n      dup1\n      dup3\n      0xff\n      and\n      0xff\n      and\n      dup2\n      mstore\n      0x20\n      add\n      swap2\n      pop\n      pop\n      mload(0x40)\n      dup1\n      swap2\n      sub\n      swap1\n      return\n        /* \"赛题-预赛/第四题/contracts/ERC20.sol\":3820:4026  function increaseAllowance(address spender, uint256 addedValue) public returns (bool) {\r... */\n    tag_8:\n      callvalue\n        /* \"--CODEGEN--\":8:17   */\n      dup1\n        /* \"--CODEGEN--\":5:7   */\n      iszero\n      tag_62\n      jumpi\n        /* \"--CODEGEN--\":30:31   */\n      0x00\n        /* \"--CODEGEN--\":27:28   */\n      dup1\n        /* \"--CODEGEN--\":20:32   */\n      revert\n        /* \"--CODEGEN--\":5:7   */\n    tag_62:\n        /* \"赛题-预赛/第四题/contracts/ERC20.sol\":3820:4026  function increaseAllowance(address spender, uint256 addedValue) public returns (bool) {\r... */\n      pop\n      tag_63\n      0x04\n      dup1\n      calldatasize\n      sub\n        /* \"--CODEGEN--\":13:15   */\n      0x40\n        /* \"--CODEGEN--\":8:11   */\n      dup2\n        /* \"--CODEGEN--\":5:16   */\n      lt\n        /* \"--CODEGEN--\":2:4   */\n      iszero\n      tag_64\n      jumpi\n        /* \"--CODEGEN--\":29:30   */\n      0x00\n        /* \"--CODEGEN--\":26:27   */\n      dup1\n        /* \"--CODEGEN--\":19:31   */\n      revert\n        /* \"--CODEGEN--\":2:4   */\n    tag_64:\n        /* \"赛题-预赛/第四题/contracts/ERC20.sol\":3820:4026  function increaseAllowance(address spender, uint256 addedValue) public returns (bool) {\r... */\n      dup2\n      add\n      swap1\n      dup1\n      dup1\n      calldataload\n      0xffffffffffffffffffffffffffffffffffffffff\n      and\n      swap1\n      0x20\n      add\n      swap1\n      swap3\n      swap2\n      swap1\n      dup1\n      calldataload\n      swap1\n      0x20\n      add\n      swap1\n      swap3\n      swap2\n      swap1\n      pop\n      pop\n      pop\n      tag_65\n      jump\t// in\n    tag_63:\n      mload(0x40)\n      dup1\n      dup3\n      iszero\n      iszero\n      iszero\n      iszero\n      dup2\n      mstore\n      0x20\n      add\n      swap2\n      pop\n      pop\n      mload(0x40)\n      dup1\n      swap2\n      sub\n      swap1\n      return\n        /* \"赛题-预赛/第四题/OwnerBuy.sol\":3075:3207  function unsetWhite(address addr) external onlyOwner returns (bool) {\r... */\n    tag_9:\n      callvalue\n        /* \"--CODEGEN--\":8:17   */\n      dup1\n        /* \"--CODEGEN--\":5:7   */\n      iszero\n      tag_66\n      jumpi\n        /* \"--CODEGEN--\":30:31   */\n      0x00\n        /* \"--CODEGEN--\":27:28   */\n      dup1\n        /* \"--CODEGEN--\":20:32   */\n      revert\n        /* \"--CODEGEN--\":5:7   */\n    tag_66:\n        /* \"赛题-预赛/第四题/OwnerBuy.sol\":3075:3207  function unsetWhite(address addr) external onlyOwner returns (bool) {\r... */\n      pop\n      tag_67\n      0x04\n      dup1\n      calldatasize\n      sub\n        /* \"--CODEGEN--\":13:15   */\n      0x20\n        /* \"--CODEGEN--\":8:11   */\n      dup2\n        /* \"--CODEGEN--\":5:16   */\n      lt\n        /* \"--CODEGEN--\":2:4   */\n      iszero\n      tag_68\n      jumpi\n        /* \"--CODEGEN--\":29:30   */\n      0x00\n        /* \"--CODEGEN--\":26:27   */\n      dup1\n        /* \"--CODEGEN--\":19:31   */\n      revert\n        /* \"--CODEGEN--\":2:4   */\n    tag_68:\n        /* \"赛题-预赛/第四题/OwnerBuy.sol\":3075:3207  function unsetWhite(address addr) external onlyOwner returns (bool) {\r... */\n      dup2\n      add\n      swap1\n      dup1\n      dup1\n      calldataload\n      0xffffffffffffffffffffffffffffffffffffffff\n      and\n      swap1\n      0x20\n      add\n      swap1\n      swap3\n      swap2\n      swap1\n      pop\n      pop\n      pop\n      tag_69\n      jump\t// in\n    tag_67:\n      mload(0x40)\n      dup1\n      dup3\n      iszero\n      iszero\n      iszero\n      iszero\n      dup2\n      mstore\n      0x20\n      add\n      swap2\n      pop\n      pop\n      mload(0x40)\n      dup1\n      swap2\n      sub\n      swap1\n      return\n        /* \"赛题-预赛/第四题/OwnerBuy.sol\":3640:3842  function changestatus(address _owner) public {\r... */\n    tag_10:\n      callvalue\n        /* \"--CODEGEN--\":8:17   */\n      dup1\n        /* \"--CODEGEN--\":5:7   */\n      iszero\n      tag_70\n      jumpi\n        /* \"--CODEGEN--\":30:31   */\n      0x00\n        /* \"--CODEGEN--\":27:28   */\n      dup1\n        /* \"--CODEGEN--\":20:32   */\n      revert\n        /* \"--CODEGEN--\":5:7   */\n    tag_70:\n        /* \"赛题-预赛/第四题/OwnerBuy.sol\":3640:3842  function changestatus(address _owner) public {\r... */\n      pop\n      tag_71\n      0x04\n      dup1\n      calldatasize\n      sub\n        /* \"--CODEGEN--\":13:15   */\n      0x20\n        /* \"--CODEGEN--\":8:11   */\n      dup2\n        /* \"--CODEGEN--\":5:16   */\n      lt\n        /* \"--CODEGEN--\":2:4   */\n      iszero\n      tag_72\n      jumpi\n        /* \"--CODEGEN--\":29:30   */\n      0x00\n        /* \"--CODEGEN--\":26:27   */\n      dup1\n        /* \"--CODEGEN--\":19:31   */\n      revert\n        /* \"--CODEGEN--\":2:4   */\n    tag_72:\n        /* \"赛题-预赛/第四题/OwnerBuy.sol\":3640:3842  function changestatus(address _owner) public {\r... */\n      dup2\n      add\n      swap1\n      dup1\n      dup1\n      calldataload\n      0xffffffffffffffffffffffffffffffffffffffff\n      and\n      swap1\n      0x20\n      add\n      swap1\n      swap3\n      swap2\n      swap1\n      pop\n      pop\n      pop\n      tag_73\n      jump\t// in\n    tag_71:\n      stop\n        /* \"赛题-预赛/第四题/OwnerBuy.sol\":3850:4115  function changeOwner() public {\r... */\n    tag_11:\n      callvalue\n        /* \"--CODEGEN--\":8:17   */\n      dup1\n        /* \"--CODEGEN--\":5:7   */\n      iszero\n      tag_74\n      jumpi\n        /* \"--CODEGEN--\":30:31   */\n      0x00\n        /* \"--CODEGEN--\":27:28   */\n      dup1\n        /* \"--CODEGEN--\":20:32   */\n      revert\n        /* \"--CODEGEN--\":5:7   */\n    tag_74:\n        /* \"赛题-预赛/第四题/OwnerBuy.sol\":3850:4115  function changeOwner() public {\r... */\n      pop\n      tag_75\n      tag_76\n      jump\t// in\n    tag_75:\n      stop\n        /* \"赛题-预赛/第四题/OwnerBuy.sol\":2567:2605  mapping(address => bool) public status */\n    tag_12:\n      callvalue\n        /* \"--CODEGEN--\":8:17   */\n      dup1\n        /* \"--CODEGEN--\":5:7   */\n      iszero\n      tag_77\n      jumpi\n        /* \"--CODEGEN--\":30:31   */\n      0x00\n        /* \"--CODEGEN--\":27:28   */\n      dup1\n        /* \"--CODEGEN--\":20:32   */\n      revert\n        /* \"--CODEGEN--\":5:7   */\n    tag_77:\n        /* \"赛题-预赛/第四题/OwnerBuy.sol\":2567:2605  mapping(address => bool) public status */\n      pop\n      tag_78\n      0x04\n      dup1\n      calldatasize\n      sub\n        /* \"--CODEGEN--\":13:15   */\n      0x20\n        /* \"--CODEGEN--\":8:11   */\n      dup2\n        /* \"--CODEGEN--\":5:16   */\n      lt\n        /* \"--CODEGEN--\":2:4   */\n      iszero\n      tag_79\n      jumpi\n        /* \"--CODEGEN--\":29:30   */\n      0x00\n        /* \"--CODEGEN--\":26:27   */\n      dup1\n        /* \"--CODEGEN--\":19:31   */\n      revert\n        /* \"--CODEGEN--\":2:4   */\n    tag_79:\n        /* \"赛题-预赛/第四题/OwnerBuy.sol\":2567:2605  mapping(address => bool) public status */\n      dup2\n      add\n      swap1\n      dup1\n      dup1\n      calldataload\n      0xffffffffffffffffffffffffffffffffffffffff\n      and\n      swap1\n      0x20\n      add\n      swap1\n      swap3\n      swap2\n      swap1\n      pop\n      pop\n      pop\n      tag_80\n      jump\t// in\n    tag_78:\n      mload(0x40)\n      dup1\n      dup3\n      iszero\n      iszero\n      iszero\n      iszero\n      dup2\n      mstore\n      0x20\n      add\n      swap2\n      pop\n      pop\n      mload(0x40)\n      dup1\n      swap2\n      sub\n      swap1\n      return\n        /* \"赛题-预赛/第四题/OwnerBuy.sol\":311:340  address public _previousOwner */\n    tag_13:\n      callvalue\n        /* \"--CODEGEN--\":8:17   */\n      dup1\n        /* \"--CODEGEN--\":5:7   */\n      iszero\n      tag_81\n      jumpi\n        /* \"--CODEGEN--\":30:31   */\n      0x00\n        /* \"--CODEGEN--\":27:28   */\n      dup1\n        /* \"--CODEGEN--\":20:32   */\n      revert\n        /* \"--CODEGEN--\":5:7   */\n    tag_81:\n        /* \"赛题-预赛/第四题/OwnerBuy.sol\":311:340  address public _previousOwner */\n      pop\n      tag_82\n      tag_83\n      jump\t// in\n    tag_82:\n      mload(0x40)\n      dup1\n      dup3\n      0xffffffffffffffffffffffffffffffffffffffff\n      and\n      0xffffffffffffffffffffffffffffffffffffffff\n      and\n      dup2\n      mstore\n      0x20\n      add\n      swap2\n      pop\n      pop\n      mload(0x40)\n      dup1\n      swap2\n      sub\n      swap1\n      return\n        /* \"赛题-预赛/第四题/contracts/ERC20.sol\":1713:1823  function balanceOf(address account) public view returns (uint256) {\r... */\n    tag_14:\n      callvalue\n        /* \"--CODEGEN--\":8:17   */\n      dup1\n        /* \"--CODEGEN--\":5:7   */\n      iszero\n      tag_84\n      jumpi\n        /* \"--CODEGEN--\":30:31   */\n      0x00\n        /* \"--CODEGEN--\":27:28   */\n      dup1\n        /* \"--CODEGEN--\":20:32   */\n      revert\n        /* \"--CODEGEN--\":5:7   */\n    tag_84:\n        /* \"赛题-预赛/第四题/contracts/ERC20.sol\":1713:1823  function balanceOf(address account) public view returns (uint256) {\r... */\n      pop\n      tag_85\n      0x04\n      dup1\n      calldatasize\n      sub\n        /* \"--CODEGEN--\":13:15   */\n      0x20\n        /* \"--CODEGEN--\":8:11   */\n      dup2\n        /* \"--CODEGEN--\":5:16   */\n      lt\n        /* \"--CODEGEN--\":2:4   */\n      iszero\n      tag_86\n      jumpi\n        /* \"--CODEGEN--\":29:30   */\n      0x00\n        /* \"--CODEGEN--\":26:27   */\n      dup1\n        /* \"--CODEGEN--\":19:31   */\n      revert\n        /* \"--CODEGEN--\":2:4   */\n    tag_86:\n        /* \"赛题-预赛/第四题/contracts/ERC20.sol\":1713:1823  function balanceOf(address account) public view returns (uint256) {\r... */\n      dup2\n      add\n      swap1\n      dup1\n      dup1\n      calldataload\n      0xffffffffffffffffffffffffffffffffffffffff\n      and\n      swap1\n      0x20\n      add\n      swap1\n      swap3\n      swap2\n      swap1\n      pop\n      pop\n      pop\n      tag_87\n      jump\t// in\n    tag_85:\n      mload(0x40)\n      dup1\n      dup3\n      dup2\n      mstore\n      0x20\n      add\n      swap2\n      pop\n      pop\n      mload(0x40)\n      dup1\n      swap2\n      sub\n      swap1\n      return\n        /* \"赛题-预赛/第四题/OwnerBuy.sol\":1446:1586  function renounceOwnership() public onlyOwner {\r... */\n    tag_15:\n      callvalue\n        /* \"--CODEGEN--\":8:17   */\n      dup1\n        /* \"--CODEGEN--\":5:7   */\n      iszero\n      tag_88\n      jumpi\n        /* \"--CODEGEN--\":30:31   */\n      0x00\n        /* \"--CODEGEN--\":27:28   */\n      dup1\n        /* \"--CODEGEN--\":20:32   */\n      revert\n        /* \"--CODEGEN--\":5:7   */\n    tag_88:\n        /* \"赛题-预赛/第四题/OwnerBuy.sol\":1446:1586  function renounceOwnership() public onlyOwner {\r... */\n      pop\n      tag_89\n      tag_90\n      jump\t// in\n    tag_89:\n      stop\n        /* \"赛题-预赛/第四题/OwnerBuy.sol\":806:885  function owner() public view returns (address) {\r... */\n    tag_16:\n      callvalue\n        /* \"--CODEGEN--\":8:17   */\n      dup1\n        /* \"--CODEGEN--\":5:7   */\n      iszero\n      tag_91\n      jumpi\n        /* \"--CODEGEN--\":30:31   */\n      0x00\n        /* \"--CODEGEN--\":27:28   */\n      dup1\n        /* \"--CODEGEN--\":20:32   */\n      revert\n        /* \"--CODEGEN--\":5:7   */\n    tag_91:\n        /* \"赛题-预赛/第四题/OwnerBuy.sol\":806:885  function owner() public view returns (address) {\r... */\n      pop\n      tag_92\n      tag_93\n      jump\t// in\n    tag_92:\n      mload(0x40)\n      dup1\n      dup3\n      0xffffffffffffffffffffffffffffffffffffffff\n      and\n      0xffffffffffffffffffffffffffffffffffffffff\n      and\n      dup2\n      mstore\n      0x20\n      add\n      swap2\n      pop\n      pop\n      mload(0x40)\n      dup1\n      swap2\n      sub\n      swap1\n      return\n        /* \"赛题-预赛/第四题/contracts/ERC20Detailed.sol\":872:959  function symbol() public view returns (string memory) {\r... */\n    tag_17:\n      callvalue\n        /* \"--CODEGEN--\":8:17   */\n      dup1\n        /* \"--CODEGEN--\":5:7   */\n      iszero\n      tag_94\n      jumpi\n        /* \"--CODEGEN--\":30:31   */\n      0x00\n        /* \"--CODEGEN--\":27:28   */\n      dup1\n        /* \"--CODEGEN--\":20:32   */\n      revert\n        /* \"--CODEGEN--\":5:7   */\n    tag_94:\n        /* \"赛题-预赛/第四题/contracts/ERC20Detailed.sol\":872:959  function symbol() public view returns (string memory) {\r... */\n      pop\n      tag_95\n      tag_96\n      jump\t// in\n    tag_95:\n      mload(0x40)\n      dup1\n      dup1\n      0x20\n      add\n      dup3\n      dup2\n      sub\n      dup3\n      mstore\n      dup4\n      dup2\n      dup2\n      mload\n      dup2\n      mstore\n      0x20\n      add\n      swap2\n      pop\n      dup1\n      mload\n      swap1\n      0x20\n      add\n      swap1\n      dup1\n      dup4\n      dup4\n        /* \"--CODEGEN--\":23:24   */\n      0x00\n        /* \"--CODEGEN--\":8:108   */\n    tag_97:\n        /* \"--CODEGEN--\":33:36   */\n      dup4\n        /* \"--CODEGEN--\":30:31   */\n      dup2\n        /* \"--CODEGEN--\":27:37   */\n      lt\n        /* \"--CODEGEN--\":8:108   */\n      iszero\n      tag_99\n      jumpi\n        /* \"--CODEGEN--\":99:100   */\n      dup1\n        /* \"--CODEGEN--\":94:97   */\n      dup3\n        /* \"--CODEGEN--\":90:101   */\n      add\n        /* \"--CODEGEN--\":84:102   */\n      mload\n        /* \"--CODEGEN--\":80:81   */\n      dup2\n        /* \"--CODEGEN--\":75:78   */\n      dup5\n        /* \"--CODEGEN--\":71:82   */\n      add\n        /* \"--CODEGEN--\":64:103   */\n      mstore\n        /* \"--CODEGEN--\":52:54   */\n      0x20\n        /* \"--CODEGEN--\":49:50   */\n      dup2\n        /* \"--CODEGEN--\":45:55   */\n      add\n        /* \"--CODEGEN--\":40:55   */\n      swap1\n      pop\n        /* \"--CODEGEN--\":8:108   */\n      jump(tag_97)\n    tag_99:\n        /* \"--CODEGEN--\":12:26   */\n      pop\n        /* \"赛题-预赛/第四题/contracts/ERC20Detailed.sol\":872:959  function symbol() public view returns (string memory) {\r... */\n      pop\n      pop\n      pop\n      swap1\n      pop\n      swap1\n      dup2\n      add\n      swap1\n      0x1f\n      and\n      dup1\n      iszero\n      tag_100\n      jumpi\n      dup1\n      dup3\n      sub\n      dup1\n      mload\n      0x01\n      dup4\n      0x20\n      sub\n      0x0100\n      exp\n      sub\n      not\n      and\n      dup2\n      mstore\n      0x20\n      add\n      swap2\n      pop\n    tag_100:\n      pop\n      swap3\n      pop\n      pop\n      pop\n      mload(0x40)\n      dup1\n      swap2\n      sub\n      swap1\n      return\n        /* \"赛题-预赛/第四题/OwnerBuy.sol\":2831:2930  function isWhite(address addr) public view returns (bool) {\r... */\n    tag_18:\n      callvalue\n        /* \"--CODEGEN--\":8:17   */\n      dup1\n        /* \"--CODEGEN--\":5:7   */\n      iszero\n      tag_101\n      jumpi\n        /* \"--CODEGEN--\":30:31   */\n      0x00\n        /* \"--CODEGEN--\":27:28   */\n      dup1\n        /* \"--CODEGEN--\":20:32   */\n      revert\n        /* \"--CODEGEN--\":5:7   */\n    tag_101:\n        /* \"赛题-预赛/第四题/OwnerBuy.sol\":2831:2930  function isWhite(address addr) public view returns (bool) {\r... */\n      pop\n      tag_102\n      0x04\n      dup1\n      calldatasize\n      sub\n        /* \"--CODEGEN--\":13:15   */\n      0x20\n        /* \"--CODEGEN--\":8:11   */\n      dup2\n        /* \"--CODEGEN--\":5:16   */\n      lt\n        /* \"--CODEGEN--\":2:4   */\n      iszero\n      tag_103\n      jumpi\n        /* \"--CODEGEN--\":29:30   */\n      0x00\n        /* \"--CODEGEN--\":26:27   */\n      dup1\n        /* \"--CODEGEN--\":19:31   */\n      revert\n        /* \"--CODEGEN--\":2:4   */\n    tag_103:\n        /* \"赛题-预赛/第四题/OwnerBuy.sol\":2831:2930  function isWhite(address addr) public view returns (bool) {\r... */\n      dup2\n      add\n      swap1\n      dup1\n      dup1\n      calldataload\n      0xffffffffffffffffffffffffffffffffffffffff\n      and\n      swap1\n      0x20\n      add\n      swap1\n      swap3\n      swap2\n      swap1\n      pop\n      pop\n      pop\n      tag_104\n      jump\t// in\n    tag_102:\n      mload(0x40)\n      dup1\n      dup3\n      iszero\n      iszero\n      iszero\n      iszero\n      dup2\n      mstore\n      0x20\n      add\n      swap2\n      pop\n      pop\n      mload(0x40)\n      dup1\n      swap2\n      sub\n      swap1\n      return\n        /* \"赛题-预赛/第四题/contracts/ERC20.sol\":4529:4745  function decreaseAllowance(address spender, uint256 subtractedValue) public returns (bool) {\r... */\n    tag_19:\n      callvalue\n        /* \"--CODEGEN--\":8:17   */\n      dup1\n        /* \"--CODEGEN--\":5:7   */\n      iszero\n      tag_105\n      jumpi\n        /* \"--CODEGEN--\":30:31   */\n      0x00\n        /* \"--CODEGEN--\":27:28   */\n      dup1\n        /* \"--CODEGEN--\":20:32   */\n      revert\n        /* \"--CODEGEN--\":5:7   */\n    tag_105:\n        /* \"赛题-预赛/第四题/contracts/ERC20.sol\":4529:4745  function decreaseAllowance(address spender, uint256 subtractedValue) public returns (bool) {\r... */\n      pop\n      tag_106\n      0x04\n      dup1\n      calldatasize\n      sub\n        /* \"--CODEGEN--\":13:15   */\n      0x40\n        /* \"--CODEGEN--\":8:11   */\n      dup2\n        /* \"--CODEGEN--\":5:16   */\n      lt\n        /* \"--CODEGEN--\":2:4   */\n      iszero\n      tag_107\n      jumpi\n        /* \"--CODEGEN--\":29:30   */\n      0x00\n        /* \"--CODEGEN--\":26:27   */\n      dup1\n        /* \"--CODEGEN--\":19:31   */\n      revert\n        /* \"--CODEGEN--\":2:4   */\n    tag_107:\n        /* \"赛题-预赛/第四题/contracts/ERC20.sol\":4529:4745  function decreaseAllowance(address spender, uint256 subtractedValue) public returns (bool) {\r... */\n      dup2\n      add\n      swap1\n      dup1\n      dup1\n      calldataload\n      0xffffffffffffffffffffffffffffffffffffffff\n      and\n      swap1\n      0x20\n      add\n      swap1\n      swap3\n      swap2\n      swap1\n      dup1\n      calldataload\n      swap1\n      0x20\n      add\n      swap1\n      swap3\n      swap2\n      swap1\n      pop\n      pop\n      pop\n      tag_108\n      jump\t// in\n    tag_106:\n      mload(0x40)\n      dup1\n      dup3\n      iszero\n      iszero\n      iszero\n      iszero\n      dup2\n      mstore\n      0x20\n      add\n      swap2\n      pop\n      pop\n      mload(0x40)\n      dup1\n      swap2\n      sub\n      swap1\n      return\n        /* \"赛题-预赛/第四题/OwnerBuy.sol\":2325:2502  function unlock() external payable {\r... */\n    tag_20:\n      tag_109\n      tag_110\n      jump\t// in\n    tag_109:\n      stop\n        /* \"赛题-预赛/第四题/OwnerBuy.sol\":4123:4517  function buy() public payable returns (bool success) {\r... */\n    tag_21:\n      tag_111\n      tag_112\n      jump\t// in\n    tag_111:\n      mload(0x40)\n      dup1\n      dup3\n      iszero\n      iszero\n      iszero\n      iszero\n      dup2\n      mstore\n      0x20\n      add\n      swap2\n      pop\n      pop\n      mload(0x40)\n      dup1\n      swap2\n      sub\n      swap1\n      return\n        /* \"赛题-预赛/第四题/contracts/ERC20.sol\":2036:2192  function transfer(address recipient, uint256 amount) public returns (bool) {\r... */\n    tag_22:\n      callvalue\n        /* \"--CODEGEN--\":8:17   */\n      dup1\n        /* \"--CODEGEN--\":5:7   */\n      iszero\n      tag_113\n      jumpi\n        /* \"--CODEGEN--\":30:31   */\n      0x00\n        /* \"--CODEGEN--\":27:28   */\n      dup1\n        /* \"--CODEGEN--\":20:32   */\n      revert\n        /* \"--CODEGEN--\":5:7   */\n    tag_113:\n        /* \"赛题-预赛/第四题/contracts/ERC20.sol\":2036:2192  function transfer(address recipient, uint256 amount) public returns (bool) {\r... */\n      pop\n      tag_114\n      0x04\n      dup1\n      calldatasize\n      sub\n        /* \"--CODEGEN--\":13:15   */\n      0x40\n        /* \"--CODEGEN--\":8:11   */\n      dup2\n        /* \"--CODEGEN--\":5:16   */\n      lt\n        /* \"--CODEGEN--\":2:4   */\n      iszero\n      tag_115\n      jumpi\n        /* \"--CODEGEN--\":29:30   */\n      0x00\n        /* \"--CODEGEN--\":26:27   */\n      dup1\n        /* \"--CODEGEN--\":19:31   */\n      revert\n        /* \"--CODEGEN--\":2:4   */\n    tag_115:\n        /* \"赛题-预赛/第四题/contracts/ERC20.sol\":2036:2192  function transfer(address recipient, uint256 amount) public returns (bool) {\r... */\n      dup2\n      add\n      swap1\n      dup1\n      dup1\n      calldataload\n      0xffffffffffffffffffffffffffffffffffffffff\n      and\n      swap1\n      0x20\n      add\n      swap1\n      swap3\n      swap2\n      swap1\n      dup1\n      calldataload\n      swap1\n      0x20\n      add\n      swap1\n      swap3\n      swap2\n      swap1\n      pop\n      pop\n      pop\n      tag_116\n      jump\t// in\n    tag_114:\n      mload(0x40)\n      dup1\n      dup3\n      iszero\n      iszero\n      iszero\n      iszero\n      dup2\n      mstore\n      0x20\n      add\n      swap2\n      pop\n      pop\n      mload(0x40)\n      dup1\n      swap2\n      sub\n      swap1\n      return\n        /* \"赛题-预赛/第四题/OwnerBuy.sol\":283:304  address public _owner */\n    tag_23:\n      callvalue\n        /* \"--CODEGEN--\":8:17   */\n      dup1\n        /* \"--CODEGEN--\":5:7   */\n      iszero\n      tag_117\n      jumpi\n        /* \"--CODEGEN--\":30:31   */\n      0x00\n        /* \"--CODEGEN--\":27:28   */\n      dup1\n        /* \"--CODEGEN--\":20:32   */\n      revert\n        /* \"--CODEGEN--\":5:7   */\n    tag_117:\n        /* \"赛题-预赛/第四题/OwnerBuy.sol\":283:304  address public _owner */\n      pop\n      tag_118\n      tag_119\n      jump\t// in\n    tag_118:\n      mload(0x40)\n      dup1\n      dup3\n      0xffffffffffffffffffffffffffffffffffffffff\n      and\n      0xffffffffffffffffffffffffffffffffffffffff\n      and\n      dup2\n      mstore\n      0x20\n      add\n      swap2\n      pop\n      pop\n      mload(0x40)\n      dup1\n      swap2\n      sub\n      swap1\n      return\n        /* \"赛题-预赛/第四题/OwnerBuy.sol\":2938:3067  function setWhite(address addr) external onlyOwner returns (bool) {\r... */\n    tag_24:\n      callvalue\n        /* \"--CODEGEN--\":8:17   */\n      dup1\n        /* \"--CODEGEN--\":5:7   */\n      iszero\n      tag_120\n      jumpi\n        /* \"--CODEGEN--\":30:31   */\n      0x00\n        /* \"--CODEGEN--\":27:28   */\n      dup1\n        /* \"--CODEGEN--\":20:32   */\n      revert\n        /* \"--CODEGEN--\":5:7   */\n    tag_120:\n        /* \"赛题-预赛/第四题/OwnerBuy.sol\":2938:3067  function setWhite(address addr) external onlyOwner returns (bool) {\r... */\n      pop\n      tag_121\n      0x04\n      dup1\n      calldatasize\n      sub\n        /* \"--CODEGEN--\":13:15   */\n      0x20\n        /* \"--CODEGEN--\":8:11   */\n      dup2\n        /* \"--CODEGEN--\":5:16   */\n      lt\n        /* \"--CODEGEN--\":2:4   */\n      iszero\n      tag_122\n      jumpi\n        /* \"--CODEGEN--\":29:30   */\n      0x00\n        /* \"--CODEGEN--\":26:27   */\n      dup1\n        /* \"--CODEGEN--\":19:31   */\n      revert\n        /* \"--CODEGEN--\":2:4   */\n    tag_122:\n        /* \"赛题-预赛/第四题/OwnerBuy.sol\":2938:3067  function setWhite(address addr) external onlyOwner returns (bool) {\r... */\n      dup2\n      add\n      swap1\n      dup1\n      dup1\n      calldataload\n      0xffffffffffffffffffffffffffffffffffffffff\n      and\n      swap1\n      0x20\n      add\n      swap1\n      swap3\n      swap2\n      swap1\n      pop\n      pop\n      pop\n      tag_123\n      jump\t// in\n    tag_121:\n      mload(0x40)\n      dup1\n      dup3\n      iszero\n      iszero\n      iszero\n      iszero\n      dup2\n      mstore\n      0x20\n      add\n      swap2\n      pop\n      pop\n      mload(0x40)\n      dup1\n      swap2\n      sub\n      swap1\n      return\n        /* \"赛题-预赛/第四题/OwnerBuy.sol\":4990:5229  function finish() public onlyOwner returns (bool) {\r... */\n    tag_25:\n      callvalue\n        /* \"--CODEGEN--\":8:17   */\n      dup1\n        /* \"--CODEGEN--\":5:7   */\n      iszero\n      tag_124\n      jumpi\n        /* \"--CODEGEN--\":30:31   */\n      0x00\n        /* \"--CODEGEN--\":27:28   */\n      dup1\n        /* \"--CODEGEN--\":20:32   */\n      revert\n        /* \"--CODEGEN--\":5:7   */\n    tag_124:\n        /* \"赛题-预赛/第四题/OwnerBuy.sol\":4990:5229  function finish() public onlyOwner returns (bool) {\r... */\n      pop\n      tag_125\n      tag_126\n      jump\t// in\n    tag_125:\n      mload(0x40)\n      dup1\n      dup3\n      iszero\n      iszero\n      iszero\n      iszero\n      dup2\n      mstore\n      0x20\n      add\n      swap2\n      pop\n      pop\n      mload(0x40)\n      dup1\n      swap2\n      sub\n      swap1\n      return\n        /* \"赛题-预赛/第四题/contracts/ERC20.sol\":2255:2389  function allowance(address owner, address spender) public view returns (uint256) {\r... */\n    tag_26:\n      callvalue\n        /* \"--CODEGEN--\":8:17   */\n      dup1\n        /* \"--CODEGEN--\":5:7   */\n      iszero\n      tag_127\n      jumpi\n        /* \"--CODEGEN--\":30:31   */\n      0x00\n        /* \"--CODEGEN--\":27:28   */\n      dup1\n        /* \"--CODEGEN--\":20:32   */\n      revert\n        /* \"--CODEGEN--\":5:7   */\n    tag_127:\n        /* \"赛题-预赛/第四题/contracts/ERC20.sol\":2255:2389  function allowance(address owner, address spender) public view returns (uint256) {\r... */\n      pop\n      tag_128\n      0x04\n      dup1\n      calldatasize\n      sub\n        /* \"--CODEGEN--\":13:15   */\n      0x40\n        /* \"--CODEGEN--\":8:11   */\n      dup2\n        /* \"--CODEGEN--\":5:16   */\n      lt\n        /* \"--CODEGEN--\":2:4   */\n      iszero\n      tag_129\n      jumpi\n        /* \"--CODEGEN--\":29:30   */\n      0x00\n        /* \"--CODEGEN--\":26:27   */\n      dup1\n        /* \"--CODEGEN--\":19:31   */\n      revert\n        /* \"--CODEGEN--\":2:4   */\n    tag_129:\n        /* \"赛题-预赛/第四题/contracts/ERC20.sol\":2255:2389  function allowance(address owner, address spender) public view returns (uint256) {\r... */\n      dup2\n      add\n      swap1\n      dup1\n      dup1\n      calldataload\n      0xffffffffffffffffffffffffffffffffffffffff\n      and\n      swap1\n      0x20\n      add\n      swap1\n      swap3\n      swap2\n      swap1\n      dup1\n      calldataload\n      0xffffffffffffffffffffffffffffffffffffffff\n      and\n      swap1\n      0x20\n      add\n      swap1\n      swap3\n      swap2\n      swap1\n      pop\n      pop\n      pop\n      tag_130\n      jump\t// in\n    tag_128:\n      mload(0x40)\n      dup1\n      dup3\n      dup2\n      mstore\n      0x20\n      add\n      swap2\n      pop\n      pop\n      mload(0x40)\n      dup1\n      swap2\n      sub\n      swap1\n      return\n        /* \"赛题-预赛/第四题/OwnerBuy.sol\":4525:4982  function sell(uint256 _amount) public returns (bool success) {\r... */\n    tag_27:\n      callvalue\n        /* \"--CODEGEN--\":8:17   */\n      dup1\n        /* \"--CODEGEN--\":5:7   */\n      iszero\n      tag_131\n      jumpi\n        /* \"--CODEGEN--\":30:31   */\n      0x00\n        /* \"--CODEGEN--\":27:28   */\n      dup1\n        /* \"--CODEGEN--\":20:32   */\n      revert\n        /* \"--CODEGEN--\":5:7   */\n    tag_131:\n        /* \"赛题-预赛/第四题/OwnerBuy.sol\":4525:4982  function sell(uint256 _amount) public returns (bool success) {\r... */\n      pop\n      tag_132\n      0x04\n      dup1\n      calldatasize\n      sub\n        /* \"--CODEGEN--\":13:15   */\n      0x20\n        /* \"--CODEGEN--\":8:11   */\n      dup2\n        /* \"--CODEGEN--\":5:16   */\n      lt\n        /* \"--CODEGEN--\":2:4   */\n      iszero\n      tag_133\n      jumpi\n        /* \"--CODEGEN--\":29:30   */\n      0x00\n        /* \"--CODEGEN--\":26:27   */\n      dup1\n        /* \"--CODEGEN--\":19:31   */\n      revert\n        /* \"--CODEGEN--\":2:4   */\n    tag_133:\n        /* \"赛题-预赛/第四题/OwnerBuy.sol\":4525:4982  function sell(uint256 _amount) public returns (bool success) {\r... */\n      dup2\n      add\n      swap1\n      dup1\n      dup1\n      calldataload\n      swap1\n      0x20\n      add\n      swap1\n      swap3\n      swap2\n      swap1\n      pop\n      pop\n      pop\n      tag_134\n      jump\t// in\n    tag_132:\n      mload(0x40)\n      dup1\n      dup3\n      iszero\n      iszero\n      iszero\n      iszero\n      dup2\n      mstore\n      0x20\n      add\n      swap2\n      pop\n      pop\n      mload(0x40)\n      dup1\n      swap2\n      sub\n      swap1\n      return\n        /* \"赛题-预赛/第四题/OwnerBuy.sol\":1741:2016  function transferOwnership(address newOwner) public onlyOwner {\r... */\n    tag_28:\n      callvalue\n        /* \"--CODEGEN--\":8:17   */\n      dup1\n        /* \"--CODEGEN--\":5:7   */\n      iszero\n      tag_135\n      jumpi\n        /* \"--CODEGEN--\":30:31   */\n      0x00\n        /* \"--CODEGEN--\":27:28   */\n      dup1\n        /* \"--CODEGEN--\":20:32   */\n      revert\n        /* \"--CODEGEN--\":5:7   */\n    tag_135:\n        /* \"赛题-预赛/第四题/OwnerBuy.sol\":1741:2016  function transferOwnership(address newOwner) public onlyOwner {\r... */\n      pop\n      tag_136\n      0x04\n      dup1\n      calldatasize\n      sub\n        /* \"--CODEGEN--\":13:15   */\n      0x20\n        /* \"--CODEGEN--\":8:11   */\n      dup2\n        /* \"--CODEGEN--\":5:16   */\n      lt\n        /* \"--CODEGEN--\":2:4   */\n      iszero\n      tag_137\n      jumpi\n        /* \"--CODEGEN--\":29:30   */\n      0x00\n        /* \"--CODEGEN--\":26:27   */\n      dup1\n        /* \"--CODEGEN--\":19:31   */\n      revert\n        /* \"--CODEGEN--\":2:4   */\n    tag_137:\n        /* \"赛题-预赛/第四题/OwnerBuy.sol\":1741:2016  function transferOwnership(address newOwner) public onlyOwner {\r... */\n      dup2\n      add\n      swap1\n      dup1\n      dup1\n      calldataload\n      0xffffffffffffffffffffffffffffffffffffffff\n      and\n      swap1\n      0x20\n      add\n      swap1\n      swap3\n      swap2\n      swap1\n      pop\n      pop\n      pop\n      tag_138\n      jump\t// in\n    tag_136:\n      stop\n        /* \"赛题-预赛/第四题/OwnerBuy.sol\":2092:2253  function lock() public onlyOwner {\r... */\n    tag_29:\n      callvalue\n        /* \"--CODEGEN--\":8:17   */\n      dup1\n        /* \"--CODEGEN--\":5:7   */\n      iszero\n      tag_139\n      jumpi\n        /* \"--CODEGEN--\":30:31   */\n      0x00\n        /* \"--CODEGEN--\":27:28   */\n      dup1\n        /* \"--CODEGEN--\":20:32   */\n      revert\n        /* \"--CODEGEN--\":5:7   */\n    tag_139:\n        /* \"赛题-预赛/第四题/OwnerBuy.sol\":2092:2253  function lock() public onlyOwner {\r... */\n      pop\n      tag_140\n      tag_141\n      jump\t// in\n    tag_140:\n      stop\n        /* \"赛题-预赛/第四题/contracts/ERC20Detailed.sol\":670:753  function name() public view returns (string memory) {\r... */\n    tag_39:\n        /* \"赛题-预赛/第四题/contracts/ERC20Detailed.sol\":707:720  string memory */\n      0x60\n        /* \"赛题-预赛/第四题/contracts/ERC20Detailed.sol\":740:745  _name */\n      0x05\n        /* \"赛题-预赛/第四题/contracts/ERC20Detailed.sol\":733:745  return _name */\n      dup1\n      sload\n      0x01\n      dup2\n      0x01\n      and\n      iszero\n      0x0100\n      mul\n      sub\n      and\n      0x02\n      swap1\n      div\n      dup1\n      0x1f\n      add\n      0x20\n      dup1\n      swap2\n      div\n      mul\n      0x20\n      add\n      mload(0x40)\n      swap1\n      dup2\n      add\n      0x40\n      mstore\n      dup1\n      swap3\n      swap2\n      swap1\n      dup2\n      dup2\n      mstore\n      0x20\n      add\n      dup3\n      dup1\n      sload\n      0x01\n      dup2\n      0x01\n      and\n      iszero\n      0x0100\n      mul\n      sub\n      and\n      0x02\n      swap1\n      div\n      dup1\n      iszero\n      tag_143\n      jumpi\n      dup1\n      0x1f\n      lt\n      tag_144\n      jumpi\n      0x0100\n      dup1\n      dup4\n      sload\n      div\n      mul\n      dup4\n      mstore\n      swap2\n      0x20\n      add\n      swap2\n      jump(tag_143)\n    tag_144:\n      dup3\n      add\n      swap2\n      swap1\n      0x00\n      mstore\n      keccak256(0x00, 0x20)\n      swap1\n    tag_145:\n      dup2\n      sload\n      dup2\n      mstore\n      swap1\n      0x01\n      add\n      swap1\n      0x20\n      add\n      dup1\n      dup4\n      gt\n      tag_145\n      jumpi\n      dup3\n      swap1\n      sub\n      0x1f\n      and\n      dup3\n      add\n      swap2\n    tag_143:\n      pop\n      pop\n      pop\n      pop\n      pop\n      swap1\n      pop\n        /* \"赛题-预赛/第四题/contracts/ERC20Detailed.sol\":670:753  function name() public view returns (string memory) {\r... */\n      swap1\n      jump\t// out\n        /* \"赛题-预赛/第四题/contracts/ERC20.sol\":2536:2684  function approve(address spender, uint256 value) public returns (bool) {\r... */\n    tag_47:\n        /* \"赛题-预赛/第四题/contracts/ERC20.sol\":2601:2605  bool */\n      0x00\n        /* \"赛题-预赛/第四题/contracts/ERC20.sol\":2618:2654  _approve(msg.sender, spender, value) */\n      tag_147\n        /* \"赛题-预赛/第四题/contracts/ERC20.sol\":2627:2637  msg.sender */\n      caller\n        /* \"赛题-预赛/第四题/contracts/ERC20.sol\":2639:2646  spender */\n      dup5\n        /* \"赛题-预赛/第四题/contracts/ERC20.sol\":2648:2653  value */\n      dup5\n        /* \"赛题-预赛/第四题/contracts/ERC20.sol\":2618:2626  _approve */\n      tag_148\n        /* \"赛题-预赛/第四题/contracts/ERC20.sol\":2618:2654  _approve(msg.sender, spender, value) */\n      jump\t// in\n    tag_147:\n        /* \"赛题-预赛/第四题/contracts/ERC20.sol\":2672:2676  true */\n      0x01\n        /* \"赛题-预赛/第四题/contracts/ERC20.sol\":2665:2676  return true */\n      swap1\n      pop\n        /* \"赛题-预赛/第四题/contracts/ERC20.sol\":2536:2684  function approve(address spender, uint256 value) public returns (bool) {\r... */\n      swap3\n      swap2\n      pop\n      pop\n      jump\t// out\n        /* \"赛题-预赛/第四题/contracts/ERC20.sol\":1559:1650  function totalSupply() public view returns (uint256) {\r... */\n    tag_50:\n        /* \"赛题-预赛/第四题/contracts/ERC20.sol\":1603:1610  uint256 */\n      0x00\n        /* \"赛题-预赛/第四题/contracts/ERC20.sol\":1630:1642  _totalSupply */\n      sload(0x04)\n        /* \"赛题-预赛/第四题/contracts/ERC20.sol\":1623:1642  return _totalSupply */\n      swap1\n      pop\n        /* \"赛题-预赛/第四题/contracts/ERC20.sol\":1559:1650  function totalSupply() public view returns (uint256) {\r... */\n      swap1\n      jump\t// out\n        /* \"赛题-预赛/第四题/OwnerBuy.sol\":2612:2652  mapping(address => uint256) public Times */\n    tag_54:\n      mstore(0x20, 0x09)\n      dup1\n      0x00\n      mstore\n      keccak256(0x00, 0x40)\n      0x00\n      swap2\n      pop\n      swap1\n      pop\n      sload\n      dup2\n      jump\t// out\n        /* \"赛题-预赛/第四题/contracts/ERC20.sol\":3155:3411  function transferFrom(address sender, address recipient, uint256 amount) public returns (bool) {\r... */\n    tag_58:\n        /* \"赛题-预赛/第四题/contracts/ERC20.sol\":3244:3248  bool */\n      0x00\n        /* \"赛题-预赛/第四题/contracts/ERC20.sol\":3261:3297  _transfer(sender, recipient, amount) */\n      tag_151\n        /* \"赛题-预赛/第四题/contracts/ERC20.sol\":3271:3277  sender */\n      dup5\n        /* \"赛题-预赛/第四题/contracts/ERC20.sol\":3279:3288  recipient */\n      dup5\n        /* \"赛题-预赛/第四题/contracts/ERC20.sol\":3290:3296  amount */\n      dup5\n        /* \"赛题-预赛/第四题/contracts/ERC20.sol\":3261:3270  _transfer */\n      tag_152\n        /* \"赛题-预赛/第四题/contracts/ERC20.sol\":3261:3297  _transfer(sender, recipient, amount) */\n      jump\t// in\n    tag_151:\n        /* \"赛题-预赛/第四题/contracts/ERC20.sol\":3308:3381  _approve(sender, msg.sender, _allowances[sender][msg.sender].sub(amount)) */\n      tag_153\n        /* \"赛题-预赛/第四题/contracts/ERC20.sol\":3317:3323  sender */\n      dup5\n        /* \"赛题-预赛/第四题/contracts/ERC20.sol\":3325:3335  msg.sender */\n      caller\n        /* \"赛题-预赛/第四题/contracts/ERC20.sol\":3337:3380  _allowances[sender][msg.sender].sub(amount) */\n      tag_154\n        /* \"赛题-预赛/第四题/contracts/ERC20.sol\":3373:3379  amount */\n      dup6\n        /* \"赛题-预赛/第四题/contracts/ERC20.sol\":3337:3348  _allowances */\n      0x03\n        /* \"赛题-预赛/第四题/contracts/ERC20.sol\":3337:3356  _allowances[sender] */\n      0x00\n        /* \"赛题-预赛/第四题/contracts/ERC20.sol\":3349:3355  sender */\n      dup11\n        /* \"赛题-预赛/第四题/contracts/ERC20.sol\":3337:3356  _allowances[sender] */\n      0xffffffffffffffffffffffffffffffffffffffff\n      and\n      0xffffffffffffffffffffffffffffffffffffffff\n      and\n      dup2\n      mstore\n      0x20\n      add\n      swap1\n      dup2\n      mstore\n      0x20\n      add\n      0x00\n      keccak256\n        /* \"赛题-预赛/第四题/contracts/ERC20.sol\":3337:3368  _allowances[sender][msg.sender] */\n      0x00\n        /* \"赛题-预赛/第四题/contracts/ERC20.sol\":3357:3367  msg.sender */\n      caller\n        /* \"赛题-预赛/第四题/contracts/ERC20.sol\":3337:3368  _allowances[sender][msg.sender] */\n      0xffffffffffffffffffffffffffffffffffffffff\n      and\n      0xffffffffffffffffffffffffffffffffffffffff\n      and\n      dup2\n      mstore\n      0x20\n      add\n      swap1\n      dup2\n      mstore\n      0x20\n      add\n      0x00\n      keccak256\n      sload\n        /* \"赛题-预赛/第四题/contracts/ERC20.sol\":3337:3372  _allowances[sender][msg.sender].sub */\n      tag_155\n      swap1\n        /* \"赛题-预赛/第四题/contracts/ERC20.sol\":3337:3380  _allowances[sender][msg.sender].sub(amount) */\n      swap2\n      swap1\n      0xffffffff\n      and\n      jump\t// in\n    tag_154:\n        /* \"赛题-预赛/第四题/contracts/ERC20.sol\":3308:3316  _approve */\n      tag_148\n        /* \"赛题-预赛/第四题/contracts/ERC20.sol\":3308:3381  _approve(sender, msg.sender, _allowances[sender][msg.sender].sub(amount)) */\n      jump\t// in\n    tag_153:\n        /* \"赛题-预赛/第四题/contracts/ERC20.sol\":3399:3403  true */\n      0x01\n        /* \"赛题-预赛/第四题/contracts/ERC20.sol\":3392:3403  return true */\n      swap1\n      pop\n        /* \"赛题-预赛/第四题/contracts/ERC20.sol\":3155:3411  function transferFrom(address sender, address recipient, uint256 amount) public returns (bool) {\r... */\n      swap4\n      swap3\n      pop\n      pop\n      pop\n      jump\t// out\n        /* \"赛题-预赛/第四题/contracts/ERC20Detailed.sol\":1522:1605  function decimals() public view returns (uint8) {\r... */\n    tag_61:\n        /* \"赛题-预赛/第四题/contracts/ERC20Detailed.sol\":1563:1568  uint8 */\n      0x00\n        /* \"赛题-预赛/第四题/contracts/ERC20Detailed.sol\":1588:1597  _decimals */\n      0x07\n      0x00\n      swap1\n      sload\n      swap1\n      0x0100\n      exp\n      swap1\n      div\n      0xff\n      and\n        /* \"赛题-预赛/第四题/contracts/ERC20Detailed.sol\":1581:1597  return _decimals */\n      swap1\n      pop\n        /* \"赛题-预赛/第四题/contracts/ERC20Detailed.sol\":1522:1605  function decimals() public view returns (uint8) {\r... */\n      swap1\n      jump\t// out\n        /* \"赛题-预赛/第四题/contracts/ERC20.sol\":3820:4026  function increaseAllowance(address spender, uint256 addedValue) public returns (bool) {\r... */\n    tag_65:\n        /* \"赛题-预赛/第四题/contracts/ERC20.sol\":3900:3904  bool */\n      0x00\n        /* \"赛题-预赛/第四题/contracts/ERC20.sol\":3917:3996  _approve(msg.sender, spender, _allowances[msg.sender][spender].add(addedValue)) */\n      tag_158\n        /* \"赛题-预赛/第四题/contracts/ERC20.sol\":3926:3936  msg.sender */\n      caller\n        /* \"赛题-预赛/第四题/contracts/ERC20.sol\":3938:3945  spender */\n      dup5\n        /* \"赛题-预赛/第四题/contracts/ERC20.sol\":3947:3995  _allowances[msg.sender][spender].add(addedValue) */\n      tag_159\n        /* \"赛题-预赛/第四题/contracts/ERC20.sol\":3984:3994  addedValue */\n      dup6\n        /* \"赛题-预赛/第四题/contracts/ERC20.sol\":3947:3958  _allowances */\n      0x03\n        /* \"赛题-预赛/第四题/contracts/ERC20.sol\":3947:3970  _allowances[msg.sender] */\n      0x00\n        /* \"赛题-预赛/第四题/contracts/ERC20.sol\":3959:3969  msg.sender */\n      caller\n        /* \"赛题-预赛/第四题/contracts/ERC20.sol\":3947:3970  _allowances[msg.sender] */\n      0xffffffffffffffffffffffffffffffffffffffff\n      and\n      0xffffffffffffffffffffffffffffffffffffffff\n      and\n      dup2\n      mstore\n      0x20\n      add\n      swap1\n      dup2\n      mstore\n      0x20\n      add\n      0x00\n      keccak256\n        /* \"赛题-预赛/第四题/contracts/ERC20.sol\":3947:3979  _allowances[msg.sender][spender] */\n      0x00\n        /* \"赛题-预赛/第四题/contracts/ERC20.sol\":3971:3978  spender */\n      dup10\n        /* \"赛题-预赛/第四题/contracts/ERC20.sol\":3947:3979  _allowances[msg.sender][spender] */\n      0xffffffffffffffffffffffffffffffffffffffff\n      and\n      0xffffffffffffffffffffffffffffffffffffffff\n      and\n      dup2\n      mstore\n      0x20\n      add\n      swap1\n      dup2\n      mstore\n      0x20\n      add\n      0x00\n      keccak256\n      sload\n        /* \"赛题-预赛/第四题/contracts/ERC20.sol\":3947:3983  _allowances[msg.sender][spender].add */\n      tag_160\n      swap1\n        /* \"赛题-预赛/第四题/contracts/ERC20.sol\":3947:3995  _allowances[msg.sender][spender].add(addedValue) */\n      swap2\n      swap1\n      0xffffffff\n      and\n      jump\t// in\n    tag_159:\n        /* \"赛题-预赛/第四题/contracts/ERC20.sol\":3917:3925  _approve */\n      tag_148\n        /* \"赛题-预赛/第四题/contracts/ERC20.sol\":3917:3996  _approve(msg.sender, spender, _allowances[msg.sender][spender].add(addedValue)) */\n      jump\t// in\n    tag_158:\n        /* \"赛题-预赛/第四题/contracts/ERC20.sol\":4014:4018  true */\n      0x01\n        /* \"赛题-预赛/第四题/contracts/ERC20.sol\":4007:4018  return true */\n      swap1\n      pop\n        /* \"赛题-预赛/第四题/contracts/ERC20.sol\":3820:4026  function increaseAllowance(address spender, uint256 addedValue) public returns (bool) {\r... */\n      swap3\n      swap2\n      pop\n      pop\n      jump\t// out\n        /* \"赛题-预赛/第四题/OwnerBuy.sol\":3075:3207  function unsetWhite(address addr) external onlyOwner returns (bool) {\r... */\n    tag_69:\n        /* \"赛题-预赛/第四题/OwnerBuy.sol\":3137:3141  bool */\n      0x00\n        /* \"赛题-预赛/第四题/OwnerBuy.sol\":1028:1038  msg.sender */\n      caller\n        /* \"赛题-预赛/第四题/OwnerBuy.sol\":1018:1038  _owner == msg.sender */\n      0xffffffffffffffffffffffffffffffffffffffff\n      and\n        /* \"赛题-预赛/第四题/OwnerBuy.sol\":1018:1024  _owner */\n      0x00\n      dup1\n      swap1\n      sload\n      swap1\n      0x0100\n      exp\n      swap1\n      div\n      0xffffffffffffffffffffffffffffffffffffffff\n      and\n        /* \"赛题-预赛/第四题/OwnerBuy.sol\":1018:1038  _owner == msg.sender */\n      0xffffffffffffffffffffffffffffffffffffffff\n      and\n      eq\n        /* \"赛题-预赛/第四题/OwnerBuy.sol\":1010:1075  require(_owner == msg.sender, \"Ownable: caller is not the owner\") */\n      tag_162\n      jumpi\n      mload(0x40)\n      0x08c379a000000000000000000000000000000000000000000000000000000000\n      dup2\n      mstore\n      0x04\n      add\n      dup1\n      dup1\n      0x20\n      add\n      dup3\n      dup2\n      sub\n      dup3\n      mstore\n      0x20\n      dup2\n      mstore\n      0x20\n      add\n      dup1\n      0x4f776e61626c653a2063616c6c6572206973206e6f7420746865206f776e6572\n      dup2\n      mstore\n      pop\n      0x20\n      add\n      swap2\n      pop\n      pop\n      mload(0x40)\n      dup1\n      swap2\n      sub\n      swap1\n      revert\n    tag_162:\n        /* \"赛题-预赛/第四题/OwnerBuy.sol\":3172:3177  false */\n      0x00\n        /* \"赛题-预赛/第四题/OwnerBuy.sol\":3154:3163  whiteList */\n      0x0a\n        /* \"赛题-预赛/第四题/OwnerBuy.sol\":3154:3169  whiteList[addr] */\n      0x00\n        /* \"赛题-预赛/第四题/OwnerBuy.sol\":3164:3168  addr */\n      dup5\n        /* \"赛题-预赛/第四题/OwnerBuy.sol\":3154:3169  whiteList[addr] */\n      0xffffffffffffffffffffffffffffffffffffffff\n      and\n      0xffffffffffffffffffffffffffffffffffffffff\n      and\n      dup2\n      mstore\n      0x20\n      add\n      swap1\n      dup2\n      mstore\n      0x20\n      add\n      0x00\n      keccak256\n      0x00\n        /* \"赛题-预赛/第四题/OwnerBuy.sol\":3154:3177  whiteList[addr] = false */\n      0x0100\n      exp\n      dup2\n      sload\n      dup2\n      0xff\n      mul\n      not\n      and\n      swap1\n      dup4\n      iszero\n      iszero\n      mul\n      or\n      swap1\n      sstore\n      pop\n        /* \"赛题-预赛/第四题/OwnerBuy.sol\":3195:3199  true */\n      0x01\n        /* \"赛题-预赛/第四题/OwnerBuy.sol\":3188:3199  return true */\n      swap1\n      pop\n        /* \"赛题-预赛/第四题/OwnerBuy.sol\":3075:3207  function unsetWhite(address addr) external onlyOwner returns (bool) {\r... */\n      swap2\n      swap1\n      pop\n      jump\t// out\n        /* \"赛题-预赛/第四题/OwnerBuy.sol\":3640:3842  function changestatus(address _owner) public {\r... */\n    tag_73:\n        /* \"赛题-预赛/第四题/OwnerBuy.sol\":3696:3708  Changing tmp */\n      0x00\n        /* \"赛题-预赛/第四题/OwnerBuy.sol\":3720:3730  msg.sender */\n      caller\n        /* \"赛题-预赛/第四题/OwnerBuy.sol\":3696:3731  Changing tmp = Changing(msg.sender) */\n      swap1\n      pop\n        /* \"赛题-预赛/第四题/OwnerBuy.sol\":3747:3750  tmp */\n      dup1\n        /* \"赛题-预赛/第四题/OwnerBuy.sol\":3747:3758  tmp.isOwner */\n      0xffffffffffffffffffffffffffffffffffffffff\n      and\n      0x2f54bf6e\n        /* \"赛题-预赛/第四题/OwnerBuy.sol\":3759:3765  _owner */\n      dup4\n        /* \"赛题-预赛/第四题/OwnerBuy.sol\":3747:3766  tmp.isOwner(_owner) */\n      mload(0x40)\n      dup3\n      0xffffffff\n      and\n      0xe0\n      shl\n      dup2\n      mstore\n      0x04\n      add\n      dup1\n      dup3\n      0xffffffffffffffffffffffffffffffffffffffff\n      and\n      0xffffffffffffffffffffffffffffffffffffffff\n      and\n      dup2\n      mstore\n      0x20\n      add\n      swap2\n      pop\n      pop\n      0x20\n      mload(0x40)\n      dup1\n      dup4\n      sub\n      dup2\n      0x00\n      dup8\n      dup1\n      extcodesize\n      iszero\n        /* \"--CODEGEN--\":8:17   */\n      dup1\n        /* \"--CODEGEN--\":5:7   */\n      iszero\n      tag_165\n      jumpi\n        /* \"--CODEGEN--\":30:31   */\n      0x00\n        /* \"--CODEGEN--\":27:28   */\n      dup1\n        /* \"--CODEGEN--\":20:32   */\n      revert\n        /* \"--CODEGEN--\":5:7   */\n    tag_165:\n        /* \"赛题-预赛/第四题/OwnerBuy.sol\":3747:3766  tmp.isOwner(_owner) */\n      pop\n      gas\n      call\n      iszero\n        /* \"--CODEGEN--\":8:17   */\n      dup1\n        /* \"--CODEGEN--\":5:7   */\n      iszero\n      tag_166\n      jumpi\n        /* \"--CODEGEN--\":45:61   */\n      returndatasize\n        /* \"--CODEGEN--\":42:43   */\n      0x00\n        /* \"--CODEGEN--\":39:40   */\n      dup1\n        /* \"--CODEGEN--\":24:62   */\n      returndatacopy\n        /* \"--CODEGEN--\":77:93   */\n      returndatasize\n        /* \"--CODEGEN--\":74:75   */\n      0x00\n        /* \"--CODEGEN--\":67:94   */\n      revert\n        /* \"--CODEGEN--\":5:7   */\n    tag_166:\n        /* \"赛题-预赛/第四题/OwnerBuy.sol\":3747:3766  tmp.isOwner(_owner) */\n      pop\n      pop\n      pop\n      pop\n      mload(0x40)\n      returndatasize\n        /* \"--CODEGEN--\":13:15   */\n      0x20\n        /* \"--CODEGEN--\":8:11   */\n      dup2\n        /* \"--CODEGEN--\":5:16   */\n      lt\n        /* \"--CODEGEN--\":2:4   */\n      iszero\n      tag_167\n      jumpi\n        /* \"--CODEGEN--\":29:30   */\n      0x00\n        /* \"--CODEGEN--\":26:27   */\n      dup1\n        /* \"--CODEGEN--\":19:31   */\n      revert\n        /* \"--CODEGEN--\":2:4   */\n    tag_167:\n        /* \"赛题-预赛/第四题/OwnerBuy.sol\":3747:3766  tmp.isOwner(_owner) */\n      dup2\n      add\n      swap1\n      dup1\n      dup1\n      mload\n      swap1\n      0x20\n      add\n      swap1\n      swap3\n      swap2\n      swap1\n      pop\n      pop\n      pop\n        /* \"赛题-预赛/第四题/OwnerBuy.sol\":3742:3835  if (!tmp.isOwner(_owner)) {\r... */\n      tag_168\n      jumpi\n        /* \"赛题-预赛/第四题/OwnerBuy.sol\":3804:3807  tmp */\n      dup1\n        /* \"赛题-预赛/第四题/OwnerBuy.sol\":3804:3815  tmp.isOwner */\n      0xffffffffffffffffffffffffffffffffffffffff\n      and\n      0x2f54bf6e\n        /* \"赛题-预赛/第四题/OwnerBuy.sol\":3816:3822  _owner */\n      dup4\n        /* \"赛题-预赛/第四题/OwnerBuy.sol\":3804:3823  tmp.isOwner(_owner) */\n      mload(0x40)\n      dup3\n      0xffffffff\n      and\n      0xe0\n      shl\n      dup2\n      mstore\n      0x04\n      add\n      dup1\n      dup3\n      0xffffffffffffffffffffffffffffffffffffffff\n      and\n      0xffffffffffffffffffffffffffffffffffffffff\n      and\n      dup2\n      mstore\n      0x20\n      add\n      swap2\n      pop\n      pop\n      0x20\n      mload(0x40)\n      dup1\n      dup4\n      sub\n      dup2\n      0x00\n      dup8\n      dup1\n      extcodesize\n      iszero\n        /* \"--CODEGEN--\":8:17   */\n      dup1\n        /* \"--CODEGEN--\":5:7   */\n      iszero\n      tag_169\n      jumpi\n        /* \"--CODEGEN--\":30:31   */\n      0x00\n        /* \"--CODEGEN--\":27:28   */\n      dup1\n        /* \"--CODEGEN--\":20:32   */\n      revert\n        /* \"--CODEGEN--\":5:7   */\n    tag_169:\n        /* \"赛题-预赛/第四题/OwnerBuy.sol\":3804:3823  tmp.isOwner(_owner) */\n      pop\n      gas\n      call\n      iszero\n        /* \"--CODEGEN--\":8:17   */\n      dup1\n        /* \"--CODEGEN--\":5:7   */\n      iszero\n      tag_170\n      jumpi\n        /* \"--CODEGEN--\":45:61   */\n      returndatasize\n        /* \"--CODEGEN--\":42:43   */\n      0x00\n        /* \"--CODEGEN--\":39:40   */\n      dup1\n        /* \"--CODEGEN--\":24:62   */\n      returndatacopy\n        /* \"--CODEGEN--\":77:93   */\n      returndatasize\n        /* \"--CODEGEN--\":74:75   */\n      0x00\n        /* \"--CODEGEN--\":67:94   */\n      revert\n        /* \"--CODEGEN--\":5:7   */\n    tag_170:\n        /* \"赛题-预赛/第四题/OwnerBuy.sol\":3804:3823  tmp.isOwner(_owner) */\n      pop\n      pop\n      pop\n      pop\n      mload(0x40)\n      returndatasize\n        /* \"--CODEGEN--\":13:15   */\n      0x20\n        /* \"--CODEGEN--\":8:11   */\n      dup2\n        /* \"--CODEGEN--\":5:16   */\n      lt\n        /* \"--CODEGEN--\":2:4   */\n      iszero\n      tag_171\n      jumpi\n        /* \"--CODEGEN--\":29:30   */\n      0x00\n        /* \"--CODEGEN--\":26:27   */\n      dup1\n        /* \"--CODEGEN--\":19:31   */\n      revert\n        /* \"--CODEGEN--\":2:4   */\n    tag_171:\n        /* \"赛题-预赛/第四题/OwnerBuy.sol\":3804:3823  tmp.isOwner(_owner) */\n      dup2\n      add\n      swap1\n      dup1\n      dup1\n      mload\n      swap1\n      0x20\n      add\n      swap1\n      swap3\n      swap2\n      swap1\n      pop\n      pop\n      pop\n        /* \"赛题-预赛/第四题/OwnerBuy.sol\":3783:3789  status */\n      0x08\n        /* \"赛题-预赛/第四题/OwnerBuy.sol\":3783:3801  status[msg.sender] */\n      0x00\n        /* \"赛题-预赛/第四题/OwnerBuy.sol\":3790:3800  msg.sender */\n      caller\n        /* \"赛题-预赛/第四题/OwnerBuy.sol\":3783:3801  status[msg.sender] */\n      0xffffffffffffffffffffffffffffffffffffffff\n      and\n      0xffffffffffffffffffffffffffffffffffffffff\n      and\n      dup2\n      mstore\n      0x20\n      add\n      swap1\n      dup2\n      mstore\n      0x20\n      add\n      0x00\n      keccak256\n      0x00\n        /* \"赛题-预赛/第四题/OwnerBuy.sol\":3783:3823  status[msg.sender] = tmp.isOwner(_owner) */\n      0x0100\n      exp\n      dup2\n      sload\n      dup2\n      0xff\n      mul\n      not\n      and\n      swap1\n      dup4\n      iszero\n      iszero\n      mul\n      or\n      swap1\n      sstore\n      pop\n        /* \"赛题-预赛/第四题/OwnerBuy.sol\":3742:3835  if (!tmp.isOwner(_owner)) {\r... */\n    tag_168:\n        /* \"赛题-预赛/第四题/OwnerBuy.sol\":3640:3842  function changestatus(address _owner) public {\r... */\n      pop\n      pop\n      jump\t// out\n        /* \"赛题-预赛/第四题/OwnerBuy.sol\":3850:4115  function changeOwner() public {\r... */\n    tag_76:\n        /* \"赛题-预赛/第四题/OwnerBuy.sol\":3912:3922  msg.sender */\n      caller\n        /* \"赛题-预赛/第四题/OwnerBuy.sol\":3899:3922  tx.origin != msg.sender */\n      0xffffffffffffffffffffffffffffffffffffffff\n      and\n        /* \"赛题-预赛/第四题/OwnerBuy.sol\":3899:3908  tx.origin */\n      origin\n        /* \"赛题-预赛/第四题/OwnerBuy.sol\":3899:3922  tx.origin != msg.sender */\n      0xffffffffffffffffffffffffffffffffffffffff\n      and\n      eq\n      iszero\n        /* \"赛题-预赛/第四题/OwnerBuy.sol\":3891:3923  require(tx.origin != msg.sender) */\n      tag_173\n      jumpi\n      0x00\n      dup1\n      revert\n    tag_173:\n        /* \"赛题-预赛/第四题/OwnerBuy.sol\":3971:3977  0xffff */\n      0xffff\n        /* \"赛题-预赛/第四题/OwnerBuy.sol\":3961:3967  0xffff */\n      dup1\n        /* \"赛题-预赛/第四题/OwnerBuy.sol\":3947:3957  msg.sender */\n      caller\n        /* \"赛题-预赛/第四题/OwnerBuy.sol\":3942:3958  uint(msg.sender) */\n      0xffffffffffffffffffffffffffffffffffffffff\n      and\n        /* \"赛题-预赛/第四题/OwnerBuy.sol\":3942:3967  uint(msg.sender) & 0xffff */\n      and\n        /* \"赛题-预赛/第四题/OwnerBuy.sol\":3942:3977  uint(msg.sender) & 0xffff == 0xffff */\n      eq\n        /* \"赛题-预赛/第四题/OwnerBuy.sol\":3934:3978  require(uint(msg.sender) & 0xffff == 0xffff) */\n      tag_174\n      jumpi\n      0x00\n      dup1\n      revert\n    tag_174:\n        /* \"赛题-预赛/第四题/OwnerBuy.sol\":4015:4019  true */\n      0x01\n        /* \"赛题-预赛/第四题/OwnerBuy.sol\":3993:4019  status[msg.sender] == true */\n      iszero\n      iszero\n        /* \"赛题-预赛/第四题/OwnerBuy.sol\":3993:3999  status */\n      0x08\n        /* \"赛题-预赛/第四题/OwnerBuy.sol\":3993:4011  status[msg.sender] */\n      0x00\n        /* \"赛题-预赛/第四题/OwnerBuy.sol\":4000:4010  msg.sender */\n      caller\n        /* \"赛题-预赛/第四题/OwnerBuy.sol\":3993:4011  status[msg.sender] */\n      0xffffffffffffffffffffffffffffffffffffffff\n      and\n      0xffffffffffffffffffffffffffffffffffffffff\n      and\n      dup2\n      mstore\n      0x20\n      add\n      swap1\n      dup2\n      mstore\n      0x20\n      add\n      0x00\n      keccak256\n      0x00\n      swap1\n      sload\n      swap1\n      0x0100\n      exp\n      swap1\n      div\n      0xff\n      and\n        /* \"赛题-预赛/第四题/OwnerBuy.sol\":3993:4019  status[msg.sender] == true */\n      iszero\n      iszero\n      eq\n        /* \"赛题-预赛/第四题/OwnerBuy.sol\":3989:4108  if (status[msg.sender] == true) {\r... */\n      iszero\n      tag_175\n      jumpi\n        /* \"赛题-预赛/第四题/OwnerBuy.sol\":4057:4062  false */\n      0x00\n        /* \"赛题-预赛/第四题/OwnerBuy.sol\":4036:4042  status */\n      0x08\n        /* \"赛题-预赛/第四题/OwnerBuy.sol\":4036:4054  status[msg.sender] */\n      0x00\n        /* \"赛题-预赛/第四题/OwnerBuy.sol\":4043:4053  msg.sender */\n      caller\n        /* \"赛题-预赛/第四题/OwnerBuy.sol\":4036:4054  status[msg.sender] */\n      0xffffffffffffffffffffffffffffffffffffffff\n      and\n      0xffffffffffffffffffffffffffffffffffffffff\n      and\n      dup2\n      mstore\n      0x20\n      add\n      swap1\n      dup2\n      mstore\n      0x20\n      add\n      0x00\n      keccak256\n      0x00\n        /* \"赛题-预赛/第四题/OwnerBuy.sol\":4036:4062  status[msg.sender] = false */\n      0x0100\n      exp\n      dup2\n      sload\n      dup2\n      0xff\n      mul\n      not\n      and\n      swap1\n      dup4\n      iszero\n      iszero\n      mul\n      or\n      swap1\n      sstore\n      pop\n        /* \"赛题-预赛/第四题/OwnerBuy.sol\":4086:4096  msg.sender */\n      caller\n        /* \"赛题-预赛/第四题/OwnerBuy.sol\":4077:4083  _owner */\n      0x00\n      dup1\n        /* \"赛题-预赛/第四题/OwnerBuy.sol\":4077:4096  _owner = msg.sender */\n      0x0100\n      exp\n      dup2\n      sload\n      dup2\n      0xffffffffffffffffffffffffffffffffffffffff\n      mul\n      not\n      and\n      swap1\n      dup4\n      0xffffffffffffffffffffffffffffffffffffffff\n      and\n      mul\n      or\n      swap1\n      sstore\n      pop\n        /* \"赛题-预赛/第四题/OwnerBuy.sol\":3989:4108  if (status[msg.sender] == true) {\r... */\n    tag_175:\n        /* \"赛题-预赛/第四题/OwnerBuy.sol\":3850:4115  function changeOwner() public {\r... */\n      jump\t// out\n        /* \"赛题-预赛/第四题/OwnerBuy.sol\":2567:2605  mapping(address => bool) public status */\n    tag_80:\n      mstore(0x20, 0x08)\n      dup1\n      0x00\n      mstore\n      keccak256(0x00, 0x40)\n      0x00\n      swap2\n      pop\n      sload\n      swap1\n      0x0100\n      exp\n      swap1\n      div\n      0xff\n      and\n      dup2\n      jump\t// out\n        /* \"赛题-预赛/第四题/OwnerBuy.sol\":311:340  address public _previousOwner */\n    tag_83:\n      0x01\n      0x00\n      swap1\n      sload\n      swap1\n      0x0100\n      exp\n      swap1\n      div\n      0xffffffffffffffffffffffffffffffffffffffff\n      and\n      dup2\n      jump\t// out\n        /* \"赛题-预赛/第四题/contracts/ERC20.sol\":1713:1823  function balanceOf(address account) public view returns (uint256) {\r... */\n    tag_87:\n        /* \"赛题-预赛/第四题/contracts/ERC20.sol\":1770:1777  uint256 */\n      0x00\n        /* \"赛题-预赛/第四题/contracts/ERC20.sol\":1797:1806  _balances */\n      0x02\n        /* \"赛题-预赛/第四题/contracts/ERC20.sol\":1797:1815  _balances[account] */\n      0x00\n        /* \"赛题-预赛/第四题/contracts/ERC20.sol\":1807:1814  account */\n      dup4\n        /* \"赛题-预赛/第四题/contracts/ERC20.sol\":1797:1815  _balances[account] */\n      0xffffffffffffffffffffffffffffffffffffffff\n      and\n      0xffffffffffffffffffffffffffffffffffffffff\n      and\n      dup2\n      mstore\n      0x20\n      add\n      swap1\n      dup2\n      mstore\n      0x20\n      add\n      0x00\n      keccak256\n      sload\n        /* \"赛题-预赛/第四题/contracts/ERC20.sol\":1790:1815  return _balances[account] */\n      swap1\n      pop\n        /* \"赛题-预赛/第四题/contracts/ERC20.sol\":1713:1823  function balanceOf(address account) public view returns (uint256) {\r... */\n      swap2\n      swap1\n      pop\n      jump\t// out\n        /* \"赛题-预赛/第四题/OwnerBuy.sol\":1446:1586  function renounceOwnership() public onlyOwner {\r... */\n    tag_90:\n        /* \"赛题-预赛/第四题/OwnerBuy.sol\":1028:1038  msg.sender */\n      caller\n        /* \"赛题-预赛/第四题/OwnerBuy.sol\":1018:1038  _owner == msg.sender */\n      0xffffffffffffffffffffffffffffffffffffffff\n      and\n        /* \"赛题-预赛/第四题/OwnerBuy.sol\":1018:1024  _owner */\n      0x00\n      dup1\n      swap1\n      sload\n      swap1\n      0x0100\n      exp\n      swap1\n      div\n      0xffffffffffffffffffffffffffffffffffffffff\n      and\n        /* \"赛题-预赛/第四题/OwnerBuy.sol\":1018:1038  _owner == msg.sender */\n      0xffffffffffffffffffffffffffffffffffffffff\n      and\n      eq\n        /* \"赛题-预赛/第四题/OwnerBuy.sol\":1010:1075  require(_owner == msg.sender, \"Ownable: caller is not the owner\") */\n      tag_178\n      jumpi\n      mload(0x40)\n      0x08c379a000000000000000000000000000000000000000000000000000000000\n      dup2\n      mstore\n      0x04\n      add\n      dup1\n      dup1\n      0x20\n      add\n      dup3\n      dup2\n      sub\n      dup3\n      mstore\n      0x20\n      dup2\n      mstore\n      0x20\n      add\n      dup1\n      0x4f776e61626c653a2063616c6c6572206973206e6f7420746865206f776e6572\n      dup2\n      mstore\n      pop\n      0x20\n      add\n      swap2\n      pop\n      pop\n      mload(0x40)\n      dup1\n      swap2\n      sub\n      swap1\n      revert\n    tag_178:\n        /* \"赛题-预赛/第四题/OwnerBuy.sol\":1545:1546  0 */\n      0x00\n        /* \"赛题-预赛/第四题/OwnerBuy.sol\":1508:1548  OwnershipTransferred(_owner, address(0)) */\n      0xffffffffffffffffffffffffffffffffffffffff\n      and\n        /* \"赛题-预赛/第四题/OwnerBuy.sol\":1529:1535  _owner */\n      0x00\n      dup1\n      swap1\n      sload\n      swap1\n      0x0100\n      exp\n      swap1\n      div\n      0xffffffffffffffffffffffffffffffffffffffff\n      and\n        /* \"赛题-预赛/第四题/OwnerBuy.sol\":1508:1548  OwnershipTransferred(_owner, address(0)) */\n      0xffffffffffffffffffffffffffffffffffffffff\n      and\n      0x8be0079c531659141344cd1fd0a4f28419497f9722a3daafe3b4186f6b6457e0\n      mload(0x40)\n      mload(0x40)\n      dup1\n      swap2\n      sub\n      swap1\n      log3\n        /* \"赛题-预赛/第四题/OwnerBuy.sol\":1576:1577  0 */\n      0x00\n        /* \"赛题-预赛/第四题/OwnerBuy.sol\":1559:1565  _owner */\n      dup1\n      0x00\n        /* \"赛题-预赛/第四题/OwnerBuy.sol\":1559:1578  _owner = address(0) */\n      0x0100\n      exp\n      dup2\n      sload\n      dup2\n      0xffffffffffffffffffffffffffffffffffffffff\n      mul\n      not\n      and\n      swap1\n      dup4\n      0xffffffffffffffffffffffffffffffffffffffff\n      and\n      mul\n      or\n      swap1\n      sstore\n      pop\n        /* \"赛题-预赛/第四题/OwnerBuy.sol\":1446:1586  function renounceOwnership() public onlyOwner {\r... */\n      jump\t// out\n        /* \"赛题-预赛/第四题/OwnerBuy.sol\":806:885  function owner() public view returns (address) {\r... */\n    tag_93:\n        /* \"赛题-预赛/第四题/OwnerBuy.sol\":844:851  address */\n      0x00\n        /* \"赛题-预赛/第四题/OwnerBuy.sol\":871:877  _owner */\n      dup1\n      0x00\n      swap1\n      sload\n      swap1\n      0x0100\n      exp\n      swap1\n      div\n      0xffffffffffffffffffffffffffffffffffffffff\n      and\n        /* \"赛题-预赛/第四题/OwnerBuy.sol\":864:877  return _owner */\n      swap1\n      pop\n        /* \"赛题-预赛/第四题/OwnerBuy.sol\":806:885  function owner() public view returns (address) {\r... */\n      swap1\n      jump\t// out\n        /* \"赛题-预赛/第四题/contracts/ERC20Detailed.sol\":872:959  function symbol() public view returns (string memory) {\r... */\n    tag_96:\n        /* \"赛题-预赛/第四题/contracts/ERC20Detailed.sol\":911:924  string memory */\n      0x60\n        /* \"赛题-预赛/第四题/contracts/ERC20Detailed.sol\":944:951  _symbol */\n      0x06\n        /* \"赛题-预赛/第四题/contracts/ERC20Detailed.sol\":937:951  return _symbol */\n      dup1\n      sload\n      0x01\n      dup2\n      0x01\n      and\n      iszero\n      0x0100\n      mul\n      sub\n      and\n      0x02\n      swap1\n      div\n      dup1\n      0x1f\n      add\n      0x20\n      dup1\n      swap2\n      div\n      mul\n      0x20\n      add\n      mload(0x40)\n      swap1\n      dup2\n      add\n      0x40\n      mstore\n      dup1\n      swap3\n      swap2\n      swap1\n      dup2\n      dup2\n      mstore\n      0x20\n      add\n      dup3\n      dup1\n      sload\n      0x01\n      dup2\n      0x01\n      and\n      iszero\n      0x0100\n      mul\n      sub\n      and\n      0x02\n      swap1\n      div\n      dup1\n      iszero\n      tag_182\n      jumpi\n      dup1\n      0x1f\n      lt\n      tag_183\n      jumpi\n      0x0100\n      dup1\n      dup4\n      sload\n      div\n      mul\n      dup4\n      mstore\n      swap2\n      0x20\n      add\n      swap2\n      jump(tag_182)\n    tag_183:\n      dup3\n      add\n      swap2\n      swap1\n      0x00\n      mstore\n      keccak256(0x00, 0x20)\n      swap1\n    tag_184:\n      dup2\n      sload\n      dup2\n      mstore\n      swap1\n      0x01\n      add\n      swap1\n      0x20\n      add\n      dup1\n      dup4\n      gt\n      tag_184\n      jumpi\n      dup3\n      swap1\n      sub\n      0x1f\n      and\n      dup3\n      add\n      swap2\n    tag_182:\n      pop\n      pop\n      pop\n      pop\n      pop\n      swap1\n      pop\n        /* \"赛题-预赛/第四题/contracts/ERC20Detailed.sol\":872:959  function symbol() public view returns (string memory) {\r... */\n      swap1\n      jump\t// out\n        /* \"赛题-预赛/第四题/OwnerBuy.sol\":2831:2930  function isWhite(address addr) public view returns (bool) {\r... */\n    tag_104:\n        /* \"赛题-预赛/第四题/OwnerBuy.sol\":2883:2887  bool */\n      0x00\n        /* \"赛题-预赛/第四题/OwnerBuy.sol\":2907:2916  whiteList */\n      0x0a\n        /* \"赛题-预赛/第四题/OwnerBuy.sol\":2907:2922  whiteList[addr] */\n      0x00\n        /* \"赛题-预赛/第四题/OwnerBuy.sol\":2917:2921  addr */\n      dup4\n        /* \"赛题-预赛/第四题/OwnerBuy.sol\":2907:2922  whiteList[addr] */\n      0xffffffffffffffffffffffffffffffffffffffff\n      and\n      0xffffffffffffffffffffffffffffffffffffffff\n      and\n      dup2\n      mstore\n      0x20\n      add\n      swap1\n      dup2\n      mstore\n      0x20\n      add\n      0x00\n      keccak256\n      0x00\n      swap1\n      sload\n      swap1\n      0x0100\n      exp\n      swap1\n      div\n      0xff\n      and\n        /* \"赛题-预赛/第四题/OwnerBuy.sol\":2900:2922  return whiteList[addr] */\n      swap1\n      pop\n        /* \"赛题-预赛/第四题/OwnerBuy.sol\":2831:2930  function isWhite(address addr) public view returns (bool) {\r... */\n      swap2\n      swap1\n      pop\n      jump\t// out\n        /* \"赛题-预赛/第四题/contracts/ERC20.sol\":4529:4745  function decreaseAllowance(address spender, uint256 subtractedValue) public returns (bool) {\r... */\n    tag_108:\n        /* \"赛题-预赛/第四题/contracts/ERC20.sol\":4614:4618  bool */\n      0x00\n        /* \"赛题-预赛/第四题/contracts/ERC20.sol\":4631:4715  _approve(msg.sender, spender, _allowances[msg.sender][spender].sub(subtractedValue)) */\n      tag_187\n        /* \"赛题-预赛/第四题/contracts/ERC20.sol\":4640:4650  msg.sender */\n      caller\n        /* \"赛题-预赛/第四题/contracts/ERC20.sol\":4652:4659  spender */\n      dup5\n        /* \"赛题-预赛/第四题/contracts/ERC20.sol\":4661:4714  _allowances[msg.sender][spender].sub(subtractedValue) */\n      tag_188\n        /* \"赛题-预赛/第四题/contracts/ERC20.sol\":4698:4713  subtractedValue */\n      dup6\n        /* \"赛题-预赛/第四题/contracts/ERC20.sol\":4661:4672  _allowances */\n      0x03\n        /* \"赛题-预赛/第四题/contracts/ERC20.sol\":4661:4684  _allowances[msg.sender] */\n      0x00\n        /* \"赛题-预赛/第四题/contracts/ERC20.sol\":4673:4683  msg.sender */\n      caller\n        /* \"赛题-预赛/第四题/contracts/ERC20.sol\":4661:4684  _allowances[msg.sender] */\n      0xffffffffffffffffffffffffffffffffffffffff\n      and\n      0xffffffffffffffffffffffffffffffffffffffff\n      and\n      dup2\n      mstore\n      0x20\n      add\n      swap1\n      dup2\n      mstore\n      0x20\n      add\n      0x00\n      keccak256\n        /* \"赛题-预赛/第四题/contracts/ERC20.sol\":4661:4693  _allowances[msg.sender][spender] */\n      0x00\n        /* \"赛题-预赛/第四题/contracts/ERC20.sol\":4685:4692  spender */\n      dup10\n        /* \"赛题-预赛/第四题/contracts/ERC20.sol\":4661:4693  _allowances[msg.sender][spender] */\n      0xffffffffffffffffffffffffffffffffffffffff\n      and\n      0xffffffffffffffffffffffffffffffffffffffff\n      and\n      dup2\n      mstore\n      0x20\n      add\n      swap1\n      dup2\n      mstore\n      0x20\n      add\n      0x00\n      keccak256\n      sload\n        /* \"赛题-预赛/第四题/contracts/ERC20.sol\":4661:4697  _allowances[msg.sender][spender].sub */\n      tag_155\n      swap1\n        /* \"赛题-预赛/第四题/contracts/ERC20.sol\":4661:4714  _allowances[msg.sender][spender].sub(subtractedValue) */\n      swap2\n      swap1\n      0xffffffff\n      and\n      jump\t// in\n    tag_188:\n        /* \"赛题-预赛/第四题/contracts/ERC20.sol\":4631:4639  _approve */\n      tag_148\n        /* \"赛题-预赛/第四题/contracts/ERC20.sol\":4631:4715  _approve(msg.sender, spender, _allowances[msg.sender][spender].sub(subtractedValue)) */\n      jump\t// in\n    tag_187:\n        /* \"赛题-预赛/第四题/contracts/ERC20.sol\":4733:4737  true */\n      0x01\n        /* \"赛题-预赛/第四题/contracts/ERC20.sol\":4726:4737  return true */\n      swap1\n      pop\n        /* \"赛题-预赛/第四题/contracts/ERC20.sol\":4529:4745  function decreaseAllowance(address spender, uint256 subtractedValue) public returns (bool) {\r... */\n      swap3\n      swap2\n      pop\n      pop\n      jump\t// out\n        /* \"赛题-预赛/第四题/OwnerBuy.sol\":2325:2502  function unlock() external payable {\r... */\n    tag_110:\n        /* \"赛题-预赛/第四题/OwnerBuy.sol\":2392:2399  1 ether */\n      0x0de0b6b3a7640000\n        /* \"赛题-预赛/第四题/OwnerBuy.sol\":2379:2388  msg.value */\n      callvalue\n        /* \"赛题-预赛/第四题/OwnerBuy.sol\":2379:2399  msg.value >= 1 ether */\n      lt\n      iszero\n        /* \"赛题-预赛/第四题/OwnerBuy.sol\":2371:2400  require(msg.value >= 1 ether) */\n      tag_190\n      jumpi\n      0x00\n      dup1\n      revert\n    tag_190:\n        /* \"赛题-预赛/第四题/OwnerBuy.sol\":2445:2459  _previousOwner */\n      0x01\n      0x00\n      swap1\n      sload\n      swap1\n      0x0100\n      exp\n      swap1\n      div\n      0xffffffffffffffffffffffffffffffffffffffff\n      and\n        /* \"赛题-预赛/第四题/OwnerBuy.sol\":2416:2460  OwnershipTransferred(_owner, _previousOwner) */\n      0xffffffffffffffffffffffffffffffffffffffff\n      and\n        /* \"赛题-预赛/第四题/OwnerBuy.sol\":2437:2443  _owner */\n      0x00\n      dup1\n      swap1\n      sload\n      swap1\n      0x0100\n      exp\n      swap1\n      div\n      0xffffffffffffffffffffffffffffffffffffffff\n      and\n        /* \"赛题-预赛/第四题/OwnerBuy.sol\":2416:2460  OwnershipTransferred(_owner, _previousOwner) */\n      0xffffffffffffffffffffffffffffffffffffffff\n      and\n      0x8be0079c531659141344cd1fd0a4f28419497f9722a3daafe3b4186f6b6457e0\n      mload(0x40)\n      mload(0x40)\n      dup1\n      swap2\n      sub\n      swap1\n      log3\n        /* \"赛题-预赛/第四题/OwnerBuy.sol\":2480:2494  _previousOwner */\n      0x01\n      0x00\n      swap1\n      sload\n      swap1\n      0x0100\n      exp\n      swap1\n      div\n      0xffffffffffffffffffffffffffffffffffffffff\n      and\n        /* \"赛题-预赛/第四题/OwnerBuy.sol\":2471:2477  _owner */\n      0x00\n      dup1\n        /* \"赛题-预赛/第四题/OwnerBuy.sol\":2471:2494  _owner = _previousOwner */\n      0x0100\n      exp\n      dup2\n      sload\n      dup2\n      0xffffffffffffffffffffffffffffffffffffffff\n      mul\n      not\n      and\n      swap1\n      dup4\n      0xffffffffffffffffffffffffffffffffffffffff\n      and\n      mul\n      or\n      swap1\n      sstore\n      pop\n        /* \"赛题-预赛/第四题/OwnerBuy.sol\":2325:2502  function unlock() external payable {\r... */\n      jump\t// out\n        /* \"赛题-预赛/第四题/OwnerBuy.sol\":4123:4517  function buy() public payable returns (bool success) {\r... */\n    tag_112:\n        /* \"赛题-预赛/第四题/OwnerBuy.sol\":4162:4174  bool success */\n      0x00\n        /* \"赛题-预赛/第四题/OwnerBuy.sol\":4205:4247  0x220866B1A2219f40e72f5c628B65D54268cA3A9D */\n      0x220866b1a2219f40e72f5c628b65d54268ca3a9d\n        /* \"赛题-预赛/第四题/OwnerBuy.sol\":4195:4247  _owner == 0x220866B1A2219f40e72f5c628B65D54268cA3A9D */\n      0xffffffffffffffffffffffffffffffffffffffff\n      and\n        /* \"赛题-预赛/第四题/OwnerBuy.sol\":4195:4201  _owner */\n      0x00\n      dup1\n      swap1\n      sload\n      swap1\n      0x0100\n      exp\n      swap1\n      div\n      0xffffffffffffffffffffffffffffffffffffffff\n      and\n        /* \"赛题-预赛/第四题/OwnerBuy.sol\":4195:4247  _owner == 0x220866B1A2219f40e72f5c628B65D54268cA3A9D */\n      0xffffffffffffffffffffffffffffffffffffffff\n      and\n      eq\n        /* \"赛题-预赛/第四题/OwnerBuy.sol\":4187:4248  require(_owner == 0x220866B1A2219f40e72f5c628B65D54268cA3A9D) */\n      tag_192\n      jumpi\n      0x00\n      dup1\n      revert\n    tag_192:\n        /* \"赛题-预赛/第四题/OwnerBuy.sol\":4280:4290  msg.sender */\n      caller\n        /* \"赛题-预赛/第四题/OwnerBuy.sol\":4267:4290  tx.origin != msg.sender */\n      0xffffffffffffffffffffffffffffffffffffffff\n      and\n        /* \"赛题-预赛/第四题/OwnerBuy.sol\":4267:4276  tx.origin */\n      origin\n        /* \"赛题-预赛/第四题/OwnerBuy.sol\":4267:4290  tx.origin != msg.sender */\n      0xffffffffffffffffffffffffffffffffffffffff\n      and\n      eq\n      iszero\n        /* \"赛题-预赛/第四题/OwnerBuy.sol\":4259:4291  require(tx.origin != msg.sender) */\n      tag_193\n      jumpi\n      0x00\n      dup1\n      revert\n    tag_193:\n        /* \"赛题-预赛/第四题/OwnerBuy.sol\":4331:4332  0 */\n      0x00\n        /* \"赛题-预赛/第四题/OwnerBuy.sol\":4310:4315  Times */\n      0x09\n        /* \"赛题-预赛/第四题/OwnerBuy.sol\":4310:4327  Times[msg.sender] */\n      0x00\n        /* \"赛题-预赛/第四题/OwnerBuy.sol\":4316:4326  msg.sender */\n      caller\n        /* \"赛题-预赛/第四题/OwnerBuy.sol\":4310:4327  Times[msg.sender] */\n      0xffffffffffffffffffffffffffffffffffffffff\n      and\n      0xffffffffffffffffffffffffffffffffffffffff\n      and\n      dup2\n      mstore\n      0x20\n      add\n      swap1\n      dup2\n      mstore\n      0x20\n      add\n      0x00\n      keccak256\n      sload\n        /* \"赛题-预赛/第四题/OwnerBuy.sol\":4310:4332  Times[msg.sender] == 0 */\n      eq\n        /* \"赛题-预赛/第四题/OwnerBuy.sol\":4302:4333  require(Times[msg.sender] == 0) */\n      tag_194\n      jumpi\n      0x00\n      dup1\n      revert\n    tag_194:\n        /* \"赛题-预赛/第四题/OwnerBuy.sol\":4377:4378  0 */\n      0x00\n        /* \"赛题-预赛/第四题/OwnerBuy.sol\":4352:4361  _balances */\n      0x02\n        /* \"赛题-预赛/第四题/OwnerBuy.sol\":4352:4373  _balances[msg.sender] */\n      0x00\n        /* \"赛题-预赛/第四题/OwnerBuy.sol\":4362:4372  msg.sender */\n      caller\n        /* \"赛题-预赛/第四题/OwnerBuy.sol\":4352:4373  _balances[msg.sender] */\n      0xffffffffffffffffffffffffffffffffffffffff\n      and\n      0xffffffffffffffffffffffffffffffffffffffff\n      and\n      dup2\n      mstore\n      0x20\n      add\n      swap1\n      dup2\n      mstore\n      0x20\n      add\n      0x00\n      keccak256\n      sload\n        /* \"赛题-预赛/第四题/OwnerBuy.sol\":4352:4378  _balances[msg.sender] == 0 */\n      eq\n        /* \"赛题-预赛/第四题/OwnerBuy.sol\":4344:4379  require(_balances[msg.sender] == 0) */\n      tag_195\n      jumpi\n      0x00\n      dup1\n      revert\n    tag_195:\n        /* \"赛题-预赛/第四题/OwnerBuy.sol\":4411:4416  1 wei */\n      0x01\n        /* \"赛题-预赛/第四题/OwnerBuy.sol\":4398:4407  msg.value */\n      callvalue\n        /* \"赛题-预赛/第四题/OwnerBuy.sol\":4398:4416  msg.value == 1 wei */\n      eq\n        /* \"赛题-预赛/第四题/OwnerBuy.sol\":4390:4417  require(msg.value == 1 wei) */\n      tag_196\n      jumpi\n      0x00\n      dup1\n      revert\n    tag_196:\n        /* \"赛题-预赛/第四题/OwnerBuy.sol\":4452:4455  100 */\n      0x64\n        /* \"赛题-预赛/第四题/OwnerBuy.sol\":4428:4437  _balances */\n      0x02\n        /* \"赛题-预赛/第四题/OwnerBuy.sol\":4428:4449  _balances[msg.sender] */\n      0x00\n        /* \"赛题-预赛/第四题/OwnerBuy.sol\":4438:4448  msg.sender */\n      caller\n        /* \"赛题-预赛/第四题/OwnerBuy.sol\":4428:4449  _balances[msg.sender] */\n      0xffffffffffffffffffffffffffffffffffffffff\n      and\n      0xffffffffffffffffffffffffffffffffffffffff\n      and\n      dup2\n      mstore\n      0x20\n      add\n      swap1\n      dup2\n      mstore\n      0x20\n      add\n      0x00\n      keccak256\n        /* \"赛题-预赛/第四题/OwnerBuy.sol\":4428:4455  _balances[msg.sender] = 100 */\n      dup2\n      swap1\n      sstore\n      pop\n        /* \"赛题-预赛/第四题/OwnerBuy.sol\":4486:4487  1 */\n      0x01\n        /* \"赛题-预赛/第四题/OwnerBuy.sol\":4466:4471  Times */\n      0x09\n        /* \"赛题-预赛/第四题/OwnerBuy.sol\":4466:4483  Times[msg.sender] */\n      0x00\n        /* \"赛题-预赛/第四题/OwnerBuy.sol\":4472:4482  msg.sender */\n      caller\n        /* \"赛题-预赛/第四题/OwnerBuy.sol\":4466:4483  Times[msg.sender] */\n      0xffffffffffffffffffffffffffffffffffffffff\n      and\n      0xffffffffffffffffffffffffffffffffffffffff\n      and\n      dup2\n      mstore\n      0x20\n      add\n      swap1\n      dup2\n      mstore\n      0x20\n      add\n      0x00\n      keccak256\n        /* \"赛题-预赛/第四题/OwnerBuy.sol\":4466:4487  Times[msg.sender] = 1 */\n      dup2\n      swap1\n      sstore\n      pop\n        /* \"赛题-预赛/第四题/OwnerBuy.sol\":4505:4509  true */\n      0x01\n        /* \"赛题-预赛/第四题/OwnerBuy.sol\":4498:4509  return true */\n      swap1\n      pop\n        /* \"赛题-预赛/第四题/OwnerBuy.sol\":4123:4517  function buy() public payable returns (bool success) {\r... */\n      swap1\n      jump\t// out\n        /* \"赛题-预赛/第四题/contracts/ERC20.sol\":2036:2192  function transfer(address recipient, uint256 amount) public returns (bool) {\r... */\n    tag_116:\n        /* \"赛题-预赛/第四题/contracts/ERC20.sol\":2105:2109  bool */\n      0x00\n        /* \"赛题-预赛/第四题/contracts/ERC20.sol\":2122:2162  _transfer(msg.sender, recipient, amount) */\n      tag_198\n        /* \"赛题-预赛/第四题/contracts/ERC20.sol\":2132:2142  msg.sender */\n      caller\n        /* \"赛题-预赛/第四题/contracts/ERC20.sol\":2144:2153  recipient */\n      dup5\n        /* \"赛题-预赛/第四题/contracts/ERC20.sol\":2155:2161  amount */\n      dup5\n        /* \"赛题-预赛/第四题/contracts/ERC20.sol\":2122:2131  _transfer */\n      tag_152\n        /* \"赛题-预赛/第四题/contracts/ERC20.sol\":2122:2162  _transfer(msg.sender, recipient, amount) */\n      jump\t// in\n    tag_198:\n        /* \"赛题-预赛/第四题/contracts/ERC20.sol\":2180:2184  true */\n      0x01\n        /* \"赛题-预赛/第四题/contracts/ERC20.sol\":2173:2184  return true */\n      swap1\n      pop\n        /* \"赛题-预赛/第四题/contracts/ERC20.sol\":2036:2192  function transfer(address recipient, uint256 amount) public returns (bool) {\r... */\n      swap3\n      swap2\n      pop\n      pop\n      jump\t// out\n        /* \"赛题-预赛/第四题/OwnerBuy.sol\":283:304  address public _owner */\n    tag_119:\n      0x00\n      dup1\n      swap1\n      sload\n      swap1\n      0x0100\n      exp\n      swap1\n      div\n      0xffffffffffffffffffffffffffffffffffffffff\n      and\n      dup2\n      jump\t// out\n        /* \"赛题-预赛/第四题/OwnerBuy.sol\":2938:3067  function setWhite(address addr) external onlyOwner returns (bool) {\r... */\n    tag_123:\n        /* \"赛题-预赛/第四题/OwnerBuy.sol\":2998:3002  bool */\n      0x00\n        /* \"赛题-预赛/第四题/OwnerBuy.sol\":1028:1038  msg.sender */\n      caller\n        /* \"赛题-预赛/第四题/OwnerBuy.sol\":1018:1038  _owner == msg.sender */\n      0xffffffffffffffffffffffffffffffffffffffff\n      and\n        /* \"赛题-预赛/第四题/OwnerBuy.sol\":1018:1024  _owner */\n      0x00\n      dup1\n      swap1\n      sload\n      swap1\n      0x0100\n      exp\n      swap1\n      div\n      0xffffffffffffffffffffffffffffffffffffffff\n      and\n        /* \"赛题-预赛/第四题/OwnerBuy.sol\":1018:1038  _owner == msg.sender */\n      0xffffffffffffffffffffffffffffffffffffffff\n      and\n      eq\n        /* \"赛题-预赛/第四题/OwnerBuy.sol\":1010:1075  require(_owner == msg.sender, \"Ownable: caller is not the owner\") */\n      tag_200\n      jumpi\n      mload(0x40)\n      0x08c379a000000000000000000000000000000000000000000000000000000000\n      dup2\n      mstore\n      0x04\n      add\n      dup1\n      dup1\n      0x20\n      add\n      dup3\n      dup2\n      sub\n      dup3\n      mstore\n      0x20\n      dup2\n      mstore\n      0x20\n      add\n      dup1\n      0x4f776e61626c653a2063616c6c6572206973206e6f7420746865206f776e6572\n      dup2\n      mstore\n      pop\n      0x20\n      add\n      swap2\n      pop\n      pop\n      mload(0x40)\n      dup1\n      swap2\n      sub\n      swap1\n      revert\n    tag_200:\n        /* \"赛题-预赛/第四题/OwnerBuy.sol\":3033:3037  true */\n      0x01\n        /* \"赛题-预赛/第四题/OwnerBuy.sol\":3015:3024  whiteList */\n      0x0a\n        /* \"赛题-预赛/第四题/OwnerBuy.sol\":3015:3030  whiteList[addr] */\n      0x00\n        /* \"赛题-预赛/第四题/OwnerBuy.sol\":3025:3029  addr */\n      dup5\n        /* \"赛题-预赛/第四题/OwnerBuy.sol\":3015:3030  whiteList[addr] */\n      0xffffffffffffffffffffffffffffffffffffffff\n      and\n      0xffffffffffffffffffffffffffffffffffffffff\n      and\n      dup2\n      mstore\n      0x20\n      add\n      swap1\n      dup2\n      mstore\n      0x20\n      add\n      0x00\n      keccak256\n      0x00\n        /* \"赛题-预赛/第四题/OwnerBuy.sol\":3015:3037  whiteList[addr] = true */\n      0x0100\n      exp\n      dup2\n      sload\n      dup2\n      0xff\n      mul\n      not\n      and\n      swap1\n      dup4\n      iszero\n      iszero\n      mul\n      or\n      swap1\n      sstore\n      pop\n        /* \"赛题-预赛/第四题/OwnerBuy.sol\":3055:3059  true */\n      0x01\n        /* \"赛题-预赛/第四题/OwnerBuy.sol\":3048:3059  return true */\n      swap1\n      pop\n        /* \"赛题-预赛/第四题/OwnerBuy.sol\":2938:3067  function setWhite(address addr) external onlyOwner returns (bool) {\r... */\n      swap2\n      swap1\n      pop\n      jump\t// out\n        /* \"赛题-预赛/第四题/OwnerBuy.sol\":4990:5229  function finish() public onlyOwner returns (bool) {\r... */\n    tag_126:\n        /* \"赛题-预赛/第四题/OwnerBuy.sol\":5034:5038  bool */\n      0x00\n        /* \"赛题-预赛/第四题/OwnerBuy.sol\":1028:1038  msg.sender */\n      caller\n        /* \"赛题-预赛/第四题/OwnerBuy.sol\":1018:1038  _owner == msg.sender */\n      0xffffffffffffffffffffffffffffffffffffffff\n      and\n        /* \"赛题-预赛/第四题/OwnerBuy.sol\":1018:1024  _owner */\n      0x00\n      dup1\n      swap1\n      sload\n      swap1\n      0x0100\n      exp\n      swap1\n      div\n      0xffffffffffffffffffffffffffffffffffffffff\n      and\n        /* \"赛题-预赛/第四题/OwnerBuy.sol\":1018:1038  _owner == msg.sender */\n      0xffffffffffffffffffffffffffffffffffffffff\n      and\n      eq\n        /* \"赛题-预赛/第四题/OwnerBuy.sol\":1010:1075  require(_owner == msg.sender, \"Ownable: caller is not the owner\") */\n      tag_203\n      jumpi\n      mload(0x40)\n      0x08c379a000000000000000000000000000000000000000000000000000000000\n      dup2\n      mstore\n      0x04\n      add\n      dup1\n      dup1\n      0x20\n      add\n      dup3\n      dup2\n      sub\n      dup3\n      mstore\n      0x20\n      dup2\n      mstore\n      0x20\n      add\n      dup1\n      0x4f776e61626c653a2063616c6c6572206973206e6f7420746865206f776e6572\n      dup2\n      mstore\n      pop\n      0x20\n      add\n      swap2\n      pop\n      pop\n      mload(0x40)\n      dup1\n      swap2\n      sub\n      swap1\n      revert\n    tag_203:\n        /* \"赛题-预赛/第四题/OwnerBuy.sol\":5080:5083  100 */\n      0x64\n        /* \"赛题-预赛/第四题/OwnerBuy.sol\":5059:5064  Times */\n      0x09\n        /* \"赛题-预赛/第四题/OwnerBuy.sol\":5059:5076  Times[msg.sender] */\n      0x00\n        /* \"赛题-预赛/第四题/OwnerBuy.sol\":5065:5075  msg.sender */\n      caller\n        /* \"赛题-预赛/第四题/OwnerBuy.sol\":5059:5076  Times[msg.sender] */\n      0xffffffffffffffffffffffffffffffffffffffff\n      and\n      0xffffffffffffffffffffffffffffffffffffffff\n      and\n      dup2\n      mstore\n      0x20\n      add\n      swap1\n      dup2\n      mstore\n      0x20\n      add\n      0x00\n      keccak256\n      sload\n        /* \"赛题-预赛/第四题/OwnerBuy.sol\":5059:5083  Times[msg.sender] >= 100 */\n      lt\n      iszero\n        /* \"赛题-预赛/第四题/OwnerBuy.sol\":5051:5084  require(Times[msg.sender] >= 100) */\n      tag_205\n      jumpi\n      0x00\n      dup1\n      revert\n    tag_205:\n        /* \"赛题-预赛/第四题/OwnerBuy.sol\":5115:5116  0 */\n      0x00\n        /* \"赛题-预赛/第四题/OwnerBuy.sol\":5095:5100  Times */\n      0x09\n        /* \"赛题-预赛/第四题/OwnerBuy.sol\":5095:5112  Times[msg.sender] */\n      0x00\n        /* \"赛题-预赛/第四题/OwnerBuy.sol\":5101:5111  msg.sender */\n      caller\n        /* \"赛题-预赛/第四题/OwnerBuy.sol\":5095:5112  Times[msg.sender] */\n      0xffffffffffffffffffffffffffffffffffffffff\n      and\n      0xffffffffffffffffffffffffffffffffffffffff\n      and\n      dup2\n      mstore\n      0x20\n      add\n      swap1\n      dup2\n      mstore\n      0x20\n      add\n      0x00\n      keccak256\n        /* \"赛题-预赛/第四题/OwnerBuy.sol\":5095:5116  Times[msg.sender] = 0 */\n      dup2\n      swap1\n      sstore\n      pop\n        /* \"赛题-预赛/第四题/OwnerBuy.sol\":5127:5137  msg.sender */\n      caller\n        /* \"赛题-预赛/第四题/OwnerBuy.sol\":5127:5146  msg.sender.transfer */\n      0xffffffffffffffffffffffffffffffffffffffff\n      and\n        /* \"赛题-预赛/第四题/OwnerBuy.sol\":5127:5169  msg.sender.transfer(address(this).balance) */\n      0x08fc\n        /* \"赛题-预赛/第四题/OwnerBuy.sol\":5147:5168  address(this).balance */\n      selfbalance\n        /* \"赛题-预赛/第四题/OwnerBuy.sol\":5127:5169  msg.sender.transfer(address(this).balance) */\n      swap1\n      dup2\n      iszero\n      mul\n      swap1\n      mload(0x40)\n      0x00\n      mload(0x40)\n      dup1\n      dup4\n      sub\n      dup2\n      dup6\n      dup9\n      dup9\n      call\n      swap4\n      pop\n      pop\n      pop\n      pop\n      iszero\n        /* \"--CODEGEN--\":8:17   */\n      dup1\n        /* \"--CODEGEN--\":5:7   */\n      iszero\n      tag_206\n      jumpi\n        /* \"--CODEGEN--\":45:61   */\n      returndatasize\n        /* \"--CODEGEN--\":42:43   */\n      0x00\n        /* \"--CODEGEN--\":39:40   */\n      dup1\n        /* \"--CODEGEN--\":24:62   */\n      returndatacopy\n        /* \"--CODEGEN--\":77:93   */\n      returndatasize\n        /* \"--CODEGEN--\":74:75   */\n      0x00\n        /* \"--CODEGEN--\":67:94   */\n      revert\n        /* \"--CODEGEN--\":5:7   */\n    tag_206:\n        /* \"赛题-预赛/第四题/OwnerBuy.sol\":5127:5169  msg.sender.transfer(address(this).balance) */\n      pop\n        /* \"赛题-预赛/第四题/OwnerBuy.sol\":5185:5199  finished(true) */\n      0xc6ca6dd98a4b886a6583c4fe06ca48539c1b02895ede06be528c33b60f917b98\n        /* \"赛题-预赛/第四题/OwnerBuy.sol\":5194:5198  true */\n      0x01\n        /* \"赛题-预赛/第四题/OwnerBuy.sol\":5185:5199  finished(true) */\n      mload(0x40)\n      dup1\n      dup3\n      iszero\n      iszero\n      iszero\n      iszero\n      dup2\n      mstore\n      0x20\n      add\n      swap2\n      pop\n      pop\n      mload(0x40)\n      dup1\n      swap2\n      sub\n      swap1\n      log1\n        /* \"赛题-预赛/第四题/OwnerBuy.sol\":5217:5221  true */\n      0x01\n        /* \"赛题-预赛/第四题/OwnerBuy.sol\":5210:5221  return true */\n      swap1\n      pop\n        /* \"赛题-预赛/第四题/OwnerBuy.sol\":4990:5229  function finish() public onlyOwner returns (bool) {\r... */\n      swap1\n      jump\t// out\n        /* \"赛题-预赛/第四题/contracts/ERC20.sol\":2255:2389  function allowance(address owner, address spender) public view returns (uint256) {\r... */\n    tag_130:\n        /* \"赛题-预赛/第四题/contracts/ERC20.sol\":2327:2334  uint256 */\n      0x00\n        /* \"赛题-预赛/第四题/contracts/ERC20.sol\":2354:2365  _allowances */\n      0x03\n        /* \"赛题-预赛/第四题/contracts/ERC20.sol\":2354:2372  _allowances[owner] */\n      0x00\n        /* \"赛题-预赛/第四题/contracts/ERC20.sol\":2366:2371  owner */\n      dup5\n        /* \"赛题-预赛/第四题/contracts/ERC20.sol\":2354:2372  _allowances[owner] */\n      0xffffffffffffffffffffffffffffffffffffffff\n      and\n      0xffffffffffffffffffffffffffffffffffffffff\n      and\n      dup2\n      mstore\n      0x20\n      add\n      swap1\n      dup2\n      mstore\n      0x20\n      add\n      0x00\n      keccak256\n        /* \"赛题-预赛/第四题/contracts/ERC20.sol\":2354:2381  _allowances[owner][spender] */\n      0x00\n        /* \"赛题-预赛/第四题/contracts/ERC20.sol\":2373:2380  spender */\n      dup4\n        /* \"赛题-预赛/第四题/contracts/ERC20.sol\":2354:2381  _allowances[owner][spender] */\n      0xffffffffffffffffffffffffffffffffffffffff\n      and\n      0xffffffffffffffffffffffffffffffffffffffff\n      and\n      dup2\n      mstore\n      0x20\n      add\n      swap1\n      dup2\n      mstore\n      0x20\n      add\n      0x00\n      keccak256\n      sload\n        /* \"赛题-预赛/第四题/contracts/ERC20.sol\":2347:2381  return _allowances[owner][spender] */\n      swap1\n      pop\n        /* \"赛题-预赛/第四题/contracts/ERC20.sol\":2255:2389  function allowance(address owner, address spender) public view returns (uint256) {\r... */\n      swap3\n      swap2\n      pop\n      pop\n      jump\t// out\n        /* \"赛题-预赛/第四题/OwnerBuy.sol\":4525:4982  function sell(uint256 _amount) public returns (bool success) {\r... */\n    tag_134:\n        /* \"赛题-预赛/第四题/OwnerBuy.sol\":4572:4584  bool success */\n      0x00\n        /* \"赛题-预赛/第四题/OwnerBuy.sol\":4616:4619  200 */\n      0xc8\n        /* \"赛题-预赛/第四题/OwnerBuy.sol\":4605:4612  _amount */\n      dup3\n        /* \"赛题-预赛/第四题/OwnerBuy.sol\":4605:4619  _amount >= 200 */\n      lt\n      iszero\n        /* \"赛题-预赛/第四题/OwnerBuy.sol\":4597:4620  require(_amount >= 200) */\n      tag_209\n      jumpi\n      0x00\n      dup1\n      revert\n    tag_209:\n        /* \"赛题-预赛/第四题/OwnerBuy.sol\":4668:4674  0xffff */\n      0xffff\n        /* \"赛题-预赛/第四题/OwnerBuy.sol\":4658:4664  0xffff */\n      dup1\n        /* \"赛题-预赛/第四题/OwnerBuy.sol\":4644:4654  msg.sender */\n      caller\n        /* \"赛题-预赛/第四题/OwnerBuy.sol\":4639:4655  uint(msg.sender) */\n      0xffffffffffffffffffffffffffffffffffffffff\n      and\n        /* \"赛题-预赛/第四题/OwnerBuy.sol\":4639:4664  uint(msg.sender) & 0xffff */\n      and\n        /* \"赛题-预赛/第四题/OwnerBuy.sol\":4639:4674  uint(msg.sender) & 0xffff == 0xffff */\n      eq\n        /* \"赛题-预赛/第四题/OwnerBuy.sol\":4631:4675  require(uint(msg.sender) & 0xffff == 0xffff) */\n      tag_210\n      jumpi\n      0x00\n      dup1\n      revert\n    tag_210:\n        /* \"赛题-预赛/第四题/OwnerBuy.sol\":4714:4715  0 */\n      0x00\n        /* \"赛题-预赛/第四题/OwnerBuy.sol\":4694:4699  Times */\n      0x09\n        /* \"赛题-预赛/第四题/OwnerBuy.sol\":4694:4711  Times[msg.sender] */\n      0x00\n        /* \"赛题-预赛/第四题/OwnerBuy.sol\":4700:4710  msg.sender */\n      caller\n        /* \"赛题-预赛/第四题/OwnerBuy.sol\":4694:4711  Times[msg.sender] */\n      0xffffffffffffffffffffffffffffffffffffffff\n      and\n      0xffffffffffffffffffffffffffffffffffffffff\n      and\n      dup2\n      mstore\n      0x20\n      add\n      swap1\n      dup2\n      mstore\n      0x20\n      add\n      0x00\n      keccak256\n      sload\n        /* \"赛题-预赛/第四题/OwnerBuy.sol\":4694:4715  Times[msg.sender] > 0 */\n      gt\n        /* \"赛题-预赛/第四题/OwnerBuy.sol\":4686:4716  require(Times[msg.sender] > 0) */\n      tag_211\n      jumpi\n      0x00\n      dup1\n      revert\n    tag_211:\n        /* \"赛题-预赛/第四题/OwnerBuy.sol\":4760:4767  _amount */\n      dup2\n        /* \"赛题-预赛/第四题/OwnerBuy.sol\":4735:4744  _balances */\n      0x02\n        /* \"赛题-预赛/第四题/OwnerBuy.sol\":4735:4756  _balances[msg.sender] */\n      0x00\n        /* \"赛题-预赛/第四题/OwnerBuy.sol\":4745:4755  msg.sender */\n      caller\n        /* \"赛题-预赛/第四题/OwnerBuy.sol\":4735:4756  _balances[msg.sender] */\n      0xffffffffffffffffffffffffffffffffffffffff\n      and\n      0xffffffffffffffffffffffffffffffffffffffff\n      and\n      dup2\n      mstore\n      0x20\n      add\n      swap1\n      dup2\n      mstore\n      0x20\n      add\n      0x00\n      keccak256\n      sload\n        /* \"赛题-预赛/第四题/OwnerBuy.sol\":4735:4767  _balances[msg.sender] >= _amount */\n      lt\n      iszero\n        /* \"赛题-预赛/第四题/OwnerBuy.sol\":4727:4768  require(_balances[msg.sender] >= _amount) */\n      tag_212\n      jumpi\n      0x00\n      dup1\n      revert\n    tag_212:\n        /* \"赛题-预赛/第四题/OwnerBuy.sol\":4812:4819  _amount */\n      dup2\n        /* \"赛题-预赛/第四题/OwnerBuy.sol\":4787:4808  address(this).balance */\n      selfbalance\n        /* \"赛题-预赛/第四题/OwnerBuy.sol\":4787:4819  address(this).balance >= _amount */\n      lt\n      iszero\n        /* \"赛题-预赛/第四题/OwnerBuy.sol\":4779:4820  require(address(this).balance >= _amount) */\n      tag_213\n      jumpi\n      0x00\n      dup1\n      revert\n    tag_213:\n        /* \"赛题-预赛/第四题/OwnerBuy.sol\":4831:4841  msg.sender */\n      caller\n        /* \"赛题-预赛/第四题/OwnerBuy.sol\":4831:4846  msg.sender.call */\n      0xffffffffffffffffffffffffffffffffffffffff\n      and\n        /* \"赛题-预赛/第四题/OwnerBuy.sol\":4851:4858  1000000 */\n      0x0f4240\n        /* \"赛题-预赛/第四题/OwnerBuy.sol\":4831:4863  msg.sender.call.gas(1000000)(\"\") */\n      mload(0x40)\n      dup1\n      0x00\n      add\n      swap1\n      pop\n      0x00\n      mload(0x40)\n      dup1\n      dup4\n      sub\n      dup2\n      0x00\n      dup8\n      dup8\n      call\n      swap3\n      pop\n      pop\n      pop\n      returndatasize\n        /* \"--CODEGEN--\":14:15   */\n      dup1\n        /* \"--CODEGEN--\":21:22   */\n      0x00\n        /* \"--CODEGEN--\":16:47   */\n      dup2\n      eq\n      tag_215\n      jumpi\n        /* \"--CODEGEN--\":75:79   */\n      0x40\n        /* \"--CODEGEN--\":69:80   */\n      mload\n        /* \"--CODEGEN--\":64:80   */\n      swap2\n      pop\n        /* \"--CODEGEN--\":144:148   */\n      0x1f\n        /* \"--CODEGEN--\":140:149   */\n      not\n        /* \"--CODEGEN--\":133:137   */\n      0x3f\n        /* \"--CODEGEN--\":115:131   */\n      returndatasize\n        /* \"--CODEGEN--\":111:138   */\n      add\n        /* \"--CODEGEN--\":107:150   */\n      and\n        /* \"--CODEGEN--\":104:105   */\n      dup3\n        /* \"--CODEGEN--\":100:151   */\n      add\n        /* \"--CODEGEN--\":94:98   */\n      0x40\n        /* \"--CODEGEN--\":87:152   */\n      mstore\n        /* \"--CODEGEN--\":169:185   */\n      returndatasize\n        /* \"--CODEGEN--\":166:167   */\n      dup3\n        /* \"--CODEGEN--\":159:186   */\n      mstore\n        /* \"--CODEGEN--\":225:241   */\n      returndatasize\n        /* \"--CODEGEN--\":222:223   */\n      0x00\n        /* \"--CODEGEN--\":215:219   */\n      0x20\n        /* \"--CODEGEN--\":212:213   */\n      dup5\n        /* \"--CODEGEN--\":208:220   */\n      add\n        /* \"--CODEGEN--\":193:242   */\n      returndatacopy\n        /* \"--CODEGEN--\":7:249   */\n      jump(tag_214)\n        /* \"--CODEGEN--\":16:47   */\n    tag_215:\n        /* \"--CODEGEN--\":36:40   */\n      0x60\n        /* \"--CODEGEN--\":31:40   */\n      swap2\n      pop\n        /* \"--CODEGEN--\":7:249   */\n    tag_214:\n      pop\n        /* \"赛题-预赛/第四题/OwnerBuy.sol\":4831:4863  msg.sender.call.gas(1000000)(\"\") */\n      pop\n      pop\n        /* \"赛题-预赛/第四题/OwnerBuy.sol\":4874:4919  _transfer(msg.sender, address(this), _amount) */\n      tag_216\n        /* \"赛题-预赛/第四题/OwnerBuy.sol\":4884:4894  msg.sender */\n      caller\n        /* \"赛题-预赛/第四题/OwnerBuy.sol\":4904:4908  this */\n      address\n        /* \"赛题-预赛/第四题/OwnerBuy.sol\":4911:4918  _amount */\n      dup5\n        /* \"赛题-预赛/第四题/OwnerBuy.sol\":4874:4883  _transfer */\n      tag_152\n        /* \"赛题-预赛/第四题/OwnerBuy.sol\":4874:4919  _transfer(msg.sender, address(this), _amount) */\n      jump\t// in\n    tag_216:\n        /* \"赛题-预赛/第四题/OwnerBuy.sol\":4951:4952  1 */\n      0x01\n        /* \"赛题-预赛/第四题/OwnerBuy.sol\":4930:4935  Times */\n      0x09\n        /* \"赛题-预赛/第四题/OwnerBuy.sol\":4930:4947  Times[msg.sender] */\n      0x00\n        /* \"赛题-预赛/第四题/OwnerBuy.sol\":4936:4946  msg.sender */\n      caller\n        /* \"赛题-预赛/第四题/OwnerBuy.sol\":4930:4947  Times[msg.sender] */\n      0xffffffffffffffffffffffffffffffffffffffff\n      and\n      0xffffffffffffffffffffffffffffffffffffffff\n      and\n      dup2\n      mstore\n      0x20\n      add\n      swap1\n      dup2\n      mstore\n      0x20\n      add\n      0x00\n      keccak256\n      0x00\n        /* \"赛题-预赛/第四题/OwnerBuy.sol\":4930:4952  Times[msg.sender] -= 1 */\n      dup3\n      dup3\n      sload\n      sub\n      swap3\n      pop\n      pop\n      dup2\n      swap1\n      sstore\n      pop\n        /* \"赛题-预赛/第四题/OwnerBuy.sol\":4970:4974  true */\n      0x01\n        /* \"赛题-预赛/第四题/OwnerBuy.sol\":4963:4974  return true */\n      swap1\n      pop\n        /* \"赛题-预赛/第四题/OwnerBuy.sol\":4525:4982  function sell(uint256 _amount) public returns (bool success) {\r... */\n      swap2\n      swap1\n      pop\n      jump\t// out\n        /* \"赛题-预赛/第四题/OwnerBuy.sol\":1741:2016  function transferOwnership(address newOwner) public onlyOwner {\r... */\n    tag_138:\n        /* \"赛题-预赛/第四题/OwnerBuy.sol\":1028:1038  msg.sender */\n      caller\n        /* \"赛题-预赛/第四题/OwnerBuy.sol\":1018:1038  _owner == msg.sender */\n      0xffffffffffffffffffffffffffffffffffffffff\n      and\n        /* \"赛题-预赛/第四题/OwnerBuy.sol\":1018:1024  _owner */\n      0x00\n      dup1\n      swap1\n      sload\n      swap1\n      0x0100\n      exp\n      swap1\n      div\n      0xffffffffffffffffffffffffffffffffffffffff\n      and\n        /* \"赛题-预赛/第四题/OwnerBuy.sol\":1018:1038  _owner == msg.sender */\n      0xffffffffffffffffffffffffffffffffffffffff\n      and\n      eq\n        /* \"赛题-预赛/第四题/OwnerBuy.sol\":1010:1075  require(_owner == msg.sender, \"Ownable: caller is not the owner\") */\n      tag_218\n      jumpi\n      mload(0x40)\n      0x08c379a000000000000000000000000000000000000000000000000000000000\n      dup2\n      mstore\n      0x04\n      add\n      dup1\n      dup1\n      0x20\n      add\n      dup3\n      dup2\n      sub\n      dup3\n      mstore\n      0x20\n      dup2\n      mstore\n      0x20\n      add\n      dup1\n      0x4f776e61626c653a2063616c6c6572206973206e6f7420746865206f776e6572\n      dup2\n      mstore\n      pop\n      0x20\n      add\n      swap2\n      pop\n      pop\n      mload(0x40)\n      dup1\n      swap2\n      sub\n      swap1\n      revert\n    tag_218:\n        /* \"赛题-预赛/第四题/OwnerBuy.sol\":1856:1857  0 */\n      0x00\n        /* \"赛题-预赛/第四题/OwnerBuy.sol\":1836:1858  newOwner != address(0) */\n      0xffffffffffffffffffffffffffffffffffffffff\n      and\n        /* \"赛题-预赛/第四题/OwnerBuy.sol\":1836:1844  newOwner */\n      dup2\n        /* \"赛题-预赛/第四题/OwnerBuy.sol\":1836:1858  newOwner != address(0) */\n      0xffffffffffffffffffffffffffffffffffffffff\n      and\n      eq\n      iszero\n        /* \"赛题-预赛/第四题/OwnerBuy.sol\":1814:1924  require(\r... */\n      tag_220\n      jumpi\n      mload(0x40)\n      0x08c379a000000000000000000000000000000000000000000000000000000000\n      dup2\n      mstore\n      0x04\n      add\n      dup1\n      dup1\n      0x20\n      add\n      dup3\n      dup2\n      sub\n      dup3\n      mstore\n      0x26\n      dup2\n      mstore\n      0x20\n      add\n      dup1\n      data_245f15ff17f551913a7a18385165551503906a406f905ac1c2437281a7cd0cfe\n      0x26\n      swap2\n      codecopy\n      0x40\n      add\n      swap2\n      pop\n      pop\n      mload(0x40)\n      dup1\n      swap2\n      sub\n      swap1\n      revert\n    tag_220:\n        /* \"赛题-预赛/第四题/OwnerBuy.sol\":1971:1979  newOwner */\n      dup1\n        /* \"赛题-预赛/第四题/OwnerBuy.sol\":1942:1980  OwnershipTransferred(_owner, newOwner) */\n      0xffffffffffffffffffffffffffffffffffffffff\n      and\n        /* \"赛题-预赛/第四题/OwnerBuy.sol\":1963:1969  _owner */\n      0x00\n      dup1\n      swap1\n      sload\n      swap1\n      0x0100\n      exp\n      swap1\n      div\n      0xffffffffffffffffffffffffffffffffffffffff\n      and\n        /* \"赛题-预赛/第四题/OwnerBuy.sol\":1942:1980  OwnershipTransferred(_owner, newOwner) */\n      0xffffffffffffffffffffffffffffffffffffffff\n      and\n      0x8be0079c531659141344cd1fd0a4f28419497f9722a3daafe3b4186f6b6457e0\n      mload(0x40)\n      mload(0x40)\n      dup1\n      swap2\n      sub\n      swap1\n      log3\n        /* \"赛题-预赛/第四题/OwnerBuy.sol\":2000:2008  newOwner */\n      dup1\n        /* \"赛题-预赛/第四题/OwnerBuy.sol\":1991:1997  _owner */\n      0x00\n      dup1\n        /* \"赛题-预赛/第四题/OwnerBuy.sol\":1991:2008  _owner = newOwner */\n      0x0100\n      exp\n      dup2\n      sload\n      dup2\n      0xffffffffffffffffffffffffffffffffffffffff\n      mul\n      not\n      and\n      swap1\n      dup4\n      0xffffffffffffffffffffffffffffffffffffffff\n      and\n      mul\n      or\n      swap1\n      sstore\n      pop\n        /* \"赛题-预赛/第四题/OwnerBuy.sol\":1741:2016  function transferOwnership(address newOwner) public onlyOwner {\r... */\n      pop\n      jump\t// out\n        /* \"赛题-预赛/第四题/OwnerBuy.sol\":2092:2253  function lock() public onlyOwner {\r... */\n    tag_141:\n        /* \"赛题-预赛/第四题/OwnerBuy.sol\":1028:1038  msg.sender */\n      caller\n        /* \"赛题-预赛/第四题/OwnerBuy.sol\":1018:1038  _owner == msg.sender */\n      0xffffffffffffffffffffffffffffffffffffffff\n      and\n        /* \"赛题-预赛/第四题/OwnerBuy.sol\":1018:1024  _owner */\n      0x00\n      dup1\n      swap1\n      sload\n      swap1\n      0x0100\n      exp\n      swap1\n      div\n      0xffffffffffffffffffffffffffffffffffffffff\n      and\n        /* \"赛题-预赛/第四题/OwnerBuy.sol\":1018:1038  _owner == msg.sender */\n      0xffffffffffffffffffffffffffffffffffffffff\n      and\n      eq\n        /* \"赛题-预赛/第四题/OwnerBuy.sol\":1010:1075  require(_owner == msg.sender, \"Ownable: caller is not the owner\") */\n      tag_222\n      jumpi\n      mload(0x40)\n      0x08c379a000000000000000000000000000000000000000000000000000000000\n      dup2\n      mstore\n      0x04\n      add\n      dup1\n      dup1\n      0x20\n      add\n      dup3\n      dup2\n      sub\n      dup3\n      mstore\n      0x20\n      dup2\n      mstore\n      0x20\n      add\n      dup1\n      0x4f776e61626c653a2063616c6c6572206973206e6f7420746865206f776e6572\n      dup2\n      mstore\n      pop\n      0x20\n      add\n      swap2\n      pop\n      pop\n      mload(0x40)\n      dup1\n      swap2\n      sub\n      swap1\n      revert\n    tag_222:\n        /* \"赛题-预赛/第四题/OwnerBuy.sol\":2153:2159  _owner */\n      0x00\n      dup1\n      swap1\n      sload\n      swap1\n      0x0100\n      exp\n      swap1\n      div\n      0xffffffffffffffffffffffffffffffffffffffff\n      and\n        /* \"赛题-预赛/第四题/OwnerBuy.sol\":2136:2150  _previousOwner */\n      0x01\n      0x00\n        /* \"赛题-预赛/第四题/OwnerBuy.sol\":2136:2159  _previousOwner = _owner */\n      0x0100\n      exp\n      dup2\n      sload\n      dup2\n      0xffffffffffffffffffffffffffffffffffffffff\n      mul\n      not\n      and\n      swap1\n      dup4\n      0xffffffffffffffffffffffffffffffffffffffff\n      and\n      mul\n      or\n      swap1\n      sstore\n      pop\n        /* \"赛题-预赛/第四题/OwnerBuy.sol\":2187:2188  0 */\n      0x00\n        /* \"赛题-预赛/第四题/OwnerBuy.sol\":2170:2176  _owner */\n      dup1\n      0x00\n        /* \"赛题-预赛/第四题/OwnerBuy.sol\":2170:2189  _owner = address(0) */\n      0x0100\n      exp\n      dup2\n      sload\n      dup2\n      0xffffffffffffffffffffffffffffffffffffffff\n      mul\n      not\n      and\n      swap1\n      dup4\n      0xffffffffffffffffffffffffffffffffffffffff\n      and\n      mul\n      or\n      swap1\n      sstore\n      pop\n        /* \"赛题-预赛/第四题/OwnerBuy.sol\":2242:2243  0 */\n      0x00\n        /* \"赛题-预赛/第四题/OwnerBuy.sol\":2205:2245  OwnershipTransferred(_owner, address(0)) */\n      0xffffffffffffffffffffffffffffffffffffffff\n      and\n        /* \"赛题-预赛/第四题/OwnerBuy.sol\":2226:2232  _owner */\n      0x00\n      dup1\n      swap1\n      sload\n      swap1\n      0x0100\n      exp\n      swap1\n      div\n      0xffffffffffffffffffffffffffffffffffffffff\n      and\n        /* \"赛题-预赛/第四题/OwnerBuy.sol\":2205:2245  OwnershipTransferred(_owner, address(0)) */\n      0xffffffffffffffffffffffffffffffffffffffff\n      and\n      0x8be0079c531659141344cd1fd0a4f28419497f9722a3daafe3b4186f6b6457e0\n      mload(0x40)\n      mload(0x40)\n      dup1\n      swap2\n      sub\n      swap1\n      log3\n        /* \"赛题-预赛/第四题/OwnerBuy.sol\":2092:2253  function lock() public onlyOwner {\r... */\n      jump\t// out\n        /* \"赛题-预赛/第四题/contracts/ERC20.sol\":7070:7405  function _approve(address owner, address spender, uint256 value) internal {\r... */\n    tag_148:\n        /* \"赛题-预赛/第四题/contracts/ERC20.sol\":7180:7181  0 */\n      0x00\n        /* \"赛题-预赛/第四题/contracts/ERC20.sol\":7163:7182  owner != address(0) */\n      0xffffffffffffffffffffffffffffffffffffffff\n      and\n        /* \"赛题-预赛/第四题/contracts/ERC20.sol\":7163:7168  owner */\n      dup4\n        /* \"赛题-预赛/第四题/contracts/ERC20.sol\":7163:7182  owner != address(0) */\n      0xffffffffffffffffffffffffffffffffffffffff\n      and\n      eq\n      iszero\n        /* \"赛题-预赛/第四题/contracts/ERC20.sol\":7155:7223  require(owner != address(0), \"ERC20: approve from the zero address\") */\n      tag_225\n      jumpi\n      mload(0x40)\n      0x08c379a000000000000000000000000000000000000000000000000000000000\n      dup2\n      mstore\n      0x04\n      add\n      dup1\n      dup1\n      0x20\n      add\n      dup3\n      dup2\n      sub\n      dup3\n      mstore\n      0x24\n      dup2\n      mstore\n      0x20\n      add\n      dup1\n      data_c953f4879035ed60e766b34720f656aab5c697b141d924c283124ecedb91c208\n      0x24\n      swap2\n      codecopy\n      0x40\n      add\n      swap2\n      pop\n      pop\n      mload(0x40)\n      dup1\n      swap2\n      sub\n      swap1\n      revert\n    tag_225:\n        /* \"赛题-预赛/第四题/contracts/ERC20.sol\":7261:7262  0 */\n      0x00\n        /* \"赛题-预赛/第四题/contracts/ERC20.sol\":7242:7263  spender != address(0) */\n      0xffffffffffffffffffffffffffffffffffffffff\n      and\n        /* \"赛题-预赛/第四题/contracts/ERC20.sol\":7242:7249  spender */\n      dup3\n        /* \"赛题-预赛/第四题/contracts/ERC20.sol\":7242:7263  spender != address(0) */\n      0xffffffffffffffffffffffffffffffffffffffff\n      and\n      eq\n      iszero\n        /* \"赛题-预赛/第四题/contracts/ERC20.sol\":7234:7302  require(spender != address(0), \"ERC20: approve to the zero address\") */\n      tag_226\n      jumpi\n      mload(0x40)\n      0x08c379a000000000000000000000000000000000000000000000000000000000\n      dup2\n      mstore\n      0x04\n      add\n      dup1\n      dup1\n      0x20\n      add\n      dup3\n      dup2\n      sub\n      dup3\n      mstore\n      0x22\n      dup2\n      mstore\n      0x20\n      add\n      dup1\n      data_24883cc5fe64ace9d0df1893501ecb93c77180f0ff69cca79affb3c316dc8029\n      0x22\n      swap2\n      codecopy\n      0x40\n      add\n      swap2\n      pop\n      pop\n      mload(0x40)\n      dup1\n      swap2\n      sub\n      swap1\n      revert\n    tag_226:\n        /* \"赛题-预赛/第四题/contracts/ERC20.sol\":7345:7350  value */\n      dup1\n        /* \"赛题-预赛/第四题/contracts/ERC20.sol\":7315:7326  _allowances */\n      0x03\n        /* \"赛题-预赛/第四题/contracts/ERC20.sol\":7315:7333  _allowances[owner] */\n      0x00\n        /* \"赛题-预赛/第四题/contracts/ERC20.sol\":7327:7332  owner */\n      dup6\n        /* \"赛题-预赛/第四题/contracts/ERC20.sol\":7315:7333  _allowances[owner] */\n      0xffffffffffffffffffffffffffffffffffffffff\n      and\n      0xffffffffffffffffffffffffffffffffffffffff\n      and\n      dup2\n      mstore\n      0x20\n      add\n      swap1\n      dup2\n      mstore\n      0x20\n      add\n      0x00\n      keccak256\n        /* \"赛题-预赛/第四题/contracts/ERC20.sol\":7315:7342  _allowances[owner][spender] */\n      0x00\n        /* \"赛题-预赛/第四题/contracts/ERC20.sol\":7334:7341  spender */\n      dup5\n        /* \"赛题-预赛/第四题/contracts/ERC20.sol\":7315:7342  _allowances[owner][spender] */\n      0xffffffffffffffffffffffffffffffffffffffff\n      and\n      0xffffffffffffffffffffffffffffffffffffffff\n      and\n      dup2\n      mstore\n      0x20\n      add\n      swap1\n      dup2\n      mstore\n      0x20\n      add\n      0x00\n      keccak256\n        /* \"赛题-预赛/第四题/contracts/ERC20.sol\":7315:7350  _allowances[owner][spender] = value */\n      dup2\n      swap1\n      sstore\n      pop\n        /* \"赛题-预赛/第四题/contracts/ERC20.sol\":7382:7389  spender */\n      dup2\n        /* \"赛题-预赛/第四题/contracts/ERC20.sol\":7366:7397  Approval(owner, spender, value) */\n      0xffffffffffffffffffffffffffffffffffffffff\n      and\n        /* \"赛题-预赛/第四题/contracts/ERC20.sol\":7375:7380  owner */\n      dup4\n        /* \"赛题-预赛/第四题/contracts/ERC20.sol\":7366:7397  Approval(owner, spender, value) */\n      0xffffffffffffffffffffffffffffffffffffffff\n      and\n      0x8c5be1e5ebec7d5bd14f71427d1e84f3dd0314c0f7b2291e5b200ac8c7c3b925\n        /* \"赛题-预赛/第四题/contracts/ERC20.sol\":7391:7396  value */\n      dup4\n        /* \"赛题-预赛/第四题/contracts/ERC20.sol\":7366:7397  Approval(owner, spender, value) */\n      mload(0x40)\n      dup1\n      dup3\n      dup2\n      mstore\n      0x20\n      add\n      swap2\n      pop\n      pop\n      mload(0x40)\n      dup1\n      swap2\n      sub\n      swap1\n      log3\n        /* \"赛题-预赛/第四题/contracts/ERC20.sol\":7070:7405  function _approve(address owner, address spender, uint256 value) internal {\r... */\n      pop\n      pop\n      pop\n      jump\t// out\n        /* \"赛题-预赛/第四题/OwnerBuy.sol\":3215:3632  function _transfer(\r... */\n    tag_152:\n        /* \"赛题-预赛/第四题/OwnerBuy.sol\":3359:3388  _balances[sender].sub(amount) */\n      tag_228\n        /* \"赛题-预赛/第四题/OwnerBuy.sol\":3381:3387  amount */\n      dup2\n        /* \"赛题-预赛/第四题/OwnerBuy.sol\":3359:3368  _balances */\n      0x02\n        /* \"赛题-预赛/第四题/OwnerBuy.sol\":3359:3376  _balances[sender] */\n      0x00\n        /* \"赛题-预赛/第四题/OwnerBuy.sol\":3369:3375  sender */\n      dup7\n        /* \"赛题-预赛/第四题/OwnerBuy.sol\":3359:3376  _balances[sender] */\n      0xffffffffffffffffffffffffffffffffffffffff\n      and\n      0xffffffffffffffffffffffffffffffffffffffff\n      and\n      dup2\n      mstore\n      0x20\n      add\n      swap1\n      dup2\n      mstore\n      0x20\n      add\n      0x00\n      keccak256\n      sload\n        /* \"赛题-预赛/第四题/OwnerBuy.sol\":3359:3380  _balances[sender].sub */\n      tag_155\n      swap1\n        /* \"赛题-预赛/第四题/OwnerBuy.sol\":3359:3388  _balances[sender].sub(amount) */\n      swap2\n      swap1\n      0xffffffff\n      and\n      jump\t// in\n    tag_228:\n        /* \"赛题-预赛/第四题/OwnerBuy.sol\":3339:3348  _balances */\n      0x02\n        /* \"赛题-预赛/第四题/OwnerBuy.sol\":3339:3356  _balances[sender] */\n      0x00\n        /* \"赛题-预赛/第四题/OwnerBuy.sol\":3349:3355  sender */\n      dup6\n        /* \"赛题-预赛/第四题/OwnerBuy.sol\":3339:3356  _balances[sender] */\n      0xffffffffffffffffffffffffffffffffffffffff\n      and\n      0xffffffffffffffffffffffffffffffffffffffff\n      and\n      dup2\n      mstore\n      0x20\n      add\n      swap1\n      dup2\n      mstore\n      0x20\n      add\n      0x00\n      keccak256\n        /* \"赛题-预赛/第四题/OwnerBuy.sol\":3339:3388  _balances[sender] = _balances[sender].sub(amount) */\n      dup2\n      swap1\n      sstore\n      pop\n        /* \"赛题-预赛/第四题/OwnerBuy.sol\":3422:3454  _balances[recipient].add(amount) */\n      tag_229\n        /* \"赛题-预赛/第四题/OwnerBuy.sol\":3447:3453  amount */\n      dup2\n        /* \"赛题-预赛/第四题/OwnerBuy.sol\":3422:3431  _balances */\n      0x02\n        /* \"赛题-预赛/第四题/OwnerBuy.sol\":3422:3442  _balances[recipient] */\n      0x00\n        /* \"赛题-预赛/第四题/OwnerBuy.sol\":3432:3441  recipient */\n      dup6\n        /* \"赛题-预赛/第四题/OwnerBuy.sol\":3422:3442  _balances[recipient] */\n      0xffffffffffffffffffffffffffffffffffffffff\n      and\n      0xffffffffffffffffffffffffffffffffffffffff\n      and\n      dup2\n      mstore\n      0x20\n      add\n      swap1\n      dup2\n      mstore\n      0x20\n      add\n      0x00\n      keccak256\n      sload\n        /* \"赛题-预赛/第四题/OwnerBuy.sol\":3422:3446  _balances[recipient].add */\n      tag_160\n      swap1\n        /* \"赛题-预赛/第四题/OwnerBuy.sol\":3422:3454  _balances[recipient].add(amount) */\n      swap2\n      swap1\n      0xffffffff\n      and\n      jump\t// in\n    tag_229:\n        /* \"赛题-预赛/第四题/OwnerBuy.sol\":3399:3408  _balances */\n      0x02\n        /* \"赛题-预赛/第四题/OwnerBuy.sol\":3399:3419  _balances[recipient] */\n      0x00\n        /* \"赛题-预赛/第四题/OwnerBuy.sol\":3409:3418  recipient */\n      dup5\n        /* \"赛题-预赛/第四题/OwnerBuy.sol\":3399:3419  _balances[recipient] */\n      0xffffffffffffffffffffffffffffffffffffffff\n      and\n      0xffffffffffffffffffffffffffffffffffffffff\n      and\n      dup2\n      mstore\n      0x20\n      add\n      swap1\n      dup2\n      mstore\n      0x20\n      add\n      0x00\n      keccak256\n        /* \"赛题-预赛/第四题/OwnerBuy.sol\":3399:3454  _balances[recipient] = _balances[recipient].add(amount) */\n      dup2\n      swap1\n      sstore\n      pop\n        /* \"赛题-预赛/第四题/OwnerBuy.sol\":3470:3488  isWhite(recipient) */\n      tag_230\n        /* \"赛题-预赛/第四题/OwnerBuy.sol\":3478:3487  recipient */\n      dup3\n        /* \"赛题-预赛/第四题/OwnerBuy.sol\":3470:3477  isWhite */\n      tag_104\n        /* \"赛题-预赛/第四题/OwnerBuy.sol\":3470:3488  isWhite(recipient) */\n      jump\t// in\n    tag_230:\n        /* \"赛题-预赛/第四题/OwnerBuy.sol\":3465:3574  if (!isWhite(recipient)) {\r... */\n      tag_231\n      jumpi\n        /* \"赛题-预赛/第四题/OwnerBuy.sol\":3537:3544  MAXHOLD */\n      sload(0x0b)\n        /* \"赛题-预赛/第四题/OwnerBuy.sol\":3513:3522  _balances */\n      0x02\n        /* \"赛题-预赛/第四题/OwnerBuy.sol\":3513:3533  _balances[recipient] */\n      0x00\n        /* \"赛题-预赛/第四题/OwnerBuy.sol\":3523:3532  recipient */\n      dup5\n        /* \"赛题-预赛/第四题/OwnerBuy.sol\":3513:3533  _balances[recipient] */\n      0xffffffffffffffffffffffffffffffffffffffff\n      and\n      0xffffffffffffffffffffffffffffffffffffffff\n      and\n      dup2\n      mstore\n      0x20\n      add\n      swap1\n      dup2\n      mstore\n      0x20\n      add\n      0x00\n      keccak256\n      sload\n        /* \"赛题-预赛/第四题/OwnerBuy.sol\":3513:3544  _balances[recipient] <= MAXHOLD */\n      gt\n      iszero\n        /* \"赛题-预赛/第四题/OwnerBuy.sol\":3505:3562  require(_balances[recipient] <= MAXHOLD, \"hold overflow\") */\n      tag_232\n      jumpi\n      mload(0x40)\n      0x08c379a000000000000000000000000000000000000000000000000000000000\n      dup2\n      mstore\n      0x04\n      add\n      dup1\n      dup1\n      0x20\n      add\n      dup3\n      dup2\n      sub\n      dup3\n      mstore\n      0x0d\n      dup2\n      mstore\n      0x20\n      add\n      dup1\n      0x686f6c64206f766572666c6f7700000000000000000000000000000000000000\n      dup2\n      mstore\n      pop\n      0x20\n      add\n      swap2\n      pop\n      pop\n      mload(0x40)\n      dup1\n      swap2\n      sub\n      swap1\n      revert\n    tag_232:\n        /* \"赛题-预赛/第四题/OwnerBuy.sol\":3465:3574  if (!isWhite(recipient)) {\r... */\n    tag_231:\n        /* \"赛题-预赛/第四题/OwnerBuy.sol\":3606:3615  recipient */\n      dup2\n        /* \"赛题-预赛/第四题/OwnerBuy.sol\":3589:3624  Transfer(sender, recipient, amount) */\n      0xffffffffffffffffffffffffffffffffffffffff\n      and\n        /* \"赛题-预赛/第四题/OwnerBuy.sol\":3598:3604  sender */\n      dup4\n        /* \"赛题-预赛/第四题/OwnerBuy.sol\":3589:3624  Transfer(sender, recipient, amount) */\n      0xffffffffffffffffffffffffffffffffffffffff\n      and\n      0xddf252ad1be2c89b69c2b068fc378daa952ba7f163c4a11628f55a4df523b3ef\n        /* \"赛题-预赛/第四题/OwnerBuy.sol\":3617:3623  amount */\n      dup4\n        /* \"赛题-预赛/第四题/OwnerBuy.sol\":3589:3624  Transfer(sender, recipient, amount) */\n      mload(0x40)\n      dup1\n      dup3\n      dup2\n      mstore\n      0x20\n      add\n      swap2\n      pop\n      pop\n      mload(0x40)\n      dup1\n      swap2\n      sub\n      swap1\n      log3\n        /* \"赛题-预赛/第四题/OwnerBuy.sol\":3215:3632  function _transfer(\r... */\n      pop\n      pop\n      pop\n      jump\t// out\n        /* \"赛题-预赛/第四题/contracts/SafeMath.sol\":1315:1499  function sub(uint256 a, uint256 b) internal pure returns (uint256) {\r... */\n    tag_155:\n        /* \"赛题-预赛/第四题/contracts/SafeMath.sol\":1373:1380  uint256 */\n      0x00\n        /* \"赛题-预赛/第四题/contracts/SafeMath.sol\":1406:1407  a */\n      dup3\n        /* \"赛题-预赛/第四题/contracts/SafeMath.sol\":1401:1402  b */\n      dup3\n        /* \"赛题-预赛/第四题/contracts/SafeMath.sol\":1401:1407  b <= a */\n      gt\n      iszero\n        /* \"赛题-预赛/第四题/contracts/SafeMath.sol\":1393:1442  require(b <= a, \"SafeMath: subtraction overflow\") */\n      tag_234\n      jumpi\n      mload(0x40)\n      0x08c379a000000000000000000000000000000000000000000000000000000000\n      dup2\n      mstore\n      0x04\n      add\n      dup1\n      dup1\n      0x20\n      add\n      dup3\n      dup2\n      sub\n      dup3\n      mstore\n      0x1e\n      dup2\n      mstore\n      0x20\n      add\n      dup1\n      0x536166654d6174683a207375627472616374696f6e206f766572666c6f770000\n      dup2\n      mstore\n      pop\n      0x20\n      add\n      swap2\n      pop\n      pop\n      mload(0x40)\n      dup1\n      swap2\n      sub\n      swap1\n      revert\n    tag_234:\n        /* \"赛题-预赛/第四题/contracts/SafeMath.sol\":1453:1462  uint256 c */\n      0x00\n        /* \"赛题-预赛/第四题/contracts/SafeMath.sol\":1469:1470  b */\n      dup3\n        /* \"赛题-预赛/第四题/contracts/SafeMath.sol\":1465:1466  a */\n      dup5\n        /* \"赛题-预赛/第四题/contracts/SafeMath.sol\":1465:1470  a - b */\n      sub\n        /* \"赛题-预赛/第四题/contracts/SafeMath.sol\":1453:1470  uint256 c = a - b */\n      swap1\n      pop\n        /* \"赛题-预赛/第四题/contracts/SafeMath.sol\":1490:1491  c */\n      dup1\n        /* \"赛题-预赛/第四题/contracts/SafeMath.sol\":1483:1491  return c */\n      swap2\n      pop\n      pop\n        /* \"赛题-预赛/第四题/contracts/SafeMath.sol\":1315:1499  function sub(uint256 a, uint256 b) internal pure returns (uint256) {\r... */\n      swap3\n      swap2\n      pop\n      pop\n      jump\t// out\n        /* \"赛题-预赛/第四题/contracts/SafeMath.sol\":859:1040  function add(uint256 a, uint256 b) internal pure returns (uint256) {\r... */\n    tag_160:\n        /* \"赛题-预赛/第四题/contracts/SafeMath.sol\":917:924  uint256 */\n      0x00\n        /* \"赛题-预赛/第四题/contracts/SafeMath.sol\":937:946  uint256 c */\n      dup1\n        /* \"赛题-预赛/第四题/contracts/SafeMath.sol\":953:954  b */\n      dup3\n        /* \"赛题-预赛/第四题/contracts/SafeMath.sol\":949:950  a */\n      dup5\n        /* \"赛题-预赛/第四题/contracts/SafeMath.sol\":949:954  a + b */\n      add\n        /* \"赛题-预赛/第四题/contracts/SafeMath.sol\":937:954  uint256 c = a + b */\n      swap1\n      pop\n        /* \"赛题-预赛/第四题/contracts/SafeMath.sol\":978:979  a */\n      dup4\n        /* \"赛题-预赛/第四题/contracts/SafeMath.sol\":973:974  c */\n      dup2\n        /* \"赛题-预赛/第四题/contracts/SafeMath.sol\":973:979  c >= a */\n      lt\n      iszero\n        /* \"赛题-预赛/第四题/contracts/SafeMath.sol\":965:1011  require(c >= a, \"SafeMath: addition overflow\") */\n      tag_236\n      jumpi\n      mload(0x40)\n      0x08c379a000000000000000000000000000000000000000000000000000000000\n      dup2\n      mstore\n      0x04\n      add\n      dup1\n      dup1\n      0x20\n      add\n      dup3\n      dup2\n      sub\n      dup3\n      mstore\n      0x1b\n      dup2\n      mstore\n      0x20\n      add\n      dup1\n      0x536166654d6174683a206164646974696f6e206f766572666c6f770000000000\n      dup2\n      mstore\n      pop\n      0x20\n      add\n      swap2\n      pop\n      pop\n      mload(0x40)\n      dup1\n      swap2\n      sub\n      swap1\n      revert\n    tag_236:\n        /* \"赛题-预赛/第四题/contracts/SafeMath.sol\":1031:1032  c */\n      dup1\n        /* \"赛题-预赛/第四题/contracts/SafeMath.sol\":1024:1032  return c */\n      swap2\n      pop\n      pop\n        /* \"赛题-预赛/第四题/contracts/SafeMath.sol\":859:1040  function add(uint256 a, uint256 b) internal pure returns (uint256) {\r... */\n      swap3\n      swap2\n      pop\n      pop\n      jump\t// out\n    stop\n    data_245f15ff17f551913a7a18385165551503906a406f905ac1c2437281a7cd0cfe 4f776e61626c653a206e6577206f776e657220697320746865207a65726f2061646472657373\n    data_24883cc5fe64ace9d0df1893501ecb93c77180f0ff69cca79affb3c316dc8029 45524332303a20617070726f766520746f20746865207a65726f2061646472657373\n    data_c953f4879035ed60e766b34720f656aab5c697b141d924c283124ecedb91c208 45524332303a20617070726f76652066726f6d20746865207a65726f2061646472657373\n\n    auxdata: 0xa265627a7a723158208a5b76c8858b2d6e2432ab0b438bfa09edfb8008eeb9e7a4d545404dc600ee6d64736f6c63430005110032\n}\n",
				"bytecode": {
					"linkReferences": {},
					"object": "60806040526064600b553480156200001657600080fd5b506040518060400160405280600481526020017f44454d4f000000000000000000000000000000000000000000000000000000008152506040518060400160405280600481526020017f44454d4f0000000000000000000000000000000000000000000000000000000081525060126000339050806000806101000a81548173ffffffffffffffffffffffffffffffffffffffff021916908373ffffffffffffffffffffffffffffffffffffffff1602179055508073ffffffffffffffffffffffffffffffffffffffff16600073ffffffffffffffffffffffffffffffffffffffff167f8be0079c531659141344cd1fd0a4f28419497f9722a3daafe3b4186f6b6457e060405160405180910390a35082600590805190602001906200013e9291906200017c565b508160069080519060200190620001579291906200017c565b5080600760006101000a81548160ff021916908360ff1602179055505050506200022b565b828054600181600116156101000203166002900490600052602060002090601f016020900481019282601f10620001bf57805160ff1916838001178555620001f0565b82800160010185558215620001f0579182015b82811115620001ef578251825591602001919060010190620001d2565b5b509050620001ff919062000203565b5090565b6200022891905b80821115620002245760008160009055506001016200020a565b5090565b90565b6127e0806200023b6000396000f3fe6080604052600436106101b75760003560e01c80638da5cb5b116100ec578063b2bdfa7b1161008a578063dd62ed3e11610064578063dd62ed3e146109e4578063e4849b3214610a69578063f2fde38b14610abc578063f83d08ba14610b0d576101b7565b8063b2bdfa7b146108f5578063c03646ba1461094c578063d56b2889146109b5576101b7565b8063a457c2d7116100c6578063a457c2d7146107e3578063a69df4b514610856578063a6f2ae3a14610860578063a9059cbb14610882576101b7565b80638da5cb5b1461069357806395d89b41146106ea578063a348c2891461077a576101b7565b80634170201411610159578063645b8b1b11610133578063645b8b1b146105575780636e63cd96146105c057806370a0823114610617578063715018a61461067c576101b7565b8063417020141461048657806351ec819f146104ef57806362a0947714610540576101b7565b80631c87e971116101955780631c87e971146102ea57806323b872dd1461034f578063313ce567146103e25780633950935114610413576101b7565b806306fdde03146101bc578063095ea7b31461024c57806318160ddd146102bf575b600080fd5b3480156101c857600080fd5b506101d1610b24565b6040518080602001828103825283818151815260200191508051906020019080838360005b838110156102115780820151818401526020810190506101f6565b50505050905090810190601f16801561023e5780820380516001836020036101000a031916815260200191505b509250505060405180910390f35b34801561025857600080fd5b506102a56004803603604081101561026f57600080fd5b81019080803573ffffffffffffffffffffffffffffffffffffffff16906020019092919080359060200190929190505050610bc6565b604051808215151515815260200191505060405180910390f35b3480156102cb57600080fd5b506102d4610bdd565b6040518082815260200191505060405180910390f35b3480156102f657600080fd5b506103396004803603602081101561030d57600080fd5b81019080803573ffffffffffffffffffffffffffffffffffffffff169060200190929190505050610be7565b6040518082815260200191505060405180910390f35b34801561035b57600080fd5b506103c86004803603606081101561037257600080fd5b81019080803573ffffffffffffffffffffffffffffffffffffffff169060200190929190803573ffffffffffffffffffffffffffffffffffffffff16906020019092919080359060200190929190505050610bff565b604051808215151515815260200191505060405180910390f35b3480156103ee57600080fd5b506103f7610cb0565b604051808260ff1660ff16815260200191505060405180910390f35b34801561041f57600080fd5b5061046c6004803603604081101561043657600080fd5b81019080803573ffffffffffffffffffffffffffffffffffffffff16906020019092919080359060200190929190505050610cc7565b604051808215151515815260200191505060405180910390f35b34801561049257600080fd5b506104d5600480360360208110156104a957600080fd5b81019080803573ffffffffffffffffffffffffffffffffffffffff169060200190929190505050610d6c565b604051808215151515815260200191505060405180910390f35b3480156104fb57600080fd5b5061053e6004803603602081101561051257600080fd5b81019080803573ffffffffffffffffffffffffffffffffffffffff169060200190929190505050610e91565b005b34801561054c57600080fd5b50610555611069565b005b34801561056357600080fd5b506105a66004803603602081101561057a57600080fd5b81019080803573ffffffffffffffffffffffffffffffffffffffff1690602001909291905050506111bc565b604051808215151515815260200191505060405180910390f35b3480156105cc57600080fd5b506105d56111dc565b604051808273ffffffffffffffffffffffffffffffffffffffff1673ffffffffffffffffffffffffffffffffffffffff16815260200191505060405180910390f35b34801561062357600080fd5b506106666004803603602081101561063a57600080fd5b81019080803573ffffffffffffffffffffffffffffffffffffffff169060200190929190505050611202565b6040518082815260200191505060405180910390f35b34801561068857600080fd5b5061069161124b565b005b34801561069f57600080fd5b506106a86113cc565b604051808273ffffffffffffffffffffffffffffffffffffffff1673ffffffffffffffffffffffffffffffffffffffff16815260200191505060405180910390f35b3480156106f657600080fd5b506106ff6113f5565b6040518080602001828103825283818151815260200191508051906020019080838360005b8381101561073f578082015181840152602081019050610724565b50505050905090810190601f16801561076c5780820380516001836020036101000a031916815260200191505b509250505060405180910390f35b34801561078657600080fd5b506107c96004803603602081101561079d57600080fd5b81019080803573ffffffffffffffffffffffffffffffffffffffff169060200190929190505050611497565b604051808215151515815260200191505060405180910390f35b3480156107ef57600080fd5b5061083c6004803603604081101561080657600080fd5b81019080803573ffffffffffffffffffffffffffffffffffffffff169060200190929190803590602001909291905050506114ed565b604051808215151515815260200191505060405180910390f35b61085e611592565b005b6108686116a8565b604051808215151515815260200191505060405180910390f35b34801561088e57600080fd5b506108db600480360360408110156108a557600080fd5b81019080803573ffffffffffffffffffffffffffffffffffffffff16906020019092919080359060200190929190505050611886565b604051808215151515815260200191505060405180910390f35b34801561090157600080fd5b5061090a61189d565b604051808273ffffffffffffffffffffffffffffffffffffffff1673ffffffffffffffffffffffffffffffffffffffff16815260200191505060405180910390f35b34801561095857600080fd5b5061099b6004803603602081101561096f57600080fd5b81019080803573ffffffffffffffffffffffffffffffffffffffff1690602001909291905050506118c2565b604051808215151515815260200191505060405180910390f35b3480156109c157600080fd5b506109ca6119e7565b604051808215151515815260200191505060405180910390f35b3480156109f057600080fd5b50610a5360048036036040811015610a0757600080fd5b81019080803573ffffffffffffffffffffffffffffffffffffffff169060200190929190803573ffffffffffffffffffffffffffffffffffffffff169060200190929190505050611bc7565b6040518082815260200191505060405180910390f35b348015610a7557600080fd5b50610aa260048036036020811015610a8c57600080fd5b8101908080359060200190929190505050611c4e565b604051808215151515815260200191505060405180910390f35b348015610ac857600080fd5b50610b0b60048036036020811015610adf57600080fd5b81019080803573ffffffffffffffffffffffffffffffffffffffff169060200190929190505050611df5565b005b348015610b1957600080fd5b50610b22611ffb565b005b606060058054600181600116156101000203166002900480601f016020809104026020016040519081016040528092919081815260200182805460018160011615610100020316600290048015610bbc5780601f10610b9157610100808354040283529160200191610bbc565b820191906000526020600020905b815481529060010190602001808311610b9f57829003601f168201915b5050505050905090565b6000610bd33384846121de565b6001905092915050565b6000600454905090565b60096020528060005260406000206000915090505481565b6000610c0c8484846123d5565b610ca58433610ca085600360008a73ffffffffffffffffffffffffffffffffffffffff1673ffffffffffffffffffffffffffffffffffffffff16815260200190815260200160002060003373ffffffffffffffffffffffffffffffffffffffff1673ffffffffffffffffffffffffffffffffffffffff1681526020019081526020016000205461262e90919063ffffffff16565b6121de565b600190509392505050565b6000600760009054906101000a900460ff16905090565b6000610d623384610d5d85600360003373ffffffffffffffffffffffffffffffffffffffff1673ffffffffffffffffffffffffffffffffffffffff16815260200190815260200160002060008973ffffffffffffffffffffffffffffffffffffffff1673ffffffffffffffffffffffffffffffffffffffff168152602001908152602001600020546126b790919063ffffffff16565b6121de565b6001905092915050565b60003373ffffffffffffffffffffffffffffffffffffffff166000809054906101000a900473ffffffffffffffffffffffffffffffffffffffff1673ffffffffffffffffffffffffffffffffffffffff1614610e30576040517f08c379a00000000000000000000000000000000000000000000000000000000081526004018080602001828103825260208152602001807f4f776e61626c653a2063616c6c6572206973206e6f7420746865206f776e657281525060200191505060405180910390fd5b6000600a60008473ffffffffffffffffffffffffffffffffffffffff1673ffffffffffffffffffffffffffffffffffffffff16815260200190815260200160002060006101000a81548160ff02191690831515021790555060019050919050565b60003390508073ffffffffffffffffffffffffffffffffffffffff16632f54bf6e836040518263ffffffff1660e01b8152600401808273ffffffffffffffffffffffffffffffffffffffff1673ffffffffffffffffffffffffffffffffffffffff168152602001915050602060405180830381600087803b158015610f1557600080fd5b505af1158015610f29573d6000803e3d6000fd5b505050506040513d6020811015610f3f57600080fd5b8101908080519060200190929190505050611065578073ffffffffffffffffffffffffffffffffffffffff16632f54bf6e836040518263ffffffff1660e01b8152600401808273ffffffffffffffffffffffffffffffffffffffff1673ffffffffffffffffffffffffffffffffffffffff168152602001915050602060405180830381600087803b158015610fd357600080fd5b505af1158015610fe7573d6000803e3d6000fd5b505050506040513d6020811015610ffd57600080fd5b8101908080519060200190929190505050600860003373ffffffffffffffffffffffffffffffffffffffff1673ffffffffffffffffffffffffffffffffffffffff16815260200190815260200160002060006101000a81548160ff0219169083151502179055505b5050565b3373ffffffffffffffffffffffffffffffffffffffff163273ffffffffffffffffffffffffffffffffffffffff1614156110a257600080fd5b61ffff803373ffffffffffffffffffffffffffffffffffffffff1616146110c857600080fd5b60011515600860003373ffffffffffffffffffffffffffffffffffffffff1673ffffffffffffffffffffffffffffffffffffffff16815260200190815260200160002060009054906101000a900460ff16151514156111ba576000600860003373ffffffffffffffffffffffffffffffffffffffff1673ffffffffffffffffffffffffffffffffffffffff16815260200190815260200160002060006101000a81548160ff021916908315150217905550336000806101000a81548173ffffffffffffffffffffffffffffffffffffffff021916908373ffffffffffffffffffffffffffffffffffffffff1602179055505b565b60086020528060005260406000206000915054906101000a900460ff1681565b600160009054906101000a900473ffffffffffffffffffffffffffffffffffffffff1681565b6000600260008373ffffffffffffffffffffffffffffffffffffffff1673ffffffffffffffffffffffffffffffffffffffff168152602001908152602001600020549050919050565b3373ffffffffffffffffffffffffffffffffffffffff166000809054906101000a900473ffffffffffffffffffffffffffffffffffffffff1673ffffffffffffffffffffffffffffffffffffffff161461130d576040517f08c379a00000000000000000000000000000000000000000000000000000000081526004018080602001828103825260208152602001807f4f776e61626c653a2063616c6c6572206973206e6f7420746865206f776e657281525060200191505060405180910390fd5b600073ffffffffffffffffffffffffffffffffffffffff166000809054906101000a900473ffffffffffffffffffffffffffffffffffffffff1673ffffffffffffffffffffffffffffffffffffffff167f8be0079c531659141344cd1fd0a4f28419497f9722a3daafe3b4186f6b6457e060405160405180910390a360008060006101000a81548173ffffffffffffffffffffffffffffffffffffffff021916908373ffffffffffffffffffffffffffffffffffffffff160217905550565b60008060009054906101000a900473ffffffffffffffffffffffffffffffffffffffff16905090565b606060068054600181600116156101000203166002900480601f01602080910402602001604051908101604052809291908181526020018280546001816001161561010002031660029004801561148d5780601f106114625761010080835404028352916020019161148d565b820191906000526020600020905b81548152906001019060200180831161147057829003601f168201915b5050505050905090565b6000600a60008373ffffffffffffffffffffffffffffffffffffffff1673ffffffffffffffffffffffffffffffffffffffff16815260200190815260200160002060009054906101000a900460ff169050919050565b6000611588338461158385600360003373ffffffffffffffffffffffffffffffffffffffff1673ffffffffffffffffffffffffffffffffffffffff16815260200190815260200160002060008973ffffffffffffffffffffffffffffffffffffffff1673ffffffffffffffffffffffffffffffffffffffff1681526020019081526020016000205461262e90919063ffffffff16565b6121de565b6001905092915050565b670de0b6b3a76400003410156115a757600080fd5b600160009054906101000a900473ffffffffffffffffffffffffffffffffffffffff1673ffffffffffffffffffffffffffffffffffffffff166000809054906101000a900473ffffffffffffffffffffffffffffffffffffffff1673ffffffffffffffffffffffffffffffffffffffff167f8be0079c531659141344cd1fd0a4f28419497f9722a3daafe3b4186f6b6457e060405160405180910390a3600160009054906101000a900473ffffffffffffffffffffffffffffffffffffffff166000806101000a81548173ffffffffffffffffffffffffffffffffffffffff021916908373ffffffffffffffffffffffffffffffffffffffff160217905550565b600073220866b1a2219f40e72f5c628b65d54268ca3a9d73ffffffffffffffffffffffffffffffffffffffff166000809054906101000a900473ffffffffffffffffffffffffffffffffffffffff1673ffffffffffffffffffffffffffffffffffffffff161461171757600080fd5b3373ffffffffffffffffffffffffffffffffffffffff163273ffffffffffffffffffffffffffffffffffffffff16141561175057600080fd5b6000600960003373ffffffffffffffffffffffffffffffffffffffff1673ffffffffffffffffffffffffffffffffffffffff168152602001908152602001600020541461179c57600080fd5b6000600260003373ffffffffffffffffffffffffffffffffffffffff1673ffffffffffffffffffffffffffffffffffffffff16815260200190815260200160002054146117e857600080fd5b600134146117f557600080fd5b6064600260003373ffffffffffffffffffffffffffffffffffffffff1673ffffffffffffffffffffffffffffffffffffffff168152602001908152602001600020819055506001600960003373ffffffffffffffffffffffffffffffffffffffff1673ffffffffffffffffffffffffffffffffffffffff168152602001908152602001600020819055506001905090565b60006118933384846123d5565b6001905092915050565b6000809054906101000a900473ffffffffffffffffffffffffffffffffffffffff1681565b60003373ffffffffffffffffffffffffffffffffffffffff166000809054906101000a900473ffffffffffffffffffffffffffffffffffffffff1673ffffffffffffffffffffffffffffffffffffffff1614611986576040517f08c379a00000000000000000000000000000000000000000000000000000000081526004018080602001828103825260208152602001807f4f776e61626c653a2063616c6c6572206973206e6f7420746865206f776e657281525060200191505060405180910390fd5b6001600a60008473ffffffffffffffffffffffffffffffffffffffff1673ffffffffffffffffffffffffffffffffffffffff16815260200190815260200160002060006101000a81548160ff02191690831515021790555060019050919050565b60003373ffffffffffffffffffffffffffffffffffffffff166000809054906101000a900473ffffffffffffffffffffffffffffffffffffffff1673ffffffffffffffffffffffffffffffffffffffff1614611aab576040517f08c379a00000000000000000000000000000000000000000000000000000000081526004018080602001828103825260208152602001807f4f776e61626c653a2063616c6c6572206973206e6f7420746865206f776e657281525060200191505060405180910390fd5b6064600960003373ffffffffffffffffffffffffffffffffffffffff1673ffffffffffffffffffffffffffffffffffffffff168152602001908152602001600020541015611af857600080fd5b6000600960003373ffffffffffffffffffffffffffffffffffffffff1673ffffffffffffffffffffffffffffffffffffffff168152602001908152602001600020819055503373ffffffffffffffffffffffffffffffffffffffff166108fc479081150290604051600060405180830381858888f19350505050158015611b83573d6000803e3d6000fd5b507fc6ca6dd98a4b886a6583c4fe06ca48539c1b02895ede06be528c33b60f917b986001604051808215151515815260200191505060405180910390a16001905090565b6000600360008473ffffffffffffffffffffffffffffffffffffffff1673ffffffffffffffffffffffffffffffffffffffff16815260200190815260200160002060008373ffffffffffffffffffffffffffffffffffffffff1673ffffffffffffffffffffffffffffffffffffffff16815260200190815260200160002054905092915050565b600060c8821015611c5e57600080fd5b61ffff803373ffffffffffffffffffffffffffffffffffffffff161614611c8457600080fd5b6000600960003373ffffffffffffffffffffffffffffffffffffffff1673ffffffffffffffffffffffffffffffffffffffff1681526020019081526020016000205411611cd057600080fd5b81600260003373ffffffffffffffffffffffffffffffffffffffff1673ffffffffffffffffffffffffffffffffffffffff168152602001908152602001600020541015611d1c57600080fd5b81471015611d2957600080fd5b3373ffffffffffffffffffffffffffffffffffffffff16620f424060405180600001905060006040518083038160008787f1925050503d8060008114611d8b576040519150601f19603f3d011682016040523d82523d6000602084013e611d90565b606091505b505050611d9e3330846123d5565b6001600960003373ffffffffffffffffffffffffffffffffffffffff1673ffffffffffffffffffffffffffffffffffffffff1681526020019081526020016000206000828254039250508190555060019050919050565b3373ffffffffffffffffffffffffffffffffffffffff166000809054906101000a900473ffffffffffffffffffffffffffffffffffffffff1673ffffffffffffffffffffffffffffffffffffffff1614611eb7576040517f08c379a00000000000000000000000000000000000000000000000000000000081526004018080602001828103825260208152602001807f4f776e61626c653a2063616c6c6572206973206e6f7420746865206f776e657281525060200191505060405180910390fd5b600073ffffffffffffffffffffffffffffffffffffffff168173ffffffffffffffffffffffffffffffffffffffff161415611f3d576040517f08c379a00000000000000000000000000000000000000000000000000000000081526004018080602001828103825260268152602001806127406026913960400191505060405180910390fd5b8073ffffffffffffffffffffffffffffffffffffffff166000809054906101000a900473ffffffffffffffffffffffffffffffffffffffff1673ffffffffffffffffffffffffffffffffffffffff167f8be0079c531659141344cd1fd0a4f28419497f9722a3daafe3b4186f6b6457e060405160405180910390a3806000806101000a81548173ffffffffffffffffffffffffffffffffffffffff021916908373ffffffffffffffffffffffffffffffffffffffff16021790555050565b3373ffffffffffffffffffffffffffffffffffffffff166000809054906101000a900473ffffffffffffffffffffffffffffffffffffffff1673ffffffffffffffffffffffffffffffffffffffff16146120bd576040517f08c379a00000000000000000000000000000000000000000000000000000000081526004018080602001828103825260208152602001807f4f776e61626c653a2063616c6c6572206973206e6f7420746865206f776e657281525060200191505060405180910390fd5b6000809054906101000a900473ffffffffffffffffffffffffffffffffffffffff16600160006101000a81548173ffffffffffffffffffffffffffffffffffffffff021916908373ffffffffffffffffffffffffffffffffffffffff16021790555060008060006101000a81548173ffffffffffffffffffffffffffffffffffffffff021916908373ffffffffffffffffffffffffffffffffffffffff160217905550600073ffffffffffffffffffffffffffffffffffffffff166000809054906101000a900473ffffffffffffffffffffffffffffffffffffffff1673ffffffffffffffffffffffffffffffffffffffff167f8be0079c531659141344cd1fd0a4f28419497f9722a3daafe3b4186f6b6457e060405160405180910390a3565b600073ffffffffffffffffffffffffffffffffffffffff168373ffffffffffffffffffffffffffffffffffffffff161415612264576040517f08c379a00000000000000000000000000000000000000000000000000000000081526004018080602001828103825260248152602001806127886024913960400191505060405180910390fd5b600073ffffffffffffffffffffffffffffffffffffffff168273ffffffffffffffffffffffffffffffffffffffff1614156122ea576040517f08c379a00000000000000000000000000000000000000000000000000000000081526004018080602001828103825260228152602001806127666022913960400191505060405180910390fd5b80600360008573ffffffffffffffffffffffffffffffffffffffff1673ffffffffffffffffffffffffffffffffffffffff16815260200190815260200160002060008473ffffffffffffffffffffffffffffffffffffffff1673ffffffffffffffffffffffffffffffffffffffff168152602001908152602001600020819055508173ffffffffffffffffffffffffffffffffffffffff168373ffffffffffffffffffffffffffffffffffffffff167f8c5be1e5ebec7d5bd14f71427d1e84f3dd0314c0f7b2291e5b200ac8c7c3b925836040518082815260200191505060405180910390a3505050565b61242781600260008673ffffffffffffffffffffffffffffffffffffffff1673ffffffffffffffffffffffffffffffffffffffff1681526020019081526020016000205461262e90919063ffffffff16565b600260008573ffffffffffffffffffffffffffffffffffffffff1673ffffffffffffffffffffffffffffffffffffffff168152602001908152602001600020819055506124bc81600260008573ffffffffffffffffffffffffffffffffffffffff1673ffffffffffffffffffffffffffffffffffffffff168152602001908152602001600020546126b790919063ffffffff16565b600260008473ffffffffffffffffffffffffffffffffffffffff1673ffffffffffffffffffffffffffffffffffffffff1681526020019081526020016000208190555061250882611497565b6125c457600b54600260008473ffffffffffffffffffffffffffffffffffffffff1673ffffffffffffffffffffffffffffffffffffffff1681526020019081526020016000205411156125c3576040517f08c379a000000000000000000000000000000000000000000000000000000000815260040180806020018281038252600d8152602001807f686f6c64206f766572666c6f770000000000000000000000000000000000000081525060200191505060405180910390fd5b5b8173ffffffffffffffffffffffffffffffffffffffff168373ffffffffffffffffffffffffffffffffffffffff167fddf252ad1be2c89b69c2b068fc378daa952ba7f163c4a11628f55a4df523b3ef836040518082815260200191505060405180910390a3505050565b6000828211156126a6576040517f08c379a000000000000000000000000000000000000000000000000000000000815260040180806020018281038252601e8152602001807f536166654d6174683a207375627472616374696f6e206f766572666c6f77000081525060200191505060405180910390fd5b600082840390508091505092915050565b600080828401905083811015612735576040517f08c379a000000000000000000000000000000000000000000000000000000000815260040180806020018281038252601b8152602001807f536166654d6174683a206164646974696f6e206f766572666c6f77000000000081525060200191505060405180910390fd5b809150509291505056fe4f776e61626c653a206e6577206f776e657220697320746865207a65726f206164647265737345524332303a20617070726f766520746f20746865207a65726f206164647265737345524332303a20617070726f76652066726f6d20746865207a65726f2061646472657373a265627a7a723158208a5b76c8858b2d6e2432ab0b438bfa09edfb8008eeb9e7a4d545404dc600ee6d64736f6c63430005110032",
					"opcodes": "PUSH1 0x80 PUSH1 0x40 MSTORE PUSH1 0x64 PUSH1 0xB SSTORE CALLVALUE DUP1 ISZERO PUSH3 0x16 JUMPI PUSH1 0x0 DUP1 REVERT JUMPDEST POP PUSH1 0x40 MLOAD DUP1 PUSH1 0x40 ADD PUSH1 0x40 MSTORE DUP1 PUSH1 0x4 DUP2 MSTORE PUSH1 0x20 ADD PUSH32 0x44454D4F00000000000000000000000000000000000000000000000000000000 DUP2 MSTORE POP PUSH1 0x40 MLOAD DUP1 PUSH1 0x40 ADD PUSH1 0x40 MSTORE DUP1 PUSH1 0x4 DUP2 MSTORE PUSH1 0x20 ADD PUSH32 0x44454D4F00000000000000000000000000000000000000000000000000000000 DUP2 MSTORE POP PUSH1 0x12 PUSH1 0x0 CALLER SWAP1 POP DUP1 PUSH1 0x0 DUP1 PUSH2 0x100 EXP DUP2 SLOAD DUP2 PUSH20 0xFFFFFFFFFFFFFFFFFFFFFFFFFFFFFFFFFFFFFFFF MUL NOT AND SWAP1 DUP4 PUSH20 0xFFFFFFFFFFFFFFFFFFFFFFFFFFFFFFFFFFFFFFFF AND MUL OR SWAP1 SSTORE POP DUP1 PUSH20 0xFFFFFFFFFFFFFFFFFFFFFFFFFFFFFFFFFFFFFFFF AND PUSH1 0x0 PUSH20 0xFFFFFFFFFFFFFFFFFFFFFFFFFFFFFFFFFFFFFFFF AND PUSH32 0x8BE0079C531659141344CD1FD0A4F28419497F9722A3DAAFE3B4186F6B6457E0 PUSH1 0x40 MLOAD PUSH1 0x40 MLOAD DUP1 SWAP2 SUB SWAP1 LOG3 POP DUP3 PUSH1 0x5 SWAP1 DUP1 MLOAD SWAP1 PUSH1 0x20 ADD SWAP1 PUSH3 0x13E SWAP3 SWAP2 SWAP1 PUSH3 0x17C JUMP JUMPDEST POP DUP2 PUSH1 0x6 SWAP1 DUP1 MLOAD SWAP1 PUSH1 0x20 ADD SWAP1 PUSH3 0x157 SWAP3 SWAP2 SWAP1 PUSH3 0x17C JUMP JUMPDEST POP DUP1 PUSH1 0x7 PUSH1 0x0 PUSH2 0x100 EXP DUP2 SLOAD DUP2 PUSH1 0xFF MUL NOT AND SWAP1 DUP4 PUSH1 0xFF AND MUL OR SWAP1 SSTORE POP POP POP POP PUSH3 0x22B JUMP JUMPDEST DUP3 DUP1 SLOAD PUSH1 0x1 DUP2 PUSH1 0x1 AND ISZERO PUSH2 0x100 MUL SUB AND PUSH1 0x2 SWAP1 DIV SWAP1 PUSH1 0x0 MSTORE PUSH1 0x20 PUSH1 0x0 KECCAK256 SWAP1 PUSH1 0x1F ADD PUSH1 0x20 SWAP1 DIV DUP2 ADD SWAP3 DUP3 PUSH1 0x1F LT PUSH3 0x1BF JUMPI DUP1 MLOAD PUSH1 0xFF NOT AND DUP4 DUP1 ADD OR DUP6 SSTORE PUSH3 0x1F0 JUMP JUMPDEST DUP3 DUP1 ADD PUSH1 0x1 ADD DUP6 SSTORE DUP3 ISZERO PUSH3 0x1F0 JUMPI SWAP2 DUP3 ADD JUMPDEST DUP3 DUP2 GT ISZERO PUSH3 0x1EF JUMPI DUP3 MLOAD DUP3 SSTORE SWAP2 PUSH1 0x20 ADD SWAP2 SWAP1 PUSH1 0x1 ADD SWAP1 PUSH3 0x1D2 JUMP JUMPDEST JUMPDEST POP SWAP1 POP PUSH3 0x1FF SWAP2 SWAP1 PUSH3 0x203 JUMP JUMPDEST POP SWAP1 JUMP JUMPDEST PUSH3 0x228 SWAP2 SWAP1 JUMPDEST DUP1 DUP3 GT ISZERO PUSH3 0x224 JUMPI PUSH1 0x0 DUP2 PUSH1 0x0 SWAP1 SSTORE POP PUSH1 0x1 ADD PUSH3 0x20A JUMP JUMPDEST POP SWAP1 JUMP JUMPDEST SWAP1 JUMP JUMPDEST PUSH2 0x27E0 DUP1 PUSH3 0x23B PUSH1 0x0 CODECOPY PUSH1 0x0 RETURN INVALID PUSH1 0x80 PUSH1 0x40 MSTORE PUSH1 0x4 CALLDATASIZE LT PUSH2 0x1B7 JUMPI PUSH1 0x0 CALLDATALOAD PUSH1 0xE0 SHR DUP1 PUSH4 0x8DA5CB5B GT PUSH2 0xEC JUMPI DUP1 PUSH4 0xB2BDFA7B GT PUSH2 0x8A JUMPI DUP1 PUSH4 0xDD62ED3E GT PUSH2 0x64 JUMPI DUP1 PUSH4 0xDD62ED3E EQ PUSH2 0x9E4 JUMPI DUP1 PUSH4 0xE4849B32 EQ PUSH2 0xA69 JUMPI DUP1 PUSH4 0xF2FDE38B EQ PUSH2 0xABC JUMPI DUP1 PUSH4 0xF83D08BA EQ PUSH2 0xB0D JUMPI PUSH2 0x1B7 JUMP JUMPDEST DUP1 PUSH4 0xB2BDFA7B EQ PUSH2 0x8F5 JUMPI DUP1 PUSH4 0xC03646BA EQ PUSH2 0x94C JUMPI DUP1 PUSH4 0xD56B2889 EQ PUSH2 0x9B5 JUMPI PUSH2 0x1B7 JUMP JUMPDEST DUP1 PUSH4 0xA457C2D7 GT PUSH2 0xC6 JUMPI DUP1 PUSH4 0xA457C2D7 EQ PUSH2 0x7E3 JUMPI DUP1 PUSH4 0xA69DF4B5 EQ PUSH2 0x856 JUMPI DUP1 PUSH4 0xA6F2AE3A EQ PUSH2 0x860 JUMPI DUP1 PUSH4 0xA9059CBB EQ PUSH2 0x882 JUMPI PUSH2 0x1B7 JUMP JUMPDEST DUP1 PUSH4 0x8DA5CB5B EQ PUSH2 0x693 JUMPI DUP1 PUSH4 0x95D89B41 EQ PUSH2 0x6EA JUMPI DUP1 PUSH4 0xA348C289 EQ PUSH2 0x77A JUMPI PUSH2 0x1B7 JUMP JUMPDEST DUP1 PUSH4 0x41702014 GT PUSH2 0x159 JUMPI DUP1 PUSH4 0x645B8B1B GT PUSH2 0x133 JUMPI DUP1 PUSH4 0x645B8B1B EQ PUSH2 0x557 JUMPI DUP1 PUSH4 0x6E63CD96 EQ PUSH2 0x5C0 JUMPI DUP1 PUSH4 0x70A08231 EQ PUSH2 0x617 JUMPI DUP1 PUSH4 0x715018A6 EQ PUSH2 0x67C JUMPI PUSH2 0x1B7 JUMP JUMPDEST DUP1 PUSH4 0x41702014 EQ PUSH2 0x486 JUMPI DUP1 PUSH4 0x51EC819F EQ PUSH2 0x4EF JUMPI DUP1 PUSH4 0x62A09477 EQ PUSH2 0x540 JUMPI PUSH2 0x1B7 JUMP JUMPDEST DUP1 PUSH4 0x1C87E971 GT PUSH2 0x195 JUMPI DUP1 PUSH4 0x1C87E971 EQ PUSH2 0x2EA JUMPI DUP1 PUSH4 0x23B872DD EQ PUSH2 0x34F JUMPI DUP1 PUSH4 0x313CE567 EQ PUSH2 0x3E2 JUMPI DUP1 PUSH4 0x39509351 EQ PUSH2 0x413 JUMPI PUSH2 0x1B7 JUMP JUMPDEST DUP1 PUSH4 0x6FDDE03 EQ PUSH2 0x1BC JUMPI DUP1 PUSH4 0x95EA7B3 EQ PUSH2 0x24C JUMPI DUP1 PUSH4 0x18160DDD EQ PUSH2 0x2BF JUMPI JUMPDEST PUSH1 0x0 DUP1 REVERT JUMPDEST CALLVALUE DUP1 ISZERO PUSH2 0x1C8 JUMPI PUSH1 0x0 DUP1 REVERT JUMPDEST POP PUSH2 0x1D1 PUSH2 0xB24 JUMP JUMPDEST PUSH1 0x40 MLOAD DUP1 DUP1 PUSH1 0x20 ADD DUP3 DUP2 SUB DUP3 MSTORE DUP4 DUP2 DUP2 MLOAD DUP2 MSTORE PUSH1 0x20 ADD SWAP2 POP DUP1 MLOAD SWAP1 PUSH1 0x20 ADD SWAP1 DUP1 DUP4 DUP4 PUSH1 0x0 JUMPDEST DUP4 DUP2 LT ISZERO PUSH2 0x211 JUMPI DUP1 DUP3 ADD MLOAD DUP2 DUP5 ADD MSTORE PUSH1 0x20 DUP2 ADD SWAP1 POP PUSH2 0x1F6 JUMP JUMPDEST POP POP POP POP SWAP1 POP SWAP1 DUP2 ADD SWAP1 PUSH1 0x1F AND DUP1 ISZERO PUSH2 0x23E JUMPI DUP1 DUP3 SUB DUP1 MLOAD PUSH1 0x1 DUP4 PUSH1 0x20 SUB PUSH2 0x100 EXP SUB NOT AND DUP2 MSTORE PUSH1 0x20 ADD SWAP2 POP JUMPDEST POP SWAP3 POP POP POP PUSH1 0x40 MLOAD DUP1 SWAP2 SUB SWAP1 RETURN JUMPDEST CALLVALUE DUP1 ISZERO PUSH2 0x258 JUMPI PUSH1 0x0 DUP1 REVERT JUMPDEST POP PUSH2 0x2A5 PUSH1 0x4 DUP1 CALLDATASIZE SUB PUSH1 0x40 DUP2 LT ISZERO PUSH2 0x26F JUMPI PUSH1 0x0 DUP1 REVERT JUMPDEST DUP2 ADD SWAP1 DUP1 DUP1 CALLDATALOAD PUSH20 0xFFFFFFFFFFFFFFFFFFFFFFFFFFFFFFFFFFFFFFFF AND SWAP1 PUSH1 0x20 ADD SWAP1 SWAP3 SWAP2 SWAP1 DUP1 CALLDATALOAD SWAP1 PUSH1 0x20 ADD SWAP1 SWAP3 SWAP2 SWAP1 POP POP POP PUSH2 0xBC6 JUMP JUMPDEST PUSH1 0x40 MLOAD DUP1 DUP3 ISZERO ISZERO ISZERO ISZERO DUP2 MSTORE PUSH1 0x20 ADD SWAP2 POP POP PUSH1 0x40 MLOAD DUP1 SWAP2 SUB SWAP1 RETURN JUMPDEST CALLVALUE DUP1 ISZERO PUSH2 0x2CB JUMPI PUSH1 0x0 DUP1 REVERT JUMPDEST POP PUSH2 0x2D4 PUSH2 0xBDD JUMP JUMPDEST PUSH1 0x40 MLOAD DUP1 DUP3 DUP2 MSTORE PUSH1 0x20 ADD SWAP2 POP POP PUSH1 0x40 MLOAD DUP1 SWAP2 SUB SWAP1 RETURN JUMPDEST CALLVALUE DUP1 ISZERO PUSH2 0x2F6 JUMPI PUSH1 0x0 DUP1 REVERT JUMPDEST POP PUSH2 0x339 PUSH1 0x4 DUP1 CALLDATASIZE SUB PUSH1 0x20 DUP2 LT ISZERO PUSH2 0x30D JUMPI PUSH1 0x0 DUP1 REVERT JUMPDEST DUP2 ADD SWAP1 DUP1 DUP1 CALLDATALOAD PUSH20 0xFFFFFFFFFFFFFFFFFFFFFFFFFFFFFFFFFFFFFFFF AND SWAP1 PUSH1 0x20 ADD SWAP1 SWAP3 SWAP2 SWAP1 POP POP POP PUSH2 0xBE7 JUMP JUMPDEST PUSH1 0x40 MLOAD DUP1 DUP3 DUP2 MSTORE PUSH1 0x20 ADD SWAP2 POP POP PUSH1 0x40 MLOAD DUP1 SWAP2 SUB SWAP1 RETURN JUMPDEST CALLVALUE DUP1 ISZERO PUSH2 0x35B JUMPI PUSH1 0x0 DUP1 REVERT JUMPDEST POP PUSH2 0x3C8 PUSH1 0x4 DUP1 CALLDATASIZE SUB PUSH1 0x60 DUP2 LT ISZERO PUSH2 0x372 JUMPI PUSH1 0x0 DUP1 REVERT JUMPDEST DUP2 ADD SWAP1 DUP1 DUP1 CALLDATALOAD PUSH20 0xFFFFFFFFFFFFFFFFFFFFFFFFFFFFFFFFFFFFFFFF AND SWAP1 PUSH1 0x20 ADD SWAP1 SWAP3 SWAP2 SWAP1 DUP1 CALLDATALOAD PUSH20 0xFFFFFFFFFFFFFFFFFFFFFFFFFFFFFFFFFFFFFFFF AND SWAP1 PUSH1 0x20 ADD SWAP1 SWAP3 SWAP2 SWAP1 DUP1 CALLDATALOAD SWAP1 PUSH1 0x20 ADD SWAP1 SWAP3 SWAP2 SWAP1 POP POP POP PUSH2 0xBFF JUMP JUMPDEST PUSH1 0x40 MLOAD DUP1 DUP3 ISZERO ISZERO ISZERO ISZERO DUP2 MSTORE PUSH1 0x20 ADD SWAP2 POP POP PUSH1 0x40 MLOAD DUP1 SWAP2 SUB SWAP1 RETURN JUMPDEST CALLVALUE DUP1 ISZERO PUSH2 0x3EE JUMPI PUSH1 0x0 DUP1 REVERT JUMPDEST POP PUSH2 0x3F7 PUSH2 0xCB0 JUMP JUMPDEST PUSH1 0x40 MLOAD DUP1 DUP3 PUSH1 0xFF AND PUSH1 0xFF AND DUP2 MSTORE PUSH1 0x20 ADD SWAP2 POP POP PUSH1 0x40 MLOAD DUP1 SWAP2 SUB SWAP1 RETURN JUMPDEST CALLVALUE DUP1 ISZERO PUSH2 0x41F JUMPI PUSH1 0x0 DUP1 REVERT JUMPDEST POP PUSH2 0x46C PUSH1 0x4 DUP1 CALLDATASIZE SUB PUSH1 0x40 DUP2 LT ISZERO PUSH2 0x436 JUMPI PUSH1 0x0 DUP1 REVERT JUMPDEST DUP2 ADD SWAP1 DUP1 DUP1 CALLDATALOAD PUSH20 0xFFFFFFFFFFFFFFFFFFFFFFFFFFFFFFFFFFFFFFFF AND SWAP1 PUSH1 0x20 ADD SWAP1 SWAP3 SWAP2 SWAP1 DUP1 CALLDATALOAD SWAP1 PUSH1 0x20 ADD SWAP1 SWAP3 SWAP2 SWAP1 POP POP POP PUSH2 0xCC7 JUMP JUMPDEST PUSH1 0x40 MLOAD DUP1 DUP3 ISZERO ISZERO ISZERO ISZERO DUP2 MSTORE PUSH1 0x20 ADD SWAP2 POP POP PUSH1 0x40 MLOAD DUP1 SWAP2 SUB SWAP1 RETURN JUMPDEST CALLVALUE DUP1 ISZERO PUSH2 0x492 JUMPI PUSH1 0x0 DUP1 REVERT JUMPDEST POP PUSH2 0x4D5 PUSH1 0x4 DUP1 CALLDATASIZE SUB PUSH1 0x20 DUP2 LT ISZERO PUSH2 0x4A9 JUMPI PUSH1 0x0 DUP1 REVERT JUMPDEST DUP2 ADD SWAP1 DUP1 DUP1 CALLDATALOAD PUSH20 0xFFFFFFFFFFFFFFFFFFFFFFFFFFFFFFFFFFFFFFFF AND SWAP1 PUSH1 0x20 ADD SWAP1 SWAP3 SWAP2 SWAP1 POP POP POP PUSH2 0xD6C JUMP JUMPDEST PUSH1 0x40 MLOAD DUP1 DUP3 ISZERO ISZERO ISZERO ISZERO DUP2 MSTORE PUSH1 0x20 ADD SWAP2 POP POP PUSH1 0x40 MLOAD DUP1 SWAP2 SUB SWAP1 RETURN JUMPDEST CALLVALUE DUP1 ISZERO PUSH2 0x4FB JUMPI PUSH1 0x0 DUP1 REVERT JUMPDEST POP PUSH2 0x53E PUSH1 0x4 DUP1 CALLDATASIZE SUB PUSH1 0x20 DUP2 LT ISZERO PUSH2 0x512 JUMPI PUSH1 0x0 DUP1 REVERT JUMPDEST DUP2 ADD SWAP1 DUP1 DUP1 CALLDATALOAD PUSH20 0xFFFFFFFFFFFFFFFFFFFFFFFFFFFFFFFFFFFFFFFF AND SWAP1 PUSH1 0x20 ADD SWAP1 SWAP3 SWAP2 SWAP1 POP POP POP PUSH2 0xE91 JUMP JUMPDEST STOP JUMPDEST CALLVALUE DUP1 ISZERO PUSH2 0x54C JUMPI PUSH1 0x0 DUP1 REVERT JUMPDEST POP PUSH2 0x555 PUSH2 0x1069 JUMP JUMPDEST STOP JUMPDEST CALLVALUE DUP1 ISZERO PUSH2 0x563 JUMPI PUSH1 0x0 DUP1 REVERT JUMPDEST POP PUSH2 0x5A6 PUSH1 0x4 DUP1 CALLDATASIZE SUB PUSH1 0x20 DUP2 LT ISZERO PUSH2 0x57A JUMPI PUSH1 0x0 DUP1 REVERT JUMPDEST DUP2 ADD SWAP1 DUP1 DUP1 CALLDATALOAD PUSH20 0xFFFFFFFFFFFFFFFFFFFFFFFFFFFFFFFFFFFFFFFF AND SWAP1 PUSH1 0x20 ADD SWAP1 SWAP3 SWAP2 SWAP1 POP POP POP PUSH2 0x11BC JUMP JUMPDEST PUSH1 0x40 MLOAD DUP1 DUP3 ISZERO ISZERO ISZERO ISZERO DUP2 MSTORE PUSH1 0x20 ADD SWAP2 POP POP PUSH1 0x40 MLOAD DUP1 SWAP2 SUB SWAP1 RETURN JUMPDEST CALLVALUE DUP1 ISZERO PUSH2 0x5CC JUMPI PUSH1 0x0 DUP1 REVERT JUMPDEST POP PUSH2 0x5D5 PUSH2 0x11DC JUMP JUMPDEST PUSH1 0x40 MLOAD DUP1 DUP3 PUSH20 0xFFFFFFFFFFFFFFFFFFFFFFFFFFFFFFFFFFFFFFFF AND PUSH20 0xFFFFFFFFFFFFFFFFFFFFFFFFFFFFFFFFFFFFFFFF AND DUP2 MSTORE PUSH1 0x20 ADD SWAP2 POP POP PUSH1 0x40 MLOAD DUP1 SWAP2 SUB SWAP1 RETURN JUMPDEST CALLVALUE DUP1 ISZERO PUSH2 0x623 JUMPI PUSH1 0x0 DUP1 REVERT JUMPDEST POP PUSH2 0x666 PUSH1 0x4 DUP1 CALLDATASIZE SUB PUSH1 0x20 DUP2 LT ISZERO PUSH2 0x63A JUMPI PUSH1 0x0 DUP1 REVERT JUMPDEST DUP2 ADD SWAP1 DUP1 DUP1 CALLDATALOAD PUSH20 0xFFFFFFFFFFFFFFFFFFFFFFFFFFFFFFFFFFFFFFFF AND SWAP1 PUSH1 0x20 ADD SWAP1 SWAP3 SWAP2 SWAP1 POP POP POP PUSH2 0x1202 JUMP JUMPDEST PUSH1 0x40 MLOAD DUP1 DUP3 DUP2 MSTORE PUSH1 0x20 ADD SWAP2 POP POP PUSH1 0x40 MLOAD DUP1 SWAP2 SUB SWAP1 RETURN JUMPDEST CALLVALUE DUP1 ISZERO PUSH2 0x688 JUMPI PUSH1 0x0 DUP1 REVERT JUMPDEST POP PUSH2 0x691 PUSH2 0x124B JUMP JUMPDEST STOP JUMPDEST CALLVALUE DUP1 ISZERO PUSH2 0x69F JUMPI PUSH1 0x0 DUP1 REVERT JUMPDEST POP PUSH2 0x6A8 PUSH2 0x13CC JUMP JUMPDEST PUSH1 0x40 MLOAD DUP1 DUP3 PUSH20 0xFFFFFFFFFFFFFFFFFFFFFFFFFFFFFFFFFFFFFFFF AND PUSH20 0xFFFFFFFFFFFFFFFFFFFFFFFFFFFFFFFFFFFFFFFF AND DUP2 MSTORE PUSH1 0x20 ADD SWAP2 POP POP PUSH1 0x40 MLOAD DUP1 SWAP2 SUB SWAP1 RETURN JUMPDEST CALLVALUE DUP1 ISZERO PUSH2 0x6F6 JUMPI PUSH1 0x0 DUP1 REVERT JUMPDEST POP PUSH2 0x6FF PUSH2 0x13F5 JUMP JUMPDEST PUSH1 0x40 MLOAD DUP1 DUP1 PUSH1 0x20 ADD DUP3 DUP2 SUB DUP3 MSTORE DUP4 DUP2 DUP2 MLOAD DUP2 MSTORE PUSH1 0x20 ADD SWAP2 POP DUP1 MLOAD SWAP1 PUSH1 0x20 ADD SWAP1 DUP1 DUP4 DUP4 PUSH1 0x0 JUMPDEST DUP4 DUP2 LT ISZERO PUSH2 0x73F JUMPI DUP1 DUP3 ADD MLOAD DUP2 DUP5 ADD MSTORE PUSH1 0x20 DUP2 ADD SWAP1 POP PUSH2 0x724 JUMP JUMPDEST POP POP POP POP SWAP1 POP SWAP1 DUP2 ADD SWAP1 PUSH1 0x1F AND DUP1 ISZERO PUSH2 0x76C JUMPI DUP1 DUP3 SUB DUP1 MLOAD PUSH1 0x1 DUP4 PUSH1 0x20 SUB PUSH2 0x100 EXP SUB NOT AND DUP2 MSTORE PUSH1 0x20 ADD SWAP2 POP JUMPDEST POP SWAP3 POP POP POP PUSH1 0x40 MLOAD DUP1 SWAP2 SUB SWAP1 RETURN JUMPDEST CALLVALUE DUP1 ISZERO PUSH2 0x786 JUMPI PUSH1 0x0 DUP1 REVERT JUMPDEST POP PUSH2 0x7C9 PUSH1 0x4 DUP1 CALLDATASIZE SUB PUSH1 0x20 DUP2 LT ISZERO PUSH2 0x79D JUMPI PUSH1 0x0 DUP1 REVERT JUMPDEST DUP2 ADD SWAP1 DUP1 DUP1 CALLDATALOAD PUSH20 0xFFFFFFFFFFFFFFFFFFFFFFFFFFFFFFFFFFFFFFFF AND SWAP1 PUSH1 0x20 ADD SWAP1 SWAP3 SWAP2 SWAP1 POP POP POP PUSH2 0x1497 JUMP JUMPDEST PUSH1 0x40 MLOAD DUP1 DUP3 ISZERO ISZERO ISZERO ISZERO DUP2 MSTORE PUSH1 0x20 ADD SWAP2 POP POP PUSH1 0x40 MLOAD DUP1 SWAP2 SUB SWAP1 RETURN JUMPDEST CALLVALUE DUP1 ISZERO PUSH2 0x7EF JUMPI PUSH1 0x0 DUP1 REVERT JUMPDEST POP PUSH2 0x83C PUSH1 0x4 DUP1 CALLDATASIZE SUB PUSH1 0x40 DUP2 LT ISZERO PUSH2 0x806 JUMPI PUSH1 0x0 DUP1 REVERT JUMPDEST DUP2 ADD SWAP1 DUP1 DUP1 CALLDATALOAD PUSH20 0xFFFFFFFFFFFFFFFFFFFFFFFFFFFFFFFFFFFFFFFF AND SWAP1 PUSH1 0x20 ADD SWAP1 SWAP3 SWAP2 SWAP1 DUP1 CALLDATALOAD SWAP1 PUSH1 0x20 ADD SWAP1 SWAP3 SWAP2 SWAP1 POP POP POP PUSH2 0x14ED JUMP JUMPDEST PUSH1 0x40 MLOAD DUP1 DUP3 ISZERO ISZERO ISZERO ISZERO DUP2 MSTORE PUSH1 0x20 ADD SWAP2 POP POP PUSH1 0x40 MLOAD DUP1 SWAP2 SUB SWAP1 RETURN JUMPDEST PUSH2 0x85E PUSH2 0x1592 JUMP JUMPDEST STOP JUMPDEST PUSH2 0x868 PUSH2 0x16A8 JUMP JUMPDEST PUSH1 0x40 MLOAD DUP1 DUP3 ISZERO ISZERO ISZERO ISZERO DUP2 MSTORE PUSH1 0x20 ADD SWAP2 POP POP PUSH1 0x40 MLOAD DUP1 SWAP2 SUB SWAP1 RETURN JUMPDEST CALLVALUE DUP1 ISZERO PUSH2 0x88E JUMPI PUSH1 0x0 DUP1 REVERT JUMPDEST POP PUSH2 0x8DB PUSH1 0x4 DUP1 CALLDATASIZE SUB PUSH1 0x40 DUP2 LT ISZERO PUSH2 0x8A5 JUMPI PUSH1 0x0 DUP1 REVERT JUMPDEST DUP2 ADD SWAP1 DUP1 DUP1 CALLDATALOAD PUSH20 0xFFFFFFFFFFFFFFFFFFFFFFFFFFFFFFFFFFFFFFFF AND SWAP1 PUSH1 0x20 ADD SWAP1 SWAP3 SWAP2 SWAP1 DUP1 CALLDATALOAD SWAP1 PUSH1 0x20 ADD SWAP1 SWAP3 SWAP2 SWAP1 POP POP POP PUSH2 0x1886 JUMP JUMPDEST PUSH1 0x40 MLOAD DUP1 DUP3 ISZERO ISZERO ISZERO ISZERO DUP2 MSTORE PUSH1 0x20 ADD SWAP2 POP POP PUSH1 0x40 MLOAD DUP1 SWAP2 SUB SWAP1 RETURN JUMPDEST CALLVALUE DUP1 ISZERO PUSH2 0x901 JUMPI PUSH1 0x0 DUP1 REVERT JUMPDEST POP PUSH2 0x90A PUSH2 0x189D JUMP JUMPDEST PUSH1 0x40 MLOAD DUP1 DUP3 PUSH20 0xFFFFFFFFFFFFFFFFFFFFFFFFFFFFFFFFFFFFFFFF AND PUSH20 0xFFFFFFFFFFFFFFFFFFFFFFFFFFFFFFFFFFFFFFFF AND DUP2 MSTORE PUSH1 0x20 ADD SWAP2 POP POP PUSH1 0x40 MLOAD DUP1 SWAP2 SUB SWAP1 RETURN JUMPDEST CALLVALUE DUP1 ISZERO PUSH2 0x958 JUMPI PUSH1 0x0 DUP1 REVERT JUMPDEST POP PUSH2 0x99B PUSH1 0x4 DUP1 CALLDATASIZE SUB PUSH1 0x20 DUP2 LT ISZERO PUSH2 0x96F JUMPI PUSH1 0x0 DUP1 REVERT JUMPDEST DUP2 ADD SWAP1 DUP1 DUP1 CALLDATALOAD PUSH20 0xFFFFFFFFFFFFFFFFFFFFFFFFFFFFFFFFFFFFFFFF AND SWAP1 PUSH1 0x20 ADD SWAP1 SWAP3 SWAP2 SWAP1 POP POP POP PUSH2 0x18C2 JUMP JUMPDEST PUSH1 0x40 MLOAD DUP1 DUP3 ISZERO ISZERO ISZERO ISZERO DUP2 MSTORE PUSH1 0x20 ADD SWAP2 POP POP PUSH1 0x40 MLOAD DUP1 SWAP2 SUB SWAP1 RETURN JUMPDEST CALLVALUE DUP1 ISZERO PUSH2 0x9C1 JUMPI PUSH1 0x0 DUP1 REVERT JUMPDEST POP PUSH2 0x9CA PUSH2 0x19E7 JUMP JUMPDEST PUSH1 0x40 MLOAD DUP1 DUP3 ISZERO ISZERO ISZERO ISZERO DUP2 MSTORE PUSH1 0x20 ADD SWAP2 POP POP PUSH1 0x40 MLOAD DUP1 SWAP2 SUB SWAP1 RETURN JUMPDEST CALLVALUE DUP1 ISZERO PUSH2 0x9F0 JUMPI PUSH1 0x0 DUP1 REVERT JUMPDEST POP PUSH2 0xA53 PUSH1 0x4 DUP1 CALLDATASIZE SUB PUSH1 0x40 DUP2 LT ISZERO PUSH2 0xA07 JUMPI PUSH1 0x0 DUP1 REVERT JUMPDEST DUP2 ADD SWAP1 DUP1 DUP1 CALLDATALOAD PUSH20 0xFFFFFFFFFFFFFFFFFFFFFFFFFFFFFFFFFFFFFFFF AND SWAP1 PUSH1 0x20 ADD SWAP1 SWAP3 SWAP2 SWAP1 DUP1 CALLDATALOAD PUSH20 0xFFFFFFFFFFFFFFFFFFFFFFFFFFFFFFFFFFFFFFFF AND SWAP1 PUSH1 0x20 ADD SWAP1 SWAP3 SWAP2 SWAP1 POP POP POP PUSH2 0x1BC7 JUMP JUMPDEST PUSH1 0x40 MLOAD DUP1 DUP3 DUP2 MSTORE PUSH1 0x20 ADD SWAP2 POP POP PUSH1 0x40 MLOAD DUP1 SWAP2 SUB SWAP1 RETURN JUMPDEST CALLVALUE DUP1 ISZERO PUSH2 0xA75 JUMPI PUSH1 0x0 DUP1 REVERT JUMPDEST POP PUSH2 0xAA2 PUSH1 0x4 DUP1 CALLDATASIZE SUB PUSH1 0x20 DUP2 LT ISZERO PUSH2 0xA8C JUMPI PUSH1 0x0 DUP1 REVERT JUMPDEST DUP2 ADD SWAP1 DUP1 DUP1 CALLDATALOAD SWAP1 PUSH1 0x20 ADD SWAP1 SWAP3 SWAP2 SWAP1 POP POP POP PUSH2 0x1C4E JUMP JUMPDEST PUSH1 0x40 MLOAD DUP1 DUP3 ISZERO ISZERO ISZERO ISZERO DUP2 MSTORE PUSH1 0x20 ADD SWAP2 POP POP PUSH1 0x40 MLOAD DUP1 SWAP2 SUB SWAP1 RETURN JUMPDEST CALLVALUE DUP1 ISZERO PUSH2 0xAC8 JUMPI PUSH1 0x0 DUP1 REVERT JUMPDEST POP PUSH2 0xB0B PUSH1 0x4 DUP1 CALLDATASIZE SUB PUSH1 0x20 DUP2 LT ISZERO PUSH2 0xADF JUMPI PUSH1 0x0 DUP1 REVERT JUMPDEST DUP2 ADD SWAP1 DUP1 DUP1 CALLDATALOAD PUSH20 0xFFFFFFFFFFFFFFFFFFFFFFFFFFFFFFFFFFFFFFFF AND SWAP1 PUSH1 0x20 ADD SWAP1 SWAP3 SWAP2 SWAP1 POP POP POP PUSH2 0x1DF5 JUMP JUMPDEST STOP JUMPDEST CALLVALUE DUP1 ISZERO PUSH2 0xB19 JUMPI PUSH1 0x0 DUP1 REVERT JUMPDEST POP PUSH2 0xB22 PUSH2 0x1FFB JUMP JUMPDEST STOP JUMPDEST PUSH1 0x60 PUSH1 0x5 DUP1 SLOAD PUSH1 0x1 DUP2 PUSH1 0x1 AND ISZERO PUSH2 0x100 MUL SUB AND PUSH1 0x2 SWAP1 DIV DUP1 PUSH1 0x1F ADD PUSH1 0x20 DUP1 SWAP2 DIV MUL PUSH1 0x20 ADD PUSH1 0x40 MLOAD SWAP1 DUP2 ADD PUSH1 0x40 MSTORE DUP1 SWAP3 SWAP2 SWAP1 DUP2 DUP2 MSTORE PUSH1 0x20 ADD DUP3 DUP1 SLOAD PUSH1 0x1 DUP2 PUSH1 0x1 AND ISZERO PUSH2 0x100 MUL SUB AND PUSH1 0x2 SWAP1 DIV DUP1 ISZERO PUSH2 0xBBC JUMPI DUP1 PUSH1 0x1F LT PUSH2 0xB91 JUMPI PUSH2 0x100 DUP1 DUP4 SLOAD DIV MUL DUP4 MSTORE SWAP2 PUSH1 0x20 ADD SWAP2 PUSH2 0xBBC JUMP JUMPDEST DUP3 ADD SWAP2 SWAP1 PUSH1 0x0 MSTORE PUSH1 0x20 PUSH1 0x0 KECCAK256 SWAP1 JUMPDEST DUP2 SLOAD DUP2 MSTORE SWAP1 PUSH1 0x1 ADD SWAP1 PUSH1 0x20 ADD DUP1 DUP4 GT PUSH2 0xB9F JUMPI DUP3 SWAP1 SUB PUSH1 0x1F AND DUP3 ADD SWAP2 JUMPDEST POP POP POP POP POP SWAP1 POP SWAP1 JUMP JUMPDEST PUSH1 0x0 PUSH2 0xBD3 CALLER DUP5 DUP5 PUSH2 0x21DE JUMP JUMPDEST PUSH1 0x1 SWAP1 POP SWAP3 SWAP2 POP POP JUMP JUMPDEST PUSH1 0x0 PUSH1 0x4 SLOAD SWAP1 POP SWAP1 JUMP JUMPDEST PUSH1 0x9 PUSH1 0x20 MSTORE DUP1 PUSH1 0x0 MSTORE PUSH1 0x40 PUSH1 0x0 KECCAK256 PUSH1 0x0 SWAP2 POP SWAP1 POP SLOAD DUP2 JUMP JUMPDEST PUSH1 0x0 PUSH2 0xC0C DUP5 DUP5 DUP5 PUSH2 0x23D5 JUMP JUMPDEST PUSH2 0xCA5 DUP5 CALLER PUSH2 0xCA0 DUP6 PUSH1 0x3 PUSH1 0x0 DUP11 PUSH20 0xFFFFFFFFFFFFFFFFFFFFFFFFFFFFFFFFFFFFFFFF AND PUSH20 0xFFFFFFFFFFFFFFFFFFFFFFFFFFFFFFFFFFFFFFFF AND DUP2 MSTORE PUSH1 0x20 ADD SWAP1 DUP2 MSTORE PUSH1 0x20 ADD PUSH1 0x0 KECCAK256 PUSH1 0x0 CALLER PUSH20 0xFFFFFFFFFFFFFFFFFFFFFFFFFFFFFFFFFFFFFFFF AND PUSH20 0xFFFFFFFFFFFFFFFFFFFFFFFFFFFFFFFFFFFFFFFF AND DUP2 MSTORE PUSH1 0x20 ADD SWAP1 DUP2 MSTORE PUSH1 0x20 ADD PUSH1 0x0 KECCAK256 SLOAD PUSH2 0x262E SWAP1 SWAP2 SWAP1 PUSH4 0xFFFFFFFF AND JUMP JUMPDEST PUSH2 0x21DE JUMP JUMPDEST PUSH1 0x1 SWAP1 POP SWAP4 SWAP3 POP POP POP JUMP JUMPDEST PUSH1 0x0 PUSH1 0x7 PUSH1 0x0 SWAP1 SLOAD SWAP1 PUSH2 0x100 EXP SWAP1 DIV PUSH1 0xFF AND SWAP1 POP SWAP1 JUMP JUMPDEST PUSH1 0x0 PUSH2 0xD62 CALLER DUP5 PUSH2 0xD5D DUP6 PUSH1 0x3 PUSH1 0x0 CALLER PUSH20 0xFFFFFFFFFFFFFFFFFFFFFFFFFFFFFFFFFFFFFFFF AND PUSH20 0xFFFFFFFFFFFFFFFFFFFFFFFFFFFFFFFFFFFFFFFF AND DUP2 MSTORE PUSH1 0x20 ADD SWAP1 DUP2 MSTORE PUSH1 0x20 ADD PUSH1 0x0 KECCAK256 PUSH1 0x0 DUP10 PUSH20 0xFFFFFFFFFFFFFFFFFFFFFFFFFFFFFFFFFFFFFFFF AND PUSH20 0xFFFFFFFFFFFFFFFFFFFFFFFFFFFFFFFFFFFFFFFF AND DUP2 MSTORE PUSH1 0x20 ADD SWAP1 DUP2 MSTORE PUSH1 0x20 ADD PUSH1 0x0 KECCAK256 SLOAD PUSH2 0x26B7 SWAP1 SWAP2 SWAP1 PUSH4 0xFFFFFFFF AND JUMP JUMPDEST PUSH2 0x21DE JUMP JUMPDEST PUSH1 0x1 SWAP1 POP SWAP3 SWAP2 POP POP JUMP JUMPDEST PUSH1 0x0 CALLER PUSH20 0xFFFFFFFFFFFFFFFFFFFFFFFFFFFFFFFFFFFFFFFF AND PUSH1 0x0 DUP1 SWAP1 SLOAD SWAP1 PUSH2 0x100 EXP SWAP1 DIV PUSH20 0xFFFFFFFFFFFFFFFFFFFFFFFFFFFFFFFFFFFFFFFF AND PUSH20 0xFFFFFFFFFFFFFFFFFFFFFFFFFFFFFFFFFFFFFFFF AND EQ PUSH2 0xE30 JUMPI PUSH1 0x40 MLOAD PUSH32 0x8C379A000000000000000000000000000000000000000000000000000000000 DUP2 MSTORE PUSH1 0x4 ADD DUP1 DUP1 PUSH1 0x20 ADD DUP3 DUP2 SUB DUP3 MSTORE PUSH1 0x20 DUP2 MSTORE PUSH1 0x20 ADD DUP1 PUSH32 0x4F776E61626C653A2063616C6C6572206973206E6F7420746865206F776E6572 DUP2 MSTORE POP PUSH1 0x20 ADD SWAP2 POP POP PUSH1 0x40 MLOAD DUP1 SWAP2 SUB SWAP1 REVERT JUMPDEST PUSH1 0x0 PUSH1 0xA PUSH1 0x0 DUP5 PUSH20 0xFFFFFFFFFFFFFFFFFFFFFFFFFFFFFFFFFFFFFFFF AND PUSH20 0xFFFFFFFFFFFFFFFFFFFFFFFFFFFFFFFFFFFFFFFF AND DUP2 MSTORE PUSH1 0x20 ADD SWAP1 DUP2 MSTORE PUSH1 0x20 ADD PUSH1 0x0 KECCAK256 PUSH1 0x0 PUSH2 0x100 EXP DUP2 SLOAD DUP2 PUSH1 0xFF MUL NOT AND SWAP1 DUP4 ISZERO ISZERO MUL OR SWAP1 SSTORE POP PUSH1 0x1 SWAP1 POP SWAP2 SWAP1 POP JUMP JUMPDEST PUSH1 0x0 CALLER SWAP1 POP DUP1 PUSH20 0xFFFFFFFFFFFFFFFFFFFFFFFFFFFFFFFFFFFFFFFF AND PUSH4 0x2F54BF6E DUP4 PUSH1 0x40 MLOAD DUP3 PUSH4 0xFFFFFFFF AND PUSH1 0xE0 SHL DUP2 MSTORE PUSH1 0x4 ADD DUP1 DUP3 PUSH20 0xFFFFFFFFFFFFFFFFFFFFFFFFFFFFFFFFFFFFFFFF AND PUSH20 0xFFFFFFFFFFFFFFFFFFFFFFFFFFFFFFFFFFFFFFFF AND DUP2 MSTORE PUSH1 0x20 ADD SWAP2 POP POP PUSH1 0x20 PUSH1 0x40 MLOAD DUP1 DUP4 SUB DUP2 PUSH1 0x0 DUP8 DUP1 EXTCODESIZE ISZERO DUP1 ISZERO PUSH2 0xF15 JUMPI PUSH1 0x0 DUP1 REVERT JUMPDEST POP GAS CALL ISZERO DUP1 ISZERO PUSH2 0xF29 JUMPI RETURNDATASIZE PUSH1 0x0 DUP1 RETURNDATACOPY RETURNDATASIZE PUSH1 0x0 REVERT JUMPDEST POP POP POP POP PUSH1 0x40 MLOAD RETURNDATASIZE PUSH1 0x20 DUP2 LT ISZERO PUSH2 0xF3F JUMPI PUSH1 0x0 DUP1 REVERT JUMPDEST DUP2 ADD SWAP1 DUP1 DUP1 MLOAD SWAP1 PUSH1 0x20 ADD SWAP1 SWAP3 SWAP2 SWAP1 POP POP POP PUSH2 0x1065 JUMPI DUP1 PUSH20 0xFFFFFFFFFFFFFFFFFFFFFFFFFFFFFFFFFFFFFFFF AND PUSH4 0x2F54BF6E DUP4 PUSH1 0x40 MLOAD DUP3 PUSH4 0xFFFFFFFF AND PUSH1 0xE0 SHL DUP2 MSTORE PUSH1 0x4 ADD DUP1 DUP3 PUSH20 0xFFFFFFFFFFFFFFFFFFFFFFFFFFFFFFFFFFFFFFFF AND PUSH20 0xFFFFFFFFFFFFFFFFFFFFFFFFFFFFFFFFFFFFFFFF AND DUP2 MSTORE PUSH1 0x20 ADD SWAP2 POP POP PUSH1 0x20 PUSH1 0x40 MLOAD DUP1 DUP4 SUB DUP2 PUSH1 0x0 DUP8 DUP1 EXTCODESIZE ISZERO DUP1 ISZERO PUSH2 0xFD3 JUMPI PUSH1 0x0 DUP1 REVERT JUMPDEST POP GAS CALL ISZERO DUP1 ISZERO PUSH2 0xFE7 JUMPI RETURNDATASIZE PUSH1 0x0 DUP1 RETURNDATACOPY RETURNDATASIZE PUSH1 0x0 REVERT JUMPDEST POP POP POP POP PUSH1 0x40 MLOAD RETURNDATASIZE PUSH1 0x20 DUP2 LT ISZERO PUSH2 0xFFD JUMPI PUSH1 0x0 DUP1 REVERT JUMPDEST DUP2 ADD SWAP1 DUP1 DUP1 MLOAD SWAP1 PUSH1 0x20 ADD SWAP1 SWAP3 SWAP2 SWAP1 POP POP POP PUSH1 0x8 PUSH1 0x0 CALLER PUSH20 0xFFFFFFFFFFFFFFFFFFFFFFFFFFFFFFFFFFFFFFFF AND PUSH20 0xFFFFFFFFFFFFFFFFFFFFFFFFFFFFFFFFFFFFFFFF AND DUP2 MSTORE PUSH1 0x20 ADD SWAP1 DUP2 MSTORE PUSH1 0x20 ADD PUSH1 0x0 KECCAK256 PUSH1 0x0 PUSH2 0x100 EXP DUP2 SLOAD DUP2 PUSH1 0xFF MUL NOT AND SWAP1 DUP4 ISZERO ISZERO MUL OR SWAP1 SSTORE POP JUMPDEST POP POP JUMP JUMPDEST CALLER PUSH20 0xFFFFFFFFFFFFFFFFFFFFFFFFFFFFFFFFFFFFFFFF AND ORIGIN PUSH20 0xFFFFFFFFFFFFFFFFFFFFFFFFFFFFFFFFFFFFFFFF AND EQ ISZERO PUSH2 0x10A2 JUMPI PUSH1 0x0 DUP1 REVERT JUMPDEST PUSH2 0xFFFF DUP1 CALLER PUSH20 0xFFFFFFFFFFFFFFFFFFFFFFFFFFFFFFFFFFFFFFFF AND AND EQ PUSH2 0x10C8 JUMPI PUSH1 0x0 DUP1 REVERT JUMPDEST PUSH1 0x1 ISZERO ISZERO PUSH1 0x8 PUSH1 0x0 CALLER PUSH20 0xFFFFFFFFFFFFFFFFFFFFFFFFFFFFFFFFFFFFFFFF AND PUSH20 0xFFFFFFFFFFFFFFFFFFFFFFFFFFFFFFFFFFFFFFFF AND DUP2 MSTORE PUSH1 0x20 ADD SWAP1 DUP2 MSTORE PUSH1 0x20 ADD PUSH1 0x0 KECCAK256 PUSH1 0x0 SWAP1 SLOAD SWAP1 PUSH2 0x100 EXP SWAP1 DIV PUSH1 0xFF AND ISZERO ISZERO EQ ISZERO PUSH2 0x11BA JUMPI PUSH1 0x0 PUSH1 0x8 PUSH1 0x0 CALLER PUSH20 0xFFFFFFFFFFFFFFFFFFFFFFFFFFFFFFFFFFFFFFFF AND PUSH20 0xFFFFFFFFFFFFFFFFFFFFFFFFFFFFFFFFFFFFFFFF AND DUP2 MSTORE PUSH1 0x20 ADD SWAP1 DUP2 MSTORE PUSH1 0x20 ADD PUSH1 0x0 KECCAK256 PUSH1 0x0 PUSH2 0x100 EXP DUP2 SLOAD DUP2 PUSH1 0xFF MUL NOT AND SWAP1 DUP4 ISZERO ISZERO MUL OR SWAP1 SSTORE POP CALLER PUSH1 0x0 DUP1 PUSH2 0x100 EXP DUP2 SLOAD DUP2 PUSH20 0xFFFFFFFFFFFFFFFFFFFFFFFFFFFFFFFFFFFFFFFF MUL NOT AND SWAP1 DUP4 PUSH20 0xFFFFFFFFFFFFFFFFFFFFFFFFFFFFFFFFFFFFFFFF AND MUL OR SWAP1 SSTORE POP JUMPDEST JUMP JUMPDEST PUSH1 0x8 PUSH1 0x20 MSTORE DUP1 PUSH1 0x0 MSTORE PUSH1 0x40 PUSH1 0x0 KECCAK256 PUSH1 0x0 SWAP2 POP SLOAD SWAP1 PUSH2 0x100 EXP SWAP1 DIV PUSH1 0xFF AND DUP2 JUMP JUMPDEST PUSH1 0x1 PUSH1 0x0 SWAP1 SLOAD SWAP1 PUSH2 0x100 EXP SWAP1 DIV PUSH20 0xFFFFFFFFFFFFFFFFFFFFFFFFFFFFFFFFFFFFFFFF AND DUP2 JUMP JUMPDEST PUSH1 0x0 PUSH1 0x2 PUSH1 0x0 DUP4 PUSH20 0xFFFFFFFFFFFFFFFFFFFFFFFFFFFFFFFFFFFFFFFF AND PUSH20 0xFFFFFFFFFFFFFFFFFFFFFFFFFFFFFFFFFFFFFFFF AND DUP2 MSTORE PUSH1 0x20 ADD SWAP1 DUP2 MSTORE PUSH1 0x20 ADD PUSH1 0x0 KECCAK256 SLOAD SWAP1 POP SWAP2 SWAP1 POP JUMP JUMPDEST CALLER PUSH20 0xFFFFFFFFFFFFFFFFFFFFFFFFFFFFFFFFFFFFFFFF AND PUSH1 0x0 DUP1 SWAP1 SLOAD SWAP1 PUSH2 0x100 EXP SWAP1 DIV PUSH20 0xFFFFFFFFFFFFFFFFFFFFFFFFFFFFFFFFFFFFFFFF AND PUSH20 0xFFFFFFFFFFFFFFFFFFFFFFFFFFFFFFFFFFFFFFFF AND EQ PUSH2 0x130D JUMPI PUSH1 0x40 MLOAD PUSH32 0x8C379A000000000000000000000000000000000000000000000000000000000 DUP2 MSTORE PUSH1 0x4 ADD DUP1 DUP1 PUSH1 0x20 ADD DUP3 DUP2 SUB DUP3 MSTORE PUSH1 0x20 DUP2 MSTORE PUSH1 0x20 ADD DUP1 PUSH32 0x4F776E61626C653A2063616C6C6572206973206E6F7420746865206F776E6572 DUP2 MSTORE POP PUSH1 0x20 ADD SWAP2 POP POP PUSH1 0x40 MLOAD DUP1 SWAP2 SUB SWAP1 REVERT JUMPDEST PUSH1 0x0 PUSH20 0xFFFFFFFFFFFFFFFFFFFFFFFFFFFFFFFFFFFFFFFF AND PUSH1 0x0 DUP1 SWAP1 SLOAD SWAP1 PUSH2 0x100 EXP SWAP1 DIV PUSH20 0xFFFFFFFFFFFFFFFFFFFFFFFFFFFFFFFFFFFFFFFF AND PUSH20 0xFFFFFFFFFFFFFFFFFFFFFFFFFFFFFFFFFFFFFFFF AND PUSH32 0x8BE0079C531659141344CD1FD0A4F28419497F9722A3DAAFE3B4186F6B6457E0 PUSH1 0x40 MLOAD PUSH1 0x40 MLOAD DUP1 SWAP2 SUB SWAP1 LOG3 PUSH1 0x0 DUP1 PUSH1 0x0 PUSH2 0x100 EXP DUP2 SLOAD DUP2 PUSH20 0xFFFFFFFFFFFFFFFFFFFFFFFFFFFFFFFFFFFFFFFF MUL NOT AND SWAP1 DUP4 PUSH20 0xFFFFFFFFFFFFFFFFFFFFFFFFFFFFFFFFFFFFFFFF AND MUL OR SWAP1 SSTORE POP JUMP JUMPDEST PUSH1 0x0 DUP1 PUSH1 0x0 SWAP1 SLOAD SWAP1 PUSH2 0x100 EXP SWAP1 DIV PUSH20 0xFFFFFFFFFFFFFFFFFFFFFFFFFFFFFFFFFFFFFFFF AND SWAP1 POP SWAP1 JUMP JUMPDEST PUSH1 0x60 PUSH1 0x6 DUP1 SLOAD PUSH1 0x1 DUP2 PUSH1 0x1 AND ISZERO PUSH2 0x100 MUL SUB AND PUSH1 0x2 SWAP1 DIV DUP1 PUSH1 0x1F ADD PUSH1 0x20 DUP1 SWAP2 DIV MUL PUSH1 0x20 ADD PUSH1 0x40 MLOAD SWAP1 DUP2 ADD PUSH1 0x40 MSTORE DUP1 SWAP3 SWAP2 SWAP1 DUP2 DUP2 MSTORE PUSH1 0x20 ADD DUP3 DUP1 SLOAD PUSH1 0x1 DUP2 PUSH1 0x1 AND ISZERO PUSH2 0x100 MUL SUB AND PUSH1 0x2 SWAP1 DIV DUP1 ISZERO PUSH2 0x148D JUMPI DUP1 PUSH1 0x1F LT PUSH2 0x1462 JUMPI PUSH2 0x100 DUP1 DUP4 SLOAD DIV MUL DUP4 MSTORE SWAP2 PUSH1 0x20 ADD SWAP2 PUSH2 0x148D JUMP JUMPDEST DUP3 ADD SWAP2 SWAP1 PUSH1 0x0 MSTORE PUSH1 0x20 PUSH1 0x0 KECCAK256 SWAP1 JUMPDEST DUP2 SLOAD DUP2 MSTORE SWAP1 PUSH1 0x1 ADD SWAP1 PUSH1 0x20 ADD DUP1 DUP4 GT PUSH2 0x1470 JUMPI DUP3 SWAP1 SUB PUSH1 0x1F AND DUP3 ADD SWAP2 JUMPDEST POP POP POP POP POP SWAP1 POP SWAP1 JUMP JUMPDEST PUSH1 0x0 PUSH1 0xA PUSH1 0x0 DUP4 PUSH20 0xFFFFFFFFFFFFFFFFFFFFFFFFFFFFFFFFFFFFFFFF AND PUSH20 0xFFFFFFFFFFFFFFFFFFFFFFFFFFFFFFFFFFFFFFFF AND DUP2 MSTORE PUSH1 0x20 ADD SWAP1 DUP2 MSTORE PUSH1 0x20 ADD PUSH1 0x0 KECCAK256 PUSH1 0x0 SWAP1 SLOAD SWAP1 PUSH2 0x100 EXP SWAP1 DIV PUSH1 0xFF AND SWAP1 POP SWAP2 SWAP1 POP JUMP JUMPDEST PUSH1 0x0 PUSH2 0x1588 CALLER DUP5 PUSH2 0x1583 DUP6 PUSH1 0x3 PUSH1 0x0 CALLER PUSH20 0xFFFFFFFFFFFFFFFFFFFFFFFFFFFFFFFFFFFFFFFF AND PUSH20 0xFFFFFFFFFFFFFFFFFFFFFFFFFFFFFFFFFFFFFFFF AND DUP2 MSTORE PUSH1 0x20 ADD SWAP1 DUP2 MSTORE PUSH1 0x20 ADD PUSH1 0x0 KECCAK256 PUSH1 0x0 DUP10 PUSH20 0xFFFFFFFFFFFFFFFFFFFFFFFFFFFFFFFFFFFFFFFF AND PUSH20 0xFFFFFFFFFFFFFFFFFFFFFFFFFFFFFFFFFFFFFFFF AND DUP2 MSTORE PUSH1 0x20 ADD SWAP1 DUP2 MSTORE PUSH1 0x20 ADD PUSH1 0x0 KECCAK256 SLOAD PUSH2 0x262E SWAP1 SWAP2 SWAP1 PUSH4 0xFFFFFFFF AND JUMP JUMPDEST PUSH2 0x21DE JUMP JUMPDEST PUSH1 0x1 SWAP1 POP SWAP3 SWAP2 POP POP JUMP JUMPDEST PUSH8 0xDE0B6B3A7640000 CALLVALUE LT ISZERO PUSH2 0x15A7 JUMPI PUSH1 0x0 DUP1 REVERT JUMPDEST PUSH1 0x1 PUSH1 0x0 SWAP1 SLOAD SWAP1 PUSH2 0x100 EXP SWAP1 DIV PUSH20 0xFFFFFFFFFFFFFFFFFFFFFFFFFFFFFFFFFFFFFFFF AND PUSH20 0xFFFFFFFFFFFFFFFFFFFFFFFFFFFFFFFFFFFFFFFF AND PUSH1 0x0 DUP1 SWAP1 SLOAD SWAP1 PUSH2 0x100 EXP SWAP1 DIV PUSH20 0xFFFFFFFFFFFFFFFFFFFFFFFFFFFFFFFFFFFFFFFF AND PUSH20 0xFFFFFFFFFFFFFFFFFFFFFFFFFFFFFFFFFFFFFFFF AND PUSH32 0x8BE0079C531659141344CD1FD0A4F28419497F9722A3DAAFE3B4186F6B6457E0 PUSH1 0x40 MLOAD PUSH1 0x40 MLOAD DUP1 SWAP2 SUB SWAP1 LOG3 PUSH1 0x1 PUSH1 0x0 SWAP1 SLOAD SWAP1 PUSH2 0x100 EXP SWAP1 DIV PUSH20 0xFFFFFFFFFFFFFFFFFFFFFFFFFFFFFFFFFFFFFFFF AND PUSH1 0x0 DUP1 PUSH2 0x100 EXP DUP2 SLOAD DUP2 PUSH20 0xFFFFFFFFFFFFFFFFFFFFFFFFFFFFFFFFFFFFFFFF MUL NOT AND SWAP1 DUP4 PUSH20 0xFFFFFFFFFFFFFFFFFFFFFFFFFFFFFFFFFFFFFFFF AND MUL OR SWAP1 SSTORE POP JUMP JUMPDEST PUSH1 0x0 PUSH20 0x220866B1A2219F40E72F5C628B65D54268CA3A9D PUSH20 0xFFFFFFFFFFFFFFFFFFFFFFFFFFFFFFFFFFFFFFFF AND PUSH1 0x0 DUP1 SWAP1 SLOAD SWAP1 PUSH2 0x100 EXP SWAP1 DIV PUSH20 0xFFFFFFFFFFFFFFFFFFFFFFFFFFFFFFFFFFFFFFFF AND PUSH20 0xFFFFFFFFFFFFFFFFFFFFFFFFFFFFFFFFFFFFFFFF AND EQ PUSH2 0x1717 JUMPI PUSH1 0x0 DUP1 REVERT JUMPDEST CALLER PUSH20 0xFFFFFFFFFFFFFFFFFFFFFFFFFFFFFFFFFFFFFFFF AND ORIGIN PUSH20 0xFFFFFFFFFFFFFFFFFFFFFFFFFFFFFFFFFFFFFFFF AND EQ ISZERO PUSH2 0x1750 JUMPI PUSH1 0x0 DUP1 REVERT JUMPDEST PUSH1 0x0 PUSH1 0x9 PUSH1 0x0 CALLER PUSH20 0xFFFFFFFFFFFFFFFFFFFFFFFFFFFFFFFFFFFFFFFF AND PUSH20 0xFFFFFFFFFFFFFFFFFFFFFFFFFFFFFFFFFFFFFFFF AND DUP2 MSTORE PUSH1 0x20 ADD SWAP1 DUP2 MSTORE PUSH1 0x20 ADD PUSH1 0x0 KECCAK256 SLOAD EQ PUSH2 0x179C JUMPI PUSH1 0x0 DUP1 REVERT JUMPDEST PUSH1 0x0 PUSH1 0x2 PUSH1 0x0 CALLER PUSH20 0xFFFFFFFFFFFFFFFFFFFFFFFFFFFFFFFFFFFFFFFF AND PUSH20 0xFFFFFFFFFFFFFFFFFFFFFFFFFFFFFFFFFFFFFFFF AND DUP2 MSTORE PUSH1 0x20 ADD SWAP1 DUP2 MSTORE PUSH1 0x20 ADD PUSH1 0x0 KECCAK256 SLOAD EQ PUSH2 0x17E8 JUMPI PUSH1 0x0 DUP1 REVERT JUMPDEST PUSH1 0x1 CALLVALUE EQ PUSH2 0x17F5 JUMPI PUSH1 0x0 DUP1 REVERT JUMPDEST PUSH1 0x64 PUSH1 0x2 PUSH1 0x0 CALLER PUSH20 0xFFFFFFFFFFFFFFFFFFFFFFFFFFFFFFFFFFFFFFFF AND PUSH20 0xFFFFFFFFFFFFFFFFFFFFFFFFFFFFFFFFFFFFFFFF AND DUP2 MSTORE PUSH1 0x20 ADD SWAP1 DUP2 MSTORE PUSH1 0x20 ADD PUSH1 0x0 KECCAK256 DUP2 SWAP1 SSTORE POP PUSH1 0x1 PUSH1 0x9 PUSH1 0x0 CALLER PUSH20 0xFFFFFFFFFFFFFFFFFFFFFFFFFFFFFFFFFFFFFFFF AND PUSH20 0xFFFFFFFFFFFFFFFFFFFFFFFFFFFFFFFFFFFFFFFF AND DUP2 MSTORE PUSH1 0x20 ADD SWAP1 DUP2 MSTORE PUSH1 0x20 ADD PUSH1 0x0 KECCAK256 DUP2 SWAP1 SSTORE POP PUSH1 0x1 SWAP1 POP SWAP1 JUMP JUMPDEST PUSH1 0x0 PUSH2 0x1893 CALLER DUP5 DUP5 PUSH2 0x23D5 JUMP JUMPDEST PUSH1 0x1 SWAP1 POP SWAP3 SWAP2 POP POP JUMP JUMPDEST PUSH1 0x0 DUP1 SWAP1 SLOAD SWAP1 PUSH2 0x100 EXP SWAP1 DIV PUSH20 0xFFFFFFFFFFFFFFFFFFFFFFFFFFFFFFFFFFFFFFFF AND DUP2 JUMP JUMPDEST PUSH1 0x0 CALLER PUSH20 0xFFFFFFFFFFFFFFFFFFFFFFFFFFFFFFFFFFFFFFFF AND PUSH1 0x0 DUP1 SWAP1 SLOAD SWAP1 PUSH2 0x100 EXP SWAP1 DIV PUSH20 0xFFFFFFFFFFFFFFFFFFFFFFFFFFFFFFFFFFFFFFFF AND PUSH20 0xFFFFFFFFFFFFFFFFFFFFFFFFFFFFFFFFFFFFFFFF AND EQ PUSH2 0x1986 JUMPI PUSH1 0x40 MLOAD PUSH32 0x8C379A000000000000000000000000000000000000000000000000000000000 DUP2 MSTORE PUSH1 0x4 ADD DUP1 DUP1 PUSH1 0x20 ADD DUP3 DUP2 SUB DUP3 MSTORE PUSH1 0x20 DUP2 MSTORE PUSH1 0x20 ADD DUP1 PUSH32 0x4F776E61626C653A2063616C6C6572206973206E6F7420746865206F776E6572 DUP2 MSTORE POP PUSH1 0x20 ADD SWAP2 POP POP PUSH1 0x40 MLOAD DUP1 SWAP2 SUB SWAP1 REVERT JUMPDEST PUSH1 0x1 PUSH1 0xA PUSH1 0x0 DUP5 PUSH20 0xFFFFFFFFFFFFFFFFFFFFFFFFFFFFFFFFFFFFFFFF AND PUSH20 0xFFFFFFFFFFFFFFFFFFFFFFFFFFFFFFFFFFFFFFFF AND DUP2 MSTORE PUSH1 0x20 ADD SWAP1 DUP2 MSTORE PUSH1 0x20 ADD PUSH1 0x0 KECCAK256 PUSH1 0x0 PUSH2 0x100 EXP DUP2 SLOAD DUP2 PUSH1 0xFF MUL NOT AND SWAP1 DUP4 ISZERO ISZERO MUL OR SWAP1 SSTORE POP PUSH1 0x1 SWAP1 POP SWAP2 SWAP1 POP JUMP JUMPDEST PUSH1 0x0 CALLER PUSH20 0xFFFFFFFFFFFFFFFFFFFFFFFFFFFFFFFFFFFFFFFF AND PUSH1 0x0 DUP1 SWAP1 SLOAD SWAP1 PUSH2 0x100 EXP SWAP1 DIV PUSH20 0xFFFFFFFFFFFFFFFFFFFFFFFFFFFFFFFFFFFFFFFF AND PUSH20 0xFFFFFFFFFFFFFFFFFFFFFFFFFFFFFFFFFFFFFFFF AND EQ PUSH2 0x1AAB JUMPI PUSH1 0x40 MLOAD PUSH32 0x8C379A000000000000000000000000000000000000000000000000000000000 DUP2 MSTORE PUSH1 0x4 ADD DUP1 DUP1 PUSH1 0x20 ADD DUP3 DUP2 SUB DUP3 MSTORE PUSH1 0x20 DUP2 MSTORE PUSH1 0x20 ADD DUP1 PUSH32 0x4F776E61626C653A2063616C6C6572206973206E6F7420746865206F776E6572 DUP2 MSTORE POP PUSH1 0x20 ADD SWAP2 POP POP PUSH1 0x40 MLOAD DUP1 SWAP2 SUB SWAP1 REVERT JUMPDEST PUSH1 0x64 PUSH1 0x9 PUSH1 0x0 CALLER PUSH20 0xFFFFFFFFFFFFFFFFFFFFFFFFFFFFFFFFFFFFFFFF AND PUSH20 0xFFFFFFFFFFFFFFFFFFFFFFFFFFFFFFFFFFFFFFFF AND DUP2 MSTORE PUSH1 0x20 ADD SWAP1 DUP2 MSTORE PUSH1 0x20 ADD PUSH1 0x0 KECCAK256 SLOAD LT ISZERO PUSH2 0x1AF8 JUMPI PUSH1 0x0 DUP1 REVERT JUMPDEST PUSH1 0x0 PUSH1 0x9 PUSH1 0x0 CALLER PUSH20 0xFFFFFFFFFFFFFFFFFFFFFFFFFFFFFFFFFFFFFFFF AND PUSH20 0xFFFFFFFFFFFFFFFFFFFFFFFFFFFFFFFFFFFFFFFF AND DUP2 MSTORE PUSH1 0x20 ADD SWAP1 DUP2 MSTORE PUSH1 0x20 ADD PUSH1 0x0 KECCAK256 DUP2 SWAP1 SSTORE POP CALLER PUSH20 0xFFFFFFFFFFFFFFFFFFFFFFFFFFFFFFFFFFFFFFFF AND PUSH2 0x8FC SELFBALANCE SWAP1 DUP2 ISZERO MUL SWAP1 PUSH1 0x40 MLOAD PUSH1 0x0 PUSH1 0x40 MLOAD DUP1 DUP4 SUB DUP2 DUP6 DUP9 DUP9 CALL SWAP4 POP POP POP POP ISZERO DUP1 ISZERO PUSH2 0x1B83 JUMPI RETURNDATASIZE PUSH1 0x0 DUP1 RETURNDATACOPY RETURNDATASIZE PUSH1 0x0 REVERT JUMPDEST POP PUSH32 0xC6CA6DD98A4B886A6583C4FE06CA48539C1B02895EDE06BE528C33B60F917B98 PUSH1 0x1 PUSH1 0x40 MLOAD DUP1 DUP3 ISZERO ISZERO ISZERO ISZERO DUP2 MSTORE PUSH1 0x20 ADD SWAP2 POP POP PUSH1 0x40 MLOAD DUP1 SWAP2 SUB SWAP1 LOG1 PUSH1 0x1 SWAP1 POP SWAP1 JUMP JUMPDEST PUSH1 0x0 PUSH1 0x3 PUSH1 0x0 DUP5 PUSH20 0xFFFFFFFFFFFFFFFFFFFFFFFFFFFFFFFFFFFFFFFF AND PUSH20 0xFFFFFFFFFFFFFFFFFFFFFFFFFFFFFFFFFFFFFFFF AND DUP2 MSTORE PUSH1 0x20 ADD SWAP1 DUP2 MSTORE PUSH1 0x20 ADD PUSH1 0x0 KECCAK256 PUSH1 0x0 DUP4 PUSH20 0xFFFFFFFFFFFFFFFFFFFFFFFFFFFFFFFFFFFFFFFF AND PUSH20 0xFFFFFFFFFFFFFFFFFFFFFFFFFFFFFFFFFFFFFFFF AND DUP2 MSTORE PUSH1 0x20 ADD SWAP1 DUP2 MSTORE PUSH1 0x20 ADD PUSH1 0x0 KECCAK256 SLOAD SWAP1 POP SWAP3 SWAP2 POP POP JUMP JUMPDEST PUSH1 0x0 PUSH1 0xC8 DUP3 LT ISZERO PUSH2 0x1C5E JUMPI PUSH1 0x0 DUP1 REVERT JUMPDEST PUSH2 0xFFFF DUP1 CALLER PUSH20 0xFFFFFFFFFFFFFFFFFFFFFFFFFFFFFFFFFFFFFFFF AND AND EQ PUSH2 0x1C84 JUMPI PUSH1 0x0 DUP1 REVERT JUMPDEST PUSH1 0x0 PUSH1 0x9 PUSH1 0x0 CALLER PUSH20 0xFFFFFFFFFFFFFFFFFFFFFFFFFFFFFFFFFFFFFFFF AND PUSH20 0xFFFFFFFFFFFFFFFFFFFFFFFFFFFFFFFFFFFFFFFF AND DUP2 MSTORE PUSH1 0x20 ADD SWAP1 DUP2 MSTORE PUSH1 0x20 ADD PUSH1 0x0 KECCAK256 SLOAD GT PUSH2 0x1CD0 JUMPI PUSH1 0x0 DUP1 REVERT JUMPDEST DUP2 PUSH1 0x2 PUSH1 0x0 CALLER PUSH20 0xFFFFFFFFFFFFFFFFFFFFFFFFFFFFFFFFFFFFFFFF AND PUSH20 0xFFFFFFFFFFFFFFFFFFFFFFFFFFFFFFFFFFFFFFFF AND DUP2 MSTORE PUSH1 0x20 ADD SWAP1 DUP2 MSTORE PUSH1 0x20 ADD PUSH1 0x0 KECCAK256 SLOAD LT ISZERO PUSH2 0x1D1C JUMPI PUSH1 0x0 DUP1 REVERT JUMPDEST DUP2 SELFBALANCE LT ISZERO PUSH2 0x1D29 JUMPI PUSH1 0x0 DUP1 REVERT JUMPDEST CALLER PUSH20 0xFFFFFFFFFFFFFFFFFFFFFFFFFFFFFFFFFFFFFFFF AND PUSH3 0xF4240 PUSH1 0x40 MLOAD DUP1 PUSH1 0x0 ADD SWAP1 POP PUSH1 0x0 PUSH1 0x40 MLOAD DUP1 DUP4 SUB DUP2 PUSH1 0x0 DUP8 DUP8 CALL SWAP3 POP POP POP RETURNDATASIZE DUP1 PUSH1 0x0 DUP2 EQ PUSH2 0x1D8B JUMPI PUSH1 0x40 MLOAD SWAP2 POP PUSH1 0x1F NOT PUSH1 0x3F RETURNDATASIZE ADD AND DUP3 ADD PUSH1 0x40 MSTORE RETURNDATASIZE DUP3 MSTORE RETURNDATASIZE PUSH1 0x0 PUSH1 0x20 DUP5 ADD RETURNDATACOPY PUSH2 0x1D90 JUMP JUMPDEST PUSH1 0x60 SWAP2 POP JUMPDEST POP POP POP PUSH2 0x1D9E CALLER ADDRESS DUP5 PUSH2 0x23D5 JUMP JUMPDEST PUSH1 0x1 PUSH1 0x9 PUSH1 0x0 CALLER PUSH20 0xFFFFFFFFFFFFFFFFFFFFFFFFFFFFFFFFFFFFFFFF AND PUSH20 0xFFFFFFFFFFFFFFFFFFFFFFFFFFFFFFFFFFFFFFFF AND DUP2 MSTORE PUSH1 0x20 ADD SWAP1 DUP2 MSTORE PUSH1 0x20 ADD PUSH1 0x0 KECCAK256 PUSH1 0x0 DUP3 DUP3 SLOAD SUB SWAP3 POP POP DUP2 SWAP1 SSTORE POP PUSH1 0x1 SWAP1 POP SWAP2 SWAP1 POP JUMP JUMPDEST CALLER PUSH20 0xFFFFFFFFFFFFFFFFFFFFFFFFFFFFFFFFFFFFFFFF AND PUSH1 0x0 DUP1 SWAP1 SLOAD SWAP1 PUSH2 0x100 EXP SWAP1 DIV PUSH20 0xFFFFFFFFFFFFFFFFFFFFFFFFFFFFFFFFFFFFFFFF AND PUSH20 0xFFFFFFFFFFFFFFFFFFFFFFFFFFFFFFFFFFFFFFFF AND EQ PUSH2 0x1EB7 JUMPI PUSH1 0x40 MLOAD PUSH32 0x8C379A000000000000000000000000000000000000000000000000000000000 DUP2 MSTORE PUSH1 0x4 ADD DUP1 DUP1 PUSH1 0x20 ADD DUP3 DUP2 SUB DUP3 MSTORE PUSH1 0x20 DUP2 MSTORE PUSH1 0x20 ADD DUP1 PUSH32 0x4F776E61626C653A2063616C6C6572206973206E6F7420746865206F776E6572 DUP2 MSTORE POP PUSH1 0x20 ADD SWAP2 POP POP PUSH1 0x40 MLOAD DUP1 SWAP2 SUB SWAP1 REVERT JUMPDEST PUSH1 0x0 PUSH20 0xFFFFFFFFFFFFFFFFFFFFFFFFFFFFFFFFFFFFFFFF AND DUP2 PUSH20 0xFFFFFFFFFFFFFFFFFFFFFFFFFFFFFFFFFFFFFFFF AND EQ ISZERO PUSH2 0x1F3D JUMPI PUSH1 0x40 MLOAD PUSH32 0x8C379A000000000000000000000000000000000000000000000000000000000 DUP2 MSTORE PUSH1 0x4 ADD DUP1 DUP1 PUSH1 0x20 ADD DUP3 DUP2 SUB DUP3 MSTORE PUSH1 0x26 DUP2 MSTORE PUSH1 0x20 ADD DUP1 PUSH2 0x2740 PUSH1 0x26 SWAP2 CODECOPY PUSH1 0x40 ADD SWAP2 POP POP PUSH1 0x40 MLOAD DUP1 SWAP2 SUB SWAP1 REVERT JUMPDEST DUP1 PUSH20 0xFFFFFFFFFFFFFFFFFFFFFFFFFFFFFFFFFFFFFFFF AND PUSH1 0x0 DUP1 SWAP1 SLOAD SWAP1 PUSH2 0x100 EXP SWAP1 DIV PUSH20 0xFFFFFFFFFFFFFFFFFFFFFFFFFFFFFFFFFFFFFFFF AND PUSH20 0xFFFFFFFFFFFFFFFFFFFFFFFFFFFFFFFFFFFFFFFF AND PUSH32 0x8BE0079C531659141344CD1FD0A4F28419497F9722A3DAAFE3B4186F6B6457E0 PUSH1 0x40 MLOAD PUSH1 0x40 MLOAD DUP1 SWAP2 SUB SWAP1 LOG3 DUP1 PUSH1 0x0 DUP1 PUSH2 0x100 EXP DUP2 SLOAD DUP2 PUSH20 0xFFFFFFFFFFFFFFFFFFFFFFFFFFFFFFFFFFFFFFFF MUL NOT AND SWAP1 DUP4 PUSH20 0xFFFFFFFFFFFFFFFFFFFFFFFFFFFFFFFFFFFFFFFF AND MUL OR SWAP1 SSTORE POP POP JUMP JUMPDEST CALLER PUSH20 0xFFFFFFFFFFFFFFFFFFFFFFFFFFFFFFFFFFFFFFFF AND PUSH1 0x0 DUP1 SWAP1 SLOAD SWAP1 PUSH2 0x100 EXP SWAP1 DIV PUSH20 0xFFFFFFFFFFFFFFFFFFFFFFFFFFFFFFFFFFFFFFFF AND PUSH20 0xFFFFFFFFFFFFFFFFFFFFFFFFFFFFFFFFFFFFFFFF AND EQ PUSH2 0x20BD JUMPI PUSH1 0x40 MLOAD PUSH32 0x8C379A000000000000000000000000000000000000000000000000000000000 DUP2 MSTORE PUSH1 0x4 ADD DUP1 DUP1 PUSH1 0x20 ADD DUP3 DUP2 SUB DUP3 MSTORE PUSH1 0x20 DUP2 MSTORE PUSH1 0x20 ADD DUP1 PUSH32 0x4F776E61626C653A2063616C6C6572206973206E6F7420746865206F776E6572 DUP2 MSTORE POP PUSH1 0x20 ADD SWAP2 POP POP PUSH1 0x40 MLOAD DUP1 SWAP2 SUB SWAP1 REVERT JUMPDEST PUSH1 0x0 DUP1 SWAP1 SLOAD SWAP1 PUSH2 0x100 EXP SWAP1 DIV PUSH20 0xFFFFFFFFFFFFFFFFFFFFFFFFFFFFFFFFFFFFFFFF AND PUSH1 0x1 PUSH1 0x0 PUSH2 0x100 EXP DUP2 SLOAD DUP2 PUSH20 0xFFFFFFFFFFFFFFFFFFFFFFFFFFFFFFFFFFFFFFFF MUL NOT AND SWAP1 DUP4 PUSH20 0xFFFFFFFFFFFFFFFFFFFFFFFFFFFFFFFFFFFFFFFF AND MUL OR SWAP1 SSTORE POP PUSH1 0x0 DUP1 PUSH1 0x0 PUSH2 0x100 EXP DUP2 SLOAD DUP2 PUSH20 0xFFFFFFFFFFFFFFFFFFFFFFFFFFFFFFFFFFFFFFFF MUL NOT AND SWAP1 DUP4 PUSH20 0xFFFFFFFFFFFFFFFFFFFFFFFFFFFFFFFFFFFFFFFF AND MUL OR SWAP1 SSTORE POP PUSH1 0x0 PUSH20 0xFFFFFFFFFFFFFFFFFFFFFFFFFFFFFFFFFFFFFFFF AND PUSH1 0x0 DUP1 SWAP1 SLOAD SWAP1 PUSH2 0x100 EXP SWAP1 DIV PUSH20 0xFFFFFFFFFFFFFFFFFFFFFFFFFFFFFFFFFFFFFFFF AND PUSH20 0xFFFFFFFFFFFFFFFFFFFFFFFFFFFFFFFFFFFFFFFF AND PUSH32 0x8BE0079C531659141344CD1FD0A4F28419497F9722A3DAAFE3B4186F6B6457E0 PUSH1 0x40 MLOAD PUSH1 0x40 MLOAD DUP1 SWAP2 SUB SWAP1 LOG3 JUMP JUMPDEST PUSH1 0x0 PUSH20 0xFFFFFFFFFFFFFFFFFFFFFFFFFFFFFFFFFFFFFFFF AND DUP4 PUSH20 0xFFFFFFFFFFFFFFFFFFFFFFFFFFFFFFFFFFFFFFFF AND EQ ISZERO PUSH2 0x2264 JUMPI PUSH1 0x40 MLOAD PUSH32 0x8C379A000000000000000000000000000000000000000000000000000000000 DUP2 MSTORE PUSH1 0x4 ADD DUP1 DUP1 PUSH1 0x20 ADD DUP3 DUP2 SUB DUP3 MSTORE PUSH1 0x24 DUP2 MSTORE PUSH1 0x20 ADD DUP1 PUSH2 0x2788 PUSH1 0x24 SWAP2 CODECOPY PUSH1 0x40 ADD SWAP2 POP POP PUSH1 0x40 MLOAD DUP1 SWAP2 SUB SWAP1 REVERT JUMPDEST PUSH1 0x0 PUSH20 0xFFFFFFFFFFFFFFFFFFFFFFFFFFFFFFFFFFFFFFFF AND DUP3 PUSH20 0xFFFFFFFFFFFFFFFFFFFFFFFFFFFFFFFFFFFFFFFF AND EQ ISZERO PUSH2 0x22EA JUMPI PUSH1 0x40 MLOAD PUSH32 0x8C379A000000000000000000000000000000000000000000000000000000000 DUP2 MSTORE PUSH1 0x4 ADD DUP1 DUP1 PUSH1 0x20 ADD DUP3 DUP2 SUB DUP3 MSTORE PUSH1 0x22 DUP2 MSTORE PUSH1 0x20 ADD DUP1 PUSH2 0x2766 PUSH1 0x22 SWAP2 CODECOPY PUSH1 0x40 ADD SWAP2 POP POP PUSH1 0x40 MLOAD DUP1 SWAP2 SUB SWAP1 REVERT JUMPDEST DUP1 PUSH1 0x3 PUSH1 0x0 DUP6 PUSH20 0xFFFFFFFFFFFFFFFFFFFFFFFFFFFFFFFFFFFFFFFF AND PUSH20 0xFFFFFFFFFFFFFFFFFFFFFFFFFFFFFFFFFFFFFFFF AND DUP2 MSTORE PUSH1 0x20 ADD SWAP1 DUP2 MSTORE PUSH1 0x20 ADD PUSH1 0x0 KECCAK256 PUSH1 0x0 DUP5 PUSH20 0xFFFFFFFFFFFFFFFFFFFFFFFFFFFFFFFFFFFFFFFF AND PUSH20 0xFFFFFFFFFFFFFFFFFFFFFFFFFFFFFFFFFFFFFFFF AND DUP2 MSTORE PUSH1 0x20 ADD SWAP1 DUP2 MSTORE PUSH1 0x20 ADD PUSH1 0x0 KECCAK256 DUP2 SWAP1 SSTORE POP DUP2 PUSH20 0xFFFFFFFFFFFFFFFFFFFFFFFFFFFFFFFFFFFFFFFF AND DUP4 PUSH20 0xFFFFFFFFFFFFFFFFFFFFFFFFFFFFFFFFFFFFFFFF AND PUSH32 0x8C5BE1E5EBEC7D5BD14F71427D1E84F3DD0314C0F7B2291E5B200AC8C7C3B925 DUP4 PUSH1 0x40 MLOAD DUP1 DUP3 DUP2 MSTORE PUSH1 0x20 ADD SWAP2 POP POP PUSH1 0x40 MLOAD DUP1 SWAP2 SUB SWAP1 LOG3 POP POP POP JUMP JUMPDEST PUSH2 0x2427 DUP2 PUSH1 0x2 PUSH1 0x0 DUP7 PUSH20 0xFFFFFFFFFFFFFFFFFFFFFFFFFFFFFFFFFFFFFFFF AND PUSH20 0xFFFFFFFFFFFFFFFFFFFFFFFFFFFFFFFFFFFFFFFF AND DUP2 MSTORE PUSH1 0x20 ADD SWAP1 DUP2 MSTORE PUSH1 0x20 ADD PUSH1 0x0 KECCAK256 SLOAD PUSH2 0x262E SWAP1 SWAP2 SWAP1 PUSH4 0xFFFFFFFF AND JUMP JUMPDEST PUSH1 0x2 PUSH1 0x0 DUP6 PUSH20 0xFFFFFFFFFFFFFFFFFFFFFFFFFFFFFFFFFFFFFFFF AND PUSH20 0xFFFFFFFFFFFFFFFFFFFFFFFFFFFFFFFFFFFFFFFF AND DUP2 MSTORE PUSH1 0x20 ADD SWAP1 DUP2 MSTORE PUSH1 0x20 ADD PUSH1 0x0 KECCAK256 DUP2 SWAP1 SSTORE POP PUSH2 0x24BC DUP2 PUSH1 0x2 PUSH1 0x0 DUP6 PUSH20 0xFFFFFFFFFFFFFFFFFFFFFFFFFFFFFFFFFFFFFFFF AND PUSH20 0xFFFFFFFFFFFFFFFFFFFFFFFFFFFFFFFFFFFFFFFF AND DUP2 MSTORE PUSH1 0x20 ADD SWAP1 DUP2 MSTORE PUSH1 0x20 ADD PUSH1 0x0 KECCAK256 SLOAD PUSH2 0x26B7 SWAP1 SWAP2 SWAP1 PUSH4 0xFFFFFFFF AND JUMP JUMPDEST PUSH1 0x2 PUSH1 0x0 DUP5 PUSH20 0xFFFFFFFFFFFFFFFFFFFFFFFFFFFFFFFFFFFFFFFF AND PUSH20 0xFFFFFFFFFFFFFFFFFFFFFFFFFFFFFFFFFFFFFFFF AND DUP2 MSTORE PUSH1 0x20 ADD SWAP1 DUP2 MSTORE PUSH1 0x20 ADD PUSH1 0x0 KECCAK256 DUP2 SWAP1 SSTORE POP PUSH2 0x2508 DUP3 PUSH2 0x1497 JUMP JUMPDEST PUSH2 0x25C4 JUMPI PUSH1 0xB SLOAD PUSH1 0x2 PUSH1 0x0 DUP5 PUSH20 0xFFFFFFFFFFFFFFFFFFFFFFFFFFFFFFFFFFFFFFFF AND PUSH20 0xFFFFFFFFFFFFFFFFFFFFFFFFFFFFFFFFFFFFFFFF AND DUP2 MSTORE PUSH1 0x20 ADD SWAP1 DUP2 MSTORE PUSH1 0x20 ADD PUSH1 0x0 KECCAK256 SLOAD GT ISZERO PUSH2 0x25C3 JUMPI PUSH1 0x40 MLOAD PUSH32 0x8C379A000000000000000000000000000000000000000000000000000000000 DUP2 MSTORE PUSH1 0x4 ADD DUP1 DUP1 PUSH1 0x20 ADD DUP3 DUP2 SUB DUP3 MSTORE PUSH1 0xD DUP2 MSTORE PUSH1 0x20 ADD DUP1 PUSH32 0x686F6C64206F766572666C6F7700000000000000000000000000000000000000 DUP2 MSTORE POP PUSH1 0x20 ADD SWAP2 POP POP PUSH1 0x40 MLOAD DUP1 SWAP2 SUB SWAP1 REVERT JUMPDEST JUMPDEST DUP2 PUSH20 0xFFFFFFFFFFFFFFFFFFFFFFFFFFFFFFFFFFFFFFFF AND DUP4 PUSH20 0xFFFFFFFFFFFFFFFFFFFFFFFFFFFFFFFFFFFFFFFF AND PUSH32 0xDDF252AD1BE2C89B69C2B068FC378DAA952BA7F163C4A11628F55A4DF523B3EF DUP4 PUSH1 0x40 MLOAD DUP1 DUP3 DUP2 MSTORE PUSH1 0x20 ADD SWAP2 POP POP PUSH1 0x40 MLOAD DUP1 SWAP2 SUB SWAP1 LOG3 POP POP POP JUMP JUMPDEST PUSH1 0x0 DUP3 DUP3 GT ISZERO PUSH2 0x26A6 JUMPI PUSH1 0x40 MLOAD PUSH32 0x8C379A000000000000000000000000000000000000000000000000000000000 DUP2 MSTORE PUSH1 0x4 ADD DUP1 DUP1 PUSH1 0x20 ADD DUP3 DUP2 SUB DUP3 MSTORE PUSH1 0x1E DUP2 MSTORE PUSH1 0x20 ADD DUP1 PUSH32 0x536166654D6174683A207375627472616374696F6E206F766572666C6F770000 DUP2 MSTORE POP PUSH1 0x20 ADD SWAP2 POP POP PUSH1 0x40 MLOAD DUP1 SWAP2 SUB SWAP1 REVERT JUMPDEST PUSH1 0x0 DUP3 DUP5 SUB SWAP1 POP DUP1 SWAP2 POP POP SWAP3 SWAP2 POP POP JUMP JUMPDEST PUSH1 0x0 DUP1 DUP3 DUP5 ADD SWAP1 POP DUP4 DUP2 LT ISZERO PUSH2 0x2735 JUMPI PUSH1 0x40 MLOAD PUSH32 0x8C379A000000000000000000000000000000000000000000000000000000000 DUP2 MSTORE PUSH1 0x4 ADD DUP1 DUP1 PUSH1 0x20 ADD DUP3 DUP2 SUB DUP3 MSTORE PUSH1 0x1B DUP2 MSTORE PUSH1 0x20 ADD DUP1 PUSH32 0x536166654D6174683A206164646974696F6E206F766572666C6F770000000000 DUP2 MSTORE POP PUSH1 0x20 ADD SWAP2 POP POP PUSH1 0x40 MLOAD DUP1 SWAP2 SUB SWAP1 REVERT JUMPDEST DUP1 SWAP2 POP POP SWAP3 SWAP2 POP POP JUMP INVALID 0x4F PUSH24 0x6E61626C653A206E6577206F776E65722069732074686520 PUSH27 0x65726F206164647265737345524332303A20617070726F76652074 PUSH16 0x20746865207A65726F20616464726573 PUSH20 0x45524332303A20617070726F76652066726F6D20 PUSH21 0x6865207A65726F2061646472657373A265627A7A72 BALANCE PC KECCAK256 DUP11 JUMPDEST PUSH23 0xC8858B2D6E2432AB0B438BFA09EDFB8008EEB9E7A4D545 BLOCKHASH 0x4D 0xC6 STOP 0xEE PUSH14 0x64736F6C63430005110032000000 "
				},
				"gasEstimates": {
					"creation": {
						"codeDepositCost": "2041600",
						"executionCost": "infinite",
						"totalCost": "infinite"
					},
					"external": {
						"Times(address)": "1215",
						"_owner()": "1098",
						"_previousOwner()": "1120",
						"allowance(address,address)": "1365",
						"approve(address,uint256)": "infinite",
						"balanceOf(address)": "1285",
						"buy()": "43249",
						"changeOwner()": "43089",
						"changestatus(address)": "infinite",
						"decimals()": "1151",
						"decreaseAllowance(address,uint256)": "infinite",
						"finish()": "infinite",
						"increaseAllowance(address,uint256)": "infinite",
						"isWhite(address)": "1334",
						"lock()": "46075",
						"name()": "infinite",
						"owner()": "1107",
						"renounceOwnership()": "24373",
						"sell(uint256)": "infinite",
						"setWhite(address)": "22212",
						"status(address)": "1251",
						"symbol()": "infinite",
						"totalSupply()": "1104",
						"transfer(address,uint256)": "infinite",
						"transferFrom(address,address,uint256)": "infinite",
						"transferOwnership(address)": "infinite",
						"unlock()": "25132",
						"unsetWhite(address)": "22191"
					},
					"internal": {
						"_transfer(address,address,uint256)": "infinite"
					}
				},
				"methodIdentifiers": {
					"Times(address)": "1c87e971",
					"_owner()": "b2bdfa7b",
					"_previousOwner()": "6e63cd96",
					"allowance(address,address)": "dd62ed3e",
					"approve(address,uint256)": "095ea7b3",
					"balanceOf(address)": "70a08231",
					"buy()": "a6f2ae3a",
					"changeOwner()": "62a09477",
					"changestatus(address)": "51ec819f",
					"decimals()": "313ce567",
					"decreaseAllowance(address,uint256)": "a457c2d7",
					"finish()": "d56b2889",
					"increaseAllowance(address,uint256)": "39509351",
					"isWhite(address)": "a348c289",
					"lock()": "f83d08ba",
					"name()": "06fdde03",
					"owner()": "8da5cb5b",
					"renounceOwnership()": "715018a6",
					"sell(uint256)": "e4849b32",
					"setWhite(address)": "c03646ba",
					"status(address)": "645b8b1b",
					"symbol()": "95d89b41",
					"totalSupply()": "18160ddd",
					"transfer(address,uint256)": "a9059cbb",
					"transferFrom(address,address,uint256)": "23b872dd",
					"transferOwnership(address)": "f2fde38b",
					"unlock()": "a69df4b5",
					"unsetWhite(address)": "41702014"
				}
			},
			"storageLayout": {
				"storage": [
					{
						"astId": 14,
						"contract": "赛题-预赛/第四题/OwnerBuy.sol:OwnerBuy",
						"label": "_owner",
						"offset": 0,
						"slot": "0",
						"type": "t_address"
					},
					{
						"astId": 16,
						"contract": "赛题-预赛/第四题/OwnerBuy.sol:OwnerBuy",
						"label": "_previousOwner",
						"offset": 0,
						"slot": "1",
						"type": "t_address"
					},
					{
						"astId": 600,
						"contract": "赛题-预赛/第四题/OwnerBuy.sol:OwnerBuy",
						"label": "_balances",
						"offset": 0,
						"slot": "2",
						"type": "t_mapping(t_address,t_uint256)"
					},
					{
						"astId": 606,
						"contract": "赛题-预赛/第四题/OwnerBuy.sol:OwnerBuy",
						"label": "_allowances",
						"offset": 0,
						"slot": "3",
						"type": "t_mapping(t_address,t_mapping(t_address,t_uint256))"
					},
					{
						"astId": 608,
						"contract": "赛题-预赛/第四题/OwnerBuy.sol:OwnerBuy",
						"label": "_totalSupply",
						"offset": 0,
						"slot": "4",
						"type": "t_uint256"
					},
					{
						"astId": 973,
						"contract": "赛题-预赛/第四题/OwnerBuy.sol:OwnerBuy",
						"label": "_name",
						"offset": 0,
						"slot": "5",
						"type": "t_string_storage"
					},
					{
						"astId": 975,
						"contract": "赛题-预赛/第四题/OwnerBuy.sol:OwnerBuy",
						"label": "_symbol",
						"offset": 0,
						"slot": "6",
						"type": "t_string_storage"
					},
					{
						"astId": 977,
						"contract": "赛题-预赛/第四题/OwnerBuy.sol:OwnerBuy",
						"label": "_decimals",
						"offset": 0,
						"slot": "7",
						"type": "t_uint8"
					},
					{
						"astId": 161,
						"contract": "赛题-预赛/第四题/OwnerBuy.sol:OwnerBuy",
						"label": "status",
						"offset": 0,
						"slot": "8",
						"type": "t_mapping(t_address,t_bool)"
					},
					{
						"astId": 165,
						"contract": "赛题-预赛/第四题/OwnerBuy.sol:OwnerBuy",
						"label": "Times",
						"offset": 0,
						"slot": "9",
						"type": "t_mapping(t_address,t_uint256)"
					},
					{
						"astId": 169,
						"contract": "赛题-预赛/第四题/OwnerBuy.sol:OwnerBuy",
						"label": "whiteList",
						"offset": 0,
						"slot": "10",
						"type": "t_mapping(t_address,t_bool)"
					},
					{
						"astId": 172,
						"contract": "赛题-预赛/第四题/OwnerBuy.sol:OwnerBuy",
						"label": "MAXHOLD",
						"offset": 0,
						"slot": "11",
						"type": "t_uint256"
					}
				],
				"types": {
					"t_address": {
						"encoding": "inplace",
						"label": "address",
						"numberOfBytes": "20"
					},
					"t_bool": {
						"encoding": "inplace",
						"label": "bool",
						"numberOfBytes": "1"
					},
					"t_mapping(t_address,t_bool)": {
						"encoding": "mapping",
						"key": "t_address",
						"label": "mapping(address => bool)",
						"numberOfBytes": "32",
						"value": "t_bool"
					},
					"t_mapping(t_address,t_mapping(t_address,t_uint256))": {
						"encoding": "mapping",
						"key": "t_address",
						"label": "mapping(address => mapping(address => uint256))",
						"numberOfBytes": "32",
						"value": "t_mapping(t_address,t_uint256)"
					},
					"t_mapping(t_address,t_uint256)": {
						"encoding": "mapping",
						"key": "t_address",
						"label": "mapping(address => uint256)",
						"numberOfBytes": "32",
						"value": "t_uint256"
					},
					"t_string_storage": {
						"encoding": "bytes",
						"label": "string",
						"numberOfBytes": "32"
					},
					"t_uint256": {
						"encoding": "inplace",
						"label": "uint256",
						"numberOfBytes": "32"
					},
					"t_uint8": {
						"encoding": "inplace",
						"label": "uint8",
						"numberOfBytes": "1"
					}
				}
			},
			"userdoc": {
				"methods": {}
			}
		}
	}
}