{
	"赛题-预赛/第八题/Masterchef.sol": {
		"MasterChef": {
			"abi": [
				{
					"inputs": [],
					"stateMutability": "nonpayable",
					"type": "constructor"
				},
				{
					"anonymous": false,
					"inputs": [
						{
							"indexed": true,
							"internalType": "address",
							"name": "owner",
							"type": "address"
						},
						{
							"indexed": true,
							"internalType": "address",
							"name": "spender",
							"type": "address"
						},
						{
							"indexed": false,
							"internalType": "uint256",
							"name": "value",
							"type": "uint256"
						}
					],
					"name": "Approval",
					"type": "event"
				},
				{
					"anonymous": false,
					"inputs": [
						{
							"indexed": true,
							"internalType": "address",
							"name": "user",
							"type": "address"
						},
						{
							"indexed": true,
							"internalType": "uint256",
							"name": "pid",
							"type": "uint256"
						},
						{
							"indexed": false,
							"internalType": "uint256",
							"name": "amount",
							"type": "uint256"
						}
					],
					"name": "Deposit",
					"type": "event"
				},
				{
					"anonymous": false,
					"inputs": [
						{
							"indexed": true,
							"internalType": "address",
							"name": "user",
							"type": "address"
						},
						{
							"indexed": true,
							"internalType": "uint256",
							"name": "pid",
							"type": "uint256"
						},
						{
							"indexed": false,
							"internalType": "uint256",
							"name": "amount",
							"type": "uint256"
						}
					],
					"name": "EmergencyWithdraw",
					"type": "event"
				},
				{
					"anonymous": false,
					"inputs": [
						{
							"indexed": true,
							"internalType": "address",
							"name": "previousOwner",
							"type": "address"
						},
						{
							"indexed": true,
							"internalType": "address",
							"name": "newOwner",
							"type": "address"
						}
					],
					"name": "OwnershipTransferred",
					"type": "event"
				},
				{
					"anonymous": false,
					"inputs": [
						{
							"indexed": true,
							"internalType": "address",
							"name": "from",
							"type": "address"
						},
						{
							"indexed": true,
							"internalType": "address",
							"name": "to",
							"type": "address"
						},
						{
							"indexed": false,
							"internalType": "uint256",
							"name": "value",
							"type": "uint256"
						}
					],
					"name": "Transfer",
					"type": "event"
				},
				{
					"anonymous": false,
					"inputs": [
						{
							"indexed": true,
							"internalType": "address",
							"name": "user",
							"type": "address"
						},
						{
							"indexed": true,
							"internalType": "uint256",
							"name": "pid",
							"type": "uint256"
						},
						{
							"indexed": false,
							"internalType": "uint256",
							"name": "amount",
							"type": "uint256"
						}
					],
					"name": "Withdraw",
					"type": "event"
				},
				{
					"inputs": [],
					"name": "_owner",
					"outputs": [
						{
							"internalType": "address",
							"name": "",
							"type": "address"
						}
					],
					"stateMutability": "view",
					"type": "function"
				},
				{
					"inputs": [],
					"name": "airdorp",
					"outputs": [],
					"stateMutability": "nonpayable",
					"type": "function"
				},
				{
					"inputs": [
						{
							"internalType": "address",
							"name": "owner",
							"type": "address"
						},
						{
							"internalType": "address",
							"name": "spender",
							"type": "address"
						}
					],
					"name": "allowance",
					"outputs": [
						{
							"internalType": "uint256",
							"name": "",
							"type": "uint256"
						}
					],
					"stateMutability": "view",
					"type": "function"
				},
				{
					"inputs": [
						{
							"internalType": "address",
							"name": "spender",
							"type": "address"
						},
						{
							"internalType": "uint256",
							"name": "amount",
							"type": "uint256"
						}
					],
					"name": "approve",
					"outputs": [
						{
							"internalType": "bool",
							"name": "",
							"type": "bool"
						}
					],
					"stateMutability": "nonpayable",
					"type": "function"
				},
				{
					"inputs": [],
					"name": "aridorplimit",
					"outputs": [
						{
							"internalType": "uint256",
							"name": "",
							"type": "uint256"
						}
					],
					"stateMutability": "view",
					"type": "function"
				},
				{
					"inputs": [
						{
							"internalType": "address",
							"name": "account",
							"type": "address"
						}
					],
					"name": "balanceOf",
					"outputs": [
						{
							"internalType": "uint256",
							"name": "",
							"type": "uint256"
						}
					],
					"stateMutability": "view",
					"type": "function"
				},
				{
					"inputs": [],
					"name": "decimals",
					"outputs": [
						{
							"internalType": "uint8",
							"name": "",
							"type": "uint8"
						}
					],
					"stateMutability": "view",
					"type": "function"
				},
				{
					"inputs": [
						{
							"internalType": "address",
							"name": "spender",
							"type": "address"
						},
						{
							"internalType": "uint256",
							"name": "subtractedValue",
							"type": "uint256"
						}
					],
					"name": "decreaseAllowance",
					"outputs": [
						{
							"internalType": "bool",
							"name": "",
							"type": "bool"
						}
					],
					"stateMutability": "nonpayable",
					"type": "function"
				},
				{
					"inputs": [
						{
							"internalType": "uint256",
							"name": "_pid",
							"type": "uint256"
						},
						{
							"internalType": "uint256",
							"name": "_amount",
							"type": "uint256"
						}
					],
					"name": "deposit",
					"outputs": [],
					"stateMutability": "nonpayable",
					"type": "function"
				},
				{
					"inputs": [
						{
							"internalType": "uint256",
							"name": "_pid",
							"type": "uint256"
						}
					],
					"name": "emergencyWithdraw",
					"outputs": [],
					"stateMutability": "nonpayable",
					"type": "function"
				},
				{
					"inputs": [
						{
							"internalType": "uint256",
							"name": "_from",
							"type": "uint256"
						},
						{
							"internalType": "uint256",
							"name": "_to",
							"type": "uint256"
						}
					],
					"name": "getMultiplier",
					"outputs": [
						{
							"internalType": "uint256",
							"name": "",
							"type": "uint256"
						}
					],
					"stateMutability": "view",
					"type": "function"
				},
				{
					"inputs": [
						{
							"internalType": "address",
							"name": "spender",
							"type": "address"
						},
						{
							"internalType": "uint256",
							"name": "addedValue",
							"type": "uint256"
						}
					],
					"name": "increaseAllowance",
					"outputs": [
						{
							"internalType": "bool",
							"name": "",
							"type": "bool"
						}
					],
					"stateMutability": "nonpayable",
					"type": "function"
				},
				{
					"inputs": [],
					"name": "massUpdatePools",
					"outputs": [],
					"stateMutability": "nonpayable",
					"type": "function"
				},
				{
					"inputs": [],
					"name": "name",
					"outputs": [
						{
							"internalType": "string",
							"name": "",
							"type": "string"
						}
					],
					"stateMutability": "view",
					"type": "function"
				},
				{
					"inputs": [],
					"name": "owner",
					"outputs": [
						{
							"internalType": "address",
							"name": "",
							"type": "address"
						}
					],
					"stateMutability": "view",
					"type": "function"
				},
				{
					"inputs": [
						{
							"internalType": "uint256",
							"name": "_pid",
							"type": "uint256"
						},
						{
							"internalType": "address",
							"name": "_user",
							"type": "address"
						}
					],
					"name": "pendingSushi",
					"outputs": [
						{
							"internalType": "uint256",
							"name": "",
							"type": "uint256"
						}
					],
					"stateMutability": "view",
					"type": "function"
				},
				{
					"inputs": [
						{
							"internalType": "uint256",
							"name": "",
							"type": "uint256"
						}
					],
					"name": "poolInfo",
					"outputs": [
						{
							"internalType": "uint256",
							"name": "allocPoint",
							"type": "uint256"
						},
						{
							"internalType": "uint256",
							"name": "lastRewardBlock",
							"type": "uint256"
						},
						{
							"internalType": "uint256",
							"name": "accSushiPerShare",
							"type": "uint256"
						},
						{
							"internalType": "uint256",
							"name": "totalstake",
							"type": "uint256"
						}
					],
					"stateMutability": "view",
					"type": "function"
				},
				{
					"inputs": [],
					"name": "poolLength",
					"outputs": [
						{
							"internalType": "uint256",
							"name": "",
							"type": "uint256"
						}
					],
					"stateMutability": "view",
					"type": "function"
				},
				{
					"inputs": [],
					"name": "renounceOwnership",
					"outputs": [],
					"stateMutability": "nonpayable",
					"type": "function"
				},
				{
					"inputs": [],
					"name": "startBlock",
					"outputs": [
						{
							"internalType": "uint256",
							"name": "",
							"type": "uint256"
						}
					],
					"stateMutability": "view",
					"type": "function"
				},
				{
					"inputs": [],
					"name": "sushiPerBlock",
					"outputs": [
						{
							"internalType": "uint256",
							"name": "",
							"type": "uint256"
						}
					],
					"stateMutability": "view",
					"type": "function"
				},
				{
					"inputs": [],
					"name": "symbol",
					"outputs": [
						{
							"internalType": "string",
							"name": "",
							"type": "string"
						}
					],
					"stateMutability": "view",
					"type": "function"
				},
				{
					"inputs": [],
					"name": "totalAllocPoint",
					"outputs": [
						{
							"internalType": "uint256",
							"name": "",
							"type": "uint256"
						}
					],
					"stateMutability": "view",
					"type": "function"
				},
				{
					"inputs": [],
					"name": "totalSupply",
					"outputs": [
						{
							"internalType": "uint256",
							"name": "",
							"type": "uint256"
						}
					],
					"stateMutability": "view",
					"type": "function"
				},
				{
					"inputs": [
						{
							"internalType": "address",
							"name": "recipient",
							"type": "address"
						},
						{
							"internalType": "uint256",
							"name": "amount",
							"type": "uint256"
						}
					],
					"name": "transfer",
					"outputs": [
						{
							"internalType": "bool",
							"name": "",
							"type": "bool"
						}
					],
					"stateMutability": "nonpayable",
					"type": "function"
				},
				{
					"inputs": [
						{
							"internalType": "address",
							"name": "sender",
							"type": "address"
						},
						{
							"internalType": "address",
							"name": "recipient",
							"type": "address"
						},
						{
							"internalType": "uint256",
							"name": "amount",
							"type": "uint256"
						}
					],
					"name": "transferFrom",
					"outputs": [
						{
							"internalType": "bool",
							"name": "",
							"type": "bool"
						}
					],
					"stateMutability": "nonpayable",
					"type": "function"
				},
				{
					"inputs": [
						{
							"internalType": "address",
							"name": "newOwner",
							"type": "address"
						}
					],
					"name": "transferOwnership",
					"outputs": [],
					"stateMutability": "nonpayable",
					"type": "function"
				},
				{
					"inputs": [
						{
							"internalType": "uint256",
							"name": "_pid",
							"type": "uint256"
						}
					],
					"name": "updatePool",
					"outputs": [],
					"stateMutability": "nonpayable",
					"type": "function"
				},
				{
					"inputs": [
						{
							"internalType": "uint256",
							"name": "",
							"type": "uint256"
						},
						{
							"internalType": "address",
							"name": "",
							"type": "address"
						}
					],
					"name": "userInfo",
					"outputs": [
						{
							"internalType": "uint256",
							"name": "amount",
							"type": "uint256"
						},
						{
							"internalType": "uint256",
							"name": "rewardDebt",
							"type": "uint256"
						}
					],
					"stateMutability": "view",
					"type": "function"
				},
				{
					"inputs": [
						{
							"internalType": "uint256",
							"name": "_pid",
							"type": "uint256"
						},
						{
							"internalType": "uint256",
							"name": "_amount",
							"type": "uint256"
						}
					],
					"name": "withdraw",
					"outputs": [],
					"stateMutability": "nonpayable",
					"type": "function"
				}
			],
			"devdoc": {
				"kind": "dev",
				"methods": {},
				"version": 1
			},
			"evm": {
				"assembly": "    /* \"赛题-预赛/第八题/Masterchef.sol\":5568:11371  contract MasterChef is Ownable, ERC20 {\r... */\n  mstore(0x40, 0x80)\n    /* \"赛题-预赛/第八题/Masterchef.sol\":6109:6110  0 */\n  0x00\n    /* \"赛题-预赛/第八题/Masterchef.sol\":6076:6110  uint256 public totalAllocPoint = 0 */\n  0x0a\n  sstore\n    /* \"赛题-预赛/第八题/Masterchef.sol\":6433:7012  constructor(\r... */\n  callvalue\n  dup1\n  iszero\n  tag_1\n  jumpi\n  0x00\n  dup1\n  revert\ntag_1:\n  pop\n    /* \"赛题-预赛/第八题/Masterchef.sol\":1643:1787  constructor (string memory name, string memory symbol) public {\r... */\n  mload(0x40)\n  dup1\n  0x40\n  add\n  0x40\n  mstore\n  dup1\n  0x04\n  dup2\n  mstore\n  0x20\n  add\n  0x7465737400000000000000000000000000000000000000000000000000000000\n  dup2\n  mstore\n  pop\n  mload(0x40)\n  dup1\n  0x40\n  add\n  0x40\n  mstore\n  dup1\n  0x04\n  dup2\n  mstore\n  0x20\n  add\n  0x7465737400000000000000000000000000000000000000000000000000000000\n  dup2\n  mstore\n  pop\n    /* \"赛题-预赛/第八题/Masterchef.sol\":516:533  address msgSender */\n  0x00\n    /* \"赛题-预赛/第八题/Masterchef.sol\":536:548  _msgSender() */\n  tag_6\n    /* \"赛题-预赛/第八题/Masterchef.sol\":536:546  _msgSender */\n  shl(0x20, tag_7)\n    /* \"赛题-预赛/第八题/Masterchef.sol\":536:548  _msgSender() */\n  0x20\n  shr\n  jump\t// in\ntag_6:\n    /* \"赛题-预赛/第八题/Masterchef.sol\":516:548  address msgSender = _msgSender() */\n  swap1\n  pop\n    /* \"赛题-预赛/第八题/Masterchef.sol\":568:577  msgSender */\n  dup1\n    /* \"赛题-预赛/第八题/Masterchef.sol\":559:565  _owner */\n  0x00\n  dup1\n    /* \"赛题-预赛/第八题/Masterchef.sol\":559:577  _owner = msgSender */\n  0x0100\n  exp\n  dup2\n  sload\n  dup2\n  0xffffffffffffffffffffffffffffffffffffffff\n  mul\n  not\n  and\n  swap1\n  dup4\n  0xffffffffffffffffffffffffffffffffffffffff\n  and\n  mul\n  or\n  swap1\n  sstore\n  pop\n    /* \"赛题-预赛/第八题/Masterchef.sol\":626:635  msgSender */\n  dup1\n    /* \"赛题-预赛/第八题/Masterchef.sol\":593:636  OwnershipTransferred(address(0), msgSender) */\n  0xffffffffffffffffffffffffffffffffffffffff\n  and\n    /* \"赛题-预赛/第八题/Masterchef.sol\":622:623  0 */\n  0x00\n    /* \"赛题-预赛/第八题/Masterchef.sol\":593:636  OwnershipTransferred(address(0), msgSender) */\n  0xffffffffffffffffffffffffffffffffffffffff\n  and\n  0x8be0079c531659141344cd1fd0a4f28419497f9722a3daafe3b4186f6b6457e0\n  mload(0x40)\n  mload(0x40)\n  dup1\n  swap2\n  sub\n  swap1\n  log3\n    /* \"赛题-预赛/第八题/Masterchef.sol\":481:644  constructor () internal {\r... */\n  pop\n    /* \"赛题-预赛/第八题/Masterchef.sol\":1724:1728  name */\n  dup2\n    /* \"赛题-预赛/第八题/Masterchef.sol\":1716:1721  _name */\n  0x04\n    /* \"赛题-预赛/第八题/Masterchef.sol\":1716:1728  _name = name */\n  swap1\n  dup1\n  mload\n  swap1\n  0x20\n  add\n  swap1\n  tag_9\n  swap3\n  swap2\n  swap1\n  tag_10\n  jump\t// in\ntag_9:\n  pop\n    /* \"赛题-预赛/第八题/Masterchef.sol\":1749:1755  symbol */\n  dup1\n    /* \"赛题-预赛/第八题/Masterchef.sol\":1739:1746  _symbol */\n  0x05\n    /* \"赛题-预赛/第八题/Masterchef.sol\":1739:1755  _symbol = symbol */\n  swap1\n  dup1\n  mload\n  swap1\n  0x20\n  add\n  swap1\n  tag_11\n  swap3\n  swap2\n  swap1\n  tag_10\n  jump\t// in\ntag_11:\n  pop\n    /* \"赛题-预赛/第八题/Masterchef.sol\":1778:1779  1 */\n  0x01\n    /* \"赛题-预赛/第八题/Masterchef.sol\":1766:1775  _decimals */\n  0x06\n  0x00\n    /* \"赛题-预赛/第八题/Masterchef.sol\":1766:1779  _decimals = 1 */\n  0x0100\n  exp\n  dup2\n  sload\n  dup2\n  0xff\n  mul\n  not\n  and\n  swap1\n  dup4\n  0xff\n  and\n  mul\n  or\n  swap1\n  sstore\n  pop\n    /* \"赛题-预赛/第八题/Masterchef.sol\":1643:1787  constructor (string memory name, string memory symbol) public {\r... */\n  pop\n  pop\n    /* \"赛题-预赛/第八题/Masterchef.sol\":6492:6521  _mint(address(this),10000000) */\n  tag_13\n    /* \"赛题-预赛/第八题/Masterchef.sol\":6506:6510  this */\n  address\n    /* \"赛题-预赛/第八题/Masterchef.sol\":6512:6520  10000000 */\n  0x989680\n    /* \"赛题-预赛/第八题/Masterchef.sol\":6492:6497  _mint */\n  shl(0x20, tag_14)\n    /* \"赛题-预赛/第八题/Masterchef.sol\":6492:6521  _mint(address(this),10000000) */\n  0x20\n  shr\n  jump\t// in\ntag_13:\n    /* \"赛题-预赛/第八题/Masterchef.sol\":6532:6559  _mint(msg.sender,100000000) */\n  tag_15\n    /* \"赛题-预赛/第八题/Masterchef.sol\":6538:6548  msg.sender */\n  caller\n    /* \"赛题-预赛/第八题/Masterchef.sol\":6549:6558  100000000 */\n  0x05f5e100\n    /* \"赛题-预赛/第八题/Masterchef.sol\":6532:6537  _mint */\n  shl(0x20, tag_14)\n    /* \"赛题-预赛/第八题/Masterchef.sol\":6532:6559  _mint(msg.sender,100000000) */\n  0x20\n  shr\n  jump\t// in\ntag_15:\n    /* \"赛题-预赛/第八题/Masterchef.sol\":6586:6587  1 */\n  0x01\n    /* \"赛题-预赛/第八题/Masterchef.sol\":6570:6583  sushiPerBlock */\n  0x07\n    /* \"赛题-预赛/第八题/Masterchef.sol\":6570:6587  sushiPerBlock = 1 */\n  dup2\n  swap1\n  sstore\n  pop\n    /* \"赛题-预赛/第八题/Masterchef.sol\":6611:6623  block.number */\n  number\n    /* \"赛题-预赛/第八题/Masterchef.sol\":6598:6608  startBlock */\n  0x0b\n    /* \"赛题-预赛/第八题/Masterchef.sol\":6598:6623  startBlock = block.number */\n  dup2\n  swap1\n  sstore\n  pop\n    /* \"赛题-预赛/第八题/Masterchef.sol\":6634:6657  uint256 lastRewardBlock */\n  0x00\n    /* \"赛题-预赛/第八题/Masterchef.sol\":6675:6685  startBlock */\n  sload(0x0b)\n    /* \"赛题-预赛/第八题/Masterchef.sol\":6660:6672  block.number */\n  number\n    /* \"赛题-预赛/第八题/Masterchef.sol\":6660:6685  block.number > startBlock */\n  gt\n    /* \"赛题-预赛/第八题/Masterchef.sol\":6660:6713  block.number > startBlock ? block.number : startBlock */\n  tag_16\n  jumpi\n    /* \"赛题-预赛/第八题/Masterchef.sol\":6703:6713  startBlock */\n  sload(0x0b)\n    /* \"赛题-预赛/第八题/Masterchef.sol\":6660:6713  block.number > startBlock ? block.number : startBlock */\n  jump(tag_17)\ntag_16:\n    /* \"赛题-预赛/第八题/Masterchef.sol\":6688:6700  block.number */\n  number\n    /* \"赛题-预赛/第八题/Masterchef.sol\":6660:6713  block.number > startBlock ? block.number : startBlock */\ntag_17:\n    /* \"赛题-预赛/第八题/Masterchef.sol\":6634:6713  uint256 lastRewardBlock = block.number > startBlock ? block.number : startBlock */\n  swap1\n  pop\n    /* \"赛题-预赛/第八题/Masterchef.sol\":6724:6743  uint256 _allocPoint */\n  0x00\n    /* \"赛题-预赛/第八题/Masterchef.sol\":6746:6749  100 */\n  0x64\n    /* \"赛题-预赛/第八题/Masterchef.sol\":6724:6749  uint256 _allocPoint = 100 */\n  swap1\n  pop\n    /* \"赛题-预赛/第八题/Masterchef.sol\":6778:6810  totalAllocPoint.add(_allocPoint) */\n  tag_18\n    /* \"赛题-预赛/第八题/Masterchef.sol\":6798:6809  _allocPoint */\n  dup2\n    /* \"赛题-预赛/第八题/Masterchef.sol\":6778:6793  totalAllocPoint */\n  sload(0x0a)\n    /* \"赛题-预赛/第八题/Masterchef.sol\":6778:6797  totalAllocPoint.add */\n  or(tag_0_124, shl(0x20, tag_19))\n  swap1\n    /* \"赛题-预赛/第八题/Masterchef.sol\":6778:6810  totalAllocPoint.add(_allocPoint) */\n  swap2\n  swap1\n  0x20\n  shr\n  jump\t// in\ntag_18:\n    /* \"赛题-预赛/第八题/Masterchef.sol\":6760:6775  totalAllocPoint */\n  0x0a\n    /* \"赛题-预赛/第八题/Masterchef.sol\":6760:6810  totalAllocPoint = totalAllocPoint.add(_allocPoint) */\n  dup2\n  swap1\n  sstore\n  pop\n    /* \"赛题-预赛/第八题/Masterchef.sol\":6821:6829  poolInfo */\n  0x08\n    /* \"赛题-预赛/第八题/Masterchef.sol\":6835:7003  PoolInfo({\r... */\n  mload(0x40)\n  dup1\n  0x80\n  add\n  0x40\n  mstore\n  dup1\n    /* \"赛题-预赛/第八题/Masterchef.sol\":6871:6882  _allocPoint */\n  dup4\n    /* \"赛题-预赛/第八题/Masterchef.sol\":6835:7003  PoolInfo({\r... */\n  dup2\n  mstore\n  0x20\n  add\n    /* \"赛题-预赛/第八题/Masterchef.sol\":6914:6929  lastRewardBlock */\n  dup5\n    /* \"赛题-预赛/第八题/Masterchef.sol\":6835:7003  PoolInfo({\r... */\n  dup2\n  mstore\n  0x20\n  add\n    /* \"赛题-预赛/第八题/Masterchef.sol\":6962:6963  0 */\n  0x00\n    /* \"赛题-预赛/第八题/Masterchef.sol\":6835:7003  PoolInfo({\r... */\n  dup2\n  mstore\n  0x20\n  add\n    /* \"赛题-预赛/第八题/Masterchef.sol\":6990:6991  0 */\n  0x00\n    /* \"赛题-预赛/第八题/Masterchef.sol\":6835:7003  PoolInfo({\r... */\n  dup2\n  mstore\n  pop\n    /* \"赛题-预赛/第八题/Masterchef.sol\":6821:7004  poolInfo.push(PoolInfo({\r... */\n  swap1\n  dup1\n  0x01\n  dup2\n  sload\n  add\n  dup1\n  dup3\n  sstore\n  dup1\n  swap2\n  pop\n  pop\n  0x01\n  swap1\n  sub\n  swap1\n  0x00\n  mstore\n  keccak256(0x00, 0x20)\n  swap1\n  0x04\n  mul\n  add\n  0x00\n  swap1\n  swap2\n  swap1\n  swap2\n  swap1\n  swap2\n  pop\n  0x00\n  dup3\n  add\n  mload\n  dup2\n  0x00\n  add\n  sstore\n  0x20\n  dup3\n  add\n  mload\n  dup2\n  0x01\n  add\n  sstore\n  0x40\n  dup3\n  add\n  mload\n  dup2\n  0x02\n  add\n  sstore\n  0x60\n  dup3\n  add\n  mload\n  dup2\n  0x03\n  add\n  sstore\n  pop\n  pop\n    /* \"赛题-预赛/第八题/Masterchef.sol\":6433:7012  constructor(\r... */\n  pop\n  pop\n    /* \"赛题-预赛/第八题/Masterchef.sol\":5568:11371  contract MasterChef is Ownable, ERC20 {\r... */\n  jump(tag_21)\n    /* \"赛题-预赛/第八题/Masterchef.sol\":89:195  function _msgSender() internal view virtual returns (address payable) {\r... */\ntag_7:\n    /* \"赛题-预赛/第八题/Masterchef.sol\":142:157  address payable */\n  0x00\n    /* \"赛题-预赛/第八题/Masterchef.sol\":177:187  msg.sender */\n  caller\n    /* \"赛题-预赛/第八题/Masterchef.sol\":170:187  return msg.sender */\n  swap1\n  pop\n    /* \"赛题-预赛/第八题/Masterchef.sol\":89:195  function _msgSender() internal view virtual returns (address payable) {\r... */\n  swap1\n  jump\t// out\n    /* \"赛题-预赛/第八题/Masterchef.sol\":4205:4583  function _mint(address account, uint256 amount) internal virtual {\r... */\ntag_14:\n    /* \"赛题-预赛/第八题/Masterchef.sol\":4308:4309  0 */\n  0x00\n    /* \"赛题-预赛/第八题/Masterchef.sol\":4289:4310  account != address(0) */\n  0xffffffffffffffffffffffffffffffffffffffff\n  and\n    /* \"赛题-预赛/第八题/Masterchef.sol\":4289:4296  account */\n  dup3\n    /* \"赛题-预赛/第八题/Masterchef.sol\":4289:4310  account != address(0) */\n  0xffffffffffffffffffffffffffffffffffffffff\n  and\n  eq\n  iszero\n    /* \"赛题-预赛/第八题/Masterchef.sol\":4281:4346  require(account != address(0), \"ERC20: mint to the zero address\") */\n  tag_24\n  jumpi\n  mload(0x40)\n  0x08c379a000000000000000000000000000000000000000000000000000000000\n  dup2\n  mstore\n  0x04\n  add\n  dup1\n  dup1\n  0x20\n  add\n  dup3\n  dup2\n  sub\n  dup3\n  mstore\n  0x1f\n  dup2\n  mstore\n  0x20\n  add\n  dup1\n  0x45524332303a206d696e7420746f20746865207a65726f206164647265737300\n  dup2\n  mstore\n  pop\n  0x20\n  add\n  swap2\n  pop\n  pop\n  mload(0x40)\n  dup1\n  swap2\n  sub\n  swap1\n  revert\ntag_24:\n    /* \"赛题-预赛/第八题/Masterchef.sol\":4359:4408  _beforeTokenTransfer(address(0), account, amount) */\n  tag_25\n    /* \"赛题-预赛/第八题/Masterchef.sol\":4388:4389  0 */\n  0x00\n    /* \"赛题-预赛/第八题/Masterchef.sol\":4392:4399  account */\n  dup4\n    /* \"赛题-预赛/第八题/Masterchef.sol\":4401:4407  amount */\n  dup4\n    /* \"赛题-预赛/第八题/Masterchef.sol\":4359:4379  _beforeTokenTransfer */\n  shl(0x20, tag_26)\n    /* \"赛题-预赛/第八题/Masterchef.sol\":4359:4408  _beforeTokenTransfer(address(0), account, amount) */\n  0x20\n  shr\n  jump\t// in\ntag_25:\n    /* \"赛题-预赛/第八题/Masterchef.sol\":4436:4460  _totalSupply.add(amount) */\n  tag_27\n    /* \"赛题-预赛/第八题/Masterchef.sol\":4453:4459  amount */\n  dup2\n    /* \"赛题-预赛/第八题/Masterchef.sol\":4436:4448  _totalSupply */\n  sload(0x03)\n    /* \"赛题-预赛/第八题/Masterchef.sol\":4436:4452  _totalSupply.add */\n  or(tag_0_124, shl(0x20, tag_19))\n  swap1\n    /* \"赛题-预赛/第八题/Masterchef.sol\":4436:4460  _totalSupply.add(amount) */\n  swap2\n  swap1\n  0x20\n  shr\n  jump\t// in\ntag_27:\n    /* \"赛题-预赛/第八题/Masterchef.sol\":4421:4433  _totalSupply */\n  0x03\n    /* \"赛题-预赛/第八题/Masterchef.sol\":4421:4460  _totalSupply = _totalSupply.add(amount) */\n  dup2\n  swap1\n  sstore\n  pop\n    /* \"赛题-预赛/第八题/Masterchef.sol\":4492:4522  _balances[account].add(amount) */\n  tag_28\n    /* \"赛题-预赛/第八题/Masterchef.sol\":4515:4521  amount */\n  dup2\n    /* \"赛题-预赛/第八题/Masterchef.sol\":4492:4501  _balances */\n  0x01\n    /* \"赛题-预赛/第八题/Masterchef.sol\":4492:4510  _balances[account] */\n  0x00\n    /* \"赛题-预赛/第八题/Masterchef.sol\":4502:4509  account */\n  dup6\n    /* \"赛题-预赛/第八题/Masterchef.sol\":4492:4510  _balances[account] */\n  0xffffffffffffffffffffffffffffffffffffffff\n  and\n  0xffffffffffffffffffffffffffffffffffffffff\n  and\n  dup2\n  mstore\n  0x20\n  add\n  swap1\n  dup2\n  mstore\n  0x20\n  add\n  0x00\n  keccak256\n  sload\n    /* \"赛题-预赛/第八题/Masterchef.sol\":4492:4514  _balances[account].add */\n  or(tag_0_124, shl(0x20, tag_19))\n  swap1\n    /* \"赛题-预赛/第八题/Masterchef.sol\":4492:4522  _balances[account].add(amount) */\n  swap2\n  swap1\n  0x20\n  shr\n  jump\t// in\ntag_28:\n    /* \"赛题-预赛/第八题/Masterchef.sol\":4471:4480  _balances */\n  0x01\n    /* \"赛题-预赛/第八题/Masterchef.sol\":4471:4489  _balances[account] */\n  0x00\n    /* \"赛题-预赛/第八题/Masterchef.sol\":4481:4488  account */\n  dup5\n    /* \"赛题-预赛/第八题/Masterchef.sol\":4471:4489  _balances[account] */\n  0xffffffffffffffffffffffffffffffffffffffff\n  and\n  0xffffffffffffffffffffffffffffffffffffffff\n  and\n  dup2\n  mstore\n  0x20\n  add\n  swap1\n  dup2\n  mstore\n  0x20\n  add\n  0x00\n  keccak256\n    /* \"赛题-预赛/第八题/Masterchef.sol\":4471:4522  _balances[account] = _balances[account].add(amount) */\n  dup2\n  swap1\n  sstore\n  pop\n    /* \"赛题-预赛/第八题/Masterchef.sol\":4559:4566  account */\n  dup2\n    /* \"赛题-预赛/第八题/Masterchef.sol\":4538:4575  Transfer(address(0), account, amount) */\n  0xffffffffffffffffffffffffffffffffffffffff\n  and\n    /* \"赛题-预赛/第八题/Masterchef.sol\":4555:4556  0 */\n  0x00\n    /* \"赛题-预赛/第八题/Masterchef.sol\":4538:4575  Transfer(address(0), account, amount) */\n  0xffffffffffffffffffffffffffffffffffffffff\n  and\n  0xddf252ad1be2c89b69c2b068fc378daa952ba7f163c4a11628f55a4df523b3ef\n    /* \"赛题-预赛/第八题/Masterchef.sol\":4568:4574  amount */\n  dup4\n    /* \"赛题-预赛/第八题/Masterchef.sol\":4538:4575  Transfer(address(0), account, amount) */\n  mload(0x40)\n  dup1\n  dup3\n  dup2\n  mstore\n  0x20\n  add\n  swap2\n  pop\n  pop\n  mload(0x40)\n  dup1\n  swap2\n  sub\n  swap1\n  log3\n    /* \"赛题-预赛/第八题/Masterchef.sol\":4205:4583  function _mint(address account, uint256 amount) internal virtual {\r... */\n  pop\n  pop\n  jump\t// out\n    /* \"赛题-预赛/第八题/interface.sol\":742:923  function add(uint256 a, uint256 b) internal pure returns (uint256) {\r... */\ntag_19:\n    /* \"赛题-预赛/第八题/interface.sol\":800:807  uint256 */\n  0x00\n    /* \"赛题-预赛/第八题/interface.sol\":820:829  uint256 c */\n  dup1\n    /* \"赛题-预赛/第八题/interface.sol\":836:837  b */\n  dup3\n    /* \"赛题-预赛/第八题/interface.sol\":832:833  a */\n  dup5\n    /* \"赛题-预赛/第八题/interface.sol\":832:837  a + b */\n  add\n    /* \"赛题-预赛/第八题/interface.sol\":820:837  uint256 c = a + b */\n  swap1\n  pop\n    /* \"赛题-预赛/第八题/interface.sol\":861:862  a */\n  dup4\n    /* \"赛题-预赛/第八题/interface.sol\":856:857  c */\n  dup2\n    /* \"赛题-预赛/第八题/interface.sol\":856:862  c >= a */\n  lt\n  iszero\n    /* \"赛题-预赛/第八题/interface.sol\":848:894  require(c >= a, \"SafeMath: addition overflow\") */\n  tag_30\n  jumpi\n  mload(0x40)\n  0x08c379a000000000000000000000000000000000000000000000000000000000\n  dup2\n  mstore\n  0x04\n  add\n  dup1\n  dup1\n  0x20\n  add\n  dup3\n  dup2\n  sub\n  dup3\n  mstore\n  0x1b\n  dup2\n  mstore\n  0x20\n  add\n  dup1\n  0x536166654d6174683a206164646974696f6e206f766572666c6f770000000000\n  dup2\n  mstore\n  pop\n  0x20\n  add\n  swap2\n  pop\n  pop\n  mload(0x40)\n  dup1\n  swap2\n  sub\n  swap1\n  revert\ntag_30:\n    /* \"赛题-预赛/第八题/interface.sol\":914:915  c */\n  dup1\n    /* \"赛题-预赛/第八题/interface.sol\":907:915  return c */\n  swap2\n  pop\n  pop\n    /* \"赛题-预赛/第八题/interface.sol\":742:923  function add(uint256 a, uint256 b) internal pure returns (uint256) {\r... */\n  swap3\n  swap2\n  pop\n  pop\n  jump\t// out\n    /* \"赛题-预赛/第八题/Masterchef.sol\":5469:5561  function _beforeTokenTransfer(address from, address to, uint256 amount) internal virtual { } */\ntag_26:\n  pop\n  pop\n  pop\n  jump\t// out\n    /* \"赛题-预赛/第八题/Masterchef.sol\":5568:11371  contract MasterChef is Ownable, ERC20 {\r... */\ntag_10:\n  dup3\n  dup1\n  sload\n  0x01\n  dup2\n  0x01\n  and\n  iszero\n  0x0100\n  mul\n  sub\n  and\n  0x02\n  swap1\n  div\n  swap1\n  0x00\n  mstore\n  keccak256(0x00, 0x20)\n  swap1\n  0x1f\n  add\n  0x20\n  swap1\n  div\n  dup2\n  add\n  swap3\n  dup3\n  0x1f\n  lt\n  tag_33\n  jumpi\n  dup1\n  mload\n  not(0xff)\n  and\n  dup4\n  dup1\n  add\n  or\n  dup6\n  sstore\n  jump(tag_32)\ntag_33:\n  dup3\n  dup1\n  add\n  0x01\n  add\n  dup6\n  sstore\n  dup3\n  iszero\n  tag_32\n  jumpi\n  swap2\n  dup3\n  add\ntag_34:\n  dup3\n  dup2\n  gt\n  iszero\n  tag_35\n  jumpi\n  dup3\n  mload\n  dup3\n  sstore\n  swap2\n  0x20\n  add\n  swap2\n  swap1\n  0x01\n  add\n  swap1\n  jump(tag_34)\ntag_35:\ntag_32:\n  pop\n  swap1\n  pop\n  tag_36\n  swap2\n  swap1\n  tag_37\n  jump\t// in\ntag_36:\n  pop\n  swap1\n  jump\t// out\ntag_37:\ntag_38:\n  dup1\n  dup3\n  gt\n  iszero\n  tag_39\n  jumpi\n  0x00\n  dup2\n  0x00\n  swap1\n  sstore\n  pop\n  0x01\n  add\n  jump(tag_38)\ntag_39:\n  pop\n  swap1\n  jump\t// out\ntag_21:\n  dataSize(sub_0)\n  dup1\n  dataOffset(sub_0)\n  0x00\n  codecopy\n  0x00\n  return\nstop\n\nsub_0: assembly {\n        /* \"赛题-预赛/第八题/Masterchef.sol\":5568:11371  contract MasterChef is Ownable, ERC20 {\r... */\n      mstore(0x40, 0x80)\n      callvalue\n      dup1\n      iszero\n      tag_1\n      jumpi\n      0x00\n      dup1\n      revert\n    tag_1:\n      pop\n      jumpi(tag_2, lt(calldatasize, 0x04))\n      shr(0xe0, calldataload(0x00))\n      dup1\n      0x630b5ba1\n      gt\n      tag_33\n      jumpi\n      dup1\n      0xa457c2d7\n      gt\n      tag_34\n      jumpi\n      dup1\n      0xb9c661b9\n      gt\n      tag_35\n      jumpi\n      dup1\n      0xb9c661b9\n      eq\n      tag_29\n      jumpi\n      dup1\n      0xdd62ed3e\n      eq\n      tag_30\n      jumpi\n      dup1\n      0xe2bbb158\n      eq\n      tag_31\n      jumpi\n      dup1\n      0xf2fde38b\n      eq\n      tag_32\n      jumpi\n      jump(tag_2)\n    tag_35:\n      dup1\n      0xa457c2d7\n      eq\n      tag_25\n      jumpi\n      dup1\n      0xa9059cbb\n      eq\n      tag_26\n      jumpi\n      dup1\n      0xb0bcf42a\n      eq\n      tag_27\n      jumpi\n      dup1\n      0xb2bdfa7b\n      eq\n      tag_28\n      jumpi\n      jump(tag_2)\n    tag_34:\n      dup1\n      0x8da5cb5b\n      gt\n      tag_36\n      jumpi\n      dup1\n      0x8da5cb5b\n      eq\n      tag_21\n      jumpi\n      dup1\n      0x8dbb1e3a\n      eq\n      tag_22\n      jumpi\n      dup1\n      0x93f1a40b\n      eq\n      tag_23\n      jumpi\n      dup1\n      0x95d89b41\n      eq\n      tag_24\n      jumpi\n      jump(tag_2)\n    tag_36:\n      dup1\n      0x630b5ba1\n      eq\n      tag_18\n      jumpi\n      dup1\n      0x70a08231\n      eq\n      tag_19\n      jumpi\n      dup1\n      0x715018a6\n      eq\n      tag_20\n      jumpi\n      jump(tag_2)\n    tag_33:\n      dup1\n      0x195426ec\n      gt\n      tag_37\n      jumpi\n      dup1\n      0x441a3e70\n      gt\n      tag_38\n      jumpi\n      dup1\n      0x441a3e70\n      eq\n      tag_14\n      jumpi\n      dup1\n      0x48cd4cb1\n      eq\n      tag_15\n      jumpi\n      dup1\n      0x51eb05a6\n      eq\n      tag_16\n      jumpi\n      dup1\n      0x5312ea8e\n      eq\n      tag_17\n      jumpi\n      jump(tag_2)\n    tag_38:\n      dup1\n      0x195426ec\n      eq\n      tag_10\n      jumpi\n      dup1\n      0x23b872dd\n      eq\n      tag_11\n      jumpi\n      dup1\n      0x313ce567\n      eq\n      tag_12\n      jumpi\n      dup1\n      0x39509351\n      eq\n      tag_13\n      jumpi\n      jump(tag_2)\n    tag_37:\n      dup1\n      0x095ea7b3\n      gt\n      tag_39\n      jumpi\n      dup1\n      0x095ea7b3\n      eq\n      tag_6\n      jumpi\n      dup1\n      0x1526fe27\n      eq\n      tag_7\n      jumpi\n      dup1\n      0x17caf6f1\n      eq\n      tag_8\n      jumpi\n      dup1\n      0x18160ddd\n      eq\n      tag_9\n      jumpi\n      jump(tag_2)\n    tag_39:\n      dup1\n      0x035ff6a5\n      eq\n      tag_3\n      jumpi\n      dup1\n      0x06fdde03\n      eq\n      tag_4\n      jumpi\n      dup1\n      0x081e3eda\n      eq\n      tag_5\n      jumpi\n    tag_2:\n      0x00\n      dup1\n      revert\n        /* \"赛题-预赛/第八题/Masterchef.sol\":6149:6176  uint256 public aridorplimit */\n    tag_3:\n      tag_40\n      tag_41\n      jump\t// in\n    tag_40:\n      mload(0x40)\n      dup1\n      dup3\n      dup2\n      mstore\n      0x20\n      add\n      swap2\n      pop\n      pop\n      mload(0x40)\n      dup1\n      swap2\n      sub\n      swap1\n      return\n        /* \"赛题-预赛/第八题/Masterchef.sol\":1795:1878  function name() public view returns (string memory) {\r... */\n    tag_4:\n      tag_42\n      tag_43\n      jump\t// in\n    tag_42:\n      mload(0x40)\n      dup1\n      dup1\n      0x20\n      add\n      dup3\n      dup2\n      sub\n      dup3\n      mstore\n      dup4\n      dup2\n      dup2\n      mload\n      dup2\n      mstore\n      0x20\n      add\n      swap2\n      pop\n      dup1\n      mload\n      swap1\n      0x20\n      add\n      swap1\n      dup1\n      dup4\n      dup4\n      0x00\n    tag_44:\n      dup4\n      dup2\n      lt\n      iszero\n      tag_46\n      jumpi\n      dup1\n      dup3\n      add\n      mload\n      dup2\n      dup5\n      add\n      mstore\n      0x20\n      dup2\n      add\n      swap1\n      pop\n      jump(tag_44)\n    tag_46:\n      pop\n      pop\n      pop\n      pop\n      swap1\n      pop\n      swap1\n      dup2\n      add\n      swap1\n      0x1f\n      and\n      dup1\n      iszero\n      tag_47\n      jumpi\n      dup1\n      dup3\n      sub\n      dup1\n      mload\n      0x01\n      dup4\n      0x20\n      sub\n      0x0100\n      exp\n      sub\n      not\n      and\n      dup2\n      mstore\n      0x20\n      add\n      swap2\n      pop\n    tag_47:\n      pop\n      swap3\n      pop\n      pop\n      pop\n      mload(0x40)\n      dup1\n      swap2\n      sub\n      swap1\n      return\n        /* \"赛题-预赛/第八题/Masterchef.sol\":7468:7563  function poolLength() external view returns (uint256) {\r... */\n    tag_5:\n      tag_48\n      tag_49\n      jump\t// in\n    tag_48:\n      mload(0x40)\n      dup1\n      dup3\n      dup2\n      mstore\n      0x20\n      add\n      swap2\n      pop\n      pop\n      mload(0x40)\n      dup1\n      swap2\n      sub\n      swap1\n      return\n        /* \"赛题-预赛/第八题/Masterchef.sol\":2649:2818  function approve(address spender, uint256 amount) public virtual override returns (bool) {\r... */\n    tag_6:\n      tag_50\n      0x04\n      dup1\n      calldatasize\n      sub\n      0x40\n      dup2\n      lt\n      iszero\n      tag_51\n      jumpi\n      0x00\n      dup1\n      revert\n    tag_51:\n      dup2\n      add\n      swap1\n      dup1\n      dup1\n      calldataload\n      0xffffffffffffffffffffffffffffffffffffffff\n      and\n      swap1\n      0x20\n      add\n      swap1\n      swap3\n      swap2\n      swap1\n      dup1\n      calldataload\n      swap1\n      0x20\n      add\n      swap1\n      swap3\n      swap2\n      swap1\n      pop\n      pop\n      pop\n      tag_52\n      jump\t// in\n    tag_50:\n      mload(0x40)\n      dup1\n      dup3\n      iszero\n      iszero\n      dup2\n      mstore\n      0x20\n      add\n      swap2\n      pop\n      pop\n      mload(0x40)\n      dup1\n      swap2\n      sub\n      swap1\n      return\n        /* \"赛题-预赛/第八题/Masterchef.sol\":5970:5996  PoolInfo[] public poolInfo */\n    tag_7:\n      tag_53\n      0x04\n      dup1\n      calldatasize\n      sub\n      0x20\n      dup2\n      lt\n      iszero\n      tag_54\n      jumpi\n      0x00\n      dup1\n      revert\n    tag_54:\n      dup2\n      add\n      swap1\n      dup1\n      dup1\n      calldataload\n      swap1\n      0x20\n      add\n      swap1\n      swap3\n      swap2\n      swap1\n      pop\n      pop\n      pop\n      tag_55\n      jump\t// in\n    tag_53:\n      mload(0x40)\n      dup1\n      dup6\n      dup2\n      mstore\n      0x20\n      add\n      dup5\n      dup2\n      mstore\n      0x20\n      add\n      dup4\n      dup2\n      mstore\n      0x20\n      add\n      dup3\n      dup2\n      mstore\n      0x20\n      add\n      swap5\n      pop\n      pop\n      pop\n      pop\n      pop\n      mload(0x40)\n      dup1\n      swap2\n      sub\n      swap1\n      return\n        /* \"赛题-预赛/第八题/Masterchef.sol\":6076:6110  uint256 public totalAllocPoint = 0 */\n    tag_8:\n      tag_56\n      tag_57\n      jump\t// in\n    tag_56:\n      mload(0x40)\n      dup1\n      dup3\n      dup2\n      mstore\n      0x20\n      add\n      swap2\n      pop\n      pop\n      mload(0x40)\n      dup1\n      swap2\n      sub\n      swap1\n      return\n        /* \"赛题-预赛/第八题/Masterchef.sol\":2072:2172  function totalSupply() public view override returns (uint256) {\r... */\n    tag_9:\n      tag_58\n      tag_59\n      jump\t// in\n    tag_58:\n      mload(0x40)\n      dup1\n      dup3\n      dup2\n      mstore\n      0x20\n      add\n      swap2\n      pop\n      pop\n      mload(0x40)\n      dup1\n      swap2\n      sub\n      swap1\n      return\n        /* \"赛题-预赛/第八题/Masterchef.sol\":7698:8444  function pendingSushi(uint256 _pid, address _user) external view returns (uint256) {\r... */\n    tag_10:\n      tag_60\n      0x04\n      dup1\n      calldatasize\n      sub\n      0x40\n      dup2\n      lt\n      iszero\n      tag_61\n      jumpi\n      0x00\n      dup1\n      revert\n    tag_61:\n      dup2\n      add\n      swap1\n      dup1\n      dup1\n      calldataload\n      swap1\n      0x20\n      add\n      swap1\n      swap3\n      swap2\n      swap1\n      dup1\n      calldataload\n      0xffffffffffffffffffffffffffffffffffffffff\n      and\n      swap1\n      0x20\n      add\n      swap1\n      swap3\n      swap2\n      swap1\n      pop\n      pop\n      pop\n      tag_62\n      jump\t// in\n    tag_60:\n      mload(0x40)\n      dup1\n      dup3\n      dup2\n      mstore\n      0x20\n      add\n      swap2\n      pop\n      pop\n      mload(0x40)\n      dup1\n      swap2\n      sub\n      swap1\n      return\n        /* \"赛题-预赛/第八题/Masterchef.sol\":2826:3147  function transferFrom(address sender, address recipient, uint256 amount) public virtual override returns (bool) {\r... */\n    tag_11:\n      tag_63\n      0x04\n      dup1\n      calldatasize\n      sub\n      0x60\n      dup2\n      lt\n      iszero\n      tag_64\n      jumpi\n      0x00\n      dup1\n      revert\n    tag_64:\n      dup2\n      add\n      swap1\n      dup1\n      dup1\n      calldataload\n      0xffffffffffffffffffffffffffffffffffffffff\n      and\n      swap1\n      0x20\n      add\n      swap1\n      swap3\n      swap2\n      swap1\n      dup1\n      calldataload\n      0xffffffffffffffffffffffffffffffffffffffff\n      and\n      swap1\n      0x20\n      add\n      swap1\n      swap3\n      swap2\n      swap1\n      dup1\n      calldataload\n      swap1\n      0x20\n      add\n      swap1\n      swap3\n      swap2\n      swap1\n      pop\n      pop\n      pop\n      tag_65\n      jump\t// in\n    tag_63:\n      mload(0x40)\n      dup1\n      dup3\n      iszero\n      iszero\n      dup2\n      mstore\n      0x20\n      add\n      swap2\n      pop\n      pop\n      mload(0x40)\n      dup1\n      swap2\n      sub\n      swap1\n      return\n        /* \"赛题-预赛/第八题/Masterchef.sol\":1981:2064  function decimals() public view returns (uint8) {\r... */\n    tag_12:\n      tag_66\n      tag_67\n      jump\t// in\n    tag_66:\n      mload(0x40)\n      dup1\n      dup3\n      0xff\n      and\n      dup2\n      mstore\n      0x20\n      add\n      swap2\n      pop\n      pop\n      mload(0x40)\n      dup1\n      swap2\n      sub\n      swap1\n      return\n        /* \"赛题-预赛/第八题/Masterchef.sol\":3155:3373  function increaseAllowance(address spender, uint256 addedValue) public virtual returns (bool) {\r... */\n    tag_13:\n      tag_68\n      0x04\n      dup1\n      calldatasize\n      sub\n      0x40\n      dup2\n      lt\n      iszero\n      tag_69\n      jumpi\n      0x00\n      dup1\n      revert\n    tag_69:\n      dup2\n      add\n      swap1\n      dup1\n      dup1\n      calldataload\n      0xffffffffffffffffffffffffffffffffffffffff\n      and\n      swap1\n      0x20\n      add\n      swap1\n      swap3\n      swap2\n      swap1\n      dup1\n      calldataload\n      swap1\n      0x20\n      add\n      swap1\n      swap3\n      swap2\n      swap1\n      pop\n      pop\n      pop\n      tag_70\n      jump\t// in\n    tag_68:\n      mload(0x40)\n      dup1\n      dup3\n      iszero\n      iszero\n      dup2\n      mstore\n      0x20\n      add\n      swap2\n      pop\n      pop\n      mload(0x40)\n      dup1\n      swap2\n      sub\n      swap1\n      return\n        /* \"赛题-预赛/第八题/Masterchef.sol\":10007:10688  function withdraw(uint256 _pid, uint256 _amount) public {\r... */\n    tag_14:\n      tag_71\n      0x04\n      dup1\n      calldatasize\n      sub\n      0x40\n      dup2\n      lt\n      iszero\n      tag_72\n      jumpi\n      0x00\n      dup1\n      revert\n    tag_72:\n      dup2\n      add\n      swap1\n      dup1\n      dup1\n      calldataload\n      swap1\n      0x20\n      add\n      swap1\n      swap3\n      swap2\n      swap1\n      dup1\n      calldataload\n      swap1\n      0x20\n      add\n      swap1\n      swap3\n      swap2\n      swap1\n      pop\n      pop\n      pop\n      tag_73\n      jump\t// in\n    tag_71:\n      stop\n        /* \"赛题-预赛/第八题/Masterchef.sol\":6117:6142  uint256 public startBlock */\n    tag_15:\n      tag_74\n      tag_75\n      jump\t// in\n    tag_74:\n      mload(0x40)\n      dup1\n      dup3\n      dup2\n      mstore\n      0x20\n      add\n      swap2\n      pop\n      pop\n      mload(0x40)\n      dup1\n      swap2\n      sub\n      swap1\n      return\n        /* \"赛题-预赛/第八题/Masterchef.sol\":8638:9306  function updatePool(uint256 _pid) public {\r... */\n    tag_16:\n      tag_76\n      0x04\n      dup1\n      calldatasize\n      sub\n      0x20\n      dup2\n      lt\n      iszero\n      tag_77\n      jumpi\n      0x00\n      dup1\n      revert\n    tag_77:\n      dup2\n      add\n      swap1\n      dup1\n      dup1\n      calldataload\n      swap1\n      0x20\n      add\n      swap1\n      swap3\n      swap2\n      swap1\n      pop\n      pop\n      pop\n      tag_78\n      jump\t// in\n    tag_76:\n      stop\n        /* \"赛题-预赛/第八题/Masterchef.sol\":10696:11080  function emergencyWithdraw(uint256 _pid) public {\r... */\n    tag_17:\n      tag_79\n      0x04\n      dup1\n      calldatasize\n      sub\n      0x20\n      dup2\n      lt\n      iszero\n      tag_80\n      jumpi\n      0x00\n      dup1\n      revert\n    tag_80:\n      dup2\n      add\n      swap1\n      dup1\n      dup1\n      calldataload\n      swap1\n      0x20\n      add\n      swap1\n      swap3\n      swap2\n      swap1\n      pop\n      pop\n      pop\n      tag_81\n      jump\t// in\n    tag_79:\n      stop\n        /* \"赛题-预赛/第八题/Masterchef.sol\":8450:8630  function massUpdatePools() public {\r... */\n    tag_18:\n      tag_82\n      tag_83\n      jump\t// in\n    tag_82:\n      stop\n        /* \"赛题-预赛/第八题/Masterchef.sol\":2180:2299  function balanceOf(address account) public view override returns (uint256) {\r... */\n    tag_19:\n      tag_84\n      0x04\n      dup1\n      calldatasize\n      sub\n      0x20\n      dup2\n      lt\n      iszero\n      tag_85\n      jumpi\n      0x00\n      dup1\n      revert\n    tag_85:\n      dup2\n      add\n      swap1\n      dup1\n      dup1\n      calldataload\n      0xffffffffffffffffffffffffffffffffffffffff\n      and\n      swap1\n      0x20\n      add\n      swap1\n      swap3\n      swap2\n      swap1\n      pop\n      pop\n      pop\n      tag_86\n      jump\t// in\n    tag_84:\n      mload(0x40)\n      dup1\n      dup3\n      dup2\n      mstore\n      0x20\n      add\n      swap2\n      pop\n      pop\n      mload(0x40)\n      dup1\n      swap2\n      sub\n      swap1\n      return\n        /* \"赛题-预赛/第八题/Masterchef.sol\":866:1014  function renounceOwnership() public virtual onlyOwner {\r... */\n    tag_20:\n      tag_87\n      tag_88\n      jump\t// in\n    tag_87:\n      stop\n        /* \"赛题-预赛/第八题/Masterchef.sol\":652:731  function owner() public view returns (address) {\r... */\n    tag_21:\n      tag_89\n      tag_90\n      jump\t// in\n    tag_89:\n      mload(0x40)\n      dup1\n      dup3\n      0xffffffffffffffffffffffffffffffffffffffff\n      and\n      dup2\n      mstore\n      0x20\n      add\n      swap2\n      pop\n      pop\n      mload(0x40)\n      dup1\n      swap2\n      sub\n      swap1\n      return\n        /* \"赛题-预赛/第八题/Masterchef.sol\":7569:7690  function getMultiplier(uint256 _from, uint256 _to) public view returns (uint256) {\r... */\n    tag_22:\n      tag_91\n      0x04\n      dup1\n      calldatasize\n      sub\n      0x40\n      dup2\n      lt\n      iszero\n      tag_92\n      jumpi\n      0x00\n      dup1\n      revert\n    tag_92:\n      dup2\n      add\n      swap1\n      dup1\n      dup1\n      calldataload\n      swap1\n      0x20\n      add\n      swap1\n      swap3\n      swap2\n      swap1\n      dup1\n      calldataload\n      swap1\n      0x20\n      add\n      swap1\n      swap3\n      swap2\n      swap1\n      pop\n      pop\n      pop\n      tag_93\n      jump\t// in\n    tag_91:\n      mload(0x40)\n      dup1\n      dup3\n      dup2\n      mstore\n      0x20\n      add\n      swap2\n      pop\n      pop\n      mload(0x40)\n      dup1\n      swap2\n      sub\n      swap1\n      return\n        /* \"赛题-预赛/第八题/Masterchef.sol\":6003:6069  mapping (uint256 => mapping (address => UserInfo)) public userInfo */\n    tag_23:\n      tag_94\n      0x04\n      dup1\n      calldatasize\n      sub\n      0x40\n      dup2\n      lt\n      iszero\n      tag_95\n      jumpi\n      0x00\n      dup1\n      revert\n    tag_95:\n      dup2\n      add\n      swap1\n      dup1\n      dup1\n      calldataload\n      swap1\n      0x20\n      add\n      swap1\n      swap3\n      swap2\n      swap1\n      dup1\n      calldataload\n      0xffffffffffffffffffffffffffffffffffffffff\n      and\n      swap1\n      0x20\n      add\n      swap1\n      swap3\n      swap2\n      swap1\n      pop\n      pop\n      pop\n      tag_96\n      jump\t// in\n    tag_94:\n      mload(0x40)\n      dup1\n      dup4\n      dup2\n      mstore\n      0x20\n      add\n      dup3\n      dup2\n      mstore\n      0x20\n      add\n      swap3\n      pop\n      pop\n      pop\n      mload(0x40)\n      dup1\n      swap2\n      sub\n      swap1\n      return\n        /* \"赛题-预赛/第八题/Masterchef.sol\":1886:1973  function symbol() public view returns (string memory) {\r... */\n    tag_24:\n      tag_97\n      tag_98\n      jump\t// in\n    tag_97:\n      mload(0x40)\n      dup1\n      dup1\n      0x20\n      add\n      dup3\n      dup2\n      sub\n      dup3\n      mstore\n      dup4\n      dup2\n      dup2\n      mload\n      dup2\n      mstore\n      0x20\n      add\n      swap2\n      pop\n      dup1\n      mload\n      swap1\n      0x20\n      add\n      swap1\n      dup1\n      dup4\n      dup4\n      0x00\n    tag_99:\n      dup4\n      dup2\n      lt\n      iszero\n      tag_101\n      jumpi\n      dup1\n      dup3\n      add\n      mload\n      dup2\n      dup5\n      add\n      mstore\n      0x20\n      dup2\n      add\n      swap1\n      pop\n      jump(tag_99)\n    tag_101:\n      pop\n      pop\n      pop\n      pop\n      swap1\n      pop\n      swap1\n      dup2\n      add\n      swap1\n      0x1f\n      and\n      dup1\n      iszero\n      tag_102\n      jumpi\n      dup1\n      dup3\n      sub\n      dup1\n      mload\n      0x01\n      dup4\n      0x20\n      sub\n      0x0100\n      exp\n      sub\n      not\n      and\n      dup2\n      mstore\n      0x20\n      add\n      swap2\n      pop\n    tag_102:\n      pop\n      swap3\n      pop\n      pop\n      pop\n      mload(0x40)\n      dup1\n      swap2\n      sub\n      swap1\n      return\n        /* \"赛题-预赛/第八题/Masterchef.sol\":3381:3650  function decreaseAllowance(address spender, uint256 subtractedValue) public virtual returns (bool) {\r... */\n    tag_25:\n      tag_103\n      0x04\n      dup1\n      calldatasize\n      sub\n      0x40\n      dup2\n      lt\n      iszero\n      tag_104\n      jumpi\n      0x00\n      dup1\n      revert\n    tag_104:\n      dup2\n      add\n      swap1\n      dup1\n      dup1\n      calldataload\n      0xffffffffffffffffffffffffffffffffffffffff\n      and\n      swap1\n      0x20\n      add\n      swap1\n      swap3\n      swap2\n      swap1\n      dup1\n      calldataload\n      swap1\n      0x20\n      add\n      swap1\n      swap3\n      swap2\n      swap1\n      pop\n      pop\n      pop\n      tag_105\n      jump\t// in\n    tag_103:\n      mload(0x40)\n      dup1\n      dup3\n      iszero\n      iszero\n      dup2\n      mstore\n      0x20\n      add\n      swap2\n      pop\n      pop\n      mload(0x40)\n      dup1\n      swap2\n      sub\n      swap1\n      return\n        /* \"赛题-预赛/第八题/Masterchef.sol\":2307:2482  function transfer(address recipient, uint256 amount) public virtual override returns (bool) {\r... */\n    tag_26:\n      tag_106\n      0x04\n      dup1\n      calldatasize\n      sub\n      0x40\n      dup2\n      lt\n      iszero\n      tag_107\n      jumpi\n      0x00\n      dup1\n      revert\n    tag_107:\n      dup2\n      add\n      swap1\n      dup1\n      dup1\n      calldataload\n      0xffffffffffffffffffffffffffffffffffffffff\n      and\n      swap1\n      0x20\n      add\n      swap1\n      swap3\n      swap2\n      swap1\n      dup1\n      calldataload\n      swap1\n      0x20\n      add\n      swap1\n      swap3\n      swap2\n      swap1\n      pop\n      pop\n      pop\n      tag_108\n      jump\t// in\n    tag_106:\n      mload(0x40)\n      dup1\n      dup3\n      iszero\n      iszero\n      dup2\n      mstore\n      0x20\n      add\n      swap2\n      pop\n      pop\n      mload(0x40)\n      dup1\n      swap2\n      sub\n      swap1\n      return\n        /* \"赛题-预赛/第八题/Masterchef.sol\":5933:5961  uint256 public sushiPerBlock */\n    tag_27:\n      tag_109\n      tag_110\n      jump\t// in\n    tag_109:\n      mload(0x40)\n      dup1\n      dup3\n      dup2\n      mstore\n      0x20\n      add\n      swap2\n      pop\n      pop\n      mload(0x40)\n      dup1\n      swap2\n      sub\n      swap1\n      return\n        /* \"赛题-预赛/第八题/Masterchef.sol\":359:380  address public _owner */\n    tag_28:\n      tag_111\n      tag_112\n      jump\t// in\n    tag_111:\n      mload(0x40)\n      dup1\n      dup3\n      0xffffffffffffffffffffffffffffffffffffffff\n      and\n      dup2\n      mstore\n      0x20\n      add\n      swap2\n      pop\n      pop\n      mload(0x40)\n      dup1\n      swap2\n      sub\n      swap1\n      return\n        /* \"赛题-预赛/第八题/Masterchef.sol\":7314:7462  function airdorp() public {\r... */\n    tag_29:\n      tag_113\n      tag_114\n      jump\t// in\n    tag_113:\n      stop\n        /* \"赛题-预赛/第八题/Masterchef.sol\":2490:2641  function allowance(address owner, address spender) public view virtual override returns (uint256) {\r... */\n    tag_30:\n      tag_115\n      0x04\n      dup1\n      calldatasize\n      sub\n      0x40\n      dup2\n      lt\n      iszero\n      tag_116\n      jumpi\n      0x00\n      dup1\n      revert\n    tag_116:\n      dup2\n      add\n      swap1\n      dup1\n      dup1\n      calldataload\n      0xffffffffffffffffffffffffffffffffffffffff\n      and\n      swap1\n      0x20\n      add\n      swap1\n      swap3\n      swap2\n      swap1\n      dup1\n      calldataload\n      0xffffffffffffffffffffffffffffffffffffffff\n      and\n      swap1\n      0x20\n      add\n      swap1\n      swap3\n      swap2\n      swap1\n      pop\n      pop\n      pop\n      tag_117\n      jump\t// in\n    tag_115:\n      mload(0x40)\n      dup1\n      dup3\n      dup2\n      mstore\n      0x20\n      add\n      swap2\n      pop\n      pop\n      mload(0x40)\n      dup1\n      swap2\n      sub\n      swap1\n      return\n        /* \"赛题-预赛/第八题/Masterchef.sol\":9314:9999  function deposit(uint256 _pid, uint256 _amount) public {\r... */\n    tag_31:\n      tag_118\n      0x04\n      dup1\n      calldatasize\n      sub\n      0x40\n      dup2\n      lt\n      iszero\n      tag_119\n      jumpi\n      0x00\n      dup1\n      revert\n    tag_119:\n      dup2\n      add\n      swap1\n      dup1\n      dup1\n      calldataload\n      swap1\n      0x20\n      add\n      swap1\n      swap3\n      swap2\n      swap1\n      dup1\n      calldataload\n      swap1\n      0x20\n      add\n      swap1\n      swap3\n      swap2\n      swap1\n      pop\n      pop\n      pop\n      tag_120\n      jump\t// in\n    tag_118:\n      stop\n        /* \"赛题-预赛/第八题/Masterchef.sol\":7018:7308  function transferOwnership(address newOwner) public override{\r... */\n    tag_32:\n      tag_121\n      0x04\n      dup1\n      calldatasize\n      sub\n      0x20\n      dup2\n      lt\n      iszero\n      tag_122\n      jumpi\n      0x00\n      dup1\n      revert\n    tag_122:\n      dup2\n      add\n      swap1\n      dup1\n      dup1\n      calldataload\n      0xffffffffffffffffffffffffffffffffffffffff\n      and\n      swap1\n      0x20\n      add\n      swap1\n      swap3\n      swap2\n      swap1\n      pop\n      pop\n      pop\n      tag_123\n      jump\t// in\n    tag_121:\n      stop\n        /* \"赛题-预赛/第八题/Masterchef.sol\":6149:6176  uint256 public aridorplimit */\n    tag_41:\n      sload(0x0c)\n      dup2\n      jump\t// out\n        /* \"赛题-预赛/第八题/Masterchef.sol\":1795:1878  function name() public view returns (string memory) {\r... */\n    tag_43:\n        /* \"赛题-预赛/第八题/Masterchef.sol\":1832:1845  string memory */\n      0x60\n        /* \"赛题-预赛/第八题/Masterchef.sol\":1865:1870  _name */\n      0x04\n        /* \"赛题-预赛/第八题/Masterchef.sol\":1858:1870  return _name */\n      dup1\n      sload\n      0x01\n      dup2\n      0x01\n      and\n      iszero\n      0x0100\n      mul\n      sub\n      and\n      0x02\n      swap1\n      div\n      dup1\n      0x1f\n      add\n      0x20\n      dup1\n      swap2\n      div\n      mul\n      0x20\n      add\n      mload(0x40)\n      swap1\n      dup2\n      add\n      0x40\n      mstore\n      dup1\n      swap3\n      swap2\n      swap1\n      dup2\n      dup2\n      mstore\n      0x20\n      add\n      dup3\n      dup1\n      sload\n      0x01\n      dup2\n      0x01\n      and\n      iszero\n      0x0100\n      mul\n      sub\n      and\n      0x02\n      swap1\n      div\n      dup1\n      iszero\n      tag_126\n      jumpi\n      dup1\n      0x1f\n      lt\n      tag_127\n      jumpi\n      0x0100\n      dup1\n      dup4\n      sload\n      div\n      mul\n      dup4\n      mstore\n      swap2\n      0x20\n      add\n      swap2\n      jump(tag_126)\n    tag_127:\n      dup3\n      add\n      swap2\n      swap1\n      0x00\n      mstore\n      keccak256(0x00, 0x20)\n      swap1\n    tag_128:\n      dup2\n      sload\n      dup2\n      mstore\n      swap1\n      0x01\n      add\n      swap1\n      0x20\n      add\n      dup1\n      dup4\n      gt\n      tag_128\n      jumpi\n      dup3\n      swap1\n      sub\n      0x1f\n      and\n      dup3\n      add\n      swap2\n    tag_126:\n      pop\n      pop\n      pop\n      pop\n      pop\n      swap1\n      pop\n        /* \"赛题-预赛/第八题/Masterchef.sol\":1795:1878  function name() public view returns (string memory) {\r... */\n      swap1\n      jump\t// out\n        /* \"赛题-预赛/第八题/Masterchef.sol\":7468:7563  function poolLength() external view returns (uint256) {\r... */\n    tag_49:\n        /* \"赛题-预赛/第八题/Masterchef.sol\":7513:7520  uint256 */\n      0x00\n        /* \"赛题-预赛/第八题/Masterchef.sol\":7540:7548  poolInfo */\n      0x08\n        /* \"赛题-预赛/第八题/Masterchef.sol\":7540:7555  poolInfo.length */\n      dup1\n      sload\n      swap1\n      pop\n        /* \"赛题-预赛/第八题/Masterchef.sol\":7533:7555  return poolInfo.length */\n      swap1\n      pop\n        /* \"赛题-预赛/第八题/Masterchef.sol\":7468:7563  function poolLength() external view returns (uint256) {\r... */\n      swap1\n      jump\t// out\n        /* \"赛题-预赛/第八题/Masterchef.sol\":2649:2818  function approve(address spender, uint256 amount) public virtual override returns (bool) {\r... */\n    tag_52:\n        /* \"赛题-预赛/第八题/Masterchef.sol\":2732:2736  bool */\n      0x00\n        /* \"赛题-预赛/第八题/Masterchef.sol\":2749:2788  _approve(_msgSender(), spender, amount) */\n      tag_131\n        /* \"赛题-预赛/第八题/Masterchef.sol\":2758:2770  _msgSender() */\n      tag_132\n        /* \"赛题-预赛/第八题/Masterchef.sol\":2758:2768  _msgSender */\n      tag_133\n        /* \"赛题-预赛/第八题/Masterchef.sol\":2758:2770  _msgSender() */\n      jump\t// in\n    tag_132:\n        /* \"赛题-预赛/第八题/Masterchef.sol\":2772:2779  spender */\n      dup5\n        /* \"赛题-预赛/第八题/Masterchef.sol\":2781:2787  amount */\n      dup5\n        /* \"赛题-预赛/第八题/Masterchef.sol\":2749:2757  _approve */\n      tag_134\n        /* \"赛题-预赛/第八题/Masterchef.sol\":2749:2788  _approve(_msgSender(), spender, amount) */\n      jump\t// in\n    tag_131:\n        /* \"赛题-预赛/第八题/Masterchef.sol\":2806:2810  true */\n      0x01\n        /* \"赛题-预赛/第八题/Masterchef.sol\":2799:2810  return true */\n      swap1\n      pop\n        /* \"赛题-预赛/第八题/Masterchef.sol\":2649:2818  function approve(address spender, uint256 amount) public virtual override returns (bool) {\r... */\n      swap3\n      swap2\n      pop\n      pop\n      jump\t// out\n        /* \"赛题-预赛/第八题/Masterchef.sol\":5970:5996  PoolInfo[] public poolInfo */\n    tag_55:\n      0x08\n      dup2\n      dup2\n      sload\n      dup2\n      lt\n      tag_135\n      jumpi\n      invalid\n    tag_135:\n      swap1\n      0x00\n      mstore\n      keccak256(0x00, 0x20)\n      swap1\n      0x04\n      mul\n      add\n      0x00\n      swap2\n      pop\n      swap1\n      pop\n      dup1\n      0x00\n      add\n      sload\n      swap1\n      dup1\n      0x01\n      add\n      sload\n      swap1\n      dup1\n      0x02\n      add\n      sload\n      swap1\n      dup1\n      0x03\n      add\n      sload\n      swap1\n      pop\n      dup5\n      jump\t// out\n        /* \"赛题-预赛/第八题/Masterchef.sol\":6076:6110  uint256 public totalAllocPoint = 0 */\n    tag_57:\n      sload(0x0a)\n      dup2\n      jump\t// out\n        /* \"赛题-预赛/第八题/Masterchef.sol\":2072:2172  function totalSupply() public view override returns (uint256) {\r... */\n    tag_59:\n        /* \"赛题-预赛/第八题/Masterchef.sol\":2125:2132  uint256 */\n      0x00\n        /* \"赛题-预赛/第八题/Masterchef.sol\":2152:2164  _totalSupply */\n      sload(0x03)\n        /* \"赛题-预赛/第八题/Masterchef.sol\":2145:2164  return _totalSupply */\n      swap1\n      pop\n        /* \"赛题-预赛/第八题/Masterchef.sol\":2072:2172  function totalSupply() public view override returns (uint256) {\r... */\n      swap1\n      jump\t// out\n        /* \"赛题-预赛/第八题/Masterchef.sol\":7698:8444  function pendingSushi(uint256 _pid, address _user) external view returns (uint256) {\r... */\n    tag_62:\n        /* \"赛题-预赛/第八题/Masterchef.sol\":7772:7779  uint256 */\n      0x00\n        /* \"赛题-预赛/第八题/Masterchef.sol\":7792:7813  PoolInfo storage pool */\n      dup1\n        /* \"赛题-预赛/第八题/Masterchef.sol\":7816:7824  poolInfo */\n      0x08\n        /* \"赛题-预赛/第八题/Masterchef.sol\":7825:7829  _pid */\n      dup5\n        /* \"赛题-预赛/第八题/Masterchef.sol\":7816:7830  poolInfo[_pid] */\n      dup2\n      sload\n      dup2\n      lt\n      tag_139\n      jumpi\n      invalid\n    tag_139:\n      swap1\n      0x00\n      mstore\n      keccak256(0x00, 0x20)\n      swap1\n      0x04\n      mul\n      add\n        /* \"赛题-预赛/第八题/Masterchef.sol\":7792:7830  PoolInfo storage pool = poolInfo[_pid] */\n      swap1\n      pop\n        /* \"赛题-预赛/第八题/Masterchef.sol\":7841:7862  UserInfo storage user */\n      0x00\n        /* \"赛题-预赛/第八题/Masterchef.sol\":7865:7873  userInfo */\n      0x09\n        /* \"赛题-预赛/第八题/Masterchef.sol\":7865:7879  userInfo[_pid] */\n      0x00\n        /* \"赛题-预赛/第八题/Masterchef.sol\":7874:7878  _pid */\n      dup7\n        /* \"赛题-预赛/第八题/Masterchef.sol\":7865:7879  userInfo[_pid] */\n      dup2\n      mstore\n      0x20\n      add\n      swap1\n      dup2\n      mstore\n      0x20\n      add\n      0x00\n      keccak256\n        /* \"赛题-预赛/第八题/Masterchef.sol\":7865:7886  userInfo[_pid][_user] */\n      0x00\n        /* \"赛题-预赛/第八题/Masterchef.sol\":7880:7885  _user */\n      dup6\n        /* \"赛题-预赛/第八题/Masterchef.sol\":7865:7886  userInfo[_pid][_user] */\n      0xffffffffffffffffffffffffffffffffffffffff\n      and\n      0xffffffffffffffffffffffffffffffffffffffff\n      and\n      dup2\n      mstore\n      0x20\n      add\n      swap1\n      dup2\n      mstore\n      0x20\n      add\n      0x00\n      keccak256\n        /* \"赛题-预赛/第八题/Masterchef.sol\":7841:7886  UserInfo storage user = userInfo[_pid][_user] */\n      swap1\n      pop\n        /* \"赛题-预赛/第八题/Masterchef.sol\":7897:7921  uint256 accSushiPerShare */\n      0x00\n        /* \"赛题-预赛/第八题/Masterchef.sol\":7924:7928  pool */\n      dup3\n        /* \"赛题-预赛/第八题/Masterchef.sol\":7924:7945  pool.accSushiPerShare */\n      0x02\n      add\n      sload\n        /* \"赛题-预赛/第八题/Masterchef.sol\":7897:7945  uint256 accSushiPerShare = pool.accSushiPerShare */\n      swap1\n      pop\n        /* \"赛题-预赛/第八题/Masterchef.sol\":7956:7972  uint256 lpSupply */\n      0x00\n        /* \"赛题-预赛/第八题/Masterchef.sol\":7975:7979  pool */\n      dup4\n        /* \"赛题-预赛/第八题/Masterchef.sol\":7975:7990  pool.totalstake */\n      0x03\n      add\n      sload\n        /* \"赛题-预赛/第八题/Masterchef.sol\":7956:7990  uint256 lpSupply = pool.totalstake */\n      swap1\n      pop\n        /* \"赛题-预赛/第八题/Masterchef.sol\":8020:8024  pool */\n      dup4\n        /* \"赛题-预赛/第八题/Masterchef.sol\":8020:8040  pool.lastRewardBlock */\n      0x01\n      add\n      sload\n        /* \"赛题-预赛/第八题/Masterchef.sol\":8005:8017  block.number */\n      number\n        /* \"赛题-预赛/第八题/Masterchef.sol\":8005:8040  block.number > pool.lastRewardBlock */\n      gt\n        /* \"赛题-预赛/第八题/Masterchef.sol\":8005:8057  block.number > pool.lastRewardBlock && lpSupply != 0 */\n      dup1\n      iszero\n      tag_141\n      jumpi\n      pop\n        /* \"赛题-预赛/第八题/Masterchef.sol\":8056:8057  0 */\n      0x00\n        /* \"赛题-预赛/第八题/Masterchef.sol\":8044:8052  lpSupply */\n      dup2\n        /* \"赛题-预赛/第八题/Masterchef.sol\":8044:8057  lpSupply != 0 */\n      eq\n      iszero\n        /* \"赛题-预赛/第八题/Masterchef.sol\":8005:8057  block.number > pool.lastRewardBlock && lpSupply != 0 */\n    tag_141:\n        /* \"赛题-预赛/第八题/Masterchef.sol\":8001:8355  if (block.number > pool.lastRewardBlock && lpSupply != 0) {\r... */\n      iszero\n      tag_142\n      jumpi\n        /* \"赛题-预赛/第八题/Masterchef.sol\":8074:8092  uint256 multiplier */\n      0x00\n        /* \"赛题-预赛/第八题/Masterchef.sol\":8095:8144  getMultiplier(pool.lastRewardBlock, block.number) */\n      tag_143\n        /* \"赛题-预赛/第八题/Masterchef.sol\":8109:8113  pool */\n      dup6\n        /* \"赛题-预赛/第八题/Masterchef.sol\":8109:8129  pool.lastRewardBlock */\n      0x01\n      add\n      sload\n        /* \"赛题-预赛/第八题/Masterchef.sol\":8131:8143  block.number */\n      number\n        /* \"赛题-预赛/第八题/Masterchef.sol\":8095:8108  getMultiplier */\n      tag_93\n        /* \"赛题-预赛/第八题/Masterchef.sol\":8095:8144  getMultiplier(pool.lastRewardBlock, block.number) */\n      jump\t// in\n    tag_143:\n        /* \"赛题-预赛/第八题/Masterchef.sol\":8074:8144  uint256 multiplier = getMultiplier(pool.lastRewardBlock, block.number) */\n      swap1\n      pop\n        /* \"赛题-预赛/第八题/Masterchef.sol\":8159:8178  uint256 sushiReward */\n      0x00\n        /* \"赛题-预赛/第八题/Masterchef.sol\":8181:8252  multiplier.mul(sushiPerBlock).mul(pool.allocPoint).div(totalAllocPoint) */\n      tag_144\n        /* \"赛题-预赛/第八题/Masterchef.sol\":8236:8251  totalAllocPoint */\n      sload(0x0a)\n        /* \"赛题-预赛/第八题/Masterchef.sol\":8181:8231  multiplier.mul(sushiPerBlock).mul(pool.allocPoint) */\n      tag_145\n        /* \"赛题-预赛/第八题/Masterchef.sol\":8215:8219  pool */\n      dup9\n        /* \"赛题-预赛/第八题/Masterchef.sol\":8215:8230  pool.allocPoint */\n      0x00\n      add\n      sload\n        /* \"赛题-预赛/第八题/Masterchef.sol\":8181:8210  multiplier.mul(sushiPerBlock) */\n      tag_146\n        /* \"赛题-预赛/第八题/Masterchef.sol\":8196:8209  sushiPerBlock */\n      sload(0x07)\n        /* \"赛题-预赛/第八题/Masterchef.sol\":8181:8191  multiplier */\n      dup8\n        /* \"赛题-预赛/第八题/Masterchef.sol\":8181:8195  multiplier.mul */\n      tag_147\n      swap1\n        /* \"赛题-预赛/第八题/Masterchef.sol\":8181:8210  multiplier.mul(sushiPerBlock) */\n      swap2\n      swap1\n      0xffffffff\n      and\n      jump\t// in\n    tag_146:\n        /* \"赛题-预赛/第八题/Masterchef.sol\":8181:8214  multiplier.mul(sushiPerBlock).mul */\n      tag_147\n      swap1\n        /* \"赛题-预赛/第八题/Masterchef.sol\":8181:8231  multiplier.mul(sushiPerBlock).mul(pool.allocPoint) */\n      swap2\n      swap1\n      0xffffffff\n      and\n      jump\t// in\n    tag_145:\n        /* \"赛题-预赛/第八题/Masterchef.sol\":8181:8235  multiplier.mul(sushiPerBlock).mul(pool.allocPoint).div */\n      tag_148\n      swap1\n        /* \"赛题-预赛/第八题/Masterchef.sol\":8181:8252  multiplier.mul(sushiPerBlock).mul(pool.allocPoint).div(totalAllocPoint) */\n      swap2\n      swap1\n      0xffffffff\n      and\n      jump\t// in\n    tag_144:\n        /* \"赛题-预赛/第八题/Masterchef.sol\":8159:8252  uint256 sushiReward = multiplier.mul(sushiPerBlock).mul(pool.allocPoint).div(totalAllocPoint) */\n      swap1\n      pop\n        /* \"赛题-预赛/第八题/Masterchef.sol\":8286:8343  accSushiPerShare.add(sushiReward.mul(1e12).div(lpSupply)) */\n      tag_149\n        /* \"赛题-预赛/第八题/Masterchef.sol\":8307:8342  sushiReward.mul(1e12).div(lpSupply) */\n      tag_150\n        /* \"赛题-预赛/第八题/Masterchef.sol\":8333:8341  lpSupply */\n      dup5\n        /* \"赛题-预赛/第八题/Masterchef.sol\":8307:8328  sushiReward.mul(1e12) */\n      tag_151\n        /* \"赛题-预赛/第八题/Masterchef.sol\":8323:8327  1e12 */\n      0xe8d4a51000\n        /* \"赛题-预赛/第八题/Masterchef.sol\":8307:8318  sushiReward */\n      dup6\n        /* \"赛题-预赛/第八题/Masterchef.sol\":8307:8322  sushiReward.mul */\n      tag_147\n      swap1\n        /* \"赛题-预赛/第八题/Masterchef.sol\":8307:8328  sushiReward.mul(1e12) */\n      swap2\n      swap1\n      0xffffffff\n      and\n      jump\t// in\n    tag_151:\n        /* \"赛题-预赛/第八题/Masterchef.sol\":8307:8332  sushiReward.mul(1e12).div */\n      tag_148\n      swap1\n        /* \"赛题-预赛/第八题/Masterchef.sol\":8307:8342  sushiReward.mul(1e12).div(lpSupply) */\n      swap2\n      swap1\n      0xffffffff\n      and\n      jump\t// in\n    tag_150:\n        /* \"赛题-预赛/第八题/Masterchef.sol\":8286:8302  accSushiPerShare */\n      dup6\n        /* \"赛题-预赛/第八题/Masterchef.sol\":8286:8306  accSushiPerShare.add */\n      tag_124\n      swap1\n        /* \"赛题-预赛/第八题/Masterchef.sol\":8286:8343  accSushiPerShare.add(sushiReward.mul(1e12).div(lpSupply)) */\n      swap2\n      swap1\n      0xffffffff\n      and\n      jump\t// in\n    tag_149:\n        /* \"赛题-预赛/第八题/Masterchef.sol\":8267:8343  accSushiPerShare = accSushiPerShare.add(sushiReward.mul(1e12).div(lpSupply)) */\n      swap4\n      pop\n        /* \"赛题-预赛/第八题/Masterchef.sol\":8001:8355  if (block.number > pool.lastRewardBlock && lpSupply != 0) {\r... */\n      pop\n      pop\n    tag_142:\n        /* \"赛题-预赛/第八题/Masterchef.sol\":8372:8436  user.amount.mul(accSushiPerShare).div(1e12).sub(user.rewardDebt) */\n      tag_152\n        /* \"赛题-预赛/第八题/Masterchef.sol\":8420:8424  user */\n      dup4\n        /* \"赛题-预赛/第八题/Masterchef.sol\":8420:8435  user.rewardDebt */\n      0x01\n      add\n      sload\n        /* \"赛题-预赛/第八题/Masterchef.sol\":8372:8415  user.amount.mul(accSushiPerShare).div(1e12) */\n      tag_153\n        /* \"赛题-预赛/第八题/Masterchef.sol\":8410:8414  1e12 */\n      0xe8d4a51000\n        /* \"赛题-预赛/第八题/Masterchef.sol\":8372:8405  user.amount.mul(accSushiPerShare) */\n      tag_154\n        /* \"赛题-预赛/第八题/Masterchef.sol\":8388:8404  accSushiPerShare */\n      dup7\n        /* \"赛题-预赛/第八题/Masterchef.sol\":8372:8376  user */\n      dup9\n        /* \"赛题-预赛/第八题/Masterchef.sol\":8372:8383  user.amount */\n      0x00\n      add\n      sload\n        /* \"赛题-预赛/第八题/Masterchef.sol\":8372:8387  user.amount.mul */\n      tag_147\n      swap1\n        /* \"赛题-预赛/第八题/Masterchef.sol\":8372:8405  user.amount.mul(accSushiPerShare) */\n      swap2\n      swap1\n      0xffffffff\n      and\n      jump\t// in\n    tag_154:\n        /* \"赛题-预赛/第八题/Masterchef.sol\":8372:8409  user.amount.mul(accSushiPerShare).div */\n      tag_148\n      swap1\n        /* \"赛题-预赛/第八题/Masterchef.sol\":8372:8415  user.amount.mul(accSushiPerShare).div(1e12) */\n      swap2\n      swap1\n      0xffffffff\n      and\n      jump\t// in\n    tag_153:\n        /* \"赛题-预赛/第八题/Masterchef.sol\":8372:8419  user.amount.mul(accSushiPerShare).div(1e12).sub */\n      tag_155\n      swap1\n        /* \"赛题-预赛/第八题/Masterchef.sol\":8372:8436  user.amount.mul(accSushiPerShare).div(1e12).sub(user.rewardDebt) */\n      swap2\n      swap1\n      0xffffffff\n      and\n      jump\t// in\n    tag_152:\n        /* \"赛题-预赛/第八题/Masterchef.sol\":8365:8436  return user.amount.mul(accSushiPerShare).div(1e12).sub(user.rewardDebt) */\n      swap5\n      pop\n      pop\n      pop\n      pop\n      pop\n        /* \"赛题-预赛/第八题/Masterchef.sol\":7698:8444  function pendingSushi(uint256 _pid, address _user) external view returns (uint256) {\r... */\n      swap3\n      swap2\n      pop\n      pop\n      jump\t// out\n        /* \"赛题-预赛/第八题/Masterchef.sol\":2826:3147  function transferFrom(address sender, address recipient, uint256 amount) public virtual override returns (bool) {\r... */\n    tag_65:\n        /* \"赛题-预赛/第八题/Masterchef.sol\":2932:2936  bool */\n      0x00\n        /* \"赛题-预赛/第八题/Masterchef.sol\":2949:2985  _transfer(sender, recipient, amount) */\n      tag_157\n        /* \"赛题-预赛/第八题/Masterchef.sol\":2959:2965  sender */\n      dup5\n        /* \"赛题-预赛/第八题/Masterchef.sol\":2967:2976  recipient */\n      dup5\n        /* \"赛题-预赛/第八题/Masterchef.sol\":2978:2984  amount */\n      dup5\n        /* \"赛题-预赛/第八题/Masterchef.sol\":2949:2958  _transfer */\n      tag_158\n        /* \"赛题-预赛/第八题/Masterchef.sol\":2949:2985  _transfer(sender, recipient, amount) */\n      jump\t// in\n    tag_157:\n        /* \"赛题-预赛/第八题/Masterchef.sol\":2996:3117  _approve(sender, _msgSender(), _allowances[sender][_msgSender()].sub(amount, \"ERC20: transfer amount exceeds allowance\")) */\n      tag_159\n        /* \"赛题-预赛/第八题/Masterchef.sol\":3005:3011  sender */\n      dup5\n        /* \"赛题-预赛/第八题/Masterchef.sol\":3013:3025  _msgSender() */\n      tag_160\n        /* \"赛题-预赛/第八题/Masterchef.sol\":3013:3023  _msgSender */\n      tag_133\n        /* \"赛题-预赛/第八题/Masterchef.sol\":3013:3025  _msgSender() */\n      jump\t// in\n    tag_160:\n        /* \"赛题-预赛/第八题/Masterchef.sol\":3027:3116  _allowances[sender][_msgSender()].sub(amount, \"ERC20: transfer amount exceeds allowance\") */\n      tag_161\n        /* \"赛题-预赛/第八题/Masterchef.sol\":3065:3071  amount */\n      dup6\n        /* \"赛题-预赛/第八题/Masterchef.sol\":3027:3116  _allowances[sender][_msgSender()].sub(amount, \"ERC20: transfer amount exceeds allowance\") */\n      mload(0x40)\n      dup1\n      0x60\n      add\n      0x40\n      mstore\n      dup1\n      0x28\n      dup2\n      mstore\n      0x20\n      add\n      data_974d1b4421da69cc60b481194f0dad36a5bb4e23da810da7a7fb30cdba178330\n      0x28\n      swap2\n      codecopy\n        /* \"赛题-预赛/第八题/Masterchef.sol\":3027:3038  _allowances */\n      0x02\n        /* \"赛题-预赛/第八题/Masterchef.sol\":3027:3046  _allowances[sender] */\n      0x00\n        /* \"赛题-预赛/第八题/Masterchef.sol\":3039:3045  sender */\n      dup12\n        /* \"赛题-预赛/第八题/Masterchef.sol\":3027:3046  _allowances[sender] */\n      0xffffffffffffffffffffffffffffffffffffffff\n      and\n      0xffffffffffffffffffffffffffffffffffffffff\n      and\n      dup2\n      mstore\n      0x20\n      add\n      swap1\n      dup2\n      mstore\n      0x20\n      add\n      0x00\n      keccak256\n        /* \"赛题-预赛/第八题/Masterchef.sol\":3027:3060  _allowances[sender][_msgSender()] */\n      0x00\n        /* \"赛题-预赛/第八题/Masterchef.sol\":3047:3059  _msgSender() */\n      tag_162\n        /* \"赛题-预赛/第八题/Masterchef.sol\":3047:3057  _msgSender */\n      tag_133\n        /* \"赛题-预赛/第八题/Masterchef.sol\":3047:3059  _msgSender() */\n      jump\t// in\n    tag_162:\n        /* \"赛题-预赛/第八题/Masterchef.sol\":3027:3060  _allowances[sender][_msgSender()] */\n      0xffffffffffffffffffffffffffffffffffffffff\n      and\n      0xffffffffffffffffffffffffffffffffffffffff\n      and\n      dup2\n      mstore\n      0x20\n      add\n      swap1\n      dup2\n      mstore\n      0x20\n      add\n      0x00\n      keccak256\n      sload\n        /* \"赛题-预赛/第八题/Masterchef.sol\":3027:3064  _allowances[sender][_msgSender()].sub */\n      tag_163\n      swap1\n        /* \"赛题-预赛/第八题/Masterchef.sol\":3027:3116  _allowances[sender][_msgSender()].sub(amount, \"ERC20: transfer amount exceeds allowance\") */\n      swap3\n      swap2\n      swap1\n      0xffffffff\n      and\n      jump\t// in\n    tag_161:\n        /* \"赛题-预赛/第八题/Masterchef.sol\":2996:3004  _approve */\n      tag_134\n        /* \"赛题-预赛/第八题/Masterchef.sol\":2996:3117  _approve(sender, _msgSender(), _allowances[sender][_msgSender()].sub(amount, \"ERC20: transfer amount exceeds allowance\")) */\n      jump\t// in\n    tag_159:\n        /* \"赛题-预赛/第八题/Masterchef.sol\":3135:3139  true */\n      0x01\n        /* \"赛题-预赛/第八题/Masterchef.sol\":3128:3139  return true */\n      swap1\n      pop\n        /* \"赛题-预赛/第八题/Masterchef.sol\":2826:3147  function transferFrom(address sender, address recipient, uint256 amount) public virtual override returns (bool) {\r... */\n      swap4\n      swap3\n      pop\n      pop\n      pop\n      jump\t// out\n        /* \"赛题-预赛/第八题/Masterchef.sol\":1981:2064  function decimals() public view returns (uint8) {\r... */\n    tag_67:\n        /* \"赛题-预赛/第八题/Masterchef.sol\":2022:2027  uint8 */\n      0x00\n        /* \"赛题-预赛/第八题/Masterchef.sol\":2047:2056  _decimals */\n      0x06\n      0x00\n      swap1\n      sload\n      swap1\n      0x0100\n      exp\n      swap1\n      div\n      0xff\n      and\n        /* \"赛题-预赛/第八题/Masterchef.sol\":2040:2056  return _decimals */\n      swap1\n      pop\n        /* \"赛题-预赛/第八题/Masterchef.sol\":1981:2064  function decimals() public view returns (uint8) {\r... */\n      swap1\n      jump\t// out\n        /* \"赛题-预赛/第八题/Masterchef.sol\":3155:3373  function increaseAllowance(address spender, uint256 addedValue) public virtual returns (bool) {\r... */\n    tag_70:\n        /* \"赛题-预赛/第八题/Masterchef.sol\":3243:3247  bool */\n      0x00\n        /* \"赛题-预赛/第八题/Masterchef.sol\":3260:3343  _approve(_msgSender(), spender, _allowances[_msgSender()][spender].add(addedValue)) */\n      tag_166\n        /* \"赛题-预赛/第八题/Masterchef.sol\":3269:3281  _msgSender() */\n      tag_167\n        /* \"赛题-预赛/第八题/Masterchef.sol\":3269:3279  _msgSender */\n      tag_133\n        /* \"赛题-预赛/第八题/Masterchef.sol\":3269:3281  _msgSender() */\n      jump\t// in\n    tag_167:\n        /* \"赛题-预赛/第八题/Masterchef.sol\":3283:3290  spender */\n      dup5\n        /* \"赛题-预赛/第八题/Masterchef.sol\":3292:3342  _allowances[_msgSender()][spender].add(addedValue) */\n      tag_168\n        /* \"赛题-预赛/第八题/Masterchef.sol\":3331:3341  addedValue */\n      dup6\n        /* \"赛题-预赛/第八题/Masterchef.sol\":3292:3303  _allowances */\n      0x02\n        /* \"赛题-预赛/第八题/Masterchef.sol\":3292:3317  _allowances[_msgSender()] */\n      0x00\n        /* \"赛题-预赛/第八题/Masterchef.sol\":3304:3316  _msgSender() */\n      tag_169\n        /* \"赛题-预赛/第八题/Masterchef.sol\":3304:3314  _msgSender */\n      tag_133\n        /* \"赛题-预赛/第八题/Masterchef.sol\":3304:3316  _msgSender() */\n      jump\t// in\n    tag_169:\n        /* \"赛题-预赛/第八题/Masterchef.sol\":3292:3317  _allowances[_msgSender()] */\n      0xffffffffffffffffffffffffffffffffffffffff\n      and\n      0xffffffffffffffffffffffffffffffffffffffff\n      and\n      dup2\n      mstore\n      0x20\n      add\n      swap1\n      dup2\n      mstore\n      0x20\n      add\n      0x00\n      keccak256\n        /* \"赛题-预赛/第八题/Masterchef.sol\":3292:3326  _allowances[_msgSender()][spender] */\n      0x00\n        /* \"赛题-预赛/第八题/Masterchef.sol\":3318:3325  spender */\n      dup10\n        /* \"赛题-预赛/第八题/Masterchef.sol\":3292:3326  _allowances[_msgSender()][spender] */\n      0xffffffffffffffffffffffffffffffffffffffff\n      and\n      0xffffffffffffffffffffffffffffffffffffffff\n      and\n      dup2\n      mstore\n      0x20\n      add\n      swap1\n      dup2\n      mstore\n      0x20\n      add\n      0x00\n      keccak256\n      sload\n        /* \"赛题-预赛/第八题/Masterchef.sol\":3292:3330  _allowances[_msgSender()][spender].add */\n      tag_124\n      swap1\n        /* \"赛题-预赛/第八题/Masterchef.sol\":3292:3342  _allowances[_msgSender()][spender].add(addedValue) */\n      swap2\n      swap1\n      0xffffffff\n      and\n      jump\t// in\n    tag_168:\n        /* \"赛题-预赛/第八题/Masterchef.sol\":3260:3268  _approve */\n      tag_134\n        /* \"赛题-预赛/第八题/Masterchef.sol\":3260:3343  _approve(_msgSender(), spender, _allowances[_msgSender()][spender].add(addedValue)) */\n      jump\t// in\n    tag_166:\n        /* \"赛题-预赛/第八题/Masterchef.sol\":3361:3365  true */\n      0x01\n        /* \"赛题-预赛/第八题/Masterchef.sol\":3354:3365  return true */\n      swap1\n      pop\n        /* \"赛题-预赛/第八题/Masterchef.sol\":3155:3373  function increaseAllowance(address spender, uint256 addedValue) public virtual returns (bool) {\r... */\n      swap3\n      swap2\n      pop\n      pop\n      jump\t// out\n        /* \"赛题-预赛/第八题/Masterchef.sol\":10007:10688  function withdraw(uint256 _pid, uint256 _amount) public {\r... */\n    tag_73:\n        /* \"赛题-预赛/第八题/Masterchef.sol\":10074:10095  PoolInfo storage pool */\n      0x00\n        /* \"赛题-预赛/第八题/Masterchef.sol\":10098:10106  poolInfo */\n      0x08\n        /* \"赛题-预赛/第八题/Masterchef.sol\":10107:10111  _pid */\n      dup4\n        /* \"赛题-预赛/第八题/Masterchef.sol\":10098:10112  poolInfo[_pid] */\n      dup2\n      sload\n      dup2\n      lt\n      tag_171\n      jumpi\n      invalid\n    tag_171:\n      swap1\n      0x00\n      mstore\n      keccak256(0x00, 0x20)\n      swap1\n      0x04\n      mul\n      add\n        /* \"赛题-预赛/第八题/Masterchef.sol\":10074:10112  PoolInfo storage pool = poolInfo[_pid] */\n      swap1\n      pop\n        /* \"赛题-预赛/第八题/Masterchef.sol\":10123:10144  UserInfo storage user */\n      0x00\n        /* \"赛题-预赛/第八题/Masterchef.sol\":10147:10155  userInfo */\n      0x09\n        /* \"赛题-预赛/第八题/Masterchef.sol\":10147:10161  userInfo[_pid] */\n      0x00\n        /* \"赛题-预赛/第八题/Masterchef.sol\":10156:10160  _pid */\n      dup6\n        /* \"赛题-预赛/第八题/Masterchef.sol\":10147:10161  userInfo[_pid] */\n      dup2\n      mstore\n      0x20\n      add\n      swap1\n      dup2\n      mstore\n      0x20\n      add\n      0x00\n      keccak256\n        /* \"赛题-预赛/第八题/Masterchef.sol\":10147:10173  userInfo[_pid][msg.sender] */\n      0x00\n        /* \"赛题-预赛/第八题/Masterchef.sol\":10162:10172  msg.sender */\n      caller\n        /* \"赛题-预赛/第八题/Masterchef.sol\":10147:10173  userInfo[_pid][msg.sender] */\n      0xffffffffffffffffffffffffffffffffffffffff\n      and\n      0xffffffffffffffffffffffffffffffffffffffff\n      and\n      dup2\n      mstore\n      0x20\n      add\n      swap1\n      dup2\n      mstore\n      0x20\n      add\n      0x00\n      keccak256\n        /* \"赛题-预赛/第八题/Masterchef.sol\":10123:10173  UserInfo storage user = userInfo[_pid][msg.sender] */\n      swap1\n      pop\n        /* \"赛题-预赛/第八题/Masterchef.sol\":10207:10214  _amount */\n      dup3\n        /* \"赛题-预赛/第八题/Masterchef.sol\":10192:10196  user */\n      dup2\n        /* \"赛题-预赛/第八题/Masterchef.sol\":10192:10203  user.amount */\n      0x00\n      add\n      sload\n        /* \"赛题-预赛/第八题/Masterchef.sol\":10192:10214  user.amount >= _amount */\n      lt\n      iszero\n        /* \"赛题-预赛/第八题/Masterchef.sol\":10184:10237  require(user.amount >= _amount, \"withdraw: not good\") */\n      tag_173\n      jumpi\n      mload(0x40)\n      0x08c379a000000000000000000000000000000000000000000000000000000000\n      dup2\n      mstore\n      0x04\n      add\n      dup1\n      dup1\n      0x20\n      add\n      dup3\n      dup2\n      sub\n      dup3\n      mstore\n      0x12\n      dup2\n      mstore\n      0x20\n      add\n      dup1\n      0x77697468647261773a206e6f7420676f6f640000000000000000000000000000\n      dup2\n      mstore\n      pop\n      0x20\n      add\n      swap2\n      pop\n      pop\n      mload(0x40)\n      dup1\n      swap2\n      sub\n      swap1\n      revert\n    tag_173:\n        /* \"赛题-预赛/第八题/Masterchef.sol\":10248:10264  updatePool(_pid) */\n      tag_174\n        /* \"赛题-预赛/第八题/Masterchef.sol\":10259:10263  _pid */\n      dup5\n        /* \"赛题-预赛/第八题/Masterchef.sol\":10248:10258  updatePool */\n      tag_78\n        /* \"赛题-预赛/第八题/Masterchef.sol\":10248:10264  updatePool(_pid) */\n      jump\t// in\n    tag_174:\n        /* \"赛题-预赛/第八题/Masterchef.sol\":10275:10290  uint256 pending */\n      0x00\n        /* \"赛题-预赛/第八题/Masterchef.sol\":10293:10362  user.amount.mul(pool.accSushiPerShare).div(1e12).sub(user.rewardDebt) */\n      tag_175\n        /* \"赛题-预赛/第八题/Masterchef.sol\":10346:10350  user */\n      dup3\n        /* \"赛题-预赛/第八题/Masterchef.sol\":10346:10361  user.rewardDebt */\n      0x01\n      add\n      sload\n        /* \"赛题-预赛/第八题/Masterchef.sol\":10293:10341  user.amount.mul(pool.accSushiPerShare).div(1e12) */\n      tag_176\n        /* \"赛题-预赛/第八题/Masterchef.sol\":10336:10340  1e12 */\n      0xe8d4a51000\n        /* \"赛题-预赛/第八题/Masterchef.sol\":10293:10331  user.amount.mul(pool.accSushiPerShare) */\n      tag_177\n        /* \"赛题-预赛/第八题/Masterchef.sol\":10309:10313  pool */\n      dup8\n        /* \"赛题-预赛/第八题/Masterchef.sol\":10309:10330  pool.accSushiPerShare */\n      0x02\n      add\n      sload\n        /* \"赛题-预赛/第八题/Masterchef.sol\":10293:10297  user */\n      dup8\n        /* \"赛题-预赛/第八题/Masterchef.sol\":10293:10304  user.amount */\n      0x00\n      add\n      sload\n        /* \"赛题-预赛/第八题/Masterchef.sol\":10293:10308  user.amount.mul */\n      tag_147\n      swap1\n        /* \"赛题-预赛/第八题/Masterchef.sol\":10293:10331  user.amount.mul(pool.accSushiPerShare) */\n      swap2\n      swap1\n      0xffffffff\n      and\n      jump\t// in\n    tag_177:\n        /* \"赛题-预赛/第八题/Masterchef.sol\":10293:10335  user.amount.mul(pool.accSushiPerShare).div */\n      tag_148\n      swap1\n        /* \"赛题-预赛/第八题/Masterchef.sol\":10293:10341  user.amount.mul(pool.accSushiPerShare).div(1e12) */\n      swap2\n      swap1\n      0xffffffff\n      and\n      jump\t// in\n    tag_176:\n        /* \"赛题-预赛/第八题/Masterchef.sol\":10293:10345  user.amount.mul(pool.accSushiPerShare).div(1e12).sub */\n      tag_155\n      swap1\n        /* \"赛题-预赛/第八题/Masterchef.sol\":10293:10362  user.amount.mul(pool.accSushiPerShare).div(1e12).sub(user.rewardDebt) */\n      swap2\n      swap1\n      0xffffffff\n      and\n      jump\t// in\n    tag_175:\n        /* \"赛题-预赛/第八题/Masterchef.sol\":10275:10362  uint256 pending = user.amount.mul(pool.accSushiPerShare).div(1e12).sub(user.rewardDebt) */\n      swap1\n      pop\n        /* \"赛题-预赛/第八题/Masterchef.sol\":10373:10411  safeTokenTransfer(msg.sender, pending) */\n      tag_178\n        /* \"赛题-预赛/第八题/Masterchef.sol\":10391:10401  msg.sender */\n      caller\n        /* \"赛题-预赛/第八题/Masterchef.sol\":10403:10410  pending */\n      dup3\n        /* \"赛题-预赛/第八题/Masterchef.sol\":10373:10390  safeTokenTransfer */\n      tag_179\n        /* \"赛题-预赛/第八题/Masterchef.sol\":10373:10411  safeTokenTransfer(msg.sender, pending) */\n      jump\t// in\n    tag_178:\n        /* \"赛题-预赛/第八题/Masterchef.sol\":10436:10460  user.amount.sub(_amount) */\n      tag_180\n        /* \"赛题-预赛/第八题/Masterchef.sol\":10452:10459  _amount */\n      dup5\n        /* \"赛题-预赛/第八题/Masterchef.sol\":10436:10440  user */\n      dup4\n        /* \"赛题-预赛/第八题/Masterchef.sol\":10436:10447  user.amount */\n      0x00\n      add\n      sload\n        /* \"赛题-预赛/第八题/Masterchef.sol\":10436:10451  user.amount.sub */\n      tag_155\n      swap1\n        /* \"赛题-预赛/第八题/Masterchef.sol\":10436:10460  user.amount.sub(_amount) */\n      swap2\n      swap1\n      0xffffffff\n      and\n      jump\t// in\n    tag_180:\n        /* \"赛题-预赛/第八题/Masterchef.sol\":10422:10426  user */\n      dup3\n        /* \"赛题-预赛/第八题/Masterchef.sol\":10422:10433  user.amount */\n      0x00\n      add\n        /* \"赛题-预赛/第八题/Masterchef.sol\":10422:10460  user.amount = user.amount.sub(_amount) */\n      dup2\n      swap1\n      sstore\n      pop\n        /* \"赛题-预赛/第八题/Masterchef.sol\":10489:10537  user.amount.mul(pool.accSushiPerShare).div(1e12) */\n      tag_181\n        /* \"赛题-预赛/第八题/Masterchef.sol\":10532:10536  1e12 */\n      0xe8d4a51000\n        /* \"赛题-预赛/第八题/Masterchef.sol\":10489:10527  user.amount.mul(pool.accSushiPerShare) */\n      tag_182\n        /* \"赛题-预赛/第八题/Masterchef.sol\":10505:10509  pool */\n      dup6\n        /* \"赛题-预赛/第八题/Masterchef.sol\":10505:10526  pool.accSushiPerShare */\n      0x02\n      add\n      sload\n        /* \"赛题-预赛/第八题/Masterchef.sol\":10489:10493  user */\n      dup6\n        /* \"赛题-预赛/第八题/Masterchef.sol\":10489:10500  user.amount */\n      0x00\n      add\n      sload\n        /* \"赛题-预赛/第八题/Masterchef.sol\":10489:10504  user.amount.mul */\n      tag_147\n      swap1\n        /* \"赛题-预赛/第八题/Masterchef.sol\":10489:10527  user.amount.mul(pool.accSushiPerShare) */\n      swap2\n      swap1\n      0xffffffff\n      and\n      jump\t// in\n    tag_182:\n        /* \"赛题-预赛/第八题/Masterchef.sol\":10489:10531  user.amount.mul(pool.accSushiPerShare).div */\n      tag_148\n      swap1\n        /* \"赛题-预赛/第八题/Masterchef.sol\":10489:10537  user.amount.mul(pool.accSushiPerShare).div(1e12) */\n      swap2\n      swap1\n      0xffffffff\n      and\n      jump\t// in\n    tag_181:\n        /* \"赛题-预赛/第八题/Masterchef.sol\":10471:10475  user */\n      dup3\n        /* \"赛题-预赛/第八题/Masterchef.sol\":10471:10486  user.rewardDebt */\n      0x01\n      add\n        /* \"赛题-预赛/第八题/Masterchef.sol\":10471:10537  user.rewardDebt = user.amount.mul(pool.accSushiPerShare).div(1e12) */\n      dup2\n      swap1\n      sstore\n      pop\n        /* \"赛题-预赛/第八题/Masterchef.sol\":10567:10574  _amount */\n      dup4\n        /* \"赛题-预赛/第八题/Masterchef.sol\":10548:10552  pool */\n      dup4\n        /* \"赛题-预赛/第八题/Masterchef.sol\":10548:10563  pool.totalstake */\n      0x03\n      add\n      0x00\n        /* \"赛题-预赛/第八题/Masterchef.sol\":10548:10574  pool.totalstake -= _amount */\n      dup3\n      dup3\n      sload\n      sub\n      swap3\n      pop\n      pop\n      dup2\n      swap1\n      sstore\n      pop\n        /* \"赛题-预赛/第八题/Masterchef.sol\":10586:10590  this */\n      address\n        /* \"赛题-预赛/第八题/Masterchef.sol\":10586:10599  this.transfer */\n      0xffffffffffffffffffffffffffffffffffffffff\n      and\n      0xa9059cbb\n        /* \"赛题-预赛/第八题/Masterchef.sol\":10608:10618  msg.sender */\n      caller\n        /* \"赛题-预赛/第八题/Masterchef.sol\":10621:10628  _amount */\n      dup7\n        /* \"赛题-预赛/第八题/Masterchef.sol\":10586:10629  this.transfer(address(msg.sender), _amount) */\n      mload(0x40)\n      dup4\n      0xffffffff\n      and\n      0xe0\n      shl\n      dup2\n      mstore\n      0x04\n      add\n      dup1\n      dup4\n      0xffffffffffffffffffffffffffffffffffffffff\n      and\n      dup2\n      mstore\n      0x20\n      add\n      dup3\n      dup2\n      mstore\n      0x20\n      add\n      swap3\n      pop\n      pop\n      pop\n      0x20\n      mload(0x40)\n      dup1\n      dup4\n      sub\n      dup2\n      0x00\n      dup8\n      dup1\n      extcodesize\n      iszero\n      dup1\n      iszero\n      tag_183\n      jumpi\n      0x00\n      dup1\n      revert\n    tag_183:\n      pop\n      gas\n      call\n      iszero\n      dup1\n      iszero\n      tag_185\n      jumpi\n      returndatasize\n      0x00\n      dup1\n      returndatacopy\n      revert(0x00, returndatasize)\n    tag_185:\n      pop\n      pop\n      pop\n      pop\n      mload(0x40)\n      returndatasize\n      0x20\n      dup2\n      lt\n      iszero\n      tag_186\n      jumpi\n      0x00\n      dup1\n      revert\n    tag_186:\n      dup2\n      add\n      swap1\n      dup1\n      dup1\n      mload\n      swap1\n      0x20\n      add\n      swap1\n      swap3\n      swap2\n      swap1\n      pop\n      pop\n      pop\n      pop\n        /* \"赛题-预赛/第八题/Masterchef.sol\":10666:10670  _pid */\n      dup5\n        /* \"赛题-预赛/第八题/Masterchef.sol\":10654:10664  msg.sender */\n      caller\n        /* \"赛题-预赛/第八题/Masterchef.sol\":10645:10680  Withdraw(msg.sender, _pid, _amount) */\n      0xffffffffffffffffffffffffffffffffffffffff\n      and\n      0xf279e6a1f5e320cca91135676d9cb6e44ca8a08c0b88342bcdb1144f6511b568\n        /* \"赛题-预赛/第八题/Masterchef.sol\":10672:10679  _amount */\n      dup7\n        /* \"赛题-预赛/第八题/Masterchef.sol\":10645:10680  Withdraw(msg.sender, _pid, _amount) */\n      mload(0x40)\n      dup1\n      dup3\n      dup2\n      mstore\n      0x20\n      add\n      swap2\n      pop\n      pop\n      mload(0x40)\n      dup1\n      swap2\n      sub\n      swap1\n      log3\n        /* \"赛题-预赛/第八题/Masterchef.sol\":10007:10688  function withdraw(uint256 _pid, uint256 _amount) public {\r... */\n      pop\n      pop\n      pop\n      pop\n      pop\n      jump\t// out\n        /* \"赛题-预赛/第八题/Masterchef.sol\":6117:6142  uint256 public startBlock */\n    tag_75:\n      sload(0x0b)\n      dup2\n      jump\t// out\n        /* \"赛题-预赛/第八题/Masterchef.sol\":8638:9306  function updatePool(uint256 _pid) public {\r... */\n    tag_78:\n        /* \"赛题-预赛/第八题/Masterchef.sol\":8690:8711  PoolInfo storage pool */\n      0x00\n        /* \"赛题-预赛/第八题/Masterchef.sol\":8714:8722  poolInfo */\n      0x08\n        /* \"赛题-预赛/第八题/Masterchef.sol\":8723:8727  _pid */\n      dup3\n        /* \"赛题-预赛/第八题/Masterchef.sol\":8714:8728  poolInfo[_pid] */\n      dup2\n      sload\n      dup2\n      lt\n      tag_188\n      jumpi\n      invalid\n    tag_188:\n      swap1\n      0x00\n      mstore\n      keccak256(0x00, 0x20)\n      swap1\n      0x04\n      mul\n      add\n        /* \"赛题-预赛/第八题/Masterchef.sol\":8690:8728  PoolInfo storage pool = poolInfo[_pid] */\n      swap1\n      pop\n        /* \"赛题-预赛/第八题/Masterchef.sol\":8759:8763  pool */\n      dup1\n        /* \"赛题-预赛/第八题/Masterchef.sol\":8759:8779  pool.lastRewardBlock */\n      0x01\n      add\n      sload\n        /* \"赛题-预赛/第八题/Masterchef.sol\":8743:8755  block.number */\n      number\n        /* \"赛题-预赛/第八题/Masterchef.sol\":8743:8779  block.number <= pool.lastRewardBlock */\n      gt\n        /* \"赛题-预赛/第八题/Masterchef.sol\":8739:8814  if (block.number <= pool.lastRewardBlock) {\r... */\n      tag_190\n      jumpi\n        /* \"赛题-预赛/第八题/Masterchef.sol\":8796:8803  return; */\n      pop\n      jump(tag_187)\n        /* \"赛题-预赛/第八题/Masterchef.sol\":8739:8814  if (block.number <= pool.lastRewardBlock) {\r... */\n    tag_190:\n        /* \"赛题-预赛/第八题/Masterchef.sol\":8824:8840  uint256 lpSupply */\n      0x00\n        /* \"赛题-预赛/第八题/Masterchef.sol\":8843:8847  pool */\n      dup2\n        /* \"赛题-预赛/第八题/Masterchef.sol\":8843:8858  pool.totalstake */\n      0x03\n      add\n      sload\n        /* \"赛题-预赛/第八题/Masterchef.sol\":8824:8858  uint256 lpSupply = pool.totalstake */\n      swap1\n      pop\n        /* \"赛题-预赛/第八题/Masterchef.sol\":8885:8886  0 */\n      0x00\n        /* \"赛题-预赛/第八题/Masterchef.sol\":8873:8881  lpSupply */\n      dup2\n        /* \"赛题-预赛/第八题/Masterchef.sol\":8873:8886  lpSupply == 0 */\n      eq\n        /* \"赛题-预赛/第八题/Masterchef.sol\":8869:8971  if (lpSupply == 0) {\r... */\n      iszero\n      tag_191\n      jumpi\n        /* \"赛题-预赛/第八题/Masterchef.sol\":8926:8938  block.number */\n      number\n        /* \"赛题-预赛/第八题/Masterchef.sol\":8903:8907  pool */\n      dup3\n        /* \"赛题-预赛/第八题/Masterchef.sol\":8903:8923  pool.lastRewardBlock */\n      0x01\n      add\n        /* \"赛题-预赛/第八题/Masterchef.sol\":8903:8938  pool.lastRewardBlock = block.number */\n      dup2\n      swap1\n      sstore\n      pop\n        /* \"赛题-预赛/第八题/Masterchef.sol\":8953:8960  return; */\n      pop\n      pop\n      jump(tag_187)\n        /* \"赛题-预赛/第八题/Masterchef.sol\":8869:8971  if (lpSupply == 0) {\r... */\n    tag_191:\n        /* \"赛题-预赛/第八题/Masterchef.sol\":8981:8999  uint256 multiplier */\n      0x00\n        /* \"赛题-预赛/第八题/Masterchef.sol\":9002:9051  getMultiplier(pool.lastRewardBlock, block.number) */\n      tag_192\n        /* \"赛题-预赛/第八题/Masterchef.sol\":9016:9020  pool */\n      dup4\n        /* \"赛题-预赛/第八题/Masterchef.sol\":9016:9036  pool.lastRewardBlock */\n      0x01\n      add\n      sload\n        /* \"赛题-预赛/第八题/Masterchef.sol\":9038:9050  block.number */\n      number\n        /* \"赛题-预赛/第八题/Masterchef.sol\":9002:9015  getMultiplier */\n      tag_93\n        /* \"赛题-预赛/第八题/Masterchef.sol\":9002:9051  getMultiplier(pool.lastRewardBlock, block.number) */\n      jump\t// in\n    tag_192:\n        /* \"赛题-预赛/第八题/Masterchef.sol\":8981:9051  uint256 multiplier = getMultiplier(pool.lastRewardBlock, block.number) */\n      swap1\n      pop\n        /* \"赛题-预赛/第八题/Masterchef.sol\":9062:9081  uint256 sushiReward */\n      0x00\n        /* \"赛题-预赛/第八题/Masterchef.sol\":9084:9155  multiplier.mul(sushiPerBlock).mul(pool.allocPoint).div(totalAllocPoint) */\n      tag_193\n        /* \"赛题-预赛/第八题/Masterchef.sol\":9139:9154  totalAllocPoint */\n      sload(0x0a)\n        /* \"赛题-预赛/第八题/Masterchef.sol\":9084:9134  multiplier.mul(sushiPerBlock).mul(pool.allocPoint) */\n      tag_194\n        /* \"赛题-预赛/第八题/Masterchef.sol\":9118:9122  pool */\n      dup7\n        /* \"赛题-预赛/第八题/Masterchef.sol\":9118:9133  pool.allocPoint */\n      0x00\n      add\n      sload\n        /* \"赛题-预赛/第八题/Masterchef.sol\":9084:9113  multiplier.mul(sushiPerBlock) */\n      tag_195\n        /* \"赛题-预赛/第八题/Masterchef.sol\":9099:9112  sushiPerBlock */\n      sload(0x07)\n        /* \"赛题-预赛/第八题/Masterchef.sol\":9084:9094  multiplier */\n      dup8\n        /* \"赛题-预赛/第八题/Masterchef.sol\":9084:9098  multiplier.mul */\n      tag_147\n      swap1\n        /* \"赛题-预赛/第八题/Masterchef.sol\":9084:9113  multiplier.mul(sushiPerBlock) */\n      swap2\n      swap1\n      0xffffffff\n      and\n      jump\t// in\n    tag_195:\n        /* \"赛题-预赛/第八题/Masterchef.sol\":9084:9117  multiplier.mul(sushiPerBlock).mul */\n      tag_147\n      swap1\n        /* \"赛题-预赛/第八题/Masterchef.sol\":9084:9134  multiplier.mul(sushiPerBlock).mul(pool.allocPoint) */\n      swap2\n      swap1\n      0xffffffff\n      and\n      jump\t// in\n    tag_194:\n        /* \"赛题-预赛/第八题/Masterchef.sol\":9084:9138  multiplier.mul(sushiPerBlock).mul(pool.allocPoint).div */\n      tag_148\n      swap1\n        /* \"赛题-预赛/第八题/Masterchef.sol\":9084:9155  multiplier.mul(sushiPerBlock).mul(pool.allocPoint).div(totalAllocPoint) */\n      swap2\n      swap1\n      0xffffffff\n      and\n      jump\t// in\n    tag_193:\n        /* \"赛题-预赛/第八题/Masterchef.sol\":9062:9155  uint256 sushiReward = multiplier.mul(sushiPerBlock).mul(pool.allocPoint).div(totalAllocPoint) */\n      swap1\n      pop\n        /* \"赛题-预赛/第八题/Masterchef.sol\":9190:9252  pool.accSushiPerShare.add(sushiReward.mul(1e12).div(lpSupply)) */\n      tag_196\n        /* \"赛题-预赛/第八题/Masterchef.sol\":9216:9251  sushiReward.mul(1e12).div(lpSupply) */\n      tag_197\n        /* \"赛题-预赛/第八题/Masterchef.sol\":9242:9250  lpSupply */\n      dup5\n        /* \"赛题-预赛/第八题/Masterchef.sol\":9216:9237  sushiReward.mul(1e12) */\n      tag_198\n        /* \"赛题-预赛/第八题/Masterchef.sol\":9232:9236  1e12 */\n      0xe8d4a51000\n        /* \"赛题-预赛/第八题/Masterchef.sol\":9216:9227  sushiReward */\n      dup6\n        /* \"赛题-预赛/第八题/Masterchef.sol\":9216:9231  sushiReward.mul */\n      tag_147\n      swap1\n        /* \"赛题-预赛/第八题/Masterchef.sol\":9216:9237  sushiReward.mul(1e12) */\n      swap2\n      swap1\n      0xffffffff\n      and\n      jump\t// in\n    tag_198:\n        /* \"赛题-预赛/第八题/Masterchef.sol\":9216:9241  sushiReward.mul(1e12).div */\n      tag_148\n      swap1\n        /* \"赛题-预赛/第八题/Masterchef.sol\":9216:9251  sushiReward.mul(1e12).div(lpSupply) */\n      swap2\n      swap1\n      0xffffffff\n      and\n      jump\t// in\n    tag_197:\n        /* \"赛题-预赛/第八题/Masterchef.sol\":9190:9194  pool */\n      dup6\n        /* \"赛题-预赛/第八题/Masterchef.sol\":9190:9211  pool.accSushiPerShare */\n      0x02\n      add\n      sload\n        /* \"赛题-预赛/第八题/Masterchef.sol\":9190:9215  pool.accSushiPerShare.add */\n      tag_124\n      swap1\n        /* \"赛题-预赛/第八题/Masterchef.sol\":9190:9252  pool.accSushiPerShare.add(sushiReward.mul(1e12).div(lpSupply)) */\n      swap2\n      swap1\n      0xffffffff\n      and\n      jump\t// in\n    tag_196:\n        /* \"赛题-预赛/第八题/Masterchef.sol\":9166:9170  pool */\n      dup5\n        /* \"赛题-预赛/第八题/Masterchef.sol\":9166:9187  pool.accSushiPerShare */\n      0x02\n      add\n        /* \"赛题-预赛/第八题/Masterchef.sol\":9166:9252  pool.accSushiPerShare = pool.accSushiPerShare.add(sushiReward.mul(1e12).div(lpSupply)) */\n      dup2\n      swap1\n      sstore\n      pop\n        /* \"赛题-预赛/第八题/Masterchef.sol\":9286:9298  block.number */\n      number\n        /* \"赛题-预赛/第八题/Masterchef.sol\":9263:9267  pool */\n      dup5\n        /* \"赛题-预赛/第八题/Masterchef.sol\":9263:9283  pool.lastRewardBlock */\n      0x01\n      add\n        /* \"赛题-预赛/第八题/Masterchef.sol\":9263:9298  pool.lastRewardBlock = block.number */\n      dup2\n      swap1\n      sstore\n      pop\n        /* \"赛题-预赛/第八题/Masterchef.sol\":8638:9306  function updatePool(uint256 _pid) public {\r... */\n      pop\n      pop\n      pop\n      pop\n    tag_187:\n      pop\n      jump\t// out\n        /* \"赛题-预赛/第八题/Masterchef.sol\":10696:11080  function emergencyWithdraw(uint256 _pid) public {\r... */\n    tag_81:\n        /* \"赛题-预赛/第八题/Masterchef.sol\":10755:10775  PoolInfo memory pool */\n      tag_200\n      tag_201\n      jump\t// in\n    tag_200:\n        /* \"赛题-预赛/第八题/Masterchef.sol\":10778:10786  poolInfo */\n      0x08\n        /* \"赛题-预赛/第八题/Masterchef.sol\":10787:10791  _pid */\n      dup3\n        /* \"赛题-预赛/第八题/Masterchef.sol\":10778:10792  poolInfo[_pid] */\n      dup2\n      sload\n      dup2\n      lt\n      tag_202\n      jumpi\n      invalid\n    tag_202:\n      swap1\n      0x00\n      mstore\n      keccak256(0x00, 0x20)\n      swap1\n      0x04\n      mul\n      add\n        /* \"赛题-预赛/第八题/Masterchef.sol\":10755:10792  PoolInfo memory pool = poolInfo[_pid] */\n      mload(0x40)\n      dup1\n      0x80\n      add\n      0x40\n      mstore\n      swap1\n      dup2\n      0x00\n      dup3\n      add\n      sload\n      dup2\n      mstore\n      0x20\n      add\n      0x01\n      dup3\n      add\n      sload\n      dup2\n      mstore\n      0x20\n      add\n      0x02\n      dup3\n      add\n      sload\n      dup2\n      mstore\n      0x20\n      add\n      0x03\n      dup3\n      add\n      sload\n      dup2\n      mstore\n      pop\n      pop\n      swap1\n      pop\n        /* \"赛题-预赛/第八题/Masterchef.sol\":10803:10823  UserInfo memory user */\n      tag_204\n      tag_205\n      jump\t// in\n    tag_204:\n        /* \"赛题-预赛/第八题/Masterchef.sol\":10826:10834  userInfo */\n      0x09\n        /* \"赛题-预赛/第八题/Masterchef.sol\":10826:10840  userInfo[_pid] */\n      0x00\n        /* \"赛题-预赛/第八题/Masterchef.sol\":10835:10839  _pid */\n      dup5\n        /* \"赛题-预赛/第八题/Masterchef.sol\":10826:10840  userInfo[_pid] */\n      dup2\n      mstore\n      0x20\n      add\n      swap1\n      dup2\n      mstore\n      0x20\n      add\n      0x00\n      keccak256\n        /* \"赛题-预赛/第八题/Masterchef.sol\":10826:10852  userInfo[_pid][msg.sender] */\n      0x00\n        /* \"赛题-预赛/第八题/Masterchef.sol\":10841:10851  msg.sender */\n      caller\n        /* \"赛题-预赛/第八题/Masterchef.sol\":10826:10852  userInfo[_pid][msg.sender] */\n      0xffffffffffffffffffffffffffffffffffffffff\n      and\n      0xffffffffffffffffffffffffffffffffffffffff\n      and\n      dup2\n      mstore\n      0x20\n      add\n      swap1\n      dup2\n      mstore\n      0x20\n      add\n      0x00\n      keccak256\n        /* \"赛题-预赛/第八题/Masterchef.sol\":10803:10852  UserInfo memory user = userInfo[_pid][msg.sender] */\n      mload(0x40)\n      dup1\n      0x40\n      add\n      0x40\n      mstore\n      swap1\n      dup2\n      0x00\n      dup3\n      add\n      sload\n      dup2\n      mstore\n      0x20\n      add\n      0x01\n      dup3\n      add\n      sload\n      dup2\n      mstore\n      pop\n      pop\n      swap1\n      pop\n        /* \"赛题-预赛/第八题/Masterchef.sol\":10863:10867  this */\n      address\n        /* \"赛题-预赛/第八题/Masterchef.sol\":10863:10876  this.transfer */\n      0xffffffffffffffffffffffffffffffffffffffff\n      and\n      0xa9059cbb\n        /* \"赛题-预赛/第八题/Masterchef.sol\":10885:10895  msg.sender */\n      caller\n        /* \"赛题-预赛/第八题/Masterchef.sol\":10898:10902  user */\n      dup4\n        /* \"赛题-预赛/第八题/Masterchef.sol\":10898:10909  user.amount */\n      0x00\n      add\n      mload\n        /* \"赛题-预赛/第八题/Masterchef.sol\":10863:10910  this.transfer(address(msg.sender), user.amount) */\n      mload(0x40)\n      dup4\n      0xffffffff\n      and\n      0xe0\n      shl\n      dup2\n      mstore\n      0x04\n      add\n      dup1\n      dup4\n      0xffffffffffffffffffffffffffffffffffffffff\n      and\n      dup2\n      mstore\n      0x20\n      add\n      dup3\n      dup2\n      mstore\n      0x20\n      add\n      swap3\n      pop\n      pop\n      pop\n      0x20\n      mload(0x40)\n      dup1\n      dup4\n      sub\n      dup2\n      0x00\n      dup8\n      dup1\n      extcodesize\n      iszero\n      dup1\n      iszero\n      tag_206\n      jumpi\n      0x00\n      dup1\n      revert\n    tag_206:\n      pop\n      gas\n      call\n      iszero\n      dup1\n      iszero\n      tag_208\n      jumpi\n      returndatasize\n      0x00\n      dup1\n      returndatacopy\n      revert(0x00, returndatasize)\n    tag_208:\n      pop\n      pop\n      pop\n      pop\n      mload(0x40)\n      returndatasize\n      0x20\n      dup2\n      lt\n      iszero\n      tag_209\n      jumpi\n      0x00\n      dup1\n      revert\n    tag_209:\n      dup2\n      add\n      swap1\n      dup1\n      dup1\n      mload\n      swap1\n      0x20\n      add\n      swap1\n      swap3\n      swap2\n      swap1\n      pop\n      pop\n      pop\n      pop\n        /* \"赛题-预赛/第八题/Masterchef.sol\":10956:10960  _pid */\n      dup3\n        /* \"赛题-预赛/第八题/Masterchef.sol\":10944:10954  msg.sender */\n      caller\n        /* \"赛题-预赛/第八题/Masterchef.sol\":10926:10974  EmergencyWithdraw(msg.sender, _pid, user.amount) */\n      0xffffffffffffffffffffffffffffffffffffffff\n      and\n      0xbb757047c2b5f3974fe26b7c10f732e7bce710b0952a71082702781e62ae0595\n        /* \"赛题-预赛/第八题/Masterchef.sol\":10962:10966  user */\n      dup4\n        /* \"赛题-预赛/第八题/Masterchef.sol\":10962:10973  user.amount */\n      0x00\n      add\n      mload\n        /* \"赛题-预赛/第八题/Masterchef.sol\":10926:10974  EmergencyWithdraw(msg.sender, _pid, user.amount) */\n      mload(0x40)\n      dup1\n      dup3\n      dup2\n      mstore\n      0x20\n      add\n      swap2\n      pop\n      pop\n      mload(0x40)\n      dup1\n      swap2\n      sub\n      swap1\n      log3\n        /* \"赛题-预赛/第八题/Masterchef.sol\":11004:11008  user */\n      dup1\n        /* \"赛题-预赛/第八题/Masterchef.sol\":11004:11015  user.amount */\n      0x00\n      add\n      mload\n        /* \"赛题-预赛/第八题/Masterchef.sol\":10985:10989  pool */\n      dup3\n        /* \"赛题-预赛/第八题/Masterchef.sol\":10985:11000  pool.totalstake */\n      0x60\n      add\n        /* \"赛题-预赛/第八题/Masterchef.sol\":10985:11015  pool.totalstake -= user.amount */\n      dup2\n      dup2\n      mload\n      sub\n      swap2\n      pop\n      dup2\n      dup2\n      mstore\n      pop\n      pop\n        /* \"赛题-预赛/第八题/Masterchef.sol\":11041:11042  0 */\n      0x00\n        /* \"赛题-预赛/第八题/Masterchef.sol\":11027:11031  user */\n      dup2\n        /* \"赛题-预赛/第八题/Masterchef.sol\":11027:11038  user.amount */\n      0x00\n      add\n        /* \"赛题-预赛/第八题/Masterchef.sol\":11027:11042  user.amount = 0 */\n      dup2\n      dup2\n      mstore\n      pop\n      pop\n        /* \"赛题-预赛/第八题/Masterchef.sol\":11071:11072  0 */\n      0x00\n        /* \"赛题-预赛/第八题/Masterchef.sol\":11053:11057  user */\n      dup2\n        /* \"赛题-预赛/第八题/Masterchef.sol\":11053:11068  user.rewardDebt */\n      0x20\n      add\n        /* \"赛题-预赛/第八题/Masterchef.sol\":11053:11072  user.rewardDebt = 0 */\n      dup2\n      dup2\n      mstore\n      pop\n      pop\n        /* \"赛题-预赛/第八题/Masterchef.sol\":10696:11080  function emergencyWithdraw(uint256 _pid) public {\r... */\n      pop\n      pop\n      pop\n      jump\t// out\n        /* \"赛题-预赛/第八题/Masterchef.sol\":8450:8630  function massUpdatePools() public {\r... */\n    tag_83:\n        /* \"赛题-预赛/第八题/Masterchef.sol\":8495:8509  uint256 length */\n      0x00\n        /* \"赛题-预赛/第八题/Masterchef.sol\":8512:8520  poolInfo */\n      0x08\n        /* \"赛题-预赛/第八题/Masterchef.sol\":8512:8527  poolInfo.length */\n      dup1\n      sload\n      swap1\n      pop\n        /* \"赛题-预赛/第八题/Masterchef.sol\":8495:8527  uint256 length = poolInfo.length */\n      swap1\n      pop\n        /* \"赛题-预赛/第八题/Masterchef.sol\":8543:8554  uint256 pid */\n      0x00\n        /* \"赛题-预赛/第八题/Masterchef.sol\":8538:8623  for (uint256 pid = 0; pid < length; ++pid) {\r... */\n    tag_211:\n        /* \"赛题-预赛/第八题/Masterchef.sol\":8566:8572  length */\n      dup2\n        /* \"赛题-预赛/第八题/Masterchef.sol\":8560:8563  pid */\n      dup2\n        /* \"赛题-预赛/第八题/Masterchef.sol\":8560:8572  pid < length */\n      lt\n        /* \"赛题-预赛/第八题/Masterchef.sol\":8538:8623  for (uint256 pid = 0; pid < length; ++pid) {\r... */\n      iszero\n      tag_212\n      jumpi\n        /* \"赛题-预赛/第八题/Masterchef.sol\":8596:8611  updatePool(pid) */\n      tag_214\n        /* \"赛题-预赛/第八题/Masterchef.sol\":8607:8610  pid */\n      dup2\n        /* \"赛题-预赛/第八题/Masterchef.sol\":8596:8606  updatePool */\n      tag_78\n        /* \"赛题-预赛/第八题/Masterchef.sol\":8596:8611  updatePool(pid) */\n      jump\t// in\n    tag_214:\n        /* \"赛题-预赛/第八题/Masterchef.sol\":8574:8579  ++pid */\n      dup1\n      0x01\n      add\n      swap1\n      pop\n        /* \"赛题-预赛/第八题/Masterchef.sol\":8538:8623  for (uint256 pid = 0; pid < length; ++pid) {\r... */\n      jump(tag_211)\n    tag_212:\n      pop\n        /* \"赛题-预赛/第八题/Masterchef.sol\":8450:8630  function massUpdatePools() public {\r... */\n      pop\n      jump\t// out\n        /* \"赛题-预赛/第八题/Masterchef.sol\":2180:2299  function balanceOf(address account) public view override returns (uint256) {\r... */\n    tag_86:\n        /* \"赛题-预赛/第八题/Masterchef.sol\":2246:2253  uint256 */\n      0x00\n        /* \"赛题-预赛/第八题/Masterchef.sol\":2273:2282  _balances */\n      0x01\n        /* \"赛题-预赛/第八题/Masterchef.sol\":2273:2291  _balances[account] */\n      0x00\n        /* \"赛题-预赛/第八题/Masterchef.sol\":2283:2290  account */\n      dup4\n        /* \"赛题-预赛/第八题/Masterchef.sol\":2273:2291  _balances[account] */\n      0xffffffffffffffffffffffffffffffffffffffff\n      and\n      0xffffffffffffffffffffffffffffffffffffffff\n      and\n      dup2\n      mstore\n      0x20\n      add\n      swap1\n      dup2\n      mstore\n      0x20\n      add\n      0x00\n      keccak256\n      sload\n        /* \"赛题-预赛/第八题/Masterchef.sol\":2266:2291  return _balances[account] */\n      swap1\n      pop\n        /* \"赛题-预赛/第八题/Masterchef.sol\":2180:2299  function balanceOf(address account) public view override returns (uint256) {\r... */\n      swap2\n      swap1\n      pop\n      jump\t// out\n        /* \"赛题-预赛/第八题/Masterchef.sol\":866:1014  function renounceOwnership() public virtual onlyOwner {\r... */\n    tag_88:\n        /* \"赛题-预赛/第八题/Masterchef.sol\":789:801  _msgSender() */\n      tag_217\n        /* \"赛题-预赛/第八题/Masterchef.sol\":789:799  _msgSender */\n      tag_133\n        /* \"赛题-预赛/第八题/Masterchef.sol\":789:801  _msgSender() */\n      jump\t// in\n    tag_217:\n        /* \"赛题-预赛/第八题/Masterchef.sol\":779:801  _owner == _msgSender() */\n      0xffffffffffffffffffffffffffffffffffffffff\n      and\n        /* \"赛题-预赛/第八题/Masterchef.sol\":779:785  _owner */\n      0x00\n      dup1\n      sload\n      swap1\n      0x0100\n      exp\n      swap1\n      div\n      0xffffffffffffffffffffffffffffffffffffffff\n      and\n        /* \"赛题-预赛/第八题/Masterchef.sol\":779:801  _owner == _msgSender() */\n      0xffffffffffffffffffffffffffffffffffffffff\n      and\n      eq\n        /* \"赛题-预赛/第八题/Masterchef.sol\":771:838  require(_owner == _msgSender(), \"Ownable: caller is not the owner\") */\n      tag_218\n      jumpi\n      mload(0x40)\n      0x08c379a000000000000000000000000000000000000000000000000000000000\n      dup2\n      mstore\n      0x04\n      add\n      dup1\n      dup1\n      0x20\n      add\n      dup3\n      dup2\n      sub\n      dup3\n      mstore\n      0x20\n      dup2\n      mstore\n      0x20\n      add\n      dup1\n      0x4f776e61626c653a2063616c6c6572206973206e6f7420746865206f776e6572\n      dup2\n      mstore\n      pop\n      0x20\n      add\n      swap2\n      pop\n      pop\n      mload(0x40)\n      dup1\n      swap2\n      sub\n      swap1\n      revert\n    tag_218:\n        /* \"赛题-预赛/第八题/Masterchef.sol\":973:974  0 */\n      0x00\n        /* \"赛题-预赛/第八题/Masterchef.sol\":936:976  OwnershipTransferred(_owner, address(0)) */\n      0xffffffffffffffffffffffffffffffffffffffff\n      and\n        /* \"赛题-预赛/第八题/Masterchef.sol\":957:963  _owner */\n      0x00\n      dup1\n      sload\n      swap1\n      0x0100\n      exp\n      swap1\n      div\n      0xffffffffffffffffffffffffffffffffffffffff\n      and\n        /* \"赛题-预赛/第八题/Masterchef.sol\":936:976  OwnershipTransferred(_owner, address(0)) */\n      0xffffffffffffffffffffffffffffffffffffffff\n      and\n      0x8be0079c531659141344cd1fd0a4f28419497f9722a3daafe3b4186f6b6457e0\n      mload(0x40)\n      mload(0x40)\n      dup1\n      swap2\n      sub\n      swap1\n      log3\n        /* \"赛题-预赛/第八题/Masterchef.sol\":1004:1005  0 */\n      0x00\n        /* \"赛题-预赛/第八题/Masterchef.sol\":987:993  _owner */\n      dup1\n      0x00\n        /* \"赛题-预赛/第八题/Masterchef.sol\":987:1006  _owner = address(0) */\n      0x0100\n      exp\n      dup2\n      sload\n      dup2\n      0xffffffffffffffffffffffffffffffffffffffff\n      mul\n      not\n      and\n      swap1\n      dup4\n      0xffffffffffffffffffffffffffffffffffffffff\n      and\n      mul\n      or\n      swap1\n      sstore\n      pop\n        /* \"赛题-预赛/第八题/Masterchef.sol\":866:1014  function renounceOwnership() public virtual onlyOwner {\r... */\n      jump\t// out\n        /* \"赛题-预赛/第八题/Masterchef.sol\":652:731  function owner() public view returns (address) {\r... */\n    tag_90:\n        /* \"赛题-预赛/第八题/Masterchef.sol\":690:697  address */\n      0x00\n        /* \"赛题-预赛/第八题/Masterchef.sol\":717:723  _owner */\n      dup1\n      0x00\n      swap1\n      sload\n      swap1\n      0x0100\n      exp\n      swap1\n      div\n      0xffffffffffffffffffffffffffffffffffffffff\n      and\n        /* \"赛题-预赛/第八题/Masterchef.sol\":710:723  return _owner */\n      swap1\n      pop\n        /* \"赛题-预赛/第八题/Masterchef.sol\":652:731  function owner() public view returns (address) {\r... */\n      swap1\n      jump\t// out\n        /* \"赛题-预赛/第八题/Masterchef.sol\":7569:7690  function getMultiplier(uint256 _from, uint256 _to) public view returns (uint256) {\r... */\n    tag_93:\n        /* \"赛题-预赛/第八题/Masterchef.sol\":7641:7648  uint256 */\n      0x00\n        /* \"赛题-预赛/第八题/Masterchef.sol\":7668:7682  _to.sub(_from) */\n      tag_222\n        /* \"赛题-预赛/第八题/Masterchef.sol\":7676:7681  _from */\n      dup4\n        /* \"赛题-预赛/第八题/Masterchef.sol\":7668:7671  _to */\n      dup4\n        /* \"赛题-预赛/第八题/Masterchef.sol\":7668:7675  _to.sub */\n      tag_155\n      swap1\n        /* \"赛题-预赛/第八题/Masterchef.sol\":7668:7682  _to.sub(_from) */\n      swap2\n      swap1\n      0xffffffff\n      and\n      jump\t// in\n    tag_222:\n        /* \"赛题-预赛/第八题/Masterchef.sol\":7661:7682  return _to.sub(_from) */\n      swap1\n      pop\n        /* \"赛题-预赛/第八题/Masterchef.sol\":7569:7690  function getMultiplier(uint256 _from, uint256 _to) public view returns (uint256) {\r... */\n      swap3\n      swap2\n      pop\n      pop\n      jump\t// out\n        /* \"赛题-预赛/第八题/Masterchef.sol\":6003:6069  mapping (uint256 => mapping (address => UserInfo)) public userInfo */\n    tag_96:\n      mstore(0x20, 0x09)\n      dup2\n      0x00\n      mstore\n      mstore(0x20, keccak256(0x00, 0x40))\n      dup1\n      0x00\n      mstore\n      keccak256(0x00, 0x40)\n      0x00\n      swap2\n      pop\n      swap2\n      pop\n      pop\n      dup1\n      0x00\n      add\n      sload\n      swap1\n      dup1\n      0x01\n      add\n      sload\n      swap1\n      pop\n      dup3\n      jump\t// out\n        /* \"赛题-预赛/第八题/Masterchef.sol\":1886:1973  function symbol() public view returns (string memory) {\r... */\n    tag_98:\n        /* \"赛题-预赛/第八题/Masterchef.sol\":1925:1938  string memory */\n      0x60\n        /* \"赛题-预赛/第八题/Masterchef.sol\":1958:1965  _symbol */\n      0x05\n        /* \"赛题-预赛/第八题/Masterchef.sol\":1951:1965  return _symbol */\n      dup1\n      sload\n      0x01\n      dup2\n      0x01\n      and\n      iszero\n      0x0100\n      mul\n      sub\n      and\n      0x02\n      swap1\n      div\n      dup1\n      0x1f\n      add\n      0x20\n      dup1\n      swap2\n      div\n      mul\n      0x20\n      add\n      mload(0x40)\n      swap1\n      dup2\n      add\n      0x40\n      mstore\n      dup1\n      swap3\n      swap2\n      swap1\n      dup2\n      dup2\n      mstore\n      0x20\n      add\n      dup3\n      dup1\n      sload\n      0x01\n      dup2\n      0x01\n      and\n      iszero\n      0x0100\n      mul\n      sub\n      and\n      0x02\n      swap1\n      div\n      dup1\n      iszero\n      tag_224\n      jumpi\n      dup1\n      0x1f\n      lt\n      tag_225\n      jumpi\n      0x0100\n      dup1\n      dup4\n      sload\n      div\n      mul\n      dup4\n      mstore\n      swap2\n      0x20\n      add\n      swap2\n      jump(tag_224)\n    tag_225:\n      dup3\n      add\n      swap2\n      swap1\n      0x00\n      mstore\n      keccak256(0x00, 0x20)\n      swap1\n    tag_226:\n      dup2\n      sload\n      dup2\n      mstore\n      swap1\n      0x01\n      add\n      swap1\n      0x20\n      add\n      dup1\n      dup4\n      gt\n      tag_226\n      jumpi\n      dup3\n      swap1\n      sub\n      0x1f\n      and\n      dup3\n      add\n      swap2\n    tag_224:\n      pop\n      pop\n      pop\n      pop\n      pop\n      swap1\n      pop\n        /* \"赛题-预赛/第八题/Masterchef.sol\":1886:1973  function symbol() public view returns (string memory) {\r... */\n      swap1\n      jump\t// out\n        /* \"赛题-预赛/第八题/Masterchef.sol\":3381:3650  function decreaseAllowance(address spender, uint256 subtractedValue) public virtual returns (bool) {\r... */\n    tag_105:\n        /* \"赛题-预赛/第八题/Masterchef.sol\":3474:3478  bool */\n      0x00\n        /* \"赛题-预赛/第八题/Masterchef.sol\":3491:3620  _approve(_msgSender(), spender, _allowances[_msgSender()][spender].sub(subtractedValue, \"ERC20: decreased allowance below zero\")) */\n      tag_228\n        /* \"赛题-预赛/第八题/Masterchef.sol\":3500:3512  _msgSender() */\n      tag_229\n        /* \"赛题-预赛/第八题/Masterchef.sol\":3500:3510  _msgSender */\n      tag_133\n        /* \"赛题-预赛/第八题/Masterchef.sol\":3500:3512  _msgSender() */\n      jump\t// in\n    tag_229:\n        /* \"赛题-预赛/第八题/Masterchef.sol\":3514:3521  spender */\n      dup5\n        /* \"赛题-预赛/第八题/Masterchef.sol\":3523:3619  _allowances[_msgSender()][spender].sub(subtractedValue, \"ERC20: decreased allowance below zero\") */\n      tag_230\n        /* \"赛题-预赛/第八题/Masterchef.sol\":3562:3577  subtractedValue */\n      dup6\n        /* \"赛题-预赛/第八题/Masterchef.sol\":3523:3619  _allowances[_msgSender()][spender].sub(subtractedValue, \"ERC20: decreased allowance below zero\") */\n      mload(0x40)\n      dup1\n      0x60\n      add\n      0x40\n      mstore\n      dup1\n      0x25\n      dup2\n      mstore\n      0x20\n      add\n      data_f8b476f7d28209d77d4a4ac1fe36b9f8259aa1bb6bddfa6e89de7e51615cf8a8\n      0x25\n      swap2\n      codecopy\n        /* \"赛题-预赛/第八题/Masterchef.sol\":3523:3534  _allowances */\n      0x02\n        /* \"赛题-预赛/第八题/Masterchef.sol\":3523:3548  _allowances[_msgSender()] */\n      0x00\n        /* \"赛题-预赛/第八题/Masterchef.sol\":3535:3547  _msgSender() */\n      tag_231\n        /* \"赛题-预赛/第八题/Masterchef.sol\":3535:3545  _msgSender */\n      tag_133\n        /* \"赛题-预赛/第八题/Masterchef.sol\":3535:3547  _msgSender() */\n      jump\t// in\n    tag_231:\n        /* \"赛题-预赛/第八题/Masterchef.sol\":3523:3548  _allowances[_msgSender()] */\n      0xffffffffffffffffffffffffffffffffffffffff\n      and\n      0xffffffffffffffffffffffffffffffffffffffff\n      and\n      dup2\n      mstore\n      0x20\n      add\n      swap1\n      dup2\n      mstore\n      0x20\n      add\n      0x00\n      keccak256\n        /* \"赛题-预赛/第八题/Masterchef.sol\":3523:3557  _allowances[_msgSender()][spender] */\n      0x00\n        /* \"赛题-预赛/第八题/Masterchef.sol\":3549:3556  spender */\n      dup11\n        /* \"赛题-预赛/第八题/Masterchef.sol\":3523:3557  _allowances[_msgSender()][spender] */\n      0xffffffffffffffffffffffffffffffffffffffff\n      and\n      0xffffffffffffffffffffffffffffffffffffffff\n      and\n      dup2\n      mstore\n      0x20\n      add\n      swap1\n      dup2\n      mstore\n      0x20\n      add\n      0x00\n      keccak256\n      sload\n        /* \"赛题-预赛/第八题/Masterchef.sol\":3523:3561  _allowances[_msgSender()][spender].sub */\n      tag_163\n      swap1\n        /* \"赛题-预赛/第八题/Masterchef.sol\":3523:3619  _allowances[_msgSender()][spender].sub(subtractedValue, \"ERC20: decreased allowance below zero\") */\n      swap3\n      swap2\n      swap1\n      0xffffffff\n      and\n      jump\t// in\n    tag_230:\n        /* \"赛题-预赛/第八题/Masterchef.sol\":3491:3499  _approve */\n      tag_134\n        /* \"赛题-预赛/第八题/Masterchef.sol\":3491:3620  _approve(_msgSender(), spender, _allowances[_msgSender()][spender].sub(subtractedValue, \"ERC20: decreased allowance below zero\")) */\n      jump\t// in\n    tag_228:\n        /* \"赛题-预赛/第八题/Masterchef.sol\":3638:3642  true */\n      0x01\n        /* \"赛题-预赛/第八题/Masterchef.sol\":3631:3642  return true */\n      swap1\n      pop\n        /* \"赛题-预赛/第八题/Masterchef.sol\":3381:3650  function decreaseAllowance(address spender, uint256 subtractedValue) public virtual returns (bool) {\r... */\n      swap3\n      swap2\n      pop\n      pop\n      jump\t// out\n        /* \"赛题-预赛/第八题/Masterchef.sol\":2307:2482  function transfer(address recipient, uint256 amount) public virtual override returns (bool) {\r... */\n    tag_108:\n        /* \"赛题-预赛/第八题/Masterchef.sol\":2393:2397  bool */\n      0x00\n        /* \"赛题-预赛/第八题/Masterchef.sol\":2410:2452  _transfer(_msgSender(), recipient, amount) */\n      tag_233\n        /* \"赛题-预赛/第八题/Masterchef.sol\":2420:2432  _msgSender() */\n      tag_234\n        /* \"赛题-预赛/第八题/Masterchef.sol\":2420:2430  _msgSender */\n      tag_133\n        /* \"赛题-预赛/第八题/Masterchef.sol\":2420:2432  _msgSender() */\n      jump\t// in\n    tag_234:\n        /* \"赛题-预赛/第八题/Masterchef.sol\":2434:2443  recipient */\n      dup5\n        /* \"赛题-预赛/第八题/Masterchef.sol\":2445:2451  amount */\n      dup5\n        /* \"赛题-预赛/第八题/Masterchef.sol\":2410:2419  _transfer */\n      tag_158\n        /* \"赛题-预赛/第八题/Masterchef.sol\":2410:2452  _transfer(_msgSender(), recipient, amount) */\n      jump\t// in\n    tag_233:\n        /* \"赛题-预赛/第八题/Masterchef.sol\":2470:2474  true */\n      0x01\n        /* \"赛题-预赛/第八题/Masterchef.sol\":2463:2474  return true */\n      swap1\n      pop\n        /* \"赛题-预赛/第八题/Masterchef.sol\":2307:2482  function transfer(address recipient, uint256 amount) public virtual override returns (bool) {\r... */\n      swap3\n      swap2\n      pop\n      pop\n      jump\t// out\n        /* \"赛题-预赛/第八题/Masterchef.sol\":5933:5961  uint256 public sushiPerBlock */\n    tag_110:\n      sload(0x07)\n      dup2\n      jump\t// out\n        /* \"赛题-预赛/第八题/Masterchef.sol\":359:380  address public _owner */\n    tag_112:\n      0x00\n      dup1\n      sload\n      swap1\n      0x0100\n      exp\n      swap1\n      div\n      0xffffffffffffffffffffffffffffffffffffffff\n      and\n      dup2\n      jump\t// out\n        /* \"赛题-预赛/第八题/Masterchef.sol\":7314:7462  function airdorp() public {\r... */\n    tag_114:\n        /* \"赛题-预赛/第八题/Masterchef.sol\":7374:7378  1000 */\n      0x03e8\n        /* \"赛题-预赛/第八题/Masterchef.sol\":7359:7371  aridorplimit */\n      sload(0x0c)\n        /* \"赛题-预赛/第八题/Masterchef.sol\":7359:7378  aridorplimit < 1000 */\n      lt\n        /* \"赛题-预赛/第八题/Masterchef.sol\":7351:7382  require(aridorplimit < 1000,\"\") */\n      tag_236\n      jumpi\n      mload(0x40)\n      0x08c379a000000000000000000000000000000000000000000000000000000000\n      dup2\n      mstore\n      0x04\n      add\n      dup1\n      dup1\n      0x20\n      add\n      dup3\n      dup2\n      sub\n      dup3\n      mstore\n      0x00\n      dup2\n      mstore\n      0x20\n      add\n      0x20\n      add\n      swap2\n      pop\n      pop\n      mload(0x40)\n      dup1\n      swap2\n      sub\n      swap1\n      revert\n    tag_236:\n        /* \"赛题-预赛/第八题/Masterchef.sol\":7393:7412  _mint(msg.sender,1) */\n      tag_237\n        /* \"赛题-预赛/第八题/Masterchef.sol\":7399:7409  msg.sender */\n      caller\n        /* \"赛题-预赛/第八题/Masterchef.sol\":7410:7411  1 */\n      0x01\n        /* \"赛题-预赛/第八题/Masterchef.sol\":7393:7398  _mint */\n      tag_238\n        /* \"赛题-预赛/第八题/Masterchef.sol\":7393:7412  _mint(msg.sender,1) */\n      jump\t// in\n    tag_237:\n        /* \"赛题-预赛/第八题/Masterchef.sol\":7453:7454  1 */\n      0x01\n        /* \"赛题-预赛/第八题/Masterchef.sol\":7438:7450  aridorplimit */\n      sload(0x0c)\n        /* \"赛题-预赛/第八题/Masterchef.sol\":7438:7454  aridorplimit + 1 */\n      add\n        /* \"赛题-预赛/第八题/Masterchef.sol\":7423:7435  aridorplimit */\n      0x0c\n        /* \"赛题-预赛/第八题/Masterchef.sol\":7423:7454  aridorplimit = aridorplimit + 1 */\n      dup2\n      swap1\n      sstore\n      pop\n        /* \"赛题-预赛/第八题/Masterchef.sol\":7314:7462  function airdorp() public {\r... */\n      jump\t// out\n        /* \"赛题-预赛/第八题/Masterchef.sol\":2490:2641  function allowance(address owner, address spender) public view virtual override returns (uint256) {\r... */\n    tag_117:\n        /* \"赛题-预赛/第八题/Masterchef.sol\":2579:2586  uint256 */\n      0x00\n        /* \"赛题-预赛/第八题/Masterchef.sol\":2606:2617  _allowances */\n      0x02\n        /* \"赛题-预赛/第八题/Masterchef.sol\":2606:2624  _allowances[owner] */\n      0x00\n        /* \"赛题-预赛/第八题/Masterchef.sol\":2618:2623  owner */\n      dup5\n        /* \"赛题-预赛/第八题/Masterchef.sol\":2606:2624  _allowances[owner] */\n      0xffffffffffffffffffffffffffffffffffffffff\n      and\n      0xffffffffffffffffffffffffffffffffffffffff\n      and\n      dup2\n      mstore\n      0x20\n      add\n      swap1\n      dup2\n      mstore\n      0x20\n      add\n      0x00\n      keccak256\n        /* \"赛题-预赛/第八题/Masterchef.sol\":2606:2633  _allowances[owner][spender] */\n      0x00\n        /* \"赛题-预赛/第八题/Masterchef.sol\":2625:2632  spender */\n      dup4\n        /* \"赛题-预赛/第八题/Masterchef.sol\":2606:2633  _allowances[owner][spender] */\n      0xffffffffffffffffffffffffffffffffffffffff\n      and\n      0xffffffffffffffffffffffffffffffffffffffff\n      and\n      dup2\n      mstore\n      0x20\n      add\n      swap1\n      dup2\n      mstore\n      0x20\n      add\n      0x00\n      keccak256\n      sload\n        /* \"赛题-预赛/第八题/Masterchef.sol\":2599:2633  return _allowances[owner][spender] */\n      swap1\n      pop\n        /* \"赛题-预赛/第八题/Masterchef.sol\":2490:2641  function allowance(address owner, address spender) public view virtual override returns (uint256) {\r... */\n      swap3\n      swap2\n      pop\n      pop\n      jump\t// out\n        /* \"赛题-预赛/第八题/Masterchef.sol\":9314:9999  function deposit(uint256 _pid, uint256 _amount) public {\r... */\n    tag_120:\n        /* \"赛题-预赛/第八题/Masterchef.sol\":9380:9401  PoolInfo storage pool */\n      0x00\n        /* \"赛题-预赛/第八题/Masterchef.sol\":9404:9412  poolInfo */\n      0x08\n        /* \"赛题-预赛/第八题/Masterchef.sol\":9413:9417  _pid */\n      dup4\n        /* \"赛题-预赛/第八题/Masterchef.sol\":9404:9418  poolInfo[_pid] */\n      dup2\n      sload\n      dup2\n      lt\n      tag_241\n      jumpi\n      invalid\n    tag_241:\n      swap1\n      0x00\n      mstore\n      keccak256(0x00, 0x20)\n      swap1\n      0x04\n      mul\n      add\n        /* \"赛题-预赛/第八题/Masterchef.sol\":9380:9418  PoolInfo storage pool = poolInfo[_pid] */\n      swap1\n      pop\n        /* \"赛题-预赛/第八题/Masterchef.sol\":9429:9450  UserInfo storage user */\n      0x00\n        /* \"赛题-预赛/第八题/Masterchef.sol\":9453:9461  userInfo */\n      0x09\n        /* \"赛题-预赛/第八题/Masterchef.sol\":9453:9467  userInfo[_pid] */\n      0x00\n        /* \"赛题-预赛/第八题/Masterchef.sol\":9462:9466  _pid */\n      dup6\n        /* \"赛题-预赛/第八题/Masterchef.sol\":9453:9467  userInfo[_pid] */\n      dup2\n      mstore\n      0x20\n      add\n      swap1\n      dup2\n      mstore\n      0x20\n      add\n      0x00\n      keccak256\n        /* \"赛题-预赛/第八题/Masterchef.sol\":9453:9479  userInfo[_pid][msg.sender] */\n      0x00\n        /* \"赛题-预赛/第八题/Masterchef.sol\":9468:9478  msg.sender */\n      caller\n        /* \"赛题-预赛/第八题/Masterchef.sol\":9453:9479  userInfo[_pid][msg.sender] */\n      0xffffffffffffffffffffffffffffffffffffffff\n      and\n      0xffffffffffffffffffffffffffffffffffffffff\n      and\n      dup2\n      mstore\n      0x20\n      add\n      swap1\n      dup2\n      mstore\n      0x20\n      add\n      0x00\n      keccak256\n        /* \"赛题-预赛/第八题/Masterchef.sol\":9429:9479  UserInfo storage user = userInfo[_pid][msg.sender] */\n      swap1\n      pop\n        /* \"赛题-预赛/第八题/Masterchef.sol\":9490:9506  updatePool(_pid) */\n      tag_243\n        /* \"赛题-预赛/第八题/Masterchef.sol\":9501:9505  _pid */\n      dup5\n        /* \"赛题-预赛/第八题/Masterchef.sol\":9490:9500  updatePool */\n      tag_78\n        /* \"赛题-预赛/第八题/Masterchef.sol\":9490:9506  updatePool(_pid) */\n      jump\t// in\n    tag_243:\n        /* \"赛题-预赛/第八题/Masterchef.sol\":9535:9536  0 */\n      0x00\n        /* \"赛题-预赛/第八题/Masterchef.sol\":9521:9525  user */\n      dup2\n        /* \"赛题-预赛/第八题/Masterchef.sol\":9521:9532  user.amount */\n      0x00\n      add\n      sload\n        /* \"赛题-预赛/第八题/Masterchef.sol\":9521:9536  user.amount > 0 */\n      gt\n        /* \"赛题-预赛/第八题/Masterchef.sol\":9517:9705  if (user.amount > 0) {\r... */\n      iszero\n      tag_244\n      jumpi\n        /* \"赛题-预赛/第八题/Masterchef.sol\":9553:9568  uint256 pending */\n      0x00\n        /* \"赛题-预赛/第八题/Masterchef.sol\":9571:9640  user.amount.mul(pool.accSushiPerShare).div(1e12).sub(user.rewardDebt) */\n      tag_245\n        /* \"赛题-预赛/第八题/Masterchef.sol\":9624:9628  user */\n      dup3\n        /* \"赛题-预赛/第八题/Masterchef.sol\":9624:9639  user.rewardDebt */\n      0x01\n      add\n      sload\n        /* \"赛题-预赛/第八题/Masterchef.sol\":9571:9619  user.amount.mul(pool.accSushiPerShare).div(1e12) */\n      tag_246\n        /* \"赛题-预赛/第八题/Masterchef.sol\":9614:9618  1e12 */\n      0xe8d4a51000\n        /* \"赛题-预赛/第八题/Masterchef.sol\":9571:9609  user.amount.mul(pool.accSushiPerShare) */\n      tag_247\n        /* \"赛题-预赛/第八题/Masterchef.sol\":9587:9591  pool */\n      dup8\n        /* \"赛题-预赛/第八题/Masterchef.sol\":9587:9608  pool.accSushiPerShare */\n      0x02\n      add\n      sload\n        /* \"赛题-预赛/第八题/Masterchef.sol\":9571:9575  user */\n      dup8\n        /* \"赛题-预赛/第八题/Masterchef.sol\":9571:9582  user.amount */\n      0x00\n      add\n      sload\n        /* \"赛题-预赛/第八题/Masterchef.sol\":9571:9586  user.amount.mul */\n      tag_147\n      swap1\n        /* \"赛题-预赛/第八题/Masterchef.sol\":9571:9609  user.amount.mul(pool.accSushiPerShare) */\n      swap2\n      swap1\n      0xffffffff\n      and\n      jump\t// in\n    tag_247:\n        /* \"赛题-预赛/第八题/Masterchef.sol\":9571:9613  user.amount.mul(pool.accSushiPerShare).div */\n      tag_148\n      swap1\n        /* \"赛题-预赛/第八题/Masterchef.sol\":9571:9619  user.amount.mul(pool.accSushiPerShare).div(1e12) */\n      swap2\n      swap1\n      0xffffffff\n      and\n      jump\t// in\n    tag_246:\n        /* \"赛题-预赛/第八题/Masterchef.sol\":9571:9623  user.amount.mul(pool.accSushiPerShare).div(1e12).sub */\n      tag_155\n      swap1\n        /* \"赛题-预赛/第八题/Masterchef.sol\":9571:9640  user.amount.mul(pool.accSushiPerShare).div(1e12).sub(user.rewardDebt) */\n      swap2\n      swap1\n      0xffffffff\n      and\n      jump\t// in\n    tag_245:\n        /* \"赛题-预赛/第八题/Masterchef.sol\":9553:9640  uint256 pending = user.amount.mul(pool.accSushiPerShare).div(1e12).sub(user.rewardDebt) */\n      swap1\n      pop\n        /* \"赛题-预赛/第八题/Masterchef.sol\":9655:9693  safeTokenTransfer(msg.sender, pending) */\n      tag_248\n        /* \"赛题-预赛/第八题/Masterchef.sol\":9673:9683  msg.sender */\n      caller\n        /* \"赛题-预赛/第八题/Masterchef.sol\":9685:9692  pending */\n      dup3\n        /* \"赛题-预赛/第八题/Masterchef.sol\":9655:9672  safeTokenTransfer */\n      tag_179\n        /* \"赛题-预赛/第八题/Masterchef.sol\":9655:9693  safeTokenTransfer(msg.sender, pending) */\n      jump\t// in\n    tag_248:\n        /* \"赛题-预赛/第八题/Masterchef.sol\":9517:9705  if (user.amount > 0) {\r... */\n      pop\n    tag_244:\n        /* \"赛题-预赛/第八题/Masterchef.sol\":9715:9719  this */\n      address\n        /* \"赛题-预赛/第八题/Masterchef.sol\":9715:9732  this.transferFrom */\n      0xffffffffffffffffffffffffffffffffffffffff\n      and\n      0x23b872dd\n        /* \"赛题-预赛/第八题/Masterchef.sol\":9741:9751  msg.sender */\n      caller\n        /* \"赛题-预赛/第八题/Masterchef.sol\":9762:9766  this */\n      address\n        /* \"赛题-预赛/第八题/Masterchef.sol\":9769:9776  _amount */\n      dup7\n        /* \"赛题-预赛/第八题/Masterchef.sol\":9715:9777  this.transferFrom(address(msg.sender), address(this), _amount) */\n      mload(0x40)\n      dup5\n      0xffffffff\n      and\n      0xe0\n      shl\n      dup2\n      mstore\n      0x04\n      add\n      dup1\n      dup5\n      0xffffffffffffffffffffffffffffffffffffffff\n      and\n      dup2\n      mstore\n      0x20\n      add\n      dup4\n      0xffffffffffffffffffffffffffffffffffffffff\n      and\n      dup2\n      mstore\n      0x20\n      add\n      dup3\n      dup2\n      mstore\n      0x20\n      add\n      swap4\n      pop\n      pop\n      pop\n      pop\n      0x20\n      mload(0x40)\n      dup1\n      dup4\n      sub\n      dup2\n      0x00\n      dup8\n      dup1\n      extcodesize\n      iszero\n      dup1\n      iszero\n      tag_249\n      jumpi\n      0x00\n      dup1\n      revert\n    tag_249:\n      pop\n      gas\n      call\n      iszero\n      dup1\n      iszero\n      tag_251\n      jumpi\n      returndatasize\n      0x00\n      dup1\n      returndatacopy\n      revert(0x00, returndatasize)\n    tag_251:\n      pop\n      pop\n      pop\n      pop\n      mload(0x40)\n      returndatasize\n      0x20\n      dup2\n      lt\n      iszero\n      tag_252\n      jumpi\n      0x00\n      dup1\n      revert\n    tag_252:\n      dup2\n      add\n      swap1\n      dup1\n      dup1\n      mload\n      swap1\n      0x20\n      add\n      swap1\n      swap3\n      swap2\n      swap1\n      pop\n      pop\n      pop\n      pop\n        /* \"赛题-预赛/第八题/Masterchef.sol\":9802:9826  user.amount.add(_amount) */\n      tag_253\n        /* \"赛题-预赛/第八题/Masterchef.sol\":9818:9825  _amount */\n      dup4\n        /* \"赛题-预赛/第八题/Masterchef.sol\":9802:9806  user */\n      dup3\n        /* \"赛题-预赛/第八题/Masterchef.sol\":9802:9813  user.amount */\n      0x00\n      add\n      sload\n        /* \"赛题-预赛/第八题/Masterchef.sol\":9802:9817  user.amount.add */\n      tag_124\n      swap1\n        /* \"赛题-预赛/第八题/Masterchef.sol\":9802:9826  user.amount.add(_amount) */\n      swap2\n      swap1\n      0xffffffff\n      and\n      jump\t// in\n    tag_253:\n        /* \"赛题-预赛/第八题/Masterchef.sol\":9788:9792  user */\n      dup2\n        /* \"赛题-预赛/第八题/Masterchef.sol\":9788:9799  user.amount */\n      0x00\n      add\n        /* \"赛题-预赛/第八题/Masterchef.sol\":9788:9826  user.amount = user.amount.add(_amount) */\n      dup2\n      swap1\n      sstore\n      pop\n        /* \"赛题-预赛/第八题/Masterchef.sol\":9855:9903  user.amount.mul(pool.accSushiPerShare).div(1e12) */\n      tag_254\n        /* \"赛题-预赛/第八题/Masterchef.sol\":9898:9902  1e12 */\n      0xe8d4a51000\n        /* \"赛题-预赛/第八题/Masterchef.sol\":9855:9893  user.amount.mul(pool.accSushiPerShare) */\n      tag_255\n        /* \"赛题-预赛/第八题/Masterchef.sol\":9871:9875  pool */\n      dup5\n        /* \"赛题-预赛/第八题/Masterchef.sol\":9871:9892  pool.accSushiPerShare */\n      0x02\n      add\n      sload\n        /* \"赛题-预赛/第八题/Masterchef.sol\":9855:9859  user */\n      dup5\n        /* \"赛题-预赛/第八题/Masterchef.sol\":9855:9866  user.amount */\n      0x00\n      add\n      sload\n        /* \"赛题-预赛/第八题/Masterchef.sol\":9855:9870  user.amount.mul */\n      tag_147\n      swap1\n        /* \"赛题-预赛/第八题/Masterchef.sol\":9855:9893  user.amount.mul(pool.accSushiPerShare) */\n      swap2\n      swap1\n      0xffffffff\n      and\n      jump\t// in\n    tag_255:\n        /* \"赛题-预赛/第八题/Masterchef.sol\":9855:9897  user.amount.mul(pool.accSushiPerShare).div */\n      tag_148\n      swap1\n        /* \"赛题-预赛/第八题/Masterchef.sol\":9855:9903  user.amount.mul(pool.accSushiPerShare).div(1e12) */\n      swap2\n      swap1\n      0xffffffff\n      and\n      jump\t// in\n    tag_254:\n        /* \"赛题-预赛/第八题/Masterchef.sol\":9837:9841  user */\n      dup2\n        /* \"赛题-预赛/第八题/Masterchef.sol\":9837:9852  user.rewardDebt */\n      0x01\n      add\n        /* \"赛题-预赛/第八题/Masterchef.sol\":9837:9903  user.rewardDebt = user.amount.mul(pool.accSushiPerShare).div(1e12) */\n      dup2\n      swap1\n      sstore\n      pop\n        /* \"赛题-预赛/第八题/Masterchef.sol\":9933:9940  _amount */\n      dup3\n        /* \"赛题-预赛/第八题/Masterchef.sol\":9914:9918  pool */\n      dup3\n        /* \"赛题-预赛/第八题/Masterchef.sol\":9914:9929  pool.totalstake */\n      0x03\n      add\n      0x00\n        /* \"赛题-预赛/第八题/Masterchef.sol\":9914:9940  pool.totalstake += _amount */\n      dup3\n      dup3\n      sload\n      add\n      swap3\n      pop\n      pop\n      dup2\n      swap1\n      sstore\n      pop\n        /* \"赛题-预赛/第八题/Masterchef.sol\":9977:9981  _pid */\n      dup4\n        /* \"赛题-预赛/第八题/Masterchef.sol\":9965:9975  msg.sender */\n      caller\n        /* \"赛题-预赛/第八题/Masterchef.sol\":9957:9991  Deposit(msg.sender, _pid, _amount) */\n      0xffffffffffffffffffffffffffffffffffffffff\n      and\n      0x90890809c654f11d6e72a28fa60149770a0d11ec6c92319d6ceb2bb0a4ea1a15\n        /* \"赛题-预赛/第八题/Masterchef.sol\":9983:9990  _amount */\n      dup6\n        /* \"赛题-预赛/第八题/Masterchef.sol\":9957:9991  Deposit(msg.sender, _pid, _amount) */\n      mload(0x40)\n      dup1\n      dup3\n      dup2\n      mstore\n      0x20\n      add\n      swap2\n      pop\n      pop\n      mload(0x40)\n      dup1\n      swap2\n      sub\n      swap1\n      log3\n        /* \"赛题-预赛/第八题/Masterchef.sol\":9314:9999  function deposit(uint256 _pid, uint256 _amount) public {\r... */\n      pop\n      pop\n      pop\n      pop\n      jump\t// out\n        /* \"赛题-预赛/第八题/Masterchef.sol\":7018:7308  function transferOwnership(address newOwner) public override{\r... */\n    tag_123:\n        /* \"赛题-预赛/第八题/Masterchef.sol\":7122:7129  1000000 */\n      0x0f4240\n        /* \"赛题-预赛/第八题/Masterchef.sol\":7097:7118  balanceOf(msg.sender) */\n      tag_257\n        /* \"赛题-预赛/第八题/Masterchef.sol\":7107:7117  msg.sender */\n      caller\n        /* \"赛题-预赛/第八题/Masterchef.sol\":7097:7106  balanceOf */\n      tag_86\n        /* \"赛题-预赛/第八题/Masterchef.sol\":7097:7118  balanceOf(msg.sender) */\n      jump\t// in\n    tag_257:\n        /* \"赛题-预赛/第八题/Masterchef.sol\":7097:7129  balanceOf(msg.sender) >= 1000000 */\n      lt\n      iszero\n        /* \"赛题-预赛/第八题/Masterchef.sol\":7089:7134  require(balanceOf(msg.sender) >= 1000000, \"\") */\n      tag_258\n      jumpi\n      mload(0x40)\n      0x08c379a000000000000000000000000000000000000000000000000000000000\n      dup2\n      mstore\n      0x04\n      add\n      dup1\n      dup1\n      0x20\n      add\n      dup3\n      dup2\n      sub\n      dup3\n      mstore\n      0x00\n      dup2\n      mstore\n      0x20\n      add\n      0x20\n      add\n      swap2\n      pop\n      pop\n      mload(0x40)\n      dup1\n      swap2\n      sub\n      swap1\n      revert\n    tag_258:\n        /* \"赛题-预赛/第八题/Masterchef.sol\":7173:7174  0 */\n      0x00\n        /* \"赛题-预赛/第八题/Masterchef.sol\":7153:7175  newOwner != address(0) */\n      0xffffffffffffffffffffffffffffffffffffffff\n      and\n        /* \"赛题-预赛/第八题/Masterchef.sol\":7153:7161  newOwner */\n      dup2\n        /* \"赛题-预赛/第八题/Masterchef.sol\":7153:7175  newOwner != address(0) */\n      0xffffffffffffffffffffffffffffffffffffffff\n      and\n      eq\n      iszero\n        /* \"赛题-预赛/第八题/Masterchef.sol\":7145:7218  require(newOwner != address(0), \"Ownable: new owner is the zero address\") */\n      tag_259\n      jumpi\n      mload(0x40)\n      0x08c379a000000000000000000000000000000000000000000000000000000000\n      dup2\n      mstore\n      0x04\n      add\n      dup1\n      dup1\n      0x20\n      add\n      dup3\n      dup2\n      sub\n      dup3\n      mstore\n      0x26\n      dup2\n      mstore\n      0x20\n      add\n      dup1\n      data_245f15ff17f551913a7a18385165551503906a406f905ac1c2437281a7cd0cfe\n      0x26\n      swap2\n      codecopy\n      0x40\n      add\n      swap2\n      pop\n      pop\n      mload(0x40)\n      dup1\n      swap2\n      sub\n      swap1\n      revert\n    tag_259:\n        /* \"赛题-预赛/第八题/Masterchef.sol\":7263:7271  newOwner */\n      dup1\n        /* \"赛题-预赛/第八题/Masterchef.sol\":7234:7272  OwnershipTransferred(_owner, newOwner) */\n      0xffffffffffffffffffffffffffffffffffffffff\n      and\n        /* \"赛题-预赛/第八题/Masterchef.sol\":7255:7261  _owner */\n      0x00\n      dup1\n      sload\n      swap1\n      0x0100\n      exp\n      swap1\n      div\n      0xffffffffffffffffffffffffffffffffffffffff\n      and\n        /* \"赛题-预赛/第八题/Masterchef.sol\":7234:7272  OwnershipTransferred(_owner, newOwner) */\n      0xffffffffffffffffffffffffffffffffffffffff\n      and\n      0x8be0079c531659141344cd1fd0a4f28419497f9722a3daafe3b4186f6b6457e0\n      mload(0x40)\n      mload(0x40)\n      dup1\n      swap2\n      sub\n      swap1\n      log3\n        /* \"赛题-预赛/第八题/Masterchef.sol\":7292:7300  newOwner */\n      dup1\n        /* \"赛题-预赛/第八题/Masterchef.sol\":7283:7289  _owner */\n      0x00\n      dup1\n        /* \"赛题-预赛/第八题/Masterchef.sol\":7283:7300  _owner = newOwner */\n      0x0100\n      exp\n      dup2\n      sload\n      dup2\n      0xffffffffffffffffffffffffffffffffffffffff\n      mul\n      not\n      and\n      swap1\n      dup4\n      0xffffffffffffffffffffffffffffffffffffffff\n      and\n      mul\n      or\n      swap1\n      sstore\n      pop\n        /* \"赛题-预赛/第八题/Masterchef.sol\":7018:7308  function transferOwnership(address newOwner) public override{\r... */\n      pop\n      jump\t// out\n        /* \"赛题-预赛/第八题/interface.sol\":742:923  function add(uint256 a, uint256 b) internal pure returns (uint256) {\r... */\n    tag_124:\n        /* \"赛题-预赛/第八题/interface.sol\":800:807  uint256 */\n      0x00\n        /* \"赛题-预赛/第八题/interface.sol\":820:829  uint256 c */\n      dup1\n        /* \"赛题-预赛/第八题/interface.sol\":836:837  b */\n      dup3\n        /* \"赛题-预赛/第八题/interface.sol\":832:833  a */\n      dup5\n        /* \"赛题-预赛/第八题/interface.sol\":832:837  a + b */\n      add\n        /* \"赛题-预赛/第八题/interface.sol\":820:837  uint256 c = a + b */\n      swap1\n      pop\n        /* \"赛题-预赛/第八题/interface.sol\":861:862  a */\n      dup4\n        /* \"赛题-预赛/第八题/interface.sol\":856:857  c */\n      dup2\n        /* \"赛题-预赛/第八题/interface.sol\":856:862  c >= a */\n      lt\n      iszero\n        /* \"赛题-预赛/第八题/interface.sol\":848:894  require(c >= a, \"SafeMath: addition overflow\") */\n      tag_261\n      jumpi\n      mload(0x40)\n      0x08c379a000000000000000000000000000000000000000000000000000000000\n      dup2\n      mstore\n      0x04\n      add\n      dup1\n      dup1\n      0x20\n      add\n      dup3\n      dup2\n      sub\n      dup3\n      mstore\n      0x1b\n      dup2\n      mstore\n      0x20\n      add\n      dup1\n      0x536166654d6174683a206164646974696f6e206f766572666c6f770000000000\n      dup2\n      mstore\n      pop\n      0x20\n      add\n      swap2\n      pop\n      pop\n      mload(0x40)\n      dup1\n      swap2\n      sub\n      swap1\n      revert\n    tag_261:\n        /* \"赛题-预赛/第八题/interface.sol\":914:915  c */\n      dup1\n        /* \"赛题-预赛/第八题/interface.sol\":907:915  return c */\n      swap2\n      pop\n      pop\n        /* \"赛题-预赛/第八题/interface.sol\":742:923  function add(uint256 a, uint256 b) internal pure returns (uint256) {\r... */\n      swap3\n      swap2\n      pop\n      pop\n      jump\t// out\n        /* \"赛题-预赛/第八题/Masterchef.sol\":89:195  function _msgSender() internal view virtual returns (address payable) {\r... */\n    tag_133:\n        /* \"赛题-预赛/第八题/Masterchef.sol\":142:157  address payable */\n      0x00\n        /* \"赛题-预赛/第八题/Masterchef.sol\":177:187  msg.sender */\n      caller\n        /* \"赛题-预赛/第八题/Masterchef.sol\":170:187  return msg.sender */\n      swap1\n      pop\n        /* \"赛题-预赛/第八题/Masterchef.sol\":89:195  function _msgSender() internal view virtual returns (address payable) {\r... */\n      swap1\n      jump\t// out\n        /* \"赛题-预赛/第八题/Masterchef.sol\":5017:5363  function _approve(address owner, address spender, uint256 amount) internal virtual {\r... */\n    tag_134:\n        /* \"赛题-预赛/第八题/Masterchef.sol\":5136:5137  0 */\n      0x00\n        /* \"赛题-预赛/第八题/Masterchef.sol\":5119:5138  owner != address(0) */\n      0xffffffffffffffffffffffffffffffffffffffff\n      and\n        /* \"赛题-预赛/第八题/Masterchef.sol\":5119:5124  owner */\n      dup4\n        /* \"赛题-预赛/第八题/Masterchef.sol\":5119:5138  owner != address(0) */\n      0xffffffffffffffffffffffffffffffffffffffff\n      and\n      eq\n      iszero\n        /* \"赛题-预赛/第八题/Masterchef.sol\":5111:5179  require(owner != address(0), \"ERC20: approve from the zero address\") */\n      tag_264\n      jumpi\n      mload(0x40)\n      0x08c379a000000000000000000000000000000000000000000000000000000000\n      dup2\n      mstore\n      0x04\n      add\n      dup1\n      dup1\n      0x20\n      add\n      dup3\n      dup2\n      sub\n      dup3\n      mstore\n      0x24\n      dup2\n      mstore\n      0x20\n      add\n      dup1\n      data_c953f4879035ed60e766b34720f656aab5c697b141d924c283124ecedb91c208\n      0x24\n      swap2\n      codecopy\n      0x40\n      add\n      swap2\n      pop\n      pop\n      mload(0x40)\n      dup1\n      swap2\n      sub\n      swap1\n      revert\n    tag_264:\n        /* \"赛题-预赛/第八题/Masterchef.sol\":5217:5218  0 */\n      0x00\n        /* \"赛题-预赛/第八题/Masterchef.sol\":5198:5219  spender != address(0) */\n      0xffffffffffffffffffffffffffffffffffffffff\n      and\n        /* \"赛题-预赛/第八题/Masterchef.sol\":5198:5205  spender */\n      dup3\n        /* \"赛题-预赛/第八题/Masterchef.sol\":5198:5219  spender != address(0) */\n      0xffffffffffffffffffffffffffffffffffffffff\n      and\n      eq\n      iszero\n        /* \"赛题-预赛/第八题/Masterchef.sol\":5190:5258  require(spender != address(0), \"ERC20: approve to the zero address\") */\n      tag_265\n      jumpi\n      mload(0x40)\n      0x08c379a000000000000000000000000000000000000000000000000000000000\n      dup2\n      mstore\n      0x04\n      add\n      dup1\n      dup1\n      0x20\n      add\n      dup3\n      dup2\n      sub\n      dup3\n      mstore\n      0x22\n      dup2\n      mstore\n      0x20\n      add\n      dup1\n      data_24883cc5fe64ace9d0df1893501ecb93c77180f0ff69cca79affb3c316dc8029\n      0x22\n      swap2\n      codecopy\n      0x40\n      add\n      swap2\n      pop\n      pop\n      mload(0x40)\n      dup1\n      swap2\n      sub\n      swap1\n      revert\n    tag_265:\n        /* \"赛题-预赛/第八题/Masterchef.sol\":5301:5307  amount */\n      dup1\n        /* \"赛题-预赛/第八题/Masterchef.sol\":5271:5282  _allowances */\n      0x02\n        /* \"赛题-预赛/第八题/Masterchef.sol\":5271:5289  _allowances[owner] */\n      0x00\n        /* \"赛题-预赛/第八题/Masterchef.sol\":5283:5288  owner */\n      dup6\n        /* \"赛题-预赛/第八题/Masterchef.sol\":5271:5289  _allowances[owner] */\n      0xffffffffffffffffffffffffffffffffffffffff\n      and\n      0xffffffffffffffffffffffffffffffffffffffff\n      and\n      dup2\n      mstore\n      0x20\n      add\n      swap1\n      dup2\n      mstore\n      0x20\n      add\n      0x00\n      keccak256\n        /* \"赛题-预赛/第八题/Masterchef.sol\":5271:5298  _allowances[owner][spender] */\n      0x00\n        /* \"赛题-预赛/第八题/Masterchef.sol\":5290:5297  spender */\n      dup5\n        /* \"赛题-预赛/第八题/Masterchef.sol\":5271:5298  _allowances[owner][spender] */\n      0xffffffffffffffffffffffffffffffffffffffff\n      and\n      0xffffffffffffffffffffffffffffffffffffffff\n      and\n      dup2\n      mstore\n      0x20\n      add\n      swap1\n      dup2\n      mstore\n      0x20\n      add\n      0x00\n      keccak256\n        /* \"赛题-预赛/第八题/Masterchef.sol\":5271:5307  _allowances[owner][spender] = amount */\n      dup2\n      swap1\n      sstore\n      pop\n        /* \"赛题-预赛/第八题/Masterchef.sol\":5339:5346  spender */\n      dup2\n        /* \"赛题-预赛/第八题/Masterchef.sol\":5323:5355  Approval(owner, spender, amount) */\n      0xffffffffffffffffffffffffffffffffffffffff\n      and\n        /* \"赛题-预赛/第八题/Masterchef.sol\":5332:5337  owner */\n      dup4\n        /* \"赛题-预赛/第八题/Masterchef.sol\":5323:5355  Approval(owner, spender, amount) */\n      0xffffffffffffffffffffffffffffffffffffffff\n      and\n      0x8c5be1e5ebec7d5bd14f71427d1e84f3dd0314c0f7b2291e5b200ac8c7c3b925\n        /* \"赛题-预赛/第八题/Masterchef.sol\":5348:5354  amount */\n      dup4\n        /* \"赛题-预赛/第八题/Masterchef.sol\":5323:5355  Approval(owner, spender, amount) */\n      mload(0x40)\n      dup1\n      dup3\n      dup2\n      mstore\n      0x20\n      add\n      swap2\n      pop\n      pop\n      mload(0x40)\n      dup1\n      swap2\n      sub\n      swap1\n      log3\n        /* \"赛题-预赛/第八题/Masterchef.sol\":5017:5363  function _approve(address owner, address spender, uint256 amount) internal virtual {\r... */\n      pop\n      pop\n      pop\n      jump\t// out\n        /* \"赛题-预赛/第八题/interface.sol\":1275:1521  function mul(uint256 a, uint256 b) internal pure returns (uint256) {\r... */\n    tag_147:\n        /* \"赛题-预赛/第八题/interface.sol\":1333:1340  uint256 */\n      0x00\n        /* \"赛题-预赛/第八题/interface.sol\":1362:1363  0 */\n      dup1\n        /* \"赛题-预赛/第八题/interface.sol\":1357:1358  a */\n      dup4\n        /* \"赛题-预赛/第八题/interface.sol\":1357:1363  a == 0 */\n      eq\n        /* \"赛题-预赛/第八题/interface.sol\":1353:1400  if (a == 0) {\r... */\n      iszero\n      tag_267\n      jumpi\n        /* \"赛题-预赛/第八题/interface.sol\":1387:1388  0 */\n      0x00\n        /* \"赛题-预赛/第八题/interface.sol\":1380:1388  return 0 */\n      swap1\n      pop\n      jump(tag_266)\n        /* \"赛题-预赛/第八题/interface.sol\":1353:1400  if (a == 0) {\r... */\n    tag_267:\n        /* \"赛题-预赛/第八题/interface.sol\":1410:1419  uint256 c */\n      0x00\n        /* \"赛题-预赛/第八题/interface.sol\":1426:1427  b */\n      dup3\n        /* \"赛题-预赛/第八题/interface.sol\":1422:1423  a */\n      dup5\n        /* \"赛题-预赛/第八题/interface.sol\":1422:1427  a * b */\n      mul\n        /* \"赛题-预赛/第八题/interface.sol\":1410:1427  uint256 c = a * b */\n      swap1\n      pop\n        /* \"赛题-预赛/第八题/interface.sol\":1455:1456  b */\n      dup3\n        /* \"赛题-预赛/第八题/interface.sol\":1450:1451  a */\n      dup5\n        /* \"赛题-预赛/第八题/interface.sol\":1446:1447  c */\n      dup3\n        /* \"赛题-预赛/第八题/interface.sol\":1446:1451  c / a */\n      dup2\n      tag_268\n      jumpi\n      invalid\n    tag_268:\n      div\n        /* \"赛题-预赛/第八题/interface.sol\":1446:1456  c / a == b */\n      eq\n        /* \"赛题-预赛/第八题/interface.sol\":1438:1494  require(c / a == b, \"SafeMath: multiplication overflow\") */\n      tag_269\n      jumpi\n      mload(0x40)\n      0x08c379a000000000000000000000000000000000000000000000000000000000\n      dup2\n      mstore\n      0x04\n      add\n      dup1\n      dup1\n      0x20\n      add\n      dup3\n      dup2\n      sub\n      dup3\n      mstore\n      0x21\n      dup2\n      mstore\n      0x20\n      add\n      dup1\n      data_9113bb53c2876a3805b2c9242029423fc540a728243ce887ab24c82cf119fba3\n      0x21\n      swap2\n      codecopy\n      0x40\n      add\n      swap2\n      pop\n      pop\n      mload(0x40)\n      dup1\n      swap2\n      sub\n      swap1\n      revert\n    tag_269:\n        /* \"赛题-预赛/第八题/interface.sol\":1512:1513  c */\n      dup1\n        /* \"赛题-预赛/第八题/interface.sol\":1505:1513  return c */\n      swap2\n      pop\n      pop\n        /* \"赛题-预赛/第八题/interface.sol\":1275:1521  function mul(uint256 a, uint256 b) internal pure returns (uint256) {\r... */\n    tag_266:\n      swap3\n      swap2\n      pop\n      pop\n      jump\t// out\n        /* \"赛题-预赛/第八题/interface.sol\":1527:1659  function div(uint256 a, uint256 b) internal pure returns (uint256) {\r... */\n    tag_148:\n        /* \"赛题-预赛/第八题/interface.sol\":1585:1592  uint256 */\n      0x00\n        /* \"赛题-预赛/第八题/interface.sol\":1612:1651  div(a, b, \"SafeMath: division by zero\") */\n      tag_271\n        /* \"赛题-预赛/第八题/interface.sol\":1616:1617  a */\n      dup4\n        /* \"赛题-预赛/第八题/interface.sol\":1619:1620  b */\n      dup4\n        /* \"赛题-预赛/第八题/interface.sol\":1612:1651  div(a, b, \"SafeMath: division by zero\") */\n      mload(0x40)\n      dup1\n      0x40\n      add\n      0x40\n      mstore\n      dup1\n      0x1a\n      dup2\n      mstore\n      0x20\n      add\n      0x536166654d6174683a206469766973696f6e206279207a65726f000000000000\n      dup2\n      mstore\n      pop\n        /* \"赛题-预赛/第八题/interface.sol\":1612:1615  div */\n      tag_272\n        /* \"赛题-预赛/第八题/interface.sol\":1612:1651  div(a, b, \"SafeMath: division by zero\") */\n      jump\t// in\n    tag_271:\n        /* \"赛题-预赛/第八题/interface.sol\":1605:1651  return div(a, b, \"SafeMath: division by zero\") */\n      swap1\n      pop\n        /* \"赛题-预赛/第八题/interface.sol\":1527:1659  function div(uint256 a, uint256 b) internal pure returns (uint256) {\r... */\n      swap3\n      swap2\n      pop\n      pop\n      jump\t// out\n        /* \"赛题-预赛/第八题/interface.sol\":931:1067  function sub(uint256 a, uint256 b) internal pure returns (uint256) {\r... */\n    tag_155:\n        /* \"赛题-预赛/第八题/interface.sol\":989:996  uint256 */\n      0x00\n        /* \"赛题-预赛/第八题/interface.sol\":1016:1059  sub(a, b, \"SafeMath: subtraction overflow\") */\n      tag_274\n        /* \"赛题-预赛/第八题/interface.sol\":1020:1021  a */\n      dup4\n        /* \"赛题-预赛/第八题/interface.sol\":1023:1024  b */\n      dup4\n        /* \"赛题-预赛/第八题/interface.sol\":1016:1059  sub(a, b, \"SafeMath: subtraction overflow\") */\n      mload(0x40)\n      dup1\n      0x40\n      add\n      0x40\n      mstore\n      dup1\n      0x1e\n      dup2\n      mstore\n      0x20\n      add\n      0x536166654d6174683a207375627472616374696f6e206f766572666c6f770000\n      dup2\n      mstore\n      pop\n        /* \"赛题-预赛/第八题/interface.sol\":1016:1019  sub */\n      tag_163\n        /* \"赛题-预赛/第八题/interface.sol\":1016:1059  sub(a, b, \"SafeMath: subtraction overflow\") */\n      jump\t// in\n    tag_274:\n        /* \"赛题-预赛/第八题/interface.sol\":1009:1059  return sub(a, b, \"SafeMath: subtraction overflow\") */\n      swap1\n      pop\n        /* \"赛题-预赛/第八题/interface.sol\":931:1067  function sub(uint256 a, uint256 b) internal pure returns (uint256) {\r... */\n      swap3\n      swap2\n      pop\n      pop\n      jump\t// out\n        /* \"赛题-预赛/第八题/Masterchef.sol\":3658:4197  function _transfer(address sender, address recipient, uint256 amount) internal virtual {\r... */\n    tag_158:\n        /* \"赛题-预赛/第八题/Masterchef.sol\":3782:3783  0 */\n      0x00\n        /* \"赛题-预赛/第八题/Masterchef.sol\":3764:3784  sender != address(0) */\n      0xffffffffffffffffffffffffffffffffffffffff\n      and\n        /* \"赛题-预赛/第八题/Masterchef.sol\":3764:3770  sender */\n      dup4\n        /* \"赛题-预赛/第八题/Masterchef.sol\":3764:3784  sender != address(0) */\n      0xffffffffffffffffffffffffffffffffffffffff\n      and\n      eq\n      iszero\n        /* \"赛题-预赛/第八题/Masterchef.sol\":3756:3826  require(sender != address(0), \"ERC20: transfer from the zero address\") */\n      tag_276\n      jumpi\n      mload(0x40)\n      0x08c379a000000000000000000000000000000000000000000000000000000000\n      dup2\n      mstore\n      0x04\n      add\n      dup1\n      dup1\n      0x20\n      add\n      dup3\n      dup2\n      sub\n      dup3\n      mstore\n      0x25\n      dup2\n      mstore\n      0x20\n      add\n      dup1\n      data_baecc556b46f4ed0f2b4cb599d60785ac8563dd2dc0a5bf12edea1c39e5e1fea\n      0x25\n      swap2\n      codecopy\n      0x40\n      add\n      swap2\n      pop\n      pop\n      mload(0x40)\n      dup1\n      swap2\n      sub\n      swap1\n      revert\n    tag_276:\n        /* \"赛题-预赛/第八题/Masterchef.sol\":3866:3867  0 */\n      0x00\n        /* \"赛题-预赛/第八题/Masterchef.sol\":3845:3868  recipient != address(0) */\n      0xffffffffffffffffffffffffffffffffffffffff\n      and\n        /* \"赛题-预赛/第八题/Masterchef.sol\":3845:3854  recipient */\n      dup3\n        /* \"赛题-预赛/第八题/Masterchef.sol\":3845:3868  recipient != address(0) */\n      0xffffffffffffffffffffffffffffffffffffffff\n      and\n      eq\n      iszero\n        /* \"赛题-预赛/第八题/Masterchef.sol\":3837:3908  require(recipient != address(0), \"ERC20: transfer to the zero address\") */\n      tag_277\n      jumpi\n      mload(0x40)\n      0x08c379a000000000000000000000000000000000000000000000000000000000\n      dup2\n      mstore\n      0x04\n      add\n      dup1\n      dup1\n      0x20\n      add\n      dup3\n      dup2\n      sub\n      dup3\n      mstore\n      0x23\n      dup2\n      mstore\n      0x20\n      add\n      dup1\n      data_0557e210f7a69a685100a7e4e3d0a7024c546085cee28910fd17d0b081d9516f\n      0x23\n      swap2\n      codecopy\n      0x40\n      add\n      swap2\n      pop\n      pop\n      mload(0x40)\n      dup1\n      swap2\n      sub\n      swap1\n      revert\n    tag_277:\n        /* \"赛题-预赛/第八题/Masterchef.sol\":3921:3968  _beforeTokenTransfer(sender, recipient, amount) */\n      tag_278\n        /* \"赛题-预赛/第八题/Masterchef.sol\":3942:3948  sender */\n      dup4\n        /* \"赛题-预赛/第八题/Masterchef.sol\":3950:3959  recipient */\n      dup4\n        /* \"赛题-预赛/第八题/Masterchef.sol\":3961:3967  amount */\n      dup4\n        /* \"赛题-预赛/第八题/Masterchef.sol\":3921:3941  _beforeTokenTransfer */\n      tag_279\n        /* \"赛题-预赛/第八题/Masterchef.sol\":3921:3968  _beforeTokenTransfer(sender, recipient, amount) */\n      jump\t// in\n    tag_278:\n        /* \"赛题-预赛/第八题/Masterchef.sol\":4001:4072  _balances[sender].sub(amount, \"ERC20: transfer amount exceeds balance\") */\n      tag_280\n        /* \"赛题-预赛/第八题/Masterchef.sol\":4023:4029  amount */\n      dup2\n        /* \"赛题-预赛/第八题/Masterchef.sol\":4001:4072  _balances[sender].sub(amount, \"ERC20: transfer amount exceeds balance\") */\n      mload(0x40)\n      dup1\n      0x60\n      add\n      0x40\n      mstore\n      dup1\n      0x26\n      dup2\n      mstore\n      0x20\n      add\n      data_4107e8a8b9e94bf8ff83080ddec1c0bffe897ebc2241b89d44f66b3d274088b6\n      0x26\n      swap2\n      codecopy\n        /* \"赛题-预赛/第八题/Masterchef.sol\":4001:4010  _balances */\n      0x01\n        /* \"赛题-预赛/第八题/Masterchef.sol\":4001:4018  _balances[sender] */\n      0x00\n        /* \"赛题-预赛/第八题/Masterchef.sol\":4011:4017  sender */\n      dup8\n        /* \"赛题-预赛/第八题/Masterchef.sol\":4001:4018  _balances[sender] */\n      0xffffffffffffffffffffffffffffffffffffffff\n      and\n      0xffffffffffffffffffffffffffffffffffffffff\n      and\n      dup2\n      mstore\n      0x20\n      add\n      swap1\n      dup2\n      mstore\n      0x20\n      add\n      0x00\n      keccak256\n      sload\n        /* \"赛题-预赛/第八题/Masterchef.sol\":4001:4022  _balances[sender].sub */\n      tag_163\n      swap1\n        /* \"赛题-预赛/第八题/Masterchef.sol\":4001:4072  _balances[sender].sub(amount, \"ERC20: transfer amount exceeds balance\") */\n      swap3\n      swap2\n      swap1\n      0xffffffff\n      and\n      jump\t// in\n    tag_280:\n        /* \"赛题-预赛/第八题/Masterchef.sol\":3981:3990  _balances */\n      0x01\n        /* \"赛题-预赛/第八题/Masterchef.sol\":3981:3998  _balances[sender] */\n      0x00\n        /* \"赛题-预赛/第八题/Masterchef.sol\":3991:3997  sender */\n      dup6\n        /* \"赛题-预赛/第八题/Masterchef.sol\":3981:3998  _balances[sender] */\n      0xffffffffffffffffffffffffffffffffffffffff\n      and\n      0xffffffffffffffffffffffffffffffffffffffff\n      and\n      dup2\n      mstore\n      0x20\n      add\n      swap1\n      dup2\n      mstore\n      0x20\n      add\n      0x00\n      keccak256\n        /* \"赛题-预赛/第八题/Masterchef.sol\":3981:4072  _balances[sender] = _balances[sender].sub(amount, \"ERC20: transfer amount exceeds balance\") */\n      dup2\n      swap1\n      sstore\n      pop\n        /* \"赛题-预赛/第八题/Masterchef.sol\":4106:4138  _balances[recipient].add(amount) */\n      tag_281\n        /* \"赛题-预赛/第八题/Masterchef.sol\":4131:4137  amount */\n      dup2\n        /* \"赛题-预赛/第八题/Masterchef.sol\":4106:4115  _balances */\n      0x01\n        /* \"赛题-预赛/第八题/Masterchef.sol\":4106:4126  _balances[recipient] */\n      0x00\n        /* \"赛题-预赛/第八题/Masterchef.sol\":4116:4125  recipient */\n      dup6\n        /* \"赛题-预赛/第八题/Masterchef.sol\":4106:4126  _balances[recipient] */\n      0xffffffffffffffffffffffffffffffffffffffff\n      and\n      0xffffffffffffffffffffffffffffffffffffffff\n      and\n      dup2\n      mstore\n      0x20\n      add\n      swap1\n      dup2\n      mstore\n      0x20\n      add\n      0x00\n      keccak256\n      sload\n        /* \"赛题-预赛/第八题/Masterchef.sol\":4106:4130  _balances[recipient].add */\n      tag_124\n      swap1\n        /* \"赛题-预赛/第八题/Masterchef.sol\":4106:4138  _balances[recipient].add(amount) */\n      swap2\n      swap1\n      0xffffffff\n      and\n      jump\t// in\n    tag_281:\n        /* \"赛题-预赛/第八题/Masterchef.sol\":4083:4092  _balances */\n      0x01\n        /* \"赛题-预赛/第八题/Masterchef.sol\":4083:4103  _balances[recipient] */\n      0x00\n        /* \"赛题-预赛/第八题/Masterchef.sol\":4093:4102  recipient */\n      dup5\n        /* \"赛题-预赛/第八题/Masterchef.sol\":4083:4103  _balances[recipient] */\n      0xffffffffffffffffffffffffffffffffffffffff\n      and\n      0xffffffffffffffffffffffffffffffffffffffff\n      and\n      dup2\n      mstore\n      0x20\n      add\n      swap1\n      dup2\n      mstore\n      0x20\n      add\n      0x00\n      keccak256\n        /* \"赛题-预赛/第八题/Masterchef.sol\":4083:4138  _balances[recipient] = _balances[recipient].add(amount) */\n      dup2\n      swap1\n      sstore\n      pop\n        /* \"赛题-预赛/第八题/Masterchef.sol\":4171:4180  recipient */\n      dup2\n        /* \"赛题-预赛/第八题/Masterchef.sol\":4154:4189  Transfer(sender, recipient, amount) */\n      0xffffffffffffffffffffffffffffffffffffffff\n      and\n        /* \"赛题-预赛/第八题/Masterchef.sol\":4163:4169  sender */\n      dup4\n        /* \"赛题-预赛/第八题/Masterchef.sol\":4154:4189  Transfer(sender, recipient, amount) */\n      0xffffffffffffffffffffffffffffffffffffffff\n      and\n      0xddf252ad1be2c89b69c2b068fc378daa952ba7f163c4a11628f55a4df523b3ef\n        /* \"赛题-预赛/第八题/Masterchef.sol\":4182:4188  amount */\n      dup4\n        /* \"赛题-预赛/第八题/Masterchef.sol\":4154:4189  Transfer(sender, recipient, amount) */\n      mload(0x40)\n      dup1\n      dup3\n      dup2\n      mstore\n      0x20\n      add\n      swap2\n      pop\n      pop\n      mload(0x40)\n      dup1\n      swap2\n      sub\n      swap1\n      log3\n        /* \"赛题-预赛/第八题/Masterchef.sol\":3658:4197  function _transfer(address sender, address recipient, uint256 amount) internal virtual {\r... */\n      pop\n      pop\n      pop\n      jump\t// out\n        /* \"赛题-预赛/第八题/interface.sol\":1075:1267  function sub(uint256 a, uint256 b, string memory errorMessage) internal pure returns (uint256) {\r... */\n    tag_163:\n        /* \"赛题-预赛/第八题/interface.sol\":1161:1168  uint256 */\n      0x00\n        /* \"赛题-预赛/第八题/interface.sol\":1194:1195  a */\n      dup4\n        /* \"赛题-预赛/第八题/interface.sol\":1189:1190  b */\n      dup4\n        /* \"赛题-预赛/第八题/interface.sol\":1189:1195  b <= a */\n      gt\n      iszero\n        /* \"赛题-预赛/第八题/interface.sol\":1197:1209  errorMessage */\n      dup3\n        /* \"赛题-预赛/第八题/interface.sol\":1181:1210  require(b <= a, errorMessage) */\n      swap1\n      tag_283\n      jumpi\n      mload(0x40)\n      0x08c379a000000000000000000000000000000000000000000000000000000000\n      dup2\n      mstore\n      0x04\n      add\n      dup1\n      dup1\n      0x20\n      add\n      dup3\n      dup2\n      sub\n      dup3\n      mstore\n      dup4\n      dup2\n      dup2\n      mload\n      dup2\n      mstore\n      0x20\n      add\n      swap2\n      pop\n      dup1\n      mload\n      swap1\n      0x20\n      add\n      swap1\n      dup1\n      dup4\n      dup4\n      0x00\n    tag_284:\n      dup4\n      dup2\n      lt\n      iszero\n      tag_286\n      jumpi\n      dup1\n      dup3\n      add\n      mload\n      dup2\n      dup5\n      add\n      mstore\n      0x20\n      dup2\n      add\n      swap1\n      pop\n      jump(tag_284)\n    tag_286:\n      pop\n      pop\n      pop\n      pop\n      swap1\n      pop\n      swap1\n      dup2\n      add\n      swap1\n      0x1f\n      and\n      dup1\n      iszero\n      tag_287\n      jumpi\n      dup1\n      dup3\n      sub\n      dup1\n      mload\n      0x01\n      dup4\n      0x20\n      sub\n      0x0100\n      exp\n      sub\n      not\n      and\n      dup2\n      mstore\n      0x20\n      add\n      swap2\n      pop\n    tag_287:\n      pop\n      swap3\n      pop\n      pop\n      pop\n      mload(0x40)\n      dup1\n      swap2\n      sub\n      swap1\n      revert\n    tag_283:\n      pop\n        /* \"赛题-预赛/第八题/interface.sol\":1221:1230  uint256 c */\n      0x00\n        /* \"赛题-预赛/第八题/interface.sol\":1237:1238  b */\n      dup4\n        /* \"赛题-预赛/第八题/interface.sol\":1233:1234  a */\n      dup6\n        /* \"赛题-预赛/第八题/interface.sol\":1233:1238  a - b */\n      sub\n        /* \"赛题-预赛/第八题/interface.sol\":1221:1238  uint256 c = a - b */\n      swap1\n      pop\n        /* \"赛题-预赛/第八题/interface.sol\":1258:1259  c */\n      dup1\n        /* \"赛题-预赛/第八题/interface.sol\":1251:1259  return c */\n      swap2\n      pop\n      pop\n        /* \"赛题-预赛/第八题/interface.sol\":1075:1267  function sub(uint256 a, uint256 b, string memory errorMessage) internal pure returns (uint256) {\r... */\n      swap4\n      swap3\n      pop\n      pop\n      pop\n      jump\t// out\n        /* \"赛题-预赛/第八题/Masterchef.sol\":11092:11368  function safeTokenTransfer(address _to, uint256 _amount) internal {\r... */\n    tag_179:\n        /* \"赛题-预赛/第八题/Masterchef.sol\":11169:11185  uint256 TokenBal */\n      0x00\n        /* \"赛题-预赛/第八题/Masterchef.sol\":11188:11212  balanceOf(address(this)) */\n      tag_289\n        /* \"赛题-预赛/第八题/Masterchef.sol\":11206:11210  this */\n      address\n        /* \"赛题-预赛/第八题/Masterchef.sol\":11188:11197  balanceOf */\n      tag_86\n        /* \"赛题-预赛/第八题/Masterchef.sol\":11188:11212  balanceOf(address(this)) */\n      jump\t// in\n    tag_289:\n        /* \"赛题-预赛/第八题/Masterchef.sol\":11169:11212  uint256 TokenBal = balanceOf(address(this)) */\n      swap1\n      pop\n        /* \"赛题-预赛/第八题/Masterchef.sol\":11237:11245  TokenBal */\n      dup1\n        /* \"赛题-预赛/第八题/Masterchef.sol\":11227:11234  _amount */\n      dup3\n        /* \"赛题-预赛/第八题/Masterchef.sol\":11227:11245  _amount > TokenBal */\n      gt\n        /* \"赛题-预赛/第八题/Masterchef.sol\":11223:11361  if (_amount > TokenBal) {\r... */\n      iszero\n      tag_290\n      jumpi\n        /* \"赛题-预赛/第八题/Masterchef.sol\":11262:11266  this */\n      address\n        /* \"赛题-预赛/第八题/Masterchef.sol\":11262:11275  this.transfer */\n      0xffffffffffffffffffffffffffffffffffffffff\n      and\n      0xa9059cbb\n        /* \"赛题-预赛/第八题/Masterchef.sol\":11276:11279  _to */\n      dup5\n        /* \"赛题-预赛/第八题/Masterchef.sol\":11281:11289  TokenBal */\n      dup4\n        /* \"赛题-预赛/第八题/Masterchef.sol\":11262:11290  this.transfer(_to, TokenBal) */\n      mload(0x40)\n      dup4\n      0xffffffff\n      and\n      0xe0\n      shl\n      dup2\n      mstore\n      0x04\n      add\n      dup1\n      dup4\n      0xffffffffffffffffffffffffffffffffffffffff\n      and\n      dup2\n      mstore\n      0x20\n      add\n      dup3\n      dup2\n      mstore\n      0x20\n      add\n      swap3\n      pop\n      pop\n      pop\n      0x20\n      mload(0x40)\n      dup1\n      dup4\n      sub\n      dup2\n      0x00\n      dup8\n      dup1\n      extcodesize\n      iszero\n      dup1\n      iszero\n      tag_291\n      jumpi\n      0x00\n      dup1\n      revert\n    tag_291:\n      pop\n      gas\n      call\n      iszero\n      dup1\n      iszero\n      tag_293\n      jumpi\n      returndatasize\n      0x00\n      dup1\n      returndatacopy\n      revert(0x00, returndatasize)\n    tag_293:\n      pop\n      pop\n      pop\n      pop\n      mload(0x40)\n      returndatasize\n      0x20\n      dup2\n      lt\n      iszero\n      tag_294\n      jumpi\n      0x00\n      dup1\n      revert\n    tag_294:\n      dup2\n      add\n      swap1\n      dup1\n      dup1\n      mload\n      swap1\n      0x20\n      add\n      swap1\n      swap3\n      swap2\n      swap1\n      pop\n      pop\n      pop\n      pop\n        /* \"赛题-预赛/第八题/Masterchef.sol\":11223:11361  if (_amount > TokenBal) {\r... */\n      jump(tag_295)\n    tag_290:\n        /* \"赛题-预赛/第八题/Masterchef.sol\":11322:11326  this */\n      address\n        /* \"赛题-预赛/第八题/Masterchef.sol\":11322:11335  this.transfer */\n      0xffffffffffffffffffffffffffffffffffffffff\n      and\n      0xa9059cbb\n        /* \"赛题-预赛/第八题/Masterchef.sol\":11336:11339  _to */\n      dup5\n        /* \"赛题-预赛/第八题/Masterchef.sol\":11341:11348  _amount */\n      dup5\n        /* \"赛题-预赛/第八题/Masterchef.sol\":11322:11349  this.transfer(_to, _amount) */\n      mload(0x40)\n      dup4\n      0xffffffff\n      and\n      0xe0\n      shl\n      dup2\n      mstore\n      0x04\n      add\n      dup1\n      dup4\n      0xffffffffffffffffffffffffffffffffffffffff\n      and\n      dup2\n      mstore\n      0x20\n      add\n      dup3\n      dup2\n      mstore\n      0x20\n      add\n      swap3\n      pop\n      pop\n      pop\n      0x20\n      mload(0x40)\n      dup1\n      dup4\n      sub\n      dup2\n      0x00\n      dup8\n      dup1\n      extcodesize\n      iszero\n      dup1\n      iszero\n      tag_296\n      jumpi\n      0x00\n      dup1\n      revert\n    tag_296:\n      pop\n      gas\n      call\n      iszero\n      dup1\n      iszero\n      tag_298\n      jumpi\n      returndatasize\n      0x00\n      dup1\n      returndatacopy\n      revert(0x00, returndatasize)\n    tag_298:\n      pop\n      pop\n      pop\n      pop\n      mload(0x40)\n      returndatasize\n      0x20\n      dup2\n      lt\n      iszero\n      tag_299\n      jumpi\n      0x00\n      dup1\n      revert\n    tag_299:\n      dup2\n      add\n      swap1\n      dup1\n      dup1\n      mload\n      swap1\n      0x20\n      add\n      swap1\n      swap3\n      swap2\n      swap1\n      pop\n      pop\n      pop\n      pop\n        /* \"赛题-预赛/第八题/Masterchef.sol\":11223:11361  if (_amount > TokenBal) {\r... */\n    tag_295:\n        /* \"赛题-预赛/第八题/Masterchef.sol\":11092:11368  function safeTokenTransfer(address _to, uint256 _amount) internal {\r... */\n      pop\n      pop\n      pop\n      jump\t// out\n        /* \"赛题-预赛/第八题/Masterchef.sol\":4205:4583  function _mint(address account, uint256 amount) internal virtual {\r... */\n    tag_238:\n        /* \"赛题-预赛/第八题/Masterchef.sol\":4308:4309  0 */\n      0x00\n        /* \"赛题-预赛/第八题/Masterchef.sol\":4289:4310  account != address(0) */\n      0xffffffffffffffffffffffffffffffffffffffff\n      and\n        /* \"赛题-预赛/第八题/Masterchef.sol\":4289:4296  account */\n      dup3\n        /* \"赛题-预赛/第八题/Masterchef.sol\":4289:4310  account != address(0) */\n      0xffffffffffffffffffffffffffffffffffffffff\n      and\n      eq\n      iszero\n        /* \"赛题-预赛/第八题/Masterchef.sol\":4281:4346  require(account != address(0), \"ERC20: mint to the zero address\") */\n      tag_301\n      jumpi\n      mload(0x40)\n      0x08c379a000000000000000000000000000000000000000000000000000000000\n      dup2\n      mstore\n      0x04\n      add\n      dup1\n      dup1\n      0x20\n      add\n      dup3\n      dup2\n      sub\n      dup3\n      mstore\n      0x1f\n      dup2\n      mstore\n      0x20\n      add\n      dup1\n      0x45524332303a206d696e7420746f20746865207a65726f206164647265737300\n      dup2\n      mstore\n      pop\n      0x20\n      add\n      swap2\n      pop\n      pop\n      mload(0x40)\n      dup1\n      swap2\n      sub\n      swap1\n      revert\n    tag_301:\n        /* \"赛题-预赛/第八题/Masterchef.sol\":4359:4408  _beforeTokenTransfer(address(0), account, amount) */\n      tag_302\n        /* \"赛题-预赛/第八题/Masterchef.sol\":4388:4389  0 */\n      0x00\n        /* \"赛题-预赛/第八题/Masterchef.sol\":4392:4399  account */\n      dup4\n        /* \"赛题-预赛/第八题/Masterchef.sol\":4401:4407  amount */\n      dup4\n        /* \"赛题-预赛/第八题/Masterchef.sol\":4359:4379  _beforeTokenTransfer */\n      tag_279\n        /* \"赛题-预赛/第八题/Masterchef.sol\":4359:4408  _beforeTokenTransfer(address(0), account, amount) */\n      jump\t// in\n    tag_302:\n        /* \"赛题-预赛/第八题/Masterchef.sol\":4436:4460  _totalSupply.add(amount) */\n      tag_303\n        /* \"赛题-预赛/第八题/Masterchef.sol\":4453:4459  amount */\n      dup2\n        /* \"赛题-预赛/第八题/Masterchef.sol\":4436:4448  _totalSupply */\n      sload(0x03)\n        /* \"赛题-预赛/第八题/Masterchef.sol\":4436:4452  _totalSupply.add */\n      tag_124\n      swap1\n        /* \"赛题-预赛/第八题/Masterchef.sol\":4436:4460  _totalSupply.add(amount) */\n      swap2\n      swap1\n      0xffffffff\n      and\n      jump\t// in\n    tag_303:\n        /* \"赛题-预赛/第八题/Masterchef.sol\":4421:4433  _totalSupply */\n      0x03\n        /* \"赛题-预赛/第八题/Masterchef.sol\":4421:4460  _totalSupply = _totalSupply.add(amount) */\n      dup2\n      swap1\n      sstore\n      pop\n        /* \"赛题-预赛/第八题/Masterchef.sol\":4492:4522  _balances[account].add(amount) */\n      tag_304\n        /* \"赛题-预赛/第八题/Masterchef.sol\":4515:4521  amount */\n      dup2\n        /* \"赛题-预赛/第八题/Masterchef.sol\":4492:4501  _balances */\n      0x01\n        /* \"赛题-预赛/第八题/Masterchef.sol\":4492:4510  _balances[account] */\n      0x00\n        /* \"赛题-预赛/第八题/Masterchef.sol\":4502:4509  account */\n      dup6\n        /* \"赛题-预赛/第八题/Masterchef.sol\":4492:4510  _balances[account] */\n      0xffffffffffffffffffffffffffffffffffffffff\n      and\n      0xffffffffffffffffffffffffffffffffffffffff\n      and\n      dup2\n      mstore\n      0x20\n      add\n      swap1\n      dup2\n      mstore\n      0x20\n      add\n      0x00\n      keccak256\n      sload\n        /* \"赛题-预赛/第八题/Masterchef.sol\":4492:4514  _balances[account].add */\n      tag_124\n      swap1\n        /* \"赛题-预赛/第八题/Masterchef.sol\":4492:4522  _balances[account].add(amount) */\n      swap2\n      swap1\n      0xffffffff\n      and\n      jump\t// in\n    tag_304:\n        /* \"赛题-预赛/第八题/Masterchef.sol\":4471:4480  _balances */\n      0x01\n        /* \"赛题-预赛/第八题/Masterchef.sol\":4471:4489  _balances[account] */\n      0x00\n        /* \"赛题-预赛/第八题/Masterchef.sol\":4481:4488  account */\n      dup5\n        /* \"赛题-预赛/第八题/Masterchef.sol\":4471:4489  _balances[account] */\n      0xffffffffffffffffffffffffffffffffffffffff\n      and\n      0xffffffffffffffffffffffffffffffffffffffff\n      and\n      dup2\n      mstore\n      0x20\n      add\n      swap1\n      dup2\n      mstore\n      0x20\n      add\n      0x00\n      keccak256\n        /* \"赛题-预赛/第八题/Masterchef.sol\":4471:4522  _balances[account] = _balances[account].add(amount) */\n      dup2\n      swap1\n      sstore\n      pop\n        /* \"赛题-预赛/第八题/Masterchef.sol\":4559:4566  account */\n      dup2\n        /* \"赛题-预赛/第八题/Masterchef.sol\":4538:4575  Transfer(address(0), account, amount) */\n      0xffffffffffffffffffffffffffffffffffffffff\n      and\n        /* \"赛题-预赛/第八题/Masterchef.sol\":4555:4556  0 */\n      0x00\n        /* \"赛题-预赛/第八题/Masterchef.sol\":4538:4575  Transfer(address(0), account, amount) */\n      0xffffffffffffffffffffffffffffffffffffffff\n      and\n      0xddf252ad1be2c89b69c2b068fc378daa952ba7f163c4a11628f55a4df523b3ef\n        /* \"赛题-预赛/第八题/Masterchef.sol\":4568:4574  amount */\n      dup4\n        /* \"赛题-预赛/第八题/Masterchef.sol\":4538:4575  Transfer(address(0), account, amount) */\n      mload(0x40)\n      dup1\n      dup3\n      dup2\n      mstore\n      0x20\n      add\n      swap2\n      pop\n      pop\n      mload(0x40)\n      dup1\n      swap2\n      sub\n      swap1\n      log3\n        /* \"赛题-预赛/第八题/Masterchef.sol\":4205:4583  function _mint(address account, uint256 amount) internal virtual {\r... */\n      pop\n      pop\n      jump\t// out\n        /* \"赛题-预赛/第八题/interface.sol\":1665:1854  function div(uint256 a, uint256 b, string memory errorMessage) internal pure returns (uint256) {\r... */\n    tag_272:\n        /* \"赛题-预赛/第八题/interface.sol\":1751:1758  uint256 */\n      0x00\n        /* \"赛题-预赛/第八题/interface.sol\":1783:1784  0 */\n      dup1\n        /* \"赛题-预赛/第八题/interface.sol\":1779:1780  b */\n      dup4\n        /* \"赛题-预赛/第八题/interface.sol\":1779:1784  b > 0 */\n      gt\n        /* \"赛题-预赛/第八题/interface.sol\":1786:1798  errorMessage */\n      dup3\n        /* \"赛题-预赛/第八题/interface.sol\":1771:1799  require(b > 0, errorMessage) */\n      swap1\n      tag_306\n      jumpi\n      mload(0x40)\n      0x08c379a000000000000000000000000000000000000000000000000000000000\n      dup2\n      mstore\n      0x04\n      add\n      dup1\n      dup1\n      0x20\n      add\n      dup3\n      dup2\n      sub\n      dup3\n      mstore\n      dup4\n      dup2\n      dup2\n      mload\n      dup2\n      mstore\n      0x20\n      add\n      swap2\n      pop\n      dup1\n      mload\n      swap1\n      0x20\n      add\n      swap1\n      dup1\n      dup4\n      dup4\n      0x00\n    tag_307:\n      dup4\n      dup2\n      lt\n      iszero\n      tag_309\n      jumpi\n      dup1\n      dup3\n      add\n      mload\n      dup2\n      dup5\n      add\n      mstore\n      0x20\n      dup2\n      add\n      swap1\n      pop\n      jump(tag_307)\n    tag_309:\n      pop\n      pop\n      pop\n      pop\n      swap1\n      pop\n      swap1\n      dup2\n      add\n      swap1\n      0x1f\n      and\n      dup1\n      iszero\n      tag_310\n      jumpi\n      dup1\n      dup3\n      sub\n      dup1\n      mload\n      0x01\n      dup4\n      0x20\n      sub\n      0x0100\n      exp\n      sub\n      not\n      and\n      dup2\n      mstore\n      0x20\n      add\n      swap2\n      pop\n    tag_310:\n      pop\n      swap3\n      pop\n      pop\n      pop\n      mload(0x40)\n      dup1\n      swap2\n      sub\n      swap1\n      revert\n    tag_306:\n      pop\n        /* \"赛题-预赛/第八题/interface.sol\":1810:1819  uint256 c */\n      0x00\n        /* \"赛题-预赛/第八题/interface.sol\":1826:1827  b */\n      dup4\n        /* \"赛题-预赛/第八题/interface.sol\":1822:1823  a */\n      dup6\n        /* \"赛题-预赛/第八题/interface.sol\":1822:1827  a / b */\n      dup2\n      tag_311\n      jumpi\n      invalid\n    tag_311:\n      div\n        /* \"赛题-预赛/第八题/interface.sol\":1810:1827  uint256 c = a / b */\n      swap1\n      pop\n        /* \"赛题-预赛/第八题/interface.sol\":1845:1846  c */\n      dup1\n        /* \"赛题-预赛/第八题/interface.sol\":1838:1846  return c */\n      swap2\n      pop\n      pop\n        /* \"赛题-预赛/第八题/interface.sol\":1665:1854  function div(uint256 a, uint256 b, string memory errorMessage) internal pure returns (uint256) {\r... */\n      swap4\n      swap3\n      pop\n      pop\n      pop\n      jump\t// out\n        /* \"赛题-预赛/第八题/Masterchef.sol\":5469:5561  function _beforeTokenTransfer(address from, address to, uint256 amount) internal virtual { } */\n    tag_279:\n      pop\n      pop\n      pop\n      jump\t// out\n    tag_201:\n      mload(0x40)\n      dup1\n      0x80\n      add\n      0x40\n      mstore\n      dup1\n      0x00\n      dup2\n      mstore\n      0x20\n      add\n      0x00\n      dup2\n      mstore\n      0x20\n      add\n      0x00\n      dup2\n      mstore\n      0x20\n      add\n      0x00\n      dup2\n      mstore\n      pop\n      swap1\n      jump\t// out\n    tag_205:\n      mload(0x40)\n      dup1\n      0x40\n      add\n      0x40\n      mstore\n      dup1\n      0x00\n      dup2\n      mstore\n      0x20\n      add\n      0x00\n      dup2\n      mstore\n      pop\n      swap1\n      jump\t// out\n    stop\n    data_0557e210f7a69a685100a7e4e3d0a7024c546085cee28910fd17d0b081d9516f 45524332303a207472616e7366657220746f20746865207a65726f2061646472657373\n    data_245f15ff17f551913a7a18385165551503906a406f905ac1c2437281a7cd0cfe 4f776e61626c653a206e6577206f776e657220697320746865207a65726f2061646472657373\n    data_24883cc5fe64ace9d0df1893501ecb93c77180f0ff69cca79affb3c316dc8029 45524332303a20617070726f766520746f20746865207a65726f2061646472657373\n    data_4107e8a8b9e94bf8ff83080ddec1c0bffe897ebc2241b89d44f66b3d274088b6 45524332303a207472616e7366657220616d6f756e7420657863656564732062616c616e6365\n    data_9113bb53c2876a3805b2c9242029423fc540a728243ce887ab24c82cf119fba3 536166654d6174683a206d756c7469706c69636174696f6e206f766572666c6f77\n    data_974d1b4421da69cc60b481194f0dad36a5bb4e23da810da7a7fb30cdba178330 45524332303a207472616e7366657220616d6f756e74206578636565647320616c6c6f77616e6365\n    data_baecc556b46f4ed0f2b4cb599d60785ac8563dd2dc0a5bf12edea1c39e5e1fea 45524332303a207472616e736665722066726f6d20746865207a65726f2061646472657373\n    data_c953f4879035ed60e766b34720f656aab5c697b141d924c283124ecedb91c208 45524332303a20617070726f76652066726f6d20746865207a65726f2061646472657373\n    data_f8b476f7d28209d77d4a4ac1fe36b9f8259aa1bb6bddfa6e89de7e51615cf8a8 45524332303a2064656372656173656420616c6c6f77616e63652062656c6f77207a65726f\n\n    auxdata: 0xa2646970667358221220741115d06508abae50926e236043f7fbfd262ce02c1211eba43018f8782ace5f64736f6c634300060c0033\n}\n",
				"bytecode": {
					"linkReferences": {},
					"object": "60806040526000600a553480156200001657600080fd5b506040518060400160405280600481526020017f74657374000000000000000000000000000000000000000000000000000000008152506040518060400160405280600481526020017f74657374000000000000000000000000000000000000000000000000000000008152506000620000956200027e60201b60201c565b9050806000806101000a81548173ffffffffffffffffffffffffffffffffffffffff021916908373ffffffffffffffffffffffffffffffffffffffff1602179055508073ffffffffffffffffffffffffffffffffffffffff16600073ffffffffffffffffffffffffffffffffffffffff167f8be0079c531659141344cd1fd0a4f28419497f9722a3daafe3b4186f6b6457e060405160405180910390a35081600490805190602001906200014b929190620004f4565b50806005908051906020019062000164929190620004f4565b506001600660006101000a81548160ff021916908360ff16021790555050506200019830629896806200028660201b60201c565b620001ae336305f5e1006200028660201b60201c565b600160078190555043600b819055506000600b544311620001d257600b54620001d4565b435b9050600060649050620001f881600a546200046660201b62001cd71790919060201c565b600a8190555060086040518060800160405280838152602001848152602001600081526020016000815250908060018154018082558091505060019003906000526020600020906004020160009091909190915060008201518160000155602082015181600101556040820151816002015560608201518160030155505050506200059a565b600033905090565b600073ffffffffffffffffffffffffffffffffffffffff168273ffffffffffffffffffffffffffffffffffffffff1614156200032a576040517f08c379a000000000000000000000000000000000000000000000000000000000815260040180806020018281038252601f8152602001807f45524332303a206d696e7420746f20746865207a65726f20616464726573730081525060200191505060405180910390fd5b6200033e60008383620004ef60201b60201c565b6200035a816003546200046660201b62001cd71790919060201c565b600381905550620003b981600160008573ffffffffffffffffffffffffffffffffffffffff1673ffffffffffffffffffffffffffffffffffffffff168152602001908152602001600020546200046660201b62001cd71790919060201c565b600160008473ffffffffffffffffffffffffffffffffffffffff1673ffffffffffffffffffffffffffffffffffffffff168152602001908152602001600020819055508173ffffffffffffffffffffffffffffffffffffffff16600073ffffffffffffffffffffffffffffffffffffffff167fddf252ad1be2c89b69c2b068fc378daa952ba7f163c4a11628f55a4df523b3ef836040518082815260200191505060405180910390a35050565b600080828401905083811015620004e5576040517f08c379a000000000000000000000000000000000000000000000000000000000815260040180806020018281038252601b8152602001807f536166654d6174683a206164646974696f6e206f766572666c6f77000000000081525060200191505060405180910390fd5b8091505092915050565b505050565b828054600181600116156101000203166002900490600052602060002090601f016020900481019282601f106200053757805160ff191683800117855562000568565b8280016001018555821562000568579182015b82811115620005675782518255916020019190600101906200054a565b5b5090506200057791906200057b565b5090565b5b80821115620005965760008160009055506001016200057c565b5090565b6129cb80620005aa6000396000f3fe608060405234801561001057600080fd5b50600436106101da5760003560e01c8063630b5ba111610104578063a457c2d7116100a2578063b9c661b911610071578063b9c661b9146108a4578063dd62ed3e146108ae578063e2bbb15814610926578063f2fde38b1461095e576101da565b8063a457c2d71461078a578063a9059cbb146107ee578063b0bcf42a14610852578063b2bdfa7b14610870576101da565b80638da5cb5b116100de5780638da5cb5b1461061e5780638dbb1e3a1461065257806393f1a40b1461069e57806395d89b4114610707576101da565b8063630b5ba1146105b257806370a08231146105bc578063715018a614610614576101da565b8063195426ec1161017c578063441a3e701161014b578063441a3e701461050057806348cd4cb11461053857806351eb05a6146105565780635312ea8e14610584576101da565b8063195426ec1461039557806323b872dd146103f7578063313ce5671461047b578063395093511461049c576101da565b8063095ea7b3116101b8578063095ea7b31461029e5780631526fe271461030257806317caf6f11461035957806318160ddd14610377576101da565b8063035ff6a5146101df57806306fdde03146101fd578063081e3eda14610280575b600080fd5b6101e76109a2565b6040518082815260200191505060405180910390f35b6102056109a8565b6040518080602001828103825283818151815260200191508051906020019080838360005b8381101561024557808201518184015260208101905061022a565b50505050905090810190601f1680156102725780820380516001836020036101000a031916815260200191505b509250505060405180910390f35b610288610a4a565b6040518082815260200191505060405180910390f35b6102ea600480360360408110156102b457600080fd5b81019080803573ffffffffffffffffffffffffffffffffffffffff16906020019092919080359060200190929190505050610a57565b60405180821515815260200191505060405180910390f35b61032e6004803603602081101561031857600080fd5b8101908080359060200190929190505050610a75565b6040518085815260200184815260200183815260200182815260200194505050505060405180910390f35b610361610ab2565b6040518082815260200191505060405180910390f35b61037f610ab8565b6040518082815260200191505060405180910390f35b6103e1600480360360408110156103ab57600080fd5b8101908080359060200190929190803573ffffffffffffffffffffffffffffffffffffffff169060200190929190505050610ac2565b6040518082815260200191505060405180910390f35b6104636004803603606081101561040d57600080fd5b81019080803573ffffffffffffffffffffffffffffffffffffffff169060200190929190803573ffffffffffffffffffffffffffffffffffffffff16906020019092919080359060200190929190505050610c47565b60405180821515815260200191505060405180910390f35b610483610d20565b604051808260ff16815260200191505060405180910390f35b6104e8600480360360408110156104b257600080fd5b81019080803573ffffffffffffffffffffffffffffffffffffffff16906020019092919080359060200190929190505050610d37565b60405180821515815260200191505060405180910390f35b6105366004803603604081101561051657600080fd5b810190808035906020019092919080359060200190929190505050610dea565b005b6105406110a4565b6040518082815260200191505060405180910390f35b6105826004803603602081101561056c57600080fd5b81019080803590602001909291905050506110aa565b005b6105b06004803603602081101561059a57600080fd5b81019080803590602001909291905050506111aa565b005b6105ba6113ae565b005b6105fe600480360360208110156105d257600080fd5b81019080803573ffffffffffffffffffffffffffffffffffffffff1690602001909291905050506113db565b6040518082815260200191505060405180910390f35b61061c611424565b005b6106266115aa565b604051808273ffffffffffffffffffffffffffffffffffffffff16815260200191505060405180910390f35b6106886004803603604081101561066857600080fd5b8101908080359060200190929190803590602001909291905050506115d3565b6040518082815260200191505060405180910390f35b6106ea600480360360408110156106b457600080fd5b8101908080359060200190929190803573ffffffffffffffffffffffffffffffffffffffff1690602001909291905050506115f0565b604051808381526020018281526020019250505060405180910390f35b61070f611621565b6040518080602001828103825283818151815260200191508051906020019080838360005b8381101561074f578082015181840152602081019050610734565b50505050905090810190601f16801561077c5780820380516001836020036101000a031916815260200191505b509250505060405180910390f35b6107d6600480360360408110156107a057600080fd5b81019080803573ffffffffffffffffffffffffffffffffffffffff169060200190929190803590602001909291905050506116c3565b60405180821515815260200191505060405180910390f35b61083a6004803603604081101561080457600080fd5b81019080803573ffffffffffffffffffffffffffffffffffffffff16906020019092919080359060200190929190505050611790565b60405180821515815260200191505060405180910390f35b61085a6117ae565b6040518082815260200191505060405180910390f35b6108786117b4565b604051808273ffffffffffffffffffffffffffffffffffffffff16815260200191505060405180910390f35b6108ac6117d8565b005b610910600480360360408110156108c457600080fd5b81019080803573ffffffffffffffffffffffffffffffffffffffff169060200190929190803573ffffffffffffffffffffffffffffffffffffffff169060200190929190505050611845565b6040518082815260200191505060405180910390f35b61095c6004803603604081101561093c57600080fd5b8101908080359060200190929190803590602001909291905050506118cc565b005b6109a06004803603602081101561097457600080fd5b81019080803573ffffffffffffffffffffffffffffffffffffffff169060200190929190505050611b38565b005b600c5481565b606060048054600181600116156101000203166002900480601f016020809104026020016040519081016040528092919081815260200182805460018160011615610100020316600290048015610a405780601f10610a1557610100808354040283529160200191610a40565b820191906000526020600020905b815481529060010190602001808311610a2357829003601f168201915b5050505050905090565b6000600880549050905090565b6000610a6b610a64611d5f565b8484611d67565b6001905092915050565b60088181548110610a8257fe5b90600052602060002090600402016000915090508060000154908060010154908060020154908060030154905084565b600a5481565b6000600354905090565b60008060088481548110610ad257fe5b9060005260206000209060040201905060006009600086815260200190815260200160002060008573ffffffffffffffffffffffffffffffffffffffff1673ffffffffffffffffffffffffffffffffffffffff1681526020019081526020016000209050600082600201549050600083600301549050836001015443118015610b5c575060008114155b15610bf7576000610b718560010154436115d3565b90506000610bb4600a54610ba68860000154610b9860075487611f5e90919063ffffffff16565b611f5e90919063ffffffff16565b611fe490919063ffffffff16565b9050610bf2610be384610bd564e8d4a5100085611f5e90919063ffffffff16565b611fe490919063ffffffff16565b85611cd790919063ffffffff16565b935050505b610c3b8360010154610c2d64e8d4a51000610c1f868860000154611f5e90919063ffffffff16565b611fe490919063ffffffff16565b61202e90919063ffffffff16565b94505050505092915050565b6000610c54848484612078565b610d1584610c60611d5f565b610d108560405180606001604052806028815260200161290060289139600260008b73ffffffffffffffffffffffffffffffffffffffff1673ffffffffffffffffffffffffffffffffffffffff1681526020019081526020016000206000610cc6611d5f565b73ffffffffffffffffffffffffffffffffffffffff1673ffffffffffffffffffffffffffffffffffffffff1681526020019081526020016000205461233d9092919063ffffffff16565b611d67565b600190509392505050565b6000600660009054906101000a900460ff16905090565b6000610de0610d44611d5f565b84610ddb8560026000610d55611d5f565b73ffffffffffffffffffffffffffffffffffffffff1673ffffffffffffffffffffffffffffffffffffffff16815260200190815260200160002060008973ffffffffffffffffffffffffffffffffffffffff1673ffffffffffffffffffffffffffffffffffffffff16815260200190815260200160002054611cd790919063ffffffff16565b611d67565b6001905092915050565b600060088381548110610df957fe5b9060005260206000209060040201905060006009600085815260200190815260200160002060003373ffffffffffffffffffffffffffffffffffffffff1673ffffffffffffffffffffffffffffffffffffffff16815260200190815260200160002090508281600001541015610ed7576040517f08c379a00000000000000000000000000000000000000000000000000000000081526004018080602001828103825260128152602001807f77697468647261773a206e6f7420676f6f64000000000000000000000000000081525060200191505060405180910390fd5b610ee0846110aa565b6000610f2a8260010154610f1c64e8d4a51000610f0e87600201548760000154611f5e90919063ffffffff16565b611fe490919063ffffffff16565b61202e90919063ffffffff16565b9050610f3633826123fd565b610f4d84836000015461202e90919063ffffffff16565b8260000181905550610f8764e8d4a51000610f7985600201548560000154611f5e90919063ffffffff16565b611fe490919063ffffffff16565b82600101819055508383600301600082825403925050819055503073ffffffffffffffffffffffffffffffffffffffff1663a9059cbb33866040518363ffffffff1660e01b8152600401808373ffffffffffffffffffffffffffffffffffffffff16815260200182815260200192505050602060405180830381600087803b15801561101257600080fd5b505af1158015611026573d6000803e3d6000fd5b505050506040513d602081101561103c57600080fd5b810190808051906020019092919050505050843373ffffffffffffffffffffffffffffffffffffffff167ff279e6a1f5e320cca91135676d9cb6e44ca8a08c0b88342bcdb1144f6511b568866040518082815260200191505060405180910390a35050505050565b600b5481565b6000600882815481106110b957fe5b90600052602060002090600402019050806001015443116110da57506111a7565b60008160030154905060008114156110fc5743826001018190555050506111a7565b600061110c8360010154436115d3565b9050600061114f600a54611141866000015461113360075487611f5e90919063ffffffff16565b611f5e90919063ffffffff16565b611fe490919063ffffffff16565b905061119161117e8461117064e8d4a5100085611f5e90919063ffffffff16565b611fe490919063ffffffff16565b8560020154611cd790919063ffffffff16565b8460020181905550438460010181905550505050505b50565b6111b261280b565b600882815481106111bf57fe5b9060005260206000209060040201604051806080016040529081600082015481526020016001820154815260200160028201548152602001600382015481525050905061120a612833565b6009600084815260200190815260200160002060003373ffffffffffffffffffffffffffffffffffffffff1673ffffffffffffffffffffffffffffffffffffffff1681526020019081526020016000206040518060400160405290816000820154815260200160018201548152505090503073ffffffffffffffffffffffffffffffffffffffff1663a9059cbb3383600001516040518363ffffffff1660e01b8152600401808373ffffffffffffffffffffffffffffffffffffffff16815260200182815260200192505050602060405180830381600087803b1580156112f057600080fd5b505af1158015611304573d6000803e3d6000fd5b505050506040513d602081101561131a57600080fd5b810190808051906020019092919050505050823373ffffffffffffffffffffffffffffffffffffffff167fbb757047c2b5f3974fe26b7c10f732e7bce710b0952a71082702781e62ae059583600001516040518082815260200191505060405180910390a3806000015182606001818151039150818152505060008160000181815250506000816020018181525050505050565b6000600880549050905060005b818110156113d7576113cc816110aa565b8060010190506113bb565b5050565b6000600160008373ffffffffffffffffffffffffffffffffffffffff1673ffffffffffffffffffffffffffffffffffffffff168152602001908152602001600020549050919050565b61142c611d5f565b73ffffffffffffffffffffffffffffffffffffffff1660008054906101000a900473ffffffffffffffffffffffffffffffffffffffff1673ffffffffffffffffffffffffffffffffffffffff16146114ec576040517f08c379a00000000000000000000000000000000000000000000000000000000081526004018080602001828103825260208152602001807f4f776e61626c653a2063616c6c6572206973206e6f7420746865206f776e657281525060200191505060405180910390fd5b600073ffffffffffffffffffffffffffffffffffffffff1660008054906101000a900473ffffffffffffffffffffffffffffffffffffffff1673ffffffffffffffffffffffffffffffffffffffff167f8be0079c531659141344cd1fd0a4f28419497f9722a3daafe3b4186f6b6457e060405160405180910390a360008060006101000a81548173ffffffffffffffffffffffffffffffffffffffff021916908373ffffffffffffffffffffffffffffffffffffffff160217905550565b60008060009054906101000a900473ffffffffffffffffffffffffffffffffffffffff16905090565b60006115e8838361202e90919063ffffffff16565b905092915050565b6009602052816000526040600020602052806000526040600020600091509150508060000154908060010154905082565b606060058054600181600116156101000203166002900480601f0160208091040260200160405190810160405280929190818152602001828054600181600116156101000203166002900480156116b95780601f1061168e576101008083540402835291602001916116b9565b820191906000526020600020905b81548152906001019060200180831161169c57829003601f168201915b5050505050905090565b60006117866116d0611d5f565b846117818560405180606001604052806025815260200161297160259139600260006116fa611d5f565b73ffffffffffffffffffffffffffffffffffffffff1673ffffffffffffffffffffffffffffffffffffffff16815260200190815260200160002060008a73ffffffffffffffffffffffffffffffffffffffff1673ffffffffffffffffffffffffffffffffffffffff1681526020019081526020016000205461233d9092919063ffffffff16565b611d67565b6001905092915050565b60006117a461179d611d5f565b8484612078565b6001905092915050565b60075481565b60008054906101000a900473ffffffffffffffffffffffffffffffffffffffff1681565b6103e8600c541061182c576040517f08c379a0000000000000000000000000000000000000000000000000000000008152600401808060200182810382526000815260200160200191505060405180910390fd5b611837336001612577565b6001600c5401600c81905550565b6000600260008473ffffffffffffffffffffffffffffffffffffffff1673ffffffffffffffffffffffffffffffffffffffff16815260200190815260200160002060008373ffffffffffffffffffffffffffffffffffffffff1673ffffffffffffffffffffffffffffffffffffffff16815260200190815260200160002054905092915050565b6000600883815481106118db57fe5b9060005260206000209060040201905060006009600085815260200190815260200160002060003373ffffffffffffffffffffffffffffffffffffffff1673ffffffffffffffffffffffffffffffffffffffff1681526020019081526020016000209050611948846110aa565b6000816000015411156119ad57600061199f826001015461199164e8d4a5100061198387600201548760000154611f5e90919063ffffffff16565b611fe490919063ffffffff16565b61202e90919063ffffffff16565b90506119ab33826123fd565b505b3073ffffffffffffffffffffffffffffffffffffffff166323b872dd3330866040518463ffffffff1660e01b8152600401808473ffffffffffffffffffffffffffffffffffffffff1681526020018373ffffffffffffffffffffffffffffffffffffffff1681526020018281526020019350505050602060405180830381600087803b158015611a3c57600080fd5b505af1158015611a50573d6000803e3d6000fd5b505050506040513d6020811015611a6657600080fd5b810190808051906020019092919050505050611a8f838260000154611cd790919063ffffffff16565b8160000181905550611ac964e8d4a51000611abb84600201548460000154611f5e90919063ffffffff16565b611fe490919063ffffffff16565b8160010181905550828260030160008282540192505081905550833373ffffffffffffffffffffffffffffffffffffffff167f90890809c654f11d6e72a28fa60149770a0d11ec6c92319d6ceb2bb0a4ea1a15856040518082815260200191505060405180910390a350505050565b620f4240611b45336113db565b1015611b94576040517f08c379a0000000000000000000000000000000000000000000000000000000008152600401808060200182810382526000815260200160200191505060405180910390fd5b600073ffffffffffffffffffffffffffffffffffffffff168173ffffffffffffffffffffffffffffffffffffffff161415611c1a576040517f08c379a00000000000000000000000000000000000000000000000000000000081526004018080602001828103825260268152602001806128716026913960400191505060405180910390fd5b8073ffffffffffffffffffffffffffffffffffffffff1660008054906101000a900473ffffffffffffffffffffffffffffffffffffffff1673ffffffffffffffffffffffffffffffffffffffff167f8be0079c531659141344cd1fd0a4f28419497f9722a3daafe3b4186f6b6457e060405160405180910390a3806000806101000a81548173ffffffffffffffffffffffffffffffffffffffff021916908373ffffffffffffffffffffffffffffffffffffffff16021790555050565b600080828401905083811015611d55576040517f08c379a000000000000000000000000000000000000000000000000000000000815260040180806020018281038252601b8152602001807f536166654d6174683a206164646974696f6e206f766572666c6f77000000000081525060200191505060405180910390fd5b8091505092915050565b600033905090565b600073ffffffffffffffffffffffffffffffffffffffff168373ffffffffffffffffffffffffffffffffffffffff161415611ded576040517f08c379a000000000000000000000000000000000000000000000000000000000815260040180806020018281038252602481526020018061294d6024913960400191505060405180910390fd5b600073ffffffffffffffffffffffffffffffffffffffff168273ffffffffffffffffffffffffffffffffffffffff161415611e73576040517f08c379a00000000000000000000000000000000000000000000000000000000081526004018080602001828103825260228152602001806128976022913960400191505060405180910390fd5b80600260008573ffffffffffffffffffffffffffffffffffffffff1673ffffffffffffffffffffffffffffffffffffffff16815260200190815260200160002060008473ffffffffffffffffffffffffffffffffffffffff1673ffffffffffffffffffffffffffffffffffffffff168152602001908152602001600020819055508173ffffffffffffffffffffffffffffffffffffffff168373ffffffffffffffffffffffffffffffffffffffff167f8c5be1e5ebec7d5bd14f71427d1e84f3dd0314c0f7b2291e5b200ac8c7c3b925836040518082815260200191505060405180910390a3505050565b600080831415611f715760009050611fde565b6000828402905082848281611f8257fe5b0414611fd9576040517f08c379a00000000000000000000000000000000000000000000000000000000081526004018080602001828103825260218152602001806128df6021913960400191505060405180910390fd5b809150505b92915050565b600061202683836040518060400160405280601a81526020017f536166654d6174683a206469766973696f6e206279207a65726f000000000000815250612740565b905092915050565b600061207083836040518060400160405280601e81526020017f536166654d6174683a207375627472616374696f6e206f766572666c6f77000081525061233d565b905092915050565b600073ffffffffffffffffffffffffffffffffffffffff168373ffffffffffffffffffffffffffffffffffffffff1614156120fe576040517f08c379a00000000000000000000000000000000000000000000000000000000081526004018080602001828103825260258152602001806129286025913960400191505060405180910390fd5b600073ffffffffffffffffffffffffffffffffffffffff168273ffffffffffffffffffffffffffffffffffffffff161415612184576040517f08c379a000000000000000000000000000000000000000000000000000000000815260040180806020018281038252602381526020018061284e6023913960400191505060405180910390fd5b61218f838383612806565b6121fb816040518060600160405280602681526020016128b960269139600160008773ffffffffffffffffffffffffffffffffffffffff1673ffffffffffffffffffffffffffffffffffffffff1681526020019081526020016000205461233d9092919063ffffffff16565b600160008573ffffffffffffffffffffffffffffffffffffffff1673ffffffffffffffffffffffffffffffffffffffff1681526020019081526020016000208190555061229081600160008573ffffffffffffffffffffffffffffffffffffffff1673ffffffffffffffffffffffffffffffffffffffff16815260200190815260200160002054611cd790919063ffffffff16565b600160008473ffffffffffffffffffffffffffffffffffffffff1673ffffffffffffffffffffffffffffffffffffffff168152602001908152602001600020819055508173ffffffffffffffffffffffffffffffffffffffff168373ffffffffffffffffffffffffffffffffffffffff167fddf252ad1be2c89b69c2b068fc378daa952ba7f163c4a11628f55a4df523b3ef836040518082815260200191505060405180910390a3505050565b60008383111582906123ea576040517f08c379a00000000000000000000000000000000000000000000000000000000081526004018080602001828103825283818151815260200191508051906020019080838360005b838110156123af578082015181840152602081019050612394565b50505050905090810190601f1680156123dc5780820380516001836020036101000a031916815260200191505b509250505060405180910390fd5b5060008385039050809150509392505050565b6000612408306113db565b9050808211156124c4573073ffffffffffffffffffffffffffffffffffffffff1663a9059cbb84836040518363ffffffff1660e01b8152600401808373ffffffffffffffffffffffffffffffffffffffff16815260200182815260200192505050602060405180830381600087803b15801561248357600080fd5b505af1158015612497573d6000803e3d6000fd5b505050506040513d60208110156124ad57600080fd5b810190808051906020019092919050505050612572565b3073ffffffffffffffffffffffffffffffffffffffff1663a9059cbb84846040518363ffffffff1660e01b8152600401808373ffffffffffffffffffffffffffffffffffffffff16815260200182815260200192505050602060405180830381600087803b15801561253557600080fd5b505af1158015612549573d6000803e3d6000fd5b505050506040513d602081101561255f57600080fd5b8101908080519060200190929190505050505b505050565b600073ffffffffffffffffffffffffffffffffffffffff168273ffffffffffffffffffffffffffffffffffffffff16141561261a576040517f08c379a000000000000000000000000000000000000000000000000000000000815260040180806020018281038252601f8152602001807f45524332303a206d696e7420746f20746865207a65726f20616464726573730081525060200191505060405180910390fd5b61262660008383612806565b61263b81600354611cd790919063ffffffff16565b60038190555061269381600160008573ffffffffffffffffffffffffffffffffffffffff1673ffffffffffffffffffffffffffffffffffffffff16815260200190815260200160002054611cd790919063ffffffff16565b600160008473ffffffffffffffffffffffffffffffffffffffff1673ffffffffffffffffffffffffffffffffffffffff168152602001908152602001600020819055508173ffffffffffffffffffffffffffffffffffffffff16600073ffffffffffffffffffffffffffffffffffffffff167fddf252ad1be2c89b69c2b068fc378daa952ba7f163c4a11628f55a4df523b3ef836040518082815260200191505060405180910390a35050565b600080831182906127ec576040517f08c379a00000000000000000000000000000000000000000000000000000000081526004018080602001828103825283818151815260200191508051906020019080838360005b838110156127b1578082015181840152602081019050612796565b50505050905090810190601f1680156127de5780820380516001836020036101000a031916815260200191505b509250505060405180910390fd5b5060008385816127f857fe5b049050809150509392505050565b505050565b6040518060800160405280600081526020016000815260200160008152602001600081525090565b60405180604001604052806000815260200160008152509056fe45524332303a207472616e7366657220746f20746865207a65726f20616464726573734f776e61626c653a206e6577206f776e657220697320746865207a65726f206164647265737345524332303a20617070726f766520746f20746865207a65726f206164647265737345524332303a207472616e7366657220616d6f756e7420657863656564732062616c616e6365536166654d6174683a206d756c7469706c69636174696f6e206f766572666c6f7745524332303a207472616e7366657220616d6f756e74206578636565647320616c6c6f77616e636545524332303a207472616e736665722066726f6d20746865207a65726f206164647265737345524332303a20617070726f76652066726f6d20746865207a65726f206164647265737345524332303a2064656372656173656420616c6c6f77616e63652062656c6f77207a65726fa2646970667358221220741115d06508abae50926e236043f7fbfd262ce02c1211eba43018f8782ace5f64736f6c634300060c0033",
					"opcodes": "PUSH1 0x80 PUSH1 0x40 MSTORE PUSH1 0x0 PUSH1 0xA SSTORE CALLVALUE DUP1 ISZERO PUSH3 0x16 JUMPI PUSH1 0x0 DUP1 REVERT JUMPDEST POP PUSH1 0x40 MLOAD DUP1 PUSH1 0x40 ADD PUSH1 0x40 MSTORE DUP1 PUSH1 0x4 DUP2 MSTORE PUSH1 0x20 ADD PUSH32 0x7465737400000000000000000000000000000000000000000000000000000000 DUP2 MSTORE POP PUSH1 0x40 MLOAD DUP1 PUSH1 0x40 ADD PUSH1 0x40 MSTORE DUP1 PUSH1 0x4 DUP2 MSTORE PUSH1 0x20 ADD PUSH32 0x7465737400000000000000000000000000000000000000000000000000000000 DUP2 MSTORE POP PUSH1 0x0 PUSH3 0x95 PUSH3 0x27E PUSH1 0x20 SHL PUSH1 0x20 SHR JUMP JUMPDEST SWAP1 POP DUP1 PUSH1 0x0 DUP1 PUSH2 0x100 EXP DUP2 SLOAD DUP2 PUSH20 0xFFFFFFFFFFFFFFFFFFFFFFFFFFFFFFFFFFFFFFFF MUL NOT AND SWAP1 DUP4 PUSH20 0xFFFFFFFFFFFFFFFFFFFFFFFFFFFFFFFFFFFFFFFF AND MUL OR SWAP1 SSTORE POP DUP1 PUSH20 0xFFFFFFFFFFFFFFFFFFFFFFFFFFFFFFFFFFFFFFFF AND PUSH1 0x0 PUSH20 0xFFFFFFFFFFFFFFFFFFFFFFFFFFFFFFFFFFFFFFFF AND PUSH32 0x8BE0079C531659141344CD1FD0A4F28419497F9722A3DAAFE3B4186F6B6457E0 PUSH1 0x40 MLOAD PUSH1 0x40 MLOAD DUP1 SWAP2 SUB SWAP1 LOG3 POP DUP2 PUSH1 0x4 SWAP1 DUP1 MLOAD SWAP1 PUSH1 0x20 ADD SWAP1 PUSH3 0x14B SWAP3 SWAP2 SWAP1 PUSH3 0x4F4 JUMP JUMPDEST POP DUP1 PUSH1 0x5 SWAP1 DUP1 MLOAD SWAP1 PUSH1 0x20 ADD SWAP1 PUSH3 0x164 SWAP3 SWAP2 SWAP1 PUSH3 0x4F4 JUMP JUMPDEST POP PUSH1 0x1 PUSH1 0x6 PUSH1 0x0 PUSH2 0x100 EXP DUP2 SLOAD DUP2 PUSH1 0xFF MUL NOT AND SWAP1 DUP4 PUSH1 0xFF AND MUL OR SWAP1 SSTORE POP POP POP PUSH3 0x198 ADDRESS PUSH3 0x989680 PUSH3 0x286 PUSH1 0x20 SHL PUSH1 0x20 SHR JUMP JUMPDEST PUSH3 0x1AE CALLER PUSH4 0x5F5E100 PUSH3 0x286 PUSH1 0x20 SHL PUSH1 0x20 SHR JUMP JUMPDEST PUSH1 0x1 PUSH1 0x7 DUP2 SWAP1 SSTORE POP NUMBER PUSH1 0xB DUP2 SWAP1 SSTORE POP PUSH1 0x0 PUSH1 0xB SLOAD NUMBER GT PUSH3 0x1D2 JUMPI PUSH1 0xB SLOAD PUSH3 0x1D4 JUMP JUMPDEST NUMBER JUMPDEST SWAP1 POP PUSH1 0x0 PUSH1 0x64 SWAP1 POP PUSH3 0x1F8 DUP2 PUSH1 0xA SLOAD PUSH3 0x466 PUSH1 0x20 SHL PUSH3 0x1CD7 OR SWAP1 SWAP2 SWAP1 PUSH1 0x20 SHR JUMP JUMPDEST PUSH1 0xA DUP2 SWAP1 SSTORE POP PUSH1 0x8 PUSH1 0x40 MLOAD DUP1 PUSH1 0x80 ADD PUSH1 0x40 MSTORE DUP1 DUP4 DUP2 MSTORE PUSH1 0x20 ADD DUP5 DUP2 MSTORE PUSH1 0x20 ADD PUSH1 0x0 DUP2 MSTORE PUSH1 0x20 ADD PUSH1 0x0 DUP2 MSTORE POP SWAP1 DUP1 PUSH1 0x1 DUP2 SLOAD ADD DUP1 DUP3 SSTORE DUP1 SWAP2 POP POP PUSH1 0x1 SWAP1 SUB SWAP1 PUSH1 0x0 MSTORE PUSH1 0x20 PUSH1 0x0 KECCAK256 SWAP1 PUSH1 0x4 MUL ADD PUSH1 0x0 SWAP1 SWAP2 SWAP1 SWAP2 SWAP1 SWAP2 POP PUSH1 0x0 DUP3 ADD MLOAD DUP2 PUSH1 0x0 ADD SSTORE PUSH1 0x20 DUP3 ADD MLOAD DUP2 PUSH1 0x1 ADD SSTORE PUSH1 0x40 DUP3 ADD MLOAD DUP2 PUSH1 0x2 ADD SSTORE PUSH1 0x60 DUP3 ADD MLOAD DUP2 PUSH1 0x3 ADD SSTORE POP POP POP POP PUSH3 0x59A JUMP JUMPDEST PUSH1 0x0 CALLER SWAP1 POP SWAP1 JUMP JUMPDEST PUSH1 0x0 PUSH20 0xFFFFFFFFFFFFFFFFFFFFFFFFFFFFFFFFFFFFFFFF AND DUP3 PUSH20 0xFFFFFFFFFFFFFFFFFFFFFFFFFFFFFFFFFFFFFFFF AND EQ ISZERO PUSH3 0x32A JUMPI PUSH1 0x40 MLOAD PUSH32 0x8C379A000000000000000000000000000000000000000000000000000000000 DUP2 MSTORE PUSH1 0x4 ADD DUP1 DUP1 PUSH1 0x20 ADD DUP3 DUP2 SUB DUP3 MSTORE PUSH1 0x1F DUP2 MSTORE PUSH1 0x20 ADD DUP1 PUSH32 0x45524332303A206D696E7420746F20746865207A65726F206164647265737300 DUP2 MSTORE POP PUSH1 0x20 ADD SWAP2 POP POP PUSH1 0x40 MLOAD DUP1 SWAP2 SUB SWAP1 REVERT JUMPDEST PUSH3 0x33E PUSH1 0x0 DUP4 DUP4 PUSH3 0x4EF PUSH1 0x20 SHL PUSH1 0x20 SHR JUMP JUMPDEST PUSH3 0x35A DUP2 PUSH1 0x3 SLOAD PUSH3 0x466 PUSH1 0x20 SHL PUSH3 0x1CD7 OR SWAP1 SWAP2 SWAP1 PUSH1 0x20 SHR JUMP JUMPDEST PUSH1 0x3 DUP2 SWAP1 SSTORE POP PUSH3 0x3B9 DUP2 PUSH1 0x1 PUSH1 0x0 DUP6 PUSH20 0xFFFFFFFFFFFFFFFFFFFFFFFFFFFFFFFFFFFFFFFF AND PUSH20 0xFFFFFFFFFFFFFFFFFFFFFFFFFFFFFFFFFFFFFFFF AND DUP2 MSTORE PUSH1 0x20 ADD SWAP1 DUP2 MSTORE PUSH1 0x20 ADD PUSH1 0x0 KECCAK256 SLOAD PUSH3 0x466 PUSH1 0x20 SHL PUSH3 0x1CD7 OR SWAP1 SWAP2 SWAP1 PUSH1 0x20 SHR JUMP JUMPDEST PUSH1 0x1 PUSH1 0x0 DUP5 PUSH20 0xFFFFFFFFFFFFFFFFFFFFFFFFFFFFFFFFFFFFFFFF AND PUSH20 0xFFFFFFFFFFFFFFFFFFFFFFFFFFFFFFFFFFFFFFFF AND DUP2 MSTORE PUSH1 0x20 ADD SWAP1 DUP2 MSTORE PUSH1 0x20 ADD PUSH1 0x0 KECCAK256 DUP2 SWAP1 SSTORE POP DUP2 PUSH20 0xFFFFFFFFFFFFFFFFFFFFFFFFFFFFFFFFFFFFFFFF AND PUSH1 0x0 PUSH20 0xFFFFFFFFFFFFFFFFFFFFFFFFFFFFFFFFFFFFFFFF AND PUSH32 0xDDF252AD1BE2C89B69C2B068FC378DAA952BA7F163C4A11628F55A4DF523B3EF DUP4 PUSH1 0x40 MLOAD DUP1 DUP3 DUP2 MSTORE PUSH1 0x20 ADD SWAP2 POP POP PUSH1 0x40 MLOAD DUP1 SWAP2 SUB SWAP1 LOG3 POP POP JUMP JUMPDEST PUSH1 0x0 DUP1 DUP3 DUP5 ADD SWAP1 POP DUP4 DUP2 LT ISZERO PUSH3 0x4E5 JUMPI PUSH1 0x40 MLOAD PUSH32 0x8C379A000000000000000000000000000000000000000000000000000000000 DUP2 MSTORE PUSH1 0x4 ADD DUP1 DUP1 PUSH1 0x20 ADD DUP3 DUP2 SUB DUP3 MSTORE PUSH1 0x1B DUP2 MSTORE PUSH1 0x20 ADD DUP1 PUSH32 0x536166654D6174683A206164646974696F6E206F766572666C6F770000000000 DUP2 MSTORE POP PUSH1 0x20 ADD SWAP2 POP POP PUSH1 0x40 MLOAD DUP1 SWAP2 SUB SWAP1 REVERT JUMPDEST DUP1 SWAP2 POP POP SWAP3 SWAP2 POP POP JUMP JUMPDEST POP POP POP JUMP JUMPDEST DUP3 DUP1 SLOAD PUSH1 0x1 DUP2 PUSH1 0x1 AND ISZERO PUSH2 0x100 MUL SUB AND PUSH1 0x2 SWAP1 DIV SWAP1 PUSH1 0x0 MSTORE PUSH1 0x20 PUSH1 0x0 KECCAK256 SWAP1 PUSH1 0x1F ADD PUSH1 0x20 SWAP1 DIV DUP2 ADD SWAP3 DUP3 PUSH1 0x1F LT PUSH3 0x537 JUMPI DUP1 MLOAD PUSH1 0xFF NOT AND DUP4 DUP1 ADD OR DUP6 SSTORE PUSH3 0x568 JUMP JUMPDEST DUP3 DUP1 ADD PUSH1 0x1 ADD DUP6 SSTORE DUP3 ISZERO PUSH3 0x568 JUMPI SWAP2 DUP3 ADD JUMPDEST DUP3 DUP2 GT ISZERO PUSH3 0x567 JUMPI DUP3 MLOAD DUP3 SSTORE SWAP2 PUSH1 0x20 ADD SWAP2 SWAP1 PUSH1 0x1 ADD SWAP1 PUSH3 0x54A JUMP JUMPDEST JUMPDEST POP SWAP1 POP PUSH3 0x577 SWAP2 SWAP1 PUSH3 0x57B JUMP JUMPDEST POP SWAP1 JUMP JUMPDEST JUMPDEST DUP1 DUP3 GT ISZERO PUSH3 0x596 JUMPI PUSH1 0x0 DUP2 PUSH1 0x0 SWAP1 SSTORE POP PUSH1 0x1 ADD PUSH3 0x57C JUMP JUMPDEST POP SWAP1 JUMP JUMPDEST PUSH2 0x29CB DUP1 PUSH3 0x5AA PUSH1 0x0 CODECOPY PUSH1 0x0 RETURN INVALID PUSH1 0x80 PUSH1 0x40 MSTORE CALLVALUE DUP1 ISZERO PUSH2 0x10 JUMPI PUSH1 0x0 DUP1 REVERT JUMPDEST POP PUSH1 0x4 CALLDATASIZE LT PUSH2 0x1DA JUMPI PUSH1 0x0 CALLDATALOAD PUSH1 0xE0 SHR DUP1 PUSH4 0x630B5BA1 GT PUSH2 0x104 JUMPI DUP1 PUSH4 0xA457C2D7 GT PUSH2 0xA2 JUMPI DUP1 PUSH4 0xB9C661B9 GT PUSH2 0x71 JUMPI DUP1 PUSH4 0xB9C661B9 EQ PUSH2 0x8A4 JUMPI DUP1 PUSH4 0xDD62ED3E EQ PUSH2 0x8AE JUMPI DUP1 PUSH4 0xE2BBB158 EQ PUSH2 0x926 JUMPI DUP1 PUSH4 0xF2FDE38B EQ PUSH2 0x95E JUMPI PUSH2 0x1DA JUMP JUMPDEST DUP1 PUSH4 0xA457C2D7 EQ PUSH2 0x78A JUMPI DUP1 PUSH4 0xA9059CBB EQ PUSH2 0x7EE JUMPI DUP1 PUSH4 0xB0BCF42A EQ PUSH2 0x852 JUMPI DUP1 PUSH4 0xB2BDFA7B EQ PUSH2 0x870 JUMPI PUSH2 0x1DA JUMP JUMPDEST DUP1 PUSH4 0x8DA5CB5B GT PUSH2 0xDE JUMPI DUP1 PUSH4 0x8DA5CB5B EQ PUSH2 0x61E JUMPI DUP1 PUSH4 0x8DBB1E3A EQ PUSH2 0x652 JUMPI DUP1 PUSH4 0x93F1A40B EQ PUSH2 0x69E JUMPI DUP1 PUSH4 0x95D89B41 EQ PUSH2 0x707 JUMPI PUSH2 0x1DA JUMP JUMPDEST DUP1 PUSH4 0x630B5BA1 EQ PUSH2 0x5B2 JUMPI DUP1 PUSH4 0x70A08231 EQ PUSH2 0x5BC JUMPI DUP1 PUSH4 0x715018A6 EQ PUSH2 0x614 JUMPI PUSH2 0x1DA JUMP JUMPDEST DUP1 PUSH4 0x195426EC GT PUSH2 0x17C JUMPI DUP1 PUSH4 0x441A3E70 GT PUSH2 0x14B JUMPI DUP1 PUSH4 0x441A3E70 EQ PUSH2 0x500 JUMPI DUP1 PUSH4 0x48CD4CB1 EQ PUSH2 0x538 JUMPI DUP1 PUSH4 0x51EB05A6 EQ PUSH2 0x556 JUMPI DUP1 PUSH4 0x5312EA8E EQ PUSH2 0x584 JUMPI PUSH2 0x1DA JUMP JUMPDEST DUP1 PUSH4 0x195426EC EQ PUSH2 0x395 JUMPI DUP1 PUSH4 0x23B872DD EQ PUSH2 0x3F7 JUMPI DUP1 PUSH4 0x313CE567 EQ PUSH2 0x47B JUMPI DUP1 PUSH4 0x39509351 EQ PUSH2 0x49C JUMPI PUSH2 0x1DA JUMP JUMPDEST DUP1 PUSH4 0x95EA7B3 GT PUSH2 0x1B8 JUMPI DUP1 PUSH4 0x95EA7B3 EQ PUSH2 0x29E JUMPI DUP1 PUSH4 0x1526FE27 EQ PUSH2 0x302 JUMPI DUP1 PUSH4 0x17CAF6F1 EQ PUSH2 0x359 JUMPI DUP1 PUSH4 0x18160DDD EQ PUSH2 0x377 JUMPI PUSH2 0x1DA JUMP JUMPDEST DUP1 PUSH4 0x35FF6A5 EQ PUSH2 0x1DF JUMPI DUP1 PUSH4 0x6FDDE03 EQ PUSH2 0x1FD JUMPI DUP1 PUSH4 0x81E3EDA EQ PUSH2 0x280 JUMPI JUMPDEST PUSH1 0x0 DUP1 REVERT JUMPDEST PUSH2 0x1E7 PUSH2 0x9A2 JUMP JUMPDEST PUSH1 0x40 MLOAD DUP1 DUP3 DUP2 MSTORE PUSH1 0x20 ADD SWAP2 POP POP PUSH1 0x40 MLOAD DUP1 SWAP2 SUB SWAP1 RETURN JUMPDEST PUSH2 0x205 PUSH2 0x9A8 JUMP JUMPDEST PUSH1 0x40 MLOAD DUP1 DUP1 PUSH1 0x20 ADD DUP3 DUP2 SUB DUP3 MSTORE DUP4 DUP2 DUP2 MLOAD DUP2 MSTORE PUSH1 0x20 ADD SWAP2 POP DUP1 MLOAD SWAP1 PUSH1 0x20 ADD SWAP1 DUP1 DUP4 DUP4 PUSH1 0x0 JUMPDEST DUP4 DUP2 LT ISZERO PUSH2 0x245 JUMPI DUP1 DUP3 ADD MLOAD DUP2 DUP5 ADD MSTORE PUSH1 0x20 DUP2 ADD SWAP1 POP PUSH2 0x22A JUMP JUMPDEST POP POP POP POP SWAP1 POP SWAP1 DUP2 ADD SWAP1 PUSH1 0x1F AND DUP1 ISZERO PUSH2 0x272 JUMPI DUP1 DUP3 SUB DUP1 MLOAD PUSH1 0x1 DUP4 PUSH1 0x20 SUB PUSH2 0x100 EXP SUB NOT AND DUP2 MSTORE PUSH1 0x20 ADD SWAP2 POP JUMPDEST POP SWAP3 POP POP POP PUSH1 0x40 MLOAD DUP1 SWAP2 SUB SWAP1 RETURN JUMPDEST PUSH2 0x288 PUSH2 0xA4A JUMP JUMPDEST PUSH1 0x40 MLOAD DUP1 DUP3 DUP2 MSTORE PUSH1 0x20 ADD SWAP2 POP POP PUSH1 0x40 MLOAD DUP1 SWAP2 SUB SWAP1 RETURN JUMPDEST PUSH2 0x2EA PUSH1 0x4 DUP1 CALLDATASIZE SUB PUSH1 0x40 DUP2 LT ISZERO PUSH2 0x2B4 JUMPI PUSH1 0x0 DUP1 REVERT JUMPDEST DUP2 ADD SWAP1 DUP1 DUP1 CALLDATALOAD PUSH20 0xFFFFFFFFFFFFFFFFFFFFFFFFFFFFFFFFFFFFFFFF AND SWAP1 PUSH1 0x20 ADD SWAP1 SWAP3 SWAP2 SWAP1 DUP1 CALLDATALOAD SWAP1 PUSH1 0x20 ADD SWAP1 SWAP3 SWAP2 SWAP1 POP POP POP PUSH2 0xA57 JUMP JUMPDEST PUSH1 0x40 MLOAD DUP1 DUP3 ISZERO ISZERO DUP2 MSTORE PUSH1 0x20 ADD SWAP2 POP POP PUSH1 0x40 MLOAD DUP1 SWAP2 SUB SWAP1 RETURN JUMPDEST PUSH2 0x32E PUSH1 0x4 DUP1 CALLDATASIZE SUB PUSH1 0x20 DUP2 LT ISZERO PUSH2 0x318 JUMPI PUSH1 0x0 DUP1 REVERT JUMPDEST DUP2 ADD SWAP1 DUP1 DUP1 CALLDATALOAD SWAP1 PUSH1 0x20 ADD SWAP1 SWAP3 SWAP2 SWAP1 POP POP POP PUSH2 0xA75 JUMP JUMPDEST PUSH1 0x40 MLOAD DUP1 DUP6 DUP2 MSTORE PUSH1 0x20 ADD DUP5 DUP2 MSTORE PUSH1 0x20 ADD DUP4 DUP2 MSTORE PUSH1 0x20 ADD DUP3 DUP2 MSTORE PUSH1 0x20 ADD SWAP5 POP POP POP POP POP PUSH1 0x40 MLOAD DUP1 SWAP2 SUB SWAP1 RETURN JUMPDEST PUSH2 0x361 PUSH2 0xAB2 JUMP JUMPDEST PUSH1 0x40 MLOAD DUP1 DUP3 DUP2 MSTORE PUSH1 0x20 ADD SWAP2 POP POP PUSH1 0x40 MLOAD DUP1 SWAP2 SUB SWAP1 RETURN JUMPDEST PUSH2 0x37F PUSH2 0xAB8 JUMP JUMPDEST PUSH1 0x40 MLOAD DUP1 DUP3 DUP2 MSTORE PUSH1 0x20 ADD SWAP2 POP POP PUSH1 0x40 MLOAD DUP1 SWAP2 SUB SWAP1 RETURN JUMPDEST PUSH2 0x3E1 PUSH1 0x4 DUP1 CALLDATASIZE SUB PUSH1 0x40 DUP2 LT ISZERO PUSH2 0x3AB JUMPI PUSH1 0x0 DUP1 REVERT JUMPDEST DUP2 ADD SWAP1 DUP1 DUP1 CALLDATALOAD SWAP1 PUSH1 0x20 ADD SWAP1 SWAP3 SWAP2 SWAP1 DUP1 CALLDATALOAD PUSH20 0xFFFFFFFFFFFFFFFFFFFFFFFFFFFFFFFFFFFFFFFF AND SWAP1 PUSH1 0x20 ADD SWAP1 SWAP3 SWAP2 SWAP1 POP POP POP PUSH2 0xAC2 JUMP JUMPDEST PUSH1 0x40 MLOAD DUP1 DUP3 DUP2 MSTORE PUSH1 0x20 ADD SWAP2 POP POP PUSH1 0x40 MLOAD DUP1 SWAP2 SUB SWAP1 RETURN JUMPDEST PUSH2 0x463 PUSH1 0x4 DUP1 CALLDATASIZE SUB PUSH1 0x60 DUP2 LT ISZERO PUSH2 0x40D JUMPI PUSH1 0x0 DUP1 REVERT JUMPDEST DUP2 ADD SWAP1 DUP1 DUP1 CALLDATALOAD PUSH20 0xFFFFFFFFFFFFFFFFFFFFFFFFFFFFFFFFFFFFFFFF AND SWAP1 PUSH1 0x20 ADD SWAP1 SWAP3 SWAP2 SWAP1 DUP1 CALLDATALOAD PUSH20 0xFFFFFFFFFFFFFFFFFFFFFFFFFFFFFFFFFFFFFFFF AND SWAP1 PUSH1 0x20 ADD SWAP1 SWAP3 SWAP2 SWAP1 DUP1 CALLDATALOAD SWAP1 PUSH1 0x20 ADD SWAP1 SWAP3 SWAP2 SWAP1 POP POP POP PUSH2 0xC47 JUMP JUMPDEST PUSH1 0x40 MLOAD DUP1 DUP3 ISZERO ISZERO DUP2 MSTORE PUSH1 0x20 ADD SWAP2 POP POP PUSH1 0x40 MLOAD DUP1 SWAP2 SUB SWAP1 RETURN JUMPDEST PUSH2 0x483 PUSH2 0xD20 JUMP JUMPDEST PUSH1 0x40 MLOAD DUP1 DUP3 PUSH1 0xFF AND DUP2 MSTORE PUSH1 0x20 ADD SWAP2 POP POP PUSH1 0x40 MLOAD DUP1 SWAP2 SUB SWAP1 RETURN JUMPDEST PUSH2 0x4E8 PUSH1 0x4 DUP1 CALLDATASIZE SUB PUSH1 0x40 DUP2 LT ISZERO PUSH2 0x4B2 JUMPI PUSH1 0x0 DUP1 REVERT JUMPDEST DUP2 ADD SWAP1 DUP1 DUP1 CALLDATALOAD PUSH20 0xFFFFFFFFFFFFFFFFFFFFFFFFFFFFFFFFFFFFFFFF AND SWAP1 PUSH1 0x20 ADD SWAP1 SWAP3 SWAP2 SWAP1 DUP1 CALLDATALOAD SWAP1 PUSH1 0x20 ADD SWAP1 SWAP3 SWAP2 SWAP1 POP POP POP PUSH2 0xD37 JUMP JUMPDEST PUSH1 0x40 MLOAD DUP1 DUP3 ISZERO ISZERO DUP2 MSTORE PUSH1 0x20 ADD SWAP2 POP POP PUSH1 0x40 MLOAD DUP1 SWAP2 SUB SWAP1 RETURN JUMPDEST PUSH2 0x536 PUSH1 0x4 DUP1 CALLDATASIZE SUB PUSH1 0x40 DUP2 LT ISZERO PUSH2 0x516 JUMPI PUSH1 0x0 DUP1 REVERT JUMPDEST DUP2 ADD SWAP1 DUP1 DUP1 CALLDATALOAD SWAP1 PUSH1 0x20 ADD SWAP1 SWAP3 SWAP2 SWAP1 DUP1 CALLDATALOAD SWAP1 PUSH1 0x20 ADD SWAP1 SWAP3 SWAP2 SWAP1 POP POP POP PUSH2 0xDEA JUMP JUMPDEST STOP JUMPDEST PUSH2 0x540 PUSH2 0x10A4 JUMP JUMPDEST PUSH1 0x40 MLOAD DUP1 DUP3 DUP2 MSTORE PUSH1 0x20 ADD SWAP2 POP POP PUSH1 0x40 MLOAD DUP1 SWAP2 SUB SWAP1 RETURN JUMPDEST PUSH2 0x582 PUSH1 0x4 DUP1 CALLDATASIZE SUB PUSH1 0x20 DUP2 LT ISZERO PUSH2 0x56C JUMPI PUSH1 0x0 DUP1 REVERT JUMPDEST DUP2 ADD SWAP1 DUP1 DUP1 CALLDATALOAD SWAP1 PUSH1 0x20 ADD SWAP1 SWAP3 SWAP2 SWAP1 POP POP POP PUSH2 0x10AA JUMP JUMPDEST STOP JUMPDEST PUSH2 0x5B0 PUSH1 0x4 DUP1 CALLDATASIZE SUB PUSH1 0x20 DUP2 LT ISZERO PUSH2 0x59A JUMPI PUSH1 0x0 DUP1 REVERT JUMPDEST DUP2 ADD SWAP1 DUP1 DUP1 CALLDATALOAD SWAP1 PUSH1 0x20 ADD SWAP1 SWAP3 SWAP2 SWAP1 POP POP POP PUSH2 0x11AA JUMP JUMPDEST STOP JUMPDEST PUSH2 0x5BA PUSH2 0x13AE JUMP JUMPDEST STOP JUMPDEST PUSH2 0x5FE PUSH1 0x4 DUP1 CALLDATASIZE SUB PUSH1 0x20 DUP2 LT ISZERO PUSH2 0x5D2 JUMPI PUSH1 0x0 DUP1 REVERT JUMPDEST DUP2 ADD SWAP1 DUP1 DUP1 CALLDATALOAD PUSH20 0xFFFFFFFFFFFFFFFFFFFFFFFFFFFFFFFFFFFFFFFF AND SWAP1 PUSH1 0x20 ADD SWAP1 SWAP3 SWAP2 SWAP1 POP POP POP PUSH2 0x13DB JUMP JUMPDEST PUSH1 0x40 MLOAD DUP1 DUP3 DUP2 MSTORE PUSH1 0x20 ADD SWAP2 POP POP PUSH1 0x40 MLOAD DUP1 SWAP2 SUB SWAP1 RETURN JUMPDEST PUSH2 0x61C PUSH2 0x1424 JUMP JUMPDEST STOP JUMPDEST PUSH2 0x626 PUSH2 0x15AA JUMP JUMPDEST PUSH1 0x40 MLOAD DUP1 DUP3 PUSH20 0xFFFFFFFFFFFFFFFFFFFFFFFFFFFFFFFFFFFFFFFF AND DUP2 MSTORE PUSH1 0x20 ADD SWAP2 POP POP PUSH1 0x40 MLOAD DUP1 SWAP2 SUB SWAP1 RETURN JUMPDEST PUSH2 0x688 PUSH1 0x4 DUP1 CALLDATASIZE SUB PUSH1 0x40 DUP2 LT ISZERO PUSH2 0x668 JUMPI PUSH1 0x0 DUP1 REVERT JUMPDEST DUP2 ADD SWAP1 DUP1 DUP1 CALLDATALOAD SWAP1 PUSH1 0x20 ADD SWAP1 SWAP3 SWAP2 SWAP1 DUP1 CALLDATALOAD SWAP1 PUSH1 0x20 ADD SWAP1 SWAP3 SWAP2 SWAP1 POP POP POP PUSH2 0x15D3 JUMP JUMPDEST PUSH1 0x40 MLOAD DUP1 DUP3 DUP2 MSTORE PUSH1 0x20 ADD SWAP2 POP POP PUSH1 0x40 MLOAD DUP1 SWAP2 SUB SWAP1 RETURN JUMPDEST PUSH2 0x6EA PUSH1 0x4 DUP1 CALLDATASIZE SUB PUSH1 0x40 DUP2 LT ISZERO PUSH2 0x6B4 JUMPI PUSH1 0x0 DUP1 REVERT JUMPDEST DUP2 ADD SWAP1 DUP1 DUP1 CALLDATALOAD SWAP1 PUSH1 0x20 ADD SWAP1 SWAP3 SWAP2 SWAP1 DUP1 CALLDATALOAD PUSH20 0xFFFFFFFFFFFFFFFFFFFFFFFFFFFFFFFFFFFFFFFF AND SWAP1 PUSH1 0x20 ADD SWAP1 SWAP3 SWAP2 SWAP1 POP POP POP PUSH2 0x15F0 JUMP JUMPDEST PUSH1 0x40 MLOAD DUP1 DUP4 DUP2 MSTORE PUSH1 0x20 ADD DUP3 DUP2 MSTORE PUSH1 0x20 ADD SWAP3 POP POP POP PUSH1 0x40 MLOAD DUP1 SWAP2 SUB SWAP1 RETURN JUMPDEST PUSH2 0x70F PUSH2 0x1621 JUMP JUMPDEST PUSH1 0x40 MLOAD DUP1 DUP1 PUSH1 0x20 ADD DUP3 DUP2 SUB DUP3 MSTORE DUP4 DUP2 DUP2 MLOAD DUP2 MSTORE PUSH1 0x20 ADD SWAP2 POP DUP1 MLOAD SWAP1 PUSH1 0x20 ADD SWAP1 DUP1 DUP4 DUP4 PUSH1 0x0 JUMPDEST DUP4 DUP2 LT ISZERO PUSH2 0x74F JUMPI DUP1 DUP3 ADD MLOAD DUP2 DUP5 ADD MSTORE PUSH1 0x20 DUP2 ADD SWAP1 POP PUSH2 0x734 JUMP JUMPDEST POP POP POP POP SWAP1 POP SWAP1 DUP2 ADD SWAP1 PUSH1 0x1F AND DUP1 ISZERO PUSH2 0x77C JUMPI DUP1 DUP3 SUB DUP1 MLOAD PUSH1 0x1 DUP4 PUSH1 0x20 SUB PUSH2 0x100 EXP SUB NOT AND DUP2 MSTORE PUSH1 0x20 ADD SWAP2 POP JUMPDEST POP SWAP3 POP POP POP PUSH1 0x40 MLOAD DUP1 SWAP2 SUB SWAP1 RETURN JUMPDEST PUSH2 0x7D6 PUSH1 0x4 DUP1 CALLDATASIZE SUB PUSH1 0x40 DUP2 LT ISZERO PUSH2 0x7A0 JUMPI PUSH1 0x0 DUP1 REVERT JUMPDEST DUP2 ADD SWAP1 DUP1 DUP1 CALLDATALOAD PUSH20 0xFFFFFFFFFFFFFFFFFFFFFFFFFFFFFFFFFFFFFFFF AND SWAP1 PUSH1 0x20 ADD SWAP1 SWAP3 SWAP2 SWAP1 DUP1 CALLDATALOAD SWAP1 PUSH1 0x20 ADD SWAP1 SWAP3 SWAP2 SWAP1 POP POP POP PUSH2 0x16C3 JUMP JUMPDEST PUSH1 0x40 MLOAD DUP1 DUP3 ISZERO ISZERO DUP2 MSTORE PUSH1 0x20 ADD SWAP2 POP POP PUSH1 0x40 MLOAD DUP1 SWAP2 SUB SWAP1 RETURN JUMPDEST PUSH2 0x83A PUSH1 0x4 DUP1 CALLDATASIZE SUB PUSH1 0x40 DUP2 LT ISZERO PUSH2 0x804 JUMPI PUSH1 0x0 DUP1 REVERT JUMPDEST DUP2 ADD SWAP1 DUP1 DUP1 CALLDATALOAD PUSH20 0xFFFFFFFFFFFFFFFFFFFFFFFFFFFFFFFFFFFFFFFF AND SWAP1 PUSH1 0x20 ADD SWAP1 SWAP3 SWAP2 SWAP1 DUP1 CALLDATALOAD SWAP1 PUSH1 0x20 ADD SWAP1 SWAP3 SWAP2 SWAP1 POP POP POP PUSH2 0x1790 JUMP JUMPDEST PUSH1 0x40 MLOAD DUP1 DUP3 ISZERO ISZERO DUP2 MSTORE PUSH1 0x20 ADD SWAP2 POP POP PUSH1 0x40 MLOAD DUP1 SWAP2 SUB SWAP1 RETURN JUMPDEST PUSH2 0x85A PUSH2 0x17AE JUMP JUMPDEST PUSH1 0x40 MLOAD DUP1 DUP3 DUP2 MSTORE PUSH1 0x20 ADD SWAP2 POP POP PUSH1 0x40 MLOAD DUP1 SWAP2 SUB SWAP1 RETURN JUMPDEST PUSH2 0x878 PUSH2 0x17B4 JUMP JUMPDEST PUSH1 0x40 MLOAD DUP1 DUP3 PUSH20 0xFFFFFFFFFFFFFFFFFFFFFFFFFFFFFFFFFFFFFFFF AND DUP2 MSTORE PUSH1 0x20 ADD SWAP2 POP POP PUSH1 0x40 MLOAD DUP1 SWAP2 SUB SWAP1 RETURN JUMPDEST PUSH2 0x8AC PUSH2 0x17D8 JUMP JUMPDEST STOP JUMPDEST PUSH2 0x910 PUSH1 0x4 DUP1 CALLDATASIZE SUB PUSH1 0x40 DUP2 LT ISZERO PUSH2 0x8C4 JUMPI PUSH1 0x0 DUP1 REVERT JUMPDEST DUP2 ADD SWAP1 DUP1 DUP1 CALLDATALOAD PUSH20 0xFFFFFFFFFFFFFFFFFFFFFFFFFFFFFFFFFFFFFFFF AND SWAP1 PUSH1 0x20 ADD SWAP1 SWAP3 SWAP2 SWAP1 DUP1 CALLDATALOAD PUSH20 0xFFFFFFFFFFFFFFFFFFFFFFFFFFFFFFFFFFFFFFFF AND SWAP1 PUSH1 0x20 ADD SWAP1 SWAP3 SWAP2 SWAP1 POP POP POP PUSH2 0x1845 JUMP JUMPDEST PUSH1 0x40 MLOAD DUP1 DUP3 DUP2 MSTORE PUSH1 0x20 ADD SWAP2 POP POP PUSH1 0x40 MLOAD DUP1 SWAP2 SUB SWAP1 RETURN JUMPDEST PUSH2 0x95C PUSH1 0x4 DUP1 CALLDATASIZE SUB PUSH1 0x40 DUP2 LT ISZERO PUSH2 0x93C JUMPI PUSH1 0x0 DUP1 REVERT JUMPDEST DUP2 ADD SWAP1 DUP1 DUP1 CALLDATALOAD SWAP1 PUSH1 0x20 ADD SWAP1 SWAP3 SWAP2 SWAP1 DUP1 CALLDATALOAD SWAP1 PUSH1 0x20 ADD SWAP1 SWAP3 SWAP2 SWAP1 POP POP POP PUSH2 0x18CC JUMP JUMPDEST STOP JUMPDEST PUSH2 0x9A0 PUSH1 0x4 DUP1 CALLDATASIZE SUB PUSH1 0x20 DUP2 LT ISZERO PUSH2 0x974 JUMPI PUSH1 0x0 DUP1 REVERT JUMPDEST DUP2 ADD SWAP1 DUP1 DUP1 CALLDATALOAD PUSH20 0xFFFFFFFFFFFFFFFFFFFFFFFFFFFFFFFFFFFFFFFF AND SWAP1 PUSH1 0x20 ADD SWAP1 SWAP3 SWAP2 SWAP1 POP POP POP PUSH2 0x1B38 JUMP JUMPDEST STOP JUMPDEST PUSH1 0xC SLOAD DUP2 JUMP JUMPDEST PUSH1 0x60 PUSH1 0x4 DUP1 SLOAD PUSH1 0x1 DUP2 PUSH1 0x1 AND ISZERO PUSH2 0x100 MUL SUB AND PUSH1 0x2 SWAP1 DIV DUP1 PUSH1 0x1F ADD PUSH1 0x20 DUP1 SWAP2 DIV MUL PUSH1 0x20 ADD PUSH1 0x40 MLOAD SWAP1 DUP2 ADD PUSH1 0x40 MSTORE DUP1 SWAP3 SWAP2 SWAP1 DUP2 DUP2 MSTORE PUSH1 0x20 ADD DUP3 DUP1 SLOAD PUSH1 0x1 DUP2 PUSH1 0x1 AND ISZERO PUSH2 0x100 MUL SUB AND PUSH1 0x2 SWAP1 DIV DUP1 ISZERO PUSH2 0xA40 JUMPI DUP1 PUSH1 0x1F LT PUSH2 0xA15 JUMPI PUSH2 0x100 DUP1 DUP4 SLOAD DIV MUL DUP4 MSTORE SWAP2 PUSH1 0x20 ADD SWAP2 PUSH2 0xA40 JUMP JUMPDEST DUP3 ADD SWAP2 SWAP1 PUSH1 0x0 MSTORE PUSH1 0x20 PUSH1 0x0 KECCAK256 SWAP1 JUMPDEST DUP2 SLOAD DUP2 MSTORE SWAP1 PUSH1 0x1 ADD SWAP1 PUSH1 0x20 ADD DUP1 DUP4 GT PUSH2 0xA23 JUMPI DUP3 SWAP1 SUB PUSH1 0x1F AND DUP3 ADD SWAP2 JUMPDEST POP POP POP POP POP SWAP1 POP SWAP1 JUMP JUMPDEST PUSH1 0x0 PUSH1 0x8 DUP1 SLOAD SWAP1 POP SWAP1 POP SWAP1 JUMP JUMPDEST PUSH1 0x0 PUSH2 0xA6B PUSH2 0xA64 PUSH2 0x1D5F JUMP JUMPDEST DUP5 DUP5 PUSH2 0x1D67 JUMP JUMPDEST PUSH1 0x1 SWAP1 POP SWAP3 SWAP2 POP POP JUMP JUMPDEST PUSH1 0x8 DUP2 DUP2 SLOAD DUP2 LT PUSH2 0xA82 JUMPI INVALID JUMPDEST SWAP1 PUSH1 0x0 MSTORE PUSH1 0x20 PUSH1 0x0 KECCAK256 SWAP1 PUSH1 0x4 MUL ADD PUSH1 0x0 SWAP2 POP SWAP1 POP DUP1 PUSH1 0x0 ADD SLOAD SWAP1 DUP1 PUSH1 0x1 ADD SLOAD SWAP1 DUP1 PUSH1 0x2 ADD SLOAD SWAP1 DUP1 PUSH1 0x3 ADD SLOAD SWAP1 POP DUP5 JUMP JUMPDEST PUSH1 0xA SLOAD DUP2 JUMP JUMPDEST PUSH1 0x0 PUSH1 0x3 SLOAD SWAP1 POP SWAP1 JUMP JUMPDEST PUSH1 0x0 DUP1 PUSH1 0x8 DUP5 DUP2 SLOAD DUP2 LT PUSH2 0xAD2 JUMPI INVALID JUMPDEST SWAP1 PUSH1 0x0 MSTORE PUSH1 0x20 PUSH1 0x0 KECCAK256 SWAP1 PUSH1 0x4 MUL ADD SWAP1 POP PUSH1 0x0 PUSH1 0x9 PUSH1 0x0 DUP7 DUP2 MSTORE PUSH1 0x20 ADD SWAP1 DUP2 MSTORE PUSH1 0x20 ADD PUSH1 0x0 KECCAK256 PUSH1 0x0 DUP6 PUSH20 0xFFFFFFFFFFFFFFFFFFFFFFFFFFFFFFFFFFFFFFFF AND PUSH20 0xFFFFFFFFFFFFFFFFFFFFFFFFFFFFFFFFFFFFFFFF AND DUP2 MSTORE PUSH1 0x20 ADD SWAP1 DUP2 MSTORE PUSH1 0x20 ADD PUSH1 0x0 KECCAK256 SWAP1 POP PUSH1 0x0 DUP3 PUSH1 0x2 ADD SLOAD SWAP1 POP PUSH1 0x0 DUP4 PUSH1 0x3 ADD SLOAD SWAP1 POP DUP4 PUSH1 0x1 ADD SLOAD NUMBER GT DUP1 ISZERO PUSH2 0xB5C JUMPI POP PUSH1 0x0 DUP2 EQ ISZERO JUMPDEST ISZERO PUSH2 0xBF7 JUMPI PUSH1 0x0 PUSH2 0xB71 DUP6 PUSH1 0x1 ADD SLOAD NUMBER PUSH2 0x15D3 JUMP JUMPDEST SWAP1 POP PUSH1 0x0 PUSH2 0xBB4 PUSH1 0xA SLOAD PUSH2 0xBA6 DUP9 PUSH1 0x0 ADD SLOAD PUSH2 0xB98 PUSH1 0x7 SLOAD DUP8 PUSH2 0x1F5E SWAP1 SWAP2 SWAP1 PUSH4 0xFFFFFFFF AND JUMP JUMPDEST PUSH2 0x1F5E SWAP1 SWAP2 SWAP1 PUSH4 0xFFFFFFFF AND JUMP JUMPDEST PUSH2 0x1FE4 SWAP1 SWAP2 SWAP1 PUSH4 0xFFFFFFFF AND JUMP JUMPDEST SWAP1 POP PUSH2 0xBF2 PUSH2 0xBE3 DUP5 PUSH2 0xBD5 PUSH5 0xE8D4A51000 DUP6 PUSH2 0x1F5E SWAP1 SWAP2 SWAP1 PUSH4 0xFFFFFFFF AND JUMP JUMPDEST PUSH2 0x1FE4 SWAP1 SWAP2 SWAP1 PUSH4 0xFFFFFFFF AND JUMP JUMPDEST DUP6 PUSH2 0x1CD7 SWAP1 SWAP2 SWAP1 PUSH4 0xFFFFFFFF AND JUMP JUMPDEST SWAP4 POP POP POP JUMPDEST PUSH2 0xC3B DUP4 PUSH1 0x1 ADD SLOAD PUSH2 0xC2D PUSH5 0xE8D4A51000 PUSH2 0xC1F DUP7 DUP9 PUSH1 0x0 ADD SLOAD PUSH2 0x1F5E SWAP1 SWAP2 SWAP1 PUSH4 0xFFFFFFFF AND JUMP JUMPDEST PUSH2 0x1FE4 SWAP1 SWAP2 SWAP1 PUSH4 0xFFFFFFFF AND JUMP JUMPDEST PUSH2 0x202E SWAP1 SWAP2 SWAP1 PUSH4 0xFFFFFFFF AND JUMP JUMPDEST SWAP5 POP POP POP POP POP SWAP3 SWAP2 POP POP JUMP JUMPDEST PUSH1 0x0 PUSH2 0xC54 DUP5 DUP5 DUP5 PUSH2 0x2078 JUMP JUMPDEST PUSH2 0xD15 DUP5 PUSH2 0xC60 PUSH2 0x1D5F JUMP JUMPDEST PUSH2 0xD10 DUP6 PUSH1 0x40 MLOAD DUP1 PUSH1 0x60 ADD PUSH1 0x40 MSTORE DUP1 PUSH1 0x28 DUP2 MSTORE PUSH1 0x20 ADD PUSH2 0x2900 PUSH1 0x28 SWAP2 CODECOPY PUSH1 0x2 PUSH1 0x0 DUP12 PUSH20 0xFFFFFFFFFFFFFFFFFFFFFFFFFFFFFFFFFFFFFFFF AND PUSH20 0xFFFFFFFFFFFFFFFFFFFFFFFFFFFFFFFFFFFFFFFF AND DUP2 MSTORE PUSH1 0x20 ADD SWAP1 DUP2 MSTORE PUSH1 0x20 ADD PUSH1 0x0 KECCAK256 PUSH1 0x0 PUSH2 0xCC6 PUSH2 0x1D5F JUMP JUMPDEST PUSH20 0xFFFFFFFFFFFFFFFFFFFFFFFFFFFFFFFFFFFFFFFF AND PUSH20 0xFFFFFFFFFFFFFFFFFFFFFFFFFFFFFFFFFFFFFFFF AND DUP2 MSTORE PUSH1 0x20 ADD SWAP1 DUP2 MSTORE PUSH1 0x20 ADD PUSH1 0x0 KECCAK256 SLOAD PUSH2 0x233D SWAP1 SWAP3 SWAP2 SWAP1 PUSH4 0xFFFFFFFF AND JUMP JUMPDEST PUSH2 0x1D67 JUMP JUMPDEST PUSH1 0x1 SWAP1 POP SWAP4 SWAP3 POP POP POP JUMP JUMPDEST PUSH1 0x0 PUSH1 0x6 PUSH1 0x0 SWAP1 SLOAD SWAP1 PUSH2 0x100 EXP SWAP1 DIV PUSH1 0xFF AND SWAP1 POP SWAP1 JUMP JUMPDEST PUSH1 0x0 PUSH2 0xDE0 PUSH2 0xD44 PUSH2 0x1D5F JUMP JUMPDEST DUP5 PUSH2 0xDDB DUP6 PUSH1 0x2 PUSH1 0x0 PUSH2 0xD55 PUSH2 0x1D5F JUMP JUMPDEST PUSH20 0xFFFFFFFFFFFFFFFFFFFFFFFFFFFFFFFFFFFFFFFF AND PUSH20 0xFFFFFFFFFFFFFFFFFFFFFFFFFFFFFFFFFFFFFFFF AND DUP2 MSTORE PUSH1 0x20 ADD SWAP1 DUP2 MSTORE PUSH1 0x20 ADD PUSH1 0x0 KECCAK256 PUSH1 0x0 DUP10 PUSH20 0xFFFFFFFFFFFFFFFFFFFFFFFFFFFFFFFFFFFFFFFF AND PUSH20 0xFFFFFFFFFFFFFFFFFFFFFFFFFFFFFFFFFFFFFFFF AND DUP2 MSTORE PUSH1 0x20 ADD SWAP1 DUP2 MSTORE PUSH1 0x20 ADD PUSH1 0x0 KECCAK256 SLOAD PUSH2 0x1CD7 SWAP1 SWAP2 SWAP1 PUSH4 0xFFFFFFFF AND JUMP JUMPDEST PUSH2 0x1D67 JUMP JUMPDEST PUSH1 0x1 SWAP1 POP SWAP3 SWAP2 POP POP JUMP JUMPDEST PUSH1 0x0 PUSH1 0x8 DUP4 DUP2 SLOAD DUP2 LT PUSH2 0xDF9 JUMPI INVALID JUMPDEST SWAP1 PUSH1 0x0 MSTORE PUSH1 0x20 PUSH1 0x0 KECCAK256 SWAP1 PUSH1 0x4 MUL ADD SWAP1 POP PUSH1 0x0 PUSH1 0x9 PUSH1 0x0 DUP6 DUP2 MSTORE PUSH1 0x20 ADD SWAP1 DUP2 MSTORE PUSH1 0x20 ADD PUSH1 0x0 KECCAK256 PUSH1 0x0 CALLER PUSH20 0xFFFFFFFFFFFFFFFFFFFFFFFFFFFFFFFFFFFFFFFF AND PUSH20 0xFFFFFFFFFFFFFFFFFFFFFFFFFFFFFFFFFFFFFFFF AND DUP2 MSTORE PUSH1 0x20 ADD SWAP1 DUP2 MSTORE PUSH1 0x20 ADD PUSH1 0x0 KECCAK256 SWAP1 POP DUP3 DUP2 PUSH1 0x0 ADD SLOAD LT ISZERO PUSH2 0xED7 JUMPI PUSH1 0x40 MLOAD PUSH32 0x8C379A000000000000000000000000000000000000000000000000000000000 DUP2 MSTORE PUSH1 0x4 ADD DUP1 DUP1 PUSH1 0x20 ADD DUP3 DUP2 SUB DUP3 MSTORE PUSH1 0x12 DUP2 MSTORE PUSH1 0x20 ADD DUP1 PUSH32 0x77697468647261773A206E6F7420676F6F640000000000000000000000000000 DUP2 MSTORE POP PUSH1 0x20 ADD SWAP2 POP POP PUSH1 0x40 MLOAD DUP1 SWAP2 SUB SWAP1 REVERT JUMPDEST PUSH2 0xEE0 DUP5 PUSH2 0x10AA JUMP JUMPDEST PUSH1 0x0 PUSH2 0xF2A DUP3 PUSH1 0x1 ADD SLOAD PUSH2 0xF1C PUSH5 0xE8D4A51000 PUSH2 0xF0E DUP8 PUSH1 0x2 ADD SLOAD DUP8 PUSH1 0x0 ADD SLOAD PUSH2 0x1F5E SWAP1 SWAP2 SWAP1 PUSH4 0xFFFFFFFF AND JUMP JUMPDEST PUSH2 0x1FE4 SWAP1 SWAP2 SWAP1 PUSH4 0xFFFFFFFF AND JUMP JUMPDEST PUSH2 0x202E SWAP1 SWAP2 SWAP1 PUSH4 0xFFFFFFFF AND JUMP JUMPDEST SWAP1 POP PUSH2 0xF36 CALLER DUP3 PUSH2 0x23FD JUMP JUMPDEST PUSH2 0xF4D DUP5 DUP4 PUSH1 0x0 ADD SLOAD PUSH2 0x202E SWAP1 SWAP2 SWAP1 PUSH4 0xFFFFFFFF AND JUMP JUMPDEST DUP3 PUSH1 0x0 ADD DUP2 SWAP1 SSTORE POP PUSH2 0xF87 PUSH5 0xE8D4A51000 PUSH2 0xF79 DUP6 PUSH1 0x2 ADD SLOAD DUP6 PUSH1 0x0 ADD SLOAD PUSH2 0x1F5E SWAP1 SWAP2 SWAP1 PUSH4 0xFFFFFFFF AND JUMP JUMPDEST PUSH2 0x1FE4 SWAP1 SWAP2 SWAP1 PUSH4 0xFFFFFFFF AND JUMP JUMPDEST DUP3 PUSH1 0x1 ADD DUP2 SWAP1 SSTORE POP DUP4 DUP4 PUSH1 0x3 ADD PUSH1 0x0 DUP3 DUP3 SLOAD SUB SWAP3 POP POP DUP2 SWAP1 SSTORE POP ADDRESS PUSH20 0xFFFFFFFFFFFFFFFFFFFFFFFFFFFFFFFFFFFFFFFF AND PUSH4 0xA9059CBB CALLER DUP7 PUSH1 0x40 MLOAD DUP4 PUSH4 0xFFFFFFFF AND PUSH1 0xE0 SHL DUP2 MSTORE PUSH1 0x4 ADD DUP1 DUP4 PUSH20 0xFFFFFFFFFFFFFFFFFFFFFFFFFFFFFFFFFFFFFFFF AND DUP2 MSTORE PUSH1 0x20 ADD DUP3 DUP2 MSTORE PUSH1 0x20 ADD SWAP3 POP POP POP PUSH1 0x20 PUSH1 0x40 MLOAD DUP1 DUP4 SUB DUP2 PUSH1 0x0 DUP8 DUP1 EXTCODESIZE ISZERO DUP1 ISZERO PUSH2 0x1012 JUMPI PUSH1 0x0 DUP1 REVERT JUMPDEST POP GAS CALL ISZERO DUP1 ISZERO PUSH2 0x1026 JUMPI RETURNDATASIZE PUSH1 0x0 DUP1 RETURNDATACOPY RETURNDATASIZE PUSH1 0x0 REVERT JUMPDEST POP POP POP POP PUSH1 0x40 MLOAD RETURNDATASIZE PUSH1 0x20 DUP2 LT ISZERO PUSH2 0x103C JUMPI PUSH1 0x0 DUP1 REVERT JUMPDEST DUP2 ADD SWAP1 DUP1 DUP1 MLOAD SWAP1 PUSH1 0x20 ADD SWAP1 SWAP3 SWAP2 SWAP1 POP POP POP POP DUP5 CALLER PUSH20 0xFFFFFFFFFFFFFFFFFFFFFFFFFFFFFFFFFFFFFFFF AND PUSH32 0xF279E6A1F5E320CCA91135676D9CB6E44CA8A08C0B88342BCDB1144F6511B568 DUP7 PUSH1 0x40 MLOAD DUP1 DUP3 DUP2 MSTORE PUSH1 0x20 ADD SWAP2 POP POP PUSH1 0x40 MLOAD DUP1 SWAP2 SUB SWAP1 LOG3 POP POP POP POP POP JUMP JUMPDEST PUSH1 0xB SLOAD DUP2 JUMP JUMPDEST PUSH1 0x0 PUSH1 0x8 DUP3 DUP2 SLOAD DUP2 LT PUSH2 0x10B9 JUMPI INVALID JUMPDEST SWAP1 PUSH1 0x0 MSTORE PUSH1 0x20 PUSH1 0x0 KECCAK256 SWAP1 PUSH1 0x4 MUL ADD SWAP1 POP DUP1 PUSH1 0x1 ADD SLOAD NUMBER GT PUSH2 0x10DA JUMPI POP PUSH2 0x11A7 JUMP JUMPDEST PUSH1 0x0 DUP2 PUSH1 0x3 ADD SLOAD SWAP1 POP PUSH1 0x0 DUP2 EQ ISZERO PUSH2 0x10FC JUMPI NUMBER DUP3 PUSH1 0x1 ADD DUP2 SWAP1 SSTORE POP POP POP PUSH2 0x11A7 JUMP JUMPDEST PUSH1 0x0 PUSH2 0x110C DUP4 PUSH1 0x1 ADD SLOAD NUMBER PUSH2 0x15D3 JUMP JUMPDEST SWAP1 POP PUSH1 0x0 PUSH2 0x114F PUSH1 0xA SLOAD PUSH2 0x1141 DUP7 PUSH1 0x0 ADD SLOAD PUSH2 0x1133 PUSH1 0x7 SLOAD DUP8 PUSH2 0x1F5E SWAP1 SWAP2 SWAP1 PUSH4 0xFFFFFFFF AND JUMP JUMPDEST PUSH2 0x1F5E SWAP1 SWAP2 SWAP1 PUSH4 0xFFFFFFFF AND JUMP JUMPDEST PUSH2 0x1FE4 SWAP1 SWAP2 SWAP1 PUSH4 0xFFFFFFFF AND JUMP JUMPDEST SWAP1 POP PUSH2 0x1191 PUSH2 0x117E DUP5 PUSH2 0x1170 PUSH5 0xE8D4A51000 DUP6 PUSH2 0x1F5E SWAP1 SWAP2 SWAP1 PUSH4 0xFFFFFFFF AND JUMP JUMPDEST PUSH2 0x1FE4 SWAP1 SWAP2 SWAP1 PUSH4 0xFFFFFFFF AND JUMP JUMPDEST DUP6 PUSH1 0x2 ADD SLOAD PUSH2 0x1CD7 SWAP1 SWAP2 SWAP1 PUSH4 0xFFFFFFFF AND JUMP JUMPDEST DUP5 PUSH1 0x2 ADD DUP2 SWAP1 SSTORE POP NUMBER DUP5 PUSH1 0x1 ADD DUP2 SWAP1 SSTORE POP POP POP POP POP JUMPDEST POP JUMP JUMPDEST PUSH2 0x11B2 PUSH2 0x280B JUMP JUMPDEST PUSH1 0x8 DUP3 DUP2 SLOAD DUP2 LT PUSH2 0x11BF JUMPI INVALID JUMPDEST SWAP1 PUSH1 0x0 MSTORE PUSH1 0x20 PUSH1 0x0 KECCAK256 SWAP1 PUSH1 0x4 MUL ADD PUSH1 0x40 MLOAD DUP1 PUSH1 0x80 ADD PUSH1 0x40 MSTORE SWAP1 DUP2 PUSH1 0x0 DUP3 ADD SLOAD DUP2 MSTORE PUSH1 0x20 ADD PUSH1 0x1 DUP3 ADD SLOAD DUP2 MSTORE PUSH1 0x20 ADD PUSH1 0x2 DUP3 ADD SLOAD DUP2 MSTORE PUSH1 0x20 ADD PUSH1 0x3 DUP3 ADD SLOAD DUP2 MSTORE POP POP SWAP1 POP PUSH2 0x120A PUSH2 0x2833 JUMP JUMPDEST PUSH1 0x9 PUSH1 0x0 DUP5 DUP2 MSTORE PUSH1 0x20 ADD SWAP1 DUP2 MSTORE PUSH1 0x20 ADD PUSH1 0x0 KECCAK256 PUSH1 0x0 CALLER PUSH20 0xFFFFFFFFFFFFFFFFFFFFFFFFFFFFFFFFFFFFFFFF AND PUSH20 0xFFFFFFFFFFFFFFFFFFFFFFFFFFFFFFFFFFFFFFFF AND DUP2 MSTORE PUSH1 0x20 ADD SWAP1 DUP2 MSTORE PUSH1 0x20 ADD PUSH1 0x0 KECCAK256 PUSH1 0x40 MLOAD DUP1 PUSH1 0x40 ADD PUSH1 0x40 MSTORE SWAP1 DUP2 PUSH1 0x0 DUP3 ADD SLOAD DUP2 MSTORE PUSH1 0x20 ADD PUSH1 0x1 DUP3 ADD SLOAD DUP2 MSTORE POP POP SWAP1 POP ADDRESS PUSH20 0xFFFFFFFFFFFFFFFFFFFFFFFFFFFFFFFFFFFFFFFF AND PUSH4 0xA9059CBB CALLER DUP4 PUSH1 0x0 ADD MLOAD PUSH1 0x40 MLOAD DUP4 PUSH4 0xFFFFFFFF AND PUSH1 0xE0 SHL DUP2 MSTORE PUSH1 0x4 ADD DUP1 DUP4 PUSH20 0xFFFFFFFFFFFFFFFFFFFFFFFFFFFFFFFFFFFFFFFF AND DUP2 MSTORE PUSH1 0x20 ADD DUP3 DUP2 MSTORE PUSH1 0x20 ADD SWAP3 POP POP POP PUSH1 0x20 PUSH1 0x40 MLOAD DUP1 DUP4 SUB DUP2 PUSH1 0x0 DUP8 DUP1 EXTCODESIZE ISZERO DUP1 ISZERO PUSH2 0x12F0 JUMPI PUSH1 0x0 DUP1 REVERT JUMPDEST POP GAS CALL ISZERO DUP1 ISZERO PUSH2 0x1304 JUMPI RETURNDATASIZE PUSH1 0x0 DUP1 RETURNDATACOPY RETURNDATASIZE PUSH1 0x0 REVERT JUMPDEST POP POP POP POP PUSH1 0x40 MLOAD RETURNDATASIZE PUSH1 0x20 DUP2 LT ISZERO PUSH2 0x131A JUMPI PUSH1 0x0 DUP1 REVERT JUMPDEST DUP2 ADD SWAP1 DUP1 DUP1 MLOAD SWAP1 PUSH1 0x20 ADD SWAP1 SWAP3 SWAP2 SWAP1 POP POP POP POP DUP3 CALLER PUSH20 0xFFFFFFFFFFFFFFFFFFFFFFFFFFFFFFFFFFFFFFFF AND PUSH32 0xBB757047C2B5F3974FE26B7C10F732E7BCE710B0952A71082702781E62AE0595 DUP4 PUSH1 0x0 ADD MLOAD PUSH1 0x40 MLOAD DUP1 DUP3 DUP2 MSTORE PUSH1 0x20 ADD SWAP2 POP POP PUSH1 0x40 MLOAD DUP1 SWAP2 SUB SWAP1 LOG3 DUP1 PUSH1 0x0 ADD MLOAD DUP3 PUSH1 0x60 ADD DUP2 DUP2 MLOAD SUB SWAP2 POP DUP2 DUP2 MSTORE POP POP PUSH1 0x0 DUP2 PUSH1 0x0 ADD DUP2 DUP2 MSTORE POP POP PUSH1 0x0 DUP2 PUSH1 0x20 ADD DUP2 DUP2 MSTORE POP POP POP POP POP JUMP JUMPDEST PUSH1 0x0 PUSH1 0x8 DUP1 SLOAD SWAP1 POP SWAP1 POP PUSH1 0x0 JUMPDEST DUP2 DUP2 LT ISZERO PUSH2 0x13D7 JUMPI PUSH2 0x13CC DUP2 PUSH2 0x10AA JUMP JUMPDEST DUP1 PUSH1 0x1 ADD SWAP1 POP PUSH2 0x13BB JUMP JUMPDEST POP POP JUMP JUMPDEST PUSH1 0x0 PUSH1 0x1 PUSH1 0x0 DUP4 PUSH20 0xFFFFFFFFFFFFFFFFFFFFFFFFFFFFFFFFFFFFFFFF AND PUSH20 0xFFFFFFFFFFFFFFFFFFFFFFFFFFFFFFFFFFFFFFFF AND DUP2 MSTORE PUSH1 0x20 ADD SWAP1 DUP2 MSTORE PUSH1 0x20 ADD PUSH1 0x0 KECCAK256 SLOAD SWAP1 POP SWAP2 SWAP1 POP JUMP JUMPDEST PUSH2 0x142C PUSH2 0x1D5F JUMP JUMPDEST PUSH20 0xFFFFFFFFFFFFFFFFFFFFFFFFFFFFFFFFFFFFFFFF AND PUSH1 0x0 DUP1 SLOAD SWAP1 PUSH2 0x100 EXP SWAP1 DIV PUSH20 0xFFFFFFFFFFFFFFFFFFFFFFFFFFFFFFFFFFFFFFFF AND PUSH20 0xFFFFFFFFFFFFFFFFFFFFFFFFFFFFFFFFFFFFFFFF AND EQ PUSH2 0x14EC JUMPI PUSH1 0x40 MLOAD PUSH32 0x8C379A000000000000000000000000000000000000000000000000000000000 DUP2 MSTORE PUSH1 0x4 ADD DUP1 DUP1 PUSH1 0x20 ADD DUP3 DUP2 SUB DUP3 MSTORE PUSH1 0x20 DUP2 MSTORE PUSH1 0x20 ADD DUP1 PUSH32 0x4F776E61626C653A2063616C6C6572206973206E6F7420746865206F776E6572 DUP2 MSTORE POP PUSH1 0x20 ADD SWAP2 POP POP PUSH1 0x40 MLOAD DUP1 SWAP2 SUB SWAP1 REVERT JUMPDEST PUSH1 0x0 PUSH20 0xFFFFFFFFFFFFFFFFFFFFFFFFFFFFFFFFFFFFFFFF AND PUSH1 0x0 DUP1 SLOAD SWAP1 PUSH2 0x100 EXP SWAP1 DIV PUSH20 0xFFFFFFFFFFFFFFFFFFFFFFFFFFFFFFFFFFFFFFFF AND PUSH20 0xFFFFFFFFFFFFFFFFFFFFFFFFFFFFFFFFFFFFFFFF AND PUSH32 0x8BE0079C531659141344CD1FD0A4F28419497F9722A3DAAFE3B4186F6B6457E0 PUSH1 0x40 MLOAD PUSH1 0x40 MLOAD DUP1 SWAP2 SUB SWAP1 LOG3 PUSH1 0x0 DUP1 PUSH1 0x0 PUSH2 0x100 EXP DUP2 SLOAD DUP2 PUSH20 0xFFFFFFFFFFFFFFFFFFFFFFFFFFFFFFFFFFFFFFFF MUL NOT AND SWAP1 DUP4 PUSH20 0xFFFFFFFFFFFFFFFFFFFFFFFFFFFFFFFFFFFFFFFF AND MUL OR SWAP1 SSTORE POP JUMP JUMPDEST PUSH1 0x0 DUP1 PUSH1 0x0 SWAP1 SLOAD SWAP1 PUSH2 0x100 EXP SWAP1 DIV PUSH20 0xFFFFFFFFFFFFFFFFFFFFFFFFFFFFFFFFFFFFFFFF AND SWAP1 POP SWAP1 JUMP JUMPDEST PUSH1 0x0 PUSH2 0x15E8 DUP4 DUP4 PUSH2 0x202E SWAP1 SWAP2 SWAP1 PUSH4 0xFFFFFFFF AND JUMP JUMPDEST SWAP1 POP SWAP3 SWAP2 POP POP JUMP JUMPDEST PUSH1 0x9 PUSH1 0x20 MSTORE DUP2 PUSH1 0x0 MSTORE PUSH1 0x40 PUSH1 0x0 KECCAK256 PUSH1 0x20 MSTORE DUP1 PUSH1 0x0 MSTORE PUSH1 0x40 PUSH1 0x0 KECCAK256 PUSH1 0x0 SWAP2 POP SWAP2 POP POP DUP1 PUSH1 0x0 ADD SLOAD SWAP1 DUP1 PUSH1 0x1 ADD SLOAD SWAP1 POP DUP3 JUMP JUMPDEST PUSH1 0x60 PUSH1 0x5 DUP1 SLOAD PUSH1 0x1 DUP2 PUSH1 0x1 AND ISZERO PUSH2 0x100 MUL SUB AND PUSH1 0x2 SWAP1 DIV DUP1 PUSH1 0x1F ADD PUSH1 0x20 DUP1 SWAP2 DIV MUL PUSH1 0x20 ADD PUSH1 0x40 MLOAD SWAP1 DUP2 ADD PUSH1 0x40 MSTORE DUP1 SWAP3 SWAP2 SWAP1 DUP2 DUP2 MSTORE PUSH1 0x20 ADD DUP3 DUP1 SLOAD PUSH1 0x1 DUP2 PUSH1 0x1 AND ISZERO PUSH2 0x100 MUL SUB AND PUSH1 0x2 SWAP1 DIV DUP1 ISZERO PUSH2 0x16B9 JUMPI DUP1 PUSH1 0x1F LT PUSH2 0x168E JUMPI PUSH2 0x100 DUP1 DUP4 SLOAD DIV MUL DUP4 MSTORE SWAP2 PUSH1 0x20 ADD SWAP2 PUSH2 0x16B9 JUMP JUMPDEST DUP3 ADD SWAP2 SWAP1 PUSH1 0x0 MSTORE PUSH1 0x20 PUSH1 0x0 KECCAK256 SWAP1 JUMPDEST DUP2 SLOAD DUP2 MSTORE SWAP1 PUSH1 0x1 ADD SWAP1 PUSH1 0x20 ADD DUP1 DUP4 GT PUSH2 0x169C JUMPI DUP3 SWAP1 SUB PUSH1 0x1F AND DUP3 ADD SWAP2 JUMPDEST POP POP POP POP POP SWAP1 POP SWAP1 JUMP JUMPDEST PUSH1 0x0 PUSH2 0x1786 PUSH2 0x16D0 PUSH2 0x1D5F JUMP JUMPDEST DUP5 PUSH2 0x1781 DUP6 PUSH1 0x40 MLOAD DUP1 PUSH1 0x60 ADD PUSH1 0x40 MSTORE DUP1 PUSH1 0x25 DUP2 MSTORE PUSH1 0x20 ADD PUSH2 0x2971 PUSH1 0x25 SWAP2 CODECOPY PUSH1 0x2 PUSH1 0x0 PUSH2 0x16FA PUSH2 0x1D5F JUMP JUMPDEST PUSH20 0xFFFFFFFFFFFFFFFFFFFFFFFFFFFFFFFFFFFFFFFF AND PUSH20 0xFFFFFFFFFFFFFFFFFFFFFFFFFFFFFFFFFFFFFFFF AND DUP2 MSTORE PUSH1 0x20 ADD SWAP1 DUP2 MSTORE PUSH1 0x20 ADD PUSH1 0x0 KECCAK256 PUSH1 0x0 DUP11 PUSH20 0xFFFFFFFFFFFFFFFFFFFFFFFFFFFFFFFFFFFFFFFF AND PUSH20 0xFFFFFFFFFFFFFFFFFFFFFFFFFFFFFFFFFFFFFFFF AND DUP2 MSTORE PUSH1 0x20 ADD SWAP1 DUP2 MSTORE PUSH1 0x20 ADD PUSH1 0x0 KECCAK256 SLOAD PUSH2 0x233D SWAP1 SWAP3 SWAP2 SWAP1 PUSH4 0xFFFFFFFF AND JUMP JUMPDEST PUSH2 0x1D67 JUMP JUMPDEST PUSH1 0x1 SWAP1 POP SWAP3 SWAP2 POP POP JUMP JUMPDEST PUSH1 0x0 PUSH2 0x17A4 PUSH2 0x179D PUSH2 0x1D5F JUMP JUMPDEST DUP5 DUP5 PUSH2 0x2078 JUMP JUMPDEST PUSH1 0x1 SWAP1 POP SWAP3 SWAP2 POP POP JUMP JUMPDEST PUSH1 0x7 SLOAD DUP2 JUMP JUMPDEST PUSH1 0x0 DUP1 SLOAD SWAP1 PUSH2 0x100 EXP SWAP1 DIV PUSH20 0xFFFFFFFFFFFFFFFFFFFFFFFFFFFFFFFFFFFFFFFF AND DUP2 JUMP JUMPDEST PUSH2 0x3E8 PUSH1 0xC SLOAD LT PUSH2 0x182C JUMPI PUSH1 0x40 MLOAD PUSH32 0x8C379A000000000000000000000000000000000000000000000000000000000 DUP2 MSTORE PUSH1 0x4 ADD DUP1 DUP1 PUSH1 0x20 ADD DUP3 DUP2 SUB DUP3 MSTORE PUSH1 0x0 DUP2 MSTORE PUSH1 0x20 ADD PUSH1 0x20 ADD SWAP2 POP POP PUSH1 0x40 MLOAD DUP1 SWAP2 SUB SWAP1 REVERT JUMPDEST PUSH2 0x1837 CALLER PUSH1 0x1 PUSH2 0x2577 JUMP JUMPDEST PUSH1 0x1 PUSH1 0xC SLOAD ADD PUSH1 0xC DUP2 SWAP1 SSTORE POP JUMP JUMPDEST PUSH1 0x0 PUSH1 0x2 PUSH1 0x0 DUP5 PUSH20 0xFFFFFFFFFFFFFFFFFFFFFFFFFFFFFFFFFFFFFFFF AND PUSH20 0xFFFFFFFFFFFFFFFFFFFFFFFFFFFFFFFFFFFFFFFF AND DUP2 MSTORE PUSH1 0x20 ADD SWAP1 DUP2 MSTORE PUSH1 0x20 ADD PUSH1 0x0 KECCAK256 PUSH1 0x0 DUP4 PUSH20 0xFFFFFFFFFFFFFFFFFFFFFFFFFFFFFFFFFFFFFFFF AND PUSH20 0xFFFFFFFFFFFFFFFFFFFFFFFFFFFFFFFFFFFFFFFF AND DUP2 MSTORE PUSH1 0x20 ADD SWAP1 DUP2 MSTORE PUSH1 0x20 ADD PUSH1 0x0 KECCAK256 SLOAD SWAP1 POP SWAP3 SWAP2 POP POP JUMP JUMPDEST PUSH1 0x0 PUSH1 0x8 DUP4 DUP2 SLOAD DUP2 LT PUSH2 0x18DB JUMPI INVALID JUMPDEST SWAP1 PUSH1 0x0 MSTORE PUSH1 0x20 PUSH1 0x0 KECCAK256 SWAP1 PUSH1 0x4 MUL ADD SWAP1 POP PUSH1 0x0 PUSH1 0x9 PUSH1 0x0 DUP6 DUP2 MSTORE PUSH1 0x20 ADD SWAP1 DUP2 MSTORE PUSH1 0x20 ADD PUSH1 0x0 KECCAK256 PUSH1 0x0 CALLER PUSH20 0xFFFFFFFFFFFFFFFFFFFFFFFFFFFFFFFFFFFFFFFF AND PUSH20 0xFFFFFFFFFFFFFFFFFFFFFFFFFFFFFFFFFFFFFFFF AND DUP2 MSTORE PUSH1 0x20 ADD SWAP1 DUP2 MSTORE PUSH1 0x20 ADD PUSH1 0x0 KECCAK256 SWAP1 POP PUSH2 0x1948 DUP5 PUSH2 0x10AA JUMP JUMPDEST PUSH1 0x0 DUP2 PUSH1 0x0 ADD SLOAD GT ISZERO PUSH2 0x19AD JUMPI PUSH1 0x0 PUSH2 0x199F DUP3 PUSH1 0x1 ADD SLOAD PUSH2 0x1991 PUSH5 0xE8D4A51000 PUSH2 0x1983 DUP8 PUSH1 0x2 ADD SLOAD DUP8 PUSH1 0x0 ADD SLOAD PUSH2 0x1F5E SWAP1 SWAP2 SWAP1 PUSH4 0xFFFFFFFF AND JUMP JUMPDEST PUSH2 0x1FE4 SWAP1 SWAP2 SWAP1 PUSH4 0xFFFFFFFF AND JUMP JUMPDEST PUSH2 0x202E SWAP1 SWAP2 SWAP1 PUSH4 0xFFFFFFFF AND JUMP JUMPDEST SWAP1 POP PUSH2 0x19AB CALLER DUP3 PUSH2 0x23FD JUMP JUMPDEST POP JUMPDEST ADDRESS PUSH20 0xFFFFFFFFFFFFFFFFFFFFFFFFFFFFFFFFFFFFFFFF AND PUSH4 0x23B872DD CALLER ADDRESS DUP7 PUSH1 0x40 MLOAD DUP5 PUSH4 0xFFFFFFFF AND PUSH1 0xE0 SHL DUP2 MSTORE PUSH1 0x4 ADD DUP1 DUP5 PUSH20 0xFFFFFFFFFFFFFFFFFFFFFFFFFFFFFFFFFFFFFFFF AND DUP2 MSTORE PUSH1 0x20 ADD DUP4 PUSH20 0xFFFFFFFFFFFFFFFFFFFFFFFFFFFFFFFFFFFFFFFF AND DUP2 MSTORE PUSH1 0x20 ADD DUP3 DUP2 MSTORE PUSH1 0x20 ADD SWAP4 POP POP POP POP PUSH1 0x20 PUSH1 0x40 MLOAD DUP1 DUP4 SUB DUP2 PUSH1 0x0 DUP8 DUP1 EXTCODESIZE ISZERO DUP1 ISZERO PUSH2 0x1A3C JUMPI PUSH1 0x0 DUP1 REVERT JUMPDEST POP GAS CALL ISZERO DUP1 ISZERO PUSH2 0x1A50 JUMPI RETURNDATASIZE PUSH1 0x0 DUP1 RETURNDATACOPY RETURNDATASIZE PUSH1 0x0 REVERT JUMPDEST POP POP POP POP PUSH1 0x40 MLOAD RETURNDATASIZE PUSH1 0x20 DUP2 LT ISZERO PUSH2 0x1A66 JUMPI PUSH1 0x0 DUP1 REVERT JUMPDEST DUP2 ADD SWAP1 DUP1 DUP1 MLOAD SWAP1 PUSH1 0x20 ADD SWAP1 SWAP3 SWAP2 SWAP1 POP POP POP POP PUSH2 0x1A8F DUP4 DUP3 PUSH1 0x0 ADD SLOAD PUSH2 0x1CD7 SWAP1 SWAP2 SWAP1 PUSH4 0xFFFFFFFF AND JUMP JUMPDEST DUP2 PUSH1 0x0 ADD DUP2 SWAP1 SSTORE POP PUSH2 0x1AC9 PUSH5 0xE8D4A51000 PUSH2 0x1ABB DUP5 PUSH1 0x2 ADD SLOAD DUP5 PUSH1 0x0 ADD SLOAD PUSH2 0x1F5E SWAP1 SWAP2 SWAP1 PUSH4 0xFFFFFFFF AND JUMP JUMPDEST PUSH2 0x1FE4 SWAP1 SWAP2 SWAP1 PUSH4 0xFFFFFFFF AND JUMP JUMPDEST DUP2 PUSH1 0x1 ADD DUP2 SWAP1 SSTORE POP DUP3 DUP3 PUSH1 0x3 ADD PUSH1 0x0 DUP3 DUP3 SLOAD ADD SWAP3 POP POP DUP2 SWAP1 SSTORE POP DUP4 CALLER PUSH20 0xFFFFFFFFFFFFFFFFFFFFFFFFFFFFFFFFFFFFFFFF AND PUSH32 0x90890809C654F11D6E72A28FA60149770A0D11EC6C92319D6CEB2BB0A4EA1A15 DUP6 PUSH1 0x40 MLOAD DUP1 DUP3 DUP2 MSTORE PUSH1 0x20 ADD SWAP2 POP POP PUSH1 0x40 MLOAD DUP1 SWAP2 SUB SWAP1 LOG3 POP POP POP POP JUMP JUMPDEST PUSH3 0xF4240 PUSH2 0x1B45 CALLER PUSH2 0x13DB JUMP JUMPDEST LT ISZERO PUSH2 0x1B94 JUMPI PUSH1 0x40 MLOAD PUSH32 0x8C379A000000000000000000000000000000000000000000000000000000000 DUP2 MSTORE PUSH1 0x4 ADD DUP1 DUP1 PUSH1 0x20 ADD DUP3 DUP2 SUB DUP3 MSTORE PUSH1 0x0 DUP2 MSTORE PUSH1 0x20 ADD PUSH1 0x20 ADD SWAP2 POP POP PUSH1 0x40 MLOAD DUP1 SWAP2 SUB SWAP1 REVERT JUMPDEST PUSH1 0x0 PUSH20 0xFFFFFFFFFFFFFFFFFFFFFFFFFFFFFFFFFFFFFFFF AND DUP2 PUSH20 0xFFFFFFFFFFFFFFFFFFFFFFFFFFFFFFFFFFFFFFFF AND EQ ISZERO PUSH2 0x1C1A JUMPI PUSH1 0x40 MLOAD PUSH32 0x8C379A000000000000000000000000000000000000000000000000000000000 DUP2 MSTORE PUSH1 0x4 ADD DUP1 DUP1 PUSH1 0x20 ADD DUP3 DUP2 SUB DUP3 MSTORE PUSH1 0x26 DUP2 MSTORE PUSH1 0x20 ADD DUP1 PUSH2 0x2871 PUSH1 0x26 SWAP2 CODECOPY PUSH1 0x40 ADD SWAP2 POP POP PUSH1 0x40 MLOAD DUP1 SWAP2 SUB SWAP1 REVERT JUMPDEST DUP1 PUSH20 0xFFFFFFFFFFFFFFFFFFFFFFFFFFFFFFFFFFFFFFFF AND PUSH1 0x0 DUP1 SLOAD SWAP1 PUSH2 0x100 EXP SWAP1 DIV PUSH20 0xFFFFFFFFFFFFFFFFFFFFFFFFFFFFFFFFFFFFFFFF AND PUSH20 0xFFFFFFFFFFFFFFFFFFFFFFFFFFFFFFFFFFFFFFFF AND PUSH32 0x8BE0079C531659141344CD1FD0A4F28419497F9722A3DAAFE3B4186F6B6457E0 PUSH1 0x40 MLOAD PUSH1 0x40 MLOAD DUP1 SWAP2 SUB SWAP1 LOG3 DUP1 PUSH1 0x0 DUP1 PUSH2 0x100 EXP DUP2 SLOAD DUP2 PUSH20 0xFFFFFFFFFFFFFFFFFFFFFFFFFFFFFFFFFFFFFFFF MUL NOT AND SWAP1 DUP4 PUSH20 0xFFFFFFFFFFFFFFFFFFFFFFFFFFFFFFFFFFFFFFFF AND MUL OR SWAP1 SSTORE POP POP JUMP JUMPDEST PUSH1 0x0 DUP1 DUP3 DUP5 ADD SWAP1 POP DUP4 DUP2 LT ISZERO PUSH2 0x1D55 JUMPI PUSH1 0x40 MLOAD PUSH32 0x8C379A000000000000000000000000000000000000000000000000000000000 DUP2 MSTORE PUSH1 0x4 ADD DUP1 DUP1 PUSH1 0x20 ADD DUP3 DUP2 SUB DUP3 MSTORE PUSH1 0x1B DUP2 MSTORE PUSH1 0x20 ADD DUP1 PUSH32 0x536166654D6174683A206164646974696F6E206F766572666C6F770000000000 DUP2 MSTORE POP PUSH1 0x20 ADD SWAP2 POP POP PUSH1 0x40 MLOAD DUP1 SWAP2 SUB SWAP1 REVERT JUMPDEST DUP1 SWAP2 POP POP SWAP3 SWAP2 POP POP JUMP JUMPDEST PUSH1 0x0 CALLER SWAP1 POP SWAP1 JUMP JUMPDEST PUSH1 0x0 PUSH20 0xFFFFFFFFFFFFFFFFFFFFFFFFFFFFFFFFFFFFFFFF AND DUP4 PUSH20 0xFFFFFFFFFFFFFFFFFFFFFFFFFFFFFFFFFFFFFFFF AND EQ ISZERO PUSH2 0x1DED JUMPI PUSH1 0x40 MLOAD PUSH32 0x8C379A000000000000000000000000000000000000000000000000000000000 DUP2 MSTORE PUSH1 0x4 ADD DUP1 DUP1 PUSH1 0x20 ADD DUP3 DUP2 SUB DUP3 MSTORE PUSH1 0x24 DUP2 MSTORE PUSH1 0x20 ADD DUP1 PUSH2 0x294D PUSH1 0x24 SWAP2 CODECOPY PUSH1 0x40 ADD SWAP2 POP POP PUSH1 0x40 MLOAD DUP1 SWAP2 SUB SWAP1 REVERT JUMPDEST PUSH1 0x0 PUSH20 0xFFFFFFFFFFFFFFFFFFFFFFFFFFFFFFFFFFFFFFFF AND DUP3 PUSH20 0xFFFFFFFFFFFFFFFFFFFFFFFFFFFFFFFFFFFFFFFF AND EQ ISZERO PUSH2 0x1E73 JUMPI PUSH1 0x40 MLOAD PUSH32 0x8C379A000000000000000000000000000000000000000000000000000000000 DUP2 MSTORE PUSH1 0x4 ADD DUP1 DUP1 PUSH1 0x20 ADD DUP3 DUP2 SUB DUP3 MSTORE PUSH1 0x22 DUP2 MSTORE PUSH1 0x20 ADD DUP1 PUSH2 0x2897 PUSH1 0x22 SWAP2 CODECOPY PUSH1 0x40 ADD SWAP2 POP POP PUSH1 0x40 MLOAD DUP1 SWAP2 SUB SWAP1 REVERT JUMPDEST DUP1 PUSH1 0x2 PUSH1 0x0 DUP6 PUSH20 0xFFFFFFFFFFFFFFFFFFFFFFFFFFFFFFFFFFFFFFFF AND PUSH20 0xFFFFFFFFFFFFFFFFFFFFFFFFFFFFFFFFFFFFFFFF AND DUP2 MSTORE PUSH1 0x20 ADD SWAP1 DUP2 MSTORE PUSH1 0x20 ADD PUSH1 0x0 KECCAK256 PUSH1 0x0 DUP5 PUSH20 0xFFFFFFFFFFFFFFFFFFFFFFFFFFFFFFFFFFFFFFFF AND PUSH20 0xFFFFFFFFFFFFFFFFFFFFFFFFFFFFFFFFFFFFFFFF AND DUP2 MSTORE PUSH1 0x20 ADD SWAP1 DUP2 MSTORE PUSH1 0x20 ADD PUSH1 0x0 KECCAK256 DUP2 SWAP1 SSTORE POP DUP2 PUSH20 0xFFFFFFFFFFFFFFFFFFFFFFFFFFFFFFFFFFFFFFFF AND DUP4 PUSH20 0xFFFFFFFFFFFFFFFFFFFFFFFFFFFFFFFFFFFFFFFF AND PUSH32 0x8C5BE1E5EBEC7D5BD14F71427D1E84F3DD0314C0F7B2291E5B200AC8C7C3B925 DUP4 PUSH1 0x40 MLOAD DUP1 DUP3 DUP2 MSTORE PUSH1 0x20 ADD SWAP2 POP POP PUSH1 0x40 MLOAD DUP1 SWAP2 SUB SWAP1 LOG3 POP POP POP JUMP JUMPDEST PUSH1 0x0 DUP1 DUP4 EQ ISZERO PUSH2 0x1F71 JUMPI PUSH1 0x0 SWAP1 POP PUSH2 0x1FDE JUMP JUMPDEST PUSH1 0x0 DUP3 DUP5 MUL SWAP1 POP DUP3 DUP5 DUP3 DUP2 PUSH2 0x1F82 JUMPI INVALID JUMPDEST DIV EQ PUSH2 0x1FD9 JUMPI PUSH1 0x40 MLOAD PUSH32 0x8C379A000000000000000000000000000000000000000000000000000000000 DUP2 MSTORE PUSH1 0x4 ADD DUP1 DUP1 PUSH1 0x20 ADD DUP3 DUP2 SUB DUP3 MSTORE PUSH1 0x21 DUP2 MSTORE PUSH1 0x20 ADD DUP1 PUSH2 0x28DF PUSH1 0x21 SWAP2 CODECOPY PUSH1 0x40 ADD SWAP2 POP POP PUSH1 0x40 MLOAD DUP1 SWAP2 SUB SWAP1 REVERT JUMPDEST DUP1 SWAP2 POP POP JUMPDEST SWAP3 SWAP2 POP POP JUMP JUMPDEST PUSH1 0x0 PUSH2 0x2026 DUP4 DUP4 PUSH1 0x40 MLOAD DUP1 PUSH1 0x40 ADD PUSH1 0x40 MSTORE DUP1 PUSH1 0x1A DUP2 MSTORE PUSH1 0x20 ADD PUSH32 0x536166654D6174683A206469766973696F6E206279207A65726F000000000000 DUP2 MSTORE POP PUSH2 0x2740 JUMP JUMPDEST SWAP1 POP SWAP3 SWAP2 POP POP JUMP JUMPDEST PUSH1 0x0 PUSH2 0x2070 DUP4 DUP4 PUSH1 0x40 MLOAD DUP1 PUSH1 0x40 ADD PUSH1 0x40 MSTORE DUP1 PUSH1 0x1E DUP2 MSTORE PUSH1 0x20 ADD PUSH32 0x536166654D6174683A207375627472616374696F6E206F766572666C6F770000 DUP2 MSTORE POP PUSH2 0x233D JUMP JUMPDEST SWAP1 POP SWAP3 SWAP2 POP POP JUMP JUMPDEST PUSH1 0x0 PUSH20 0xFFFFFFFFFFFFFFFFFFFFFFFFFFFFFFFFFFFFFFFF AND DUP4 PUSH20 0xFFFFFFFFFFFFFFFFFFFFFFFFFFFFFFFFFFFFFFFF AND EQ ISZERO PUSH2 0x20FE JUMPI PUSH1 0x40 MLOAD PUSH32 0x8C379A000000000000000000000000000000000000000000000000000000000 DUP2 MSTORE PUSH1 0x4 ADD DUP1 DUP1 PUSH1 0x20 ADD DUP3 DUP2 SUB DUP3 MSTORE PUSH1 0x25 DUP2 MSTORE PUSH1 0x20 ADD DUP1 PUSH2 0x2928 PUSH1 0x25 SWAP2 CODECOPY PUSH1 0x40 ADD SWAP2 POP POP PUSH1 0x40 MLOAD DUP1 SWAP2 SUB SWAP1 REVERT JUMPDEST PUSH1 0x0 PUSH20 0xFFFFFFFFFFFFFFFFFFFFFFFFFFFFFFFFFFFFFFFF AND DUP3 PUSH20 0xFFFFFFFFFFFFFFFFFFFFFFFFFFFFFFFFFFFFFFFF AND EQ ISZERO PUSH2 0x2184 JUMPI PUSH1 0x40 MLOAD PUSH32 0x8C379A000000000000000000000000000000000000000000000000000000000 DUP2 MSTORE PUSH1 0x4 ADD DUP1 DUP1 PUSH1 0x20 ADD DUP3 DUP2 SUB DUP3 MSTORE PUSH1 0x23 DUP2 MSTORE PUSH1 0x20 ADD DUP1 PUSH2 0x284E PUSH1 0x23 SWAP2 CODECOPY PUSH1 0x40 ADD SWAP2 POP POP PUSH1 0x40 MLOAD DUP1 SWAP2 SUB SWAP1 REVERT JUMPDEST PUSH2 0x218F DUP4 DUP4 DUP4 PUSH2 0x2806 JUMP JUMPDEST PUSH2 0x21FB DUP2 PUSH1 0x40 MLOAD DUP1 PUSH1 0x60 ADD PUSH1 0x40 MSTORE DUP1 PUSH1 0x26 DUP2 MSTORE PUSH1 0x20 ADD PUSH2 0x28B9 PUSH1 0x26 SWAP2 CODECOPY PUSH1 0x1 PUSH1 0x0 DUP8 PUSH20 0xFFFFFFFFFFFFFFFFFFFFFFFFFFFFFFFFFFFFFFFF AND PUSH20 0xFFFFFFFFFFFFFFFFFFFFFFFFFFFFFFFFFFFFFFFF AND DUP2 MSTORE PUSH1 0x20 ADD SWAP1 DUP2 MSTORE PUSH1 0x20 ADD PUSH1 0x0 KECCAK256 SLOAD PUSH2 0x233D SWAP1 SWAP3 SWAP2 SWAP1 PUSH4 0xFFFFFFFF AND JUMP JUMPDEST PUSH1 0x1 PUSH1 0x0 DUP6 PUSH20 0xFFFFFFFFFFFFFFFFFFFFFFFFFFFFFFFFFFFFFFFF AND PUSH20 0xFFFFFFFFFFFFFFFFFFFFFFFFFFFFFFFFFFFFFFFF AND DUP2 MSTORE PUSH1 0x20 ADD SWAP1 DUP2 MSTORE PUSH1 0x20 ADD PUSH1 0x0 KECCAK256 DUP2 SWAP1 SSTORE POP PUSH2 0x2290 DUP2 PUSH1 0x1 PUSH1 0x0 DUP6 PUSH20 0xFFFFFFFFFFFFFFFFFFFFFFFFFFFFFFFFFFFFFFFF AND PUSH20 0xFFFFFFFFFFFFFFFFFFFFFFFFFFFFFFFFFFFFFFFF AND DUP2 MSTORE PUSH1 0x20 ADD SWAP1 DUP2 MSTORE PUSH1 0x20 ADD PUSH1 0x0 KECCAK256 SLOAD PUSH2 0x1CD7 SWAP1 SWAP2 SWAP1 PUSH4 0xFFFFFFFF AND JUMP JUMPDEST PUSH1 0x1 PUSH1 0x0 DUP5 PUSH20 0xFFFFFFFFFFFFFFFFFFFFFFFFFFFFFFFFFFFFFFFF AND PUSH20 0xFFFFFFFFFFFFFFFFFFFFFFFFFFFFFFFFFFFFFFFF AND DUP2 MSTORE PUSH1 0x20 ADD SWAP1 DUP2 MSTORE PUSH1 0x20 ADD PUSH1 0x0 KECCAK256 DUP2 SWAP1 SSTORE POP DUP2 PUSH20 0xFFFFFFFFFFFFFFFFFFFFFFFFFFFFFFFFFFFFFFFF AND DUP4 PUSH20 0xFFFFFFFFFFFFFFFFFFFFFFFFFFFFFFFFFFFFFFFF AND PUSH32 0xDDF252AD1BE2C89B69C2B068FC378DAA952BA7F163C4A11628F55A4DF523B3EF DUP4 PUSH1 0x40 MLOAD DUP1 DUP3 DUP2 MSTORE PUSH1 0x20 ADD SWAP2 POP POP PUSH1 0x40 MLOAD DUP1 SWAP2 SUB SWAP1 LOG3 POP POP POP JUMP JUMPDEST PUSH1 0x0 DUP4 DUP4 GT ISZERO DUP3 SWAP1 PUSH2 0x23EA JUMPI PUSH1 0x40 MLOAD PUSH32 0x8C379A000000000000000000000000000000000000000000000000000000000 DUP2 MSTORE PUSH1 0x4 ADD DUP1 DUP1 PUSH1 0x20 ADD DUP3 DUP2 SUB DUP3 MSTORE DUP4 DUP2 DUP2 MLOAD DUP2 MSTORE PUSH1 0x20 ADD SWAP2 POP DUP1 MLOAD SWAP1 PUSH1 0x20 ADD SWAP1 DUP1 DUP4 DUP4 PUSH1 0x0 JUMPDEST DUP4 DUP2 LT ISZERO PUSH2 0x23AF JUMPI DUP1 DUP3 ADD MLOAD DUP2 DUP5 ADD MSTORE PUSH1 0x20 DUP2 ADD SWAP1 POP PUSH2 0x2394 JUMP JUMPDEST POP POP POP POP SWAP1 POP SWAP1 DUP2 ADD SWAP1 PUSH1 0x1F AND DUP1 ISZERO PUSH2 0x23DC JUMPI DUP1 DUP3 SUB DUP1 MLOAD PUSH1 0x1 DUP4 PUSH1 0x20 SUB PUSH2 0x100 EXP SUB NOT AND DUP2 MSTORE PUSH1 0x20 ADD SWAP2 POP JUMPDEST POP SWAP3 POP POP POP PUSH1 0x40 MLOAD DUP1 SWAP2 SUB SWAP1 REVERT JUMPDEST POP PUSH1 0x0 DUP4 DUP6 SUB SWAP1 POP DUP1 SWAP2 POP POP SWAP4 SWAP3 POP POP POP JUMP JUMPDEST PUSH1 0x0 PUSH2 0x2408 ADDRESS PUSH2 0x13DB JUMP JUMPDEST SWAP1 POP DUP1 DUP3 GT ISZERO PUSH2 0x24C4 JUMPI ADDRESS PUSH20 0xFFFFFFFFFFFFFFFFFFFFFFFFFFFFFFFFFFFFFFFF AND PUSH4 0xA9059CBB DUP5 DUP4 PUSH1 0x40 MLOAD DUP4 PUSH4 0xFFFFFFFF AND PUSH1 0xE0 SHL DUP2 MSTORE PUSH1 0x4 ADD DUP1 DUP4 PUSH20 0xFFFFFFFFFFFFFFFFFFFFFFFFFFFFFFFFFFFFFFFF AND DUP2 MSTORE PUSH1 0x20 ADD DUP3 DUP2 MSTORE PUSH1 0x20 ADD SWAP3 POP POP POP PUSH1 0x20 PUSH1 0x40 MLOAD DUP1 DUP4 SUB DUP2 PUSH1 0x0 DUP8 DUP1 EXTCODESIZE ISZERO DUP1 ISZERO PUSH2 0x2483 JUMPI PUSH1 0x0 DUP1 REVERT JUMPDEST POP GAS CALL ISZERO DUP1 ISZERO PUSH2 0x2497 JUMPI RETURNDATASIZE PUSH1 0x0 DUP1 RETURNDATACOPY RETURNDATASIZE PUSH1 0x0 REVERT JUMPDEST POP POP POP POP PUSH1 0x40 MLOAD RETURNDATASIZE PUSH1 0x20 DUP2 LT ISZERO PUSH2 0x24AD JUMPI PUSH1 0x0 DUP1 REVERT JUMPDEST DUP2 ADD SWAP1 DUP1 DUP1 MLOAD SWAP1 PUSH1 0x20 ADD SWAP1 SWAP3 SWAP2 SWAP1 POP POP POP POP PUSH2 0x2572 JUMP JUMPDEST ADDRESS PUSH20 0xFFFFFFFFFFFFFFFFFFFFFFFFFFFFFFFFFFFFFFFF AND PUSH4 0xA9059CBB DUP5 DUP5 PUSH1 0x40 MLOAD DUP4 PUSH4 0xFFFFFFFF AND PUSH1 0xE0 SHL DUP2 MSTORE PUSH1 0x4 ADD DUP1 DUP4 PUSH20 0xFFFFFFFFFFFFFFFFFFFFFFFFFFFFFFFFFFFFFFFF AND DUP2 MSTORE PUSH1 0x20 ADD DUP3 DUP2 MSTORE PUSH1 0x20 ADD SWAP3 POP POP POP PUSH1 0x20 PUSH1 0x40 MLOAD DUP1 DUP4 SUB DUP2 PUSH1 0x0 DUP8 DUP1 EXTCODESIZE ISZERO DUP1 ISZERO PUSH2 0x2535 JUMPI PUSH1 0x0 DUP1 REVERT JUMPDEST POP GAS CALL ISZERO DUP1 ISZERO PUSH2 0x2549 JUMPI RETURNDATASIZE PUSH1 0x0 DUP1 RETURNDATACOPY RETURNDATASIZE PUSH1 0x0 REVERT JUMPDEST POP POP POP POP PUSH1 0x40 MLOAD RETURNDATASIZE PUSH1 0x20 DUP2 LT ISZERO PUSH2 0x255F JUMPI PUSH1 0x0 DUP1 REVERT JUMPDEST DUP2 ADD SWAP1 DUP1 DUP1 MLOAD SWAP1 PUSH1 0x20 ADD SWAP1 SWAP3 SWAP2 SWAP1 POP POP POP POP JUMPDEST POP POP POP JUMP JUMPDEST PUSH1 0x0 PUSH20 0xFFFFFFFFFFFFFFFFFFFFFFFFFFFFFFFFFFFFFFFF AND DUP3 PUSH20 0xFFFFFFFFFFFFFFFFFFFFFFFFFFFFFFFFFFFFFFFF AND EQ ISZERO PUSH2 0x261A JUMPI PUSH1 0x40 MLOAD PUSH32 0x8C379A000000000000000000000000000000000000000000000000000000000 DUP2 MSTORE PUSH1 0x4 ADD DUP1 DUP1 PUSH1 0x20 ADD DUP3 DUP2 SUB DUP3 MSTORE PUSH1 0x1F DUP2 MSTORE PUSH1 0x20 ADD DUP1 PUSH32 0x45524332303A206D696E7420746F20746865207A65726F206164647265737300 DUP2 MSTORE POP PUSH1 0x20 ADD SWAP2 POP POP PUSH1 0x40 MLOAD DUP1 SWAP2 SUB SWAP1 REVERT JUMPDEST PUSH2 0x2626 PUSH1 0x0 DUP4 DUP4 PUSH2 0x2806 JUMP JUMPDEST PUSH2 0x263B DUP2 PUSH1 0x3 SLOAD PUSH2 0x1CD7 SWAP1 SWAP2 SWAP1 PUSH4 0xFFFFFFFF AND JUMP JUMPDEST PUSH1 0x3 DUP2 SWAP1 SSTORE POP PUSH2 0x2693 DUP2 PUSH1 0x1 PUSH1 0x0 DUP6 PUSH20 0xFFFFFFFFFFFFFFFFFFFFFFFFFFFFFFFFFFFFFFFF AND PUSH20 0xFFFFFFFFFFFFFFFFFFFFFFFFFFFFFFFFFFFFFFFF AND DUP2 MSTORE PUSH1 0x20 ADD SWAP1 DUP2 MSTORE PUSH1 0x20 ADD PUSH1 0x0 KECCAK256 SLOAD PUSH2 0x1CD7 SWAP1 SWAP2 SWAP1 PUSH4 0xFFFFFFFF AND JUMP JUMPDEST PUSH1 0x1 PUSH1 0x0 DUP5 PUSH20 0xFFFFFFFFFFFFFFFFFFFFFFFFFFFFFFFFFFFFFFFF AND PUSH20 0xFFFFFFFFFFFFFFFFFFFFFFFFFFFFFFFFFFFFFFFF AND DUP2 MSTORE PUSH1 0x20 ADD SWAP1 DUP2 MSTORE PUSH1 0x20 ADD PUSH1 0x0 KECCAK256 DUP2 SWAP1 SSTORE POP DUP2 PUSH20 0xFFFFFFFFFFFFFFFFFFFFFFFFFFFFFFFFFFFFFFFF AND PUSH1 0x0 PUSH20 0xFFFFFFFFFFFFFFFFFFFFFFFFFFFFFFFFFFFFFFFF AND PUSH32 0xDDF252AD1BE2C89B69C2B068FC378DAA952BA7F163C4A11628F55A4DF523B3EF DUP4 PUSH1 0x40 MLOAD DUP1 DUP3 DUP2 MSTORE PUSH1 0x20 ADD SWAP2 POP POP PUSH1 0x40 MLOAD DUP1 SWAP2 SUB SWAP1 LOG3 POP POP JUMP JUMPDEST PUSH1 0x0 DUP1 DUP4 GT DUP3 SWAP1 PUSH2 0x27EC JUMPI PUSH1 0x40 MLOAD PUSH32 0x8C379A000000000000000000000000000000000000000000000000000000000 DUP2 MSTORE PUSH1 0x4 ADD DUP1 DUP1 PUSH1 0x20 ADD DUP3 DUP2 SUB DUP3 MSTORE DUP4 DUP2 DUP2 MLOAD DUP2 MSTORE PUSH1 0x20 ADD SWAP2 POP DUP1 MLOAD SWAP1 PUSH1 0x20 ADD SWAP1 DUP1 DUP4 DUP4 PUSH1 0x0 JUMPDEST DUP4 DUP2 LT ISZERO PUSH2 0x27B1 JUMPI DUP1 DUP3 ADD MLOAD DUP2 DUP5 ADD MSTORE PUSH1 0x20 DUP2 ADD SWAP1 POP PUSH2 0x2796 JUMP JUMPDEST POP POP POP POP SWAP1 POP SWAP1 DUP2 ADD SWAP1 PUSH1 0x1F AND DUP1 ISZERO PUSH2 0x27DE JUMPI DUP1 DUP3 SUB DUP1 MLOAD PUSH1 0x1 DUP4 PUSH1 0x20 SUB PUSH2 0x100 EXP SUB NOT AND DUP2 MSTORE PUSH1 0x20 ADD SWAP2 POP JUMPDEST POP SWAP3 POP POP POP PUSH1 0x40 MLOAD DUP1 SWAP2 SUB SWAP1 REVERT JUMPDEST POP PUSH1 0x0 DUP4 DUP6 DUP2 PUSH2 0x27F8 JUMPI INVALID JUMPDEST DIV SWAP1 POP DUP1 SWAP2 POP POP SWAP4 SWAP3 POP POP POP JUMP JUMPDEST POP POP POP JUMP JUMPDEST PUSH1 0x40 MLOAD DUP1 PUSH1 0x80 ADD PUSH1 0x40 MSTORE DUP1 PUSH1 0x0 DUP2 MSTORE PUSH1 0x20 ADD PUSH1 0x0 DUP2 MSTORE PUSH1 0x20 ADD PUSH1 0x0 DUP2 MSTORE PUSH1 0x20 ADD PUSH1 0x0 DUP2 MSTORE POP SWAP1 JUMP JUMPDEST PUSH1 0x40 MLOAD DUP1 PUSH1 0x40 ADD PUSH1 0x40 MSTORE DUP1 PUSH1 0x0 DUP2 MSTORE PUSH1 0x20 ADD PUSH1 0x0 DUP2 MSTORE POP SWAP1 JUMP INVALID GASLIMIT MSTORE NUMBER ORIGIN ADDRESS GASPRICE KECCAK256 PUSH21 0x72616E7366657220746F20746865207A65726F2061 PUSH5 0x6472657373 0x4F PUSH24 0x6E61626C653A206E6577206F776E65722069732074686520 PUSH27 0x65726F206164647265737345524332303A20617070726F76652074 PUSH16 0x20746865207A65726F20616464726573 PUSH20 0x45524332303A207472616E7366657220616D6F75 PUSH15 0x7420657863656564732062616C616E PUSH4 0x65536166 PUSH6 0x4D6174683A20 PUSH14 0x756C7469706C69636174696F6E20 PUSH16 0x766572666C6F7745524332303A207472 PUSH2 0x6E73 PUSH7 0x657220616D6F75 PUSH15 0x74206578636565647320616C6C6F77 PUSH2 0x6E63 PUSH6 0x45524332303A KECCAK256 PUSH21 0x72616E736665722066726F6D20746865207A65726F KECCAK256 PUSH2 0x6464 PUSH19 0x65737345524332303A20617070726F76652066 PUSH19 0x6F6D20746865207A65726F2061646472657373 GASLIMIT MSTORE NUMBER ORIGIN ADDRESS GASPRICE KECCAK256 PUSH5 0x6563726561 PUSH20 0x656420616C6C6F77616E63652062656C6F77207A PUSH6 0x726FA2646970 PUSH7 0x73582212207411 ISZERO 0xD0 PUSH6 0x8ABAE50926E 0x23 PUSH1 0x43 0xF7 0xFB REVERT 0x26 0x2C 0xE0 0x2C SLT GT 0xEB LOG4 ADDRESS XOR 0xF8 PUSH25 0x2ACE5F64736F6C634300060C00330000000000000000000000 "
				},
				"gasEstimates": {
					"creation": {
						"codeDepositCost": "2139800",
						"executionCost": "infinite",
						"totalCost": "infinite"
					},
					"external": {
						"_owner()": "1155",
						"airdorp()": "infinite",
						"allowance(address,address)": "1387",
						"approve(address,uint256)": "infinite",
						"aridorplimit()": "1052",
						"balanceOf(address)": "1264",
						"decimals()": "1145",
						"decreaseAllowance(address,uint256)": "infinite",
						"deposit(uint256,uint256)": "infinite",
						"emergencyWithdraw(uint256)": "infinite",
						"getMultiplier(uint256,uint256)": "infinite",
						"increaseAllowance(address,uint256)": "infinite",
						"massUpdatePools()": "infinite",
						"name()": "infinite",
						"owner()": "1100",
						"pendingSushi(uint256,address)": "infinite",
						"poolInfo(uint256)": "4569",
						"poolLength()": "1112",
						"renounceOwnership()": "24381",
						"startBlock()": "1072",
						"sushiPerBlock()": "1094",
						"symbol()": "infinite",
						"totalAllocPoint()": "1095",
						"totalSupply()": "1125",
						"transfer(address,uint256)": "infinite",
						"transferFrom(address,address,uint256)": "infinite",
						"transferOwnership(address)": "infinite",
						"updatePool(uint256)": "infinite",
						"userInfo(uint256,address)": "2196",
						"withdraw(uint256,uint256)": "infinite"
					},
					"internal": {
						"safeTokenTransfer(address,uint256)": "infinite"
					}
				},
				"methodIdentifiers": {
					"_owner()": "b2bdfa7b",
					"airdorp()": "b9c661b9",
					"allowance(address,address)": "dd62ed3e",
					"approve(address,uint256)": "095ea7b3",
					"aridorplimit()": "035ff6a5",
					"balanceOf(address)": "70a08231",
					"decimals()": "313ce567",
					"decreaseAllowance(address,uint256)": "a457c2d7",
					"deposit(uint256,uint256)": "e2bbb158",
					"emergencyWithdraw(uint256)": "5312ea8e",
					"getMultiplier(uint256,uint256)": "8dbb1e3a",
					"increaseAllowance(address,uint256)": "39509351",
					"massUpdatePools()": "630b5ba1",
					"name()": "06fdde03",
					"owner()": "8da5cb5b",
					"pendingSushi(uint256,address)": "195426ec",
					"poolInfo(uint256)": "1526fe27",
					"poolLength()": "081e3eda",
					"renounceOwnership()": "715018a6",
					"startBlock()": "48cd4cb1",
					"sushiPerBlock()": "b0bcf42a",
					"symbol()": "95d89b41",
					"totalAllocPoint()": "17caf6f1",
					"totalSupply()": "18160ddd",
					"transfer(address,uint256)": "a9059cbb",
					"transferFrom(address,address,uint256)": "23b872dd",
					"transferOwnership(address)": "f2fde38b",
					"updatePool(uint256)": "51eb05a6",
					"userInfo(uint256,address)": "93f1a40b",
					"withdraw(uint256,uint256)": "441a3e70"
				}
			},
			"storageLayout": {
				"storage": [
					{
						"astId": 27,
						"contract": "赛题-预赛/第八题/Masterchef.sol:MasterChef",
						"label": "_owner",
						"offset": 0,
						"slot": "0",
						"type": "t_address"
					},
					{
						"astId": 137,
						"contract": "赛题-预赛/第八题/Masterchef.sol:MasterChef",
						"label": "_balances",
						"offset": 0,
						"slot": "1",
						"type": "t_mapping(t_address,t_uint256)"
					},
					{
						"astId": 143,
						"contract": "赛题-预赛/第八题/Masterchef.sol:MasterChef",
						"label": "_allowances",
						"offset": 0,
						"slot": "2",
						"type": "t_mapping(t_address,t_mapping(t_address,t_uint256))"
					},
					{
						"astId": 145,
						"contract": "赛题-预赛/第八题/Masterchef.sol:MasterChef",
						"label": "_totalSupply",
						"offset": 0,
						"slot": "3",
						"type": "t_uint256"
					},
					{
						"astId": 147,
						"contract": "赛题-预赛/第八题/Masterchef.sol:MasterChef",
						"label": "_name",
						"offset": 0,
						"slot": "4",
						"type": "t_string_storage"
					},
					{
						"astId": 149,
						"contract": "赛题-预赛/第八题/Masterchef.sol:MasterChef",
						"label": "_symbol",
						"offset": 0,
						"slot": "5",
						"type": "t_string_storage"
					},
					{
						"astId": 151,
						"contract": "赛题-预赛/第八题/Masterchef.sol:MasterChef",
						"label": "_decimals",
						"offset": 0,
						"slot": "6",
						"type": "t_uint8"
					},
					{
						"astId": 631,
						"contract": "赛题-预赛/第八题/Masterchef.sol:MasterChef",
						"label": "sushiPerBlock",
						"offset": 0,
						"slot": "7",
						"type": "t_uint256"
					},
					{
						"astId": 634,
						"contract": "赛题-预赛/第八题/Masterchef.sol:MasterChef",
						"label": "poolInfo",
						"offset": 0,
						"slot": "8",
						"type": "t_array(t_struct(PoolInfo)629_storage)dyn_storage"
					},
					{
						"astId": 640,
						"contract": "赛题-预赛/第八题/Masterchef.sol:MasterChef",
						"label": "userInfo",
						"offset": 0,
						"slot": "9",
						"type": "t_mapping(t_uint256,t_mapping(t_address,t_struct(UserInfo)620_storage))"
					},
					{
						"astId": 643,
						"contract": "赛题-预赛/第八题/Masterchef.sol:MasterChef",
						"label": "totalAllocPoint",
						"offset": 0,
						"slot": "10",
						"type": "t_uint256"
					},
					{
						"astId": 645,
						"contract": "赛题-预赛/第八题/Masterchef.sol:MasterChef",
						"label": "startBlock",
						"offset": 0,
						"slot": "11",
						"type": "t_uint256"
					},
					{
						"astId": 647,
						"contract": "赛题-预赛/第八题/Masterchef.sol:MasterChef",
						"label": "aridorplimit",
						"offset": 0,
						"slot": "12",
						"type": "t_uint256"
					}
				],
				"types": {
					"t_address": {
						"encoding": "inplace",
						"label": "address",
						"numberOfBytes": "20"
					},
					"t_array(t_struct(PoolInfo)629_storage)dyn_storage": {
						"base": "t_struct(PoolInfo)629_storage",
						"encoding": "dynamic_array",
						"label": "struct MasterChef.PoolInfo[]",
						"numberOfBytes": "32"
					},
					"t_mapping(t_address,t_mapping(t_address,t_uint256))": {
						"encoding": "mapping",
						"key": "t_address",
						"label": "mapping(address => mapping(address => uint256))",
						"numberOfBytes": "32",
						"value": "t_mapping(t_address,t_uint256)"
					},
					"t_mapping(t_address,t_struct(UserInfo)620_storage)": {
						"encoding": "mapping",
						"key": "t_address",
						"label": "mapping(address => struct MasterChef.UserInfo)",
						"numberOfBytes": "32",
						"value": "t_struct(UserInfo)620_storage"
					},
					"t_mapping(t_address,t_uint256)": {
						"encoding": "mapping",
						"key": "t_address",
						"label": "mapping(address => uint256)",
						"numberOfBytes": "32",
						"value": "t_uint256"
					},
					"t_mapping(t_uint256,t_mapping(t_address,t_struct(UserInfo)620_storage))": {
						"encoding": "mapping",
						"key": "t_uint256",
						"label": "mapping(uint256 => mapping(address => struct MasterChef.UserInfo))",
						"numberOfBytes": "32",
						"value": "t_mapping(t_address,t_struct(UserInfo)620_storage)"
					},
					"t_string_storage": {
						"encoding": "bytes",
						"label": "string",
						"numberOfBytes": "32"
					},
					"t_struct(PoolInfo)629_storage": {
						"encoding": "inplace",
						"label": "struct MasterChef.PoolInfo",
						"members": [
							{
								"astId": 622,
								"contract": "赛题-预赛/第八题/Masterchef.sol:MasterChef",
								"label": "allocPoint",
								"offset": 0,
								"slot": "0",
								"type": "t_uint256"
							},
							{
								"astId": 624,
								"contract": "赛题-预赛/第八题/Masterchef.sol:MasterChef",
								"label": "lastRewardBlock",
								"offset": 0,
								"slot": "1",
								"type": "t_uint256"
							},
							{
								"astId": 626,
								"contract": "赛题-预赛/第八题/Masterchef.sol:MasterChef",
								"label": "accSushiPerShare",
								"offset": 0,
								"slot": "2",
								"type": "t_uint256"
							},
							{
								"astId": 628,
								"contract": "赛题-预赛/第八题/Masterchef.sol:MasterChef",
								"label": "totalstake",
								"offset": 0,
								"slot": "3",
								"type": "t_uint256"
							}
						],
						"numberOfBytes": "128"
					},
					"t_struct(UserInfo)620_storage": {
						"encoding": "inplace",
						"label": "struct MasterChef.UserInfo",
						"members": [
							{
								"astId": 617,
								"contract": "赛题-预赛/第八题/Masterchef.sol:MasterChef",
								"label": "amount",
								"offset": 0,
								"slot": "0",
								"type": "t_uint256"
							},
							{
								"astId": 619,
								"contract": "赛题-预赛/第八题/Masterchef.sol:MasterChef",
								"label": "rewardDebt",
								"offset": 0,
								"slot": "1",
								"type": "t_uint256"
							}
						],
						"numberOfBytes": "64"
					},
					"t_uint256": {
						"encoding": "inplace",
						"label": "uint256",
						"numberOfBytes": "32"
					},
					"t_uint8": {
						"encoding": "inplace",
						"label": "uint8",
						"numberOfBytes": "1"
					}
				}
			},
			"userdoc": {
				"kind": "user",
				"methods": {},
				"version": 1
			}
		}
	}
}