{
	"data": {
		"bytecode": {
			"linkReferences": {},
			"object": "60806040523480156200001157600080fd5b5060405162007d5938038062007d59833981810160405281019062000037919062000547565b6040518060400160405280600381526020017f41414100000000000000000000000000000000000000000000000000000000008152506040518060400160405280600281526020017f61610000000000000000000000000000000000000000000000000000000000008152508160039080519060200190620000bb92919062000472565b508060049080519060200190620000d492919062000472565b505050600033905080600560006101000a81548173ffffffffffffffffffffffffffffffffffffffff021916908373ffffffffffffffffffffffffffffffffffffffff1602179055508073ffffffffffffffffffffffffffffffffffffffff16600073ffffffffffffffffffffffffffffffffffffffff167f8be0079c531659141344cd1fd0a4f28419497f9722a3daafe3b4186f6b6457e060405160405180910390a35081600660006101000a81548173ffffffffffffffffffffffffffffffffffffffff021916908373ffffffffffffffffffffffffffffffffffffffff16021790555080600760006101000a81548173ffffffffffffffffffffffffffffffffffffffff021916908373ffffffffffffffffffffffffffffffffffffffff16021790555062000218306a01a784379d99db42000000620002ef60201b60201c565b604051620002269062000503565b604051809103906000f08015801562000243573d6000803e3d6000fd5b50600860006101000a81548173ffffffffffffffffffffffffffffffffffffffff021916908373ffffffffffffffffffffffffffffffffffffffff160217905550600860009054906101000a900473ffffffffffffffffffffffffffffffffffffffff16600a60006101000a81548173ffffffffffffffffffffffffffffffffffffffff021916908373ffffffffffffffffffffffffffffffffffffffff16021790555050506200078d565b600073ffffffffffffffffffffffffffffffffffffffff168273ffffffffffffffffffffffffffffffffffffffff16141562000362576040517f08c379a00000000000000000000000000000000000000000000000000000000081526004016200035990620005c6565b60405180910390fd5b62000376600083836200046860201b60201c565b80600260008282546200038a919062000616565b92505081905550806000808473ffffffffffffffffffffffffffffffffffffffff1673ffffffffffffffffffffffffffffffffffffffff1681526020019081526020016000206000828254620003e1919062000616565b925050819055508173ffffffffffffffffffffffffffffffffffffffff16600073ffffffffffffffffffffffffffffffffffffffff167fddf252ad1be2c89b69c2b068fc378daa952ba7f163c4a11628f55a4df523b3ef83604051620004489190620005e8565b60405180910390a362000464600083836200046d60201b60201c565b5050565b505050565b505050565b8280546200048090620006b1565b90600052602060002090601f016020900481019282620004a45760008555620004f0565b82601f10620004bf57805160ff1916838001178555620004f0565b82800160010185558215620004f0579182015b82811115620004ef578251825591602001919060010190620004d2565b5b509050620004ff919062000511565b5090565b611c6c80620060ed83390190565b5b808211156200052c57600081600090555060010162000512565b5090565b600081519050620005418162000773565b92915050565b6000806040838503121562000561576200056062000745565b5b6000620005718582860162000530565b9250506020620005848582860162000530565b9150509250929050565b60006200059d601f8362000605565b9150620005aa826200074a565b602082019050919050565b620005c081620006a7565b82525050565b60006020820190508181036000830152620005e1816200058e565b9050919050565b6000602082019050620005ff6000830184620005b5565b92915050565b600082825260208201905092915050565b60006200062382620006a7565b91506200063083620006a7565b9250827fffffffffffffffffffffffffffffffffffffffffffffffffffffffffffffffff03821115620006685762000667620006e7565b5b828201905092915050565b6000620006808262000687565b9050919050565b600073ffffffffffffffffffffffffffffffffffffffff82169050919050565b6000819050919050565b60006002820490506001821680620006ca57607f821691505b60208210811415620006e157620006e062000716565b5b50919050565b7f4e487b7100000000000000000000000000000000000000000000000000000000600052601160045260246000fd5b7f4e487b7100000000000000000000000000000000000000000000000000000000600052602260045260246000fd5b600080fd5b7f45524332303a206d696e7420746f20746865207a65726f206164647265737300600082015250565b6200077e8162000673565b81146200078a57600080fd5b50565b615950806200079d6000396000f3fe608060405234801561001057600080fd5b506004361061012c5760003560e01c806370a08231116100ad578063a457c2d711610071578063a457c2d7146102eb578063a8aa1b311461031b578063a9059cbb14610339578063dd62ed3e14610369578063f2fde38b146103995761012c565b806370a082311461026b578063715018a61461029b5780638da5cb5b146102a55780638f4ed333146102c357806395d89b41146102cd5761012c565b8063313ce567116100f4578063313ce567146101d75780633884d635146101f557806339509351146101ff5780633d4837701461022f578063419a893c1461024d5761012c565b806306fdde0314610131578063095ea7b31461014f5780631415a9c21461017f57806318160ddd1461018957806323b872dd146101a7575b600080fd5b6101396103b5565b6040516101469190611d90565b60405180910390f35b61016960048036038101906101649190611a07565b610447565b6040516101769190611d5a565b60405180910390f35b61018761046a565b005b6101916107ac565b60405161019e9190611f12565b60405180910390f35b6101c160048036038101906101bc91906119b4565b6107b6565b6040516101ce9190611d5a565b60405180910390f35b6101df6107e5565b6040516101ec9190611f2d565b60405180910390f35b6101fd6107ee565b005b61021960048036038101906102149190611a07565b6109f9565b6040516102269190611d5a565b60405180910390f35b610237610a30565b6040516102449190611cc4565b60405180910390f35b610255610a56565b6040516102629190611cc4565b60405180910390f35b6102856004803603810190610280919061191a565b610a7c565b6040516102929190611f12565b60405180910390f35b6102a3610ac4565b005b6102ad610c15565b6040516102ba9190611cc4565b60405180910390f35b6102cb610c3f565b005b6102d5610e92565b6040516102e29190611d90565b60405180910390f35b61030560048036038101906103009190611a07565b610f24565b6040516103129190611d5a565b60405180910390f35b610323610f9b565b6040516103309190611cc4565b60405180910390f35b610353600480360381019061034e9190611a07565b610fc1565b6040516103609190611d5a565b60405180910390f35b610383600480360381019061037e9190611974565b610fe4565b6040516103909190611f12565b60405180910390f35b6103b360048036038101906103ae919061191a565b61106b565b005b6060600380546103c490612078565b80601f01602080910402602001604051908101604052809291908181526020018280546103f090612078565b801561043d5780601f106104125761010080835404028352916020019161043d565b820191906000526020600020905b81548152906001019060200180831161042057829003601f168201915b5050505050905090565b600080610452611107565b905061045f81858561110f565b600191505092915050565b3373ffffffffffffffffffffffffffffffffffffffff16600560009054906101000a900473ffffffffffffffffffffffffffffffffffffffff1673ffffffffffffffffffffffffffffffffffffffff16146104fa576040517f08c379a00000000000000000000000000000000000000000000000000000000081526004016104f190611e72565b60405180910390fd5b600660009054906101000a900473ffffffffffffffffffffffffffffffffffffffff1673ffffffffffffffffffffffffffffffffffffffff1663c9c6539630600a60009054906101000a900473ffffffffffffffffffffffffffffffffffffffff166040518363ffffffff1660e01b8152600401610579929190611cdf565b602060405180830381600087803b15801561059357600080fd5b505af11580156105a7573d6000803e3d6000fd5b505050506040513d601f19601f820116820180604052508101906105cb9190611947565b600c60006101000a81548173ffffffffffffffffffffffffffffffffffffffff021916908373ffffffffffffffffffffffffffffffffffffffff160217905550610641600c60009054906101000a900473ffffffffffffffffffffffffffffffffffffffff1669152d02c7e14af68000006112da565b600860009054906101000a900473ffffffffffffffffffffffffffffffffffffffff1673ffffffffffffffffffffffffffffffffffffffff166340c10f19600c60009054906101000a900473ffffffffffffffffffffffffffffffffffffffff1669152d02c7e14af68000006040518363ffffffff1660e01b81526004016106ca929190611d08565b600060405180830381600087803b1580156106e457600080fd5b505af11580156106f8573d6000803e3d6000fd5b50505050600c60009054906101000a900473ffffffffffffffffffffffffffffffffffffffff1673ffffffffffffffffffffffffffffffffffffffff16636a627842306040518263ffffffff1660e01b81526004016107579190611cc4565b602060405180830381600087803b15801561077157600080fd5b505af1158015610785573d6000803e3d6000fd5b505050506040513d601f19601f820116820180604052508101906107a99190611a74565b50565b6000600254905090565b6000806107c1611107565b90506107ce85828561143a565b6107d98585856114c6565b60019150509392505050565b60006012905090565b6000600560159054906101000a900460ff1615905080801561082257506001600560149054906101000a900460ff1660ff16105b80610851575061083130611747565b15801561085057506001600560149054906101000a900460ff1660ff16145b5b610890576040517f08c379a000000000000000000000000000000000000000000000000000000000815260040161088790611e52565b60405180910390fd5b6001600560146101000a81548160ff021916908360ff16021790555080156108ce576001600560156101000a81548160ff0219169083151502179055505b6108e23369152d02c7e14af68000006112da565b600c60009054906101000a900473ffffffffffffffffffffffffffffffffffffffff1673ffffffffffffffffffffffffffffffffffffffff1663a9059cbb3369152d02c7e14af67ffc186040518363ffffffff1660e01b8152600401610949929190611d31565b602060405180830381600087803b15801561096357600080fd5b505af1158015610977573d6000803e3d6000fd5b505050506040513d601f19601f8201168201806040525081019061099b9190611a47565b5080156109f6576000600560156101000a81548160ff0219169083151502179055507f7f26b83ff96e1f2b6a682f133852f6798a09c465da95921460cefb384740249860016040516109ed9190611d75565b60405180910390a15b50565b600080610a04611107565b9050610a25818585610a168589610fe4565b610a209190611f64565b61110f565b600191505092915050565b600a60009054906101000a900473ffffffffffffffffffffffffffffffffffffffff1681565b600b60009054906101000a900473ffffffffffffffffffffffffffffffffffffffff1681565b60008060008373ffffffffffffffffffffffffffffffffffffffff1673ffffffffffffffffffffffffffffffffffffffff168152602001908152602001600020549050919050565b3373ffffffffffffffffffffffffffffffffffffffff16600560009054906101000a900473ffffffffffffffffffffffffffffffffffffffff1673ffffffffffffffffffffffffffffffffffffffff1614610b54576040517f08c379a0000000000000000000000000000000000000000000000000000000008152600401610b4b90611e72565b60405180910390fd5b600073ffffffffffffffffffffffffffffffffffffffff16600560009054906101000a900473ffffffffffffffffffffffffffffffffffffffff1673ffffffffffffffffffffffffffffffffffffffff167f8be0079c531659141344cd1fd0a4f28419497f9722a3daafe3b4186f6b6457e060405160405180910390a36000600560006101000a81548173ffffffffffffffffffffffffffffffffffffffff021916908373ffffffffffffffffffffffffffffffffffffffff160217905550565b6000600560009054906101000a900473ffffffffffffffffffffffffffffffffffffffff16905090565b3373ffffffffffffffffffffffffffffffffffffffff16600560009054906101000a900473ffffffffffffffffffffffffffffffffffffffff1673ffffffffffffffffffffffffffffffffffffffff1614610ccf576040517f08c379a0000000000000000000000000000000000000000000000000000000008152600401610cc690611e72565b60405180910390fd5b604051610cdb906118a4565b604051809103906000f080158015610cf7573d6000803e3d6000fd5b50600960006101000a81548173ffffffffffffffffffffffffffffffffffffffff021916908373ffffffffffffffffffffffffffffffffffffffff160217905550600960009054906101000a900473ffffffffffffffffffffffffffffffffffffffff1673ffffffffffffffffffffffffffffffffffffffff1663f8ccd674600c60009054906101000a900473ffffffffffffffffffffffffffffffffffffffff16306040518363ffffffff1660e01b8152600401610db7929190611cdf565b600060405180830381600087803b158015610dd157600080fd5b505af1158015610de5573d6000803e3d6000fd5b50505050600960009054906101000a900473ffffffffffffffffffffffffffffffffffffffff16600b60006101000a81548173ffffffffffffffffffffffffffffffffffffffff021916908373ffffffffffffffffffffffffffffffffffffffff160217905550610e9030600b60009054906101000a900473ffffffffffffffffffffffffffffffffffffffff1676010b46c6cdd6e3e0828f4db456ff0c8e9fffffffffffff61110f565b565b606060048054610ea190612078565b80601f0160208091040260200160405190810160405280929190818152602001828054610ecd90612078565b8015610f1a5780601f10610eef57610100808354040283529160200191610f1a565b820191906000526020600020905b815481529060010190602001808311610efd57829003601f168201915b5050505050905090565b600080610f2f611107565b90506000610f3d8286610fe4565b905083811015610f82576040517f08c379a0000000000000000000000000000000000000000000000000000000008152600401610f7990611ed2565b60405180910390fd5b610f8f828686840361110f565b60019250505092915050565b600c60009054906101000a900473ffffffffffffffffffffffffffffffffffffffff1681565b600080610fcc611107565b9050610fd98185856114c6565b600191505092915050565b6000600160008473ffffffffffffffffffffffffffffffffffffffff1673ffffffffffffffffffffffffffffffffffffffff16815260200190815260200160002060008373ffffffffffffffffffffffffffffffffffffffff1673ffffffffffffffffffffffffffffffffffffffff16815260200190815260200160002054905092915050565b3373ffffffffffffffffffffffffffffffffffffffff16600560009054906101000a900473ffffffffffffffffffffffffffffffffffffffff1673ffffffffffffffffffffffffffffffffffffffff16146110fb576040517f08c379a00000000000000000000000000000000000000000000000000000000081526004016110f290611e72565b60405180910390fd5b6111048161176a565b50565b600033905090565b600073ffffffffffffffffffffffffffffffffffffffff168373ffffffffffffffffffffffffffffffffffffffff16141561117f576040517f08c379a000000000000000000000000000000000000000000000000000000000815260040161117690611eb2565b60405180910390fd5b600073ffffffffffffffffffffffffffffffffffffffff168273ffffffffffffffffffffffffffffffffffffffff1614156111ef576040517f08c379a00000000000000000000000000000000000000000000000000000000081526004016111e690611df2565b60405180910390fd5b80600160008573ffffffffffffffffffffffffffffffffffffffff1673ffffffffffffffffffffffffffffffffffffffff16815260200190815260200160002060008473ffffffffffffffffffffffffffffffffffffffff1673ffffffffffffffffffffffffffffffffffffffff168152602001908152602001600020819055508173ffffffffffffffffffffffffffffffffffffffff168373ffffffffffffffffffffffffffffffffffffffff167f8c5be1e5ebec7d5bd14f71427d1e84f3dd0314c0f7b2291e5b200ac8c7c3b925836040516112cd9190611f12565b60405180910390a3505050565b600073ffffffffffffffffffffffffffffffffffffffff168273ffffffffffffffffffffffffffffffffffffffff16141561134a576040517f08c379a000000000000000000000000000000000000000000000000000000000815260040161134190611ef2565b60405180910390fd5b6113566000838361189a565b80600260008282546113689190611f64565b92505081905550806000808473ffffffffffffffffffffffffffffffffffffffff1673ffffffffffffffffffffffffffffffffffffffff16815260200190815260200160002060008282546113bd9190611f64565b925050819055508173ffffffffffffffffffffffffffffffffffffffff16600073ffffffffffffffffffffffffffffffffffffffff167fddf252ad1be2c89b69c2b068fc378daa952ba7f163c4a11628f55a4df523b3ef836040516114229190611f12565b60405180910390a36114366000838361189f565b5050565b60006114468484610fe4565b90507fffffffffffffffffffffffffffffffffffffffffffffffffffffffffffffffff81146114c057818110156114b2576040517f08c379a00000000000000000000000000000000000000000000000000000000081526004016114a990611e12565b60405180910390fd5b6114bf848484840361110f565b5b50505050565b600073ffffffffffffffffffffffffffffffffffffffff168373ffffffffffffffffffffffffffffffffffffffff161415611536576040517f08c379a000000000000000000000000000000000000000000000000000000000815260040161152d90611e92565b60405180910390fd5b600073ffffffffffffffffffffffffffffffffffffffff168273ffffffffffffffffffffffffffffffffffffffff1614156115a6576040517f08c379a000000000000000000000000000000000000000000000000000000000815260040161159d90611db2565b60405180910390fd5b6115b183838361189a565b60008060008573ffffffffffffffffffffffffffffffffffffffff1673ffffffffffffffffffffffffffffffffffffffff16815260200190815260200160002054905081811015611637576040517f08c379a000000000000000000000000000000000000000000000000000000000815260040161162e90611e32565b60405180910390fd5b8181036000808673ffffffffffffffffffffffffffffffffffffffff1673ffffffffffffffffffffffffffffffffffffffff16815260200190815260200160002081905550816000808573ffffffffffffffffffffffffffffffffffffffff1673ffffffffffffffffffffffffffffffffffffffff16815260200190815260200160002060008282546116ca9190611f64565b925050819055508273ffffffffffffffffffffffffffffffffffffffff168473ffffffffffffffffffffffffffffffffffffffff167fddf252ad1be2c89b69c2b068fc378daa952ba7f163c4a11628f55a4df523b3ef8460405161172e9190611f12565b60405180910390a361174184848461189f565b50505050565b6000808273ffffffffffffffffffffffffffffffffffffffff163b119050919050565b600073ffffffffffffffffffffffffffffffffffffffff168173ffffffffffffffffffffffffffffffffffffffff1614156117da576040517f08c379a00000000000000000000000000000000000000000000000000000000081526004016117d190611dd2565b60405180910390fd5b8073ffffffffffffffffffffffffffffffffffffffff16600560009054906101000a900473ffffffffffffffffffffffffffffffffffffffff1673ffffffffffffffffffffffffffffffffffffffff167f8be0079c531659141344cd1fd0a4f28419497f9722a3daafe3b4186f6b6457e060405160405180910390a380600560006101000a81548173ffffffffffffffffffffffffffffffffffffffff021916908373ffffffffffffffffffffffffffffffffffffffff16021790555050565b505050565b505050565b6134c48061245783390190565b6000813590506118c081612411565b92915050565b6000815190506118d581612411565b92915050565b6000815190506118ea81612428565b92915050565b6000813590506118ff8161243f565b92915050565b6000815190506119148161243f565b92915050565b6000602082840312156119305761192f612108565b5b600061193e848285016118b1565b91505092915050565b60006020828403121561195d5761195c612108565b5b600061196b848285016118c6565b91505092915050565b6000806040838503121561198b5761198a612108565b5b6000611999858286016118b1565b92505060206119aa858286016118b1565b9150509250929050565b6000806000606084860312156119cd576119cc612108565b5b60006119db868287016118b1565b93505060206119ec868287016118b1565b92505060406119fd868287016118f0565b9150509250925092565b60008060408385031215611a1e57611a1d612108565b5b6000611a2c858286016118b1565b9250506020611a3d858286016118f0565b9150509250929050565b600060208284031215611a5d57611a5c612108565b5b6000611a6b848285016118db565b91505092915050565b600060208284031215611a8a57611a89612108565b5b6000611a9884828501611905565b91505092915050565b611aaa81611fba565b82525050565b611ab981611fcc565b82525050565b611ac88161200f565b82525050565b611ad781612021565b82525050565b611ae681612033565b82525050565b6000611af782611f48565b611b018185611f53565b9350611b11818560208601612045565b611b1a8161210d565b840191505092915050565b6000611b32602383611f53565b9150611b3d8261211e565b604082019050919050565b6000611b55602683611f53565b9150611b608261216d565b604082019050919050565b6000611b78602283611f53565b9150611b83826121bc565b604082019050919050565b6000611b9b601d83611f53565b9150611ba68261220b565b602082019050919050565b6000611bbe602683611f53565b9150611bc982612234565b604082019050919050565b6000611be1602e83611f53565b9150611bec82612283565b604082019050919050565b6000611c04602083611f53565b9150611c0f826122d2565b602082019050919050565b6000611c27602583611f53565b9150611c32826122fb565b604082019050919050565b6000611c4a602483611f53565b9150611c558261234a565b604082019050919050565b6000611c6d602583611f53565b9150611c7882612399565b604082019050919050565b6000611c90601f83611f53565b9150611c9b826123e8565b602082019050919050565b611caf81611ff8565b82525050565b611cbe81612002565b82525050565b6000602082019050611cd96000830184611aa1565b92915050565b6000604082019050611cf46000830185611aa1565b611d016020830184611aa1565b9392505050565b6000604082019050611d1d6000830185611aa1565b611d2a6020830184611abf565b9392505050565b6000604082019050611d466000830185611aa1565b611d536020830184611add565b9392505050565b6000602082019050611d6f6000830184611ab0565b92915050565b6000602082019050611d8a6000830184611ace565b92915050565b60006020820190508181036000830152611daa8184611aec565b905092915050565b60006020820190508181036000830152611dcb81611b25565b9050919050565b60006020820190508181036000830152611deb81611b48565b9050919050565b60006020820190508181036000830152611e0b81611b6b565b9050919050565b60006020820190508181036000830152611e2b81611b8e565b9050919050565b60006020820190508181036000830152611e4b81611bb1565b9050919050565b60006020820190508181036000830152611e6b81611bd4565b9050919050565b60006020820190508181036000830152611e8b81611bf7565b9050919050565b60006020820190508181036000830152611eab81611c1a565b9050919050565b60006020820190508181036000830152611ecb81611c3d565b9050919050565b60006020820190508181036000830152611eeb81611c60565b9050919050565b60006020820190508181036000830152611f0b81611c83565b9050919050565b6000602082019050611f276000830184611ca6565b92915050565b6000602082019050611f426000830184611cb5565b92915050565b600081519050919050565b600082825260208201905092915050565b6000611f6f82611ff8565b9150611f7a83611ff8565b9250827fffffffffffffffffffffffffffffffffffffffffffffffffffffffffffffffff03821115611faf57611fae6120aa565b5b828201905092915050565b6000611fc582611fd8565b9050919050565b60008115159050919050565b600073ffffffffffffffffffffffffffffffffffffffff82169050919050565b6000819050919050565b600060ff82169050919050565b600061201a82611ff8565b9050919050565b600061202c82612002565b9050919050565b600061203e82611ff8565b9050919050565b60005b83811015612063578082015181840152602081019050612048565b83811115612072576000848401525b50505050565b6000600282049050600182168061209057607f821691505b602082108114156120a4576120a36120d9565b5b50919050565b7f4e487b7100000000000000000000000000000000000000000000000000000000600052601160045260246000fd5b7f4e487b7100000000000000000000000000000000000000000000000000000000600052602260045260246000fd5b600080fd5b6000601f19601f8301169050919050565b7f45524332303a207472616e7366657220746f20746865207a65726f206164647260008201527f6573730000000000000000000000000000000000000000000000000000000000602082015250565b7f4f776e61626c653a206e6577206f776e657220697320746865207a65726f206160008201527f6464726573730000000000000000000000000000000000000000000000000000602082015250565b7f45524332303a20617070726f766520746f20746865207a65726f20616464726560008201527f7373000000000000000000000000000000000000000000000000000000000000602082015250565b7f45524332303a20696e73756666696369656e7420616c6c6f77616e6365000000600082015250565b7f45524332303a207472616e7366657220616d6f756e742065786365656473206260008201527f616c616e63650000000000000000000000000000000000000000000000000000602082015250565b7f496e697469616c697a61626c653a20636f6e747261637420697320616c72656160008201527f647920696e697469616c697a6564000000000000000000000000000000000000602082015250565b7f4f776e61626c653a2063616c6c6572206973206e6f7420746865206f776e6572600082015250565b7f45524332303a207472616e736665722066726f6d20746865207a65726f20616460008201527f6472657373000000000000000000000000000000000000000000000000000000602082015250565b7f45524332303a20617070726f76652066726f6d20746865207a65726f2061646460008201527f7265737300000000000000000000000000000000000000000000000000000000602082015250565b7f45524332303a2064656372656173656420616c6c6f77616e63652062656c6f7760008201527f207a65726f000000000000000000000000000000000000000000000000000000602082015250565b7f45524332303a206d696e7420746f20746865207a65726f206164647265737300600082015250565b61241a81611fba565b811461242557600080fd5b50565b61243181611fcc565b811461243c57600080fd5b50565b61244881611ff8565b811461245357600080fd5b5056fe6080604052620493e0600b556516bcc41e9000600c556301c9c380600d556161a8600e5564e8d4a51000600f5568056bc75e2d63100000601055662386f26fc1000060115562015180601255605a60135534801561005c57600080fd5b506000339050806000806101000a81548173ffffffffffffffffffffffffffffffffffffffff021916908373ffffffffffffffffffffffffffffffffffffffff1602179055508073ffffffffffffffffffffffffffffffffffffffff16600073ffffffffffffffffffffffffffffffffffffffff167f8be0079c531659141344cd1fd0a4f28419497f9722a3daafe3b4186f6b6457e060405160405180910390a3506133b78061010d6000396000f3fe608060405234801561001057600080fd5b506004361061021c5760003560e01c80639602439011610125578063de0f5456116100ad578063e93b0e9c1161007c578063e93b0e9c1461060a578063f1d9f88b1461063d578063f2fde38b1461065b578063f8ccd67414610677578063fc0c546a146106935761021c565b8063de0f54561461056e578063e1e73d591461059e578063e322101c146105ce578063e72d7fe9146105ec5761021c565b8063c3525819116100f4578063c3525819146104c2578063c7c695f0146104e0578063cb4a9187146104fe578063cb6d8ee614610532578063d481972f146105505761021c565b8063960243901461044a578063a859a09214610468578063bf226bc314610486578063bfe10928146104a45761021c565b806373ef75f2116101a85780637d031ce4116101775780637d031ce4146103b6578063808a5457146103d457806380cbf8ad146103f257806384b4efea1461040e5780638da5cb5b1461042c5761021c565b806373ef75f2146103405780637b0472f01461035e5780637c356df81461037a5780637caeeedb146103985761021c565b8063541b5bd6116101ef578063541b5bd6146102a7578063551b7702146102c55780636386c1c7146102e35780636f5453d014610318578063715018a6146103365761021c565b806323ac714f1461022157806328665a651461023f5780632e1a7d4d1461026f578063379607f51461028b575b600080fd5b6102296106b1565b6040516102369190612eb3565b60405180910390f35b610259600480360381019061025491906129e7565b6106b7565b6040516102669190612eb3565b60405180910390f35b61028960048036038101906102849190612b01565b6107bc565b005b6102a560048036038101906102a09190612b01565b610e57565b005b6102af611281565b6040516102bc9190612eb3565b60405180910390f35b6102cd611287565b6040516102da9190612eb3565b60405180910390f35b6102fd60048036038101906102f891906129e7565b61128d565b60405161030f96959493929190612d4e565b60405180910390f35b61032061131a565b60405161032d9190612eb3565b60405180910390f35b61033e611320565b005b61034861146c565b6040516103559190612eb3565b60405180910390f35b61037860048036038101906103739190612b5b565b611472565b005b610382611a7c565b60405161038f9190612eb3565b60405180910390f35b6103a0611a82565b6040516103ad9190612eb3565b60405180910390f35b6103be611a88565b6040516103cb9190612eb3565b60405180910390f35b6103dc611a8e565b6040516103e99190612dca565b60405180910390f35b61040c60048036038101906104079190612b01565b611ab4565b005b610416611d2a565b6040516104239190612eb3565b60405180910390f35b610434611d30565b6040516104419190612cb8565b60405180910390f35b610452611d59565b60405161045f9190612eb3565b60405180910390f35b610470611d5f565b60405161047d9190612eb3565b60405180910390f35b61048e611d65565b60405161049b9190612eb3565b60405180910390f35b6104ac611d6b565b6040516104b99190612cb8565b60405180910390f35b6104ca611d91565b6040516104d79190612eb3565b60405180910390f35b6104e8611d97565b6040516104f59190612eb3565b60405180910390f35b610518600480360381019061051391906129e7565b611d9d565b604051610529959493929190612f13565b60405180910390f35b61053a611e14565b6040516105479190612eb3565b60405180910390f35b610558611e1a565b6040516105659190612d33565b60405180910390f35b61058860048036038101906105839190612b01565b611f38565b6040516105959190612eb3565b60405180910390f35b6105b860048036038101906105b391906129e7565b612015565b6040516105c59190612eb3565b60405180910390f35b6105d6612131565b6040516105e39190612eb3565b60405180910390f35b6105f4612137565b6040516106019190612eb3565b60405180910390f35b610624600480360381019061061f91906129e7565b61213d565b6040516106349493929190612ece565b60405180910390f35b6106456121aa565b6040516106529190612eb3565b60405180910390f35b610675600480360381019061067091906129e7565b61237c565b005b610691600480360381019061068c9190612a41565b612416565b005b61069b612572565b6040516106a89190612daf565b60405180910390f35b600f5481565b600080601660008473ffffffffffffffffffffffffffffffffffffffff1673ffffffffffffffffffffffffffffffffffffffff1681526020019081526020016000209050600061071482600101544261259890919063ffffffff16565b905062278d006014546107279190612f77565b42116107735761076c600f5461075e600b546107508587600001546125ae90919063ffffffff16565b6125ae90919063ffffffff16565b6125c490919063ffffffff16565b92506107b5565b6107b2600f546107a4600c546107968587600001546125ae90919063ffffffff16565b6125ae90919063ffffffff16565b6125c490919063ffffffff16565b92505b5050919050565b600281106107ff576040517f08c379a00000000000000000000000000000000000000000000000000000000081526004016107f690612e25565b60405180910390fd5b6000601560003373ffffffffffffffffffffffffffffffffffffffff1673ffffffffffffffffffffffffffffffffffffffff16815260200190815260200160002090506000806000841415610b06576000601660003373ffffffffffffffffffffffffffffffffffffffff1673ffffffffffffffffffffffffffffffffffffffff168152602001908152602001600020905080600001549250600360009054906101000a900473ffffffffffffffffffffffffffffffffffffffff1673ffffffffffffffffffffffffffffffffffffffff1663a9059cbb33856040518363ffffffff1660e01b81526004016108f5929190612d0a565b602060405180830381600087803b15801561090f57600080fd5b505af1158015610923573d6000803e3d6000fd5b505050506040513d601f19601f820116820180604052508101906109479190612a81565b50610951336106b7565b91506000821115610a945761097560125482600301546125da90919063ffffffff16565b4210156109bf5760006109a66064610998601354866125ae90919063ffffffff16565b6125c490919063ffffffff16565b90506109bb818461259890919063ffffffff16565b9250505b600360009054906101000a900473ffffffffffffffffffffffffffffffffffffffff1673ffffffffffffffffffffffffffffffffffffffff166323b872dd600160009054906101000a900473ffffffffffffffffffffffffffffffffffffffff1633856040518463ffffffff1660e01b8152600401610a4093929190612cd3565b602060405180830381600087803b158015610a5a57600080fd5b505af1158015610a6e573d6000803e3d6000fd5b505050506040513d601f19601f82011682018060405250810190610a929190612a81565b505b60008160000181905550428160010181905550610abe8282600201546125da90919063ffffffff16565b8160020181905550610add8385600401546125da90919063ffffffff16565b8460040181905550610afa836006546125da90919063ffffffff16565b60068190555050610ddf565b6000601760003373ffffffffffffffffffffffffffffffffffffffff1673ffffffffffffffffffffffffffffffffffffffff168152602001908152602001600020905080600001549250600260009054906101000a900473ffffffffffffffffffffffffffffffffffffffff1673ffffffffffffffffffffffffffffffffffffffff1663a9059cbb33856040518363ffffffff1660e01b8152600401610bad929190612d0a565b602060405180830381600087803b158015610bc757600080fd5b505af1158015610bdb573d6000803e3d6000fd5b505050506040513d601f19601f82011682018060405250810190610bff9190612a81565b50610c0933612015565b91506000821115610d4c57610c2d60125482600401546125da90919063ffffffff16565b421015610c77576000610c5e6064610c50601354866125ae90919063ffffffff16565b6125c490919063ffffffff16565b9050610c73818461259890919063ffffffff16565b9250505b600360009054906101000a900473ffffffffffffffffffffffffffffffffffffffff1673ffffffffffffffffffffffffffffffffffffffff166323b872dd600160009054906101000a900473ffffffffffffffffffffffffffffffffffffffff1633856040518463ffffffff1660e01b8152600401610cf893929190612cd3565b602060405180830381600087803b158015610d1257600080fd5b505af1158015610d26573d6000803e3d6000fd5b505050506040513d601f19601f82011682018060405250810190610d4a9190612a81565b505b6000816000018190555060008160010181905550428160020181905550610d808282600301546125da90919063ffffffff16565b8160030181905550610d9d826006546125da90919063ffffffff16565b600681905550610dba8385600501546125da90919063ffffffff16565b8460050181905550610dd7836007546125da90919063ffffffff16565b600781905550505b7f4f14ea4e43cc569e4fb4d8fa171366f2f6925bfade37c5cc93334e373a4c98473383604051610e10929190612d0a565b60405180910390a17fcea16a2d83554574def1edf3ec1fb53f1373f7ebb1fa98fecdaa4268588793cc3382604051610e49929190612d0a565b60405180910390a150505050565b60028110610e9a576040517f08c379a0000000000000000000000000000000000000000000000000000000008152600401610e9190612e25565b60405180910390fd5b6000601560003373ffffffffffffffffffffffffffffffffffffffff1673ffffffffffffffffffffffffffffffffffffffff168152602001908152602001600020905060008083141561109957610ef0336106b7565b905060008111610f35576040517f08c379a0000000000000000000000000000000000000000000000000000000008152600401610f2c90612de5565b60405180910390fd5b6000601660003373ffffffffffffffffffffffffffffffffffffffff1673ffffffffffffffffffffffffffffffffffffffff1681526020019081526020016000209050600360009054906101000a900473ffffffffffffffffffffffffffffffffffffffff1673ffffffffffffffffffffffffffffffffffffffff166323b872dd600160009054906101000a900473ffffffffffffffffffffffffffffffffffffffff1633856040518463ffffffff1660e01b8152600401610ff993929190612cd3565b602060405180830381600087803b15801561101357600080fd5b505af1158015611027573d6000803e3d6000fd5b505050506040513d601f19601f8201168201806040525081019061104b9190612a81565b5042816001018190555061106c8282600201546125da90919063ffffffff16565b816002018190555061108b8284600401546125da90919063ffffffff16565b836004018190555050611228565b6110a233612015565b9050600081116110e7576040517f08c379a00000000000000000000000000000000000000000000000000000000081526004016110de90612de5565b60405180910390fd5b6000601760003373ffffffffffffffffffffffffffffffffffffffff1673ffffffffffffffffffffffffffffffffffffffff1681526020019081526020016000209050600360009054906101000a900473ffffffffffffffffffffffffffffffffffffffff1673ffffffffffffffffffffffffffffffffffffffff166323b872dd600160009054906101000a900473ffffffffffffffffffffffffffffffffffffffff1633856040518463ffffffff1660e01b81526004016111ab93929190612cd3565b602060405180830381600087803b1580156111c557600080fd5b505af11580156111d9573d6000803e3d6000fd5b505050506040513d601f19601f820116820180604052508101906111fd9190612a81565b5042816002018190555061121e8282600301546125da90919063ffffffff16565b8160030181905550505b61123d816006546125da90919063ffffffff16565b6006819055507fcea16a2d83554574def1edf3ec1fb53f1373f7ebb1fa98fecdaa4268588793cc3382604051611274929190612d0a565b60405180910390a1505050565b60095481565b60125481565b6000806000806000806000601560008973ffffffffffffffffffffffffffffffffffffffff1673ffffffffffffffffffffffffffffffffffffffff16815260200190815260200160002090508060000160009054906101000a900460ff16965080600101549550806002015494508060030154935080600401549250806005015491505091939550919395565b600c5481565b3373ffffffffffffffffffffffffffffffffffffffff1660008054906101000a900473ffffffffffffffffffffffffffffffffffffffff1673ffffffffffffffffffffffffffffffffffffffff16146113ae576040517f08c379a00000000000000000000000000000000000000000000000000000000081526004016113a590612e93565b60405180910390fd5b600073ffffffffffffffffffffffffffffffffffffffff1660008054906101000a900473ffffffffffffffffffffffffffffffffffffffff1673ffffffffffffffffffffffffffffffffffffffff167f8be0079c531659141344cd1fd0a4f28419497f9722a3daafe3b4186f6b6457e060405160405180910390a360008060006101000a81548173ffffffffffffffffffffffffffffffffffffffff021916908373ffffffffffffffffffffffffffffffffffffffff160217905550565b60075481565b600281106114b5576040517f08c379a00000000000000000000000000000000000000000000000000000000081526004016114ac90612e25565b60405180910390fd5b601560003373ffffffffffffffffffffffffffffffffffffffff1673ffffffffffffffffffffffffffffffffffffffff16815260200190815260200160002060000160009054906101000a900460ff1661157d576001601560003373ffffffffffffffffffffffffffffffffffffffff1673ffffffffffffffffffffffffffffffffffffffff16815260200190815260200160002060000160006101000a81548160ff0219169083151502179055506008600081548092919061157790613146565b91905055505b6000808214156117ea576010548310156115cc576040517f08c379a00000000000000000000000000000000000000000000000000000000081526004016115c390612e73565b60405180910390fd5b600360009054906101000a900473ffffffffffffffffffffffffffffffffffffffff1673ffffffffffffffffffffffffffffffffffffffff166323b872dd3330866040518463ffffffff1660e01b815260040161162b93929190612cd3565b602060405180830381600087803b15801561164557600080fd5b505af1158015611659573d6000803e3d6000fd5b505050506040513d601f19601f8201168201806040525081019061167d9190612a81565b50611687336106b7565b9050600081111561177c576116a581846125da90919063ffffffff16565b9250600360009054906101000a900473ffffffffffffffffffffffffffffffffffffffff1673ffffffffffffffffffffffffffffffffffffffff166323b872dd600160009054906101000a900473ffffffffffffffffffffffffffffffffffffffff1630846040518463ffffffff1660e01b815260040161172893929190612cd3565b602060405180830381600087803b15801561174257600080fd5b505af1158015611756573d6000803e3d6000fd5b505050506040513d601f19601f8201168201806040525081019061177a9190612a81565b505b61178633846125f0565b42601660003373ffffffffffffffffffffffffffffffffffffffff1673ffffffffffffffffffffffffffffffffffffffff16815260200190815260200160002060030181905550600960008154809291906117e090613146565b9190505550611a3e565b60115483101561182f576040517f08c379a000000000000000000000000000000000000000000000000000000000815260040161182690612e73565b60405180910390fd5b600260009054906101000a900473ffffffffffffffffffffffffffffffffffffffff1673ffffffffffffffffffffffffffffffffffffffff166323b872dd3330866040518463ffffffff1660e01b815260040161188e93929190612cd3565b602060405180830381600087803b1580156118a857600080fd5b505af11580156118bc573d6000803e3d6000fd5b505050506040513d601f19601f820116820180604052508101906118e09190612a81565b506118ea33612015565b905060008111156119d457600360009054906101000a900473ffffffffffffffffffffffffffffffffffffffff1673ffffffffffffffffffffffffffffffffffffffff166323b872dd600160009054906101000a900473ffffffffffffffffffffffffffffffffffffffff1630846040518463ffffffff1660e01b815260040161197693929190612cd3565b602060405180830381600087803b15801561199057600080fd5b505af11580156119a4573d6000803e3d6000fd5b505050506040513d601f19601f820116820180604052508101906119c89190612a81565b506119d333826125f0565b5b6119de33846126f8565b42601760003373ffffffffffffffffffffffffffffffffffffffff1673ffffffffffffffffffffffffffffffffffffffff16815260200190815260200160002060040181905550600a6000815480929190611a3890613146565b91905055505b7fa4e109bb7f03a3cbe671105ffecfc362319eaa88ecaf35997a4d3a2328d66d6c3384604051611a6f929190612d0a565b60405180910390a1505050565b60085481565b60055481565b60145481565b600260009054906101000a900473ffffffffffffffffffffffffffffffffffffffff1681565b60028110611af7576040517f08c379a0000000000000000000000000000000000000000000000000000000008152600401611aee90612e25565b60405180910390fd5b600080821415611bf957611b0a336106b7565b90506000811115611bf457600360009054906101000a900473ffffffffffffffffffffffffffffffffffffffff1673ffffffffffffffffffffffffffffffffffffffff166323b872dd600160009054906101000a900473ffffffffffffffffffffffffffffffffffffffff1630846040518463ffffffff1660e01b8152600401611b9693929190612cd3565b602060405180830381600087803b158015611bb057600080fd5b505af1158015611bc4573d6000803e3d6000fd5b505050506040513d601f19601f82011682018060405250810190611be89190612a81565b50611bf333826125f0565b5b611ced565b611c0233612015565b90506000811115611cec57600360009054906101000a900473ffffffffffffffffffffffffffffffffffffffff1673ffffffffffffffffffffffffffffffffffffffff166323b872dd600160009054906101000a900473ffffffffffffffffffffffffffffffffffffffff1630846040518463ffffffff1660e01b8152600401611c8e93929190612cd3565b602060405180830381600087803b158015611ca857600080fd5b505af1158015611cbc573d6000803e3d6000fd5b505050506040513d601f19601f82011682018060405250810190611ce09190612a81565b50611ceb33826125f0565b5b5b7fadbf526534e0e4e9b9f583ca01ac5f059879dbab284c48e9bfbeab2eda5911db3382604051611d1e929190612d0a565b60405180910390a15050565b60135481565b60008060009054906101000a900473ffffffffffffffffffffffffffffffffffffffff16905090565b600a5481565b60105481565b600d5481565b600160009054906101000a900473ffffffffffffffffffffffffffffffffffffffff1681565b60115481565b60065481565b600080600080600080601760008873ffffffffffffffffffffffffffffffffffffffff1673ffffffffffffffffffffffffffffffffffffffff168152602001908152602001600020905080600001549550806001015494508060020154935080600301549250806004015491505091939590929450565b60045481565b6000690a968163f0a57b400000600360009054906101000a900473ffffffffffffffffffffffffffffffffffffffff1673ffffffffffffffffffffffffffffffffffffffff166370a08231600160009054906101000a900473ffffffffffffffffffffffffffffffffffffffff166040518263ffffffff1660e01b8152600401611ea49190612cb8565b60206040518083038186803b158015611ebc57600080fd5b505afa158015611ed0573d6000803e3d6000fd5b505050506040513d601f19601f82011682018060405250810190611ef49190612b2e565b11611f31577feb89fafb30ab93fa033b249adce098070cf3b3b989cd3f3d26664a9d4fdadd9b33604051611f289190612e45565b60405180910390a15b6001905090565b600080600260009054906101000a900473ffffffffffffffffffffffffffffffffffffffff1673ffffffffffffffffffffffffffffffffffffffff166318160ddd6040518163ffffffff1660e01b815260040160206040518083038186803b158015611fa357600080fd5b505afa158015611fb7573d6000803e3d6000fd5b505050506040513d601f19601f82011682018060405250810190611fdb9190612b2e565b905060006002611fe96121aa565b611ff39190612ffe565b90508184826120029190612ffe565b61200c9190612fcd565b92505050919050565b600080601760008473ffffffffffffffffffffffffffffffffffffffff1673ffffffffffffffffffffffffffffffffffffffff1681526020019081526020016000209050600061207282600201544261259890919063ffffffff16565b90506146506014546120849190612f77565b42116120d0576120c9600f546120bb600d546120ad8587600101546125ae90919063ffffffff16565b6125ae90919063ffffffff16565b6125c490919063ffffffff16565b925061212a565b62278d006014546120e19190612f77565b421161212957612126600f54612118600e5461210a8587600101546125ae90919063ffffffff16565b6125ae90919063ffffffff16565b6125c490919063ffffffff16565b92505b5b5050919050565b600e5481565b600b5481565b6000806000806000601660008773ffffffffffffffffffffffffffffffffffffffff1673ffffffffffffffffffffffffffffffffffffffff168152602001908152602001600020905080600001549450806001015493508060020154925080600301549150509193509193565b6000806000600260009054906101000a900473ffffffffffffffffffffffffffffffffffffffff1673ffffffffffffffffffffffffffffffffffffffff16630902f1ac6040518163ffffffff1660e01b815260040160606040518083038186803b15801561221757600080fd5b505afa15801561222b573d6000803e3d6000fd5b505050506040513d601f19601f8201168201806040525081019061224f9190612aae565b506dffffffffffffffffffffffffffff1691506dffffffffffffffffffffffffffff169150600360009054906101000a900473ffffffffffffffffffffffffffffffffffffffff1673ffffffffffffffffffffffffffffffffffffffff16600260009054906101000a900473ffffffffffffffffffffffffffffffffffffffff1673ffffffffffffffffffffffffffffffffffffffff16630dfe16816040518163ffffffff1660e01b815260040160206040518083038186803b15801561231557600080fd5b505afa158015612329573d6000803e3d6000fd5b505050506040513d601f19601f8201168201806040525081019061234d9190612a14565b73ffffffffffffffffffffffffffffffffffffffff161415612373578192505050612379565b80925050505b90565b3373ffffffffffffffffffffffffffffffffffffffff1660008054906101000a900473ffffffffffffffffffffffffffffffffffffffff1673ffffffffffffffffffffffffffffffffffffffff161461240a576040517f08c379a000000000000000000000000000000000000000000000000000000000815260040161240190612e93565b60405180910390fd5b61241381612827565b50565b3373ffffffffffffffffffffffffffffffffffffffff1660008054906101000a900473ffffffffffffffffffffffffffffffffffffffff1673ffffffffffffffffffffffffffffffffffffffff16146124a4576040517f08c379a000000000000000000000000000000000000000000000000000000000815260040161249b90612e93565b60405180910390fd5b4260148190555081600260006101000a81548173ffffffffffffffffffffffffffffffffffffffff021916908373ffffffffffffffffffffffffffffffffffffffff16021790555080600360006101000a81548173ffffffffffffffffffffffffffffffffffffffff021916908373ffffffffffffffffffffffffffffffffffffffff16021790555080600160006101000a81548173ffffffffffffffffffffffffffffffffffffffff021916908373ffffffffffffffffffffffffffffffffffffffff1602179055505050565b600360009054906101000a900473ffffffffffffffffffffffffffffffffffffffff1681565b600081836125a69190613058565b905092915050565b600081836125bc9190612ffe565b905092915050565b600081836125d29190612fcd565b905092915050565b600081836125e89190612f77565b905092915050565b6000601560008473ffffffffffffffffffffffffffffffffffffffff1673ffffffffffffffffffffffffffffffffffffffff16815260200190815260200160002090506000601660008573ffffffffffffffffffffffffffffffffffffffff1673ffffffffffffffffffffffffffffffffffffffff168152602001908152602001600020905061268d8382600001546125da90919063ffffffff16565b81600001819055504281600101819055508160010160008154809291906126b390613146565b91905055506126cf8383600201546125da90919063ffffffff16565b82600201819055506126ec836004546125da90919063ffffffff16565b60048190555050505050565b6000601560008473ffffffffffffffffffffffffffffffffffffffff1673ffffffffffffffffffffffffffffffffffffffff16815260200190815260200160002090506000601760008573ffffffffffffffffffffffffffffffffffffffff1673ffffffffffffffffffffffffffffffffffffffff16815260200190815260200160002090506127958382600001546125da90919063ffffffff16565b81600001819055506127bc6127a984611f38565b82600101546125da90919063ffffffff16565b81600101819055504281600201819055508160010160008154809291906127e290613146565b91905055506127fe8383600301546125da90919063ffffffff16565b826003018190555061281b836005546125da90919063ffffffff16565b60058190555050505050565b600073ffffffffffffffffffffffffffffffffffffffff168173ffffffffffffffffffffffffffffffffffffffff161415612897576040517f08c379a000000000000000000000000000000000000000000000000000000000815260040161288e90612e05565b60405180910390fd5b8073ffffffffffffffffffffffffffffffffffffffff1660008054906101000a900473ffffffffffffffffffffffffffffffffffffffff1673ffffffffffffffffffffffffffffffffffffffff167f8be0079c531659141344cd1fd0a4f28419497f9722a3daafe3b4186f6b6457e060405160405180910390a3806000806101000a81548173ffffffffffffffffffffffffffffffffffffffff021916908373ffffffffffffffffffffffffffffffffffffffff16021790555050565b6000813590506129638161330e565b92915050565b6000815190506129788161330e565b92915050565b60008151905061298d81613325565b92915050565b6000815190506129a28161333c565b92915050565b6000813590506129b781613353565b92915050565b6000815190506129cc81613353565b92915050565b6000815190506129e18161336a565b92915050565b6000602082840312156129fd576129fc6131ed565b5b6000612a0b84828501612954565b91505092915050565b600060208284031215612a2a57612a296131ed565b5b6000612a3884828501612969565b91505092915050565b60008060408385031215612a5857612a576131ed565b5b6000612a6685828601612954565b9250506020612a7785828601612954565b9150509250929050565b600060208284031215612a9757612a966131ed565b5b6000612aa58482850161297e565b91505092915050565b600080600060608486031215612ac757612ac66131ed565b5b6000612ad586828701612993565b9350506020612ae686828701612993565b9250506040612af7868287016129d2565b9150509250925092565b600060208284031215612b1757612b166131ed565b5b6000612b25848285016129a8565b91505092915050565b600060208284031215612b4457612b436131ed565b5b6000612b52848285016129bd565b91505092915050565b60008060408385031215612b7257612b716131ed565b5b6000612b80858286016129a8565b9250506020612b91858286016129a8565b9150509250929050565b612ba48161308c565b82525050565b612bb38161309e565b82525050565b612bc2816130fe565b82525050565b612bd181613110565b82525050565b6000612be4600d83612f66565b9150612bef826131f2565b602082019050919050565b6000612c07602683612f66565b9150612c128261321b565b604082019050919050565b6000612c2a600d83612f66565b9150612c358261326a565b602082019050919050565b6000612c4d600783612f66565b9150612c5882613293565b602082019050919050565b6000612c70601a83612f66565b9150612c7b826132bc565b602082019050919050565b6000612c93602083612f66565b9150612c9e826132e5565b602082019050919050565b612cb2816130e4565b82525050565b6000602082019050612ccd6000830184612b9b565b92915050565b6000606082019050612ce86000830186612b9b565b612cf56020830185612b9b565b612d026040830184612ca9565b949350505050565b6000604082019050612d1f6000830185612b9b565b612d2c6020830184612ca9565b9392505050565b6000602082019050612d486000830184612baa565b92915050565b600060c082019050612d636000830189612baa565b612d706020830188612ca9565b612d7d6040830187612ca9565b612d8a6060830186612ca9565b612d976080830185612ca9565b612da460a0830184612ca9565b979650505050505050565b6000602082019050612dc46000830184612bb9565b92915050565b6000602082019050612ddf6000830184612bc8565b92915050565b60006020820190508181036000830152612dfe81612bd7565b9050919050565b60006020820190508181036000830152612e1e81612bfa565b9050919050565b60006020820190508181036000830152612e3e81612c1d565b9050919050565b60006040820190508181036000830152612e5e81612c40565b9050612e6d6020830184612b9b565b92915050565b60006020820190508181036000830152612e8c81612c63565b9050919050565b60006020820190508181036000830152612eac81612c86565b9050919050565b6000602082019050612ec86000830184612ca9565b92915050565b6000608082019050612ee36000830187612ca9565b612ef06020830186612ca9565b612efd6040830185612ca9565b612f0a6060830184612ca9565b95945050505050565b600060a082019050612f286000830188612ca9565b612f356020830187612ca9565b612f426040830186612ca9565b612f4f6060830185612ca9565b612f5c6080830184612ca9565b9695505050505050565b600082825260208201905092915050565b6000612f82826130e4565b9150612f8d836130e4565b9250827fffffffffffffffffffffffffffffffffffffffffffffffffffffffffffffffff03821115612fc257612fc161318f565b5b828201905092915050565b6000612fd8826130e4565b9150612fe3836130e4565b925082612ff357612ff26131be565b5b828204905092915050565b6000613009826130e4565b9150613014836130e4565b9250817fffffffffffffffffffffffffffffffffffffffffffffffffffffffffffffffff048311821515161561304d5761304c61318f565b5b828202905092915050565b6000613063826130e4565b915061306e836130e4565b9250828210156130815761308061318f565b5b828203905092915050565b6000613097826130c4565b9050919050565b60008115159050919050565b60006dffffffffffffffffffffffffffff82169050919050565b600073ffffffffffffffffffffffffffffffffffffffff82169050919050565b6000819050919050565b600063ffffffff82169050919050565b600061310982613122565b9050919050565b600061311b82613122565b9050919050565b600061312d82613134565b9050919050565b600061313f826130c4565b9050919050565b6000613151826130e4565b91507fffffffffffffffffffffffffffffffffffffffffffffffffffffffffffffffff8214156131845761318361318f565b5b600182019050919050565b7f4e487b7100000000000000000000000000000000000000000000000000000000600052601160045260246000fd5b7f4e487b7100000000000000000000000000000000000000000000000000000000600052601260045260246000fd5b600080fd5b7f6e6f207265776172642079657400000000000000000000000000000000000000600082015250565b7f4f776e61626c653a206e6577206f776e657220697320746865207a65726f206160008201527f6464726573730000000000000000000000000000000000000000000000000000602082015250565b7f496e76616c696420696e64657800000000000000000000000000000000000000600082015250565b7f7375636365736500000000000000000000000000000000000000000000000000600082015250565b7f7374616b65206d6f7265207468616e206d696e20616d6f756e74000000000000600082015250565b7f4f776e61626c653a2063616c6c6572206973206e6f7420746865206f776e6572600082015250565b6133178161308c565b811461332257600080fd5b50565b61332e8161309e565b811461333957600080fd5b50565b613345816130aa565b811461335057600080fd5b50565b61335c816130e4565b811461336757600080fd5b50565b613373816130ee565b811461337e57600080fd5b5056fea2646970667358221220580c9ee608db9e8c09f38ecde75c4679916c462681c84316c4020cbed597923864736f6c63430008070033a264697066735822122020da64556f1ac472fe4da7c8d648edf0584199c36fd497d12c08ea28567671f664736f6c6343000807003360806040523480156200001157600080fd5b506040518060400160405280600481526020017f55534454000000000000000000000000000000000000000000000000000000008152506040518060400160405280600481526020017f55534454000000000000000000000000000000000000000000000000000000008152508160039080519060200190620000969291906200015a565b508060049080519060200190620000af9291906200015a565b505050600033905080600560006101000a81548173ffffffffffffffffffffffffffffffffffffffff021916908373ffffffffffffffffffffffffffffffffffffffff1602179055508073ffffffffffffffffffffffffffffffffffffffff16600073ffffffffffffffffffffffffffffffffffffffff167f8be0079c531659141344cd1fd0a4f28419497f9722a3daafe3b4186f6b6457e060405160405180910390a3506200026f565b82805462000168906200020a565b90600052602060002090601f0160209004810192826200018c5760008555620001d8565b82601f10620001a757805160ff1916838001178555620001d8565b82800160010185558215620001d8579182015b82811115620001d7578251825591602001919060010190620001ba565b5b509050620001e79190620001eb565b5090565b5b8082111562000206576000816000905550600101620001ec565b5090565b600060028204905060018216806200022357607f821691505b602082108114156200023a576200023962000240565b5b50919050565b7f4e487b7100000000000000000000000000000000000000000000000000000000600052602260045260246000fd5b6119ed806200027f6000396000f3fe608060405234801561001057600080fd5b50600436106100f55760003560e01c806370a0823111610097578063a457c2d711610066578063a457c2d714610276578063a9059cbb146102a6578063dd62ed3e146102d6578063f2fde38b14610306576100f5565b806370a0823114610200578063715018a6146102305780638da5cb5b1461023a57806395d89b4114610258576100f5565b806323b872dd116100d357806323b872dd14610166578063313ce5671461019657806339509351146101b457806340c10f19146101e4576100f5565b806306fdde03146100fa578063095ea7b31461011857806318160ddd14610148575b600080fd5b610102610322565b60405161010f91906113ad565b60405180910390f35b610132600480360381019061012d9190611164565b6103b4565b60405161013f9190611392565b60405180910390f35b6101506103d7565b60405161015d919061150f565b60405180910390f35b610180600480360381019061017b9190611111565b6103e1565b60405161018d9190611392565b60405180910390f35b61019e610410565b6040516101ab919061152a565b60405180910390f35b6101ce60048036038101906101c99190611164565b610419565b6040516101db9190611392565b60405180910390f35b6101fe60048036038101906101f99190611164565b610450565b005b61021a600480360381019061021591906110a4565b6104ee565b604051610227919061150f565b60405180910390f35b610238610536565b005b610242610687565b60405161024f9190611377565b60405180910390f35b6102606106b1565b60405161026d91906113ad565b60405180910390f35b610290600480360381019061028b9190611164565b610743565b60405161029d9190611392565b60405180910390f35b6102c060048036038101906102bb9190611164565b6107ba565b6040516102cd9190611392565b60405180910390f35b6102f060048036038101906102eb91906110d1565b6107dd565b6040516102fd919061150f565b60405180910390f35b610320600480360381019061031b91906110a4565b610864565b005b6060600380546103319061163f565b80601f016020809104026020016040519081016040528092919081815260200182805461035d9061163f565b80156103aa5780601f1061037f576101008083540402835291602001916103aa565b820191906000526020600020905b81548152906001019060200180831161038d57829003601f168201915b5050505050905090565b6000806103bf610900565b90506103cc818585610908565b600191505092915050565b6000600254905090565b6000806103ec610900565b90506103f9858285610ad3565b610404858585610b5f565b60019150509392505050565b60006012905090565b600080610424610900565b905061044581858561043685896107dd565b6104409190611561565b610908565b600191505092915050565b3373ffffffffffffffffffffffffffffffffffffffff16600560009054906101000a900473ffffffffffffffffffffffffffffffffffffffff1673ffffffffffffffffffffffffffffffffffffffff16146104e0576040517f08c379a00000000000000000000000000000000000000000000000000000000081526004016104d79061146f565b60405180910390fd5b6104ea8282610de0565b5050565b60008060008373ffffffffffffffffffffffffffffffffffffffff1673ffffffffffffffffffffffffffffffffffffffff168152602001908152602001600020549050919050565b3373ffffffffffffffffffffffffffffffffffffffff16600560009054906101000a900473ffffffffffffffffffffffffffffffffffffffff1673ffffffffffffffffffffffffffffffffffffffff16146105c6576040517f08c379a00000000000000000000000000000000000000000000000000000000081526004016105bd9061146f565b60405180910390fd5b600073ffffffffffffffffffffffffffffffffffffffff16600560009054906101000a900473ffffffffffffffffffffffffffffffffffffffff1673ffffffffffffffffffffffffffffffffffffffff167f8be0079c531659141344cd1fd0a4f28419497f9722a3daafe3b4186f6b6457e060405160405180910390a36000600560006101000a81548173ffffffffffffffffffffffffffffffffffffffff021916908373ffffffffffffffffffffffffffffffffffffffff160217905550565b6000600560009054906101000a900473ffffffffffffffffffffffffffffffffffffffff16905090565b6060600480546106c09061163f565b80601f01602080910402602001604051908101604052809291908181526020018280546106ec9061163f565b80156107395780601f1061070e57610100808354040283529160200191610739565b820191906000526020600020905b81548152906001019060200180831161071c57829003601f168201915b5050505050905090565b60008061074e610900565b9050600061075c82866107dd565b9050838110156107a1576040517f08c379a0000000000000000000000000000000000000000000000000000000008152600401610798906114cf565b60405180910390fd5b6107ae8286868403610908565b60019250505092915050565b6000806107c5610900565b90506107d2818585610b5f565b600191505092915050565b6000600160008473ffffffffffffffffffffffffffffffffffffffff1673ffffffffffffffffffffffffffffffffffffffff16815260200190815260200160002060008373ffffffffffffffffffffffffffffffffffffffff1673ffffffffffffffffffffffffffffffffffffffff16815260200190815260200160002054905092915050565b3373ffffffffffffffffffffffffffffffffffffffff16600560009054906101000a900473ffffffffffffffffffffffffffffffffffffffff1673ffffffffffffffffffffffffffffffffffffffff16146108f4576040517f08c379a00000000000000000000000000000000000000000000000000000000081526004016108eb9061146f565b60405180910390fd5b6108fd81610f40565b50565b600033905090565b600073ffffffffffffffffffffffffffffffffffffffff168373ffffffffffffffffffffffffffffffffffffffff161415610978576040517f08c379a000000000000000000000000000000000000000000000000000000000815260040161096f906114af565b60405180910390fd5b600073ffffffffffffffffffffffffffffffffffffffff168273ffffffffffffffffffffffffffffffffffffffff1614156109e8576040517f08c379a00000000000000000000000000000000000000000000000000000000081526004016109df9061140f565b60405180910390fd5b80600160008573ffffffffffffffffffffffffffffffffffffffff1673ffffffffffffffffffffffffffffffffffffffff16815260200190815260200160002060008473ffffffffffffffffffffffffffffffffffffffff1673ffffffffffffffffffffffffffffffffffffffff168152602001908152602001600020819055508173ffffffffffffffffffffffffffffffffffffffff168373ffffffffffffffffffffffffffffffffffffffff167f8c5be1e5ebec7d5bd14f71427d1e84f3dd0314c0f7b2291e5b200ac8c7c3b92583604051610ac6919061150f565b60405180910390a3505050565b6000610adf84846107dd565b90507fffffffffffffffffffffffffffffffffffffffffffffffffffffffffffffffff8114610b595781811015610b4b576040517f08c379a0000000000000000000000000000000000000000000000000000000008152600401610b429061142f565b60405180910390fd5b610b588484848403610908565b5b50505050565b600073ffffffffffffffffffffffffffffffffffffffff168373ffffffffffffffffffffffffffffffffffffffff161415610bcf576040517f08c379a0000000000000000000000000000000000000000000000000000000008152600401610bc69061148f565b60405180910390fd5b600073ffffffffffffffffffffffffffffffffffffffff168273ffffffffffffffffffffffffffffffffffffffff161415610c3f576040517f08c379a0000000000000000000000000000000000000000000000000000000008152600401610c36906113cf565b60405180910390fd5b610c4a838383611070565b60008060008573ffffffffffffffffffffffffffffffffffffffff1673ffffffffffffffffffffffffffffffffffffffff16815260200190815260200160002054905081811015610cd0576040517f08c379a0000000000000000000000000000000000000000000000000000000008152600401610cc79061144f565b60405180910390fd5b8181036000808673ffffffffffffffffffffffffffffffffffffffff1673ffffffffffffffffffffffffffffffffffffffff16815260200190815260200160002081905550816000808573ffffffffffffffffffffffffffffffffffffffff1673ffffffffffffffffffffffffffffffffffffffff1681526020019081526020016000206000828254610d639190611561565b925050819055508273ffffffffffffffffffffffffffffffffffffffff168473ffffffffffffffffffffffffffffffffffffffff167fddf252ad1be2c89b69c2b068fc378daa952ba7f163c4a11628f55a4df523b3ef84604051610dc7919061150f565b60405180910390a3610dda848484611075565b50505050565b600073ffffffffffffffffffffffffffffffffffffffff168273ffffffffffffffffffffffffffffffffffffffff161415610e50576040517f08c379a0000000000000000000000000000000000000000000000000000000008152600401610e47906114ef565b60405180910390fd5b610e5c60008383611070565b8060026000828254610e6e9190611561565b92505081905550806000808473ffffffffffffffffffffffffffffffffffffffff1673ffffffffffffffffffffffffffffffffffffffff1681526020019081526020016000206000828254610ec39190611561565b925050819055508173ffffffffffffffffffffffffffffffffffffffff16600073ffffffffffffffffffffffffffffffffffffffff167fddf252ad1be2c89b69c2b068fc378daa952ba7f163c4a11628f55a4df523b3ef83604051610f28919061150f565b60405180910390a3610f3c60008383611075565b5050565b600073ffffffffffffffffffffffffffffffffffffffff168173ffffffffffffffffffffffffffffffffffffffff161415610fb0576040517f08c379a0000000000000000000000000000000000000000000000000000000008152600401610fa7906113ef565b60405180910390fd5b8073ffffffffffffffffffffffffffffffffffffffff16600560009054906101000a900473ffffffffffffffffffffffffffffffffffffffff1673ffffffffffffffffffffffffffffffffffffffff167f8be0079c531659141344cd1fd0a4f28419497f9722a3daafe3b4186f6b6457e060405160405180910390a380600560006101000a81548173ffffffffffffffffffffffffffffffffffffffff021916908373ffffffffffffffffffffffffffffffffffffffff16021790555050565b505050565b505050565b60008135905061108981611989565b92915050565b60008135905061109e816119a0565b92915050565b6000602082840312156110ba576110b96116cf565b5b60006110c88482850161107a565b91505092915050565b600080604083850312156110e8576110e76116cf565b5b60006110f68582860161107a565b92505060206111078582860161107a565b9150509250929050565b60008060006060848603121561112a576111296116cf565b5b60006111388682870161107a565b93505060206111498682870161107a565b925050604061115a8682870161108f565b9150509250925092565b6000806040838503121561117b5761117a6116cf565b5b60006111898582860161107a565b925050602061119a8582860161108f565b9150509250929050565b6111ad816115b7565b82525050565b6111bc816115c9565b82525050565b60006111cd82611545565b6111d78185611550565b93506111e781856020860161160c565b6111f0816116d4565b840191505092915050565b6000611208602383611550565b9150611213826116e5565b604082019050919050565b600061122b602683611550565b915061123682611734565b604082019050919050565b600061124e602283611550565b915061125982611783565b604082019050919050565b6000611271601d83611550565b915061127c826117d2565b602082019050919050565b6000611294602683611550565b915061129f826117fb565b604082019050919050565b60006112b7602083611550565b91506112c28261184a565b602082019050919050565b60006112da602583611550565b91506112e582611873565b604082019050919050565b60006112fd602483611550565b9150611308826118c2565b604082019050919050565b6000611320602583611550565b915061132b82611911565b604082019050919050565b6000611343601f83611550565b915061134e82611960565b602082019050919050565b611362816115f5565b82525050565b611371816115ff565b82525050565b600060208201905061138c60008301846111a4565b92915050565b60006020820190506113a760008301846111b3565b92915050565b600060208201905081810360008301526113c781846111c2565b905092915050565b600060208201905081810360008301526113e8816111fb565b9050919050565b600060208201905081810360008301526114088161121e565b9050919050565b6000602082019050818103600083015261142881611241565b9050919050565b6000602082019050818103600083015261144881611264565b9050919050565b6000602082019050818103600083015261146881611287565b9050919050565b60006020820190508181036000830152611488816112aa565b9050919050565b600060208201905081810360008301526114a8816112cd565b9050919050565b600060208201905081810360008301526114c8816112f0565b9050919050565b600060208201905081810360008301526114e881611313565b9050919050565b6000602082019050818103600083015261150881611336565b9050919050565b60006020820190506115246000830184611359565b92915050565b600060208201905061153f6000830184611368565b92915050565b600081519050919050565b600082825260208201905092915050565b600061156c826115f5565b9150611577836115f5565b9250827fffffffffffffffffffffffffffffffffffffffffffffffffffffffffffffffff038211156115ac576115ab611671565b5b828201905092915050565b60006115c2826115d5565b9050919050565b60008115159050919050565b600073ffffffffffffffffffffffffffffffffffffffff82169050919050565b6000819050919050565b600060ff82169050919050565b60005b8381101561162a57808201518184015260208101905061160f565b83811115611639576000848401525b50505050565b6000600282049050600182168061165757607f821691505b6020821081141561166b5761166a6116a0565b5b50919050565b7f4e487b7100000000000000000000000000000000000000000000000000000000600052601160045260246000fd5b7f4e487b7100000000000000000000000000000000000000000000000000000000600052602260045260246000fd5b600080fd5b6000601f19601f8301169050919050565b7f45524332303a207472616e7366657220746f20746865207a65726f206164647260008201527f6573730000000000000000000000000000000000000000000000000000000000602082015250565b7f4f776e61626c653a206e6577206f776e657220697320746865207a65726f206160008201527f6464726573730000000000000000000000000000000000000000000000000000602082015250565b7f45524332303a20617070726f766520746f20746865207a65726f20616464726560008201527f7373000000000000000000000000000000000000000000000000000000000000602082015250565b7f45524332303a20696e73756666696369656e7420616c6c6f77616e6365000000600082015250565b7f45524332303a207472616e7366657220616d6f756e742065786365656473206260008201527f616c616e63650000000000000000000000000000000000000000000000000000602082015250565b7f4f776e61626c653a2063616c6c6572206973206e6f7420746865206f776e6572600082015250565b7f45524332303a207472616e736665722066726f6d20746865207a65726f20616460008201527f6472657373000000000000000000000000000000000000000000000000000000602082015250565b7f45524332303a20617070726f76652066726f6d20746865207a65726f2061646460008201527f7265737300000000000000000000000000000000000000000000000000000000602082015250565b7f45524332303a2064656372656173656420616c6c6f77616e63652062656c6f7760008201527f207a65726f000000000000000000000000000000000000000000000000000000602082015250565b7f45524332303a206d696e7420746f20746865207a65726f206164647265737300600082015250565b611992816115b7565b811461199d57600080fd5b50565b6119a9816115f5565b81146119b457600080fd5b5056fea264697066735822122008f235d34253f95388a41c3647c469ed4c53c35869cd4e0a0a72df608afa500c64736f6c63430008070033",
			"opcodes": "PUSH1 0x80 PUSH1 0x40 MSTORE CALLVALUE DUP1 ISZERO PUSH3 0x11 JUMPI PUSH1 0x0 DUP1 REVERT JUMPDEST POP PUSH1 0x40 MLOAD PUSH3 0x7D59 CODESIZE SUB DUP1 PUSH3 0x7D59 DUP4 CODECOPY DUP2 DUP2 ADD PUSH1 0x40 MSTORE DUP2 ADD SWAP1 PUSH3 0x37 SWAP2 SWAP1 PUSH3 0x547 JUMP JUMPDEST PUSH1 0x40 MLOAD DUP1 PUSH1 0x40 ADD PUSH1 0x40 MSTORE DUP1 PUSH1 0x3 DUP2 MSTORE PUSH1 0x20 ADD PUSH32 0x4141410000000000000000000000000000000000000000000000000000000000 DUP2 MSTORE POP PUSH1 0x40 MLOAD DUP1 PUSH1 0x40 ADD PUSH1 0x40 MSTORE DUP1 PUSH1 0x2 DUP2 MSTORE PUSH1 0x20 ADD PUSH32 0x6161000000000000000000000000000000000000000000000000000000000000 DUP2 MSTORE POP DUP2 PUSH1 0x3 SWAP1 DUP1 MLOAD SWAP1 PUSH1 0x20 ADD SWAP1 PUSH3 0xBB SWAP3 SWAP2 SWAP1 PUSH3 0x472 JUMP JUMPDEST POP DUP1 PUSH1 0x4 SWAP1 DUP1 MLOAD SWAP1 PUSH1 0x20 ADD SWAP1 PUSH3 0xD4 SWAP3 SWAP2 SWAP1 PUSH3 0x472 JUMP JUMPDEST POP POP POP PUSH1 0x0 CALLER SWAP1 POP DUP1 PUSH1 0x5 PUSH1 0x0 PUSH2 0x100 EXP DUP2 SLOAD DUP2 PUSH20 0xFFFFFFFFFFFFFFFFFFFFFFFFFFFFFFFFFFFFFFFF MUL NOT AND SWAP1 DUP4 PUSH20 0xFFFFFFFFFFFFFFFFFFFFFFFFFFFFFFFFFFFFFFFF AND MUL OR SWAP1 SSTORE POP DUP1 PUSH20 0xFFFFFFFFFFFFFFFFFFFFFFFFFFFFFFFFFFFFFFFF AND PUSH1 0x0 PUSH20 0xFFFFFFFFFFFFFFFFFFFFFFFFFFFFFFFFFFFFFFFF AND PUSH32 0x8BE0079C531659141344CD1FD0A4F28419497F9722A3DAAFE3B4186F6B6457E0 PUSH1 0x40 MLOAD PUSH1 0x40 MLOAD DUP1 SWAP2 SUB SWAP1 LOG3 POP DUP2 PUSH1 0x6 PUSH1 0x0 PUSH2 0x100 EXP DUP2 SLOAD DUP2 PUSH20 0xFFFFFFFFFFFFFFFFFFFFFFFFFFFFFFFFFFFFFFFF MUL NOT AND SWAP1 DUP4 PUSH20 0xFFFFFFFFFFFFFFFFFFFFFFFFFFFFFFFFFFFFFFFF AND MUL OR SWAP1 SSTORE POP DUP1 PUSH1 0x7 PUSH1 0x0 PUSH2 0x100 EXP DUP2 SLOAD DUP2 PUSH20 0xFFFFFFFFFFFFFFFFFFFFFFFFFFFFFFFFFFFFFFFF MUL NOT AND SWAP1 DUP4 PUSH20 0xFFFFFFFFFFFFFFFFFFFFFFFFFFFFFFFFFFFFFFFF AND MUL OR SWAP1 SSTORE POP PUSH3 0x218 ADDRESS PUSH11 0x1A784379D99DB42000000 PUSH3 0x2EF PUSH1 0x20 SHL PUSH1 0x20 SHR JUMP JUMPDEST PUSH1 0x40 MLOAD PUSH3 0x226 SWAP1 PUSH3 0x503 JUMP JUMPDEST PUSH1 0x40 MLOAD DUP1 SWAP2 SUB SWAP1 PUSH1 0x0 CREATE DUP1 ISZERO DUP1 ISZERO PUSH3 0x243 JUMPI RETURNDATASIZE PUSH1 0x0 DUP1 RETURNDATACOPY RETURNDATASIZE PUSH1 0x0 REVERT JUMPDEST POP PUSH1 0x8 PUSH1 0x0 PUSH2 0x100 EXP DUP2 SLOAD DUP2 PUSH20 0xFFFFFFFFFFFFFFFFFFFFFFFFFFFFFFFFFFFFFFFF MUL NOT AND SWAP1 DUP4 PUSH20 0xFFFFFFFFFFFFFFFFFFFFFFFFFFFFFFFFFFFFFFFF AND MUL OR SWAP1 SSTORE POP PUSH1 0x8 PUSH1 0x0 SWAP1 SLOAD SWAP1 PUSH2 0x100 EXP SWAP1 DIV PUSH20 0xFFFFFFFFFFFFFFFFFFFFFFFFFFFFFFFFFFFFFFFF AND PUSH1 0xA PUSH1 0x0 PUSH2 0x100 EXP DUP2 SLOAD DUP2 PUSH20 0xFFFFFFFFFFFFFFFFFFFFFFFFFFFFFFFFFFFFFFFF MUL NOT AND SWAP1 DUP4 PUSH20 0xFFFFFFFFFFFFFFFFFFFFFFFFFFFFFFFFFFFFFFFF AND MUL OR SWAP1 SSTORE POP POP POP PUSH3 0x78D JUMP JUMPDEST PUSH1 0x0 PUSH20 0xFFFFFFFFFFFFFFFFFFFFFFFFFFFFFFFFFFFFFFFF AND DUP3 PUSH20 0xFFFFFFFFFFFFFFFFFFFFFFFFFFFFFFFFFFFFFFFF AND EQ ISZERO PUSH3 0x362 JUMPI PUSH1 0x40 MLOAD PUSH32 0x8C379A000000000000000000000000000000000000000000000000000000000 DUP2 MSTORE PUSH1 0x4 ADD PUSH3 0x359 SWAP1 PUSH3 0x5C6 JUMP JUMPDEST PUSH1 0x40 MLOAD DUP1 SWAP2 SUB SWAP1 REVERT JUMPDEST PUSH3 0x376 PUSH1 0x0 DUP4 DUP4 PUSH3 0x468 PUSH1 0x20 SHL PUSH1 0x20 SHR JUMP JUMPDEST DUP1 PUSH1 0x2 PUSH1 0x0 DUP3 DUP3 SLOAD PUSH3 0x38A SWAP2 SWAP1 PUSH3 0x616 JUMP JUMPDEST SWAP3 POP POP DUP2 SWAP1 SSTORE POP DUP1 PUSH1 0x0 DUP1 DUP5 PUSH20 0xFFFFFFFFFFFFFFFFFFFFFFFFFFFFFFFFFFFFFFFF AND PUSH20 0xFFFFFFFFFFFFFFFFFFFFFFFFFFFFFFFFFFFFFFFF AND DUP2 MSTORE PUSH1 0x20 ADD SWAP1 DUP2 MSTORE PUSH1 0x20 ADD PUSH1 0x0 KECCAK256 PUSH1 0x0 DUP3 DUP3 SLOAD PUSH3 0x3E1 SWAP2 SWAP1 PUSH3 0x616 JUMP JUMPDEST SWAP3 POP POP DUP2 SWAP1 SSTORE POP DUP2 PUSH20 0xFFFFFFFFFFFFFFFFFFFFFFFFFFFFFFFFFFFFFFFF AND PUSH1 0x0 PUSH20 0xFFFFFFFFFFFFFFFFFFFFFFFFFFFFFFFFFFFFFFFF AND PUSH32 0xDDF252AD1BE2C89B69C2B068FC378DAA952BA7F163C4A11628F55A4DF523B3EF DUP4 PUSH1 0x40 MLOAD PUSH3 0x448 SWAP2 SWAP1 PUSH3 0x5E8 JUMP JUMPDEST PUSH1 0x40 MLOAD DUP1 SWAP2 SUB SWAP1 LOG3 PUSH3 0x464 PUSH1 0x0 DUP4 DUP4 PUSH3 0x46D PUSH1 0x20 SHL PUSH1 0x20 SHR JUMP JUMPDEST POP POP JUMP JUMPDEST POP POP POP JUMP JUMPDEST POP POP POP JUMP JUMPDEST DUP3 DUP1 SLOAD PUSH3 0x480 SWAP1 PUSH3 0x6B1 JUMP JUMPDEST SWAP1 PUSH1 0x0 MSTORE PUSH1 0x20 PUSH1 0x0 KECCAK256 SWAP1 PUSH1 0x1F ADD PUSH1 0x20 SWAP1 DIV DUP2 ADD SWAP3 DUP3 PUSH3 0x4A4 JUMPI PUSH1 0x0 DUP6 SSTORE PUSH3 0x4F0 JUMP JUMPDEST DUP3 PUSH1 0x1F LT PUSH3 0x4BF JUMPI DUP1 MLOAD PUSH1 0xFF NOT AND DUP4 DUP1 ADD OR DUP6 SSTORE PUSH3 0x4F0 JUMP JUMPDEST DUP3 DUP1 ADD PUSH1 0x1 ADD DUP6 SSTORE DUP3 ISZERO PUSH3 0x4F0 JUMPI SWAP2 DUP3 ADD JUMPDEST DUP3 DUP2 GT ISZERO PUSH3 0x4EF JUMPI DUP3 MLOAD DUP3 SSTORE SWAP2 PUSH1 0x20 ADD SWAP2 SWAP1 PUSH1 0x1 ADD SWAP1 PUSH3 0x4D2 JUMP JUMPDEST JUMPDEST POP SWAP1 POP PUSH3 0x4FF SWAP2 SWAP1 PUSH3 0x511 JUMP JUMPDEST POP SWAP1 JUMP JUMPDEST PUSH2 0x1C6C DUP1 PUSH3 0x60ED DUP4 CODECOPY ADD SWAP1 JUMP JUMPDEST JUMPDEST DUP1 DUP3 GT ISZERO PUSH3 0x52C JUMPI PUSH1 0x0 DUP2 PUSH1 0x0 SWAP1 SSTORE POP PUSH1 0x1 ADD PUSH3 0x512 JUMP JUMPDEST POP SWAP1 JUMP JUMPDEST PUSH1 0x0 DUP2 MLOAD SWAP1 POP PUSH3 0x541 DUP2 PUSH3 0x773 JUMP JUMPDEST SWAP3 SWAP2 POP POP JUMP JUMPDEST PUSH1 0x0 DUP1 PUSH1 0x40 DUP4 DUP6 SUB SLT ISZERO PUSH3 0x561 JUMPI PUSH3 0x560 PUSH3 0x745 JUMP JUMPDEST JUMPDEST PUSH1 0x0 PUSH3 0x571 DUP6 DUP3 DUP7 ADD PUSH3 0x530 JUMP JUMPDEST SWAP3 POP POP PUSH1 0x20 PUSH3 0x584 DUP6 DUP3 DUP7 ADD PUSH3 0x530 JUMP JUMPDEST SWAP2 POP POP SWAP3 POP SWAP3 SWAP1 POP JUMP JUMPDEST PUSH1 0x0 PUSH3 0x59D PUSH1 0x1F DUP4 PUSH3 0x605 JUMP JUMPDEST SWAP2 POP PUSH3 0x5AA DUP3 PUSH3 0x74A JUMP JUMPDEST PUSH1 0x20 DUP3 ADD SWAP1 POP SWAP2 SWAP1 POP JUMP JUMPDEST PUSH3 0x5C0 DUP2 PUSH3 0x6A7 JUMP JUMPDEST DUP3 MSTORE POP POP JUMP JUMPDEST PUSH1 0x0 PUSH1 0x20 DUP3 ADD SWAP1 POP DUP2 DUP2 SUB PUSH1 0x0 DUP4 ADD MSTORE PUSH3 0x5E1 DUP2 PUSH3 0x58E JUMP JUMPDEST SWAP1 POP SWAP2 SWAP1 POP JUMP JUMPDEST PUSH1 0x0 PUSH1 0x20 DUP3 ADD SWAP1 POP PUSH3 0x5FF PUSH1 0x0 DUP4 ADD DUP5 PUSH3 0x5B5 JUMP JUMPDEST SWAP3 SWAP2 POP POP JUMP JUMPDEST PUSH1 0x0 DUP3 DUP3 MSTORE PUSH1 0x20 DUP3 ADD SWAP1 POP SWAP3 SWAP2 POP POP JUMP JUMPDEST PUSH1 0x0 PUSH3 0x623 DUP3 PUSH3 0x6A7 JUMP JUMPDEST SWAP2 POP PUSH3 0x630 DUP4 PUSH3 0x6A7 JUMP JUMPDEST SWAP3 POP DUP3 PUSH32 0xFFFFFFFFFFFFFFFFFFFFFFFFFFFFFFFFFFFFFFFFFFFFFFFFFFFFFFFFFFFFFFFF SUB DUP3 GT ISZERO PUSH3 0x668 JUMPI PUSH3 0x667 PUSH3 0x6E7 JUMP JUMPDEST JUMPDEST DUP3 DUP3 ADD SWAP1 POP SWAP3 SWAP2 POP POP JUMP JUMPDEST PUSH1 0x0 PUSH3 0x680 DUP3 PUSH3 0x687 JUMP JUMPDEST SWAP1 POP SWAP2 SWAP1 POP JUMP JUMPDEST PUSH1 0x0 PUSH20 0xFFFFFFFFFFFFFFFFFFFFFFFFFFFFFFFFFFFFFFFF DUP3 AND SWAP1 POP SWAP2 SWAP1 POP JUMP JUMPDEST PUSH1 0x0 DUP2 SWAP1 POP SWAP2 SWAP1 POP JUMP JUMPDEST PUSH1 0x0 PUSH1 0x2 DUP3 DIV SWAP1 POP PUSH1 0x1 DUP3 AND DUP1 PUSH3 0x6CA JUMPI PUSH1 0x7F DUP3 AND SWAP2 POP JUMPDEST PUSH1 0x20 DUP3 LT DUP2 EQ ISZERO PUSH3 0x6E1 JUMPI PUSH3 0x6E0 PUSH3 0x716 JUMP JUMPDEST JUMPDEST POP SWAP2 SWAP1 POP JUMP JUMPDEST PUSH32 0x4E487B7100000000000000000000000000000000000000000000000000000000 PUSH1 0x0 MSTORE PUSH1 0x11 PUSH1 0x4 MSTORE PUSH1 0x24 PUSH1 0x0 REVERT JUMPDEST PUSH32 0x4E487B7100000000000000000000000000000000000000000000000000000000 PUSH1 0x0 MSTORE PUSH1 0x22 PUSH1 0x4 MSTORE PUSH1 0x24 PUSH1 0x0 REVERT JUMPDEST PUSH1 0x0 DUP1 REVERT JUMPDEST PUSH32 0x45524332303A206D696E7420746F20746865207A65726F206164647265737300 PUSH1 0x0 DUP3 ADD MSTORE POP JUMP JUMPDEST PUSH3 0x77E DUP2 PUSH3 0x673 JUMP JUMPDEST DUP2 EQ PUSH3 0x78A JUMPI PUSH1 0x0 DUP1 REVERT JUMPDEST POP JUMP JUMPDEST PUSH2 0x5950 DUP1 PUSH3 0x79D PUSH1 0x0 CODECOPY PUSH1 0x0 RETURN INVALID PUSH1 0x80 PUSH1 0x40 MSTORE CALLVALUE DUP1 ISZERO PUSH2 0x10 JUMPI PUSH1 0x0 DUP1 REVERT JUMPDEST POP PUSH1 0x4 CALLDATASIZE LT PUSH2 0x12C JUMPI PUSH1 0x0 CALLDATALOAD PUSH1 0xE0 SHR DUP1 PUSH4 0x70A08231 GT PUSH2 0xAD JUMPI DUP1 PUSH4 0xA457C2D7 GT PUSH2 0x71 JUMPI DUP1 PUSH4 0xA457C2D7 EQ PUSH2 0x2EB JUMPI DUP1 PUSH4 0xA8AA1B31 EQ PUSH2 0x31B JUMPI DUP1 PUSH4 0xA9059CBB EQ PUSH2 0x339 JUMPI DUP1 PUSH4 0xDD62ED3E EQ PUSH2 0x369 JUMPI DUP1 PUSH4 0xF2FDE38B EQ PUSH2 0x399 JUMPI PUSH2 0x12C JUMP JUMPDEST DUP1 PUSH4 0x70A08231 EQ PUSH2 0x26B JUMPI DUP1 PUSH4 0x715018A6 EQ PUSH2 0x29B JUMPI DUP1 PUSH4 0x8DA5CB5B EQ PUSH2 0x2A5 JUMPI DUP1 PUSH4 0x8F4ED333 EQ PUSH2 0x2C3 JUMPI DUP1 PUSH4 0x95D89B41 EQ PUSH2 0x2CD JUMPI PUSH2 0x12C JUMP JUMPDEST DUP1 PUSH4 0x313CE567 GT PUSH2 0xF4 JUMPI DUP1 PUSH4 0x313CE567 EQ PUSH2 0x1D7 JUMPI DUP1 PUSH4 0x3884D635 EQ PUSH2 0x1F5 JUMPI DUP1 PUSH4 0x39509351 EQ PUSH2 0x1FF JUMPI DUP1 PUSH4 0x3D483770 EQ PUSH2 0x22F JUMPI DUP1 PUSH4 0x419A893C EQ PUSH2 0x24D JUMPI PUSH2 0x12C JUMP JUMPDEST DUP1 PUSH4 0x6FDDE03 EQ PUSH2 0x131 JUMPI DUP1 PUSH4 0x95EA7B3 EQ PUSH2 0x14F JUMPI DUP1 PUSH4 0x1415A9C2 EQ PUSH2 0x17F JUMPI DUP1 PUSH4 0x18160DDD EQ PUSH2 0x189 JUMPI DUP1 PUSH4 0x23B872DD EQ PUSH2 0x1A7 JUMPI JUMPDEST PUSH1 0x0 DUP1 REVERT JUMPDEST PUSH2 0x139 PUSH2 0x3B5 JUMP JUMPDEST PUSH1 0x40 MLOAD PUSH2 0x146 SWAP2 SWAP1 PUSH2 0x1D90 JUMP JUMPDEST PUSH1 0x40 MLOAD DUP1 SWAP2 SUB SWAP1 RETURN JUMPDEST PUSH2 0x169 PUSH1 0x4 DUP1 CALLDATASIZE SUB DUP2 ADD SWAP1 PUSH2 0x164 SWAP2 SWAP1 PUSH2 0x1A07 JUMP JUMPDEST PUSH2 0x447 JUMP JUMPDEST PUSH1 0x40 MLOAD PUSH2 0x176 SWAP2 SWAP1 PUSH2 0x1D5A JUMP JUMPDEST PUSH1 0x40 MLOAD DUP1 SWAP2 SUB SWAP1 RETURN JUMPDEST PUSH2 0x187 PUSH2 0x46A JUMP JUMPDEST STOP JUMPDEST PUSH2 0x191 PUSH2 0x7AC JUMP JUMPDEST PUSH1 0x40 MLOAD PUSH2 0x19E SWAP2 SWAP1 PUSH2 0x1F12 JUMP JUMPDEST PUSH1 0x40 MLOAD DUP1 SWAP2 SUB SWAP1 RETURN JUMPDEST PUSH2 0x1C1 PUSH1 0x4 DUP1 CALLDATASIZE SUB DUP2 ADD SWAP1 PUSH2 0x1BC SWAP2 SWAP1 PUSH2 0x19B4 JUMP JUMPDEST PUSH2 0x7B6 JUMP JUMPDEST PUSH1 0x40 MLOAD PUSH2 0x1CE SWAP2 SWAP1 PUSH2 0x1D5A JUMP JUMPDEST PUSH1 0x40 MLOAD DUP1 SWAP2 SUB SWAP1 RETURN JUMPDEST PUSH2 0x1DF PUSH2 0x7E5 JUMP JUMPDEST PUSH1 0x40 MLOAD PUSH2 0x1EC SWAP2 SWAP1 PUSH2 0x1F2D JUMP JUMPDEST PUSH1 0x40 MLOAD DUP1 SWAP2 SUB SWAP1 RETURN JUMPDEST PUSH2 0x1FD PUSH2 0x7EE JUMP JUMPDEST STOP JUMPDEST PUSH2 0x219 PUSH1 0x4 DUP1 CALLDATASIZE SUB DUP2 ADD SWAP1 PUSH2 0x214 SWAP2 SWAP1 PUSH2 0x1A07 JUMP JUMPDEST PUSH2 0x9F9 JUMP JUMPDEST PUSH1 0x40 MLOAD PUSH2 0x226 SWAP2 SWAP1 PUSH2 0x1D5A JUMP JUMPDEST PUSH1 0x40 MLOAD DUP1 SWAP2 SUB SWAP1 RETURN JUMPDEST PUSH2 0x237 PUSH2 0xA30 JUMP JUMPDEST PUSH1 0x40 MLOAD PUSH2 0x244 SWAP2 SWAP1 PUSH2 0x1CC4 JUMP JUMPDEST PUSH1 0x40 MLOAD DUP1 SWAP2 SUB SWAP1 RETURN JUMPDEST PUSH2 0x255 PUSH2 0xA56 JUMP JUMPDEST PUSH1 0x40 MLOAD PUSH2 0x262 SWAP2 SWAP1 PUSH2 0x1CC4 JUMP JUMPDEST PUSH1 0x40 MLOAD DUP1 SWAP2 SUB SWAP1 RETURN JUMPDEST PUSH2 0x285 PUSH1 0x4 DUP1 CALLDATASIZE SUB DUP2 ADD SWAP1 PUSH2 0x280 SWAP2 SWAP1 PUSH2 0x191A JUMP JUMPDEST PUSH2 0xA7C JUMP JUMPDEST PUSH1 0x40 MLOAD PUSH2 0x292 SWAP2 SWAP1 PUSH2 0x1F12 JUMP JUMPDEST PUSH1 0x40 MLOAD DUP1 SWAP2 SUB SWAP1 RETURN JUMPDEST PUSH2 0x2A3 PUSH2 0xAC4 JUMP JUMPDEST STOP JUMPDEST PUSH2 0x2AD PUSH2 0xC15 JUMP JUMPDEST PUSH1 0x40 MLOAD PUSH2 0x2BA SWAP2 SWAP1 PUSH2 0x1CC4 JUMP JUMPDEST PUSH1 0x40 MLOAD DUP1 SWAP2 SUB SWAP1 RETURN JUMPDEST PUSH2 0x2CB PUSH2 0xC3F JUMP JUMPDEST STOP JUMPDEST PUSH2 0x2D5 PUSH2 0xE92 JUMP JUMPDEST PUSH1 0x40 MLOAD PUSH2 0x2E2 SWAP2 SWAP1 PUSH2 0x1D90 JUMP JUMPDEST PUSH1 0x40 MLOAD DUP1 SWAP2 SUB SWAP1 RETURN JUMPDEST PUSH2 0x305 PUSH1 0x4 DUP1 CALLDATASIZE SUB DUP2 ADD SWAP1 PUSH2 0x300 SWAP2 SWAP1 PUSH2 0x1A07 JUMP JUMPDEST PUSH2 0xF24 JUMP JUMPDEST PUSH1 0x40 MLOAD PUSH2 0x312 SWAP2 SWAP1 PUSH2 0x1D5A JUMP JUMPDEST PUSH1 0x40 MLOAD DUP1 SWAP2 SUB SWAP1 RETURN JUMPDEST PUSH2 0x323 PUSH2 0xF9B JUMP JUMPDEST PUSH1 0x40 MLOAD PUSH2 0x330 SWAP2 SWAP1 PUSH2 0x1CC4 JUMP JUMPDEST PUSH1 0x40 MLOAD DUP1 SWAP2 SUB SWAP1 RETURN JUMPDEST PUSH2 0x353 PUSH1 0x4 DUP1 CALLDATASIZE SUB DUP2 ADD SWAP1 PUSH2 0x34E SWAP2 SWAP1 PUSH2 0x1A07 JUMP JUMPDEST PUSH2 0xFC1 JUMP JUMPDEST PUSH1 0x40 MLOAD PUSH2 0x360 SWAP2 SWAP1 PUSH2 0x1D5A JUMP JUMPDEST PUSH1 0x40 MLOAD DUP1 SWAP2 SUB SWAP1 RETURN JUMPDEST PUSH2 0x383 PUSH1 0x4 DUP1 CALLDATASIZE SUB DUP2 ADD SWAP1 PUSH2 0x37E SWAP2 SWAP1 PUSH2 0x1974 JUMP JUMPDEST PUSH2 0xFE4 JUMP JUMPDEST PUSH1 0x40 MLOAD PUSH2 0x390 SWAP2 SWAP1 PUSH2 0x1F12 JUMP JUMPDEST PUSH1 0x40 MLOAD DUP1 SWAP2 SUB SWAP1 RETURN JUMPDEST PUSH2 0x3B3 PUSH1 0x4 DUP1 CALLDATASIZE SUB DUP2 ADD SWAP1 PUSH2 0x3AE SWAP2 SWAP1 PUSH2 0x191A JUMP JUMPDEST PUSH2 0x106B JUMP JUMPDEST STOP JUMPDEST PUSH1 0x60 PUSH1 0x3 DUP1 SLOAD PUSH2 0x3C4 SWAP1 PUSH2 0x2078 JUMP JUMPDEST DUP1 PUSH1 0x1F ADD PUSH1 0x20 DUP1 SWAP2 DIV MUL PUSH1 0x20 ADD PUSH1 0x40 MLOAD SWAP1 DUP2 ADD PUSH1 0x40 MSTORE DUP1 SWAP3 SWAP2 SWAP1 DUP2 DUP2 MSTORE PUSH1 0x20 ADD DUP3 DUP1 SLOAD PUSH2 0x3F0 SWAP1 PUSH2 0x2078 JUMP JUMPDEST DUP1 ISZERO PUSH2 0x43D JUMPI DUP1 PUSH1 0x1F LT PUSH2 0x412 JUMPI PUSH2 0x100 DUP1 DUP4 SLOAD DIV MUL DUP4 MSTORE SWAP2 PUSH1 0x20 ADD SWAP2 PUSH2 0x43D JUMP JUMPDEST DUP3 ADD SWAP2 SWAP1 PUSH1 0x0 MSTORE PUSH1 0x20 PUSH1 0x0 KECCAK256 SWAP1 JUMPDEST DUP2 SLOAD DUP2 MSTORE SWAP1 PUSH1 0x1 ADD SWAP1 PUSH1 0x20 ADD DUP1 DUP4 GT PUSH2 0x420 JUMPI DUP3 SWAP1 SUB PUSH1 0x1F AND DUP3 ADD SWAP2 JUMPDEST POP POP POP POP POP SWAP1 POP SWAP1 JUMP JUMPDEST PUSH1 0x0 DUP1 PUSH2 0x452 PUSH2 0x1107 JUMP JUMPDEST SWAP1 POP PUSH2 0x45F DUP2 DUP6 DUP6 PUSH2 0x110F JUMP JUMPDEST PUSH1 0x1 SWAP2 POP POP SWAP3 SWAP2 POP POP JUMP JUMPDEST CALLER PUSH20 0xFFFFFFFFFFFFFFFFFFFFFFFFFFFFFFFFFFFFFFFF AND PUSH1 0x5 PUSH1 0x0 SWAP1 SLOAD SWAP1 PUSH2 0x100 EXP SWAP1 DIV PUSH20 0xFFFFFFFFFFFFFFFFFFFFFFFFFFFFFFFFFFFFFFFF AND PUSH20 0xFFFFFFFFFFFFFFFFFFFFFFFFFFFFFFFFFFFFFFFF AND EQ PUSH2 0x4FA JUMPI PUSH1 0x40 MLOAD PUSH32 0x8C379A000000000000000000000000000000000000000000000000000000000 DUP2 MSTORE PUSH1 0x4 ADD PUSH2 0x4F1 SWAP1 PUSH2 0x1E72 JUMP JUMPDEST PUSH1 0x40 MLOAD DUP1 SWAP2 SUB SWAP1 REVERT JUMPDEST PUSH1 0x6 PUSH1 0x0 SWAP1 SLOAD SWAP1 PUSH2 0x100 EXP SWAP1 DIV PUSH20 0xFFFFFFFFFFFFFFFFFFFFFFFFFFFFFFFFFFFFFFFF AND PUSH20 0xFFFFFFFFFFFFFFFFFFFFFFFFFFFFFFFFFFFFFFFF AND PUSH4 0xC9C65396 ADDRESS PUSH1 0xA PUSH1 0x0 SWAP1 SLOAD SWAP1 PUSH2 0x100 EXP SWAP1 DIV PUSH20 0xFFFFFFFFFFFFFFFFFFFFFFFFFFFFFFFFFFFFFFFF AND PUSH1 0x40 MLOAD DUP4 PUSH4 0xFFFFFFFF AND PUSH1 0xE0 SHL DUP2 MSTORE PUSH1 0x4 ADD PUSH2 0x579 SWAP3 SWAP2 SWAP1 PUSH2 0x1CDF JUMP JUMPDEST PUSH1 0x20 PUSH1 0x40 MLOAD DUP1 DUP4 SUB DUP2 PUSH1 0x0 DUP8 DUP1 EXTCODESIZE ISZERO DUP1 ISZERO PUSH2 0x593 JUMPI PUSH1 0x0 DUP1 REVERT JUMPDEST POP GAS CALL ISZERO DUP1 ISZERO PUSH2 0x5A7 JUMPI RETURNDATASIZE PUSH1 0x0 DUP1 RETURNDATACOPY RETURNDATASIZE PUSH1 0x0 REVERT JUMPDEST POP POP POP POP PUSH1 0x40 MLOAD RETURNDATASIZE PUSH1 0x1F NOT PUSH1 0x1F DUP3 ADD AND DUP3 ADD DUP1 PUSH1 0x40 MSTORE POP DUP2 ADD SWAP1 PUSH2 0x5CB SWAP2 SWAP1 PUSH2 0x1947 JUMP JUMPDEST PUSH1 0xC PUSH1 0x0 PUSH2 0x100 EXP DUP2 SLOAD DUP2 PUSH20 0xFFFFFFFFFFFFFFFFFFFFFFFFFFFFFFFFFFFFFFFF MUL NOT AND SWAP1 DUP4 PUSH20 0xFFFFFFFFFFFFFFFFFFFFFFFFFFFFFFFFFFFFFFFF AND MUL OR SWAP1 SSTORE POP PUSH2 0x641 PUSH1 0xC PUSH1 0x0 SWAP1 SLOAD SWAP1 PUSH2 0x100 EXP SWAP1 DIV PUSH20 0xFFFFFFFFFFFFFFFFFFFFFFFFFFFFFFFFFFFFFFFF AND PUSH10 0x152D02C7E14AF6800000 PUSH2 0x12DA JUMP JUMPDEST PUSH1 0x8 PUSH1 0x0 SWAP1 SLOAD SWAP1 PUSH2 0x100 EXP SWAP1 DIV PUSH20 0xFFFFFFFFFFFFFFFFFFFFFFFFFFFFFFFFFFFFFFFF AND PUSH20 0xFFFFFFFFFFFFFFFFFFFFFFFFFFFFFFFFFFFFFFFF AND PUSH4 0x40C10F19 PUSH1 0xC PUSH1 0x0 SWAP1 SLOAD SWAP1 PUSH2 0x100 EXP SWAP1 DIV PUSH20 0xFFFFFFFFFFFFFFFFFFFFFFFFFFFFFFFFFFFFFFFF AND PUSH10 0x152D02C7E14AF6800000 PUSH1 0x40 MLOAD DUP4 PUSH4 0xFFFFFFFF AND PUSH1 0xE0 SHL DUP2 MSTORE PUSH1 0x4 ADD PUSH2 0x6CA SWAP3 SWAP2 SWAP1 PUSH2 0x1D08 JUMP JUMPDEST PUSH1 0x0 PUSH1 0x40 MLOAD DUP1 DUP4 SUB DUP2 PUSH1 0x0 DUP8 DUP1 EXTCODESIZE ISZERO DUP1 ISZERO PUSH2 0x6E4 JUMPI PUSH1 0x0 DUP1 REVERT JUMPDEST POP GAS CALL ISZERO DUP1 ISZERO PUSH2 0x6F8 JUMPI RETURNDATASIZE PUSH1 0x0 DUP1 RETURNDATACOPY RETURNDATASIZE PUSH1 0x0 REVERT JUMPDEST POP POP POP POP PUSH1 0xC PUSH1 0x0 SWAP1 SLOAD SWAP1 PUSH2 0x100 EXP SWAP1 DIV PUSH20 0xFFFFFFFFFFFFFFFFFFFFFFFFFFFFFFFFFFFFFFFF AND PUSH20 0xFFFFFFFFFFFFFFFFFFFFFFFFFFFFFFFFFFFFFFFF AND PUSH4 0x6A627842 ADDRESS PUSH1 0x40 MLOAD DUP3 PUSH4 0xFFFFFFFF AND PUSH1 0xE0 SHL DUP2 MSTORE PUSH1 0x4 ADD PUSH2 0x757 SWAP2 SWAP1 PUSH2 0x1CC4 JUMP JUMPDEST PUSH1 0x20 PUSH1 0x40 MLOAD DUP1 DUP4 SUB DUP2 PUSH1 0x0 DUP8 DUP1 EXTCODESIZE ISZERO DUP1 ISZERO PUSH2 0x771 JUMPI PUSH1 0x0 DUP1 REVERT JUMPDEST POP GAS CALL ISZERO DUP1 ISZERO PUSH2 0x785 JUMPI RETURNDATASIZE PUSH1 0x0 DUP1 RETURNDATACOPY RETURNDATASIZE PUSH1 0x0 REVERT JUMPDEST POP POP POP POP PUSH1 0x40 MLOAD RETURNDATASIZE PUSH1 0x1F NOT PUSH1 0x1F DUP3 ADD AND DUP3 ADD DUP1 PUSH1 0x40 MSTORE POP DUP2 ADD SWAP1 PUSH2 0x7A9 SWAP2 SWAP1 PUSH2 0x1A74 JUMP JUMPDEST POP JUMP JUMPDEST PUSH1 0x0 PUSH1 0x2 SLOAD SWAP1 POP SWAP1 JUMP JUMPDEST PUSH1 0x0 DUP1 PUSH2 0x7C1 PUSH2 0x1107 JUMP JUMPDEST SWAP1 POP PUSH2 0x7CE DUP6 DUP3 DUP6 PUSH2 0x143A JUMP JUMPDEST PUSH2 0x7D9 DUP6 DUP6 DUP6 PUSH2 0x14C6 JUMP JUMPDEST PUSH1 0x1 SWAP2 POP POP SWAP4 SWAP3 POP POP POP JUMP JUMPDEST PUSH1 0x0 PUSH1 0x12 SWAP1 POP SWAP1 JUMP JUMPDEST PUSH1 0x0 PUSH1 0x5 PUSH1 0x15 SWAP1 SLOAD SWAP1 PUSH2 0x100 EXP SWAP1 DIV PUSH1 0xFF AND ISZERO SWAP1 POP DUP1 DUP1 ISZERO PUSH2 0x822 JUMPI POP PUSH1 0x1 PUSH1 0x5 PUSH1 0x14 SWAP1 SLOAD SWAP1 PUSH2 0x100 EXP SWAP1 DIV PUSH1 0xFF AND PUSH1 0xFF AND LT JUMPDEST DUP1 PUSH2 0x851 JUMPI POP PUSH2 0x831 ADDRESS PUSH2 0x1747 JUMP JUMPDEST ISZERO DUP1 ISZERO PUSH2 0x850 JUMPI POP PUSH1 0x1 PUSH1 0x5 PUSH1 0x14 SWAP1 SLOAD SWAP1 PUSH2 0x100 EXP SWAP1 DIV PUSH1 0xFF AND PUSH1 0xFF AND EQ JUMPDEST JUMPDEST PUSH2 0x890 JUMPI PUSH1 0x40 MLOAD PUSH32 0x8C379A000000000000000000000000000000000000000000000000000000000 DUP2 MSTORE PUSH1 0x4 ADD PUSH2 0x887 SWAP1 PUSH2 0x1E52 JUMP JUMPDEST PUSH1 0x40 MLOAD DUP1 SWAP2 SUB SWAP1 REVERT JUMPDEST PUSH1 0x1 PUSH1 0x5 PUSH1 0x14 PUSH2 0x100 EXP DUP2 SLOAD DUP2 PUSH1 0xFF MUL NOT AND SWAP1 DUP4 PUSH1 0xFF AND MUL OR SWAP1 SSTORE POP DUP1 ISZERO PUSH2 0x8CE JUMPI PUSH1 0x1 PUSH1 0x5 PUSH1 0x15 PUSH2 0x100 EXP DUP2 SLOAD DUP2 PUSH1 0xFF MUL NOT AND SWAP1 DUP4 ISZERO ISZERO MUL OR SWAP1 SSTORE POP JUMPDEST PUSH2 0x8E2 CALLER PUSH10 0x152D02C7E14AF6800000 PUSH2 0x12DA JUMP JUMPDEST PUSH1 0xC PUSH1 0x0 SWAP1 SLOAD SWAP1 PUSH2 0x100 EXP SWAP1 DIV PUSH20 0xFFFFFFFFFFFFFFFFFFFFFFFFFFFFFFFFFFFFFFFF AND PUSH20 0xFFFFFFFFFFFFFFFFFFFFFFFFFFFFFFFFFFFFFFFF AND PUSH4 0xA9059CBB CALLER PUSH10 0x152D02C7E14AF67FFC18 PUSH1 0x40 MLOAD DUP4 PUSH4 0xFFFFFFFF AND PUSH1 0xE0 SHL DUP2 MSTORE PUSH1 0x4 ADD PUSH2 0x949 SWAP3 SWAP2 SWAP1 PUSH2 0x1D31 JUMP JUMPDEST PUSH1 0x20 PUSH1 0x40 MLOAD DUP1 DUP4 SUB DUP2 PUSH1 0x0 DUP8 DUP1 EXTCODESIZE ISZERO DUP1 ISZERO PUSH2 0x963 JUMPI PUSH1 0x0 DUP1 REVERT JUMPDEST POP GAS CALL ISZERO DUP1 ISZERO PUSH2 0x977 JUMPI RETURNDATASIZE PUSH1 0x0 DUP1 RETURNDATACOPY RETURNDATASIZE PUSH1 0x0 REVERT JUMPDEST POP POP POP POP PUSH1 0x40 MLOAD RETURNDATASIZE PUSH1 0x1F NOT PUSH1 0x1F DUP3 ADD AND DUP3 ADD DUP1 PUSH1 0x40 MSTORE POP DUP2 ADD SWAP1 PUSH2 0x99B SWAP2 SWAP1 PUSH2 0x1A47 JUMP JUMPDEST POP DUP1 ISZERO PUSH2 0x9F6 JUMPI PUSH1 0x0 PUSH1 0x5 PUSH1 0x15 PUSH2 0x100 EXP DUP2 SLOAD DUP2 PUSH1 0xFF MUL NOT AND SWAP1 DUP4 ISZERO ISZERO MUL OR SWAP1 SSTORE POP PUSH32 0x7F26B83FF96E1F2B6A682F133852F6798A09C465DA95921460CEFB3847402498 PUSH1 0x1 PUSH1 0x40 MLOAD PUSH2 0x9ED SWAP2 SWAP1 PUSH2 0x1D75 JUMP JUMPDEST PUSH1 0x40 MLOAD DUP1 SWAP2 SUB SWAP1 LOG1 JUMPDEST POP JUMP JUMPDEST PUSH1 0x0 DUP1 PUSH2 0xA04 PUSH2 0x1107 JUMP JUMPDEST SWAP1 POP PUSH2 0xA25 DUP2 DUP6 DUP6 PUSH2 0xA16 DUP6 DUP10 PUSH2 0xFE4 JUMP JUMPDEST PUSH2 0xA20 SWAP2 SWAP1 PUSH2 0x1F64 JUMP JUMPDEST PUSH2 0x110F JUMP JUMPDEST PUSH1 0x1 SWAP2 POP POP SWAP3 SWAP2 POP POP JUMP JUMPDEST PUSH1 0xA PUSH1 0x0 SWAP1 SLOAD SWAP1 PUSH2 0x100 EXP SWAP1 DIV PUSH20 0xFFFFFFFFFFFFFFFFFFFFFFFFFFFFFFFFFFFFFFFF AND DUP2 JUMP JUMPDEST PUSH1 0xB PUSH1 0x0 SWAP1 SLOAD SWAP1 PUSH2 0x100 EXP SWAP1 DIV PUSH20 0xFFFFFFFFFFFFFFFFFFFFFFFFFFFFFFFFFFFFFFFF AND DUP2 JUMP JUMPDEST PUSH1 0x0 DUP1 PUSH1 0x0 DUP4 PUSH20 0xFFFFFFFFFFFFFFFFFFFFFFFFFFFFFFFFFFFFFFFF AND PUSH20 0xFFFFFFFFFFFFFFFFFFFFFFFFFFFFFFFFFFFFFFFF AND DUP2 MSTORE PUSH1 0x20 ADD SWAP1 DUP2 MSTORE PUSH1 0x20 ADD PUSH1 0x0 KECCAK256 SLOAD SWAP1 POP SWAP2 SWAP1 POP JUMP JUMPDEST CALLER PUSH20 0xFFFFFFFFFFFFFFFFFFFFFFFFFFFFFFFFFFFFFFFF AND PUSH1 0x5 PUSH1 0x0 SWAP1 SLOAD SWAP1 PUSH2 0x100 EXP SWAP1 DIV PUSH20 0xFFFFFFFFFFFFFFFFFFFFFFFFFFFFFFFFFFFFFFFF AND PUSH20 0xFFFFFFFFFFFFFFFFFFFFFFFFFFFFFFFFFFFFFFFF AND EQ PUSH2 0xB54 JUMPI PUSH1 0x40 MLOAD PUSH32 0x8C379A000000000000000000000000000000000000000000000000000000000 DUP2 MSTORE PUSH1 0x4 ADD PUSH2 0xB4B SWAP1 PUSH2 0x1E72 JUMP JUMPDEST PUSH1 0x40 MLOAD DUP1 SWAP2 SUB SWAP1 REVERT JUMPDEST PUSH1 0x0 PUSH20 0xFFFFFFFFFFFFFFFFFFFFFFFFFFFFFFFFFFFFFFFF AND PUSH1 0x5 PUSH1 0x0 SWAP1 SLOAD SWAP1 PUSH2 0x100 EXP SWAP1 DIV PUSH20 0xFFFFFFFFFFFFFFFFFFFFFFFFFFFFFFFFFFFFFFFF AND PUSH20 0xFFFFFFFFFFFFFFFFFFFFFFFFFFFFFFFFFFFFFFFF AND PUSH32 0x8BE0079C531659141344CD1FD0A4F28419497F9722A3DAAFE3B4186F6B6457E0 PUSH1 0x40 MLOAD PUSH1 0x40 MLOAD DUP1 SWAP2 SUB SWAP1 LOG3 PUSH1 0x0 PUSH1 0x5 PUSH1 0x0 PUSH2 0x100 EXP DUP2 SLOAD DUP2 PUSH20 0xFFFFFFFFFFFFFFFFFFFFFFFFFFFFFFFFFFFFFFFF MUL NOT AND SWAP1 DUP4 PUSH20 0xFFFFFFFFFFFFFFFFFFFFFFFFFFFFFFFFFFFFFFFF AND MUL OR SWAP1 SSTORE POP JUMP JUMPDEST PUSH1 0x0 PUSH1 0x5 PUSH1 0x0 SWAP1 SLOAD SWAP1 PUSH2 0x100 EXP SWAP1 DIV PUSH20 0xFFFFFFFFFFFFFFFFFFFFFFFFFFFFFFFFFFFFFFFF AND SWAP1 POP SWAP1 JUMP JUMPDEST CALLER PUSH20 0xFFFFFFFFFFFFFFFFFFFFFFFFFFFFFFFFFFFFFFFF AND PUSH1 0x5 PUSH1 0x0 SWAP1 SLOAD SWAP1 PUSH2 0x100 EXP SWAP1 DIV PUSH20 0xFFFFFFFFFFFFFFFFFFFFFFFFFFFFFFFFFFFFFFFF AND PUSH20 0xFFFFFFFFFFFFFFFFFFFFFFFFFFFFFFFFFFFFFFFF AND EQ PUSH2 0xCCF JUMPI PUSH1 0x40 MLOAD PUSH32 0x8C379A000000000000000000000000000000000000000000000000000000000 DUP2 MSTORE PUSH1 0x4 ADD PUSH2 0xCC6 SWAP1 PUSH2 0x1E72 JUMP JUMPDEST PUSH1 0x40 MLOAD DUP1 SWAP2 SUB SWAP1 REVERT JUMPDEST PUSH1 0x40 MLOAD PUSH2 0xCDB SWAP1 PUSH2 0x18A4 JUMP JUMPDEST PUSH1 0x40 MLOAD DUP1 SWAP2 SUB SWAP1 PUSH1 0x0 CREATE DUP1 ISZERO DUP1 ISZERO PUSH2 0xCF7 JUMPI RETURNDATASIZE PUSH1 0x0 DUP1 RETURNDATACOPY RETURNDATASIZE PUSH1 0x0 REVERT JUMPDEST POP PUSH1 0x9 PUSH1 0x0 PUSH2 0x100 EXP DUP2 SLOAD DUP2 PUSH20 0xFFFFFFFFFFFFFFFFFFFFFFFFFFFFFFFFFFFFFFFF MUL NOT AND SWAP1 DUP4 PUSH20 0xFFFFFFFFFFFFFFFFFFFFFFFFFFFFFFFFFFFFFFFF AND MUL OR SWAP1 SSTORE POP PUSH1 0x9 PUSH1 0x0 SWAP1 SLOAD SWAP1 PUSH2 0x100 EXP SWAP1 DIV PUSH20 0xFFFFFFFFFFFFFFFFFFFFFFFFFFFFFFFFFFFFFFFF AND PUSH20 0xFFFFFFFFFFFFFFFFFFFFFFFFFFFFFFFFFFFFFFFF AND PUSH4 0xF8CCD674 PUSH1 0xC PUSH1 0x0 SWAP1 SLOAD SWAP1 PUSH2 0x100 EXP SWAP1 DIV PUSH20 0xFFFFFFFFFFFFFFFFFFFFFFFFFFFFFFFFFFFFFFFF AND ADDRESS PUSH1 0x40 MLOAD DUP4 PUSH4 0xFFFFFFFF AND PUSH1 0xE0 SHL DUP2 MSTORE PUSH1 0x4 ADD PUSH2 0xDB7 SWAP3 SWAP2 SWAP1 PUSH2 0x1CDF JUMP JUMPDEST PUSH1 0x0 PUSH1 0x40 MLOAD DUP1 DUP4 SUB DUP2 PUSH1 0x0 DUP8 DUP1 EXTCODESIZE ISZERO DUP1 ISZERO PUSH2 0xDD1 JUMPI PUSH1 0x0 DUP1 REVERT JUMPDEST POP GAS CALL ISZERO DUP1 ISZERO PUSH2 0xDE5 JUMPI RETURNDATASIZE PUSH1 0x0 DUP1 RETURNDATACOPY RETURNDATASIZE PUSH1 0x0 REVERT JUMPDEST POP POP POP POP PUSH1 0x9 PUSH1 0x0 SWAP1 SLOAD SWAP1 PUSH2 0x100 EXP SWAP1 DIV PUSH20 0xFFFFFFFFFFFFFFFFFFFFFFFFFFFFFFFFFFFFFFFF AND PUSH1 0xB PUSH1 0x0 PUSH2 0x100 EXP DUP2 SLOAD DUP2 PUSH20 0xFFFFFFFFFFFFFFFFFFFFFFFFFFFFFFFFFFFFFFFF MUL NOT AND SWAP1 DUP4 PUSH20 0xFFFFFFFFFFFFFFFFFFFFFFFFFFFFFFFFFFFFFFFF AND MUL OR SWAP1 SSTORE POP PUSH2 0xE90 ADDRESS PUSH1 0xB PUSH1 0x0 SWAP1 SLOAD SWAP1 PUSH2 0x100 EXP SWAP1 DIV PUSH20 0xFFFFFFFFFFFFFFFFFFFFFFFFFFFFFFFFFFFFFFFF AND PUSH23 0x10B46C6CDD6E3E0828F4DB456FF0C8E9FFFFFFFFFFFFF PUSH2 0x110F JUMP JUMPDEST JUMP JUMPDEST PUSH1 0x60 PUSH1 0x4 DUP1 SLOAD PUSH2 0xEA1 SWAP1 PUSH2 0x2078 JUMP JUMPDEST DUP1 PUSH1 0x1F ADD PUSH1 0x20 DUP1 SWAP2 DIV MUL PUSH1 0x20 ADD PUSH1 0x40 MLOAD SWAP1 DUP2 ADD PUSH1 0x40 MSTORE DUP1 SWAP3 SWAP2 SWAP1 DUP2 DUP2 MSTORE PUSH1 0x20 ADD DUP3 DUP1 SLOAD PUSH2 0xECD SWAP1 PUSH2 0x2078 JUMP JUMPDEST DUP1 ISZERO PUSH2 0xF1A JUMPI DUP1 PUSH1 0x1F LT PUSH2 0xEEF JUMPI PUSH2 0x100 DUP1 DUP4 SLOAD DIV MUL DUP4 MSTORE SWAP2 PUSH1 0x20 ADD SWAP2 PUSH2 0xF1A JUMP JUMPDEST DUP3 ADD SWAP2 SWAP1 PUSH1 0x0 MSTORE PUSH1 0x20 PUSH1 0x0 KECCAK256 SWAP1 JUMPDEST DUP2 SLOAD DUP2 MSTORE SWAP1 PUSH1 0x1 ADD SWAP1 PUSH1 0x20 ADD DUP1 DUP4 GT PUSH2 0xEFD JUMPI DUP3 SWAP1 SUB PUSH1 0x1F AND DUP3 ADD SWAP2 JUMPDEST POP POP POP POP POP SWAP1 POP SWAP1 JUMP JUMPDEST PUSH1 0x0 DUP1 PUSH2 0xF2F PUSH2 0x1107 JUMP JUMPDEST SWAP1 POP PUSH1 0x0 PUSH2 0xF3D DUP3 DUP7 PUSH2 0xFE4 JUMP JUMPDEST SWAP1 POP DUP4 DUP2 LT ISZERO PUSH2 0xF82 JUMPI PUSH1 0x40 MLOAD PUSH32 0x8C379A000000000000000000000000000000000000000000000000000000000 DUP2 MSTORE PUSH1 0x4 ADD PUSH2 0xF79 SWAP1 PUSH2 0x1ED2 JUMP JUMPDEST PUSH1 0x40 MLOAD DUP1 SWAP2 SUB SWAP1 REVERT JUMPDEST PUSH2 0xF8F DUP3 DUP7 DUP7 DUP5 SUB PUSH2 0x110F JUMP JUMPDEST PUSH1 0x1 SWAP3 POP POP POP SWAP3 SWAP2 POP POP JUMP JUMPDEST PUSH1 0xC PUSH1 0x0 SWAP1 SLOAD SWAP1 PUSH2 0x100 EXP SWAP1 DIV PUSH20 0xFFFFFFFFFFFFFFFFFFFFFFFFFFFFFFFFFFFFFFFF AND DUP2 JUMP JUMPDEST PUSH1 0x0 DUP1 PUSH2 0xFCC PUSH2 0x1107 JUMP JUMPDEST SWAP1 POP PUSH2 0xFD9 DUP2 DUP6 DUP6 PUSH2 0x14C6 JUMP JUMPDEST PUSH1 0x1 SWAP2 POP POP SWAP3 SWAP2 POP POP JUMP JUMPDEST PUSH1 0x0 PUSH1 0x1 PUSH1 0x0 DUP5 PUSH20 0xFFFFFFFFFFFFFFFFFFFFFFFFFFFFFFFFFFFFFFFF AND PUSH20 0xFFFFFFFFFFFFFFFFFFFFFFFFFFFFFFFFFFFFFFFF AND DUP2 MSTORE PUSH1 0x20 ADD SWAP1 DUP2 MSTORE PUSH1 0x20 ADD PUSH1 0x0 KECCAK256 PUSH1 0x0 DUP4 PUSH20 0xFFFFFFFFFFFFFFFFFFFFFFFFFFFFFFFFFFFFFFFF AND PUSH20 0xFFFFFFFFFFFFFFFFFFFFFFFFFFFFFFFFFFFFFFFF AND DUP2 MSTORE PUSH1 0x20 ADD SWAP1 DUP2 MSTORE PUSH1 0x20 ADD PUSH1 0x0 KECCAK256 SLOAD SWAP1 POP SWAP3 SWAP2 POP POP JUMP JUMPDEST CALLER PUSH20 0xFFFFFFFFFFFFFFFFFFFFFFFFFFFFFFFFFFFFFFFF AND PUSH1 0x5 PUSH1 0x0 SWAP1 SLOAD SWAP1 PUSH2 0x100 EXP SWAP1 DIV PUSH20 0xFFFFFFFFFFFFFFFFFFFFFFFFFFFFFFFFFFFFFFFF AND PUSH20 0xFFFFFFFFFFFFFFFFFFFFFFFFFFFFFFFFFFFFFFFF AND EQ PUSH2 0x10FB JUMPI PUSH1 0x40 MLOAD PUSH32 0x8C379A000000000000000000000000000000000000000000000000000000000 DUP2 MSTORE PUSH1 0x4 ADD PUSH2 0x10F2 SWAP1 PUSH2 0x1E72 JUMP JUMPDEST PUSH1 0x40 MLOAD DUP1 SWAP2 SUB SWAP1 REVERT JUMPDEST PUSH2 0x1104 DUP2 PUSH2 0x176A JUMP JUMPDEST POP JUMP JUMPDEST PUSH1 0x0 CALLER SWAP1 POP SWAP1 JUMP JUMPDEST PUSH1 0x0 PUSH20 0xFFFFFFFFFFFFFFFFFFFFFFFFFFFFFFFFFFFFFFFF AND DUP4 PUSH20 0xFFFFFFFFFFFFFFFFFFFFFFFFFFFFFFFFFFFFFFFF AND EQ ISZERO PUSH2 0x117F JUMPI PUSH1 0x40 MLOAD PUSH32 0x8C379A000000000000000000000000000000000000000000000000000000000 DUP2 MSTORE PUSH1 0x4 ADD PUSH2 0x1176 SWAP1 PUSH2 0x1EB2 JUMP JUMPDEST PUSH1 0x40 MLOAD DUP1 SWAP2 SUB SWAP1 REVERT JUMPDEST PUSH1 0x0 PUSH20 0xFFFFFFFFFFFFFFFFFFFFFFFFFFFFFFFFFFFFFFFF AND DUP3 PUSH20 0xFFFFFFFFFFFFFFFFFFFFFFFFFFFFFFFFFFFFFFFF AND EQ ISZERO PUSH2 0x11EF JUMPI PUSH1 0x40 MLOAD PUSH32 0x8C379A000000000000000000000000000000000000000000000000000000000 DUP2 MSTORE PUSH1 0x4 ADD PUSH2 0x11E6 SWAP1 PUSH2 0x1DF2 JUMP JUMPDEST PUSH1 0x40 MLOAD DUP1 SWAP2 SUB SWAP1 REVERT JUMPDEST DUP1 PUSH1 0x1 PUSH1 0x0 DUP6 PUSH20 0xFFFFFFFFFFFFFFFFFFFFFFFFFFFFFFFFFFFFFFFF AND PUSH20 0xFFFFFFFFFFFFFFFFFFFFFFFFFFFFFFFFFFFFFFFF AND DUP2 MSTORE PUSH1 0x20 ADD SWAP1 DUP2 MSTORE PUSH1 0x20 ADD PUSH1 0x0 KECCAK256 PUSH1 0x0 DUP5 PUSH20 0xFFFFFFFFFFFFFFFFFFFFFFFFFFFFFFFFFFFFFFFF AND PUSH20 0xFFFFFFFFFFFFFFFFFFFFFFFFFFFFFFFFFFFFFFFF AND DUP2 MSTORE PUSH1 0x20 ADD SWAP1 DUP2 MSTORE PUSH1 0x20 ADD PUSH1 0x0 KECCAK256 DUP2 SWAP1 SSTORE POP DUP2 PUSH20 0xFFFFFFFFFFFFFFFFFFFFFFFFFFFFFFFFFFFFFFFF AND DUP4 PUSH20 0xFFFFFFFFFFFFFFFFFFFFFFFFFFFFFFFFFFFFFFFF AND PUSH32 0x8C5BE1E5EBEC7D5BD14F71427D1E84F3DD0314C0F7B2291E5B200AC8C7C3B925 DUP4 PUSH1 0x40 MLOAD PUSH2 0x12CD SWAP2 SWAP1 PUSH2 0x1F12 JUMP JUMPDEST PUSH1 0x40 MLOAD DUP1 SWAP2 SUB SWAP1 LOG3 POP POP POP JUMP JUMPDEST PUSH1 0x0 PUSH20 0xFFFFFFFFFFFFFFFFFFFFFFFFFFFFFFFFFFFFFFFF AND DUP3 PUSH20 0xFFFFFFFFFFFFFFFFFFFFFFFFFFFFFFFFFFFFFFFF AND EQ ISZERO PUSH2 0x134A JUMPI PUSH1 0x40 MLOAD PUSH32 0x8C379A000000000000000000000000000000000000000000000000000000000 DUP2 MSTORE PUSH1 0x4 ADD PUSH2 0x1341 SWAP1 PUSH2 0x1EF2 JUMP JUMPDEST PUSH1 0x40 MLOAD DUP1 SWAP2 SUB SWAP1 REVERT JUMPDEST PUSH2 0x1356 PUSH1 0x0 DUP4 DUP4 PUSH2 0x189A JUMP JUMPDEST DUP1 PUSH1 0x2 PUSH1 0x0 DUP3 DUP3 SLOAD PUSH2 0x1368 SWAP2 SWAP1 PUSH2 0x1F64 JUMP JUMPDEST SWAP3 POP POP DUP2 SWAP1 SSTORE POP DUP1 PUSH1 0x0 DUP1 DUP5 PUSH20 0xFFFFFFFFFFFFFFFFFFFFFFFFFFFFFFFFFFFFFFFF AND PUSH20 0xFFFFFFFFFFFFFFFFFFFFFFFFFFFFFFFFFFFFFFFF AND DUP2 MSTORE PUSH1 0x20 ADD SWAP1 DUP2 MSTORE PUSH1 0x20 ADD PUSH1 0x0 KECCAK256 PUSH1 0x0 DUP3 DUP3 SLOAD PUSH2 0x13BD SWAP2 SWAP1 PUSH2 0x1F64 JUMP JUMPDEST SWAP3 POP POP DUP2 SWAP1 SSTORE POP DUP2 PUSH20 0xFFFFFFFFFFFFFFFFFFFFFFFFFFFFFFFFFFFFFFFF AND PUSH1 0x0 PUSH20 0xFFFFFFFFFFFFFFFFFFFFFFFFFFFFFFFFFFFFFFFF AND PUSH32 0xDDF252AD1BE2C89B69C2B068FC378DAA952BA7F163C4A11628F55A4DF523B3EF DUP4 PUSH1 0x40 MLOAD PUSH2 0x1422 SWAP2 SWAP1 PUSH2 0x1F12 JUMP JUMPDEST PUSH1 0x40 MLOAD DUP1 SWAP2 SUB SWAP1 LOG3 PUSH2 0x1436 PUSH1 0x0 DUP4 DUP4 PUSH2 0x189F JUMP JUMPDEST POP POP JUMP JUMPDEST PUSH1 0x0 PUSH2 0x1446 DUP5 DUP5 PUSH2 0xFE4 JUMP JUMPDEST SWAP1 POP PUSH32 0xFFFFFFFFFFFFFFFFFFFFFFFFFFFFFFFFFFFFFFFFFFFFFFFFFFFFFFFFFFFFFFFF DUP2 EQ PUSH2 0x14C0 JUMPI DUP2 DUP2 LT ISZERO PUSH2 0x14B2 JUMPI PUSH1 0x40 MLOAD PUSH32 0x8C379A000000000000000000000000000000000000000000000000000000000 DUP2 MSTORE PUSH1 0x4 ADD PUSH2 0x14A9 SWAP1 PUSH2 0x1E12 JUMP JUMPDEST PUSH1 0x40 MLOAD DUP1 SWAP2 SUB SWAP1 REVERT JUMPDEST PUSH2 0x14BF DUP5 DUP5 DUP5 DUP5 SUB PUSH2 0x110F JUMP JUMPDEST JUMPDEST POP POP POP POP JUMP JUMPDEST PUSH1 0x0 PUSH20 0xFFFFFFFFFFFFFFFFFFFFFFFFFFFFFFFFFFFFFFFF AND DUP4 PUSH20 0xFFFFFFFFFFFFFFFFFFFFFFFFFFFFFFFFFFFFFFFF AND EQ ISZERO PUSH2 0x1536 JUMPI PUSH1 0x40 MLOAD PUSH32 0x8C379A000000000000000000000000000000000000000000000000000000000 DUP2 MSTORE PUSH1 0x4 ADD PUSH2 0x152D SWAP1 PUSH2 0x1E92 JUMP JUMPDEST PUSH1 0x40 MLOAD DUP1 SWAP2 SUB SWAP1 REVERT JUMPDEST PUSH1 0x0 PUSH20 0xFFFFFFFFFFFFFFFFFFFFFFFFFFFFFFFFFFFFFFFF AND DUP3 PUSH20 0xFFFFFFFFFFFFFFFFFFFFFFFFFFFFFFFFFFFFFFFF AND EQ ISZERO PUSH2 0x15A6 JUMPI PUSH1 0x40 MLOAD PUSH32 0x8C379A000000000000000000000000000000000000000000000000000000000 DUP2 MSTORE PUSH1 0x4 ADD PUSH2 0x159D SWAP1 PUSH2 0x1DB2 JUMP JUMPDEST PUSH1 0x40 MLOAD DUP1 SWAP2 SUB SWAP1 REVERT JUMPDEST PUSH2 0x15B1 DUP4 DUP4 DUP4 PUSH2 0x189A JUMP JUMPDEST PUSH1 0x0 DUP1 PUSH1 0x0 DUP6 PUSH20 0xFFFFFFFFFFFFFFFFFFFFFFFFFFFFFFFFFFFFFFFF AND PUSH20 0xFFFFFFFFFFFFFFFFFFFFFFFFFFFFFFFFFFFFFFFF AND DUP2 MSTORE PUSH1 0x20 ADD SWAP1 DUP2 MSTORE PUSH1 0x20 ADD PUSH1 0x0 KECCAK256 SLOAD SWAP1 POP DUP2 DUP2 LT ISZERO PUSH2 0x1637 JUMPI PUSH1 0x40 MLOAD PUSH32 0x8C379A000000000000000000000000000000000000000000000000000000000 DUP2 MSTORE PUSH1 0x4 ADD PUSH2 0x162E SWAP1 PUSH2 0x1E32 JUMP JUMPDEST PUSH1 0x40 MLOAD DUP1 SWAP2 SUB SWAP1 REVERT JUMPDEST DUP2 DUP2 SUB PUSH1 0x0 DUP1 DUP7 PUSH20 0xFFFFFFFFFFFFFFFFFFFFFFFFFFFFFFFFFFFFFFFF AND PUSH20 0xFFFFFFFFFFFFFFFFFFFFFFFFFFFFFFFFFFFFFFFF AND DUP2 MSTORE PUSH1 0x20 ADD SWAP1 DUP2 MSTORE PUSH1 0x20 ADD PUSH1 0x0 KECCAK256 DUP2 SWAP1 SSTORE POP DUP2 PUSH1 0x0 DUP1 DUP6 PUSH20 0xFFFFFFFFFFFFFFFFFFFFFFFFFFFFFFFFFFFFFFFF AND PUSH20 0xFFFFFFFFFFFFFFFFFFFFFFFFFFFFFFFFFFFFFFFF AND DUP2 MSTORE PUSH1 0x20 ADD SWAP1 DUP2 MSTORE PUSH1 0x20 ADD PUSH1 0x0 KECCAK256 PUSH1 0x0 DUP3 DUP3 SLOAD PUSH2 0x16CA SWAP2 SWAP1 PUSH2 0x1F64 JUMP JUMPDEST SWAP3 POP POP DUP2 SWAP1 SSTORE POP DUP3 PUSH20 0xFFFFFFFFFFFFFFFFFFFFFFFFFFFFFFFFFFFFFFFF AND DUP5 PUSH20 0xFFFFFFFFFFFFFFFFFFFFFFFFFFFFFFFFFFFFFFFF AND PUSH32 0xDDF252AD1BE2C89B69C2B068FC378DAA952BA7F163C4A11628F55A4DF523B3EF DUP5 PUSH1 0x40 MLOAD PUSH2 0x172E SWAP2 SWAP1 PUSH2 0x1F12 JUMP JUMPDEST PUSH1 0x40 MLOAD DUP1 SWAP2 SUB SWAP1 LOG3 PUSH2 0x1741 DUP5 DUP5 DUP5 PUSH2 0x189F JUMP JUMPDEST POP POP POP POP JUMP JUMPDEST PUSH1 0x0 DUP1 DUP3 PUSH20 0xFFFFFFFFFFFFFFFFFFFFFFFFFFFFFFFFFFFFFFFF AND EXTCODESIZE GT SWAP1 POP SWAP2 SWAP1 POP JUMP JUMPDEST PUSH1 0x0 PUSH20 0xFFFFFFFFFFFFFFFFFFFFFFFFFFFFFFFFFFFFFFFF AND DUP2 PUSH20 0xFFFFFFFFFFFFFFFFFFFFFFFFFFFFFFFFFFFFFFFF AND EQ ISZERO PUSH2 0x17DA JUMPI PUSH1 0x40 MLOAD PUSH32 0x8C379A000000000000000000000000000000000000000000000000000000000 DUP2 MSTORE PUSH1 0x4 ADD PUSH2 0x17D1 SWAP1 PUSH2 0x1DD2 JUMP JUMPDEST PUSH1 0x40 MLOAD DUP1 SWAP2 SUB SWAP1 REVERT JUMPDEST DUP1 PUSH20 0xFFFFFFFFFFFFFFFFFFFFFFFFFFFFFFFFFFFFFFFF AND PUSH1 0x5 PUSH1 0x0 SWAP1 SLOAD SWAP1 PUSH2 0x100 EXP SWAP1 DIV PUSH20 0xFFFFFFFFFFFFFFFFFFFFFFFFFFFFFFFFFFFFFFFF AND PUSH20 0xFFFFFFFFFFFFFFFFFFFFFFFFFFFFFFFFFFFFFFFF AND PUSH32 0x8BE0079C531659141344CD1FD0A4F28419497F9722A3DAAFE3B4186F6B6457E0 PUSH1 0x40 MLOAD PUSH1 0x40 MLOAD DUP1 SWAP2 SUB SWAP1 LOG3 DUP1 PUSH1 0x5 PUSH1 0x0 PUSH2 0x100 EXP DUP2 SLOAD DUP2 PUSH20 0xFFFFFFFFFFFFFFFFFFFFFFFFFFFFFFFFFFFFFFFF MUL NOT AND SWAP1 DUP4 PUSH20 0xFFFFFFFFFFFFFFFFFFFFFFFFFFFFFFFFFFFFFFFF AND MUL OR SWAP1 SSTORE POP POP JUMP JUMPDEST POP POP POP JUMP JUMPDEST POP POP POP JUMP JUMPDEST PUSH2 0x34C4 DUP1 PUSH2 0x2457 DUP4 CODECOPY ADD SWAP1 JUMP JUMPDEST PUSH1 0x0 DUP2 CALLDATALOAD SWAP1 POP PUSH2 0x18C0 DUP2 PUSH2 0x2411 JUMP JUMPDEST SWAP3 SWAP2 POP POP JUMP JUMPDEST PUSH1 0x0 DUP2 MLOAD SWAP1 POP PUSH2 0x18D5 DUP2 PUSH2 0x2411 JUMP JUMPDEST SWAP3 SWAP2 POP POP JUMP JUMPDEST PUSH1 0x0 DUP2 MLOAD SWAP1 POP PUSH2 0x18EA DUP2 PUSH2 0x2428 JUMP JUMPDEST SWAP3 SWAP2 POP POP JUMP JUMPDEST PUSH1 0x0 DUP2 CALLDATALOAD SWAP1 POP PUSH2 0x18FF DUP2 PUSH2 0x243F JUMP JUMPDEST SWAP3 SWAP2 POP POP JUMP JUMPDEST PUSH1 0x0 DUP2 MLOAD SWAP1 POP PUSH2 0x1914 DUP2 PUSH2 0x243F JUMP JUMPDEST SWAP3 SWAP2 POP POP JUMP JUMPDEST PUSH1 0x0 PUSH1 0x20 DUP3 DUP5 SUB SLT ISZERO PUSH2 0x1930 JUMPI PUSH2 0x192F PUSH2 0x2108 JUMP JUMPDEST JUMPDEST PUSH1 0x0 PUSH2 0x193E DUP5 DUP3 DUP6 ADD PUSH2 0x18B1 JUMP JUMPDEST SWAP2 POP POP SWAP3 SWAP2 POP POP JUMP JUMPDEST PUSH1 0x0 PUSH1 0x20 DUP3 DUP5 SUB SLT ISZERO PUSH2 0x195D JUMPI PUSH2 0x195C PUSH2 0x2108 JUMP JUMPDEST JUMPDEST PUSH1 0x0 PUSH2 0x196B DUP5 DUP3 DUP6 ADD PUSH2 0x18C6 JUMP JUMPDEST SWAP2 POP POP SWAP3 SWAP2 POP POP JUMP JUMPDEST PUSH1 0x0 DUP1 PUSH1 0x40 DUP4 DUP6 SUB SLT ISZERO PUSH2 0x198B JUMPI PUSH2 0x198A PUSH2 0x2108 JUMP JUMPDEST JUMPDEST PUSH1 0x0 PUSH2 0x1999 DUP6 DUP3 DUP7 ADD PUSH2 0x18B1 JUMP JUMPDEST SWAP3 POP POP PUSH1 0x20 PUSH2 0x19AA DUP6 DUP3 DUP7 ADD PUSH2 0x18B1 JUMP JUMPDEST SWAP2 POP POP SWAP3 POP SWAP3 SWAP1 POP JUMP JUMPDEST PUSH1 0x0 DUP1 PUSH1 0x0 PUSH1 0x60 DUP5 DUP7 SUB SLT ISZERO PUSH2 0x19CD JUMPI PUSH2 0x19CC PUSH2 0x2108 JUMP JUMPDEST JUMPDEST PUSH1 0x0 PUSH2 0x19DB DUP7 DUP3 DUP8 ADD PUSH2 0x18B1 JUMP JUMPDEST SWAP4 POP POP PUSH1 0x20 PUSH2 0x19EC DUP7 DUP3 DUP8 ADD PUSH2 0x18B1 JUMP JUMPDEST SWAP3 POP POP PUSH1 0x40 PUSH2 0x19FD DUP7 DUP3 DUP8 ADD PUSH2 0x18F0 JUMP JUMPDEST SWAP2 POP POP SWAP3 POP SWAP3 POP SWAP3 JUMP JUMPDEST PUSH1 0x0 DUP1 PUSH1 0x40 DUP4 DUP6 SUB SLT ISZERO PUSH2 0x1A1E JUMPI PUSH2 0x1A1D PUSH2 0x2108 JUMP JUMPDEST JUMPDEST PUSH1 0x0 PUSH2 0x1A2C DUP6 DUP3 DUP7 ADD PUSH2 0x18B1 JUMP JUMPDEST SWAP3 POP POP PUSH1 0x20 PUSH2 0x1A3D DUP6 DUP3 DUP7 ADD PUSH2 0x18F0 JUMP JUMPDEST SWAP2 POP POP SWAP3 POP SWAP3 SWAP1 POP JUMP JUMPDEST PUSH1 0x0 PUSH1 0x20 DUP3 DUP5 SUB SLT ISZERO PUSH2 0x1A5D JUMPI PUSH2 0x1A5C PUSH2 0x2108 JUMP JUMPDEST JUMPDEST PUSH1 0x0 PUSH2 0x1A6B DUP5 DUP3 DUP6 ADD PUSH2 0x18DB JUMP JUMPDEST SWAP2 POP POP SWAP3 SWAP2 POP POP JUMP JUMPDEST PUSH1 0x0 PUSH1 0x20 DUP3 DUP5 SUB SLT ISZERO PUSH2 0x1A8A JUMPI PUSH2 0x1A89 PUSH2 0x2108 JUMP JUMPDEST JUMPDEST PUSH1 0x0 PUSH2 0x1A98 DUP5 DUP3 DUP6 ADD PUSH2 0x1905 JUMP JUMPDEST SWAP2 POP POP SWAP3 SWAP2 POP POP JUMP JUMPDEST PUSH2 0x1AAA DUP2 PUSH2 0x1FBA JUMP JUMPDEST DUP3 MSTORE POP POP JUMP JUMPDEST PUSH2 0x1AB9 DUP2 PUSH2 0x1FCC JUMP JUMPDEST DUP3 MSTORE POP POP JUMP JUMPDEST PUSH2 0x1AC8 DUP2 PUSH2 0x200F JUMP JUMPDEST DUP3 MSTORE POP POP JUMP JUMPDEST PUSH2 0x1AD7 DUP2 PUSH2 0x2021 JUMP JUMPDEST DUP3 MSTORE POP POP JUMP JUMPDEST PUSH2 0x1AE6 DUP2 PUSH2 0x2033 JUMP JUMPDEST DUP3 MSTORE POP POP JUMP JUMPDEST PUSH1 0x0 PUSH2 0x1AF7 DUP3 PUSH2 0x1F48 JUMP JUMPDEST PUSH2 0x1B01 DUP2 DUP6 PUSH2 0x1F53 JUMP JUMPDEST SWAP4 POP PUSH2 0x1B11 DUP2 DUP6 PUSH1 0x20 DUP7 ADD PUSH2 0x2045 JUMP JUMPDEST PUSH2 0x1B1A DUP2 PUSH2 0x210D JUMP JUMPDEST DUP5 ADD SWAP2 POP POP SWAP3 SWAP2 POP POP JUMP JUMPDEST PUSH1 0x0 PUSH2 0x1B32 PUSH1 0x23 DUP4 PUSH2 0x1F53 JUMP JUMPDEST SWAP2 POP PUSH2 0x1B3D DUP3 PUSH2 0x211E JUMP JUMPDEST PUSH1 0x40 DUP3 ADD SWAP1 POP SWAP2 SWAP1 POP JUMP JUMPDEST PUSH1 0x0 PUSH2 0x1B55 PUSH1 0x26 DUP4 PUSH2 0x1F53 JUMP JUMPDEST SWAP2 POP PUSH2 0x1B60 DUP3 PUSH2 0x216D JUMP JUMPDEST PUSH1 0x40 DUP3 ADD SWAP1 POP SWAP2 SWAP1 POP JUMP JUMPDEST PUSH1 0x0 PUSH2 0x1B78 PUSH1 0x22 DUP4 PUSH2 0x1F53 JUMP JUMPDEST SWAP2 POP PUSH2 0x1B83 DUP3 PUSH2 0x21BC JUMP JUMPDEST PUSH1 0x40 DUP3 ADD SWAP1 POP SWAP2 SWAP1 POP JUMP JUMPDEST PUSH1 0x0 PUSH2 0x1B9B PUSH1 0x1D DUP4 PUSH2 0x1F53 JUMP JUMPDEST SWAP2 POP PUSH2 0x1BA6 DUP3 PUSH2 0x220B JUMP JUMPDEST PUSH1 0x20 DUP3 ADD SWAP1 POP SWAP2 SWAP1 POP JUMP JUMPDEST PUSH1 0x0 PUSH2 0x1BBE PUSH1 0x26 DUP4 PUSH2 0x1F53 JUMP JUMPDEST SWAP2 POP PUSH2 0x1BC9 DUP3 PUSH2 0x2234 JUMP JUMPDEST PUSH1 0x40 DUP3 ADD SWAP1 POP SWAP2 SWAP1 POP JUMP JUMPDEST PUSH1 0x0 PUSH2 0x1BE1 PUSH1 0x2E DUP4 PUSH2 0x1F53 JUMP JUMPDEST SWAP2 POP PUSH2 0x1BEC DUP3 PUSH2 0x2283 JUMP JUMPDEST PUSH1 0x40 DUP3 ADD SWAP1 POP SWAP2 SWAP1 POP JUMP JUMPDEST PUSH1 0x0 PUSH2 0x1C04 PUSH1 0x20 DUP4 PUSH2 0x1F53 JUMP JUMPDEST SWAP2 POP PUSH2 0x1C0F DUP3 PUSH2 0x22D2 JUMP JUMPDEST PUSH1 0x20 DUP3 ADD SWAP1 POP SWAP2 SWAP1 POP JUMP JUMPDEST PUSH1 0x0 PUSH2 0x1C27 PUSH1 0x25 DUP4 PUSH2 0x1F53 JUMP JUMPDEST SWAP2 POP PUSH2 0x1C32 DUP3 PUSH2 0x22FB JUMP JUMPDEST PUSH1 0x40 DUP3 ADD SWAP1 POP SWAP2 SWAP1 POP JUMP JUMPDEST PUSH1 0x0 PUSH2 0x1C4A PUSH1 0x24 DUP4 PUSH2 0x1F53 JUMP JUMPDEST SWAP2 POP PUSH2 0x1C55 DUP3 PUSH2 0x234A JUMP JUMPDEST PUSH1 0x40 DUP3 ADD SWAP1 POP SWAP2 SWAP1 POP JUMP JUMPDEST PUSH1 0x0 PUSH2 0x1C6D PUSH1 0x25 DUP4 PUSH2 0x1F53 JUMP JUMPDEST SWAP2 POP PUSH2 0x1C78 DUP3 PUSH2 0x2399 JUMP JUMPDEST PUSH1 0x40 DUP3 ADD SWAP1 POP SWAP2 SWAP1 POP JUMP JUMPDEST PUSH1 0x0 PUSH2 0x1C90 PUSH1 0x1F DUP4 PUSH2 0x1F53 JUMP JUMPDEST SWAP2 POP PUSH2 0x1C9B DUP3 PUSH2 0x23E8 JUMP JUMPDEST PUSH1 0x20 DUP3 ADD SWAP1 POP SWAP2 SWAP1 POP JUMP JUMPDEST PUSH2 0x1CAF DUP2 PUSH2 0x1FF8 JUMP JUMPDEST DUP3 MSTORE POP POP JUMP JUMPDEST PUSH2 0x1CBE DUP2 PUSH2 0x2002 JUMP JUMPDEST DUP3 MSTORE POP POP JUMP JUMPDEST PUSH1 0x0 PUSH1 0x20 DUP3 ADD SWAP1 POP PUSH2 0x1CD9 PUSH1 0x0 DUP4 ADD DUP5 PUSH2 0x1AA1 JUMP JUMPDEST SWAP3 SWAP2 POP POP JUMP JUMPDEST PUSH1 0x0 PUSH1 0x40 DUP3 ADD SWAP1 POP PUSH2 0x1CF4 PUSH1 0x0 DUP4 ADD DUP6 PUSH2 0x1AA1 JUMP JUMPDEST PUSH2 0x1D01 PUSH1 0x20 DUP4 ADD DUP5 PUSH2 0x1AA1 JUMP JUMPDEST SWAP4 SWAP3 POP POP POP JUMP JUMPDEST PUSH1 0x0 PUSH1 0x40 DUP3 ADD SWAP1 POP PUSH2 0x1D1D PUSH1 0x0 DUP4 ADD DUP6 PUSH2 0x1AA1 JUMP JUMPDEST PUSH2 0x1D2A PUSH1 0x20 DUP4 ADD DUP5 PUSH2 0x1ABF JUMP JUMPDEST SWAP4 SWAP3 POP POP POP JUMP JUMPDEST PUSH1 0x0 PUSH1 0x40 DUP3 ADD SWAP1 POP PUSH2 0x1D46 PUSH1 0x0 DUP4 ADD DUP6 PUSH2 0x1AA1 JUMP JUMPDEST PUSH2 0x1D53 PUSH1 0x20 DUP4 ADD DUP5 PUSH2 0x1ADD JUMP JUMPDEST SWAP4 SWAP3 POP POP POP JUMP JUMPDEST PUSH1 0x0 PUSH1 0x20 DUP3 ADD SWAP1 POP PUSH2 0x1D6F PUSH1 0x0 DUP4 ADD DUP5 PUSH2 0x1AB0 JUMP JUMPDEST SWAP3 SWAP2 POP POP JUMP JUMPDEST PUSH1 0x0 PUSH1 0x20 DUP3 ADD SWAP1 POP PUSH2 0x1D8A PUSH1 0x0 DUP4 ADD DUP5 PUSH2 0x1ACE JUMP JUMPDEST SWAP3 SWAP2 POP POP JUMP JUMPDEST PUSH1 0x0 PUSH1 0x20 DUP3 ADD SWAP1 POP DUP2 DUP2 SUB PUSH1 0x0 DUP4 ADD MSTORE PUSH2 0x1DAA DUP2 DUP5 PUSH2 0x1AEC JUMP JUMPDEST SWAP1 POP SWAP3 SWAP2 POP POP JUMP JUMPDEST PUSH1 0x0 PUSH1 0x20 DUP3 ADD SWAP1 POP DUP2 DUP2 SUB PUSH1 0x0 DUP4 ADD MSTORE PUSH2 0x1DCB DUP2 PUSH2 0x1B25 JUMP JUMPDEST SWAP1 POP SWAP2 SWAP1 POP JUMP JUMPDEST PUSH1 0x0 PUSH1 0x20 DUP3 ADD SWAP1 POP DUP2 DUP2 SUB PUSH1 0x0 DUP4 ADD MSTORE PUSH2 0x1DEB DUP2 PUSH2 0x1B48 JUMP JUMPDEST SWAP1 POP SWAP2 SWAP1 POP JUMP JUMPDEST PUSH1 0x0 PUSH1 0x20 DUP3 ADD SWAP1 POP DUP2 DUP2 SUB PUSH1 0x0 DUP4 ADD MSTORE PUSH2 0x1E0B DUP2 PUSH2 0x1B6B JUMP JUMPDEST SWAP1 POP SWAP2 SWAP1 POP JUMP JUMPDEST PUSH1 0x0 PUSH1 0x20 DUP3 ADD SWAP1 POP DUP2 DUP2 SUB PUSH1 0x0 DUP4 ADD MSTORE PUSH2 0x1E2B DUP2 PUSH2 0x1B8E JUMP JUMPDEST SWAP1 POP SWAP2 SWAP1 POP JUMP JUMPDEST PUSH1 0x0 PUSH1 0x20 DUP3 ADD SWAP1 POP DUP2 DUP2 SUB PUSH1 0x0 DUP4 ADD MSTORE PUSH2 0x1E4B DUP2 PUSH2 0x1BB1 JUMP JUMPDEST SWAP1 POP SWAP2 SWAP1 POP JUMP JUMPDEST PUSH1 0x0 PUSH1 0x20 DUP3 ADD SWAP1 POP DUP2 DUP2 SUB PUSH1 0x0 DUP4 ADD MSTORE PUSH2 0x1E6B DUP2 PUSH2 0x1BD4 JUMP JUMPDEST SWAP1 POP SWAP2 SWAP1 POP JUMP JUMPDEST PUSH1 0x0 PUSH1 0x20 DUP3 ADD SWAP1 POP DUP2 DUP2 SUB PUSH1 0x0 DUP4 ADD MSTORE PUSH2 0x1E8B DUP2 PUSH2 0x1BF7 JUMP JUMPDEST SWAP1 POP SWAP2 SWAP1 POP JUMP JUMPDEST PUSH1 0x0 PUSH1 0x20 DUP3 ADD SWAP1 POP DUP2 DUP2 SUB PUSH1 0x0 DUP4 ADD MSTORE PUSH2 0x1EAB DUP2 PUSH2 0x1C1A JUMP JUMPDEST SWAP1 POP SWAP2 SWAP1 POP JUMP JUMPDEST PUSH1 0x0 PUSH1 0x20 DUP3 ADD SWAP1 POP DUP2 DUP2 SUB PUSH1 0x0 DUP4 ADD MSTORE PUSH2 0x1ECB DUP2 PUSH2 0x1C3D JUMP JUMPDEST SWAP1 POP SWAP2 SWAP1 POP JUMP JUMPDEST PUSH1 0x0 PUSH1 0x20 DUP3 ADD SWAP1 POP DUP2 DUP2 SUB PUSH1 0x0 DUP4 ADD MSTORE PUSH2 0x1EEB DUP2 PUSH2 0x1C60 JUMP JUMPDEST SWAP1 POP SWAP2 SWAP1 POP JUMP JUMPDEST PUSH1 0x0 PUSH1 0x20 DUP3 ADD SWAP1 POP DUP2 DUP2 SUB PUSH1 0x0 DUP4 ADD MSTORE PUSH2 0x1F0B DUP2 PUSH2 0x1C83 JUMP JUMPDEST SWAP1 POP SWAP2 SWAP1 POP JUMP JUMPDEST PUSH1 0x0 PUSH1 0x20 DUP3 ADD SWAP1 POP PUSH2 0x1F27 PUSH1 0x0 DUP4 ADD DUP5 PUSH2 0x1CA6 JUMP JUMPDEST SWAP3 SWAP2 POP POP JUMP JUMPDEST PUSH1 0x0 PUSH1 0x20 DUP3 ADD SWAP1 POP PUSH2 0x1F42 PUSH1 0x0 DUP4 ADD DUP5 PUSH2 0x1CB5 JUMP JUMPDEST SWAP3 SWAP2 POP POP JUMP JUMPDEST PUSH1 0x0 DUP2 MLOAD SWAP1 POP SWAP2 SWAP1 POP JUMP JUMPDEST PUSH1 0x0 DUP3 DUP3 MSTORE PUSH1 0x20 DUP3 ADD SWAP1 POP SWAP3 SWAP2 POP POP JUMP JUMPDEST PUSH1 0x0 PUSH2 0x1F6F DUP3 PUSH2 0x1FF8 JUMP JUMPDEST SWAP2 POP PUSH2 0x1F7A DUP4 PUSH2 0x1FF8 JUMP JUMPDEST SWAP3 POP DUP3 PUSH32 0xFFFFFFFFFFFFFFFFFFFFFFFFFFFFFFFFFFFFFFFFFFFFFFFFFFFFFFFFFFFFFFFF SUB DUP3 GT ISZERO PUSH2 0x1FAF JUMPI PUSH2 0x1FAE PUSH2 0x20AA JUMP JUMPDEST JUMPDEST DUP3 DUP3 ADD SWAP1 POP SWAP3 SWAP2 POP POP JUMP JUMPDEST PUSH1 0x0 PUSH2 0x1FC5 DUP3 PUSH2 0x1FD8 JUMP JUMPDEST SWAP1 POP SWAP2 SWAP1 POP JUMP JUMPDEST PUSH1 0x0 DUP2 ISZERO ISZERO SWAP1 POP SWAP2 SWAP1 POP JUMP JUMPDEST PUSH1 0x0 PUSH20 0xFFFFFFFFFFFFFFFFFFFFFFFFFFFFFFFFFFFFFFFF DUP3 AND SWAP1 POP SWAP2 SWAP1 POP JUMP JUMPDEST PUSH1 0x0 DUP2 SWAP1 POP SWAP2 SWAP1 POP JUMP JUMPDEST PUSH1 0x0 PUSH1 0xFF DUP3 AND SWAP1 POP SWAP2 SWAP1 POP JUMP JUMPDEST PUSH1 0x0 PUSH2 0x201A DUP3 PUSH2 0x1FF8 JUMP JUMPDEST SWAP1 POP SWAP2 SWAP1 POP JUMP JUMPDEST PUSH1 0x0 PUSH2 0x202C DUP3 PUSH2 0x2002 JUMP JUMPDEST SWAP1 POP SWAP2 SWAP1 POP JUMP JUMPDEST PUSH1 0x0 PUSH2 0x203E DUP3 PUSH2 0x1FF8 JUMP JUMPDEST SWAP1 POP SWAP2 SWAP1 POP JUMP JUMPDEST PUSH1 0x0 JUMPDEST DUP4 DUP2 LT ISZERO PUSH2 0x2063 JUMPI DUP1 DUP3 ADD MLOAD DUP2 DUP5 ADD MSTORE PUSH1 0x20 DUP2 ADD SWAP1 POP PUSH2 0x2048 JUMP JUMPDEST DUP4 DUP2 GT ISZERO PUSH2 0x2072 JUMPI PUSH1 0x0 DUP5 DUP5 ADD MSTORE JUMPDEST POP POP POP POP JUMP JUMPDEST PUSH1 0x0 PUSH1 0x2 DUP3 DIV SWAP1 POP PUSH1 0x1 DUP3 AND DUP1 PUSH2 0x2090 JUMPI PUSH1 0x7F DUP3 AND SWAP2 POP JUMPDEST PUSH1 0x20 DUP3 LT DUP2 EQ ISZERO PUSH2 0x20A4 JUMPI PUSH2 0x20A3 PUSH2 0x20D9 JUMP JUMPDEST JUMPDEST POP SWAP2 SWAP1 POP JUMP JUMPDEST PUSH32 0x4E487B7100000000000000000000000000000000000000000000000000000000 PUSH1 0x0 MSTORE PUSH1 0x11 PUSH1 0x4 MSTORE PUSH1 0x24 PUSH1 0x0 REVERT JUMPDEST PUSH32 0x4E487B7100000000000000000000000000000000000000000000000000000000 PUSH1 0x0 MSTORE PUSH1 0x22 PUSH1 0x4 MSTORE PUSH1 0x24 PUSH1 0x0 REVERT JUMPDEST PUSH1 0x0 DUP1 REVERT JUMPDEST PUSH1 0x0 PUSH1 0x1F NOT PUSH1 0x1F DUP4 ADD AND SWAP1 POP SWAP2 SWAP1 POP JUMP JUMPDEST PUSH32 0x45524332303A207472616E7366657220746F20746865207A65726F2061646472 PUSH1 0x0 DUP3 ADD MSTORE PUSH32 0x6573730000000000000000000000000000000000000000000000000000000000 PUSH1 0x20 DUP3 ADD MSTORE POP JUMP JUMPDEST PUSH32 0x4F776E61626C653A206E6577206F776E657220697320746865207A65726F2061 PUSH1 0x0 DUP3 ADD MSTORE PUSH32 0x6464726573730000000000000000000000000000000000000000000000000000 PUSH1 0x20 DUP3 ADD MSTORE POP JUMP JUMPDEST PUSH32 0x45524332303A20617070726F766520746F20746865207A65726F206164647265 PUSH1 0x0 DUP3 ADD MSTORE PUSH32 0x7373000000000000000000000000000000000000000000000000000000000000 PUSH1 0x20 DUP3 ADD MSTORE POP JUMP JUMPDEST PUSH32 0x45524332303A20696E73756666696369656E7420616C6C6F77616E6365000000 PUSH1 0x0 DUP3 ADD MSTORE POP JUMP JUMPDEST PUSH32 0x45524332303A207472616E7366657220616D6F756E7420657863656564732062 PUSH1 0x0 DUP3 ADD MSTORE PUSH32 0x616C616E63650000000000000000000000000000000000000000000000000000 PUSH1 0x20 DUP3 ADD MSTORE POP JUMP JUMPDEST PUSH32 0x496E697469616C697A61626C653A20636F6E747261637420697320616C726561 PUSH1 0x0 DUP3 ADD MSTORE PUSH32 0x647920696E697469616C697A6564000000000000000000000000000000000000 PUSH1 0x20 DUP3 ADD MSTORE POP JUMP JUMPDEST PUSH32 0x4F776E61626C653A2063616C6C6572206973206E6F7420746865206F776E6572 PUSH1 0x0 DUP3 ADD MSTORE POP JUMP JUMPDEST PUSH32 0x45524332303A207472616E736665722066726F6D20746865207A65726F206164 PUSH1 0x0 DUP3 ADD MSTORE PUSH32 0x6472657373000000000000000000000000000000000000000000000000000000 PUSH1 0x20 DUP3 ADD MSTORE POP JUMP JUMPDEST PUSH32 0x45524332303A20617070726F76652066726F6D20746865207A65726F20616464 PUSH1 0x0 DUP3 ADD MSTORE PUSH32 0x7265737300000000000000000000000000000000000000000000000000000000 PUSH1 0x20 DUP3 ADD MSTORE POP JUMP JUMPDEST PUSH32 0x45524332303A2064656372656173656420616C6C6F77616E63652062656C6F77 PUSH1 0x0 DUP3 ADD MSTORE PUSH32 0x207A65726F000000000000000000000000000000000000000000000000000000 PUSH1 0x20 DUP3 ADD MSTORE POP JUMP JUMPDEST PUSH32 0x45524332303A206D696E7420746F20746865207A65726F206164647265737300 PUSH1 0x0 DUP3 ADD MSTORE POP JUMP JUMPDEST PUSH2 0x241A DUP2 PUSH2 0x1FBA JUMP JUMPDEST DUP2 EQ PUSH2 0x2425 JUMPI PUSH1 0x0 DUP1 REVERT JUMPDEST POP JUMP JUMPDEST PUSH2 0x2431 DUP2 PUSH2 0x1FCC JUMP JUMPDEST DUP2 EQ PUSH2 0x243C JUMPI PUSH1 0x0 DUP1 REVERT JUMPDEST POP JUMP JUMPDEST PUSH2 0x2448 DUP2 PUSH2 0x1FF8 JUMP JUMPDEST DUP2 EQ PUSH2 0x2453 JUMPI PUSH1 0x0 DUP1 REVERT JUMPDEST POP JUMP INVALID PUSH1 0x80 PUSH1 0x40 MSTORE PUSH3 0x493E0 PUSH1 0xB SSTORE PUSH6 0x16BCC41E9000 PUSH1 0xC SSTORE PUSH4 0x1C9C380 PUSH1 0xD SSTORE PUSH2 0x61A8 PUSH1 0xE SSTORE PUSH5 0xE8D4A51000 PUSH1 0xF SSTORE PUSH9 0x56BC75E2D63100000 PUSH1 0x10 SSTORE PUSH7 0x2386F26FC10000 PUSH1 0x11 SSTORE PUSH3 0x15180 PUSH1 0x12 SSTORE PUSH1 0x5A PUSH1 0x13 SSTORE CALLVALUE DUP1 ISZERO PUSH2 0x5C JUMPI PUSH1 0x0 DUP1 REVERT JUMPDEST POP PUSH1 0x0 CALLER SWAP1 POP DUP1 PUSH1 0x0 DUP1 PUSH2 0x100 EXP DUP2 SLOAD DUP2 PUSH20 0xFFFFFFFFFFFFFFFFFFFFFFFFFFFFFFFFFFFFFFFF MUL NOT AND SWAP1 DUP4 PUSH20 0xFFFFFFFFFFFFFFFFFFFFFFFFFFFFFFFFFFFFFFFF AND MUL OR SWAP1 SSTORE POP DUP1 PUSH20 0xFFFFFFFFFFFFFFFFFFFFFFFFFFFFFFFFFFFFFFFF AND PUSH1 0x0 PUSH20 0xFFFFFFFFFFFFFFFFFFFFFFFFFFFFFFFFFFFFFFFF AND PUSH32 0x8BE0079C531659141344CD1FD0A4F28419497F9722A3DAAFE3B4186F6B6457E0 PUSH1 0x40 MLOAD PUSH1 0x40 MLOAD DUP1 SWAP2 SUB SWAP1 LOG3 POP PUSH2 0x33B7 DUP1 PUSH2 0x10D PUSH1 0x0 CODECOPY PUSH1 0x0 RETURN INVALID PUSH1 0x80 PUSH1 0x40 MSTORE CALLVALUE DUP1 ISZERO PUSH2 0x10 JUMPI PUSH1 0x0 DUP1 REVERT JUMPDEST POP PUSH1 0x4 CALLDATASIZE LT PUSH2 0x21C JUMPI PUSH1 0x0 CALLDATALOAD PUSH1 0xE0 SHR DUP1 PUSH4 0x96024390 GT PUSH2 0x125 JUMPI DUP1 PUSH4 0xDE0F5456 GT PUSH2 0xAD JUMPI DUP1 PUSH4 0xE93B0E9C GT PUSH2 0x7C JUMPI DUP1 PUSH4 0xE93B0E9C EQ PUSH2 0x60A JUMPI DUP1 PUSH4 0xF1D9F88B EQ PUSH2 0x63D JUMPI DUP1 PUSH4 0xF2FDE38B EQ PUSH2 0x65B JUMPI DUP1 PUSH4 0xF8CCD674 EQ PUSH2 0x677 JUMPI DUP1 PUSH4 0xFC0C546A EQ PUSH2 0x693 JUMPI PUSH2 0x21C JUMP JUMPDEST DUP1 PUSH4 0xDE0F5456 EQ PUSH2 0x56E JUMPI DUP1 PUSH4 0xE1E73D59 EQ PUSH2 0x59E JUMPI DUP1 PUSH4 0xE322101C EQ PUSH2 0x5CE JUMPI DUP1 PUSH4 0xE72D7FE9 EQ PUSH2 0x5EC JUMPI PUSH2 0x21C JUMP JUMPDEST DUP1 PUSH4 0xC3525819 GT PUSH2 0xF4 JUMPI DUP1 PUSH4 0xC3525819 EQ PUSH2 0x4C2 JUMPI DUP1 PUSH4 0xC7C695F0 EQ PUSH2 0x4E0 JUMPI DUP1 PUSH4 0xCB4A9187 EQ PUSH2 0x4FE JUMPI DUP1 PUSH4 0xCB6D8EE6 EQ PUSH2 0x532 JUMPI DUP1 PUSH4 0xD481972F EQ PUSH2 0x550 JUMPI PUSH2 0x21C JUMP JUMPDEST DUP1 PUSH4 0x96024390 EQ PUSH2 0x44A JUMPI DUP1 PUSH4 0xA859A092 EQ PUSH2 0x468 JUMPI DUP1 PUSH4 0xBF226BC3 EQ PUSH2 0x486 JUMPI DUP1 PUSH4 0xBFE10928 EQ PUSH2 0x4A4 JUMPI PUSH2 0x21C JUMP JUMPDEST DUP1 PUSH4 0x73EF75F2 GT PUSH2 0x1A8 JUMPI DUP1 PUSH4 0x7D031CE4 GT PUSH2 0x177 JUMPI DUP1 PUSH4 0x7D031CE4 EQ PUSH2 0x3B6 JUMPI DUP1 PUSH4 0x808A5457 EQ PUSH2 0x3D4 JUMPI DUP1 PUSH4 0x80CBF8AD EQ PUSH2 0x3F2 JUMPI DUP1 PUSH4 0x84B4EFEA EQ PUSH2 0x40E JUMPI DUP1 PUSH4 0x8DA5CB5B EQ PUSH2 0x42C JUMPI PUSH2 0x21C JUMP JUMPDEST DUP1 PUSH4 0x73EF75F2 EQ PUSH2 0x340 JUMPI DUP1 PUSH4 0x7B0472F0 EQ PUSH2 0x35E JUMPI DUP1 PUSH4 0x7C356DF8 EQ PUSH2 0x37A JUMPI DUP1 PUSH4 0x7CAEEEDB EQ PUSH2 0x398 JUMPI PUSH2 0x21C JUMP JUMPDEST DUP1 PUSH4 0x541B5BD6 GT PUSH2 0x1EF JUMPI DUP1 PUSH4 0x541B5BD6 EQ PUSH2 0x2A7 JUMPI DUP1 PUSH4 0x551B7702 EQ PUSH2 0x2C5 JUMPI DUP1 PUSH4 0x6386C1C7 EQ PUSH2 0x2E3 JUMPI DUP1 PUSH4 0x6F5453D0 EQ PUSH2 0x318 JUMPI DUP1 PUSH4 0x715018A6 EQ PUSH2 0x336 JUMPI PUSH2 0x21C JUMP JUMPDEST DUP1 PUSH4 0x23AC714F EQ PUSH2 0x221 JUMPI DUP1 PUSH4 0x28665A65 EQ PUSH2 0x23F JUMPI DUP1 PUSH4 0x2E1A7D4D EQ PUSH2 0x26F JUMPI DUP1 PUSH4 0x379607F5 EQ PUSH2 0x28B JUMPI JUMPDEST PUSH1 0x0 DUP1 REVERT JUMPDEST PUSH2 0x229 PUSH2 0x6B1 JUMP JUMPDEST PUSH1 0x40 MLOAD PUSH2 0x236 SWAP2 SWAP1 PUSH2 0x2EB3 JUMP JUMPDEST PUSH1 0x40 MLOAD DUP1 SWAP2 SUB SWAP1 RETURN JUMPDEST PUSH2 0x259 PUSH1 0x4 DUP1 CALLDATASIZE SUB DUP2 ADD SWAP1 PUSH2 0x254 SWAP2 SWAP1 PUSH2 0x29E7 JUMP JUMPDEST PUSH2 0x6B7 JUMP JUMPDEST PUSH1 0x40 MLOAD PUSH2 0x266 SWAP2 SWAP1 PUSH2 0x2EB3 JUMP JUMPDEST PUSH1 0x40 MLOAD DUP1 SWAP2 SUB SWAP1 RETURN JUMPDEST PUSH2 0x289 PUSH1 0x4 DUP1 CALLDATASIZE SUB DUP2 ADD SWAP1 PUSH2 0x284 SWAP2 SWAP1 PUSH2 0x2B01 JUMP JUMPDEST PUSH2 0x7BC JUMP JUMPDEST STOP JUMPDEST PUSH2 0x2A5 PUSH1 0x4 DUP1 CALLDATASIZE SUB DUP2 ADD SWAP1 PUSH2 0x2A0 SWAP2 SWAP1 PUSH2 0x2B01 JUMP JUMPDEST PUSH2 0xE57 JUMP JUMPDEST STOP JUMPDEST PUSH2 0x2AF PUSH2 0x1281 JUMP JUMPDEST PUSH1 0x40 MLOAD PUSH2 0x2BC SWAP2 SWAP1 PUSH2 0x2EB3 JUMP JUMPDEST PUSH1 0x40 MLOAD DUP1 SWAP2 SUB SWAP1 RETURN JUMPDEST PUSH2 0x2CD PUSH2 0x1287 JUMP JUMPDEST PUSH1 0x40 MLOAD PUSH2 0x2DA SWAP2 SWAP1 PUSH2 0x2EB3 JUMP JUMPDEST PUSH1 0x40 MLOAD DUP1 SWAP2 SUB SWAP1 RETURN JUMPDEST PUSH2 0x2FD PUSH1 0x4 DUP1 CALLDATASIZE SUB DUP2 ADD SWAP1 PUSH2 0x2F8 SWAP2 SWAP1 PUSH2 0x29E7 JUMP JUMPDEST PUSH2 0x128D JUMP JUMPDEST PUSH1 0x40 MLOAD PUSH2 0x30F SWAP7 SWAP6 SWAP5 SWAP4 SWAP3 SWAP2 SWAP1 PUSH2 0x2D4E JUMP JUMPDEST PUSH1 0x40 MLOAD DUP1 SWAP2 SUB SWAP1 RETURN JUMPDEST PUSH2 0x320 PUSH2 0x131A JUMP JUMPDEST PUSH1 0x40 MLOAD PUSH2 0x32D SWAP2 SWAP1 PUSH2 0x2EB3 JUMP JUMPDEST PUSH1 0x40 MLOAD DUP1 SWAP2 SUB SWAP1 RETURN JUMPDEST PUSH2 0x33E PUSH2 0x1320 JUMP JUMPDEST STOP JUMPDEST PUSH2 0x348 PUSH2 0x146C JUMP JUMPDEST PUSH1 0x40 MLOAD PUSH2 0x355 SWAP2 SWAP1 PUSH2 0x2EB3 JUMP JUMPDEST PUSH1 0x40 MLOAD DUP1 SWAP2 SUB SWAP1 RETURN JUMPDEST PUSH2 0x378 PUSH1 0x4 DUP1 CALLDATASIZE SUB DUP2 ADD SWAP1 PUSH2 0x373 SWAP2 SWAP1 PUSH2 0x2B5B JUMP JUMPDEST PUSH2 0x1472 JUMP JUMPDEST STOP JUMPDEST PUSH2 0x382 PUSH2 0x1A7C JUMP JUMPDEST PUSH1 0x40 MLOAD PUSH2 0x38F SWAP2 SWAP1 PUSH2 0x2EB3 JUMP JUMPDEST PUSH1 0x40 MLOAD DUP1 SWAP2 SUB SWAP1 RETURN JUMPDEST PUSH2 0x3A0 PUSH2 0x1A82 JUMP JUMPDEST PUSH1 0x40 MLOAD PUSH2 0x3AD SWAP2 SWAP1 PUSH2 0x2EB3 JUMP JUMPDEST PUSH1 0x40 MLOAD DUP1 SWAP2 SUB SWAP1 RETURN JUMPDEST PUSH2 0x3BE PUSH2 0x1A88 JUMP JUMPDEST PUSH1 0x40 MLOAD PUSH2 0x3CB SWAP2 SWAP1 PUSH2 0x2EB3 JUMP JUMPDEST PUSH1 0x40 MLOAD DUP1 SWAP2 SUB SWAP1 RETURN JUMPDEST PUSH2 0x3DC PUSH2 0x1A8E JUMP JUMPDEST PUSH1 0x40 MLOAD PUSH2 0x3E9 SWAP2 SWAP1 PUSH2 0x2DCA JUMP JUMPDEST PUSH1 0x40 MLOAD DUP1 SWAP2 SUB SWAP1 RETURN JUMPDEST PUSH2 0x40C PUSH1 0x4 DUP1 CALLDATASIZE SUB DUP2 ADD SWAP1 PUSH2 0x407 SWAP2 SWAP1 PUSH2 0x2B01 JUMP JUMPDEST PUSH2 0x1AB4 JUMP JUMPDEST STOP JUMPDEST PUSH2 0x416 PUSH2 0x1D2A JUMP JUMPDEST PUSH1 0x40 MLOAD PUSH2 0x423 SWAP2 SWAP1 PUSH2 0x2EB3 JUMP JUMPDEST PUSH1 0x40 MLOAD DUP1 SWAP2 SUB SWAP1 RETURN JUMPDEST PUSH2 0x434 PUSH2 0x1D30 JUMP JUMPDEST PUSH1 0x40 MLOAD PUSH2 0x441 SWAP2 SWAP1 PUSH2 0x2CB8 JUMP JUMPDEST PUSH1 0x40 MLOAD DUP1 SWAP2 SUB SWAP1 RETURN JUMPDEST PUSH2 0x452 PUSH2 0x1D59 JUMP JUMPDEST PUSH1 0x40 MLOAD PUSH2 0x45F SWAP2 SWAP1 PUSH2 0x2EB3 JUMP JUMPDEST PUSH1 0x40 MLOAD DUP1 SWAP2 SUB SWAP1 RETURN JUMPDEST PUSH2 0x470 PUSH2 0x1D5F JUMP JUMPDEST PUSH1 0x40 MLOAD PUSH2 0x47D SWAP2 SWAP1 PUSH2 0x2EB3 JUMP JUMPDEST PUSH1 0x40 MLOAD DUP1 SWAP2 SUB SWAP1 RETURN JUMPDEST PUSH2 0x48E PUSH2 0x1D65 JUMP JUMPDEST PUSH1 0x40 MLOAD PUSH2 0x49B SWAP2 SWAP1 PUSH2 0x2EB3 JUMP JUMPDEST PUSH1 0x40 MLOAD DUP1 SWAP2 SUB SWAP1 RETURN JUMPDEST PUSH2 0x4AC PUSH2 0x1D6B JUMP JUMPDEST PUSH1 0x40 MLOAD PUSH2 0x4B9 SWAP2 SWAP1 PUSH2 0x2CB8 JUMP JUMPDEST PUSH1 0x40 MLOAD DUP1 SWAP2 SUB SWAP1 RETURN JUMPDEST PUSH2 0x4CA PUSH2 0x1D91 JUMP JUMPDEST PUSH1 0x40 MLOAD PUSH2 0x4D7 SWAP2 SWAP1 PUSH2 0x2EB3 JUMP JUMPDEST PUSH1 0x40 MLOAD DUP1 SWAP2 SUB SWAP1 RETURN JUMPDEST PUSH2 0x4E8 PUSH2 0x1D97 JUMP JUMPDEST PUSH1 0x40 MLOAD PUSH2 0x4F5 SWAP2 SWAP1 PUSH2 0x2EB3 JUMP JUMPDEST PUSH1 0x40 MLOAD DUP1 SWAP2 SUB SWAP1 RETURN JUMPDEST PUSH2 0x518 PUSH1 0x4 DUP1 CALLDATASIZE SUB DUP2 ADD SWAP1 PUSH2 0x513 SWAP2 SWAP1 PUSH2 0x29E7 JUMP JUMPDEST PUSH2 0x1D9D JUMP JUMPDEST PUSH1 0x40 MLOAD PUSH2 0x529 SWAP6 SWAP5 SWAP4 SWAP3 SWAP2 SWAP1 PUSH2 0x2F13 JUMP JUMPDEST PUSH1 0x40 MLOAD DUP1 SWAP2 SUB SWAP1 RETURN JUMPDEST PUSH2 0x53A PUSH2 0x1E14 JUMP JUMPDEST PUSH1 0x40 MLOAD PUSH2 0x547 SWAP2 SWAP1 PUSH2 0x2EB3 JUMP JUMPDEST PUSH1 0x40 MLOAD DUP1 SWAP2 SUB SWAP1 RETURN JUMPDEST PUSH2 0x558 PUSH2 0x1E1A JUMP JUMPDEST PUSH1 0x40 MLOAD PUSH2 0x565 SWAP2 SWAP1 PUSH2 0x2D33 JUMP JUMPDEST PUSH1 0x40 MLOAD DUP1 SWAP2 SUB SWAP1 RETURN JUMPDEST PUSH2 0x588 PUSH1 0x4 DUP1 CALLDATASIZE SUB DUP2 ADD SWAP1 PUSH2 0x583 SWAP2 SWAP1 PUSH2 0x2B01 JUMP JUMPDEST PUSH2 0x1F38 JUMP JUMPDEST PUSH1 0x40 MLOAD PUSH2 0x595 SWAP2 SWAP1 PUSH2 0x2EB3 JUMP JUMPDEST PUSH1 0x40 MLOAD DUP1 SWAP2 SUB SWAP1 RETURN JUMPDEST PUSH2 0x5B8 PUSH1 0x4 DUP1 CALLDATASIZE SUB DUP2 ADD SWAP1 PUSH2 0x5B3 SWAP2 SWAP1 PUSH2 0x29E7 JUMP JUMPDEST PUSH2 0x2015 JUMP JUMPDEST PUSH1 0x40 MLOAD PUSH2 0x5C5 SWAP2 SWAP1 PUSH2 0x2EB3 JUMP JUMPDEST PUSH1 0x40 MLOAD DUP1 SWAP2 SUB SWAP1 RETURN JUMPDEST PUSH2 0x5D6 PUSH2 0x2131 JUMP JUMPDEST PUSH1 0x40 MLOAD PUSH2 0x5E3 SWAP2 SWAP1 PUSH2 0x2EB3 JUMP JUMPDEST PUSH1 0x40 MLOAD DUP1 SWAP2 SUB SWAP1 RETURN JUMPDEST PUSH2 0x5F4 PUSH2 0x2137 JUMP JUMPDEST PUSH1 0x40 MLOAD PUSH2 0x601 SWAP2 SWAP1 PUSH2 0x2EB3 JUMP JUMPDEST PUSH1 0x40 MLOAD DUP1 SWAP2 SUB SWAP1 RETURN JUMPDEST PUSH2 0x624 PUSH1 0x4 DUP1 CALLDATASIZE SUB DUP2 ADD SWAP1 PUSH2 0x61F SWAP2 SWAP1 PUSH2 0x29E7 JUMP JUMPDEST PUSH2 0x213D JUMP JUMPDEST PUSH1 0x40 MLOAD PUSH2 0x634 SWAP5 SWAP4 SWAP3 SWAP2 SWAP1 PUSH2 0x2ECE JUMP JUMPDEST PUSH1 0x40 MLOAD DUP1 SWAP2 SUB SWAP1 RETURN JUMPDEST PUSH2 0x645 PUSH2 0x21AA JUMP JUMPDEST PUSH1 0x40 MLOAD PUSH2 0x652 SWAP2 SWAP1 PUSH2 0x2EB3 JUMP JUMPDEST PUSH1 0x40 MLOAD DUP1 SWAP2 SUB SWAP1 RETURN JUMPDEST PUSH2 0x675 PUSH1 0x4 DUP1 CALLDATASIZE SUB DUP2 ADD SWAP1 PUSH2 0x670 SWAP2 SWAP1 PUSH2 0x29E7 JUMP JUMPDEST PUSH2 0x237C JUMP JUMPDEST STOP JUMPDEST PUSH2 0x691 PUSH1 0x4 DUP1 CALLDATASIZE SUB DUP2 ADD SWAP1 PUSH2 0x68C SWAP2 SWAP1 PUSH2 0x2A41 JUMP JUMPDEST PUSH2 0x2416 JUMP JUMPDEST STOP JUMPDEST PUSH2 0x69B PUSH2 0x2572 JUMP JUMPDEST PUSH1 0x40 MLOAD PUSH2 0x6A8 SWAP2 SWAP1 PUSH2 0x2DAF JUMP JUMPDEST PUSH1 0x40 MLOAD DUP1 SWAP2 SUB SWAP1 RETURN JUMPDEST PUSH1 0xF SLOAD DUP2 JUMP JUMPDEST PUSH1 0x0 DUP1 PUSH1 0x16 PUSH1 0x0 DUP5 PUSH20 0xFFFFFFFFFFFFFFFFFFFFFFFFFFFFFFFFFFFFFFFF AND PUSH20 0xFFFFFFFFFFFFFFFFFFFFFFFFFFFFFFFFFFFFFFFF AND DUP2 MSTORE PUSH1 0x20 ADD SWAP1 DUP2 MSTORE PUSH1 0x20 ADD PUSH1 0x0 KECCAK256 SWAP1 POP PUSH1 0x0 PUSH2 0x714 DUP3 PUSH1 0x1 ADD SLOAD TIMESTAMP PUSH2 0x2598 SWAP1 SWAP2 SWAP1 PUSH4 0xFFFFFFFF AND JUMP JUMPDEST SWAP1 POP PUSH3 0x278D00 PUSH1 0x14 SLOAD PUSH2 0x727 SWAP2 SWAP1 PUSH2 0x2F77 JUMP JUMPDEST TIMESTAMP GT PUSH2 0x773 JUMPI PUSH2 0x76C PUSH1 0xF SLOAD PUSH2 0x75E PUSH1 0xB SLOAD PUSH2 0x750 DUP6 DUP8 PUSH1 0x0 ADD SLOAD PUSH2 0x25AE SWAP1 SWAP2 SWAP1 PUSH4 0xFFFFFFFF AND JUMP JUMPDEST PUSH2 0x25AE SWAP1 SWAP2 SWAP1 PUSH4 0xFFFFFFFF AND JUMP JUMPDEST PUSH2 0x25C4 SWAP1 SWAP2 SWAP1 PUSH4 0xFFFFFFFF AND JUMP JUMPDEST SWAP3 POP PUSH2 0x7B5 JUMP JUMPDEST PUSH2 0x7B2 PUSH1 0xF SLOAD PUSH2 0x7A4 PUSH1 0xC SLOAD PUSH2 0x796 DUP6 DUP8 PUSH1 0x0 ADD SLOAD PUSH2 0x25AE SWAP1 SWAP2 SWAP1 PUSH4 0xFFFFFFFF AND JUMP JUMPDEST PUSH2 0x25AE SWAP1 SWAP2 SWAP1 PUSH4 0xFFFFFFFF AND JUMP JUMPDEST PUSH2 0x25C4 SWAP1 SWAP2 SWAP1 PUSH4 0xFFFFFFFF AND JUMP JUMPDEST SWAP3 POP JUMPDEST POP POP SWAP2 SWAP1 POP JUMP JUMPDEST PUSH1 0x2 DUP2 LT PUSH2 0x7FF JUMPI PUSH1 0x40 MLOAD PUSH32 0x8C379A000000000000000000000000000000000000000000000000000000000 DUP2 MSTORE PUSH1 0x4 ADD PUSH2 0x7F6 SWAP1 PUSH2 0x2E25 JUMP JUMPDEST PUSH1 0x40 MLOAD DUP1 SWAP2 SUB SWAP1 REVERT JUMPDEST PUSH1 0x0 PUSH1 0x15 PUSH1 0x0 CALLER PUSH20 0xFFFFFFFFFFFFFFFFFFFFFFFFFFFFFFFFFFFFFFFF AND PUSH20 0xFFFFFFFFFFFFFFFFFFFFFFFFFFFFFFFFFFFFFFFF AND DUP2 MSTORE PUSH1 0x20 ADD SWAP1 DUP2 MSTORE PUSH1 0x20 ADD PUSH1 0x0 KECCAK256 SWAP1 POP PUSH1 0x0 DUP1 PUSH1 0x0 DUP5 EQ ISZERO PUSH2 0xB06 JUMPI PUSH1 0x0 PUSH1 0x16 PUSH1 0x0 CALLER PUSH20 0xFFFFFFFFFFFFFFFFFFFFFFFFFFFFFFFFFFFFFFFF AND PUSH20 0xFFFFFFFFFFFFFFFFFFFFFFFFFFFFFFFFFFFFFFFF AND DUP2 MSTORE PUSH1 0x20 ADD SWAP1 DUP2 MSTORE PUSH1 0x20 ADD PUSH1 0x0 KECCAK256 SWAP1 POP DUP1 PUSH1 0x0 ADD SLOAD SWAP3 POP PUSH1 0x3 PUSH1 0x0 SWAP1 SLOAD SWAP1 PUSH2 0x100 EXP SWAP1 DIV PUSH20 0xFFFFFFFFFFFFFFFFFFFFFFFFFFFFFFFFFFFFFFFF AND PUSH20 0xFFFFFFFFFFFFFFFFFFFFFFFFFFFFFFFFFFFFFFFF AND PUSH4 0xA9059CBB CALLER DUP6 PUSH1 0x40 MLOAD DUP4 PUSH4 0xFFFFFFFF AND PUSH1 0xE0 SHL DUP2 MSTORE PUSH1 0x4 ADD PUSH2 0x8F5 SWAP3 SWAP2 SWAP1 PUSH2 0x2D0A JUMP JUMPDEST PUSH1 0x20 PUSH1 0x40 MLOAD DUP1 DUP4 SUB DUP2 PUSH1 0x0 DUP8 DUP1 EXTCODESIZE ISZERO DUP1 ISZERO PUSH2 0x90F JUMPI PUSH1 0x0 DUP1 REVERT JUMPDEST POP GAS CALL ISZERO DUP1 ISZERO PUSH2 0x923 JUMPI RETURNDATASIZE PUSH1 0x0 DUP1 RETURNDATACOPY RETURNDATASIZE PUSH1 0x0 REVERT JUMPDEST POP POP POP POP PUSH1 0x40 MLOAD RETURNDATASIZE PUSH1 0x1F NOT PUSH1 0x1F DUP3 ADD AND DUP3 ADD DUP1 PUSH1 0x40 MSTORE POP DUP2 ADD SWAP1 PUSH2 0x947 SWAP2 SWAP1 PUSH2 0x2A81 JUMP JUMPDEST POP PUSH2 0x951 CALLER PUSH2 0x6B7 JUMP JUMPDEST SWAP2 POP PUSH1 0x0 DUP3 GT ISZERO PUSH2 0xA94 JUMPI PUSH2 0x975 PUSH1 0x12 SLOAD DUP3 PUSH1 0x3 ADD SLOAD PUSH2 0x25DA SWAP1 SWAP2 SWAP1 PUSH4 0xFFFFFFFF AND JUMP JUMPDEST TIMESTAMP LT ISZERO PUSH2 0x9BF JUMPI PUSH1 0x0 PUSH2 0x9A6 PUSH1 0x64 PUSH2 0x998 PUSH1 0x13 SLOAD DUP7 PUSH2 0x25AE SWAP1 SWAP2 SWAP1 PUSH4 0xFFFFFFFF AND JUMP JUMPDEST PUSH2 0x25C4 SWAP1 SWAP2 SWAP1 PUSH4 0xFFFFFFFF AND JUMP JUMPDEST SWAP1 POP PUSH2 0x9BB DUP2 DUP5 PUSH2 0x2598 SWAP1 SWAP2 SWAP1 PUSH4 0xFFFFFFFF AND JUMP JUMPDEST SWAP3 POP POP JUMPDEST PUSH1 0x3 PUSH1 0x0 SWAP1 SLOAD SWAP1 PUSH2 0x100 EXP SWAP1 DIV PUSH20 0xFFFFFFFFFFFFFFFFFFFFFFFFFFFFFFFFFFFFFFFF AND PUSH20 0xFFFFFFFFFFFFFFFFFFFFFFFFFFFFFFFFFFFFFFFF AND PUSH4 0x23B872DD PUSH1 0x1 PUSH1 0x0 SWAP1 SLOAD SWAP1 PUSH2 0x100 EXP SWAP1 DIV PUSH20 0xFFFFFFFFFFFFFFFFFFFFFFFFFFFFFFFFFFFFFFFF AND CALLER DUP6 PUSH1 0x40 MLOAD DUP5 PUSH4 0xFFFFFFFF AND PUSH1 0xE0 SHL DUP2 MSTORE PUSH1 0x4 ADD PUSH2 0xA40 SWAP4 SWAP3 SWAP2 SWAP1 PUSH2 0x2CD3 JUMP JUMPDEST PUSH1 0x20 PUSH1 0x40 MLOAD DUP1 DUP4 SUB DUP2 PUSH1 0x0 DUP8 DUP1 EXTCODESIZE ISZERO DUP1 ISZERO PUSH2 0xA5A JUMPI PUSH1 0x0 DUP1 REVERT JUMPDEST POP GAS CALL ISZERO DUP1 ISZERO PUSH2 0xA6E JUMPI RETURNDATASIZE PUSH1 0x0 DUP1 RETURNDATACOPY RETURNDATASIZE PUSH1 0x0 REVERT JUMPDEST POP POP POP POP PUSH1 0x40 MLOAD RETURNDATASIZE PUSH1 0x1F NOT PUSH1 0x1F DUP3 ADD AND DUP3 ADD DUP1 PUSH1 0x40 MSTORE POP DUP2 ADD SWAP1 PUSH2 0xA92 SWAP2 SWAP1 PUSH2 0x2A81 JUMP JUMPDEST POP JUMPDEST PUSH1 0x0 DUP2 PUSH1 0x0 ADD DUP2 SWAP1 SSTORE POP TIMESTAMP DUP2 PUSH1 0x1 ADD DUP2 SWAP1 SSTORE POP PUSH2 0xABE DUP3 DUP3 PUSH1 0x2 ADD SLOAD PUSH2 0x25DA SWAP1 SWAP2 SWAP1 PUSH4 0xFFFFFFFF AND JUMP JUMPDEST DUP2 PUSH1 0x2 ADD DUP2 SWAP1 SSTORE POP PUSH2 0xADD DUP4 DUP6 PUSH1 0x4 ADD SLOAD PUSH2 0x25DA SWAP1 SWAP2 SWAP1 PUSH4 0xFFFFFFFF AND JUMP JUMPDEST DUP5 PUSH1 0x4 ADD DUP2 SWAP1 SSTORE POP PUSH2 0xAFA DUP4 PUSH1 0x6 SLOAD PUSH2 0x25DA SWAP1 SWAP2 SWAP1 PUSH4 0xFFFFFFFF AND JUMP JUMPDEST PUSH1 0x6 DUP2 SWAP1 SSTORE POP POP PUSH2 0xDDF JUMP JUMPDEST PUSH1 0x0 PUSH1 0x17 PUSH1 0x0 CALLER PUSH20 0xFFFFFFFFFFFFFFFFFFFFFFFFFFFFFFFFFFFFFFFF AND PUSH20 0xFFFFFFFFFFFFFFFFFFFFFFFFFFFFFFFFFFFFFFFF AND DUP2 MSTORE PUSH1 0x20 ADD SWAP1 DUP2 MSTORE PUSH1 0x20 ADD PUSH1 0x0 KECCAK256 SWAP1 POP DUP1 PUSH1 0x0 ADD SLOAD SWAP3 POP PUSH1 0x2 PUSH1 0x0 SWAP1 SLOAD SWAP1 PUSH2 0x100 EXP SWAP1 DIV PUSH20 0xFFFFFFFFFFFFFFFFFFFFFFFFFFFFFFFFFFFFFFFF AND PUSH20 0xFFFFFFFFFFFFFFFFFFFFFFFFFFFFFFFFFFFFFFFF AND PUSH4 0xA9059CBB CALLER DUP6 PUSH1 0x40 MLOAD DUP4 PUSH4 0xFFFFFFFF AND PUSH1 0xE0 SHL DUP2 MSTORE PUSH1 0x4 ADD PUSH2 0xBAD SWAP3 SWAP2 SWAP1 PUSH2 0x2D0A JUMP JUMPDEST PUSH1 0x20 PUSH1 0x40 MLOAD DUP1 DUP4 SUB DUP2 PUSH1 0x0 DUP8 DUP1 EXTCODESIZE ISZERO DUP1 ISZERO PUSH2 0xBC7 JUMPI PUSH1 0x0 DUP1 REVERT JUMPDEST POP GAS CALL ISZERO DUP1 ISZERO PUSH2 0xBDB JUMPI RETURNDATASIZE PUSH1 0x0 DUP1 RETURNDATACOPY RETURNDATASIZE PUSH1 0x0 REVERT JUMPDEST POP POP POP POP PUSH1 0x40 MLOAD RETURNDATASIZE PUSH1 0x1F NOT PUSH1 0x1F DUP3 ADD AND DUP3 ADD DUP1 PUSH1 0x40 MSTORE POP DUP2 ADD SWAP1 PUSH2 0xBFF SWAP2 SWAP1 PUSH2 0x2A81 JUMP JUMPDEST POP PUSH2 0xC09 CALLER PUSH2 0x2015 JUMP JUMPDEST SWAP2 POP PUSH1 0x0 DUP3 GT ISZERO PUSH2 0xD4C JUMPI PUSH2 0xC2D PUSH1 0x12 SLOAD DUP3 PUSH1 0x4 ADD SLOAD PUSH2 0x25DA SWAP1 SWAP2 SWAP1 PUSH4 0xFFFFFFFF AND JUMP JUMPDEST TIMESTAMP LT ISZERO PUSH2 0xC77 JUMPI PUSH1 0x0 PUSH2 0xC5E PUSH1 0x64 PUSH2 0xC50 PUSH1 0x13 SLOAD DUP7 PUSH2 0x25AE SWAP1 SWAP2 SWAP1 PUSH4 0xFFFFFFFF AND JUMP JUMPDEST PUSH2 0x25C4 SWAP1 SWAP2 SWAP1 PUSH4 0xFFFFFFFF AND JUMP JUMPDEST SWAP1 POP PUSH2 0xC73 DUP2 DUP5 PUSH2 0x2598 SWAP1 SWAP2 SWAP1 PUSH4 0xFFFFFFFF AND JUMP JUMPDEST SWAP3 POP POP JUMPDEST PUSH1 0x3 PUSH1 0x0 SWAP1 SLOAD SWAP1 PUSH2 0x100 EXP SWAP1 DIV PUSH20 0xFFFFFFFFFFFFFFFFFFFFFFFFFFFFFFFFFFFFFFFF AND PUSH20 0xFFFFFFFFFFFFFFFFFFFFFFFFFFFFFFFFFFFFFFFF AND PUSH4 0x23B872DD PUSH1 0x1 PUSH1 0x0 SWAP1 SLOAD SWAP1 PUSH2 0x100 EXP SWAP1 DIV PUSH20 0xFFFFFFFFFFFFFFFFFFFFFFFFFFFFFFFFFFFFFFFF AND CALLER DUP6 PUSH1 0x40 MLOAD DUP5 PUSH4 0xFFFFFFFF AND PUSH1 0xE0 SHL DUP2 MSTORE PUSH1 0x4 ADD PUSH2 0xCF8 SWAP4 SWAP3 SWAP2 SWAP1 PUSH2 0x2CD3 JUMP JUMPDEST PUSH1 0x20 PUSH1 0x40 MLOAD DUP1 DUP4 SUB DUP2 PUSH1 0x0 DUP8 DUP1 EXTCODESIZE ISZERO DUP1 ISZERO PUSH2 0xD12 JUMPI PUSH1 0x0 DUP1 REVERT JUMPDEST POP GAS CALL ISZERO DUP1 ISZERO PUSH2 0xD26 JUMPI RETURNDATASIZE PUSH1 0x0 DUP1 RETURNDATACOPY RETURNDATASIZE PUSH1 0x0 REVERT JUMPDEST POP POP POP POP PUSH1 0x40 MLOAD RETURNDATASIZE PUSH1 0x1F NOT PUSH1 0x1F DUP3 ADD AND DUP3 ADD DUP1 PUSH1 0x40 MSTORE POP DUP2 ADD SWAP1 PUSH2 0xD4A SWAP2 SWAP1 PUSH2 0x2A81 JUMP JUMPDEST POP JUMPDEST PUSH1 0x0 DUP2 PUSH1 0x0 ADD DUP2 SWAP1 SSTORE POP PUSH1 0x0 DUP2 PUSH1 0x1 ADD DUP2 SWAP1 SSTORE POP TIMESTAMP DUP2 PUSH1 0x2 ADD DUP2 SWAP1 SSTORE POP PUSH2 0xD80 DUP3 DUP3 PUSH1 0x3 ADD SLOAD PUSH2 0x25DA SWAP1 SWAP2 SWAP1 PUSH4 0xFFFFFFFF AND JUMP JUMPDEST DUP2 PUSH1 0x3 ADD DUP2 SWAP1 SSTORE POP PUSH2 0xD9D DUP3 PUSH1 0x6 SLOAD PUSH2 0x25DA SWAP1 SWAP2 SWAP1 PUSH4 0xFFFFFFFF AND JUMP JUMPDEST PUSH1 0x6 DUP2 SWAP1 SSTORE POP PUSH2 0xDBA DUP4 DUP6 PUSH1 0x5 ADD SLOAD PUSH2 0x25DA SWAP1 SWAP2 SWAP1 PUSH4 0xFFFFFFFF AND JUMP JUMPDEST DUP5 PUSH1 0x5 ADD DUP2 SWAP1 SSTORE POP PUSH2 0xDD7 DUP4 PUSH1 0x7 SLOAD PUSH2 0x25DA SWAP1 SWAP2 SWAP1 PUSH4 0xFFFFFFFF AND JUMP JUMPDEST PUSH1 0x7 DUP2 SWAP1 SSTORE POP POP JUMPDEST PUSH32 0x4F14EA4E43CC569E4FB4D8FA171366F2F6925BFADE37C5CC93334E373A4C9847 CALLER DUP4 PUSH1 0x40 MLOAD PUSH2 0xE10 SWAP3 SWAP2 SWAP1 PUSH2 0x2D0A JUMP JUMPDEST PUSH1 0x40 MLOAD DUP1 SWAP2 SUB SWAP1 LOG1 PUSH32 0xCEA16A2D83554574DEF1EDF3EC1FB53F1373F7EBB1FA98FECDAA4268588793CC CALLER DUP3 PUSH1 0x40 MLOAD PUSH2 0xE49 SWAP3 SWAP2 SWAP1 PUSH2 0x2D0A JUMP JUMPDEST PUSH1 0x40 MLOAD DUP1 SWAP2 SUB SWAP1 LOG1 POP POP POP POP JUMP JUMPDEST PUSH1 0x2 DUP2 LT PUSH2 0xE9A JUMPI PUSH1 0x40 MLOAD PUSH32 0x8C379A000000000000000000000000000000000000000000000000000000000 DUP2 MSTORE PUSH1 0x4 ADD PUSH2 0xE91 SWAP1 PUSH2 0x2E25 JUMP JUMPDEST PUSH1 0x40 MLOAD DUP1 SWAP2 SUB SWAP1 REVERT JUMPDEST PUSH1 0x0 PUSH1 0x15 PUSH1 0x0 CALLER PUSH20 0xFFFFFFFFFFFFFFFFFFFFFFFFFFFFFFFFFFFFFFFF AND PUSH20 0xFFFFFFFFFFFFFFFFFFFFFFFFFFFFFFFFFFFFFFFF AND DUP2 MSTORE PUSH1 0x20 ADD SWAP1 DUP2 MSTORE PUSH1 0x20 ADD PUSH1 0x0 KECCAK256 SWAP1 POP PUSH1 0x0 DUP1 DUP4 EQ ISZERO PUSH2 0x1099 JUMPI PUSH2 0xEF0 CALLER PUSH2 0x6B7 JUMP JUMPDEST SWAP1 POP PUSH1 0x0 DUP2 GT PUSH2 0xF35 JUMPI PUSH1 0x40 MLOAD PUSH32 0x8C379A000000000000000000000000000000000000000000000000000000000 DUP2 MSTORE PUSH1 0x4 ADD PUSH2 0xF2C SWAP1 PUSH2 0x2DE5 JUMP JUMPDEST PUSH1 0x40 MLOAD DUP1 SWAP2 SUB SWAP1 REVERT JUMPDEST PUSH1 0x0 PUSH1 0x16 PUSH1 0x0 CALLER PUSH20 0xFFFFFFFFFFFFFFFFFFFFFFFFFFFFFFFFFFFFFFFF AND PUSH20 0xFFFFFFFFFFFFFFFFFFFFFFFFFFFFFFFFFFFFFFFF AND DUP2 MSTORE PUSH1 0x20 ADD SWAP1 DUP2 MSTORE PUSH1 0x20 ADD PUSH1 0x0 KECCAK256 SWAP1 POP PUSH1 0x3 PUSH1 0x0 SWAP1 SLOAD SWAP1 PUSH2 0x100 EXP SWAP1 DIV PUSH20 0xFFFFFFFFFFFFFFFFFFFFFFFFFFFFFFFFFFFFFFFF AND PUSH20 0xFFFFFFFFFFFFFFFFFFFFFFFFFFFFFFFFFFFFFFFF AND PUSH4 0x23B872DD PUSH1 0x1 PUSH1 0x0 SWAP1 SLOAD SWAP1 PUSH2 0x100 EXP SWAP1 DIV PUSH20 0xFFFFFFFFFFFFFFFFFFFFFFFFFFFFFFFFFFFFFFFF AND CALLER DUP6 PUSH1 0x40 MLOAD DUP5 PUSH4 0xFFFFFFFF AND PUSH1 0xE0 SHL DUP2 MSTORE PUSH1 0x4 ADD PUSH2 0xFF9 SWAP4 SWAP3 SWAP2 SWAP1 PUSH2 0x2CD3 JUMP JUMPDEST PUSH1 0x20 PUSH1 0x40 MLOAD DUP1 DUP4 SUB DUP2 PUSH1 0x0 DUP8 DUP1 EXTCODESIZE ISZERO DUP1 ISZERO PUSH2 0x1013 JUMPI PUSH1 0x0 DUP1 REVERT JUMPDEST POP GAS CALL ISZERO DUP1 ISZERO PUSH2 0x1027 JUMPI RETURNDATASIZE PUSH1 0x0 DUP1 RETURNDATACOPY RETURNDATASIZE PUSH1 0x0 REVERT JUMPDEST POP POP POP POP PUSH1 0x40 MLOAD RETURNDATASIZE PUSH1 0x1F NOT PUSH1 0x1F DUP3 ADD AND DUP3 ADD DUP1 PUSH1 0x40 MSTORE POP DUP2 ADD SWAP1 PUSH2 0x104B SWAP2 SWAP1 PUSH2 0x2A81 JUMP JUMPDEST POP TIMESTAMP DUP2 PUSH1 0x1 ADD DUP2 SWAP1 SSTORE POP PUSH2 0x106C DUP3 DUP3 PUSH1 0x2 ADD SLOAD PUSH2 0x25DA SWAP1 SWAP2 SWAP1 PUSH4 0xFFFFFFFF AND JUMP JUMPDEST DUP2 PUSH1 0x2 ADD DUP2 SWAP1 SSTORE POP PUSH2 0x108B DUP3 DUP5 PUSH1 0x4 ADD SLOAD PUSH2 0x25DA SWAP1 SWAP2 SWAP1 PUSH4 0xFFFFFFFF AND JUMP JUMPDEST DUP4 PUSH1 0x4 ADD DUP2 SWAP1 SSTORE POP POP PUSH2 0x1228 JUMP JUMPDEST PUSH2 0x10A2 CALLER PUSH2 0x2015 JUMP JUMPDEST SWAP1 POP PUSH1 0x0 DUP2 GT PUSH2 0x10E7 JUMPI PUSH1 0x40 MLOAD PUSH32 0x8C379A000000000000000000000000000000000000000000000000000000000 DUP2 MSTORE PUSH1 0x4 ADD PUSH2 0x10DE SWAP1 PUSH2 0x2DE5 JUMP JUMPDEST PUSH1 0x40 MLOAD DUP1 SWAP2 SUB SWAP1 REVERT JUMPDEST PUSH1 0x0 PUSH1 0x17 PUSH1 0x0 CALLER PUSH20 0xFFFFFFFFFFFFFFFFFFFFFFFFFFFFFFFFFFFFFFFF AND PUSH20 0xFFFFFFFFFFFFFFFFFFFFFFFFFFFFFFFFFFFFFFFF AND DUP2 MSTORE PUSH1 0x20 ADD SWAP1 DUP2 MSTORE PUSH1 0x20 ADD PUSH1 0x0 KECCAK256 SWAP1 POP PUSH1 0x3 PUSH1 0x0 SWAP1 SLOAD SWAP1 PUSH2 0x100 EXP SWAP1 DIV PUSH20 0xFFFFFFFFFFFFFFFFFFFFFFFFFFFFFFFFFFFFFFFF AND PUSH20 0xFFFFFFFFFFFFFFFFFFFFFFFFFFFFFFFFFFFFFFFF AND PUSH4 0x23B872DD PUSH1 0x1 PUSH1 0x0 SWAP1 SLOAD SWAP1 PUSH2 0x100 EXP SWAP1 DIV PUSH20 0xFFFFFFFFFFFFFFFFFFFFFFFFFFFFFFFFFFFFFFFF AND CALLER DUP6 PUSH1 0x40 MLOAD DUP5 PUSH4 0xFFFFFFFF AND PUSH1 0xE0 SHL DUP2 MSTORE PUSH1 0x4 ADD PUSH2 0x11AB SWAP4 SWAP3 SWAP2 SWAP1 PUSH2 0x2CD3 JUMP JUMPDEST PUSH1 0x20 PUSH1 0x40 MLOAD DUP1 DUP4 SUB DUP2 PUSH1 0x0 DUP8 DUP1 EXTCODESIZE ISZERO DUP1 ISZERO PUSH2 0x11C5 JUMPI PUSH1 0x0 DUP1 REVERT JUMPDEST POP GAS CALL ISZERO DUP1 ISZERO PUSH2 0x11D9 JUMPI RETURNDATASIZE PUSH1 0x0 DUP1 RETURNDATACOPY RETURNDATASIZE PUSH1 0x0 REVERT JUMPDEST POP POP POP POP PUSH1 0x40 MLOAD RETURNDATASIZE PUSH1 0x1F NOT PUSH1 0x1F DUP3 ADD AND DUP3 ADD DUP1 PUSH1 0x40 MSTORE POP DUP2 ADD SWAP1 PUSH2 0x11FD SWAP2 SWAP1 PUSH2 0x2A81 JUMP JUMPDEST POP TIMESTAMP DUP2 PUSH1 0x2 ADD DUP2 SWAP1 SSTORE POP PUSH2 0x121E DUP3 DUP3 PUSH1 0x3 ADD SLOAD PUSH2 0x25DA SWAP1 SWAP2 SWAP1 PUSH4 0xFFFFFFFF AND JUMP JUMPDEST DUP2 PUSH1 0x3 ADD DUP2 SWAP1 SSTORE POP POP JUMPDEST PUSH2 0x123D DUP2 PUSH1 0x6 SLOAD PUSH2 0x25DA SWAP1 SWAP2 SWAP1 PUSH4 0xFFFFFFFF AND JUMP JUMPDEST PUSH1 0x6 DUP2 SWAP1 SSTORE POP PUSH32 0xCEA16A2D83554574DEF1EDF3EC1FB53F1373F7EBB1FA98FECDAA4268588793CC CALLER DUP3 PUSH1 0x40 MLOAD PUSH2 0x1274 SWAP3 SWAP2 SWAP1 PUSH2 0x2D0A JUMP JUMPDEST PUSH1 0x40 MLOAD DUP1 SWAP2 SUB SWAP1 LOG1 POP POP POP JUMP JUMPDEST PUSH1 0x9 SLOAD DUP2 JUMP JUMPDEST PUSH1 0x12 SLOAD DUP2 JUMP JUMPDEST PUSH1 0x0 DUP1 PUSH1 0x0 DUP1 PUSH1 0x0 DUP1 PUSH1 0x0 PUSH1 0x15 PUSH1 0x0 DUP10 PUSH20 0xFFFFFFFFFFFFFFFFFFFFFFFFFFFFFFFFFFFFFFFF AND PUSH20 0xFFFFFFFFFFFFFFFFFFFFFFFFFFFFFFFFFFFFFFFF AND DUP2 MSTORE PUSH1 0x20 ADD SWAP1 DUP2 MSTORE PUSH1 0x20 ADD PUSH1 0x0 KECCAK256 SWAP1 POP DUP1 PUSH1 0x0 ADD PUSH1 0x0 SWAP1 SLOAD SWAP1 PUSH2 0x100 EXP SWAP1 DIV PUSH1 0xFF AND SWAP7 POP DUP1 PUSH1 0x1 ADD SLOAD SWAP6 POP DUP1 PUSH1 0x2 ADD SLOAD SWAP5 POP DUP1 PUSH1 0x3 ADD SLOAD SWAP4 POP DUP1 PUSH1 0x4 ADD SLOAD SWAP3 POP DUP1 PUSH1 0x5 ADD SLOAD SWAP2 POP POP SWAP2 SWAP4 SWAP6 POP SWAP2 SWAP4 SWAP6 JUMP JUMPDEST PUSH1 0xC SLOAD DUP2 JUMP JUMPDEST CALLER PUSH20 0xFFFFFFFFFFFFFFFFFFFFFFFFFFFFFFFFFFFFFFFF AND PUSH1 0x0 DUP1 SLOAD SWAP1 PUSH2 0x100 EXP SWAP1 DIV PUSH20 0xFFFFFFFFFFFFFFFFFFFFFFFFFFFFFFFFFFFFFFFF AND PUSH20 0xFFFFFFFFFFFFFFFFFFFFFFFFFFFFFFFFFFFFFFFF AND EQ PUSH2 0x13AE JUMPI PUSH1 0x40 MLOAD PUSH32 0x8C379A000000000000000000000000000000000000000000000000000000000 DUP2 MSTORE PUSH1 0x4 ADD PUSH2 0x13A5 SWAP1 PUSH2 0x2E93 JUMP JUMPDEST PUSH1 0x40 MLOAD DUP1 SWAP2 SUB SWAP1 REVERT JUMPDEST PUSH1 0x0 PUSH20 0xFFFFFFFFFFFFFFFFFFFFFFFFFFFFFFFFFFFFFFFF AND PUSH1 0x0 DUP1 SLOAD SWAP1 PUSH2 0x100 EXP SWAP1 DIV PUSH20 0xFFFFFFFFFFFFFFFFFFFFFFFFFFFFFFFFFFFFFFFF AND PUSH20 0xFFFFFFFFFFFFFFFFFFFFFFFFFFFFFFFFFFFFFFFF AND PUSH32 0x8BE0079C531659141344CD1FD0A4F28419497F9722A3DAAFE3B4186F6B6457E0 PUSH1 0x40 MLOAD PUSH1 0x40 MLOAD DUP1 SWAP2 SUB SWAP1 LOG3 PUSH1 0x0 DUP1 PUSH1 0x0 PUSH2 0x100 EXP DUP2 SLOAD DUP2 PUSH20 0xFFFFFFFFFFFFFFFFFFFFFFFFFFFFFFFFFFFFFFFF MUL NOT AND SWAP1 DUP4 PUSH20 0xFFFFFFFFFFFFFFFFFFFFFFFFFFFFFFFFFFFFFFFF AND MUL OR SWAP1 SSTORE POP JUMP JUMPDEST PUSH1 0x7 SLOAD DUP2 JUMP JUMPDEST PUSH1 0x2 DUP2 LT PUSH2 0x14B5 JUMPI PUSH1 0x40 MLOAD PUSH32 0x8C379A000000000000000000000000000000000000000000000000000000000 DUP2 MSTORE PUSH1 0x4 ADD PUSH2 0x14AC SWAP1 PUSH2 0x2E25 JUMP JUMPDEST PUSH1 0x40 MLOAD DUP1 SWAP2 SUB SWAP1 REVERT JUMPDEST PUSH1 0x15 PUSH1 0x0 CALLER PUSH20 0xFFFFFFFFFFFFFFFFFFFFFFFFFFFFFFFFFFFFFFFF AND PUSH20 0xFFFFFFFFFFFFFFFFFFFFFFFFFFFFFFFFFFFFFFFF AND DUP2 MSTORE PUSH1 0x20 ADD SWAP1 DUP2 MSTORE PUSH1 0x20 ADD PUSH1 0x0 KECCAK256 PUSH1 0x0 ADD PUSH1 0x0 SWAP1 SLOAD SWAP1 PUSH2 0x100 EXP SWAP1 DIV PUSH1 0xFF AND PUSH2 0x157D JUMPI PUSH1 0x1 PUSH1 0x15 PUSH1 0x0 CALLER PUSH20 0xFFFFFFFFFFFFFFFFFFFFFFFFFFFFFFFFFFFFFFFF AND PUSH20 0xFFFFFFFFFFFFFFFFFFFFFFFFFFFFFFFFFFFFFFFF AND DUP2 MSTORE PUSH1 0x20 ADD SWAP1 DUP2 MSTORE PUSH1 0x20 ADD PUSH1 0x0 KECCAK256 PUSH1 0x0 ADD PUSH1 0x0 PUSH2 0x100 EXP DUP2 SLOAD DUP2 PUSH1 0xFF MUL NOT AND SWAP1 DUP4 ISZERO ISZERO MUL OR SWAP1 SSTORE POP PUSH1 0x8 PUSH1 0x0 DUP2 SLOAD DUP1 SWAP3 SWAP2 SWAP1 PUSH2 0x1577 SWAP1 PUSH2 0x3146 JUMP JUMPDEST SWAP2 SWAP1 POP SSTORE POP JUMPDEST PUSH1 0x0 DUP1 DUP3 EQ ISZERO PUSH2 0x17EA JUMPI PUSH1 0x10 SLOAD DUP4 LT ISZERO PUSH2 0x15CC JUMPI PUSH1 0x40 MLOAD PUSH32 0x8C379A000000000000000000000000000000000000000000000000000000000 DUP2 MSTORE PUSH1 0x4 ADD PUSH2 0x15C3 SWAP1 PUSH2 0x2E73 JUMP JUMPDEST PUSH1 0x40 MLOAD DUP1 SWAP2 SUB SWAP1 REVERT JUMPDEST PUSH1 0x3 PUSH1 0x0 SWAP1 SLOAD SWAP1 PUSH2 0x100 EXP SWAP1 DIV PUSH20 0xFFFFFFFFFFFFFFFFFFFFFFFFFFFFFFFFFFFFFFFF AND PUSH20 0xFFFFFFFFFFFFFFFFFFFFFFFFFFFFFFFFFFFFFFFF AND PUSH4 0x23B872DD CALLER ADDRESS DUP7 PUSH1 0x40 MLOAD DUP5 PUSH4 0xFFFFFFFF AND PUSH1 0xE0 SHL DUP2 MSTORE PUSH1 0x4 ADD PUSH2 0x162B SWAP4 SWAP3 SWAP2 SWAP1 PUSH2 0x2CD3 JUMP JUMPDEST PUSH1 0x20 PUSH1 0x40 MLOAD DUP1 DUP4 SUB DUP2 PUSH1 0x0 DUP8 DUP1 EXTCODESIZE ISZERO DUP1 ISZERO PUSH2 0x1645 JUMPI PUSH1 0x0 DUP1 REVERT JUMPDEST POP GAS CALL ISZERO DUP1 ISZERO PUSH2 0x1659 JUMPI RETURNDATASIZE PUSH1 0x0 DUP1 RETURNDATACOPY RETURNDATASIZE PUSH1 0x0 REVERT JUMPDEST POP POP POP POP PUSH1 0x40 MLOAD RETURNDATASIZE PUSH1 0x1F NOT PUSH1 0x1F DUP3 ADD AND DUP3 ADD DUP1 PUSH1 0x40 MSTORE POP DUP2 ADD SWAP1 PUSH2 0x167D SWAP2 SWAP1 PUSH2 0x2A81 JUMP JUMPDEST POP PUSH2 0x1687 CALLER PUSH2 0x6B7 JUMP JUMPDEST SWAP1 POP PUSH1 0x0 DUP2 GT ISZERO PUSH2 0x177C JUMPI PUSH2 0x16A5 DUP2 DUP5 PUSH2 0x25DA SWAP1 SWAP2 SWAP1 PUSH4 0xFFFFFFFF AND JUMP JUMPDEST SWAP3 POP PUSH1 0x3 PUSH1 0x0 SWAP1 SLOAD SWAP1 PUSH2 0x100 EXP SWAP1 DIV PUSH20 0xFFFFFFFFFFFFFFFFFFFFFFFFFFFFFFFFFFFFFFFF AND PUSH20 0xFFFFFFFFFFFFFFFFFFFFFFFFFFFFFFFFFFFFFFFF AND PUSH4 0x23B872DD PUSH1 0x1 PUSH1 0x0 SWAP1 SLOAD SWAP1 PUSH2 0x100 EXP SWAP1 DIV PUSH20 0xFFFFFFFFFFFFFFFFFFFFFFFFFFFFFFFFFFFFFFFF AND ADDRESS DUP5 PUSH1 0x40 MLOAD DUP5 PUSH4 0xFFFFFFFF AND PUSH1 0xE0 SHL DUP2 MSTORE PUSH1 0x4 ADD PUSH2 0x1728 SWAP4 SWAP3 SWAP2 SWAP1 PUSH2 0x2CD3 JUMP JUMPDEST PUSH1 0x20 PUSH1 0x40 MLOAD DUP1 DUP4 SUB DUP2 PUSH1 0x0 DUP8 DUP1 EXTCODESIZE ISZERO DUP1 ISZERO PUSH2 0x1742 JUMPI PUSH1 0x0 DUP1 REVERT JUMPDEST POP GAS CALL ISZERO DUP1 ISZERO PUSH2 0x1756 JUMPI RETURNDATASIZE PUSH1 0x0 DUP1 RETURNDATACOPY RETURNDATASIZE PUSH1 0x0 REVERT JUMPDEST POP POP POP POP PUSH1 0x40 MLOAD RETURNDATASIZE PUSH1 0x1F NOT PUSH1 0x1F DUP3 ADD AND DUP3 ADD DUP1 PUSH1 0x40 MSTORE POP DUP2 ADD SWAP1 PUSH2 0x177A SWAP2 SWAP1 PUSH2 0x2A81 JUMP JUMPDEST POP JUMPDEST PUSH2 0x1786 CALLER DUP5 PUSH2 0x25F0 JUMP JUMPDEST TIMESTAMP PUSH1 0x16 PUSH1 0x0 CALLER PUSH20 0xFFFFFFFFFFFFFFFFFFFFFFFFFFFFFFFFFFFFFFFF AND PUSH20 0xFFFFFFFFFFFFFFFFFFFFFFFFFFFFFFFFFFFFFFFF AND DUP2 MSTORE PUSH1 0x20 ADD SWAP1 DUP2 MSTORE PUSH1 0x20 ADD PUSH1 0x0 KECCAK256 PUSH1 0x3 ADD DUP2 SWAP1 SSTORE POP PUSH1 0x9 PUSH1 0x0 DUP2 SLOAD DUP1 SWAP3 SWAP2 SWAP1 PUSH2 0x17E0 SWAP1 PUSH2 0x3146 JUMP JUMPDEST SWAP2 SWAP1 POP SSTORE POP PUSH2 0x1A3E JUMP JUMPDEST PUSH1 0x11 SLOAD DUP4 LT ISZERO PUSH2 0x182F JUMPI PUSH1 0x40 MLOAD PUSH32 0x8C379A000000000000000000000000000000000000000000000000000000000 DUP2 MSTORE PUSH1 0x4 ADD PUSH2 0x1826 SWAP1 PUSH2 0x2E73 JUMP JUMPDEST PUSH1 0x40 MLOAD DUP1 SWAP2 SUB SWAP1 REVERT JUMPDEST PUSH1 0x2 PUSH1 0x0 SWAP1 SLOAD SWAP1 PUSH2 0x100 EXP SWAP1 DIV PUSH20 0xFFFFFFFFFFFFFFFFFFFFFFFFFFFFFFFFFFFFFFFF AND PUSH20 0xFFFFFFFFFFFFFFFFFFFFFFFFFFFFFFFFFFFFFFFF AND PUSH4 0x23B872DD CALLER ADDRESS DUP7 PUSH1 0x40 MLOAD DUP5 PUSH4 0xFFFFFFFF AND PUSH1 0xE0 SHL DUP2 MSTORE PUSH1 0x4 ADD PUSH2 0x188E SWAP4 SWAP3 SWAP2 SWAP1 PUSH2 0x2CD3 JUMP JUMPDEST PUSH1 0x20 PUSH1 0x40 MLOAD DUP1 DUP4 SUB DUP2 PUSH1 0x0 DUP8 DUP1 EXTCODESIZE ISZERO DUP1 ISZERO PUSH2 0x18A8 JUMPI PUSH1 0x0 DUP1 REVERT JUMPDEST POP GAS CALL ISZERO DUP1 ISZERO PUSH2 0x18BC JUMPI RETURNDATASIZE PUSH1 0x0 DUP1 RETURNDATACOPY RETURNDATASIZE PUSH1 0x0 REVERT JUMPDEST POP POP POP POP PUSH1 0x40 MLOAD RETURNDATASIZE PUSH1 0x1F NOT PUSH1 0x1F DUP3 ADD AND DUP3 ADD DUP1 PUSH1 0x40 MSTORE POP DUP2 ADD SWAP1 PUSH2 0x18E0 SWAP2 SWAP1 PUSH2 0x2A81 JUMP JUMPDEST POP PUSH2 0x18EA CALLER PUSH2 0x2015 JUMP JUMPDEST SWAP1 POP PUSH1 0x0 DUP2 GT ISZERO PUSH2 0x19D4 JUMPI PUSH1 0x3 PUSH1 0x0 SWAP1 SLOAD SWAP1 PUSH2 0x100 EXP SWAP1 DIV PUSH20 0xFFFFFFFFFFFFFFFFFFFFFFFFFFFFFFFFFFFFFFFF AND PUSH20 0xFFFFFFFFFFFFFFFFFFFFFFFFFFFFFFFFFFFFFFFF AND PUSH4 0x23B872DD PUSH1 0x1 PUSH1 0x0 SWAP1 SLOAD SWAP1 PUSH2 0x100 EXP SWAP1 DIV PUSH20 0xFFFFFFFFFFFFFFFFFFFFFFFFFFFFFFFFFFFFFFFF AND ADDRESS DUP5 PUSH1 0x40 MLOAD DUP5 PUSH4 0xFFFFFFFF AND PUSH1 0xE0 SHL DUP2 MSTORE PUSH1 0x4 ADD PUSH2 0x1976 SWAP4 SWAP3 SWAP2 SWAP1 PUSH2 0x2CD3 JUMP JUMPDEST PUSH1 0x20 PUSH1 0x40 MLOAD DUP1 DUP4 SUB DUP2 PUSH1 0x0 DUP8 DUP1 EXTCODESIZE ISZERO DUP1 ISZERO PUSH2 0x1990 JUMPI PUSH1 0x0 DUP1 REVERT JUMPDEST POP GAS CALL ISZERO DUP1 ISZERO PUSH2 0x19A4 JUMPI RETURNDATASIZE PUSH1 0x0 DUP1 RETURNDATACOPY RETURNDATASIZE PUSH1 0x0 REVERT JUMPDEST POP POP POP POP PUSH1 0x40 MLOAD RETURNDATASIZE PUSH1 0x1F NOT PUSH1 0x1F DUP3 ADD AND DUP3 ADD DUP1 PUSH1 0x40 MSTORE POP DUP2 ADD SWAP1 PUSH2 0x19C8 SWAP2 SWAP1 PUSH2 0x2A81 JUMP JUMPDEST POP PUSH2 0x19D3 CALLER DUP3 PUSH2 0x25F0 JUMP JUMPDEST JUMPDEST PUSH2 0x19DE CALLER DUP5 PUSH2 0x26F8 JUMP JUMPDEST TIMESTAMP PUSH1 0x17 PUSH1 0x0 CALLER PUSH20 0xFFFFFFFFFFFFFFFFFFFFFFFFFFFFFFFFFFFFFFFF AND PUSH20 0xFFFFFFFFFFFFFFFFFFFFFFFFFFFFFFFFFFFFFFFF AND DUP2 MSTORE PUSH1 0x20 ADD SWAP1 DUP2 MSTORE PUSH1 0x20 ADD PUSH1 0x0 KECCAK256 PUSH1 0x4 ADD DUP2 SWAP1 SSTORE POP PUSH1 0xA PUSH1 0x0 DUP2 SLOAD DUP1 SWAP3 SWAP2 SWAP1 PUSH2 0x1A38 SWAP1 PUSH2 0x3146 JUMP JUMPDEST SWAP2 SWAP1 POP SSTORE POP JUMPDEST PUSH32 0xA4E109BB7F03A3CBE671105FFECFC362319EAA88ECAF35997A4D3A2328D66D6C CALLER DUP5 PUSH1 0x40 MLOAD PUSH2 0x1A6F SWAP3 SWAP2 SWAP1 PUSH2 0x2D0A JUMP JUMPDEST PUSH1 0x40 MLOAD DUP1 SWAP2 SUB SWAP1 LOG1 POP POP POP JUMP JUMPDEST PUSH1 0x8 SLOAD DUP2 JUMP JUMPDEST PUSH1 0x5 SLOAD DUP2 JUMP JUMPDEST PUSH1 0x14 SLOAD DUP2 JUMP JUMPDEST PUSH1 0x2 PUSH1 0x0 SWAP1 SLOAD SWAP1 PUSH2 0x100 EXP SWAP1 DIV PUSH20 0xFFFFFFFFFFFFFFFFFFFFFFFFFFFFFFFFFFFFFFFF AND DUP2 JUMP JUMPDEST PUSH1 0x2 DUP2 LT PUSH2 0x1AF7 JUMPI PUSH1 0x40 MLOAD PUSH32 0x8C379A000000000000000000000000000000000000000000000000000000000 DUP2 MSTORE PUSH1 0x4 ADD PUSH2 0x1AEE SWAP1 PUSH2 0x2E25 JUMP JUMPDEST PUSH1 0x40 MLOAD DUP1 SWAP2 SUB SWAP1 REVERT JUMPDEST PUSH1 0x0 DUP1 DUP3 EQ ISZERO PUSH2 0x1BF9 JUMPI PUSH2 0x1B0A CALLER PUSH2 0x6B7 JUMP JUMPDEST SWAP1 POP PUSH1 0x0 DUP2 GT ISZERO PUSH2 0x1BF4 JUMPI PUSH1 0x3 PUSH1 0x0 SWAP1 SLOAD SWAP1 PUSH2 0x100 EXP SWAP1 DIV PUSH20 0xFFFFFFFFFFFFFFFFFFFFFFFFFFFFFFFFFFFFFFFF AND PUSH20 0xFFFFFFFFFFFFFFFFFFFFFFFFFFFFFFFFFFFFFFFF AND PUSH4 0x23B872DD PUSH1 0x1 PUSH1 0x0 SWAP1 SLOAD SWAP1 PUSH2 0x100 EXP SWAP1 DIV PUSH20 0xFFFFFFFFFFFFFFFFFFFFFFFFFFFFFFFFFFFFFFFF AND ADDRESS DUP5 PUSH1 0x40 MLOAD DUP5 PUSH4 0xFFFFFFFF AND PUSH1 0xE0 SHL DUP2 MSTORE PUSH1 0x4 ADD PUSH2 0x1B96 SWAP4 SWAP3 SWAP2 SWAP1 PUSH2 0x2CD3 JUMP JUMPDEST PUSH1 0x20 PUSH1 0x40 MLOAD DUP1 DUP4 SUB DUP2 PUSH1 0x0 DUP8 DUP1 EXTCODESIZE ISZERO DUP1 ISZERO PUSH2 0x1BB0 JUMPI PUSH1 0x0 DUP1 REVERT JUMPDEST POP GAS CALL ISZERO DUP1 ISZERO PUSH2 0x1BC4 JUMPI RETURNDATASIZE PUSH1 0x0 DUP1 RETURNDATACOPY RETURNDATASIZE PUSH1 0x0 REVERT JUMPDEST POP POP POP POP PUSH1 0x40 MLOAD RETURNDATASIZE PUSH1 0x1F NOT PUSH1 0x1F DUP3 ADD AND DUP3 ADD DUP1 PUSH1 0x40 MSTORE POP DUP2 ADD SWAP1 PUSH2 0x1BE8 SWAP2 SWAP1 PUSH2 0x2A81 JUMP JUMPDEST POP PUSH2 0x1BF3 CALLER DUP3 PUSH2 0x25F0 JUMP JUMPDEST JUMPDEST PUSH2 0x1CED JUMP JUMPDEST PUSH2 0x1C02 CALLER PUSH2 0x2015 JUMP JUMPDEST SWAP1 POP PUSH1 0x0 DUP2 GT ISZERO PUSH2 0x1CEC JUMPI PUSH1 0x3 PUSH1 0x0 SWAP1 SLOAD SWAP1 PUSH2 0x100 EXP SWAP1 DIV PUSH20 0xFFFFFFFFFFFFFFFFFFFFFFFFFFFFFFFFFFFFFFFF AND PUSH20 0xFFFFFFFFFFFFFFFFFFFFFFFFFFFFFFFFFFFFFFFF AND PUSH4 0x23B872DD PUSH1 0x1 PUSH1 0x0 SWAP1 SLOAD SWAP1 PUSH2 0x100 EXP SWAP1 DIV PUSH20 0xFFFFFFFFFFFFFFFFFFFFFFFFFFFFFFFFFFFFFFFF AND ADDRESS DUP5 PUSH1 0x40 MLOAD DUP5 PUSH4 0xFFFFFFFF AND PUSH1 0xE0 SHL DUP2 MSTORE PUSH1 0x4 ADD PUSH2 0x1C8E SWAP4 SWAP3 SWAP2 SWAP1 PUSH2 0x2CD3 JUMP JUMPDEST PUSH1 0x20 PUSH1 0x40 MLOAD DUP1 DUP4 SUB DUP2 PUSH1 0x0 DUP8 DUP1 EXTCODESIZE ISZERO DUP1 ISZERO PUSH2 0x1CA8 JUMPI PUSH1 0x0 DUP1 REVERT JUMPDEST POP GAS CALL ISZERO DUP1 ISZERO PUSH2 0x1CBC JUMPI RETURNDATASIZE PUSH1 0x0 DUP1 RETURNDATACOPY RETURNDATASIZE PUSH1 0x0 REVERT JUMPDEST POP POP POP POP PUSH1 0x40 MLOAD RETURNDATASIZE PUSH1 0x1F NOT PUSH1 0x1F DUP3 ADD AND DUP3 ADD DUP1 PUSH1 0x40 MSTORE POP DUP2 ADD SWAP1 PUSH2 0x1CE0 SWAP2 SWAP1 PUSH2 0x2A81 JUMP JUMPDEST POP PUSH2 0x1CEB CALLER DUP3 PUSH2 0x25F0 JUMP JUMPDEST JUMPDEST JUMPDEST PUSH32 0xADBF526534E0E4E9B9F583CA01AC5F059879DBAB284C48E9BFBEAB2EDA5911DB CALLER DUP3 PUSH1 0x40 MLOAD PUSH2 0x1D1E SWAP3 SWAP2 SWAP1 PUSH2 0x2D0A JUMP JUMPDEST PUSH1 0x40 MLOAD DUP1 SWAP2 SUB SWAP1 LOG1 POP POP JUMP JUMPDEST PUSH1 0x13 SLOAD DUP2 JUMP JUMPDEST PUSH1 0x0 DUP1 PUSH1 0x0 SWAP1 SLOAD SWAP1 PUSH2 0x100 EXP SWAP1 DIV PUSH20 0xFFFFFFFFFFFFFFFFFFFFFFFFFFFFFFFFFFFFFFFF AND SWAP1 POP SWAP1 JUMP JUMPDEST PUSH1 0xA SLOAD DUP2 JUMP JUMPDEST PUSH1 0x10 SLOAD DUP2 JUMP JUMPDEST PUSH1 0xD SLOAD DUP2 JUMP JUMPDEST PUSH1 0x1 PUSH1 0x0 SWAP1 SLOAD SWAP1 PUSH2 0x100 EXP SWAP1 DIV PUSH20 0xFFFFFFFFFFFFFFFFFFFFFFFFFFFFFFFFFFFFFFFF AND DUP2 JUMP JUMPDEST PUSH1 0x11 SLOAD DUP2 JUMP JUMPDEST PUSH1 0x6 SLOAD DUP2 JUMP JUMPDEST PUSH1 0x0 DUP1 PUSH1 0x0 DUP1 PUSH1 0x0 DUP1 PUSH1 0x17 PUSH1 0x0 DUP9 PUSH20 0xFFFFFFFFFFFFFFFFFFFFFFFFFFFFFFFFFFFFFFFF AND PUSH20 0xFFFFFFFFFFFFFFFFFFFFFFFFFFFFFFFFFFFFFFFF AND DUP2 MSTORE PUSH1 0x20 ADD SWAP1 DUP2 MSTORE PUSH1 0x20 ADD PUSH1 0x0 KECCAK256 SWAP1 POP DUP1 PUSH1 0x0 ADD SLOAD SWAP6 POP DUP1 PUSH1 0x1 ADD SLOAD SWAP5 POP DUP1 PUSH1 0x2 ADD SLOAD SWAP4 POP DUP1 PUSH1 0x3 ADD SLOAD SWAP3 POP DUP1 PUSH1 0x4 ADD SLOAD SWAP2 POP POP SWAP2 SWAP4 SWAP6 SWAP1 SWAP3 SWAP5 POP JUMP JUMPDEST PUSH1 0x4 SLOAD DUP2 JUMP JUMPDEST PUSH1 0x0 PUSH10 0xA968163F0A57B400000 PUSH1 0x3 PUSH1 0x0 SWAP1 SLOAD SWAP1 PUSH2 0x100 EXP SWAP1 DIV PUSH20 0xFFFFFFFFFFFFFFFFFFFFFFFFFFFFFFFFFFFFFFFF AND PUSH20 0xFFFFFFFFFFFFFFFFFFFFFFFFFFFFFFFFFFFFFFFF AND PUSH4 0x70A08231 PUSH1 0x1 PUSH1 0x0 SWAP1 SLOAD SWAP1 PUSH2 0x100 EXP SWAP1 DIV PUSH20 0xFFFFFFFFFFFFFFFFFFFFFFFFFFFFFFFFFFFFFFFF AND PUSH1 0x40 MLOAD DUP3 PUSH4 0xFFFFFFFF AND PUSH1 0xE0 SHL DUP2 MSTORE PUSH1 0x4 ADD PUSH2 0x1EA4 SWAP2 SWAP1 PUSH2 0x2CB8 JUMP JUMPDEST PUSH1 0x20 PUSH1 0x40 MLOAD DUP1 DUP4 SUB DUP2 DUP7 DUP1 EXTCODESIZE ISZERO DUP1 ISZERO PUSH2 0x1EBC JUMPI PUSH1 0x0 DUP1 REVERT JUMPDEST POP GAS STATICCALL ISZERO DUP1 ISZERO PUSH2 0x1ED0 JUMPI RETURNDATASIZE PUSH1 0x0 DUP1 RETURNDATACOPY RETURNDATASIZE PUSH1 0x0 REVERT JUMPDEST POP POP POP POP PUSH1 0x40 MLOAD RETURNDATASIZE PUSH1 0x1F NOT PUSH1 0x1F DUP3 ADD AND DUP3 ADD DUP1 PUSH1 0x40 MSTORE POP DUP2 ADD SWAP1 PUSH2 0x1EF4 SWAP2 SWAP1 PUSH2 0x2B2E JUMP JUMPDEST GT PUSH2 0x1F31 JUMPI PUSH32 0xEB89FAFB30AB93FA033B249ADCE098070CF3B3B989CD3F3D26664A9D4FDADD9B CALLER PUSH1 0x40 MLOAD PUSH2 0x1F28 SWAP2 SWAP1 PUSH2 0x2E45 JUMP JUMPDEST PUSH1 0x40 MLOAD DUP1 SWAP2 SUB SWAP1 LOG1 JUMPDEST PUSH1 0x1 SWAP1 POP SWAP1 JUMP JUMPDEST PUSH1 0x0 DUP1 PUSH1 0x2 PUSH1 0x0 SWAP1 SLOAD SWAP1 PUSH2 0x100 EXP SWAP1 DIV PUSH20 0xFFFFFFFFFFFFFFFFFFFFFFFFFFFFFFFFFFFFFFFF AND PUSH20 0xFFFFFFFFFFFFFFFFFFFFFFFFFFFFFFFFFFFFFFFF AND PUSH4 0x18160DDD PUSH1 0x40 MLOAD DUP2 PUSH4 0xFFFFFFFF AND PUSH1 0xE0 SHL DUP2 MSTORE PUSH1 0x4 ADD PUSH1 0x20 PUSH1 0x40 MLOAD DUP1 DUP4 SUB DUP2 DUP7 DUP1 EXTCODESIZE ISZERO DUP1 ISZERO PUSH2 0x1FA3 JUMPI PUSH1 0x0 DUP1 REVERT JUMPDEST POP GAS STATICCALL ISZERO DUP1 ISZERO PUSH2 0x1FB7 JUMPI RETURNDATASIZE PUSH1 0x0 DUP1 RETURNDATACOPY RETURNDATASIZE PUSH1 0x0 REVERT JUMPDEST POP POP POP POP PUSH1 0x40 MLOAD RETURNDATASIZE PUSH1 0x1F NOT PUSH1 0x1F DUP3 ADD AND DUP3 ADD DUP1 PUSH1 0x40 MSTORE POP DUP2 ADD SWAP1 PUSH2 0x1FDB SWAP2 SWAP1 PUSH2 0x2B2E JUMP JUMPDEST SWAP1 POP PUSH1 0x0 PUSH1 0x2 PUSH2 0x1FE9 PUSH2 0x21AA JUMP JUMPDEST PUSH2 0x1FF3 SWAP2 SWAP1 PUSH2 0x2FFE JUMP JUMPDEST SWAP1 POP DUP2 DUP5 DUP3 PUSH2 0x2002 SWAP2 SWAP1 PUSH2 0x2FFE JUMP JUMPDEST PUSH2 0x200C SWAP2 SWAP1 PUSH2 0x2FCD JUMP JUMPDEST SWAP3 POP POP POP SWAP2 SWAP1 POP JUMP JUMPDEST PUSH1 0x0 DUP1 PUSH1 0x17 PUSH1 0x0 DUP5 PUSH20 0xFFFFFFFFFFFFFFFFFFFFFFFFFFFFFFFFFFFFFFFF AND PUSH20 0xFFFFFFFFFFFFFFFFFFFFFFFFFFFFFFFFFFFFFFFF AND DUP2 MSTORE PUSH1 0x20 ADD SWAP1 DUP2 MSTORE PUSH1 0x20 ADD PUSH1 0x0 KECCAK256 SWAP1 POP PUSH1 0x0 PUSH2 0x2072 DUP3 PUSH1 0x2 ADD SLOAD TIMESTAMP PUSH2 0x2598 SWAP1 SWAP2 SWAP1 PUSH4 0xFFFFFFFF AND JUMP JUMPDEST SWAP1 POP PUSH2 0x4650 PUSH1 0x14 SLOAD PUSH2 0x2084 SWAP2 SWAP1 PUSH2 0x2F77 JUMP JUMPDEST TIMESTAMP GT PUSH2 0x20D0 JUMPI PUSH2 0x20C9 PUSH1 0xF SLOAD PUSH2 0x20BB PUSH1 0xD SLOAD PUSH2 0x20AD DUP6 DUP8 PUSH1 0x1 ADD SLOAD PUSH2 0x25AE SWAP1 SWAP2 SWAP1 PUSH4 0xFFFFFFFF AND JUMP JUMPDEST PUSH2 0x25AE SWAP1 SWAP2 SWAP1 PUSH4 0xFFFFFFFF AND JUMP JUMPDEST PUSH2 0x25C4 SWAP1 SWAP2 SWAP1 PUSH4 0xFFFFFFFF AND JUMP JUMPDEST SWAP3 POP PUSH2 0x212A JUMP JUMPDEST PUSH3 0x278D00 PUSH1 0x14 SLOAD PUSH2 0x20E1 SWAP2 SWAP1 PUSH2 0x2F77 JUMP JUMPDEST TIMESTAMP GT PUSH2 0x2129 JUMPI PUSH2 0x2126 PUSH1 0xF SLOAD PUSH2 0x2118 PUSH1 0xE SLOAD PUSH2 0x210A DUP6 DUP8 PUSH1 0x1 ADD SLOAD PUSH2 0x25AE SWAP1 SWAP2 SWAP1 PUSH4 0xFFFFFFFF AND JUMP JUMPDEST PUSH2 0x25AE SWAP1 SWAP2 SWAP1 PUSH4 0xFFFFFFFF AND JUMP JUMPDEST PUSH2 0x25C4 SWAP1 SWAP2 SWAP1 PUSH4 0xFFFFFFFF AND JUMP JUMPDEST SWAP3 POP JUMPDEST JUMPDEST POP POP SWAP2 SWAP1 POP JUMP JUMPDEST PUSH1 0xE SLOAD DUP2 JUMP JUMPDEST PUSH1 0xB SLOAD DUP2 JUMP JUMPDEST PUSH1 0x0 DUP1 PUSH1 0x0 DUP1 PUSH1 0x0 PUSH1 0x16 PUSH1 0x0 DUP8 PUSH20 0xFFFFFFFFFFFFFFFFFFFFFFFFFFFFFFFFFFFFFFFF AND PUSH20 0xFFFFFFFFFFFFFFFFFFFFFFFFFFFFFFFFFFFFFFFF AND DUP2 MSTORE PUSH1 0x20 ADD SWAP1 DUP2 MSTORE PUSH1 0x20 ADD PUSH1 0x0 KECCAK256 SWAP1 POP DUP1 PUSH1 0x0 ADD SLOAD SWAP5 POP DUP1 PUSH1 0x1 ADD SLOAD SWAP4 POP DUP1 PUSH1 0x2 ADD SLOAD SWAP3 POP DUP1 PUSH1 0x3 ADD SLOAD SWAP2 POP POP SWAP2 SWAP4 POP SWAP2 SWAP4 JUMP JUMPDEST PUSH1 0x0 DUP1 PUSH1 0x0 PUSH1 0x2 PUSH1 0x0 SWAP1 SLOAD SWAP1 PUSH2 0x100 EXP SWAP1 DIV PUSH20 0xFFFFFFFFFFFFFFFFFFFFFFFFFFFFFFFFFFFFFFFF AND PUSH20 0xFFFFFFFFFFFFFFFFFFFFFFFFFFFFFFFFFFFFFFFF AND PUSH4 0x902F1AC PUSH1 0x40 MLOAD DUP2 PUSH4 0xFFFFFFFF AND PUSH1 0xE0 SHL DUP2 MSTORE PUSH1 0x4 ADD PUSH1 0x60 PUSH1 0x40 MLOAD DUP1 DUP4 SUB DUP2 DUP7 DUP1 EXTCODESIZE ISZERO DUP1 ISZERO PUSH2 0x2217 JUMPI PUSH1 0x0 DUP1 REVERT JUMPDEST POP GAS STATICCALL ISZERO DUP1 ISZERO PUSH2 0x222B JUMPI RETURNDATASIZE PUSH1 0x0 DUP1 RETURNDATACOPY RETURNDATASIZE PUSH1 0x0 REVERT JUMPDEST POP POP POP POP PUSH1 0x40 MLOAD RETURNDATASIZE PUSH1 0x1F NOT PUSH1 0x1F DUP3 ADD AND DUP3 ADD DUP1 PUSH1 0x40 MSTORE POP DUP2 ADD SWAP1 PUSH2 0x224F SWAP2 SWAP1 PUSH2 0x2AAE JUMP JUMPDEST POP PUSH14 0xFFFFFFFFFFFFFFFFFFFFFFFFFFFF AND SWAP2 POP PUSH14 0xFFFFFFFFFFFFFFFFFFFFFFFFFFFF AND SWAP2 POP PUSH1 0x3 PUSH1 0x0 SWAP1 SLOAD SWAP1 PUSH2 0x100 EXP SWAP1 DIV PUSH20 0xFFFFFFFFFFFFFFFFFFFFFFFFFFFFFFFFFFFFFFFF AND PUSH20 0xFFFFFFFFFFFFFFFFFFFFFFFFFFFFFFFFFFFFFFFF AND PUSH1 0x2 PUSH1 0x0 SWAP1 SLOAD SWAP1 PUSH2 0x100 EXP SWAP1 DIV PUSH20 0xFFFFFFFFFFFFFFFFFFFFFFFFFFFFFFFFFFFFFFFF AND PUSH20 0xFFFFFFFFFFFFFFFFFFFFFFFFFFFFFFFFFFFFFFFF AND PUSH4 0xDFE1681 PUSH1 0x40 MLOAD DUP2 PUSH4 0xFFFFFFFF AND PUSH1 0xE0 SHL DUP2 MSTORE PUSH1 0x4 ADD PUSH1 0x20 PUSH1 0x40 MLOAD DUP1 DUP4 SUB DUP2 DUP7 DUP1 EXTCODESIZE ISZERO DUP1 ISZERO PUSH2 0x2315 JUMPI PUSH1 0x0 DUP1 REVERT JUMPDEST POP GAS STATICCALL ISZERO DUP1 ISZERO PUSH2 0x2329 JUMPI RETURNDATASIZE PUSH1 0x0 DUP1 RETURNDATACOPY RETURNDATASIZE PUSH1 0x0 REVERT JUMPDEST POP POP POP POP PUSH1 0x40 MLOAD RETURNDATASIZE PUSH1 0x1F NOT PUSH1 0x1F DUP3 ADD AND DUP3 ADD DUP1 PUSH1 0x40 MSTORE POP DUP2 ADD SWAP1 PUSH2 0x234D SWAP2 SWAP1 PUSH2 0x2A14 JUMP JUMPDEST PUSH20 0xFFFFFFFFFFFFFFFFFFFFFFFFFFFFFFFFFFFFFFFF AND EQ ISZERO PUSH2 0x2373 JUMPI DUP2 SWAP3 POP POP POP PUSH2 0x2379 JUMP JUMPDEST DUP1 SWAP3 POP POP POP JUMPDEST SWAP1 JUMP JUMPDEST CALLER PUSH20 0xFFFFFFFFFFFFFFFFFFFFFFFFFFFFFFFFFFFFFFFF AND PUSH1 0x0 DUP1 SLOAD SWAP1 PUSH2 0x100 EXP SWAP1 DIV PUSH20 0xFFFFFFFFFFFFFFFFFFFFFFFFFFFFFFFFFFFFFFFF AND PUSH20 0xFFFFFFFFFFFFFFFFFFFFFFFFFFFFFFFFFFFFFFFF AND EQ PUSH2 0x240A JUMPI PUSH1 0x40 MLOAD PUSH32 0x8C379A000000000000000000000000000000000000000000000000000000000 DUP2 MSTORE PUSH1 0x4 ADD PUSH2 0x2401 SWAP1 PUSH2 0x2E93 JUMP JUMPDEST PUSH1 0x40 MLOAD DUP1 SWAP2 SUB SWAP1 REVERT JUMPDEST PUSH2 0x2413 DUP2 PUSH2 0x2827 JUMP JUMPDEST POP JUMP JUMPDEST CALLER PUSH20 0xFFFFFFFFFFFFFFFFFFFFFFFFFFFFFFFFFFFFFFFF AND PUSH1 0x0 DUP1 SLOAD SWAP1 PUSH2 0x100 EXP SWAP1 DIV PUSH20 0xFFFFFFFFFFFFFFFFFFFFFFFFFFFFFFFFFFFFFFFF AND PUSH20 0xFFFFFFFFFFFFFFFFFFFFFFFFFFFFFFFFFFFFFFFF AND EQ PUSH2 0x24A4 JUMPI PUSH1 0x40 MLOAD PUSH32 0x8C379A000000000000000000000000000000000000000000000000000000000 DUP2 MSTORE PUSH1 0x4 ADD PUSH2 0x249B SWAP1 PUSH2 0x2E93 JUMP JUMPDEST PUSH1 0x40 MLOAD DUP1 SWAP2 SUB SWAP1 REVERT JUMPDEST TIMESTAMP PUSH1 0x14 DUP2 SWAP1 SSTORE POP DUP2 PUSH1 0x2 PUSH1 0x0 PUSH2 0x100 EXP DUP2 SLOAD DUP2 PUSH20 0xFFFFFFFFFFFFFFFFFFFFFFFFFFFFFFFFFFFFFFFF MUL NOT AND SWAP1 DUP4 PUSH20 0xFFFFFFFFFFFFFFFFFFFFFFFFFFFFFFFFFFFFFFFF AND MUL OR SWAP1 SSTORE POP DUP1 PUSH1 0x3 PUSH1 0x0 PUSH2 0x100 EXP DUP2 SLOAD DUP2 PUSH20 0xFFFFFFFFFFFFFFFFFFFFFFFFFFFFFFFFFFFFFFFF MUL NOT AND SWAP1 DUP4 PUSH20 0xFFFFFFFFFFFFFFFFFFFFFFFFFFFFFFFFFFFFFFFF AND MUL OR SWAP1 SSTORE POP DUP1 PUSH1 0x1 PUSH1 0x0 PUSH2 0x100 EXP DUP2 SLOAD DUP2 PUSH20 0xFFFFFFFFFFFFFFFFFFFFFFFFFFFFFFFFFFFFFFFF MUL NOT AND SWAP1 DUP4 PUSH20 0xFFFFFFFFFFFFFFFFFFFFFFFFFFFFFFFFFFFFFFFF AND MUL OR SWAP1 SSTORE POP POP POP JUMP JUMPDEST PUSH1 0x3 PUSH1 0x0 SWAP1 SLOAD SWAP1 PUSH2 0x100 EXP SWAP1 DIV PUSH20 0xFFFFFFFFFFFFFFFFFFFFFFFFFFFFFFFFFFFFFFFF AND DUP2 JUMP JUMPDEST PUSH1 0x0 DUP2 DUP4 PUSH2 0x25A6 SWAP2 SWAP1 PUSH2 0x3058 JUMP JUMPDEST SWAP1 POP SWAP3 SWAP2 POP POP JUMP JUMPDEST PUSH1 0x0 DUP2 DUP4 PUSH2 0x25BC SWAP2 SWAP1 PUSH2 0x2FFE JUMP JUMPDEST SWAP1 POP SWAP3 SWAP2 POP POP JUMP JUMPDEST PUSH1 0x0 DUP2 DUP4 PUSH2 0x25D2 SWAP2 SWAP1 PUSH2 0x2FCD JUMP JUMPDEST SWAP1 POP SWAP3 SWAP2 POP POP JUMP JUMPDEST PUSH1 0x0 DUP2 DUP4 PUSH2 0x25E8 SWAP2 SWAP1 PUSH2 0x2F77 JUMP JUMPDEST SWAP1 POP SWAP3 SWAP2 POP POP JUMP JUMPDEST PUSH1 0x0 PUSH1 0x15 PUSH1 0x0 DUP5 PUSH20 0xFFFFFFFFFFFFFFFFFFFFFFFFFFFFFFFFFFFFFFFF AND PUSH20 0xFFFFFFFFFFFFFFFFFFFFFFFFFFFFFFFFFFFFFFFF AND DUP2 MSTORE PUSH1 0x20 ADD SWAP1 DUP2 MSTORE PUSH1 0x20 ADD PUSH1 0x0 KECCAK256 SWAP1 POP PUSH1 0x0 PUSH1 0x16 PUSH1 0x0 DUP6 PUSH20 0xFFFFFFFFFFFFFFFFFFFFFFFFFFFFFFFFFFFFFFFF AND PUSH20 0xFFFFFFFFFFFFFFFFFFFFFFFFFFFFFFFFFFFFFFFF AND DUP2 MSTORE PUSH1 0x20 ADD SWAP1 DUP2 MSTORE PUSH1 0x20 ADD PUSH1 0x0 KECCAK256 SWAP1 POP PUSH2 0x268D DUP4 DUP3 PUSH1 0x0 ADD SLOAD PUSH2 0x25DA SWAP1 SWAP2 SWAP1 PUSH4 0xFFFFFFFF AND JUMP JUMPDEST DUP2 PUSH1 0x0 ADD DUP2 SWAP1 SSTORE POP TIMESTAMP DUP2 PUSH1 0x1 ADD DUP2 SWAP1 SSTORE POP DUP2 PUSH1 0x1 ADD PUSH1 0x0 DUP2 SLOAD DUP1 SWAP3 SWAP2 SWAP1 PUSH2 0x26B3 SWAP1 PUSH2 0x3146 JUMP JUMPDEST SWAP2 SWAP1 POP SSTORE POP PUSH2 0x26CF DUP4 DUP4 PUSH1 0x2 ADD SLOAD PUSH2 0x25DA SWAP1 SWAP2 SWAP1 PUSH4 0xFFFFFFFF AND JUMP JUMPDEST DUP3 PUSH1 0x2 ADD DUP2 SWAP1 SSTORE POP PUSH2 0x26EC DUP4 PUSH1 0x4 SLOAD PUSH2 0x25DA SWAP1 SWAP2 SWAP1 PUSH4 0xFFFFFFFF AND JUMP JUMPDEST PUSH1 0x4 DUP2 SWAP1 SSTORE POP POP POP POP POP JUMP JUMPDEST PUSH1 0x0 PUSH1 0x15 PUSH1 0x0 DUP5 PUSH20 0xFFFFFFFFFFFFFFFFFFFFFFFFFFFFFFFFFFFFFFFF AND PUSH20 0xFFFFFFFFFFFFFFFFFFFFFFFFFFFFFFFFFFFFFFFF AND DUP2 MSTORE PUSH1 0x20 ADD SWAP1 DUP2 MSTORE PUSH1 0x20 ADD PUSH1 0x0 KECCAK256 SWAP1 POP PUSH1 0x0 PUSH1 0x17 PUSH1 0x0 DUP6 PUSH20 0xFFFFFFFFFFFFFFFFFFFFFFFFFFFFFFFFFFFFFFFF AND PUSH20 0xFFFFFFFFFFFFFFFFFFFFFFFFFFFFFFFFFFFFFFFF AND DUP2 MSTORE PUSH1 0x20 ADD SWAP1 DUP2 MSTORE PUSH1 0x20 ADD PUSH1 0x0 KECCAK256 SWAP1 POP PUSH2 0x2795 DUP4 DUP3 PUSH1 0x0 ADD SLOAD PUSH2 0x25DA SWAP1 SWAP2 SWAP1 PUSH4 0xFFFFFFFF AND JUMP JUMPDEST DUP2 PUSH1 0x0 ADD DUP2 SWAP1 SSTORE POP PUSH2 0x27BC PUSH2 0x27A9 DUP5 PUSH2 0x1F38 JUMP JUMPDEST DUP3 PUSH1 0x1 ADD SLOAD PUSH2 0x25DA SWAP1 SWAP2 SWAP1 PUSH4 0xFFFFFFFF AND JUMP JUMPDEST DUP2 PUSH1 0x1 ADD DUP2 SWAP1 SSTORE POP TIMESTAMP DUP2 PUSH1 0x2 ADD DUP2 SWAP1 SSTORE POP DUP2 PUSH1 0x1 ADD PUSH1 0x0 DUP2 SLOAD DUP1 SWAP3 SWAP2 SWAP1 PUSH2 0x27E2 SWAP1 PUSH2 0x3146 JUMP JUMPDEST SWAP2 SWAP1 POP SSTORE POP PUSH2 0x27FE DUP4 DUP4 PUSH1 0x3 ADD SLOAD PUSH2 0x25DA SWAP1 SWAP2 SWAP1 PUSH4 0xFFFFFFFF AND JUMP JUMPDEST DUP3 PUSH1 0x3 ADD DUP2 SWAP1 SSTORE POP PUSH2 0x281B DUP4 PUSH1 0x5 SLOAD PUSH2 0x25DA SWAP1 SWAP2 SWAP1 PUSH4 0xFFFFFFFF AND JUMP JUMPDEST PUSH1 0x5 DUP2 SWAP1 SSTORE POP POP POP POP POP JUMP JUMPDEST PUSH1 0x0 PUSH20 0xFFFFFFFFFFFFFFFFFFFFFFFFFFFFFFFFFFFFFFFF AND DUP2 PUSH20 0xFFFFFFFFFFFFFFFFFFFFFFFFFFFFFFFFFFFFFFFF AND EQ ISZERO PUSH2 0x2897 JUMPI PUSH1 0x40 MLOAD PUSH32 0x8C379A000000000000000000000000000000000000000000000000000000000 DUP2 MSTORE PUSH1 0x4 ADD PUSH2 0x288E SWAP1 PUSH2 0x2E05 JUMP JUMPDEST PUSH1 0x40 MLOAD DUP1 SWAP2 SUB SWAP1 REVERT JUMPDEST DUP1 PUSH20 0xFFFFFFFFFFFFFFFFFFFFFFFFFFFFFFFFFFFFFFFF AND PUSH1 0x0 DUP1 SLOAD SWAP1 PUSH2 0x100 EXP SWAP1 DIV PUSH20 0xFFFFFFFFFFFFFFFFFFFFFFFFFFFFFFFFFFFFFFFF AND PUSH20 0xFFFFFFFFFFFFFFFFFFFFFFFFFFFFFFFFFFFFFFFF AND PUSH32 0x8BE0079C531659141344CD1FD0A4F28419497F9722A3DAAFE3B4186F6B6457E0 PUSH1 0x40 MLOAD PUSH1 0x40 MLOAD DUP1 SWAP2 SUB SWAP1 LOG3 DUP1 PUSH1 0x0 DUP1 PUSH2 0x100 EXP DUP2 SLOAD DUP2 PUSH20 0xFFFFFFFFFFFFFFFFFFFFFFFFFFFFFFFFFFFFFFFF MUL NOT AND SWAP1 DUP4 PUSH20 0xFFFFFFFFFFFFFFFFFFFFFFFFFFFFFFFFFFFFFFFF AND MUL OR SWAP1 SSTORE POP POP JUMP JUMPDEST PUSH1 0x0 DUP2 CALLDATALOAD SWAP1 POP PUSH2 0x2963 DUP2 PUSH2 0x330E JUMP JUMPDEST SWAP3 SWAP2 POP POP JUMP JUMPDEST PUSH1 0x0 DUP2 MLOAD SWAP1 POP PUSH2 0x2978 DUP2 PUSH2 0x330E JUMP JUMPDEST SWAP3 SWAP2 POP POP JUMP JUMPDEST PUSH1 0x0 DUP2 MLOAD SWAP1 POP PUSH2 0x298D DUP2 PUSH2 0x3325 JUMP JUMPDEST SWAP3 SWAP2 POP POP JUMP JUMPDEST PUSH1 0x0 DUP2 MLOAD SWAP1 POP PUSH2 0x29A2 DUP2 PUSH2 0x333C JUMP JUMPDEST SWAP3 SWAP2 POP POP JUMP JUMPDEST PUSH1 0x0 DUP2 CALLDATALOAD SWAP1 POP PUSH2 0x29B7 DUP2 PUSH2 0x3353 JUMP JUMPDEST SWAP3 SWAP2 POP POP JUMP JUMPDEST PUSH1 0x0 DUP2 MLOAD SWAP1 POP PUSH2 0x29CC DUP2 PUSH2 0x3353 JUMP JUMPDEST SWAP3 SWAP2 POP POP JUMP JUMPDEST PUSH1 0x0 DUP2 MLOAD SWAP1 POP PUSH2 0x29E1 DUP2 PUSH2 0x336A JUMP JUMPDEST SWAP3 SWAP2 POP POP JUMP JUMPDEST PUSH1 0x0 PUSH1 0x20 DUP3 DUP5 SUB SLT ISZERO PUSH2 0x29FD JUMPI PUSH2 0x29FC PUSH2 0x31ED JUMP JUMPDEST JUMPDEST PUSH1 0x0 PUSH2 0x2A0B DUP5 DUP3 DUP6 ADD PUSH2 0x2954 JUMP JUMPDEST SWAP2 POP POP SWAP3 SWAP2 POP POP JUMP JUMPDEST PUSH1 0x0 PUSH1 0x20 DUP3 DUP5 SUB SLT ISZERO PUSH2 0x2A2A JUMPI PUSH2 0x2A29 PUSH2 0x31ED JUMP JUMPDEST JUMPDEST PUSH1 0x0 PUSH2 0x2A38 DUP5 DUP3 DUP6 ADD PUSH2 0x2969 JUMP JUMPDEST SWAP2 POP POP SWAP3 SWAP2 POP POP JUMP JUMPDEST PUSH1 0x0 DUP1 PUSH1 0x40 DUP4 DUP6 SUB SLT ISZERO PUSH2 0x2A58 JUMPI PUSH2 0x2A57 PUSH2 0x31ED JUMP JUMPDEST JUMPDEST PUSH1 0x0 PUSH2 0x2A66 DUP6 DUP3 DUP7 ADD PUSH2 0x2954 JUMP JUMPDEST SWAP3 POP POP PUSH1 0x20 PUSH2 0x2A77 DUP6 DUP3 DUP7 ADD PUSH2 0x2954 JUMP JUMPDEST SWAP2 POP POP SWAP3 POP SWAP3 SWAP1 POP JUMP JUMPDEST PUSH1 0x0 PUSH1 0x20 DUP3 DUP5 SUB SLT ISZERO PUSH2 0x2A97 JUMPI PUSH2 0x2A96 PUSH2 0x31ED JUMP JUMPDEST JUMPDEST PUSH1 0x0 PUSH2 0x2AA5 DUP5 DUP3 DUP6 ADD PUSH2 0x297E JUMP JUMPDEST SWAP2 POP POP SWAP3 SWAP2 POP POP JUMP JUMPDEST PUSH1 0x0 DUP1 PUSH1 0x0 PUSH1 0x60 DUP5 DUP7 SUB SLT ISZERO PUSH2 0x2AC7 JUMPI PUSH2 0x2AC6 PUSH2 0x31ED JUMP JUMPDEST JUMPDEST PUSH1 0x0 PUSH2 0x2AD5 DUP7 DUP3 DUP8 ADD PUSH2 0x2993 JUMP JUMPDEST SWAP4 POP POP PUSH1 0x20 PUSH2 0x2AE6 DUP7 DUP3 DUP8 ADD PUSH2 0x2993 JUMP JUMPDEST SWAP3 POP POP PUSH1 0x40 PUSH2 0x2AF7 DUP7 DUP3 DUP8 ADD PUSH2 0x29D2 JUMP JUMPDEST SWAP2 POP POP SWAP3 POP SWAP3 POP SWAP3 JUMP JUMPDEST PUSH1 0x0 PUSH1 0x20 DUP3 DUP5 SUB SLT ISZERO PUSH2 0x2B17 JUMPI PUSH2 0x2B16 PUSH2 0x31ED JUMP JUMPDEST JUMPDEST PUSH1 0x0 PUSH2 0x2B25 DUP5 DUP3 DUP6 ADD PUSH2 0x29A8 JUMP JUMPDEST SWAP2 POP POP SWAP3 SWAP2 POP POP JUMP JUMPDEST PUSH1 0x0 PUSH1 0x20 DUP3 DUP5 SUB SLT ISZERO PUSH2 0x2B44 JUMPI PUSH2 0x2B43 PUSH2 0x31ED JUMP JUMPDEST JUMPDEST PUSH1 0x0 PUSH2 0x2B52 DUP5 DUP3 DUP6 ADD PUSH2 0x29BD JUMP JUMPDEST SWAP2 POP POP SWAP3 SWAP2 POP POP JUMP JUMPDEST PUSH1 0x0 DUP1 PUSH1 0x40 DUP4 DUP6 SUB SLT ISZERO PUSH2 0x2B72 JUMPI PUSH2 0x2B71 PUSH2 0x31ED JUMP JUMPDEST JUMPDEST PUSH1 0x0 PUSH2 0x2B80 DUP6 DUP3 DUP7 ADD PUSH2 0x29A8 JUMP JUMPDEST SWAP3 POP POP PUSH1 0x20 PUSH2 0x2B91 DUP6 DUP3 DUP7 ADD PUSH2 0x29A8 JUMP JUMPDEST SWAP2 POP POP SWAP3 POP SWAP3 SWAP1 POP JUMP JUMPDEST PUSH2 0x2BA4 DUP2 PUSH2 0x308C JUMP JUMPDEST DUP3 MSTORE POP POP JUMP JUMPDEST PUSH2 0x2BB3 DUP2 PUSH2 0x309E JUMP JUMPDEST DUP3 MSTORE POP POP JUMP JUMPDEST PUSH2 0x2BC2 DUP2 PUSH2 0x30FE JUMP JUMPDEST DUP3 MSTORE POP POP JUMP JUMPDEST PUSH2 0x2BD1 DUP2 PUSH2 0x3110 JUMP JUMPDEST DUP3 MSTORE POP POP JUMP JUMPDEST PUSH1 0x0 PUSH2 0x2BE4 PUSH1 0xD DUP4 PUSH2 0x2F66 JUMP JUMPDEST SWAP2 POP PUSH2 0x2BEF DUP3 PUSH2 0x31F2 JUMP JUMPDEST PUSH1 0x20 DUP3 ADD SWAP1 POP SWAP2 SWAP1 POP JUMP JUMPDEST PUSH1 0x0 PUSH2 0x2C07 PUSH1 0x26 DUP4 PUSH2 0x2F66 JUMP JUMPDEST SWAP2 POP PUSH2 0x2C12 DUP3 PUSH2 0x321B JUMP JUMPDEST PUSH1 0x40 DUP3 ADD SWAP1 POP SWAP2 SWAP1 POP JUMP JUMPDEST PUSH1 0x0 PUSH2 0x2C2A PUSH1 0xD DUP4 PUSH2 0x2F66 JUMP JUMPDEST SWAP2 POP PUSH2 0x2C35 DUP3 PUSH2 0x326A JUMP JUMPDEST PUSH1 0x20 DUP3 ADD SWAP1 POP SWAP2 SWAP1 POP JUMP JUMPDEST PUSH1 0x0 PUSH2 0x2C4D PUSH1 0x7 DUP4 PUSH2 0x2F66 JUMP JUMPDEST SWAP2 POP PUSH2 0x2C58 DUP3 PUSH2 0x3293 JUMP JUMPDEST PUSH1 0x20 DUP3 ADD SWAP1 POP SWAP2 SWAP1 POP JUMP JUMPDEST PUSH1 0x0 PUSH2 0x2C70 PUSH1 0x1A DUP4 PUSH2 0x2F66 JUMP JUMPDEST SWAP2 POP PUSH2 0x2C7B DUP3 PUSH2 0x32BC JUMP JUMPDEST PUSH1 0x20 DUP3 ADD SWAP1 POP SWAP2 SWAP1 POP JUMP JUMPDEST PUSH1 0x0 PUSH2 0x2C93 PUSH1 0x20 DUP4 PUSH2 0x2F66 JUMP JUMPDEST SWAP2 POP PUSH2 0x2C9E DUP3 PUSH2 0x32E5 JUMP JUMPDEST PUSH1 0x20 DUP3 ADD SWAP1 POP SWAP2 SWAP1 POP JUMP JUMPDEST PUSH2 0x2CB2 DUP2 PUSH2 0x30E4 JUMP JUMPDEST DUP3 MSTORE POP POP JUMP JUMPDEST PUSH1 0x0 PUSH1 0x20 DUP3 ADD SWAP1 POP PUSH2 0x2CCD PUSH1 0x0 DUP4 ADD DUP5 PUSH2 0x2B9B JUMP JUMPDEST SWAP3 SWAP2 POP POP JUMP JUMPDEST PUSH1 0x0 PUSH1 0x60 DUP3 ADD SWAP1 POP PUSH2 0x2CE8 PUSH1 0x0 DUP4 ADD DUP7 PUSH2 0x2B9B JUMP JUMPDEST PUSH2 0x2CF5 PUSH1 0x20 DUP4 ADD DUP6 PUSH2 0x2B9B JUMP JUMPDEST PUSH2 0x2D02 PUSH1 0x40 DUP4 ADD DUP5 PUSH2 0x2CA9 JUMP JUMPDEST SWAP5 SWAP4 POP POP POP POP JUMP JUMPDEST PUSH1 0x0 PUSH1 0x40 DUP3 ADD SWAP1 POP PUSH2 0x2D1F PUSH1 0x0 DUP4 ADD DUP6 PUSH2 0x2B9B JUMP JUMPDEST PUSH2 0x2D2C PUSH1 0x20 DUP4 ADD DUP5 PUSH2 0x2CA9 JUMP JUMPDEST SWAP4 SWAP3 POP POP POP JUMP JUMPDEST PUSH1 0x0 PUSH1 0x20 DUP3 ADD SWAP1 POP PUSH2 0x2D48 PUSH1 0x0 DUP4 ADD DUP5 PUSH2 0x2BAA JUMP JUMPDEST SWAP3 SWAP2 POP POP JUMP JUMPDEST PUSH1 0x0 PUSH1 0xC0 DUP3 ADD SWAP1 POP PUSH2 0x2D63 PUSH1 0x0 DUP4 ADD DUP10 PUSH2 0x2BAA JUMP JUMPDEST PUSH2 0x2D70 PUSH1 0x20 DUP4 ADD DUP9 PUSH2 0x2CA9 JUMP JUMPDEST PUSH2 0x2D7D PUSH1 0x40 DUP4 ADD DUP8 PUSH2 0x2CA9 JUMP JUMPDEST PUSH2 0x2D8A PUSH1 0x60 DUP4 ADD DUP7 PUSH2 0x2CA9 JUMP JUMPDEST PUSH2 0x2D97 PUSH1 0x80 DUP4 ADD DUP6 PUSH2 0x2CA9 JUMP JUMPDEST PUSH2 0x2DA4 PUSH1 0xA0 DUP4 ADD DUP5 PUSH2 0x2CA9 JUMP JUMPDEST SWAP8 SWAP7 POP POP POP POP POP POP POP JUMP JUMPDEST PUSH1 0x0 PUSH1 0x20 DUP3 ADD SWAP1 POP PUSH2 0x2DC4 PUSH1 0x0 DUP4 ADD DUP5 PUSH2 0x2BB9 JUMP JUMPDEST SWAP3 SWAP2 POP POP JUMP JUMPDEST PUSH1 0x0 PUSH1 0x20 DUP3 ADD SWAP1 POP PUSH2 0x2DDF PUSH1 0x0 DUP4 ADD DUP5 PUSH2 0x2BC8 JUMP JUMPDEST SWAP3 SWAP2 POP POP JUMP JUMPDEST PUSH1 0x0 PUSH1 0x20 DUP3 ADD SWAP1 POP DUP2 DUP2 SUB PUSH1 0x0 DUP4 ADD MSTORE PUSH2 0x2DFE DUP2 PUSH2 0x2BD7 JUMP JUMPDEST SWAP1 POP SWAP2 SWAP1 POP JUMP JUMPDEST PUSH1 0x0 PUSH1 0x20 DUP3 ADD SWAP1 POP DUP2 DUP2 SUB PUSH1 0x0 DUP4 ADD MSTORE PUSH2 0x2E1E DUP2 PUSH2 0x2BFA JUMP JUMPDEST SWAP1 POP SWAP2 SWAP1 POP JUMP JUMPDEST PUSH1 0x0 PUSH1 0x20 DUP3 ADD SWAP1 POP DUP2 DUP2 SUB PUSH1 0x0 DUP4 ADD MSTORE PUSH2 0x2E3E DUP2 PUSH2 0x2C1D JUMP JUMPDEST SWAP1 POP SWAP2 SWAP1 POP JUMP JUMPDEST PUSH1 0x0 PUSH1 0x40 DUP3 ADD SWAP1 POP DUP2 DUP2 SUB PUSH1 0x0 DUP4 ADD MSTORE PUSH2 0x2E5E DUP2 PUSH2 0x2C40 JUMP JUMPDEST SWAP1 POP PUSH2 0x2E6D PUSH1 0x20 DUP4 ADD DUP5 PUSH2 0x2B9B JUMP JUMPDEST SWAP3 SWAP2 POP POP JUMP JUMPDEST PUSH1 0x0 PUSH1 0x20 DUP3 ADD SWAP1 POP DUP2 DUP2 SUB PUSH1 0x0 DUP4 ADD MSTORE PUSH2 0x2E8C DUP2 PUSH2 0x2C63 JUMP JUMPDEST SWAP1 POP SWAP2 SWAP1 POP JUMP JUMPDEST PUSH1 0x0 PUSH1 0x20 DUP3 ADD SWAP1 POP DUP2 DUP2 SUB PUSH1 0x0 DUP4 ADD MSTORE PUSH2 0x2EAC DUP2 PUSH2 0x2C86 JUMP JUMPDEST SWAP1 POP SWAP2 SWAP1 POP JUMP JUMPDEST PUSH1 0x0 PUSH1 0x20 DUP3 ADD SWAP1 POP PUSH2 0x2EC8 PUSH1 0x0 DUP4 ADD DUP5 PUSH2 0x2CA9 JUMP JUMPDEST SWAP3 SWAP2 POP POP JUMP JUMPDEST PUSH1 0x0 PUSH1 0x80 DUP3 ADD SWAP1 POP PUSH2 0x2EE3 PUSH1 0x0 DUP4 ADD DUP8 PUSH2 0x2CA9 JUMP JUMPDEST PUSH2 0x2EF0 PUSH1 0x20 DUP4 ADD DUP7 PUSH2 0x2CA9 JUMP JUMPDEST PUSH2 0x2EFD PUSH1 0x40 DUP4 ADD DUP6 PUSH2 0x2CA9 JUMP JUMPDEST PUSH2 0x2F0A PUSH1 0x60 DUP4 ADD DUP5 PUSH2 0x2CA9 JUMP JUMPDEST SWAP6 SWAP5 POP POP POP POP POP JUMP JUMPDEST PUSH1 0x0 PUSH1 0xA0 DUP3 ADD SWAP1 POP PUSH2 0x2F28 PUSH1 0x0 DUP4 ADD DUP9 PUSH2 0x2CA9 JUMP JUMPDEST PUSH2 0x2F35 PUSH1 0x20 DUP4 ADD DUP8 PUSH2 0x2CA9 JUMP JUMPDEST PUSH2 0x2F42 PUSH1 0x40 DUP4 ADD DUP7 PUSH2 0x2CA9 JUMP JUMPDEST PUSH2 0x2F4F PUSH1 0x60 DUP4 ADD DUP6 PUSH2 0x2CA9 JUMP JUMPDEST PUSH2 0x2F5C PUSH1 0x80 DUP4 ADD DUP5 PUSH2 0x2CA9 JUMP JUMPDEST SWAP7 SWAP6 POP POP POP POP POP POP JUMP JUMPDEST PUSH1 0x0 DUP3 DUP3 MSTORE PUSH1 0x20 DUP3 ADD SWAP1 POP SWAP3 SWAP2 POP POP JUMP JUMPDEST PUSH1 0x0 PUSH2 0x2F82 DUP3 PUSH2 0x30E4 JUMP JUMPDEST SWAP2 POP PUSH2 0x2F8D DUP4 PUSH2 0x30E4 JUMP JUMPDEST SWAP3 POP DUP3 PUSH32 0xFFFFFFFFFFFFFFFFFFFFFFFFFFFFFFFFFFFFFFFFFFFFFFFFFFFFFFFFFFFFFFFF SUB DUP3 GT ISZERO PUSH2 0x2FC2 JUMPI PUSH2 0x2FC1 PUSH2 0x318F JUMP JUMPDEST JUMPDEST DUP3 DUP3 ADD SWAP1 POP SWAP3 SWAP2 POP POP JUMP JUMPDEST PUSH1 0x0 PUSH2 0x2FD8 DUP3 PUSH2 0x30E4 JUMP JUMPDEST SWAP2 POP PUSH2 0x2FE3 DUP4 PUSH2 0x30E4 JUMP JUMPDEST SWAP3 POP DUP3 PUSH2 0x2FF3 JUMPI PUSH2 0x2FF2 PUSH2 0x31BE JUMP JUMPDEST JUMPDEST DUP3 DUP3 DIV SWAP1 POP SWAP3 SWAP2 POP POP JUMP JUMPDEST PUSH1 0x0 PUSH2 0x3009 DUP3 PUSH2 0x30E4 JUMP JUMPDEST SWAP2 POP PUSH2 0x3014 DUP4 PUSH2 0x30E4 JUMP JUMPDEST SWAP3 POP DUP2 PUSH32 0xFFFFFFFFFFFFFFFFFFFFFFFFFFFFFFFFFFFFFFFFFFFFFFFFFFFFFFFFFFFFFFFF DIV DUP4 GT DUP3 ISZERO ISZERO AND ISZERO PUSH2 0x304D JUMPI PUSH2 0x304C PUSH2 0x318F JUMP JUMPDEST JUMPDEST DUP3 DUP3 MUL SWAP1 POP SWAP3 SWAP2 POP POP JUMP JUMPDEST PUSH1 0x0 PUSH2 0x3063 DUP3 PUSH2 0x30E4 JUMP JUMPDEST SWAP2 POP PUSH2 0x306E DUP4 PUSH2 0x30E4 JUMP JUMPDEST SWAP3 POP DUP3 DUP3 LT ISZERO PUSH2 0x3081 JUMPI PUSH2 0x3080 PUSH2 0x318F JUMP JUMPDEST JUMPDEST DUP3 DUP3 SUB SWAP1 POP SWAP3 SWAP2 POP POP JUMP JUMPDEST PUSH1 0x0 PUSH2 0x3097 DUP3 PUSH2 0x30C4 JUMP JUMPDEST SWAP1 POP SWAP2 SWAP1 POP JUMP JUMPDEST PUSH1 0x0 DUP2 ISZERO ISZERO SWAP1 POP SWAP2 SWAP1 POP JUMP JUMPDEST PUSH1 0x0 PUSH14 0xFFFFFFFFFFFFFFFFFFFFFFFFFFFF DUP3 AND SWAP1 POP SWAP2 SWAP1 POP JUMP JUMPDEST PUSH1 0x0 PUSH20 0xFFFFFFFFFFFFFFFFFFFFFFFFFFFFFFFFFFFFFFFF DUP3 AND SWAP1 POP SWAP2 SWAP1 POP JUMP JUMPDEST PUSH1 0x0 DUP2 SWAP1 POP SWAP2 SWAP1 POP JUMP JUMPDEST PUSH1 0x0 PUSH4 0xFFFFFFFF DUP3 AND SWAP1 POP SWAP2 SWAP1 POP JUMP JUMPDEST PUSH1 0x0 PUSH2 0x3109 DUP3 PUSH2 0x3122 JUMP JUMPDEST SWAP1 POP SWAP2 SWAP1 POP JUMP JUMPDEST PUSH1 0x0 PUSH2 0x311B DUP3 PUSH2 0x3122 JUMP JUMPDEST SWAP1 POP SWAP2 SWAP1 POP JUMP JUMPDEST PUSH1 0x0 PUSH2 0x312D DUP3 PUSH2 0x3134 JUMP JUMPDEST SWAP1 POP SWAP2 SWAP1 POP JUMP JUMPDEST PUSH1 0x0 PUSH2 0x313F DUP3 PUSH2 0x30C4 JUMP JUMPDEST SWAP1 POP SWAP2 SWAP1 POP JUMP JUMPDEST PUSH1 0x0 PUSH2 0x3151 DUP3 PUSH2 0x30E4 JUMP JUMPDEST SWAP2 POP PUSH32 0xFFFFFFFFFFFFFFFFFFFFFFFFFFFFFFFFFFFFFFFFFFFFFFFFFFFFFFFFFFFFFFFF DUP3 EQ ISZERO PUSH2 0x3184 JUMPI PUSH2 0x3183 PUSH2 0x318F JUMP JUMPDEST JUMPDEST PUSH1 0x1 DUP3 ADD SWAP1 POP SWAP2 SWAP1 POP JUMP JUMPDEST PUSH32 0x4E487B7100000000000000000000000000000000000000000000000000000000 PUSH1 0x0 MSTORE PUSH1 0x11 PUSH1 0x4 MSTORE PUSH1 0x24 PUSH1 0x0 REVERT JUMPDEST PUSH32 0x4E487B7100000000000000000000000000000000000000000000000000000000 PUSH1 0x0 MSTORE PUSH1 0x12 PUSH1 0x4 MSTORE PUSH1 0x24 PUSH1 0x0 REVERT JUMPDEST PUSH1 0x0 DUP1 REVERT JUMPDEST PUSH32 0x6E6F207265776172642079657400000000000000000000000000000000000000 PUSH1 0x0 DUP3 ADD MSTORE POP JUMP JUMPDEST PUSH32 0x4F776E61626C653A206E6577206F776E657220697320746865207A65726F2061 PUSH1 0x0 DUP3 ADD MSTORE PUSH32 0x6464726573730000000000000000000000000000000000000000000000000000 PUSH1 0x20 DUP3 ADD MSTORE POP JUMP JUMPDEST PUSH32 0x496E76616C696420696E64657800000000000000000000000000000000000000 PUSH1 0x0 DUP3 ADD MSTORE POP JUMP JUMPDEST PUSH32 0x7375636365736500000000000000000000000000000000000000000000000000 PUSH1 0x0 DUP3 ADD MSTORE POP JUMP JUMPDEST PUSH32 0x7374616B65206D6F7265207468616E206D696E20616D6F756E74000000000000 PUSH1 0x0 DUP3 ADD MSTORE POP JUMP JUMPDEST PUSH32 0x4F776E61626C653A2063616C6C6572206973206E6F7420746865206F776E6572 PUSH1 0x0 DUP3 ADD MSTORE POP JUMP JUMPDEST PUSH2 0x3317 DUP2 PUSH2 0x308C JUMP JUMPDEST DUP2 EQ PUSH2 0x3322 JUMPI PUSH1 0x0 DUP1 REVERT JUMPDEST POP JUMP JUMPDEST PUSH2 0x332E DUP2 PUSH2 0x309E JUMP JUMPDEST DUP2 EQ PUSH2 0x3339 JUMPI PUSH1 0x0 DUP1 REVERT JUMPDEST POP JUMP JUMPDEST PUSH2 0x3345 DUP2 PUSH2 0x30AA JUMP JUMPDEST DUP2 EQ PUSH2 0x3350 JUMPI PUSH1 0x0 DUP1 REVERT JUMPDEST POP JUMP JUMPDEST PUSH2 0x335C DUP2 PUSH2 0x30E4 JUMP JUMPDEST DUP2 EQ PUSH2 0x3367 JUMPI PUSH1 0x0 DUP1 REVERT JUMPDEST POP JUMP JUMPDEST PUSH2 0x3373 DUP2 PUSH2 0x30EE JUMP JUMPDEST DUP2 EQ PUSH2 0x337E JUMPI PUSH1 0x0 DUP1 REVERT JUMPDEST POP JUMP INVALID LOG2 PUSH5 0x6970667358 0x22 SLT KECCAK256 PC 0xC SWAP15 0xE6 ADDMOD 0xDB SWAP15 DUP13 MULMOD RETURN DUP15 0xCD 0xE7 0x5C CHAINID PUSH26 0x916C462681C84316C4020CBED597923864736F6C634300080700 CALLER LOG2 PUSH5 0x6970667358 0x22 SLT KECCAK256 KECCAK256 0xDA PUSH5 0x556F1AC472 INVALID 0x4D 0xA7 0xC8 0xD6 BASEFEE 0xED CREATE PC COINBASE SWAP10 0xC3 PUSH16 0xD497D12C08EA28567671F664736F6C63 NUMBER STOP ADDMOD SMOD STOP CALLER PUSH1 0x80 PUSH1 0x40 MSTORE CALLVALUE DUP1 ISZERO PUSH3 0x11 JUMPI PUSH1 0x0 DUP1 REVERT JUMPDEST POP PUSH1 0x40 MLOAD DUP1 PUSH1 0x40 ADD PUSH1 0x40 MSTORE DUP1 PUSH1 0x4 DUP2 MSTORE PUSH1 0x20 ADD PUSH32 0x5553445400000000000000000000000000000000000000000000000000000000 DUP2 MSTORE POP PUSH1 0x40 MLOAD DUP1 PUSH1 0x40 ADD PUSH1 0x40 MSTORE DUP1 PUSH1 0x4 DUP2 MSTORE PUSH1 0x20 ADD PUSH32 0x5553445400000000000000000000000000000000000000000000000000000000 DUP2 MSTORE POP DUP2 PUSH1 0x3 SWAP1 DUP1 MLOAD SWAP1 PUSH1 0x20 ADD SWAP1 PUSH3 0x96 SWAP3 SWAP2 SWAP1 PUSH3 0x15A JUMP JUMPDEST POP DUP1 PUSH1 0x4 SWAP1 DUP1 MLOAD SWAP1 PUSH1 0x20 ADD SWAP1 PUSH3 0xAF SWAP3 SWAP2 SWAP1 PUSH3 0x15A JUMP JUMPDEST POP POP POP PUSH1 0x0 CALLER SWAP1 POP DUP1 PUSH1 0x5 PUSH1 0x0 PUSH2 0x100 EXP DUP2 SLOAD DUP2 PUSH20 0xFFFFFFFFFFFFFFFFFFFFFFFFFFFFFFFFFFFFFFFF MUL NOT AND SWAP1 DUP4 PUSH20 0xFFFFFFFFFFFFFFFFFFFFFFFFFFFFFFFFFFFFFFFF AND MUL OR SWAP1 SSTORE POP DUP1 PUSH20 0xFFFFFFFFFFFFFFFFFFFFFFFFFFFFFFFFFFFFFFFF AND PUSH1 0x0 PUSH20 0xFFFFFFFFFFFFFFFFFFFFFFFFFFFFFFFFFFFFFFFF AND PUSH32 0x8BE0079C531659141344CD1FD0A4F28419497F9722A3DAAFE3B4186F6B6457E0 PUSH1 0x40 MLOAD PUSH1 0x40 MLOAD DUP1 SWAP2 SUB SWAP1 LOG3 POP PUSH3 0x26F JUMP JUMPDEST DUP3 DUP1 SLOAD PUSH3 0x168 SWAP1 PUSH3 0x20A JUMP JUMPDEST SWAP1 PUSH1 0x0 MSTORE PUSH1 0x20 PUSH1 0x0 KECCAK256 SWAP1 PUSH1 0x1F ADD PUSH1 0x20 SWAP1 DIV DUP2 ADD SWAP3 DUP3 PUSH3 0x18C JUMPI PUSH1 0x0 DUP6 SSTORE PUSH3 0x1D8 JUMP JUMPDEST DUP3 PUSH1 0x1F LT PUSH3 0x1A7 JUMPI DUP1 MLOAD PUSH1 0xFF NOT AND DUP4 DUP1 ADD OR DUP6 SSTORE PUSH3 0x1D8 JUMP JUMPDEST DUP3 DUP1 ADD PUSH1 0x1 ADD DUP6 SSTORE DUP3 ISZERO PUSH3 0x1D8 JUMPI SWAP2 DUP3 ADD JUMPDEST DUP3 DUP2 GT ISZERO PUSH3 0x1D7 JUMPI DUP3 MLOAD DUP3 SSTORE SWAP2 PUSH1 0x20 ADD SWAP2 SWAP1 PUSH1 0x1 ADD SWAP1 PUSH3 0x1BA JUMP JUMPDEST JUMPDEST POP SWAP1 POP PUSH3 0x1E7 SWAP2 SWAP1 PUSH3 0x1EB JUMP JUMPDEST POP SWAP1 JUMP JUMPDEST JUMPDEST DUP1 DUP3 GT ISZERO PUSH3 0x206 JUMPI PUSH1 0x0 DUP2 PUSH1 0x0 SWAP1 SSTORE POP PUSH1 0x1 ADD PUSH3 0x1EC JUMP JUMPDEST POP SWAP1 JUMP JUMPDEST PUSH1 0x0 PUSH1 0x2 DUP3 DIV SWAP1 POP PUSH1 0x1 DUP3 AND DUP1 PUSH3 0x223 JUMPI PUSH1 0x7F DUP3 AND SWAP2 POP JUMPDEST PUSH1 0x20 DUP3 LT DUP2 EQ ISZERO PUSH3 0x23A JUMPI PUSH3 0x239 PUSH3 0x240 JUMP JUMPDEST JUMPDEST POP SWAP2 SWAP1 POP JUMP JUMPDEST PUSH32 0x4E487B7100000000000000000000000000000000000000000000000000000000 PUSH1 0x0 MSTORE PUSH1 0x22 PUSH1 0x4 MSTORE PUSH1 0x24 PUSH1 0x0 REVERT JUMPDEST PUSH2 0x19ED DUP1 PUSH3 0x27F PUSH1 0x0 CODECOPY PUSH1 0x0 RETURN INVALID PUSH1 0x80 PUSH1 0x40 MSTORE CALLVALUE DUP1 ISZERO PUSH2 0x10 JUMPI PUSH1 0x0 DUP1 REVERT JUMPDEST POP PUSH1 0x4 CALLDATASIZE LT PUSH2 0xF5 JUMPI PUSH1 0x0 CALLDATALOAD PUSH1 0xE0 SHR DUP1 PUSH4 0x70A08231 GT PUSH2 0x97 JUMPI DUP1 PUSH4 0xA457C2D7 GT PUSH2 0x66 JUMPI DUP1 PUSH4 0xA457C2D7 EQ PUSH2 0x276 JUMPI DUP1 PUSH4 0xA9059CBB EQ PUSH2 0x2A6 JUMPI DUP1 PUSH4 0xDD62ED3E EQ PUSH2 0x2D6 JUMPI DUP1 PUSH4 0xF2FDE38B EQ PUSH2 0x306 JUMPI PUSH2 0xF5 JUMP JUMPDEST DUP1 PUSH4 0x70A08231 EQ PUSH2 0x200 JUMPI DUP1 PUSH4 0x715018A6 EQ PUSH2 0x230 JUMPI DUP1 PUSH4 0x8DA5CB5B EQ PUSH2 0x23A JUMPI DUP1 PUSH4 0x95D89B41 EQ PUSH2 0x258 JUMPI PUSH2 0xF5 JUMP JUMPDEST DUP1 PUSH4 0x23B872DD GT PUSH2 0xD3 JUMPI DUP1 PUSH4 0x23B872DD EQ PUSH2 0x166 JUMPI DUP1 PUSH4 0x313CE567 EQ PUSH2 0x196 JUMPI DUP1 PUSH4 0x39509351 EQ PUSH2 0x1B4 JUMPI DUP1 PUSH4 0x40C10F19 EQ PUSH2 0x1E4 JUMPI PUSH2 0xF5 JUMP JUMPDEST DUP1 PUSH4 0x6FDDE03 EQ PUSH2 0xFA JUMPI DUP1 PUSH4 0x95EA7B3 EQ PUSH2 0x118 JUMPI DUP1 PUSH4 0x18160DDD EQ PUSH2 0x148 JUMPI JUMPDEST PUSH1 0x0 DUP1 REVERT JUMPDEST PUSH2 0x102 PUSH2 0x322 JUMP JUMPDEST PUSH1 0x40 MLOAD PUSH2 0x10F SWAP2 SWAP1 PUSH2 0x13AD JUMP JUMPDEST PUSH1 0x40 MLOAD DUP1 SWAP2 SUB SWAP1 RETURN JUMPDEST PUSH2 0x132 PUSH1 0x4 DUP1 CALLDATASIZE SUB DUP2 ADD SWAP1 PUSH2 0x12D SWAP2 SWAP1 PUSH2 0x1164 JUMP JUMPDEST PUSH2 0x3B4 JUMP JUMPDEST PUSH1 0x40 MLOAD PUSH2 0x13F SWAP2 SWAP1 PUSH2 0x1392 JUMP JUMPDEST PUSH1 0x40 MLOAD DUP1 SWAP2 SUB SWAP1 RETURN JUMPDEST PUSH2 0x150 PUSH2 0x3D7 JUMP JUMPDEST PUSH1 0x40 MLOAD PUSH2 0x15D SWAP2 SWAP1 PUSH2 0x150F JUMP JUMPDEST PUSH1 0x40 MLOAD DUP1 SWAP2 SUB SWAP1 RETURN JUMPDEST PUSH2 0x180 PUSH1 0x4 DUP1 CALLDATASIZE SUB DUP2 ADD SWAP1 PUSH2 0x17B SWAP2 SWAP1 PUSH2 0x1111 JUMP JUMPDEST PUSH2 0x3E1 JUMP JUMPDEST PUSH1 0x40 MLOAD PUSH2 0x18D SWAP2 SWAP1 PUSH2 0x1392 JUMP JUMPDEST PUSH1 0x40 MLOAD DUP1 SWAP2 SUB SWAP1 RETURN JUMPDEST PUSH2 0x19E PUSH2 0x410 JUMP JUMPDEST PUSH1 0x40 MLOAD PUSH2 0x1AB SWAP2 SWAP1 PUSH2 0x152A JUMP JUMPDEST PUSH1 0x40 MLOAD DUP1 SWAP2 SUB SWAP1 RETURN JUMPDEST PUSH2 0x1CE PUSH1 0x4 DUP1 CALLDATASIZE SUB DUP2 ADD SWAP1 PUSH2 0x1C9 SWAP2 SWAP1 PUSH2 0x1164 JUMP JUMPDEST PUSH2 0x419 JUMP JUMPDEST PUSH1 0x40 MLOAD PUSH2 0x1DB SWAP2 SWAP1 PUSH2 0x1392 JUMP JUMPDEST PUSH1 0x40 MLOAD DUP1 SWAP2 SUB SWAP1 RETURN JUMPDEST PUSH2 0x1FE PUSH1 0x4 DUP1 CALLDATASIZE SUB DUP2 ADD SWAP1 PUSH2 0x1F9 SWAP2 SWAP1 PUSH2 0x1164 JUMP JUMPDEST PUSH2 0x450 JUMP JUMPDEST STOP JUMPDEST PUSH2 0x21A PUSH1 0x4 DUP1 CALLDATASIZE SUB DUP2 ADD SWAP1 PUSH2 0x215 SWAP2 SWAP1 PUSH2 0x10A4 JUMP JUMPDEST PUSH2 0x4EE JUMP JUMPDEST PUSH1 0x40 MLOAD PUSH2 0x227 SWAP2 SWAP1 PUSH2 0x150F JUMP JUMPDEST PUSH1 0x40 MLOAD DUP1 SWAP2 SUB SWAP1 RETURN JUMPDEST PUSH2 0x238 PUSH2 0x536 JUMP JUMPDEST STOP JUMPDEST PUSH2 0x242 PUSH2 0x687 JUMP JUMPDEST PUSH1 0x40 MLOAD PUSH2 0x24F SWAP2 SWAP1 PUSH2 0x1377 JUMP JUMPDEST PUSH1 0x40 MLOAD DUP1 SWAP2 SUB SWAP1 RETURN JUMPDEST PUSH2 0x260 PUSH2 0x6B1 JUMP JUMPDEST PUSH1 0x40 MLOAD PUSH2 0x26D SWAP2 SWAP1 PUSH2 0x13AD JUMP JUMPDEST PUSH1 0x40 MLOAD DUP1 SWAP2 SUB SWAP1 RETURN JUMPDEST PUSH2 0x290 PUSH1 0x4 DUP1 CALLDATASIZE SUB DUP2 ADD SWAP1 PUSH2 0x28B SWAP2 SWAP1 PUSH2 0x1164 JUMP JUMPDEST PUSH2 0x743 JUMP JUMPDEST PUSH1 0x40 MLOAD PUSH2 0x29D SWAP2 SWAP1 PUSH2 0x1392 JUMP JUMPDEST PUSH1 0x40 MLOAD DUP1 SWAP2 SUB SWAP1 RETURN JUMPDEST PUSH2 0x2C0 PUSH1 0x4 DUP1 CALLDATASIZE SUB DUP2 ADD SWAP1 PUSH2 0x2BB SWAP2 SWAP1 PUSH2 0x1164 JUMP JUMPDEST PUSH2 0x7BA JUMP JUMPDEST PUSH1 0x40 MLOAD PUSH2 0x2CD SWAP2 SWAP1 PUSH2 0x1392 JUMP JUMPDEST PUSH1 0x40 MLOAD DUP1 SWAP2 SUB SWAP1 RETURN JUMPDEST PUSH2 0x2F0 PUSH1 0x4 DUP1 CALLDATASIZE SUB DUP2 ADD SWAP1 PUSH2 0x2EB SWAP2 SWAP1 PUSH2 0x10D1 JUMP JUMPDEST PUSH2 0x7DD JUMP JUMPDEST PUSH1 0x40 MLOAD PUSH2 0x2FD SWAP2 SWAP1 PUSH2 0x150F JUMP JUMPDEST PUSH1 0x40 MLOAD DUP1 SWAP2 SUB SWAP1 RETURN JUMPDEST PUSH2 0x320 PUSH1 0x4 DUP1 CALLDATASIZE SUB DUP2 ADD SWAP1 PUSH2 0x31B SWAP2 SWAP1 PUSH2 0x10A4 JUMP JUMPDEST PUSH2 0x864 JUMP JUMPDEST STOP JUMPDEST PUSH1 0x60 PUSH1 0x3 DUP1 SLOAD PUSH2 0x331 SWAP1 PUSH2 0x163F JUMP JUMPDEST DUP1 PUSH1 0x1F ADD PUSH1 0x20 DUP1 SWAP2 DIV MUL PUSH1 0x20 ADD PUSH1 0x40 MLOAD SWAP1 DUP2 ADD PUSH1 0x40 MSTORE DUP1 SWAP3 SWAP2 SWAP1 DUP2 DUP2 MSTORE PUSH1 0x20 ADD DUP3 DUP1 SLOAD PUSH2 0x35D SWAP1 PUSH2 0x163F JUMP JUMPDEST DUP1 ISZERO PUSH2 0x3AA JUMPI DUP1 PUSH1 0x1F LT PUSH2 0x37F JUMPI PUSH2 0x100 DUP1 DUP4 SLOAD DIV MUL DUP4 MSTORE SWAP2 PUSH1 0x20 ADD SWAP2 PUSH2 0x3AA JUMP JUMPDEST DUP3 ADD SWAP2 SWAP1 PUSH1 0x0 MSTORE PUSH1 0x20 PUSH1 0x0 KECCAK256 SWAP1 JUMPDEST DUP2 SLOAD DUP2 MSTORE SWAP1 PUSH1 0x1 ADD SWAP1 PUSH1 0x20 ADD DUP1 DUP4 GT PUSH2 0x38D JUMPI DUP3 SWAP1 SUB PUSH1 0x1F AND DUP3 ADD SWAP2 JUMPDEST POP POP POP POP POP SWAP1 POP SWAP1 JUMP JUMPDEST PUSH1 0x0 DUP1 PUSH2 0x3BF PUSH2 0x900 JUMP JUMPDEST SWAP1 POP PUSH2 0x3CC DUP2 DUP6 DUP6 PUSH2 0x908 JUMP JUMPDEST PUSH1 0x1 SWAP2 POP POP SWAP3 SWAP2 POP POP JUMP JUMPDEST PUSH1 0x0 PUSH1 0x2 SLOAD SWAP1 POP SWAP1 JUMP JUMPDEST PUSH1 0x0 DUP1 PUSH2 0x3EC PUSH2 0x900 JUMP JUMPDEST SWAP1 POP PUSH2 0x3F9 DUP6 DUP3 DUP6 PUSH2 0xAD3 JUMP JUMPDEST PUSH2 0x404 DUP6 DUP6 DUP6 PUSH2 0xB5F JUMP JUMPDEST PUSH1 0x1 SWAP2 POP POP SWAP4 SWAP3 POP POP POP JUMP JUMPDEST PUSH1 0x0 PUSH1 0x12 SWAP1 POP SWAP1 JUMP JUMPDEST PUSH1 0x0 DUP1 PUSH2 0x424 PUSH2 0x900 JUMP JUMPDEST SWAP1 POP PUSH2 0x445 DUP2 DUP6 DUP6 PUSH2 0x436 DUP6 DUP10 PUSH2 0x7DD JUMP JUMPDEST PUSH2 0x440 SWAP2 SWAP1 PUSH2 0x1561 JUMP JUMPDEST PUSH2 0x908 JUMP JUMPDEST PUSH1 0x1 SWAP2 POP POP SWAP3 SWAP2 POP POP JUMP JUMPDEST CALLER PUSH20 0xFFFFFFFFFFFFFFFFFFFFFFFFFFFFFFFFFFFFFFFF AND PUSH1 0x5 PUSH1 0x0 SWAP1 SLOAD SWAP1 PUSH2 0x100 EXP SWAP1 DIV PUSH20 0xFFFFFFFFFFFFFFFFFFFFFFFFFFFFFFFFFFFFFFFF AND PUSH20 0xFFFFFFFFFFFFFFFFFFFFFFFFFFFFFFFFFFFFFFFF AND EQ PUSH2 0x4E0 JUMPI PUSH1 0x40 MLOAD PUSH32 0x8C379A000000000000000000000000000000000000000000000000000000000 DUP2 MSTORE PUSH1 0x4 ADD PUSH2 0x4D7 SWAP1 PUSH2 0x146F JUMP JUMPDEST PUSH1 0x40 MLOAD DUP1 SWAP2 SUB SWAP1 REVERT JUMPDEST PUSH2 0x4EA DUP3 DUP3 PUSH2 0xDE0 JUMP JUMPDEST POP POP JUMP JUMPDEST PUSH1 0x0 DUP1 PUSH1 0x0 DUP4 PUSH20 0xFFFFFFFFFFFFFFFFFFFFFFFFFFFFFFFFFFFFFFFF AND PUSH20 0xFFFFFFFFFFFFFFFFFFFFFFFFFFFFFFFFFFFFFFFF AND DUP2 MSTORE PUSH1 0x20 ADD SWAP1 DUP2 MSTORE PUSH1 0x20 ADD PUSH1 0x0 KECCAK256 SLOAD SWAP1 POP SWAP2 SWAP1 POP JUMP JUMPDEST CALLER PUSH20 0xFFFFFFFFFFFFFFFFFFFFFFFFFFFFFFFFFFFFFFFF AND PUSH1 0x5 PUSH1 0x0 SWAP1 SLOAD SWAP1 PUSH2 0x100 EXP SWAP1 DIV PUSH20 0xFFFFFFFFFFFFFFFFFFFFFFFFFFFFFFFFFFFFFFFF AND PUSH20 0xFFFFFFFFFFFFFFFFFFFFFFFFFFFFFFFFFFFFFFFF AND EQ PUSH2 0x5C6 JUMPI PUSH1 0x40 MLOAD PUSH32 0x8C379A000000000000000000000000000000000000000000000000000000000 DUP2 MSTORE PUSH1 0x4 ADD PUSH2 0x5BD SWAP1 PUSH2 0x146F JUMP JUMPDEST PUSH1 0x40 MLOAD DUP1 SWAP2 SUB SWAP1 REVERT JUMPDEST PUSH1 0x0 PUSH20 0xFFFFFFFFFFFFFFFFFFFFFFFFFFFFFFFFFFFFFFFF AND PUSH1 0x5 PUSH1 0x0 SWAP1 SLOAD SWAP1 PUSH2 0x100 EXP SWAP1 DIV PUSH20 0xFFFFFFFFFFFFFFFFFFFFFFFFFFFFFFFFFFFFFFFF AND PUSH20 0xFFFFFFFFFFFFFFFFFFFFFFFFFFFFFFFFFFFFFFFF AND PUSH32 0x8BE0079C531659141344CD1FD0A4F28419497F9722A3DAAFE3B4186F6B6457E0 PUSH1 0x40 MLOAD PUSH1 0x40 MLOAD DUP1 SWAP2 SUB SWAP1 LOG3 PUSH1 0x0 PUSH1 0x5 PUSH1 0x0 PUSH2 0x100 EXP DUP2 SLOAD DUP2 PUSH20 0xFFFFFFFFFFFFFFFFFFFFFFFFFFFFFFFFFFFFFFFF MUL NOT AND SWAP1 DUP4 PUSH20 0xFFFFFFFFFFFFFFFFFFFFFFFFFFFFFFFFFFFFFFFF AND MUL OR SWAP1 SSTORE POP JUMP JUMPDEST PUSH1 0x0 PUSH1 0x5 PUSH1 0x0 SWAP1 SLOAD SWAP1 PUSH2 0x100 EXP SWAP1 DIV PUSH20 0xFFFFFFFFFFFFFFFFFFFFFFFFFFFFFFFFFFFFFFFF AND SWAP1 POP SWAP1 JUMP JUMPDEST PUSH1 0x60 PUSH1 0x4 DUP1 SLOAD PUSH2 0x6C0 SWAP1 PUSH2 0x163F JUMP JUMPDEST DUP1 PUSH1 0x1F ADD PUSH1 0x20 DUP1 SWAP2 DIV MUL PUSH1 0x20 ADD PUSH1 0x40 MLOAD SWAP1 DUP2 ADD PUSH1 0x40 MSTORE DUP1 SWAP3 SWAP2 SWAP1 DUP2 DUP2 MSTORE PUSH1 0x20 ADD DUP3 DUP1 SLOAD PUSH2 0x6EC SWAP1 PUSH2 0x163F JUMP JUMPDEST DUP1 ISZERO PUSH2 0x739 JUMPI DUP1 PUSH1 0x1F LT PUSH2 0x70E JUMPI PUSH2 0x100 DUP1 DUP4 SLOAD DIV MUL DUP4 MSTORE SWAP2 PUSH1 0x20 ADD SWAP2 PUSH2 0x739 JUMP JUMPDEST DUP3 ADD SWAP2 SWAP1 PUSH1 0x0 MSTORE PUSH1 0x20 PUSH1 0x0 KECCAK256 SWAP1 JUMPDEST DUP2 SLOAD DUP2 MSTORE SWAP1 PUSH1 0x1 ADD SWAP1 PUSH1 0x20 ADD DUP1 DUP4 GT PUSH2 0x71C JUMPI DUP3 SWAP1 SUB PUSH1 0x1F AND DUP3 ADD SWAP2 JUMPDEST POP POP POP POP POP SWAP1 POP SWAP1 JUMP JUMPDEST PUSH1 0x0 DUP1 PUSH2 0x74E PUSH2 0x900 JUMP JUMPDEST SWAP1 POP PUSH1 0x0 PUSH2 0x75C DUP3 DUP7 PUSH2 0x7DD JUMP JUMPDEST SWAP1 POP DUP4 DUP2 LT ISZERO PUSH2 0x7A1 JUMPI PUSH1 0x40 MLOAD PUSH32 0x8C379A000000000000000000000000000000000000000000000000000000000 DUP2 MSTORE PUSH1 0x4 ADD PUSH2 0x798 SWAP1 PUSH2 0x14CF JUMP JUMPDEST PUSH1 0x40 MLOAD DUP1 SWAP2 SUB SWAP1 REVERT JUMPDEST PUSH2 0x7AE DUP3 DUP7 DUP7 DUP5 SUB PUSH2 0x908 JUMP JUMPDEST PUSH1 0x1 SWAP3 POP POP POP SWAP3 SWAP2 POP POP JUMP JUMPDEST PUSH1 0x0 DUP1 PUSH2 0x7C5 PUSH2 0x900 JUMP JUMPDEST SWAP1 POP PUSH2 0x7D2 DUP2 DUP6 DUP6 PUSH2 0xB5F JUMP JUMPDEST PUSH1 0x1 SWAP2 POP POP SWAP3 SWAP2 POP POP JUMP JUMPDEST PUSH1 0x0 PUSH1 0x1 PUSH1 0x0 DUP5 PUSH20 0xFFFFFFFFFFFFFFFFFFFFFFFFFFFFFFFFFFFFFFFF AND PUSH20 0xFFFFFFFFFFFFFFFFFFFFFFFFFFFFFFFFFFFFFFFF AND DUP2 MSTORE PUSH1 0x20 ADD SWAP1 DUP2 MSTORE PUSH1 0x20 ADD PUSH1 0x0 KECCAK256 PUSH1 0x0 DUP4 PUSH20 0xFFFFFFFFFFFFFFFFFFFFFFFFFFFFFFFFFFFFFFFF AND PUSH20 0xFFFFFFFFFFFFFFFFFFFFFFFFFFFFFFFFFFFFFFFF AND DUP2 MSTORE PUSH1 0x20 ADD SWAP1 DUP2 MSTORE PUSH1 0x20 ADD PUSH1 0x0 KECCAK256 SLOAD SWAP1 POP SWAP3 SWAP2 POP POP JUMP JUMPDEST CALLER PUSH20 0xFFFFFFFFFFFFFFFFFFFFFFFFFFFFFFFFFFFFFFFF AND PUSH1 0x5 PUSH1 0x0 SWAP1 SLOAD SWAP1 PUSH2 0x100 EXP SWAP1 DIV PUSH20 0xFFFFFFFFFFFFFFFFFFFFFFFFFFFFFFFFFFFFFFFF AND PUSH20 0xFFFFFFFFFFFFFFFFFFFFFFFFFFFFFFFFFFFFFFFF AND EQ PUSH2 0x8F4 JUMPI PUSH1 0x40 MLOAD PUSH32 0x8C379A000000000000000000000000000000000000000000000000000000000 DUP2 MSTORE PUSH1 0x4 ADD PUSH2 0x8EB SWAP1 PUSH2 0x146F JUMP JUMPDEST PUSH1 0x40 MLOAD DUP1 SWAP2 SUB SWAP1 REVERT JUMPDEST PUSH2 0x8FD DUP2 PUSH2 0xF40 JUMP JUMPDEST POP JUMP JUMPDEST PUSH1 0x0 CALLER SWAP1 POP SWAP1 JUMP JUMPDEST PUSH1 0x0 PUSH20 0xFFFFFFFFFFFFFFFFFFFFFFFFFFFFFFFFFFFFFFFF AND DUP4 PUSH20 0xFFFFFFFFFFFFFFFFFFFFFFFFFFFFFFFFFFFFFFFF AND EQ ISZERO PUSH2 0x978 JUMPI PUSH1 0x40 MLOAD PUSH32 0x8C379A000000000000000000000000000000000000000000000000000000000 DUP2 MSTORE PUSH1 0x4 ADD PUSH2 0x96F SWAP1 PUSH2 0x14AF JUMP JUMPDEST PUSH1 0x40 MLOAD DUP1 SWAP2 SUB SWAP1 REVERT JUMPDEST PUSH1 0x0 PUSH20 0xFFFFFFFFFFFFFFFFFFFFFFFFFFFFFFFFFFFFFFFF AND DUP3 PUSH20 0xFFFFFFFFFFFFFFFFFFFFFFFFFFFFFFFFFFFFFFFF AND EQ ISZERO PUSH2 0x9E8 JUMPI PUSH1 0x40 MLOAD PUSH32 0x8C379A000000000000000000000000000000000000000000000000000000000 DUP2 MSTORE PUSH1 0x4 ADD PUSH2 0x9DF SWAP1 PUSH2 0x140F JUMP JUMPDEST PUSH1 0x40 MLOAD DUP1 SWAP2 SUB SWAP1 REVERT JUMPDEST DUP1 PUSH1 0x1 PUSH1 0x0 DUP6 PUSH20 0xFFFFFFFFFFFFFFFFFFFFFFFFFFFFFFFFFFFFFFFF AND PUSH20 0xFFFFFFFFFFFFFFFFFFFFFFFFFFFFFFFFFFFFFFFF AND DUP2 MSTORE PUSH1 0x20 ADD SWAP1 DUP2 MSTORE PUSH1 0x20 ADD PUSH1 0x0 KECCAK256 PUSH1 0x0 DUP5 PUSH20 0xFFFFFFFFFFFFFFFFFFFFFFFFFFFFFFFFFFFFFFFF AND PUSH20 0xFFFFFFFFFFFFFFFFFFFFFFFFFFFFFFFFFFFFFFFF AND DUP2 MSTORE PUSH1 0x20 ADD SWAP1 DUP2 MSTORE PUSH1 0x20 ADD PUSH1 0x0 KECCAK256 DUP2 SWAP1 SSTORE POP DUP2 PUSH20 0xFFFFFFFFFFFFFFFFFFFFFFFFFFFFFFFFFFFFFFFF AND DUP4 PUSH20 0xFFFFFFFFFFFFFFFFFFFFFFFFFFFFFFFFFFFFFFFF AND PUSH32 0x8C5BE1E5EBEC7D5BD14F71427D1E84F3DD0314C0F7B2291E5B200AC8C7C3B925 DUP4 PUSH1 0x40 MLOAD PUSH2 0xAC6 SWAP2 SWAP1 PUSH2 0x150F JUMP JUMPDEST PUSH1 0x40 MLOAD DUP1 SWAP2 SUB SWAP1 LOG3 POP POP POP JUMP JUMPDEST PUSH1 0x0 PUSH2 0xADF DUP5 DUP5 PUSH2 0x7DD JUMP JUMPDEST SWAP1 POP PUSH32 0xFFFFFFFFFFFFFFFFFFFFFFFFFFFFFFFFFFFFFFFFFFFFFFFFFFFFFFFFFFFFFFFF DUP2 EQ PUSH2 0xB59 JUMPI DUP2 DUP2 LT ISZERO PUSH2 0xB4B JUMPI PUSH1 0x40 MLOAD PUSH32 0x8C379A000000000000000000000000000000000000000000000000000000000 DUP2 MSTORE PUSH1 0x4 ADD PUSH2 0xB42 SWAP1 PUSH2 0x142F JUMP JUMPDEST PUSH1 0x40 MLOAD DUP1 SWAP2 SUB SWAP1 REVERT JUMPDEST PUSH2 0xB58 DUP5 DUP5 DUP5 DUP5 SUB PUSH2 0x908 JUMP JUMPDEST JUMPDEST POP POP POP POP JUMP JUMPDEST PUSH1 0x0 PUSH20 0xFFFFFFFFFFFFFFFFFFFFFFFFFFFFFFFFFFFFFFFF AND DUP4 PUSH20 0xFFFFFFFFFFFFFFFFFFFFFFFFFFFFFFFFFFFFFFFF AND EQ ISZERO PUSH2 0xBCF JUMPI PUSH1 0x40 MLOAD PUSH32 0x8C379A000000000000000000000000000000000000000000000000000000000 DUP2 MSTORE PUSH1 0x4 ADD PUSH2 0xBC6 SWAP1 PUSH2 0x148F JUMP JUMPDEST PUSH1 0x40 MLOAD DUP1 SWAP2 SUB SWAP1 REVERT JUMPDEST PUSH1 0x0 PUSH20 0xFFFFFFFFFFFFFFFFFFFFFFFFFFFFFFFFFFFFFFFF AND DUP3 PUSH20 0xFFFFFFFFFFFFFFFFFFFFFFFFFFFFFFFFFFFFFFFF AND EQ ISZERO PUSH2 0xC3F JUMPI PUSH1 0x40 MLOAD PUSH32 0x8C379A000000000000000000000000000000000000000000000000000000000 DUP2 MSTORE PUSH1 0x4 ADD PUSH2 0xC36 SWAP1 PUSH2 0x13CF JUMP JUMPDEST PUSH1 0x40 MLOAD DUP1 SWAP2 SUB SWAP1 REVERT JUMPDEST PUSH2 0xC4A DUP4 DUP4 DUP4 PUSH2 0x1070 JUMP JUMPDEST PUSH1 0x0 DUP1 PUSH1 0x0 DUP6 PUSH20 0xFFFFFFFFFFFFFFFFFFFFFFFFFFFFFFFFFFFFFFFF AND PUSH20 0xFFFFFFFFFFFFFFFFFFFFFFFFFFFFFFFFFFFFFFFF AND DUP2 MSTORE PUSH1 0x20 ADD SWAP1 DUP2 MSTORE PUSH1 0x20 ADD PUSH1 0x0 KECCAK256 SLOAD SWAP1 POP DUP2 DUP2 LT ISZERO PUSH2 0xCD0 JUMPI PUSH1 0x40 MLOAD PUSH32 0x8C379A000000000000000000000000000000000000000000000000000000000 DUP2 MSTORE PUSH1 0x4 ADD PUSH2 0xCC7 SWAP1 PUSH2 0x144F JUMP JUMPDEST PUSH1 0x40 MLOAD DUP1 SWAP2 SUB SWAP1 REVERT JUMPDEST DUP2 DUP2 SUB PUSH1 0x0 DUP1 DUP7 PUSH20 0xFFFFFFFFFFFFFFFFFFFFFFFFFFFFFFFFFFFFFFFF AND PUSH20 0xFFFFFFFFFFFFFFFFFFFFFFFFFFFFFFFFFFFFFFFF AND DUP2 MSTORE PUSH1 0x20 ADD SWAP1 DUP2 MSTORE PUSH1 0x20 ADD PUSH1 0x0 KECCAK256 DUP2 SWAP1 SSTORE POP DUP2 PUSH1 0x0 DUP1 DUP6 PUSH20 0xFFFFFFFFFFFFFFFFFFFFFFFFFFFFFFFFFFFFFFFF AND PUSH20 0xFFFFFFFFFFFFFFFFFFFFFFFFFFFFFFFFFFFFFFFF AND DUP2 MSTORE PUSH1 0x20 ADD SWAP1 DUP2 MSTORE PUSH1 0x20 ADD PUSH1 0x0 KECCAK256 PUSH1 0x0 DUP3 DUP3 SLOAD PUSH2 0xD63 SWAP2 SWAP1 PUSH2 0x1561 JUMP JUMPDEST SWAP3 POP POP DUP2 SWAP1 SSTORE POP DUP3 PUSH20 0xFFFFFFFFFFFFFFFFFFFFFFFFFFFFFFFFFFFFFFFF AND DUP5 PUSH20 0xFFFFFFFFFFFFFFFFFFFFFFFFFFFFFFFFFFFFFFFF AND PUSH32 0xDDF252AD1BE2C89B69C2B068FC378DAA952BA7F163C4A11628F55A4DF523B3EF DUP5 PUSH1 0x40 MLOAD PUSH2 0xDC7 SWAP2 SWAP1 PUSH2 0x150F JUMP JUMPDEST PUSH1 0x40 MLOAD DUP1 SWAP2 SUB SWAP1 LOG3 PUSH2 0xDDA DUP5 DUP5 DUP5 PUSH2 0x1075 JUMP JUMPDEST POP POP POP POP JUMP JUMPDEST PUSH1 0x0 PUSH20 0xFFFFFFFFFFFFFFFFFFFFFFFFFFFFFFFFFFFFFFFF AND DUP3 PUSH20 0xFFFFFFFFFFFFFFFFFFFFFFFFFFFFFFFFFFFFFFFF AND EQ ISZERO PUSH2 0xE50 JUMPI PUSH1 0x40 MLOAD PUSH32 0x8C379A000000000000000000000000000000000000000000000000000000000 DUP2 MSTORE PUSH1 0x4 ADD PUSH2 0xE47 SWAP1 PUSH2 0x14EF JUMP JUMPDEST PUSH1 0x40 MLOAD DUP1 SWAP2 SUB SWAP1 REVERT JUMPDEST PUSH2 0xE5C PUSH1 0x0 DUP4 DUP4 PUSH2 0x1070 JUMP JUMPDEST DUP1 PUSH1 0x2 PUSH1 0x0 DUP3 DUP3 SLOAD PUSH2 0xE6E SWAP2 SWAP1 PUSH2 0x1561 JUMP JUMPDEST SWAP3 POP POP DUP2 SWAP1 SSTORE POP DUP1 PUSH1 0x0 DUP1 DUP5 PUSH20 0xFFFFFFFFFFFFFFFFFFFFFFFFFFFFFFFFFFFFFFFF AND PUSH20 0xFFFFFFFFFFFFFFFFFFFFFFFFFFFFFFFFFFFFFFFF AND DUP2 MSTORE PUSH1 0x20 ADD SWAP1 DUP2 MSTORE PUSH1 0x20 ADD PUSH1 0x0 KECCAK256 PUSH1 0x0 DUP3 DUP3 SLOAD PUSH2 0xEC3 SWAP2 SWAP1 PUSH2 0x1561 JUMP JUMPDEST SWAP3 POP POP DUP2 SWAP1 SSTORE POP DUP2 PUSH20 0xFFFFFFFFFFFFFFFFFFFFFFFFFFFFFFFFFFFFFFFF AND PUSH1 0x0 PUSH20 0xFFFFFFFFFFFFFFFFFFFFFFFFFFFFFFFFFFFFFFFF AND PUSH32 0xDDF252AD1BE2C89B69C2B068FC378DAA952BA7F163C4A11628F55A4DF523B3EF DUP4 PUSH1 0x40 MLOAD PUSH2 0xF28 SWAP2 SWAP1 PUSH2 0x150F JUMP JUMPDEST PUSH1 0x40 MLOAD DUP1 SWAP2 SUB SWAP1 LOG3 PUSH2 0xF3C PUSH1 0x0 DUP4 DUP4 PUSH2 0x1075 JUMP JUMPDEST POP POP JUMP JUMPDEST PUSH1 0x0 PUSH20 0xFFFFFFFFFFFFFFFFFFFFFFFFFFFFFFFFFFFFFFFF AND DUP2 PUSH20 0xFFFFFFFFFFFFFFFFFFFFFFFFFFFFFFFFFFFFFFFF AND EQ ISZERO PUSH2 0xFB0 JUMPI PUSH1 0x40 MLOAD PUSH32 0x8C379A000000000000000000000000000000000000000000000000000000000 DUP2 MSTORE PUSH1 0x4 ADD PUSH2 0xFA7 SWAP1 PUSH2 0x13EF JUMP JUMPDEST PUSH1 0x40 MLOAD DUP1 SWAP2 SUB SWAP1 REVERT JUMPDEST DUP1 PUSH20 0xFFFFFFFFFFFFFFFFFFFFFFFFFFFFFFFFFFFFFFFF AND PUSH1 0x5 PUSH1 0x0 SWAP1 SLOAD SWAP1 PUSH2 0x100 EXP SWAP1 DIV PUSH20 0xFFFFFFFFFFFFFFFFFFFFFFFFFFFFFFFFFFFFFFFF AND PUSH20 0xFFFFFFFFFFFFFFFFFFFFFFFFFFFFFFFFFFFFFFFF AND PUSH32 0x8BE0079C531659141344CD1FD0A4F28419497F9722A3DAAFE3B4186F6B6457E0 PUSH1 0x40 MLOAD PUSH1 0x40 MLOAD DUP1 SWAP2 SUB SWAP1 LOG3 DUP1 PUSH1 0x5 PUSH1 0x0 PUSH2 0x100 EXP DUP2 SLOAD DUP2 PUSH20 0xFFFFFFFFFFFFFFFFFFFFFFFFFFFFFFFFFFFFFFFF MUL NOT AND SWAP1 DUP4 PUSH20 0xFFFFFFFFFFFFFFFFFFFFFFFFFFFFFFFFFFFFFFFF AND MUL OR SWAP1 SSTORE POP POP JUMP JUMPDEST POP POP POP JUMP JUMPDEST POP POP POP JUMP JUMPDEST PUSH1 0x0 DUP2 CALLDATALOAD SWAP1 POP PUSH2 0x1089 DUP2 PUSH2 0x1989 JUMP JUMPDEST SWAP3 SWAP2 POP POP JUMP JUMPDEST PUSH1 0x0 DUP2 CALLDATALOAD SWAP1 POP PUSH2 0x109E DUP2 PUSH2 0x19A0 JUMP JUMPDEST SWAP3 SWAP2 POP POP JUMP JUMPDEST PUSH1 0x0 PUSH1 0x20 DUP3 DUP5 SUB SLT ISZERO PUSH2 0x10BA JUMPI PUSH2 0x10B9 PUSH2 0x16CF JUMP JUMPDEST JUMPDEST PUSH1 0x0 PUSH2 0x10C8 DUP5 DUP3 DUP6 ADD PUSH2 0x107A JUMP JUMPDEST SWAP2 POP POP SWAP3 SWAP2 POP POP JUMP JUMPDEST PUSH1 0x0 DUP1 PUSH1 0x40 DUP4 DUP6 SUB SLT ISZERO PUSH2 0x10E8 JUMPI PUSH2 0x10E7 PUSH2 0x16CF JUMP JUMPDEST JUMPDEST PUSH1 0x0 PUSH2 0x10F6 DUP6 DUP3 DUP7 ADD PUSH2 0x107A JUMP JUMPDEST SWAP3 POP POP PUSH1 0x20 PUSH2 0x1107 DUP6 DUP3 DUP7 ADD PUSH2 0x107A JUMP JUMPDEST SWAP2 POP POP SWAP3 POP SWAP3 SWAP1 POP JUMP JUMPDEST PUSH1 0x0 DUP1 PUSH1 0x0 PUSH1 0x60 DUP5 DUP7 SUB SLT ISZERO PUSH2 0x112A JUMPI PUSH2 0x1129 PUSH2 0x16CF JUMP JUMPDEST JUMPDEST PUSH1 0x0 PUSH2 0x1138 DUP7 DUP3 DUP8 ADD PUSH2 0x107A JUMP JUMPDEST SWAP4 POP POP PUSH1 0x20 PUSH2 0x1149 DUP7 DUP3 DUP8 ADD PUSH2 0x107A JUMP JUMPDEST SWAP3 POP POP PUSH1 0x40 PUSH2 0x115A DUP7 DUP3 DUP8 ADD PUSH2 0x108F JUMP JUMPDEST SWAP2 POP POP SWAP3 POP SWAP3 POP SWAP3 JUMP JUMPDEST PUSH1 0x0 DUP1 PUSH1 0x40 DUP4 DUP6 SUB SLT ISZERO PUSH2 0x117B JUMPI PUSH2 0x117A PUSH2 0x16CF JUMP JUMPDEST JUMPDEST PUSH1 0x0 PUSH2 0x1189 DUP6 DUP3 DUP7 ADD PUSH2 0x107A JUMP JUMPDEST SWAP3 POP POP PUSH1 0x20 PUSH2 0x119A DUP6 DUP3 DUP7 ADD PUSH2 0x108F JUMP JUMPDEST SWAP2 POP POP SWAP3 POP SWAP3 SWAP1 POP JUMP JUMPDEST PUSH2 0x11AD DUP2 PUSH2 0x15B7 JUMP JUMPDEST DUP3 MSTORE POP POP JUMP JUMPDEST PUSH2 0x11BC DUP2 PUSH2 0x15C9 JUMP JUMPDEST DUP3 MSTORE POP POP JUMP JUMPDEST PUSH1 0x0 PUSH2 0x11CD DUP3 PUSH2 0x1545 JUMP JUMPDEST PUSH2 0x11D7 DUP2 DUP6 PUSH2 0x1550 JUMP JUMPDEST SWAP4 POP PUSH2 0x11E7 DUP2 DUP6 PUSH1 0x20 DUP7 ADD PUSH2 0x160C JUMP JUMPDEST PUSH2 0x11F0 DUP2 PUSH2 0x16D4 JUMP JUMPDEST DUP5 ADD SWAP2 POP POP SWAP3 SWAP2 POP POP JUMP JUMPDEST PUSH1 0x0 PUSH2 0x1208 PUSH1 0x23 DUP4 PUSH2 0x1550 JUMP JUMPDEST SWAP2 POP PUSH2 0x1213 DUP3 PUSH2 0x16E5 JUMP JUMPDEST PUSH1 0x40 DUP3 ADD SWAP1 POP SWAP2 SWAP1 POP JUMP JUMPDEST PUSH1 0x0 PUSH2 0x122B PUSH1 0x26 DUP4 PUSH2 0x1550 JUMP JUMPDEST SWAP2 POP PUSH2 0x1236 DUP3 PUSH2 0x1734 JUMP JUMPDEST PUSH1 0x40 DUP3 ADD SWAP1 POP SWAP2 SWAP1 POP JUMP JUMPDEST PUSH1 0x0 PUSH2 0x124E PUSH1 0x22 DUP4 PUSH2 0x1550 JUMP JUMPDEST SWAP2 POP PUSH2 0x1259 DUP3 PUSH2 0x1783 JUMP JUMPDEST PUSH1 0x40 DUP3 ADD SWAP1 POP SWAP2 SWAP1 POP JUMP JUMPDEST PUSH1 0x0 PUSH2 0x1271 PUSH1 0x1D DUP4 PUSH2 0x1550 JUMP JUMPDEST SWAP2 POP PUSH2 0x127C DUP3 PUSH2 0x17D2 JUMP JUMPDEST PUSH1 0x20 DUP3 ADD SWAP1 POP SWAP2 SWAP1 POP JUMP JUMPDEST PUSH1 0x0 PUSH2 0x1294 PUSH1 0x26 DUP4 PUSH2 0x1550 JUMP JUMPDEST SWAP2 POP PUSH2 0x129F DUP3 PUSH2 0x17FB JUMP JUMPDEST PUSH1 0x40 DUP3 ADD SWAP1 POP SWAP2 SWAP1 POP JUMP JUMPDEST PUSH1 0x0 PUSH2 0x12B7 PUSH1 0x20 DUP4 PUSH2 0x1550 JUMP JUMPDEST SWAP2 POP PUSH2 0x12C2 DUP3 PUSH2 0x184A JUMP JUMPDEST PUSH1 0x20 DUP3 ADD SWAP1 POP SWAP2 SWAP1 POP JUMP JUMPDEST PUSH1 0x0 PUSH2 0x12DA PUSH1 0x25 DUP4 PUSH2 0x1550 JUMP JUMPDEST SWAP2 POP PUSH2 0x12E5 DUP3 PUSH2 0x1873 JUMP JUMPDEST PUSH1 0x40 DUP3 ADD SWAP1 POP SWAP2 SWAP1 POP JUMP JUMPDEST PUSH1 0x0 PUSH2 0x12FD PUSH1 0x24 DUP4 PUSH2 0x1550 JUMP JUMPDEST SWAP2 POP PUSH2 0x1308 DUP3 PUSH2 0x18C2 JUMP JUMPDEST PUSH1 0x40 DUP3 ADD SWAP1 POP SWAP2 SWAP1 POP JUMP JUMPDEST PUSH1 0x0 PUSH2 0x1320 PUSH1 0x25 DUP4 PUSH2 0x1550 JUMP JUMPDEST SWAP2 POP PUSH2 0x132B DUP3 PUSH2 0x1911 JUMP JUMPDEST PUSH1 0x40 DUP3 ADD SWAP1 POP SWAP2 SWAP1 POP JUMP JUMPDEST PUSH1 0x0 PUSH2 0x1343 PUSH1 0x1F DUP4 PUSH2 0x1550 JUMP JUMPDEST SWAP2 POP PUSH2 0x134E DUP3 PUSH2 0x1960 JUMP JUMPDEST PUSH1 0x20 DUP3 ADD SWAP1 POP SWAP2 SWAP1 POP JUMP JUMPDEST PUSH2 0x1362 DUP2 PUSH2 0x15F5 JUMP JUMPDEST DUP3 MSTORE POP POP JUMP JUMPDEST PUSH2 0x1371 DUP2 PUSH2 0x15FF JUMP JUMPDEST DUP3 MSTORE POP POP JUMP JUMPDEST PUSH1 0x0 PUSH1 0x20 DUP3 ADD SWAP1 POP PUSH2 0x138C PUSH1 0x0 DUP4 ADD DUP5 PUSH2 0x11A4 JUMP JUMPDEST SWAP3 SWAP2 POP POP JUMP JUMPDEST PUSH1 0x0 PUSH1 0x20 DUP3 ADD SWAP1 POP PUSH2 0x13A7 PUSH1 0x0 DUP4 ADD DUP5 PUSH2 0x11B3 JUMP JUMPDEST SWAP3 SWAP2 POP POP JUMP JUMPDEST PUSH1 0x0 PUSH1 0x20 DUP3 ADD SWAP1 POP DUP2 DUP2 SUB PUSH1 0x0 DUP4 ADD MSTORE PUSH2 0x13C7 DUP2 DUP5 PUSH2 0x11C2 JUMP JUMPDEST SWAP1 POP SWAP3 SWAP2 POP POP JUMP JUMPDEST PUSH1 0x0 PUSH1 0x20 DUP3 ADD SWAP1 POP DUP2 DUP2 SUB PUSH1 0x0 DUP4 ADD MSTORE PUSH2 0x13E8 DUP2 PUSH2 0x11FB JUMP JUMPDEST SWAP1 POP SWAP2 SWAP1 POP JUMP JUMPDEST PUSH1 0x0 PUSH1 0x20 DUP3 ADD SWAP1 POP DUP2 DUP2 SUB PUSH1 0x0 DUP4 ADD MSTORE PUSH2 0x1408 DUP2 PUSH2 0x121E JUMP JUMPDEST SWAP1 POP SWAP2 SWAP1 POP JUMP JUMPDEST PUSH1 0x0 PUSH1 0x20 DUP3 ADD SWAP1 POP DUP2 DUP2 SUB PUSH1 0x0 DUP4 ADD MSTORE PUSH2 0x1428 DUP2 PUSH2 0x1241 JUMP JUMPDEST SWAP1 POP SWAP2 SWAP1 POP JUMP JUMPDEST PUSH1 0x0 PUSH1 0x20 DUP3 ADD SWAP1 POP DUP2 DUP2 SUB PUSH1 0x0 DUP4 ADD MSTORE PUSH2 0x1448 DUP2 PUSH2 0x1264 JUMP JUMPDEST SWAP1 POP SWAP2 SWAP1 POP JUMP JUMPDEST PUSH1 0x0 PUSH1 0x20 DUP3 ADD SWAP1 POP DUP2 DUP2 SUB PUSH1 0x0 DUP4 ADD MSTORE PUSH2 0x1468 DUP2 PUSH2 0x1287 JUMP JUMPDEST SWAP1 POP SWAP2 SWAP1 POP JUMP JUMPDEST PUSH1 0x0 PUSH1 0x20 DUP3 ADD SWAP1 POP DUP2 DUP2 SUB PUSH1 0x0 DUP4 ADD MSTORE PUSH2 0x1488 DUP2 PUSH2 0x12AA JUMP JUMPDEST SWAP1 POP SWAP2 SWAP1 POP JUMP JUMPDEST PUSH1 0x0 PUSH1 0x20 DUP3 ADD SWAP1 POP DUP2 DUP2 SUB PUSH1 0x0 DUP4 ADD MSTORE PUSH2 0x14A8 DUP2 PUSH2 0x12CD JUMP JUMPDEST SWAP1 POP SWAP2 SWAP1 POP JUMP JUMPDEST PUSH1 0x0 PUSH1 0x20 DUP3 ADD SWAP1 POP DUP2 DUP2 SUB PUSH1 0x0 DUP4 ADD MSTORE PUSH2 0x14C8 DUP2 PUSH2 0x12F0 JUMP JUMPDEST SWAP1 POP SWAP2 SWAP1 POP JUMP JUMPDEST PUSH1 0x0 PUSH1 0x20 DUP3 ADD SWAP1 POP DUP2 DUP2 SUB PUSH1 0x0 DUP4 ADD MSTORE PUSH2 0x14E8 DUP2 PUSH2 0x1313 JUMP JUMPDEST SWAP1 POP SWAP2 SWAP1 POP JUMP JUMPDEST PUSH1 0x0 PUSH1 0x20 DUP3 ADD SWAP1 POP DUP2 DUP2 SUB PUSH1 0x0 DUP4 ADD MSTORE PUSH2 0x1508 DUP2 PUSH2 0x1336 JUMP JUMPDEST SWAP1 POP SWAP2 SWAP1 POP JUMP JUMPDEST PUSH1 0x0 PUSH1 0x20 DUP3 ADD SWAP1 POP PUSH2 0x1524 PUSH1 0x0 DUP4 ADD DUP5 PUSH2 0x1359 JUMP JUMPDEST SWAP3 SWAP2 POP POP JUMP JUMPDEST PUSH1 0x0 PUSH1 0x20 DUP3 ADD SWAP1 POP PUSH2 0x153F PUSH1 0x0 DUP4 ADD DUP5 PUSH2 0x1368 JUMP JUMPDEST SWAP3 SWAP2 POP POP JUMP JUMPDEST PUSH1 0x0 DUP2 MLOAD SWAP1 POP SWAP2 SWAP1 POP JUMP JUMPDEST PUSH1 0x0 DUP3 DUP3 MSTORE PUSH1 0x20 DUP3 ADD SWAP1 POP SWAP3 SWAP2 POP POP JUMP JUMPDEST PUSH1 0x0 PUSH2 0x156C DUP3 PUSH2 0x15F5 JUMP JUMPDEST SWAP2 POP PUSH2 0x1577 DUP4 PUSH2 0x15F5 JUMP JUMPDEST SWAP3 POP DUP3 PUSH32 0xFFFFFFFFFFFFFFFFFFFFFFFFFFFFFFFFFFFFFFFFFFFFFFFFFFFFFFFFFFFFFFFF SUB DUP3 GT ISZERO PUSH2 0x15AC JUMPI PUSH2 0x15AB PUSH2 0x1671 JUMP JUMPDEST JUMPDEST DUP3 DUP3 ADD SWAP1 POP SWAP3 SWAP2 POP POP JUMP JUMPDEST PUSH1 0x0 PUSH2 0x15C2 DUP3 PUSH2 0x15D5 JUMP JUMPDEST SWAP1 POP SWAP2 SWAP1 POP JUMP JUMPDEST PUSH1 0x0 DUP2 ISZERO ISZERO SWAP1 POP SWAP2 SWAP1 POP JUMP JUMPDEST PUSH1 0x0 PUSH20 0xFFFFFFFFFFFFFFFFFFFFFFFFFFFFFFFFFFFFFFFF DUP3 AND SWAP1 POP SWAP2 SWAP1 POP JUMP JUMPDEST PUSH1 0x0 DUP2 SWAP1 POP SWAP2 SWAP1 POP JUMP JUMPDEST PUSH1 0x0 PUSH1 0xFF DUP3 AND SWAP1 POP SWAP2 SWAP1 POP JUMP JUMPDEST PUSH1 0x0 JUMPDEST DUP4 DUP2 LT ISZERO PUSH2 0x162A JUMPI DUP1 DUP3 ADD MLOAD DUP2 DUP5 ADD MSTORE PUSH1 0x20 DUP2 ADD SWAP1 POP PUSH2 0x160F JUMP JUMPDEST DUP4 DUP2 GT ISZERO PUSH2 0x1639 JUMPI PUSH1 0x0 DUP5 DUP5 ADD MSTORE JUMPDEST POP POP POP POP JUMP JUMPDEST PUSH1 0x0 PUSH1 0x2 DUP3 DIV SWAP1 POP PUSH1 0x1 DUP3 AND DUP1 PUSH2 0x1657 JUMPI PUSH1 0x7F DUP3 AND SWAP2 POP JUMPDEST PUSH1 0x20 DUP3 LT DUP2 EQ ISZERO PUSH2 0x166B JUMPI PUSH2 0x166A PUSH2 0x16A0 JUMP JUMPDEST JUMPDEST POP SWAP2 SWAP1 POP JUMP JUMPDEST PUSH32 0x4E487B7100000000000000000000000000000000000000000000000000000000 PUSH1 0x0 MSTORE PUSH1 0x11 PUSH1 0x4 MSTORE PUSH1 0x24 PUSH1 0x0 REVERT JUMPDEST PUSH32 0x4E487B7100000000000000000000000000000000000000000000000000000000 PUSH1 0x0 MSTORE PUSH1 0x22 PUSH1 0x4 MSTORE PUSH1 0x24 PUSH1 0x0 REVERT JUMPDEST PUSH1 0x0 DUP1 REVERT JUMPDEST PUSH1 0x0 PUSH1 0x1F NOT PUSH1 0x1F DUP4 ADD AND SWAP1 POP SWAP2 SWAP1 POP JUMP JUMPDEST PUSH32 0x45524332303A207472616E7366657220746F20746865207A65726F2061646472 PUSH1 0x0 DUP3 ADD MSTORE PUSH32 0x6573730000000000000000000000000000000000000000000000000000000000 PUSH1 0x20 DUP3 ADD MSTORE POP JUMP JUMPDEST PUSH32 0x4F776E61626C653A206E6577206F776E657220697320746865207A65726F2061 PUSH1 0x0 DUP3 ADD MSTORE PUSH32 0x6464726573730000000000000000000000000000000000000000000000000000 PUSH1 0x20 DUP3 ADD MSTORE POP JUMP JUMPDEST PUSH32 0x45524332303A20617070726F766520746F20746865207A65726F206164647265 PUSH1 0x0 DUP3 ADD MSTORE PUSH32 0x7373000000000000000000000000000000000000000000000000000000000000 PUSH1 0x20 DUP3 ADD MSTORE POP JUMP JUMPDEST PUSH32 0x45524332303A20696E73756666696369656E7420616C6C6F77616E6365000000 PUSH1 0x0 DUP3 ADD MSTORE POP JUMP JUMPDEST PUSH32 0x45524332303A207472616E7366657220616D6F756E7420657863656564732062 PUSH1 0x0 DUP3 ADD MSTORE PUSH32 0x616C616E63650000000000000000000000000000000000000000000000000000 PUSH1 0x20 DUP3 ADD MSTORE POP JUMP JUMPDEST PUSH32 0x4F776E61626C653A2063616C6C6572206973206E6F7420746865206F776E6572 PUSH1 0x0 DUP3 ADD MSTORE POP JUMP JUMPDEST PUSH32 0x45524332303A207472616E736665722066726F6D20746865207A65726F206164 PUSH1 0x0 DUP3 ADD MSTORE PUSH32 0x6472657373000000000000000000000000000000000000000000000000000000 PUSH1 0x20 DUP3 ADD MSTORE POP JUMP JUMPDEST PUSH32 0x45524332303A20617070726F76652066726F6D20746865207A65726F20616464 PUSH1 0x0 DUP3 ADD MSTORE PUSH32 0x7265737300000000000000000000000000000000000000000000000000000000 PUSH1 0x20 DUP3 ADD MSTORE POP JUMP JUMPDEST PUSH32 0x45524332303A2064656372656173656420616C6C6F77616E63652062656C6F77 PUSH1 0x0 DUP3 ADD MSTORE PUSH32 0x207A65726F000000000000000000000000000000000000000000000000000000 PUSH1 0x20 DUP3 ADD MSTORE POP JUMP JUMPDEST PUSH32 0x45524332303A206D696E7420746F20746865207A65726F206164647265737300 PUSH1 0x0 DUP3 ADD MSTORE POP JUMP JUMPDEST PUSH2 0x1992 DUP2 PUSH2 0x15B7 JUMP JUMPDEST DUP2 EQ PUSH2 0x199D JUMPI PUSH1 0x0 DUP1 REVERT JUMPDEST POP JUMP JUMPDEST PUSH2 0x19A9 DUP2 PUSH2 0x15F5 JUMP JUMPDEST DUP2 EQ PUSH2 0x19B4 JUMPI PUSH1 0x0 DUP1 REVERT JUMPDEST POP JUMP INVALID LOG2 PUSH5 0x6970667358 0x22 SLT KECCAK256 ADDMOD CALLCODE CALLDATALOAD 0xD3 TIMESTAMP MSTORE8 0xF9 MSTORE8 DUP9 LOG4 SHR CALLDATASIZE SELFBALANCE 0xC4 PUSH10 0xED4C53C35869CD4E0A0A PUSH19 0xDF608AFA500C64736F6C634300080700330000 "
		},
		"gasEstimates": {
			"creation": {
				"codeDepositCost": "4572800",
				"executionCost": "infinite",
				"totalCost": "infinite"
			},
			"external": {
				"Step1()": "infinite",
				"USDTADDRESS()": "2603",
				"airdrop()": "infinite",
				"allowance(address,address)": "infinite",
				"approve(address,uint256)": "infinite",
				"balanceOf(address)": "2864",
				"decimals()": "366",
				"decreaseAllowance(address,uint256)": "infinite",
				"increaseAllowance(address,uint256)": "infinite",
				"name()": "infinite",
				"owner()": "2589",
				"pair()": "2558",
				"quintADDRESS()": "2625",
				"renounceOwnership()": "30307",
				"step2()": "infinite",
				"symbol()": "infinite",
				"totalSupply()": "2527",
				"transfer(address,uint256)": "infinite",
				"transferFrom(address,address,uint256)": "infinite",
				"transferOwnership(address)": "30750"
			}
		},
		"methodIdentifiers": {
			"Step1()": "1415a9c2",
			"USDTADDRESS()": "3d483770",
			"airdrop()": "3884d635",
			"allowance(address,address)": "dd62ed3e",
			"approve(address,uint256)": "095ea7b3",
			"balanceOf(address)": "70a08231",
			"decimals()": "313ce567",
			"decreaseAllowance(address,uint256)": "a457c2d7",
			"increaseAllowance(address,uint256)": "39509351",
			"name()": "06fdde03",
			"owner()": "8da5cb5b",
			"pair()": "a8aa1b31",
			"quintADDRESS()": "419a893c",
			"renounceOwnership()": "715018a6",
			"step2()": "8f4ed333",
			"symbol()": "95d89b41",
			"totalSupply()": "18160ddd",
			"transfer(address,uint256)": "a9059cbb",
			"transferFrom(address,address,uint256)": "23b872dd",
			"transferOwnership(address)": "f2fde38b"
		}
	},
	"abi": [
		{
			"inputs": [
				{
					"internalType": "address",
					"name": "factory",
					"type": "address"
				},
				{
					"internalType": "address",
					"name": "router",
					"type": "address"
				}
			],
			"stateMutability": "nonpayable",
			"type": "constructor"
		},
		{
			"anonymous": false,
			"inputs": [
				{
					"indexed": true,
					"internalType": "address",
					"name": "owner",
					"type": "address"
				},
				{
					"indexed": true,
					"internalType": "address",
					"name": "spender",
					"type": "address"
				},
				{
					"indexed": false,
					"internalType": "uint256",
					"name": "value",
					"type": "uint256"
				}
			],
			"name": "Approval",
			"type": "event"
		},
		{
			"anonymous": false,
			"inputs": [
				{
					"indexed": false,
					"internalType": "uint8",
					"name": "version",
					"type": "uint8"
				}
			],
			"name": "Initialized",
			"type": "event"
		},
		{
			"anonymous": false,
			"inputs": [
				{
					"indexed": true,
					"internalType": "address",
					"name": "previousOwner",
					"type": "address"
				},
				{
					"indexed": true,
					"internalType": "address",
					"name": "newOwner",
					"type": "address"
				}
			],
			"name": "OwnershipTransferred",
			"type": "event"
		},
		{
			"anonymous": false,
			"inputs": [
				{
					"indexed": true,
					"internalType": "address",
					"name": "from",
					"type": "address"
				},
				{
					"indexed": true,
					"internalType": "address",
					"name": "to",
					"type": "address"
				},
				{
					"indexed": false,
					"internalType": "uint256",
					"name": "value",
					"type": "uint256"
				}
			],
			"name": "Transfer",
			"type": "event"
		},
		{
			"inputs": [],
			"name": "Step1",
			"outputs": [],
			"stateMutability": "nonpayable",
			"type": "function"
		},
		{
			"inputs": [],
			"name": "USDTADDRESS",
			"outputs": [
				{
					"internalType": "address",
					"name": "",
					"type": "address"
				}
			],
			"stateMutability": "view",
			"type": "function"
		},
		{
			"inputs": [],
			"name": "airdrop",
			"outputs": [],
			"stateMutability": "nonpayable",
			"type": "function"
		},
		{
			"inputs": [
				{
					"internalType": "address",
					"name": "owner",
					"type": "address"
				},
				{
					"internalType": "address",
					"name": "spender",
					"type": "address"
				}
			],
			"name": "allowance",
			"outputs": [
				{
					"internalType": "uint256",
					"name": "",
					"type": "uint256"
				}
			],
			"stateMutability": "view",
			"type": "function"
		},
		{
			"inputs": [
				{
					"internalType": "address",
					"name": "spender",
					"type": "address"
				},
				{
					"internalType": "uint256",
					"name": "amount",
					"type": "uint256"
				}
			],
			"name": "approve",
			"outputs": [
				{
					"internalType": "bool",
					"name": "",
					"type": "bool"
				}
			],
			"stateMutability": "nonpayable",
			"type": "function"
		},
		{
			"inputs": [
				{
					"internalType": "address",
					"name": "account",
					"type": "address"
				}
			],
			"name": "balanceOf",
			"outputs": [
				{
					"internalType": "uint256",
					"name": "",
					"type": "uint256"
				}
			],
			"stateMutability": "view",
			"type": "function"
		},
		{
			"inputs": [],
			"name": "decimals",
			"outputs": [
				{
					"internalType": "uint8",
					"name": "",
					"type": "uint8"
				}
			],
			"stateMutability": "view",
			"type": "function"
		},
		{
			"inputs": [
				{
					"internalType": "address",
					"name": "spender",
					"type": "address"
				},
				{
					"internalType": "uint256",
					"name": "subtractedValue",
					"type": "uint256"
				}
			],
			"name": "decreaseAllowance",
			"outputs": [
				{
					"internalType": "bool",
					"name": "",
					"type": "bool"
				}
			],
			"stateMutability": "nonpayable",
			"type": "function"
		},
		{
			"inputs": [
				{
					"internalType": "address",
					"name": "spender",
					"type": "address"
				},
				{
					"internalType": "uint256",
					"name": "addedValue",
					"type": "uint256"
				}
			],
			"name": "increaseAllowance",
			"outputs": [
				{
					"internalType": "bool",
					"name": "",
					"type": "bool"
				}
			],
			"stateMutability": "nonpayable",
			"type": "function"
		},
		{
			"inputs": [],
			"name": "name",
			"outputs": [
				{
					"internalType": "string",
					"name": "",
					"type": "string"
				}
			],
			"stateMutability": "view",
			"type": "function"
		},
		{
			"inputs": [],
			"name": "owner",
			"outputs": [
				{
					"internalType": "address",
					"name": "",
					"type": "address"
				}
			],
			"stateMutability": "view",
			"type": "function"
		},
		{
			"inputs": [],
			"name": "pair",
			"outputs": [
				{
					"internalType": "address",
					"name": "",
					"type": "address"
				}
			],
			"stateMutability": "view",
			"type": "function"
		},
		{
			"inputs": [],
			"name": "quintADDRESS",
			"outputs": [
				{
					"internalType": "address",
					"name": "",
					"type": "address"
				}
			],
			"stateMutability": "view",
			"type": "function"
		},
		{
			"inputs": [],
			"name": "renounceOwnership",
			"outputs": [],
			"stateMutability": "nonpayable",
			"type": "function"
		},
		{
			"inputs": [],
			"name": "step2",
			"outputs": [],
			"stateMutability": "nonpayable",
			"type": "function"
		},
		{
			"inputs": [],
			"name": "symbol",
			"outputs": [
				{
					"internalType": "string",
					"name": "",
					"type": "string"
				}
			],
			"stateMutability": "view",
			"type": "function"
		},
		{
			"inputs": [],
			"name": "totalSupply",
			"outputs": [
				{
					"internalType": "uint256",
					"name": "",
					"type": "uint256"
				}
			],
			"stateMutability": "view",
			"type": "function"
		},
		{
			"inputs": [
				{
					"internalType": "address",
					"name": "to",
					"type": "address"
				},
				{
					"internalType": "uint256",
					"name": "amount",
					"type": "uint256"
				}
			],
			"name": "transfer",
			"outputs": [
				{
					"internalType": "bool",
					"name": "",
					"type": "bool"
				}
			],
			"stateMutability": "nonpayable",
			"type": "function"
		},
		{
			"inputs": [
				{
					"internalType": "address",
					"name": "from",
					"type": "address"
				},
				{
					"internalType": "address",
					"name": "to",
					"type": "address"
				},
				{
					"internalType": "uint256",
					"name": "amount",
					"type": "uint256"
				}
			],
			"name": "transferFrom",
			"outputs": [
				{
					"internalType": "bool",
					"name": "",
					"type": "bool"
				}
			],
			"stateMutability": "nonpayable",
			"type": "function"
		},
		{
			"inputs": [
				{
					"internalType": "address",
					"name": "newOwner",
					"type": "address"
				}
			],
			"name": "transferOwnership",
			"outputs": [],
			"stateMutability": "nonpayable",
			"type": "function"
		}
	]
}