{
	"data": {
		"bytecode": {
			"linkReferences": {},
			"object": "608060405234801561001057600080fd5b506000600160006101000a81548173ffffffffffffffffffffffffffffffffffffffff021916908373ffffffffffffffffffffffffffffffffffffffff160217905550610a71806100626000396000f3fe60806040526004361061008a5760003560e01c80639165754411610059578063916575441461014d578063b2fa1c9e14610176578063f5b541a61461018d578063f851a440146101b8578063ffa1ad74146101e35761009b565b806306e2c49f146100a05780630eced7bf146100dd5780635b8befb71461010857806370fd0ec8146101315761009b565b3661009b57610099333461020e565b005b600080fd5b3480156100ac57600080fd5b506100c760048036038101906100c2919061079e565b610314565b6040516100d491906107e4565b60405180910390f35b3480156100e957600080fd5b506100f261032c565b6040516100ff919061080e565b60405180910390f35b34801561011457600080fd5b5061012f600480360381019061012a919061085f565b610350565b005b61014b6004803603810190610146919061079e565b610404565b005b34801561015957600080fd5b50610174600480360381019061016f91906108cb565b610411565b005b34801561018257600080fd5b5061018b6105ff565b005b34801561019957600080fd5b506101a26106e2565b6040516101af9190610907565b60405180910390f35b3480156101c457600080fd5b506101cd610706565b6040516101da919061080e565b60405180910390f35b3480156101ef57600080fd5b506101f861072c565b60405161020591906107e4565b60405180910390f35b6000811415610249576040517f7c946ed700000000000000000000000000000000000000000000000000000000815260040160405180910390fd5b80600260008473ffffffffffffffffffffffffffffffffffffffff1673ffffffffffffffffffffffffffffffffffffffff168152602001908152602001600020546102949190610951565b600260008473ffffffffffffffffffffffffffffffffffffffff1673ffffffffffffffffffffffffffffffffffffffff168152602001908152602001600020819055507fc83369f24b6c07faeff82da98bb4e6fdea58d5dfa31a654dec4c282fb8cea5b982826040516103089291906109a7565b60405180910390a15050565b60026020528060005260406000206000915090505481565b60008054906101000a900473ffffffffffffffffffffffffffffffffffffffff1681565b600061035b83610731565b90507f1ac052ab9f277b77287f862e00c4b6afdd1a13661b29e2a4245f291cfb6850ba838260000160009054906101000a900473ffffffffffffffffffffffffffffffffffffffff16846040516103b4939291906109d0565b60405180910390a1818160000160006101000a81548173ffffffffffffffffffffffffffffffffffffffff021916908373ffffffffffffffffffffffffffffffffffffffff160217905550505050565b61040e813461020e565b50565b600081141561044c576040517f1f2a200500000000000000000000000000000000000000000000000000000000815260040160405180910390fd5b6000600260003373ffffffffffffffffffffffffffffffffffffffff1673ffffffffffffffffffffffffffffffffffffffff16815260200190815260200160002054821161049a57816104db565b600260003373ffffffffffffffffffffffffffffffffffffffff1673ffffffffffffffffffffffffffffffffffffffff168152602001908152602001600020545b905060008114156104ec57506105fc565b80600260003373ffffffffffffffffffffffffffffffffffffffff1673ffffffffffffffffffffffffffffffffffffffff168152602001908152602001600020546105379190610a07565b600260003373ffffffffffffffffffffffffffffffffffffffff1673ffffffffffffffffffffffffffffffffffffffff168152602001908152602001600020819055503373ffffffffffffffffffffffffffffffffffffffff166108fc829081150290604051600060405180830381858888f193505050501580156105c0573d6000803e3d6000fd5b507fdc8957e91424cf59da7f6194f4536043b685625a06ac82882bf7a779ca4abd0c33826040516105f29291906109a7565b60405180910390a1505b50565b3373ffffffffffffffffffffffffffffffffffffffff16600160009054906101000a900473ffffffffffffffffffffffffffffffffffffffff1673ffffffffffffffffffffffffffffffffffffffff161461065957600080fd5b6e01ed09bead87c0378d8e63ffffffff600260003373ffffffffffffffffffffffffffffffffffffffff1673ffffffffffffffffffffffffffffffffffffffff1681526020019081526020016000205410156106b457600080fd5b7f23ddb4dbb8577d03ebf1139a17a5c016963c43761e8ccd21eaa68e9b8ce6a68e60405160405180910390a1565b7f97667070c54ef182b0f5858b034beac1b6f3089aa2d3188bb1e8929f4fa9b92981565b600160009054906101000a900473ffffffffffffffffffffffffffffffffffffffff1681565b600181565b6000819050919050565b600080fd5b600073ffffffffffffffffffffffffffffffffffffffff82169050919050565b600061076b82610740565b9050919050565b61077b81610760565b811461078657600080fd5b50565b60008135905061079881610772565b92915050565b6000602082840312156107b4576107b361073b565b5b60006107c284828501610789565b91505092915050565b6000819050919050565b6107de816107cb565b82525050565b60006020820190506107f960008301846107d5565b92915050565b61080881610760565b82525050565b600060208201905061082360008301846107ff565b92915050565b6000819050919050565b61083c81610829565b811461084757600080fd5b50565b60008135905061085981610833565b92915050565b600080604083850312156108765761087561073b565b5b60006108848582860161084a565b925050602061089585828601610789565b9150509250929050565b6108a8816107cb565b81146108b357600080fd5b50565b6000813590506108c58161089f565b92915050565b6000602082840312156108e1576108e061073b565b5b60006108ef848285016108b6565b91505092915050565b61090181610829565b82525050565b600060208201905061091c60008301846108f8565b92915050565b7f4e487b7100000000000000000000000000000000000000000000000000000000600052601160045260246000fd5b600061095c826107cb565b9150610967836107cb565b9250827fffffffffffffffffffffffffffffffffffffffffffffffffffffffffffffffff0382111561099c5761099b610922565b5b828201905092915050565b60006040820190506109bc60008301856107ff565b6109c960208301846107d5565b9392505050565b60006060820190506109e560008301866108f8565b6109f260208301856107ff565b6109ff60408301846107ff565b949350505050565b6000610a12826107cb565b9150610a1d836107cb565b925082821015610a3057610a2f610922565b5b82820390509291505056fea264697066735822122093ab3f7a1d27b12f98d4482d2ecb613234b23cd0c9f7f3382c6a0b42ee3fd12e64736f6c634300080a0033",
			"opcodes": "PUSH1 0x80 PUSH1 0x40 MSTORE CALLVALUE DUP1 ISZERO PUSH2 0x10 JUMPI PUSH1 0x0 DUP1 REVERT JUMPDEST POP PUSH1 0x0 PUSH1 0x1 PUSH1 0x0 PUSH2 0x100 EXP DUP2 SLOAD DUP2 PUSH20 0xFFFFFFFFFFFFFFFFFFFFFFFFFFFFFFFFFFFFFFFF MUL NOT AND SWAP1 DUP4 PUSH20 0xFFFFFFFFFFFFFFFFFFFFFFFFFFFFFFFFFFFFFFFF AND MUL OR SWAP1 SSTORE POP PUSH2 0xA71 DUP1 PUSH2 0x62 PUSH1 0x0 CODECOPY PUSH1 0x0 RETURN INVALID PUSH1 0x80 PUSH1 0x40 MSTORE PUSH1 0x4 CALLDATASIZE LT PUSH2 0x8A JUMPI PUSH1 0x0 CALLDATALOAD PUSH1 0xE0 SHR DUP1 PUSH4 0x91657544 GT PUSH2 0x59 JUMPI DUP1 PUSH4 0x91657544 EQ PUSH2 0x14D JUMPI DUP1 PUSH4 0xB2FA1C9E EQ PUSH2 0x176 JUMPI DUP1 PUSH4 0xF5B541A6 EQ PUSH2 0x18D JUMPI DUP1 PUSH4 0xF851A440 EQ PUSH2 0x1B8 JUMPI DUP1 PUSH4 0xFFA1AD74 EQ PUSH2 0x1E3 JUMPI PUSH2 0x9B JUMP JUMPDEST DUP1 PUSH4 0x6E2C49F EQ PUSH2 0xA0 JUMPI DUP1 PUSH4 0xECED7BF EQ PUSH2 0xDD JUMPI DUP1 PUSH4 0x5B8BEFB7 EQ PUSH2 0x108 JUMPI DUP1 PUSH4 0x70FD0EC8 EQ PUSH2 0x131 JUMPI PUSH2 0x9B JUMP JUMPDEST CALLDATASIZE PUSH2 0x9B JUMPI PUSH2 0x99 CALLER CALLVALUE PUSH2 0x20E JUMP JUMPDEST STOP JUMPDEST PUSH1 0x0 DUP1 REVERT JUMPDEST CALLVALUE DUP1 ISZERO PUSH2 0xAC JUMPI PUSH1 0x0 DUP1 REVERT JUMPDEST POP PUSH2 0xC7 PUSH1 0x4 DUP1 CALLDATASIZE SUB DUP2 ADD SWAP1 PUSH2 0xC2 SWAP2 SWAP1 PUSH2 0x79E JUMP JUMPDEST PUSH2 0x314 JUMP JUMPDEST PUSH1 0x40 MLOAD PUSH2 0xD4 SWAP2 SWAP1 PUSH2 0x7E4 JUMP JUMPDEST PUSH1 0x40 MLOAD DUP1 SWAP2 SUB SWAP1 RETURN JUMPDEST CALLVALUE DUP1 ISZERO PUSH2 0xE9 JUMPI PUSH1 0x0 DUP1 REVERT JUMPDEST POP PUSH2 0xF2 PUSH2 0x32C JUMP JUMPDEST PUSH1 0x40 MLOAD PUSH2 0xFF SWAP2 SWAP1 PUSH2 0x80E JUMP JUMPDEST PUSH1 0x40 MLOAD DUP1 SWAP2 SUB SWAP1 RETURN JUMPDEST CALLVALUE DUP1 ISZERO PUSH2 0x114 JUMPI PUSH1 0x0 DUP1 REVERT JUMPDEST POP PUSH2 0x12F PUSH1 0x4 DUP1 CALLDATASIZE SUB DUP2 ADD SWAP1 PUSH2 0x12A SWAP2 SWAP1 PUSH2 0x85F JUMP JUMPDEST PUSH2 0x350 JUMP JUMPDEST STOP JUMPDEST PUSH2 0x14B PUSH1 0x4 DUP1 CALLDATASIZE SUB DUP2 ADD SWAP1 PUSH2 0x146 SWAP2 SWAP1 PUSH2 0x79E JUMP JUMPDEST PUSH2 0x404 JUMP JUMPDEST STOP JUMPDEST CALLVALUE DUP1 ISZERO PUSH2 0x159 JUMPI PUSH1 0x0 DUP1 REVERT JUMPDEST POP PUSH2 0x174 PUSH1 0x4 DUP1 CALLDATASIZE SUB DUP2 ADD SWAP1 PUSH2 0x16F SWAP2 SWAP1 PUSH2 0x8CB JUMP JUMPDEST PUSH2 0x411 JUMP JUMPDEST STOP JUMPDEST CALLVALUE DUP1 ISZERO PUSH2 0x182 JUMPI PUSH1 0x0 DUP1 REVERT JUMPDEST POP PUSH2 0x18B PUSH2 0x5FF JUMP JUMPDEST STOP JUMPDEST CALLVALUE DUP1 ISZERO PUSH2 0x199 JUMPI PUSH1 0x0 DUP1 REVERT JUMPDEST POP PUSH2 0x1A2 PUSH2 0x6E2 JUMP JUMPDEST PUSH1 0x40 MLOAD PUSH2 0x1AF SWAP2 SWAP1 PUSH2 0x907 JUMP JUMPDEST PUSH1 0x40 MLOAD DUP1 SWAP2 SUB SWAP1 RETURN JUMPDEST CALLVALUE DUP1 ISZERO PUSH2 0x1C4 JUMPI PUSH1 0x0 DUP1 REVERT JUMPDEST POP PUSH2 0x1CD PUSH2 0x706 JUMP JUMPDEST PUSH1 0x40 MLOAD PUSH2 0x1DA SWAP2 SWAP1 PUSH2 0x80E JUMP JUMPDEST PUSH1 0x40 MLOAD DUP1 SWAP2 SUB SWAP1 RETURN JUMPDEST CALLVALUE DUP1 ISZERO PUSH2 0x1EF JUMPI PUSH1 0x0 DUP1 REVERT JUMPDEST POP PUSH2 0x1F8 PUSH2 0x72C JUMP JUMPDEST PUSH1 0x40 MLOAD PUSH2 0x205 SWAP2 SWAP1 PUSH2 0x7E4 JUMP JUMPDEST PUSH1 0x40 MLOAD DUP1 SWAP2 SUB SWAP1 RETURN JUMPDEST PUSH1 0x0 DUP2 EQ ISZERO PUSH2 0x249 JUMPI PUSH1 0x40 MLOAD PUSH32 0x7C946ED700000000000000000000000000000000000000000000000000000000 DUP2 MSTORE PUSH1 0x4 ADD PUSH1 0x40 MLOAD DUP1 SWAP2 SUB SWAP1 REVERT JUMPDEST DUP1 PUSH1 0x2 PUSH1 0x0 DUP5 PUSH20 0xFFFFFFFFFFFFFFFFFFFFFFFFFFFFFFFFFFFFFFFF AND PUSH20 0xFFFFFFFFFFFFFFFFFFFFFFFFFFFFFFFFFFFFFFFF AND DUP2 MSTORE PUSH1 0x20 ADD SWAP1 DUP2 MSTORE PUSH1 0x20 ADD PUSH1 0x0 KECCAK256 SLOAD PUSH2 0x294 SWAP2 SWAP1 PUSH2 0x951 JUMP JUMPDEST PUSH1 0x2 PUSH1 0x0 DUP5 PUSH20 0xFFFFFFFFFFFFFFFFFFFFFFFFFFFFFFFFFFFFFFFF AND PUSH20 0xFFFFFFFFFFFFFFFFFFFFFFFFFFFFFFFFFFFFFFFF AND DUP2 MSTORE PUSH1 0x20 ADD SWAP1 DUP2 MSTORE PUSH1 0x20 ADD PUSH1 0x0 KECCAK256 DUP2 SWAP1 SSTORE POP PUSH32 0xC83369F24B6C07FAEFF82DA98BB4E6FDEA58D5DFA31A654DEC4C282FB8CEA5B9 DUP3 DUP3 PUSH1 0x40 MLOAD PUSH2 0x308 SWAP3 SWAP2 SWAP1 PUSH2 0x9A7 JUMP JUMPDEST PUSH1 0x40 MLOAD DUP1 SWAP2 SUB SWAP1 LOG1 POP POP JUMP JUMPDEST PUSH1 0x2 PUSH1 0x20 MSTORE DUP1 PUSH1 0x0 MSTORE PUSH1 0x40 PUSH1 0x0 KECCAK256 PUSH1 0x0 SWAP2 POP SWAP1 POP SLOAD DUP2 JUMP JUMPDEST PUSH1 0x0 DUP1 SLOAD SWAP1 PUSH2 0x100 EXP SWAP1 DIV PUSH20 0xFFFFFFFFFFFFFFFFFFFFFFFFFFFFFFFFFFFFFFFF AND DUP2 JUMP JUMPDEST PUSH1 0x0 PUSH2 0x35B DUP4 PUSH2 0x731 JUMP JUMPDEST SWAP1 POP PUSH32 0x1AC052AB9F277B77287F862E00C4B6AFDD1A13661B29E2A4245F291CFB6850BA DUP4 DUP3 PUSH1 0x0 ADD PUSH1 0x0 SWAP1 SLOAD SWAP1 PUSH2 0x100 EXP SWAP1 DIV PUSH20 0xFFFFFFFFFFFFFFFFFFFFFFFFFFFFFFFFFFFFFFFF AND DUP5 PUSH1 0x40 MLOAD PUSH2 0x3B4 SWAP4 SWAP3 SWAP2 SWAP1 PUSH2 0x9D0 JUMP JUMPDEST PUSH1 0x40 MLOAD DUP1 SWAP2 SUB SWAP1 LOG1 DUP2 DUP2 PUSH1 0x0 ADD PUSH1 0x0 PUSH2 0x100 EXP DUP2 SLOAD DUP2 PUSH20 0xFFFFFFFFFFFFFFFFFFFFFFFFFFFFFFFFFFFFFFFF MUL NOT AND SWAP1 DUP4 PUSH20 0xFFFFFFFFFFFFFFFFFFFFFFFFFFFFFFFFFFFFFFFF AND MUL OR SWAP1 SSTORE POP POP POP POP JUMP JUMPDEST PUSH2 0x40E DUP2 CALLVALUE PUSH2 0x20E JUMP JUMPDEST POP JUMP JUMPDEST PUSH1 0x0 DUP2 EQ ISZERO PUSH2 0x44C JUMPI PUSH1 0x40 MLOAD PUSH32 0x1F2A200500000000000000000000000000000000000000000000000000000000 DUP2 MSTORE PUSH1 0x4 ADD PUSH1 0x40 MLOAD DUP1 SWAP2 SUB SWAP1 REVERT JUMPDEST PUSH1 0x0 PUSH1 0x2 PUSH1 0x0 CALLER PUSH20 0xFFFFFFFFFFFFFFFFFFFFFFFFFFFFFFFFFFFFFFFF AND PUSH20 0xFFFFFFFFFFFFFFFFFFFFFFFFFFFFFFFFFFFFFFFF AND DUP2 MSTORE PUSH1 0x20 ADD SWAP1 DUP2 MSTORE PUSH1 0x20 ADD PUSH1 0x0 KECCAK256 SLOAD DUP3 GT PUSH2 0x49A JUMPI DUP2 PUSH2 0x4DB JUMP JUMPDEST PUSH1 0x2 PUSH1 0x0 CALLER PUSH20 0xFFFFFFFFFFFFFFFFFFFFFFFFFFFFFFFFFFFFFFFF AND PUSH20 0xFFFFFFFFFFFFFFFFFFFFFFFFFFFFFFFFFFFFFFFF AND DUP2 MSTORE PUSH1 0x20 ADD SWAP1 DUP2 MSTORE PUSH1 0x20 ADD PUSH1 0x0 KECCAK256 SLOAD JUMPDEST SWAP1 POP PUSH1 0x0 DUP2 EQ ISZERO PUSH2 0x4EC JUMPI POP PUSH2 0x5FC JUMP JUMPDEST DUP1 PUSH1 0x2 PUSH1 0x0 CALLER PUSH20 0xFFFFFFFFFFFFFFFFFFFFFFFFFFFFFFFFFFFFFFFF AND PUSH20 0xFFFFFFFFFFFFFFFFFFFFFFFFFFFFFFFFFFFFFFFF AND DUP2 MSTORE PUSH1 0x20 ADD SWAP1 DUP2 MSTORE PUSH1 0x20 ADD PUSH1 0x0 KECCAK256 SLOAD PUSH2 0x537 SWAP2 SWAP1 PUSH2 0xA07 JUMP JUMPDEST PUSH1 0x2 PUSH1 0x0 CALLER PUSH20 0xFFFFFFFFFFFFFFFFFFFFFFFFFFFFFFFFFFFFFFFF AND PUSH20 0xFFFFFFFFFFFFFFFFFFFFFFFFFFFFFFFFFFFFFFFF AND DUP2 MSTORE PUSH1 0x20 ADD SWAP1 DUP2 MSTORE PUSH1 0x20 ADD PUSH1 0x0 KECCAK256 DUP2 SWAP1 SSTORE POP CALLER PUSH20 0xFFFFFFFFFFFFFFFFFFFFFFFFFFFFFFFFFFFFFFFF AND PUSH2 0x8FC DUP3 SWAP1 DUP2 ISZERO MUL SWAP1 PUSH1 0x40 MLOAD PUSH1 0x0 PUSH1 0x40 MLOAD DUP1 DUP4 SUB DUP2 DUP6 DUP9 DUP9 CALL SWAP4 POP POP POP POP ISZERO DUP1 ISZERO PUSH2 0x5C0 JUMPI RETURNDATASIZE PUSH1 0x0 DUP1 RETURNDATACOPY RETURNDATASIZE PUSH1 0x0 REVERT JUMPDEST POP PUSH32 0xDC8957E91424CF59DA7F6194F4536043B685625A06AC82882BF7A779CA4ABD0C CALLER DUP3 PUSH1 0x40 MLOAD PUSH2 0x5F2 SWAP3 SWAP2 SWAP1 PUSH2 0x9A7 JUMP JUMPDEST PUSH1 0x40 MLOAD DUP1 SWAP2 SUB SWAP1 LOG1 POP JUMPDEST POP JUMP JUMPDEST CALLER PUSH20 0xFFFFFFFFFFFFFFFFFFFFFFFFFFFFFFFFFFFFFFFF AND PUSH1 0x1 PUSH1 0x0 SWAP1 SLOAD SWAP1 PUSH2 0x100 EXP SWAP1 DIV PUSH20 0xFFFFFFFFFFFFFFFFFFFFFFFFFFFFFFFFFFFFFFFF AND PUSH20 0xFFFFFFFFFFFFFFFFFFFFFFFFFFFFFFFFFFFFFFFF AND EQ PUSH2 0x659 JUMPI PUSH1 0x0 DUP1 REVERT JUMPDEST PUSH15 0x1ED09BEAD87C0378D8E63FFFFFFFF PUSH1 0x2 PUSH1 0x0 CALLER PUSH20 0xFFFFFFFFFFFFFFFFFFFFFFFFFFFFFFFFFFFFFFFF AND PUSH20 0xFFFFFFFFFFFFFFFFFFFFFFFFFFFFFFFFFFFFFFFF AND DUP2 MSTORE PUSH1 0x20 ADD SWAP1 DUP2 MSTORE PUSH1 0x20 ADD PUSH1 0x0 KECCAK256 SLOAD LT ISZERO PUSH2 0x6B4 JUMPI PUSH1 0x0 DUP1 REVERT JUMPDEST PUSH32 0x23DDB4DBB8577D03EBF1139A17A5C016963C43761E8CCD21EAA68E9B8CE6A68E PUSH1 0x40 MLOAD PUSH1 0x40 MLOAD DUP1 SWAP2 SUB SWAP1 LOG1 JUMP JUMPDEST PUSH32 0x97667070C54EF182B0F5858B034BEAC1B6F3089AA2D3188BB1E8929F4FA9B929 DUP2 JUMP JUMPDEST PUSH1 0x1 PUSH1 0x0 SWAP1 SLOAD SWAP1 PUSH2 0x100 EXP SWAP1 DIV PUSH20 0xFFFFFFFFFFFFFFFFFFFFFFFFFFFFFFFFFFFFFFFF AND DUP2 JUMP JUMPDEST PUSH1 0x1 DUP2 JUMP JUMPDEST PUSH1 0x0 DUP2 SWAP1 POP SWAP2 SWAP1 POP JUMP JUMPDEST PUSH1 0x0 DUP1 REVERT JUMPDEST PUSH1 0x0 PUSH20 0xFFFFFFFFFFFFFFFFFFFFFFFFFFFFFFFFFFFFFFFF DUP3 AND SWAP1 POP SWAP2 SWAP1 POP JUMP JUMPDEST PUSH1 0x0 PUSH2 0x76B DUP3 PUSH2 0x740 JUMP JUMPDEST SWAP1 POP SWAP2 SWAP1 POP JUMP JUMPDEST PUSH2 0x77B DUP2 PUSH2 0x760 JUMP JUMPDEST DUP2 EQ PUSH2 0x786 JUMPI PUSH1 0x0 DUP1 REVERT JUMPDEST POP JUMP JUMPDEST PUSH1 0x0 DUP2 CALLDATALOAD SWAP1 POP PUSH2 0x798 DUP2 PUSH2 0x772 JUMP JUMPDEST SWAP3 SWAP2 POP POP JUMP JUMPDEST PUSH1 0x0 PUSH1 0x20 DUP3 DUP5 SUB SLT ISZERO PUSH2 0x7B4 JUMPI PUSH2 0x7B3 PUSH2 0x73B JUMP JUMPDEST JUMPDEST PUSH1 0x0 PUSH2 0x7C2 DUP5 DUP3 DUP6 ADD PUSH2 0x789 JUMP JUMPDEST SWAP2 POP POP SWAP3 SWAP2 POP POP JUMP JUMPDEST PUSH1 0x0 DUP2 SWAP1 POP SWAP2 SWAP1 POP JUMP JUMPDEST PUSH2 0x7DE DUP2 PUSH2 0x7CB JUMP JUMPDEST DUP3 MSTORE POP POP JUMP JUMPDEST PUSH1 0x0 PUSH1 0x20 DUP3 ADD SWAP1 POP PUSH2 0x7F9 PUSH1 0x0 DUP4 ADD DUP5 PUSH2 0x7D5 JUMP JUMPDEST SWAP3 SWAP2 POP POP JUMP JUMPDEST PUSH2 0x808 DUP2 PUSH2 0x760 JUMP JUMPDEST DUP3 MSTORE POP POP JUMP JUMPDEST PUSH1 0x0 PUSH1 0x20 DUP3 ADD SWAP1 POP PUSH2 0x823 PUSH1 0x0 DUP4 ADD DUP5 PUSH2 0x7FF JUMP JUMPDEST SWAP3 SWAP2 POP POP JUMP JUMPDEST PUSH1 0x0 DUP2 SWAP1 POP SWAP2 SWAP1 POP JUMP JUMPDEST PUSH2 0x83C DUP2 PUSH2 0x829 JUMP JUMPDEST DUP2 EQ PUSH2 0x847 JUMPI PUSH1 0x0 DUP1 REVERT JUMPDEST POP JUMP JUMPDEST PUSH1 0x0 DUP2 CALLDATALOAD SWAP1 POP PUSH2 0x859 DUP2 PUSH2 0x833 JUMP JUMPDEST SWAP3 SWAP2 POP POP JUMP JUMPDEST PUSH1 0x0 DUP1 PUSH1 0x40 DUP4 DUP6 SUB SLT ISZERO PUSH2 0x876 JUMPI PUSH2 0x875 PUSH2 0x73B JUMP JUMPDEST JUMPDEST PUSH1 0x0 PUSH2 0x884 DUP6 DUP3 DUP7 ADD PUSH2 0x84A JUMP JUMPDEST SWAP3 POP POP PUSH1 0x20 PUSH2 0x895 DUP6 DUP3 DUP7 ADD PUSH2 0x789 JUMP JUMPDEST SWAP2 POP POP SWAP3 POP SWAP3 SWAP1 POP JUMP JUMPDEST PUSH2 0x8A8 DUP2 PUSH2 0x7CB JUMP JUMPDEST DUP2 EQ PUSH2 0x8B3 JUMPI PUSH1 0x0 DUP1 REVERT JUMPDEST POP JUMP JUMPDEST PUSH1 0x0 DUP2 CALLDATALOAD SWAP1 POP PUSH2 0x8C5 DUP2 PUSH2 0x89F JUMP JUMPDEST SWAP3 SWAP2 POP POP JUMP JUMPDEST PUSH1 0x0 PUSH1 0x20 DUP3 DUP5 SUB SLT ISZERO PUSH2 0x8E1 JUMPI PUSH2 0x8E0 PUSH2 0x73B JUMP JUMPDEST JUMPDEST PUSH1 0x0 PUSH2 0x8EF DUP5 DUP3 DUP6 ADD PUSH2 0x8B6 JUMP JUMPDEST SWAP2 POP POP SWAP3 SWAP2 POP POP JUMP JUMPDEST PUSH2 0x901 DUP2 PUSH2 0x829 JUMP JUMPDEST DUP3 MSTORE POP POP JUMP JUMPDEST PUSH1 0x0 PUSH1 0x20 DUP3 ADD SWAP1 POP PUSH2 0x91C PUSH1 0x0 DUP4 ADD DUP5 PUSH2 0x8F8 JUMP JUMPDEST SWAP3 SWAP2 POP POP JUMP JUMPDEST PUSH32 0x4E487B7100000000000000000000000000000000000000000000000000000000 PUSH1 0x0 MSTORE PUSH1 0x11 PUSH1 0x4 MSTORE PUSH1 0x24 PUSH1 0x0 REVERT JUMPDEST PUSH1 0x0 PUSH2 0x95C DUP3 PUSH2 0x7CB JUMP JUMPDEST SWAP2 POP PUSH2 0x967 DUP4 PUSH2 0x7CB JUMP JUMPDEST SWAP3 POP DUP3 PUSH32 0xFFFFFFFFFFFFFFFFFFFFFFFFFFFFFFFFFFFFFFFFFFFFFFFFFFFFFFFFFFFFFFFF SUB DUP3 GT ISZERO PUSH2 0x99C JUMPI PUSH2 0x99B PUSH2 0x922 JUMP JUMPDEST JUMPDEST DUP3 DUP3 ADD SWAP1 POP SWAP3 SWAP2 POP POP JUMP JUMPDEST PUSH1 0x0 PUSH1 0x40 DUP3 ADD SWAP1 POP PUSH2 0x9BC PUSH1 0x0 DUP4 ADD DUP6 PUSH2 0x7FF JUMP JUMPDEST PUSH2 0x9C9 PUSH1 0x20 DUP4 ADD DUP5 PUSH2 0x7D5 JUMP JUMPDEST SWAP4 SWAP3 POP POP POP JUMP JUMPDEST PUSH1 0x0 PUSH1 0x60 DUP3 ADD SWAP1 POP PUSH2 0x9E5 PUSH1 0x0 DUP4 ADD DUP7 PUSH2 0x8F8 JUMP JUMPDEST PUSH2 0x9F2 PUSH1 0x20 DUP4 ADD DUP6 PUSH2 0x7FF JUMP JUMPDEST PUSH2 0x9FF PUSH1 0x40 DUP4 ADD DUP5 PUSH2 0x7FF JUMP JUMPDEST SWAP5 SWAP4 POP POP POP POP JUMP JUMPDEST PUSH1 0x0 PUSH2 0xA12 DUP3 PUSH2 0x7CB JUMP JUMPDEST SWAP2 POP PUSH2 0xA1D DUP4 PUSH2 0x7CB JUMP JUMPDEST SWAP3 POP DUP3 DUP3 LT ISZERO PUSH2 0xA30 JUMPI PUSH2 0xA2F PUSH2 0x922 JUMP JUMPDEST JUMPDEST DUP3 DUP3 SUB SWAP1 POP SWAP3 SWAP2 POP POP JUMP INVALID LOG2 PUSH5 0x6970667358 0x22 SLT KECCAK256 SWAP4 0xAB EXTCODEHASH PUSH27 0x1D27B12F98D4482D2ECB613234B23CD0C9F7F3382C6A0B42EE3FD1 0x2E PUSH5 0x736F6C6343 STOP ADDMOD EXP STOP CALLER "
		},
		"gasEstimates": {
			"creation": {
				"codeDepositCost": "534600",
				"executionCost": "24835",
				"totalCost": "559435"
			},
			"external": {
				"OPERATOR_ROLE()": "373",
				"VERSION()": "417",
				"aaaaa()": "2534",
				"admin()": "2580",
				"depositGasFor(address)": "infinite",
				"gasDeposits(address)": "2815",
				"isComplete()": "5328",
				"setLogicContract(bytes32,address)": "infinite",
				"withdrawGas(uint256)": "infinite"
			},
			"internal": {
				"depositGas(address,uint256)": "infinite"
			}
		},
		"methodIdentifiers": {
			"OPERATOR_ROLE()": "f5b541a6",
			"VERSION()": "ffa1ad74",
			"aaaaa()": "0eced7bf",
			"admin()": "f851a440",
			"depositGasFor(address)": "70fd0ec8",
			"gasDeposits(address)": "06e2c49f",
			"isComplete()": "b2fa1c9e",
			"setLogicContract(bytes32,address)": "5b8befb7",
			"withdrawGas(uint256)": "91657544"
		}
	},
	"abi": [
		{
			"inputs": [],
			"stateMutability": "nonpayable",
			"type": "constructor"
		},
		{
			"inputs": [
				{
					"internalType": "bytes32",
					"name": "roleid",
					"type": "bytes32"
				},
				{
					"internalType": "address",
					"name": "account",
					"type": "address"
				}
			],
			"name": "NoAccess",
			"type": "error"
		},
		{
			"inputs": [],
			"name": "ZeroAmount",
			"type": "error"
		},
		{
			"inputs": [],
			"name": "ZeroValue",
			"type": "error"
		},
		{
			"anonymous": false,
			"inputs": [
				{
					"indexed": false,
					"internalType": "address",
					"name": "account",
					"type": "address"
				},
				{
					"indexed": false,
					"internalType": "uint256",
					"name": "amount",
					"type": "uint256"
				}
			],
			"name": "DepositedGas",
			"type": "event"
		},
		{
			"anonymous": false,
			"inputs": [],
			"name": "SendFlag",
			"type": "event"
		},
		{
			"anonymous": false,
			"inputs": [
				{
					"indexed": false,
					"internalType": "bytes32",
					"name": "key",
					"type": "bytes32"
				},
				{
					"indexed": false,
					"internalType": "address",
					"name": "oldAddress",
					"type": "address"
				},
				{
					"indexed": false,
					"internalType": "address",
					"name": "newAddress",
					"type": "address"
				}
			],
			"name": "SetLogicContract",
			"type": "event"
		},
		{
			"anonymous": false,
			"inputs": [
				{
					"indexed": false,
					"internalType": "address",
					"name": "account",
					"type": "address"
				},
				{
					"indexed": false,
					"internalType": "uint256",
					"name": "amount",
					"type": "uint256"
				}
			],
			"name": "WithdrewGas",
			"type": "event"
		},
		{
			"inputs": [],
			"name": "OPERATOR_ROLE",
			"outputs": [
				{
					"internalType": "bytes32",
					"name": "",
					"type": "bytes32"
				}
			],
			"stateMutability": "view",
			"type": "function"
		},
		{
			"inputs": [],
			"name": "VERSION",
			"outputs": [
				{
					"internalType": "uint256",
					"name": "",
					"type": "uint256"
				}
			],
			"stateMutability": "view",
			"type": "function"
		},
		{
			"inputs": [],
			"name": "aaaaa",
			"outputs": [
				{
					"internalType": "address",
					"name": "",
					"type": "address"
				}
			],
			"stateMutability": "view",
			"type": "function"
		},
		{
			"inputs": [],
			"name": "admin",
			"outputs": [
				{
					"internalType": "address",
					"name": "",
					"type": "address"
				}
			],
			"stateMutability": "view",
			"type": "function"
		},
		{
			"inputs": [
				{
					"internalType": "address",
					"name": "account",
					"type": "address"
				}
			],
			"name": "depositGasFor",
			"outputs": [],
			"stateMutability": "payable",
			"type": "function"
		},
		{
			"inputs": [
				{
					"internalType": "address",
					"name": "",
					"type": "address"
				}
			],
			"name": "gasDeposits",
			"outputs": [
				{
					"internalType": "uint256",
					"name": "",
					"type": "uint256"
				}
			],
			"stateMutability": "view",
			"type": "function"
		},
		{
			"inputs": [],
			"name": "isComplete",
			"outputs": [],
			"stateMutability": "nonpayable",
			"type": "function"
		},
		{
			"inputs": [
				{
					"internalType": "bytes32",
					"name": "key",
					"type": "bytes32"
				},
				{
					"internalType": "address",
					"name": "contractAddress",
					"type": "address"
				}
			],
			"name": "setLogicContract",
			"outputs": [],
			"stateMutability": "nonpayable",
			"type": "function"
		},
		{
			"inputs": [
				{
					"internalType": "uint256",
					"name": "amount",
					"type": "uint256"
				}
			],
			"name": "withdrawGas",
			"outputs": [],
			"stateMutability": "nonpayable",
			"type": "function"
		},
		{
			"stateMutability": "payable",
			"type": "receive"
		}
	]
}