{
	"赛题-预赛/第三题/Merkle.sol": {
		"Merkle": {
			"abi": [
				{
					"inputs": [
						{
							"internalType": "bytes32",
							"name": "root",
							"type": "bytes32"
						}
					],
					"stateMutability": "payable",
					"type": "constructor"
				},
				{
					"inputs": [],
					"name": "Complete",
					"outputs": [],
					"stateMutability": "nonpayable",
					"type": "function"
				},
				{
					"inputs": [],
					"name": "amount",
					"outputs": [
						{
							"internalType": "uint256",
							"name": "",
							"type": "uint256"
						}
					],
					"stateMutability": "view",
					"type": "function"
				},
				{
					"inputs": [],
					"name": "balanceOf",
					"outputs": [
						{
							"internalType": "uint256",
							"name": "",
							"type": "uint256"
						}
					],
					"stateMutability": "view",
					"type": "function"
				},
				{
					"inputs": [],
					"name": "merkleRoot",
					"outputs": [
						{
							"internalType": "bytes32",
							"name": "",
							"type": "bytes32"
						}
					],
					"stateMutability": "view",
					"type": "function"
				},
				{
					"inputs": [
						{
							"internalType": "uint256",
							"name": "a",
							"type": "uint256"
						},
						{
							"internalType": "uint256",
							"name": "b",
							"type": "uint256"
						}
					],
					"name": "min",
					"outputs": [
						{
							"internalType": "uint256",
							"name": "",
							"type": "uint256"
						}
					],
					"stateMutability": "view",
					"type": "function"
				},
				{
					"inputs": [],
					"name": "owner",
					"outputs": [
						{
							"internalType": "address",
							"name": "",
							"type": "address"
						}
					],
					"stateMutability": "view",
					"type": "function"
				},
				{
					"inputs": [
						{
							"internalType": "bytes32",
							"name": "_merkleroot",
							"type": "bytes32"
						}
					],
					"name": "setMerkleroot",
					"outputs": [],
					"stateMutability": "nonpayable",
					"type": "function"
				},
				{
					"inputs": [
						{
							"internalType": "bytes32[]",
							"name": "proof",
							"type": "bytes32[]"
						},
						{
							"internalType": "address",
							"name": "to",
							"type": "address"
						}
					],
					"name": "withdraw",
					"outputs": [
						{
							"internalType": "bool",
							"name": "",
							"type": "bool"
						}
					],
					"stateMutability": "nonpayable",
					"type": "function"
				}
			],
			"devdoc": {
				"kind": "dev",
				"methods": {},
				"version": 1
			},
			"evm": {
				"assembly": "    /* \"赛题-预赛/第三题/Merkle.sol\":1004:2225  contract Merkle {\r... */\n  mstore(0x40, 0x80)\n    /* \"赛题-预赛/第三题/Merkle.sol\":1052:1053  1 */\n  0x01\n    /* \"赛题-预赛/第三题/Merkle.sol\":1033:1053  uint public amount=1 */\n  0x00\n  sstore\n    /* \"赛题-预赛/第三题/Merkle.sol\":1087:1147  bytes20 mask = hex\"ff00000000000000000000000000000000000000\" */\n  0xff00000000000000000000000000000000000000000000000000000000000000\n  0x02\n  exp(0x0100, 0x00)\n  dup2\n  sload\n  dup2\n  0xffffffffffffffffffffffffffffffffffffffff\n  mul\n  not\n  and\n  swap1\n  dup4\n  0x60\n  shr\n  mul\n  or\n  swap1\n  sstore\n  pop\n    /* \"赛题-预赛/第三题/Merkle.sol\":1192:1331  constructor(bytes32 root) payable{\r... */\n  mload(0x40)\n  sub(codesize, bytecodeSize)\n  dup1\n  bytecodeSize\n  dup4\n  codecopy\n  dup2\n  dup2\n  add\n  0x40\n  mstore\n  0x20\n  dup2\n  lt\n  iszero\n  tag_1\n  jumpi\n  0x00\n  dup1\n  revert\ntag_1:\n  dup2\n  add\n  swap1\n  dup1\n  dup1\n  mload\n  swap1\n  0x20\n  add\n  swap1\n  swap3\n  swap2\n  swap1\n  pop\n  pop\n  pop\n    /* \"赛题-预赛/第三题/Merkle.sol\":1257:1264  1 ether */\n  0x0de0b6b3a7640000\n    /* \"赛题-预赛/第三题/Merkle.sol\":1244:1253  msg.value */\n  callvalue\n    /* \"赛题-预赛/第三题/Merkle.sol\":1244:1264  msg.value == 1 ether */\n  eq\n    /* \"赛题-预赛/第三题/Merkle.sol\":1236:1265  require(msg.value == 1 ether) */\n  tag_4\n  jumpi\n  0x00\n  dup1\n  revert\ntag_4:\n    /* \"赛题-预赛/第三题/Merkle.sol\":1285:1295  msg.sender */\n  caller\n    /* \"赛题-预赛/第三题/Merkle.sol\":1276:1281  owner */\n  0x01\n  0x00\n    /* \"赛题-预赛/第三题/Merkle.sol\":1276:1295  owner =  msg.sender */\n  0x0100\n  exp\n  dup2\n  sload\n  dup2\n  0xffffffffffffffffffffffffffffffffffffffff\n  mul\n  not\n  and\n  swap1\n  dup4\n  0xffffffffffffffffffffffffffffffffffffffff\n  and\n  mul\n  or\n  swap1\n  sstore\n  pop\n    /* \"赛题-预赛/第三题/Merkle.sol\":1319:1323  root */\n  dup1\n    /* \"赛题-预赛/第三题/Merkle.sol\":1306:1316  merkleRoot */\n  0x03\n    /* \"赛题-预赛/第三题/Merkle.sol\":1306:1323  merkleRoot = root */\n  dup2\n  swap1\n  sstore\n  pop\n    /* \"赛题-预赛/第三题/Merkle.sol\":1192:1331  constructor(bytes32 root) payable{\r... */\n  pop\n    /* \"赛题-预赛/第三题/Merkle.sol\":1004:2225  contract Merkle {\r... */\n  dataSize(sub_0)\n  dup1\n  dataOffset(sub_0)\n  0x00\n  codecopy\n  0x00\n  return\nstop\n\nsub_0: assembly {\n        /* \"赛题-预赛/第三题/Merkle.sol\":1004:2225  contract Merkle {\r... */\n      mstore(0x40, 0x80)\n      callvalue\n      dup1\n      iszero\n      tag_1\n      jumpi\n      0x00\n      dup1\n      revert\n    tag_1:\n      pop\n      jumpi(tag_2, lt(calldatasize, 0x04))\n      shr(0xe0, calldataload(0x00))\n      dup1\n      0x7ae2b5c7\n      gt\n      tag_11\n      jumpi\n      dup1\n      0x7ae2b5c7\n      eq\n      tag_7\n      jumpi\n      dup1\n      0x8da5cb5b\n      eq\n      tag_8\n      jumpi\n      dup1\n      0x92f6c439\n      eq\n      tag_9\n      jumpi\n      dup1\n      0xaa8c217c\n      eq\n      tag_10\n      jumpi\n      jump(tag_2)\n    tag_11:\n      dup1\n      0x01b7dcb4\n      eq\n      tag_3\n      jumpi\n      dup1\n      0x2eb4a7ab\n      eq\n      tag_4\n      jumpi\n      dup1\n      0x38be5592\n      eq\n      tag_5\n      jumpi\n      dup1\n      0x722713f7\n      eq\n      tag_6\n      jumpi\n    tag_2:\n      0x00\n      dup1\n      revert\n        /* \"赛题-预赛/第三题/Merkle.sol\":2138:2221  function Complete() external {\r... */\n    tag_3:\n      tag_12\n      tag_13\n      jump\t// in\n    tag_12:\n      stop\n        /* \"赛题-预赛/第三题/Merkle.sol\":1154:1179  bytes32 public merkleRoot */\n    tag_4:\n      tag_14\n      tag_15\n      jump\t// in\n    tag_14:\n      mload(0x40)\n      dup1\n      dup3\n      dup2\n      mstore\n      0x20\n      add\n      swap2\n      pop\n      pop\n      mload(0x40)\n      dup1\n      swap2\n      sub\n      swap1\n      return\n        /* \"赛题-预赛/第三题/Merkle.sol\":1565:1909  function withdraw(bytes32[] memory proof,address to) public returns(bool){\r... */\n    tag_5:\n      tag_16\n      0x04\n      dup1\n      calldatasize\n      sub\n      0x40\n      dup2\n      lt\n      iszero\n      tag_17\n      jumpi\n      0x00\n      dup1\n      revert\n    tag_17:\n      dup2\n      add\n      swap1\n      dup1\n      dup1\n      calldataload\n      swap1\n      0x20\n      add\n      swap1\n      0x0100000000\n      dup2\n      gt\n      iszero\n      tag_18\n      jumpi\n      0x00\n      dup1\n      revert\n    tag_18:\n      dup3\n      add\n      dup4\n      0x20\n      dup3\n      add\n      gt\n      iszero\n      tag_19\n      jumpi\n      0x00\n      dup1\n      revert\n    tag_19:\n      dup1\n      calldataload\n      swap1\n      0x20\n      add\n      swap2\n      dup5\n      0x20\n      dup4\n      mul\n      dup5\n      add\n      gt\n      0x0100000000\n      dup4\n      gt\n      or\n      iszero\n      tag_20\n      jumpi\n      0x00\n      dup1\n      revert\n    tag_20:\n      swap2\n      swap1\n      dup1\n      dup1\n      0x20\n      mul\n      0x20\n      add\n      mload(0x40)\n      swap1\n      dup2\n      add\n      0x40\n      mstore\n      dup1\n      swap4\n      swap3\n      swap2\n      swap1\n      dup2\n      dup2\n      mstore\n      0x20\n      add\n      dup4\n      dup4\n      0x20\n      mul\n      dup1\n      dup3\n      dup5\n      calldatacopy\n      0x00\n      dup2\n      dup5\n      add\n      mstore\n      not(0x1f)\n      0x1f\n      dup3\n      add\n      and\n      swap1\n      pop\n      dup1\n      dup4\n      add\n      swap3\n      pop\n      pop\n      pop\n      pop\n      pop\n      pop\n      pop\n      swap2\n      swap3\n      swap2\n      swap3\n      swap1\n      dup1\n      calldataload\n      0xffffffffffffffffffffffffffffffffffffffff\n      and\n      swap1\n      0x20\n      add\n      swap1\n      swap3\n      swap2\n      swap1\n      pop\n      pop\n      pop\n      tag_21\n      jump\t// in\n    tag_16:\n      mload(0x40)\n      dup1\n      dup3\n      iszero\n      iszero\n      dup2\n      mstore\n      0x20\n      add\n      swap2\n      pop\n      pop\n      mload(0x40)\n      dup1\n      swap2\n      sub\n      swap1\n      return\n        /* \"赛题-预赛/第三题/Merkle.sol\":1917:2010  function balanceOf() public view returns(uint){\r... */\n    tag_6:\n      tag_22\n      tag_23\n      jump\t// in\n    tag_22:\n      mload(0x40)\n      dup1\n      dup3\n      dup2\n      mstore\n      0x20\n      add\n      swap2\n      pop\n      pop\n      mload(0x40)\n      dup1\n      swap2\n      sub\n      swap1\n      return\n        /* \"赛题-预赛/第三题/Merkle.sol\":1467:1553  function min(uint a,uint b) public view returns(uint){\r... */\n    tag_7:\n      tag_24\n      0x04\n      dup1\n      calldatasize\n      sub\n      0x40\n      dup2\n      lt\n      iszero\n      tag_25\n      jumpi\n      0x00\n      dup1\n      revert\n    tag_25:\n      dup2\n      add\n      swap1\n      dup1\n      dup1\n      calldataload\n      swap1\n      0x20\n      add\n      swap1\n      swap3\n      swap2\n      swap1\n      dup1\n      calldataload\n      swap1\n      0x20\n      add\n      swap1\n      swap3\n      swap2\n      swap1\n      pop\n      pop\n      pop\n      tag_26\n      jump\t// in\n    tag_24:\n      mload(0x40)\n      dup1\n      dup3\n      dup2\n      mstore\n      0x20\n      add\n      swap2\n      pop\n      pop\n      mload(0x40)\n      dup1\n      swap2\n      sub\n      swap1\n      return\n        /* \"赛题-预赛/第三题/Merkle.sol\":1060:1080  address public owner */\n    tag_8:\n      tag_27\n      tag_28\n      jump\t// in\n    tag_27:\n      mload(0x40)\n      dup1\n      dup3\n      0xffffffffffffffffffffffffffffffffffffffff\n      and\n      dup2\n      mstore\n      0x20\n      add\n      swap2\n      pop\n      pop\n      mload(0x40)\n      dup1\n      swap2\n      sub\n      swap1\n      return\n        /* \"赛题-预赛/第三题/Merkle.sol\":2022:2129  function setMerkleroot(bytes32 _merkleroot) external onlyOwner { \r... */\n    tag_9:\n      tag_29\n      0x04\n      dup1\n      calldatasize\n      sub\n      0x20\n      dup2\n      lt\n      iszero\n      tag_30\n      jumpi\n      0x00\n      dup1\n      revert\n    tag_30:\n      dup2\n      add\n      swap1\n      dup1\n      dup1\n      calldataload\n      swap1\n      0x20\n      add\n      swap1\n      swap3\n      swap2\n      swap1\n      pop\n      pop\n      pop\n      tag_31\n      jump\t// in\n    tag_29:\n      stop\n        /* \"赛题-预赛/第三题/Merkle.sol\":1033:1053  uint public amount=1 */\n    tag_10:\n      tag_32\n      tag_33\n      jump\t// in\n    tag_32:\n      mload(0x40)\n      dup1\n      dup3\n      dup2\n      mstore\n      0x20\n      add\n      swap2\n      pop\n      pop\n      mload(0x40)\n      dup1\n      swap2\n      sub\n      swap1\n      return\n        /* \"赛题-预赛/第三题/Merkle.sol\":2138:2221  function Complete() external {\r... */\n    tag_13:\n        /* \"赛题-预赛/第三题/Merkle.sol\":2211:2212  0 */\n      0x00\n        /* \"赛题-预赛/第三题/Merkle.sol\":2186:2207  address(this).balance */\n      selfbalance\n        /* \"赛题-预赛/第三题/Merkle.sol\":2186:2212  address(this).balance == 0 */\n      eq\n        /* \"赛题-预赛/第三题/Merkle.sol\":2178:2213  require(address(this).balance == 0) */\n      tag_35\n      jumpi\n      0x00\n      dup1\n      revert\n    tag_35:\n        /* \"赛题-预赛/第三题/Merkle.sol\":2138:2221  function Complete() external {\r... */\n      jump\t// out\n        /* \"赛题-预赛/第三题/Merkle.sol\":1154:1179  bytes32 public merkleRoot */\n    tag_15:\n      sload(0x03)\n      dup2\n      jump\t// out\n        /* \"赛题-预赛/第三题/Merkle.sol\":1565:1909  function withdraw(bytes32[] memory proof,address to) public returns(bool){\r... */\n    tag_21:\n        /* \"赛题-预赛/第三题/Merkle.sol\":1633:1637  bool */\n      0x00\n        /* \"赛题-预赛/第三题/Merkle.sol\":1649:1661  bytes32 leaf */\n      dup1\n        /* \"赛题-预赛/第三题/Merkle.sol\":1691:1701  msg.sender */\n      caller\n        /* \"赛题-预赛/第三题/Merkle.sol\":1674:1702  abi.encodePacked(msg.sender) */\n      add(0x20, mload(0x40))\n      dup1\n      dup3\n      0xffffffffffffffffffffffffffffffffffffffff\n      and\n      0x60\n      shl\n      dup2\n      mstore\n      0x14\n      add\n      swap2\n      pop\n      pop\n      mload(0x40)\n      0x20\n      dup2\n      dup4\n      sub\n      sub\n      dup2\n      mstore\n      swap1\n      0x40\n      mstore\n        /* \"赛题-预赛/第三题/Merkle.sol\":1664:1703  keccak256(abi.encodePacked(msg.sender)) */\n      dup1\n      mload\n      swap1\n      0x20\n      add\n      keccak256\n        /* \"赛题-预赛/第三题/Merkle.sol\":1649:1703  bytes32 leaf = keccak256(abi.encodePacked(msg.sender)) */\n      swap1\n      pop\n        /* \"赛题-预赛/第三题/Merkle.sol\":1722:1765  MerkleProof.verify(proof, merkleRoot, leaf) */\n      tag_37\n        /* \"赛题-预赛/第三题/Merkle.sol\":1741:1746  proof */\n      dup5\n        /* \"赛题-预赛/第三题/Merkle.sol\":1748:1758  merkleRoot */\n      sload(0x03)\n        /* \"赛题-预赛/第三题/Merkle.sol\":1760:1764  leaf */\n      dup4\n        /* \"赛题-预赛/第三题/Merkle.sol\":1722:1740  MerkleProof.verify */\n      tag_38\n        /* \"赛题-预赛/第三题/Merkle.sol\":1722:1765  MerkleProof.verify(proof, merkleRoot, leaf) */\n      jump\t// in\n    tag_37:\n        /* \"赛题-预赛/第三题/Merkle.sol\":1714:1802  require(MerkleProof.verify(proof, merkleRoot, leaf), \"Merkle Proof Verification failed\") */\n      tag_39\n      jumpi\n      mload(0x40)\n      0x08c379a000000000000000000000000000000000000000000000000000000000\n      dup2\n      mstore\n      0x04\n      add\n      dup1\n      dup1\n      0x20\n      add\n      dup3\n      dup2\n      sub\n      dup3\n      mstore\n      0x20\n      dup2\n      mstore\n      0x20\n      add\n      dup1\n      0x4d65726b6c652050726f6f6620566572696669636174696f6e206661696c6564\n      dup2\n      mstore\n      pop\n      0x20\n      add\n      swap2\n      pop\n      pop\n      mload(0x40)\n      dup1\n      swap2\n      sub\n      swap1\n      revert\n    tag_39:\n        /* \"赛题-预赛/第三题/Merkle.sol\":1813:1825  uint balance */\n      0x00\n        /* \"赛题-预赛/第三题/Merkle.sol\":1828:1849  address(this).balance */\n      selfbalance\n        /* \"赛题-预赛/第三题/Merkle.sol\":1813:1849  uint balance = address(this).balance */\n      swap1\n      pop\n        /* \"赛题-预赛/第三题/Merkle.sol\":1868:1870  to */\n      dup4\n        /* \"赛题-预赛/第三题/Merkle.sol\":1860:1880  payable(to).transfer */\n      0xffffffffffffffffffffffffffffffffffffffff\n      and\n        /* \"赛题-预赛/第三题/Merkle.sol\":1860:1901  payable(to).transfer(min(amount,balance)) */\n      0x08fc\n        /* \"赛题-预赛/第三题/Merkle.sol\":1881:1900  min(amount,balance) */\n      tag_40\n        /* \"赛题-预赛/第三题/Merkle.sol\":1885:1891  amount */\n      sload(0x00)\n        /* \"赛题-预赛/第三题/Merkle.sol\":1892:1899  balance */\n      dup5\n        /* \"赛题-预赛/第三题/Merkle.sol\":1881:1884  min */\n      tag_26\n        /* \"赛题-预赛/第三题/Merkle.sol\":1881:1900  min(amount,balance) */\n      jump\t// in\n    tag_40:\n        /* \"赛题-预赛/第三题/Merkle.sol\":1860:1901  payable(to).transfer(min(amount,balance)) */\n      swap1\n      dup2\n      iszero\n      mul\n      swap1\n      mload(0x40)\n      0x00\n      mload(0x40)\n      dup1\n      dup4\n      sub\n      dup2\n      dup6\n      dup9\n      dup9\n      call\n      swap4\n      pop\n      pop\n      pop\n      pop\n      iszero\n      dup1\n      iszero\n      tag_42\n      jumpi\n      returndatasize\n      0x00\n      dup1\n      returndatacopy\n      revert(0x00, returndatasize)\n    tag_42:\n      pop\n        /* \"赛题-预赛/第三题/Merkle.sol\":1565:1909  function withdraw(bytes32[] memory proof,address to) public returns(bool){\r... */\n      pop\n      pop\n      swap3\n      swap2\n      pop\n      pop\n      jump\t// out\n        /* \"赛题-预赛/第三题/Merkle.sol\":1917:2010  function balanceOf() public view returns(uint){\r... */\n    tag_23:\n        /* \"赛题-预赛/第三题/Merkle.sol\":1958:1962  uint */\n      0x00\n        /* \"赛题-预赛/第三题/Merkle.sol\":1981:2002  address(this).balance */\n      selfbalance\n        /* \"赛题-预赛/第三题/Merkle.sol\":1974:2002  return address(this).balance */\n      swap1\n      pop\n        /* \"赛题-预赛/第三题/Merkle.sol\":1917:2010  function balanceOf() public view returns(uint){\r... */\n      swap1\n      jump\t// out\n        /* \"赛题-预赛/第三题/Merkle.sol\":1467:1553  function min(uint a,uint b) public view returns(uint){\r... */\n    tag_26:\n        /* \"赛题-预赛/第三题/Merkle.sol\":1515:1519  uint */\n      0x00\n        /* \"赛题-预赛/第三题/Merkle.sol\":1540:1541  b */\n      dup2\n        /* \"赛题-预赛/第三题/Merkle.sol\":1538:1539  a */\n      dup4\n        /* \"赛题-预赛/第三题/Merkle.sol\":1538:1541  a>b */\n      gt\n        /* \"赛题-预赛/第三题/Merkle.sol\":1538:1545  a>b?a:b */\n      tag_45\n      jumpi\n        /* \"赛题-预赛/第三题/Merkle.sol\":1544:1545  b */\n      dup2\n        /* \"赛题-预赛/第三题/Merkle.sol\":1538:1545  a>b?a:b */\n      jump(tag_46)\n    tag_45:\n        /* \"赛题-预赛/第三题/Merkle.sol\":1542:1543  a */\n      dup3\n        /* \"赛题-预赛/第三题/Merkle.sol\":1538:1545  a>b?a:b */\n    tag_46:\n        /* \"赛题-预赛/第三题/Merkle.sol\":1531:1545  return a>b?a:b */\n      swap1\n      pop\n        /* \"赛题-预赛/第三题/Merkle.sol\":1467:1553  function min(uint a,uint b) public view returns(uint){\r... */\n      swap3\n      swap2\n      pop\n      pop\n      jump\t// out\n        /* \"赛题-预赛/第三题/Merkle.sol\":1060:1080  address public owner */\n    tag_28:\n      0x01\n      0x00\n      swap1\n      sload\n      swap1\n      0x0100\n      exp\n      swap1\n      div\n      0xffffffffffffffffffffffffffffffffffffffff\n      and\n      dup2\n      jump\t// out\n        /* \"赛题-预赛/第三题/Merkle.sol\":2022:2129  function setMerkleroot(bytes32 _merkleroot) external onlyOwner { \r... */\n    tag_31:\n        /* \"赛题-预赛/第三题/Merkle.sol\":1432:1437  owner */\n      0x01\n      0x00\n      swap1\n      sload\n      swap1\n      0x0100\n      exp\n      swap1\n      div\n      0xffffffffffffffffffffffffffffffffffffffff\n      and\n        /* \"赛题-预赛/第三题/Merkle.sol\":1424:1438  bytes20(owner) */\n      0x60\n      shl\n        /* \"赛题-预赛/第三题/Merkle.sol\":1417:1421  mask */\n      0x02\n      0x00\n      swap1\n      sload\n      swap1\n      0x0100\n      exp\n      swap1\n      div\n      0x60\n      shl\n        /* \"赛题-预赛/第三题/Merkle.sol\":1417:1438  mask & bytes20(owner) */\n      and\n        /* \"赛题-预赛/第三题/Merkle.sol\":1387:1438  mask & bytes20(msg.sender) == mask & bytes20(owner) */\n      not(0xffffffffffffffffffffffff)\n      and\n        /* \"赛题-预赛/第三题/Merkle.sol\":1402:1412  msg.sender */\n      caller\n        /* \"赛题-预赛/第三题/Merkle.sol\":1394:1413  bytes20(msg.sender) */\n      0x60\n      shl\n        /* \"赛题-预赛/第三题/Merkle.sol\":1387:1391  mask */\n      0x02\n      0x00\n      swap1\n      sload\n      swap1\n      0x0100\n      exp\n      swap1\n      div\n      0x60\n      shl\n        /* \"赛题-预赛/第三题/Merkle.sol\":1387:1413  mask & bytes20(msg.sender) */\n      and\n        /* \"赛题-预赛/第三题/Merkle.sol\":1387:1438  mask & bytes20(msg.sender) == mask & bytes20(owner) */\n      not(0xffffffffffffffffffffffff)\n      and\n      eq\n        /* \"赛题-预赛/第三题/Merkle.sol\":1379:1439  require(mask & bytes20(msg.sender) == mask & bytes20(owner)) */\n      tag_48\n      jumpi\n      0x00\n      dup1\n      revert\n    tag_48:\n        /* \"赛题-预赛/第三题/Merkle.sol\":2110:2121  _merkleroot */\n      dup1\n        /* \"赛题-预赛/第三题/Merkle.sol\":2097:2107  merkleRoot */\n      0x03\n        /* \"赛题-预赛/第三题/Merkle.sol\":2097:2121  merkleRoot = _merkleroot */\n      dup2\n      swap1\n      sstore\n      pop\n        /* \"赛题-预赛/第三题/Merkle.sol\":2022:2129  function setMerkleroot(bytes32 _merkleroot) external onlyOwner { \r... */\n      pop\n      jump\t// out\n        /* \"赛题-预赛/第三题/Merkle.sol\":1033:1053  uint public amount=1 */\n    tag_33:\n      sload(0x00)\n      dup2\n      jump\t// out\n        /* \"赛题-预赛/第三题/Merkle.sol\":98:288  function verify(\r... */\n    tag_38:\n        /* \"赛题-预赛/第三题/Merkle.sol\":223:227  bool */\n      0x00\n        /* \"赛题-预赛/第三题/Merkle.sol\":276:280  root */\n      dup3\n        /* \"赛题-预赛/第三题/Merkle.sol\":247:272  processProof(proof, leaf) */\n      tag_51\n        /* \"赛题-预赛/第三题/Merkle.sol\":260:265  proof */\n      dup6\n        /* \"赛题-预赛/第三题/Merkle.sol\":267:271  leaf */\n      dup5\n        /* \"赛题-预赛/第三题/Merkle.sol\":247:259  processProof */\n      tag_52\n        /* \"赛题-预赛/第三题/Merkle.sol\":247:272  processProof(proof, leaf) */\n      jump\t// in\n    tag_51:\n        /* \"赛题-预赛/第三题/Merkle.sol\":247:280  processProof(proof, leaf) == root */\n      eq\n        /* \"赛题-预赛/第三题/Merkle.sol\":240:280  return processProof(proof, leaf) == root */\n      swap1\n      pop\n        /* \"赛题-预赛/第三题/Merkle.sol\":98:288  function verify(\r... */\n      swap4\n      swap3\n      pop\n      pop\n      pop\n      jump\t// out\n        /* \"赛题-预赛/第三题/Merkle.sol\":296:997  function processProof(bytes32[] memory proof, bytes32 leaf) internal pure returns (bytes32) {\r... */\n    tag_52:\n        /* \"赛题-预赛/第三题/Merkle.sol\":379:386  bytes32 */\n      0x00\n        /* \"赛题-预赛/第三题/Merkle.sol\":399:419  bytes32 computedHash */\n      dup1\n        /* \"赛题-预赛/第三题/Merkle.sol\":422:426  leaf */\n      dup3\n        /* \"赛题-预赛/第三题/Merkle.sol\":399:426  bytes32 computedHash = leaf */\n      swap1\n      pop\n        /* \"赛题-预赛/第三题/Merkle.sol\":442:451  uint256 i */\n      0x00\n        /* \"赛题-预赛/第三题/Merkle.sol\":437:960  for (uint256 i = 0; i < proof.length; i++) {\r... */\n    tag_54:\n        /* \"赛题-预赛/第三题/Merkle.sol\":461:466  proof */\n      dup5\n        /* \"赛题-预赛/第三题/Merkle.sol\":461:473  proof.length */\n      mload\n        /* \"赛题-预赛/第三题/Merkle.sol\":457:458  i */\n      dup2\n        /* \"赛题-预赛/第三题/Merkle.sol\":457:473  i < proof.length */\n      lt\n        /* \"赛题-预赛/第三题/Merkle.sol\":437:960  for (uint256 i = 0; i < proof.length; i++) {\r... */\n      iszero\n      tag_55\n      jumpi\n        /* \"赛题-预赛/第三题/Merkle.sol\":495:515  bytes32 proofElement */\n      0x00\n        /* \"赛题-预赛/第三题/Merkle.sol\":518:523  proof */\n      dup6\n        /* \"赛题-预赛/第三题/Merkle.sol\":524:525  i */\n      dup3\n        /* \"赛题-预赛/第三题/Merkle.sol\":518:526  proof[i] */\n      dup2\n      mload\n      dup2\n      lt\n      tag_57\n      jumpi\n      invalid\n    tag_57:\n      0x20\n      mul\n      0x20\n      add\n      add\n      mload\n        /* \"赛题-预赛/第三题/Merkle.sol\":495:526  bytes32 proofElement = proof[i] */\n      swap1\n      pop\n        /* \"赛题-预赛/第三题/Merkle.sol\":561:573  proofElement */\n      dup1\n        /* \"赛题-预赛/第三题/Merkle.sol\":545:557  computedHash */\n      dup4\n        /* \"赛题-预赛/第三题/Merkle.sol\":545:573  computedHash <= proofElement */\n      gt\n        /* \"赛题-预赛/第三题/Merkle.sol\":541:949  if (computedHash <= proofElement) {\r... */\n      tag_58\n      jumpi\n        /* \"赛题-预赛/第三题/Merkle.sol\":715:727  computedHash */\n      dup3\n        /* \"赛题-预赛/第三题/Merkle.sol\":729:741  proofElement */\n      dup2\n        /* \"赛题-预赛/第三题/Merkle.sol\":698:742  abi.encodePacked(computedHash, proofElement) */\n      add(0x20, mload(0x40))\n      dup1\n      dup4\n      dup2\n      mstore\n      0x20\n      add\n      dup3\n      dup2\n      mstore\n      0x20\n      add\n      swap3\n      pop\n      pop\n      pop\n      mload(0x40)\n      0x20\n      dup2\n      dup4\n      sub\n      sub\n      dup2\n      mstore\n      swap1\n      0x40\n      mstore\n        /* \"赛题-预赛/第三题/Merkle.sol\":688:743  keccak256(abi.encodePacked(computedHash, proofElement)) */\n      dup1\n      mload\n      swap1\n      0x20\n      add\n      keccak256\n        /* \"赛题-预赛/第三题/Merkle.sol\":673:743  computedHash = keccak256(abi.encodePacked(computedHash, proofElement)) */\n      swap3\n      pop\n        /* \"赛题-预赛/第三题/Merkle.sol\":541:949  if (computedHash <= proofElement) {\r... */\n      jump(tag_59)\n    tag_58:\n        /* \"赛题-预赛/第三题/Merkle.sol\":905:917  proofElement */\n      dup1\n        /* \"赛题-预赛/第三题/Merkle.sol\":919:931  computedHash */\n      dup4\n        /* \"赛题-预赛/第三题/Merkle.sol\":888:932  abi.encodePacked(proofElement, computedHash) */\n      add(0x20, mload(0x40))\n      dup1\n      dup4\n      dup2\n      mstore\n      0x20\n      add\n      dup3\n      dup2\n      mstore\n      0x20\n      add\n      swap3\n      pop\n      pop\n      pop\n      mload(0x40)\n      0x20\n      dup2\n      dup4\n      sub\n      sub\n      dup2\n      mstore\n      swap1\n      0x40\n      mstore\n        /* \"赛题-预赛/第三题/Merkle.sol\":878:933  keccak256(abi.encodePacked(proofElement, computedHash)) */\n      dup1\n      mload\n      swap1\n      0x20\n      add\n      keccak256\n        /* \"赛题-预赛/第三题/Merkle.sol\":863:933  computedHash = keccak256(abi.encodePacked(proofElement, computedHash)) */\n      swap3\n      pop\n        /* \"赛题-预赛/第三题/Merkle.sol\":541:949  if (computedHash <= proofElement) {\r... */\n    tag_59:\n        /* \"赛题-预赛/第三题/Merkle.sol\":437:960  for (uint256 i = 0; i < proof.length; i++) {\r... */\n      pop\n        /* \"赛题-预赛/第三题/Merkle.sol\":475:478  i++ */\n      dup1\n      dup1\n      0x01\n      add\n      swap2\n      pop\n      pop\n        /* \"赛题-预赛/第三题/Merkle.sol\":437:960  for (uint256 i = 0; i < proof.length; i++) {\r... */\n      jump(tag_54)\n    tag_55:\n      pop\n        /* \"赛题-预赛/第三题/Merkle.sol\":977:989  computedHash */\n      dup1\n        /* \"赛题-预赛/第三题/Merkle.sol\":970:989  return computedHash */\n      swap2\n      pop\n      pop\n        /* \"赛题-预赛/第三题/Merkle.sol\":296:997  function processProof(bytes32[] memory proof, bytes32 leaf) internal pure returns (bytes32) {\r... */\n      swap3\n      swap2\n      pop\n      pop\n      jump\t// out\n\n    auxdata: 0xa2646970667358221220646c74a7eb1287cd411790d753f01abe67e77235e4344178d8c620a3da22f32f64736f6c63430007060033\n}\n",
				"bytecode": {
					"linkReferences": {},
					"object": "608060405260016000557fff00000000000000000000000000000000000000000000000000000000000000600260006101000a81548173ffffffffffffffffffffffffffffffffffffffff021916908360601c02179055506040516106853803806106858339818101604052602081101561007957600080fd5b8101908080519060200190929190505050670de0b6b3a7640000341461009e57600080fd5b33600160006101000a81548173ffffffffffffffffffffffffffffffffffffffff021916908373ffffffffffffffffffffffffffffffffffffffff160217905550806003819055505061058f806100f66000396000f3fe608060405234801561001057600080fd5b50600436106100885760003560e01c80637ae2b5c71161005b5780637ae2b5c7146101c15780638da5cb5b1461020d57806392f6c43914610241578063aa8c217c1461026f57610088565b806301b7dcb41461008d5780632eb4a7ab1461009757806338be5592146100b5578063722713f7146101a3575b600080fd5b61009561028d565b005b61009f61029c565b6040518082815260200191505060405180910390f35b61018b600480360360408110156100cb57600080fd5b81019080803590602001906401000000008111156100e857600080fd5b8201836020820111156100fa57600080fd5b8035906020019184602083028401116401000000008311171561011c57600080fd5b919080806020026020016040519081016040528093929190818152602001838360200280828437600081840152601f19601f820116905080830192505050505050509192919290803573ffffffffffffffffffffffffffffffffffffffff1690602001909291905050506102a2565b60405180821515815260200191505060405180910390f35b6101ab6103c5565b6040518082815260200191505060405180910390f35b6101f7600480360360408110156101d757600080fd5b8101908080359060200190929190803590602001909291905050506103cd565b6040518082815260200191505060405180910390f35b6102156103e6565b604051808273ffffffffffffffffffffffffffffffffffffffff16815260200191505060405180910390f35b61026d6004803603602081101561025757600080fd5b810190808035906020019092919050505061040c565b005b61027761048a565b6040518082815260200191505060405180910390f35b6000471461029a57600080fd5b565b60035481565b60008033604051602001808273ffffffffffffffffffffffffffffffffffffffff1660601b81526014019150506040516020818303038152906040528051906020012090506102f48460035483610490565b610366576040517f08c379a00000000000000000000000000000000000000000000000000000000081526004018080602001828103825260208152602001807f4d65726b6c652050726f6f6620566572696669636174696f6e206661696c656481525060200191505060405180910390fd5b60004790508373ffffffffffffffffffffffffffffffffffffffff166108fc610391600054846103cd565b9081150290604051600060405180830381858888f193505050501580156103bc573d6000803e3d6000fd5b50505092915050565b600047905090565b60008183116103dc57816103de565b825b905092915050565b600160009054906101000a900473ffffffffffffffffffffffffffffffffffffffff1681565b600160009054906101000a900473ffffffffffffffffffffffffffffffffffffffff1660601b600260009054906101000a900460601b166bffffffffffffffffffffffff19163360601b600260009054906101000a900460601b166bffffffffffffffffffffffff19161461048057600080fd5b8060038190555050565b60005481565b60008261049d85846104a7565b1490509392505050565b60008082905060005b845181101561054e5760008582815181106104c757fe5b6020026020010151905080831161050e5782816040516020018083815260200182815260200192505050604051602081830303815290604052805190602001209250610540565b808360405160200180838152602001828152602001925050506040516020818303038152906040528051906020012092505b5080806001019150506104b0565b50809150509291505056fea2646970667358221220646c74a7eb1287cd411790d753f01abe67e77235e4344178d8c620a3da22f32f64736f6c63430007060033",
					"opcodes": "PUSH1 0x80 PUSH1 0x40 MSTORE PUSH1 0x1 PUSH1 0x0 SSTORE PUSH32 0xFF00000000000000000000000000000000000000000000000000000000000000 PUSH1 0x2 PUSH1 0x0 PUSH2 0x100 EXP DUP2 SLOAD DUP2 PUSH20 0xFFFFFFFFFFFFFFFFFFFFFFFFFFFFFFFFFFFFFFFF MUL NOT AND SWAP1 DUP4 PUSH1 0x60 SHR MUL OR SWAP1 SSTORE POP PUSH1 0x40 MLOAD PUSH2 0x685 CODESIZE SUB DUP1 PUSH2 0x685 DUP4 CODECOPY DUP2 DUP2 ADD PUSH1 0x40 MSTORE PUSH1 0x20 DUP2 LT ISZERO PUSH2 0x79 JUMPI PUSH1 0x0 DUP1 REVERT JUMPDEST DUP2 ADD SWAP1 DUP1 DUP1 MLOAD SWAP1 PUSH1 0x20 ADD SWAP1 SWAP3 SWAP2 SWAP1 POP POP POP PUSH8 0xDE0B6B3A7640000 CALLVALUE EQ PUSH2 0x9E JUMPI PUSH1 0x0 DUP1 REVERT JUMPDEST CALLER PUSH1 0x1 PUSH1 0x0 PUSH2 0x100 EXP DUP2 SLOAD DUP2 PUSH20 0xFFFFFFFFFFFFFFFFFFFFFFFFFFFFFFFFFFFFFFFF MUL NOT AND SWAP1 DUP4 PUSH20 0xFFFFFFFFFFFFFFFFFFFFFFFFFFFFFFFFFFFFFFFF AND MUL OR SWAP1 SSTORE POP DUP1 PUSH1 0x3 DUP2 SWAP1 SSTORE POP POP PUSH2 0x58F DUP1 PUSH2 0xF6 PUSH1 0x0 CODECOPY PUSH1 0x0 RETURN INVALID PUSH1 0x80 PUSH1 0x40 MSTORE CALLVALUE DUP1 ISZERO PUSH2 0x10 JUMPI PUSH1 0x0 DUP1 REVERT JUMPDEST POP PUSH1 0x4 CALLDATASIZE LT PUSH2 0x88 JUMPI PUSH1 0x0 CALLDATALOAD PUSH1 0xE0 SHR DUP1 PUSH4 0x7AE2B5C7 GT PUSH2 0x5B JUMPI DUP1 PUSH4 0x7AE2B5C7 EQ PUSH2 0x1C1 JUMPI DUP1 PUSH4 0x8DA5CB5B EQ PUSH2 0x20D JUMPI DUP1 PUSH4 0x92F6C439 EQ PUSH2 0x241 JUMPI DUP1 PUSH4 0xAA8C217C EQ PUSH2 0x26F JUMPI PUSH2 0x88 JUMP JUMPDEST DUP1 PUSH4 0x1B7DCB4 EQ PUSH2 0x8D JUMPI DUP1 PUSH4 0x2EB4A7AB EQ PUSH2 0x97 JUMPI DUP1 PUSH4 0x38BE5592 EQ PUSH2 0xB5 JUMPI DUP1 PUSH4 0x722713F7 EQ PUSH2 0x1A3 JUMPI JUMPDEST PUSH1 0x0 DUP1 REVERT JUMPDEST PUSH2 0x95 PUSH2 0x28D JUMP JUMPDEST STOP JUMPDEST PUSH2 0x9F PUSH2 0x29C JUMP JUMPDEST PUSH1 0x40 MLOAD DUP1 DUP3 DUP2 MSTORE PUSH1 0x20 ADD SWAP2 POP POP PUSH1 0x40 MLOAD DUP1 SWAP2 SUB SWAP1 RETURN JUMPDEST PUSH2 0x18B PUSH1 0x4 DUP1 CALLDATASIZE SUB PUSH1 0x40 DUP2 LT ISZERO PUSH2 0xCB JUMPI PUSH1 0x0 DUP1 REVERT JUMPDEST DUP2 ADD SWAP1 DUP1 DUP1 CALLDATALOAD SWAP1 PUSH1 0x20 ADD SWAP1 PUSH5 0x100000000 DUP2 GT ISZERO PUSH2 0xE8 JUMPI PUSH1 0x0 DUP1 REVERT JUMPDEST DUP3 ADD DUP4 PUSH1 0x20 DUP3 ADD GT ISZERO PUSH2 0xFA JUMPI PUSH1 0x0 DUP1 REVERT JUMPDEST DUP1 CALLDATALOAD SWAP1 PUSH1 0x20 ADD SWAP2 DUP5 PUSH1 0x20 DUP4 MUL DUP5 ADD GT PUSH5 0x100000000 DUP4 GT OR ISZERO PUSH2 0x11C JUMPI PUSH1 0x0 DUP1 REVERT JUMPDEST SWAP2 SWAP1 DUP1 DUP1 PUSH1 0x20 MUL PUSH1 0x20 ADD PUSH1 0x40 MLOAD SWAP1 DUP2 ADD PUSH1 0x40 MSTORE DUP1 SWAP4 SWAP3 SWAP2 SWAP1 DUP2 DUP2 MSTORE PUSH1 0x20 ADD DUP4 DUP4 PUSH1 0x20 MUL DUP1 DUP3 DUP5 CALLDATACOPY PUSH1 0x0 DUP2 DUP5 ADD MSTORE PUSH1 0x1F NOT PUSH1 0x1F DUP3 ADD AND SWAP1 POP DUP1 DUP4 ADD SWAP3 POP POP POP POP POP POP POP SWAP2 SWAP3 SWAP2 SWAP3 SWAP1 DUP1 CALLDATALOAD PUSH20 0xFFFFFFFFFFFFFFFFFFFFFFFFFFFFFFFFFFFFFFFF AND SWAP1 PUSH1 0x20 ADD SWAP1 SWAP3 SWAP2 SWAP1 POP POP POP PUSH2 0x2A2 JUMP JUMPDEST PUSH1 0x40 MLOAD DUP1 DUP3 ISZERO ISZERO DUP2 MSTORE PUSH1 0x20 ADD SWAP2 POP POP PUSH1 0x40 MLOAD DUP1 SWAP2 SUB SWAP1 RETURN JUMPDEST PUSH2 0x1AB PUSH2 0x3C5 JUMP JUMPDEST PUSH1 0x40 MLOAD DUP1 DUP3 DUP2 MSTORE PUSH1 0x20 ADD SWAP2 POP POP PUSH1 0x40 MLOAD DUP1 SWAP2 SUB SWAP1 RETURN JUMPDEST PUSH2 0x1F7 PUSH1 0x4 DUP1 CALLDATASIZE SUB PUSH1 0x40 DUP2 LT ISZERO PUSH2 0x1D7 JUMPI PUSH1 0x0 DUP1 REVERT JUMPDEST DUP2 ADD SWAP1 DUP1 DUP1 CALLDATALOAD SWAP1 PUSH1 0x20 ADD SWAP1 SWAP3 SWAP2 SWAP1 DUP1 CALLDATALOAD SWAP1 PUSH1 0x20 ADD SWAP1 SWAP3 SWAP2 SWAP1 POP POP POP PUSH2 0x3CD JUMP JUMPDEST PUSH1 0x40 MLOAD DUP1 DUP3 DUP2 MSTORE PUSH1 0x20 ADD SWAP2 POP POP PUSH1 0x40 MLOAD DUP1 SWAP2 SUB SWAP1 RETURN JUMPDEST PUSH2 0x215 PUSH2 0x3E6 JUMP JUMPDEST PUSH1 0x40 MLOAD DUP1 DUP3 PUSH20 0xFFFFFFFFFFFFFFFFFFFFFFFFFFFFFFFFFFFFFFFF AND DUP2 MSTORE PUSH1 0x20 ADD SWAP2 POP POP PUSH1 0x40 MLOAD DUP1 SWAP2 SUB SWAP1 RETURN JUMPDEST PUSH2 0x26D PUSH1 0x4 DUP1 CALLDATASIZE SUB PUSH1 0x20 DUP2 LT ISZERO PUSH2 0x257 JUMPI PUSH1 0x0 DUP1 REVERT JUMPDEST DUP2 ADD SWAP1 DUP1 DUP1 CALLDATALOAD SWAP1 PUSH1 0x20 ADD SWAP1 SWAP3 SWAP2 SWAP1 POP POP POP PUSH2 0x40C JUMP JUMPDEST STOP JUMPDEST PUSH2 0x277 PUSH2 0x48A JUMP JUMPDEST PUSH1 0x40 MLOAD DUP1 DUP3 DUP2 MSTORE PUSH1 0x20 ADD SWAP2 POP POP PUSH1 0x40 MLOAD DUP1 SWAP2 SUB SWAP1 RETURN JUMPDEST PUSH1 0x0 SELFBALANCE EQ PUSH2 0x29A JUMPI PUSH1 0x0 DUP1 REVERT JUMPDEST JUMP JUMPDEST PUSH1 0x3 SLOAD DUP2 JUMP JUMPDEST PUSH1 0x0 DUP1 CALLER PUSH1 0x40 MLOAD PUSH1 0x20 ADD DUP1 DUP3 PUSH20 0xFFFFFFFFFFFFFFFFFFFFFFFFFFFFFFFFFFFFFFFF AND PUSH1 0x60 SHL DUP2 MSTORE PUSH1 0x14 ADD SWAP2 POP POP PUSH1 0x40 MLOAD PUSH1 0x20 DUP2 DUP4 SUB SUB DUP2 MSTORE SWAP1 PUSH1 0x40 MSTORE DUP1 MLOAD SWAP1 PUSH1 0x20 ADD KECCAK256 SWAP1 POP PUSH2 0x2F4 DUP5 PUSH1 0x3 SLOAD DUP4 PUSH2 0x490 JUMP JUMPDEST PUSH2 0x366 JUMPI PUSH1 0x40 MLOAD PUSH32 0x8C379A000000000000000000000000000000000000000000000000000000000 DUP2 MSTORE PUSH1 0x4 ADD DUP1 DUP1 PUSH1 0x20 ADD DUP3 DUP2 SUB DUP3 MSTORE PUSH1 0x20 DUP2 MSTORE PUSH1 0x20 ADD DUP1 PUSH32 0x4D65726B6C652050726F6F6620566572696669636174696F6E206661696C6564 DUP2 MSTORE POP PUSH1 0x20 ADD SWAP2 POP POP PUSH1 0x40 MLOAD DUP1 SWAP2 SUB SWAP1 REVERT JUMPDEST PUSH1 0x0 SELFBALANCE SWAP1 POP DUP4 PUSH20 0xFFFFFFFFFFFFFFFFFFFFFFFFFFFFFFFFFFFFFFFF AND PUSH2 0x8FC PUSH2 0x391 PUSH1 0x0 SLOAD DUP5 PUSH2 0x3CD JUMP JUMPDEST SWAP1 DUP2 ISZERO MUL SWAP1 PUSH1 0x40 MLOAD PUSH1 0x0 PUSH1 0x40 MLOAD DUP1 DUP4 SUB DUP2 DUP6 DUP9 DUP9 CALL SWAP4 POP POP POP POP ISZERO DUP1 ISZERO PUSH2 0x3BC JUMPI RETURNDATASIZE PUSH1 0x0 DUP1 RETURNDATACOPY RETURNDATASIZE PUSH1 0x0 REVERT JUMPDEST POP POP POP SWAP3 SWAP2 POP POP JUMP JUMPDEST PUSH1 0x0 SELFBALANCE SWAP1 POP SWAP1 JUMP JUMPDEST PUSH1 0x0 DUP2 DUP4 GT PUSH2 0x3DC JUMPI DUP2 PUSH2 0x3DE JUMP JUMPDEST DUP3 JUMPDEST SWAP1 POP SWAP3 SWAP2 POP POP JUMP JUMPDEST PUSH1 0x1 PUSH1 0x0 SWAP1 SLOAD SWAP1 PUSH2 0x100 EXP SWAP1 DIV PUSH20 0xFFFFFFFFFFFFFFFFFFFFFFFFFFFFFFFFFFFFFFFF AND DUP2 JUMP JUMPDEST PUSH1 0x1 PUSH1 0x0 SWAP1 SLOAD SWAP1 PUSH2 0x100 EXP SWAP1 DIV PUSH20 0xFFFFFFFFFFFFFFFFFFFFFFFFFFFFFFFFFFFFFFFF AND PUSH1 0x60 SHL PUSH1 0x2 PUSH1 0x0 SWAP1 SLOAD SWAP1 PUSH2 0x100 EXP SWAP1 DIV PUSH1 0x60 SHL AND PUSH12 0xFFFFFFFFFFFFFFFFFFFFFFFF NOT AND CALLER PUSH1 0x60 SHL PUSH1 0x2 PUSH1 0x0 SWAP1 SLOAD SWAP1 PUSH2 0x100 EXP SWAP1 DIV PUSH1 0x60 SHL AND PUSH12 0xFFFFFFFFFFFFFFFFFFFFFFFF NOT AND EQ PUSH2 0x480 JUMPI PUSH1 0x0 DUP1 REVERT JUMPDEST DUP1 PUSH1 0x3 DUP2 SWAP1 SSTORE POP POP JUMP JUMPDEST PUSH1 0x0 SLOAD DUP2 JUMP JUMPDEST PUSH1 0x0 DUP3 PUSH2 0x49D DUP6 DUP5 PUSH2 0x4A7 JUMP JUMPDEST EQ SWAP1 POP SWAP4 SWAP3 POP POP POP JUMP JUMPDEST PUSH1 0x0 DUP1 DUP3 SWAP1 POP PUSH1 0x0 JUMPDEST DUP5 MLOAD DUP2 LT ISZERO PUSH2 0x54E JUMPI PUSH1 0x0 DUP6 DUP3 DUP2 MLOAD DUP2 LT PUSH2 0x4C7 JUMPI INVALID JUMPDEST PUSH1 0x20 MUL PUSH1 0x20 ADD ADD MLOAD SWAP1 POP DUP1 DUP4 GT PUSH2 0x50E JUMPI DUP3 DUP2 PUSH1 0x40 MLOAD PUSH1 0x20 ADD DUP1 DUP4 DUP2 MSTORE PUSH1 0x20 ADD DUP3 DUP2 MSTORE PUSH1 0x20 ADD SWAP3 POP POP POP PUSH1 0x40 MLOAD PUSH1 0x20 DUP2 DUP4 SUB SUB DUP2 MSTORE SWAP1 PUSH1 0x40 MSTORE DUP1 MLOAD SWAP1 PUSH1 0x20 ADD KECCAK256 SWAP3 POP PUSH2 0x540 JUMP JUMPDEST DUP1 DUP4 PUSH1 0x40 MLOAD PUSH1 0x20 ADD DUP1 DUP4 DUP2 MSTORE PUSH1 0x20 ADD DUP3 DUP2 MSTORE PUSH1 0x20 ADD SWAP3 POP POP POP PUSH1 0x40 MLOAD PUSH1 0x20 DUP2 DUP4 SUB SUB DUP2 MSTORE SWAP1 PUSH1 0x40 MSTORE DUP1 MLOAD SWAP1 PUSH1 0x20 ADD KECCAK256 SWAP3 POP JUMPDEST POP DUP1 DUP1 PUSH1 0x1 ADD SWAP2 POP POP PUSH2 0x4B0 JUMP JUMPDEST POP DUP1 SWAP2 POP POP SWAP3 SWAP2 POP POP JUMP INVALID LOG2 PUSH5 0x6970667358 0x22 SLT KECCAK256 PUSH5 0x6C74A7EB12 DUP8 0xCD COINBASE OR SWAP1 0xD7 MSTORE8 CREATE BYTE 0xBE PUSH8 0xE77235E4344178D8 0xC6 KECCAK256 LOG3 0xDA 0x22 RETURN 0x2F PUSH5 0x736F6C6343 STOP SMOD MOD STOP CALLER "
				},
				"gasEstimates": {
					"creation": {
						"codeDepositCost": "284600",
						"executionCost": "infinite",
						"totalCost": "infinite"
					},
					"external": {
						"Complete()": "170",
						"amount()": "1071",
						"balanceOf()": "282",
						"merkleRoot()": "1028",
						"min(uint256,uint256)": "363",
						"owner()": "1069",
						"setMerkleroot(bytes32)": "22858",
						"withdraw(bytes32[],address)": "infinite"
					}
				},
				"methodIdentifiers": {
					"Complete()": "01b7dcb4",
					"amount()": "aa8c217c",
					"balanceOf()": "722713f7",
					"merkleRoot()": "2eb4a7ab",
					"min(uint256,uint256)": "7ae2b5c7",
					"owner()": "8da5cb5b",
					"setMerkleroot(bytes32)": "92f6c439",
					"withdraw(bytes32[],address)": "38be5592"
				}
			},
			"storageLayout": {
				"storage": [
					{
						"astId": 87,
						"contract": "赛题-预赛/第三题/Merkle.sol:Merkle",
						"label": "amount",
						"offset": 0,
						"slot": "0",
						"type": "t_uint256"
					},
					{
						"astId": 89,
						"contract": "赛题-预赛/第三题/Merkle.sol:Merkle",
						"label": "owner",
						"offset": 0,
						"slot": "1",
						"type": "t_address"
					},
					{
						"astId": 92,
						"contract": "赛题-预赛/第三题/Merkle.sol:Merkle",
						"label": "mask",
						"offset": 0,
						"slot": "2",
						"type": "t_bytes20"
					},
					{
						"astId": 94,
						"contract": "赛题-预赛/第三题/Merkle.sol:Merkle",
						"label": "merkleRoot",
						"offset": 0,
						"slot": "3",
						"type": "t_bytes32"
					}
				],
				"types": {
					"t_address": {
						"encoding": "inplace",
						"label": "address",
						"numberOfBytes": "20"
					},
					"t_bytes20": {
						"encoding": "inplace",
						"label": "bytes20",
						"numberOfBytes": "20"
					},
					"t_bytes32": {
						"encoding": "inplace",
						"label": "bytes32",
						"numberOfBytes": "32"
					},
					"t_uint256": {
						"encoding": "inplace",
						"label": "uint256",
						"numberOfBytes": "32"
					}
				}
			},
			"userdoc": {
				"kind": "user",
				"methods": {},
				"version": 1
			}
		}
	}
}