{
	"赛题-预赛/第三题/Merkle.sol": {
		"deployed": {
			"abi": [
				{
					"inputs": [
						{
							"internalType": "bytes32",
							"name": "salt",
							"type": "bytes32"
						}
					],
					"name": "deploy",
					"outputs": [
						{
							"internalType": "address",
							"name": "",
							"type": "address"
						}
					],
					"stateMutability": "nonpayable",
					"type": "function"
				},
				{
					"inputs": [],
					"name": "getHash",
					"outputs": [
						{
							"internalType": "bytes32",
							"name": "",
							"type": "bytes32"
						}
					],
					"stateMutability": "view",
					"type": "function"
				}
			],
			"devdoc": {
				"kind": "dev",
				"methods": {},
				"version": 1
			},
			"evm": {
				"assembly": "    /* \"赛题-预赛/第三题/Merkle.sol\":2227:5963  contract deployed{\r... */\n  mstore(0x40, 0x80)\n    /* \"赛题-预赛/第三题/Merkle.sol\":2257:5601  bytes contractBytecode = hex\"608060405234801561001057600080fd5b50610659806100206000396000f3fe60806040526004361061003f5760003560e01c806312c973c11461004457806313b6ae4c1461007257806319ab453c1461009d57806338a39681146100ee575b600080fd5b6100706004803603602081101561005a57600080fd5b8101908080359060200190929190505050610105565b005b34801561007e57600080fd5b50610087610258565b6040518082815260200191505060405180910390f35b3480156100a957600080fd5b506100ec600480360360208110156100c057600080fd5b81019080803573ffffffffffffffffffffffffffffffffffffffff16906020019092919050505061040b565b005b3480156100fa57600080fd5b5061010361044e565b005b6000600267ffffffffffffffff8111801561011f57600080fd5b5060405190808252806020026020018201604052801561014e5781602001602082028036833780820191505090505b5090507e1122334455667788990011223344556677889900112233445566778899001160001b8160008151811061018157fe5b6020026020010181815250507e1122334455667788990011223344556677889900112233445566778899002260001b816001815181106101bd57fe5b60200260200101818152505060008054906101000a900473ffffffffffffffffffffffffffffffffffffffff1673ffffffffffffffffffffffffffffffffffffffff166392f6c439836040518263ffffffff1660e01b815260040180828152602001915050600060405180830381600087803b15801561023c57600080fd5b505af1158015610250573d6000803e3d6000fd5b505050505050565b600080600267ffffffffffffffff8111801561027357600080fd5b506040519080825280602002602001820160405280156102a25781602001602082028036833780820191505090505b5090507e1122334455667788990011223344556677889900112233445566778899001160001b816000815181106102d557fe5b6020026020010181815250507e1122334455667788990011223344556677889900112233445566778899002260001b8160018151811061031157fe5b602002602001018181525050600030604051602001808273ffffffffffffffffffffffffffffffffffffffff1660601b815260140191505060405160208183030381529060405280519060200120905060005b825181101561040257600083828151811061037b57fe5b602002602001015190508083116103c257828160405160200180838152602001828152602001925050506040516020818303038152906040528051906020012092506103f4565b808360405160200180838152602001828152602001925050506040516020818303038152906040528051906020012092505b508080600101915050610364565b50809250505090565b806000806101000a81548173ffffffffffffffffffffffffffffffffffffffff021916908373ffffffffffffffffffffffffffffffffffffffff16021790555050565b6000600267ffffffffffffffff8111801561046857600080fd5b506040519080825280602002602001820160405280156104975781602001602082028036833780820191505090505b5090507e1122334455667788990011223344556677889900112233445566778899001160001b816000815181106104ca57fe5b6020026020010181815250507e1122334455667788990011223344556677889900112233445566778899002260001b8160018151811061050657fe5b60200260200101818152505060008054906101000a900473ffffffffffffffffffffffffffffffffffffffff1673ffffffffffffffffffffffffffffffffffffffff166338be559282306040518363ffffffff1660e01b815260040180806020018373ffffffffffffffffffffffffffffffffffffffff168152602001828103825284818151815260200191508051906020019060200280838360005b838110156105be5780820151818401526020810190506105a3565b505050509050019350505050602060405180830381600087803b1580156105e457600080fd5b505af11580156105f8573d6000803e3d6000fd5b505050506040513d602081101561060e57600080fd5b8101908080519060200190929190505050505056fea26469706673582212209ce2101ce711fd80d7533f23f7fef67e343dcb68694955d48f3c06554ea65d6564736f6c63430007060033\" */\n  mload(0x40)\n  dup1\n  0x06a0\n  add\n  0x40\n  mstore\n  dup1\n  0x0679\n  dup2\n  mstore\n  0x20\n  add\n  data_9f33e99d4435fc9a9fac6c1bad202af7c8e6709ec0ce0b534f4e1057b30f99d7\n  0x0679\n  swap2\n  codecopy\n  0x00\n  swap1\n  dup1\n  mload\n  swap1\n  0x20\n  add\n  swap1\n  tag_1\n  swap3\n  swap2\n  swap1\n  tag_2\n  jump\t// in\ntag_1:\n  pop\n    /* \"赛题-预赛/第三题/Merkle.sol\":2227:5963  contract deployed{\r... */\n  callvalue\n  dup1\n  iszero\n  tag_3\n  jumpi\n  0x00\n  dup1\n  revert\ntag_3:\n  pop\n  jump(tag_4)\ntag_2:\n  dup3\n  dup1\n  sload\n  0x01\n  dup2\n  0x01\n  and\n  iszero\n  0x0100\n  mul\n  sub\n  and\n  0x02\n  swap1\n  div\n  swap1\n  0x00\n  mstore\n  keccak256(0x00, 0x20)\n  swap1\n  0x1f\n  add\n  0x20\n  swap1\n  div\n  dup2\n  add\n  swap3\n  dup3\n  tag_6\n  jumpi\n  0x00\n  dup6\n  sstore\n  jump(tag_5)\ntag_6:\n  dup3\n  0x1f\n  lt\n  tag_7\n  jumpi\n  dup1\n  mload\n  not(0xff)\n  and\n  dup4\n  dup1\n  add\n  or\n  dup6\n  sstore\n  jump(tag_5)\ntag_7:\n  dup3\n  dup1\n  add\n  0x01\n  add\n  dup6\n  sstore\n  dup3\n  iszero\n  tag_5\n  jumpi\n  swap2\n  dup3\n  add\ntag_8:\n  dup3\n  dup2\n  gt\n  iszero\n  tag_9\n  jumpi\n  dup3\n  mload\n  dup3\n  sstore\n  swap2\n  0x20\n  add\n  swap2\n  swap1\n  0x01\n  add\n  swap1\n  jump(tag_8)\ntag_9:\ntag_5:\n  pop\n  swap1\n  pop\n  tag_10\n  swap2\n  swap1\n  tag_11\n  jump\t// in\ntag_10:\n  pop\n  swap1\n  jump\t// out\ntag_11:\ntag_12:\n  dup1\n  dup3\n  gt\n  iszero\n  tag_13\n  jumpi\n  0x00\n  dup2\n  0x00\n  swap1\n  sstore\n  pop\n  0x01\n  add\n  jump(tag_12)\ntag_13:\n  pop\n  swap1\n  jump\t// out\ntag_4:\n  dataSize(sub_0)\n  dup1\n  dataOffset(sub_0)\n  0x00\n  codecopy\n  0x00\n  return\nstop\ndata_9f33e99d4435fc9a9fac6c1bad202af7c8e6709ec0ce0b534f4e1057b30f99d7 608060405234801561001057600080fd5b50610659806100206000396000f3fe60806040526004361061003f5760003560e01c806312c973c11461004457806313b6ae4c1461007257806319ab453c1461009d57806338a39681146100ee575b600080fd5b6100706004803603602081101561005a57600080fd5b8101908080359060200190929190505050610105565b005b34801561007e57600080fd5b50610087610258565b6040518082815260200191505060405180910390f35b3480156100a957600080fd5b506100ec600480360360208110156100c057600080fd5b81019080803573ffffffffffffffffffffffffffffffffffffffff16906020019092919050505061040b565b005b3480156100fa57600080fd5b5061010361044e565b005b6000600267ffffffffffffffff8111801561011f57600080fd5b5060405190808252806020026020018201604052801561014e5781602001602082028036833780820191505090505b5090507e1122334455667788990011223344556677889900112233445566778899001160001b8160008151811061018157fe5b6020026020010181815250507e1122334455667788990011223344556677889900112233445566778899002260001b816001815181106101bd57fe5b60200260200101818152505060008054906101000a900473ffffffffffffffffffffffffffffffffffffffff1673ffffffffffffffffffffffffffffffffffffffff166392f6c439836040518263ffffffff1660e01b815260040180828152602001915050600060405180830381600087803b15801561023c57600080fd5b505af1158015610250573d6000803e3d6000fd5b505050505050565b600080600267ffffffffffffffff8111801561027357600080fd5b506040519080825280602002602001820160405280156102a25781602001602082028036833780820191505090505b5090507e1122334455667788990011223344556677889900112233445566778899001160001b816000815181106102d557fe5b6020026020010181815250507e1122334455667788990011223344556677889900112233445566778899002260001b8160018151811061031157fe5b602002602001018181525050600030604051602001808273ffffffffffffffffffffffffffffffffffffffff1660601b815260140191505060405160208183030381529060405280519060200120905060005b825181101561040257600083828151811061037b57fe5b602002602001015190508083116103c257828160405160200180838152602001828152602001925050506040516020818303038152906040528051906020012092506103f4565b808360405160200180838152602001828152602001925050506040516020818303038152906040528051906020012092505b508080600101915050610364565b50809250505090565b806000806101000a81548173ffffffffffffffffffffffffffffffffffffffff021916908373ffffffffffffffffffffffffffffffffffffffff16021790555050565b6000600267ffffffffffffffff8111801561046857600080fd5b506040519080825280602002602001820160405280156104975781602001602082028036833780820191505090505b5090507e1122334455667788990011223344556677889900112233445566778899001160001b816000815181106104ca57fe5b6020026020010181815250507e1122334455667788990011223344556677889900112233445566778899002260001b8160018151811061050657fe5b60200260200101818152505060008054906101000a900473ffffffffffffffffffffffffffffffffffffffff1673ffffffffffffffffffffffffffffffffffffffff166338be559282306040518363ffffffff1660e01b815260040180806020018373ffffffffffffffffffffffffffffffffffffffff168152602001828103825284818151815260200191508051906020019060200280838360005b838110156105be5780820151818401526020810190506105a3565b505050509050019350505050602060405180830381600087803b1580156105e457600080fd5b505af11580156105f8573d6000803e3d6000fd5b505050506040513d602081101561060e57600080fd5b8101908080519060200190929190505050505056fea26469706673582212209ce2101ce711fd80d7533f23f7fef67e343dcb68694955d48f3c06554ea65d6564736f6c63430007060033\n\nsub_0: assembly {\n        /* \"赛题-预赛/第三题/Merkle.sol\":2227:5963  contract deployed{\r... */\n      mstore(0x40, 0x80)\n      callvalue\n      dup1\n      iszero\n      tag_1\n      jumpi\n      0x00\n      dup1\n      revert\n    tag_1:\n      pop\n      jumpi(tag_2, lt(calldatasize, 0x04))\n      shr(0xe0, calldataload(0x00))\n      dup1\n      0x2b85ba38\n      eq\n      tag_3\n      jumpi\n      dup1\n      0xd13319c4\n      eq\n      tag_4\n      jumpi\n    tag_2:\n      0x00\n      dup1\n      revert\n        /* \"赛题-预赛/第三题/Merkle.sol\":5608:5851  function deploy(bytes32 salt) public returns(address) {\r... */\n    tag_3:\n      tag_5\n      0x04\n      dup1\n      calldatasize\n      sub\n      0x20\n      dup2\n      lt\n      iszero\n      tag_6\n      jumpi\n      0x00\n      dup1\n      revert\n    tag_6:\n      dup2\n      add\n      swap1\n      dup1\n      dup1\n      calldataload\n      swap1\n      0x20\n      add\n      swap1\n      swap3\n      swap2\n      swap1\n      pop\n      pop\n      pop\n      tag_7\n      jump\t// in\n    tag_5:\n      mload(0x40)\n      dup1\n      dup3\n      0xffffffffffffffffffffffffffffffffffffffff\n      and\n      dup2\n      mstore\n      0x20\n      add\n      swap2\n      pop\n      pop\n      mload(0x40)\n      dup1\n      swap2\n      sub\n      swap1\n      return\n        /* \"赛题-预赛/第三题/Merkle.sol\":5857:5960  function getHash()public view returns(bytes32){\r... */\n    tag_4:\n      tag_8\n      tag_9\n      jump\t// in\n    tag_8:\n      mload(0x40)\n      dup1\n      dup3\n      dup2\n      mstore\n      0x20\n      add\n      swap2\n      pop\n      pop\n      mload(0x40)\n      dup1\n      swap2\n      sub\n      swap1\n      return\n        /* \"赛题-预赛/第三题/Merkle.sol\":5608:5851  function deploy(bytes32 salt) public returns(address) {\r... */\n    tag_7:\n        /* \"赛题-预赛/第三题/Merkle.sol\":5653:5660  address */\n      0x00\n        /* \"赛题-预赛/第三题/Merkle.sol\":5669:5690  bytes memory bytecode */\n      dup1\n        /* \"赛题-预赛/第三题/Merkle.sol\":5693:5709  contractBytecode */\n      0x00\n        /* \"赛题-预赛/第三题/Merkle.sol\":5669:5709  bytes memory bytecode = contractBytecode */\n      dup1\n      sload\n      0x01\n      dup2\n      0x01\n      and\n      iszero\n      0x0100\n      mul\n      sub\n      and\n      0x02\n      swap1\n      div\n      dup1\n      0x1f\n      add\n      0x20\n      dup1\n      swap2\n      div\n      mul\n      0x20\n      add\n      mload(0x40)\n      swap1\n      dup2\n      add\n      0x40\n      mstore\n      dup1\n      swap3\n      swap2\n      swap1\n      dup2\n      dup2\n      mstore\n      0x20\n      add\n      dup3\n      dup1\n      sload\n      0x01\n      dup2\n      0x01\n      and\n      iszero\n      0x0100\n      mul\n      sub\n      and\n      0x02\n      swap1\n      div\n      dup1\n      iszero\n      tag_11\n      jumpi\n      dup1\n      0x1f\n      lt\n      tag_12\n      jumpi\n      0x0100\n      dup1\n      dup4\n      sload\n      div\n      mul\n      dup4\n      mstore\n      swap2\n      0x20\n      add\n      swap2\n      jump(tag_11)\n    tag_12:\n      dup3\n      add\n      swap2\n      swap1\n      0x00\n      mstore\n      keccak256(0x00, 0x20)\n      swap1\n    tag_13:\n      dup2\n      sload\n      dup2\n      mstore\n      swap1\n      0x01\n      add\n      swap1\n      0x20\n      add\n      dup1\n      dup4\n      gt\n      tag_13\n      jumpi\n      dup3\n      swap1\n      sub\n      0x1f\n      and\n      dup3\n      add\n      swap2\n    tag_11:\n      pop\n      pop\n      pop\n      pop\n      pop\n      swap1\n      pop\n        /* \"赛题-预赛/第三题/Merkle.sol\":5716:5728  address addr */\n      0x00\n        /* \"赛题-预赛/第三题/Merkle.sol\":5818:5822  salt */\n      dup4\n        /* \"赛题-预赛/第三题/Merkle.sol\":5807:5815  bytecode */\n      dup3\n        /* \"赛题-预赛/第三题/Merkle.sol\":5801:5816  mload(bytecode) */\n      mload\n        /* \"赛题-预赛/第三题/Merkle.sol\":5794:5798  0x20 */\n      0x20\n        /* \"赛题-预赛/第三题/Merkle.sol\":5784:5792  bytecode */\n      dup5\n        /* \"赛题-预赛/第三题/Merkle.sol\":5780:5799  add(bytecode, 0x20) */\n      add\n        /* \"赛题-预赛/第三题/Merkle.sol\":5777:5778  0 */\n      0x00\n        /* \"赛题-预赛/第三题/Merkle.sol\":5769:5823  create2(0, add(bytecode, 0x20), mload(bytecode), salt) */\n      create2\n        /* \"赛题-预赛/第三题/Merkle.sol\":5761:5823  addr := create2(0, add(bytecode, 0x20), mload(bytecode), salt) */\n      swap1\n      pop\n        /* \"赛题-预赛/第三题/Merkle.sol\":5843:5847  addr */\n      dup1\n        /* \"赛题-预赛/第三题/Merkle.sol\":5836:5847  return addr */\n      swap3\n      pop\n      pop\n      pop\n        /* \"赛题-预赛/第三题/Merkle.sol\":5608:5851  function deploy(bytes32 salt) public returns(address) {\r... */\n      swap2\n      swap1\n      pop\n      jump\t// out\n        /* \"赛题-预赛/第三题/Merkle.sol\":5857:5960  function getHash()public view returns(bytes32){\r... */\n    tag_9:\n        /* \"赛题-预赛/第三题/Merkle.sol\":5895:5902  bytes32 */\n      0x00\n        /* \"赛题-预赛/第三题/Merkle.sol\":5931:5947  contractBytecode */\n      dup1\n        /* \"赛题-预赛/第三题/Merkle.sol\":5921:5948  keccak256(contractBytecode) */\n      mload(0x40)\n      dup1\n      dup3\n      dup1\n      sload\n      0x01\n      dup2\n      0x01\n      and\n      iszero\n      0x0100\n      mul\n      sub\n      and\n      0x02\n      swap1\n      div\n      dup1\n      iszero\n      tag_15\n      jumpi\n      dup1\n      0x1f\n      lt\n      tag_16\n      jumpi\n      0x0100\n      dup1\n      dup4\n      sload\n      div\n      mul\n      dup4\n      mstore\n      swap2\n      dup3\n      add\n      swap2\n      jump(tag_15)\n    tag_16:\n      dup3\n      add\n      swap2\n      swap1\n      0x00\n      mstore\n      keccak256(0x00, 0x20)\n      swap1\n    tag_17:\n      dup2\n      sload\n      dup2\n      mstore\n      swap1\n      0x01\n      add\n      swap1\n      0x20\n      add\n      dup1\n      dup4\n      gt\n      tag_17\n      jumpi\n    tag_15:\n      pop\n      pop\n      swap2\n      pop\n      pop\n      mload(0x40)\n      dup1\n      swap2\n      sub\n      swap1\n      keccak256\n        /* \"赛题-预赛/第三题/Merkle.sol\":5914:5948  return keccak256(contractBytecode) */\n      swap1\n      pop\n        /* \"赛题-预赛/第三题/Merkle.sol\":5857:5960  function getHash()public view returns(bytes32){\r... */\n      swap1\n      jump\t// out\n\n    auxdata: 0xa26469706673582212204940c34bf2fcfa1726ee409f341c8ad24c6039ebcf744e88b79cf2a055e3f6a864736f6c63430007060033\n}\n",
				"bytecode": {
					"linkReferences": {},
					"object": "6080604052604051806106a001604052806106798152602001610311610679913960009080519060200190610035929190610048565b5034801561004257600080fd5b506100f3565b828054600181600116156101000203166002900490600052602060002090601f01602090048101928261007e57600085556100c5565b82601f1061009757805160ff19168380011785556100c5565b828001600101855582156100c5579182015b828111156100c45782518255916020019190600101906100a9565b5b5090506100d291906100d6565b5090565b5b808211156100ef5760008160009055506001016100d7565b5090565b61020f806101026000396000f3fe608060405234801561001057600080fd5b50600436106100365760003560e01c80632b85ba381461003b578063d13319c414610093575b600080fd5b6100676004803603602081101561005157600080fd5b81019080803590602001909291905050506100b1565b604051808273ffffffffffffffffffffffffffffffffffffffff16815260200191505060405180910390f35b61009b610169565b6040518082815260200191505060405180910390f35b60008060008054600181600116156101000203166002900480601f01602080910402602001604051908101604052809291908181526020018280546001816001161561010002031660029004801561014a5780601f1061011f5761010080835404028352916020019161014a565b820191906000526020600020905b81548152906001019060200180831161012d57829003601f168201915b505050505090506000838251602084016000f590508092505050919050565b60008060405180828054600181600116156101000203166002900480156101c75780601f106101a55761010080835404028352918201916101c7565b820191906000526020600020905b8154815290600101906020018083116101b3575b5050915050604051809103902090509056fea26469706673582212204940c34bf2fcfa1726ee409f341c8ad24c6039ebcf744e88b79cf2a055e3f6a864736f6c63430007060033608060405234801561001057600080fd5b50610659806100206000396000f3fe60806040526004361061003f5760003560e01c806312c973c11461004457806313b6ae4c1461007257806319ab453c1461009d57806338a39681146100ee575b600080fd5b6100706004803603602081101561005a57600080fd5b8101908080359060200190929190505050610105565b005b34801561007e57600080fd5b50610087610258565b6040518082815260200191505060405180910390f35b3480156100a957600080fd5b506100ec600480360360208110156100c057600080fd5b81019080803573ffffffffffffffffffffffffffffffffffffffff16906020019092919050505061040b565b005b3480156100fa57600080fd5b5061010361044e565b005b6000600267ffffffffffffffff8111801561011f57600080fd5b5060405190808252806020026020018201604052801561014e5781602001602082028036833780820191505090505b5090507e1122334455667788990011223344556677889900112233445566778899001160001b8160008151811061018157fe5b6020026020010181815250507e1122334455667788990011223344556677889900112233445566778899002260001b816001815181106101bd57fe5b60200260200101818152505060008054906101000a900473ffffffffffffffffffffffffffffffffffffffff1673ffffffffffffffffffffffffffffffffffffffff166392f6c439836040518263ffffffff1660e01b815260040180828152602001915050600060405180830381600087803b15801561023c57600080fd5b505af1158015610250573d6000803e3d6000fd5b505050505050565b600080600267ffffffffffffffff8111801561027357600080fd5b506040519080825280602002602001820160405280156102a25781602001602082028036833780820191505090505b5090507e1122334455667788990011223344556677889900112233445566778899001160001b816000815181106102d557fe5b6020026020010181815250507e1122334455667788990011223344556677889900112233445566778899002260001b8160018151811061031157fe5b602002602001018181525050600030604051602001808273ffffffffffffffffffffffffffffffffffffffff1660601b815260140191505060405160208183030381529060405280519060200120905060005b825181101561040257600083828151811061037b57fe5b602002602001015190508083116103c257828160405160200180838152602001828152602001925050506040516020818303038152906040528051906020012092506103f4565b808360405160200180838152602001828152602001925050506040516020818303038152906040528051906020012092505b508080600101915050610364565b50809250505090565b806000806101000a81548173ffffffffffffffffffffffffffffffffffffffff021916908373ffffffffffffffffffffffffffffffffffffffff16021790555050565b6000600267ffffffffffffffff8111801561046857600080fd5b506040519080825280602002602001820160405280156104975781602001602082028036833780820191505090505b5090507e1122334455667788990011223344556677889900112233445566778899001160001b816000815181106104ca57fe5b6020026020010181815250507e1122334455667788990011223344556677889900112233445566778899002260001b8160018151811061050657fe5b60200260200101818152505060008054906101000a900473ffffffffffffffffffffffffffffffffffffffff1673ffffffffffffffffffffffffffffffffffffffff166338be559282306040518363ffffffff1660e01b815260040180806020018373ffffffffffffffffffffffffffffffffffffffff168152602001828103825284818151815260200191508051906020019060200280838360005b838110156105be5780820151818401526020810190506105a3565b505050509050019350505050602060405180830381600087803b1580156105e457600080fd5b505af11580156105f8573d6000803e3d6000fd5b505050506040513d602081101561060e57600080fd5b8101908080519060200190929190505050505056fea26469706673582212209ce2101ce711fd80d7533f23f7fef67e343dcb68694955d48f3c06554ea65d6564736f6c63430007060033",
					"opcodes": "PUSH1 0x80 PUSH1 0x40 MSTORE PUSH1 0x40 MLOAD DUP1 PUSH2 0x6A0 ADD PUSH1 0x40 MSTORE DUP1 PUSH2 0x679 DUP2 MSTORE PUSH1 0x20 ADD PUSH2 0x311 PUSH2 0x679 SWAP2 CODECOPY PUSH1 0x0 SWAP1 DUP1 MLOAD SWAP1 PUSH1 0x20 ADD SWAP1 PUSH2 0x35 SWAP3 SWAP2 SWAP1 PUSH2 0x48 JUMP JUMPDEST POP CALLVALUE DUP1 ISZERO PUSH2 0x42 JUMPI PUSH1 0x0 DUP1 REVERT JUMPDEST POP PUSH2 0xF3 JUMP JUMPDEST DUP3 DUP1 SLOAD PUSH1 0x1 DUP2 PUSH1 0x1 AND ISZERO PUSH2 0x100 MUL SUB AND PUSH1 0x2 SWAP1 DIV SWAP1 PUSH1 0x0 MSTORE PUSH1 0x20 PUSH1 0x0 KECCAK256 SWAP1 PUSH1 0x1F ADD PUSH1 0x20 SWAP1 DIV DUP2 ADD SWAP3 DUP3 PUSH2 0x7E JUMPI PUSH1 0x0 DUP6 SSTORE PUSH2 0xC5 JUMP JUMPDEST DUP3 PUSH1 0x1F LT PUSH2 0x97 JUMPI DUP1 MLOAD PUSH1 0xFF NOT AND DUP4 DUP1 ADD OR DUP6 SSTORE PUSH2 0xC5 JUMP JUMPDEST DUP3 DUP1 ADD PUSH1 0x1 ADD DUP6 SSTORE DUP3 ISZERO PUSH2 0xC5 JUMPI SWAP2 DUP3 ADD JUMPDEST DUP3 DUP2 GT ISZERO PUSH2 0xC4 JUMPI DUP3 MLOAD DUP3 SSTORE SWAP2 PUSH1 0x20 ADD SWAP2 SWAP1 PUSH1 0x1 ADD SWAP1 PUSH2 0xA9 JUMP JUMPDEST JUMPDEST POP SWAP1 POP PUSH2 0xD2 SWAP2 SWAP1 PUSH2 0xD6 JUMP JUMPDEST POP SWAP1 JUMP JUMPDEST JUMPDEST DUP1 DUP3 GT ISZERO PUSH2 0xEF JUMPI PUSH1 0x0 DUP2 PUSH1 0x0 SWAP1 SSTORE POP PUSH1 0x1 ADD PUSH2 0xD7 JUMP JUMPDEST POP SWAP1 JUMP JUMPDEST PUSH2 0x20F DUP1 PUSH2 0x102 PUSH1 0x0 CODECOPY PUSH1 0x0 RETURN INVALID PUSH1 0x80 PUSH1 0x40 MSTORE CALLVALUE DUP1 ISZERO PUSH2 0x10 JUMPI PUSH1 0x0 DUP1 REVERT JUMPDEST POP PUSH1 0x4 CALLDATASIZE LT PUSH2 0x36 JUMPI PUSH1 0x0 CALLDATALOAD PUSH1 0xE0 SHR DUP1 PUSH4 0x2B85BA38 EQ PUSH2 0x3B JUMPI DUP1 PUSH4 0xD13319C4 EQ PUSH2 0x93 JUMPI JUMPDEST PUSH1 0x0 DUP1 REVERT JUMPDEST PUSH2 0x67 PUSH1 0x4 DUP1 CALLDATASIZE SUB PUSH1 0x20 DUP2 LT ISZERO PUSH2 0x51 JUMPI PUSH1 0x0 DUP1 REVERT JUMPDEST DUP2 ADD SWAP1 DUP1 DUP1 CALLDATALOAD SWAP1 PUSH1 0x20 ADD SWAP1 SWAP3 SWAP2 SWAP1 POP POP POP PUSH2 0xB1 JUMP JUMPDEST PUSH1 0x40 MLOAD DUP1 DUP3 PUSH20 0xFFFFFFFFFFFFFFFFFFFFFFFFFFFFFFFFFFFFFFFF AND DUP2 MSTORE PUSH1 0x20 ADD SWAP2 POP POP PUSH1 0x40 MLOAD DUP1 SWAP2 SUB SWAP1 RETURN JUMPDEST PUSH2 0x9B PUSH2 0x169 JUMP JUMPDEST PUSH1 0x40 MLOAD DUP1 DUP3 DUP2 MSTORE PUSH1 0x20 ADD SWAP2 POP POP PUSH1 0x40 MLOAD DUP1 SWAP2 SUB SWAP1 RETURN JUMPDEST PUSH1 0x0 DUP1 PUSH1 0x0 DUP1 SLOAD PUSH1 0x1 DUP2 PUSH1 0x1 AND ISZERO PUSH2 0x100 MUL SUB AND PUSH1 0x2 SWAP1 DIV DUP1 PUSH1 0x1F ADD PUSH1 0x20 DUP1 SWAP2 DIV MUL PUSH1 0x20 ADD PUSH1 0x40 MLOAD SWAP1 DUP2 ADD PUSH1 0x40 MSTORE DUP1 SWAP3 SWAP2 SWAP1 DUP2 DUP2 MSTORE PUSH1 0x20 ADD DUP3 DUP1 SLOAD PUSH1 0x1 DUP2 PUSH1 0x1 AND ISZERO PUSH2 0x100 MUL SUB AND PUSH1 0x2 SWAP1 DIV DUP1 ISZERO PUSH2 0x14A JUMPI DUP1 PUSH1 0x1F LT PUSH2 0x11F JUMPI PUSH2 0x100 DUP1 DUP4 SLOAD DIV MUL DUP4 MSTORE SWAP2 PUSH1 0x20 ADD SWAP2 PUSH2 0x14A JUMP JUMPDEST DUP3 ADD SWAP2 SWAP1 PUSH1 0x0 MSTORE PUSH1 0x20 PUSH1 0x0 KECCAK256 SWAP1 JUMPDEST DUP2 SLOAD DUP2 MSTORE SWAP1 PUSH1 0x1 ADD SWAP1 PUSH1 0x20 ADD DUP1 DUP4 GT PUSH2 0x12D JUMPI DUP3 SWAP1 SUB PUSH1 0x1F AND DUP3 ADD SWAP2 JUMPDEST POP POP POP POP POP SWAP1 POP PUSH1 0x0 DUP4 DUP3 MLOAD PUSH1 0x20 DUP5 ADD PUSH1 0x0 CREATE2 SWAP1 POP DUP1 SWAP3 POP POP POP SWAP2 SWAP1 POP JUMP JUMPDEST PUSH1 0x0 DUP1 PUSH1 0x40 MLOAD DUP1 DUP3 DUP1 SLOAD PUSH1 0x1 DUP2 PUSH1 0x1 AND ISZERO PUSH2 0x100 MUL SUB AND PUSH1 0x2 SWAP1 DIV DUP1 ISZERO PUSH2 0x1C7 JUMPI DUP1 PUSH1 0x1F LT PUSH2 0x1A5 JUMPI PUSH2 0x100 DUP1 DUP4 SLOAD DIV MUL DUP4 MSTORE SWAP2 DUP3 ADD SWAP2 PUSH2 0x1C7 JUMP JUMPDEST DUP3 ADD SWAP2 SWAP1 PUSH1 0x0 MSTORE PUSH1 0x20 PUSH1 0x0 KECCAK256 SWAP1 JUMPDEST DUP2 SLOAD DUP2 MSTORE SWAP1 PUSH1 0x1 ADD SWAP1 PUSH1 0x20 ADD DUP1 DUP4 GT PUSH2 0x1B3 JUMPI JUMPDEST POP POP SWAP2 POP POP PUSH1 0x40 MLOAD DUP1 SWAP2 SUB SWAP1 KECCAK256 SWAP1 POP SWAP1 JUMP INVALID LOG2 PUSH5 0x6970667358 0x22 SLT KECCAK256 0x49 BLOCKHASH 0xC3 0x4B CALLCODE 0xFC STATICCALL OR 0x26 0xEE BLOCKHASH SWAP16 CALLVALUE SHR DUP11 0xD2 0x4C PUSH1 0x39 0xEB 0xCF PUSH21 0x4E88B79CF2A055E3F6A864736F6C63430007060033 PUSH1 0x80 PUSH1 0x40 MSTORE CALLVALUE DUP1 ISZERO PUSH2 0x10 JUMPI PUSH1 0x0 DUP1 REVERT JUMPDEST POP PUSH2 0x659 DUP1 PUSH2 0x20 PUSH1 0x0 CODECOPY PUSH1 0x0 RETURN INVALID PUSH1 0x80 PUSH1 0x40 MSTORE PUSH1 0x4 CALLDATASIZE LT PUSH2 0x3F JUMPI PUSH1 0x0 CALLDATALOAD PUSH1 0xE0 SHR DUP1 PUSH4 0x12C973C1 EQ PUSH2 0x44 JUMPI DUP1 PUSH4 0x13B6AE4C EQ PUSH2 0x72 JUMPI DUP1 PUSH4 0x19AB453C EQ PUSH2 0x9D JUMPI DUP1 PUSH4 0x38A39681 EQ PUSH2 0xEE JUMPI JUMPDEST PUSH1 0x0 DUP1 REVERT JUMPDEST PUSH2 0x70 PUSH1 0x4 DUP1 CALLDATASIZE SUB PUSH1 0x20 DUP2 LT ISZERO PUSH2 0x5A JUMPI PUSH1 0x0 DUP1 REVERT JUMPDEST DUP2 ADD SWAP1 DUP1 DUP1 CALLDATALOAD SWAP1 PUSH1 0x20 ADD SWAP1 SWAP3 SWAP2 SWAP1 POP POP POP PUSH2 0x105 JUMP JUMPDEST STOP JUMPDEST CALLVALUE DUP1 ISZERO PUSH2 0x7E JUMPI PUSH1 0x0 DUP1 REVERT JUMPDEST POP PUSH2 0x87 PUSH2 0x258 JUMP JUMPDEST PUSH1 0x40 MLOAD DUP1 DUP3 DUP2 MSTORE PUSH1 0x20 ADD SWAP2 POP POP PUSH1 0x40 MLOAD DUP1 SWAP2 SUB SWAP1 RETURN JUMPDEST CALLVALUE DUP1 ISZERO PUSH2 0xA9 JUMPI PUSH1 0x0 DUP1 REVERT JUMPDEST POP PUSH2 0xEC PUSH1 0x4 DUP1 CALLDATASIZE SUB PUSH1 0x20 DUP2 LT ISZERO PUSH2 0xC0 JUMPI PUSH1 0x0 DUP1 REVERT JUMPDEST DUP2 ADD SWAP1 DUP1 DUP1 CALLDATALOAD PUSH20 0xFFFFFFFFFFFFFFFFFFFFFFFFFFFFFFFFFFFFFFFF AND SWAP1 PUSH1 0x20 ADD SWAP1 SWAP3 SWAP2 SWAP1 POP POP POP PUSH2 0x40B JUMP JUMPDEST STOP JUMPDEST CALLVALUE DUP1 ISZERO PUSH2 0xFA JUMPI PUSH1 0x0 DUP1 REVERT JUMPDEST POP PUSH2 0x103 PUSH2 0x44E JUMP JUMPDEST STOP JUMPDEST PUSH1 0x0 PUSH1 0x2 PUSH8 0xFFFFFFFFFFFFFFFF DUP2 GT DUP1 ISZERO PUSH2 0x11F JUMPI PUSH1 0x0 DUP1 REVERT JUMPDEST POP PUSH1 0x40 MLOAD SWAP1 DUP1 DUP3 MSTORE DUP1 PUSH1 0x20 MUL PUSH1 0x20 ADD DUP3 ADD PUSH1 0x40 MSTORE DUP1 ISZERO PUSH2 0x14E JUMPI DUP2 PUSH1 0x20 ADD PUSH1 0x20 DUP3 MUL DUP1 CALLDATASIZE DUP4 CALLDATACOPY DUP1 DUP3 ADD SWAP2 POP POP SWAP1 POP JUMPDEST POP SWAP1 POP PUSH31 0x11223344556677889900112233445566778899001122334455667788990011 PUSH1 0x0 SHL DUP2 PUSH1 0x0 DUP2 MLOAD DUP2 LT PUSH2 0x181 JUMPI INVALID JUMPDEST PUSH1 0x20 MUL PUSH1 0x20 ADD ADD DUP2 DUP2 MSTORE POP POP PUSH31 0x11223344556677889900112233445566778899001122334455667788990022 PUSH1 0x0 SHL DUP2 PUSH1 0x1 DUP2 MLOAD DUP2 LT PUSH2 0x1BD JUMPI INVALID JUMPDEST PUSH1 0x20 MUL PUSH1 0x20 ADD ADD DUP2 DUP2 MSTORE POP POP PUSH1 0x0 DUP1 SLOAD SWAP1 PUSH2 0x100 EXP SWAP1 DIV PUSH20 0xFFFFFFFFFFFFFFFFFFFFFFFFFFFFFFFFFFFFFFFF AND PUSH20 0xFFFFFFFFFFFFFFFFFFFFFFFFFFFFFFFFFFFFFFFF AND PUSH4 0x92F6C439 DUP4 PUSH1 0x40 MLOAD DUP3 PUSH4 0xFFFFFFFF AND PUSH1 0xE0 SHL DUP2 MSTORE PUSH1 0x4 ADD DUP1 DUP3 DUP2 MSTORE PUSH1 0x20 ADD SWAP2 POP POP PUSH1 0x0 PUSH1 0x40 MLOAD DUP1 DUP4 SUB DUP2 PUSH1 0x0 DUP8 DUP1 EXTCODESIZE ISZERO DUP1 ISZERO PUSH2 0x23C JUMPI PUSH1 0x0 DUP1 REVERT JUMPDEST POP GAS CALL ISZERO DUP1 ISZERO PUSH2 0x250 JUMPI RETURNDATASIZE PUSH1 0x0 DUP1 RETURNDATACOPY RETURNDATASIZE PUSH1 0x0 REVERT JUMPDEST POP POP POP POP POP POP JUMP JUMPDEST PUSH1 0x0 DUP1 PUSH1 0x2 PUSH8 0xFFFFFFFFFFFFFFFF DUP2 GT DUP1 ISZERO PUSH2 0x273 JUMPI PUSH1 0x0 DUP1 REVERT JUMPDEST POP PUSH1 0x40 MLOAD SWAP1 DUP1 DUP3 MSTORE DUP1 PUSH1 0x20 MUL PUSH1 0x20 ADD DUP3 ADD PUSH1 0x40 MSTORE DUP1 ISZERO PUSH2 0x2A2 JUMPI DUP2 PUSH1 0x20 ADD PUSH1 0x20 DUP3 MUL DUP1 CALLDATASIZE DUP4 CALLDATACOPY DUP1 DUP3 ADD SWAP2 POP POP SWAP1 POP JUMPDEST POP SWAP1 POP PUSH31 0x11223344556677889900112233445566778899001122334455667788990011 PUSH1 0x0 SHL DUP2 PUSH1 0x0 DUP2 MLOAD DUP2 LT PUSH2 0x2D5 JUMPI INVALID JUMPDEST PUSH1 0x20 MUL PUSH1 0x20 ADD ADD DUP2 DUP2 MSTORE POP POP PUSH31 0x11223344556677889900112233445566778899001122334455667788990022 PUSH1 0x0 SHL DUP2 PUSH1 0x1 DUP2 MLOAD DUP2 LT PUSH2 0x311 JUMPI INVALID JUMPDEST PUSH1 0x20 MUL PUSH1 0x20 ADD ADD DUP2 DUP2 MSTORE POP POP PUSH1 0x0 ADDRESS PUSH1 0x40 MLOAD PUSH1 0x20 ADD DUP1 DUP3 PUSH20 0xFFFFFFFFFFFFFFFFFFFFFFFFFFFFFFFFFFFFFFFF AND PUSH1 0x60 SHL DUP2 MSTORE PUSH1 0x14 ADD SWAP2 POP POP PUSH1 0x40 MLOAD PUSH1 0x20 DUP2 DUP4 SUB SUB DUP2 MSTORE SWAP1 PUSH1 0x40 MSTORE DUP1 MLOAD SWAP1 PUSH1 0x20 ADD KECCAK256 SWAP1 POP PUSH1 0x0 JUMPDEST DUP3 MLOAD DUP2 LT ISZERO PUSH2 0x402 JUMPI PUSH1 0x0 DUP4 DUP3 DUP2 MLOAD DUP2 LT PUSH2 0x37B JUMPI INVALID JUMPDEST PUSH1 0x20 MUL PUSH1 0x20 ADD ADD MLOAD SWAP1 POP DUP1 DUP4 GT PUSH2 0x3C2 JUMPI DUP3 DUP2 PUSH1 0x40 MLOAD PUSH1 0x20 ADD DUP1 DUP4 DUP2 MSTORE PUSH1 0x20 ADD DUP3 DUP2 MSTORE PUSH1 0x20 ADD SWAP3 POP POP POP PUSH1 0x40 MLOAD PUSH1 0x20 DUP2 DUP4 SUB SUB DUP2 MSTORE SWAP1 PUSH1 0x40 MSTORE DUP1 MLOAD SWAP1 PUSH1 0x20 ADD KECCAK256 SWAP3 POP PUSH2 0x3F4 JUMP JUMPDEST DUP1 DUP4 PUSH1 0x40 MLOAD PUSH1 0x20 ADD DUP1 DUP4 DUP2 MSTORE PUSH1 0x20 ADD DUP3 DUP2 MSTORE PUSH1 0x20 ADD SWAP3 POP POP POP PUSH1 0x40 MLOAD PUSH1 0x20 DUP2 DUP4 SUB SUB DUP2 MSTORE SWAP1 PUSH1 0x40 MSTORE DUP1 MLOAD SWAP1 PUSH1 0x20 ADD KECCAK256 SWAP3 POP JUMPDEST POP DUP1 DUP1 PUSH1 0x1 ADD SWAP2 POP POP PUSH2 0x364 JUMP JUMPDEST POP DUP1 SWAP3 POP POP POP SWAP1 JUMP JUMPDEST DUP1 PUSH1 0x0 DUP1 PUSH2 0x100 EXP DUP2 SLOAD DUP2 PUSH20 0xFFFFFFFFFFFFFFFFFFFFFFFFFFFFFFFFFFFFFFFF MUL NOT AND SWAP1 DUP4 PUSH20 0xFFFFFFFFFFFFFFFFFFFFFFFFFFFFFFFFFFFFFFFF AND MUL OR SWAP1 SSTORE POP POP JUMP JUMPDEST PUSH1 0x0 PUSH1 0x2 PUSH8 0xFFFFFFFFFFFFFFFF DUP2 GT DUP1 ISZERO PUSH2 0x468 JUMPI PUSH1 0x0 DUP1 REVERT JUMPDEST POP PUSH1 0x40 MLOAD SWAP1 DUP1 DUP3 MSTORE DUP1 PUSH1 0x20 MUL PUSH1 0x20 ADD DUP3 ADD PUSH1 0x40 MSTORE DUP1 ISZERO PUSH2 0x497 JUMPI DUP2 PUSH1 0x20 ADD PUSH1 0x20 DUP3 MUL DUP1 CALLDATASIZE DUP4 CALLDATACOPY DUP1 DUP3 ADD SWAP2 POP POP SWAP1 POP JUMPDEST POP SWAP1 POP PUSH31 0x11223344556677889900112233445566778899001122334455667788990011 PUSH1 0x0 SHL DUP2 PUSH1 0x0 DUP2 MLOAD DUP2 LT PUSH2 0x4CA JUMPI INVALID JUMPDEST PUSH1 0x20 MUL PUSH1 0x20 ADD ADD DUP2 DUP2 MSTORE POP POP PUSH31 0x11223344556677889900112233445566778899001122334455667788990022 PUSH1 0x0 SHL DUP2 PUSH1 0x1 DUP2 MLOAD DUP2 LT PUSH2 0x506 JUMPI INVALID JUMPDEST PUSH1 0x20 MUL PUSH1 0x20 ADD ADD DUP2 DUP2 MSTORE POP POP PUSH1 0x0 DUP1 SLOAD SWAP1 PUSH2 0x100 EXP SWAP1 DIV PUSH20 0xFFFFFFFFFFFFFFFFFFFFFFFFFFFFFFFFFFFFFFFF AND PUSH20 0xFFFFFFFFFFFFFFFFFFFFFFFFFFFFFFFFFFFFFFFF AND PUSH4 0x38BE5592 DUP3 ADDRESS PUSH1 0x40 MLOAD DUP4 PUSH4 0xFFFFFFFF AND PUSH1 0xE0 SHL DUP2 MSTORE PUSH1 0x4 ADD DUP1 DUP1 PUSH1 0x20 ADD DUP4 PUSH20 0xFFFFFFFFFFFFFFFFFFFFFFFFFFFFFFFFFFFFFFFF AND DUP2 MSTORE PUSH1 0x20 ADD DUP3 DUP2 SUB DUP3 MSTORE DUP5 DUP2 DUP2 MLOAD DUP2 MSTORE PUSH1 0x20 ADD SWAP2 POP DUP1 MLOAD SWAP1 PUSH1 0x20 ADD SWAP1 PUSH1 0x20 MUL DUP1 DUP4 DUP4 PUSH1 0x0 JUMPDEST DUP4 DUP2 LT ISZERO PUSH2 0x5BE JUMPI DUP1 DUP3 ADD MLOAD DUP2 DUP5 ADD MSTORE PUSH1 0x20 DUP2 ADD SWAP1 POP PUSH2 0x5A3 JUMP JUMPDEST POP POP POP POP SWAP1 POP ADD SWAP4 POP POP POP POP PUSH1 0x20 PUSH1 0x40 MLOAD DUP1 DUP4 SUB DUP2 PUSH1 0x0 DUP8 DUP1 EXTCODESIZE ISZERO DUP1 ISZERO PUSH2 0x5E4 JUMPI PUSH1 0x0 DUP1 REVERT JUMPDEST POP GAS CALL ISZERO DUP1 ISZERO PUSH2 0x5F8 JUMPI RETURNDATASIZE PUSH1 0x0 DUP1 RETURNDATACOPY RETURNDATASIZE PUSH1 0x0 REVERT JUMPDEST POP POP POP POP PUSH1 0x40 MLOAD RETURNDATASIZE PUSH1 0x20 DUP2 LT ISZERO PUSH2 0x60E JUMPI PUSH1 0x0 DUP1 REVERT JUMPDEST DUP2 ADD SWAP1 DUP1 DUP1 MLOAD SWAP1 PUSH1 0x20 ADD SWAP1 SWAP3 SWAP2 SWAP1 POP POP POP POP POP JUMP INVALID LOG2 PUSH5 0x6970667358 0x22 SLT KECCAK256 SWAP13 0xE2 LT SHR 0xE7 GT REVERT DUP1 0xD7 MSTORE8 EXTCODEHASH 0x23 0xF7 INVALID 0xF6 PUSH31 0x343DCB68694955D48F3C06554EA65D6564736F6C6343000706003300000000 "
				},
				"gasEstimates": {
					"creation": {
						"codeDepositCost": "105400",
						"executionCost": "infinite",
						"totalCost": "infinite"
					},
					"external": {
						"deploy(bytes32)": "infinite",
						"getHash()": "infinite"
					}
				},
				"methodIdentifiers": {
					"deploy(bytes32)": "2b85ba38",
					"getHash()": "d13319c4"
				}
			},
			"storageLayout": {
				"storage": [
					{
						"astId": 246,
						"contract": "赛题-预赛/第三题/Merkle.sol:deployed",
						"label": "contractBytecode",
						"offset": 0,
						"slot": "0",
						"type": "t_bytes_storage"
					}
				],
				"types": {
					"t_bytes_storage": {
						"encoding": "bytes",
						"label": "bytes",
						"numberOfBytes": "32"
					}
				}
			},
			"userdoc": {
				"kind": "user",
				"methods": {},
				"version": 1
			}
		}
	}
}