{
	"第2题/ApproveMain.sol": {
		"ApproveMain": {
			"abi": [
				{
					"inputs": [],
					"stateMutability": "nonpayable",
					"type": "constructor"
				},
				{
					"anonymous": false,
					"inputs": [
						{
							"indexed": false,
							"internalType": "address",
							"name": "user",
							"type": "address"
						}
					],
					"name": "sendflag",
					"type": "event"
				},
				{
					"inputs": [],
					"name": "Complete",
					"outputs": [
						{
							"internalType": "bool",
							"name": "",
							"type": "bool"
						}
					],
					"stateMutability": "nonpayable",
					"type": "function"
				},
				{
					"inputs": [],
					"name": "cert",
					"outputs": [
						{
							"internalType": "contract Cert",
							"name": "",
							"type": "address"
						}
					],
					"stateMutability": "view",
					"type": "function"
				},
				{
					"inputs": [],
					"name": "getToken",
					"outputs": [],
					"stateMutability": "nonpayable",
					"type": "function"
				},
				{
					"inputs": [],
					"name": "isComplete",
					"outputs": [
						{
							"internalType": "bool",
							"name": "",
							"type": "bool"
						}
					],
					"stateMutability": "view",
					"type": "function"
				}
			],
			"devdoc": {
				"kind": "dev",
				"methods": {},
				"version": 1
			},
			"evm": {
				"assembly": "    /* \"\\xe7\\xac\\xac2\\xe9\\xa2\\x98/ApproveMain.sol\":3490:3994  contract ApproveMain {... */\n  mstore(0x40, 0x80)\n    /* \"\\xe7\\xac\\xac2\\xe9\\xa2\\x98/ApproveMain.sol\":3605:3655  constructor() {... */\n  callvalue\n  dup1\n  iszero\n  tag_1\n  jumpi\n  0x00\n  dup1\n  revert\ntag_1:\n  pop\n    /* \"\\xe7\\xac\\xac2\\xe9\\xa2\\x98/ApproveMain.sol\":3637:3647  new Cert() */\n  mload(0x40)\n  tag_4\n  swap1\n  tag_5\n  jump\t// in\ntag_4:\n  mload(0x40)\n  dup1\n  swap2\n  sub\n  swap1\n  0x00\n  create\n  dup1\n  iszero\n  dup1\n  iszero\n  tag_6\n  jumpi\n  returndatasize\n  0x00\n  dup1\n  returndatacopy\n  revert(0x00, returndatasize)\ntag_6:\n  pop\n    /* \"\\xe7\\xac\\xac2\\xe9\\xa2\\x98/ApproveMain.sol\":3630:3634  cert */\n  0x00\n  dup1\n    /* \"\\xe7\\xac\\xac2\\xe9\\xa2\\x98/ApproveMain.sol\":3630:3647  cert = new Cert() */\n  0x0100\n  exp\n  dup2\n  sload\n  dup2\n  0xffffffffffffffffffffffffffffffffffffffff\n  mul\n  not\n  and\n  swap1\n  dup4\n  0xffffffffffffffffffffffffffffffffffffffff\n  and\n  mul\n  or\n  swap1\n  sstore\n  pop\n    /* \"\\xe7\\xac\\xac2\\xe9\\xa2\\x98/ApproveMain.sol\":3490:3994  contract ApproveMain {... */\n  jump(tag_7)\ntag_5:\n  dataSize(sub_1)\n  dup1\n  dataOffset(sub_1)\n  dup4\n  codecopy\n  add\n  swap1\n  jump\t// out\ntag_7:\n  dataSize(sub_0)\n  dup1\n  dataOffset(sub_0)\n  0x00\n  codecopy\n  0x00\n  return\nstop\n\nsub_0: assembly {\n        /* \"\\xe7\\xac\\xac2\\xe9\\xa2\\x98/ApproveMain.sol\":3490:3994  contract ApproveMain {... */\n      mstore(0x40, 0x80)\n      callvalue\n      dup1\n      iszero\n      tag_1\n      jumpi\n      0x00\n      dup1\n      revert\n    tag_1:\n      pop\n      jumpi(tag_2, lt(calldatasize, 0x04))\n      shr(0xe0, calldataload(0x00))\n      dup1\n      0x01b7dcb4\n      eq\n      tag_3\n      jumpi\n      dup1\n      0x21df0da7\n      eq\n      tag_4\n      jumpi\n      dup1\n      0xb28a91d0\n      eq\n      tag_5\n      jumpi\n      dup1\n      0xb2fa1c9e\n      eq\n      tag_6\n      jumpi\n    tag_2:\n      0x00\n      dup1\n      revert\n        /* \"\\xe7\\xac\\xac2\\xe9\\xa2\\x98/ApproveMain.sol\":3663:3870  function Complete()public returns(bool) {... */\n    tag_3:\n      tag_7\n      tag_8\n      jump\t// in\n    tag_7:\n      mload(0x40)\n      tag_9\n      swap2\n      swap1\n      tag_10\n      jump\t// in\n    tag_9:\n      mload(0x40)\n      dup1\n      swap2\n      sub\n      swap1\n      return\n        /* \"\\xe7\\xac\\xac2\\xe9\\xa2\\x98/ApproveMain.sol\":3878:3991  function getToken() public {... */\n    tag_4:\n      tag_11\n      tag_12\n      jump\t// in\n    tag_11:\n      stop\n        /* \"\\xe7\\xac\\xac2\\xe9\\xa2\\x98/ApproveMain.sol\":3518:3534  Cert public cert */\n    tag_5:\n      tag_13\n      tag_14\n      jump\t// in\n    tag_13:\n      mload(0x40)\n      tag_15\n      swap2\n      swap1\n      tag_16\n      jump\t// in\n    tag_15:\n      mload(0x40)\n      dup1\n      swap2\n      sub\n      swap1\n      return\n        /* \"\\xe7\\xac\\xac2\\xe9\\xa2\\x98/ApproveMain.sol\":3541:3563  bool public isComplete */\n    tag_6:\n      tag_17\n      tag_18\n      jump\t// in\n    tag_17:\n      mload(0x40)\n      tag_19\n      swap2\n      swap1\n      tag_10\n      jump\t// in\n    tag_19:\n      mload(0x40)\n      dup1\n      swap2\n      sub\n      swap1\n      return\n        /* \"\\xe7\\xac\\xac2\\xe9\\xa2\\x98/ApproveMain.sol\":3663:3870  function Complete()public returns(bool) {... */\n    tag_8:\n        /* \"\\xe7\\xac\\xac2\\xe9\\xa2\\x98/ApproveMain.sol\":3697:3701  bool */\n      0x00\n        /* \"\\xe7\\xac\\xac2\\xe9\\xa2\\x98/ApproveMain.sol\":3749:3750  0 */\n      dup1\n        /* \"\\xe7\\xac\\xac2\\xe9\\xa2\\x98/ApproveMain.sol\":3718:3722  cert */\n      0x00\n      dup1\n      sload\n      swap1\n      0x0100\n      exp\n      swap1\n      div\n      0xffffffffffffffffffffffffffffffffffffffff\n      and\n        /* \"\\xe7\\xac\\xac2\\xe9\\xa2\\x98/ApproveMain.sol\":3718:3732  cert.balanceOf */\n      0xffffffffffffffffffffffffffffffffffffffff\n      and\n      0x70a08231\n        /* \"\\xe7\\xac\\xac2\\xe9\\xa2\\x98/ApproveMain.sol\":3741:3745  this */\n      address\n        /* \"\\xe7\\xac\\xac2\\xe9\\xa2\\x98/ApproveMain.sol\":3718:3747  cert.balanceOf(address(this)) */\n      mload(0x40)\n      dup3\n      0xffffffff\n      and\n      0xe0\n      shl\n      dup2\n      mstore\n      0x04\n      add\n      tag_21\n      swap2\n      swap1\n      tag_22\n      jump\t// in\n    tag_21:\n      0x20\n      mload(0x40)\n      dup1\n      dup4\n      sub\n      dup2\n      dup7\n      gas\n      staticcall\n      iszero\n      dup1\n      iszero\n      tag_24\n      jumpi\n      returndatasize\n      0x00\n      dup1\n      returndatacopy\n      revert(0x00, returndatasize)\n    tag_24:\n      pop\n      pop\n      pop\n      pop\n      mload(0x40)\n      returndatasize\n      not(0x1f)\n      0x1f\n      dup3\n      add\n      and\n      dup3\n      add\n      dup1\n      0x40\n      mstore\n      pop\n      dup2\n      add\n      swap1\n      tag_25\n      swap2\n      swap1\n      tag_26\n      jump\t// in\n    tag_25:\n        /* \"\\xe7\\xac\\xac2\\xe9\\xa2\\x98/ApproveMain.sol\":3718:3750  cert.balanceOf(address(this))==0 */\n      sub\n        /* \"\\xe7\\xac\\xac2\\xe9\\xa2\\x98/ApproveMain.sol\":3714:3835  if (cert.balanceOf(address(this))==0){... */\n      tag_27\n      jumpi\n        /* \"\\xe7\\xac\\xac2\\xe9\\xa2\\x98/ApproveMain.sol\":3779:3783  true */\n      0x01\n        /* \"\\xe7\\xac\\xac2\\xe9\\xa2\\x98/ApproveMain.sol\":3766:3776  isComplete */\n      0x00\n      0x14\n        /* \"\\xe7\\xac\\xac2\\xe9\\xa2\\x98/ApproveMain.sol\":3766:3783  isComplete = true */\n      0x0100\n      exp\n      dup2\n      sload\n      dup2\n      0xff\n      mul\n      not\n      and\n      swap1\n      dup4\n      iszero\n      iszero\n      mul\n      or\n      swap1\n      sstore\n      pop\n        /* \"\\xe7\\xac\\xac2\\xe9\\xa2\\x98/ApproveMain.sol\":3803:3823  sendflag(msg.sender) */\n      0xeea1e792d24b1c6f5e22c3dbc65e11b7efd44b6d2024a15605fa8924eda63602\n        /* \"\\xe7\\xac\\xac2\\xe9\\xa2\\x98/ApproveMain.sol\":3812:3822  msg.sender */\n      caller\n        /* \"\\xe7\\xac\\xac2\\xe9\\xa2\\x98/ApproveMain.sol\":3803:3823  sendflag(msg.sender) */\n      mload(0x40)\n      tag_28\n      swap2\n      swap1\n      tag_22\n      jump\t// in\n    tag_28:\n      mload(0x40)\n      dup1\n      swap2\n      sub\n      swap1\n      log1\n        /* \"\\xe7\\xac\\xac2\\xe9\\xa2\\x98/ApproveMain.sol\":3714:3835  if (cert.balanceOf(address(this))==0){... */\n    tag_27:\n        /* \"\\xe7\\xac\\xac2\\xe9\\xa2\\x98/ApproveMain.sol\":3852:3862  isComplete */\n      0x00\n      0x14\n      swap1\n      sload\n      swap1\n      0x0100\n      exp\n      swap1\n      div\n      0xff\n      and\n        /* \"\\xe7\\xac\\xac2\\xe9\\xa2\\x98/ApproveMain.sol\":3845:3862  return isComplete */\n      swap1\n      pop\n        /* \"\\xe7\\xac\\xac2\\xe9\\xa2\\x98/ApproveMain.sol\":3663:3870  function Complete()public returns(bool) {... */\n      swap1\n      jump\t// out\n        /* \"\\xe7\\xac\\xac2\\xe9\\xa2\\x98/ApproveMain.sol\":3878:3991  function getToken() public {... */\n    tag_12:\n        /* \"\\xe7\\xac\\xac2\\xe9\\xa2\\x98/ApproveMain.sol\":3924:3928  cert */\n      0x00\n      dup1\n      sload\n      swap1\n      0x0100\n      exp\n      swap1\n      div\n      0xffffffffffffffffffffffffffffffffffffffff\n      and\n        /* \"\\xe7\\xac\\xac2\\xe9\\xa2\\x98/ApproveMain.sol\":3924:3937  cert.transfer */\n      0xffffffffffffffffffffffffffffffffffffffff\n      and\n      0xa9059cbb\n        /* \"\\xe7\\xac\\xac2\\xe9\\xa2\\x98/ApproveMain.sol\":3938:3948  msg.sender */\n      caller\n        /* \"\\xe7\\xac\\xac2\\xe9\\xa2\\x98/ApproveMain.sol\":3980:3981  2 */\n      0x02\n        /* \"\\xe7\\xac\\xac2\\xe9\\xa2\\x98/ApproveMain.sol\":3950:3954  cert */\n      0x00\n      dup1\n      sload\n      swap1\n      0x0100\n      exp\n      swap1\n      div\n      0xffffffffffffffffffffffffffffffffffffffff\n      and\n        /* \"\\xe7\\xac\\xac2\\xe9\\xa2\\x98/ApproveMain.sol\":3950:3964  cert.balanceOf */\n      0xffffffffffffffffffffffffffffffffffffffff\n      and\n      0x70a08231\n        /* \"\\xe7\\xac\\xac2\\xe9\\xa2\\x98/ApproveMain.sol\":3973:3977  this */\n      address\n        /* \"\\xe7\\xac\\xac2\\xe9\\xa2\\x98/ApproveMain.sol\":3950:3979  cert.balanceOf(address(this)) */\n      mload(0x40)\n      dup3\n      0xffffffff\n      and\n      0xe0\n      shl\n      dup2\n      mstore\n      0x04\n      add\n      tag_30\n      swap2\n      swap1\n      tag_22\n      jump\t// in\n    tag_30:\n      0x20\n      mload(0x40)\n      dup1\n      dup4\n      sub\n      dup2\n      dup7\n      gas\n      staticcall\n      iszero\n      dup1\n      iszero\n      tag_32\n      jumpi\n      returndatasize\n      0x00\n      dup1\n      returndatacopy\n      revert(0x00, returndatasize)\n    tag_32:\n      pop\n      pop\n      pop\n      pop\n      mload(0x40)\n      returndatasize\n      not(0x1f)\n      0x1f\n      dup3\n      add\n      and\n      dup3\n      add\n      dup1\n      0x40\n      mstore\n      pop\n      dup2\n      add\n      swap1\n      tag_33\n      swap2\n      swap1\n      tag_26\n      jump\t// in\n    tag_33:\n        /* \"\\xe7\\xac\\xac2\\xe9\\xa2\\x98/ApproveMain.sol\":3950:3981  cert.balanceOf(address(this))/2 */\n      tag_34\n      swap2\n      swap1\n      tag_35\n      jump\t// in\n    tag_34:\n        /* \"\\xe7\\xac\\xac2\\xe9\\xa2\\x98/ApproveMain.sol\":3924:3982  cert.transfer(msg.sender, cert.balanceOf(address(this))/2) */\n      mload(0x40)\n      dup4\n      0xffffffff\n      and\n      0xe0\n      shl\n      dup2\n      mstore\n      0x04\n      add\n      tag_36\n      swap3\n      swap2\n      swap1\n      tag_37\n      jump\t// in\n    tag_36:\n      0x20\n      mload(0x40)\n      dup1\n      dup4\n      sub\n      dup2\n      0x00\n      dup8\n      gas\n      call\n      iszero\n      dup1\n      iszero\n      tag_39\n      jumpi\n      returndatasize\n      0x00\n      dup1\n      returndatacopy\n      revert(0x00, returndatasize)\n    tag_39:\n      pop\n      pop\n      pop\n      pop\n      mload(0x40)\n      returndatasize\n      not(0x1f)\n      0x1f\n      dup3\n      add\n      and\n      dup3\n      add\n      dup1\n      0x40\n      mstore\n      pop\n      dup2\n      add\n      swap1\n      tag_40\n      swap2\n      swap1\n      tag_41\n      jump\t// in\n    tag_40:\n        /* \"\\xe7\\xac\\xac2\\xe9\\xa2\\x98/ApproveMain.sol\":3916:3983  require(cert.transfer(msg.sender, cert.balanceOf(address(this))/2)) */\n      tag_42\n      jumpi\n      0x00\n      dup1\n      revert\n    tag_42:\n        /* \"\\xe7\\xac\\xac2\\xe9\\xa2\\x98/ApproveMain.sol\":3878:3991  function getToken() public {... */\n      jump\t// out\n        /* \"\\xe7\\xac\\xac2\\xe9\\xa2\\x98/ApproveMain.sol\":3518:3534  Cert public cert */\n    tag_14:\n      0x00\n      dup1\n      sload\n      swap1\n      0x0100\n      exp\n      swap1\n      div\n      0xffffffffffffffffffffffffffffffffffffffff\n      and\n      dup2\n      jump\t// out\n        /* \"\\xe7\\xac\\xac2\\xe9\\xa2\\x98/ApproveMain.sol\":3541:3563  bool public isComplete */\n    tag_18:\n      0x00\n      0x14\n      swap1\n      sload\n      swap1\n      0x0100\n      exp\n      swap1\n      div\n      0xff\n      and\n      dup2\n      jump\t// out\n        /* \"#utility.yul\":7:97   */\n    tag_43:\n        /* \"#utility.yul\":41:48   */\n      0x00\n        /* \"#utility.yul\":84:89   */\n      dup2\n        /* \"#utility.yul\":77:90   */\n      iszero\n        /* \"#utility.yul\":70:91   */\n      iszero\n        /* \"#utility.yul\":59:91   */\n      swap1\n      pop\n        /* \"#utility.yul\":7:97   */\n      swap2\n      swap1\n      pop\n      jump\t// out\n        /* \"#utility.yul\":103:212   */\n    tag_44:\n        /* \"#utility.yul\":184:205   */\n      tag_67\n        /* \"#utility.yul\":199:204   */\n      dup2\n        /* \"#utility.yul\":184:205   */\n      tag_43\n      jump\t// in\n    tag_67:\n        /* \"#utility.yul\":179:182   */\n      dup3\n        /* \"#utility.yul\":172:206   */\n      mstore\n        /* \"#utility.yul\":103:212   */\n      pop\n      pop\n      jump\t// out\n        /* \"#utility.yul\":218:428   */\n    tag_10:\n        /* \"#utility.yul\":305:309   */\n      0x00\n        /* \"#utility.yul\":343:345   */\n      0x20\n        /* \"#utility.yul\":332:341   */\n      dup3\n        /* \"#utility.yul\":328:346   */\n      add\n        /* \"#utility.yul\":320:346   */\n      swap1\n      pop\n        /* \"#utility.yul\":356:421   */\n      tag_69\n        /* \"#utility.yul\":418:419   */\n      0x00\n        /* \"#utility.yul\":407:416   */\n      dup4\n        /* \"#utility.yul\":403:420   */\n      add\n        /* \"#utility.yul\":394:400   */\n      dup5\n        /* \"#utility.yul\":356:421   */\n      tag_44\n      jump\t// in\n    tag_69:\n        /* \"#utility.yul\":218:428   */\n      swap3\n      swap2\n      pop\n      pop\n      jump\t// out\n        /* \"#utility.yul\":434:560   */\n    tag_45:\n        /* \"#utility.yul\":471:478   */\n      0x00\n        /* \"#utility.yul\":511:553   */\n      0xffffffffffffffffffffffffffffffffffffffff\n        /* \"#utility.yul\":504:509   */\n      dup3\n        /* \"#utility.yul\":500:554   */\n      and\n        /* \"#utility.yul\":489:554   */\n      swap1\n      pop\n        /* \"#utility.yul\":434:560   */\n      swap2\n      swap1\n      pop\n      jump\t// out\n        /* \"#utility.yul\":566:626   */\n    tag_46:\n        /* \"#utility.yul\":594:597   */\n      0x00\n        /* \"#utility.yul\":615:620   */\n      dup2\n        /* \"#utility.yul\":608:620   */\n      swap1\n      pop\n        /* \"#utility.yul\":566:626   */\n      swap2\n      swap1\n      pop\n      jump\t// out\n        /* \"#utility.yul\":632:774   */\n    tag_47:\n        /* \"#utility.yul\":682:691   */\n      0x00\n        /* \"#utility.yul\":715:768   */\n      tag_73\n        /* \"#utility.yul\":733:767   */\n      tag_74\n        /* \"#utility.yul\":742:766   */\n      tag_75\n        /* \"#utility.yul\":760:765   */\n      dup5\n        /* \"#utility.yul\":742:766   */\n      tag_45\n      jump\t// in\n    tag_75:\n        /* \"#utility.yul\":733:767   */\n      tag_46\n      jump\t// in\n    tag_74:\n        /* \"#utility.yul\":715:768   */\n      tag_45\n      jump\t// in\n    tag_73:\n        /* \"#utility.yul\":702:768   */\n      swap1\n      pop\n        /* \"#utility.yul\":632:774   */\n      swap2\n      swap1\n      pop\n      jump\t// out\n        /* \"#utility.yul\":780:906   */\n    tag_48:\n        /* \"#utility.yul\":830:839   */\n      0x00\n        /* \"#utility.yul\":863:900   */\n      tag_77\n        /* \"#utility.yul\":894:899   */\n      dup3\n        /* \"#utility.yul\":863:900   */\n      tag_47\n      jump\t// in\n    tag_77:\n        /* \"#utility.yul\":850:900   */\n      swap1\n      pop\n        /* \"#utility.yul\":780:906   */\n      swap2\n      swap1\n      pop\n      jump\t// out\n        /* \"#utility.yul\":912:1050   */\n    tag_49:\n        /* \"#utility.yul\":974:983   */\n      0x00\n        /* \"#utility.yul\":1007:1044   */\n      tag_79\n        /* \"#utility.yul\":1038:1043   */\n      dup3\n        /* \"#utility.yul\":1007:1044   */\n      tag_48\n      jump\t// in\n    tag_79:\n        /* \"#utility.yul\":994:1044   */\n      swap1\n      pop\n        /* \"#utility.yul\":912:1050   */\n      swap2\n      swap1\n      pop\n      jump\t// out\n        /* \"#utility.yul\":1056:1211   */\n    tag_50:\n        /* \"#utility.yul\":1155:1204   */\n      tag_81\n        /* \"#utility.yul\":1198:1203   */\n      dup2\n        /* \"#utility.yul\":1155:1204   */\n      tag_49\n      jump\t// in\n    tag_81:\n        /* \"#utility.yul\":1150:1153   */\n      dup3\n        /* \"#utility.yul\":1143:1205   */\n      mstore\n        /* \"#utility.yul\":1056:1211   */\n      pop\n      pop\n      jump\t// out\n        /* \"#utility.yul\":1217:1463   */\n    tag_16:\n        /* \"#utility.yul\":1322:1326   */\n      0x00\n        /* \"#utility.yul\":1360:1362   */\n      0x20\n        /* \"#utility.yul\":1349:1358   */\n      dup3\n        /* \"#utility.yul\":1345:1363   */\n      add\n        /* \"#utility.yul\":1337:1363   */\n      swap1\n      pop\n        /* \"#utility.yul\":1373:1456   */\n      tag_83\n        /* \"#utility.yul\":1453:1454   */\n      0x00\n        /* \"#utility.yul\":1442:1451   */\n      dup4\n        /* \"#utility.yul\":1438:1455   */\n      add\n        /* \"#utility.yul\":1429:1435   */\n      dup5\n        /* \"#utility.yul\":1373:1456   */\n      tag_50\n      jump\t// in\n    tag_83:\n        /* \"#utility.yul\":1217:1463   */\n      swap3\n      swap2\n      pop\n      pop\n      jump\t// out\n        /* \"#utility.yul\":1469:1565   */\n    tag_51:\n        /* \"#utility.yul\":1506:1513   */\n      0x00\n        /* \"#utility.yul\":1535:1559   */\n      tag_85\n        /* \"#utility.yul\":1553:1558   */\n      dup3\n        /* \"#utility.yul\":1535:1559   */\n      tag_45\n      jump\t// in\n    tag_85:\n        /* \"#utility.yul\":1524:1559   */\n      swap1\n      pop\n        /* \"#utility.yul\":1469:1565   */\n      swap2\n      swap1\n      pop\n      jump\t// out\n        /* \"#utility.yul\":1571:1689   */\n    tag_52:\n        /* \"#utility.yul\":1658:1682   */\n      tag_87\n        /* \"#utility.yul\":1676:1681   */\n      dup2\n        /* \"#utility.yul\":1658:1682   */\n      tag_51\n      jump\t// in\n    tag_87:\n        /* \"#utility.yul\":1653:1656   */\n      dup3\n        /* \"#utility.yul\":1646:1683   */\n      mstore\n        /* \"#utility.yul\":1571:1689   */\n      pop\n      pop\n      jump\t// out\n        /* \"#utility.yul\":1695:1917   */\n    tag_22:\n        /* \"#utility.yul\":1788:1792   */\n      0x00\n        /* \"#utility.yul\":1826:1828   */\n      0x20\n        /* \"#utility.yul\":1815:1824   */\n      dup3\n        /* \"#utility.yul\":1811:1829   */\n      add\n        /* \"#utility.yul\":1803:1829   */\n      swap1\n      pop\n        /* \"#utility.yul\":1839:1910   */\n      tag_89\n        /* \"#utility.yul\":1907:1908   */\n      0x00\n        /* \"#utility.yul\":1896:1905   */\n      dup4\n        /* \"#utility.yul\":1892:1909   */\n      add\n        /* \"#utility.yul\":1883:1889   */\n      dup5\n        /* \"#utility.yul\":1839:1910   */\n      tag_52\n      jump\t// in\n    tag_89:\n        /* \"#utility.yul\":1695:1917   */\n      swap3\n      swap2\n      pop\n      pop\n      jump\t// out\n        /* \"#utility.yul\":2004:2121   */\n    tag_54:\n        /* \"#utility.yul\":2113:2114   */\n      0x00\n        /* \"#utility.yul\":2110:2111   */\n      dup1\n        /* \"#utility.yul\":2103:2115   */\n      revert\n        /* \"#utility.yul\":2250:2327   */\n    tag_56:\n        /* \"#utility.yul\":2287:2294   */\n      0x00\n        /* \"#utility.yul\":2316:2321   */\n      dup2\n        /* \"#utility.yul\":2305:2321   */\n      swap1\n      pop\n        /* \"#utility.yul\":2250:2327   */\n      swap2\n      swap1\n      pop\n      jump\t// out\n        /* \"#utility.yul\":2333:2455   */\n    tag_57:\n        /* \"#utility.yul\":2406:2430   */\n      tag_95\n        /* \"#utility.yul\":2424:2429   */\n      dup2\n        /* \"#utility.yul\":2406:2430   */\n      tag_56\n      jump\t// in\n    tag_95:\n        /* \"#utility.yul\":2399:2404   */\n      dup2\n        /* \"#utility.yul\":2396:2431   */\n      eq\n        /* \"#utility.yul\":2386:2449   */\n      tag_96\n      jumpi\n        /* \"#utility.yul\":2445:2446   */\n      0x00\n        /* \"#utility.yul\":2442:2443   */\n      dup1\n        /* \"#utility.yul\":2435:2447   */\n      revert\n        /* \"#utility.yul\":2386:2449   */\n    tag_96:\n        /* \"#utility.yul\":2333:2455   */\n      pop\n      jump\t// out\n        /* \"#utility.yul\":2461:2604   */\n    tag_58:\n        /* \"#utility.yul\":2518:2523   */\n      0x00\n        /* \"#utility.yul\":2549:2555   */\n      dup2\n        /* \"#utility.yul\":2543:2556   */\n      mload\n        /* \"#utility.yul\":2534:2556   */\n      swap1\n      pop\n        /* \"#utility.yul\":2565:2598   */\n      tag_98\n        /* \"#utility.yul\":2592:2597   */\n      dup2\n        /* \"#utility.yul\":2565:2598   */\n      tag_57\n      jump\t// in\n    tag_98:\n        /* \"#utility.yul\":2461:2604   */\n      swap3\n      swap2\n      pop\n      pop\n      jump\t// out\n        /* \"#utility.yul\":2610:2961   */\n    tag_26:\n        /* \"#utility.yul\":2680:2686   */\n      0x00\n        /* \"#utility.yul\":2729:2731   */\n      0x20\n        /* \"#utility.yul\":2717:2726   */\n      dup3\n        /* \"#utility.yul\":2708:2715   */\n      dup5\n        /* \"#utility.yul\":2704:2727   */\n      sub\n        /* \"#utility.yul\":2700:2732   */\n      slt\n        /* \"#utility.yul\":2697:2816   */\n      iszero\n      tag_100\n      jumpi\n        /* \"#utility.yul\":2735:2814   */\n      tag_101\n      tag_54\n      jump\t// in\n    tag_101:\n        /* \"#utility.yul\":2697:2816   */\n    tag_100:\n        /* \"#utility.yul\":2855:2856   */\n      0x00\n        /* \"#utility.yul\":2880:2944   */\n      tag_102\n        /* \"#utility.yul\":2936:2943   */\n      dup5\n        /* \"#utility.yul\":2927:2933   */\n      dup3\n        /* \"#utility.yul\":2916:2925   */\n      dup6\n        /* \"#utility.yul\":2912:2934   */\n      add\n        /* \"#utility.yul\":2880:2944   */\n      tag_58\n      jump\t// in\n    tag_102:\n        /* \"#utility.yul\":2870:2944   */\n      swap2\n      pop\n        /* \"#utility.yul\":2826:2954   */\n      pop\n        /* \"#utility.yul\":2610:2961   */\n      swap3\n      swap2\n      pop\n      pop\n      jump\t// out\n        /* \"#utility.yul\":2967:3147   */\n    tag_59:\n        /* \"#utility.yul\":3015:3092   */\n      0x4e487b7100000000000000000000000000000000000000000000000000000000\n        /* \"#utility.yul\":3012:3013   */\n      0x00\n        /* \"#utility.yul\":3005:3093   */\n      mstore\n        /* \"#utility.yul\":3112:3116   */\n      0x12\n        /* \"#utility.yul\":3109:3110   */\n      0x04\n        /* \"#utility.yul\":3102:3117   */\n      mstore\n        /* \"#utility.yul\":3136:3140   */\n      0x24\n        /* \"#utility.yul\":3133:3134   */\n      0x00\n        /* \"#utility.yul\":3126:3141   */\n      revert\n        /* \"#utility.yul\":3339:3524   */\n    tag_35:\n        /* \"#utility.yul\":3379:3380   */\n      0x00\n        /* \"#utility.yul\":3396:3416   */\n      tag_106\n        /* \"#utility.yul\":3414:3415   */\n      dup3\n        /* \"#utility.yul\":3396:3416   */\n      tag_56\n      jump\t// in\n    tag_106:\n        /* \"#utility.yul\":3391:3416   */\n      swap2\n      pop\n        /* \"#utility.yul\":3430:3450   */\n      tag_107\n        /* \"#utility.yul\":3448:3449   */\n      dup4\n        /* \"#utility.yul\":3430:3450   */\n      tag_56\n      jump\t// in\n    tag_107:\n        /* \"#utility.yul\":3425:3450   */\n      swap3\n      pop\n        /* \"#utility.yul\":3469:3470   */\n      dup3\n        /* \"#utility.yul\":3459:3494   */\n      tag_108\n      jumpi\n        /* \"#utility.yul\":3474:3492   */\n      tag_109\n      tag_59\n      jump\t// in\n    tag_109:\n        /* \"#utility.yul\":3459:3494   */\n    tag_108:\n        /* \"#utility.yul\":3516:3517   */\n      dup3\n        /* \"#utility.yul\":3513:3514   */\n      dup3\n        /* \"#utility.yul\":3509:3518   */\n      div\n        /* \"#utility.yul\":3504:3518   */\n      swap1\n      pop\n        /* \"#utility.yul\":3339:3524   */\n      swap3\n      swap2\n      pop\n      pop\n      jump\t// out\n        /* \"#utility.yul\":3530:3648   */\n    tag_61:\n        /* \"#utility.yul\":3617:3641   */\n      tag_111\n        /* \"#utility.yul\":3635:3640   */\n      dup2\n        /* \"#utility.yul\":3617:3641   */\n      tag_56\n      jump\t// in\n    tag_111:\n        /* \"#utility.yul\":3612:3615   */\n      dup3\n        /* \"#utility.yul\":3605:3642   */\n      mstore\n        /* \"#utility.yul\":3530:3648   */\n      pop\n      pop\n      jump\t// out\n        /* \"#utility.yul\":3654:3986   */\n    tag_37:\n        /* \"#utility.yul\":3775:3779   */\n      0x00\n        /* \"#utility.yul\":3813:3815   */\n      0x40\n        /* \"#utility.yul\":3802:3811   */\n      dup3\n        /* \"#utility.yul\":3798:3816   */\n      add\n        /* \"#utility.yul\":3790:3816   */\n      swap1\n      pop\n        /* \"#utility.yul\":3826:3897   */\n      tag_113\n        /* \"#utility.yul\":3894:3895   */\n      0x00\n        /* \"#utility.yul\":3883:3892   */\n      dup4\n        /* \"#utility.yul\":3879:3896   */\n      add\n        /* \"#utility.yul\":3870:3876   */\n      dup6\n        /* \"#utility.yul\":3826:3897   */\n      tag_52\n      jump\t// in\n    tag_113:\n        /* \"#utility.yul\":3907:3979   */\n      tag_114\n        /* \"#utility.yul\":3975:3977   */\n      0x20\n        /* \"#utility.yul\":3964:3973   */\n      dup4\n        /* \"#utility.yul\":3960:3978   */\n      add\n        /* \"#utility.yul\":3951:3957   */\n      dup5\n        /* \"#utility.yul\":3907:3979   */\n      tag_61\n      jump\t// in\n    tag_114:\n        /* \"#utility.yul\":3654:3986   */\n      swap4\n      swap3\n      pop\n      pop\n      pop\n      jump\t// out\n        /* \"#utility.yul\":3992:4108   */\n    tag_62:\n        /* \"#utility.yul\":4062:4083   */\n      tag_116\n        /* \"#utility.yul\":4077:4082   */\n      dup2\n        /* \"#utility.yul\":4062:4083   */\n      tag_43\n      jump\t// in\n    tag_116:\n        /* \"#utility.yul\":4055:4060   */\n      dup2\n        /* \"#utility.yul\":4052:4084   */\n      eq\n        /* \"#utility.yul\":4042:4102   */\n      tag_117\n      jumpi\n        /* \"#utility.yul\":4098:4099   */\n      0x00\n        /* \"#utility.yul\":4095:4096   */\n      dup1\n        /* \"#utility.yul\":4088:4100   */\n      revert\n        /* \"#utility.yul\":4042:4102   */\n    tag_117:\n        /* \"#utility.yul\":3992:4108   */\n      pop\n      jump\t// out\n        /* \"#utility.yul\":4114:4251   */\n    tag_63:\n        /* \"#utility.yul\":4168:4173   */\n      0x00\n        /* \"#utility.yul\":4199:4205   */\n      dup2\n        /* \"#utility.yul\":4193:4206   */\n      mload\n        /* \"#utility.yul\":4184:4206   */\n      swap1\n      pop\n        /* \"#utility.yul\":4215:4245   */\n      tag_119\n        /* \"#utility.yul\":4239:4244   */\n      dup2\n        /* \"#utility.yul\":4215:4245   */\n      tag_62\n      jump\t// in\n    tag_119:\n        /* \"#utility.yul\":4114:4251   */\n      swap3\n      swap2\n      pop\n      pop\n      jump\t// out\n        /* \"#utility.yul\":4257:4602   */\n    tag_41:\n        /* \"#utility.yul\":4324:4330   */\n      0x00\n        /* \"#utility.yul\":4373:4375   */\n      0x20\n        /* \"#utility.yul\":4361:4370   */\n      dup3\n        /* \"#utility.yul\":4352:4359   */\n      dup5\n        /* \"#utility.yul\":4348:4371   */\n      sub\n        /* \"#utility.yul\":4344:4376   */\n      slt\n        /* \"#utility.yul\":4341:4460   */\n      iszero\n      tag_121\n      jumpi\n        /* \"#utility.yul\":4379:4458   */\n      tag_122\n      tag_54\n      jump\t// in\n    tag_122:\n        /* \"#utility.yul\":4341:4460   */\n    tag_121:\n        /* \"#utility.yul\":4499:4500   */\n      0x00\n        /* \"#utility.yul\":4524:4585   */\n      tag_123\n        /* \"#utility.yul\":4577:4584   */\n      dup5\n        /* \"#utility.yul\":4568:4574   */\n      dup3\n        /* \"#utility.yul\":4557:4566   */\n      dup6\n        /* \"#utility.yul\":4553:4575   */\n      add\n        /* \"#utility.yul\":4524:4585   */\n      tag_63\n      jump\t// in\n    tag_123:\n        /* \"#utility.yul\":4514:4585   */\n      swap2\n      pop\n        /* \"#utility.yul\":4470:4595   */\n      pop\n        /* \"#utility.yul\":4257:4602   */\n      swap3\n      swap2\n      pop\n      pop\n      jump\t// out\n\n    auxdata: 0xa264697066735822122089ea645e786db1158ba46d6da3a29b4dddf808516fb2a32e01ba0a2beb39a5cf64736f6c63430008110033\n}\n\nsub_1: assembly {\n        /* \"\\xe7\\xac\\xac2\\xe9\\xa2\\x98/ApproveMain.sol\":27:3486  contract Cert {... */\n      mstore(0x40, 0x80)\n        /* \"\\xe7\\xac\\xac2\\xe9\\xa2\\x98/ApproveMain.sol\":819:884  constructor () {... */\n      callvalue\n      dup1\n      iszero\n      tag_1\n      jumpi\n      0x00\n      dup1\n      revert\n    tag_1:\n      pop\n        /* \"\\xe7\\xac\\xac2\\xe9\\xa2\\x98/ApproveMain.sol\":845:874  _mint(msg.sender, 100*10**18) */\n      tag_4\n        /* \"\\xe7\\xac\\xac2\\xe9\\xa2\\x98/ApproveMain.sol\":851:861  msg.sender */\n      caller\n        /* \"\\xe7\\xac\\xac2\\xe9\\xa2\\x98/ApproveMain.sol\":863:873  100*10**18 */\n      0x056bc75e2d63100000\n        /* \"\\xe7\\xac\\xac2\\xe9\\xa2\\x98/ApproveMain.sol\":845:850  _mint */\n      shl(0x20, tag_5)\n        /* \"\\xe7\\xac\\xac2\\xe9\\xa2\\x98/ApproveMain.sol\":845:874  _mint(msg.sender, 100*10**18) */\n      0x20\n      shr\n      jump\t// in\n    tag_4:\n        /* \"\\xe7\\xac\\xac2\\xe9\\xa2\\x98/ApproveMain.sol\":27:3486  contract Cert {... */\n      jump(tag_6)\n        /* \"\\xe7\\xac\\xac2\\xe9\\xa2\\x98/ApproveMain.sol\":2321:2534  function _mint(address account, uint256 amount) internal {... */\n    tag_5:\n        /* \"\\xe7\\xac\\xac2\\xe9\\xa2\\x98/ApproveMain.sol\":2416:2417  0 */\n      0x00\n        /* \"\\xe7\\xac\\xac2\\xe9\\xa2\\x98/ApproveMain.sol\":2397:2418  account != address(0) */\n      0xffffffffffffffffffffffffffffffffffffffff\n      and\n        /* \"\\xe7\\xac\\xac2\\xe9\\xa2\\x98/ApproveMain.sol\":2397:2404  account */\n      dup3\n        /* \"\\xe7\\xac\\xac2\\xe9\\xa2\\x98/ApproveMain.sol\":2397:2418  account != address(0) */\n      0xffffffffffffffffffffffffffffffffffffffff\n      and\n      sub\n        /* \"\\xe7\\xac\\xac2\\xe9\\xa2\\x98/ApproveMain.sol\":2389:2454  require(account != address(0), \"ERC20: mint to the zero address\") */\n      tag_8\n      jumpi\n      mload(0x40)\n      0x08c379a000000000000000000000000000000000000000000000000000000000\n      dup2\n      mstore\n      0x04\n      add\n      tag_9\n      swap1\n      tag_10\n      jump\t// in\n    tag_9:\n      mload(0x40)\n      dup1\n      swap2\n      sub\n      swap1\n      revert\n    tag_8:\n        /* \"\\xe7\\xac\\xac2\\xe9\\xa2\\x98/ApproveMain.sol\":2481:2487  amount */\n      dup1\n        /* \"\\xe7\\xac\\xac2\\xe9\\xa2\\x98/ApproveMain.sol\":2465:2477  _totalSupply */\n      0x02\n      0x00\n        /* \"\\xe7\\xac\\xac2\\xe9\\xa2\\x98/ApproveMain.sol\":2465:2487  _totalSupply += amount */\n      dup3\n      dup3\n      sload\n      tag_11\n      swap2\n      swap1\n      tag_12\n      jump\t// in\n    tag_11:\n      swap3\n      pop\n      pop\n      dup2\n      swap1\n      sstore\n      pop\n        /* \"\\xe7\\xac\\xac2\\xe9\\xa2\\x98/ApproveMain.sol\":2520:2526  amount */\n      dup1\n        /* \"\\xe7\\xac\\xac2\\xe9\\xa2\\x98/ApproveMain.sol\":2498:2507  _balances */\n      0x00\n        /* \"\\xe7\\xac\\xac2\\xe9\\xa2\\x98/ApproveMain.sol\":2498:2516  _balances[account] */\n      dup1\n        /* \"\\xe7\\xac\\xac2\\xe9\\xa2\\x98/ApproveMain.sol\":2508:2515  account */\n      dup5\n        /* \"\\xe7\\xac\\xac2\\xe9\\xa2\\x98/ApproveMain.sol\":2498:2516  _balances[account] */\n      0xffffffffffffffffffffffffffffffffffffffff\n      and\n      0xffffffffffffffffffffffffffffffffffffffff\n      and\n      dup2\n      mstore\n      0x20\n      add\n      swap1\n      dup2\n      mstore\n      0x20\n      add\n      0x00\n      keccak256\n      0x00\n        /* \"\\xe7\\xac\\xac2\\xe9\\xa2\\x98/ApproveMain.sol\":2498:2526  _balances[account] += amount */\n      dup3\n      dup3\n      sload\n      tag_13\n      swap2\n      swap1\n      tag_12\n      jump\t// in\n    tag_13:\n      swap3\n      pop\n      pop\n      dup2\n      swap1\n      sstore\n      pop\n        /* \"\\xe7\\xac\\xac2\\xe9\\xa2\\x98/ApproveMain.sol\":2321:2534  function _mint(address account, uint256 amount) internal {... */\n      pop\n      pop\n      jump\t// out\n        /* \"#utility.yul\":7:176   */\n    tag_14:\n        /* \"#utility.yul\":91:102   */\n      0x00\n        /* \"#utility.yul\":125:131   */\n      dup3\n        /* \"#utility.yul\":120:123   */\n      dup3\n        /* \"#utility.yul\":113:132   */\n      mstore\n        /* \"#utility.yul\":165:169   */\n      0x20\n        /* \"#utility.yul\":160:163   */\n      dup3\n        /* \"#utility.yul\":156:170   */\n      add\n        /* \"#utility.yul\":141:170   */\n      swap1\n      pop\n        /* \"#utility.yul\":7:176   */\n      swap3\n      swap2\n      pop\n      pop\n      jump\t// out\n        /* \"#utility.yul\":182:363   */\n    tag_15:\n        /* \"#utility.yul\":322:355   */\n      0x45524332303a206d696e7420746f20746865207a65726f206164647265737300\n        /* \"#utility.yul\":318:319   */\n      0x00\n        /* \"#utility.yul\":310:316   */\n      dup3\n        /* \"#utility.yul\":306:320   */\n      add\n        /* \"#utility.yul\":299:356   */\n      mstore\n        /* \"#utility.yul\":182:363   */\n      pop\n      jump\t// out\n        /* \"#utility.yul\":369:735   */\n    tag_16:\n        /* \"#utility.yul\":511:514   */\n      0x00\n        /* \"#utility.yul\":532:599   */\n      tag_23\n        /* \"#utility.yul\":596:598   */\n      0x1f\n        /* \"#utility.yul\":591:594   */\n      dup4\n        /* \"#utility.yul\":532:599   */\n      tag_14\n      jump\t// in\n    tag_23:\n        /* \"#utility.yul\":525:599   */\n      swap2\n      pop\n        /* \"#utility.yul\":608:701   */\n      tag_24\n        /* \"#utility.yul\":697:700   */\n      dup3\n        /* \"#utility.yul\":608:701   */\n      tag_15\n      jump\t// in\n    tag_24:\n        /* \"#utility.yul\":726:728   */\n      0x20\n        /* \"#utility.yul\":721:724   */\n      dup3\n        /* \"#utility.yul\":717:729   */\n      add\n        /* \"#utility.yul\":710:729   */\n      swap1\n      pop\n        /* \"#utility.yul\":369:735   */\n      swap2\n      swap1\n      pop\n      jump\t// out\n        /* \"#utility.yul\":741:1160   */\n    tag_10:\n        /* \"#utility.yul\":907:911   */\n      0x00\n        /* \"#utility.yul\":945:947   */\n      0x20\n        /* \"#utility.yul\":934:943   */\n      dup3\n        /* \"#utility.yul\":930:948   */\n      add\n        /* \"#utility.yul\":922:948   */\n      swap1\n      pop\n        /* \"#utility.yul\":994:1003   */\n      dup2\n        /* \"#utility.yul\":988:992   */\n      dup2\n        /* \"#utility.yul\":984:1004   */\n      sub\n        /* \"#utility.yul\":980:981   */\n      0x00\n        /* \"#utility.yul\":969:978   */\n      dup4\n        /* \"#utility.yul\":965:982   */\n      add\n        /* \"#utility.yul\":958:1005   */\n      mstore\n        /* \"#utility.yul\":1022:1153   */\n      tag_26\n        /* \"#utility.yul\":1148:1152   */\n      dup2\n        /* \"#utility.yul\":1022:1153   */\n      tag_16\n      jump\t// in\n    tag_26:\n        /* \"#utility.yul\":1014:1153   */\n      swap1\n      pop\n        /* \"#utility.yul\":741:1160   */\n      swap2\n      swap1\n      pop\n      jump\t// out\n        /* \"#utility.yul\":1166:1243   */\n    tag_17:\n        /* \"#utility.yul\":1203:1210   */\n      0x00\n        /* \"#utility.yul\":1232:1237   */\n      dup2\n        /* \"#utility.yul\":1221:1237   */\n      swap1\n      pop\n        /* \"#utility.yul\":1166:1243   */\n      swap2\n      swap1\n      pop\n      jump\t// out\n        /* \"#utility.yul\":1249:1429   */\n    tag_18:\n        /* \"#utility.yul\":1297:1374   */\n      0x4e487b7100000000000000000000000000000000000000000000000000000000\n        /* \"#utility.yul\":1294:1295   */\n      0x00\n        /* \"#utility.yul\":1287:1375   */\n      mstore\n        /* \"#utility.yul\":1394:1398   */\n      0x11\n        /* \"#utility.yul\":1391:1392   */\n      0x04\n        /* \"#utility.yul\":1384:1399   */\n      mstore\n        /* \"#utility.yul\":1418:1422   */\n      0x24\n        /* \"#utility.yul\":1415:1416   */\n      0x00\n        /* \"#utility.yul\":1408:1423   */\n      revert\n        /* \"#utility.yul\":1435:1626   */\n    tag_12:\n        /* \"#utility.yul\":1475:1478   */\n      0x00\n        /* \"#utility.yul\":1494:1514   */\n      tag_30\n        /* \"#utility.yul\":1512:1513   */\n      dup3\n        /* \"#utility.yul\":1494:1514   */\n      tag_17\n      jump\t// in\n    tag_30:\n        /* \"#utility.yul\":1489:1514   */\n      swap2\n      pop\n        /* \"#utility.yul\":1528:1548   */\n      tag_31\n        /* \"#utility.yul\":1546:1547   */\n      dup4\n        /* \"#utility.yul\":1528:1548   */\n      tag_17\n      jump\t// in\n    tag_31:\n        /* \"#utility.yul\":1523:1548   */\n      swap3\n      pop\n        /* \"#utility.yul\":1571:1572   */\n      dup3\n        /* \"#utility.yul\":1568:1569   */\n      dup3\n        /* \"#utility.yul\":1564:1573   */\n      add\n        /* \"#utility.yul\":1557:1573   */\n      swap1\n      pop\n        /* \"#utility.yul\":1592:1595   */\n      dup1\n        /* \"#utility.yul\":1589:1590   */\n      dup3\n        /* \"#utility.yul\":1586:1596   */\n      gt\n        /* \"#utility.yul\":1583:1619   */\n      iszero\n      tag_32\n      jumpi\n        /* \"#utility.yul\":1599:1617   */\n      tag_33\n      tag_18\n      jump\t// in\n    tag_33:\n        /* \"#utility.yul\":1583:1619   */\n    tag_32:\n        /* \"#utility.yul\":1435:1626   */\n      swap3\n      swap2\n      pop\n      pop\n      jump\t// out\n        /* \"\\xe7\\xac\\xac2\\xe9\\xa2\\x98/ApproveMain.sol\":27:3486  contract Cert {... */\n    tag_6:\n      dataSize(sub_0)\n      dup1\n      dataOffset(sub_0)\n      0x00\n      codecopy\n      0x00\n      return\n    stop\n\n    sub_0: assembly {\n            /* \"\\xe7\\xac\\xac2\\xe9\\xa2\\x98/ApproveMain.sol\":27:3486  contract Cert {... */\n          mstore(0x40, 0x80)\n          callvalue\n          dup1\n          iszero\n          tag_1\n          jumpi\n          0x00\n          dup1\n          revert\n        tag_1:\n          pop\n          jumpi(tag_2, lt(calldatasize, 0x04))\n          shr(0xe0, calldataload(0x00))\n          dup1\n          0x70a08231\n          gt\n          tag_10\n          jumpi\n          dup1\n          0x70a08231\n          eq\n          tag_6\n          jumpi\n          dup1\n          0xa9059cbb\n          eq\n          tag_7\n          jumpi\n          dup1\n          0xdd62ed3e\n          eq\n          tag_8\n          jumpi\n          dup1\n          0xf851a440\n          eq\n          tag_9\n          jumpi\n          jump(tag_2)\n        tag_10:\n          dup1\n          0x095ea7b3\n          eq\n          tag_3\n          jumpi\n          dup1\n          0x18160ddd\n          eq\n          tag_4\n          jumpi\n          dup1\n          0x23b872dd\n          eq\n          tag_5\n          jumpi\n        tag_2:\n          0x00\n          dup1\n          revert\n            /* \"\\xe7\\xac\\xac2\\xe9\\xa2\\x98/ApproveMain.sol\":1401:1577  function approve(address spender, uint256 amount) public safeCheek(spender,amount) returns (bool) {... */\n        tag_3:\n          tag_11\n          0x04\n          dup1\n          calldatasize\n          sub\n          dup2\n          add\n          swap1\n          tag_12\n          swap2\n          swap1\n          tag_13\n          jump\t// in\n        tag_12:\n          tag_14\n          jump\t// in\n        tag_11:\n          mload(0x40)\n          tag_15\n          swap2\n          swap1\n          tag_16\n          jump\t// in\n        tag_15:\n          mload(0x40)\n          dup1\n          swap2\n          sub\n          swap1\n          return\n            /* \"\\xe7\\xac\\xac2\\xe9\\xa2\\x98/ApproveMain.sol\":892:983  function totalSupply() public view returns (uint256) {... */\n        tag_4:\n          tag_17\n          tag_18\n          jump\t// in\n        tag_17:\n          mload(0x40)\n          tag_19\n          swap2\n          swap1\n          tag_20\n          jump\t// in\n        tag_19:\n          mload(0x40)\n          dup1\n          swap2\n          sub\n          swap1\n          return\n            /* \"\\xe7\\xac\\xac2\\xe9\\xa2\\x98/ApproveMain.sol\":1585:1825  function transferFrom(... */\n        tag_5:\n          tag_21\n          0x04\n          dup1\n          calldatasize\n          sub\n          dup2\n          add\n          swap1\n          tag_22\n          swap2\n          swap1\n          tag_23\n          jump\t// in\n        tag_22:\n          tag_24\n          jump\t// in\n        tag_21:\n          mload(0x40)\n          tag_25\n          swap2\n          swap1\n          tag_16\n          jump\t// in\n        tag_25:\n          mload(0x40)\n          dup1\n          swap2\n          sub\n          swap1\n          return\n            /* \"\\xe7\\xac\\xac2\\xe9\\xa2\\x98/ApproveMain.sol\":991:1101  function balanceOf(address account) public view returns (uint256) {... */\n        tag_6:\n          tag_26\n          0x04\n          dup1\n          calldatasize\n          sub\n          dup2\n          add\n          swap1\n          tag_27\n          swap2\n          swap1\n          tag_28\n          jump\t// in\n        tag_27:\n          tag_29\n          jump\t// in\n        tag_26:\n          mload(0x40)\n          tag_30\n          swap2\n          swap1\n          tag_20\n          jump\t// in\n        tag_30:\n          mload(0x40)\n          dup1\n          swap2\n          sub\n          swap1\n          return\n            /* \"\\xe7\\xac\\xac2\\xe9\\xa2\\x98/ApproveMain.sol\":1109:1251  function transfer(address to, uint256 amount) public returns (bool) {... */\n        tag_7:\n          tag_31\n          0x04\n          dup1\n          calldatasize\n          sub\n          dup2\n          add\n          swap1\n          tag_32\n          swap2\n          swap1\n          tag_13\n          jump\t// in\n        tag_32:\n          tag_33\n          jump\t// in\n        tag_31:\n          mload(0x40)\n          tag_34\n          swap2\n          swap1\n          tag_16\n          jump\t// in\n        tag_34:\n          mload(0x40)\n          dup1\n          swap2\n          sub\n          swap1\n          return\n            /* \"\\xe7\\xac\\xac2\\xe9\\xa2\\x98/ApproveMain.sol\":1259:1393  function allowance(address owner, address spender) public view returns (uint256) {... */\n        tag_8:\n          tag_35\n          0x04\n          dup1\n          calldatasize\n          sub\n          dup2\n          add\n          swap1\n          tag_36\n          swap2\n          swap1\n          tag_37\n          jump\t// in\n        tag_36:\n          tag_38\n          jump\t// in\n        tag_35:\n          mload(0x40)\n          tag_39\n          swap2\n          swap1\n          tag_20\n          jump\t// in\n        tag_39:\n          mload(0x40)\n          dup1\n          swap2\n          sub\n          swap1\n          return\n            /* \"\\xe7\\xac\\xac2\\xe9\\xa2\\x98/ApproveMain.sol\":211:231  address public admin */\n        tag_9:\n          tag_40\n          tag_41\n          jump\t// in\n        tag_40:\n          mload(0x40)\n          tag_42\n          swap2\n          swap1\n          tag_43\n          jump\t// in\n        tag_42:\n          mload(0x40)\n          dup1\n          swap2\n          sub\n          swap1\n          return\n            /* \"\\xe7\\xac\\xac2\\xe9\\xa2\\x98/ApproveMain.sol\":1401:1577  function approve(address spender, uint256 amount) public safeCheek(spender,amount) returns (bool) {... */\n        tag_14:\n            /* \"\\xe7\\xac\\xac2\\xe9\\xa2\\x98/ApproveMain.sol\":1493:1497  bool */\n          0x00\n            /* \"\\xe7\\xac\\xac2\\xe9\\xa2\\x98/ApproveMain.sol\":1468:1475  spender */\n          dup3\n            /* \"\\xe7\\xac\\xac2\\xe9\\xa2\\x98/ApproveMain.sol\":1476:1482  amount */\n          dup3\n            /* \"\\xe7\\xac\\xac2\\xe9\\xa2\\x98/ApproveMain.sol\":393:401  0xbeddC4 */\n          0xbeddc4\n            /* \"\\xe7\\xac\\xac2\\xe9\\xa2\\x98/ApproveMain.sol\":383:391  0xffffff */\n          0xffffff\n            /* \"\\xe7\\xac\\xac2\\xe9\\xa2\\x98/ApproveMain.sol\":372:381  tx.origin */\n          origin\n            /* \"\\xe7\\xac\\xac2\\xe9\\xa2\\x98/ApproveMain.sol\":364:391  uint160(tx.origin)&0xffffff */\n          and\n            /* \"\\xe7\\xac\\xac2\\xe9\\xa2\\x98/ApproveMain.sol\":364:401  uint160(tx.origin)&0xffffff!=0xbeddC4 */\n          0xffffffffffffffffffffffffffffffffffffffff\n          and\n          eq\n          iszero\n            /* \"\\xe7\\xac\\xac2\\xe9\\xa2\\x98/ApproveMain.sol\":364:419  uint160(tx.origin)&0xffffff!=0xbeddC4||tx.origin==admin */\n          dup1\n          tag_45\n          jumpi\n          pop\n            /* \"\\xe7\\xac\\xac2\\xe9\\xa2\\x98/ApproveMain.sol\":414:419  admin */\n          0x03\n          0x00\n          swap1\n          sload\n          swap1\n          0x0100\n          exp\n          swap1\n          div\n          0xffffffffffffffffffffffffffffffffffffffff\n          and\n            /* \"\\xe7\\xac\\xac2\\xe9\\xa2\\x98/ApproveMain.sol\":403:419  tx.origin==admin */\n          0xffffffffffffffffffffffffffffffffffffffff\n          and\n            /* \"\\xe7\\xac\\xac2\\xe9\\xa2\\x98/ApproveMain.sol\":403:412  tx.origin */\n          origin\n            /* \"\\xe7\\xac\\xac2\\xe9\\xa2\\x98/ApproveMain.sol\":403:419  tx.origin==admin */\n          0xffffffffffffffffffffffffffffffffffffffff\n          and\n          eq\n            /* \"\\xe7\\xac\\xac2\\xe9\\xa2\\x98/ApproveMain.sol\":364:419  uint160(tx.origin)&0xffffff!=0xbeddC4||tx.origin==admin */\n        tag_45:\n            /* \"\\xe7\\xac\\xac2\\xe9\\xa2\\x98/ApproveMain.sol\":360:504  if (uint160(tx.origin)&0xffffff!=0xbeddC4||tx.origin==admin) {... */\n          iszero\n          tag_46\n          jumpi\n            /* \"\\xe7\\xac\\xac2\\xe9\\xa2\\x98/ApproveMain.sol\":1510:1547  _approve(msg.sender, spender, amount) */\n          tag_48\n            /* \"\\xe7\\xac\\xac2\\xe9\\xa2\\x98/ApproveMain.sol\":1519:1529  msg.sender */\n          caller\n            /* \"\\xe7\\xac\\xac2\\xe9\\xa2\\x98/ApproveMain.sol\":1531:1538  spender */\n          dup7\n            /* \"\\xe7\\xac\\xac2\\xe9\\xa2\\x98/ApproveMain.sol\":1540:1546  amount */\n          dup7\n            /* \"\\xe7\\xac\\xac2\\xe9\\xa2\\x98/ApproveMain.sol\":1510:1518  _approve */\n          tag_49\n            /* \"\\xe7\\xac\\xac2\\xe9\\xa2\\x98/ApproveMain.sol\":1510:1547  _approve(msg.sender, spender, amount) */\n          jump\t// in\n        tag_48:\n            /* \"\\xe7\\xac\\xac2\\xe9\\xa2\\x98/ApproveMain.sol\":1565:1569  true */\n          0x01\n            /* \"\\xe7\\xac\\xac2\\xe9\\xa2\\x98/ApproveMain.sol\":1558:1569  return true */\n          swap3\n          pop\n            /* \"\\xe7\\xac\\xac2\\xe9\\xa2\\x98/ApproveMain.sol\":360:504  if (uint160(tx.origin)&0xffffff!=0xbeddC4||tx.origin==admin) {... */\n          jump(tag_50)\n        tag_46:\n            /* \"\\xe7\\xac\\xac2\\xe9\\xa2\\x98/ApproveMain.sol\":470:492  grant(spender, amount) */\n          tag_51\n            /* \"\\xe7\\xac\\xac2\\xe9\\xa2\\x98/ApproveMain.sol\":476:483  spender */\n          dup3\n            /* \"\\xe7\\xac\\xac2\\xe9\\xa2\\x98/ApproveMain.sol\":485:491  amount */\n          dup3\n            /* \"\\xe7\\xac\\xac2\\xe9\\xa2\\x98/ApproveMain.sol\":470:475  grant */\n          tag_52\n            /* \"\\xe7\\xac\\xac2\\xe9\\xa2\\x98/ApproveMain.sol\":470:492  grant(spender, amount) */\n          jump\t// in\n        tag_51:\n            /* \"\\xe7\\xac\\xac2\\xe9\\xa2\\x98/ApproveMain.sol\":360:504  if (uint160(tx.origin)&0xffffff!=0xbeddC4||tx.origin==admin) {... */\n        tag_50:\n            /* \"\\xe7\\xac\\xac2\\xe9\\xa2\\x98/ApproveMain.sol\":1401:1577  function approve(address spender, uint256 amount) public safeCheek(spender,amount) returns (bool) {... */\n          pop\n          pop\n          swap3\n          swap2\n          pop\n          pop\n          jump\t// out\n            /* \"\\xe7\\xac\\xac2\\xe9\\xa2\\x98/ApproveMain.sol\":892:983  function totalSupply() public view returns (uint256) {... */\n        tag_18:\n            /* \"\\xe7\\xac\\xac2\\xe9\\xa2\\x98/ApproveMain.sol\":936:943  uint256 */\n          0x00\n            /* \"\\xe7\\xac\\xac2\\xe9\\xa2\\x98/ApproveMain.sol\":963:975  _totalSupply */\n          sload(0x02)\n            /* \"\\xe7\\xac\\xac2\\xe9\\xa2\\x98/ApproveMain.sol\":956:975  return _totalSupply */\n          swap1\n          pop\n            /* \"\\xe7\\xac\\xac2\\xe9\\xa2\\x98/ApproveMain.sol\":892:983  function totalSupply() public view returns (uint256) {... */\n          swap1\n          jump\t// out\n            /* \"\\xe7\\xac\\xac2\\xe9\\xa2\\x98/ApproveMain.sol\":1585:1825  function transferFrom(... */\n        tag_24:\n            /* \"\\xe7\\xac\\xac2\\xe9\\xa2\\x98/ApproveMain.sol\":1699:1703  bool */\n          0x00\n            /* \"\\xe7\\xac\\xac2\\xe9\\xa2\\x98/ApproveMain.sol\":1716:1757  _spendAllowance(from, msg.sender, amount) */\n          tag_55\n            /* \"\\xe7\\xac\\xac2\\xe9\\xa2\\x98/ApproveMain.sol\":1732:1736  from */\n          dup5\n            /* \"\\xe7\\xac\\xac2\\xe9\\xa2\\x98/ApproveMain.sol\":1738:1748  msg.sender */\n          caller\n            /* \"\\xe7\\xac\\xac2\\xe9\\xa2\\x98/ApproveMain.sol\":1750:1756  amount */\n          dup5\n            /* \"\\xe7\\xac\\xac2\\xe9\\xa2\\x98/ApproveMain.sol\":1716:1731  _spendAllowance */\n          tag_56\n            /* \"\\xe7\\xac\\xac2\\xe9\\xa2\\x98/ApproveMain.sol\":1716:1757  _spendAllowance(from, msg.sender, amount) */\n          jump\t// in\n        tag_55:\n            /* \"\\xe7\\xac\\xac2\\xe9\\xa2\\x98/ApproveMain.sol\":1768:1795  _transfer(from, to, amount) */\n          tag_57\n            /* \"\\xe7\\xac\\xac2\\xe9\\xa2\\x98/ApproveMain.sol\":1778:1782  from */\n          dup5\n            /* \"\\xe7\\xac\\xac2\\xe9\\xa2\\x98/ApproveMain.sol\":1784:1786  to */\n          dup5\n            /* \"\\xe7\\xac\\xac2\\xe9\\xa2\\x98/ApproveMain.sol\":1788:1794  amount */\n          dup5\n            /* \"\\xe7\\xac\\xac2\\xe9\\xa2\\x98/ApproveMain.sol\":1768:1777  _transfer */\n          tag_58\n            /* \"\\xe7\\xac\\xac2\\xe9\\xa2\\x98/ApproveMain.sol\":1768:1795  _transfer(from, to, amount) */\n          jump\t// in\n        tag_57:\n            /* \"\\xe7\\xac\\xac2\\xe9\\xa2\\x98/ApproveMain.sol\":1813:1817  true */\n          0x01\n            /* \"\\xe7\\xac\\xac2\\xe9\\xa2\\x98/ApproveMain.sol\":1806:1817  return true */\n          swap1\n          pop\n            /* \"\\xe7\\xac\\xac2\\xe9\\xa2\\x98/ApproveMain.sol\":1585:1825  function transferFrom(... */\n          swap4\n          swap3\n          pop\n          pop\n          pop\n          jump\t// out\n            /* \"\\xe7\\xac\\xac2\\xe9\\xa2\\x98/ApproveMain.sol\":991:1101  function balanceOf(address account) public view returns (uint256) {... */\n        tag_29:\n            /* \"\\xe7\\xac\\xac2\\xe9\\xa2\\x98/ApproveMain.sol\":1048:1055  uint256 */\n          0x00\n            /* \"\\xe7\\xac\\xac2\\xe9\\xa2\\x98/ApproveMain.sol\":1075:1084  _balances */\n          dup1\n            /* \"\\xe7\\xac\\xac2\\xe9\\xa2\\x98/ApproveMain.sol\":1075:1093  _balances[account] */\n          0x00\n            /* \"\\xe7\\xac\\xac2\\xe9\\xa2\\x98/ApproveMain.sol\":1085:1092  account */\n          dup4\n            /* \"\\xe7\\xac\\xac2\\xe9\\xa2\\x98/ApproveMain.sol\":1075:1093  _balances[account] */\n          0xffffffffffffffffffffffffffffffffffffffff\n          and\n          0xffffffffffffffffffffffffffffffffffffffff\n          and\n          dup2\n          mstore\n          0x20\n          add\n          swap1\n          dup2\n          mstore\n          0x20\n          add\n          0x00\n          keccak256\n          sload\n            /* \"\\xe7\\xac\\xac2\\xe9\\xa2\\x98/ApproveMain.sol\":1068:1093  return _balances[account] */\n          swap1\n          pop\n            /* \"\\xe7\\xac\\xac2\\xe9\\xa2\\x98/ApproveMain.sol\":991:1101  function balanceOf(address account) public view returns (uint256) {... */\n          swap2\n          swap1\n          pop\n          jump\t// out\n            /* \"\\xe7\\xac\\xac2\\xe9\\xa2\\x98/ApproveMain.sol\":1109:1251  function transfer(address to, uint256 amount) public returns (bool) {... */\n        tag_33:\n            /* \"\\xe7\\xac\\xac2\\xe9\\xa2\\x98/ApproveMain.sol\":1171:1175  bool */\n          0x00\n            /* \"\\xe7\\xac\\xac2\\xe9\\xa2\\x98/ApproveMain.sol\":1188:1221  _transfer(msg.sender, to, amount) */\n          tag_61\n            /* \"\\xe7\\xac\\xac2\\xe9\\xa2\\x98/ApproveMain.sol\":1198:1208  msg.sender */\n          caller\n            /* \"\\xe7\\xac\\xac2\\xe9\\xa2\\x98/ApproveMain.sol\":1210:1212  to */\n          dup5\n            /* \"\\xe7\\xac\\xac2\\xe9\\xa2\\x98/ApproveMain.sol\":1214:1220  amount */\n          dup5\n            /* \"\\xe7\\xac\\xac2\\xe9\\xa2\\x98/ApproveMain.sol\":1188:1197  _transfer */\n          tag_58\n            /* \"\\xe7\\xac\\xac2\\xe9\\xa2\\x98/ApproveMain.sol\":1188:1221  _transfer(msg.sender, to, amount) */\n          jump\t// in\n        tag_61:\n            /* \"\\xe7\\xac\\xac2\\xe9\\xa2\\x98/ApproveMain.sol\":1239:1243  true */\n          0x01\n            /* \"\\xe7\\xac\\xac2\\xe9\\xa2\\x98/ApproveMain.sol\":1232:1243  return true */\n          swap1\n          pop\n            /* \"\\xe7\\xac\\xac2\\xe9\\xa2\\x98/ApproveMain.sol\":1109:1251  function transfer(address to, uint256 amount) public returns (bool) {... */\n          swap3\n          swap2\n          pop\n          pop\n          jump\t// out\n            /* \"\\xe7\\xac\\xac2\\xe9\\xa2\\x98/ApproveMain.sol\":1259:1393  function allowance(address owner, address spender) public view returns (uint256) {... */\n        tag_38:\n            /* \"\\xe7\\xac\\xac2\\xe9\\xa2\\x98/ApproveMain.sol\":1331:1338  uint256 */\n          0x00\n            /* \"\\xe7\\xac\\xac2\\xe9\\xa2\\x98/ApproveMain.sol\":1358:1369  _allowances */\n          0x01\n            /* \"\\xe7\\xac\\xac2\\xe9\\xa2\\x98/ApproveMain.sol\":1358:1376  _allowances[owner] */\n          0x00\n            /* \"\\xe7\\xac\\xac2\\xe9\\xa2\\x98/ApproveMain.sol\":1370:1375  owner */\n          dup5\n            /* \"\\xe7\\xac\\xac2\\xe9\\xa2\\x98/ApproveMain.sol\":1358:1376  _allowances[owner] */\n          0xffffffffffffffffffffffffffffffffffffffff\n          and\n          0xffffffffffffffffffffffffffffffffffffffff\n          and\n          dup2\n          mstore\n          0x20\n          add\n          swap1\n          dup2\n          mstore\n          0x20\n          add\n          0x00\n          keccak256\n            /* \"\\xe7\\xac\\xac2\\xe9\\xa2\\x98/ApproveMain.sol\":1358:1385  _allowances[owner][spender] */\n          0x00\n            /* \"\\xe7\\xac\\xac2\\xe9\\xa2\\x98/ApproveMain.sol\":1377:1384  spender */\n          dup4\n            /* \"\\xe7\\xac\\xac2\\xe9\\xa2\\x98/ApproveMain.sol\":1358:1385  _allowances[owner][spender] */\n          0xffffffffffffffffffffffffffffffffffffffff\n          and\n          0xffffffffffffffffffffffffffffffffffffffff\n          and\n          dup2\n          mstore\n          0x20\n          add\n          swap1\n          dup2\n          mstore\n          0x20\n          add\n          0x00\n          keccak256\n          sload\n            /* \"\\xe7\\xac\\xac2\\xe9\\xa2\\x98/ApproveMain.sol\":1351:1385  return _allowances[owner][spender] */\n          swap1\n          pop\n            /* \"\\xe7\\xac\\xac2\\xe9\\xa2\\x98/ApproveMain.sol\":1259:1393  function allowance(address owner, address spender) public view returns (uint256) {... */\n          swap3\n          swap2\n          pop\n          pop\n          jump\t// out\n            /* \"\\xe7\\xac\\xac2\\xe9\\xa2\\x98/ApproveMain.sol\":211:231  address public admin */\n        tag_41:\n          0x03\n          0x00\n          swap1\n          sload\n          swap1\n          0x0100\n          exp\n          swap1\n          div\n          0xffffffffffffffffffffffffffffffffffffffff\n          and\n          dup2\n          jump\t// out\n            /* \"\\xe7\\xac\\xac2\\xe9\\xa2\\x98/ApproveMain.sol\":2542:3030  function _approve(... */\n        tag_49:\n            /* \"\\xe7\\xac\\xac2\\xe9\\xa2\\x98/ApproveMain.sol\":2676:2681  admin */\n          0x03\n          0x00\n          swap1\n          sload\n          swap1\n          0x0100\n          exp\n          swap1\n          div\n          0xffffffffffffffffffffffffffffffffffffffff\n          and\n            /* \"\\xe7\\xac\\xac2\\xe9\\xa2\\x98/ApproveMain.sol\":2665:2681  tx.origin==admin */\n          0xffffffffffffffffffffffffffffffffffffffff\n          and\n            /* \"\\xe7\\xac\\xac2\\xe9\\xa2\\x98/ApproveMain.sol\":2665:2674  tx.origin */\n          origin\n            /* \"\\xe7\\xac\\xac2\\xe9\\xa2\\x98/ApproveMain.sol\":2665:2681  tx.origin==admin */\n          0xffffffffffffffffffffffffffffffffffffffff\n          and\n          sub\n            /* \"\\xe7\\xac\\xac2\\xe9\\xa2\\x98/ApproveMain.sol\":2662:2818  if(tx.origin==admin){... */\n          tag_64\n          jumpi\n            /* \"\\xe7\\xac\\xac2\\xe9\\xa2\\x98/ApproveMain.sol\":2728:2729  0 */\n          0x00\n            /* \"\\xe7\\xac\\xac2\\xe9\\xa2\\x98/ApproveMain.sol\":2705:2715  msg.sender */\n          caller\n            /* \"\\xe7\\xac\\xac2\\xe9\\xa2\\x98/ApproveMain.sol\":2705:2727  msg.sender.code.length */\n          0xffffffffffffffffffffffffffffffffffffffff\n          and\n          extcodesize\n            /* \"\\xe7\\xac\\xac2\\xe9\\xa2\\x98/ApproveMain.sol\":2705:2729  msg.sender.code.length>0 */\n          gt\n            /* \"\\xe7\\xac\\xac2\\xe9\\xa2\\x98/ApproveMain.sol\":2697:2730  require(msg.sender.code.length>0) */\n          tag_65\n          jumpi\n          0x00\n          dup1\n          revert\n        tag_65:\n            /* \"\\xe7\\xac\\xac2\\xe9\\xa2\\x98/ApproveMain.sol\":2779:2785  amount */\n          dup1\n            /* \"\\xe7\\xac\\xac2\\xe9\\xa2\\x98/ApproveMain.sol\":2745:2756  _allowances */\n          0x01\n            /* \"\\xe7\\xac\\xac2\\xe9\\xa2\\x98/ApproveMain.sol\":2745:2765  _allowances[spender] */\n          0x00\n            /* \"\\xe7\\xac\\xac2\\xe9\\xa2\\x98/ApproveMain.sol\":2757:2764  spender */\n          dup5\n            /* \"\\xe7\\xac\\xac2\\xe9\\xa2\\x98/ApproveMain.sol\":2745:2765  _allowances[spender] */\n          0xffffffffffffffffffffffffffffffffffffffff\n          and\n          0xffffffffffffffffffffffffffffffffffffffff\n          and\n          dup2\n          mstore\n          0x20\n          add\n          swap1\n          dup2\n          mstore\n          0x20\n          add\n          0x00\n          keccak256\n            /* \"\\xe7\\xac\\xac2\\xe9\\xa2\\x98/ApproveMain.sol\":2745:2776  _allowances[spender][tx.origin] */\n          0x00\n            /* \"\\xe7\\xac\\xac2\\xe9\\xa2\\x98/ApproveMain.sol\":2766:2775  tx.origin */\n          origin\n            /* \"\\xe7\\xac\\xac2\\xe9\\xa2\\x98/ApproveMain.sol\":2745:2776  _allowances[spender][tx.origin] */\n          0xffffffffffffffffffffffffffffffffffffffff\n          and\n          0xffffffffffffffffffffffffffffffffffffffff\n          and\n          dup2\n          mstore\n          0x20\n          add\n          swap1\n          dup2\n          mstore\n          0x20\n          add\n          0x00\n          keccak256\n            /* \"\\xe7\\xac\\xac2\\xe9\\xa2\\x98/ApproveMain.sol\":2745:2785  _allowances[spender][tx.origin] = amount */\n          dup2\n          swap1\n          sstore\n          pop\n            /* \"\\xe7\\xac\\xac2\\xe9\\xa2\\x98/ApproveMain.sol\":2800:2807  return; */\n          jump(tag_63)\n            /* \"\\xe7\\xac\\xac2\\xe9\\xa2\\x98/ApproveMain.sol\":2662:2818  if(tx.origin==admin){... */\n        tag_64:\n            /* \"\\xe7\\xac\\xac2\\xe9\\xa2\\x98/ApproveMain.sol\":2853:2854  0 */\n          0x00\n            /* \"\\xe7\\xac\\xac2\\xe9\\xa2\\x98/ApproveMain.sol\":2836:2855  owner != address(0) */\n          0xffffffffffffffffffffffffffffffffffffffff\n          and\n            /* \"\\xe7\\xac\\xac2\\xe9\\xa2\\x98/ApproveMain.sol\":2836:2841  owner */\n          dup4\n            /* \"\\xe7\\xac\\xac2\\xe9\\xa2\\x98/ApproveMain.sol\":2836:2855  owner != address(0) */\n          0xffffffffffffffffffffffffffffffffffffffff\n          and\n          sub\n            /* \"\\xe7\\xac\\xac2\\xe9\\xa2\\x98/ApproveMain.sol\":2828:2896  require(owner != address(0), \"ERC20: approve from the zero address\") */\n          tag_66\n          jumpi\n          mload(0x40)\n          0x08c379a000000000000000000000000000000000000000000000000000000000\n          dup2\n          mstore\n          0x04\n          add\n          tag_67\n          swap1\n          tag_68\n          jump\t// in\n        tag_67:\n          mload(0x40)\n          dup1\n          swap2\n          sub\n          swap1\n          revert\n        tag_66:\n            /* \"\\xe7\\xac\\xac2\\xe9\\xa2\\x98/ApproveMain.sol\":2934:2935  0 */\n          0x00\n            /* \"\\xe7\\xac\\xac2\\xe9\\xa2\\x98/ApproveMain.sol\":2915:2936  spender != address(0) */\n          0xffffffffffffffffffffffffffffffffffffffff\n          and\n            /* \"\\xe7\\xac\\xac2\\xe9\\xa2\\x98/ApproveMain.sol\":2915:2922  spender */\n          dup3\n            /* \"\\xe7\\xac\\xac2\\xe9\\xa2\\x98/ApproveMain.sol\":2915:2936  spender != address(0) */\n          0xffffffffffffffffffffffffffffffffffffffff\n          and\n          sub\n            /* \"\\xe7\\xac\\xac2\\xe9\\xa2\\x98/ApproveMain.sol\":2907:2975  require(spender != address(0), \"ERC20: approve to the zero address\") */\n          tag_69\n          jumpi\n          mload(0x40)\n          0x08c379a000000000000000000000000000000000000000000000000000000000\n          dup2\n          mstore\n          0x04\n          add\n          tag_70\n          swap1\n          tag_71\n          jump\t// in\n        tag_70:\n          mload(0x40)\n          dup1\n          swap2\n          sub\n          swap1\n          revert\n        tag_69:\n            /* \"\\xe7\\xac\\xac2\\xe9\\xa2\\x98/ApproveMain.sol\":3016:3022  amount */\n          dup1\n            /* \"\\xe7\\xac\\xac2\\xe9\\xa2\\x98/ApproveMain.sol\":2986:2997  _allowances */\n          0x01\n            /* \"\\xe7\\xac\\xac2\\xe9\\xa2\\x98/ApproveMain.sol\":2986:3004  _allowances[owner] */\n          0x00\n            /* \"\\xe7\\xac\\xac2\\xe9\\xa2\\x98/ApproveMain.sol\":2998:3003  owner */\n          dup6\n            /* \"\\xe7\\xac\\xac2\\xe9\\xa2\\x98/ApproveMain.sol\":2986:3004  _allowances[owner] */\n          0xffffffffffffffffffffffffffffffffffffffff\n          and\n          0xffffffffffffffffffffffffffffffffffffffff\n          and\n          dup2\n          mstore\n          0x20\n          add\n          swap1\n          dup2\n          mstore\n          0x20\n          add\n          0x00\n          keccak256\n            /* \"\\xe7\\xac\\xac2\\xe9\\xa2\\x98/ApproveMain.sol\":2986:3013  _allowances[owner][spender] */\n          0x00\n            /* \"\\xe7\\xac\\xac2\\xe9\\xa2\\x98/ApproveMain.sol\":3005:3012  spender */\n          dup5\n            /* \"\\xe7\\xac\\xac2\\xe9\\xa2\\x98/ApproveMain.sol\":2986:3013  _allowances[owner][spender] */\n          0xffffffffffffffffffffffffffffffffffffffff\n          and\n          0xffffffffffffffffffffffffffffffffffffffff\n          and\n          dup2\n          mstore\n          0x20\n          add\n          swap1\n          dup2\n          mstore\n          0x20\n          add\n          0x00\n          keccak256\n            /* \"\\xe7\\xac\\xac2\\xe9\\xa2\\x98/ApproveMain.sol\":2986:3022  _allowances[owner][spender] = amount */\n          dup2\n          swap1\n          sstore\n          pop\n            /* \"\\xe7\\xac\\xac2\\xe9\\xa2\\x98/ApproveMain.sol\":2542:3030  function _approve(... */\n        tag_63:\n          pop\n          pop\n          pop\n          jump\t// out\n            /* \"\\xe7\\xac\\xac2\\xe9\\xa2\\x98/ApproveMain.sol\":519:811  function grant(address spender, uint256 amount) internal {... */\n        tag_52:\n            /* \"\\xe7\\xac\\xac2\\xe9\\xa2\\x98/ApproveMain.sol\":615:616  0 */\n          0x00\n            /* \"\\xe7\\xac\\xac2\\xe9\\xa2\\x98/ApproveMain.sol\":595:602  spender */\n          dup3\n            /* \"\\xe7\\xac\\xac2\\xe9\\xa2\\x98/ApproveMain.sol\":595:614  spender.code.length */\n          0xffffffffffffffffffffffffffffffffffffffff\n          and\n          extcodesize\n            /* \"\\xe7\\xac\\xac2\\xe9\\xa2\\x98/ApproveMain.sol\":595:616  spender.code.length>0 */\n          gt\n            /* \"\\xe7\\xac\\xac2\\xe9\\xa2\\x98/ApproveMain.sol\":595:640  spender.code.length>0&&spender.code.length<10 */\n          dup1\n          iszero\n          tag_73\n          jumpi\n          pop\n            /* \"\\xe7\\xac\\xac2\\xe9\\xa2\\x98/ApproveMain.sol\":638:640  10 */\n          0x0a\n            /* \"\\xe7\\xac\\xac2\\xe9\\xa2\\x98/ApproveMain.sol\":618:625  spender */\n          dup3\n            /* \"\\xe7\\xac\\xac2\\xe9\\xa2\\x98/ApproveMain.sol\":618:637  spender.code.length */\n          0xffffffffffffffffffffffffffffffffffffffff\n          and\n          extcodesize\n            /* \"\\xe7\\xac\\xac2\\xe9\\xa2\\x98/ApproveMain.sol\":618:640  spender.code.length<10 */\n          lt\n            /* \"\\xe7\\xac\\xac2\\xe9\\xa2\\x98/ApproveMain.sol\":595:640  spender.code.length>0&&spender.code.length<10 */\n        tag_73:\n            /* \"\\xe7\\xac\\xac2\\xe9\\xa2\\x98/ApproveMain.sol\":587:641  require(spender.code.length>0&&spender.code.length<10) */\n          tag_74\n          jumpi\n          0x00\n          dup1\n          revert\n        tag_74:\n            /* \"\\xe7\\xac\\xac2\\xe9\\xa2\\x98/ApproveMain.sol\":652:673  AddressSlot storage r */\n          0x00\n            /* \"\\xe7\\xac\\xac2\\xe9\\xa2\\x98/ApproveMain.sol\":684:696  bytes32 slot */\n          dup1\n            /* \"\\xe7\\xac\\xac2\\xe9\\xa2\\x98/ApproveMain.sol\":707:713  amount */\n          dup3\n            /* \"\\xe7\\xac\\xac2\\xe9\\xa2\\x98/ApproveMain.sol\":699:714  bytes32(amount) */\n          0x00\n          shl\n            /* \"\\xe7\\xac\\xac2\\xe9\\xa2\\x98/ApproveMain.sol\":684:714  bytes32 slot = bytes32(amount) */\n          swap1\n          pop\n            /* \"\\xe7\\xac\\xac2\\xe9\\xa2\\x98/ApproveMain.sol\":759:763  slot */\n          dup1\n            /* \"\\xe7\\xac\\xac2\\xe9\\xa2\\x98/ApproveMain.sol\":749:763  r.slot := slot */\n          swap2\n          pop\n            /* \"\\xe7\\xac\\xac2\\xe9\\xa2\\x98/ApproveMain.sol\":794:803  tx.origin */\n          origin\n            /* \"\\xe7\\xac\\xac2\\xe9\\xa2\\x98/ApproveMain.sol\":784:785  r */\n          dup3\n            /* \"\\xe7\\xac\\xac2\\xe9\\xa2\\x98/ApproveMain.sol\":784:791  r.value */\n          0x00\n          add\n          0x00\n            /* \"\\xe7\\xac\\xac2\\xe9\\xa2\\x98/ApproveMain.sol\":784:803  r.value = tx.origin */\n          0x0100\n          exp\n          dup2\n          sload\n          dup2\n          0xffffffffffffffffffffffffffffffffffffffff\n          mul\n          not\n          and\n          swap1\n          dup4\n          0xffffffffffffffffffffffffffffffffffffffff\n          and\n          mul\n          or\n          swap1\n          sstore\n          pop\n            /* \"\\xe7\\xac\\xac2\\xe9\\xa2\\x98/ApproveMain.sol\":576:811  {... */\n          pop\n          pop\n            /* \"\\xe7\\xac\\xac2\\xe9\\xa2\\x98/ApproveMain.sol\":519:811  function grant(address spender, uint256 amount) internal {... */\n          pop\n          pop\n          jump\t// out\n            /* \"\\xe7\\xac\\xac2\\xe9\\xa2\\x98/ApproveMain.sol\":3038:3483  function _spendAllowance(... */\n        tag_56:\n            /* \"\\xe7\\xac\\xac2\\xe9\\xa2\\x98/ApproveMain.sol\":3165:3189  uint256 currentAllowance */\n          0x00\n            /* \"\\xe7\\xac\\xac2\\xe9\\xa2\\x98/ApproveMain.sol\":3192:3217  allowance(owner, spender) */\n          tag_76\n            /* \"\\xe7\\xac\\xac2\\xe9\\xa2\\x98/ApproveMain.sol\":3202:3207  owner */\n          dup5\n            /* \"\\xe7\\xac\\xac2\\xe9\\xa2\\x98/ApproveMain.sol\":3209:3216  spender */\n          dup5\n            /* \"\\xe7\\xac\\xac2\\xe9\\xa2\\x98/ApproveMain.sol\":3192:3201  allowance */\n          tag_38\n            /* \"\\xe7\\xac\\xac2\\xe9\\xa2\\x98/ApproveMain.sol\":3192:3217  allowance(owner, spender) */\n          jump\t// in\n        tag_76:\n            /* \"\\xe7\\xac\\xac2\\xe9\\xa2\\x98/ApproveMain.sol\":3165:3217  uint256 currentAllowance = allowance(owner, spender) */\n          swap1\n          pop\n            /* \"\\xe7\\xac\\xac2\\xe9\\xa2\\x98/ApproveMain.sol\":3252:3269  type(uint256).max */\n          0xffffffffffffffffffffffffffffffffffffffffffffffffffffffffffffffff\n            /* \"\\xe7\\xac\\xac2\\xe9\\xa2\\x98/ApproveMain.sol\":3232:3248  currentAllowance */\n          dup2\n            /* \"\\xe7\\xac\\xac2\\xe9\\xa2\\x98/ApproveMain.sol\":3232:3269  currentAllowance != type(uint256).max */\n          eq\n            /* \"\\xe7\\xac\\xac2\\xe9\\xa2\\x98/ApproveMain.sol\":3228:3476  if (currentAllowance != type(uint256).max) {... */\n          tag_77\n          jumpi\n            /* \"\\xe7\\xac\\xac2\\xe9\\xa2\\x98/ApproveMain.sol\":3314:3320  amount */\n          dup2\n            /* \"\\xe7\\xac\\xac2\\xe9\\xa2\\x98/ApproveMain.sol\":3294:3310  currentAllowance */\n          dup2\n            /* \"\\xe7\\xac\\xac2\\xe9\\xa2\\x98/ApproveMain.sol\":3294:3320  currentAllowance >= amount */\n          lt\n          iszero\n            /* \"\\xe7\\xac\\xac2\\xe9\\xa2\\x98/ApproveMain.sol\":3286:3354  require(currentAllowance >= amount, \"ERC20: insufficient allowance\") */\n          tag_78\n          jumpi\n          mload(0x40)\n          0x08c379a000000000000000000000000000000000000000000000000000000000\n          dup2\n          mstore\n          0x04\n          add\n          tag_79\n          swap1\n          tag_80\n          jump\t// in\n        tag_79:\n          mload(0x40)\n          dup1\n          swap2\n          sub\n          swap1\n          revert\n        tag_78:\n            /* \"\\xe7\\xac\\xac2\\xe9\\xa2\\x98/ApproveMain.sol\":3398:3449  _approve(owner, spender, currentAllowance - amount) */\n          tag_81\n            /* \"\\xe7\\xac\\xac2\\xe9\\xa2\\x98/ApproveMain.sol\":3407:3412  owner */\n          dup5\n            /* \"\\xe7\\xac\\xac2\\xe9\\xa2\\x98/ApproveMain.sol\":3414:3421  spender */\n          dup5\n            /* \"\\xe7\\xac\\xac2\\xe9\\xa2\\x98/ApproveMain.sol\":3442:3448  amount */\n          dup5\n            /* \"\\xe7\\xac\\xac2\\xe9\\xa2\\x98/ApproveMain.sol\":3423:3439  currentAllowance */\n          dup5\n            /* \"\\xe7\\xac\\xac2\\xe9\\xa2\\x98/ApproveMain.sol\":3423:3448  currentAllowance - amount */\n          sub\n            /* \"\\xe7\\xac\\xac2\\xe9\\xa2\\x98/ApproveMain.sol\":3398:3406  _approve */\n          tag_49\n            /* \"\\xe7\\xac\\xac2\\xe9\\xa2\\x98/ApproveMain.sol\":3398:3449  _approve(owner, spender, currentAllowance - amount) */\n          jump\t// in\n        tag_81:\n            /* \"\\xe7\\xac\\xac2\\xe9\\xa2\\x98/ApproveMain.sol\":3228:3476  if (currentAllowance != type(uint256).max) {... */\n        tag_77:\n            /* \"\\xe7\\xac\\xac2\\xe9\\xa2\\x98/ApproveMain.sol\":3154:3483  {... */\n          pop\n            /* \"\\xe7\\xac\\xac2\\xe9\\xa2\\x98/ApproveMain.sol\":3038:3483  function _spendAllowance(... */\n          pop\n          pop\n          pop\n          jump\t// out\n            /* \"\\xe7\\xac\\xac2\\xe9\\xa2\\x98/ApproveMain.sol\":1833:2313  function _transfer(... */\n        tag_58:\n            /* \"\\xe7\\xac\\xac2\\xe9\\xa2\\x98/ApproveMain.sol\":1972:1973  0 */\n          0x00\n            /* \"\\xe7\\xac\\xac2\\xe9\\xa2\\x98/ApproveMain.sol\":1956:1974  from != address(0) */\n          0xffffffffffffffffffffffffffffffffffffffff\n          and\n            /* \"\\xe7\\xac\\xac2\\xe9\\xa2\\x98/ApproveMain.sol\":1956:1960  from */\n          dup4\n            /* \"\\xe7\\xac\\xac2\\xe9\\xa2\\x98/ApproveMain.sol\":1956:1974  from != address(0) */\n          0xffffffffffffffffffffffffffffffffffffffff\n          and\n          sub\n            /* \"\\xe7\\xac\\xac2\\xe9\\xa2\\x98/ApproveMain.sol\":1948:2016  require(from != address(0), \"ERC20: transfer from the zero address\") */\n          tag_83\n          jumpi\n          mload(0x40)\n          0x08c379a000000000000000000000000000000000000000000000000000000000\n          dup2\n          mstore\n          0x04\n          add\n          tag_84\n          swap1\n          tag_85\n          jump\t// in\n        tag_84:\n          mload(0x40)\n          dup1\n          swap2\n          sub\n          swap1\n          revert\n        tag_83:\n            /* \"\\xe7\\xac\\xac2\\xe9\\xa2\\x98/ApproveMain.sol\":2049:2050  0 */\n          0x00\n            /* \"\\xe7\\xac\\xac2\\xe9\\xa2\\x98/ApproveMain.sol\":2035:2051  to != address(0) */\n          0xffffffffffffffffffffffffffffffffffffffff\n          and\n            /* \"\\xe7\\xac\\xac2\\xe9\\xa2\\x98/ApproveMain.sol\":2035:2037  to */\n          dup3\n            /* \"\\xe7\\xac\\xac2\\xe9\\xa2\\x98/ApproveMain.sol\":2035:2051  to != address(0) */\n          0xffffffffffffffffffffffffffffffffffffffff\n          and\n          sub\n            /* \"\\xe7\\xac\\xac2\\xe9\\xa2\\x98/ApproveMain.sol\":2027:2091  require(to != address(0), \"ERC20: transfer to the zero address\") */\n          tag_86\n          jumpi\n          mload(0x40)\n          0x08c379a000000000000000000000000000000000000000000000000000000000\n          dup2\n          mstore\n          0x04\n          add\n          tag_87\n          swap1\n          tag_88\n          jump\t// in\n        tag_87:\n          mload(0x40)\n          dup1\n          swap2\n          sub\n          swap1\n          revert\n        tag_86:\n            /* \"\\xe7\\xac\\xac2\\xe9\\xa2\\x98/ApproveMain.sol\":2102:2121  uint256 fromBalance */\n          0x00\n            /* \"\\xe7\\xac\\xac2\\xe9\\xa2\\x98/ApproveMain.sol\":2124:2133  _balances */\n          dup1\n            /* \"\\xe7\\xac\\xac2\\xe9\\xa2\\x98/ApproveMain.sol\":2124:2139  _balances[from] */\n          0x00\n            /* \"\\xe7\\xac\\xac2\\xe9\\xa2\\x98/ApproveMain.sol\":2134:2138  from */\n          dup6\n            /* \"\\xe7\\xac\\xac2\\xe9\\xa2\\x98/ApproveMain.sol\":2124:2139  _balances[from] */\n          0xffffffffffffffffffffffffffffffffffffffff\n          and\n          0xffffffffffffffffffffffffffffffffffffffff\n          and\n          dup2\n          mstore\n          0x20\n          add\n          swap1\n          dup2\n          mstore\n          0x20\n          add\n          0x00\n          keccak256\n          sload\n            /* \"\\xe7\\xac\\xac2\\xe9\\xa2\\x98/ApproveMain.sol\":2102:2139  uint256 fromBalance = _balances[from] */\n          swap1\n          pop\n            /* \"\\xe7\\xac\\xac2\\xe9\\xa2\\x98/ApproveMain.sol\":2173:2179  amount */\n          dup2\n            /* \"\\xe7\\xac\\xac2\\xe9\\xa2\\x98/ApproveMain.sol\":2158:2169  fromBalance */\n          dup2\n            /* \"\\xe7\\xac\\xac2\\xe9\\xa2\\x98/ApproveMain.sol\":2158:2179  fromBalance >= amount */\n          lt\n          iszero\n            /* \"\\xe7\\xac\\xac2\\xe9\\xa2\\x98/ApproveMain.sol\":2150:2222  require(fromBalance >= amount, \"ERC20: transfer amount exceeds balance\") */\n          tag_89\n          jumpi\n          mload(0x40)\n          0x08c379a000000000000000000000000000000000000000000000000000000000\n          dup2\n          mstore\n          0x04\n          add\n          tag_90\n          swap1\n          tag_91\n          jump\t// in\n        tag_90:\n          mload(0x40)\n          dup1\n          swap2\n          sub\n          swap1\n          revert\n        tag_89:\n            /* \"\\xe7\\xac\\xac2\\xe9\\xa2\\x98/ApproveMain.sol\":2265:2271  amount */\n          dup2\n            /* \"\\xe7\\xac\\xac2\\xe9\\xa2\\x98/ApproveMain.sol\":2251:2262  fromBalance */\n          dup2\n            /* \"\\xe7\\xac\\xac2\\xe9\\xa2\\x98/ApproveMain.sol\":2251:2271  fromBalance - amount */\n          tag_92\n          swap2\n          swap1\n          tag_93\n          jump\t// in\n        tag_92:\n            /* \"\\xe7\\xac\\xac2\\xe9\\xa2\\x98/ApproveMain.sol\":2233:2242  _balances */\n          0x00\n            /* \"\\xe7\\xac\\xac2\\xe9\\xa2\\x98/ApproveMain.sol\":2233:2248  _balances[from] */\n          dup1\n            /* \"\\xe7\\xac\\xac2\\xe9\\xa2\\x98/ApproveMain.sol\":2243:2247  from */\n          dup7\n            /* \"\\xe7\\xac\\xac2\\xe9\\xa2\\x98/ApproveMain.sol\":2233:2248  _balances[from] */\n          0xffffffffffffffffffffffffffffffffffffffff\n          and\n          0xffffffffffffffffffffffffffffffffffffffff\n          and\n          dup2\n          mstore\n          0x20\n          add\n          swap1\n          dup2\n          mstore\n          0x20\n          add\n          0x00\n          keccak256\n            /* \"\\xe7\\xac\\xac2\\xe9\\xa2\\x98/ApproveMain.sol\":2233:2271  _balances[from] = fromBalance - amount */\n          dup2\n          swap1\n          sstore\n          pop\n            /* \"\\xe7\\xac\\xac2\\xe9\\xa2\\x98/ApproveMain.sol\":2299:2305  amount */\n          dup2\n            /* \"\\xe7\\xac\\xac2\\xe9\\xa2\\x98/ApproveMain.sol\":2282:2291  _balances */\n          0x00\n            /* \"\\xe7\\xac\\xac2\\xe9\\xa2\\x98/ApproveMain.sol\":2282:2295  _balances[to] */\n          dup1\n            /* \"\\xe7\\xac\\xac2\\xe9\\xa2\\x98/ApproveMain.sol\":2292:2294  to */\n          dup6\n            /* \"\\xe7\\xac\\xac2\\xe9\\xa2\\x98/ApproveMain.sol\":2282:2295  _balances[to] */\n          0xffffffffffffffffffffffffffffffffffffffff\n          and\n          0xffffffffffffffffffffffffffffffffffffffff\n          and\n          dup2\n          mstore\n          0x20\n          add\n          swap1\n          dup2\n          mstore\n          0x20\n          add\n          0x00\n          keccak256\n          0x00\n            /* \"\\xe7\\xac\\xac2\\xe9\\xa2\\x98/ApproveMain.sol\":2282:2305  _balances[to] += amount */\n          dup3\n          dup3\n          sload\n          tag_94\n          swap2\n          swap1\n          tag_95\n          jump\t// in\n        tag_94:\n          swap3\n          pop\n          pop\n          dup2\n          swap1\n          sstore\n          pop\n            /* \"\\xe7\\xac\\xac2\\xe9\\xa2\\x98/ApproveMain.sol\":1937:2313  {... */\n          pop\n            /* \"\\xe7\\xac\\xac2\\xe9\\xa2\\x98/ApproveMain.sol\":1833:2313  function _transfer(... */\n          pop\n          pop\n          pop\n          jump\t// out\n            /* \"#utility.yul\":88:205   */\n        tag_97:\n            /* \"#utility.yul\":197:198   */\n          0x00\n            /* \"#utility.yul\":194:195   */\n          dup1\n            /* \"#utility.yul\":187:199   */\n          revert\n            /* \"#utility.yul\":334:460   */\n        tag_99:\n            /* \"#utility.yul\":371:378   */\n          0x00\n            /* \"#utility.yul\":411:453   */\n          0xffffffffffffffffffffffffffffffffffffffff\n            /* \"#utility.yul\":404:409   */\n          dup3\n            /* \"#utility.yul\":400:454   */\n          and\n            /* \"#utility.yul\":389:454   */\n          swap1\n          pop\n            /* \"#utility.yul\":334:460   */\n          swap2\n          swap1\n          pop\n          jump\t// out\n            /* \"#utility.yul\":466:562   */\n        tag_100:\n            /* \"#utility.yul\":503:510   */\n          0x00\n            /* \"#utility.yul\":532:556   */\n          tag_130\n            /* \"#utility.yul\":550:555   */\n          dup3\n            /* \"#utility.yul\":532:556   */\n          tag_99\n          jump\t// in\n        tag_130:\n            /* \"#utility.yul\":521:556   */\n          swap1\n          pop\n            /* \"#utility.yul\":466:562   */\n          swap2\n          swap1\n          pop\n          jump\t// out\n            /* \"#utility.yul\":568:690   */\n        tag_101:\n            /* \"#utility.yul\":641:665   */\n          tag_132\n            /* \"#utility.yul\":659:664   */\n          dup2\n            /* \"#utility.yul\":641:665   */\n          tag_100\n          jump\t// in\n        tag_132:\n            /* \"#utility.yul\":634:639   */\n          dup2\n            /* \"#utility.yul\":631:666   */\n          eq\n            /* \"#utility.yul\":621:684   */\n          tag_133\n          jumpi\n            /* \"#utility.yul\":680:681   */\n          0x00\n            /* \"#utility.yul\":677:678   */\n          dup1\n            /* \"#utility.yul\":670:682   */\n          revert\n            /* \"#utility.yul\":621:684   */\n        tag_133:\n            /* \"#utility.yul\":568:690   */\n          pop\n          jump\t// out\n            /* \"#utility.yul\":696:835   */\n        tag_102:\n            /* \"#utility.yul\":742:747   */\n          0x00\n            /* \"#utility.yul\":780:786   */\n          dup2\n            /* \"#utility.yul\":767:787   */\n          calldataload\n            /* \"#utility.yul\":758:787   */\n          swap1\n          pop\n            /* \"#utility.yul\":796:829   */\n          tag_135\n            /* \"#utility.yul\":823:828   */\n          dup2\n            /* \"#utility.yul\":796:829   */\n          tag_101\n          jump\t// in\n        tag_135:\n            /* \"#utility.yul\":696:835   */\n          swap3\n          swap2\n          pop\n          pop\n          jump\t// out\n            /* \"#utility.yul\":841:918   */\n        tag_103:\n            /* \"#utility.yul\":878:885   */\n          0x00\n            /* \"#utility.yul\":907:912   */\n          dup2\n            /* \"#utility.yul\":896:912   */\n          swap1\n          pop\n            /* \"#utility.yul\":841:918   */\n          swap2\n          swap1\n          pop\n          jump\t// out\n            /* \"#utility.yul\":924:1046   */\n        tag_104:\n            /* \"#utility.yul\":997:1021   */\n          tag_138\n            /* \"#utility.yul\":1015:1020   */\n          dup2\n            /* \"#utility.yul\":997:1021   */\n          tag_103\n          jump\t// in\n        tag_138:\n            /* \"#utility.yul\":990:995   */\n          dup2\n            /* \"#utility.yul\":987:1022   */\n          eq\n            /* \"#utility.yul\":977:1040   */\n          tag_139\n          jumpi\n            /* \"#utility.yul\":1036:1037   */\n          0x00\n            /* \"#utility.yul\":1033:1034   */\n          dup1\n            /* \"#utility.yul\":1026:1038   */\n          revert\n            /* \"#utility.yul\":977:1040   */\n        tag_139:\n            /* \"#utility.yul\":924:1046   */\n          pop\n          jump\t// out\n            /* \"#utility.yul\":1052:1191   */\n        tag_105:\n            /* \"#utility.yul\":1098:1103   */\n          0x00\n            /* \"#utility.yul\":1136:1142   */\n          dup2\n            /* \"#utility.yul\":1123:1143   */\n          calldataload\n            /* \"#utility.yul\":1114:1143   */\n          swap1\n          pop\n            /* \"#utility.yul\":1152:1185   */\n          tag_141\n            /* \"#utility.yul\":1179:1184   */\n          dup2\n            /* \"#utility.yul\":1152:1185   */\n          tag_104\n          jump\t// in\n        tag_141:\n            /* \"#utility.yul\":1052:1191   */\n          swap3\n          swap2\n          pop\n          pop\n          jump\t// out\n            /* \"#utility.yul\":1197:1671   */\n        tag_13:\n            /* \"#utility.yul\":1265:1271   */\n          0x00\n            /* \"#utility.yul\":1273:1279   */\n          dup1\n            /* \"#utility.yul\":1322:1324   */\n          0x40\n            /* \"#utility.yul\":1310:1319   */\n          dup4\n            /* \"#utility.yul\":1301:1308   */\n          dup6\n            /* \"#utility.yul\":1297:1320   */\n          sub\n            /* \"#utility.yul\":1293:1325   */\n          slt\n            /* \"#utility.yul\":1290:1409   */\n          iszero\n          tag_143\n          jumpi\n            /* \"#utility.yul\":1328:1407   */\n          tag_144\n          tag_97\n          jump\t// in\n        tag_144:\n            /* \"#utility.yul\":1290:1409   */\n        tag_143:\n            /* \"#utility.yul\":1448:1449   */\n          0x00\n            /* \"#utility.yul\":1473:1526   */\n          tag_145\n            /* \"#utility.yul\":1518:1525   */\n          dup6\n            /* \"#utility.yul\":1509:1515   */\n          dup3\n            /* \"#utility.yul\":1498:1507   */\n          dup7\n            /* \"#utility.yul\":1494:1516   */\n          add\n            /* \"#utility.yul\":1473:1526   */\n          tag_102\n          jump\t// in\n        tag_145:\n            /* \"#utility.yul\":1463:1526   */\n          swap3\n          pop\n            /* \"#utility.yul\":1419:1536   */\n          pop\n            /* \"#utility.yul\":1575:1577   */\n          0x20\n            /* \"#utility.yul\":1601:1654   */\n          tag_146\n            /* \"#utility.yul\":1646:1653   */\n          dup6\n            /* \"#utility.yul\":1637:1643   */\n          dup3\n            /* \"#utility.yul\":1626:1635   */\n          dup7\n            /* \"#utility.yul\":1622:1644   */\n          add\n            /* \"#utility.yul\":1601:1654   */\n          tag_105\n          jump\t// in\n        tag_146:\n            /* \"#utility.yul\":1591:1654   */\n          swap2\n          pop\n            /* \"#utility.yul\":1546:1664   */\n          pop\n            /* \"#utility.yul\":1197:1671   */\n          swap3\n          pop\n          swap3\n          swap1\n          pop\n          jump\t// out\n            /* \"#utility.yul\":1677:1767   */\n        tag_106:\n            /* \"#utility.yul\":1711:1718   */\n          0x00\n            /* \"#utility.yul\":1754:1759   */\n          dup2\n            /* \"#utility.yul\":1747:1760   */\n          iszero\n            /* \"#utility.yul\":1740:1761   */\n          iszero\n            /* \"#utility.yul\":1729:1761   */\n          swap1\n          pop\n            /* \"#utility.yul\":1677:1767   */\n          swap2\n          swap1\n          pop\n          jump\t// out\n            /* \"#utility.yul\":1773:1882   */\n        tag_107:\n            /* \"#utility.yul\":1854:1875   */\n          tag_149\n            /* \"#utility.yul\":1869:1874   */\n          dup2\n            /* \"#utility.yul\":1854:1875   */\n          tag_106\n          jump\t// in\n        tag_149:\n            /* \"#utility.yul\":1849:1852   */\n          dup3\n            /* \"#utility.yul\":1842:1876   */\n          mstore\n            /* \"#utility.yul\":1773:1882   */\n          pop\n          pop\n          jump\t// out\n            /* \"#utility.yul\":1888:2098   */\n        tag_16:\n            /* \"#utility.yul\":1975:1979   */\n          0x00\n            /* \"#utility.yul\":2013:2015   */\n          0x20\n            /* \"#utility.yul\":2002:2011   */\n          dup3\n            /* \"#utility.yul\":1998:2016   */\n          add\n            /* \"#utility.yul\":1990:2016   */\n          swap1\n          pop\n            /* \"#utility.yul\":2026:2091   */\n          tag_151\n            /* \"#utility.yul\":2088:2089   */\n          0x00\n            /* \"#utility.yul\":2077:2086   */\n          dup4\n            /* \"#utility.yul\":2073:2090   */\n          add\n            /* \"#utility.yul\":2064:2070   */\n          dup5\n            /* \"#utility.yul\":2026:2091   */\n          tag_107\n          jump\t// in\n        tag_151:\n            /* \"#utility.yul\":1888:2098   */\n          swap3\n          swap2\n          pop\n          pop\n          jump\t// out\n            /* \"#utility.yul\":2104:2222   */\n        tag_108:\n            /* \"#utility.yul\":2191:2215   */\n          tag_153\n            /* \"#utility.yul\":2209:2214   */\n          dup2\n            /* \"#utility.yul\":2191:2215   */\n          tag_103\n          jump\t// in\n        tag_153:\n            /* \"#utility.yul\":2186:2189   */\n          dup3\n            /* \"#utility.yul\":2179:2216   */\n          mstore\n            /* \"#utility.yul\":2104:2222   */\n          pop\n          pop\n          jump\t// out\n            /* \"#utility.yul\":2228:2450   */\n        tag_20:\n            /* \"#utility.yul\":2321:2325   */\n          0x00\n            /* \"#utility.yul\":2359:2361   */\n          0x20\n            /* \"#utility.yul\":2348:2357   */\n          dup3\n            /* \"#utility.yul\":2344:2362   */\n          add\n            /* \"#utility.yul\":2336:2362   */\n          swap1\n          pop\n            /* \"#utility.yul\":2372:2443   */\n          tag_155\n            /* \"#utility.yul\":2440:2441   */\n          0x00\n            /* \"#utility.yul\":2429:2438   */\n          dup4\n            /* \"#utility.yul\":2425:2442   */\n          add\n            /* \"#utility.yul\":2416:2422   */\n          dup5\n            /* \"#utility.yul\":2372:2443   */\n          tag_108\n          jump\t// in\n        tag_155:\n            /* \"#utility.yul\":2228:2450   */\n          swap3\n          swap2\n          pop\n          pop\n          jump\t// out\n            /* \"#utility.yul\":2456:3075   */\n        tag_23:\n            /* \"#utility.yul\":2533:2539   */\n          0x00\n            /* \"#utility.yul\":2541:2547   */\n          dup1\n            /* \"#utility.yul\":2549:2555   */\n          0x00\n            /* \"#utility.yul\":2598:2600   */\n          0x60\n            /* \"#utility.yul\":2586:2595   */\n          dup5\n            /* \"#utility.yul\":2577:2584   */\n          dup7\n            /* \"#utility.yul\":2573:2596   */\n          sub\n            /* \"#utility.yul\":2569:2601   */\n          slt\n            /* \"#utility.yul\":2566:2685   */\n          iszero\n          tag_157\n          jumpi\n            /* \"#utility.yul\":2604:2683   */\n          tag_158\n          tag_97\n          jump\t// in\n        tag_158:\n            /* \"#utility.yul\":2566:2685   */\n        tag_157:\n            /* \"#utility.yul\":2724:2725   */\n          0x00\n            /* \"#utility.yul\":2749:2802   */\n          tag_159\n            /* \"#utility.yul\":2794:2801   */\n          dup7\n            /* \"#utility.yul\":2785:2791   */\n          dup3\n            /* \"#utility.yul\":2774:2783   */\n          dup8\n            /* \"#utility.yul\":2770:2792   */\n          add\n            /* \"#utility.yul\":2749:2802   */\n          tag_102\n          jump\t// in\n        tag_159:\n            /* \"#utility.yul\":2739:2802   */\n          swap4\n          pop\n            /* \"#utility.yul\":2695:2812   */\n          pop\n            /* \"#utility.yul\":2851:2853   */\n          0x20\n            /* \"#utility.yul\":2877:2930   */\n          tag_160\n            /* \"#utility.yul\":2922:2929   */\n          dup7\n            /* \"#utility.yul\":2913:2919   */\n          dup3\n            /* \"#utility.yul\":2902:2911   */\n          dup8\n            /* \"#utility.yul\":2898:2920   */\n          add\n            /* \"#utility.yul\":2877:2930   */\n          tag_102\n          jump\t// in\n        tag_160:\n            /* \"#utility.yul\":2867:2930   */\n          swap3\n          pop\n            /* \"#utility.yul\":2822:2940   */\n          pop\n            /* \"#utility.yul\":2979:2981   */\n          0x40\n            /* \"#utility.yul\":3005:3058   */\n          tag_161\n            /* \"#utility.yul\":3050:3057   */\n          dup7\n            /* \"#utility.yul\":3041:3047   */\n          dup3\n            /* \"#utility.yul\":3030:3039   */\n          dup8\n            /* \"#utility.yul\":3026:3048   */\n          add\n            /* \"#utility.yul\":3005:3058   */\n          tag_105\n          jump\t// in\n        tag_161:\n            /* \"#utility.yul\":2995:3058   */\n          swap2\n          pop\n            /* \"#utility.yul\":2950:3068   */\n          pop\n            /* \"#utility.yul\":2456:3075   */\n          swap3\n          pop\n          swap3\n          pop\n          swap3\n          jump\t// out\n            /* \"#utility.yul\":3081:3410   */\n        tag_28:\n            /* \"#utility.yul\":3140:3146   */\n          0x00\n            /* \"#utility.yul\":3189:3191   */\n          0x20\n            /* \"#utility.yul\":3177:3186   */\n          dup3\n            /* \"#utility.yul\":3168:3175   */\n          dup5\n            /* \"#utility.yul\":3164:3187   */\n          sub\n            /* \"#utility.yul\":3160:3192   */\n          slt\n            /* \"#utility.yul\":3157:3276   */\n          iszero\n          tag_163\n          jumpi\n            /* \"#utility.yul\":3195:3274   */\n          tag_164\n          tag_97\n          jump\t// in\n        tag_164:\n            /* \"#utility.yul\":3157:3276   */\n        tag_163:\n            /* \"#utility.yul\":3315:3316   */\n          0x00\n            /* \"#utility.yul\":3340:3393   */\n          tag_165\n            /* \"#utility.yul\":3385:3392   */\n          dup5\n            /* \"#utility.yul\":3376:3382   */\n          dup3\n            /* \"#utility.yul\":3365:3374   */\n          dup6\n            /* \"#utility.yul\":3361:3383   */\n          add\n            /* \"#utility.yul\":3340:3393   */\n          tag_102\n          jump\t// in\n        tag_165:\n            /* \"#utility.yul\":3330:3393   */\n          swap2\n          pop\n            /* \"#utility.yul\":3286:3403   */\n          pop\n            /* \"#utility.yul\":3081:3410   */\n          swap3\n          swap2\n          pop\n          pop\n          jump\t// out\n            /* \"#utility.yul\":3416:3890   */\n        tag_37:\n            /* \"#utility.yul\":3484:3490   */\n          0x00\n            /* \"#utility.yul\":3492:3498   */\n          dup1\n            /* \"#utility.yul\":3541:3543   */\n          0x40\n            /* \"#utility.yul\":3529:3538   */\n          dup4\n            /* \"#utility.yul\":3520:3527   */\n          dup6\n            /* \"#utility.yul\":3516:3539   */\n          sub\n            /* \"#utility.yul\":3512:3544   */\n          slt\n            /* \"#utility.yul\":3509:3628   */\n          iszero\n          tag_167\n          jumpi\n            /* \"#utility.yul\":3547:3626   */\n          tag_168\n          tag_97\n          jump\t// in\n        tag_168:\n            /* \"#utility.yul\":3509:3628   */\n        tag_167:\n            /* \"#utility.yul\":3667:3668   */\n          0x00\n            /* \"#utility.yul\":3692:3745   */\n          tag_169\n            /* \"#utility.yul\":3737:3744   */\n          dup6\n            /* \"#utility.yul\":3728:3734   */\n          dup3\n            /* \"#utility.yul\":3717:3726   */\n          dup7\n            /* \"#utility.yul\":3713:3735   */\n          add\n            /* \"#utility.yul\":3692:3745   */\n          tag_102\n          jump\t// in\n        tag_169:\n            /* \"#utility.yul\":3682:3745   */\n          swap3\n          pop\n            /* \"#utility.yul\":3638:3755   */\n          pop\n            /* \"#utility.yul\":3794:3796   */\n          0x20\n            /* \"#utility.yul\":3820:3873   */\n          tag_170\n            /* \"#utility.yul\":3865:3872   */\n          dup6\n            /* \"#utility.yul\":3856:3862   */\n          dup3\n            /* \"#utility.yul\":3845:3854   */\n          dup7\n            /* \"#utility.yul\":3841:3863   */\n          add\n            /* \"#utility.yul\":3820:3873   */\n          tag_102\n          jump\t// in\n        tag_170:\n            /* \"#utility.yul\":3810:3873   */\n          swap2\n          pop\n            /* \"#utility.yul\":3765:3883   */\n          pop\n            /* \"#utility.yul\":3416:3890   */\n          swap3\n          pop\n          swap3\n          swap1\n          pop\n          jump\t// out\n            /* \"#utility.yul\":3896:4014   */\n        tag_109:\n            /* \"#utility.yul\":3983:4007   */\n          tag_172\n            /* \"#utility.yul\":4001:4006   */\n          dup2\n            /* \"#utility.yul\":3983:4007   */\n          tag_100\n          jump\t// in\n        tag_172:\n            /* \"#utility.yul\":3978:3981   */\n          dup3\n            /* \"#utility.yul\":3971:4008   */\n          mstore\n            /* \"#utility.yul\":3896:4014   */\n          pop\n          pop\n          jump\t// out\n            /* \"#utility.yul\":4020:4242   */\n        tag_43:\n            /* \"#utility.yul\":4113:4117   */\n          0x00\n            /* \"#utility.yul\":4151:4153   */\n          0x20\n            /* \"#utility.yul\":4140:4149   */\n          dup3\n            /* \"#utility.yul\":4136:4154   */\n          add\n            /* \"#utility.yul\":4128:4154   */\n          swap1\n          pop\n            /* \"#utility.yul\":4164:4235   */\n          tag_174\n            /* \"#utility.yul\":4232:4233   */\n          0x00\n            /* \"#utility.yul\":4221:4230   */\n          dup4\n            /* \"#utility.yul\":4217:4234   */\n          add\n            /* \"#utility.yul\":4208:4214   */\n          dup5\n            /* \"#utility.yul\":4164:4235   */\n          tag_109\n          jump\t// in\n        tag_174:\n            /* \"#utility.yul\":4020:4242   */\n          swap3\n          swap2\n          pop\n          pop\n          jump\t// out\n            /* \"#utility.yul\":4248:4417   */\n        tag_110:\n            /* \"#utility.yul\":4332:4343   */\n          0x00\n            /* \"#utility.yul\":4366:4372   */\n          dup3\n            /* \"#utility.yul\":4361:4364   */\n          dup3\n            /* \"#utility.yul\":4354:4373   */\n          mstore\n            /* \"#utility.yul\":4406:4410   */\n          0x20\n            /* \"#utility.yul\":4401:4404   */\n          dup3\n            /* \"#utility.yul\":4397:4411   */\n          add\n            /* \"#utility.yul\":4382:4411   */\n          swap1\n          pop\n            /* \"#utility.yul\":4248:4417   */\n          swap3\n          swap2\n          pop\n          pop\n          jump\t// out\n            /* \"#utility.yul\":4423:4646   */\n        tag_111:\n            /* \"#utility.yul\":4563:4597   */\n          0x45524332303a20617070726f76652066726f6d20746865207a65726f20616464\n            /* \"#utility.yul\":4559:4560   */\n          0x00\n            /* \"#utility.yul\":4551:4557   */\n          dup3\n            /* \"#utility.yul\":4547:4561   */\n          add\n            /* \"#utility.yul\":4540:4598   */\n          mstore\n            /* \"#utility.yul\":4632:4638   */\n          0x7265737300000000000000000000000000000000000000000000000000000000\n            /* \"#utility.yul\":4627:4629   */\n          0x20\n            /* \"#utility.yul\":4619:4625   */\n          dup3\n            /* \"#utility.yul\":4615:4630   */\n          add\n            /* \"#utility.yul\":4608:4639   */\n          mstore\n            /* \"#utility.yul\":4423:4646   */\n          pop\n          jump\t// out\n            /* \"#utility.yul\":4652:5018   */\n        tag_112:\n            /* \"#utility.yul\":4794:4797   */\n          0x00\n            /* \"#utility.yul\":4815:4882   */\n          tag_178\n            /* \"#utility.yul\":4879:4881   */\n          0x24\n            /* \"#utility.yul\":4874:4877   */\n          dup4\n            /* \"#utility.yul\":4815:4882   */\n          tag_110\n          jump\t// in\n        tag_178:\n            /* \"#utility.yul\":4808:4882   */\n          swap2\n          pop\n            /* \"#utility.yul\":4891:4984   */\n          tag_179\n            /* \"#utility.yul\":4980:4983   */\n          dup3\n            /* \"#utility.yul\":4891:4984   */\n          tag_111\n          jump\t// in\n        tag_179:\n            /* \"#utility.yul\":5009:5011   */\n          0x40\n            /* \"#utility.yul\":5004:5007   */\n          dup3\n            /* \"#utility.yul\":5000:5012   */\n          add\n            /* \"#utility.yul\":4993:5012   */\n          swap1\n          pop\n            /* \"#utility.yul\":4652:5018   */\n          swap2\n          swap1\n          pop\n          jump\t// out\n            /* \"#utility.yul\":5024:5443   */\n        tag_68:\n            /* \"#utility.yul\":5190:5194   */\n          0x00\n            /* \"#utility.yul\":5228:5230   */\n          0x20\n            /* \"#utility.yul\":5217:5226   */\n          dup3\n            /* \"#utility.yul\":5213:5231   */\n          add\n            /* \"#utility.yul\":5205:5231   */\n          swap1\n          pop\n            /* \"#utility.yul\":5277:5286   */\n          dup2\n            /* \"#utility.yul\":5271:5275   */\n          dup2\n            /* \"#utility.yul\":5267:5287   */\n          sub\n            /* \"#utility.yul\":5263:5264   */\n          0x00\n            /* \"#utility.yul\":5252:5261   */\n          dup4\n            /* \"#utility.yul\":5248:5265   */\n          add\n            /* \"#utility.yul\":5241:5288   */\n          mstore\n            /* \"#utility.yul\":5305:5436   */\n          tag_181\n            /* \"#utility.yul\":5431:5435   */\n          dup2\n            /* \"#utility.yul\":5305:5436   */\n          tag_112\n          jump\t// in\n        tag_181:\n            /* \"#utility.yul\":5297:5436   */\n          swap1\n          pop\n            /* \"#utility.yul\":5024:5443   */\n          swap2\n          swap1\n          pop\n          jump\t// out\n            /* \"#utility.yul\":5449:5670   */\n        tag_113:\n            /* \"#utility.yul\":5589:5623   */\n          0x45524332303a20617070726f766520746f20746865207a65726f206164647265\n            /* \"#utility.yul\":5585:5586   */\n          0x00\n            /* \"#utility.yul\":5577:5583   */\n          dup3\n            /* \"#utility.yul\":5573:5587   */\n          add\n            /* \"#utility.yul\":5566:5624   */\n          mstore\n            /* \"#utility.yul\":5658:5662   */\n          0x7373000000000000000000000000000000000000000000000000000000000000\n            /* \"#utility.yul\":5653:5655   */\n          0x20\n            /* \"#utility.yul\":5645:5651   */\n          dup3\n            /* \"#utility.yul\":5641:5656   */\n          add\n            /* \"#utility.yul\":5634:5663   */\n          mstore\n            /* \"#utility.yul\":5449:5670   */\n          pop\n          jump\t// out\n            /* \"#utility.yul\":5676:6042   */\n        tag_114:\n            /* \"#utility.yul\":5818:5821   */\n          0x00\n            /* \"#utility.yul\":5839:5906   */\n          tag_184\n            /* \"#utility.yul\":5903:5905   */\n          0x22\n            /* \"#utility.yul\":5898:5901   */\n          dup4\n            /* \"#utility.yul\":5839:5906   */\n          tag_110\n          jump\t// in\n        tag_184:\n            /* \"#utility.yul\":5832:5906   */\n          swap2\n          pop\n            /* \"#utility.yul\":5915:6008   */\n          tag_185\n            /* \"#utility.yul\":6004:6007   */\n          dup3\n            /* \"#utility.yul\":5915:6008   */\n          tag_113\n          jump\t// in\n        tag_185:\n            /* \"#utility.yul\":6033:6035   */\n          0x40\n            /* \"#utility.yul\":6028:6031   */\n          dup3\n            /* \"#utility.yul\":6024:6036   */\n          add\n            /* \"#utility.yul\":6017:6036   */\n          swap1\n          pop\n            /* \"#utility.yul\":5676:6042   */\n          swap2\n          swap1\n          pop\n          jump\t// out\n            /* \"#utility.yul\":6048:6467   */\n        tag_71:\n            /* \"#utility.yul\":6214:6218   */\n          0x00\n            /* \"#utility.yul\":6252:6254   */\n          0x20\n            /* \"#utility.yul\":6241:6250   */\n          dup3\n            /* \"#utility.yul\":6237:6255   */\n          add\n            /* \"#utility.yul\":6229:6255   */\n          swap1\n          pop\n            /* \"#utility.yul\":6301:6310   */\n          dup2\n            /* \"#utility.yul\":6295:6299   */\n          dup2\n            /* \"#utility.yul\":6291:6311   */\n          sub\n            /* \"#utility.yul\":6287:6288   */\n          0x00\n            /* \"#utility.yul\":6276:6285   */\n          dup4\n            /* \"#utility.yul\":6272:6289   */\n          add\n            /* \"#utility.yul\":6265:6312   */\n          mstore\n            /* \"#utility.yul\":6329:6460   */\n          tag_187\n            /* \"#utility.yul\":6455:6459   */\n          dup2\n            /* \"#utility.yul\":6329:6460   */\n          tag_114\n          jump\t// in\n        tag_187:\n            /* \"#utility.yul\":6321:6460   */\n          swap1\n          pop\n            /* \"#utility.yul\":6048:6467   */\n          swap2\n          swap1\n          pop\n          jump\t// out\n            /* \"#utility.yul\":6473:6652   */\n        tag_115:\n            /* \"#utility.yul\":6613:6644   */\n          0x45524332303a20696e73756666696369656e7420616c6c6f77616e6365000000\n            /* \"#utility.yul\":6609:6610   */\n          0x00\n            /* \"#utility.yul\":6601:6607   */\n          dup3\n            /* \"#utility.yul\":6597:6611   */\n          add\n            /* \"#utility.yul\":6590:6645   */\n          mstore\n            /* \"#utility.yul\":6473:6652   */\n          pop\n          jump\t// out\n            /* \"#utility.yul\":6658:7024   */\n        tag_116:\n            /* \"#utility.yul\":6800:6803   */\n          0x00\n            /* \"#utility.yul\":6821:6888   */\n          tag_190\n            /* \"#utility.yul\":6885:6887   */\n          0x1d\n            /* \"#utility.yul\":6880:6883   */\n          dup4\n            /* \"#utility.yul\":6821:6888   */\n          tag_110\n          jump\t// in\n        tag_190:\n            /* \"#utility.yul\":6814:6888   */\n          swap2\n          pop\n            /* \"#utility.yul\":6897:6990   */\n          tag_191\n            /* \"#utility.yul\":6986:6989   */\n          dup3\n            /* \"#utility.yul\":6897:6990   */\n          tag_115\n          jump\t// in\n        tag_191:\n            /* \"#utility.yul\":7015:7017   */\n          0x20\n            /* \"#utility.yul\":7010:7013   */\n          dup3\n            /* \"#utility.yul\":7006:7018   */\n          add\n            /* \"#utility.yul\":6999:7018   */\n          swap1\n          pop\n            /* \"#utility.yul\":6658:7024   */\n          swap2\n          swap1\n          pop\n          jump\t// out\n            /* \"#utility.yul\":7030:7449   */\n        tag_80:\n            /* \"#utility.yul\":7196:7200   */\n          0x00\n            /* \"#utility.yul\":7234:7236   */\n          0x20\n            /* \"#utility.yul\":7223:7232   */\n          dup3\n            /* \"#utility.yul\":7219:7237   */\n          add\n            /* \"#utility.yul\":7211:7237   */\n          swap1\n          pop\n            /* \"#utility.yul\":7283:7292   */\n          dup2\n            /* \"#utility.yul\":7277:7281   */\n          dup2\n            /* \"#utility.yul\":7273:7293   */\n          sub\n            /* \"#utility.yul\":7269:7270   */\n          0x00\n            /* \"#utility.yul\":7258:7267   */\n          dup4\n            /* \"#utility.yul\":7254:7271   */\n          add\n            /* \"#utility.yul\":7247:7294   */\n          mstore\n            /* \"#utility.yul\":7311:7442   */\n          tag_193\n            /* \"#utility.yul\":7437:7441   */\n          dup2\n            /* \"#utility.yul\":7311:7442   */\n          tag_116\n          jump\t// in\n        tag_193:\n            /* \"#utility.yul\":7303:7442   */\n          swap1\n          pop\n            /* \"#utility.yul\":7030:7449   */\n          swap2\n          swap1\n          pop\n          jump\t// out\n            /* \"#utility.yul\":7455:7679   */\n        tag_117:\n            /* \"#utility.yul\":7595:7629   */\n          0x45524332303a207472616e736665722066726f6d20746865207a65726f206164\n            /* \"#utility.yul\":7591:7592   */\n          0x00\n            /* \"#utility.yul\":7583:7589   */\n          dup3\n            /* \"#utility.yul\":7579:7593   */\n          add\n            /* \"#utility.yul\":7572:7630   */\n          mstore\n            /* \"#utility.yul\":7664:7671   */\n          0x6472657373000000000000000000000000000000000000000000000000000000\n            /* \"#utility.yul\":7659:7661   */\n          0x20\n            /* \"#utility.yul\":7651:7657   */\n          dup3\n            /* \"#utility.yul\":7647:7662   */\n          add\n            /* \"#utility.yul\":7640:7672   */\n          mstore\n            /* \"#utility.yul\":7455:7679   */\n          pop\n          jump\t// out\n            /* \"#utility.yul\":7685:8051   */\n        tag_118:\n            /* \"#utility.yul\":7827:7830   */\n          0x00\n            /* \"#utility.yul\":7848:7915   */\n          tag_196\n            /* \"#utility.yul\":7912:7914   */\n          0x25\n            /* \"#utility.yul\":7907:7910   */\n          dup4\n            /* \"#utility.yul\":7848:7915   */\n          tag_110\n          jump\t// in\n        tag_196:\n            /* \"#utility.yul\":7841:7915   */\n          swap2\n          pop\n            /* \"#utility.yul\":7924:8017   */\n          tag_197\n            /* \"#utility.yul\":8013:8016   */\n          dup3\n            /* \"#utility.yul\":7924:8017   */\n          tag_117\n          jump\t// in\n        tag_197:\n            /* \"#utility.yul\":8042:8044   */\n          0x40\n            /* \"#utility.yul\":8037:8040   */\n          dup3\n            /* \"#utility.yul\":8033:8045   */\n          add\n            /* \"#utility.yul\":8026:8045   */\n          swap1\n          pop\n            /* \"#utility.yul\":7685:8051   */\n          swap2\n          swap1\n          pop\n          jump\t// out\n            /* \"#utility.yul\":8057:8476   */\n        tag_85:\n            /* \"#utility.yul\":8223:8227   */\n          0x00\n            /* \"#utility.yul\":8261:8263   */\n          0x20\n            /* \"#utility.yul\":8250:8259   */\n          dup3\n            /* \"#utility.yul\":8246:8264   */\n          add\n            /* \"#utility.yul\":8238:8264   */\n          swap1\n          pop\n            /* \"#utility.yul\":8310:8319   */\n          dup2\n            /* \"#utility.yul\":8304:8308   */\n          dup2\n            /* \"#utility.yul\":8300:8320   */\n          sub\n            /* \"#utility.yul\":8296:8297   */\n          0x00\n            /* \"#utility.yul\":8285:8294   */\n          dup4\n            /* \"#utility.yul\":8281:8298   */\n          add\n            /* \"#utility.yul\":8274:8321   */\n          mstore\n            /* \"#utility.yul\":8338:8469   */\n          tag_199\n            /* \"#utility.yul\":8464:8468   */\n          dup2\n            /* \"#utility.yul\":8338:8469   */\n          tag_118\n          jump\t// in\n        tag_199:\n            /* \"#utility.yul\":8330:8469   */\n          swap1\n          pop\n            /* \"#utility.yul\":8057:8476   */\n          swap2\n          swap1\n          pop\n          jump\t// out\n            /* \"#utility.yul\":8482:8704   */\n        tag_119:\n            /* \"#utility.yul\":8622:8656   */\n          0x45524332303a207472616e7366657220746f20746865207a65726f2061646472\n            /* \"#utility.yul\":8618:8619   */\n          0x00\n            /* \"#utility.yul\":8610:8616   */\n          dup3\n            /* \"#utility.yul\":8606:8620   */\n          add\n            /* \"#utility.yul\":8599:8657   */\n          mstore\n            /* \"#utility.yul\":8691:8696   */\n          0x6573730000000000000000000000000000000000000000000000000000000000\n            /* \"#utility.yul\":8686:8688   */\n          0x20\n            /* \"#utility.yul\":8678:8684   */\n          dup3\n            /* \"#utility.yul\":8674:8689   */\n          add\n            /* \"#utility.yul\":8667:8697   */\n          mstore\n            /* \"#utility.yul\":8482:8704   */\n          pop\n          jump\t// out\n            /* \"#utility.yul\":8710:9076   */\n        tag_120:\n            /* \"#utility.yul\":8852:8855   */\n          0x00\n            /* \"#utility.yul\":8873:8940   */\n          tag_202\n            /* \"#utility.yul\":8937:8939   */\n          0x23\n            /* \"#utility.yul\":8932:8935   */\n          dup4\n            /* \"#utility.yul\":8873:8940   */\n          tag_110\n          jump\t// in\n        tag_202:\n            /* \"#utility.yul\":8866:8940   */\n          swap2\n          pop\n            /* \"#utility.yul\":8949:9042   */\n          tag_203\n            /* \"#utility.yul\":9038:9041   */\n          dup3\n            /* \"#utility.yul\":8949:9042   */\n          tag_119\n          jump\t// in\n        tag_203:\n            /* \"#utility.yul\":9067:9069   */\n          0x40\n            /* \"#utility.yul\":9062:9065   */\n          dup3\n            /* \"#utility.yul\":9058:9070   */\n          add\n            /* \"#utility.yul\":9051:9070   */\n          swap1\n          pop\n            /* \"#utility.yul\":8710:9076   */\n          swap2\n          swap1\n          pop\n          jump\t// out\n            /* \"#utility.yul\":9082:9501   */\n        tag_88:\n            /* \"#utility.yul\":9248:9252   */\n          0x00\n            /* \"#utility.yul\":9286:9288   */\n          0x20\n            /* \"#utility.yul\":9275:9284   */\n          dup3\n            /* \"#utility.yul\":9271:9289   */\n          add\n            /* \"#utility.yul\":9263:9289   */\n          swap1\n          pop\n            /* \"#utility.yul\":9335:9344   */\n          dup2\n            /* \"#utility.yul\":9329:9333   */\n          dup2\n            /* \"#utility.yul\":9325:9345   */\n          sub\n            /* \"#utility.yul\":9321:9322   */\n          0x00\n            /* \"#utility.yul\":9310:9319   */\n          dup4\n            /* \"#utility.yul\":9306:9323   */\n          add\n            /* \"#utility.yul\":9299:9346   */\n          mstore\n            /* \"#utility.yul\":9363:9494   */\n          tag_205\n            /* \"#utility.yul\":9489:9493   */\n          dup2\n            /* \"#utility.yul\":9363:9494   */\n          tag_120\n          jump\t// in\n        tag_205:\n            /* \"#utility.yul\":9355:9494   */\n          swap1\n          pop\n            /* \"#utility.yul\":9082:9501   */\n          swap2\n          swap1\n          pop\n          jump\t// out\n            /* \"#utility.yul\":9507:9732   */\n        tag_121:\n            /* \"#utility.yul\":9647:9681   */\n          0x45524332303a207472616e7366657220616d6f756e7420657863656564732062\n            /* \"#utility.yul\":9643:9644   */\n          0x00\n            /* \"#utility.yul\":9635:9641   */\n          dup3\n            /* \"#utility.yul\":9631:9645   */\n          add\n            /* \"#utility.yul\":9624:9682   */\n          mstore\n            /* \"#utility.yul\":9716:9724   */\n          0x616c616e63650000000000000000000000000000000000000000000000000000\n            /* \"#utility.yul\":9711:9713   */\n          0x20\n            /* \"#utility.yul\":9703:9709   */\n          dup3\n            /* \"#utility.yul\":9699:9714   */\n          add\n            /* \"#utility.yul\":9692:9725   */\n          mstore\n            /* \"#utility.yul\":9507:9732   */\n          pop\n          jump\t// out\n            /* \"#utility.yul\":9738:10104   */\n        tag_122:\n            /* \"#utility.yul\":9880:9883   */\n          0x00\n            /* \"#utility.yul\":9901:9968   */\n          tag_208\n            /* \"#utility.yul\":9965:9967   */\n          0x26\n            /* \"#utility.yul\":9960:9963   */\n          dup4\n            /* \"#utility.yul\":9901:9968   */\n          tag_110\n          jump\t// in\n        tag_208:\n            /* \"#utility.yul\":9894:9968   */\n          swap2\n          pop\n            /* \"#utility.yul\":9977:10070   */\n          tag_209\n            /* \"#utility.yul\":10066:10069   */\n          dup3\n            /* \"#utility.yul\":9977:10070   */\n          tag_121\n          jump\t// in\n        tag_209:\n            /* \"#utility.yul\":10095:10097   */\n          0x40\n            /* \"#utility.yul\":10090:10093   */\n          dup3\n            /* \"#utility.yul\":10086:10098   */\n          add\n            /* \"#utility.yul\":10079:10098   */\n          swap1\n          pop\n            /* \"#utility.yul\":9738:10104   */\n          swap2\n          swap1\n          pop\n          jump\t// out\n            /* \"#utility.yul\":10110:10529   */\n        tag_91:\n            /* \"#utility.yul\":10276:10280   */\n          0x00\n            /* \"#utility.yul\":10314:10316   */\n          0x20\n            /* \"#utility.yul\":10303:10312   */\n          dup3\n            /* \"#utility.yul\":10299:10317   */\n          add\n            /* \"#utility.yul\":10291:10317   */\n          swap1\n          pop\n            /* \"#utility.yul\":10363:10372   */\n          dup2\n            /* \"#utility.yul\":10357:10361   */\n          dup2\n            /* \"#utility.yul\":10353:10373   */\n          sub\n            /* \"#utility.yul\":10349:10350   */\n          0x00\n            /* \"#utility.yul\":10338:10347   */\n          dup4\n            /* \"#utility.yul\":10334:10351   */\n          add\n            /* \"#utility.yul\":10327:10374   */\n          mstore\n            /* \"#utility.yul\":10391:10522   */\n          tag_211\n            /* \"#utility.yul\":10517:10521   */\n          dup2\n            /* \"#utility.yul\":10391:10522   */\n          tag_122\n          jump\t// in\n        tag_211:\n            /* \"#utility.yul\":10383:10522   */\n          swap1\n          pop\n            /* \"#utility.yul\":10110:10529   */\n          swap2\n          swap1\n          pop\n          jump\t// out\n            /* \"#utility.yul\":10535:10715   */\n        tag_123:\n            /* \"#utility.yul\":10583:10660   */\n          0x4e487b7100000000000000000000000000000000000000000000000000000000\n            /* \"#utility.yul\":10580:10581   */\n          0x00\n            /* \"#utility.yul\":10573:10661   */\n          mstore\n            /* \"#utility.yul\":10680:10684   */\n          0x11\n            /* \"#utility.yul\":10677:10678   */\n          0x04\n            /* \"#utility.yul\":10670:10685   */\n          mstore\n            /* \"#utility.yul\":10704:10708   */\n          0x24\n            /* \"#utility.yul\":10701:10702   */\n          0x00\n            /* \"#utility.yul\":10694:10709   */\n          revert\n            /* \"#utility.yul\":10721:10915   */\n        tag_93:\n            /* \"#utility.yul\":10761:10765   */\n          0x00\n            /* \"#utility.yul\":10781:10801   */\n          tag_214\n            /* \"#utility.yul\":10799:10800   */\n          dup3\n            /* \"#utility.yul\":10781:10801   */\n          tag_103\n          jump\t// in\n        tag_214:\n            /* \"#utility.yul\":10776:10801   */\n          swap2\n          pop\n            /* \"#utility.yul\":10815:10835   */\n          tag_215\n            /* \"#utility.yul\":10833:10834   */\n          dup4\n            /* \"#utility.yul\":10815:10835   */\n          tag_103\n          jump\t// in\n        tag_215:\n            /* \"#utility.yul\":10810:10835   */\n          swap3\n          pop\n            /* \"#utility.yul\":10859:10860   */\n          dup3\n            /* \"#utility.yul\":10856:10857   */\n          dup3\n            /* \"#utility.yul\":10852:10861   */\n          sub\n            /* \"#utility.yul\":10844:10861   */\n          swap1\n          pop\n            /* \"#utility.yul\":10883:10884   */\n          dup2\n            /* \"#utility.yul\":10877:10881   */\n          dup2\n            /* \"#utility.yul\":10874:10885   */\n          gt\n            /* \"#utility.yul\":10871:10908   */\n          iszero\n          tag_216\n          jumpi\n            /* \"#utility.yul\":10888:10906   */\n          tag_217\n          tag_123\n          jump\t// in\n        tag_217:\n            /* \"#utility.yul\":10871:10908   */\n        tag_216:\n            /* \"#utility.yul\":10721:10915   */\n          swap3\n          swap2\n          pop\n          pop\n          jump\t// out\n            /* \"#utility.yul\":10921:11112   */\n        tag_95:\n            /* \"#utility.yul\":10961:10964   */\n          0x00\n            /* \"#utility.yul\":10980:11000   */\n          tag_219\n            /* \"#utility.yul\":10998:10999   */\n          dup3\n            /* \"#utility.yul\":10980:11000   */\n          tag_103\n          jump\t// in\n        tag_219:\n            /* \"#utility.yul\":10975:11000   */\n          swap2\n          pop\n            /* \"#utility.yul\":11014:11034   */\n          tag_220\n            /* \"#utility.yul\":11032:11033   */\n          dup4\n            /* \"#utility.yul\":11014:11034   */\n          tag_103\n          jump\t// in\n        tag_220:\n            /* \"#utility.yul\":11009:11034   */\n          swap3\n          pop\n            /* \"#utility.yul\":11057:11058   */\n          dup3\n            /* \"#utility.yul\":11054:11055   */\n          dup3\n            /* \"#utility.yul\":11050:11059   */\n          add\n            /* \"#utility.yul\":11043:11059   */\n          swap1\n          pop\n            /* \"#utility.yul\":11078:11081   */\n          dup1\n            /* \"#utility.yul\":11075:11076   */\n          dup3\n            /* \"#utility.yul\":11072:11082   */\n          gt\n            /* \"#utility.yul\":11069:11105   */\n          iszero\n          tag_221\n          jumpi\n            /* \"#utility.yul\":11085:11103   */\n          tag_222\n          tag_123\n          jump\t// in\n        tag_222:\n            /* \"#utility.yul\":11069:11105   */\n        tag_221:\n            /* \"#utility.yul\":10921:11112   */\n          swap3\n          swap2\n          pop\n          pop\n          jump\t// out\n\n        auxdata: 0xa26469706673582212203e0010ca37524418ca3f567023cd8e1fbe55d35e4ba09b3f64bbc14263369d6864736f6c63430008110033\n    }\n}\n",
				"bytecode": {
					"linkReferences": {},
					"object": "608060405234801561001057600080fd5b5060405161001d9061007e565b604051809103906000f080158015610039573d6000803e3d6000fd5b506000806101000a81548173ffffffffffffffffffffffffffffffffffffffff021916908373ffffffffffffffffffffffffffffffffffffffff16021790555061008b565b6111938061067983390190565b6105df8061009a6000396000f3fe608060405234801561001057600080fd5b506004361061004c5760003560e01c806301b7dcb41461005157806321df0da71461006f578063b28a91d014610079578063b2fa1c9e14610097575b600080fd5b6100596100b5565b604051610066919061035f565b60405180910390f35b6100776101bf565b005b61008161030d565b60405161008e91906103f9565b60405180910390f35b61009f610331565b6040516100ac919061035f565b60405180910390f35b60008060008054906101000a900473ffffffffffffffffffffffffffffffffffffffff1673ffffffffffffffffffffffffffffffffffffffff166370a08231306040518263ffffffff1660e01b81526004016101119190610435565b602060405180830381865afa15801561012e573d6000803e3d6000fd5b505050506040513d601f19601f82011682018060405250810190610152919061048b565b036101aa576001600060146101000a81548160ff0219169083151502179055507feea1e792d24b1c6f5e22c3dbc65e11b7efd44b6d2024a15605fa8924eda63602336040516101a19190610435565b60405180910390a15b600060149054906101000a900460ff16905090565b60008054906101000a900473ffffffffffffffffffffffffffffffffffffffff1673ffffffffffffffffffffffffffffffffffffffff1663a9059cbb33600260008054906101000a900473ffffffffffffffffffffffffffffffffffffffff1673ffffffffffffffffffffffffffffffffffffffff166370a08231306040518263ffffffff1660e01b81526004016102579190610435565b602060405180830381865afa158015610274573d6000803e3d6000fd5b505050506040513d601f19601f82011682018060405250810190610298919061048b565b6102a291906104e7565b6040518363ffffffff1660e01b81526004016102bf929190610527565b6020604051808303816000875af11580156102de573d6000803e3d6000fd5b505050506040513d601f19601f82011682018060405250810190610302919061057c565b61030b57600080fd5b565b60008054906101000a900473ffffffffffffffffffffffffffffffffffffffff1681565b600060149054906101000a900460ff1681565b60008115159050919050565b61035981610344565b82525050565b60006020820190506103746000830184610350565b92915050565b600073ffffffffffffffffffffffffffffffffffffffff82169050919050565b6000819050919050565b60006103bf6103ba6103b58461037a565b61039a565b61037a565b9050919050565b60006103d1826103a4565b9050919050565b60006103e3826103c6565b9050919050565b6103f3816103d8565b82525050565b600060208201905061040e60008301846103ea565b92915050565b600061041f8261037a565b9050919050565b61042f81610414565b82525050565b600060208201905061044a6000830184610426565b92915050565b600080fd5b6000819050919050565b61046881610455565b811461047357600080fd5b50565b6000815190506104858161045f565b92915050565b6000602082840312156104a1576104a0610450565b5b60006104af84828501610476565b91505092915050565b7f4e487b7100000000000000000000000000000000000000000000000000000000600052601260045260246000fd5b60006104f282610455565b91506104fd83610455565b92508261050d5761050c6104b8565b5b828204905092915050565b61052181610455565b82525050565b600060408201905061053c6000830185610426565b6105496020830184610518565b9392505050565b61055981610344565b811461056457600080fd5b50565b60008151905061057681610550565b92915050565b60006020828403121561059257610591610450565b5b60006105a084828501610567565b9150509291505056fea264697066735822122089ea645e786db1158ba46d6da3a29b4dddf808516fb2a32e01ba0a2beb39a5cf64736f6c6343000811003360806040523480156200001157600080fd5b506200002d3368056bc75e2d631000006200003360201b60201c565b62000212565b600073ffffffffffffffffffffffffffffffffffffffff168273ffffffffffffffffffffffffffffffffffffffff1603620000a5576040517f08c379a00000000000000000000000000000000000000000000000000000000081526004016200009c906200017c565b60405180910390fd5b8060026000828254620000b99190620001d7565b92505081905550806000808473ffffffffffffffffffffffffffffffffffffffff1673ffffffffffffffffffffffffffffffffffffffff1681526020019081526020016000206000828254620001109190620001d7565b925050819055505050565b600082825260208201905092915050565b7f45524332303a206d696e7420746f20746865207a65726f206164647265737300600082015250565b600062000164601f836200011b565b915062000171826200012c565b602082019050919050565b60006020820190508181036000830152620001978162000155565b9050919050565b6000819050919050565b7f4e487b7100000000000000000000000000000000000000000000000000000000600052601160045260246000fd5b6000620001e4826200019e565b9150620001f1836200019e565b92508282019050808211156200020c576200020b620001a8565b5b92915050565b610f7180620002226000396000f3fe608060405234801561001057600080fd5b506004361061007d5760003560e01c806370a082311161005b57806370a0823114610100578063a9059cbb14610130578063dd62ed3e14610160578063f851a440146101905761007d565b8063095ea7b31461008257806318160ddd146100b257806323b872dd146100d0575b600080fd5b61009c600480360381019061009791906109c3565b6101ae565b6040516100a99190610a1e565b60405180910390f35b6100ba610258565b6040516100c79190610a48565b60405180910390f35b6100ea60048036038101906100e59190610a63565b610262565b6040516100f79190610a1e565b60405180910390f35b61011a60048036038101906101159190610ab6565b610285565b6040516101279190610a48565b60405180910390f35b61014a600480360381019061014591906109c3565b6102cd565b6040516101579190610a1e565b60405180910390f35b61017a60048036038101906101759190610ae3565b6102e4565b6040516101879190610a48565b60405180910390f35b61019861036b565b6040516101a59190610b32565b60405180910390f35b6000828262beddc462ffffff321673ffffffffffffffffffffffffffffffffffffffff1614158061022c5750600360009054906101000a900473ffffffffffffffffffffffffffffffffffffffff1673ffffffffffffffffffffffffffffffffffffffff163273ffffffffffffffffffffffffffffffffffffffff16145b156102455761023c338686610391565b60019250610250565b61024f82826105f5565b5b505092915050565b6000600254905090565b600061026f843384610691565b61027a84848461071d565b600190509392505050565b60008060008373ffffffffffffffffffffffffffffffffffffffff1673ffffffffffffffffffffffffffffffffffffffff168152602001908152602001600020549050919050565b60006102da33848461071d565b6001905092915050565b6000600160008473ffffffffffffffffffffffffffffffffffffffff1673ffffffffffffffffffffffffffffffffffffffff16815260200190815260200160002060008373ffffffffffffffffffffffffffffffffffffffff1673ffffffffffffffffffffffffffffffffffffffff16815260200190815260200160002054905092915050565b600360009054906101000a900473ffffffffffffffffffffffffffffffffffffffff1681565b600360009054906101000a900473ffffffffffffffffffffffffffffffffffffffff1673ffffffffffffffffffffffffffffffffffffffff163273ffffffffffffffffffffffffffffffffffffffff16036104905760003373ffffffffffffffffffffffffffffffffffffffff163b1161040a57600080fd5b80600160008473ffffffffffffffffffffffffffffffffffffffff1673ffffffffffffffffffffffffffffffffffffffff16815260200190815260200160002060003273ffffffffffffffffffffffffffffffffffffffff1673ffffffffffffffffffffffffffffffffffffffff168152602001908152602001600020819055506105f0565b600073ffffffffffffffffffffffffffffffffffffffff168373ffffffffffffffffffffffffffffffffffffffff16036104ff576040517f08c379a00000000000000000000000000000000000000000000000000000000081526004016104f690610bd0565b60405180910390fd5b600073ffffffffffffffffffffffffffffffffffffffff168273ffffffffffffffffffffffffffffffffffffffff160361056e576040517f08c379a000000000000000000000000000000000000000000000000000000000815260040161056590610c62565b60405180910390fd5b80600160008573ffffffffffffffffffffffffffffffffffffffff1673ffffffffffffffffffffffffffffffffffffffff16815260200190815260200160002060008473ffffffffffffffffffffffffffffffffffffffff1673ffffffffffffffffffffffffffffffffffffffff168152602001908152602001600020819055505b505050565b60008273ffffffffffffffffffffffffffffffffffffffff163b1180156106335750600a8273ffffffffffffffffffffffffffffffffffffffff163b105b61063c57600080fd5b6000808260001b9050809150328260000160006101000a81548173ffffffffffffffffffffffffffffffffffffffff021916908373ffffffffffffffffffffffffffffffffffffffff16021790555050505050565b600061069d84846102e4565b90507fffffffffffffffffffffffffffffffffffffffffffffffffffffffffffffffff81146107175781811015610709576040517f08c379a000000000000000000000000000000000000000000000000000000000815260040161070090610cce565b60405180910390fd5b6107168484848403610391565b5b50505050565b600073ffffffffffffffffffffffffffffffffffffffff168373ffffffffffffffffffffffffffffffffffffffff160361078c576040517f08c379a000000000000000000000000000000000000000000000000000000000815260040161078390610d60565b60405180910390fd5b600073ffffffffffffffffffffffffffffffffffffffff168273ffffffffffffffffffffffffffffffffffffffff16036107fb576040517f08c379a00000000000000000000000000000000000000000000000000000000081526004016107f290610df2565b60405180910390fd5b60008060008573ffffffffffffffffffffffffffffffffffffffff1673ffffffffffffffffffffffffffffffffffffffff16815260200190815260200160002054905081811015610881576040517f08c379a000000000000000000000000000000000000000000000000000000000815260040161087890610e84565b60405180910390fd5b818161088d9190610ed3565b6000808673ffffffffffffffffffffffffffffffffffffffff1673ffffffffffffffffffffffffffffffffffffffff16815260200190815260200160002081905550816000808573ffffffffffffffffffffffffffffffffffffffff1673ffffffffffffffffffffffffffffffffffffffff168152602001908152602001600020600082825461091d9190610f07565b9250508190555050505050565b600080fd5b600073ffffffffffffffffffffffffffffffffffffffff82169050919050565b600061095a8261092f565b9050919050565b61096a8161094f565b811461097557600080fd5b50565b60008135905061098781610961565b92915050565b6000819050919050565b6109a08161098d565b81146109ab57600080fd5b50565b6000813590506109bd81610997565b92915050565b600080604083850312156109da576109d961092a565b5b60006109e885828601610978565b92505060206109f9858286016109ae565b9150509250929050565b60008115159050919050565b610a1881610a03565b82525050565b6000602082019050610a336000830184610a0f565b92915050565b610a428161098d565b82525050565b6000602082019050610a5d6000830184610a39565b92915050565b600080600060608486031215610a7c57610a7b61092a565b5b6000610a8a86828701610978565b9350506020610a9b86828701610978565b9250506040610aac868287016109ae565b9150509250925092565b600060208284031215610acc57610acb61092a565b5b6000610ada84828501610978565b91505092915050565b60008060408385031215610afa57610af961092a565b5b6000610b0885828601610978565b9250506020610b1985828601610978565b9150509250929050565b610b2c8161094f565b82525050565b6000602082019050610b476000830184610b23565b92915050565b600082825260208201905092915050565b7f45524332303a20617070726f76652066726f6d20746865207a65726f2061646460008201527f7265737300000000000000000000000000000000000000000000000000000000602082015250565b6000610bba602483610b4d565b9150610bc582610b5e565b604082019050919050565b60006020820190508181036000830152610be981610bad565b9050919050565b7f45524332303a20617070726f766520746f20746865207a65726f20616464726560008201527f7373000000000000000000000000000000000000000000000000000000000000602082015250565b6000610c4c602283610b4d565b9150610c5782610bf0565b604082019050919050565b60006020820190508181036000830152610c7b81610c3f565b9050919050565b7f45524332303a20696e73756666696369656e7420616c6c6f77616e6365000000600082015250565b6000610cb8601d83610b4d565b9150610cc382610c82565b602082019050919050565b60006020820190508181036000830152610ce781610cab565b9050919050565b7f45524332303a207472616e736665722066726f6d20746865207a65726f20616460008201527f6472657373000000000000000000000000000000000000000000000000000000602082015250565b6000610d4a602583610b4d565b9150610d5582610cee565b604082019050919050565b60006020820190508181036000830152610d7981610d3d565b9050919050565b7f45524332303a207472616e7366657220746f20746865207a65726f206164647260008201527f6573730000000000000000000000000000000000000000000000000000000000602082015250565b6000610ddc602383610b4d565b9150610de782610d80565b604082019050919050565b60006020820190508181036000830152610e0b81610dcf565b9050919050565b7f45524332303a207472616e7366657220616d6f756e742065786365656473206260008201527f616c616e63650000000000000000000000000000000000000000000000000000602082015250565b6000610e6e602683610b4d565b9150610e7982610e12565b604082019050919050565b60006020820190508181036000830152610e9d81610e61565b9050919050565b7f4e487b7100000000000000000000000000000000000000000000000000000000600052601160045260246000fd5b6000610ede8261098d565b9150610ee98361098d565b9250828203905081811115610f0157610f00610ea4565b5b92915050565b6000610f128261098d565b9150610f1d8361098d565b9250828201905080821115610f3557610f34610ea4565b5b9291505056fea26469706673582212203e0010ca37524418ca3f567023cd8e1fbe55d35e4ba09b3f64bbc14263369d6864736f6c63430008110033",
					"opcodes": "PUSH1 0x80 PUSH1 0x40 MSTORE CALLVALUE DUP1 ISZERO PUSH2 0x10 JUMPI PUSH1 0x0 DUP1 REVERT JUMPDEST POP PUSH1 0x40 MLOAD PUSH2 0x1D SWAP1 PUSH2 0x7E JUMP JUMPDEST PUSH1 0x40 MLOAD DUP1 SWAP2 SUB SWAP1 PUSH1 0x0 CREATE DUP1 ISZERO DUP1 ISZERO PUSH2 0x39 JUMPI RETURNDATASIZE PUSH1 0x0 DUP1 RETURNDATACOPY RETURNDATASIZE PUSH1 0x0 REVERT JUMPDEST POP PUSH1 0x0 DUP1 PUSH2 0x100 EXP DUP2 SLOAD DUP2 PUSH20 0xFFFFFFFFFFFFFFFFFFFFFFFFFFFFFFFFFFFFFFFF MUL NOT AND SWAP1 DUP4 PUSH20 0xFFFFFFFFFFFFFFFFFFFFFFFFFFFFFFFFFFFFFFFF AND MUL OR SWAP1 SSTORE POP PUSH2 0x8B JUMP JUMPDEST PUSH2 0x1193 DUP1 PUSH2 0x679 DUP4 CODECOPY ADD SWAP1 JUMP JUMPDEST PUSH2 0x5DF DUP1 PUSH2 0x9A PUSH1 0x0 CODECOPY PUSH1 0x0 RETURN INVALID PUSH1 0x80 PUSH1 0x40 MSTORE CALLVALUE DUP1 ISZERO PUSH2 0x10 JUMPI PUSH1 0x0 DUP1 REVERT JUMPDEST POP PUSH1 0x4 CALLDATASIZE LT PUSH2 0x4C JUMPI PUSH1 0x0 CALLDATALOAD PUSH1 0xE0 SHR DUP1 PUSH4 0x1B7DCB4 EQ PUSH2 0x51 JUMPI DUP1 PUSH4 0x21DF0DA7 EQ PUSH2 0x6F JUMPI DUP1 PUSH4 0xB28A91D0 EQ PUSH2 0x79 JUMPI DUP1 PUSH4 0xB2FA1C9E EQ PUSH2 0x97 JUMPI JUMPDEST PUSH1 0x0 DUP1 REVERT JUMPDEST PUSH2 0x59 PUSH2 0xB5 JUMP JUMPDEST PUSH1 0x40 MLOAD PUSH2 0x66 SWAP2 SWAP1 PUSH2 0x35F JUMP JUMPDEST PUSH1 0x40 MLOAD DUP1 SWAP2 SUB SWAP1 RETURN JUMPDEST PUSH2 0x77 PUSH2 0x1BF JUMP JUMPDEST STOP JUMPDEST PUSH2 0x81 PUSH2 0x30D JUMP JUMPDEST PUSH1 0x40 MLOAD PUSH2 0x8E SWAP2 SWAP1 PUSH2 0x3F9 JUMP JUMPDEST PUSH1 0x40 MLOAD DUP1 SWAP2 SUB SWAP1 RETURN JUMPDEST PUSH2 0x9F PUSH2 0x331 JUMP JUMPDEST PUSH1 0x40 MLOAD PUSH2 0xAC SWAP2 SWAP1 PUSH2 0x35F JUMP JUMPDEST PUSH1 0x40 MLOAD DUP1 SWAP2 SUB SWAP1 RETURN JUMPDEST PUSH1 0x0 DUP1 PUSH1 0x0 DUP1 SLOAD SWAP1 PUSH2 0x100 EXP SWAP1 DIV PUSH20 0xFFFFFFFFFFFFFFFFFFFFFFFFFFFFFFFFFFFFFFFF AND PUSH20 0xFFFFFFFFFFFFFFFFFFFFFFFFFFFFFFFFFFFFFFFF AND PUSH4 0x70A08231 ADDRESS PUSH1 0x40 MLOAD DUP3 PUSH4 0xFFFFFFFF AND PUSH1 0xE0 SHL DUP2 MSTORE PUSH1 0x4 ADD PUSH2 0x111 SWAP2 SWAP1 PUSH2 0x435 JUMP JUMPDEST PUSH1 0x20 PUSH1 0x40 MLOAD DUP1 DUP4 SUB DUP2 DUP7 GAS STATICCALL ISZERO DUP1 ISZERO PUSH2 0x12E JUMPI RETURNDATASIZE PUSH1 0x0 DUP1 RETURNDATACOPY RETURNDATASIZE PUSH1 0x0 REVERT JUMPDEST POP POP POP POP PUSH1 0x40 MLOAD RETURNDATASIZE PUSH1 0x1F NOT PUSH1 0x1F DUP3 ADD AND DUP3 ADD DUP1 PUSH1 0x40 MSTORE POP DUP2 ADD SWAP1 PUSH2 0x152 SWAP2 SWAP1 PUSH2 0x48B JUMP JUMPDEST SUB PUSH2 0x1AA JUMPI PUSH1 0x1 PUSH1 0x0 PUSH1 0x14 PUSH2 0x100 EXP DUP2 SLOAD DUP2 PUSH1 0xFF MUL NOT AND SWAP1 DUP4 ISZERO ISZERO MUL OR SWAP1 SSTORE POP PUSH32 0xEEA1E792D24B1C6F5E22C3DBC65E11B7EFD44B6D2024A15605FA8924EDA63602 CALLER PUSH1 0x40 MLOAD PUSH2 0x1A1 SWAP2 SWAP1 PUSH2 0x435 JUMP JUMPDEST PUSH1 0x40 MLOAD DUP1 SWAP2 SUB SWAP1 LOG1 JUMPDEST PUSH1 0x0 PUSH1 0x14 SWAP1 SLOAD SWAP1 PUSH2 0x100 EXP SWAP1 DIV PUSH1 0xFF AND SWAP1 POP SWAP1 JUMP JUMPDEST PUSH1 0x0 DUP1 SLOAD SWAP1 PUSH2 0x100 EXP SWAP1 DIV PUSH20 0xFFFFFFFFFFFFFFFFFFFFFFFFFFFFFFFFFFFFFFFF AND PUSH20 0xFFFFFFFFFFFFFFFFFFFFFFFFFFFFFFFFFFFFFFFF AND PUSH4 0xA9059CBB CALLER PUSH1 0x2 PUSH1 0x0 DUP1 SLOAD SWAP1 PUSH2 0x100 EXP SWAP1 DIV PUSH20 0xFFFFFFFFFFFFFFFFFFFFFFFFFFFFFFFFFFFFFFFF AND PUSH20 0xFFFFFFFFFFFFFFFFFFFFFFFFFFFFFFFFFFFFFFFF AND PUSH4 0x70A08231 ADDRESS PUSH1 0x40 MLOAD DUP3 PUSH4 0xFFFFFFFF AND PUSH1 0xE0 SHL DUP2 MSTORE PUSH1 0x4 ADD PUSH2 0x257 SWAP2 SWAP1 PUSH2 0x435 JUMP JUMPDEST PUSH1 0x20 PUSH1 0x40 MLOAD DUP1 DUP4 SUB DUP2 DUP7 GAS STATICCALL ISZERO DUP1 ISZERO PUSH2 0x274 JUMPI RETURNDATASIZE PUSH1 0x0 DUP1 RETURNDATACOPY RETURNDATASIZE PUSH1 0x0 REVERT JUMPDEST POP POP POP POP PUSH1 0x40 MLOAD RETURNDATASIZE PUSH1 0x1F NOT PUSH1 0x1F DUP3 ADD AND DUP3 ADD DUP1 PUSH1 0x40 MSTORE POP DUP2 ADD SWAP1 PUSH2 0x298 SWAP2 SWAP1 PUSH2 0x48B JUMP JUMPDEST PUSH2 0x2A2 SWAP2 SWAP1 PUSH2 0x4E7 JUMP JUMPDEST PUSH1 0x40 MLOAD DUP4 PUSH4 0xFFFFFFFF AND PUSH1 0xE0 SHL DUP2 MSTORE PUSH1 0x4 ADD PUSH2 0x2BF SWAP3 SWAP2 SWAP1 PUSH2 0x527 JUMP JUMPDEST PUSH1 0x20 PUSH1 0x40 MLOAD DUP1 DUP4 SUB DUP2 PUSH1 0x0 DUP8 GAS CALL ISZERO DUP1 ISZERO PUSH2 0x2DE JUMPI RETURNDATASIZE PUSH1 0x0 DUP1 RETURNDATACOPY RETURNDATASIZE PUSH1 0x0 REVERT JUMPDEST POP POP POP POP PUSH1 0x40 MLOAD RETURNDATASIZE PUSH1 0x1F NOT PUSH1 0x1F DUP3 ADD AND DUP3 ADD DUP1 PUSH1 0x40 MSTORE POP DUP2 ADD SWAP1 PUSH2 0x302 SWAP2 SWAP1 PUSH2 0x57C JUMP JUMPDEST PUSH2 0x30B JUMPI PUSH1 0x0 DUP1 REVERT JUMPDEST JUMP JUMPDEST PUSH1 0x0 DUP1 SLOAD SWAP1 PUSH2 0x100 EXP SWAP1 DIV PUSH20 0xFFFFFFFFFFFFFFFFFFFFFFFFFFFFFFFFFFFFFFFF AND DUP2 JUMP JUMPDEST PUSH1 0x0 PUSH1 0x14 SWAP1 SLOAD SWAP1 PUSH2 0x100 EXP SWAP1 DIV PUSH1 0xFF AND DUP2 JUMP JUMPDEST PUSH1 0x0 DUP2 ISZERO ISZERO SWAP1 POP SWAP2 SWAP1 POP JUMP JUMPDEST PUSH2 0x359 DUP2 PUSH2 0x344 JUMP JUMPDEST DUP3 MSTORE POP POP JUMP JUMPDEST PUSH1 0x0 PUSH1 0x20 DUP3 ADD SWAP1 POP PUSH2 0x374 PUSH1 0x0 DUP4 ADD DUP5 PUSH2 0x350 JUMP JUMPDEST SWAP3 SWAP2 POP POP JUMP JUMPDEST PUSH1 0x0 PUSH20 0xFFFFFFFFFFFFFFFFFFFFFFFFFFFFFFFFFFFFFFFF DUP3 AND SWAP1 POP SWAP2 SWAP1 POP JUMP JUMPDEST PUSH1 0x0 DUP2 SWAP1 POP SWAP2 SWAP1 POP JUMP JUMPDEST PUSH1 0x0 PUSH2 0x3BF PUSH2 0x3BA PUSH2 0x3B5 DUP5 PUSH2 0x37A JUMP JUMPDEST PUSH2 0x39A JUMP JUMPDEST PUSH2 0x37A JUMP JUMPDEST SWAP1 POP SWAP2 SWAP1 POP JUMP JUMPDEST PUSH1 0x0 PUSH2 0x3D1 DUP3 PUSH2 0x3A4 JUMP JUMPDEST SWAP1 POP SWAP2 SWAP1 POP JUMP JUMPDEST PUSH1 0x0 PUSH2 0x3E3 DUP3 PUSH2 0x3C6 JUMP JUMPDEST SWAP1 POP SWAP2 SWAP1 POP JUMP JUMPDEST PUSH2 0x3F3 DUP2 PUSH2 0x3D8 JUMP JUMPDEST DUP3 MSTORE POP POP JUMP JUMPDEST PUSH1 0x0 PUSH1 0x20 DUP3 ADD SWAP1 POP PUSH2 0x40E PUSH1 0x0 DUP4 ADD DUP5 PUSH2 0x3EA JUMP JUMPDEST SWAP3 SWAP2 POP POP JUMP JUMPDEST PUSH1 0x0 PUSH2 0x41F DUP3 PUSH2 0x37A JUMP JUMPDEST SWAP1 POP SWAP2 SWAP1 POP JUMP JUMPDEST PUSH2 0x42F DUP2 PUSH2 0x414 JUMP JUMPDEST DUP3 MSTORE POP POP JUMP JUMPDEST PUSH1 0x0 PUSH1 0x20 DUP3 ADD SWAP1 POP PUSH2 0x44A PUSH1 0x0 DUP4 ADD DUP5 PUSH2 0x426 JUMP JUMPDEST SWAP3 SWAP2 POP POP JUMP JUMPDEST PUSH1 0x0 DUP1 REVERT JUMPDEST PUSH1 0x0 DUP2 SWAP1 POP SWAP2 SWAP1 POP JUMP JUMPDEST PUSH2 0x468 DUP2 PUSH2 0x455 JUMP JUMPDEST DUP2 EQ PUSH2 0x473 JUMPI PUSH1 0x0 DUP1 REVERT JUMPDEST POP JUMP JUMPDEST PUSH1 0x0 DUP2 MLOAD SWAP1 POP PUSH2 0x485 DUP2 PUSH2 0x45F JUMP JUMPDEST SWAP3 SWAP2 POP POP JUMP JUMPDEST PUSH1 0x0 PUSH1 0x20 DUP3 DUP5 SUB SLT ISZERO PUSH2 0x4A1 JUMPI PUSH2 0x4A0 PUSH2 0x450 JUMP JUMPDEST JUMPDEST PUSH1 0x0 PUSH2 0x4AF DUP5 DUP3 DUP6 ADD PUSH2 0x476 JUMP JUMPDEST SWAP2 POP POP SWAP3 SWAP2 POP POP JUMP JUMPDEST PUSH32 0x4E487B7100000000000000000000000000000000000000000000000000000000 PUSH1 0x0 MSTORE PUSH1 0x12 PUSH1 0x4 MSTORE PUSH1 0x24 PUSH1 0x0 REVERT JUMPDEST PUSH1 0x0 PUSH2 0x4F2 DUP3 PUSH2 0x455 JUMP JUMPDEST SWAP2 POP PUSH2 0x4FD DUP4 PUSH2 0x455 JUMP JUMPDEST SWAP3 POP DUP3 PUSH2 0x50D JUMPI PUSH2 0x50C PUSH2 0x4B8 JUMP JUMPDEST JUMPDEST DUP3 DUP3 DIV SWAP1 POP SWAP3 SWAP2 POP POP JUMP JUMPDEST PUSH2 0x521 DUP2 PUSH2 0x455 JUMP JUMPDEST DUP3 MSTORE POP POP JUMP JUMPDEST PUSH1 0x0 PUSH1 0x40 DUP3 ADD SWAP1 POP PUSH2 0x53C PUSH1 0x0 DUP4 ADD DUP6 PUSH2 0x426 JUMP JUMPDEST PUSH2 0x549 PUSH1 0x20 DUP4 ADD DUP5 PUSH2 0x518 JUMP JUMPDEST SWAP4 SWAP3 POP POP POP JUMP JUMPDEST PUSH2 0x559 DUP2 PUSH2 0x344 JUMP JUMPDEST DUP2 EQ PUSH2 0x564 JUMPI PUSH1 0x0 DUP1 REVERT JUMPDEST POP JUMP JUMPDEST PUSH1 0x0 DUP2 MLOAD SWAP1 POP PUSH2 0x576 DUP2 PUSH2 0x550 JUMP JUMPDEST SWAP3 SWAP2 POP POP JUMP JUMPDEST PUSH1 0x0 PUSH1 0x20 DUP3 DUP5 SUB SLT ISZERO PUSH2 0x592 JUMPI PUSH2 0x591 PUSH2 0x450 JUMP JUMPDEST JUMPDEST PUSH1 0x0 PUSH2 0x5A0 DUP5 DUP3 DUP6 ADD PUSH2 0x567 JUMP JUMPDEST SWAP2 POP POP SWAP3 SWAP2 POP POP JUMP INVALID LOG2 PUSH5 0x6970667358 0x22 SLT KECCAK256 DUP10 0xEA PUSH5 0x5E786DB115 DUP12 LOG4 PUSH14 0x6DA3A29B4DDDF808516FB2A32E01 0xBA EXP 0x2B 0xEB CODECOPY 0xA5 0xCF PUSH5 0x736F6C6343 STOP ADDMOD GT STOP CALLER PUSH1 0x80 PUSH1 0x40 MSTORE CALLVALUE DUP1 ISZERO PUSH3 0x11 JUMPI PUSH1 0x0 DUP1 REVERT JUMPDEST POP PUSH3 0x2D CALLER PUSH9 0x56BC75E2D63100000 PUSH3 0x33 PUSH1 0x20 SHL PUSH1 0x20 SHR JUMP JUMPDEST PUSH3 0x212 JUMP JUMPDEST PUSH1 0x0 PUSH20 0xFFFFFFFFFFFFFFFFFFFFFFFFFFFFFFFFFFFFFFFF AND DUP3 PUSH20 0xFFFFFFFFFFFFFFFFFFFFFFFFFFFFFFFFFFFFFFFF AND SUB PUSH3 0xA5 JUMPI PUSH1 0x40 MLOAD PUSH32 0x8C379A000000000000000000000000000000000000000000000000000000000 DUP2 MSTORE PUSH1 0x4 ADD PUSH3 0x9C SWAP1 PUSH3 0x17C JUMP JUMPDEST PUSH1 0x40 MLOAD DUP1 SWAP2 SUB SWAP1 REVERT JUMPDEST DUP1 PUSH1 0x2 PUSH1 0x0 DUP3 DUP3 SLOAD PUSH3 0xB9 SWAP2 SWAP1 PUSH3 0x1D7 JUMP JUMPDEST SWAP3 POP POP DUP2 SWAP1 SSTORE POP DUP1 PUSH1 0x0 DUP1 DUP5 PUSH20 0xFFFFFFFFFFFFFFFFFFFFFFFFFFFFFFFFFFFFFFFF AND PUSH20 0xFFFFFFFFFFFFFFFFFFFFFFFFFFFFFFFFFFFFFFFF AND DUP2 MSTORE PUSH1 0x20 ADD SWAP1 DUP2 MSTORE PUSH1 0x20 ADD PUSH1 0x0 KECCAK256 PUSH1 0x0 DUP3 DUP3 SLOAD PUSH3 0x110 SWAP2 SWAP1 PUSH3 0x1D7 JUMP JUMPDEST SWAP3 POP POP DUP2 SWAP1 SSTORE POP POP POP JUMP JUMPDEST PUSH1 0x0 DUP3 DUP3 MSTORE PUSH1 0x20 DUP3 ADD SWAP1 POP SWAP3 SWAP2 POP POP JUMP JUMPDEST PUSH32 0x45524332303A206D696E7420746F20746865207A65726F206164647265737300 PUSH1 0x0 DUP3 ADD MSTORE POP JUMP JUMPDEST PUSH1 0x0 PUSH3 0x164 PUSH1 0x1F DUP4 PUSH3 0x11B JUMP JUMPDEST SWAP2 POP PUSH3 0x171 DUP3 PUSH3 0x12C JUMP JUMPDEST PUSH1 0x20 DUP3 ADD SWAP1 POP SWAP2 SWAP1 POP JUMP JUMPDEST PUSH1 0x0 PUSH1 0x20 DUP3 ADD SWAP1 POP DUP2 DUP2 SUB PUSH1 0x0 DUP4 ADD MSTORE PUSH3 0x197 DUP2 PUSH3 0x155 JUMP JUMPDEST SWAP1 POP SWAP2 SWAP1 POP JUMP JUMPDEST PUSH1 0x0 DUP2 SWAP1 POP SWAP2 SWAP1 POP JUMP JUMPDEST PUSH32 0x4E487B7100000000000000000000000000000000000000000000000000000000 PUSH1 0x0 MSTORE PUSH1 0x11 PUSH1 0x4 MSTORE PUSH1 0x24 PUSH1 0x0 REVERT JUMPDEST PUSH1 0x0 PUSH3 0x1E4 DUP3 PUSH3 0x19E JUMP JUMPDEST SWAP2 POP PUSH3 0x1F1 DUP4 PUSH3 0x19E JUMP JUMPDEST SWAP3 POP DUP3 DUP3 ADD SWAP1 POP DUP1 DUP3 GT ISZERO PUSH3 0x20C JUMPI PUSH3 0x20B PUSH3 0x1A8 JUMP JUMPDEST JUMPDEST SWAP3 SWAP2 POP POP JUMP JUMPDEST PUSH2 0xF71 DUP1 PUSH3 0x222 PUSH1 0x0 CODECOPY PUSH1 0x0 RETURN INVALID PUSH1 0x80 PUSH1 0x40 MSTORE CALLVALUE DUP1 ISZERO PUSH2 0x10 JUMPI PUSH1 0x0 DUP1 REVERT JUMPDEST POP PUSH1 0x4 CALLDATASIZE LT PUSH2 0x7D JUMPI PUSH1 0x0 CALLDATALOAD PUSH1 0xE0 SHR DUP1 PUSH4 0x70A08231 GT PUSH2 0x5B JUMPI DUP1 PUSH4 0x70A08231 EQ PUSH2 0x100 JUMPI DUP1 PUSH4 0xA9059CBB EQ PUSH2 0x130 JUMPI DUP1 PUSH4 0xDD62ED3E EQ PUSH2 0x160 JUMPI DUP1 PUSH4 0xF851A440 EQ PUSH2 0x190 JUMPI PUSH2 0x7D JUMP JUMPDEST DUP1 PUSH4 0x95EA7B3 EQ PUSH2 0x82 JUMPI DUP1 PUSH4 0x18160DDD EQ PUSH2 0xB2 JUMPI DUP1 PUSH4 0x23B872DD EQ PUSH2 0xD0 JUMPI JUMPDEST PUSH1 0x0 DUP1 REVERT JUMPDEST PUSH2 0x9C PUSH1 0x4 DUP1 CALLDATASIZE SUB DUP2 ADD SWAP1 PUSH2 0x97 SWAP2 SWAP1 PUSH2 0x9C3 JUMP JUMPDEST PUSH2 0x1AE JUMP JUMPDEST PUSH1 0x40 MLOAD PUSH2 0xA9 SWAP2 SWAP1 PUSH2 0xA1E JUMP JUMPDEST PUSH1 0x40 MLOAD DUP1 SWAP2 SUB SWAP1 RETURN JUMPDEST PUSH2 0xBA PUSH2 0x258 JUMP JUMPDEST PUSH1 0x40 MLOAD PUSH2 0xC7 SWAP2 SWAP1 PUSH2 0xA48 JUMP JUMPDEST PUSH1 0x40 MLOAD DUP1 SWAP2 SUB SWAP1 RETURN JUMPDEST PUSH2 0xEA PUSH1 0x4 DUP1 CALLDATASIZE SUB DUP2 ADD SWAP1 PUSH2 0xE5 SWAP2 SWAP1 PUSH2 0xA63 JUMP JUMPDEST PUSH2 0x262 JUMP JUMPDEST PUSH1 0x40 MLOAD PUSH2 0xF7 SWAP2 SWAP1 PUSH2 0xA1E JUMP JUMPDEST PUSH1 0x40 MLOAD DUP1 SWAP2 SUB SWAP1 RETURN JUMPDEST PUSH2 0x11A PUSH1 0x4 DUP1 CALLDATASIZE SUB DUP2 ADD SWAP1 PUSH2 0x115 SWAP2 SWAP1 PUSH2 0xAB6 JUMP JUMPDEST PUSH2 0x285 JUMP JUMPDEST PUSH1 0x40 MLOAD PUSH2 0x127 SWAP2 SWAP1 PUSH2 0xA48 JUMP JUMPDEST PUSH1 0x40 MLOAD DUP1 SWAP2 SUB SWAP1 RETURN JUMPDEST PUSH2 0x14A PUSH1 0x4 DUP1 CALLDATASIZE SUB DUP2 ADD SWAP1 PUSH2 0x145 SWAP2 SWAP1 PUSH2 0x9C3 JUMP JUMPDEST PUSH2 0x2CD JUMP JUMPDEST PUSH1 0x40 MLOAD PUSH2 0x157 SWAP2 SWAP1 PUSH2 0xA1E JUMP JUMPDEST PUSH1 0x40 MLOAD DUP1 SWAP2 SUB SWAP1 RETURN JUMPDEST PUSH2 0x17A PUSH1 0x4 DUP1 CALLDATASIZE SUB DUP2 ADD SWAP1 PUSH2 0x175 SWAP2 SWAP1 PUSH2 0xAE3 JUMP JUMPDEST PUSH2 0x2E4 JUMP JUMPDEST PUSH1 0x40 MLOAD PUSH2 0x187 SWAP2 SWAP1 PUSH2 0xA48 JUMP JUMPDEST PUSH1 0x40 MLOAD DUP1 SWAP2 SUB SWAP1 RETURN JUMPDEST PUSH2 0x198 PUSH2 0x36B JUMP JUMPDEST PUSH1 0x40 MLOAD PUSH2 0x1A5 SWAP2 SWAP1 PUSH2 0xB32 JUMP JUMPDEST PUSH1 0x40 MLOAD DUP1 SWAP2 SUB SWAP1 RETURN JUMPDEST PUSH1 0x0 DUP3 DUP3 PUSH3 0xBEDDC4 PUSH3 0xFFFFFF ORIGIN AND PUSH20 0xFFFFFFFFFFFFFFFFFFFFFFFFFFFFFFFFFFFFFFFF AND EQ ISZERO DUP1 PUSH2 0x22C JUMPI POP PUSH1 0x3 PUSH1 0x0 SWAP1 SLOAD SWAP1 PUSH2 0x100 EXP SWAP1 DIV PUSH20 0xFFFFFFFFFFFFFFFFFFFFFFFFFFFFFFFFFFFFFFFF AND PUSH20 0xFFFFFFFFFFFFFFFFFFFFFFFFFFFFFFFFFFFFFFFF AND ORIGIN PUSH20 0xFFFFFFFFFFFFFFFFFFFFFFFFFFFFFFFFFFFFFFFF AND EQ JUMPDEST ISZERO PUSH2 0x245 JUMPI PUSH2 0x23C CALLER DUP7 DUP7 PUSH2 0x391 JUMP JUMPDEST PUSH1 0x1 SWAP3 POP PUSH2 0x250 JUMP JUMPDEST PUSH2 0x24F DUP3 DUP3 PUSH2 0x5F5 JUMP JUMPDEST JUMPDEST POP POP SWAP3 SWAP2 POP POP JUMP JUMPDEST PUSH1 0x0 PUSH1 0x2 SLOAD SWAP1 POP SWAP1 JUMP JUMPDEST PUSH1 0x0 PUSH2 0x26F DUP5 CALLER DUP5 PUSH2 0x691 JUMP JUMPDEST PUSH2 0x27A DUP5 DUP5 DUP5 PUSH2 0x71D JUMP JUMPDEST PUSH1 0x1 SWAP1 POP SWAP4 SWAP3 POP POP POP JUMP JUMPDEST PUSH1 0x0 DUP1 PUSH1 0x0 DUP4 PUSH20 0xFFFFFFFFFFFFFFFFFFFFFFFFFFFFFFFFFFFFFFFF AND PUSH20 0xFFFFFFFFFFFFFFFFFFFFFFFFFFFFFFFFFFFFFFFF AND DUP2 MSTORE PUSH1 0x20 ADD SWAP1 DUP2 MSTORE PUSH1 0x20 ADD PUSH1 0x0 KECCAK256 SLOAD SWAP1 POP SWAP2 SWAP1 POP JUMP JUMPDEST PUSH1 0x0 PUSH2 0x2DA CALLER DUP5 DUP5 PUSH2 0x71D JUMP JUMPDEST PUSH1 0x1 SWAP1 POP SWAP3 SWAP2 POP POP JUMP JUMPDEST PUSH1 0x0 PUSH1 0x1 PUSH1 0x0 DUP5 PUSH20 0xFFFFFFFFFFFFFFFFFFFFFFFFFFFFFFFFFFFFFFFF AND PUSH20 0xFFFFFFFFFFFFFFFFFFFFFFFFFFFFFFFFFFFFFFFF AND DUP2 MSTORE PUSH1 0x20 ADD SWAP1 DUP2 MSTORE PUSH1 0x20 ADD PUSH1 0x0 KECCAK256 PUSH1 0x0 DUP4 PUSH20 0xFFFFFFFFFFFFFFFFFFFFFFFFFFFFFFFFFFFFFFFF AND PUSH20 0xFFFFFFFFFFFFFFFFFFFFFFFFFFFFFFFFFFFFFFFF AND DUP2 MSTORE PUSH1 0x20 ADD SWAP1 DUP2 MSTORE PUSH1 0x20 ADD PUSH1 0x0 KECCAK256 SLOAD SWAP1 POP SWAP3 SWAP2 POP POP JUMP JUMPDEST PUSH1 0x3 PUSH1 0x0 SWAP1 SLOAD SWAP1 PUSH2 0x100 EXP SWAP1 DIV PUSH20 0xFFFFFFFFFFFFFFFFFFFFFFFFFFFFFFFFFFFFFFFF AND DUP2 JUMP JUMPDEST PUSH1 0x3 PUSH1 0x0 SWAP1 SLOAD SWAP1 PUSH2 0x100 EXP SWAP1 DIV PUSH20 0xFFFFFFFFFFFFFFFFFFFFFFFFFFFFFFFFFFFFFFFF AND PUSH20 0xFFFFFFFFFFFFFFFFFFFFFFFFFFFFFFFFFFFFFFFF AND ORIGIN PUSH20 0xFFFFFFFFFFFFFFFFFFFFFFFFFFFFFFFFFFFFFFFF AND SUB PUSH2 0x490 JUMPI PUSH1 0x0 CALLER PUSH20 0xFFFFFFFFFFFFFFFFFFFFFFFFFFFFFFFFFFFFFFFF AND EXTCODESIZE GT PUSH2 0x40A JUMPI PUSH1 0x0 DUP1 REVERT JUMPDEST DUP1 PUSH1 0x1 PUSH1 0x0 DUP5 PUSH20 0xFFFFFFFFFFFFFFFFFFFFFFFFFFFFFFFFFFFFFFFF AND PUSH20 0xFFFFFFFFFFFFFFFFFFFFFFFFFFFFFFFFFFFFFFFF AND DUP2 MSTORE PUSH1 0x20 ADD SWAP1 DUP2 MSTORE PUSH1 0x20 ADD PUSH1 0x0 KECCAK256 PUSH1 0x0 ORIGIN PUSH20 0xFFFFFFFFFFFFFFFFFFFFFFFFFFFFFFFFFFFFFFFF AND PUSH20 0xFFFFFFFFFFFFFFFFFFFFFFFFFFFFFFFFFFFFFFFF AND DUP2 MSTORE PUSH1 0x20 ADD SWAP1 DUP2 MSTORE PUSH1 0x20 ADD PUSH1 0x0 KECCAK256 DUP2 SWAP1 SSTORE POP PUSH2 0x5F0 JUMP JUMPDEST PUSH1 0x0 PUSH20 0xFFFFFFFFFFFFFFFFFFFFFFFFFFFFFFFFFFFFFFFF AND DUP4 PUSH20 0xFFFFFFFFFFFFFFFFFFFFFFFFFFFFFFFFFFFFFFFF AND SUB PUSH2 0x4FF JUMPI PUSH1 0x40 MLOAD PUSH32 0x8C379A000000000000000000000000000000000000000000000000000000000 DUP2 MSTORE PUSH1 0x4 ADD PUSH2 0x4F6 SWAP1 PUSH2 0xBD0 JUMP JUMPDEST PUSH1 0x40 MLOAD DUP1 SWAP2 SUB SWAP1 REVERT JUMPDEST PUSH1 0x0 PUSH20 0xFFFFFFFFFFFFFFFFFFFFFFFFFFFFFFFFFFFFFFFF AND DUP3 PUSH20 0xFFFFFFFFFFFFFFFFFFFFFFFFFFFFFFFFFFFFFFFF AND SUB PUSH2 0x56E JUMPI PUSH1 0x40 MLOAD PUSH32 0x8C379A000000000000000000000000000000000000000000000000000000000 DUP2 MSTORE PUSH1 0x4 ADD PUSH2 0x565 SWAP1 PUSH2 0xC62 JUMP JUMPDEST PUSH1 0x40 MLOAD DUP1 SWAP2 SUB SWAP1 REVERT JUMPDEST DUP1 PUSH1 0x1 PUSH1 0x0 DUP6 PUSH20 0xFFFFFFFFFFFFFFFFFFFFFFFFFFFFFFFFFFFFFFFF AND PUSH20 0xFFFFFFFFFFFFFFFFFFFFFFFFFFFFFFFFFFFFFFFF AND DUP2 MSTORE PUSH1 0x20 ADD SWAP1 DUP2 MSTORE PUSH1 0x20 ADD PUSH1 0x0 KECCAK256 PUSH1 0x0 DUP5 PUSH20 0xFFFFFFFFFFFFFFFFFFFFFFFFFFFFFFFFFFFFFFFF AND PUSH20 0xFFFFFFFFFFFFFFFFFFFFFFFFFFFFFFFFFFFFFFFF AND DUP2 MSTORE PUSH1 0x20 ADD SWAP1 DUP2 MSTORE PUSH1 0x20 ADD PUSH1 0x0 KECCAK256 DUP2 SWAP1 SSTORE POP JUMPDEST POP POP POP JUMP JUMPDEST PUSH1 0x0 DUP3 PUSH20 0xFFFFFFFFFFFFFFFFFFFFFFFFFFFFFFFFFFFFFFFF AND EXTCODESIZE GT DUP1 ISZERO PUSH2 0x633 JUMPI POP PUSH1 0xA DUP3 PUSH20 0xFFFFFFFFFFFFFFFFFFFFFFFFFFFFFFFFFFFFFFFF AND EXTCODESIZE LT JUMPDEST PUSH2 0x63C JUMPI PUSH1 0x0 DUP1 REVERT JUMPDEST PUSH1 0x0 DUP1 DUP3 PUSH1 0x0 SHL SWAP1 POP DUP1 SWAP2 POP ORIGIN DUP3 PUSH1 0x0 ADD PUSH1 0x0 PUSH2 0x100 EXP DUP2 SLOAD DUP2 PUSH20 0xFFFFFFFFFFFFFFFFFFFFFFFFFFFFFFFFFFFFFFFF MUL NOT AND SWAP1 DUP4 PUSH20 0xFFFFFFFFFFFFFFFFFFFFFFFFFFFFFFFFFFFFFFFF AND MUL OR SWAP1 SSTORE POP POP POP POP POP JUMP JUMPDEST PUSH1 0x0 PUSH2 0x69D DUP5 DUP5 PUSH2 0x2E4 JUMP JUMPDEST SWAP1 POP PUSH32 0xFFFFFFFFFFFFFFFFFFFFFFFFFFFFFFFFFFFFFFFFFFFFFFFFFFFFFFFFFFFFFFFF DUP2 EQ PUSH2 0x717 JUMPI DUP2 DUP2 LT ISZERO PUSH2 0x709 JUMPI PUSH1 0x40 MLOAD PUSH32 0x8C379A000000000000000000000000000000000000000000000000000000000 DUP2 MSTORE PUSH1 0x4 ADD PUSH2 0x700 SWAP1 PUSH2 0xCCE JUMP JUMPDEST PUSH1 0x40 MLOAD DUP1 SWAP2 SUB SWAP1 REVERT JUMPDEST PUSH2 0x716 DUP5 DUP5 DUP5 DUP5 SUB PUSH2 0x391 JUMP JUMPDEST JUMPDEST POP POP POP POP JUMP JUMPDEST PUSH1 0x0 PUSH20 0xFFFFFFFFFFFFFFFFFFFFFFFFFFFFFFFFFFFFFFFF AND DUP4 PUSH20 0xFFFFFFFFFFFFFFFFFFFFFFFFFFFFFFFFFFFFFFFF AND SUB PUSH2 0x78C JUMPI PUSH1 0x40 MLOAD PUSH32 0x8C379A000000000000000000000000000000000000000000000000000000000 DUP2 MSTORE PUSH1 0x4 ADD PUSH2 0x783 SWAP1 PUSH2 0xD60 JUMP JUMPDEST PUSH1 0x40 MLOAD DUP1 SWAP2 SUB SWAP1 REVERT JUMPDEST PUSH1 0x0 PUSH20 0xFFFFFFFFFFFFFFFFFFFFFFFFFFFFFFFFFFFFFFFF AND DUP3 PUSH20 0xFFFFFFFFFFFFFFFFFFFFFFFFFFFFFFFFFFFFFFFF AND SUB PUSH2 0x7FB JUMPI PUSH1 0x40 MLOAD PUSH32 0x8C379A000000000000000000000000000000000000000000000000000000000 DUP2 MSTORE PUSH1 0x4 ADD PUSH2 0x7F2 SWAP1 PUSH2 0xDF2 JUMP JUMPDEST PUSH1 0x40 MLOAD DUP1 SWAP2 SUB SWAP1 REVERT JUMPDEST PUSH1 0x0 DUP1 PUSH1 0x0 DUP6 PUSH20 0xFFFFFFFFFFFFFFFFFFFFFFFFFFFFFFFFFFFFFFFF AND PUSH20 0xFFFFFFFFFFFFFFFFFFFFFFFFFFFFFFFFFFFFFFFF AND DUP2 MSTORE PUSH1 0x20 ADD SWAP1 DUP2 MSTORE PUSH1 0x20 ADD PUSH1 0x0 KECCAK256 SLOAD SWAP1 POP DUP2 DUP2 LT ISZERO PUSH2 0x881 JUMPI PUSH1 0x40 MLOAD PUSH32 0x8C379A000000000000000000000000000000000000000000000000000000000 DUP2 MSTORE PUSH1 0x4 ADD PUSH2 0x878 SWAP1 PUSH2 0xE84 JUMP JUMPDEST PUSH1 0x40 MLOAD DUP1 SWAP2 SUB SWAP1 REVERT JUMPDEST DUP2 DUP2 PUSH2 0x88D SWAP2 SWAP1 PUSH2 0xED3 JUMP JUMPDEST PUSH1 0x0 DUP1 DUP7 PUSH20 0xFFFFFFFFFFFFFFFFFFFFFFFFFFFFFFFFFFFFFFFF AND PUSH20 0xFFFFFFFFFFFFFFFFFFFFFFFFFFFFFFFFFFFFFFFF AND DUP2 MSTORE PUSH1 0x20 ADD SWAP1 DUP2 MSTORE PUSH1 0x20 ADD PUSH1 0x0 KECCAK256 DUP2 SWAP1 SSTORE POP DUP2 PUSH1 0x0 DUP1 DUP6 PUSH20 0xFFFFFFFFFFFFFFFFFFFFFFFFFFFFFFFFFFFFFFFF AND PUSH20 0xFFFFFFFFFFFFFFFFFFFFFFFFFFFFFFFFFFFFFFFF AND DUP2 MSTORE PUSH1 0x20 ADD SWAP1 DUP2 MSTORE PUSH1 0x20 ADD PUSH1 0x0 KECCAK256 PUSH1 0x0 DUP3 DUP3 SLOAD PUSH2 0x91D SWAP2 SWAP1 PUSH2 0xF07 JUMP JUMPDEST SWAP3 POP POP DUP2 SWAP1 SSTORE POP POP POP POP POP JUMP JUMPDEST PUSH1 0x0 DUP1 REVERT JUMPDEST PUSH1 0x0 PUSH20 0xFFFFFFFFFFFFFFFFFFFFFFFFFFFFFFFFFFFFFFFF DUP3 AND SWAP1 POP SWAP2 SWAP1 POP JUMP JUMPDEST PUSH1 0x0 PUSH2 0x95A DUP3 PUSH2 0x92F JUMP JUMPDEST SWAP1 POP SWAP2 SWAP1 POP JUMP JUMPDEST PUSH2 0x96A DUP2 PUSH2 0x94F JUMP JUMPDEST DUP2 EQ PUSH2 0x975 JUMPI PUSH1 0x0 DUP1 REVERT JUMPDEST POP JUMP JUMPDEST PUSH1 0x0 DUP2 CALLDATALOAD SWAP1 POP PUSH2 0x987 DUP2 PUSH2 0x961 JUMP JUMPDEST SWAP3 SWAP2 POP POP JUMP JUMPDEST PUSH1 0x0 DUP2 SWAP1 POP SWAP2 SWAP1 POP JUMP JUMPDEST PUSH2 0x9A0 DUP2 PUSH2 0x98D JUMP JUMPDEST DUP2 EQ PUSH2 0x9AB JUMPI PUSH1 0x0 DUP1 REVERT JUMPDEST POP JUMP JUMPDEST PUSH1 0x0 DUP2 CALLDATALOAD SWAP1 POP PUSH2 0x9BD DUP2 PUSH2 0x997 JUMP JUMPDEST SWAP3 SWAP2 POP POP JUMP JUMPDEST PUSH1 0x0 DUP1 PUSH1 0x40 DUP4 DUP6 SUB SLT ISZERO PUSH2 0x9DA JUMPI PUSH2 0x9D9 PUSH2 0x92A JUMP JUMPDEST JUMPDEST PUSH1 0x0 PUSH2 0x9E8 DUP6 DUP3 DUP7 ADD PUSH2 0x978 JUMP JUMPDEST SWAP3 POP POP PUSH1 0x20 PUSH2 0x9F9 DUP6 DUP3 DUP7 ADD PUSH2 0x9AE JUMP JUMPDEST SWAP2 POP POP SWAP3 POP SWAP3 SWAP1 POP JUMP JUMPDEST PUSH1 0x0 DUP2 ISZERO ISZERO SWAP1 POP SWAP2 SWAP1 POP JUMP JUMPDEST PUSH2 0xA18 DUP2 PUSH2 0xA03 JUMP JUMPDEST DUP3 MSTORE POP POP JUMP JUMPDEST PUSH1 0x0 PUSH1 0x20 DUP3 ADD SWAP1 POP PUSH2 0xA33 PUSH1 0x0 DUP4 ADD DUP5 PUSH2 0xA0F JUMP JUMPDEST SWAP3 SWAP2 POP POP JUMP JUMPDEST PUSH2 0xA42 DUP2 PUSH2 0x98D JUMP JUMPDEST DUP3 MSTORE POP POP JUMP JUMPDEST PUSH1 0x0 PUSH1 0x20 DUP3 ADD SWAP1 POP PUSH2 0xA5D PUSH1 0x0 DUP4 ADD DUP5 PUSH2 0xA39 JUMP JUMPDEST SWAP3 SWAP2 POP POP JUMP JUMPDEST PUSH1 0x0 DUP1 PUSH1 0x0 PUSH1 0x60 DUP5 DUP7 SUB SLT ISZERO PUSH2 0xA7C JUMPI PUSH2 0xA7B PUSH2 0x92A JUMP JUMPDEST JUMPDEST PUSH1 0x0 PUSH2 0xA8A DUP7 DUP3 DUP8 ADD PUSH2 0x978 JUMP JUMPDEST SWAP4 POP POP PUSH1 0x20 PUSH2 0xA9B DUP7 DUP3 DUP8 ADD PUSH2 0x978 JUMP JUMPDEST SWAP3 POP POP PUSH1 0x40 PUSH2 0xAAC DUP7 DUP3 DUP8 ADD PUSH2 0x9AE JUMP JUMPDEST SWAP2 POP POP SWAP3 POP SWAP3 POP SWAP3 JUMP JUMPDEST PUSH1 0x0 PUSH1 0x20 DUP3 DUP5 SUB SLT ISZERO PUSH2 0xACC JUMPI PUSH2 0xACB PUSH2 0x92A JUMP JUMPDEST JUMPDEST PUSH1 0x0 PUSH2 0xADA DUP5 DUP3 DUP6 ADD PUSH2 0x978 JUMP JUMPDEST SWAP2 POP POP SWAP3 SWAP2 POP POP JUMP JUMPDEST PUSH1 0x0 DUP1 PUSH1 0x40 DUP4 DUP6 SUB SLT ISZERO PUSH2 0xAFA JUMPI PUSH2 0xAF9 PUSH2 0x92A JUMP JUMPDEST JUMPDEST PUSH1 0x0 PUSH2 0xB08 DUP6 DUP3 DUP7 ADD PUSH2 0x978 JUMP JUMPDEST SWAP3 POP POP PUSH1 0x20 PUSH2 0xB19 DUP6 DUP3 DUP7 ADD PUSH2 0x978 JUMP JUMPDEST SWAP2 POP POP SWAP3 POP SWAP3 SWAP1 POP JUMP JUMPDEST PUSH2 0xB2C DUP2 PUSH2 0x94F JUMP JUMPDEST DUP3 MSTORE POP POP JUMP JUMPDEST PUSH1 0x0 PUSH1 0x20 DUP3 ADD SWAP1 POP PUSH2 0xB47 PUSH1 0x0 DUP4 ADD DUP5 PUSH2 0xB23 JUMP JUMPDEST SWAP3 SWAP2 POP POP JUMP JUMPDEST PUSH1 0x0 DUP3 DUP3 MSTORE PUSH1 0x20 DUP3 ADD SWAP1 POP SWAP3 SWAP2 POP POP JUMP JUMPDEST PUSH32 0x45524332303A20617070726F76652066726F6D20746865207A65726F20616464 PUSH1 0x0 DUP3 ADD MSTORE PUSH32 0x7265737300000000000000000000000000000000000000000000000000000000 PUSH1 0x20 DUP3 ADD MSTORE POP JUMP JUMPDEST PUSH1 0x0 PUSH2 0xBBA PUSH1 0x24 DUP4 PUSH2 0xB4D JUMP JUMPDEST SWAP2 POP PUSH2 0xBC5 DUP3 PUSH2 0xB5E JUMP JUMPDEST PUSH1 0x40 DUP3 ADD SWAP1 POP SWAP2 SWAP1 POP JUMP JUMPDEST PUSH1 0x0 PUSH1 0x20 DUP3 ADD SWAP1 POP DUP2 DUP2 SUB PUSH1 0x0 DUP4 ADD MSTORE PUSH2 0xBE9 DUP2 PUSH2 0xBAD JUMP JUMPDEST SWAP1 POP SWAP2 SWAP1 POP JUMP JUMPDEST PUSH32 0x45524332303A20617070726F766520746F20746865207A65726F206164647265 PUSH1 0x0 DUP3 ADD MSTORE PUSH32 0x7373000000000000000000000000000000000000000000000000000000000000 PUSH1 0x20 DUP3 ADD MSTORE POP JUMP JUMPDEST PUSH1 0x0 PUSH2 0xC4C PUSH1 0x22 DUP4 PUSH2 0xB4D JUMP JUMPDEST SWAP2 POP PUSH2 0xC57 DUP3 PUSH2 0xBF0 JUMP JUMPDEST PUSH1 0x40 DUP3 ADD SWAP1 POP SWAP2 SWAP1 POP JUMP JUMPDEST PUSH1 0x0 PUSH1 0x20 DUP3 ADD SWAP1 POP DUP2 DUP2 SUB PUSH1 0x0 DUP4 ADD MSTORE PUSH2 0xC7B DUP2 PUSH2 0xC3F JUMP JUMPDEST SWAP1 POP SWAP2 SWAP1 POP JUMP JUMPDEST PUSH32 0x45524332303A20696E73756666696369656E7420616C6C6F77616E6365000000 PUSH1 0x0 DUP3 ADD MSTORE POP JUMP JUMPDEST PUSH1 0x0 PUSH2 0xCB8 PUSH1 0x1D DUP4 PUSH2 0xB4D JUMP JUMPDEST SWAP2 POP PUSH2 0xCC3 DUP3 PUSH2 0xC82 JUMP JUMPDEST PUSH1 0x20 DUP3 ADD SWAP1 POP SWAP2 SWAP1 POP JUMP JUMPDEST PUSH1 0x0 PUSH1 0x20 DUP3 ADD SWAP1 POP DUP2 DUP2 SUB PUSH1 0x0 DUP4 ADD MSTORE PUSH2 0xCE7 DUP2 PUSH2 0xCAB JUMP JUMPDEST SWAP1 POP SWAP2 SWAP1 POP JUMP JUMPDEST PUSH32 0x45524332303A207472616E736665722066726F6D20746865207A65726F206164 PUSH1 0x0 DUP3 ADD MSTORE PUSH32 0x6472657373000000000000000000000000000000000000000000000000000000 PUSH1 0x20 DUP3 ADD MSTORE POP JUMP JUMPDEST PUSH1 0x0 PUSH2 0xD4A PUSH1 0x25 DUP4 PUSH2 0xB4D JUMP JUMPDEST SWAP2 POP PUSH2 0xD55 DUP3 PUSH2 0xCEE JUMP JUMPDEST PUSH1 0x40 DUP3 ADD SWAP1 POP SWAP2 SWAP1 POP JUMP JUMPDEST PUSH1 0x0 PUSH1 0x20 DUP3 ADD SWAP1 POP DUP2 DUP2 SUB PUSH1 0x0 DUP4 ADD MSTORE PUSH2 0xD79 DUP2 PUSH2 0xD3D JUMP JUMPDEST SWAP1 POP SWAP2 SWAP1 POP JUMP JUMPDEST PUSH32 0x45524332303A207472616E7366657220746F20746865207A65726F2061646472 PUSH1 0x0 DUP3 ADD MSTORE PUSH32 0x6573730000000000000000000000000000000000000000000000000000000000 PUSH1 0x20 DUP3 ADD MSTORE POP JUMP JUMPDEST PUSH1 0x0 PUSH2 0xDDC PUSH1 0x23 DUP4 PUSH2 0xB4D JUMP JUMPDEST SWAP2 POP PUSH2 0xDE7 DUP3 PUSH2 0xD80 JUMP JUMPDEST PUSH1 0x40 DUP3 ADD SWAP1 POP SWAP2 SWAP1 POP JUMP JUMPDEST PUSH1 0x0 PUSH1 0x20 DUP3 ADD SWAP1 POP DUP2 DUP2 SUB PUSH1 0x0 DUP4 ADD MSTORE PUSH2 0xE0B DUP2 PUSH2 0xDCF JUMP JUMPDEST SWAP1 POP SWAP2 SWAP1 POP JUMP JUMPDEST PUSH32 0x45524332303A207472616E7366657220616D6F756E7420657863656564732062 PUSH1 0x0 DUP3 ADD MSTORE PUSH32 0x616C616E63650000000000000000000000000000000000000000000000000000 PUSH1 0x20 DUP3 ADD MSTORE POP JUMP JUMPDEST PUSH1 0x0 PUSH2 0xE6E PUSH1 0x26 DUP4 PUSH2 0xB4D JUMP JUMPDEST SWAP2 POP PUSH2 0xE79 DUP3 PUSH2 0xE12 JUMP JUMPDEST PUSH1 0x40 DUP3 ADD SWAP1 POP SWAP2 SWAP1 POP JUMP JUMPDEST PUSH1 0x0 PUSH1 0x20 DUP3 ADD SWAP1 POP DUP2 DUP2 SUB PUSH1 0x0 DUP4 ADD MSTORE PUSH2 0xE9D DUP2 PUSH2 0xE61 JUMP JUMPDEST SWAP1 POP SWAP2 SWAP1 POP JUMP JUMPDEST PUSH32 0x4E487B7100000000000000000000000000000000000000000000000000000000 PUSH1 0x0 MSTORE PUSH1 0x11 PUSH1 0x4 MSTORE PUSH1 0x24 PUSH1 0x0 REVERT JUMPDEST PUSH1 0x0 PUSH2 0xEDE DUP3 PUSH2 0x98D JUMP JUMPDEST SWAP2 POP PUSH2 0xEE9 DUP4 PUSH2 0x98D JUMP JUMPDEST SWAP3 POP DUP3 DUP3 SUB SWAP1 POP DUP2 DUP2 GT ISZERO PUSH2 0xF01 JUMPI PUSH2 0xF00 PUSH2 0xEA4 JUMP JUMPDEST JUMPDEST SWAP3 SWAP2 POP POP JUMP JUMPDEST PUSH1 0x0 PUSH2 0xF12 DUP3 PUSH2 0x98D JUMP JUMPDEST SWAP2 POP PUSH2 0xF1D DUP4 PUSH2 0x98D JUMP JUMPDEST SWAP3 POP DUP3 DUP3 ADD SWAP1 POP DUP1 DUP3 GT ISZERO PUSH2 0xF35 JUMPI PUSH2 0xF34 PUSH2 0xEA4 JUMP JUMPDEST JUMPDEST SWAP3 SWAP2 POP POP JUMP INVALID LOG2 PUSH5 0x6970667358 0x22 SLT KECCAK256 RETURNDATACOPY STOP LT 0xCA CALLDATACOPY MSTORE DIFFICULTY XOR 0xCA EXTCODEHASH JUMP PUSH17 0x23CD8E1FBE55D35E4BA09B3F64BBC14263 CALLDATASIZE SWAP14 PUSH9 0x64736F6C6343000811 STOP CALLER "
				},
				"gasEstimates": {
					"creation": {
						"codeDepositCost": "300600",
						"executionCost": "infinite",
						"totalCost": "infinite"
					},
					"external": {
						"Complete()": "infinite",
						"cert()": "infinite",
						"getToken()": "infinite",
						"isComplete()": "2565"
					}
				},
				"methodIdentifiers": {
					"Complete()": "01b7dcb4",
					"cert()": "b28a91d0",
					"getToken()": "21df0da7",
					"isComplete()": "b2fa1c9e"
				}
			},
			"storageLayout": {
				"storage": [
					{
						"astId": 402,
						"contract": "第2题/ApproveMain.sol:ApproveMain",
						"label": "cert",
						"offset": 0,
						"slot": "0",
						"type": "t_contract(Cert)399"
					},
					{
						"astId": 404,
						"contract": "第2题/ApproveMain.sol:ApproveMain",
						"label": "isComplete",
						"offset": 20,
						"slot": "0",
						"type": "t_bool"
					}
				],
				"types": {
					"t_bool": {
						"encoding": "inplace",
						"label": "bool",
						"numberOfBytes": "1"
					},
					"t_contract(Cert)399": {
						"encoding": "inplace",
						"label": "contract Cert",
						"numberOfBytes": "20"
					}
				}
			},
			"userdoc": {
				"kind": "user",
				"methods": {},
				"version": 1
			}
		}
	}
}